{
  "address": "0x25320d2766d8b6aAB2bBc675571543c3b7Fd13de",
  "abi": [
    {
      "inputs": [],
      "name": "ACL_ONLY_AIRDROP_OPERATOR_CAN_CALL",
      "outputs": [
        {
          "internalType": "string",
          "name": "",
          "type": "string"
        }
      ],
      "stateMutability": "view",
      "type": "function"
    },
    {
      "inputs": [],
      "name": "ACL_ONLY_EMERGENCY_ADMIN_CAN_CALL",
      "outputs": [
        {
          "internalType": "string",
          "name": "",
          "type": "string"
        }
      ],
      "stateMutability": "view",
      "type": "function"
    },
    {
      "inputs": [],
      "name": "ACL_ONLY_GOVERNANCE_CAN_CALL",
      "outputs": [
        {
          "internalType": "string",
          "name": "",
          "type": "string"
        }
      ],
      "stateMutability": "view",
      "type": "function"
    },
    {
      "inputs": [],
      "name": "ACL_ONLY_LIQUIDATOR_CAN_CALL",
      "outputs": [
        {
          "internalType": "string",
          "name": "",
          "type": "string"
        }
      ],
      "stateMutability": "view",
      "type": "function"
    },
    {
      "inputs": [],
      "name": "ACL_ONLY_POOL_ADMIN_CAN_CALL",
      "outputs": [
        {
          "internalType": "string",
          "name": "",
          "type": "string"
        }
      ],
      "stateMutability": "view",
      "type": "function"
    },
    {
      "inputs": [],
      "name": "ACL_ONLY_POOL_CAN_CALL",
      "outputs": [
        {
          "internalType": "string",
          "name": "",
          "type": "string"
        }
      ],
      "stateMutability": "view",
      "type": "function"
    },
    {
      "inputs": [],
      "name": "AMOUNT_SCALED_IS_ZERO",
      "outputs": [
        {
          "internalType": "string",
          "name": "",
          "type": "string"
        }
      ],
      "stateMutability": "view",
      "type": "function"
    },
    {
      "inputs": [],
      "name": "AMOUNT_TRANSFER_OVERFLOW",
      "outputs": [
        {
          "internalType": "string",
          "name": "",
          "type": "string"
        }
      ],
      "stateMutability": "view",
      "type": "function"
    },
    {
      "inputs": [],
      "name": "APPROVAL_FAILED",
      "outputs": [
        {
          "internalType": "string",
          "name": "",
          "type": "string"
        }
      ],
      "stateMutability": "view",
      "type": "function"
    },
    {
      "inputs": [],
      "name": "BORROW_AMOUNT_EXCEED_BORROW_LIMIT",
      "outputs": [
        {
          "internalType": "string",
          "name": "",
          "type": "string"
        }
      ],
      "stateMutability": "view",
      "type": "function"
    },
    {
      "inputs": [],
      "name": "BORROW_DURATION_NOT_ALLOWED",
      "outputs": [
        {
          "internalType": "string",
          "name": "",
          "type": "string"
        }
      ],
      "stateMutability": "view",
      "type": "function"
    },
    {
      "inputs": [],
      "name": "DEPOSIT_AMOUNT_SHOULD_BE_BIGGER_THAN_ZERO",
      "outputs": [
        {
          "internalType": "string",
          "name": "",
          "type": "string"
        }
      ],
      "stateMutability": "view",
      "type": "function"
    },
    {
      "inputs": [],
      "name": "END_LIQUIDATION_AMOUNT_ERROR",
      "outputs": [
        {
          "internalType": "string",
          "name": "",
          "type": "string"
        }
      ],
      "stateMutability": "view",
      "type": "function"
    },
    {
      "inputs": [],
      "name": "END_LIQUIDATION_STATUS_ERROR",
      "outputs": [
        {
          "internalType": "string",
          "name": "",
          "type": "string"
        }
      ],
      "stateMutability": "view",
      "type": "function"
    },
    {
      "inputs": [],
      "name": "ETH_TRANSFER_FAILED",
      "outputs": [
        {
          "internalType": "string",
          "name": "",
          "type": "string"
        }
      ],
      "stateMutability": "view",
      "type": "function"
    },
    {
      "inputs": [],
      "name": "EXTEND_MSG_VALUE_ERROR",
      "outputs": [
        {
          "internalType": "string",
          "name": "",
          "type": "string"
        }
      ],
      "stateMutability": "view",
      "type": "function"
    },
    {
      "inputs": [],
      "name": "EXTEND_STATUS_ERROR",
      "outputs": [
        {
          "internalType": "string",
          "name": "",
          "type": "string"
        }
      ],
      "stateMutability": "view",
      "type": "function"
    },
    {
      "inputs": [],
      "name": "FALLBACK_NOT_ALLOWED",
      "outputs": [
        {
          "internalType": "string",
          "name": "",
          "type": "string"
        }
      ],
      "stateMutability": "view",
      "type": "function"
    },
    {
      "inputs": [],
      "name": "FLASHCLAIM_EXECUTOR_ERROR",
      "outputs": [
        {
          "internalType": "string",
          "name": "",
          "type": "string"
        }
      ],
      "stateMutability": "view",
      "type": "function"
    },
    {
      "inputs": [],
      "name": "FLASHCLAIM_STATUS_ERROR",
      "outputs": [
        {
          "internalType": "string",
          "name": "",
          "type": "string"
        }
      ],
      "stateMutability": "view",
      "type": "function"
    },
    {
      "inputs": [],
      "name": "LOAN_CALLER_IS_NOT_OWNER",
      "outputs": [
        {
          "internalType": "string",
          "name": "",
          "type": "string"
        }
      ],
      "stateMutability": "view",
      "type": "function"
    },
    {
      "inputs": [],
      "name": "LOAN_COLLATERAL_NFT_CAN_NOT_BE_CLAIMED",
      "outputs": [
        {
          "internalType": "string",
          "name": "",
          "type": "string"
        }
      ],
      "stateMutability": "view",
      "type": "function"
    },
    {
      "inputs": [],
      "name": "LOAN_DOES_NOT_EXIST",
      "outputs": [
        {
          "internalType": "string",
          "name": "",
          "type": "string"
        }
      ],
      "stateMutability": "view",
      "type": "function"
    },
    {
      "inputs": [],
      "name": "LOAN_LIQUIDATING_STATUS_CAN_NOT_BE_UPDATED",
      "outputs": [
        {
          "internalType": "string",
          "name": "",
          "type": "string"
        }
      ],
      "stateMutability": "view",
      "type": "function"
    },
    {
      "inputs": [],
      "name": "LOAN_REPAYER_IS_NOT_OWNER",
      "outputs": [
        {
          "internalType": "string",
          "name": "",
          "type": "string"
        }
      ],
      "stateMutability": "view",
      "type": "function"
    },
    {
      "inputs": [],
      "name": "LOAN_SET_STATUS_ERROR",
      "outputs": [
        {
          "internalType": "string",
          "name": "",
          "type": "string"
        }
      ],
      "stateMutability": "view",
      "type": "function"
    },
    {
      "inputs": [],
      "name": "MATH_ADDITION_OVERFLOW",
      "outputs": [
        {
          "internalType": "string",
          "name": "",
          "type": "string"
        }
      ],
      "stateMutability": "view",
      "type": "function"
    },
    {
      "inputs": [],
      "name": "MATH_DIVISION_BY_ZERO",
      "outputs": [
        {
          "internalType": "string",
          "name": "",
          "type": "string"
        }
      ],
      "stateMutability": "view",
      "type": "function"
    },
    {
      "inputs": [],
      "name": "MATH_MULTIPLICATION_OVERFLOW",
      "outputs": [
        {
          "internalType": "string",
          "name": "",
          "type": "string"
        }
      ],
      "stateMutability": "view",
      "type": "function"
    },
    {
      "inputs": [],
      "name": "MONEY_MARKET_ADDRESS_ZERO_WHEN_OPEN",
      "outputs": [
        {
          "internalType": "string",
          "name": "",
          "type": "string"
        }
      ],
      "stateMutability": "view",
      "type": "function"
    },
    {
      "inputs": [],
      "name": "MONEY_MARKET_APPROVAL_FAILED",
      "outputs": [
        {
          "internalType": "string",
          "name": "",
          "type": "string"
        }
      ],
      "stateMutability": "view",
      "type": "function"
    },
    {
      "inputs": [],
      "name": "MONEY_MARKET_DELEGATE_CALL_ERROR",
      "outputs": [
        {
          "internalType": "string",
          "name": "",
          "type": "string"
        }
      ],
      "stateMutability": "view",
      "type": "function"
    },
    {
      "inputs": [],
      "name": "MONEY_MARKET_DEPOSIT_AMOUNT_NOT_ALLOWED",
      "outputs": [
        {
          "internalType": "string",
          "name": "",
          "type": "string"
        }
      ],
      "stateMutability": "view",
      "type": "function"
    },
    {
      "inputs": [],
      "name": "MONEY_MARKET_REQUIRE_DELEGATE_CALL",
      "outputs": [
        {
          "internalType": "string",
          "name": "",
          "type": "string"
        }
      ],
      "stateMutability": "view",
      "type": "function"
    },
    {
      "inputs": [],
      "name": "MONEY_MARKET_WITHDRAW_AMOUNT_NOT_ALLOWED",
      "outputs": [
        {
          "internalType": "string",
          "name": "",
          "type": "string"
        }
      ],
      "stateMutability": "view",
      "type": "function"
    },
    {
      "inputs": [],
      "name": "MONEY_MARKET_WITHDRAW_AMOUNT_NOT_MATCH",
      "outputs": [
        {
          "internalType": "string",
          "name": "",
          "type": "string"
        }
      ],
      "stateMutability": "view",
      "type": "function"
    },
    {
      "inputs": [],
      "name": "NFT_ADDRESS_IS_NOT_IN_WHITELIST",
      "outputs": [
        {
          "internalType": "string",
          "name": "",
          "type": "string"
        }
      ],
      "stateMutability": "view",
      "type": "function"
    },
    {
      "inputs": [],
      "name": "PRICE_ORACLE_HAS_NO_PRICE_FEED",
      "outputs": [
        {
          "internalType": "string",
          "name": "",
          "type": "string"
        }
      ],
      "stateMutability": "view",
      "type": "function"
    },
    {
      "inputs": [],
      "name": "PRICE_ORACLE_INCORRECT_TIMESTAMP",
      "outputs": [
        {
          "internalType": "string",
          "name": "",
          "type": "string"
        }
      ],
      "stateMutability": "view",
      "type": "function"
    },
    {
      "inputs": [],
      "name": "PRICE_ORACLE_PARAMS_ERROR",
      "outputs": [
        {
          "internalType": "string",
          "name": "",
          "type": "string"
        }
      ],
      "stateMutability": "view",
      "type": "function"
    },
    {
      "inputs": [],
      "name": "RECEIVE_NOT_ALLOWED",
      "outputs": [
        {
          "internalType": "string",
          "name": "",
          "type": "string"
        }
      ],
      "stateMutability": "view",
      "type": "function"
    },
    {
      "inputs": [],
      "name": "REPAY_MSG_VALUE_ERROR",
      "outputs": [
        {
          "internalType": "string",
          "name": "",
          "type": "string"
        }
      ],
      "stateMutability": "view",
      "type": "function"
    },
    {
      "inputs": [],
      "name": "REPAY_STATUS_ERROR",
      "outputs": [
        {
          "internalType": "string",
          "name": "",
          "type": "string"
        }
      ],
      "stateMutability": "view",
      "type": "function"
    },
    {
      "inputs": [],
      "name": "RESERVE_DOES_NOT_EXIST",
      "outputs": [
        {
          "internalType": "string",
          "name": "",
          "type": "string"
        }
      ],
      "stateMutability": "view",
      "type": "function"
    },
    {
      "inputs": [],
      "name": "RESERVE_INDEX_OVERFLOW",
      "outputs": [
        {
          "internalType": "string",
          "name": "",
          "type": "string"
        }
      ],
      "stateMutability": "view",
      "type": "function"
    },
    {
      "inputs": [],
      "name": "RESERVE_LIQUIDITY_INSUFFICIENT",
      "outputs": [
        {
          "internalType": "string",
          "name": "",
          "type": "string"
        }
      ],
      "stateMutability": "view",
      "type": "function"
    },
    {
      "inputs": [],
      "name": "RESERVE_SWITCH_MONEY_MARKET_STATE_ERROR",
      "outputs": [
        {
          "internalType": "string",
          "name": "",
          "type": "string"
        }
      ],
      "stateMutability": "view",
      "type": "function"
    },
    {
      "inputs": [],
      "name": "RESERVE_TOKEN_CAN_NOT_BE_CLAIMED",
      "outputs": [
        {
          "internalType": "string",
          "name": "",
          "type": "string"
        }
      ],
      "stateMutability": "view",
      "type": "function"
    },
    {
      "inputs": [],
      "name": "RESERVE_TREASURY_FACTOR_NOT_ALLOWED",
      "outputs": [
        {
          "internalType": "string",
          "name": "",
          "type": "string"
        }
      ],
      "stateMutability": "view",
      "type": "function"
    },
    {
      "inputs": [],
      "name": "SETTING_ADDRESS_ALREADY_INITIALIZED",
      "outputs": [
        {
          "internalType": "string",
          "name": "",
          "type": "string"
        }
      ],
      "stateMutability": "view",
      "type": "function"
    },
    {
      "inputs": [],
      "name": "SETTING_RESERVE_FACTOR_NOT_ALLOWED",
      "outputs": [
        {
          "internalType": "string",
          "name": "",
          "type": "string"
        }
      ],
      "stateMutability": "view",
      "type": "function"
    },
    {
      "inputs": [],
      "name": "SETTING_WHITELIST_INVALID_RESERVE_ID",
      "outputs": [
        {
          "internalType": "string",
          "name": "",
          "type": "string"
        }
      ],
      "stateMutability": "view",
      "type": "function"
    },
    {
      "inputs": [],
      "name": "SETTING_WHITELIST_NFT_ADDRESS_IS_ZERO",
      "outputs": [
        {
          "internalType": "string",
          "name": "",
          "type": "string"
        }
      ],
      "stateMutability": "view",
      "type": "function"
    },
    {
      "inputs": [],
      "name": "SETTING_WHITELIST_NFT_DURATION_OUT_OF_ORDER",
      "outputs": [
        {
          "internalType": "string",
          "name": "",
          "type": "string"
        }
      ],
      "stateMutability": "view",
      "type": "function"
    },
    {
      "inputs": [],
      "name": "SETTING_WHITELIST_NFT_LTV_NOT_ALLOWED",
      "outputs": [
        {
          "internalType": "string",
          "name": "",
          "type": "string"
        }
      ],
      "stateMutability": "view",
      "type": "function"
    },
    {
      "inputs": [],
      "name": "SETTING_WHITELIST_NFT_NAME_EMPTY",
      "outputs": [
        {
          "internalType": "string",
          "name": "",
          "type": "string"
        }
      ],
      "stateMutability": "view",
      "type": "function"
    },
    {
      "inputs": [],
      "name": "SETTING_WHITELIST_NFT_SYMBOL_EMPTY",
      "outputs": [
        {
          "internalType": "string",
          "name": "",
          "type": "string"
        }
      ],
      "stateMutability": "view",
      "type": "function"
    },
    {
      "inputs": [],
      "name": "SETTING_ZERO_ADDRESS_NOT_ALLOWED",
      "outputs": [
        {
          "internalType": "string",
          "name": "",
          "type": "string"
        }
      ],
      "stateMutability": "view",
      "type": "function"
    },
    {
      "inputs": [],
      "name": "START_LIQUIDATION_STATUS_ERROR",
      "outputs": [
        {
          "internalType": "string",
          "name": "",
          "type": "string"
        }
      ],
      "stateMutability": "view",
      "type": "function"
    },
    {
      "inputs": [],
      "name": "WITHDRAW_AMOUNT_NOT_ALLOWED",
      "outputs": [
        {
          "internalType": "string",
          "name": "",
          "type": "string"
        }
      ],
      "stateMutability": "view",
      "type": "function"
    },
    {
      "inputs": [],
      "name": "WITHDRAW_LIQUIDITY_NOT_SUFFICIENT",
      "outputs": [
        {
          "internalType": "string",
          "name": "",
          "type": "string"
        }
      ],
      "stateMutability": "view",
      "type": "function"
    }
  ],
  "transactionHash": "0x4eb8742e67957648df37bc5744cee88a186709ddf2bb42a5785cf068d3c26baa",
  "args": [],
  "solcInputHash": "88f70ef30a97ad95dcfad3d4587a7e7c",
  "bytecode": "0x610c7861003a600b82828239805160001a60731461002d57634e487b7160e01b600052600060045260246000fd5b30600052607381538281f3fe73000000000000000000000000000000000000000030146080604052600436106103b85760003560e01c8063788fe575116101fe578063b5539a7111610124578063d6ab80cf116100b7578063f77048ae11610086578063f77048ae14610b65578063fc1b646b14610b87578063fcce050214610ba9578063fce162d614610bcb57600080fd5b8063d6ab80cf14610add578063dad907a514610aff578063e7e3349214610b21578063f69a13f414610b4357600080fd5b8063c888ea62116100f3578063c888ea6214610a55578063d162780f14610a77578063d22edf8814610a99578063d34d3bb114610abb57600080fd5b8063b5539a71146109cd578063b6400862146109ef578063bf9c5c9014610a11578063c7dbca0c14610a3357600080fd5b8063961cdae71161019c578063a02b5e9b1161016b578063a02b5e9b14610945578063acd8da7114610967578063b2ba002d14610989578063b470db33146109ab57600080fd5b8063961cdae7146108bd578063989762e4146108df57806398ce269a14610901578063a00febcc1461092357600080fd5b80637c80d99e116101d85780637c80d99e14610835578063803b78951461085757806383d452aa146108795780638854971d1461089b57600080fd5b8063788fe575146107cf5780637ab2bbb7146107f15780637c76aa241461081357600080fd5b80634349e3d8116102e35780635fab3fae11610281578063697c011d11610250578063697c011d146107475780636b1460d2146107695780636cfcdf5d1461078b57806370f38c80146107ad57600080fd5b80635fab3fae146106bf5780636020ba73146106e157806366e82b9714610703578063691f05271461072557600080fd5b80634d942ab6116102bd5780634d942ab61461063757806350c73ba6146106595780635cd296b31461067b5780635de930631461069d57600080fd5b80634349e3d8146105d157806343c7bd07146105f3578063498d86e91461061557600080fd5b80631758f2531161035b578063342521b01161032a578063342521b014610549578063391f87841461056b5780633bdd7b111461058d5780633cb25258146105af57600080fd5b80631758f253146104c1578063189e3187146104e35780632399a74b146105055780632ba134161461052757600080fd5b80630876a60f116103975780630876a60f1461043957806309b6c42b1461045b5780630b93d4f31461047d5780630f5ee4821461049f57600080fd5b8062371bb5146103bd578063012b9247146103f5578063029d234414610417575b600080fd5b6103df6040518060400160405280600381526020016203331360ec1b81525081565b6040516103ec9190610bed565b60405180910390f35b6103df6040518060400160405280600381526020016231323360e81b81525081565b6103df6040518060400160405280600381526020016203130360ec1b81525081565b6103df6040518060400160405280600381526020016231313360e81b81525081565b6103df6040518060400160405280600381526020016203630360ec1b81525081565b6103df6040518060400160405280600381526020016203230360ec1b81525081565b6103df6040518060400160405280600381526020016231303160e81b81525081565b6103df6040518060400160405280600381526020016232303160e81b81525081565b6103df6040518060400160405280600381526020016203431360ec1b81525081565b6103df6040518060400160405280600381526020016233303360e81b81525081565b6103df6040518060400160405280600381526020016219999b60e91b81525081565b6103df6040518060400160405280600381526020016234303160e81b81525081565b6103df60405180604001604052806003815260200162199b1960e91b81525081565b6103df604051806040016040528060038152602001621b181960e91b81525081565b6103df6040518060400160405280600381526020016206262760eb1b81525081565b6103df6040518060400160405280600381526020016218981960e91b81525081565b6103df6040518060400160405280600381526020016235303160e81b81525081565b6103df604051806040016040528060038152602001620c8c0d60ea1b81525081565b6103df6040518060400160405280600381526020016233333360e81b81525081565b6103df6040518060400160405280600381526020016219999960e91b81525081565b6103df6040518060400160405280600381526020016233333560e81b81525081565b6103df6040518060400160405280600381526020016233323160e81b81525081565b6103df6040518060400160405280600381526020016203430360ec1b81525081565b6103df604051806040016040528060038152602001620d4c0d60ea1b81525081565b6103df6040518060400160405280600381526020016203333360ec1b81525081565b6103df604051806040016040528060038152602001621a981960e91b81525081565b6103df6040518060400160405280600381526020016234303360e81b81525081565b6103df6040518060400160405280600381526020016203530360ec1b81525081565b6103df6040518060400160405280600381526020016233303560e81b81525081565b6103df6040518060400160405280600381526020016231313160e81b81525081565b6103df604051806040016040528060038152602001620d0c0d60ea1b81525081565b6103df6040518060400160405280600381526020016233303160e81b81525081565b6103df604051806040016040528060038152602001620ccccd60ea1b81525081565b6103df6040518060400160405280600381526020016218989b60e91b81525081565b6103df604051806040016040528060038152602001621a181960e91b81525081565b6103df6040518060400160405280600381526020016233333160e81b81525081565b6103df6040518060400160405280600381526020016203332360ec1b81525081565b6103df6040518060400160405280600381526020016231313960e81b81525081565b6103df6040518060400160405280600381526020016203132360ec1b81525081565b6103df6040518060400160405280600381526020016203131360ec1b81525081565b6103df6040518060400160405280600381526020016231313760e81b81525081565b6103df6040518060400160405280600381526020016232303360e81b81525081565b6103df6040518060400160405280600381526020016219181960e91b81525081565b6103df6040518060400160405280600381526020016218989960e91b81525081565b6103df6040518060400160405280600381526020016235303360e81b81525081565b6103df6040518060400160405280600381526020016219991960e91b81525081565b6103df6040518060400160405280600381526020016232303560e81b81525081565b6103df6040518060400160405280600381526020016236303160e81b81525081565b6103df6040518060400160405280600381526020016231323160e81b81525081565b6103df6040518060400160405280600381526020016203330360ec1b81525081565b6103df604051806040016040528060038152602001621a981b60e91b81525081565b6103df6040518060400160405280600381526020016235303560e81b81525081565b6103df604051806040016040528060038152602001620ccc0d60ea1b81525081565b6103df6040518060400160405280600381526020016219981960e91b81525081565b6103df6040518060400160405280600381526020016233313160e81b81525081565b6103df6040518060400160405280600381526020016234303560e81b81525081565b6103df6040518060400160405280600381526020016234313160e81b81525081565b6103df6040518060400160405280600381526020016218991960e91b81525081565b6103df6040518060400160405280600381526020016231313560e81b81525081565b6103df6040518060400160405280600381526020016233363160e81b81525081565b6103df6040518060400160405280600381526020016203336360ec1b81525081565b600060208083528351808285015260005b81811015610c1a57858101830151858201604001528201610bfe565b81811115610c2c576000604083870101525b50601f01601f191692909201604001939250505056fea264697066735822122085da88b92cd65b67476d0dcdf543d37a75f9ece71ede98f6f2d8a350d0900b7e64736f6c634300080a0033",
  "devdoc": {
    "kind": "dev",
    "methods": {},
    "version": 1
  },
  "userdoc": {
    "kind": "user",
    "methods": {},
    "version": 1
  },
  "storageLayout": {
    "storage": [],
    "types": null
  }
}