{
  "address": "0xD7ca4B8BFA6709fD87aeC66De1956b1f2bdFB434",
  "abi": [
    {
      "inputs": [
        {
          "internalType": "uint256",
          "name": "borrowRate",
          "type": "uint256"
        },
        {
          "internalType": "uint256",
          "name": "amount",
          "type": "uint256"
        },
        {
          "internalType": "uint256",
          "name": "duration",
          "type": "uint256"
        }
      ],
      "name": "calculateBorrowInterest",
      "outputs": [
        {
          "internalType": "uint256",
          "name": "",
          "type": "uint256"
        }
      ],
      "stateMutability": "pure",
      "type": "function"
    },
    {
      "inputs": [
        {
          "internalType": "uint256",
          "name": "borrowRate",
          "type": "uint256"
        },
        {
          "internalType": "uint256",
          "name": "amount",
          "type": "uint256"
        }
      ],
      "name": "calculateBorrowInterestPerSecond",
      "outputs": [
        {
          "internalType": "uint256",
          "name": "",
          "type": "uint256"
        }
      ],
      "stateMutability": "pure",
      "type": "function"
    },
    {
      "inputs": [
        {
          "internalType": "uint256",
          "name": "rate",
          "type": "uint256"
        },
        {
          "internalType": "uint40",
          "name": "lastUpdateTimestamp",
          "type": "uint40"
        }
      ],
      "name": "calculateLinearInterest",
      "outputs": [
        {
          "internalType": "uint256",
          "name": "",
          "type": "uint256"
        }
      ],
      "stateMutability": "view",
      "type": "function"
    },
    {
      "inputs": [
        {
          "internalType": "uint256",
          "name": "availableLiquidity",
          "type": "uint256"
        },
        {
          "internalType": "uint256",
          "name": "totalBorrows",
          "type": "uint256"
        },
        {
          "internalType": "uint256",
          "name": "borrowRate",
          "type": "uint256"
        }
      ],
      "name": "calculateLoanSupplyRate",
      "outputs": [
        {
          "internalType": "uint256",
          "name": "loanSupplyRate",
          "type": "uint256"
        },
        {
          "internalType": "uint256",
          "name": "utilizationRate",
          "type": "uint256"
        }
      ],
      "stateMutability": "pure",
      "type": "function"
    }
  ],
  "transactionHash": "0x8bf55811165c64459d98d145fe67e6f4d74d58427829b682ac878da686b0d3b2",
  "args": [],
  "solcInputHash": "88f70ef30a97ad95dcfad3d4587a7e7c",
  "bytecode": "0x6104d961003a600b82828239805160001a60731461002d57634e487b7160e01b600052600060045260246000fd5b30600052607381538281f3fe73000000000000000000000000000000000000000030146080604052600436106100565760003560e01c80630c2de0901461005b5780635806b3351461008157806369f2e69114610094578063db53f388146100a7575b600080fd5b61006e610069366004610340565b6100cf565b6040519081526020015b60405180910390f35b61006e61008f366004610362565b6100f2565b61006e6100a236600461038e565b610118565b6100ba6100b5366004610362565b61015e565b60408051928352602083019190915201610078565b60006100e96301e133806100e384866101a3565b90610268565b90505b92915050565b60006101106101096301e133806100e387866101a3565b84906101a3565b949350505050565b60008061012c64ffffffffff8416426103de565b90506b033b2e3c9fd0803ce80000006301e1338061014a83876103f5565b6101549190610414565b6101109190610436565b6000808315801561016d575084155b61018a5761018561017e8587610436565b8590610268565b61018d565b60005b905061019981846101a3565b9150935093915050565b60008215806101b0575081155b156101bd575060006100ec565b816101d560026b033b2e3c9fd0803ce8000000610414565b6101e1906000196103de565b6101eb9190610414565b8311156040518060400160405280600381526020016203130360ec1b815250906102315760405162461bcd60e51b8152600401610228919061044e565b60405180910390fd5b506b033b2e3c9fd0803ce800000061024a600282610414565b61025484866103f5565b61025e9190610436565b6100e99190610414565b60408051808201909152600381526218981960e91b6020820152600090826102a35760405162461bcd60e51b8152600401610228919061044e565b5060006102b1600284610414565b90506b033b2e3c9fd0803ce80000006102cc826000196103de565b6102d69190610414565b8411156040518060400160405280600381526020016203130360ec1b815250906103135760405162461bcd60e51b8152600401610228919061044e565b50828161032c6b033b2e3c9fd0803ce8000000876103f5565b6103369190610436565b6101109190610414565b6000806040838503121561035357600080fd5b50508035926020909101359150565b60008060006060848603121561037757600080fd5b505081359360208301359350604090920135919050565b600080604083850312156103a157600080fd5b82359150602083013564ffffffffff811681146103bd57600080fd5b809150509250929050565b634e487b7160e01b600052601160045260246000fd5b6000828210156103f0576103f06103c8565b500390565b600081600019048311821515161561040f5761040f6103c8565b500290565b60008261043157634e487b7160e01b600052601260045260246000fd5b500490565b60008219821115610449576104496103c8565b500190565b600060208083528351808285015260005b8181101561047b5785810183015185820160400152820161045f565b8181111561048d576000604083870101525b50601f01601f191692909201604001939250505056fea2646970667358221220cd0d73af466cc3d8e57f152e907a51d4317c640173ff7d982f2dd8cd13f91a8464736f6c634300080a0033",
  "devdoc": {
    "kind": "dev",
    "methods": {
      "calculateLinearInterest(uint256,uint40)": {
        "details": "Function to calculate the interest accumulated using a linear interest rate formula",
        "params": {
          "lastUpdateTimestamp": "The timestamp of the last update of the interest",
          "rate": "The interest rate, in ray"
        },
        "returns": {
          "_0": "The interest rate linearly accumulated during the timeDelta, in ray*"
        }
      }
    },
    "stateVariables": {
      "SECONDS_PER_YEAR": {
        "details": "Ignoring leap years"
      }
    },
    "version": 1
  },
  "userdoc": {
    "kind": "user",
    "methods": {},
    "version": 1
  },
  "storageLayout": {
    "storage": [],
    "types": null
  }
}