{
  "address": "0x24C54B91D29e8319976030581909732336E8B2bb",
  "abi": [
    {
      "inputs": [
        {
          "internalType": "address",
          "name": "_ACLManagerAddress",
          "type": "address"
        }
      ],
      "stateMutability": "nonpayable",
      "type": "constructor"
    },
    {
      "anonymous": false,
      "inputs": [
        {
          "indexed": false,
          "internalType": "address",
          "name": "operator",
          "type": "address"
        },
        {
          "indexed": false,
          "internalType": "address",
          "name": "address_",
          "type": "address"
        }
      ],
      "name": "AddLiquidator",
      "type": "event"
    },
    {
      "anonymous": false,
      "inputs": [
        {
          "indexed": false,
          "internalType": "address",
          "name": "operator",
          "type": "address"
        },
        {
          "indexed": false,
          "internalType": "uint256",
          "name": "reserveId",
          "type": "uint256"
        },
        {
          "indexed": false,
          "internalType": "address",
          "name": "nft",
          "type": "address"
        }
      ],
      "name": "AddToWhitelist",
      "type": "event"
    },
    {
      "anonymous": false,
      "inputs": [
        {
          "indexed": false,
          "internalType": "address",
          "name": "operator",
          "type": "address"
        },
        {
          "indexed": false,
          "internalType": "address",
          "name": "address_",
          "type": "address"
        }
      ],
      "name": "InitDaoVaultAddress",
      "type": "event"
    },
    {
      "anonymous": false,
      "inputs": [
        {
          "indexed": false,
          "internalType": "address",
          "name": "operator",
          "type": "address"
        },
        {
          "indexed": false,
          "internalType": "address",
          "name": "address_",
          "type": "address"
        }
      ],
      "name": "InitIncentiveControllerAddress",
      "type": "event"
    },
    {
      "anonymous": false,
      "inputs": [
        {
          "indexed": false,
          "internalType": "address",
          "name": "operator",
          "type": "address"
        },
        {
          "indexed": false,
          "internalType": "address",
          "name": "address_",
          "type": "address"
        }
      ],
      "name": "InitIncentiveControllerAddressForLoan",
      "type": "event"
    },
    {
      "anonymous": false,
      "inputs": [
        {
          "indexed": false,
          "internalType": "address",
          "name": "operator",
          "type": "address"
        },
        {
          "indexed": false,
          "internalType": "address",
          "name": "address_",
          "type": "address"
        }
      ],
      "name": "InitLoanAddress",
      "type": "event"
    },
    {
      "anonymous": false,
      "inputs": [
        {
          "indexed": false,
          "internalType": "address",
          "name": "operator",
          "type": "address"
        },
        {
          "indexed": false,
          "internalType": "address",
          "name": "address_",
          "type": "address"
        }
      ],
      "name": "InitPoolAddress",
      "type": "event"
    },
    {
      "anonymous": false,
      "inputs": [
        {
          "indexed": false,
          "internalType": "address",
          "name": "operator",
          "type": "address"
        },
        {
          "indexed": false,
          "internalType": "address",
          "name": "address_",
          "type": "address"
        }
      ],
      "name": "InitPunkGatewayAddress",
      "type": "event"
    },
    {
      "anonymous": false,
      "inputs": [
        {
          "indexed": false,
          "internalType": "address",
          "name": "operator",
          "type": "address"
        },
        {
          "indexed": false,
          "internalType": "address",
          "name": "address_",
          "type": "address"
        }
      ],
      "name": "InitVaultFactoryAddress",
      "type": "event"
    },
    {
      "anonymous": false,
      "inputs": [
        {
          "indexed": false,
          "internalType": "address",
          "name": "operator",
          "type": "address"
        },
        {
          "indexed": false,
          "internalType": "address",
          "name": "address_",
          "type": "address"
        }
      ],
      "name": "InitWETHGatewayAddress",
      "type": "event"
    },
    {
      "anonymous": false,
      "inputs": [
        {
          "indexed": true,
          "internalType": "address",
          "name": "previousOwner",
          "type": "address"
        },
        {
          "indexed": true,
          "internalType": "address",
          "name": "newOwner",
          "type": "address"
        }
      ],
      "name": "OwnershipTransferred",
      "type": "event"
    },
    {
      "anonymous": false,
      "inputs": [
        {
          "indexed": false,
          "internalType": "address",
          "name": "operator",
          "type": "address"
        },
        {
          "indexed": false,
          "internalType": "uint256",
          "name": "reserveId",
          "type": "uint256"
        },
        {
          "indexed": false,
          "internalType": "address",
          "name": "nft",
          "type": "address"
        }
      ],
      "name": "RemoveFromWhitelist",
      "type": "event"
    },
    {
      "anonymous": false,
      "inputs": [
        {
          "indexed": false,
          "internalType": "address",
          "name": "operator",
          "type": "address"
        },
        {
          "indexed": false,
          "internalType": "address",
          "name": "address_",
          "type": "address"
        }
      ],
      "name": "RemoveLiquidator",
      "type": "event"
    },
    {
      "anonymous": false,
      "inputs": [
        {
          "indexed": false,
          "internalType": "address",
          "name": "operator",
          "type": "address"
        },
        {
          "indexed": false,
          "internalType": "address",
          "name": "address_",
          "type": "address"
        }
      ],
      "name": "SetACLManagerAddress",
      "type": "event"
    },
    {
      "anonymous": false,
      "inputs": [
        {
          "indexed": false,
          "internalType": "address",
          "name": "operator",
          "type": "address"
        },
        {
          "indexed": false,
          "internalType": "address",
          "name": "address_",
          "type": "address"
        }
      ],
      "name": "SetInterestRateStrategyAddress",
      "type": "event"
    },
    {
      "anonymous": false,
      "inputs": [
        {
          "indexed": false,
          "internalType": "address",
          "name": "operator",
          "type": "address"
        },
        {
          "indexed": false,
          "internalType": "address",
          "name": "address_",
          "type": "address"
        }
      ],
      "name": "SetLoanDescriptorAddress",
      "type": "event"
    },
    {
      "anonymous": false,
      "inputs": [
        {
          "indexed": false,
          "internalType": "address",
          "name": "operator",
          "type": "address"
        },
        {
          "indexed": false,
          "internalType": "address",
          "name": "address_",
          "type": "address"
        }
      ],
      "name": "SetMoneyMarketAddress",
      "type": "event"
    },
    {
      "anonymous": false,
      "inputs": [
        {
          "indexed": false,
          "internalType": "address",
          "name": "operator",
          "type": "address"
        },
        {
          "indexed": false,
          "internalType": "address",
          "name": "address_",
          "type": "address"
        }
      ],
      "name": "SetNftPriceOracleAddress",
      "type": "event"
    },
    {
      "anonymous": false,
      "inputs": [
        {
          "indexed": false,
          "internalType": "address",
          "name": "operator",
          "type": "address"
        },
        {
          "indexed": false,
          "internalType": "uint256",
          "name": "factor",
          "type": "uint256"
        }
      ],
      "name": "SetOverdueLoanFeeFactor",
      "type": "event"
    },
    {
      "anonymous": false,
      "inputs": [
        {
          "indexed": false,
          "internalType": "address",
          "name": "operator",
          "type": "address"
        },
        {
          "indexed": false,
          "internalType": "uint256",
          "name": "factor",
          "type": "uint256"
        }
      ],
      "name": "SetPrepaymentFeeFactor",
      "type": "event"
    },
    {
      "anonymous": false,
      "inputs": [
        {
          "indexed": false,
          "internalType": "address",
          "name": "operator",
          "type": "address"
        },
        {
          "indexed": false,
          "internalType": "uint256",
          "name": "factor",
          "type": "uint256"
        }
      ],
      "name": "SetReserveFactor",
      "type": "event"
    },
    {
      "anonymous": false,
      "inputs": [
        {
          "indexed": false,
          "internalType": "address",
          "name": "operator",
          "type": "address"
        },
        {
          "indexed": false,
          "internalType": "address",
          "name": "address_",
          "type": "address"
        }
      ],
      "name": "SetTreasuryAddress",
      "type": "event"
    },
    {
      "inputs": [],
      "name": "ACLManagerAddress",
      "outputs": [
        {
          "internalType": "address",
          "name": "",
          "type": "address"
        }
      ],
      "stateMutability": "view",
      "type": "function"
    },
    {
      "inputs": [],
      "name": "MAX_RESERVE_FACTOR",
      "outputs": [
        {
          "internalType": "uint256",
          "name": "",
          "type": "uint256"
        }
      ],
      "stateMutability": "view",
      "type": "function"
    },
    {
      "inputs": [
        {
          "internalType": "address",
          "name": "address_",
          "type": "address"
        }
      ],
      "name": "addLiquidator",
      "outputs": [],
      "stateMutability": "nonpayable",
      "type": "function"
    },
    {
      "inputs": [
        {
          "internalType": "uint256",
          "name": "reserveId",
          "type": "uint256"
        },
        {
          "internalType": "address",
          "name": "nft",
          "type": "address"
        },
        {
          "internalType": "string",
          "name": "name",
          "type": "string"
        },
        {
          "internalType": "string",
          "name": "symbol",
          "type": "string"
        },
        {
          "internalType": "uint256",
          "name": "LTV",
          "type": "uint256"
        },
        {
          "internalType": "uint256",
          "name": "minBorrowDuration",
          "type": "uint256"
        },
        {
          "internalType": "uint256",
          "name": "maxBorrowDuration",
          "type": "uint256"
        },
        {
          "internalType": "uint256",
          "name": "extendableDuration",
          "type": "uint256"
        },
        {
          "internalType": "uint256",
          "name": "overdueDuration",
          "type": "uint256"
        }
      ],
      "name": "addToWhitelist",
      "outputs": [],
      "stateMutability": "nonpayable",
      "type": "function"
    },
    {
      "inputs": [],
      "name": "daoVaultAddress",
      "outputs": [
        {
          "internalType": "address",
          "name": "",
          "type": "address"
        }
      ],
      "stateMutability": "view",
      "type": "function"
    },
    {
      "inputs": [
        {
          "internalType": "uint256",
          "name": "reserveId",
          "type": "uint256"
        },
        {
          "internalType": "address",
          "name": "nft",
          "type": "address"
        }
      ],
      "name": "getWhitelistDetail",
      "outputs": [
        {
          "components": [
            {
              "internalType": "bool",
              "name": "enabled",
              "type": "bool"
            },
            {
              "internalType": "string",
              "name": "name",
              "type": "string"
            },
            {
              "internalType": "string",
              "name": "symbol",
              "type": "string"
            },
            {
              "internalType": "uint256",
              "name": "LTV",
              "type": "uint256"
            },
            {
              "internalType": "uint256",
              "name": "minBorrowDuration",
              "type": "uint256"
            },
            {
              "internalType": "uint256",
              "name": "maxBorrowDuration",
              "type": "uint256"
            },
            {
              "internalType": "uint256",
              "name": "extendableDuration",
              "type": "uint256"
            },
            {
              "internalType": "uint256",
              "name": "overdueDuration",
              "type": "uint256"
            }
          ],
          "internalType": "struct DataTypes.WhitelistInfo",
          "name": "",
          "type": "tuple"
        }
      ],
      "stateMutability": "view",
      "type": "function"
    },
    {
      "inputs": [
        {
          "internalType": "uint256",
          "name": "reserveId",
          "type": "uint256"
        },
        {
          "internalType": "address",
          "name": "nft",
          "type": "address"
        }
      ],
      "name": "inWhitelist",
      "outputs": [
        {
          "internalType": "bool",
          "name": "",
          "type": "bool"
        }
      ],
      "stateMutability": "view",
      "type": "function"
    },
    {
      "inputs": [],
      "name": "incentiveControllerAddress",
      "outputs": [
        {
          "internalType": "address",
          "name": "",
          "type": "address"
        }
      ],
      "stateMutability": "view",
      "type": "function"
    },
    {
      "inputs": [],
      "name": "incentiveControllerAddressForLoan",
      "outputs": [
        {
          "internalType": "address",
          "name": "",
          "type": "address"
        }
      ],
      "stateMutability": "view",
      "type": "function"
    },
    {
      "inputs": [
        {
          "internalType": "address",
          "name": "address_",
          "type": "address"
        }
      ],
      "name": "initDaoVaultAddress",
      "outputs": [],
      "stateMutability": "nonpayable",
      "type": "function"
    },
    {
      "inputs": [
        {
          "internalType": "address",
          "name": "address_",
          "type": "address"
        }
      ],
      "name": "initIncentiveControllerAddress",
      "outputs": [],
      "stateMutability": "nonpayable",
      "type": "function"
    },
    {
      "inputs": [
        {
          "internalType": "address",
          "name": "address_",
          "type": "address"
        }
      ],
      "name": "initIncentiveControllerAddressForLoan",
      "outputs": [],
      "stateMutability": "nonpayable",
      "type": "function"
    },
    {
      "inputs": [
        {
          "internalType": "address",
          "name": "address_",
          "type": "address"
        }
      ],
      "name": "initLoanAddress",
      "outputs": [],
      "stateMutability": "nonpayable",
      "type": "function"
    },
    {
      "inputs": [
        {
          "internalType": "address",
          "name": "address_",
          "type": "address"
        }
      ],
      "name": "initPoolAddress",
      "outputs": [],
      "stateMutability": "nonpayable",
      "type": "function"
    },
    {
      "inputs": [
        {
          "internalType": "address",
          "name": "address_",
          "type": "address"
        }
      ],
      "name": "initPunkGatewayAddress",
      "outputs": [],
      "stateMutability": "nonpayable",
      "type": "function"
    },
    {
      "inputs": [
        {
          "internalType": "address",
          "name": "address_",
          "type": "address"
        }
      ],
      "name": "initVaultFactoryAddress",
      "outputs": [],
      "stateMutability": "nonpayable",
      "type": "function"
    },
    {
      "inputs": [
        {
          "internalType": "address",
          "name": "address_",
          "type": "address"
        }
      ],
      "name": "initWETHGatewayAddress",
      "outputs": [],
      "stateMutability": "nonpayable",
      "type": "function"
    },
    {
      "inputs": [],
      "name": "interestRateStrategyAddress",
      "outputs": [
        {
          "internalType": "address",
          "name": "",
          "type": "address"
        }
      ],
      "stateMutability": "view",
      "type": "function"
    },
    {
      "inputs": [
        {
          "internalType": "address",
          "name": "address_",
          "type": "address"
        }
      ],
      "name": "isLiquidator",
      "outputs": [
        {
          "internalType": "bool",
          "name": "",
          "type": "bool"
        }
      ],
      "stateMutability": "view",
      "type": "function"
    },
    {
      "inputs": [],
      "name": "loanAddress",
      "outputs": [
        {
          "internalType": "address",
          "name": "",
          "type": "address"
        }
      ],
      "stateMutability": "view",
      "type": "function"
    },
    {
      "inputs": [],
      "name": "loanDescriptorAddress",
      "outputs": [
        {
          "internalType": "address",
          "name": "",
          "type": "address"
        }
      ],
      "stateMutability": "view",
      "type": "function"
    },
    {
      "inputs": [],
      "name": "moneyMarketAddress",
      "outputs": [
        {
          "internalType": "address",
          "name": "",
          "type": "address"
        }
      ],
      "stateMutability": "view",
      "type": "function"
    },
    {
      "inputs": [],
      "name": "nftPriceOracleAddress",
      "outputs": [
        {
          "internalType": "address",
          "name": "",
          "type": "address"
        }
      ],
      "stateMutability": "view",
      "type": "function"
    },
    {
      "inputs": [],
      "name": "overdueLoanFeeFactor",
      "outputs": [
        {
          "internalType": "uint256",
          "name": "",
          "type": "uint256"
        }
      ],
      "stateMutability": "view",
      "type": "function"
    },
    {
      "inputs": [],
      "name": "owner",
      "outputs": [
        {
          "internalType": "address",
          "name": "",
          "type": "address"
        }
      ],
      "stateMutability": "view",
      "type": "function"
    },
    {
      "inputs": [],
      "name": "poolAddress",
      "outputs": [
        {
          "internalType": "address",
          "name": "",
          "type": "address"
        }
      ],
      "stateMutability": "view",
      "type": "function"
    },
    {
      "inputs": [],
      "name": "prepaymentFeeFactor",
      "outputs": [
        {
          "internalType": "uint256",
          "name": "",
          "type": "uint256"
        }
      ],
      "stateMutability": "view",
      "type": "function"
    },
    {
      "inputs": [],
      "name": "punkGatewayAddress",
      "outputs": [
        {
          "internalType": "address",
          "name": "",
          "type": "address"
        }
      ],
      "stateMutability": "view",
      "type": "function"
    },
    {
      "inputs": [
        {
          "internalType": "uint256",
          "name": "reserveId",
          "type": "uint256"
        },
        {
          "internalType": "address",
          "name": "nft",
          "type": "address"
        }
      ],
      "name": "removeFromWhitelist",
      "outputs": [],
      "stateMutability": "nonpayable",
      "type": "function"
    },
    {
      "inputs": [
        {
          "internalType": "address",
          "name": "address_",
          "type": "address"
        }
      ],
      "name": "removeLiquidator",
      "outputs": [],
      "stateMutability": "nonpayable",
      "type": "function"
    },
    {
      "inputs": [],
      "name": "renounceOwnership",
      "outputs": [],
      "stateMutability": "nonpayable",
      "type": "function"
    },
    {
      "inputs": [],
      "name": "reserveFactor",
      "outputs": [
        {
          "internalType": "uint256",
          "name": "",
          "type": "uint256"
        }
      ],
      "stateMutability": "view",
      "type": "function"
    },
    {
      "inputs": [
        {
          "internalType": "address",
          "name": "address_",
          "type": "address"
        }
      ],
      "name": "setInterestRateStrategyAddress",
      "outputs": [],
      "stateMutability": "nonpayable",
      "type": "function"
    },
    {
      "inputs": [
        {
          "internalType": "address",
          "name": "address_",
          "type": "address"
        }
      ],
      "name": "setLoanDescriptorAddress",
      "outputs": [],
      "stateMutability": "nonpayable",
      "type": "function"
    },
    {
      "inputs": [
        {
          "internalType": "address",
          "name": "address_",
          "type": "address"
        }
      ],
      "name": "setMoneyMarketAddress",
      "outputs": [],
      "stateMutability": "nonpayable",
      "type": "function"
    },
    {
      "inputs": [
        {
          "internalType": "address",
          "name": "address_",
          "type": "address"
        }
      ],
      "name": "setNftPriceOracleAddress",
      "outputs": [],
      "stateMutability": "nonpayable",
      "type": "function"
    },
    {
      "inputs": [
        {
          "internalType": "uint256",
          "name": "factor",
          "type": "uint256"
        }
      ],
      "name": "setOverdueLoanFeeFactor",
      "outputs": [],
      "stateMutability": "nonpayable",
      "type": "function"
    },
    {
      "inputs": [
        {
          "internalType": "uint256",
          "name": "factor",
          "type": "uint256"
        }
      ],
      "name": "setPrepaymentFeeFactor",
      "outputs": [],
      "stateMutability": "nonpayable",
      "type": "function"
    },
    {
      "inputs": [
        {
          "internalType": "uint256",
          "name": "factor",
          "type": "uint256"
        }
      ],
      "name": "setReserveFactor",
      "outputs": [],
      "stateMutability": "nonpayable",
      "type": "function"
    },
    {
      "inputs": [
        {
          "internalType": "address",
          "name": "address_",
          "type": "address"
        }
      ],
      "name": "setTreasuryAddress",
      "outputs": [],
      "stateMutability": "nonpayable",
      "type": "function"
    },
    {
      "inputs": [
        {
          "internalType": "address",
          "name": "newOwner",
          "type": "address"
        }
      ],
      "name": "transferOwnership",
      "outputs": [],
      "stateMutability": "nonpayable",
      "type": "function"
    },
    {
      "inputs": [],
      "name": "treasuryAddress",
      "outputs": [
        {
          "internalType": "address",
          "name": "",
          "type": "address"
        }
      ],
      "stateMutability": "view",
      "type": "function"
    },
    {
      "inputs": [],
      "name": "vaultFactoryAddress",
      "outputs": [
        {
          "internalType": "address",
          "name": "",
          "type": "address"
        }
      ],
      "stateMutability": "view",
      "type": "function"
    },
    {
      "inputs": [],
      "name": "wethGatewayAddress",
      "outputs": [
        {
          "internalType": "address",
          "name": "",
          "type": "address"
        }
      ],
      "stateMutability": "view",
      "type": "function"
    }
  ],
  "transactionHash": "0x1a8a3114808be33d9f9ed34e8a4e85e245cb471409f5083ab1504c8addfbafa7",
  "args": [
    "0xd9A4E9350B4C67FC87bBC041E69Da2b8bAB38f3A"
  ],
  "solcInputHash": "88f70ef30a97ad95dcfad3d4587a7e7c",
  "bytecode": "0x60a06040526107d0601055600060115560646012553480156200002157600080fd5b5060405162002911380380620029118339810160408190526200004491620000b1565b6200004f3362000061565b6001600160a01b0316608052620000e3565b600080546001600160a01b038381166001600160a01b0319831681178455604051919092169283917f8be0079c531659141344cd1fd0a4f28419497f9722a3daafe3b4186f6b6457e09190a35050565b600060208284031215620000c457600080fd5b81516001600160a01b0381168114620000dc57600080fd5b9392505050565b6080516127be62000153600039600081816104e4015281816106270152818161088701528181610a1601528181610c3901528181610d9c015281816110370152818161119a0152818161153f01528181611a3001528181611b9301528181611fa801526121cc01526127be6000f3fe608060405234801561001057600080fd5b50600436106102745760003560e01c80638da5cb5b11610151578063d0cf1f78116100c3578063e17b740411610087578063e17b7404146105b3578063e8c3400b146105c6578063efb74400146105d9578063efe3e3e3146105ec578063f2fde38b146105ff578063fea3e6131461061257600080fd5b8063d0cf1f7814610568578063d23a65cf1461057b578063d633590a14610584578063d7a5a9d314610597578063d9a1fb11146105a057600080fd5b80639a9dbb99116101155780639a9dbb99146104df5780639dce429914610506578063ab9b6da514610526578063bad2e60c14610539578063c5f956af1461054c578063ce87179f1461055f57600080fd5b80638da5cb5b146104825780638dcf86c71461049357806390839e3f146104a6578063970f4c3a146104b957806397dfa0d1146104cc57600080fd5b8063529a356f116101ea5780636d6a723c116101ae5780636d6a723c1461041b5780636e3a05ff1461042e578063715018a61461044157806379380038146104495780637fd6e95e1461045c57806389cdd47d1461046f57600080fd5b8063529a356f146103a35780635fee6708146103cf578063616132af146103e257806361f1ce63146103f55780636605bfda1461040857600080fd5b80633d6a38441161023c5780633d6a3844146102f7578063420897911461030a5780634322b7141461031d57806346296c69146103345780634c4e7f6f1461037d5780634d5d78531461039057600080fd5b8063020726d9146102795780631755ff21146102a95780631c446983146102bc5780631c966987146102d157806335bc868a146102e4575b600080fd5b60075461028c906001600160a01b031681565b6040516001600160a01b0390911681526020015b60405180910390f35b60035461028c906001600160a01b031681565b6102cf6102ca366004612423565b610625565b005b6102cf6102df366004612458565b610783565b60045461028c906001600160a01b031681565b600a5461028c906001600160a01b031681565b60055461028c906001600160a01b031681565b61032660105481565b6040519081526020016102a0565b61036d61034236600461247a565b60009182526001602090815260408084206001600160a01b0393909316845291905290205460ff1690565b60405190151581526020016102a0565b6102cf61038b366004612458565b610885565b6102cf61039e366004612458565b610a14565b61036d6103b1366004612458565b6001600160a01b031660009081526002602052604090205460ff1690565b60095461028c906001600160a01b031681565b6102cf6103f0366004612458565b610b35565b6102cf610403366004612458565b610c37565b6102cf610416366004612458565b610d9a565b60065461028c906001600160a01b031681565b6102cf61043c366004612458565b610efd565b6102cf610fff565b6102cf610457366004612458565b611035565b6102cf61046a366004612549565b611198565b6102cf61047d366004612423565b61153d565b6000546001600160a01b031661028c565b6102cf6104a1366004612458565b61164c565b600f5461028c906001600160a01b031681565b600e5461028c906001600160a01b031681565b600d5461028c906001600160a01b031681565b61028c7f000000000000000000000000000000000000000000000000000000000000000081565b61051961051436600461247a565b61174e565b6040516102a09190612642565b6102cf610534366004612458565b61192e565b6102cf610547366004612458565b611a2e565b600c5461028c906001600160a01b031681565b61032660115481565b6102cf610576366004612423565b611b91565b610326610bb881565b60085461028c906001600160a01b031681565b61032660125481565b6102cf6105ae366004612458565b611ca0565b6102cf6105c1366004612458565b611da2565b6102cf6105d4366004612458565b611ea4565b6102cf6105e7366004612458565b611fa6565b600b5461028c906001600160a01b031681565b6102cf61060d366004612458565b61212f565b6102cf61062036600461247a565b6121ca565b7f00000000000000000000000000000000000000000000000000000000000000006001600160a01b03811663dee1f0e4336040516001600160e01b031960e084901b1681526001600160a01b039091166004820152602401602060405180830381865afa15801561069a573d6000803e3d6000fd5b505050506040513d601f19601f820116820180604052508101906106be91906126c9565b6040518060400160405280600381526020016203230360ec1b815250906107015760405162461bcd60e51b81526004016106f891906126eb565b60405180910390fd5b5060408051808201909152600381526218989b60e91b6020820152610bb883111561073f5760405162461bcd60e51b81526004016106f891906126eb565b50601082905560408051338152602081018490527faec3b0dfb932ebcf519716c413557fafef520bf9d7a371d8ef50799927c70ff391015b60405180910390a15050565b6000546001600160a01b031633146107ad5760405162461bcd60e51b81526004016106f8906126fe565b60095460408051808201909152600381526231323360e81b60208201526001600160a01b039091169081156107f55760405162461bcd60e51b81526004016106f891906126eb565b5060408051808201909152600381526231313560e81b60208201526001600160a01b0383166108375760405162461bcd60e51b81526004016106f891906126eb565b50600980546001600160a01b0319166001600160a01b0384161790556040517f0b7a3bfb39d270493197f76528d22ee7fec7a8f6641a345ded3b823d43b32109906107779033908590612733565b7f00000000000000000000000000000000000000000000000000000000000000006001600160a01b03811663dee1f0e4336040516001600160e01b031960e084901b1681526001600160a01b039091166004820152602401602060405180830381865afa1580156108fa573d6000803e3d6000fd5b505050506040513d601f19601f8201168201806040525081019061091e91906126c9565b6040518060400160405280600381526020016203230360ec1b815250906109585760405162461bcd60e51b81526004016106f891906126eb565b5060408051808201909152600381526231313560e81b60208201526001600160a01b03831661099a5760405162461bcd60e51b81526004016106f891906126eb565b506001600160a01b03821660009081526002602052604090205460ff16610a10576001600160a01b03821660009081526002602052604090819020805460ff19166001179055517f3760e7da06f31ff5603c2d535353085d2065acd17d3d319263a9ada4c8012bcc906107779033908590612733565b5050565b7f00000000000000000000000000000000000000000000000000000000000000006001600160a01b03811663dee1f0e4336040516001600160e01b031960e084901b1681526001600160a01b039091166004820152602401602060405180830381865afa158015610a89573d6000803e3d6000fd5b505050506040513d601f19601f82011682018060405250810190610aad91906126c9565b6040518060400160405280600381526020016203230360ec1b81525090610ae75760405162461bcd60e51b81526004016106f891906126eb565b50600b80546001600160a01b0319166001600160a01b0384161790556040517fade84c64161ab179b31f6347f1f6c2370b0b9e35205cd360fff7b0e9c8832095906107779033908590612733565b6000546001600160a01b03163314610b5f5760405162461bcd60e51b81526004016106f8906126fe565b60065460408051808201909152600381526231323360e81b60208201526001600160a01b03909116908115610ba75760405162461bcd60e51b81526004016106f891906126eb565b5060408051808201909152600381526231313560e81b60208201526001600160a01b038316610be95760405162461bcd60e51b81526004016106f891906126eb565b50600680546001600160a01b0319166001600160a01b0384161790556040517f11f20b92db6744078eb0c18672364cff6fdf227dbc6cc5918c30dd2ba538bf80906107779033908590612733565b7f00000000000000000000000000000000000000000000000000000000000000006001600160a01b03811663dee1f0e4336040516001600160e01b031960e084901b1681526001600160a01b039091166004820152602401602060405180830381865afa158015610cac573d6000803e3d6000fd5b505050506040513d601f19601f82011682018060405250810190610cd091906126c9565b6040518060400160405280600381526020016203230360ec1b81525090610d0a5760405162461bcd60e51b81526004016106f891906126eb565b5060408051808201909152600381526231313560e81b60208201526001600160a01b038316610d4c5760405162461bcd60e51b81526004016106f891906126eb565b50600f80546001600160a01b0319166001600160a01b0384161790556040517f8ae2fc9d7793180dcc54372828b79d8d347e11a6204bddba90ffe2fefbf3a45b906107779033908590612733565b7f00000000000000000000000000000000000000000000000000000000000000006001600160a01b03811663dee1f0e4336040516001600160e01b031960e084901b1681526001600160a01b039091166004820152602401602060405180830381865afa158015610e0f573d6000803e3d6000fd5b505050506040513d601f19601f82011682018060405250810190610e3391906126c9565b6040518060400160405280600381526020016203230360ec1b81525090610e6d5760405162461bcd60e51b81526004016106f891906126eb565b5060408051808201909152600381526231313560e81b60208201526001600160a01b038316610eaf5760405162461bcd60e51b81526004016106f891906126eb565b50600c80546001600160a01b0319166001600160a01b0384161790556040517f61885cdba916be748ff3e3f6f15e4206153b8ea3b7acabade9d04b4063a83510906107779033908590612733565b6000546001600160a01b03163314610f275760405162461bcd60e51b81526004016106f8906126fe565b60055460408051808201909152600381526231323360e81b60208201526001600160a01b03909116908115610f6f5760405162461bcd60e51b81526004016106f891906126eb565b5060408051808201909152600381526231313560e81b60208201526001600160a01b038316610fb15760405162461bcd60e51b81526004016106f891906126eb565b50600580546001600160a01b0319166001600160a01b0384161790556040517f9ab3c5760425674448f5fc907a4011002c9478cb26b31ae268a0400bb603c67b906107779033908590612733565b6000546001600160a01b031633146110295760405162461bcd60e51b81526004016106f8906126fe565b611033600061233a565b565b7f00000000000000000000000000000000000000000000000000000000000000006001600160a01b03811663dee1f0e4336040516001600160e01b031960e084901b1681526001600160a01b039091166004820152602401602060405180830381865afa1580156110aa573d6000803e3d6000fd5b505050506040513d601f19601f820116820180604052508101906110ce91906126c9565b6040518060400160405280600381526020016203230360ec1b815250906111085760405162461bcd60e51b81526004016106f891906126eb565b5060408051808201909152600381526231313560e81b60208201526001600160a01b03831661114a5760405162461bcd60e51b81526004016106f891906126eb565b50600d80546001600160a01b0319166001600160a01b0384161790556040517fc5c2d52985d8e0e38d9eb84f6886aca79638c04d053ff66a35cbcedc58dfa55d906107779033908590612733565b7f00000000000000000000000000000000000000000000000000000000000000006001600160a01b03811663dee1f0e4336040516001600160e01b031960e084901b1681526001600160a01b039091166004820152602401602060405180830381865afa15801561120d573d6000803e3d6000fd5b505050506040513d601f19601f8201168201806040525081019061123191906126c9565b6040518060400160405280600381526020016203230360ec1b8152509061126b5760405162461bcd60e51b81526004016106f891906126eb565b5060408051808201909152600381526231313760e81b60208201528a6112a45760405162461bcd60e51b81526004016106f891906126eb565b5060408051808201909152600381526206262760eb1b60208201526001600160a01b038a166112e65760405162461bcd60e51b81526004016106f891906126eb565b5060408051808201909152600381526231313960e81b6020820152848611156113225760405162461bcd60e51b81526004016106f891906126eb565b50875160408051808201909152600381526203132360ec1b60208201529061135d5760405162461bcd60e51b81526004016106f891906126eb565b50865160408051808201909152600381526231323160e81b6020820152906113985760405162461bcd60e51b81526004016106f891906126eb565b506000861180156113ab57506127108611155b6040518060400160405280600381526020016218991960e91b815250906113e55760405162461bcd60e51b81526004016106f891906126eb565b5060405180610100016040528060011515815260200189815260200188815260200187815260200186815260200185815260200184815260200183815250600160008c815260200190815260200160002060008b6001600160a01b03166001600160a01b0316815260200190815260200160002060008201518160000160006101000a81548160ff021916908315150217905550602082015181600101908051906020019061149592919061238a565b50604082015180516114b191600284019160209091019061238a565b5060608281015160038301556080830151600483015560a0830151600583015560c0830151600683015560e09092015160079091015560408051338152602081018d90526001600160a01b038c16918101919091527f32e7bdd0caf2ffa7433b24abeaa8da765ccac460b1c584c9b718c59b0ec56b9d910160405180910390a150505050505050505050565b7f00000000000000000000000000000000000000000000000000000000000000006001600160a01b03811663dee1f0e4336040516001600160e01b031960e084901b1681526001600160a01b039091166004820152602401602060405180830381865afa1580156115b2573d6000803e3d6000fd5b505050506040513d601f19601f820116820180604052508101906115d691906126c9565b6040518060400160405280600381526020016203230360ec1b815250906116105760405162461bcd60e51b81526004016106f891906126eb565b50601282905560408051338152602081018490527f7c711ee19f0c912a57665c93f4d4e5c0eadfe3547c2a7674d27e359ddcc0126e9101610777565b6000546001600160a01b031633146116765760405162461bcd60e51b81526004016106f8906126fe565b60085460408051808201909152600381526231323360e81b60208201526001600160a01b039091169081156116be5760405162461bcd60e51b81526004016106f891906126eb565b5060408051808201909152600381526231313560e81b60208201526001600160a01b0383166117005760405162461bcd60e51b81526004016106f891906126eb565b50600880546001600160a01b0319166001600160a01b0384161790556040517f7467a52675bb450a8aac4c82155c4a2068217cc3ed5cb94ec5de88b099bde1cc906107779033908590612733565b611798604051806101000160405280600015158152602001606081526020016060815260200160008152602001600081526020016000815260200160008152602001600081525090565b60008381526001602081815260408084206001600160a01b038716855282529283902083516101008101909452805460ff16151584529182018054918401916117e09061274d565b80601f016020809104026020016040519081016040528092919081815260200182805461180c9061274d565b80156118595780601f1061182e57610100808354040283529160200191611859565b820191906000526020600020905b81548152906001019060200180831161183c57829003601f168201915b505050505081526020016002820180546118729061274d565b80601f016020809104026020016040519081016040528092919081815260200182805461189e9061274d565b80156118eb5780601f106118c0576101008083540402835291602001916118eb565b820191906000526020600020905b8154815290600101906020018083116118ce57829003601f168201915b5050505050815260200160038201548152602001600482015481526020016005820154815260200160068201548152602001600782015481525050905092915050565b6000546001600160a01b031633146119585760405162461bcd60e51b81526004016106f8906126fe565b60038054604080518082019091529182526231323360e81b60208301526001600160a01b031690811561199e5760405162461bcd60e51b81526004016106f891906126eb565b5060408051808201909152600381526231313560e81b60208201526001600160a01b0383166119e05760405162461bcd60e51b81526004016106f891906126eb565b50600380546001600160a01b0319166001600160a01b0384161790556040517f8d1ad6da1aa2e761965c5c3ff39a053a2182097a70a72f2d6e289fdc97eb5575906107779033908590612733565b7f00000000000000000000000000000000000000000000000000000000000000006001600160a01b03811663dee1f0e4336040516001600160e01b031960e084901b1681526001600160a01b039091166004820152602401602060405180830381865afa158015611aa3573d6000803e3d6000fd5b505050506040513d601f19601f82011682018060405250810190611ac791906126c9565b6040518060400160405280600381526020016203230360ec1b81525090611b015760405162461bcd60e51b81526004016106f891906126eb565b5060408051808201909152600381526231313560e81b60208201526001600160a01b038316611b435760405162461bcd60e51b81526004016106f891906126eb565b50600e80546001600160a01b0319166001600160a01b0384161790556040517fb6b2ebc8274df9ba5f06827eaf0f57cd989858c0a9d8ada796c997713783b8a3906107779033908590612733565b7f00000000000000000000000000000000000000000000000000000000000000006001600160a01b03811663dee1f0e4336040516001600160e01b031960e084901b1681526001600160a01b039091166004820152602401602060405180830381865afa158015611c06573d6000803e3d6000fd5b505050506040513d601f19601f82011682018060405250810190611c2a91906126c9565b6040518060400160405280600381526020016203230360ec1b81525090611c645760405162461bcd60e51b81526004016106f891906126eb565b50601182905560408051338152602081018490527fe24a3096e9789345a0c4af40c35735f55e9d4658eb8146d31a97ff7b5de963c09101610777565b6000546001600160a01b03163314611cca5760405162461bcd60e51b81526004016106f8906126fe565b60075460408051808201909152600381526231323360e81b60208201526001600160a01b03909116908115611d125760405162461bcd60e51b81526004016106f891906126eb565b5060408051808201909152600381526231313560e81b60208201526001600160a01b038316611d545760405162461bcd60e51b81526004016106f891906126eb565b50600780546001600160a01b0319166001600160a01b0384161790556040517f8196ebbc0006dd2faea8ee9983f93770ceec566ab7020a07d013c2a3f7a508cb906107779033908590612733565b6000546001600160a01b03163314611dcc5760405162461bcd60e51b81526004016106f8906126fe565b600a5460408051808201909152600381526231323360e81b60208201526001600160a01b03909116908115611e145760405162461bcd60e51b81526004016106f891906126eb565b5060408051808201909152600381526231313560e81b60208201526001600160a01b038316611e565760405162461bcd60e51b81526004016106f891906126eb565b50600a80546001600160a01b0319166001600160a01b0384161790556040517f47f677ce3d261a95b89ad560a9a8987dfa002e575bc1891a26ee46dc822c379b906107779033908590612733565b6000546001600160a01b03163314611ece5760405162461bcd60e51b81526004016106f8906126fe565b60045460408051808201909152600381526231323360e81b60208201526001600160a01b03909116908115611f165760405162461bcd60e51b81526004016106f891906126eb565b5060408051808201909152600381526231313560e81b60208201526001600160a01b038316611f585760405162461bcd60e51b81526004016106f891906126eb565b50600480546001600160a01b0319166001600160a01b0384161790556040517f9604823ca2a8462263e820f8d51b7c6657d28dbe05e8772f2a5f7e910ca82abe906107779033908590612733565b7f00000000000000000000000000000000000000000000000000000000000000006001600160a01b03811663dee1f0e4336040516001600160e01b031960e084901b1681526001600160a01b039091166004820152602401602060405180830381865afa15801561201b573d6000803e3d6000fd5b505050506040513d601f19601f8201168201806040525081019061203f91906126c9565b6040518060400160405280600381526020016203230360ec1b815250906120795760405162461bcd60e51b81526004016106f891906126eb565b5060408051808201909152600381526231313560e81b60208201526001600160a01b0383166120bb5760405162461bcd60e51b81526004016106f891906126eb565b506001600160a01b03821660009081526002602052604090205460ff1615610a10576001600160a01b03821660009081526002602052604090819020805460ff19169055517f8a89f839e075df5120850499917e87744c78036ca455ee0fe16c3d5ce0a4b5e0906107779033908590612733565b6000546001600160a01b031633146121595760405162461bcd60e51b81526004016106f8906126fe565b6001600160a01b0381166121be5760405162461bcd60e51b815260206004820152602660248201527f4f776e61626c653a206e6577206f776e657220697320746865207a65726f206160448201526564647265737360d01b60648201526084016106f8565b6121c78161233a565b50565b7f00000000000000000000000000000000000000000000000000000000000000006001600160a01b03811663dee1f0e4336040516001600160e01b031960e084901b1681526001600160a01b039091166004820152602401602060405180830381865afa15801561223f573d6000803e3d6000fd5b505050506040513d601f19601f8201168201806040525081019061226391906126c9565b6040518060400160405280600381526020016203230360ec1b8152509061229d5760405162461bcd60e51b81526004016106f891906126eb565b5060008381526001602090815260408083206001600160a01b038616845290915290205460ff16156123355760008381526001602090815260408083206001600160a01b03861680855290835292819020805460ff1916905580513381529182018690528101919091527f2d76bfcbbc75c3b84be47268af9150df9dd855d146070aed72f041c784371e7a9060600160405180910390a15b505050565b600080546001600160a01b038381166001600160a01b0319831681178455604051919092169283917f8be0079c531659141344cd1fd0a4f28419497f9722a3daafe3b4186f6b6457e09190a35050565b8280546123969061274d565b90600052602060002090601f0160209004810192826123b857600085556123fe565b82601f106123d157805160ff19168380011785556123fe565b828001600101855582156123fe579182015b828111156123fe5782518255916020019190600101906123e3565b5061240a92915061240e565b5090565b5b8082111561240a576000815560010161240f565b60006020828403121561243557600080fd5b5035919050565b80356001600160a01b038116811461245357600080fd5b919050565b60006020828403121561246a57600080fd5b6124738261243c565b9392505050565b6000806040838503121561248d57600080fd5b8235915061249d6020840161243c565b90509250929050565b634e487b7160e01b600052604160045260246000fd5b600082601f8301126124cd57600080fd5b813567ffffffffffffffff808211156124e8576124e86124a6565b604051601f8301601f19908116603f01168101908282118183101715612510576125106124a6565b8160405283815286602085880101111561252957600080fd5b836020870160208301376000602085830101528094505050505092915050565b60008060008060008060008060006101208a8c03121561256857600080fd5b8935985061257860208b0161243c565b975060408a013567ffffffffffffffff8082111561259557600080fd5b6125a18d838e016124bc565b985060608c01359150808211156125b757600080fd5b506125c48c828d016124bc565b999c989b50969960808101359860a0820135985060c0820135975060e0820135965061010090910135945092505050565b6000815180845260005b8181101561261b576020818501810151868301820152016125ff565b8181111561262d576000602083870101525b50601f01601f19169290920160200192915050565b602081528151151560208201526000602083015161010080604085015261266d6101208501836125f5565b91506040850151601f1985840301606086015261268a83826125f5565b92505060608501516080850152608085015160a085015260a085015160c085015260c085015160e085015260e085015181850152508091505092915050565b6000602082840312156126db57600080fd5b8151801515811461247357600080fd5b60208152600061247360208301846125f5565b6020808252818101527f4f776e61626c653a2063616c6c6572206973206e6f7420746865206f776e6572604082015260600190565b6001600160a01b0392831681529116602082015260400190565b600181811c9082168061276157607f821691505b6020821081141561278257634e487b7160e01b600052602260045260246000fd5b5091905056fea264697066735822122011ad192e4dce7b8c30d1c94348195cff41ef6c14d5cb67b67d0338bde4ee3a4a64736f6c634300080a0033",
  "devdoc": {
    "kind": "dev",
    "methods": {
      "owner()": {
        "details": "Returns the address of the current owner."
      },
      "renounceOwnership()": {
        "details": "Leaves the contract without owner. It will not be possible to call `onlyOwner` functions anymore. Can only be called by the current owner. NOTE: Renouncing ownership will leave the contract without an owner, thereby removing any functionality that is only available to the owner."
      },
      "transferOwnership(address)": {
        "details": "Transfers ownership of the contract to a new account (`newOwner`). Can only be called by the current owner."
      }
    },
    "version": 1
  },
  "userdoc": {
    "kind": "user",
    "methods": {},
    "version": 1
  },
  "storageLayout": {
    "storage": [
      {
        "astId": 387,
        "contract": "contracts/configuration/OpenSkySettings.sol:OpenSkySettings",
        "label": "_owner",
        "offset": 0,
        "slot": "0",
        "type": "t_address"
      },
      {
        "astId": 19508,
        "contract": "contracts/configuration/OpenSkySettings.sol:OpenSkySettings",
        "label": "_whitelist",
        "offset": 0,
        "slot": "1",
        "type": "t_mapping(t_uint256,t_mapping(t_address,t_struct(WhitelistInfo)24518_storage))"
      },
      {
        "astId": 19512,
        "contract": "contracts/configuration/OpenSkySettings.sol:OpenSkySettings",
        "label": "_liquidators",
        "offset": 0,
        "slot": "2",
        "type": "t_mapping(t_address,t_bool)"
      },
      {
        "astId": 19515,
        "contract": "contracts/configuration/OpenSkySettings.sol:OpenSkySettings",
        "label": "poolAddress",
        "offset": 0,
        "slot": "3",
        "type": "t_address"
      },
      {
        "astId": 19518,
        "contract": "contracts/configuration/OpenSkySettings.sol:OpenSkySettings",
        "label": "loanAddress",
        "offset": 0,
        "slot": "4",
        "type": "t_address"
      },
      {
        "astId": 19521,
        "contract": "contracts/configuration/OpenSkySettings.sol:OpenSkySettings",
        "label": "vaultFactoryAddress",
        "offset": 0,
        "slot": "5",
        "type": "t_address"
      },
      {
        "astId": 19524,
        "contract": "contracts/configuration/OpenSkySettings.sol:OpenSkySettings",
        "label": "incentiveControllerAddress",
        "offset": 0,
        "slot": "6",
        "type": "t_address"
      },
      {
        "astId": 19527,
        "contract": "contracts/configuration/OpenSkySettings.sol:OpenSkySettings",
        "label": "incentiveControllerAddressForLoan",
        "offset": 0,
        "slot": "7",
        "type": "t_address"
      },
      {
        "astId": 19530,
        "contract": "contracts/configuration/OpenSkySettings.sol:OpenSkySettings",
        "label": "wethGatewayAddress",
        "offset": 0,
        "slot": "8",
        "type": "t_address"
      },
      {
        "astId": 19533,
        "contract": "contracts/configuration/OpenSkySettings.sol:OpenSkySettings",
        "label": "punkGatewayAddress",
        "offset": 0,
        "slot": "9",
        "type": "t_address"
      },
      {
        "astId": 19536,
        "contract": "contracts/configuration/OpenSkySettings.sol:OpenSkySettings",
        "label": "daoVaultAddress",
        "offset": 0,
        "slot": "10",
        "type": "t_address"
      },
      {
        "astId": 19539,
        "contract": "contracts/configuration/OpenSkySettings.sol:OpenSkySettings",
        "label": "moneyMarketAddress",
        "offset": 0,
        "slot": "11",
        "type": "t_address"
      },
      {
        "astId": 19542,
        "contract": "contracts/configuration/OpenSkySettings.sol:OpenSkySettings",
        "label": "treasuryAddress",
        "offset": 0,
        "slot": "12",
        "type": "t_address"
      },
      {
        "astId": 19545,
        "contract": "contracts/configuration/OpenSkySettings.sol:OpenSkySettings",
        "label": "loanDescriptorAddress",
        "offset": 0,
        "slot": "13",
        "type": "t_address"
      },
      {
        "astId": 19548,
        "contract": "contracts/configuration/OpenSkySettings.sol:OpenSkySettings",
        "label": "nftPriceOracleAddress",
        "offset": 0,
        "slot": "14",
        "type": "t_address"
      },
      {
        "astId": 19551,
        "contract": "contracts/configuration/OpenSkySettings.sol:OpenSkySettings",
        "label": "interestRateStrategyAddress",
        "offset": 0,
        "slot": "15",
        "type": "t_address"
      },
      {
        "astId": 19555,
        "contract": "contracts/configuration/OpenSkySettings.sol:OpenSkySettings",
        "label": "reserveFactor",
        "offset": 0,
        "slot": "16",
        "type": "t_uint256"
      },
      {
        "astId": 19559,
        "contract": "contracts/configuration/OpenSkySettings.sol:OpenSkySettings",
        "label": "prepaymentFeeFactor",
        "offset": 0,
        "slot": "17",
        "type": "t_uint256"
      },
      {
        "astId": 19563,
        "contract": "contracts/configuration/OpenSkySettings.sol:OpenSkySettings",
        "label": "overdueLoanFeeFactor",
        "offset": 0,
        "slot": "18",
        "type": "t_uint256"
      }
    ],
    "types": {
      "t_address": {
        "encoding": "inplace",
        "label": "address",
        "numberOfBytes": "20"
      },
      "t_bool": {
        "encoding": "inplace",
        "label": "bool",
        "numberOfBytes": "1"
      },
      "t_mapping(t_address,t_bool)": {
        "encoding": "mapping",
        "key": "t_address",
        "label": "mapping(address => bool)",
        "numberOfBytes": "32",
        "value": "t_bool"
      },
      "t_mapping(t_address,t_struct(WhitelistInfo)24518_storage)": {
        "encoding": "mapping",
        "key": "t_address",
        "label": "mapping(address => struct DataTypes.WhitelistInfo)",
        "numberOfBytes": "32",
        "value": "t_struct(WhitelistInfo)24518_storage"
      },
      "t_mapping(t_uint256,t_mapping(t_address,t_struct(WhitelistInfo)24518_storage))": {
        "encoding": "mapping",
        "key": "t_uint256",
        "label": "mapping(uint256 => mapping(address => struct DataTypes.WhitelistInfo))",
        "numberOfBytes": "32",
        "value": "t_mapping(t_address,t_struct(WhitelistInfo)24518_storage)"
      },
      "t_string_storage": {
        "encoding": "bytes",
        "label": "string",
        "numberOfBytes": "32"
      },
      "t_struct(WhitelistInfo)24518_storage": {
        "encoding": "inplace",
        "label": "struct DataTypes.WhitelistInfo",
        "members": [
          {
            "astId": 24503,
            "contract": "contracts/configuration/OpenSkySettings.sol:OpenSkySettings",
            "label": "enabled",
            "offset": 0,
            "slot": "0",
            "type": "t_bool"
          },
          {
            "astId": 24505,
            "contract": "contracts/configuration/OpenSkySettings.sol:OpenSkySettings",
            "label": "name",
            "offset": 0,
            "slot": "1",
            "type": "t_string_storage"
          },
          {
            "astId": 24507,
            "contract": "contracts/configuration/OpenSkySettings.sol:OpenSkySettings",
            "label": "symbol",
            "offset": 0,
            "slot": "2",
            "type": "t_string_storage"
          },
          {
            "astId": 24509,
            "contract": "contracts/configuration/OpenSkySettings.sol:OpenSkySettings",
            "label": "LTV",
            "offset": 0,
            "slot": "3",
            "type": "t_uint256"
          },
          {
            "astId": 24511,
            "contract": "contracts/configuration/OpenSkySettings.sol:OpenSkySettings",
            "label": "minBorrowDuration",
            "offset": 0,
            "slot": "4",
            "type": "t_uint256"
          },
          {
            "astId": 24513,
            "contract": "contracts/configuration/OpenSkySettings.sol:OpenSkySettings",
            "label": "maxBorrowDuration",
            "offset": 0,
            "slot": "5",
            "type": "t_uint256"
          },
          {
            "astId": 24515,
            "contract": "contracts/configuration/OpenSkySettings.sol:OpenSkySettings",
            "label": "extendableDuration",
            "offset": 0,
            "slot": "6",
            "type": "t_uint256"
          },
          {
            "astId": 24517,
            "contract": "contracts/configuration/OpenSkySettings.sol:OpenSkySettings",
            "label": "overdueDuration",
            "offset": 0,
            "slot": "7",
            "type": "t_uint256"
          }
        ],
        "numberOfBytes": "256"
      },
      "t_uint256": {
        "encoding": "inplace",
        "label": "uint256",
        "numberOfBytes": "32"
      }
    }
  }
}