{
  "address": "0xD893a3Db2957D48367bfb2F95eC2abB8EC8E7556",
  "abi": [
    {
      "inputs": [
        {
          "internalType": "contract IERC20",
          "name": "rewardToken",
          "type": "address"
        },
        {
          "internalType": "address",
          "name": "emissionManager",
          "type": "address"
        }
      ],
      "stateMutability": "nonpayable",
      "type": "constructor"
    },
    {
      "anonymous": false,
      "inputs": [
        {
          "indexed": true,
          "internalType": "address",
          "name": "asset",
          "type": "address"
        },
        {
          "indexed": false,
          "internalType": "uint256",
          "name": "emission",
          "type": "uint256"
        }
      ],
      "name": "AssetConfigUpdated",
      "type": "event"
    },
    {
      "anonymous": false,
      "inputs": [
        {
          "indexed": true,
          "internalType": "address",
          "name": "asset",
          "type": "address"
        },
        {
          "indexed": false,
          "internalType": "uint256",
          "name": "index",
          "type": "uint256"
        }
      ],
      "name": "AssetIndexUpdated",
      "type": "event"
    },
    {
      "anonymous": false,
      "inputs": [
        {
          "indexed": true,
          "internalType": "address",
          "name": "user",
          "type": "address"
        },
        {
          "indexed": true,
          "internalType": "address",
          "name": "claimer",
          "type": "address"
        }
      ],
      "name": "ClaimerSet",
      "type": "event"
    },
    {
      "anonymous": false,
      "inputs": [
        {
          "indexed": false,
          "internalType": "uint256",
          "name": "newDistributionEnd",
          "type": "uint256"
        }
      ],
      "name": "DistributionEndUpdated",
      "type": "event"
    },
    {
      "anonymous": false,
      "inputs": [
        {
          "indexed": true,
          "internalType": "address",
          "name": "settings",
          "type": "address"
        }
      ],
      "name": "PoolSettingsUpdated",
      "type": "event"
    },
    {
      "anonymous": false,
      "inputs": [
        {
          "indexed": true,
          "internalType": "address",
          "name": "user",
          "type": "address"
        },
        {
          "indexed": false,
          "internalType": "uint256",
          "name": "amount",
          "type": "uint256"
        }
      ],
      "name": "RewardsAccrued",
      "type": "event"
    },
    {
      "anonymous": false,
      "inputs": [
        {
          "indexed": true,
          "internalType": "address",
          "name": "user",
          "type": "address"
        },
        {
          "indexed": true,
          "internalType": "address",
          "name": "to",
          "type": "address"
        },
        {
          "indexed": true,
          "internalType": "address",
          "name": "claimer",
          "type": "address"
        },
        {
          "indexed": false,
          "internalType": "uint256",
          "name": "amount",
          "type": "uint256"
        }
      ],
      "name": "RewardsClaimed",
      "type": "event"
    },
    {
      "anonymous": false,
      "inputs": [
        {
          "indexed": true,
          "internalType": "address",
          "name": "vault",
          "type": "address"
        }
      ],
      "name": "RewardsVaultUpdated",
      "type": "event"
    },
    {
      "anonymous": false,
      "inputs": [
        {
          "indexed": true,
          "internalType": "address",
          "name": "user",
          "type": "address"
        },
        {
          "indexed": true,
          "internalType": "address",
          "name": "asset",
          "type": "address"
        },
        {
          "indexed": false,
          "internalType": "uint256",
          "name": "index",
          "type": "uint256"
        }
      ],
      "name": "UserIndexUpdated",
      "type": "event"
    },
    {
      "inputs": [],
      "name": "DISTRIBUTION_END",
      "outputs": [
        {
          "internalType": "uint256",
          "name": "",
          "type": "uint256"
        }
      ],
      "stateMutability": "view",
      "type": "function"
    },
    {
      "inputs": [],
      "name": "EMISSION_MANAGER",
      "outputs": [
        {
          "internalType": "address",
          "name": "",
          "type": "address"
        }
      ],
      "stateMutability": "view",
      "type": "function"
    },
    {
      "inputs": [],
      "name": "OPENSKY_SETTINGS",
      "outputs": [
        {
          "internalType": "address",
          "name": "",
          "type": "address"
        }
      ],
      "stateMutability": "view",
      "type": "function"
    },
    {
      "inputs": [],
      "name": "PRECISION",
      "outputs": [
        {
          "internalType": "uint8",
          "name": "",
          "type": "uint8"
        }
      ],
      "stateMutability": "view",
      "type": "function"
    },
    {
      "inputs": [],
      "name": "REVISION",
      "outputs": [
        {
          "internalType": "uint256",
          "name": "",
          "type": "uint256"
        }
      ],
      "stateMutability": "view",
      "type": "function"
    },
    {
      "inputs": [],
      "name": "REWARD_TOKEN",
      "outputs": [
        {
          "internalType": "address",
          "name": "",
          "type": "address"
        }
      ],
      "stateMutability": "view",
      "type": "function"
    },
    {
      "inputs": [
        {
          "internalType": "address",
          "name": "",
          "type": "address"
        }
      ],
      "name": "assets",
      "outputs": [
        {
          "internalType": "uint104",
          "name": "emissionPerSecond",
          "type": "uint104"
        },
        {
          "internalType": "uint104",
          "name": "index",
          "type": "uint104"
        },
        {
          "internalType": "uint40",
          "name": "lastUpdateTimestamp",
          "type": "uint40"
        }
      ],
      "stateMutability": "view",
      "type": "function"
    },
    {
      "inputs": [
        {
          "internalType": "address[]",
          "name": "assets",
          "type": "address[]"
        },
        {
          "internalType": "uint256",
          "name": "amount",
          "type": "uint256"
        },
        {
          "internalType": "address",
          "name": "to",
          "type": "address"
        }
      ],
      "name": "claimRewards",
      "outputs": [
        {
          "internalType": "uint256",
          "name": "",
          "type": "uint256"
        }
      ],
      "stateMutability": "nonpayable",
      "type": "function"
    },
    {
      "inputs": [
        {
          "internalType": "address[]",
          "name": "assets",
          "type": "address[]"
        },
        {
          "internalType": "uint256",
          "name": "amount",
          "type": "uint256"
        },
        {
          "internalType": "address",
          "name": "user",
          "type": "address"
        },
        {
          "internalType": "address",
          "name": "to",
          "type": "address"
        }
      ],
      "name": "claimRewardsOnBehalf",
      "outputs": [
        {
          "internalType": "uint256",
          "name": "",
          "type": "uint256"
        }
      ],
      "stateMutability": "nonpayable",
      "type": "function"
    },
    {
      "inputs": [
        {
          "internalType": "address[]",
          "name": "assets",
          "type": "address[]"
        },
        {
          "internalType": "uint256",
          "name": "amount",
          "type": "uint256"
        }
      ],
      "name": "claimRewardsToSelf",
      "outputs": [
        {
          "internalType": "uint256",
          "name": "",
          "type": "uint256"
        }
      ],
      "stateMutability": "nonpayable",
      "type": "function"
    },
    {
      "inputs": [
        {
          "internalType": "address[]",
          "name": "assets",
          "type": "address[]"
        },
        {
          "internalType": "uint256[]",
          "name": "emissionsPerSecond",
          "type": "uint256[]"
        }
      ],
      "name": "configureAssets",
      "outputs": [],
      "stateMutability": "nonpayable",
      "type": "function"
    },
    {
      "inputs": [
        {
          "internalType": "address",
          "name": "asset",
          "type": "address"
        }
      ],
      "name": "getAssetData",
      "outputs": [
        {
          "internalType": "uint256",
          "name": "",
          "type": "uint256"
        },
        {
          "internalType": "uint256",
          "name": "",
          "type": "uint256"
        },
        {
          "internalType": "uint256",
          "name": "",
          "type": "uint256"
        }
      ],
      "stateMutability": "view",
      "type": "function"
    },
    {
      "inputs": [
        {
          "internalType": "address",
          "name": "user",
          "type": "address"
        }
      ],
      "name": "getClaimer",
      "outputs": [
        {
          "internalType": "address",
          "name": "",
          "type": "address"
        }
      ],
      "stateMutability": "view",
      "type": "function"
    },
    {
      "inputs": [],
      "name": "getDistributionEnd",
      "outputs": [
        {
          "internalType": "uint256",
          "name": "",
          "type": "uint256"
        }
      ],
      "stateMutability": "view",
      "type": "function"
    },
    {
      "inputs": [
        {
          "internalType": "address[]",
          "name": "assets",
          "type": "address[]"
        },
        {
          "internalType": "address",
          "name": "user",
          "type": "address"
        }
      ],
      "name": "getRewardsBalance",
      "outputs": [
        {
          "internalType": "uint256",
          "name": "",
          "type": "uint256"
        }
      ],
      "stateMutability": "view",
      "type": "function"
    },
    {
      "inputs": [],
      "name": "getRewardsVault",
      "outputs": [
        {
          "internalType": "address",
          "name": "",
          "type": "address"
        }
      ],
      "stateMutability": "view",
      "type": "function"
    },
    {
      "inputs": [
        {
          "internalType": "address",
          "name": "user",
          "type": "address"
        },
        {
          "internalType": "address",
          "name": "asset",
          "type": "address"
        }
      ],
      "name": "getUserAssetData",
      "outputs": [
        {
          "internalType": "uint256",
          "name": "",
          "type": "uint256"
        }
      ],
      "stateMutability": "view",
      "type": "function"
    },
    {
      "inputs": [
        {
          "internalType": "address",
          "name": "_user",
          "type": "address"
        }
      ],
      "name": "getUserUnclaimedRewards",
      "outputs": [
        {
          "internalType": "uint256",
          "name": "",
          "type": "uint256"
        }
      ],
      "stateMutability": "view",
      "type": "function"
    },
    {
      "inputs": [
        {
          "internalType": "address",
          "name": "user",
          "type": "address"
        },
        {
          "internalType": "uint256",
          "name": "totalSupply",
          "type": "uint256"
        },
        {
          "internalType": "uint256",
          "name": "userBalance",
          "type": "uint256"
        },
        {
          "internalType": "bytes",
          "name": "params",
          "type": "bytes"
        }
      ],
      "name": "handleAction",
      "outputs": [],
      "stateMutability": "nonpayable",
      "type": "function"
    },
    {
      "inputs": [
        {
          "internalType": "address",
          "name": "rewardsVault",
          "type": "address"
        },
        {
          "internalType": "address",
          "name": "OPENSKY_SETTINGS_",
          "type": "address"
        }
      ],
      "name": "initialize",
      "outputs": [],
      "stateMutability": "nonpayable",
      "type": "function"
    },
    {
      "inputs": [
        {
          "internalType": "address",
          "name": "user",
          "type": "address"
        },
        {
          "internalType": "address",
          "name": "caller",
          "type": "address"
        }
      ],
      "name": "setClaimer",
      "outputs": [],
      "stateMutability": "nonpayable",
      "type": "function"
    },
    {
      "inputs": [
        {
          "internalType": "uint256",
          "name": "distributionEnd",
          "type": "uint256"
        }
      ],
      "name": "setDistributionEnd",
      "outputs": [],
      "stateMutability": "nonpayable",
      "type": "function"
    },
    {
      "inputs": [
        {
          "internalType": "address",
          "name": "rewardsVault",
          "type": "address"
        }
      ],
      "name": "setRewardsVault",
      "outputs": [],
      "stateMutability": "nonpayable",
      "type": "function"
    }
  ],
  "transactionHash": "0xc2edb3d3b591c003f1b667af32726c479163e847a14094af5b073b158aedeea8",
  "args": [
    "0xb47c287eB1d8D9675eB456934FC0A1F557A1f657",
    "0x218513C58A4781a5B88De6230caA29aBCe2Ccd75"
  ],
  "solcInputHash": "9b4eb64291b836b34a0d4d73e41b5cea",
  "bytecode": "0x60c0604052600080553480156200001557600080fd5b506040516200254838038062002548833981016040819052620000389162000069565b6001600160a01b039081166080521660a052620000a8565b6001600160a01b03811681146200006657600080fd5b50565b600080604083850312156200007d57600080fd5b82516200008a8162000050565b60208401519092506200009d8162000050565b809150509250929050565b60805160a051612457620000f1600039600081816102e2015261176c015260008181610349015281816104c30152818161079e01528181610e270152610eb901526124576000f3fe608060405234801561001057600080fd5b506004361061014d5760003560e01c8063919cd40f116100c3578063cc69afec1161007c578063cc69afec146102d5578063dde43cba1461036b578063e23ddec514610373578063f11b818814610384578063f5bb3e02146103f6578063f5cf673b1461040957600080fd5b8063919cd40f146102d557806399248ea7146102dd5780639ab99ddf14610304578063aaf5eb6814610317578063ab2432be14610331578063cbcbb5071461034457600080fd5b806341485304116101155780634148530414610232578063485cc955146102455780636d34b96e1461025857806374d945ec1461026b57806379f171b2146102af5780638b599f26146102c257600080fd5b80631652e7b714610152578063198fa81e146101c05780633111e7b3146101f75780633373ee4c1461020a57806339ccbdd31461021d575b600080fd5b6101a0610160366004611d30565b6001600160a01b0316600090815260336020526040902054600160681b81046001600160681b039081169290821691600160d01b900464ffffffffff1690565b604080519384526020840192909252908201526060015b60405180910390f35b6101e96101ce366004611d30565b6001600160a01b031660009081526035602052604090205490565b6040519081526020016101b7565b6101e9610205366004611d92565b61041c565b6101e9610218366004611df1565b610487565b61023061022b366004611e2a565b6104b8565b005b6101e9610240366004611e43565b61053b565b610230610253366004611df1565b610555565b6101e9610266366004611e8f565b61067b565b610297610279366004611d30565b6001600160a01b039081166000908152603660205260409020541690565b6040516001600160a01b0390911681526020016101b7565b6102306102bd366004611f03565b610793565b6101e96102d0366004611f6f565b610a3c565b6034546101e9565b6102977f000000000000000000000000000000000000000000000000000000000000000081565b610230610312366004611fc6565b610bcf565b61031f601281565b60405160ff90911681526020016101b7565b603854610297906001600160a01b031681565b6102977f000000000000000000000000000000000000000000000000000000000000000081565b6101e9600181565b6037546001600160a01b0316610297565b6103c9610392366004611d30565b6033602052600090815260409020546001600160681b0380821691600160681b810490911690600160d01b900464ffffffffff1683565b604080516001600160681b03948516815293909216602084015264ffffffffff16908201526060016101b7565b610230610404366004611d30565b610e1c565b610230610417366004611df1565b610eae565b60006001600160a01b03821661046e5760405162461bcd60e51b8152602060048201526012602482015271494e56414c49445f544f5f4144445245535360701b60448201526064015b60405180910390fd5b61047c858585333387610f4d565b90505b949350505050565b6001600160a01b03808216600090815260336020908152604080832093861683526001909301905220545b92915050565b336001600160a01b037f000000000000000000000000000000000000000000000000000000000000000016146105005760405162461bcd60e51b81526004016104659061205c565b60348190556040518181527f1cc1849a6602c3e91f2088cadea4381cc5717f2f28584197060ed2ebb434c16f9060200160405180910390a150565b600061054b848484333333610f4d565b90505b9392505050565b60005460019081116105c05760405162461bcd60e51b815260206004820152602e60248201527f436f6e747261637420696e7374616e63652068617320616c726561647920626560448201526d195b881a5b9a5d1a585b1a5e995960921b6064820152608401610465565b60008190556001600160a01b0383166105d857600080fd5b6001600160a01b0382166105eb57600080fd5b603780546001600160a01b038086166001600160a01b0319928316811790935560388054918616919092161790556040517f28a48cbce43190d77247f342cf319b1607bff4ef716cf26b76cf7bb71baebaa590600090a26040516001600160a01b038316907f65fc11f7efde4cdbc31bc80c1517420457c066e29c1155039954af1af7b2a46390600090a2505050565b6001600160a01b038083166000908152603660205260408120549091339185911682146106e15760405162461bcd60e51b815260206004820152601460248201527310d3105253515497d5539055551213d49256915160621b6044820152606401610465565b6001600160a01b03851661072e5760405162461bcd60e51b8152602060048201526014602482015273494e56414c49445f555345525f4144445245535360601b6044820152606401610465565b6001600160a01b0384166107795760405162461bcd60e51b8152602060048201526012602482015271494e56414c49445f544f5f4144445245535360701b6044820152606401610465565b610787888888338989610f4d565b98975050505050505050565b336001600160a01b037f000000000000000000000000000000000000000000000000000000000000000016146107db5760405162461bcd60e51b81526004016104659061205c565b8281146108225760405162461bcd60e51b815260206004820152601560248201527424a72b20a624a22fa1a7a72324a3aaa920aa24a7a760591b6044820152606401610465565b60008367ffffffffffffffff81111561083d5761083d61208b565b60405190808252806020026020018201604052801561088857816020015b604080516060810182526000808252602080830182905292820152825260001990920191018161085b5790505b50905060005b84811015610a2b578383828181106108a8576108a86120a1565b905060200201358484838181106108c1576108c16120a1565b905060200201356001600160681b03161461092a5760405162461bcd60e51b8152602060048201526024808201527f496e646578206f766572666c6f7720617420656d697373696f6e73506572536560448201526318dbdb9960e21b6064820152608401610465565b85858281811061093c5761093c6120a1565b90506020020160208101906109519190611d30565b828281518110610963576109636120a1565b6020026020010151604001906001600160a01b031690816001600160a01b031681525050838382818110610999576109996120a1565b905060200201358282815181106109b2576109b26120a1565b60209081029190910101516001600160681b0390911690526109f98686838181106109df576109df6120a1565b90506020020160208101906109f49190611d30565b6111f3565b828281518110610a0b57610a0b6120a1565b602090810291909101810151015280610a23816120cd565b91505061088e565b50610a358161126f565b5050505050565b6001600160a01b038116600090815260356020526040812054818467ffffffffffffffff811115610a6f57610a6f61208b565b604051908082528060200260200182016040528015610acd57816020015b610aba604051806060016040528060006001600160a01b0316815260200160008152602001600081525090565b815260200190600190039081610a8d5790505b50905060005b85811015610bb057868682818110610aed57610aed6120a1565b9050602002016020810190610b029190611d30565b828281518110610b1457610b146120a1565b60209081029190910101516001600160a01b039091169052610b5c878783818110610b4157610b416120a1565b9050602002016020810190610b569190611d30565b866113de565b838381518110610b6e57610b6e6120a1565b6020026020010151602001848481518110610b8b57610b8b6120a1565b6020908102919091010151604001919091525280610ba8816120cd565b915050610ad3565b50610bc5610bbe85836114dc565b83906115f7565b9695505050505050565b60385460408051631ade434560e11b8152905133926001600160a01b0316916335bc868a9160048083019260209291908290030181865afa158015610c18573d6000803e3d6000fd5b505050506040513d601f19601f82011682018060405250810190610c3c91906120f8565b6001600160a01b031614610c815760405162461bcd60e51b815260206004820152600c60248201526b15539055551213d49256915160a21b6044820152606401610465565b6000610c8f82840184611e2a565b90506000603860009054906101000a90046001600160a01b03166001600160a01b0316631755ff216040518163ffffffff1660e01b8152600401602060405180830381865afa158015610ce6573d6000803e3d6000fd5b505050506040513d601f19601f82011682018060405250810190610d0a91906120f8565b6040516391541e0560e01b8152600481018490529091506000906001600160a01b038316906391541e059060240161018060405180830381865afa158015610d56573d6000803e3d6000fd5b505050506040513d601f19601f82011682018060405250810190610d7a9190612189565b6040015190506000610d8e8983898b611612565b90508015610e11576001600160a01b038916600090815260356020526040902054610db990826115f7565b6001600160a01b038a16600081815260356020526040908190209290925590517f2468f9268c60ad90e2d49edb0032c8a001e733ae888b3ab8e982edf535be1a7690610e089084815260200190565b60405180910390a25b505050505050505050565b336001600160a01b037f00000000000000000000000000000000000000000000000000000000000000001614610e645760405162461bcd60e51b81526004016104659061205c565b603780546001600160a01b0319166001600160a01b0383169081179091556040517f28a48cbce43190d77247f342cf319b1607bff4ef716cf26b76cf7bb71baebaa590600090a250565b336001600160a01b037f00000000000000000000000000000000000000000000000000000000000000001614610ef65760405162461bcd60e51b81526004016104659061205c565b6001600160a01b0382811660008181526036602052604080822080546001600160a01b0319169486169485179055517f4925eafc82d0c4d67889898eeed64b18488ab19811e61620f387026dec126a289190a35050565b600084610f5c57506000610bc5565b6001600160a01b038316600090815260356020526040902054808611156111415760008767ffffffffffffffff811115610f9857610f9861208b565b604051908082528060200260200182016040528015610ff657816020015b610fe3604051806060016040528060006001600160a01b0316815260200160008152602001600081525090565b815260200190600190039081610fb65790505b50905060005b888110156110d957898982818110611016576110166120a1565b905060200201602081019061102b9190611d30565b82828151811061103d5761103d6120a1565b60209081029190910101516001600160a01b0390911690526110858a8a8381811061106a5761106a6120a1565b905060200201602081019061107f9190611d30565b876113de565b838381518110611097576110976120a1565b60200260200101516020018484815181106110b4576110b46120a1565b60209081029190910101516040019190915252806110d1816120cd565b915050610ffc565b5060006110e686836116d3565b9050801561113e576110f883826115f7565b9250856001600160a01b03167f2468f9268c60ad90e2d49edb0032c8a001e733ae888b3ab8e982edf535be1a768260405161113591815260200190565b60405180910390a25b50505b80611150576000915050610bc5565b600081871161115f5786611161565b815b905061116d8183612252565b6001600160a01b038616600090815260356020526040902055611190848261175b565b856001600160a01b0316846001600160a01b0316866001600160a01b03167f5637d7f962248a7f05a7ab69eec6446e31f3d0a299d997f135a65c62806e7891846040516111df91815260200190565b60405180910390a498975050505050505050565b600080600061120184611796565b604051631177d38360e31b81526004810183905291935091506001600160a01b03821690638bbe9c1890602401602060405180830381865afa15801561124b573d6000803e3d6000fd5b505050506040513d601f19601f8201168201806040525081019061047f9190612269565b60005b81518110156113da57600060336000848481518110611293576112936120a1565b6020026020010151604001516001600160a01b03166001600160a01b0316815260200190815260200160002090506113068383815181106112d6576112d66120a1565b602002602001015160400151828585815181106112f5576112f56120a1565b602002602001015160200151611884565b50828281518110611319576113196120a1565b60209081029190910101515181546cffffffffffffffffffffffffff19166001600160681b039091161781558251839083908110611359576113596120a1565b6020026020010151604001516001600160a01b03167f87fa03892a0556cb6b8f97e6d533a150d4d55fcbf275fff5fa003fa636bcc7fa8484815181106113a1576113a16120a1565b602090810291909101810151516040516001600160681b0390911681520160405180910390a250806113d2816120cd565b915050611272565b5050565b6000806000806113ed86611796565b604051631367992b60e01b8152600481018390526001600160a01b03888116602483015292945090925090821690631367992b90604401602060405180830381865afa158015611441573d6000803e3d6000fd5b505050506040513d601f19601f820116820180604052508101906114659190612269565b604051631177d38360e31b8152600481018490526001600160a01b03831690638bbe9c1890602401602060405180830381865afa1580156114aa573d6000803e3d6000fd5b505050506040513d601f19601f820116820180604052508101906114ce9190612269565b9350935050505b9250929050565b600080805b83518110156115ef57600060336000868481518110611502576115026120a1565b602090810291909101810151516001600160a01b0316825281019190915260400160009081208054875191935061157d91600160681b82046001600160681b039081169290811691600160d01b90910464ffffffffff16908a908890811061156c5761156c6120a1565b6020026020010151604001516119d5565b90506115d86115d1878581518110611597576115976120a1565b602002602001015160200151838560010160008c6001600160a01b03166001600160a01b0316815260200190815260200160002054611a78565b85906115f7565b9350505080806115e7906120cd565b9150506114e1565b509392505050565b6000826116048382612282565b91508110156104b257600080fd5b6001600160a01b038084166000908152603360209081526040808320938816835260018401909152812054909190828061164d888588611884565b90508083146116c757861561166a57611667878285611a78565b91505b6001600160a01b03808a1660008181526001870160205260409081902084905551918a16917fbb123b5c06d5408bbea3c4fef481578175cfb432e3b482c6186f02ed9086585b906116be9085815260200190565b60405180910390a35b50979650505050505050565b600080805b83518110156115ef57611747610bbe868684815181106116fa576116fa6120a1565b602002602001015160000151878581518110611718576117186120a1565b602002602001015160200151888681518110611736576117366120a1565b602002602001015160400151611612565b915080611753816120cd565b9150506116d8565b6037546113da906001600160a01b037f0000000000000000000000000000000000000000000000000000000000000000811691168484611aa4565b6000806000836001600160a01b031663ea8d1f0a6040518163ffffffff1660e01b8152600401602060405180830381865afa1580156117d9573d6000803e3d6000fd5b505050506040513d601f19601f820116820180604052508101906117fd9190612269565b90506000603860009054906101000a90046001600160a01b03166001600160a01b03166335bc868a6040518163ffffffff1660e01b8152600401602060405180830381865afa158015611854573d6000803e3d6000fd5b505050506040513d601f19601f8201168201806040525081019061187891906120f8565b91959194509092505050565b81546000906001600160681b03600160681b82048116919081169064ffffffffff600160d01b90910416428114156118c15782935050505061054e565b60006118cf848484896119d5565b90508381146119ab5780816001600160681b0316146119215760405162461bcd60e51b815260206004820152600e60248201526d496e646578206f766572666c6f7760901b6044820152606401610465565b865471ffffffffffffffffffffffffffffffffffff60681b1916600160681b6001600160681b0383160264ffffffffff60d01b191617600160d01b4264ffffffffff16021787556040518181526001600160a01b038916907f5777ca300dfe5bead41006fbce4389794dbc0ed8d6cccebfaf94630aa04184bc9060200160405180910390a26119ca565b865464ffffffffff60d01b1916600160d01b4264ffffffffff16021787555b979650505050505050565b6034546000908415806119e6575082155b806119f9575042846001600160801b0316145b80611a0d575080846001600160801b031610155b15611a1b578591505061047f565b6000814211611a2a5742611a2c565b815b90506000611a43826001600160801b038816611b04565b905061078788611a7287611a6c611a5c6012600a61237e565b611a668d88611b1f565b90611b1f565b90611b4c565b906115f7565b6000611a866012600a61237e565b611a9a611a938585611b04565b8690611b1f565b61054b919061238a565b604080516001600160a01b0385811660248301528416604482015260648082018490528251808303909101815260849091019091526020810180516001600160e01b03166323b872dd60e01b179052611afe908590611b58565b50505050565b600082611b118382612252565b91508111156104b257600080fd5b6000821580611b4357508183611b3582826123ac565b9250611b41908361238a565b145b6104b257600080fd5b600061054e828461238a565b611b6a826001600160a01b0316611cdf565b611bb65760405162461bcd60e51b815260206004820152601f60248201527f5361666545524332303a2063616c6c20746f206e6f6e2d636f6e7472616374006044820152606401610465565b600080836001600160a01b031683604051611bd191906123cb565b6000604051808303816000865af19150503d8060008114611c0e576040519150601f19603f3d011682016040523d82523d6000602084013e611c13565b606091505b509150915081611c655760405162461bcd60e51b815260206004820181905260248201527f5361666545524332303a206c6f772d6c6576656c2063616c6c206661696c65646044820152606401610465565b805115611afe5780806020019051810190611c809190612406565b611afe5760405162461bcd60e51b815260206004820152602a60248201527f5361666545524332303a204552433230206f7065726174696f6e20646964206e6044820152691bdd081cdd58d8d9595960b21b6064820152608401610465565b6000813f7fc5d2460186f7233c927e7db2dcc703c0e500b653ca82273b7bfad8045d85a47081811480159061047f575050151592915050565b6001600160a01b0381168114611d2d57600080fd5b50565b600060208284031215611d4257600080fd5b813561054e81611d18565b60008083601f840112611d5f57600080fd5b50813567ffffffffffffffff811115611d7757600080fd5b6020830191508360208260051b85010111156114d557600080fd5b60008060008060608587031215611da857600080fd5b843567ffffffffffffffff811115611dbf57600080fd5b611dcb87828801611d4d565b909550935050602085013591506040850135611de681611d18565b939692955090935050565b60008060408385031215611e0457600080fd5b8235611e0f81611d18565b91506020830135611e1f81611d18565b809150509250929050565b600060208284031215611e3c57600080fd5b5035919050565b600080600060408486031215611e5857600080fd5b833567ffffffffffffffff811115611e6f57600080fd5b611e7b86828701611d4d565b909790965060209590950135949350505050565b600080600080600060808688031215611ea757600080fd5b853567ffffffffffffffff811115611ebe57600080fd5b611eca88828901611d4d565b909650945050602086013592506040860135611ee581611d18565b91506060860135611ef581611d18565b809150509295509295909350565b60008060008060408587031215611f1957600080fd5b843567ffffffffffffffff80821115611f3157600080fd5b611f3d88838901611d4d565b90965094506020870135915080821115611f5657600080fd5b50611f6387828801611d4d565b95989497509550505050565b600080600060408486031215611f8457600080fd5b833567ffffffffffffffff811115611f9b57600080fd5b611fa786828701611d4d565b9094509250506020840135611fbb81611d18565b809150509250925092565b600080600080600060808688031215611fde57600080fd5b8535611fe981611d18565b94506020860135935060408601359250606086013567ffffffffffffffff8082111561201457600080fd5b818801915088601f83011261202857600080fd5b81358181111561203757600080fd5b89602082850101111561204957600080fd5b9699959850939650602001949392505050565b60208082526015908201527427a7262cafa2a6a4a9a9a4a7a72fa6a0a720a3a2a960591b604082015260600190565b634e487b7160e01b600052604160045260246000fd5b634e487b7160e01b600052603260045260246000fd5b634e487b7160e01b600052601160045260246000fd5b60006000198214156120e1576120e16120b7565b5060010190565b80516120f381611d18565b919050565b60006020828403121561210a57600080fd5b815161054e81611d18565b604051610180810167ffffffffffffffff8111828210171561214757634e487b7160e01b600052604160045260246000fd5b60405290565b80516001600160801b03811681146120f357600080fd5b805164ffffffffff811681146120f357600080fd5b805180151581146120f357600080fd5b6000610180828403121561219c57600080fd5b6121a4612115565b825181526121b4602084016120e8565b60208201526121c5604084016120e8565b60408201526121d6606084016120e8565b60608201526121e76080840161214d565b608082015260a083015160a082015260c083015160c082015261220c60e08401612164565b60e0820152610100838101519082015261012061222a8185016120e8565b908201526101408381015190820152610160612247818501612179565b908201529392505050565b600082821015612264576122646120b7565b500390565b60006020828403121561227b57600080fd5b5051919050565b60008219821115612295576122956120b7565b500190565b600181815b808511156122d55781600019048211156122bb576122bb6120b7565b808516156122c857918102915b93841c939080029061229f565b509250929050565b6000826122ec575060016104b2565b816122f9575060006104b2565b816001811461230f576002811461231957612335565b60019150506104b2565b60ff84111561232a5761232a6120b7565b50506001821b6104b2565b5060208310610133831016604e8410600b8410161715612358575081810a6104b2565b612362838361229a565b8060001904821115612376576123766120b7565b029392505050565b600061054e83836122dd565b6000826123a757634e487b7160e01b600052601260045260246000fd5b500490565b60008160001904831182151516156123c6576123c66120b7565b500290565b6000825160005b818110156123ec57602081860181015185830152016123d2565b818111156123fb576000828501525b509190910192915050565b60006020828403121561241857600080fd5b61054e8261217956fea2646970667358221220fad5f92b759df196dfc39efead1b68285185468d993c14966696d65ad11495c664736f6c634300080a0033",
  "devdoc": {
    "kind": "dev",
    "methods": {
      "DISTRIBUTION_END()": {
        "details": "for backwards compatibility with the previous DistributionManager used",
        "returns": {
          "_0": "The end of the distribution*"
        }
      },
      "claimRewards(address[],uint256,address)": {
        "details": "Claims reward for an user to the desired address, on all the assets of the lending pool, accumulating the pending rewards",
        "params": {
          "amount": "Amount of rewards to claim",
          "to": "Address that will be receiving the rewards"
        },
        "returns": {
          "_0": "Rewards claimed*"
        }
      },
      "claimRewardsOnBehalf(address[],uint256,address,address)": {
        "details": "Claims reward for an user on behalf, on all the assets of the lending pool, accumulating the pending rewards. The caller must be whitelisted via \"allowClaimOnBehalf\" function by the RewardsAdmin role manager",
        "params": {
          "amount": "Amount of rewards to claim",
          "to": "Address that will be receiving the rewards",
          "user": "Address to check and claim rewards"
        },
        "returns": {
          "_0": "Rewards claimed*"
        }
      },
      "claimRewardsToSelf(address[],uint256)": {
        "details": "Claims reward for msg.sender, on all the assets of the lending pool, accumulating the pending rewards",
        "params": {
          "amount": "Amount of rewards to claim"
        },
        "returns": {
          "_0": "Rewards claimed*"
        }
      },
      "configureAssets(address[],uint256[])": {
        "details": "Configure assets for a certain rewards emission",
        "params": {
          "assets": "The assets to incentivize",
          "emissionsPerSecond": "The emission for each asset"
        }
      },
      "getAssetData(address)": {
        "details": "Returns the configuration of the distribution for a certain asset",
        "params": {
          "asset": "The address of the reference asset of the distribution"
        },
        "returns": {
          "_0": "The asset index, the emission per second and the last updated timestamp*"
        }
      },
      "getClaimer(address)": {
        "details": "Returns the whitelisted claimer for a certain address (0x0 if not set)",
        "params": {
          "user": "The address of the user"
        },
        "returns": {
          "_0": "The claimer address"
        }
      },
      "getDistributionEnd()": {
        "details": "Gets the end date for the distribution",
        "returns": {
          "_0": "The end of the distribution*"
        }
      },
      "getRewardsBalance(address[],address)": {
        "details": "Returns the total of rewards of an user, already accrued + not yet accrued",
        "params": {
          "user": "The address of the user"
        },
        "returns": {
          "_0": "The rewards*"
        }
      },
      "getRewardsVault()": {
        "details": "returns the current rewards vault contract",
        "returns": {
          "_0": "address"
        }
      },
      "getUserAssetData(address,address)": {
        "details": "Returns the data of an user on a distribution",
        "params": {
          "asset": "The address of the reference asset of the distribution",
          "user": "Address of the user"
        },
        "returns": {
          "_0": "The new index*"
        }
      },
      "getUserUnclaimedRewards(address)": {
        "details": "returns the unclaimed rewards of the user",
        "params": {
          "user": "the address of the user"
        },
        "returns": {
          "_0": "the unclaimed user rewards"
        }
      },
      "initialize(address,address)": {
        "details": "Initialize AaveIncentivesController",
        "params": {
          "rewardsVault": "rewards vault to pull ERC20 funds*"
        }
      },
      "setClaimer(address,address)": {
        "details": "Whitelists an address to claim the rewards on behalf of another address",
        "params": {
          "claimer": "The address of the claimer",
          "user": "The address of the user"
        }
      },
      "setDistributionEnd(uint256)": {
        "details": "Sets the end date for the distribution",
        "params": {
          "distributionEnd": "The end date timestamp*"
        }
      },
      "setRewardsVault(address)": {
        "details": "update the rewards vault address, only allowed by the Rewards admin",
        "params": {
          "rewardsVault": "The address of the rewards vault*"
        }
      }
    },
    "version": 1
  },
  "userdoc": {
    "kind": "user",
    "methods": {},
    "version": 1
  },
  "storageLayout": {
    "storage": [
      {
        "astId": 3160,
        "contract": "contracts/incentives/OpenSkyPoolIncentivesControllerBorrower.sol:OpenSkyPoolIncentivesControllerBorrower",
        "label": "lastInitializedRevision",
        "offset": 0,
        "slot": "0",
        "type": "t_uint256"
      },
      {
        "astId": 3191,
        "contract": "contracts/incentives/OpenSkyPoolIncentivesControllerBorrower.sol:OpenSkyPoolIncentivesControllerBorrower",
        "label": "______gap",
        "offset": 0,
        "slot": "1",
        "type": "t_array(t_uint256)50_storage"
      },
      {
        "astId": 1661,
        "contract": "contracts/incentives/OpenSkyPoolIncentivesControllerBorrower.sol:OpenSkyPoolIncentivesControllerBorrower",
        "label": "assets",
        "offset": 0,
        "slot": "51",
        "type": "t_mapping(t_address,t_struct(AssetData)1651_storage)"
      },
      {
        "astId": 1663,
        "contract": "contracts/incentives/OpenSkyPoolIncentivesControllerBorrower.sol:OpenSkyPoolIncentivesControllerBorrower",
        "label": "_distributionEnd",
        "offset": 0,
        "slot": "52",
        "type": "t_uint256"
      },
      {
        "astId": 1042,
        "contract": "contracts/incentives/OpenSkyPoolIncentivesControllerBorrower.sol:OpenSkyPoolIncentivesControllerBorrower",
        "label": "_usersUnclaimedRewards",
        "offset": 0,
        "slot": "53",
        "type": "t_mapping(t_address,t_uint256)"
      },
      {
        "astId": 1046,
        "contract": "contracts/incentives/OpenSkyPoolIncentivesControllerBorrower.sol:OpenSkyPoolIncentivesControllerBorrower",
        "label": "_authorizedClaimers",
        "offset": 0,
        "slot": "54",
        "type": "t_mapping(t_address,t_address)"
      },
      {
        "astId": 524,
        "contract": "contracts/incentives/OpenSkyPoolIncentivesControllerBorrower.sol:OpenSkyPoolIncentivesControllerBorrower",
        "label": "_rewardsVault",
        "offset": 0,
        "slot": "55",
        "type": "t_address"
      },
      {
        "astId": 526,
        "contract": "contracts/incentives/OpenSkyPoolIncentivesControllerBorrower.sol:OpenSkyPoolIncentivesControllerBorrower",
        "label": "OPENSKY_SETTINGS",
        "offset": 0,
        "slot": "56",
        "type": "t_address"
      }
    ],
    "types": {
      "t_address": {
        "encoding": "inplace",
        "label": "address",
        "numberOfBytes": "20"
      },
      "t_array(t_uint256)50_storage": {
        "base": "t_uint256",
        "encoding": "inplace",
        "label": "uint256[50]",
        "numberOfBytes": "1600"
      },
      "t_mapping(t_address,t_address)": {
        "encoding": "mapping",
        "key": "t_address",
        "label": "mapping(address => address)",
        "numberOfBytes": "32",
        "value": "t_address"
      },
      "t_mapping(t_address,t_struct(AssetData)1651_storage)": {
        "encoding": "mapping",
        "key": "t_address",
        "label": "mapping(address => struct DistributionManager.AssetData)",
        "numberOfBytes": "32",
        "value": "t_struct(AssetData)1651_storage"
      },
      "t_mapping(t_address,t_uint256)": {
        "encoding": "mapping",
        "key": "t_address",
        "label": "mapping(address => uint256)",
        "numberOfBytes": "32",
        "value": "t_uint256"
      },
      "t_struct(AssetData)1651_storage": {
        "encoding": "inplace",
        "label": "struct DistributionManager.AssetData",
        "members": [
          {
            "astId": 1642,
            "contract": "contracts/incentives/OpenSkyPoolIncentivesControllerBorrower.sol:OpenSkyPoolIncentivesControllerBorrower",
            "label": "emissionPerSecond",
            "offset": 0,
            "slot": "0",
            "type": "t_uint104"
          },
          {
            "astId": 1644,
            "contract": "contracts/incentives/OpenSkyPoolIncentivesControllerBorrower.sol:OpenSkyPoolIncentivesControllerBorrower",
            "label": "index",
            "offset": 13,
            "slot": "0",
            "type": "t_uint104"
          },
          {
            "astId": 1646,
            "contract": "contracts/incentives/OpenSkyPoolIncentivesControllerBorrower.sol:OpenSkyPoolIncentivesControllerBorrower",
            "label": "lastUpdateTimestamp",
            "offset": 26,
            "slot": "0",
            "type": "t_uint40"
          },
          {
            "astId": 1650,
            "contract": "contracts/incentives/OpenSkyPoolIncentivesControllerBorrower.sol:OpenSkyPoolIncentivesControllerBorrower",
            "label": "users",
            "offset": 0,
            "slot": "1",
            "type": "t_mapping(t_address,t_uint256)"
          }
        ],
        "numberOfBytes": "64"
      },
      "t_uint104": {
        "encoding": "inplace",
        "label": "uint104",
        "numberOfBytes": "13"
      },
      "t_uint256": {
        "encoding": "inplace",
        "label": "uint256",
        "numberOfBytes": "32"
      },
      "t_uint40": {
        "encoding": "inplace",
        "label": "uint40",
        "numberOfBytes": "5"
      }
    }
  }
}