{
  "address": "0xCD088b30777e609FF1DFBb29A684dEB4F7941AF5",
  "abi": [
    {
      "inputs": [
        {
          "internalType": "contract IERC20",
          "name": "rewardToken",
          "type": "address"
        },
        {
          "internalType": "address",
          "name": "emissionManager",
          "type": "address"
        }
      ],
      "stateMutability": "nonpayable",
      "type": "constructor"
    },
    {
      "anonymous": false,
      "inputs": [
        {
          "indexed": true,
          "internalType": "address",
          "name": "asset",
          "type": "address"
        },
        {
          "indexed": false,
          "internalType": "uint256",
          "name": "emission",
          "type": "uint256"
        }
      ],
      "name": "AssetConfigUpdated",
      "type": "event"
    },
    {
      "anonymous": false,
      "inputs": [
        {
          "indexed": true,
          "internalType": "address",
          "name": "asset",
          "type": "address"
        },
        {
          "indexed": false,
          "internalType": "uint256",
          "name": "index",
          "type": "uint256"
        }
      ],
      "name": "AssetIndexUpdated",
      "type": "event"
    },
    {
      "anonymous": false,
      "inputs": [
        {
          "indexed": true,
          "internalType": "address",
          "name": "BespokeAddress",
          "type": "address"
        }
      ],
      "name": "BespokeMarketUpdated",
      "type": "event"
    },
    {
      "anonymous": false,
      "inputs": [
        {
          "indexed": true,
          "internalType": "address",
          "name": "user",
          "type": "address"
        },
        {
          "indexed": true,
          "internalType": "address",
          "name": "claimer",
          "type": "address"
        }
      ],
      "name": "ClaimerSet",
      "type": "event"
    },
    {
      "anonymous": false,
      "inputs": [
        {
          "indexed": false,
          "internalType": "uint256",
          "name": "newDistributionEnd",
          "type": "uint256"
        }
      ],
      "name": "DistributionEndUpdated",
      "type": "event"
    },
    {
      "anonymous": false,
      "inputs": [
        {
          "indexed": true,
          "internalType": "address",
          "name": "user",
          "type": "address"
        },
        {
          "indexed": false,
          "internalType": "uint256",
          "name": "amount",
          "type": "uint256"
        }
      ],
      "name": "RewardsAccrued",
      "type": "event"
    },
    {
      "anonymous": false,
      "inputs": [
        {
          "indexed": true,
          "internalType": "address",
          "name": "user",
          "type": "address"
        },
        {
          "indexed": true,
          "internalType": "address",
          "name": "to",
          "type": "address"
        },
        {
          "indexed": true,
          "internalType": "address",
          "name": "claimer",
          "type": "address"
        },
        {
          "indexed": false,
          "internalType": "uint256",
          "name": "amount",
          "type": "uint256"
        }
      ],
      "name": "RewardsClaimed",
      "type": "event"
    },
    {
      "anonymous": false,
      "inputs": [
        {
          "indexed": true,
          "internalType": "address",
          "name": "vault",
          "type": "address"
        }
      ],
      "name": "RewardsVaultUpdated",
      "type": "event"
    },
    {
      "anonymous": false,
      "inputs": [
        {
          "indexed": true,
          "internalType": "address",
          "name": "user",
          "type": "address"
        },
        {
          "indexed": true,
          "internalType": "address",
          "name": "asset",
          "type": "address"
        },
        {
          "indexed": false,
          "internalType": "uint256",
          "name": "index",
          "type": "uint256"
        }
      ],
      "name": "UserIndexUpdated",
      "type": "event"
    },
    {
      "inputs": [],
      "name": "DISTRIBUTION_END",
      "outputs": [
        {
          "internalType": "uint256",
          "name": "",
          "type": "uint256"
        }
      ],
      "stateMutability": "view",
      "type": "function"
    },
    {
      "inputs": [],
      "name": "EMISSION_MANAGER",
      "outputs": [
        {
          "internalType": "address",
          "name": "",
          "type": "address"
        }
      ],
      "stateMutability": "view",
      "type": "function"
    },
    {
      "inputs": [],
      "name": "OPENSKY_BESPOKE_MARKET",
      "outputs": [
        {
          "internalType": "address",
          "name": "",
          "type": "address"
        }
      ],
      "stateMutability": "view",
      "type": "function"
    },
    {
      "inputs": [],
      "name": "PRECISION",
      "outputs": [
        {
          "internalType": "uint8",
          "name": "",
          "type": "uint8"
        }
      ],
      "stateMutability": "view",
      "type": "function"
    },
    {
      "inputs": [],
      "name": "REVISION",
      "outputs": [
        {
          "internalType": "uint256",
          "name": "",
          "type": "uint256"
        }
      ],
      "stateMutability": "view",
      "type": "function"
    },
    {
      "inputs": [],
      "name": "REWARD_TOKEN",
      "outputs": [
        {
          "internalType": "address",
          "name": "",
          "type": "address"
        }
      ],
      "stateMutability": "view",
      "type": "function"
    },
    {
      "inputs": [
        {
          "internalType": "address",
          "name": "",
          "type": "address"
        }
      ],
      "name": "assets",
      "outputs": [
        {
          "internalType": "uint104",
          "name": "emissionPerSecond",
          "type": "uint104"
        },
        {
          "internalType": "uint104",
          "name": "index",
          "type": "uint104"
        },
        {
          "internalType": "uint40",
          "name": "lastUpdateTimestamp",
          "type": "uint40"
        }
      ],
      "stateMutability": "view",
      "type": "function"
    },
    {
      "inputs": [
        {
          "internalType": "address[]",
          "name": "assets",
          "type": "address[]"
        },
        {
          "internalType": "uint256",
          "name": "amount",
          "type": "uint256"
        },
        {
          "internalType": "address",
          "name": "to",
          "type": "address"
        }
      ],
      "name": "claimRewards",
      "outputs": [
        {
          "internalType": "uint256",
          "name": "",
          "type": "uint256"
        }
      ],
      "stateMutability": "nonpayable",
      "type": "function"
    },
    {
      "inputs": [
        {
          "internalType": "address[]",
          "name": "assets",
          "type": "address[]"
        },
        {
          "internalType": "uint256",
          "name": "amount",
          "type": "uint256"
        },
        {
          "internalType": "address",
          "name": "user",
          "type": "address"
        },
        {
          "internalType": "address",
          "name": "to",
          "type": "address"
        }
      ],
      "name": "claimRewardsOnBehalf",
      "outputs": [
        {
          "internalType": "uint256",
          "name": "",
          "type": "uint256"
        }
      ],
      "stateMutability": "nonpayable",
      "type": "function"
    },
    {
      "inputs": [
        {
          "internalType": "address[]",
          "name": "assets",
          "type": "address[]"
        },
        {
          "internalType": "uint256",
          "name": "amount",
          "type": "uint256"
        }
      ],
      "name": "claimRewardsToSelf",
      "outputs": [
        {
          "internalType": "uint256",
          "name": "",
          "type": "uint256"
        }
      ],
      "stateMutability": "nonpayable",
      "type": "function"
    },
    {
      "inputs": [
        {
          "internalType": "address[]",
          "name": "assets",
          "type": "address[]"
        },
        {
          "internalType": "uint256[]",
          "name": "emissionsPerSecond",
          "type": "uint256[]"
        }
      ],
      "name": "configureAssets",
      "outputs": [],
      "stateMutability": "nonpayable",
      "type": "function"
    },
    {
      "inputs": [
        {
          "internalType": "address",
          "name": "asset",
          "type": "address"
        }
      ],
      "name": "getAssetData",
      "outputs": [
        {
          "internalType": "uint256",
          "name": "",
          "type": "uint256"
        },
        {
          "internalType": "uint256",
          "name": "",
          "type": "uint256"
        },
        {
          "internalType": "uint256",
          "name": "",
          "type": "uint256"
        }
      ],
      "stateMutability": "view",
      "type": "function"
    },
    {
      "inputs": [
        {
          "internalType": "address",
          "name": "user",
          "type": "address"
        }
      ],
      "name": "getClaimer",
      "outputs": [
        {
          "internalType": "address",
          "name": "",
          "type": "address"
        }
      ],
      "stateMutability": "view",
      "type": "function"
    },
    {
      "inputs": [],
      "name": "getDistributionEnd",
      "outputs": [
        {
          "internalType": "uint256",
          "name": "",
          "type": "uint256"
        }
      ],
      "stateMutability": "view",
      "type": "function"
    },
    {
      "inputs": [
        {
          "internalType": "address[]",
          "name": "assets",
          "type": "address[]"
        },
        {
          "internalType": "address",
          "name": "user",
          "type": "address"
        }
      ],
      "name": "getRewardsBalance",
      "outputs": [
        {
          "internalType": "uint256",
          "name": "",
          "type": "uint256"
        }
      ],
      "stateMutability": "view",
      "type": "function"
    },
    {
      "inputs": [],
      "name": "getRewardsVault",
      "outputs": [
        {
          "internalType": "address",
          "name": "",
          "type": "address"
        }
      ],
      "stateMutability": "view",
      "type": "function"
    },
    {
      "inputs": [
        {
          "internalType": "address",
          "name": "user",
          "type": "address"
        },
        {
          "internalType": "address",
          "name": "asset",
          "type": "address"
        }
      ],
      "name": "getUserAssetData",
      "outputs": [
        {
          "internalType": "uint256",
          "name": "",
          "type": "uint256"
        }
      ],
      "stateMutability": "view",
      "type": "function"
    },
    {
      "inputs": [
        {
          "internalType": "address",
          "name": "_user",
          "type": "address"
        }
      ],
      "name": "getUserUnclaimedRewards",
      "outputs": [
        {
          "internalType": "uint256",
          "name": "",
          "type": "uint256"
        }
      ],
      "stateMutability": "view",
      "type": "function"
    },
    {
      "inputs": [
        {
          "internalType": "address",
          "name": "user",
          "type": "address"
        },
        {
          "internalType": "uint256",
          "name": "totalSupply",
          "type": "uint256"
        },
        {
          "internalType": "uint256",
          "name": "userBalance",
          "type": "uint256"
        },
        {
          "internalType": "bytes",
          "name": "params",
          "type": "bytes"
        }
      ],
      "name": "handleAction",
      "outputs": [],
      "stateMutability": "nonpayable",
      "type": "function"
    },
    {
      "inputs": [
        {
          "internalType": "address",
          "name": "rewardsVault",
          "type": "address"
        },
        {
          "internalType": "address",
          "name": "OPENSKY_BESPOKE_MARKET_",
          "type": "address"
        }
      ],
      "name": "initialize",
      "outputs": [],
      "stateMutability": "nonpayable",
      "type": "function"
    },
    {
      "inputs": [
        {
          "internalType": "address",
          "name": "user",
          "type": "address"
        },
        {
          "internalType": "address",
          "name": "caller",
          "type": "address"
        }
      ],
      "name": "setClaimer",
      "outputs": [],
      "stateMutability": "nonpayable",
      "type": "function"
    },
    {
      "inputs": [
        {
          "internalType": "uint256",
          "name": "distributionEnd",
          "type": "uint256"
        }
      ],
      "name": "setDistributionEnd",
      "outputs": [],
      "stateMutability": "nonpayable",
      "type": "function"
    },
    {
      "inputs": [
        {
          "internalType": "address",
          "name": "rewardsVault",
          "type": "address"
        }
      ],
      "name": "setRewardsVault",
      "outputs": [],
      "stateMutability": "nonpayable",
      "type": "function"
    }
  ],
  "transactionHash": "0x272a570e5c10e1fd8ee2a26d1f9abefd8d6ff7d3695b2bc311c3ca5a162cada5",
  "args": [
    "0xb47c287eB1d8D9675eB456934FC0A1F557A1f657",
    "0x218513C58A4781a5B88De6230caA29aBCe2Ccd75"
  ],
  "solcInputHash": "9b4eb64291b836b34a0d4d73e41b5cea",
  "bytecode": "0x60c0604052600080553480156200001557600080fd5b506040516200218638038062002186833981016040819052620000389162000069565b6001600160a01b039081166080521660a052620000a8565b6001600160a01b03811681146200006657600080fd5b50565b600080604083850312156200007d57600080fd5b82516200008a8162000050565b60208401519092506200009d8162000050565b809150509250929050565b60805160a051612095620000f1600039600081816102e201526115fb015260008181610349015281816104c30152818161079e01528181610ccd0152610d5f01526120956000f3fe608060405234801561001057600080fd5b506004361061014d5760003560e01c8063919cd40f116100c3578063cc69afec1161007c578063cc69afec146102d5578063dde43cba1461036b578063e23ddec514610373578063f11b818814610384578063f5bb3e02146103f6578063f5cf673b1461040957600080fd5b8063919cd40f146102d557806399248ea7146102dd5780639ab99ddf14610304578063aaf5eb6814610317578063ac509b1a14610331578063cbcbb5071461034457600080fd5b806341485304116101155780634148530414610232578063485cc955146102455780636d34b96e1461025857806374d945ec1461026b57806379f171b2146102af5780638b599f26146102c257600080fd5b80631652e7b714610152578063198fa81e146101c05780633111e7b3146101f75780633373ee4c1461020a57806339ccbdd31461021d575b600080fd5b6101a0610160366004611ad1565b6001600160a01b0316600090815260336020526040902054600160681b81046001600160681b039081169290821691600160d01b900464ffffffffff1690565b604080519384526020840192909252908201526060015b60405180910390f35b6101e96101ce366004611ad1565b6001600160a01b031660009081526035602052604090205490565b6040519081526020016101b7565b6101e9610205366004611b33565b61041c565b6101e9610218366004611b92565b610487565b61023061022b366004611bcb565b6104b8565b005b6101e9610240366004611be4565b61053b565b610230610253366004611b92565b610555565b6101e9610266366004611c30565b61067b565b610297610279366004611ad1565b6001600160a01b039081166000908152603660205260409020541690565b6040516001600160a01b0390911681526020016101b7565b6102306102bd366004611ca4565b610793565b6101e96102d0366004611d10565b610a3c565b6034546101e9565b6102977f000000000000000000000000000000000000000000000000000000000000000081565b610230610312366004611d67565b610bcf565b61031f601281565b60405160ff90911681526020016101b7565b603854610297906001600160a01b031681565b6102977f000000000000000000000000000000000000000000000000000000000000000081565b6101e9600181565b6037546001600160a01b0316610297565b6103c9610392366004611ad1565b6033602052600090815260409020546001600160681b0380821691600160681b810490911690600160d01b900464ffffffffff1683565b604080516001600160681b03948516815293909216602084015264ffffffffff16908201526060016101b7565b610230610404366004611ad1565b610cc2565b610230610417366004611b92565b610d54565b60006001600160a01b03821661046e5760405162461bcd60e51b8152602060048201526012602482015271494e56414c49445f544f5f4144445245535360701b60448201526064015b60405180910390fd5b61047c858585333387610df3565b90505b949350505050565b6001600160a01b03808216600090815260336020908152604080832093861683526001909301905220545b92915050565b336001600160a01b037f000000000000000000000000000000000000000000000000000000000000000016146105005760405162461bcd60e51b815260040161046590611dfd565b60348190556040518181527f1cc1849a6602c3e91f2088cadea4381cc5717f2f28584197060ed2ebb434c16f9060200160405180910390a150565b600061054b848484333333610df3565b90505b9392505050565b60005460019081116105c05760405162461bcd60e51b815260206004820152602e60248201527f436f6e747261637420696e7374616e63652068617320616c726561647920626560448201526d195b881a5b9a5d1a585b1a5e995960921b6064820152608401610465565b60008190556001600160a01b0383166105d857600080fd5b6001600160a01b0382166105eb57600080fd5b603780546001600160a01b038086166001600160a01b0319928316811790935560388054918616919092161790556040517f28a48cbce43190d77247f342cf319b1607bff4ef716cf26b76cf7bb71baebaa590600090a26040516001600160a01b038316907f1edd2924f6393072c2968a5760a5137279a53938a172f9ae9a0e280368ea3f4690600090a2505050565b6001600160a01b038083166000908152603660205260408120549091339185911682146106e15760405162461bcd60e51b815260206004820152601460248201527310d3105253515497d5539055551213d49256915160621b6044820152606401610465565b6001600160a01b03851661072e5760405162461bcd60e51b8152602060048201526014602482015273494e56414c49445f555345525f4144445245535360601b6044820152606401610465565b6001600160a01b0384166107795760405162461bcd60e51b8152602060048201526012602482015271494e56414c49445f544f5f4144445245535360701b6044820152606401610465565b610787888888338989610df3565b98975050505050505050565b336001600160a01b037f000000000000000000000000000000000000000000000000000000000000000016146107db5760405162461bcd60e51b815260040161046590611dfd565b8281146108225760405162461bcd60e51b815260206004820152601560248201527424a72b20a624a22fa1a7a72324a3aaa920aa24a7a760591b6044820152606401610465565b60008367ffffffffffffffff81111561083d5761083d611e2c565b60405190808252806020026020018201604052801561088857816020015b604080516060810182526000808252602080830182905292820152825260001990920191018161085b5790505b50905060005b84811015610a2b578383828181106108a8576108a8611e42565b905060200201358484838181106108c1576108c1611e42565b905060200201356001600160681b03161461092a5760405162461bcd60e51b8152602060048201526024808201527f496e646578206f766572666c6f7720617420656d697373696f6e73506572536560448201526318dbdb9960e21b6064820152608401610465565b85858281811061093c5761093c611e42565b90506020020160208101906109519190611ad1565b82828151811061096357610963611e42565b6020026020010151604001906001600160a01b031690816001600160a01b03168152505083838281811061099957610999611e42565b905060200201358282815181106109b2576109b2611e42565b60209081029190910101516001600160681b0390911690526109f98686838181106109df576109df611e42565b90506020020160208101906109f49190611ad1565b611099565b828281518110610a0b57610a0b611e42565b602090810291909101810151015280610a2381611e6e565b91505061088e565b50610a3581611108565b5050505050565b6001600160a01b038116600090815260356020526040812054818467ffffffffffffffff811115610a6f57610a6f611e2c565b604051908082528060200260200182016040528015610acd57816020015b610aba604051806060016040528060006001600160a01b0316815260200160008152602001600081525090565b815260200190600190039081610a8d5790505b50905060005b85811015610bb057868682818110610aed57610aed611e42565b9050602002016020810190610b029190611ad1565b828281518110610b1457610b14611e42565b60209081029190910101516001600160a01b039091169052610b5c878783818110610b4157610b41611e42565b9050602002016020810190610b569190611ad1565b86611277565b838381518110610b6e57610b6e611e42565b6020026020010151602001848481518110610b8b57610b8b611e42565b6020908102919091010151604001919091525280610ba881611e6e565b915050610ad3565b50610bc5610bbe858361136b565b8390611486565b9695505050505050565b6038546001600160a01b03163314610c185760405162461bcd60e51b815260206004820152600c60248201526b15539055551213d49256915160a21b6044820152606401610465565b6000610c2682840184611ad1565b90506000610c36878387896114a1565b90508015610cb9576001600160a01b038716600090815260356020526040902054610c619082611486565b6001600160a01b038816600081815260356020526040908190209290925590517f2468f9268c60ad90e2d49edb0032c8a001e733ae888b3ab8e982edf535be1a7690610cb09084815260200190565b60405180910390a25b50505050505050565b336001600160a01b037f00000000000000000000000000000000000000000000000000000000000000001614610d0a5760405162461bcd60e51b815260040161046590611dfd565b603780546001600160a01b0319166001600160a01b0383169081179091556040517f28a48cbce43190d77247f342cf319b1607bff4ef716cf26b76cf7bb71baebaa590600090a250565b336001600160a01b037f00000000000000000000000000000000000000000000000000000000000000001614610d9c5760405162461bcd60e51b815260040161046590611dfd565b6001600160a01b0382811660008181526036602052604080822080546001600160a01b0319169486169485179055517f4925eafc82d0c4d67889898eeed64b18488ab19811e61620f387026dec126a289190a35050565b600084610e0257506000610bc5565b6001600160a01b03831660009081526035602052604090205480861115610fe75760008767ffffffffffffffff811115610e3e57610e3e611e2c565b604051908082528060200260200182016040528015610e9c57816020015b610e89604051806060016040528060006001600160a01b0316815260200160008152602001600081525090565b815260200190600190039081610e5c5790505b50905060005b88811015610f7f57898982818110610ebc57610ebc611e42565b9050602002016020810190610ed19190611ad1565b828281518110610ee357610ee3611e42565b60209081029190910101516001600160a01b039091169052610f2b8a8a83818110610f1057610f10611e42565b9050602002016020810190610f259190611ad1565b87611277565b838381518110610f3d57610f3d611e42565b6020026020010151602001848481518110610f5a57610f5a611e42565b6020908102919091010151604001919091525280610f7781611e6e565b915050610ea2565b506000610f8c8683611562565b90508015610fe457610f9e8382611486565b9250856001600160a01b03167f2468f9268c60ad90e2d49edb0032c8a001e733ae888b3ab8e982edf535be1a7682604051610fdb91815260200190565b60405180910390a25b50505b80610ff6576000915050610bc5565b60008187116110055786611007565b815b90506110138183611e89565b6001600160a01b03861660009081526035602052604090205561103684826115ea565b856001600160a01b0316846001600160a01b0316866001600160a01b03167f5637d7f962248a7f05a7ab69eec6446e31f3d0a299d997f135a65c62806e78918460405161108591815260200190565b60405180910390a498975050505050505050565b60385460405163a7b8b8f560e01b81526001600160a01b038381166004830152600092169063a7b8b8f590602401602060405180830381865afa1580156110e4573d6000803e3d6000fd5b505050506040513d601f19601f820116820180604052508101906104b29190611ea0565b60005b81518110156112735760006033600084848151811061112c5761112c611e42565b6020026020010151604001516001600160a01b03166001600160a01b03168152602001908152602001600020905061119f83838151811061116f5761116f611e42565b6020026020010151604001518285858151811061118e5761118e611e42565b602002602001015160200151611625565b508282815181106111b2576111b2611e42565b60209081029190910101515181546cffffffffffffffffffffffffff19166001600160681b0390911617815582518390839081106111f2576111f2611e42565b6020026020010151604001516001600160a01b03167f87fa03892a0556cb6b8f97e6d533a150d4d55fcbf275fff5fa003fa636bcc7fa84848151811061123a5761123a611e42565b602090810291909101810151516040516001600160681b0390911681520160405180910390a2508061126b81611e6e565b91505061110b565b5050565b60385460405163044f8e6160e31b81526001600160a01b0384811660048301528381166024830152600092839291169063227c730890604401602060405180830381865afa1580156112cd573d6000803e3d6000fd5b505050506040513d601f19601f820116820180604052508101906112f19190611ea0565b60385460405163a7b8b8f560e01b81526001600160a01b0387811660048301529091169063a7b8b8f590602401602060405180830381865afa15801561133b573d6000803e3d6000fd5b505050506040513d601f19601f8201168201806040525081019061135f9190611ea0565b915091505b9250929050565b600080805b835181101561147e5760006033600086848151811061139157611391611e42565b602090810291909101810151516001600160a01b0316825281019190915260400160009081208054875191935061140c91600160681b82046001600160681b039081169290811691600160d01b90910464ffffffffff16908a90889081106113fb576113fb611e42565b602002602001015160400151611776565b905061146761146087858151811061142657611426611e42565b602002602001015160200151838560010160008c6001600160a01b03166001600160a01b0316815260200190815260200160002054611819565b8590611486565b93505050808061147690611e6e565b915050611370565b509392505050565b6000826114938382611eb9565b91508110156104b257600080fd5b6001600160a01b03808416600090815260336020908152604080832093881683526001840190915281205490919082806114dc888588611625565b90508083146115565786156114f9576114f6878285611819565b91505b6001600160a01b03808a1660008181526001870160205260409081902084905551918a16917fbb123b5c06d5408bbea3c4fef481578175cfb432e3b482c6186f02ed9086585b9061154d9085815260200190565b60405180910390a35b50979650505050505050565b600080805b835181101561147e576115d6610bbe8686848151811061158957611589611e42565b6020026020010151600001518785815181106115a7576115a7611e42565b6020026020010151602001518886815181106115c5576115c5611e42565b6020026020010151604001516114a1565b9150806115e281611e6e565b915050611567565b603754611273906001600160a01b037f0000000000000000000000000000000000000000000000000000000000000000811691168484611845565b81546000906001600160681b03600160681b82048116919081169064ffffffffff600160d01b90910416428114156116625782935050505061054e565b600061167084848489611776565b905083811461174c5780816001600160681b0316146116c25760405162461bcd60e51b815260206004820152600e60248201526d496e646578206f766572666c6f7760901b6044820152606401610465565b865471ffffffffffffffffffffffffffffffffffff60681b1916600160681b6001600160681b0383160264ffffffffff60d01b191617600160d01b4264ffffffffff16021787556040518181526001600160a01b038916907f5777ca300dfe5bead41006fbce4389794dbc0ed8d6cccebfaf94630aa04184bc9060200160405180910390a261176b565b865464ffffffffff60d01b1916600160d01b4264ffffffffff16021787555b979650505050505050565b603454600090841580611787575082155b8061179a575042846001600160801b0316145b806117ae575080846001600160801b031610155b156117bc578591505061047f565b60008142116117cb57426117cd565b815b905060006117e4826001600160801b0388166118a5565b9050610787886118138761180d6117fd6012600a611fb5565b6118078d886118c0565b906118c0565b906118ed565b90611486565b60006118276012600a611fb5565b61183b61183485856118a5565b86906118c0565b61054b9190611fc1565b604080516001600160a01b0385811660248301528416604482015260648082018490528251808303909101815260849091019091526020810180516001600160e01b03166323b872dd60e01b17905261189f9085906118f9565b50505050565b6000826118b28382611e89565b91508111156104b257600080fd5b60008215806118e4575081836118d68282611fe3565b92506118e29083611fc1565b145b6104b257600080fd5b600061054e8284611fc1565b61190b826001600160a01b0316611a80565b6119575760405162461bcd60e51b815260206004820152601f60248201527f5361666545524332303a2063616c6c20746f206e6f6e2d636f6e7472616374006044820152606401610465565b600080836001600160a01b0316836040516119729190612002565b6000604051808303816000865af19150503d80600081146119af576040519150601f19603f3d011682016040523d82523d6000602084013e6119b4565b606091505b509150915081611a065760405162461bcd60e51b815260206004820181905260248201527f5361666545524332303a206c6f772d6c6576656c2063616c6c206661696c65646044820152606401610465565b80511561189f5780806020019051810190611a21919061203d565b61189f5760405162461bcd60e51b815260206004820152602a60248201527f5361666545524332303a204552433230206f7065726174696f6e20646964206e6044820152691bdd081cdd58d8d9595960b21b6064820152608401610465565b6000813f7fc5d2460186f7233c927e7db2dcc703c0e500b653ca82273b7bfad8045d85a47081811480159061047f575050151592915050565b6001600160a01b0381168114611ace57600080fd5b50565b600060208284031215611ae357600080fd5b813561054e81611ab9565b60008083601f840112611b0057600080fd5b50813567ffffffffffffffff811115611b1857600080fd5b6020830191508360208260051b850101111561136457600080fd5b60008060008060608587031215611b4957600080fd5b843567ffffffffffffffff811115611b6057600080fd5b611b6c87828801611aee565b909550935050602085013591506040850135611b8781611ab9565b939692955090935050565b60008060408385031215611ba557600080fd5b8235611bb081611ab9565b91506020830135611bc081611ab9565b809150509250929050565b600060208284031215611bdd57600080fd5b5035919050565b600080600060408486031215611bf957600080fd5b833567ffffffffffffffff811115611c1057600080fd5b611c1c86828701611aee565b909790965060209590950135949350505050565b600080600080600060808688031215611c4857600080fd5b853567ffffffffffffffff811115611c5f57600080fd5b611c6b88828901611aee565b909650945050602086013592506040860135611c8681611ab9565b91506060860135611c9681611ab9565b809150509295509295909350565b60008060008060408587031215611cba57600080fd5b843567ffffffffffffffff80821115611cd257600080fd5b611cde88838901611aee565b90965094506020870135915080821115611cf757600080fd5b50611d0487828801611aee565b95989497509550505050565b600080600060408486031215611d2557600080fd5b833567ffffffffffffffff811115611d3c57600080fd5b611d4886828701611aee565b9094509250506020840135611d5c81611ab9565b809150509250925092565b600080600080600060808688031215611d7f57600080fd5b8535611d8a81611ab9565b94506020860135935060408601359250606086013567ffffffffffffffff80821115611db557600080fd5b818801915088601f830112611dc957600080fd5b813581811115611dd857600080fd5b896020828501011115611dea57600080fd5b9699959850939650602001949392505050565b60208082526015908201527427a7262cafa2a6a4a9a9a4a7a72fa6a0a720a3a2a960591b604082015260600190565b634e487b7160e01b600052604160045260246000fd5b634e487b7160e01b600052603260045260246000fd5b634e487b7160e01b600052601160045260246000fd5b6000600019821415611e8257611e82611e58565b5060010190565b600082821015611e9b57611e9b611e58565b500390565b600060208284031215611eb257600080fd5b5051919050565b60008219821115611ecc57611ecc611e58565b500190565b600181815b80851115611f0c578160001904821115611ef257611ef2611e58565b80851615611eff57918102915b93841c9390800290611ed6565b509250929050565b600082611f23575060016104b2565b81611f30575060006104b2565b8160018114611f465760028114611f5057611f6c565b60019150506104b2565b60ff841115611f6157611f61611e58565b50506001821b6104b2565b5060208310610133831016604e8410600b8410161715611f8f575081810a6104b2565b611f998383611ed1565b8060001904821115611fad57611fad611e58565b029392505050565b600061054e8383611f14565b600082611fde57634e487b7160e01b600052601260045260246000fd5b500490565b6000816000190483118215151615611ffd57611ffd611e58565b500290565b6000825160005b818110156120235760208186018101518583015201612009565b81811115612032576000828501525b509190910192915050565b60006020828403121561204f57600080fd5b8151801515811461054e57600080fdfea26469706673582212205fa9d549b24752173416d1216b9169652b40ca71ee353dea9e3056e99c91f62f64736f6c634300080a0033",
  "devdoc": {
    "kind": "dev",
    "methods": {
      "DISTRIBUTION_END()": {
        "details": "for backwards compatibility with the previous DistributionManager used",
        "returns": {
          "_0": "The end of the distribution*"
        }
      },
      "claimRewards(address[],uint256,address)": {
        "details": "Claims reward for an user to the desired address, on all the assets of the lending pool, accumulating the pending rewards",
        "params": {
          "amount": "Amount of rewards to claim",
          "to": "Address that will be receiving the rewards"
        },
        "returns": {
          "_0": "Rewards claimed*"
        }
      },
      "claimRewardsOnBehalf(address[],uint256,address,address)": {
        "details": "Claims reward for an user on behalf, on all the assets of the lending pool, accumulating the pending rewards. The caller must be whitelisted via \"allowClaimOnBehalf\" function by the RewardsAdmin role manager",
        "params": {
          "amount": "Amount of rewards to claim",
          "to": "Address that will be receiving the rewards",
          "user": "Address to check and claim rewards"
        },
        "returns": {
          "_0": "Rewards claimed*"
        }
      },
      "claimRewardsToSelf(address[],uint256)": {
        "details": "Claims reward for msg.sender, on all the assets of the lending pool, accumulating the pending rewards",
        "params": {
          "amount": "Amount of rewards to claim"
        },
        "returns": {
          "_0": "Rewards claimed*"
        }
      },
      "configureAssets(address[],uint256[])": {
        "details": "Configure assets for a certain rewards emission",
        "params": {
          "assets": "The assets to incentivize",
          "emissionsPerSecond": "The emission for each asset"
        }
      },
      "getAssetData(address)": {
        "details": "Returns the configuration of the distribution for a certain asset",
        "params": {
          "asset": "The address of the reference asset of the distribution"
        },
        "returns": {
          "_0": "The asset index, the emission per second and the last updated timestamp*"
        }
      },
      "getClaimer(address)": {
        "details": "Returns the whitelisted claimer for a certain address (0x0 if not set)",
        "params": {
          "user": "The address of the user"
        },
        "returns": {
          "_0": "The claimer address"
        }
      },
      "getDistributionEnd()": {
        "details": "Gets the end date for the distribution",
        "returns": {
          "_0": "The end of the distribution*"
        }
      },
      "getRewardsBalance(address[],address)": {
        "details": "Returns the total of rewards of an user, already accrued + not yet accrued",
        "params": {
          "user": "The address of the user"
        },
        "returns": {
          "_0": "The rewards*"
        }
      },
      "getRewardsVault()": {
        "details": "returns the current rewards vault contract",
        "returns": {
          "_0": "address"
        }
      },
      "getUserAssetData(address,address)": {
        "details": "Returns the data of an user on a distribution",
        "params": {
          "asset": "The address of the reference asset of the distribution",
          "user": "Address of the user"
        },
        "returns": {
          "_0": "The new index*"
        }
      },
      "getUserUnclaimedRewards(address)": {
        "details": "returns the unclaimed rewards of the user",
        "params": {
          "user": "the address of the user"
        },
        "returns": {
          "_0": "the unclaimed user rewards"
        }
      },
      "initialize(address,address)": {
        "details": "Initialize AaveIncentivesController",
        "params": {
          "rewardsVault": "rewards vault to pull ERC20 funds*"
        }
      },
      "setClaimer(address,address)": {
        "details": "Whitelists an address to claim the rewards on behalf of another address",
        "params": {
          "claimer": "The address of the claimer",
          "user": "The address of the user"
        }
      },
      "setDistributionEnd(uint256)": {
        "details": "Sets the end date for the distribution",
        "params": {
          "distributionEnd": "The end date timestamp*"
        }
      },
      "setRewardsVault(address)": {
        "details": "update the rewards vault address, only allowed by the Rewards admin",
        "params": {
          "rewardsVault": "The address of the rewards vault*"
        }
      }
    },
    "version": 1
  },
  "userdoc": {
    "kind": "user",
    "methods": {},
    "version": 1
  },
  "storageLayout": {
    "storage": [
      {
        "astId": 3160,
        "contract": "contracts/incentives/OpenSkyBespokeIncentivesControllerLender.sol:OpenSkyBespokeIncentivesControllerLender",
        "label": "lastInitializedRevision",
        "offset": 0,
        "slot": "0",
        "type": "t_uint256"
      },
      {
        "astId": 3191,
        "contract": "contracts/incentives/OpenSkyBespokeIncentivesControllerLender.sol:OpenSkyBespokeIncentivesControllerLender",
        "label": "______gap",
        "offset": 0,
        "slot": "1",
        "type": "t_array(t_uint256)50_storage"
      },
      {
        "astId": 1661,
        "contract": "contracts/incentives/OpenSkyBespokeIncentivesControllerLender.sol:OpenSkyBespokeIncentivesControllerLender",
        "label": "assets",
        "offset": 0,
        "slot": "51",
        "type": "t_mapping(t_address,t_struct(AssetData)1651_storage)"
      },
      {
        "astId": 1663,
        "contract": "contracts/incentives/OpenSkyBespokeIncentivesControllerLender.sol:OpenSkyBespokeIncentivesControllerLender",
        "label": "_distributionEnd",
        "offset": 0,
        "slot": "52",
        "type": "t_uint256"
      },
      {
        "astId": 1042,
        "contract": "contracts/incentives/OpenSkyBespokeIncentivesControllerLender.sol:OpenSkyBespokeIncentivesControllerLender",
        "label": "_usersUnclaimedRewards",
        "offset": 0,
        "slot": "53",
        "type": "t_mapping(t_address,t_uint256)"
      },
      {
        "astId": 1046,
        "contract": "contracts/incentives/OpenSkyBespokeIncentivesControllerLender.sol:OpenSkyBespokeIncentivesControllerLender",
        "label": "_authorizedClaimers",
        "offset": 0,
        "slot": "54",
        "type": "t_mapping(t_address,t_address)"
      },
      {
        "astId": 274,
        "contract": "contracts/incentives/OpenSkyBespokeIncentivesControllerLender.sol:OpenSkyBespokeIncentivesControllerLender",
        "label": "_rewardsVault",
        "offset": 0,
        "slot": "55",
        "type": "t_address"
      },
      {
        "astId": 276,
        "contract": "contracts/incentives/OpenSkyBespokeIncentivesControllerLender.sol:OpenSkyBespokeIncentivesControllerLender",
        "label": "OPENSKY_BESPOKE_MARKET",
        "offset": 0,
        "slot": "56",
        "type": "t_address"
      }
    ],
    "types": {
      "t_address": {
        "encoding": "inplace",
        "label": "address",
        "numberOfBytes": "20"
      },
      "t_array(t_uint256)50_storage": {
        "base": "t_uint256",
        "encoding": "inplace",
        "label": "uint256[50]",
        "numberOfBytes": "1600"
      },
      "t_mapping(t_address,t_address)": {
        "encoding": "mapping",
        "key": "t_address",
        "label": "mapping(address => address)",
        "numberOfBytes": "32",
        "value": "t_address"
      },
      "t_mapping(t_address,t_struct(AssetData)1651_storage)": {
        "encoding": "mapping",
        "key": "t_address",
        "label": "mapping(address => struct DistributionManager.AssetData)",
        "numberOfBytes": "32",
        "value": "t_struct(AssetData)1651_storage"
      },
      "t_mapping(t_address,t_uint256)": {
        "encoding": "mapping",
        "key": "t_address",
        "label": "mapping(address => uint256)",
        "numberOfBytes": "32",
        "value": "t_uint256"
      },
      "t_struct(AssetData)1651_storage": {
        "encoding": "inplace",
        "label": "struct DistributionManager.AssetData",
        "members": [
          {
            "astId": 1642,
            "contract": "contracts/incentives/OpenSkyBespokeIncentivesControllerLender.sol:OpenSkyBespokeIncentivesControllerLender",
            "label": "emissionPerSecond",
            "offset": 0,
            "slot": "0",
            "type": "t_uint104"
          },
          {
            "astId": 1644,
            "contract": "contracts/incentives/OpenSkyBespokeIncentivesControllerLender.sol:OpenSkyBespokeIncentivesControllerLender",
            "label": "index",
            "offset": 13,
            "slot": "0",
            "type": "t_uint104"
          },
          {
            "astId": 1646,
            "contract": "contracts/incentives/OpenSkyBespokeIncentivesControllerLender.sol:OpenSkyBespokeIncentivesControllerLender",
            "label": "lastUpdateTimestamp",
            "offset": 26,
            "slot": "0",
            "type": "t_uint40"
          },
          {
            "astId": 1650,
            "contract": "contracts/incentives/OpenSkyBespokeIncentivesControllerLender.sol:OpenSkyBespokeIncentivesControllerLender",
            "label": "users",
            "offset": 0,
            "slot": "1",
            "type": "t_mapping(t_address,t_uint256)"
          }
        ],
        "numberOfBytes": "64"
      },
      "t_uint104": {
        "encoding": "inplace",
        "label": "uint104",
        "numberOfBytes": "13"
      },
      "t_uint256": {
        "encoding": "inplace",
        "label": "uint256",
        "numberOfBytes": "32"
      },
      "t_uint40": {
        "encoding": "inplace",
        "label": "uint40",
        "numberOfBytes": "5"
      }
    }
  }
}