{
  "address": "0xa7Fb3F5F731955fB9cAd08bE3Ffb095d1cA18AEB",
  "abi": [
    {
      "inputs": [
        {
          "internalType": "address",
          "name": "SETTINGS_",
          "type": "address"
        },
        {
          "internalType": "address",
          "name": "BESPOKE_SETTINGS_",
          "type": "address"
        }
      ],
      "stateMutability": "nonpayable",
      "type": "constructor"
    },
    {
      "anonymous": false,
      "inputs": [
        {
          "indexed": true,
          "internalType": "address",
          "name": "sender",
          "type": "address"
        },
        {
          "indexed": false,
          "internalType": "uint256",
          "name": "nonce",
          "type": "uint256"
        }
      ],
      "name": "CancelAllOffers",
      "type": "event"
    },
    {
      "anonymous": false,
      "inputs": [
        {
          "indexed": true,
          "internalType": "address",
          "name": "sender",
          "type": "address"
        },
        {
          "indexed": false,
          "internalType": "uint256[]",
          "name": "nonces",
          "type": "uint256[]"
        }
      ],
      "name": "CancelMultipleOffers",
      "type": "event"
    },
    {
      "anonymous": false,
      "inputs": [
        {
          "indexed": true,
          "internalType": "uint256",
          "name": "loanId",
          "type": "uint256"
        },
        {
          "indexed": true,
          "internalType": "address",
          "name": "operator",
          "type": "address"
        },
        {
          "indexed": true,
          "internalType": "address",
          "name": "receiver",
          "type": "address"
        }
      ],
      "name": "Foreclose",
      "type": "event"
    },
    {
      "anonymous": false,
      "inputs": [
        {
          "indexed": false,
          "internalType": "address",
          "name": "account",
          "type": "address"
        }
      ],
      "name": "Paused",
      "type": "event"
    },
    {
      "anonymous": false,
      "inputs": [
        {
          "indexed": true,
          "internalType": "uint256",
          "name": "loanId",
          "type": "uint256"
        },
        {
          "indexed": true,
          "internalType": "address",
          "name": "operator",
          "type": "address"
        },
        {
          "indexed": true,
          "internalType": "address",
          "name": "receiver",
          "type": "address"
        }
      ],
      "name": "Repay",
      "type": "event"
    },
    {
      "anonymous": false,
      "inputs": [
        {
          "indexed": false,
          "internalType": "bytes32",
          "name": "offerHash",
          "type": "bytes32"
        },
        {
          "indexed": true,
          "internalType": "uint256",
          "name": "loanId",
          "type": "uint256"
        },
        {
          "indexed": true,
          "internalType": "address",
          "name": "lender",
          "type": "address"
        },
        {
          "indexed": true,
          "internalType": "address",
          "name": "borrower",
          "type": "address"
        },
        {
          "indexed": false,
          "internalType": "uint256",
          "name": "nonce",
          "type": "uint256"
        }
      ],
      "name": "TakeBorrowOffer",
      "type": "event"
    },
    {
      "anonymous": false,
      "inputs": [
        {
          "indexed": false,
          "internalType": "bytes32",
          "name": "offerHash",
          "type": "bytes32"
        },
        {
          "indexed": true,
          "internalType": "uint256",
          "name": "loanId",
          "type": "uint256"
        },
        {
          "indexed": true,
          "internalType": "address",
          "name": "lender",
          "type": "address"
        },
        {
          "indexed": true,
          "internalType": "address",
          "name": "borrower",
          "type": "address"
        },
        {
          "indexed": false,
          "internalType": "address",
          "name": "onBehalfOf",
          "type": "address"
        },
        {
          "indexed": false,
          "internalType": "uint256",
          "name": "nonce",
          "type": "uint256"
        },
        {
          "indexed": false,
          "internalType": "uint256",
          "name": "nonceOrder",
          "type": "uint256"
        }
      ],
      "name": "TakeLendOffer",
      "type": "event"
    },
    {
      "anonymous": false,
      "inputs": [
        {
          "indexed": false,
          "internalType": "address",
          "name": "account",
          "type": "address"
        }
      ],
      "name": "Unpaused",
      "type": "event"
    },
    {
      "stateMutability": "payable",
      "type": "fallback"
    },
    {
      "inputs": [],
      "name": "BESPOKE_SETTINGS",
      "outputs": [
        {
          "internalType": "contract IOpenSkyBespokeSettings",
          "name": "",
          "type": "address"
        }
      ],
      "stateMutability": "view",
      "type": "function"
    },
    {
      "inputs": [],
      "name": "SETTINGS",
      "outputs": [
        {
          "internalType": "contract IOpenSkySettings",
          "name": "",
          "type": "address"
        }
      ],
      "stateMutability": "view",
      "type": "function"
    },
    {
      "inputs": [
        {
          "internalType": "address",
          "name": "",
          "type": "address"
        },
        {
          "internalType": "uint256",
          "name": "",
          "type": "uint256"
        }
      ],
      "name": "_nonce",
      "outputs": [
        {
          "internalType": "bool",
          "name": "invalid",
          "type": "bool"
        },
        {
          "internalType": "uint256",
          "name": "usedTimes",
          "type": "uint256"
        },
        {
          "internalType": "bytes32",
          "name": "offerHash",
          "type": "bytes32"
        }
      ],
      "stateMutability": "view",
      "type": "function"
    },
    {
      "inputs": [
        {
          "internalType": "uint256",
          "name": "minNonce_",
          "type": "uint256"
        }
      ],
      "name": "cancelAllBorrowOffersForSender",
      "outputs": [],
      "stateMutability": "nonpayable",
      "type": "function"
    },
    {
      "inputs": [
        {
          "internalType": "uint256[]",
          "name": "offerNonces",
          "type": "uint256[]"
        }
      ],
      "name": "cancelMultipleBorrowOffers",
      "outputs": [],
      "stateMutability": "nonpayable",
      "type": "function"
    },
    {
      "inputs": [
        {
          "internalType": "address",
          "name": "token",
          "type": "address"
        },
        {
          "internalType": "address",
          "name": "to",
          "type": "address"
        },
        {
          "internalType": "uint256",
          "name": "amount",
          "type": "uint256"
        }
      ],
      "name": "emergencyTokenTransfer",
      "outputs": [],
      "stateMutability": "nonpayable",
      "type": "function"
    },
    {
      "inputs": [
        {
          "internalType": "uint256",
          "name": "loanId",
          "type": "uint256"
        }
      ],
      "name": "foreclose",
      "outputs": [],
      "stateMutability": "nonpayable",
      "type": "function"
    },
    {
      "inputs": [
        {
          "internalType": "uint256",
          "name": "loanId",
          "type": "uint256"
        }
      ],
      "name": "getBorrowBalance",
      "outputs": [
        {
          "internalType": "uint256",
          "name": "",
          "type": "uint256"
        }
      ],
      "stateMutability": "view",
      "type": "function"
    },
    {
      "inputs": [
        {
          "internalType": "uint256",
          "name": "loanId",
          "type": "uint256"
        }
      ],
      "name": "getBorrowInterest",
      "outputs": [
        {
          "internalType": "uint256",
          "name": "",
          "type": "uint256"
        }
      ],
      "stateMutability": "view",
      "type": "function"
    },
    {
      "inputs": [
        {
          "internalType": "uint256",
          "name": "loanId",
          "type": "uint256"
        }
      ],
      "name": "getLoanData",
      "outputs": [
        {
          "components": [
            {
              "internalType": "address",
              "name": "tokenAddress",
              "type": "address"
            },
            {
              "internalType": "uint256",
              "name": "tokenId",
              "type": "uint256"
            },
            {
              "internalType": "uint256",
              "name": "tokenAmount",
              "type": "uint256"
            },
            {
              "internalType": "address",
              "name": "nftManager",
              "type": "address"
            },
            {
              "internalType": "address",
              "name": "borrower",
              "type": "address"
            },
            {
              "internalType": "address",
              "name": "lender",
              "type": "address"
            },
            {
              "internalType": "uint256",
              "name": "amount",
              "type": "uint256"
            },
            {
              "internalType": "uint128",
              "name": "borrowRate",
              "type": "uint128"
            },
            {
              "internalType": "uint128",
              "name": "interestPerSecond",
              "type": "uint128"
            },
            {
              "internalType": "address",
              "name": "currency",
              "type": "address"
            },
            {
              "internalType": "address",
              "name": "lendAsset",
              "type": "address"
            },
            {
              "internalType": "uint256",
              "name": "reserveFactor",
              "type": "uint256"
            },
            {
              "internalType": "uint256",
              "name": "overdueLoanFeeFactor",
              "type": "uint256"
            },
            {
              "internalType": "uint40",
              "name": "borrowDuration",
              "type": "uint40"
            },
            {
              "internalType": "uint40",
              "name": "borrowBegin",
              "type": "uint40"
            },
            {
              "internalType": "uint40",
              "name": "borrowOverdueTime",
              "type": "uint40"
            },
            {
              "internalType": "uint40",
              "name": "liquidatableTime",
              "type": "uint40"
            },
            {
              "internalType": "bool",
              "name": "isProrated",
              "type": "bool"
            },
            {
              "internalType": "bool",
              "name": "autoConvertWhenRepay",
              "type": "bool"
            },
            {
              "internalType": "enum BespokeTypes.LoanStatus",
              "name": "status",
              "type": "uint8"
            }
          ],
          "internalType": "struct BespokeTypes.LoanData",
          "name": "",
          "type": "tuple"
        }
      ],
      "stateMutability": "view",
      "type": "function"
    },
    {
      "inputs": [
        {
          "internalType": "uint256",
          "name": "loanId",
          "type": "uint256"
        }
      ],
      "name": "getPenalty",
      "outputs": [
        {
          "internalType": "uint256",
          "name": "",
          "type": "uint256"
        }
      ],
      "stateMutability": "view",
      "type": "function"
    },
    {
      "inputs": [
        {
          "internalType": "uint256",
          "name": "loanId",
          "type": "uint256"
        }
      ],
      "name": "getStatus",
      "outputs": [
        {
          "internalType": "enum BespokeTypes.LoanStatus",
          "name": "",
          "type": "uint8"
        }
      ],
      "stateMutability": "view",
      "type": "function"
    },
    {
      "inputs": [
        {
          "internalType": "address",
          "name": "account",
          "type": "address"
        },
        {
          "internalType": "uint256",
          "name": "nonce",
          "type": "uint256"
        }
      ],
      "name": "isValidNonce",
      "outputs": [
        {
          "internalType": "bool",
          "name": "",
          "type": "bool"
        }
      ],
      "stateMutability": "view",
      "type": "function"
    },
    {
      "inputs": [
        {
          "internalType": "address",
          "name": "",
          "type": "address"
        }
      ],
      "name": "minNonce",
      "outputs": [
        {
          "internalType": "uint256",
          "name": "",
          "type": "uint256"
        }
      ],
      "stateMutability": "view",
      "type": "function"
    },
    {
      "inputs": [],
      "name": "pause",
      "outputs": [],
      "stateMutability": "nonpayable",
      "type": "function"
    },
    {
      "inputs": [],
      "name": "paused",
      "outputs": [
        {
          "internalType": "bool",
          "name": "",
          "type": "bool"
        }
      ],
      "stateMutability": "view",
      "type": "function"
    },
    {
      "inputs": [
        {
          "internalType": "uint256",
          "name": "loanId",
          "type": "uint256"
        }
      ],
      "name": "repay",
      "outputs": [],
      "stateMutability": "nonpayable",
      "type": "function"
    },
    {
      "inputs": [
        {
          "components": [
            {
              "internalType": "bool",
              "name": "isProrated",
              "type": "bool"
            },
            {
              "internalType": "bool",
              "name": "autoConvertWhenRepay",
              "type": "bool"
            },
            {
              "internalType": "enum BespokeTypes.OfferType",
              "name": "offerType",
              "type": "uint8"
            },
            {
              "internalType": "address",
              "name": "tokenAddress",
              "type": "address"
            },
            {
              "internalType": "uint256",
              "name": "tokenId",
              "type": "uint256"
            },
            {
              "internalType": "uint256",
              "name": "tokenAmount",
              "type": "uint256"
            },
            {
              "internalType": "address",
              "name": "signer",
              "type": "address"
            },
            {
              "internalType": "uint256",
              "name": "borrowAmountMin",
              "type": "uint256"
            },
            {
              "internalType": "uint256",
              "name": "borrowAmountMax",
              "type": "uint256"
            },
            {
              "internalType": "uint40",
              "name": "borrowDurationMin",
              "type": "uint40"
            },
            {
              "internalType": "uint40",
              "name": "borrowDurationMax",
              "type": "uint40"
            },
            {
              "internalType": "uint128",
              "name": "borrowRate",
              "type": "uint128"
            },
            {
              "internalType": "address",
              "name": "currency",
              "type": "address"
            },
            {
              "internalType": "address",
              "name": "lendAsset",
              "type": "address"
            },
            {
              "internalType": "uint256",
              "name": "nonce",
              "type": "uint256"
            },
            {
              "internalType": "uint256",
              "name": "nonceMaxTimes",
              "type": "uint256"
            },
            {
              "internalType": "uint256",
              "name": "deadline",
              "type": "uint256"
            },
            {
              "internalType": "address",
              "name": "strategy",
              "type": "address"
            },
            {
              "internalType": "bytes",
              "name": "params",
              "type": "bytes"
            },
            {
              "internalType": "uint8",
              "name": "v",
              "type": "uint8"
            },
            {
              "internalType": "bytes32",
              "name": "r",
              "type": "bytes32"
            },
            {
              "internalType": "bytes32",
              "name": "s",
              "type": "bytes32"
            }
          ],
          "internalType": "struct BespokeTypes.Offer",
          "name": "offerData",
          "type": "tuple"
        },
        {
          "internalType": "uint256",
          "name": "supplyAmount",
          "type": "uint256"
        },
        {
          "internalType": "uint256",
          "name": "supplyDuration",
          "type": "uint256"
        },
        {
          "internalType": "address",
          "name": "lendAsset",
          "type": "address"
        },
        {
          "internalType": "bool",
          "name": "autoConvertWhenRepay",
          "type": "bool"
        }
      ],
      "name": "takeBorrowOffer",
      "outputs": [
        {
          "internalType": "uint256",
          "name": "",
          "type": "uint256"
        }
      ],
      "stateMutability": "nonpayable",
      "type": "function"
    },
    {
      "inputs": [
        {
          "components": [
            {
              "internalType": "bool",
              "name": "isProrated",
              "type": "bool"
            },
            {
              "internalType": "bool",
              "name": "autoConvertWhenRepay",
              "type": "bool"
            },
            {
              "internalType": "enum BespokeTypes.OfferType",
              "name": "offerType",
              "type": "uint8"
            },
            {
              "internalType": "address",
              "name": "tokenAddress",
              "type": "address"
            },
            {
              "internalType": "uint256",
              "name": "tokenId",
              "type": "uint256"
            },
            {
              "internalType": "uint256",
              "name": "tokenAmount",
              "type": "uint256"
            },
            {
              "internalType": "address",
              "name": "signer",
              "type": "address"
            },
            {
              "internalType": "uint256",
              "name": "borrowAmountMin",
              "type": "uint256"
            },
            {
              "internalType": "uint256",
              "name": "borrowAmountMax",
              "type": "uint256"
            },
            {
              "internalType": "uint40",
              "name": "borrowDurationMin",
              "type": "uint40"
            },
            {
              "internalType": "uint40",
              "name": "borrowDurationMax",
              "type": "uint40"
            },
            {
              "internalType": "uint128",
              "name": "borrowRate",
              "type": "uint128"
            },
            {
              "internalType": "address",
              "name": "currency",
              "type": "address"
            },
            {
              "internalType": "address",
              "name": "lendAsset",
              "type": "address"
            },
            {
              "internalType": "uint256",
              "name": "nonce",
              "type": "uint256"
            },
            {
              "internalType": "uint256",
              "name": "nonceMaxTimes",
              "type": "uint256"
            },
            {
              "internalType": "uint256",
              "name": "deadline",
              "type": "uint256"
            },
            {
              "internalType": "address",
              "name": "strategy",
              "type": "address"
            },
            {
              "internalType": "bytes",
              "name": "params",
              "type": "bytes"
            },
            {
              "internalType": "uint8",
              "name": "v",
              "type": "uint8"
            },
            {
              "internalType": "bytes32",
              "name": "r",
              "type": "bytes32"
            },
            {
              "internalType": "bytes32",
              "name": "s",
              "type": "bytes32"
            }
          ],
          "internalType": "struct BespokeTypes.Offer",
          "name": "offerData",
          "type": "tuple"
        },
        {
          "internalType": "uint256",
          "name": "tokenId",
          "type": "uint256"
        },
        {
          "internalType": "uint256",
          "name": "borrowAmount",
          "type": "uint256"
        },
        {
          "internalType": "uint256",
          "name": "borrowDuration",
          "type": "uint256"
        },
        {
          "internalType": "address",
          "name": "onBehalfOf",
          "type": "address"
        },
        {
          "internalType": "bytes",
          "name": "params",
          "type": "bytes"
        }
      ],
      "name": "takeLendOffer",
      "outputs": [
        {
          "internalType": "uint256",
          "name": "",
          "type": "uint256"
        }
      ],
      "stateMutability": "nonpayable",
      "type": "function"
    },
    {
      "inputs": [
        {
          "internalType": "address",
          "name": "currency",
          "type": "address"
        }
      ],
      "name": "totalBorrow",
      "outputs": [
        {
          "internalType": "uint256",
          "name": "",
          "type": "uint256"
        }
      ],
      "stateMutability": "view",
      "type": "function"
    },
    {
      "inputs": [
        {
          "internalType": "address",
          "name": "currency",
          "type": "address"
        }
      ],
      "name": "totalLend",
      "outputs": [
        {
          "internalType": "uint256",
          "name": "",
          "type": "uint256"
        }
      ],
      "stateMutability": "view",
      "type": "function"
    },
    {
      "inputs": [],
      "name": "unpause",
      "outputs": [],
      "stateMutability": "nonpayable",
      "type": "function"
    },
    {
      "inputs": [
        {
          "internalType": "address",
          "name": "currency",
          "type": "address"
        },
        {
          "internalType": "address",
          "name": "account",
          "type": "address"
        }
      ],
      "name": "userBorrow",
      "outputs": [
        {
          "internalType": "uint256",
          "name": "",
          "type": "uint256"
        }
      ],
      "stateMutability": "view",
      "type": "function"
    },
    {
      "inputs": [
        {
          "internalType": "address",
          "name": "currency",
          "type": "address"
        },
        {
          "internalType": "address",
          "name": "account",
          "type": "address"
        }
      ],
      "name": "userLend",
      "outputs": [
        {
          "internalType": "uint256",
          "name": "",
          "type": "uint256"
        }
      ],
      "stateMutability": "view",
      "type": "function"
    },
    {
      "stateMutability": "payable",
      "type": "receive"
    }
  ],
  "transactionHash": "0x855fec3473375f4b73c3f6b603f3c4ac42be336a522051470737c12997068a6f",
  "args": [
    "0x24C54B91D29e8319976030581909732336E8B2bb",
    "0xF3B73e2a1427a027c18bfE11dA7A20B5B88dc867"
  ],
  "solcInputHash": "88f70ef30a97ad95dcfad3d4587a7e7c",
  "bytecode": "0x60c06040523480156200001157600080fd5b5060405162002fa038038062002fa0833981016040819052620000349162000077565b6000805460ff19169055600180556001600160a01b039182166080521660a052620000af565b80516001600160a01b03811681146200007257600080fd5b919050565b600080604083850312156200008b57600080fd5b62000096836200005a565b9150620000a6602084016200005a565b90509250929050565b60805160a051612e856200011b600039600081816102bd0152818161073101528181610bc0015281816113fc0152818161155b01528181611a5e0152611ae401526000818161055001528181610be801528181610c6a01528181610f8401526115d60152612e856000f3fe60806040526004361061014f5760003560e01c80638456cb59116100b6578063a3d5b2551161006f578063a3d5b255146104bb578063a7b8b8f5146104db578063aa99fa9814610511578063ade97ab51461053e578063dd6d195414610572578063febcc680146105a85761019a565b80638456cb59146103e057806384e5cec5146103f55780638bf1badd146104155780638dc876601461043557806396e596821461047b578063a2b8fe871461049b5761019a565b8063371fd8e611610108578063371fd8e6146103195780633f4ba83a146103395780635c622a0e1461034e5780635c975abb1461037b578063622fe39f146103935780636b52b365146103c05761019a565b80630647ee20146101e257806319ef8c33146102175780631c18749514610245578063227c73081461026557806329c55f06146102ab5780632f844ea8146102f75761019a565b3661019a5760405162461bcd60e51b8152602060048201526016602482015275109357d49150d152559157d393d517d0531313d5d15160521b60448201526064015b60405180910390fd5b60405162461bcd60e51b815260206004820152601760248201527f424d5f46414c4c4241434b5f4e4f545f414c4c4f5745440000000000000000006044820152606401610191565b3480156101ee57600080fd5b506102026101fd366004611f45565b610610565b60405190151581526020015b60405180910390f35b34801561022357600080fd5b5061023761023236600461225a565b610665565b60405190815260200161020e565b34801561025157600080fd5b506102376102603660046122d2565b6107a7565b34801561027157600080fd5b506102376102803660046122eb565b6001600160a01b03918216600090815260096020908152604080832093909416825291909152205490565b3480156102b757600080fd5b506102df7f000000000000000000000000000000000000000000000000000000000000000081565b6040516001600160a01b03909116815260200161020e565b34801561030357600080fd5b50610317610312366004612324565b61082c565b005b34801561032557600080fd5b506103176103343660046122d2565b610971565b34801561034557600080fd5b50610317610c66565b34801561035a57600080fd5b5061036e6103693660046122d2565b610d8b565b60405161020e91906123c3565b34801561038757600080fd5b5060005460ff16610202565b34801561039f57600080fd5b506103b36103ae3660046122d2565b610e10565b60405161020e91906123d1565b3480156103cc57600080fd5b506102376103db3660046122d2565b610f3c565b3480156103ec57600080fd5b50610317610f80565b34801561040157600080fd5b506103176104103660046122d2565b6110a2565b34801561042157600080fd5b506103176104303660046122d2565b61118a565b34801561044157600080fd5b506102376104503660046122eb565b6001600160a01b03918216600090815260086020908152604080832093909416825291909152205490565b34801561048757600080fd5b506102376104963660046122d2565b611445565b3480156104a757600080fd5b506102376104b6366004612532565b611489565b3480156104c757600080fd5b506103176104d63660046125c6565b6115d2565b3480156104e757600080fd5b506102376104f6366004612607565b6001600160a01b031660009081526007602052604090205490565b34801561051d57600080fd5b5061023761052c366004612607565b60026020526000908152604090205481565b34801561054a57600080fd5b506102df7f000000000000000000000000000000000000000000000000000000000000000081565b34801561057e57600080fd5b5061023761058d366004612607565b6001600160a01b031660009081526006602052604090205490565b3480156105b457600080fd5b506105f36105c3366004611f45565b600360209081526000928352604080842090915290825290208054600182015460029092015460ff909116919083565b60408051931515845260208401929092529082015260600161020e565b6001600160a01b038216600090815260036020908152604080832084845290915281205460ff1615801561065c57506001600160a01b0383166000908152600260205260409020548210155b90505b92915050565b6000805460ff16156106895760405162461bcd60e51b815260040161019190612624565b600260015414156106ac5760405162461bcd60e51b81526004016101919061264e565b60026001819055506106cb8660c0015133886101800151886001611706565b60408051608081018252868152602081018690526001600160a01b038516818301528315156060820152905163ef52b43b60e01b815273ebBC12b39165DFCCeA69BA1a4d5FCd86F3a32DBf9163ef52b43b91610758916003916002916005916004918e917f000000000000000000000000000000000000000000000000000000000000000090840161285e565b602060405180830381865af4158015610775573d6000803e3d6000fd5b505050506040513d601f19601f8201168201806040525081019061079991906128d7565b600180559695505050505050565b600081815260056020526040808220905163b504989b60e01b815273eEFCf47FD6384b3Ae4E65bBA3Bd6BfAd8a7dfd329163b504989b916107eb91906004016128f0565b602060405180830381865af4158015610808573d6000803e3d6000fd5b505050506040513d601f19601f8201168201806040525081019061065f91906128d7565b806108795760405162461bcd60e51b815260206004820152601960248201527f424d5f43414e43454c5f43414e4e4f545f42455f454d505459000000000000006044820152606401610191565b60005b8181101561092957336000908152600260205260409020548383838181106108a6576108a6612a35565b9050602002013510156108cb5760405162461bcd60e51b815260040161019190612a4b565b3360009081526003602052604081206001918585858181106108ef576108ef612a35565b60209081029290920135835250810191909152604001600020805460ff19169115159190911790558061092181612aa3565b91505061087c565b50336001600160a01b03167fac0004ba1a2ea62c1d6de00ade33246fa25432a7148f9e20cce8d9fea7493aa18383604051610965929190612abe565b60405180910390a25050565b600260015414156109945760405162461bcd60e51b81526004016101919061264e565b60026001556000818152600560205260409020600601548190158015906109d157506000818152600560205260409020546001600160a01b031615155b610a185760405162461bcd60e51b8152602060048201526018602482015277424d5f434845434b5f4c4f414e5f4e4f545f45584953545360401b6044820152606401610191565b600082815260056020818152604080842081516102808101835281546001600160a01b0390811682526001830154948201949094526002820154928101929092526003808201548416606084015260048201548416608084015293810154831660a0830152600681015460c083015260078101546001600160801b0380821660e0850152600160801b90910416610100830152600881015483166101208301526009810154909216610140820152600a820154610160820152600b820154610180820152600c82015464ffffffffff8082166101a084015265010000000000820481166101c0840152600160501b820481166101e0840152600160781b82041661020083015260ff600160a01b820481161515610220840152600160a81b8204811615156102408401529193610260850192600160b01b90920490911690811115610b6557610b65612399565b6003811115610b7657610b76612399565b815250509050610b9b81608001518260a001518361012001518460c001516000611706565b6040516306d8c6df60e01b815260056004820152602481018490526001600160a01b037f0000000000000000000000000000000000000000000000000000000000000000811660448301527f0000000000000000000000000000000000000000000000000000000000000000166064820152737beB1db41Bb8f518BA972db1D1B11BfE0f57DE57906306d8c6df906084015b60006040518083038186803b158015610c4557600080fd5b505af4158015610c59573d6000803e3d6000fd5b5050600180555050505050565b60007f00000000000000000000000000000000000000000000000000000000000000006001600160a01b0316639a9dbb996040518163ffffffff1660e01b8152600401602060405180830381865afa158015610cc6573d6000803e3d6000fd5b505050506040513d601f19601f82011682018060405250810190610cea9190612b05565b90506001600160a01b038116632500f2b6336040516001600160e01b031960e084901b1681526001600160a01b039091166004820152602401602060405180830381865afa158015610d40573d6000803e3d6000fd5b505050506040513d601f19601f82011682018060405250810190610d649190612b2d565b610d805760405162461bcd60e51b815260040161019190612b4a565b610d88611918565b50565b6000818152600560205260408082209051631057df9160e21b815273eEFCf47FD6384b3Ae4E65bBA3Bd6BfAd8a7dfd329163415f7e4491610dcf91906004016128f0565b602060405180830381865af4158015610dec573d6000803e3d6000fd5b505050506040513d601f19601f8201168201806040525081019061065f9190612b9d565b610eb56040805161028081018252600080825260208201819052918101829052606081018290526080810182905260a0810182905260c0810182905260e08101829052610100810182905261012081018290526101408101829052610160810182905261018081018290526101a081018290526101c081018290526101e081018290526102008101829052610220810182905261024081018290529061026082015290565b6000828152600560205260409081902090516319e28c3360e21b815273eEFCf47FD6384b3Ae4E65bBA3Bd6BfAd8a7dfd329163678a30cc91610efa91906004016128f0565b61028060405180830381865af4158015610f18573d6000803e3d6000fd5b505050506040513d601f19601f8201168201806040525081019061065f9190612bce565b600081815260056020526040808220905163ab51865d60e01b815273eEFCf47FD6384b3Ae4E65bBA3Bd6BfAd8a7dfd329163ab51865d916107eb91906004016128f0565b60007f00000000000000000000000000000000000000000000000000000000000000006001600160a01b0316639a9dbb996040518163ffffffff1660e01b8152600401602060405180830381865afa158015610fe0573d6000803e3d6000fd5b505050506040513d601f19601f820116820180604052508101906110049190612b05565b90506001600160a01b038116632500f2b6336040516001600160e01b031960e084901b1681526001600160a01b039091166004820152602401602060405180830381865afa15801561105a573d6000803e3d6000fd5b505050506040513d601f19601f8201168201806040525081019061107e9190612b2d565b61109a5760405162461bcd60e51b815260040161019190612b4a565b610d886119ab565b3360009081526002602052604090205481116110d05760405162461bcd60e51b815260040161019190612a4b565b336000908152600260205260409020546110ed906207a120612d27565b811061113b5760405162461bcd60e51b815260206004820152601c60248201527f424d5f43414e43454c5f43414e4e4f545f43414e43454c5f4d4f5245000000006044820152606401610191565b3360008181526002602052604090819020839055517f3472ca53ce86826d0cf2457fc20b0aadb9ff559e29da4c38e37e98fb8edd966d9061117f9084815260200190565b60405180910390a250565b60005460ff16156111ad5760405162461bcd60e51b815260040161019190612624565b600260015414156111d05760405162461bcd60e51b81526004016101919061264e565b600260015560008181526005602052604090206006015481901580159061120d57506000818152600560205260409020546001600160a01b031615155b6112545760405162461bcd60e51b8152602060048201526018602482015277424d5f434845434b5f4c4f414e5f4e4f545f45584953545360401b6044820152606401610191565b600082815260056020818152604080842081516102808101835281546001600160a01b0390811682526001830154948201949094526002820154928101929092526003808201548416606084015260048201548416608084015293810154831660a0830152600681015460c083015260078101546001600160801b0380821660e0850152600160801b90910416610100830152600881015483166101208301526009810154909216610140820152600a820154610160820152600b820154610180820152600c82015464ffffffffff8082166101a084015265010000000000820481166101c0840152600160501b820481166101e0840152600160781b82041661020083015260ff600160a01b820481161515610220840152600160a81b8204811615156102408401529193610260850192600160b01b909204909116908111156113a1576113a1612399565b60038111156113b2576113b2612399565b8152505090506113d781608001518260a001518361012001518460c001516000611706565b604051635430170f60e11b815260056004820152602481018490526001600160a01b037f0000000000000000000000000000000000000000000000000000000000000000166044820152731d9393B167ec445730745d8dadF38419D891413e9063a8602e1e90606401610c2d565b6000818152600560205260408082209051634560096360e11b815273eEFCf47FD6384b3Ae4E65bBA3Bd6BfAd8a7dfd3291638ac012c6916107eb91906004016128f0565b6000805460ff16156114ad5760405162461bcd60e51b815260040161019190612624565b600260015414156114d05760405162461bcd60e51b81526004016101919061264e565b60026001819055506114ef338860c00151896101800151886001611706565b6040805160a081018252868152602081018690528082018890526001600160a01b038516606082015260808101849052905163d28ce47360e01b8152737E4F725Ae544b816F913FAfCF9e16A69f8DAA2FF9163d28ce47391611582916003916002916005916004918f917f0000000000000000000000000000000000000000000000000000000000000000908401612d3f565b602060405180830381865af415801561159f573d6000803e3d6000fd5b505050506040513d601f19601f820116820180604052508101906115c391906128d7565b60018055979650505050505050565b60007f00000000000000000000000000000000000000000000000000000000000000006001600160a01b0316639a9dbb996040518163ffffffff1660e01b8152600401602060405180830381865afa158015611632573d6000803e3d6000fd5b505050506040513d601f19601f820116820180604052508101906116569190612b05565b90506001600160a01b038116632500f2b6336040516001600160e01b031960e084901b1681526001600160a01b039091166004820152602401602060405180830381865afa1580156116ac573d6000803e3d6000fd5b505050506040513d601f19601f820116820180604052508101906116d09190612b2d565b6116ec5760405162461bcd60e51b815260040161019190612b4a565b6117006001600160a01b0385168484611a03565b50505050565b611711858585611a5a565b8061173f576001600160a01b03831660009081526006602052604090205461173a908390612dd2565b611763565b6001600160a01b038316600090815260066020526040902054611763908390612d27565b6001600160a01b038416600090815260066020526040902055806117b7576001600160a01b038084166000908152600860209081526040808320938916835292905220546117b2908390612dd2565b6117e8565b6001600160a01b038084166000908152600860209081526040808320938916835292905220546117e8908390612d27565b6001600160a01b038085166000908152600860209081526040808320938a16835292905220558061183c576001600160a01b038316600090815260076020526040902054611837908390612dd2565b611860565b6001600160a01b038316600090815260076020526040902054611860908390612d27565b6001600160a01b038416600090815260076020526040902055806118b4576001600160a01b038084166000908152600960209081526040808320938816835292905220546118af908390612dd2565b6118e5565b6001600160a01b038084166000908152600960209081526040808320938816835292905220546118e5908390612d27565b6001600160a01b039384166000908152600960209081526040808320979096168252959095529290932091909155505050565b60005460ff166119615760405162461bcd60e51b815260206004820152601460248201527314185d5cd8589b194e881b9bdd081c185d5cd95960621b6044820152606401610191565b6000805460ff191690557f5db9ee0a495bf2e6ff9c91a7834c1ba4fdd244a5e8aa4e537bd38aeae4b073aa335b6040516001600160a01b03909116815260200160405180910390a1565b60005460ff16156119ce5760405162461bcd60e51b815260040161019190612624565b6000805460ff191660011790557f62e78cea01bee320cd4e420270b5ea74000d11b0c9f74754ebdbfc544b05a25861198e3390565b604080516001600160a01b038416602482015260448082018490528251808303909101815260649091019091526020810180516001600160e01b031663a9059cbb60e01b179052611a55908490611cd4565b505050565b60007f00000000000000000000000000000000000000000000000000000000000000006001600160a01b031663b75e7d316040518163ffffffff1660e01b8152600401602060405180830381865afa158015611aba573d6000803e3d6000fd5b505050506040513d601f19601f82011682018060405250810190611ade9190612b05565b905060007f00000000000000000000000000000000000000000000000000000000000000006001600160a01b031663efbe23376040518163ffffffff1660e01b8152600401602060405180830381865afa158015611b40573d6000803e3d6000fd5b505050506040513d601f19601f82011682018060405250810190611b649190612b05565b90506001600160a01b03811615611c18576001600160a01b0383811660008181526008602090815260408083208a861684528252808320546006835292819020548151808401959095528151808603909301835284820191829052639ab99ddf60e01b90915293851693639ab99ddf93611be5938b93909291604401612de9565b600060405180830381600087803b158015611bff57600080fd5b505af1158015611c13573d6000803e3d6000fd5b505050505b6001600160a01b03821615611ccd576001600160a01b03838116600081815260096020908152604080832089861684528252808320548484526007835292819020548151808401959095528151808603909301835284820191829052639ab99ddf60e01b90915293861693639ab99ddf93611c9a938a93909291604401612de9565b600060405180830381600087803b158015611cb457600080fd5b505af1158015611cc8573d6000803e3d6000fd5b505050505b5050505050565b6000611d29826040518060400160405280602081526020017f5361666545524332303a206c6f772d6c6576656c2063616c6c206661696c6564815250856001600160a01b0316611da69092919063ffffffff16565b805190915015611a555780806020019051810190611d479190612b2d565b611a555760405162461bcd60e51b815260206004820152602a60248201527f5361666545524332303a204552433230206f7065726174696f6e20646964206e6044820152691bdd081cdd58d8d9595960b21b6064820152608401610191565b6060611db58484600085611dbf565b90505b9392505050565b606082471015611e205760405162461bcd60e51b815260206004820152602660248201527f416464726573733a20696e73756666696369656e742062616c616e636520666f6044820152651c8818d85b1b60d21b6064820152608401610191565b843b611e6e5760405162461bcd60e51b815260206004820152601d60248201527f416464726573733a2063616c6c20746f206e6f6e2d636f6e74726163740000006044820152606401610191565b600080866001600160a01b03168587604051611e8a9190612e20565b60006040518083038185875af1925050503d8060008114611ec7576040519150601f19603f3d011682016040523d82523d6000602084013e611ecc565b606091505b5091509150611edc828286611ee7565b979650505050505050565b60608315611ef6575081611db8565b825115611f065782518084602001fd5b8160405162461bcd60e51b81526004016101919190612e3c565b6001600160a01b0381168114610d8857600080fd5b8035611f4081611f20565b919050565b60008060408385031215611f5857600080fd5b8235611f6381611f20565b946020939093013593505050565b634e487b7160e01b600052604160045260246000fd5b6040516102c0810167ffffffffffffffff81118282101715611fab57611fab611f71565b60405290565b604051610280810167ffffffffffffffff81118282101715611fab57611fab611f71565b8015158114610d8857600080fd5b8035611f4081611fd5565b803560028110611f4057600080fd5b64ffffffffff81168114610d8857600080fd5b8035611f4081611ffd565b6001600160801b0381168114610d8857600080fd5b8035611f408161201b565b600082601f83011261204c57600080fd5b813567ffffffffffffffff8082111561206757612067611f71565b604051601f8301601f19908116603f0116810190828211818310171561208f5761208f611f71565b816040528381528660208588010111156120a857600080fd5b836020870160208301376000602085830101528094505050505092915050565b803560ff81168114611f4057600080fd5b60006102c082840312156120ec57600080fd5b6120f4611f87565b90506120ff82611fe3565b815261210d60208301611fe3565b602082015261211e60408301611fee565b604082015261212f60608301611f35565b60608201526080820135608082015260a082013560a082015261215460c08301611f35565b60c082015260e082013560e082015261010080830135818301525061012061217d818401612010565b9082015261014061218f838201612010565b908201526101606121a1838201612030565b908201526101806121b3838201611f35565b908201526101a06121c5838201611f35565b908201526101c082810135908201526101e0808301359082015261020080830135908201526102206121f8818401611f35565b908201526102408281013567ffffffffffffffff81111561221857600080fd5b6122248582860161203b565b8284015250506102606122388184016120c8565b9082015261028082810135908201526102a09182013591810191909152919050565b600080600080600060a0868803121561227257600080fd5b853567ffffffffffffffff81111561228957600080fd5b612295888289016120d9565b955050602086013593506040860135925060608601356122b481611f20565b915060808601356122c481611fd5565b809150509295509295909350565b6000602082840312156122e457600080fd5b5035919050565b600080604083850312156122fe57600080fd5b823561230981611f20565b9150602083013561231981611f20565b809150509250929050565b6000806020838503121561233757600080fd5b823567ffffffffffffffff8082111561234f57600080fd5b818501915085601f83011261236357600080fd5b81358181111561237257600080fd5b8660208260051b850101111561238757600080fd5b60209290920196919550909350505050565b634e487b7160e01b600052602160045260246000fd5b600481106123bf576123bf612399565b9052565b6020810161065f82846123af565b81516001600160a01b0316815261028081016020830151602083015260408301516040830152606083015161241160608401826001600160a01b03169052565b50608083015161242c60808401826001600160a01b03169052565b5060a083015161244760a08401826001600160a01b03169052565b5060c083015160c083015260e083015161246c60e08401826001600160801b03169052565b50610100838101516001600160801b031690830152610120808401516001600160a01b03908116918401919091526101408085015190911690830152610160808401519083015261018080840151908301526101a08084015164ffffffffff908116918401919091526101c0808501518216908401526101e080850151821690840152610200808501519091169083015261022080840151151590830152610240808401511515908301526102608084015161252a828501826123af565b505092915050565b60008060008060008060c0878903121561254b57600080fd5b863567ffffffffffffffff8082111561256357600080fd5b61256f8a838b016120d9565b97506020890135965060408901359550606089013594506080890135915061259682611f20565b90925060a088013590808211156125ac57600080fd5b506125b989828a0161203b565b9150509295509295509295565b6000806000606084860312156125db57600080fd5b83356125e681611f20565b925060208401356125f681611f20565b929592945050506040919091013590565b60006020828403121561261957600080fd5b8135611db881611f20565b60208082526010908201526f14185d5cd8589b194e881c185d5cd95960821b604082015260600190565b6020808252601f908201527f5265656e7472616e637947756172643a207265656e7472616e742063616c6c00604082015260600190565b600281106123bf576123bf612399565b60005b838110156126b0578181015183820152602001612698565b838111156117005750506000910152565b600081518084526126d9816020860160208601612695565b601f01601f19169290920160200192915050565b80511515825260006102c0602083015161270b602086018215159052565b50604083015161271e6040860182612685565b50606083015161273960608601826001600160a01b03169052565b506080830151608085015260a083015160a085015260c083015161276860c08601826001600160a01b03169052565b5060e0838101519085015261010080840151908501526101208084015164ffffffffff908116918601919091526101408085015190911690850152610160808401516001600160801b031690850152610180808401516001600160a01b03908116918601919091526101a0808501518216908601526101c080850151908601526101e080850151908601526102008085015190860152610220808501519091169085015261024080840151818601839052612825838701826126c1565b925050506102608084015161283e8287018260ff169052565b505061028083810151908501526102a09283015192909301919091525090565b600061014089835288602084015287604084015286606084015280608084015261288a818401876126ed565b855160a0850152602086015160c085015260408601516001600160a01b0390811660e086015260609096015115156101008501529390941661012090920191909152509695505050505050565b6000602082840312156128e957600080fd5b5051919050565b81546001600160a01b031681526102808101600183015460208301526002830154604083015260038301546001600160a01b039081166060840152600484015481166080808501919091526005850154821660a0850152600685015460c085015260078501546001600160801b03811660e0860152901c61010084015260088401548116610120840152600984015416610140830152600a830154610160830152600b830154610180830152600c83015464ffffffffff8082166101a0850152602882901c81166101c08501526129d66101e08501828460501c1664ffffffffff169052565b6129ef6102008501828460781c1664ffffffffff169052565b50612a05610220840160ff8360a01c1615159052565b612a1a610240840160ff8360a81c1615159052565b612a2e610260840160ff8360b01c166123af565b5092915050565b634e487b7160e01b600052603260045260246000fd5b60208082526022908201527f424d5f43414e43454c5f4e4f4e43455f4c4f5745525f5448414e5f4355525245604082015261139560f21b606082015260800190565b634e487b7160e01b600052601160045260246000fd5b6000600019821415612ab757612ab7612a8d565b5060010190565b6020808252810182905260006001600160fb1b03831115612ade57600080fd5b8260051b80856040850137600092016040019182525092915050565b8051611f4081611f20565b600060208284031215612b1757600080fd5b8151611db881611f20565b8051611f4081611fd5565b600060208284031215612b3f57600080fd5b8151611db881611fd5565b60208082526024908201527f424d5f41434c5f4f4e4c595f454d455247454e43595f41444d494e5f43414e5f60408201526310d0531360e21b606082015260800190565b805160048110611f4057600080fd5b600060208284031215612baf57600080fd5b61065c82612b8e565b8051611f408161201b565b8051611f4081611ffd565b60006102808284031215612be157600080fd5b612be9611fb1565b612bf283612afa565b81526020830151602082015260408301516040820152612c1460608401612afa565b6060820152612c2560808401612afa565b6080820152612c3660a08401612afa565b60a082015260c083015160c0820152612c5160e08401612bb8565b60e0820152610100612c64818501612bb8565b90820152610120612c76848201612afa565b90820152610140612c88848201612afa565b90820152610160838101519082015261018080840151908201526101a0612cb0818501612bc3565b908201526101c0612cc2848201612bc3565b908201526101e0612cd4848201612bc3565b90820152610200612ce6848201612bc3565b90820152610220612cf8848201612b22565b90820152610240612d0a848201612b22565b90820152610260612d1c848201612b8e565b908201529392505050565b60008219821115612d3a57612d3a612a8d565b500190565b87815286602082015285604082015284606082015260e060808201526000612d6a60e08301866126ed565b82810360a0840152845181526020850151602082015260408501516040820152606085015160018060a01b0380821660608401526080870151915060a06080840152612db960a08401836126c1565b935080861660c086015250505098975050505050505050565b600082821015612de457612de4612a8d565b500390565b60018060a01b0385168152836020820152826040820152608060608201526000612e1660808301846126c1565b9695505050505050565b60008251612e32818460208701612695565b9190910192915050565b60208152600061065c60208301846126c156fea264697066735822122025df33afa309d720e9cb8c67ecb317f86642fce1518893fdc0612be0ab528dae64736f6c634300080a0033",
  "deployedBytecode": "0x60806040526004361061014f5760003560e01c80638456cb59116100b6578063a3d5b2551161006f578063a3d5b255146104bb578063a7b8b8f5146104db578063aa99fa9814610511578063ade97ab51461053e578063dd6d195414610572578063febcc680146105a85761019a565b80638456cb59146103e057806384e5cec5146103f55780638bf1badd146104155780638dc876601461043557806396e596821461047b578063a2b8fe871461049b5761019a565b8063371fd8e611610108578063371fd8e6146103195780633f4ba83a146103395780635c622a0e1461034e5780635c975abb1461037b578063622fe39f146103935780636b52b365146103c05761019a565b80630647ee20146101e257806319ef8c33146102175780631c18749514610245578063227c73081461026557806329c55f06146102ab5780632f844ea8146102f75761019a565b3661019a5760405162461bcd60e51b8152602060048201526016602482015275109357d49150d152559157d393d517d0531313d5d15160521b60448201526064015b60405180910390fd5b60405162461bcd60e51b815260206004820152601760248201527f424d5f46414c4c4241434b5f4e4f545f414c4c4f5745440000000000000000006044820152606401610191565b3480156101ee57600080fd5b506102026101fd366004611f45565b610610565b60405190151581526020015b60405180910390f35b34801561022357600080fd5b5061023761023236600461225a565b610665565b60405190815260200161020e565b34801561025157600080fd5b506102376102603660046122d2565b6107a7565b34801561027157600080fd5b506102376102803660046122eb565b6001600160a01b03918216600090815260096020908152604080832093909416825291909152205490565b3480156102b757600080fd5b506102df7f000000000000000000000000000000000000000000000000000000000000000081565b6040516001600160a01b03909116815260200161020e565b34801561030357600080fd5b50610317610312366004612324565b61082c565b005b34801561032557600080fd5b506103176103343660046122d2565b610971565b34801561034557600080fd5b50610317610c66565b34801561035a57600080fd5b5061036e6103693660046122d2565b610d8b565b60405161020e91906123c3565b34801561038757600080fd5b5060005460ff16610202565b34801561039f57600080fd5b506103b36103ae3660046122d2565b610e10565b60405161020e91906123d1565b3480156103cc57600080fd5b506102376103db3660046122d2565b610f3c565b3480156103ec57600080fd5b50610317610f80565b34801561040157600080fd5b506103176104103660046122d2565b6110a2565b34801561042157600080fd5b506103176104303660046122d2565b61118a565b34801561044157600080fd5b506102376104503660046122eb565b6001600160a01b03918216600090815260086020908152604080832093909416825291909152205490565b34801561048757600080fd5b506102376104963660046122d2565b611445565b3480156104a757600080fd5b506102376104b6366004612532565b611489565b3480156104c757600080fd5b506103176104d63660046125c6565b6115d2565b3480156104e757600080fd5b506102376104f6366004612607565b6001600160a01b031660009081526007602052604090205490565b34801561051d57600080fd5b5061023761052c366004612607565b60026020526000908152604090205481565b34801561054a57600080fd5b506102df7f000000000000000000000000000000000000000000000000000000000000000081565b34801561057e57600080fd5b5061023761058d366004612607565b6001600160a01b031660009081526006602052604090205490565b3480156105b457600080fd5b506105f36105c3366004611f45565b600360209081526000928352604080842090915290825290208054600182015460029092015460ff909116919083565b60408051931515845260208401929092529082015260600161020e565b6001600160a01b038216600090815260036020908152604080832084845290915281205460ff1615801561065c57506001600160a01b0383166000908152600260205260409020548210155b90505b92915050565b6000805460ff16156106895760405162461bcd60e51b815260040161019190612624565b600260015414156106ac5760405162461bcd60e51b81526004016101919061264e565b60026001819055506106cb8660c0015133886101800151886001611706565b60408051608081018252868152602081018690526001600160a01b038516818301528315156060820152905163ef52b43b60e01b815273__$d034307112fbb42c17024cd888eeadb556$__9163ef52b43b91610758916003916002916005916004918e917f000000000000000000000000000000000000000000000000000000000000000090840161285e565b602060405180830381865af4158015610775573d6000803e3d6000fd5b505050506040513d601f19601f8201168201806040525081019061079991906128d7565b600180559695505050505050565b600081815260056020526040808220905163b504989b60e01b815273__$99340bd5a7874738aefb18e7cdd0ba78ce$__9163b504989b916107eb91906004016128f0565b602060405180830381865af4158015610808573d6000803e3d6000fd5b505050506040513d601f19601f8201168201806040525081019061065f91906128d7565b806108795760405162461bcd60e51b815260206004820152601960248201527f424d5f43414e43454c5f43414e4e4f545f42455f454d505459000000000000006044820152606401610191565b60005b8181101561092957336000908152600260205260409020548383838181106108a6576108a6612a35565b9050602002013510156108cb5760405162461bcd60e51b815260040161019190612a4b565b3360009081526003602052604081206001918585858181106108ef576108ef612a35565b60209081029290920135835250810191909152604001600020805460ff19169115159190911790558061092181612aa3565b91505061087c565b50336001600160a01b03167fac0004ba1a2ea62c1d6de00ade33246fa25432a7148f9e20cce8d9fea7493aa18383604051610965929190612abe565b60405180910390a25050565b600260015414156109945760405162461bcd60e51b81526004016101919061264e565b60026001556000818152600560205260409020600601548190158015906109d157506000818152600560205260409020546001600160a01b031615155b610a185760405162461bcd60e51b8152602060048201526018602482015277424d5f434845434b5f4c4f414e5f4e4f545f45584953545360401b6044820152606401610191565b600082815260056020818152604080842081516102808101835281546001600160a01b0390811682526001830154948201949094526002820154928101929092526003808201548416606084015260048201548416608084015293810154831660a0830152600681015460c083015260078101546001600160801b0380821660e0850152600160801b90910416610100830152600881015483166101208301526009810154909216610140820152600a820154610160820152600b820154610180820152600c82015464ffffffffff8082166101a084015265010000000000820481166101c0840152600160501b820481166101e0840152600160781b82041661020083015260ff600160a01b820481161515610220840152600160a81b8204811615156102408401529193610260850192600160b01b90920490911690811115610b6557610b65612399565b6003811115610b7657610b76612399565b815250509050610b9b81608001518260a001518361012001518460c001516000611706565b6040516306d8c6df60e01b815260056004820152602481018490526001600160a01b037f0000000000000000000000000000000000000000000000000000000000000000811660448301527f000000000000000000000000000000000000000000000000000000000000000016606482015273__$cb2d98c3e8fdb912f01fe366012ef33d45$__906306d8c6df906084015b60006040518083038186803b158015610c4557600080fd5b505af4158015610c59573d6000803e3d6000fd5b5050600180555050505050565b60007f00000000000000000000000000000000000000000000000000000000000000006001600160a01b0316639a9dbb996040518163ffffffff1660e01b8152600401602060405180830381865afa158015610cc6573d6000803e3d6000fd5b505050506040513d601f19601f82011682018060405250810190610cea9190612b05565b90506001600160a01b038116632500f2b6336040516001600160e01b031960e084901b1681526001600160a01b039091166004820152602401602060405180830381865afa158015610d40573d6000803e3d6000fd5b505050506040513d601f19601f82011682018060405250810190610d649190612b2d565b610d805760405162461bcd60e51b815260040161019190612b4a565b610d88611918565b50565b6000818152600560205260408082209051631057df9160e21b815273__$99340bd5a7874738aefb18e7cdd0ba78ce$__9163415f7e4491610dcf91906004016128f0565b602060405180830381865af4158015610dec573d6000803e3d6000fd5b505050506040513d601f19601f8201168201806040525081019061065f9190612b9d565b610eb56040805161028081018252600080825260208201819052918101829052606081018290526080810182905260a0810182905260c0810182905260e08101829052610100810182905261012081018290526101408101829052610160810182905261018081018290526101a081018290526101c081018290526101e081018290526102008101829052610220810182905261024081018290529061026082015290565b6000828152600560205260409081902090516319e28c3360e21b815273__$99340bd5a7874738aefb18e7cdd0ba78ce$__9163678a30cc91610efa91906004016128f0565b61028060405180830381865af4158015610f18573d6000803e3d6000fd5b505050506040513d601f19601f8201168201806040525081019061065f9190612bce565b600081815260056020526040808220905163ab51865d60e01b815273__$99340bd5a7874738aefb18e7cdd0ba78ce$__9163ab51865d916107eb91906004016128f0565b60007f00000000000000000000000000000000000000000000000000000000000000006001600160a01b0316639a9dbb996040518163ffffffff1660e01b8152600401602060405180830381865afa158015610fe0573d6000803e3d6000fd5b505050506040513d601f19601f820116820180604052508101906110049190612b05565b90506001600160a01b038116632500f2b6336040516001600160e01b031960e084901b1681526001600160a01b039091166004820152602401602060405180830381865afa15801561105a573d6000803e3d6000fd5b505050506040513d601f19601f8201168201806040525081019061107e9190612b2d565b61109a5760405162461bcd60e51b815260040161019190612b4a565b610d886119ab565b3360009081526002602052604090205481116110d05760405162461bcd60e51b815260040161019190612a4b565b336000908152600260205260409020546110ed906207a120612d27565b811061113b5760405162461bcd60e51b815260206004820152601c60248201527f424d5f43414e43454c5f43414e4e4f545f43414e43454c5f4d4f5245000000006044820152606401610191565b3360008181526002602052604090819020839055517f3472ca53ce86826d0cf2457fc20b0aadb9ff559e29da4c38e37e98fb8edd966d9061117f9084815260200190565b60405180910390a250565b60005460ff16156111ad5760405162461bcd60e51b815260040161019190612624565b600260015414156111d05760405162461bcd60e51b81526004016101919061264e565b600260015560008181526005602052604090206006015481901580159061120d57506000818152600560205260409020546001600160a01b031615155b6112545760405162461bcd60e51b8152602060048201526018602482015277424d5f434845434b5f4c4f414e5f4e4f545f45584953545360401b6044820152606401610191565b600082815260056020818152604080842081516102808101835281546001600160a01b0390811682526001830154948201949094526002820154928101929092526003808201548416606084015260048201548416608084015293810154831660a0830152600681015460c083015260078101546001600160801b0380821660e0850152600160801b90910416610100830152600881015483166101208301526009810154909216610140820152600a820154610160820152600b820154610180820152600c82015464ffffffffff8082166101a084015265010000000000820481166101c0840152600160501b820481166101e0840152600160781b82041661020083015260ff600160a01b820481161515610220840152600160a81b8204811615156102408401529193610260850192600160b01b909204909116908111156113a1576113a1612399565b60038111156113b2576113b2612399565b8152505090506113d781608001518260a001518361012001518460c001516000611706565b604051635430170f60e11b815260056004820152602481018490526001600160a01b037f000000000000000000000000000000000000000000000000000000000000000016604482015273__$6adc9fc567591ef512536f539e32424d55$__9063a8602e1e90606401610c2d565b6000818152600560205260408082209051634560096360e11b815273__$99340bd5a7874738aefb18e7cdd0ba78ce$__91638ac012c6916107eb91906004016128f0565b6000805460ff16156114ad5760405162461bcd60e51b815260040161019190612624565b600260015414156114d05760405162461bcd60e51b81526004016101919061264e565b60026001819055506114ef338860c00151896101800151886001611706565b6040805160a081018252868152602081018690528082018890526001600160a01b038516606082015260808101849052905163d28ce47360e01b815273__$f2bbf53d856d978c1f5e4330933069481a$__9163d28ce47391611582916003916002916005916004918f917f0000000000000000000000000000000000000000000000000000000000000000908401612d3f565b602060405180830381865af415801561159f573d6000803e3d6000fd5b505050506040513d601f19601f820116820180604052508101906115c391906128d7565b60018055979650505050505050565b60007f00000000000000000000000000000000000000000000000000000000000000006001600160a01b0316639a9dbb996040518163ffffffff1660e01b8152600401602060405180830381865afa158015611632573d6000803e3d6000fd5b505050506040513d601f19601f820116820180604052508101906116569190612b05565b90506001600160a01b038116632500f2b6336040516001600160e01b031960e084901b1681526001600160a01b039091166004820152602401602060405180830381865afa1580156116ac573d6000803e3d6000fd5b505050506040513d601f19601f820116820180604052508101906116d09190612b2d565b6116ec5760405162461bcd60e51b815260040161019190612b4a565b6117006001600160a01b0385168484611a03565b50505050565b611711858585611a5a565b8061173f576001600160a01b03831660009081526006602052604090205461173a908390612dd2565b611763565b6001600160a01b038316600090815260066020526040902054611763908390612d27565b6001600160a01b038416600090815260066020526040902055806117b7576001600160a01b038084166000908152600860209081526040808320938916835292905220546117b2908390612dd2565b6117e8565b6001600160a01b038084166000908152600860209081526040808320938916835292905220546117e8908390612d27565b6001600160a01b038085166000908152600860209081526040808320938a16835292905220558061183c576001600160a01b038316600090815260076020526040902054611837908390612dd2565b611860565b6001600160a01b038316600090815260076020526040902054611860908390612d27565b6001600160a01b038416600090815260076020526040902055806118b4576001600160a01b038084166000908152600960209081526040808320938816835292905220546118af908390612dd2565b6118e5565b6001600160a01b038084166000908152600960209081526040808320938816835292905220546118e5908390612d27565b6001600160a01b039384166000908152600960209081526040808320979096168252959095529290932091909155505050565b60005460ff166119615760405162461bcd60e51b815260206004820152601460248201527314185d5cd8589b194e881b9bdd081c185d5cd95960621b6044820152606401610191565b6000805460ff191690557f5db9ee0a495bf2e6ff9c91a7834c1ba4fdd244a5e8aa4e537bd38aeae4b073aa335b6040516001600160a01b03909116815260200160405180910390a1565b60005460ff16156119ce5760405162461bcd60e51b815260040161019190612624565b6000805460ff191660011790557f62e78cea01bee320cd4e420270b5ea74000d11b0c9f74754ebdbfc544b05a25861198e3390565b604080516001600160a01b038416602482015260448082018490528251808303909101815260649091019091526020810180516001600160e01b031663a9059cbb60e01b179052611a55908490611cd4565b505050565b60007f00000000000000000000000000000000000000000000000000000000000000006001600160a01b031663b75e7d316040518163ffffffff1660e01b8152600401602060405180830381865afa158015611aba573d6000803e3d6000fd5b505050506040513d601f19601f82011682018060405250810190611ade9190612b05565b905060007f00000000000000000000000000000000000000000000000000000000000000006001600160a01b031663efbe23376040518163ffffffff1660e01b8152600401602060405180830381865afa158015611b40573d6000803e3d6000fd5b505050506040513d601f19601f82011682018060405250810190611b649190612b05565b90506001600160a01b03811615611c18576001600160a01b0383811660008181526008602090815260408083208a861684528252808320546006835292819020548151808401959095528151808603909301835284820191829052639ab99ddf60e01b90915293851693639ab99ddf93611be5938b93909291604401612de9565b600060405180830381600087803b158015611bff57600080fd5b505af1158015611c13573d6000803e3d6000fd5b505050505b6001600160a01b03821615611ccd576001600160a01b03838116600081815260096020908152604080832089861684528252808320548484526007835292819020548151808401959095528151808603909301835284820191829052639ab99ddf60e01b90915293861693639ab99ddf93611c9a938a93909291604401612de9565b600060405180830381600087803b158015611cb457600080fd5b505af1158015611cc8573d6000803e3d6000fd5b505050505b5050505050565b6000611d29826040518060400160405280602081526020017f5361666545524332303a206c6f772d6c6576656c2063616c6c206661696c6564815250856001600160a01b0316611da69092919063ffffffff16565b805190915015611a555780806020019051810190611d479190612b2d565b611a555760405162461bcd60e51b815260206004820152602a60248201527f5361666545524332303a204552433230206f7065726174696f6e20646964206e6044820152691bdd081cdd58d8d9595960b21b6064820152608401610191565b6060611db58484600085611dbf565b90505b9392505050565b606082471015611e205760405162461bcd60e51b815260206004820152602660248201527f416464726573733a20696e73756666696369656e742062616c616e636520666f6044820152651c8818d85b1b60d21b6064820152608401610191565b843b611e6e5760405162461bcd60e51b815260206004820152601d60248201527f416464726573733a2063616c6c20746f206e6f6e2d636f6e74726163740000006044820152606401610191565b600080866001600160a01b03168587604051611e8a9190612e20565b60006040518083038185875af1925050503d8060008114611ec7576040519150601f19603f3d011682016040523d82523d6000602084013e611ecc565b606091505b5091509150611edc828286611ee7565b979650505050505050565b60608315611ef6575081611db8565b825115611f065782518084602001fd5b8160405162461bcd60e51b81526004016101919190612e3c565b6001600160a01b0381168114610d8857600080fd5b8035611f4081611f20565b919050565b60008060408385031215611f5857600080fd5b8235611f6381611f20565b946020939093013593505050565b634e487b7160e01b600052604160045260246000fd5b6040516102c0810167ffffffffffffffff81118282101715611fab57611fab611f71565b60405290565b604051610280810167ffffffffffffffff81118282101715611fab57611fab611f71565b8015158114610d8857600080fd5b8035611f4081611fd5565b803560028110611f4057600080fd5b64ffffffffff81168114610d8857600080fd5b8035611f4081611ffd565b6001600160801b0381168114610d8857600080fd5b8035611f408161201b565b600082601f83011261204c57600080fd5b813567ffffffffffffffff8082111561206757612067611f71565b604051601f8301601f19908116603f0116810190828211818310171561208f5761208f611f71565b816040528381528660208588010111156120a857600080fd5b836020870160208301376000602085830101528094505050505092915050565b803560ff81168114611f4057600080fd5b60006102c082840312156120ec57600080fd5b6120f4611f87565b90506120ff82611fe3565b815261210d60208301611fe3565b602082015261211e60408301611fee565b604082015261212f60608301611f35565b60608201526080820135608082015260a082013560a082015261215460c08301611f35565b60c082015260e082013560e082015261010080830135818301525061012061217d818401612010565b9082015261014061218f838201612010565b908201526101606121a1838201612030565b908201526101806121b3838201611f35565b908201526101a06121c5838201611f35565b908201526101c082810135908201526101e0808301359082015261020080830135908201526102206121f8818401611f35565b908201526102408281013567ffffffffffffffff81111561221857600080fd5b6122248582860161203b565b8284015250506102606122388184016120c8565b9082015261028082810135908201526102a09182013591810191909152919050565b600080600080600060a0868803121561227257600080fd5b853567ffffffffffffffff81111561228957600080fd5b612295888289016120d9565b955050602086013593506040860135925060608601356122b481611f20565b915060808601356122c481611fd5565b809150509295509295909350565b6000602082840312156122e457600080fd5b5035919050565b600080604083850312156122fe57600080fd5b823561230981611f20565b9150602083013561231981611f20565b809150509250929050565b6000806020838503121561233757600080fd5b823567ffffffffffffffff8082111561234f57600080fd5b818501915085601f83011261236357600080fd5b81358181111561237257600080fd5b8660208260051b850101111561238757600080fd5b60209290920196919550909350505050565b634e487b7160e01b600052602160045260246000fd5b600481106123bf576123bf612399565b9052565b6020810161065f82846123af565b81516001600160a01b0316815261028081016020830151602083015260408301516040830152606083015161241160608401826001600160a01b03169052565b50608083015161242c60808401826001600160a01b03169052565b5060a083015161244760a08401826001600160a01b03169052565b5060c083015160c083015260e083015161246c60e08401826001600160801b03169052565b50610100838101516001600160801b031690830152610120808401516001600160a01b03908116918401919091526101408085015190911690830152610160808401519083015261018080840151908301526101a08084015164ffffffffff908116918401919091526101c0808501518216908401526101e080850151821690840152610200808501519091169083015261022080840151151590830152610240808401511515908301526102608084015161252a828501826123af565b505092915050565b60008060008060008060c0878903121561254b57600080fd5b863567ffffffffffffffff8082111561256357600080fd5b61256f8a838b016120d9565b97506020890135965060408901359550606089013594506080890135915061259682611f20565b90925060a088013590808211156125ac57600080fd5b506125b989828a0161203b565b9150509295509295509295565b6000806000606084860312156125db57600080fd5b83356125e681611f20565b925060208401356125f681611f20565b929592945050506040919091013590565b60006020828403121561261957600080fd5b8135611db881611f20565b60208082526010908201526f14185d5cd8589b194e881c185d5cd95960821b604082015260600190565b6020808252601f908201527f5265656e7472616e637947756172643a207265656e7472616e742063616c6c00604082015260600190565b600281106123bf576123bf612399565b60005b838110156126b0578181015183820152602001612698565b838111156117005750506000910152565b600081518084526126d9816020860160208601612695565b601f01601f19169290920160200192915050565b80511515825260006102c0602083015161270b602086018215159052565b50604083015161271e6040860182612685565b50606083015161273960608601826001600160a01b03169052565b506080830151608085015260a083015160a085015260c083015161276860c08601826001600160a01b03169052565b5060e0838101519085015261010080840151908501526101208084015164ffffffffff908116918601919091526101408085015190911690850152610160808401516001600160801b031690850152610180808401516001600160a01b03908116918601919091526101a0808501518216908601526101c080850151908601526101e080850151908601526102008085015190860152610220808501519091169085015261024080840151818601839052612825838701826126c1565b925050506102608084015161283e8287018260ff169052565b505061028083810151908501526102a09283015192909301919091525090565b600061014089835288602084015287604084015286606084015280608084015261288a818401876126ed565b855160a0850152602086015160c085015260408601516001600160a01b0390811660e086015260609096015115156101008501529390941661012090920191909152509695505050505050565b6000602082840312156128e957600080fd5b5051919050565b81546001600160a01b031681526102808101600183015460208301526002830154604083015260038301546001600160a01b039081166060840152600484015481166080808501919091526005850154821660a0850152600685015460c085015260078501546001600160801b03811660e0860152901c61010084015260088401548116610120840152600984015416610140830152600a830154610160830152600b830154610180830152600c83015464ffffffffff8082166101a0850152602882901c81166101c08501526129d66101e08501828460501c1664ffffffffff169052565b6129ef6102008501828460781c1664ffffffffff169052565b50612a05610220840160ff8360a01c1615159052565b612a1a610240840160ff8360a81c1615159052565b612a2e610260840160ff8360b01c166123af565b5092915050565b634e487b7160e01b600052603260045260246000fd5b60208082526022908201527f424d5f43414e43454c5f4e4f4e43455f4c4f5745525f5448414e5f4355525245604082015261139560f21b606082015260800190565b634e487b7160e01b600052601160045260246000fd5b6000600019821415612ab757612ab7612a8d565b5060010190565b6020808252810182905260006001600160fb1b03831115612ade57600080fd5b8260051b80856040850137600092016040019182525092915050565b8051611f4081611f20565b600060208284031215612b1757600080fd5b8151611db881611f20565b8051611f4081611fd5565b600060208284031215612b3f57600080fd5b8151611db881611fd5565b60208082526024908201527f424d5f41434c5f4f4e4c595f454d455247454e43595f41444d494e5f43414e5f60408201526310d0531360e21b606082015260800190565b805160048110611f4057600080fd5b600060208284031215612baf57600080fd5b61065c82612b8e565b8051611f408161201b565b8051611f4081611ffd565b60006102808284031215612be157600080fd5b612be9611fb1565b612bf283612afa565b81526020830151602082015260408301516040820152612c1460608401612afa565b6060820152612c2560808401612afa565b6080820152612c3660a08401612afa565b60a082015260c083015160c0820152612c5160e08401612bb8565b60e0820152610100612c64818501612bb8565b90820152610120612c76848201612afa565b90820152610140612c88848201612afa565b90820152610160838101519082015261018080840151908201526101a0612cb0818501612bc3565b908201526101c0612cc2848201612bc3565b908201526101e0612cd4848201612bc3565b90820152610200612ce6848201612bc3565b90820152610220612cf8848201612b22565b90820152610240612d0a848201612b22565b90820152610260612d1c848201612b8e565b908201529392505050565b60008219821115612d3a57612d3a612a8d565b500190565b87815286602082015285604082015284606082015260e060808201526000612d6a60e08301866126ed565b82810360a0840152845181526020850151602082015260408501516040820152606085015160018060a01b0380821660608401526080870151915060a06080840152612db960a08401836126c1565b935080861660c086015250505098975050505050505050565b600082821015612de457612de4612a8d565b500390565b60018060a01b0385168152836020820152826040820152608060608201526000612e1660808301846126c1565b9695505050505050565b60008251612e32818460208701612695565b9190910192915050565b60208152600061065c60208301846126c156fea264697066735822122025df33afa309d720e9cb8c67ecb317f86642fce1518893fdc0612be0ab528dae64736f6c634300080a0033",
  "libraries": {
    "BespokeTypes": "0x473482d4940F9075B8E3C42ccE22B71eA74D0d2A",
    "BespokeLogic": "0xeEFCf47FD6384b3Ae4E65bBA3Bd6BfAd8a7dfd32",
    "TakeLendOfferLogic": "0x7E4F725Ae544b816F913FAfCF9e16A69f8DAA2FF",
    "TakeBorrowOfferLogic": "0xebBC12b39165DFCCeA69BA1a4d5FCd86F3a32DBf",
    "ForecloseLogic": "0x1d9393B167ec445730745d8dadF38419D891413e",
    "RepayLogic": "0x7beB1db41Bb8f518BA972db1D1B11BfE0f57DE57"
  },
  "devdoc": {
    "author": "OpenSky Labs",
    "kind": "dev",
    "methods": {
      "cancelAllBorrowOffersForSender(uint256)": {
        "params": {
          "minNonce_": "minimum user nonce"
        }
      },
      "cancelMultipleBorrowOffers(uint256[])": {
        "params": {
          "offerNonces": "array of borrowOffer nonces"
        }
      },
      "emergencyTokenTransfer(address,address,uint256)": {
        "details": "transfer ERC20 from the utility contract, for ERC20 recovery in case of stuck tokens due direct transfers to the contract address.",
        "params": {
          "amount": "amount to send",
          "to": "recipient of the transfer",
          "token": "token to transfer"
        }
      },
      "pause()": {
        "details": "Pause pool for emergency case, can only be called by emergency admin."
      },
      "paused()": {
        "details": "Returns true if the contract is paused, and false otherwise."
      },
      "unpause()": {
        "details": "Unpause pool for emergency case, can only be called by emergency admin."
      }
    },
    "title": "OpenSkyBespokeMarket contract",
    "version": 1
  },
  "userdoc": {
    "kind": "user",
    "methods": {
      "cancelAllBorrowOffersForSender(uint256)": {
        "notice": "Cancel all pending offers for a sender"
      },
      "foreclose(uint256)": {
        "notice": "anyone can trigger but only OpenSkyLendNFT owner can receive collaterial"
      },
      "repay(uint256)": {
        "notice": "Anyone can repay but only OpenSkyBorrowNFT owner receive collaterialOnly OpenSkyLendNFT owner can recieve the paymentThis function is not pausable for safety"
      },
      "takeBorrowOffer((bool,bool,uint8,address,uint256,uint256,address,uint256,uint256,uint40,uint40,uint128,address,address,uint256,uint256,uint256,address,bytes,uint8,bytes32,bytes32),uint256,uint256,address,bool)": {
        "notice": "take an borrowing offer using ERC20 include ERC20"
      }
    },
    "notice": "Main point of interaction with OpenSky protocol's bespoke market - Users can:   # takeBorrowOffer   # takeLendOffer   # repay   # foreclose*",
    "version": 1
  },
  "storageLayout": {
    "storage": [
      {
        "astId": 1294,
        "contract": "contracts/bespokemarket/OpenSkyBespokeMarket.sol:OpenSkyBespokeMarket",
        "label": "_paused",
        "offset": 0,
        "slot": "0",
        "type": "t_bool"
      },
      {
        "astId": 1379,
        "contract": "contracts/bespokemarket/OpenSkyBespokeMarket.sol:OpenSkyBespokeMarket",
        "label": "_status",
        "offset": 0,
        "slot": "1",
        "type": "t_uint256"
      },
      {
        "astId": 13147,
        "contract": "contracts/bespokemarket/OpenSkyBespokeMarket.sol:OpenSkyBespokeMarket",
        "label": "minNonce",
        "offset": 0,
        "slot": "2",
        "type": "t_mapping(t_address,t_uint256)"
      },
      {
        "astId": 13154,
        "contract": "contracts/bespokemarket/OpenSkyBespokeMarket.sol:OpenSkyBespokeMarket",
        "label": "_nonce",
        "offset": 0,
        "slot": "3",
        "type": "t_mapping(t_address,t_mapping(t_uint256,t_struct(NonceInfo)16621_storage))"
      },
      {
        "astId": 13157,
        "contract": "contracts/bespokemarket/OpenSkyBespokeMarket.sol:OpenSkyBespokeMarket",
        "label": "_loanIdTracker",
        "offset": 0,
        "slot": "4",
        "type": "t_struct(Counter)16614_storage"
      },
      {
        "astId": 13162,
        "contract": "contracts/bespokemarket/OpenSkyBespokeMarket.sol:OpenSkyBespokeMarket",
        "label": "_loans",
        "offset": 0,
        "slot": "5",
        "type": "t_mapping(t_uint256,t_struct(LoanData)16567_storage)"
      },
      {
        "astId": 13166,
        "contract": "contracts/bespokemarket/OpenSkyBespokeMarket.sol:OpenSkyBespokeMarket",
        "label": "_totalBorrow",
        "offset": 0,
        "slot": "6",
        "type": "t_mapping(t_address,t_uint256)"
      },
      {
        "astId": 13170,
        "contract": "contracts/bespokemarket/OpenSkyBespokeMarket.sol:OpenSkyBespokeMarket",
        "label": "_totalLend",
        "offset": 0,
        "slot": "7",
        "type": "t_mapping(t_address,t_uint256)"
      },
      {
        "astId": 13176,
        "contract": "contracts/bespokemarket/OpenSkyBespokeMarket.sol:OpenSkyBespokeMarket",
        "label": "_userBorrow",
        "offset": 0,
        "slot": "8",
        "type": "t_mapping(t_address,t_mapping(t_address,t_uint256))"
      },
      {
        "astId": 13182,
        "contract": "contracts/bespokemarket/OpenSkyBespokeMarket.sol:OpenSkyBespokeMarket",
        "label": "_userLend",
        "offset": 0,
        "slot": "9",
        "type": "t_mapping(t_address,t_mapping(t_address,t_uint256))"
      }
    ],
    "types": {
      "t_address": {
        "encoding": "inplace",
        "label": "address",
        "numberOfBytes": "20"
      },
      "t_bool": {
        "encoding": "inplace",
        "label": "bool",
        "numberOfBytes": "1"
      },
      "t_bytes32": {
        "encoding": "inplace",
        "label": "bytes32",
        "numberOfBytes": "32"
      },
      "t_enum(LoanStatus)16602": {
        "encoding": "inplace",
        "label": "enum BespokeTypes.LoanStatus",
        "numberOfBytes": "1"
      },
      "t_mapping(t_address,t_mapping(t_address,t_uint256))": {
        "encoding": "mapping",
        "key": "t_address",
        "label": "mapping(address => mapping(address => uint256))",
        "numberOfBytes": "32",
        "value": "t_mapping(t_address,t_uint256)"
      },
      "t_mapping(t_address,t_mapping(t_uint256,t_struct(NonceInfo)16621_storage))": {
        "encoding": "mapping",
        "key": "t_address",
        "label": "mapping(address => mapping(uint256 => struct BespokeTypes.NonceInfo))",
        "numberOfBytes": "32",
        "value": "t_mapping(t_uint256,t_struct(NonceInfo)16621_storage)"
      },
      "t_mapping(t_address,t_uint256)": {
        "encoding": "mapping",
        "key": "t_address",
        "label": "mapping(address => uint256)",
        "numberOfBytes": "32",
        "value": "t_uint256"
      },
      "t_mapping(t_uint256,t_struct(LoanData)16567_storage)": {
        "encoding": "mapping",
        "key": "t_uint256",
        "label": "mapping(uint256 => struct BespokeTypes.LoanData)",
        "numberOfBytes": "32",
        "value": "t_struct(LoanData)16567_storage"
      },
      "t_mapping(t_uint256,t_struct(NonceInfo)16621_storage)": {
        "encoding": "mapping",
        "key": "t_uint256",
        "label": "mapping(uint256 => struct BespokeTypes.NonceInfo)",
        "numberOfBytes": "32",
        "value": "t_struct(NonceInfo)16621_storage"
      },
      "t_struct(Counter)16614_storage": {
        "encoding": "inplace",
        "label": "struct BespokeTypes.Counter",
        "members": [
          {
            "astId": 16613,
            "contract": "contracts/bespokemarket/OpenSkyBespokeMarket.sol:OpenSkyBespokeMarket",
            "label": "_value",
            "offset": 0,
            "slot": "0",
            "type": "t_uint256"
          }
        ],
        "numberOfBytes": "32"
      },
      "t_struct(LoanData)16567_storage": {
        "encoding": "inplace",
        "label": "struct BespokeTypes.LoanData",
        "members": [
          {
            "astId": 16527,
            "contract": "contracts/bespokemarket/OpenSkyBespokeMarket.sol:OpenSkyBespokeMarket",
            "label": "tokenAddress",
            "offset": 0,
            "slot": "0",
            "type": "t_address"
          },
          {
            "astId": 16529,
            "contract": "contracts/bespokemarket/OpenSkyBespokeMarket.sol:OpenSkyBespokeMarket",
            "label": "tokenId",
            "offset": 0,
            "slot": "1",
            "type": "t_uint256"
          },
          {
            "astId": 16531,
            "contract": "contracts/bespokemarket/OpenSkyBespokeMarket.sol:OpenSkyBespokeMarket",
            "label": "tokenAmount",
            "offset": 0,
            "slot": "2",
            "type": "t_uint256"
          },
          {
            "astId": 16533,
            "contract": "contracts/bespokemarket/OpenSkyBespokeMarket.sol:OpenSkyBespokeMarket",
            "label": "nftManager",
            "offset": 0,
            "slot": "3",
            "type": "t_address"
          },
          {
            "astId": 16535,
            "contract": "contracts/bespokemarket/OpenSkyBespokeMarket.sol:OpenSkyBespokeMarket",
            "label": "borrower",
            "offset": 0,
            "slot": "4",
            "type": "t_address"
          },
          {
            "astId": 16537,
            "contract": "contracts/bespokemarket/OpenSkyBespokeMarket.sol:OpenSkyBespokeMarket",
            "label": "lender",
            "offset": 0,
            "slot": "5",
            "type": "t_address"
          },
          {
            "astId": 16539,
            "contract": "contracts/bespokemarket/OpenSkyBespokeMarket.sol:OpenSkyBespokeMarket",
            "label": "amount",
            "offset": 0,
            "slot": "6",
            "type": "t_uint256"
          },
          {
            "astId": 16541,
            "contract": "contracts/bespokemarket/OpenSkyBespokeMarket.sol:OpenSkyBespokeMarket",
            "label": "borrowRate",
            "offset": 0,
            "slot": "7",
            "type": "t_uint128"
          },
          {
            "astId": 16543,
            "contract": "contracts/bespokemarket/OpenSkyBespokeMarket.sol:OpenSkyBespokeMarket",
            "label": "interestPerSecond",
            "offset": 16,
            "slot": "7",
            "type": "t_uint128"
          },
          {
            "astId": 16545,
            "contract": "contracts/bespokemarket/OpenSkyBespokeMarket.sol:OpenSkyBespokeMarket",
            "label": "currency",
            "offset": 0,
            "slot": "8",
            "type": "t_address"
          },
          {
            "astId": 16547,
            "contract": "contracts/bespokemarket/OpenSkyBespokeMarket.sol:OpenSkyBespokeMarket",
            "label": "lendAsset",
            "offset": 0,
            "slot": "9",
            "type": "t_address"
          },
          {
            "astId": 16549,
            "contract": "contracts/bespokemarket/OpenSkyBespokeMarket.sol:OpenSkyBespokeMarket",
            "label": "reserveFactor",
            "offset": 0,
            "slot": "10",
            "type": "t_uint256"
          },
          {
            "astId": 16551,
            "contract": "contracts/bespokemarket/OpenSkyBespokeMarket.sol:OpenSkyBespokeMarket",
            "label": "overdueLoanFeeFactor",
            "offset": 0,
            "slot": "11",
            "type": "t_uint256"
          },
          {
            "astId": 16553,
            "contract": "contracts/bespokemarket/OpenSkyBespokeMarket.sol:OpenSkyBespokeMarket",
            "label": "borrowDuration",
            "offset": 0,
            "slot": "12",
            "type": "t_uint40"
          },
          {
            "astId": 16555,
            "contract": "contracts/bespokemarket/OpenSkyBespokeMarket.sol:OpenSkyBespokeMarket",
            "label": "borrowBegin",
            "offset": 5,
            "slot": "12",
            "type": "t_uint40"
          },
          {
            "astId": 16557,
            "contract": "contracts/bespokemarket/OpenSkyBespokeMarket.sol:OpenSkyBespokeMarket",
            "label": "borrowOverdueTime",
            "offset": 10,
            "slot": "12",
            "type": "t_uint40"
          },
          {
            "astId": 16559,
            "contract": "contracts/bespokemarket/OpenSkyBespokeMarket.sol:OpenSkyBespokeMarket",
            "label": "liquidatableTime",
            "offset": 15,
            "slot": "12",
            "type": "t_uint40"
          },
          {
            "astId": 16561,
            "contract": "contracts/bespokemarket/OpenSkyBespokeMarket.sol:OpenSkyBespokeMarket",
            "label": "isProrated",
            "offset": 20,
            "slot": "12",
            "type": "t_bool"
          },
          {
            "astId": 16563,
            "contract": "contracts/bespokemarket/OpenSkyBespokeMarket.sol:OpenSkyBespokeMarket",
            "label": "autoConvertWhenRepay",
            "offset": 21,
            "slot": "12",
            "type": "t_bool"
          },
          {
            "astId": 16566,
            "contract": "contracts/bespokemarket/OpenSkyBespokeMarket.sol:OpenSkyBespokeMarket",
            "label": "status",
            "offset": 22,
            "slot": "12",
            "type": "t_enum(LoanStatus)16602"
          }
        ],
        "numberOfBytes": "416"
      },
      "t_struct(NonceInfo)16621_storage": {
        "encoding": "inplace",
        "label": "struct BespokeTypes.NonceInfo",
        "members": [
          {
            "astId": 16616,
            "contract": "contracts/bespokemarket/OpenSkyBespokeMarket.sol:OpenSkyBespokeMarket",
            "label": "invalid",
            "offset": 0,
            "slot": "0",
            "type": "t_bool"
          },
          {
            "astId": 16618,
            "contract": "contracts/bespokemarket/OpenSkyBespokeMarket.sol:OpenSkyBespokeMarket",
            "label": "usedTimes",
            "offset": 0,
            "slot": "1",
            "type": "t_uint256"
          },
          {
            "astId": 16620,
            "contract": "contracts/bespokemarket/OpenSkyBespokeMarket.sol:OpenSkyBespokeMarket",
            "label": "offerHash",
            "offset": 0,
            "slot": "2",
            "type": "t_bytes32"
          }
        ],
        "numberOfBytes": "96"
      },
      "t_uint128": {
        "encoding": "inplace",
        "label": "uint128",
        "numberOfBytes": "16"
      },
      "t_uint256": {
        "encoding": "inplace",
        "label": "uint256",
        "numberOfBytes": "32"
      },
      "t_uint40": {
        "encoding": "inplace",
        "label": "uint40",
        "numberOfBytes": "5"
      }
    }
  }
}