{
  "address": "0xF3B73e2a1427a027c18bfE11dA7A20B5B88dc867",
  "abi": [
    {
      "inputs": [
        {
          "internalType": "address",
          "name": "_ACLManagerAddress",
          "type": "address"
        }
      ],
      "stateMutability": "nonpayable",
      "type": "constructor"
    },
    {
      "anonymous": false,
      "inputs": [
        {
          "indexed": false,
          "internalType": "address",
          "name": "operator",
          "type": "address"
        },
        {
          "indexed": false,
          "internalType": "address",
          "name": "currency",
          "type": "address"
        }
      ],
      "name": "AddCurrency",
      "type": "event"
    },
    {
      "anonymous": false,
      "inputs": [
        {
          "indexed": false,
          "internalType": "address",
          "name": "operator",
          "type": "address"
        },
        {
          "indexed": false,
          "internalType": "address",
          "name": "currencyAddress",
          "type": "address"
        },
        {
          "indexed": false,
          "internalType": "address",
          "name": "adapterAddress",
          "type": "address"
        }
      ],
      "name": "AddCurrencyTransferAdapter",
      "type": "event"
    },
    {
      "anonymous": false,
      "inputs": [
        {
          "indexed": false,
          "internalType": "address",
          "name": "operator",
          "type": "address"
        },
        {
          "indexed": false,
          "internalType": "address",
          "name": "nftAddress",
          "type": "address"
        },
        {
          "indexed": false,
          "internalType": "address",
          "name": "adapterAddress",
          "type": "address"
        }
      ],
      "name": "AddNftTransferAdapter",
      "type": "event"
    },
    {
      "anonymous": false,
      "inputs": [
        {
          "indexed": false,
          "internalType": "address",
          "name": "operator",
          "type": "address"
        },
        {
          "indexed": false,
          "internalType": "address",
          "name": "address_",
          "type": "address"
        }
      ],
      "name": "AddStrategy",
      "type": "event"
    },
    {
      "anonymous": false,
      "inputs": [
        {
          "indexed": false,
          "internalType": "address",
          "name": "operator",
          "type": "address"
        },
        {
          "indexed": false,
          "internalType": "address",
          "name": "nft",
          "type": "address"
        }
      ],
      "name": "AddToWhitelist",
      "type": "event"
    },
    {
      "anonymous": false,
      "inputs": [
        {
          "indexed": false,
          "internalType": "address",
          "name": "operator",
          "type": "address"
        }
      ],
      "name": "CloseWhitelist",
      "type": "event"
    },
    {
      "anonymous": false,
      "inputs": [
        {
          "indexed": false,
          "internalType": "address",
          "name": "currencyDefaultTransferAdapter",
          "type": "address"
        }
      ],
      "name": "InitDefaultCurrencyTransferAdapter",
      "type": "event"
    },
    {
      "anonymous": false,
      "inputs": [
        {
          "indexed": false,
          "internalType": "address",
          "name": "ERC721DefaultTransferAdapter",
          "type": "address"
        },
        {
          "indexed": false,
          "internalType": "address",
          "name": "ERC1155DefaultTransferAdapter",
          "type": "address"
        }
      ],
      "name": "InitDefaultNftTransferAdapter",
      "type": "event"
    },
    {
      "anonymous": false,
      "inputs": [
        {
          "indexed": false,
          "internalType": "address",
          "name": "operator",
          "type": "address"
        },
        {
          "indexed": false,
          "internalType": "address",
          "name": "address_",
          "type": "address"
        }
      ],
      "name": "InitIncentiveControllerAddressBorrow",
      "type": "event"
    },
    {
      "anonymous": false,
      "inputs": [
        {
          "indexed": false,
          "internalType": "address",
          "name": "operator",
          "type": "address"
        },
        {
          "indexed": false,
          "internalType": "address",
          "name": "address_",
          "type": "address"
        }
      ],
      "name": "InitIncentiveControllerAddressLend",
      "type": "event"
    },
    {
      "anonymous": false,
      "inputs": [
        {
          "indexed": false,
          "internalType": "address",
          "name": "operator",
          "type": "address"
        },
        {
          "indexed": false,
          "internalType": "address",
          "name": "borrowLoanAddress",
          "type": "address"
        },
        {
          "indexed": false,
          "internalType": "address",
          "name": "lendLoanAddress",
          "type": "address"
        }
      ],
      "name": "InitLoanAddress",
      "type": "event"
    },
    {
      "anonymous": false,
      "inputs": [
        {
          "indexed": false,
          "internalType": "address",
          "name": "operator",
          "type": "address"
        },
        {
          "indexed": false,
          "internalType": "address",
          "name": "address_",
          "type": "address"
        }
      ],
      "name": "InitMarketAddress",
      "type": "event"
    },
    {
      "anonymous": false,
      "inputs": [
        {
          "indexed": false,
          "internalType": "address",
          "name": "operator",
          "type": "address"
        }
      ],
      "name": "OpenWhitelist",
      "type": "event"
    },
    {
      "anonymous": false,
      "inputs": [
        {
          "indexed": true,
          "internalType": "address",
          "name": "previousOwner",
          "type": "address"
        },
        {
          "indexed": true,
          "internalType": "address",
          "name": "newOwner",
          "type": "address"
        }
      ],
      "name": "OwnershipTransferred",
      "type": "event"
    },
    {
      "anonymous": false,
      "inputs": [
        {
          "indexed": false,
          "internalType": "address",
          "name": "operator",
          "type": "address"
        },
        {
          "indexed": false,
          "internalType": "address",
          "name": "currency",
          "type": "address"
        }
      ],
      "name": "RemoveCurrency",
      "type": "event"
    },
    {
      "anonymous": false,
      "inputs": [
        {
          "indexed": false,
          "internalType": "address",
          "name": "operator",
          "type": "address"
        },
        {
          "indexed": false,
          "internalType": "address",
          "name": "currencyAddress",
          "type": "address"
        }
      ],
      "name": "RemoveCurrencyTransferAdapter",
      "type": "event"
    },
    {
      "anonymous": false,
      "inputs": [
        {
          "indexed": false,
          "internalType": "address",
          "name": "operator",
          "type": "address"
        },
        {
          "indexed": false,
          "internalType": "address",
          "name": "nft",
          "type": "address"
        }
      ],
      "name": "RemoveFromWhitelist",
      "type": "event"
    },
    {
      "anonymous": false,
      "inputs": [
        {
          "indexed": false,
          "internalType": "address",
          "name": "operator",
          "type": "address"
        },
        {
          "indexed": false,
          "internalType": "address",
          "name": "nftAddress",
          "type": "address"
        }
      ],
      "name": "RemoveNftTransferAdapter",
      "type": "event"
    },
    {
      "anonymous": false,
      "inputs": [
        {
          "indexed": false,
          "internalType": "address",
          "name": "operator",
          "type": "address"
        },
        {
          "indexed": false,
          "internalType": "address",
          "name": "address_",
          "type": "address"
        }
      ],
      "name": "RemoveStrategy",
      "type": "event"
    },
    {
      "anonymous": false,
      "inputs": [
        {
          "indexed": false,
          "internalType": "address",
          "name": "operator",
          "type": "address"
        },
        {
          "indexed": false,
          "internalType": "uint256",
          "name": "factor",
          "type": "uint256"
        }
      ],
      "name": "SetMaxBorrowDuration",
      "type": "event"
    },
    {
      "anonymous": false,
      "inputs": [
        {
          "indexed": false,
          "internalType": "address",
          "name": "operator",
          "type": "address"
        },
        {
          "indexed": false,
          "internalType": "uint256",
          "name": "factor",
          "type": "uint256"
        }
      ],
      "name": "SetMinBorrowDuration",
      "type": "event"
    },
    {
      "anonymous": false,
      "inputs": [
        {
          "indexed": false,
          "internalType": "address",
          "name": "operator",
          "type": "address"
        },
        {
          "indexed": false,
          "internalType": "uint256",
          "name": "factor",
          "type": "uint256"
        }
      ],
      "name": "SetOverdueDuration",
      "type": "event"
    },
    {
      "anonymous": false,
      "inputs": [
        {
          "indexed": false,
          "internalType": "address",
          "name": "operator",
          "type": "address"
        },
        {
          "indexed": false,
          "internalType": "uint256",
          "name": "factor",
          "type": "uint256"
        }
      ],
      "name": "SetOverdueLoanFeeFactor",
      "type": "event"
    },
    {
      "anonymous": false,
      "inputs": [
        {
          "indexed": false,
          "internalType": "address",
          "name": "operator",
          "type": "address"
        },
        {
          "indexed": false,
          "internalType": "uint256",
          "name": "factor",
          "type": "uint256"
        }
      ],
      "name": "SetReserveFactor",
      "type": "event"
    },
    {
      "inputs": [],
      "name": "ACLManagerAddress",
      "outputs": [
        {
          "internalType": "address",
          "name": "",
          "type": "address"
        }
      ],
      "stateMutability": "view",
      "type": "function"
    },
    {
      "inputs": [],
      "name": "INTERFACE_ID_ERC1155",
      "outputs": [
        {
          "internalType": "bytes4",
          "name": "",
          "type": "bytes4"
        }
      ],
      "stateMutability": "view",
      "type": "function"
    },
    {
      "inputs": [],
      "name": "INTERFACE_ID_ERC721",
      "outputs": [
        {
          "internalType": "bytes4",
          "name": "",
          "type": "bytes4"
        }
      ],
      "stateMutability": "view",
      "type": "function"
    },
    {
      "inputs": [],
      "name": "MAX_RESERVE_FACTOR",
      "outputs": [
        {
          "internalType": "uint256",
          "name": "",
          "type": "uint256"
        }
      ],
      "stateMutability": "view",
      "type": "function"
    },
    {
      "inputs": [],
      "name": "TRANSFER_CURRENCY",
      "outputs": [
        {
          "internalType": "address",
          "name": "",
          "type": "address"
        }
      ],
      "stateMutability": "view",
      "type": "function"
    },
    {
      "inputs": [],
      "name": "TRANSFER_ERC1155",
      "outputs": [
        {
          "internalType": "address",
          "name": "",
          "type": "address"
        }
      ],
      "stateMutability": "view",
      "type": "function"
    },
    {
      "inputs": [],
      "name": "TRANSFER_ERC721",
      "outputs": [
        {
          "internalType": "address",
          "name": "",
          "type": "address"
        }
      ],
      "stateMutability": "view",
      "type": "function"
    },
    {
      "inputs": [
        {
          "internalType": "address",
          "name": "",
          "type": "address"
        }
      ],
      "name": "_currencyTransferAdapters",
      "outputs": [
        {
          "internalType": "address",
          "name": "",
          "type": "address"
        }
      ],
      "stateMutability": "view",
      "type": "function"
    },
    {
      "inputs": [
        {
          "internalType": "address",
          "name": "",
          "type": "address"
        }
      ],
      "name": "_currencyWhitelist",
      "outputs": [
        {
          "internalType": "bool",
          "name": "",
          "type": "bool"
        }
      ],
      "stateMutability": "view",
      "type": "function"
    },
    {
      "inputs": [
        {
          "internalType": "address",
          "name": "",
          "type": "address"
        }
      ],
      "name": "_strategyWhitelist",
      "outputs": [
        {
          "internalType": "bool",
          "name": "",
          "type": "bool"
        }
      ],
      "stateMutability": "view",
      "type": "function"
    },
    {
      "inputs": [
        {
          "internalType": "address",
          "name": "",
          "type": "address"
        }
      ],
      "name": "_transferAdapters",
      "outputs": [
        {
          "internalType": "address",
          "name": "",
          "type": "address"
        }
      ],
      "stateMutability": "view",
      "type": "function"
    },
    {
      "inputs": [
        {
          "internalType": "address",
          "name": "currency",
          "type": "address"
        }
      ],
      "name": "addCurrency",
      "outputs": [],
      "stateMutability": "nonpayable",
      "type": "function"
    },
    {
      "inputs": [
        {
          "internalType": "address",
          "name": "currency",
          "type": "address"
        },
        {
          "internalType": "address",
          "name": "adapterAddress",
          "type": "address"
        }
      ],
      "name": "addCurrencyTransferAdapter",
      "outputs": [],
      "stateMutability": "nonpayable",
      "type": "function"
    },
    {
      "inputs": [
        {
          "internalType": "address",
          "name": "nftAddress",
          "type": "address"
        },
        {
          "internalType": "address",
          "name": "adapterAddress",
          "type": "address"
        }
      ],
      "name": "addNftTransferAdapter",
      "outputs": [],
      "stateMutability": "nonpayable",
      "type": "function"
    },
    {
      "inputs": [
        {
          "internalType": "address",
          "name": "address_",
          "type": "address"
        }
      ],
      "name": "addStrategy",
      "outputs": [],
      "stateMutability": "nonpayable",
      "type": "function"
    },
    {
      "inputs": [
        {
          "internalType": "address",
          "name": "nft",
          "type": "address"
        },
        {
          "internalType": "uint256",
          "name": "minBorrowDuration",
          "type": "uint256"
        },
        {
          "internalType": "uint256",
          "name": "maxBorrowDuration",
          "type": "uint256"
        },
        {
          "internalType": "uint256",
          "name": "overdueDuration",
          "type": "uint256"
        }
      ],
      "name": "addToWhitelist",
      "outputs": [],
      "stateMutability": "nonpayable",
      "type": "function"
    },
    {
      "inputs": [],
      "name": "borrowLoanAddress",
      "outputs": [
        {
          "internalType": "address",
          "name": "",
          "type": "address"
        }
      ],
      "stateMutability": "view",
      "type": "function"
    },
    {
      "inputs": [],
      "name": "closeWhitelist",
      "outputs": [],
      "stateMutability": "nonpayable",
      "type": "function"
    },
    {
      "inputs": [
        {
          "internalType": "address",
          "name": "nftAddress",
          "type": "address"
        }
      ],
      "name": "getBorrowDurationConfig",
      "outputs": [
        {
          "internalType": "uint256",
          "name": "minBorrowDuration_",
          "type": "uint256"
        },
        {
          "internalType": "uint256",
          "name": "maxBorrowDuration_",
          "type": "uint256"
        },
        {
          "internalType": "uint256",
          "name": "overdueDuration_",
          "type": "uint256"
        }
      ],
      "stateMutability": "view",
      "type": "function"
    },
    {
      "inputs": [
        {
          "internalType": "address",
          "name": "currency",
          "type": "address"
        }
      ],
      "name": "getCurrencyTransferAdapter",
      "outputs": [
        {
          "internalType": "address",
          "name": "adapter",
          "type": "address"
        }
      ],
      "stateMutability": "view",
      "type": "function"
    },
    {
      "inputs": [
        {
          "internalType": "address",
          "name": "nftAddress",
          "type": "address"
        }
      ],
      "name": "getNftTransferAdapter",
      "outputs": [
        {
          "internalType": "address",
          "name": "adapter",
          "type": "address"
        }
      ],
      "stateMutability": "view",
      "type": "function"
    },
    {
      "inputs": [
        {
          "internalType": "address",
          "name": "nft",
          "type": "address"
        }
      ],
      "name": "getWhitelistDetail",
      "outputs": [
        {
          "components": [
            {
              "internalType": "bool",
              "name": "enabled",
              "type": "bool"
            },
            {
              "internalType": "uint256",
              "name": "minBorrowDuration",
              "type": "uint256"
            },
            {
              "internalType": "uint256",
              "name": "maxBorrowDuration",
              "type": "uint256"
            },
            {
              "internalType": "uint256",
              "name": "overdueDuration",
              "type": "uint256"
            }
          ],
          "internalType": "struct BespokeTypes.WhitelistInfo",
          "name": "",
          "type": "tuple"
        }
      ],
      "stateMutability": "view",
      "type": "function"
    },
    {
      "inputs": [
        {
          "internalType": "address",
          "name": "nft",
          "type": "address"
        }
      ],
      "name": "inWhitelist",
      "outputs": [
        {
          "internalType": "bool",
          "name": "",
          "type": "bool"
        }
      ],
      "stateMutability": "view",
      "type": "function"
    },
    {
      "inputs": [],
      "name": "incentiveControllerAddressBorrow",
      "outputs": [
        {
          "internalType": "address",
          "name": "",
          "type": "address"
        }
      ],
      "stateMutability": "view",
      "type": "function"
    },
    {
      "inputs": [],
      "name": "incentiveControllerAddressLend",
      "outputs": [
        {
          "internalType": "address",
          "name": "",
          "type": "address"
        }
      ],
      "stateMutability": "view",
      "type": "function"
    },
    {
      "inputs": [
        {
          "internalType": "address",
          "name": "currencyDefaultAdapter",
          "type": "address"
        }
      ],
      "name": "initDefaultCurrencyTransferAdapter",
      "outputs": [],
      "stateMutability": "nonpayable",
      "type": "function"
    },
    {
      "inputs": [
        {
          "internalType": "address",
          "name": "ERC721Default",
          "type": "address"
        },
        {
          "internalType": "address",
          "name": "ERC1155Default",
          "type": "address"
        }
      ],
      "name": "initDefaultNftTransferAdapters",
      "outputs": [],
      "stateMutability": "nonpayable",
      "type": "function"
    },
    {
      "inputs": [
        {
          "internalType": "address",
          "name": "address_",
          "type": "address"
        }
      ],
      "name": "initIncentiveControllerAddressBorrow",
      "outputs": [],
      "stateMutability": "nonpayable",
      "type": "function"
    },
    {
      "inputs": [
        {
          "internalType": "address",
          "name": "address_",
          "type": "address"
        }
      ],
      "name": "initIncentiveControllerAddressLend",
      "outputs": [],
      "stateMutability": "nonpayable",
      "type": "function"
    },
    {
      "inputs": [
        {
          "internalType": "address",
          "name": "borrowLoanAddress_",
          "type": "address"
        },
        {
          "internalType": "address",
          "name": "lendLoanAddress_",
          "type": "address"
        }
      ],
      "name": "initLoanAddress",
      "outputs": [],
      "stateMutability": "nonpayable",
      "type": "function"
    },
    {
      "inputs": [
        {
          "internalType": "address",
          "name": "address_",
          "type": "address"
        }
      ],
      "name": "initMarketAddress",
      "outputs": [],
      "stateMutability": "nonpayable",
      "type": "function"
    },
    {
      "inputs": [
        {
          "internalType": "address",
          "name": "currency",
          "type": "address"
        }
      ],
      "name": "isCurrencyWhitelisted",
      "outputs": [
        {
          "internalType": "bool",
          "name": "",
          "type": "bool"
        }
      ],
      "stateMutability": "view",
      "type": "function"
    },
    {
      "inputs": [
        {
          "internalType": "address",
          "name": "address_",
          "type": "address"
        }
      ],
      "name": "isStrategyWhitelisted",
      "outputs": [
        {
          "internalType": "bool",
          "name": "",
          "type": "bool"
        }
      ],
      "stateMutability": "view",
      "type": "function"
    },
    {
      "inputs": [],
      "name": "isWhitelistOn",
      "outputs": [
        {
          "internalType": "bool",
          "name": "",
          "type": "bool"
        }
      ],
      "stateMutability": "view",
      "type": "function"
    },
    {
      "inputs": [],
      "name": "lendLoanAddress",
      "outputs": [
        {
          "internalType": "address",
          "name": "",
          "type": "address"
        }
      ],
      "stateMutability": "view",
      "type": "function"
    },
    {
      "inputs": [],
      "name": "marketAddress",
      "outputs": [
        {
          "internalType": "address",
          "name": "",
          "type": "address"
        }
      ],
      "stateMutability": "view",
      "type": "function"
    },
    {
      "inputs": [],
      "name": "maxBorrowDuration",
      "outputs": [
        {
          "internalType": "uint256",
          "name": "",
          "type": "uint256"
        }
      ],
      "stateMutability": "view",
      "type": "function"
    },
    {
      "inputs": [],
      "name": "minBorrowDuration",
      "outputs": [
        {
          "internalType": "uint256",
          "name": "",
          "type": "uint256"
        }
      ],
      "stateMutability": "view",
      "type": "function"
    },
    {
      "inputs": [],
      "name": "openWhitelist",
      "outputs": [],
      "stateMutability": "nonpayable",
      "type": "function"
    },
    {
      "inputs": [],
      "name": "overdueDuration",
      "outputs": [
        {
          "internalType": "uint256",
          "name": "",
          "type": "uint256"
        }
      ],
      "stateMutability": "view",
      "type": "function"
    },
    {
      "inputs": [],
      "name": "overdueLoanFeeFactor",
      "outputs": [
        {
          "internalType": "uint256",
          "name": "",
          "type": "uint256"
        }
      ],
      "stateMutability": "view",
      "type": "function"
    },
    {
      "inputs": [],
      "name": "owner",
      "outputs": [
        {
          "internalType": "address",
          "name": "",
          "type": "address"
        }
      ],
      "stateMutability": "view",
      "type": "function"
    },
    {
      "inputs": [
        {
          "internalType": "address",
          "name": "currency",
          "type": "address"
        }
      ],
      "name": "removeCurrency",
      "outputs": [],
      "stateMutability": "nonpayable",
      "type": "function"
    },
    {
      "inputs": [
        {
          "internalType": "address",
          "name": "currency",
          "type": "address"
        }
      ],
      "name": "removeCurrencyTransferAdapter",
      "outputs": [],
      "stateMutability": "nonpayable",
      "type": "function"
    },
    {
      "inputs": [
        {
          "internalType": "address",
          "name": "nft",
          "type": "address"
        }
      ],
      "name": "removeFromWhitelist",
      "outputs": [],
      "stateMutability": "nonpayable",
      "type": "function"
    },
    {
      "inputs": [
        {
          "internalType": "address",
          "name": "nftAddress",
          "type": "address"
        }
      ],
      "name": "removeNftTransferAdapter",
      "outputs": [],
      "stateMutability": "nonpayable",
      "type": "function"
    },
    {
      "inputs": [
        {
          "internalType": "address",
          "name": "address_",
          "type": "address"
        }
      ],
      "name": "removeStrategy",
      "outputs": [],
      "stateMutability": "nonpayable",
      "type": "function"
    },
    {
      "inputs": [],
      "name": "renounceOwnership",
      "outputs": [],
      "stateMutability": "nonpayable",
      "type": "function"
    },
    {
      "inputs": [],
      "name": "reserveFactor",
      "outputs": [
        {
          "internalType": "uint256",
          "name": "",
          "type": "uint256"
        }
      ],
      "stateMutability": "view",
      "type": "function"
    },
    {
      "inputs": [
        {
          "internalType": "uint256",
          "name": "factor",
          "type": "uint256"
        }
      ],
      "name": "setMaxBorrowDuration",
      "outputs": [],
      "stateMutability": "nonpayable",
      "type": "function"
    },
    {
      "inputs": [
        {
          "internalType": "uint256",
          "name": "factor",
          "type": "uint256"
        }
      ],
      "name": "setMinBorrowDuration",
      "outputs": [],
      "stateMutability": "nonpayable",
      "type": "function"
    },
    {
      "inputs": [
        {
          "internalType": "uint256",
          "name": "factor",
          "type": "uint256"
        }
      ],
      "name": "setOverdueDuration",
      "outputs": [],
      "stateMutability": "nonpayable",
      "type": "function"
    },
    {
      "inputs": [
        {
          "internalType": "uint256",
          "name": "factor",
          "type": "uint256"
        }
      ],
      "name": "setOverdueLoanFeeFactor",
      "outputs": [],
      "stateMutability": "nonpayable",
      "type": "function"
    },
    {
      "inputs": [
        {
          "internalType": "uint256",
          "name": "factor",
          "type": "uint256"
        }
      ],
      "name": "setReserveFactor",
      "outputs": [],
      "stateMutability": "nonpayable",
      "type": "function"
    },
    {
      "inputs": [
        {
          "internalType": "address",
          "name": "newOwner",
          "type": "address"
        }
      ],
      "name": "transferOwnership",
      "outputs": [],
      "stateMutability": "nonpayable",
      "type": "function"
    }
  ],
  "transactionHash": "0xd0a05693f0650ee1c4cededa850dc06af2d8be6deffb9c85639c72bb55c84d01",
  "args": [
    "0xd9A4E9350B4C67FC87bBC041E69Da2b8bAB38f3A"
  ],
  "solcInputHash": "88f70ef30a97ad95dcfad3d4587a7e7c",
  "bytecode": "0x60a06040526000805460ff60a01b191681556101f460075560c860085562093a806009556301e13380600a55600b553480156200003b57600080fd5b5060405162002675380380620026758339810160408190526200005e91620000cb565b62000069336200007b565b6001600160a01b0316608052620000fd565b600080546001600160a01b038381166001600160a01b0319831681178455604051919092169283917f8be0079c531659141344cd1fd0a4f28419497f9722a3daafe3b4186f6b6457e09190a35050565b600060208284031215620000de57600080fd5b81516001600160a01b0381168114620000f657600080fd5b9392505050565b6080516124e56200019060003960008181610646015281816108ff015281816109fe01528181610b1801528181610c1701528181610d16015281816110700152818161127b0152818161136b015281816114970152818161170501528181611859015281816119a401528181611be901528181611dfe01528181611f1801528181612071015261217001526124e56000f3fe608060405234801561001057600080fd5b506004361061035d5760003560e01c806398460c5f116101d3578063bc98c24711610104578063e2aafa21116100a2578063efbe23371161007c578063efbe2337146107e5578063efc62f7a146107f8578063f2fde38b1461080b578063fea68eed1461081e57600080fd5b8063e2aafa21146107b6578063e9772cd3146107c9578063ee08fed6146107dc57600080fd5b8063c5d3a107116100de578063c5d3a1071461077e578063d065ea9914610791578063d23a65cf146107a4578063d7a5a9d3146107ad57600080fd5b8063bc98c24714610745578063bd33deb314610758578063c152c1821461076b57600080fd5b8063ab0868bc11610171578063b585945f1161014b578063b585945f146106fe578063b75e7d3114610711578063bb322a8314610724578063bc6bc0cd1461073757600080fd5b8063ab0868bc146106aa578063ab5407f9146106d8578063b3934838146106eb57600080fd5b80639ab3d121116101ad5780639ab3d121146106685780639ecdda211461067b578063a45a7dd614610684578063a4b9672a1461069757600080fd5b806398460c5f14610602578063999ba27c146106155780639a9dbb991461064157600080fd5b806343b938c5116102ad578063853201bd1161024b5780638ab234b6116102255780638ab234b6146105c25780638da5cb5b146105d557806393aa2845146105e657806395623641146105ef57600080fd5b8063853201bd1461058957806389cdd47d1461059c5780638ab1d681146105af57600080fd5b8063715018a611610287578063715018a614610531578063716f10bf14610539578063740247be1461054d578063777ee2e01461057657600080fd5b806343b938c5146104da578063586b9a7c14610506578063659d4ba21461050e57600080fd5b80631c4469831161031a57806333bf6156116102f457806333bf6156146104415780633bdd12351461046857806340cb4b4d146104b05780634322b714146104c357600080fd5b80631c44698314610408578063223e54791461041b57806330aec1271461042e57600080fd5b8063030efd5d14610362578063080ccaed14610392578063083bbe7f146103a7578063165f735e146103af578063175188e8146103e25780631b52ba71146103f5575b600080fd5b600c54610375906001600160a01b031681565b6040516001600160a01b0390911681526020015b60405180910390f35b6103a56103a0366004612360565b610847565b005b6103a56108fd565b6103d26103bd366004612360565b60106020526000908152604090205460ff1681565b6040519015158152602001610389565b6103a56103f0366004612360565b6109fc565b6103a5610403366004612382565b610b16565b6103a5610416366004612382565b610c15565b6103a5610429366004612360565b610d14565b6103a561043c36600461239b565b610e56565b61044f636cdb3d1360e11b81565b6040516001600160e01b03199091168152602001610389565b61047b610476366004612360565b610f4d565b604051610389919081511515815260208083015190820152604080830151908201526060918201519181019190915260800190565b6103a56104be366004612360565b610fcc565b6104cc60075481565b604051908152602001610389565b6103d26104e8366004612360565b6001600160a01b031660009081526002602052604090205460ff1690565b6103a561106e565b6103d261051c366004612360565b60026020526000908152604090205460ff1681565b6103a5611160565b6000546103d290600160a01b900460ff1681565b61037561055b366004612360565b600f602052600090815260409020546001600160a01b031681565b600d54610375906001600160a01b031681565b6103a561059736600461239b565b611196565b6103a56105aa366004612382565b611279565b6103a56105bd366004612360565b611369565b6103a56105d0366004612360565b611495565b6000546001600160a01b0316610375565b6104cc600a5481565b600454610375906001600160a01b031681565b610375610610366004612360565b6115d7565b6103d2610623366004612360565b6001600160a01b031660009081526010602052604090205460ff1690565b6103757f000000000000000000000000000000000000000000000000000000000000000081565b6103a561067636600461239b565b611703565b6104cc60095481565b6103a561069236600461239b565b611857565b6103a56106a5366004612360565b6119a2565b6106bd6106b8366004612360565b611aaf565b60408051938452602084019290925290820152606001610389565b600e54610375906001600160a01b031681565b600654610375906001600160a01b031681565b6103a561070c366004612360565b611b15565b601154610375906001600160a01b031681565b600554610375906001600160a01b031681565b61044f6380ac58cd60e01b81565b610375610753366004612360565b611bb6565b6103a56107663660046123ce565b611be7565b6103a5610779366004612360565b611d5b565b6103a561078c366004612360565b611dfc565b6103a561079f366004612360565b611f16565b6104cc610bb881565b6104cc60085481565b6103d26107c4366004612360565b612023565b6103a56107d7366004612382565b61206f565b6104cc600b5481565b601254610375906001600160a01b031681565b6103a5610806366004612382565b61216e565b6103a5610819366004612360565b61225e565b61037561082c366004612360565b6003602052600090815260409020546001600160a01b031681565b6000546001600160a01b0316331461087a5760405162461bcd60e51b815260040161087190612407565b60405180910390fd5b6012546001600160a01b0316801561089157600080fd5b6001600160a01b0382166108a457600080fd5b601280546001600160a01b0319166001600160a01b0384161790556040517fa98e3663f7e0728ae97c0815f77a2f39b0279bdcb077b3b0e15b97903b4b2174906108f1903390859061243c565b60405180910390a15050565b7f00000000000000000000000000000000000000000000000000000000000000006001600160a01b03811663dee1f0e4336040516001600160e01b031960e084901b1681526001600160a01b039091166004820152602401602060405180830381865afa158015610972573d6000803e3d6000fd5b505050506040513d601f19601f820116820180604052508101906109969190612456565b6109b25760405162461bcd60e51b815260040161087190612478565b6000805460ff60a01b1916600160a01b1790556040513381527f89d8e5084cb20a926de5df07f7b8263f1228ed46d85d84afa6773e5d7ce813db906020015b60405180910390a150565b7f00000000000000000000000000000000000000000000000000000000000000006001600160a01b03811663dee1f0e4336040516001600160e01b031960e084901b1681526001600160a01b039091166004820152602401602060405180830381865afa158015610a71573d6000803e3d6000fd5b505050506040513d601f19601f82011682018060405250810190610a959190612456565b610ab15760405162461bcd60e51b815260040161087190612478565b6001600160a01b038216610ac457600080fd5b6001600160a01b03821660009081526010602052604090819020805460ff19169055517f51c7271314d1bc03a7cc10464206ac84412719838a3ca814570f7445f0457c4f906108f1903390859061243c565b7f00000000000000000000000000000000000000000000000000000000000000006001600160a01b03811663dee1f0e4336040516001600160e01b031960e084901b1681526001600160a01b039091166004820152602401602060405180830381865afa158015610b8b573d6000803e3d6000fd5b505050506040513d601f19601f82011682018060405250810190610baf9190612456565b610bcb5760405162461bcd60e51b815260040161087190612478565b6000600a5411610bda57600080fd5b600a82905560408051338152602081018490527fcccf2b6d79b744c1a827f0ad86745f230e1ef5e3aa0891d0a1a6b2e6e447b07491016108f1565b7f00000000000000000000000000000000000000000000000000000000000000006001600160a01b03811663dee1f0e4336040516001600160e01b031960e084901b1681526001600160a01b039091166004820152602401602060405180830381865afa158015610c8a573d6000803e3d6000fd5b505050506040513d601f19601f82011682018060405250810190610cae9190612456565b610cca5760405162461bcd60e51b815260040161087190612478565b610bb8821115610cd957600080fd5b600782905560408051338152602081018490527faec3b0dfb932ebcf519716c413557fafef520bf9d7a371d8ef50799927c70ff391016108f1565b7f00000000000000000000000000000000000000000000000000000000000000006001600160a01b03811663dee1f0e4336040516001600160e01b031960e084901b1681526001600160a01b039091166004820152602401602060405180830381865afa158015610d89573d6000803e3d6000fd5b505050506040513d601f19601f82011682018060405250810190610dad9190612456565b610dc95760405162461bcd60e51b815260040161087190612478565b6001600160a01b038216610ddc57600080fd5b6001600160a01b03821660009081526010602052604090205460ff161515600114610e25576001600160a01b0382166000908152601060205260409020805460ff191660011790555b7ff5356ea32b86d53c1386eda4d869e6027a0a1d4edebb9c2f778d9f8559d236aa33836040516108f192919061243c565b6000546001600160a01b03163314610e805760405162461bcd60e51b815260040161087190612407565b6005546001600160a01b03168015610e9757600080fd5b6006546001600160a01b03168015610eae57600080fd5b6001600160a01b03841615801590610ece57506001600160a01b03831615155b610ed757600080fd5b600580546001600160a01b038681166001600160a01b03199283168117909355600680549187169190921681179091556040805133815260208101939093528201527fb7ca9e57486893e0e5ce606ca83c7476f96585ff72732ee6e632c0695b72fbeb906060015b60405180910390a150505050565b610f7a60405180608001604052806000151581526020016000815260200160008152602001600081525090565b506001600160a01b03166000908152600160208181526040928390208351608081018552815460ff16151581529281015491830191909152600281015492820192909252600390910154606082015290565b600e546001600160a01b03168015610fe357600080fd5b6000546001600160a01b0316331461100d5760405162461bcd60e51b815260040161087190612407565b6001600160a01b03821661102057600080fd5b600e80546001600160a01b0319166001600160a01b0384169081179091556040519081527fe66ca1f6b1971dd7b60d9e6fb5d07be2716baf32d50c4f0f01bf1b5cddfd1ae4906020016108f1565b7f00000000000000000000000000000000000000000000000000000000000000006001600160a01b03811663dee1f0e4336040516001600160e01b031960e084901b1681526001600160a01b039091166004820152602401602060405180830381865afa1580156110e3573d6000803e3d6000fd5b505050506040513d601f19601f820116820180604052508101906111079190612456565b6111235760405162461bcd60e51b815260040161087190612478565b6000805460ff60a01b191690556040513381527f15d2336aba2921f545ef5492de5c469a1aa3b00e0816b075e36897bcd10bfe4a906020016109f1565b6000546001600160a01b0316331461118a5760405162461bcd60e51b815260040161087190612407565b61119460006122f9565b565b600c546001600160a01b031680156111ad57600080fd5b600d546001600160a01b031680156111c457600080fd5b6000546001600160a01b031633146111ee5760405162461bcd60e51b815260040161087190612407565b6001600160a01b0384161580159061120e57506001600160a01b03831615155b61121757600080fd5b600c80546001600160a01b038087166001600160a01b031992831617909255600d8054928616929091169190911790556040517f3b231f7f1d3750272d9d4e4d7677990f114575b1e9334d0088dbb9e74483e16390610f3f908690869061243c565b7f00000000000000000000000000000000000000000000000000000000000000006001600160a01b03811663dee1f0e4336040516001600160e01b031960e084901b1681526001600160a01b039091166004820152602401602060405180830381865afa1580156112ee573d6000803e3d6000fd5b505050506040513d601f19601f820116820180604052508101906113129190612456565b61132e5760405162461bcd60e51b815260040161087190612478565b600882905560408051338152602081018490527f7c711ee19f0c912a57665c93f4d4e5c0eadfe3547c2a7674d27e359ddcc0126e91016108f1565b7f00000000000000000000000000000000000000000000000000000000000000006001600160a01b03811663dee1f0e4336040516001600160e01b031960e084901b1681526001600160a01b039091166004820152602401602060405180830381865afa1580156113de573d6000803e3d6000fd5b505050506040513d601f19601f820116820180604052508101906114029190612456565b61141e5760405162461bcd60e51b815260040161087190612478565b6001600160a01b03821660009081526001602052604090205460ff1615611491576001600160a01b03821660009081526001602052604090819020805460ff19169055517fd69d323ec27eb997f9c9466b0c1f1f37d65382a7caeee9c9cacaf093d6d0bb57906108f1903390859061243c565b5050565b7f00000000000000000000000000000000000000000000000000000000000000006001600160a01b03811663dee1f0e4336040516001600160e01b031960e084901b1681526001600160a01b039091166004820152602401602060405180830381865afa15801561150a573d6000803e3d6000fd5b505050506040513d601f19601f8201168201806040525081019061152e9190612456565b61154a5760405162461bcd60e51b815260040161087190612478565b6001600160a01b03821661155d57600080fd5b6001600160a01b03821660009081526002602052604090205460ff1615156001146115a6576001600160a01b0382166000908152600260205260409020805460ff191660011790555b7fbfa39708e75c2b57953423380dc6d5f9416972bae39f35b1eff332f8cc0d841933836040516108f192919061243c565b6001600160a01b038082166000908152600f602052604090205416806116fe576040516301ffc9a760e01b81526380ac58cd60e01b60048201526001600160a01b038316906301ffc9a790602401602060405180830381865afa158015611642573d6000803e3d6000fd5b505050506040513d601f19601f820116820180604052508101906116669190612456565b1561167c575050600c546001600160a01b031690565b6040516301ffc9a760e01b8152636cdb3d1360e11b60048201526001600160a01b038316906301ffc9a790602401602060405180830381865afa1580156116c7573d6000803e3d6000fd5b505050506040513d601f19601f820116820180604052508101906116eb9190612456565b156116fe5750600d546001600160a01b03165b919050565b7f00000000000000000000000000000000000000000000000000000000000000006001600160a01b03811663dee1f0e4336040516001600160e01b031960e084901b1681526001600160a01b039091166004820152602401602060405180830381865afa158015611778573d6000803e3d6000fd5b505050506040513d601f19601f8201168201806040525081019061179c9190612456565b6117b85760405162461bcd60e51b815260040161087190612478565b6001600160a01b038316158015906117d857506001600160a01b03821615155b6117e157600080fd5b6001600160a01b0383811660008181526003602090815260409182902080546001600160a01b03191694871694851790558151338152908101929092528101919091527fa73114b4976a26b294c6ac38aa4eac20323ac7834b8710d69a08d6f13a262d61906060015b60405180910390a1505050565b7f00000000000000000000000000000000000000000000000000000000000000006001600160a01b03811663dee1f0e4336040516001600160e01b031960e084901b1681526001600160a01b039091166004820152602401602060405180830381865afa1580156118cc573d6000803e3d6000fd5b505050506040513d601f19601f820116820180604052508101906118f09190612456565b61190c5760405162461bcd60e51b815260040161087190612478565b6001600160a01b0383161580159061192c57506001600160a01b03821615155b61193557600080fd5b6001600160a01b038381166000818152600f602090815260409182902080546001600160a01b03191694871694851790558151338152908101929092528101919091527f972fb0b53009a70e5374ad2e85aabd349201193cc5d85715a5b7b63137cb8ad79060600161184a565b7f00000000000000000000000000000000000000000000000000000000000000006001600160a01b03811663dee1f0e4336040516001600160e01b031960e084901b1681526001600160a01b039091166004820152602401602060405180830381865afa158015611a17573d6000803e3d6000fd5b505050506040513d601f19601f82011682018060405250810190611a3b9190612456565b611a575760405162461bcd60e51b815260040161087190612478565b6001600160a01b0382166000908152600360205260409081902080546001600160a01b0319169055517f9d2c7870afed34a7d2926e519db06ac74b5a3a35e678aec10954d74ecfc67c81906108f1903390859061243c565b6000805481908190600160a01b900460ff168015611ad15750611ad184612023565b15611afe576000611ae185610f4d565b905080602001519350806040015192508060600151915050611b0e565b6009549250600a549150600b5490505b9193909250565b6000546001600160a01b03163314611b3f5760405162461bcd60e51b815260040161087190612407565b6004546001600160a01b03168015611b5657600080fd5b6001600160a01b038216611b6957600080fd5b600480546001600160a01b0319166001600160a01b0384161790556040517fa7ebd3b8f60f1612c46fda3d490cf7627bf136da9c5d474a5bd1d1bcaa3c898d906108f1903390859061243c565b6001600160a01b0380821660009081526003602052604090205416806116fe575050600e546001600160a01b031690565b7f00000000000000000000000000000000000000000000000000000000000000006001600160a01b03811663dee1f0e4336040516001600160e01b031960e084901b1681526001600160a01b039091166004820152602401602060405180830381865afa158015611c5c573d6000803e3d6000fd5b505050506040513d601f19601f82011682018060405250810190611c809190612456565b611c9c5760405162461bcd60e51b815260040161087190612478565b6001600160a01b038516611caf57600080fd5b82841115611cbc57600080fd5b6040805160808101825260018082526020808301888152838501888152606085018881526001600160a01b038c16600090815293859052928690209451855460ff19169015151785559051928401929092559051600283015551600390910155517f1d579ce37763c9894e144fe60df6d85b0eaa341ed20bcb7045de4a9327eb511590611d4c903390889061243c565b60405180910390a15050505050565b6000546001600160a01b03163314611d855760405162461bcd60e51b815260040161087190612407565b6011546001600160a01b03168015611d9c57600080fd5b6001600160a01b038216611daf57600080fd5b601180546001600160a01b0319166001600160a01b0384161790556040517f92b483f63da4a1e322745c377d3ff08c00512dd99e0df983f49690f57e9907fa906108f1903390859061243c565b7f00000000000000000000000000000000000000000000000000000000000000006001600160a01b03811663dee1f0e4336040516001600160e01b031960e084901b1681526001600160a01b039091166004820152602401602060405180830381865afa158015611e71573d6000803e3d6000fd5b505050506040513d601f19601f82011682018060405250810190611e959190612456565b611eb15760405162461bcd60e51b815260040161087190612478565b6001600160a01b038216611ec457600080fd5b6001600160a01b03821660009081526002602052604090819020805460ff19169055517f16142d8f56d140e51ef5a88861836c9a65b9af1bab0bbb809efa6b7a9055d9c6906108f1903390859061243c565b7f00000000000000000000000000000000000000000000000000000000000000006001600160a01b03811663dee1f0e4336040516001600160e01b031960e084901b1681526001600160a01b039091166004820152602401602060405180830381865afa158015611f8b573d6000803e3d6000fd5b505050506040513d601f19601f82011682018060405250810190611faf9190612456565b611fcb5760405162461bcd60e51b815260040161087190612478565b6001600160a01b0382166000908152600f60205260409081902080546001600160a01b0319169055517f1616722fe9e1734b9f32ae9302fb74330136cecdc962e25fabc98185c5c92eb0906108f1903390859061243c565b60006001600160a01b03821661203857600080fd5b600054600160a01b900460ff16158061206957506001600160a01b03821660009081526001602052604090205460ff165b92915050565b7f00000000000000000000000000000000000000000000000000000000000000006001600160a01b03811663dee1f0e4336040516001600160e01b031960e084901b1681526001600160a01b039091166004820152602401602060405180830381865afa1580156120e4573d6000803e3d6000fd5b505050506040513d601f19601f820116820180604052508101906121089190612456565b6121245760405162461bcd60e51b815260040161087190612478565b60006009541161213357600080fd5b600982905560408051338152602081018490527fdb02dc087b6dff9517046962b8bebc2baf0dc57c322d08fd72d6ed4197f497cc91016108f1565b7f00000000000000000000000000000000000000000000000000000000000000006001600160a01b03811663dee1f0e4336040516001600160e01b031960e084901b1681526001600160a01b039091166004820152602401602060405180830381865afa1580156121e3573d6000803e3d6000fd5b505050506040513d601f19601f820116820180604052508101906122079190612456565b6122235760405162461bcd60e51b815260040161087190612478565b600b82905560408051338152602081018490527f84bb6fd7054b5db22ce3c0418c9d65f63ce3ba62f757223bde70dcfb7354dd1891016108f1565b6000546001600160a01b031633146122885760405162461bcd60e51b815260040161087190612407565b6001600160a01b0381166122ed5760405162461bcd60e51b815260206004820152602660248201527f4f776e61626c653a206e6577206f776e657220697320746865207a65726f206160448201526564647265737360d01b6064820152608401610871565b6122f6816122f9565b50565b600080546001600160a01b038381166001600160a01b0319831681178455604051919092169283917f8be0079c531659141344cd1fd0a4f28419497f9722a3daafe3b4186f6b6457e09190a35050565b80356001600160a01b03811681146116fe57600080fd5b60006020828403121561237257600080fd5b61237b82612349565b9392505050565b60006020828403121561239457600080fd5b5035919050565b600080604083850312156123ae57600080fd5b6123b783612349565b91506123c560208401612349565b90509250929050565b600080600080608085870312156123e457600080fd5b6123ed85612349565b966020860135965060408601359560600135945092505050565b6020808252818101527f4f776e61626c653a2063616c6c6572206973206e6f7420746865206f776e6572604082015260600190565b6001600160a01b0392831681529116602082015260400190565b60006020828403121561246857600080fd5b8151801515811461237b57600080fd5b6020808252601f908201527f424d5f41434c5f4f4e4c595f474f5645524e414e43455f43414e5f43414c4c0060408201526060019056fea2646970667358221220d946ac2ff190c81773ecdaf0509bb6fdaace48e0347997dc14d50dd25c0ef63364736f6c634300080a0033",
  "libraries": {
    "BespokeTypes": "0x473482d4940F9075B8E3C42ccE22B71eA74D0d2A"
  },
  "devdoc": {
    "kind": "dev",
    "methods": {
      "owner()": {
        "details": "Returns the address of the current owner."
      },
      "renounceOwnership()": {
        "details": "Leaves the contract without owner. It will not be possible to call `onlyOwner` functions anymore. Can only be called by the current owner. NOTE: Renouncing ownership will leave the contract without an owner, thereby removing any functionality that is only available to the owner."
      },
      "transferOwnership(address)": {
        "details": "Transfers ownership of the contract to a new account (`newOwner`). Can only be called by the current owner."
      }
    },
    "version": 1
  },
  "userdoc": {
    "kind": "user",
    "methods": {},
    "version": 1
  },
  "storageLayout": {
    "storage": [
      {
        "astId": 387,
        "contract": "contracts/bespokemarket/OpenSkyBespokeSettings.sol:OpenSkyBespokeSettings",
        "label": "_owner",
        "offset": 0,
        "slot": "0",
        "type": "t_address"
      },
      {
        "astId": 13992,
        "contract": "contracts/bespokemarket/OpenSkyBespokeSettings.sol:OpenSkyBespokeSettings",
        "label": "isWhitelistOn",
        "offset": 20,
        "slot": "0",
        "type": "t_bool"
      },
      {
        "astId": 13997,
        "contract": "contracts/bespokemarket/OpenSkyBespokeSettings.sol:OpenSkyBespokeSettings",
        "label": "_whitelist",
        "offset": 0,
        "slot": "1",
        "type": "t_mapping(t_address,t_struct(WhitelistInfo)16611_storage)"
      },
      {
        "astId": 14001,
        "contract": "contracts/bespokemarket/OpenSkyBespokeSettings.sol:OpenSkyBespokeSettings",
        "label": "_currencyWhitelist",
        "offset": 0,
        "slot": "2",
        "type": "t_mapping(t_address,t_bool)"
      },
      {
        "astId": 14005,
        "contract": "contracts/bespokemarket/OpenSkyBespokeSettings.sol:OpenSkyBespokeSettings",
        "label": "_currencyTransferAdapters",
        "offset": 0,
        "slot": "3",
        "type": "t_mapping(t_address,t_address)"
      },
      {
        "astId": 14008,
        "contract": "contracts/bespokemarket/OpenSkyBespokeSettings.sol:OpenSkyBespokeSettings",
        "label": "marketAddress",
        "offset": 0,
        "slot": "4",
        "type": "t_address"
      },
      {
        "astId": 14011,
        "contract": "contracts/bespokemarket/OpenSkyBespokeSettings.sol:OpenSkyBespokeSettings",
        "label": "borrowLoanAddress",
        "offset": 0,
        "slot": "5",
        "type": "t_address"
      },
      {
        "astId": 14014,
        "contract": "contracts/bespokemarket/OpenSkyBespokeSettings.sol:OpenSkyBespokeSettings",
        "label": "lendLoanAddress",
        "offset": 0,
        "slot": "6",
        "type": "t_address"
      },
      {
        "astId": 14018,
        "contract": "contracts/bespokemarket/OpenSkyBespokeSettings.sol:OpenSkyBespokeSettings",
        "label": "reserveFactor",
        "offset": 0,
        "slot": "7",
        "type": "t_uint256"
      },
      {
        "astId": 14022,
        "contract": "contracts/bespokemarket/OpenSkyBespokeSettings.sol:OpenSkyBespokeSettings",
        "label": "overdueLoanFeeFactor",
        "offset": 0,
        "slot": "8",
        "type": "t_uint256"
      },
      {
        "astId": 14026,
        "contract": "contracts/bespokemarket/OpenSkyBespokeSettings.sol:OpenSkyBespokeSettings",
        "label": "minBorrowDuration",
        "offset": 0,
        "slot": "9",
        "type": "t_uint256"
      },
      {
        "astId": 14030,
        "contract": "contracts/bespokemarket/OpenSkyBespokeSettings.sol:OpenSkyBespokeSettings",
        "label": "maxBorrowDuration",
        "offset": 0,
        "slot": "10",
        "type": "t_uint256"
      },
      {
        "astId": 14034,
        "contract": "contracts/bespokemarket/OpenSkyBespokeSettings.sol:OpenSkyBespokeSettings",
        "label": "overdueDuration",
        "offset": 0,
        "slot": "11",
        "type": "t_uint256"
      },
      {
        "astId": 14042,
        "contract": "contracts/bespokemarket/OpenSkyBespokeSettings.sol:OpenSkyBespokeSettings",
        "label": "TRANSFER_ERC721",
        "offset": 0,
        "slot": "12",
        "type": "t_address"
      },
      {
        "astId": 14044,
        "contract": "contracts/bespokemarket/OpenSkyBespokeSettings.sol:OpenSkyBespokeSettings",
        "label": "TRANSFER_ERC1155",
        "offset": 0,
        "slot": "13",
        "type": "t_address"
      },
      {
        "astId": 14046,
        "contract": "contracts/bespokemarket/OpenSkyBespokeSettings.sol:OpenSkyBespokeSettings",
        "label": "TRANSFER_CURRENCY",
        "offset": 0,
        "slot": "14",
        "type": "t_address"
      },
      {
        "astId": 14050,
        "contract": "contracts/bespokemarket/OpenSkyBespokeSettings.sol:OpenSkyBespokeSettings",
        "label": "_transferAdapters",
        "offset": 0,
        "slot": "15",
        "type": "t_mapping(t_address,t_address)"
      },
      {
        "astId": 14054,
        "contract": "contracts/bespokemarket/OpenSkyBespokeSettings.sol:OpenSkyBespokeSettings",
        "label": "_strategyWhitelist",
        "offset": 0,
        "slot": "16",
        "type": "t_mapping(t_address,t_bool)"
      },
      {
        "astId": 14057,
        "contract": "contracts/bespokemarket/OpenSkyBespokeSettings.sol:OpenSkyBespokeSettings",
        "label": "incentiveControllerAddressLend",
        "offset": 0,
        "slot": "17",
        "type": "t_address"
      },
      {
        "astId": 14060,
        "contract": "contracts/bespokemarket/OpenSkyBespokeSettings.sol:OpenSkyBespokeSettings",
        "label": "incentiveControllerAddressBorrow",
        "offset": 0,
        "slot": "18",
        "type": "t_address"
      }
    ],
    "types": {
      "t_address": {
        "encoding": "inplace",
        "label": "address",
        "numberOfBytes": "20"
      },
      "t_bool": {
        "encoding": "inplace",
        "label": "bool",
        "numberOfBytes": "1"
      },
      "t_mapping(t_address,t_address)": {
        "encoding": "mapping",
        "key": "t_address",
        "label": "mapping(address => address)",
        "numberOfBytes": "32",
        "value": "t_address"
      },
      "t_mapping(t_address,t_bool)": {
        "encoding": "mapping",
        "key": "t_address",
        "label": "mapping(address => bool)",
        "numberOfBytes": "32",
        "value": "t_bool"
      },
      "t_mapping(t_address,t_struct(WhitelistInfo)16611_storage)": {
        "encoding": "mapping",
        "key": "t_address",
        "label": "mapping(address => struct BespokeTypes.WhitelistInfo)",
        "numberOfBytes": "32",
        "value": "t_struct(WhitelistInfo)16611_storage"
      },
      "t_struct(WhitelistInfo)16611_storage": {
        "encoding": "inplace",
        "label": "struct BespokeTypes.WhitelistInfo",
        "members": [
          {
            "astId": 16604,
            "contract": "contracts/bespokemarket/OpenSkyBespokeSettings.sol:OpenSkyBespokeSettings",
            "label": "enabled",
            "offset": 0,
            "slot": "0",
            "type": "t_bool"
          },
          {
            "astId": 16606,
            "contract": "contracts/bespokemarket/OpenSkyBespokeSettings.sol:OpenSkyBespokeSettings",
            "label": "minBorrowDuration",
            "offset": 0,
            "slot": "1",
            "type": "t_uint256"
          },
          {
            "astId": 16608,
            "contract": "contracts/bespokemarket/OpenSkyBespokeSettings.sol:OpenSkyBespokeSettings",
            "label": "maxBorrowDuration",
            "offset": 0,
            "slot": "2",
            "type": "t_uint256"
          },
          {
            "astId": 16610,
            "contract": "contracts/bespokemarket/OpenSkyBespokeSettings.sol:OpenSkyBespokeSettings",
            "label": "overdueDuration",
            "offset": 0,
            "slot": "3",
            "type": "t_uint256"
          }
        ],
        "numberOfBytes": "128"
      },
      "t_uint256": {
        "encoding": "inplace",
        "label": "uint256",
        "numberOfBytes": "32"
      }
    }
  }
}