{
  "address": "0xf884FD0142CABd8d3CcAa31E34902aBb0807a4ad",
  "abi": [
    {
      "inputs": [
        {
          "internalType": "address",
          "name": "SETTINGS_",
          "type": "address"
        },
        {
          "internalType": "address",
          "name": "WETH_",
          "type": "address"
        }
      ],
      "stateMutability": "nonpayable",
      "type": "constructor"
    },
    {
      "anonymous": false,
      "inputs": [
        {
          "indexed": false,
          "internalType": "address",
          "name": "token",
          "type": "address"
        },
        {
          "indexed": false,
          "internalType": "address",
          "name": "spender",
          "type": "address"
        },
        {
          "indexed": false,
          "internalType": "bool",
          "name": "approved",
          "type": "bool"
        }
      ],
      "name": "ApproveERC1155ForAll",
      "type": "event"
    },
    {
      "anonymous": false,
      "inputs": [
        {
          "indexed": false,
          "internalType": "address",
          "name": "token",
          "type": "address"
        },
        {
          "indexed": false,
          "internalType": "address",
          "name": "spender",
          "type": "address"
        },
        {
          "indexed": false,
          "internalType": "uint256",
          "name": "amount",
          "type": "uint256"
        }
      ],
      "name": "ApproveERC20",
      "type": "event"
    },
    {
      "anonymous": false,
      "inputs": [
        {
          "indexed": false,
          "internalType": "address",
          "name": "token",
          "type": "address"
        },
        {
          "indexed": false,
          "internalType": "address",
          "name": "spender",
          "type": "address"
        },
        {
          "indexed": false,
          "internalType": "uint256",
          "name": "tokenId",
          "type": "uint256"
        }
      ],
      "name": "ApproveERC721",
      "type": "event"
    },
    {
      "anonymous": false,
      "inputs": [
        {
          "indexed": false,
          "internalType": "address",
          "name": "token",
          "type": "address"
        },
        {
          "indexed": false,
          "internalType": "address",
          "name": "spender",
          "type": "address"
        },
        {
          "indexed": false,
          "internalType": "bool",
          "name": "approved",
          "type": "bool"
        }
      ],
      "name": "ApproveERC721ForAll",
      "type": "event"
    },
    {
      "anonymous": false,
      "inputs": [
        {
          "indexed": false,
          "internalType": "uint256",
          "name": "amount",
          "type": "uint256"
        }
      ],
      "name": "ConvertETHToWETH",
      "type": "event"
    },
    {
      "anonymous": false,
      "inputs": [
        {
          "indexed": true,
          "internalType": "address",
          "name": "token",
          "type": "address"
        },
        {
          "indexed": false,
          "internalType": "uint256",
          "name": "tokenId",
          "type": "uint256"
        },
        {
          "indexed": false,
          "internalType": "uint256",
          "name": "amount",
          "type": "uint256"
        },
        {
          "indexed": true,
          "internalType": "address",
          "name": "from",
          "type": "address"
        }
      ],
      "name": "DepositERC1155",
      "type": "event"
    },
    {
      "anonymous": false,
      "inputs": [
        {
          "indexed": true,
          "internalType": "address",
          "name": "token",
          "type": "address"
        },
        {
          "indexed": false,
          "internalType": "uint256[]",
          "name": "tokenId",
          "type": "uint256[]"
        },
        {
          "indexed": false,
          "internalType": "uint256[]",
          "name": "amount",
          "type": "uint256[]"
        },
        {
          "indexed": true,
          "internalType": "address",
          "name": "from",
          "type": "address"
        }
      ],
      "name": "DepositERC1155Bulk",
      "type": "event"
    },
    {
      "anonymous": false,
      "inputs": [
        {
          "indexed": true,
          "internalType": "address",
          "name": "token",
          "type": "address"
        },
        {
          "indexed": false,
          "internalType": "uint256",
          "name": "tokenId",
          "type": "uint256"
        },
        {
          "indexed": true,
          "internalType": "address",
          "name": "from",
          "type": "address"
        }
      ],
      "name": "DepositERC721",
      "type": "event"
    },
    {
      "anonymous": false,
      "inputs": [
        {
          "indexed": false,
          "internalType": "uint256",
          "name": "amount",
          "type": "uint256"
        },
        {
          "indexed": true,
          "internalType": "address",
          "name": "from",
          "type": "address"
        }
      ],
      "name": "DepositETH",
      "type": "event"
    },
    {
      "anonymous": false,
      "inputs": [
        {
          "indexed": true,
          "internalType": "address",
          "name": "receiver",
          "type": "address"
        },
        {
          "indexed": false,
          "internalType": "address",
          "name": "sender",
          "type": "address"
        },
        {
          "indexed": true,
          "internalType": "address",
          "name": "nftAddress",
          "type": "address"
        },
        {
          "indexed": true,
          "internalType": "uint256",
          "name": "tokenId",
          "type": "uint256"
        }
      ],
      "name": "FlashClaim",
      "type": "event"
    },
    {
      "anonymous": false,
      "inputs": [
        {
          "indexed": true,
          "internalType": "address",
          "name": "token",
          "type": "address"
        },
        {
          "indexed": false,
          "internalType": "uint256",
          "name": "tokenId",
          "type": "uint256"
        },
        {
          "indexed": false,
          "internalType": "uint256",
          "name": "amount",
          "type": "uint256"
        },
        {
          "indexed": true,
          "internalType": "address",
          "name": "from",
          "type": "address"
        }
      ],
      "name": "WithdrawERC1155",
      "type": "event"
    },
    {
      "anonymous": false,
      "inputs": [
        {
          "indexed": true,
          "internalType": "address",
          "name": "token",
          "type": "address"
        },
        {
          "indexed": false,
          "internalType": "uint256",
          "name": "amount",
          "type": "uint256"
        },
        {
          "indexed": false,
          "internalType": "address",
          "name": "to",
          "type": "address"
        }
      ],
      "name": "WithdrawERC20",
      "type": "event"
    },
    {
      "anonymous": false,
      "inputs": [
        {
          "indexed": true,
          "internalType": "address",
          "name": "token",
          "type": "address"
        },
        {
          "indexed": false,
          "internalType": "uint256",
          "name": "tokenId",
          "type": "uint256"
        },
        {
          "indexed": true,
          "internalType": "address",
          "name": "to",
          "type": "address"
        }
      ],
      "name": "WithdrawERC721",
      "type": "event"
    },
    {
      "anonymous": false,
      "inputs": [
        {
          "indexed": false,
          "internalType": "uint256",
          "name": "amount",
          "type": "uint256"
        },
        {
          "indexed": false,
          "internalType": "address",
          "name": "to",
          "type": "address"
        }
      ],
      "name": "WithdrawETH",
      "type": "event"
    },
    {
      "inputs": [],
      "name": "SETTINGS",
      "outputs": [
        {
          "internalType": "contract IOpenSkySettings",
          "name": "",
          "type": "address"
        }
      ],
      "stateMutability": "view",
      "type": "function"
    },
    {
      "inputs": [],
      "name": "WETH",
      "outputs": [
        {
          "internalType": "contract IWETH",
          "name": "",
          "type": "address"
        }
      ],
      "stateMutability": "view",
      "type": "function"
    },
    {
      "inputs": [
        {
          "internalType": "address",
          "name": "token",
          "type": "address"
        },
        {
          "internalType": "address",
          "name": "spender",
          "type": "address"
        },
        {
          "internalType": "bool",
          "name": "approved",
          "type": "bool"
        }
      ],
      "name": "approveERC1155ForAll",
      "outputs": [],
      "stateMutability": "nonpayable",
      "type": "function"
    },
    {
      "inputs": [
        {
          "internalType": "address",
          "name": "token",
          "type": "address"
        },
        {
          "internalType": "address",
          "name": "spender",
          "type": "address"
        },
        {
          "internalType": "uint256",
          "name": "amount",
          "type": "uint256"
        }
      ],
      "name": "approveERC20",
      "outputs": [],
      "stateMutability": "nonpayable",
      "type": "function"
    },
    {
      "inputs": [
        {
          "internalType": "address",
          "name": "token",
          "type": "address"
        },
        {
          "internalType": "address",
          "name": "spender",
          "type": "address"
        },
        {
          "internalType": "uint256",
          "name": "tokenId",
          "type": "uint256"
        }
      ],
      "name": "approveERC721",
      "outputs": [],
      "stateMutability": "nonpayable",
      "type": "function"
    },
    {
      "inputs": [
        {
          "internalType": "address",
          "name": "token",
          "type": "address"
        },
        {
          "internalType": "address",
          "name": "spender",
          "type": "address"
        },
        {
          "internalType": "bool",
          "name": "approved",
          "type": "bool"
        }
      ],
      "name": "approveERC721ForAll",
      "outputs": [],
      "stateMutability": "nonpayable",
      "type": "function"
    },
    {
      "inputs": [
        {
          "internalType": "uint256",
          "name": "amount",
          "type": "uint256"
        }
      ],
      "name": "convertETHToWETH",
      "outputs": [],
      "stateMutability": "nonpayable",
      "type": "function"
    },
    {
      "inputs": [
        {
          "internalType": "address",
          "name": "receiverAddress",
          "type": "address"
        },
        {
          "internalType": "address[]",
          "name": "tokens",
          "type": "address[]"
        },
        {
          "internalType": "uint256[]",
          "name": "tokenIds",
          "type": "uint256[]"
        },
        {
          "internalType": "bytes",
          "name": "params",
          "type": "bytes"
        }
      ],
      "name": "flashClaim",
      "outputs": [],
      "stateMutability": "nonpayable",
      "type": "function"
    },
    {
      "inputs": [
        {
          "internalType": "address",
          "name": "",
          "type": "address"
        },
        {
          "internalType": "address",
          "name": "from",
          "type": "address"
        },
        {
          "internalType": "uint256[]",
          "name": "ids",
          "type": "uint256[]"
        },
        {
          "internalType": "uint256[]",
          "name": "amounts",
          "type": "uint256[]"
        },
        {
          "internalType": "bytes",
          "name": "",
          "type": "bytes"
        }
      ],
      "name": "onERC1155BatchReceived",
      "outputs": [
        {
          "internalType": "bytes4",
          "name": "",
          "type": "bytes4"
        }
      ],
      "stateMutability": "nonpayable",
      "type": "function"
    },
    {
      "inputs": [
        {
          "internalType": "address",
          "name": "",
          "type": "address"
        },
        {
          "internalType": "address",
          "name": "from",
          "type": "address"
        },
        {
          "internalType": "uint256",
          "name": "id",
          "type": "uint256"
        },
        {
          "internalType": "uint256",
          "name": "amount",
          "type": "uint256"
        },
        {
          "internalType": "bytes",
          "name": "",
          "type": "bytes"
        }
      ],
      "name": "onERC1155Received",
      "outputs": [
        {
          "internalType": "bytes4",
          "name": "",
          "type": "bytes4"
        }
      ],
      "stateMutability": "nonpayable",
      "type": "function"
    },
    {
      "inputs": [
        {
          "internalType": "address",
          "name": "",
          "type": "address"
        },
        {
          "internalType": "address",
          "name": "from",
          "type": "address"
        },
        {
          "internalType": "uint256",
          "name": "id",
          "type": "uint256"
        },
        {
          "internalType": "bytes",
          "name": "",
          "type": "bytes"
        }
      ],
      "name": "onERC721Received",
      "outputs": [
        {
          "internalType": "bytes4",
          "name": "",
          "type": "bytes4"
        }
      ],
      "stateMutability": "nonpayable",
      "type": "function"
    },
    {
      "inputs": [
        {
          "internalType": "bytes4",
          "name": "interfaceId",
          "type": "bytes4"
        }
      ],
      "name": "supportsInterface",
      "outputs": [
        {
          "internalType": "bool",
          "name": "",
          "type": "bool"
        }
      ],
      "stateMutability": "view",
      "type": "function"
    },
    {
      "inputs": [
        {
          "internalType": "address",
          "name": "to",
          "type": "address"
        },
        {
          "internalType": "address",
          "name": "token",
          "type": "address"
        },
        {
          "internalType": "uint256",
          "name": "tokenId",
          "type": "uint256"
        },
        {
          "internalType": "uint256",
          "name": "amount",
          "type": "uint256"
        }
      ],
      "name": "withdrawERC1155",
      "outputs": [],
      "stateMutability": "nonpayable",
      "type": "function"
    },
    {
      "inputs": [
        {
          "internalType": "address",
          "name": "token",
          "type": "address"
        },
        {
          "internalType": "uint256",
          "name": "amount",
          "type": "uint256"
        },
        {
          "internalType": "address",
          "name": "to",
          "type": "address"
        }
      ],
      "name": "withdrawERC20",
      "outputs": [],
      "stateMutability": "nonpayable",
      "type": "function"
    },
    {
      "inputs": [
        {
          "internalType": "address",
          "name": "token",
          "type": "address"
        },
        {
          "internalType": "uint256",
          "name": "tokenId",
          "type": "uint256"
        },
        {
          "internalType": "address",
          "name": "to",
          "type": "address"
        }
      ],
      "name": "withdrawERC721",
      "outputs": [],
      "stateMutability": "nonpayable",
      "type": "function"
    },
    {
      "inputs": [
        {
          "internalType": "uint256",
          "name": "amount",
          "type": "uint256"
        },
        {
          "internalType": "address",
          "name": "to",
          "type": "address"
        }
      ],
      "name": "withdrawETH",
      "outputs": [],
      "stateMutability": "nonpayable",
      "type": "function"
    },
    {
      "stateMutability": "payable",
      "type": "receive"
    }
  ],
  "transactionHash": "0xf1cf736f702e2b78ddef881815e18bac9fed87a7f6404ae38e2d5dbacc96e64b",
  "args": [
    "0x24C54B91D29e8319976030581909732336E8B2bb",
    "0x4200000000000000000000000000000000000023"
  ],
  "solcInputHash": "88f70ef30a97ad95dcfad3d4587a7e7c",
  "bytecode": "0x60c06040523480156200001157600080fd5b50604051620028a9380380620028a983398101604081905262000034916200006e565b60016000556001600160a01b039182166080521660a052620000a6565b80516001600160a01b03811681146200006957600080fd5b919050565b600080604083850312156200008257600080fd5b6200008d8362000051565b91506200009d6020840162000051565b90509250929050565b60805160a05161279062000119600039600081816102d90152611994015260008181610325015281816103ab015281816106230152818161083901528181610a5e01528181610fb801528181611131015281816112fb015281816114ca015281816116ba015261187c01526127906000f3fe6080604052600436106100f65760003560e01c80637b9f76b51161008a578063ade97ab511610059578063ade97ab514610313578063bc197c8114610347578063c1365ffb14610367578063f23a6e611461038757600080fd5b80637b9f76b514610267578063a0edb48b14610287578063a8e5e4aa146102a7578063ad5c4648146102c757600080fd5b8063453b609c116100c6578063453b609c146101e75780635df27f68146102075780635fc3ea0b146102275780636e0bc3ec1461024757600080fd5b8062a7230a1461013757806301ffc9a714610159578063150b7a021461018e57806336118b52146101c757600080fd5b366101325760405134815233907f120444be79b9fdf050e0985e12e289e693dc30ecfd79179bd6f8893be5476c669060200160405180910390a2005b600080fd5b34801561014357600080fd5b50610157610152366004611f18565b6103a7565b005b34801561016557600080fd5b50610179610174366004611f59565b61056d565b60405190151581526020015b60405180910390f35b34801561019a57600080fd5b506101ae6101a936600461203a565b6105bf565b6040516001600160e01b03199091168152602001610185565b3480156101d357600080fd5b506101576101e23660046120a6565b61061f565b3480156101f357600080fd5b506101576102023660046120e4565b610835565b34801561021357600080fd5b5061015761022236600461217b565b6109ff565b34801561023357600080fd5b50610157610242366004612255565b610fb4565b34801561025357600080fd5b506101576102623660046120e4565b61112d565b34801561027357600080fd5b50610157610282366004612255565b6112f7565b34801561029357600080fd5b506101576102a236600461228c565b6114c6565b3480156102b357600080fd5b506101576102c2366004611f18565b6116b6565b3480156102d357600080fd5b506102fb7f000000000000000000000000000000000000000000000000000000000000000081565b6040516001600160a01b039091168152602001610185565b34801561031f57600080fd5b506102fb7f000000000000000000000000000000000000000000000000000000000000000081565b34801561035357600080fd5b506101ae610362366004612347565b611817565b34801561037357600080fd5b506101576103823660046123f5565b611878565b34801561039357600080fd5b506101ae6103a236600461240e565b611a43565b60007f00000000000000000000000000000000000000000000000000000000000000006001600160a01b0316639a9dbb996040518163ffffffff1660e01b8152600401602060405180830381865afa158015610407573d6000803e3d6000fd5b505050506040513d601f19601f8201168201806040525081019061042b9190612477565b90506001600160a01b03811663dee1f0e4336040516001600160e01b031960e084901b1681526001600160a01b039091166004820152602401602060405180830381865afa158015610481573d6000803e3d6000fd5b505050506040513d601f19601f820116820180604052508101906104a59190612494565b6104ca5760405162461bcd60e51b81526004016104c1906124b1565b60405180910390fd5b60405163095ea7b360e01b81526001600160a01b0384811660048301526024820184905285169063095ea7b390604401600060405180830381600087803b15801561051457600080fd5b505af1158015610528573d6000803e3d6000fd5b505050507f5b8739d7145ecc145409bcf673430fedd638893918572926b1049b554757e90484848460405161055f939291906124e8565b60405180910390a150505050565b60006001600160e01b03198216630a85bd0160e11b148061059e57506001600160e01b03198216630271189760e51b145b806105b957506301ffc9a760e01b6001600160e01b03198316145b92915050565b6000836001600160a01b0316336001600160a01b03167fb6219d009b79f4e4fc9b2f61614df0c5340f2ae5a531b74cc33ddc09df5de8a88560405161060691815260200190565b60405180910390a350630a85bd0160e11b949350505050565b60007f00000000000000000000000000000000000000000000000000000000000000006001600160a01b0316639a9dbb996040518163ffffffff1660e01b8152600401602060405180830381865afa15801561067f573d6000803e3d6000fd5b505050506040513d601f19601f820116820180604052508101906106a39190612477565b90506001600160a01b03811663dee1f0e4336040516001600160e01b031960e084901b1681526001600160a01b039091166004820152602401602060405180830381865afa1580156106f9573d6000803e3d6000fd5b505050506040513d601f19601f8201168201806040525081019061071d9190612494565b6107395760405162461bcd60e51b81526004016104c1906124b1565b600083116107895760405162461bcd60e51b815260206004820152601b60248201527f57495448445241575f414d4f554e545f4e4f545f414c4c4f574544000000000060448201526064016104c1565b824710156107e55760405162461bcd60e51b815260206004820152602360248201527f57495448445241575f414d4f554e545f4249474745525f5448414e5f42414c416044820152624e434560e81b60648201526084016104c1565b6107ef8284611a9e565b604080518481526001600160a01b03841660208201527fba0408b66a1c4035a8e68eca95042e5619e9cc3a1811ebac1661eb4aa358667e910160405180910390a1505050565b60007f00000000000000000000000000000000000000000000000000000000000000006001600160a01b0316639a9dbb996040518163ffffffff1660e01b8152600401602060405180830381865afa158015610895573d6000803e3d6000fd5b505050506040513d601f19601f820116820180604052508101906108b99190612477565b90506001600160a01b03811663dee1f0e4336040516001600160e01b031960e084901b1681526001600160a01b039091166004820152602401602060405180830381865afa15801561090f573d6000803e3d6000fd5b505050506040513d601f19601f820116820180604052508101906109339190612494565b61094f5760405162461bcd60e51b81526004016104c1906124b1565b60405163a22cb46560e01b81526001600160a01b038481166004830152831515602483015285169063a22cb46590604401600060405180830381600087803b15801561099a57600080fd5b505af11580156109ae573d6000803e3d6000fd5b5050604080516001600160a01b03808916825287166020820152851515918101919091527f84e97615a8997b4bab46d3bb9b033e196f87c998b9ef16257b78515809e921fe9250606001905061055f565b60026000541415610a525760405162461bcd60e51b815260206004820152601f60248201527f5265656e7472616e637947756172643a207265656e7472616e742063616c6c0060448201526064016104c1565b600260008190555060007f00000000000000000000000000000000000000000000000000000000000000006001600160a01b0316639a9dbb996040518163ffffffff1660e01b8152600401602060405180830381865afa158015610aba573d6000803e3d6000fd5b505050506040513d601f19601f82011682018060405250810190610ade9190612477565b90506001600160a01b03811663dee1f0e4336040516001600160e01b031960e084901b1681526001600160a01b039091166004820152602401602060405180830381865afa158015610b34573d6000803e3d6000fd5b505050506040513d601f19601f82011682018060405250810190610b589190612494565b610b745760405162461bcd60e51b81526004016104c1906124b1565b858414610bc35760405162461bcd60e51b815260206004820152601b60248201527f44565f464c4153485f434c41494d5f504152414d535f4552524f52000000000060448201526064016104c1565b6000885b85821015610d865730898984818110610be257610be261250c565b9050602002016020810190610bf79190612522565b6001600160a01b0316636352211e898986818110610c1757610c1761250c565b905060200201356040518263ffffffff1660e01b8152600401610c3c91815260200190565b602060405180830381865afa158015610c59573d6000803e3d6000fd5b505050506040513d601f19601f82011682018060405250810190610c7d9190612477565b6001600160a01b031614610cd35760405162461bcd60e51b815260206004820152601760248201527f44565f444f45535f4e4f545f4f574e5f5448455f4e465400000000000000000060448201526064016104c1565b888883818110610ce557610ce561250c565b9050602002016020810190610cfa9190612522565b6001600160a01b03166342842e0e308c8a8a87818110610d1c57610d1c61250c565b905060200201356040518463ffffffff1660e01b8152600401610d41939291906124e8565b600060405180830381600087803b158015610d5b57600080fd5b505af1158015610d6f573d6000803e3d6000fd5b505050508180610d7e9061253f565b925050610bc7565b604051628e896f60e41b81526001600160a01b038216906308e896f090610dbf908c908c908c908c90339030908e908e90600401612591565b6020604051808303816000875af1158015610dde573d6000803e3d6000fd5b505050506040513d601f19601f82011682018060405250810190610e029190612494565b610e4e5760405162461bcd60e51b815260206004820152601c60248201527f44565f464c415348434c41494d5f4558454355544f525f4552524f520000000060448201526064016104c1565b600091505b85821015610fa357888883818110610e6d57610e6d61250c565b9050602002016020810190610e829190612522565b6001600160a01b03166342842e0e8b308a8a87818110610ea457610ea461250c565b905060200201356040518463ffffffff1660e01b8152600401610ec9939291906124e8565b600060405180830381600087803b158015610ee357600080fd5b505af1158015610ef7573d6000803e3d6000fd5b50505050868683818110610f0d57610f0d61250c565b90506020020135898984818110610f2657610f2661250c565b9050602002016020810190610f3b9190612522565b6001600160a01b03168b6001600160a01b03167f6bac1c66016500cd7b62d69e86268760baac6cd34a70003af66ffa8a97983216610f763390565b6040516001600160a01b03909116815260200160405180910390a481610f9b8161253f565b925050610e53565b505060016000555050505050505050565b60007f00000000000000000000000000000000000000000000000000000000000000006001600160a01b0316639a9dbb996040518163ffffffff1660e01b8152600401602060405180830381865afa158015611014573d6000803e3d6000fd5b505050506040513d601f19601f820116820180604052508101906110389190612477565b90506001600160a01b03811663dee1f0e4336040516001600160e01b031960e084901b1681526001600160a01b039091166004820152602401602060405180830381865afa15801561108e573d6000803e3d6000fd5b505050506040513d601f19601f820116820180604052508101906110b29190612494565b6110ce5760405162461bcd60e51b81526004016104c1906124b1565b6110e26001600160a01b0385168385611b3c565b604080518481526001600160a01b0384811660208301528616917f15e848750ab66cd66f07bebaf8dab757d6d4af0895afc4ff867f35baf163ee2d910160405180910390a250505050565b60007f00000000000000000000000000000000000000000000000000000000000000006001600160a01b0316639a9dbb996040518163ffffffff1660e01b8152600401602060405180830381865afa15801561118d573d6000803e3d6000fd5b505050506040513d601f19601f820116820180604052508101906111b19190612477565b90506001600160a01b03811663dee1f0e4336040516001600160e01b031960e084901b1681526001600160a01b039091166004820152602401602060405180830381865afa158015611207573d6000803e3d6000fd5b505050506040513d601f19601f8201168201806040525081019061122b9190612494565b6112475760405162461bcd60e51b81526004016104c1906124b1565b60405163a22cb46560e01b81526001600160a01b038481166004830152831515602483015285169063a22cb46590604401600060405180830381600087803b15801561129257600080fd5b505af11580156112a6573d6000803e3d6000fd5b5050604080516001600160a01b03808916825287166020820152851515918101919091527f4975f9c82e7a9ff1787f1914e94d3fdd87ec1c062d5be3da53eeefa2eea06f739250606001905061055f565b60007f00000000000000000000000000000000000000000000000000000000000000006001600160a01b0316639a9dbb996040518163ffffffff1660e01b8152600401602060405180830381865afa158015611357573d6000803e3d6000fd5b505050506040513d601f19601f8201168201806040525081019061137b9190612477565b90506001600160a01b03811663dee1f0e4336040516001600160e01b031960e084901b1681526001600160a01b039091166004820152602401602060405180830381865afa1580156113d1573d6000803e3d6000fd5b505050506040513d601f19601f820116820180604052508101906113f59190612494565b6114115760405162461bcd60e51b81526004016104c1906124b1565b604051632142170760e11b81526001600160a01b038516906342842e0e90611441903090869088906004016124e8565b600060405180830381600087803b15801561145b57600080fd5b505af115801561146f573d6000803e3d6000fd5b50505050816001600160a01b0316846001600160a01b03167f7d7d06fee8f280e47a7b6a0548f6dffbe5df52f1c1eb012a0d6a41f4a0f350c9856040516114b891815260200190565b60405180910390a350505050565b60007f00000000000000000000000000000000000000000000000000000000000000006001600160a01b0316639a9dbb996040518163ffffffff1660e01b8152600401602060405180830381865afa158015611526573d6000803e3d6000fd5b505050506040513d601f19601f8201168201806040525081019061154a9190612477565b90506001600160a01b03811663dee1f0e4336040516001600160e01b031960e084901b1681526001600160a01b039091166004820152602401602060405180830381865afa1580156115a0573d6000803e3d6000fd5b505050506040513d601f19601f820116820180604052508101906115c49190612494565b6115e05760405162461bcd60e51b81526004016104c1906124b1565b604051637921219560e11b81523060048201526001600160a01b038681166024830152604482018590526064820184905260a06084830152600160a4830152600360fc1b60c483015285169063f242432a9060e401600060405180830381600087803b15801561164f57600080fd5b505af1158015611663573d6000803e3d6000fd5b505060408051868152602081018690526001600160a01b03808a169450881692507ffb5471fdf60f5b676c3aab864f67d0be1f974c75f74cff7675295cfb339f9940910160405180910390a35050505050565b60007f00000000000000000000000000000000000000000000000000000000000000006001600160a01b0316639a9dbb996040518163ffffffff1660e01b8152600401602060405180830381865afa158015611716573d6000803e3d6000fd5b505050506040513d601f19601f8201168201806040525081019061173a9190612477565b90506001600160a01b03811663dee1f0e4336040516001600160e01b031960e084901b1681526001600160a01b039091166004820152602401602060405180830381865afa158015611790573d6000803e3d6000fd5b505050506040513d601f19601f820116820180604052508101906117b49190612494565b6117d05760405162461bcd60e51b81526004016104c1906124b1565b6117e46001600160a01b0385168484611b9f565b7f310e19bf1a884e11fd3bc62d238aadd7a5ba195e15a27b0888ec93407af3e39984848460405161055f939291906124e8565b6000846001600160a01b0316336001600160a01b03167f0d6928670f3243a6a17ef2c8e072419b0240bb3867270781e7a392cfb48cfd06868660405161185e929190612694565b60405180910390a35063bc197c8160e01b95945050505050565b60007f00000000000000000000000000000000000000000000000000000000000000006001600160a01b0316639a9dbb996040518163ffffffff1660e01b8152600401602060405180830381865afa1580156118d8573d6000803e3d6000fd5b505050506040513d601f19601f820116820180604052508101906118fc9190612477565b90506001600160a01b03811663dee1f0e4336040516001600160e01b031960e084901b1681526001600160a01b039091166004820152602401602060405180830381865afa158015611952573d6000803e3d6000fd5b505050506040513d601f19601f820116820180604052508101906119769190612494565b6119925760405162461bcd60e51b81526004016104c1906124b1565b7f00000000000000000000000000000000000000000000000000000000000000006001600160a01b031663d0e30db0836040518263ffffffff1660e01b81526004016000604051808303818588803b1580156119ed57600080fd5b505af1158015611a01573d6000803e3d6000fd5b50505050507fd89c7e59a2afe2827218536e72fef5c8925cce451ae58f27fb8394f9b267cb1882604051611a3791815260200190565b60405180910390a15050565b60408051848152602081018490526000916001600160a01b0387169133917fbbbe3754d41a9a88a068bdc1983426fa46ac272e729253f77bdb30956c951e4a910160405180910390a35063f23a6e6160e01b95945050505050565b6000826001600160a01b03168260405160006040518083038185875af1925050503d8060008114611aeb576040519150601f19603f3d011682016040523d82523d6000602084013e611af0565b606091505b5050905080611b375760405162461bcd60e51b815260206004820152601360248201527211551217d514905394d1915497d19052531151606a1b60448201526064016104c1565b505050565b6040516001600160a01b038316602482015260448101829052611b3790849063a9059cbb60e01b906064015b60408051601f198184030181529190526020810180516001600160e01b03166001600160e01b031990931692909217909152611cb4565b801580611c195750604051636eb1769f60e11b81523060048201526001600160a01b03838116602483015284169063dd62ed3e90604401602060405180830381865afa158015611bf3573d6000803e3d6000fd5b505050506040513d601f19601f82011682018060405250810190611c1791906126c2565b155b611c845760405162461bcd60e51b815260206004820152603660248201527f5361666545524332303a20617070726f76652066726f6d206e6f6e2d7a65726f60448201527520746f206e6f6e2d7a65726f20616c6c6f77616e636560501b60648201526084016104c1565b6040516001600160a01b038316602482015260448101829052611b3790849063095ea7b360e01b90606401611b68565b6000611d09826040518060400160405280602081526020017f5361666545524332303a206c6f772d6c6576656c2063616c6c206661696c6564815250856001600160a01b0316611d869092919063ffffffff16565b805190915015611b375780806020019051810190611d279190612494565b611b375760405162461bcd60e51b815260206004820152602a60248201527f5361666545524332303a204552433230206f7065726174696f6e20646964206e6044820152691bdd081cdd58d8d9595960b21b60648201526084016104c1565b6060611d958484600085611d9f565b90505b9392505050565b606082471015611e005760405162461bcd60e51b815260206004820152602660248201527f416464726573733a20696e73756666696369656e742062616c616e636520666f6044820152651c8818d85b1b60d21b60648201526084016104c1565b843b611e4e5760405162461bcd60e51b815260206004820152601d60248201527f416464726573733a2063616c6c20746f206e6f6e2d636f6e747261637400000060448201526064016104c1565b600080866001600160a01b03168587604051611e6a919061270b565b60006040518083038185875af1925050503d8060008114611ea7576040519150601f19603f3d011682016040523d82523d6000602084013e611eac565b606091505b5091509150611ebc828286611ec7565b979650505050505050565b60608315611ed6575081611d98565b825115611ee65782518084602001fd5b8160405162461bcd60e51b81526004016104c19190612727565b6001600160a01b0381168114611f1557600080fd5b50565b600080600060608486031215611f2d57600080fd5b8335611f3881611f00565b92506020840135611f4881611f00565b929592945050506040919091013590565b600060208284031215611f6b57600080fd5b81356001600160e01b031981168114611d9857600080fd5b634e487b7160e01b600052604160045260246000fd5b604051601f8201601f1916810167ffffffffffffffff81118282101715611fc257611fc2611f83565b604052919050565b600082601f830112611fdb57600080fd5b813567ffffffffffffffff811115611ff557611ff5611f83565b612008601f8201601f1916602001611f99565b81815284602083860101111561201d57600080fd5b816020850160208301376000918101602001919091529392505050565b6000806000806080858703121561205057600080fd5b843561205b81611f00565b9350602085013561206b81611f00565b925060408501359150606085013567ffffffffffffffff81111561208e57600080fd5b61209a87828801611fca565b91505092959194509250565b600080604083850312156120b957600080fd5b8235915060208301356120cb81611f00565b809150509250929050565b8015158114611f1557600080fd5b6000806000606084860312156120f957600080fd5b833561210481611f00565b9250602084013561211481611f00565b91506040840135612124816120d6565b809150509250925092565b60008083601f84011261214157600080fd5b50813567ffffffffffffffff81111561215957600080fd5b6020830191508360208260051b850101111561217457600080fd5b9250929050565b60008060008060008060006080888a03121561219657600080fd5b87356121a181611f00565b9650602088013567ffffffffffffffff808211156121be57600080fd5b6121ca8b838c0161212f565b909850965060408a01359150808211156121e357600080fd5b6121ef8b838c0161212f565b909650945060608a013591508082111561220857600080fd5b818a0191508a601f83011261221c57600080fd5b81358181111561222b57600080fd5b8b602082850101111561223d57600080fd5b60208301945080935050505092959891949750929550565b60008060006060848603121561226a57600080fd5b833561227581611f00565b925060208401359150604084013561212481611f00565b600080600080608085870312156122a257600080fd5b84356122ad81611f00565b935060208501356122bd81611f00565b93969395505050506040820135916060013590565b600082601f8301126122e357600080fd5b8135602067ffffffffffffffff8211156122ff576122ff611f83565b8160051b61230e828201611f99565b928352848101820192828101908785111561232857600080fd5b83870192505b84831015611ebc5782358252918301919083019061232e565b600080600080600060a0868803121561235f57600080fd5b853561236a81611f00565b9450602086013561237a81611f00565b9350604086013567ffffffffffffffff8082111561239757600080fd5b6123a389838a016122d2565b945060608801359150808211156123b957600080fd5b6123c589838a016122d2565b935060808801359150808211156123db57600080fd5b506123e888828901611fca565b9150509295509295909350565b60006020828403121561240757600080fd5b5035919050565b600080600080600060a0868803121561242657600080fd5b853561243181611f00565b9450602086013561244181611f00565b93506040860135925060608601359150608086013567ffffffffffffffff81111561246b57600080fd5b6123e888828901611fca565b60006020828403121561248957600080fd5b8151611d9881611f00565b6000602082840312156124a657600080fd5b8151611d98816120d6565b6020808252601c908201527f41434c5f4f4e4c595f474f5645524e414e43455f43414e5f43414c4c00000000604082015260600190565b6001600160a01b039384168152919092166020820152604081019190915260600190565b634e487b7160e01b600052603260045260246000fd5b60006020828403121561253457600080fd5b8135611d9881611f00565b600060001982141561256157634e487b7160e01b600052601160045260246000fd5b5060010190565b81835281816020850137506000828201602090810191909152601f909101601f19169091010190565b60a0808252810188905260008960c08301825b8b8110156125d45782356125b781611f00565b6001600160a01b03168252602092830192909101906001016125a4565b5083810360208501528881526001600160fb1b038911156125f457600080fd5b8860051b9150818a6020830137818101915050602081016000815261262460408501896001600160a01b03169052565b6001600160a01b03871660608501526020848303016080850152612649818688612568565b9c9b505050505050505050505050565b600081518084526020808501945080840160005b838110156126895781518752958201959082019060010161266d565b509495945050505050565b6040815260006126a76040830185612659565b82810360208401526126b98185612659565b95945050505050565b6000602082840312156126d457600080fd5b5051919050565b60005b838110156126f65781810151838201526020016126de565b83811115612705576000848401525b50505050565b6000825161271d8184602087016126db565b9190910192915050565b60208152600082518060208401526127468160408501602087016126db565b601f01601f1916919091016040019291505056fea264697066735822122055d1885edfa59984947c91958c8d44c20aa97b6a9d11b833ce856b5c2eb1356f64736f6c634300080a0033",
  "devdoc": {
    "author": "OpenSky Labs",
    "kind": "dev",
    "methods": {},
    "title": "OpenSkyDaoVault contract",
    "version": 1
  },
  "userdoc": {
    "kind": "user",
    "methods": {},
    "notice": "Implementation of vault for OpenSky Dao*",
    "version": 1
  },
  "storageLayout": {
    "storage": [
      {
        "astId": 1379,
        "contract": "contracts/vault/OpenSkyDaoVault.sol:OpenSkyDaoVault",
        "label": "_status",
        "offset": 0,
        "slot": "0",
        "type": "t_uint256"
      }
    ],
    "types": {
      "t_uint256": {
        "encoding": "inplace",
        "label": "uint256",
        "numberOfBytes": "32"
      }
    }
  }
}