{
  "address": "0x711dC5Cec4Efc7F852b02dC44096acC0E90b9E0e",
  "abi": [
    {
      "inputs": [
        {
          "internalType": "address",
          "name": "settings_",
          "type": "address"
        },
        {
          "internalType": "address",
          "name": "bespoke_settings_",
          "type": "address"
        }
      ],
      "stateMutability": "nonpayable",
      "type": "constructor"
    },
    {
      "anonymous": false,
      "inputs": [
        {
          "indexed": true,
          "internalType": "address",
          "name": "token",
          "type": "address"
        },
        {
          "indexed": true,
          "internalType": "address",
          "name": "to",
          "type": "address"
        },
        {
          "indexed": false,
          "internalType": "uint256[]",
          "name": "ids",
          "type": "uint256[]"
        },
        {
          "indexed": false,
          "internalType": "uint256[]",
          "name": "amounts",
          "type": "uint256[]"
        },
        {
          "indexed": false,
          "internalType": "bytes",
          "name": "data",
          "type": "bytes"
        }
      ],
      "name": "ClaimERC1155Airdrop",
      "type": "event"
    },
    {
      "anonymous": false,
      "inputs": [
        {
          "indexed": true,
          "internalType": "address",
          "name": "token",
          "type": "address"
        },
        {
          "indexed": true,
          "internalType": "address",
          "name": "to",
          "type": "address"
        },
        {
          "indexed": false,
          "internalType": "uint256",
          "name": "amount",
          "type": "uint256"
        }
      ],
      "name": "ClaimERC20Airdrop",
      "type": "event"
    },
    {
      "anonymous": false,
      "inputs": [
        {
          "indexed": true,
          "internalType": "address",
          "name": "token",
          "type": "address"
        },
        {
          "indexed": true,
          "internalType": "address",
          "name": "to",
          "type": "address"
        },
        {
          "indexed": false,
          "internalType": "uint256[]",
          "name": "ids",
          "type": "uint256[]"
        }
      ],
      "name": "ClaimERC721Airdrop",
      "type": "event"
    },
    {
      "anonymous": false,
      "inputs": [
        {
          "indexed": true,
          "internalType": "address",
          "name": "receiver",
          "type": "address"
        },
        {
          "indexed": false,
          "internalType": "address",
          "name": "sender",
          "type": "address"
        },
        {
          "indexed": true,
          "internalType": "address",
          "name": "nftAddress",
          "type": "address"
        },
        {
          "indexed": true,
          "internalType": "uint256",
          "name": "tokenId",
          "type": "uint256"
        }
      ],
      "name": "FlashClaim",
      "type": "event"
    },
    {
      "inputs": [],
      "name": "BESPOKE_SETTINGS",
      "outputs": [
        {
          "internalType": "contract IOpenSkyBespokeSettings",
          "name": "",
          "type": "address"
        }
      ],
      "stateMutability": "view",
      "type": "function"
    },
    {
      "inputs": [],
      "name": "SETTINGS",
      "outputs": [
        {
          "internalType": "contract IOpenSkySettings",
          "name": "",
          "type": "address"
        }
      ],
      "stateMutability": "view",
      "type": "function"
    },
    {
      "inputs": [
        {
          "internalType": "address",
          "name": "token",
          "type": "address"
        },
        {
          "internalType": "address",
          "name": "to",
          "type": "address"
        },
        {
          "internalType": "uint256[]",
          "name": "ids",
          "type": "uint256[]"
        },
        {
          "internalType": "uint256[]",
          "name": "amounts",
          "type": "uint256[]"
        },
        {
          "internalType": "bytes",
          "name": "data",
          "type": "bytes"
        }
      ],
      "name": "claimERC1155Airdrop",
      "outputs": [],
      "stateMutability": "nonpayable",
      "type": "function"
    },
    {
      "inputs": [
        {
          "internalType": "address",
          "name": "token",
          "type": "address"
        },
        {
          "internalType": "address",
          "name": "to",
          "type": "address"
        },
        {
          "internalType": "uint256",
          "name": "amount",
          "type": "uint256"
        }
      ],
      "name": "claimERC20Airdrop",
      "outputs": [],
      "stateMutability": "nonpayable",
      "type": "function"
    },
    {
      "inputs": [
        {
          "internalType": "address",
          "name": "token",
          "type": "address"
        },
        {
          "internalType": "address",
          "name": "to",
          "type": "address"
        },
        {
          "internalType": "uint256[]",
          "name": "ids",
          "type": "uint256[]"
        }
      ],
      "name": "claimERC721Airdrop",
      "outputs": [],
      "stateMutability": "nonpayable",
      "type": "function"
    },
    {
      "inputs": [
        {
          "internalType": "address",
          "name": "token",
          "type": "address"
        },
        {
          "internalType": "address",
          "name": "to",
          "type": "address"
        },
        {
          "internalType": "uint256",
          "name": "amount",
          "type": "uint256"
        }
      ],
      "name": "emergencyTokenTransfer",
      "outputs": [],
      "stateMutability": "nonpayable",
      "type": "function"
    },
    {
      "inputs": [
        {
          "internalType": "address",
          "name": "receiverAddress",
          "type": "address"
        },
        {
          "internalType": "uint256[]",
          "name": "loanIds",
          "type": "uint256[]"
        },
        {
          "internalType": "bytes",
          "name": "params",
          "type": "bytes"
        }
      ],
      "name": "flashClaim",
      "outputs": [],
      "stateMutability": "nonpayable",
      "type": "function"
    },
    {
      "inputs": [
        {
          "internalType": "address",
          "name": "",
          "type": "address"
        }
      ],
      "name": "nftBorrowStat",
      "outputs": [
        {
          "internalType": "uint256",
          "name": "",
          "type": "uint256"
        }
      ],
      "stateMutability": "view",
      "type": "function"
    },
    {
      "inputs": [
        {
          "internalType": "address",
          "name": "",
          "type": "address"
        },
        {
          "internalType": "address",
          "name": "",
          "type": "address"
        },
        {
          "internalType": "uint256[]",
          "name": "",
          "type": "uint256[]"
        },
        {
          "internalType": "uint256[]",
          "name": "",
          "type": "uint256[]"
        },
        {
          "internalType": "bytes",
          "name": "",
          "type": "bytes"
        }
      ],
      "name": "onERC1155BatchReceived",
      "outputs": [
        {
          "internalType": "bytes4",
          "name": "",
          "type": "bytes4"
        }
      ],
      "stateMutability": "nonpayable",
      "type": "function"
    },
    {
      "inputs": [
        {
          "internalType": "address",
          "name": "",
          "type": "address"
        },
        {
          "internalType": "address",
          "name": "",
          "type": "address"
        },
        {
          "internalType": "uint256",
          "name": "",
          "type": "uint256"
        },
        {
          "internalType": "uint256",
          "name": "",
          "type": "uint256"
        },
        {
          "internalType": "bytes",
          "name": "",
          "type": "bytes"
        }
      ],
      "name": "onERC1155Received",
      "outputs": [
        {
          "internalType": "bytes4",
          "name": "",
          "type": "bytes4"
        }
      ],
      "stateMutability": "nonpayable",
      "type": "function"
    },
    {
      "inputs": [
        {
          "internalType": "address",
          "name": "",
          "type": "address"
        },
        {
          "internalType": "address",
          "name": "",
          "type": "address"
        },
        {
          "internalType": "uint256",
          "name": "",
          "type": "uint256"
        },
        {
          "internalType": "bytes",
          "name": "",
          "type": "bytes"
        }
      ],
      "name": "onERC721Received",
      "outputs": [
        {
          "internalType": "bytes4",
          "name": "",
          "type": "bytes4"
        }
      ],
      "stateMutability": "nonpayable",
      "type": "function"
    },
    {
      "inputs": [
        {
          "internalType": "bytes4",
          "name": "interfaceId",
          "type": "bytes4"
        }
      ],
      "name": "supportsInterface",
      "outputs": [
        {
          "internalType": "bool",
          "name": "",
          "type": "bool"
        }
      ],
      "stateMutability": "view",
      "type": "function"
    },
    {
      "inputs": [
        {
          "internalType": "address",
          "name": "collection",
          "type": "address"
        },
        {
          "internalType": "address",
          "name": "from",
          "type": "address"
        },
        {
          "internalType": "uint256",
          "name": "tokenId",
          "type": "uint256"
        },
        {
          "internalType": "uint256",
          "name": "amount",
          "type": "uint256"
        }
      ],
      "name": "transferCollateralIn",
      "outputs": [],
      "stateMutability": "nonpayable",
      "type": "function"
    },
    {
      "inputs": [
        {
          "internalType": "address",
          "name": "collection",
          "type": "address"
        },
        {
          "internalType": "address",
          "name": "to",
          "type": "address"
        },
        {
          "internalType": "uint256",
          "name": "tokenId",
          "type": "uint256"
        },
        {
          "internalType": "uint256",
          "name": "amount",
          "type": "uint256"
        }
      ],
      "name": "transferCollateralOut",
      "outputs": [],
      "stateMutability": "nonpayable",
      "type": "function"
    },
    {
      "inputs": [
        {
          "internalType": "address",
          "name": "collection",
          "type": "address"
        },
        {
          "internalType": "address",
          "name": "to",
          "type": "address"
        },
        {
          "internalType": "uint256",
          "name": "tokenId",
          "type": "uint256"
        },
        {
          "internalType": "uint256",
          "name": "amount",
          "type": "uint256"
        }
      ],
      "name": "transferCollateralOutOnForeclose",
      "outputs": [],
      "stateMutability": "nonpayable",
      "type": "function"
    }
  ],
  "transactionHash": "0xd7167c44085c6e1b439ad69db391c68322d46971107d7456e767193b6c80bcf3",
  "args": [
    "0x24C54B91D29e8319976030581909732336E8B2bb",
    "0xF3B73e2a1427a027c18bfE11dA7A20B5B88dc867"
  ],
  "solcInputHash": "88f70ef30a97ad95dcfad3d4587a7e7c",
  "bytecode": "0x60c06040523480156200001157600080fd5b50604051620024683803806200246883398101604081905262000034916200006e565b60016000556001600160a01b039182166080521660a052620000a6565b80516001600160a01b03811681146200006957600080fd5b919050565b600080604083850312156200008257600080fd5b6200008d8362000051565b91506200009d6020840162000051565b90509250929050565b60805160a0516123646200010460003960008181610173015281816103c10152818161052b015281816109f9015261137501526000818161021901528181610b2001528181610ca601528181610e4101526110ec01526123646000f3fe608060405234801561001057600080fd5b50600436106100f55760003560e01c8063a3d5b25511610097578063cbed33fb11610066578063cbed33fb146101ad578063e3185e121461026d578063e7674ece14610280578063f23a6e611461029357600080fd5b8063a3d5b25514610201578063ade97ab514610214578063bc197c811461023b578063cae595531461025a57600080fd5b806329c55f06116100d357806329c55f061461016e578063355b3862146101ad5780634f070916146101c05780638a181833146101d357600080fd5b806301ffc9a7146100fa57806303282d6e14610122578063150b7a0214610137575b600080fd5b61010d61010836600461179d565b6102b2565b60405190151581526020015b60405180910390f35b61013561013036600461186b565b6102e9565b005b6101556101453660046119cb565b630a85bd0160e11b949350505050565b6040516001600160e01b03199091168152602001610119565b6101957f000000000000000000000000000000000000000000000000000000000000000081565b6040516001600160a01b039091168152602001610119565b6101356101bb366004611a36565b6109cc565b6101356101ce366004611a7c565b610af1565b6101f36101e1366004611abd565b60016020526000908152604090205481565b604051908152602001610119565b61013561020f366004611a7c565b610ca2565b6101957f000000000000000000000000000000000000000000000000000000000000000081565b610155610249366004611b4e565b63bc197c8160e01b95945050505050565b610135610268366004611bfb565b610e12565b61013561027b366004611c5f565b6110bd565b61013561028e366004611a36565b611348565b6101556102a1366004611d1d565b63f23a6e6160e01b95945050505050565b60006001600160e01b03198216630271189760e51b14806102e357506301ffc9a760e01b6001600160e01b03198316145b92915050565b600260005414156103155760405162461bcd60e51b815260040161030c90611d85565b60405180910390fd5b600260009081558581856001600160401b03811115610336576103366118ed565b60405190808252806020026020018201604052801561035f578160200160208202803683370190505b5090506000866001600160401b0381111561037c5761037c6118ed565b6040519080825280602002602001820160405280156103a5578160200160208202803683370190505b509050600093505b8684101561070757336001600160a01b03167f00000000000000000000000000000000000000000000000000000000000000006001600160a01b031663bb322a836040518163ffffffff1660e01b8152600401602060405180830381865afa15801561041d573d6000803e3d6000fd5b505050506040513d601f19601f820116820180604052508101906104419190611dcc565b6001600160a01b0316636352211e8a8a8881811061046157610461611de9565b905060200201356040518263ffffffff1660e01b815260040161048691815260200190565b602060405180830381865afa1580156104a3573d6000803e3d6000fd5b505050506040513d601f19601f820116820180604052508101906104c79190611dcc565b6001600160a01b0316146105275760405162461bcd60e51b815260206004820152602160248201527f424d5f464c415348434c41494d5f43414c4c45525f49535f4e4f545f4f574e456044820152602960f91b606482015260840161030c565b60007f00000000000000000000000000000000000000000000000000000000000000006001600160a01b031663956236416040518163ffffffff1660e01b8152600401602060405180830381865afa158015610587573d6000803e3d6000fd5b505050506040513d601f19601f820116820180604052508101906105ab9190611dcc565b6001600160a01b031663622fe39f8a8a888181106105cb576105cb611de9565b905060200201356040518263ffffffff1660e01b81526004016105f091815260200190565b61028060405180830381865afa15801561060e573d6000803e3d6000fd5b505050506040513d601f19601f820116820180604052508101906106329190611e53565b90506003816102600151600381111561064d5761064d611fac565b141561069b5760405162461bcd60e51b815260206004820152601a60248201527f424d5f464c415348434c41494d5f5354415455535f4552524f52000000000000604482015260640161030c565b80600001518386815181106106b2576106b2611de9565b60200260200101906001600160a01b031690816001600160a01b03168152505080602001518286815181106106e9576106e9611de9565b602090810291909101015250836106ff81611fd8565b9450506103ad565b600093505b868410156107bb5781848151811061072657610726611de9565b60200260200101516001600160a01b03166342842e0e308b84888151811061075057610750611de9565b60200260200101516040518463ffffffff1660e01b815260040161077693929190611ff3565b600060405180830381600087803b15801561079057600080fd5b505af11580156107a4573d6000803e3d6000fd5b5050505083806107b390611fd8565b94505061070c565b604051628e896f60e41b81526001600160a01b038416906308e896f0906107f09085908590339030908d908d90600401612040565b6020604051808303816000875af115801561080f573d6000803e3d6000fd5b505050506040513d601f19601f8201168201806040525081019061083391906120f9565b61087f5760405162461bcd60e51b815260206004820152601c60248201527f424d5f464c415348434c41494d5f4558454355544f525f4552524f5200000000604482015260640161030c565b600093505b868410156109bc5781848151811061089e5761089e611de9565b60200260200101516001600160a01b03166342842e0e8a308488815181106108c8576108c8611de9565b60200260200101516040518463ffffffff1660e01b81526004016108ee93929190611ff3565b600060405180830381600087803b15801561090857600080fd5b505af115801561091c573d6000803e3d6000fd5b5050505080848151811061093257610932611de9565b602002602001015182858151811061094c5761094c611de9565b60200260200101516001600160a01b03168a6001600160a01b03167f6bac1c66016500cd7b62d69e86268760baac6cd34a70003af66ffa8a9798321661098f3390565b6040516001600160a01b03909116815260200160405180910390a4836109b481611fd8565b945050610884565b5050600160005550505050505050565b600260005414156109ef5760405162461bcd60e51b815260040161030c90611d85565b60026000819055507f00000000000000000000000000000000000000000000000000000000000000006001600160a01b031663956236416040518163ffffffff1660e01b8152600401602060405180830381865afa158015610a55573d6000803e3d6000fd5b505050506040513d601f19601f82011682018060405250810190610a799190611dcc565b6001600160a01b0316336001600160a01b031614610aa95760405162461bcd60e51b815260040161030c90612114565b6001600160a01b03841660009081526001602081905260408220805491929091610ad4908490612157565b90915550610ae6905084848484611462565b505060016000555050565b60026000541415610b145760405162461bcd60e51b815260040161030c90611d85565b600260008190555060007f00000000000000000000000000000000000000000000000000000000000000006001600160a01b0316639a9dbb996040518163ffffffff1660e01b8152600401602060405180830381865afa158015610b7c573d6000803e3d6000fd5b505050506040513d601f19601f82011682018060405250810190610ba09190611dcc565b90506001600160a01b038116639078c85a336040516001600160e01b031960e084901b1681526001600160a01b039091166004820152602401602060405180830381865afa158015610bf6573d6000803e3d6000fd5b505050506040513d601f19601f82011682018060405250810190610c1a91906120f9565b610c365760405162461bcd60e51b815260040161030c9061216e565b610c4a6001600160a01b03851684846114ca565b826001600160a01b0316846001600160a01b03167f81275949a17d84915b61eeb24587a501cc8863011afba1ed12f3f6c5bdfd6a2184604051610c8f91815260200190565b60405180910390a3505060016000555050565b60007f00000000000000000000000000000000000000000000000000000000000000006001600160a01b0316639a9dbb996040518163ffffffff1660e01b8152600401602060405180830381865afa158015610d02573d6000803e3d6000fd5b505050506040513d601f19601f82011682018060405250810190610d269190611dcc565b90506001600160a01b038116632500f2b6336040516001600160e01b031960e084901b1681526001600160a01b039091166004820152602401602060405180830381865afa158015610d7c573d6000803e3d6000fd5b505050506040513d601f19601f82011682018060405250810190610da091906120f9565b610df85760405162461bcd60e51b8152602060048201526024808201527f424d5f41434c5f4f4e4c595f454d455247454e43595f41444d494e5f43414e5f60448201526310d0531360e21b606482015260840161030c565b610e0c6001600160a01b03851684846114ca565b50505050565b60026000541415610e355760405162461bcd60e51b815260040161030c90611d85565b600260008190555060007f00000000000000000000000000000000000000000000000000000000000000006001600160a01b0316639a9dbb996040518163ffffffff1660e01b8152600401602060405180830381865afa158015610e9d573d6000803e3d6000fd5b505050506040513d601f19601f82011682018060405250810190610ec19190611dcc565b90506001600160a01b038116639078c85a336040516001600160e01b031960e084901b1681526001600160a01b039091166004820152602401602060405180830381865afa158015610f17573d6000803e3d6000fd5b505050506040513d601f19601f82011682018060405250810190610f3b91906120f9565b610f575760405162461bcd60e51b815260040161030c9061216e565b6001600160a01b03851660009081526001602052604090205415610fcb5760405162461bcd60e51b815260206004820152602560248201527f424d5f434c41494d5f4552433732315f41495244524f505f4e4f545f5355505060448201526413d495115160da1b606482015260840161030c565b60005b8281101561106357856001600160a01b03166342842e0e3087878786818110610ff957610ff9611de9565b905060200201356040518463ffffffff1660e01b815260040161101e93929190611ff3565b600060405180830381600087803b15801561103857600080fd5b505af115801561104c573d6000803e3d6000fd5b50505050808061105b90611fd8565b915050610fce565b50836001600160a01b0316856001600160a01b03167f6c6b18e67b757c02ba92ef0f54038fc2135767acf9bef174b8780835ff45582285856040516110a99291906121e9565b60405180910390a350506001600055505050565b600260005414156110e05760405162461bcd60e51b815260040161030c90611d85565b600260008190555060007f00000000000000000000000000000000000000000000000000000000000000006001600160a01b0316639a9dbb996040518163ffffffff1660e01b8152600401602060405180830381865afa158015611148573d6000803e3d6000fd5b505050506040513d601f19601f8201168201806040525081019061116c9190611dcc565b90506001600160a01b038116639078c85a336040516001600160e01b031960e084901b1681526001600160a01b039091166004820152602401602060405180830381865afa1580156111c2573d6000803e3d6000fd5b505050506040513d601f19601f820116820180604052508101906111e691906120f9565b6112025760405162461bcd60e51b815260040161030c9061216e565b6001600160a01b038916600090815260016020526040902054156112775760405162461bcd60e51b815260206004820152602660248201527f424d5f434c41494d5f455243313135355f41495244524f505f4e4f545f5355506044820152651413d495115160d21b606482015260840161030c565b604051631759616b60e11b81526001600160a01b038a1690632eb2c2d6906112b19030908c908c908c908c908c908c908c906004016121fd565b600060405180830381600087803b1580156112cb57600080fd5b505af11580156112df573d6000803e3d6000fd5b50505050876001600160a01b0316896001600160a01b03167fc8144f7a11a69e58de79275b3e7420b4942b4e8318a0e0aa9ccb457c60387b0289898989898960405161133096959493929190612252565b60405180910390a35050600160005550505050505050565b6002600054141561136b5760405162461bcd60e51b815260040161030c90611d85565b60026000819055507f00000000000000000000000000000000000000000000000000000000000000006001600160a01b031663956236416040518163ffffffff1660e01b8152600401602060405180830381865afa1580156113d1573d6000803e3d6000fd5b505050506040513d601f19601f820116820180604052508101906113f59190611dcc565b6001600160a01b0316336001600160a01b0316146114255760405162461bcd60e51b815260040161030c90612114565b6001600160a01b0384166000908152600160208190526040822080549192909161145090849061229b565b90915550610ae6905084848484611521565b604051632142170760e11b81526001600160a01b038516906342842e0e9061149290309087908790600401611ff3565b600060405180830381600087803b1580156114ac57600080fd5b505af11580156114c0573d6000803e3d6000fd5b5050505050505050565b604080516001600160a01b038416602482015260448082018490528251808303909101815260649091019091526020810180516001600160e01b031663a9059cbb60e01b17905261151c908490611551565b505050565b604051632142170760e11b81526001600160a01b038516906342842e0e9061149290869030908790600401611ff3565b60006115a6826040518060400160405280602081526020017f5361666545524332303a206c6f772d6c6576656c2063616c6c206661696c6564815250856001600160a01b03166116239092919063ffffffff16565b80519091501561151c57808060200190518101906115c491906120f9565b61151c5760405162461bcd60e51b815260206004820152602a60248201527f5361666545524332303a204552433230206f7065726174696f6e20646964206e6044820152691bdd081cdd58d8d9595960b21b606482015260840161030c565b6060611632848460008561163c565b90505b9392505050565b60608247101561169d5760405162461bcd60e51b815260206004820152602660248201527f416464726573733a20696e73756666696369656e742062616c616e636520666f6044820152651c8818d85b1b60d21b606482015260840161030c565b843b6116eb5760405162461bcd60e51b815260206004820152601d60248201527f416464726573733a2063616c6c20746f206e6f6e2d636f6e7472616374000000604482015260640161030c565b600080866001600160a01b0316858760405161170791906122df565b60006040518083038185875af1925050503d8060008114611744576040519150601f19603f3d011682016040523d82523d6000602084013e611749565b606091505b5091509150611759828286611764565b979650505050505050565b60608315611773575081611635565b8251156117835782518084602001fd5b8160405162461bcd60e51b815260040161030c91906122fb565b6000602082840312156117af57600080fd5b81356001600160e01b03198116811461163557600080fd5b6001600160a01b03811681146117dc57600080fd5b50565b60008083601f8401126117f157600080fd5b5081356001600160401b0381111561180857600080fd5b6020830191508360208260051b850101111561182357600080fd5b9250929050565b60008083601f84011261183c57600080fd5b5081356001600160401b0381111561185357600080fd5b60208301915083602082850101111561182357600080fd5b60008060008060006060868803121561188357600080fd5b853561188e816117c7565b945060208601356001600160401b03808211156118aa57600080fd5b6118b689838a016117df565b909650945060408801359150808211156118cf57600080fd5b506118dc8882890161182a565b969995985093965092949392505050565b634e487b7160e01b600052604160045260246000fd5b60405161028081016001600160401b0381118282101715611926576119266118ed565b60405290565b604051601f8201601f191681016001600160401b0381118282101715611954576119546118ed565b604052919050565b600082601f83011261196d57600080fd5b81356001600160401b03811115611986576119866118ed565b611999601f8201601f191660200161192c565b8181528460208386010111156119ae57600080fd5b816020850160208301376000918101602001919091529392505050565b600080600080608085870312156119e157600080fd5b84356119ec816117c7565b935060208501356119fc816117c7565b92506040850135915060608501356001600160401b03811115611a1e57600080fd5b611a2a8782880161195c565b91505092959194509250565b60008060008060808587031215611a4c57600080fd5b8435611a57816117c7565b93506020850135611a67816117c7565b93969395505050506040820135916060013590565b600080600060608486031215611a9157600080fd5b8335611a9c816117c7565b92506020840135611aac816117c7565b929592945050506040919091013590565b600060208284031215611acf57600080fd5b8135611635816117c7565b600082601f830112611aeb57600080fd5b813560206001600160401b03821115611b0657611b066118ed565b8160051b611b1582820161192c565b9283528481018201928281019087851115611b2f57600080fd5b83870192505b8483101561175957823582529183019190830190611b35565b600080600080600060a08688031215611b6657600080fd5b8535611b71816117c7565b94506020860135611b81816117c7565b935060408601356001600160401b0380821115611b9d57600080fd5b611ba989838a01611ada565b94506060880135915080821115611bbf57600080fd5b611bcb89838a01611ada565b93506080880135915080821115611be157600080fd5b50611bee8882890161195c565b9150509295509295909350565b60008060008060608587031215611c1157600080fd5b8435611c1c816117c7565b93506020850135611c2c816117c7565b925060408501356001600160401b03811115611c4757600080fd5b611c53878288016117df565b95989497509550505050565b60008060008060008060008060a0898b031215611c7b57600080fd5b8835611c86816117c7565b97506020890135611c96816117c7565b965060408901356001600160401b0380821115611cb257600080fd5b611cbe8c838d016117df565b909850965060608b0135915080821115611cd757600080fd5b611ce38c838d016117df565b909650945060808b0135915080821115611cfc57600080fd5b50611d098b828c0161182a565b999c989b5096995094979396929594505050565b600080600080600060a08688031215611d3557600080fd5b8535611d40816117c7565b94506020860135611d50816117c7565b9350604086013592506060860135915060808601356001600160401b03811115611d7957600080fd5b611bee8882890161195c565b6020808252601f908201527f5265656e7472616e637947756172643a207265656e7472616e742063616c6c00604082015260600190565b8051611dc7816117c7565b919050565b600060208284031215611dde57600080fd5b8151611635816117c7565b634e487b7160e01b600052603260045260246000fd5b80516fffffffffffffffffffffffffffffffff81168114611dc757600080fd5b805164ffffffffff81168114611dc757600080fd5b80518015158114611dc757600080fd5b805160048110611dc757600080fd5b60006102808284031215611e6657600080fd5b611e6e611903565b611e7783611dbc565b81526020830151602082015260408301516040820152611e9960608401611dbc565b6060820152611eaa60808401611dbc565b6080820152611ebb60a08401611dbc565b60a082015260c083015160c0820152611ed660e08401611dff565b60e0820152610100611ee9818501611dff565b90820152610120611efb848201611dbc565b90820152610140611f0d848201611dbc565b90820152610160838101519082015261018080840151908201526101a0611f35818501611e1f565b908201526101c0611f47848201611e1f565b908201526101e0611f59848201611e1f565b90820152610200611f6b848201611e1f565b90820152610220611f7d848201611e34565b90820152610240611f8f848201611e34565b90820152610260611fa1848201611e44565b908201529392505050565b634e487b7160e01b600052602160045260246000fd5b634e487b7160e01b600052601160045260246000fd5b6000600019821415611fec57611fec611fc2565b5060010190565b6001600160a01b039384168152919092166020820152604081019190915260600190565b81835281816020850137506000828201602090810191909152601f909101601f19169091010190565b60a0808252875190820181905260009060209060c0840190828b01845b828110156120825781516001600160a01b03168452928401929084019060010161205d565b5050508381038285015288518082528983019183019060005b818110156120b75783518352928401929184019160010161209b565b50506001600160a01b03891660408601526001600160a01b038816606086015284810360808601526120ea818789612017565b9b9a5050505050505050505050565b60006020828403121561210b57600080fd5b61163582611e34565b60208082526023908201527f424d5f41434c5f4f4e4c595f424553504f4b525f4d41524b45545f43414e5f4360408201526210531360ea1b606082015260800190565b60008282101561216957612169611fc2565b500390565b60208082526025908201527f424d5f41434c5f4f4e4c595f41495244524f505f4f50455241544f525f43414e60408201526417d0d0531360da1b606082015260800190565b81835260006001600160fb1b038311156121cc57600080fd5b8260051b8083602087013760009401602001938452509192915050565b6020815260006116326020830184866121b3565b6001600160a01b0389811682528816602082015260a06040820181905260009061222a908301888a6121b3565b828103606084015261223d8187896121b3565b905082810360808401526120ea818587612017565b60608152600061226660608301888a6121b3565b82810360208401526122798187896121b3565b9050828103604084015261228e818587612017565b9998505050505050505050565b600082198211156122ae576122ae611fc2565b500190565b60005b838110156122ce5781810151838201526020016122b6565b83811115610e0c5750506000910152565b600082516122f18184602087016122b3565b9190910192915050565b602081526000825180602084015261231a8160408501602087016122b3565b601f01601f1916919091016040019291505056fea26469706673582212208b64ffa66ebb99680497cc1ec43a393cd4b9c9e8d1cbb43bea51d1b8a094404e64736f6c634300080a0033",
  "libraries": {
    "BespokeTypes": "0x473482d4940F9075B8E3C42ccE22B71eA74D0d2A"
  },
  "devdoc": {
    "kind": "dev",
    "methods": {
      "claimERC1155Airdrop(address,address,uint256[],uint256[],bytes)": {
        "params": {
          "amounts": "The amount of the ERC1155 tokens",
          "data": "packed params to pass to the receiver as extra information*",
          "ids": "The ID of the ERC1155 token",
          "to": "The address which will receive the ERC1155 tokens",
          "token": "The address of the airdropped token"
        }
      },
      "claimERC20Airdrop(address,address,uint256)": {
        "params": {
          "amount": "The amount of the ERC20 token*",
          "to": "The address which will receive ERC20 token",
          "token": "The address of the airdropped token"
        }
      },
      "claimERC721Airdrop(address,address,uint256[])": {
        "params": {
          "ids": "The ID of the ERC721 token*",
          "to": "The address which will receive the ERC721 token",
          "token": "The address of the airdropped token"
        }
      },
      "emergencyTokenTransfer(address,address,uint256)": {
        "details": "transfer ERC20 from the utility contract, for ERC20 recovery in case of stuck tokens due direct transfers to the contract address.",
        "params": {
          "amount": "amount to send",
          "to": "recipient of the transfer",
          "token": "token to transfer"
        }
      },
      "flashClaim(address,uint256[],bytes)": {
        "details": "IMPORTANT There are security concerns for developers of flash loan receiver contracts that must be carefully considered",
        "params": {
          "loanIds": "The ID of loan being flash-borrowed",
          "params": "packed params to pass to the receiver as extra information*",
          "receiverAddress": "The address of the contract receiving the funds, implementing IFlashClaimReceiver interface"
        }
      },
      "onERC721Received(address,address,uint256,bytes)": {
        "details": "See {IERC721Receiver-onERC721Received}. Always returns `IERC721Receiver.onERC721Received.selector`."
      },
      "supportsInterface(bytes4)": {
        "details": "See {IERC165-supportsInterface}."
      }
    },
    "version": 1
  },
  "userdoc": {
    "kind": "user",
    "methods": {
      "claimERC1155Airdrop(address,address,uint256[],uint256[],bytes)": {
        "notice": "Claim the ERC1155 token which has been airdropped to the loan contract"
      },
      "claimERC20Airdrop(address,address,uint256)": {
        "notice": "Claim the ERC20 token which has been airdropped to the loan contract"
      },
      "claimERC721Airdrop(address,address,uint256[])": {
        "notice": "Claim the ERC721 token which has been airdropped to the loan contract"
      },
      "flashClaim(address,uint256[],bytes)": {
        "notice": "Allows smart contracts to access the collateralized NFT within one transaction, as long as the amount taken plus a fee is returned"
      }
    },
    "version": 1
  },
  "storageLayout": {
    "storage": [
      {
        "astId": 1379,
        "contract": "contracts/bespokemarket/transferAdaptersCollateral/TransferAdapterERC721Default.sol:TransferAdapterERC721Default",
        "label": "_status",
        "offset": 0,
        "slot": "0",
        "type": "t_uint256"
      },
      {
        "astId": 17971,
        "contract": "contracts/bespokemarket/transferAdaptersCollateral/TransferAdapterERC721Default.sol:TransferAdapterERC721Default",
        "label": "nftBorrowStat",
        "offset": 0,
        "slot": "1",
        "type": "t_mapping(t_address,t_uint256)"
      }
    ],
    "types": {
      "t_address": {
        "encoding": "inplace",
        "label": "address",
        "numberOfBytes": "20"
      },
      "t_mapping(t_address,t_uint256)": {
        "encoding": "mapping",
        "key": "t_address",
        "label": "mapping(address => uint256)",
        "numberOfBytes": "32",
        "value": "t_uint256"
      },
      "t_uint256": {
        "encoding": "inplace",
        "label": "uint256",
        "numberOfBytes": "32"
      }
    }
  }
}