{
  "address": "0xe5782ACF8Bc310dBBC02198D07C998d4E7393c77",
  "abi": [
    {
      "inputs": [
        {
          "internalType": "contract ILendingPool",
          "name": "aave_",
          "type": "address"
        }
      ],
      "stateMutability": "nonpayable",
      "type": "constructor"
    },
    {
      "stateMutability": "payable",
      "type": "fallback"
    },
    {
      "inputs": [],
      "name": "aave",
      "outputs": [
        {
          "internalType": "contract ILendingPool",
          "name": "",
          "type": "address"
        }
      ],
      "stateMutability": "view",
      "type": "function"
    },
    {
      "inputs": [
        {
          "internalType": "address",
          "name": "asset",
          "type": "address"
        },
        {
          "internalType": "uint256",
          "name": "amount",
          "type": "uint256"
        }
      ],
      "name": "depositCall",
      "outputs": [],
      "stateMutability": "nonpayable",
      "type": "function"
    },
    {
      "inputs": [
        {
          "internalType": "address",
          "name": "asset",
          "type": "address"
        },
        {
          "internalType": "address",
          "name": "account",
          "type": "address"
        }
      ],
      "name": "getBalance",
      "outputs": [
        {
          "internalType": "uint256",
          "name": "",
          "type": "uint256"
        }
      ],
      "stateMutability": "view",
      "type": "function"
    },
    {
      "inputs": [
        {
          "internalType": "address",
          "name": "asset",
          "type": "address"
        }
      ],
      "name": "getMoneyMarketToken",
      "outputs": [
        {
          "internalType": "address",
          "name": "",
          "type": "address"
        }
      ],
      "stateMutability": "view",
      "type": "function"
    },
    {
      "inputs": [
        {
          "internalType": "address",
          "name": "asset",
          "type": "address"
        }
      ],
      "name": "getSupplyRate",
      "outputs": [
        {
          "internalType": "uint256",
          "name": "",
          "type": "uint256"
        }
      ],
      "stateMutability": "view",
      "type": "function"
    },
    {
      "inputs": [
        {
          "internalType": "address",
          "name": "asset",
          "type": "address"
        },
        {
          "internalType": "uint256",
          "name": "amount",
          "type": "uint256"
        },
        {
          "internalType": "address",
          "name": "to",
          "type": "address"
        }
      ],
      "name": "withdrawCall",
      "outputs": [],
      "stateMutability": "nonpayable",
      "type": "function"
    },
    {
      "stateMutability": "payable",
      "type": "receive"
    }
  ],
  "transactionHash": "0x96dc05d2fea4183c04b848f2f1ef4b22700f8587b07e57da4255733e25194ace",
  "args": [
    "0x8dff5e27ea6b7ac08ebfdf9eb090f32ee9a30fcf"
  ],
  "solcInputHash": "0ca3f66e9bd5de21ebb7765f6cea382a",
  "bytecode": "0x60c060405234801561001057600080fd5b50604051610bf6380380610bf683398101604081905261002f91610044565b6001600160a01b031660a05230608052610074565b60006020828403121561005657600080fd5b81516001600160a01b038116811461006d57600080fd5b9392505050565b60805160a051610b336100c36000396000818161019f0152818161025f0152818161033b01528181610414015281816104ad0152818161062e015261070b015260006105d50152610b336000f3fe6080604052600436106100595760003560e01c80630754c9b4146100e05780632940be85146101025780634894eeba146101225780636b5441a91461015f578063819faf7b1461018d578063d4fac45d146101c1576100a1565b366100a15760405162461bcd60e51b8152602060048201526013602482015272149150d152559157d393d517d0531313d5d151606a1b60448201526064015b60405180910390fd5b60405162461bcd60e51b815260206004820152601460248201527311905313109050d2d7d393d517d0531313d5d15160621b6044820152606401610098565b3480156100ec57600080fd5b506101006100fb3660046107e0565b6101e1565b005b34801561010e57600080fd5b5061010061011d36600461080c565b6102bf565b34801561012e57600080fd5b5061014261013d36600461084e565b6103f0565b6040516001600160a01b0390911681526020015b60405180910390f35b34801561016b57600080fd5b5061017f61017a36600461084e565b61048b565b604051908152602001610156565b34801561019957600080fd5b506101427f000000000000000000000000000000000000000000000000000000000000000081565b3480156101cd57600080fd5b5061017f6101dc366004610872565b61052e565b6101e96105b0565b60408051808201909152600381526203530360ec1b6020820152816102215760405162461bcd60e51b815260040161009891906108ab565b5061022c8282610617565b60405163e8eda9df60e01b81526001600160a01b03838116600483015260248201839052306044830152600060648301527f0000000000000000000000000000000000000000000000000000000000000000169063e8eda9df90608401600060405180830381600087803b1580156102a357600080fd5b505af11580156102b7573d6000803e3d6000fd5b505050505050565b6102c76105b0565b60408051808201909152600381526235303160e81b6020820152826102ff5760405162461bcd60e51b815260040161009891906108ab565b5061030a83836106e9565b604051631a4ca37b60e21b81526001600160a01b0384811660048301526024820184905282811660448301526000917f0000000000000000000000000000000000000000000000000000000000000000909116906369328dec906064016020604051808303816000875af1158015610386573d6000803e3d6000fd5b505050506040513d601f19601f820116820180604052508101906103aa9190610900565b90508281146040518060400160405280600381526020016235303560e81b815250906103e95760405162461bcd60e51b815260040161009891906108ab565b5050505050565b6040516335ea6a7560e01b81526001600160a01b03828116600483015260009182917f000000000000000000000000000000000000000000000000000000000000000016906335ea6a759060240161018060405180830381865afa15801561045c573d6000803e3d6000fd5b505050506040513d601f19601f8201168201806040525081019061048091906109ee565b60e001519392505050565b6040516335ea6a7560e01b81526001600160a01b0382811660048301526000917f0000000000000000000000000000000000000000000000000000000000000000909116906335ea6a759060240161018060405180830381865afa1580156104f7573d6000803e3d6000fd5b505050506040513d601f19601f8201168201806040525081019061051b91906109ee565b606001516001600160801b031692915050565b60008061053a846103f0565b6040516370a0823160e01b81526001600160a01b038581166004830152919250908216906370a0823190602401602060405180830381865afa158015610584573d6000803e3d6000fd5b505050506040513d601f19601f820116820180604052508101906105a89190610900565b949350505050565b6040805180820190915260038152620d4c0d60ea1b6020820152306001600160a01b037f00000000000000000000000000000000000000000000000000000000000000001614156106145760405162461bcd60e51b815260040161009891906108ab565b50565b60405163095ea7b360e01b81526001600160a01b037f0000000000000000000000000000000000000000000000000000000000000000811660048301526024820183905283169063095ea7b3906044016020604051808303816000875af1158015610686573d6000803e3d6000fd5b505050506040513d601f19601f820116820180604052508101906106aa9190610adb565b604051806040016040528060038152602001621a981960e91b815250906106e45760405162461bcd60e51b815260040161009891906108ab565b505050565b60006106f4836103f0565b60405163095ea7b360e01b81526001600160a01b037f000000000000000000000000000000000000000000000000000000000000000081166004830152602482018590529192509082169063095ea7b3906044016020604051808303816000875af1158015610767573d6000803e3d6000fd5b505050506040513d601f19601f8201168201806040525081019061078b9190610adb565b604051806040016040528060038152602001621a981960e91b815250906107c55760405162461bcd60e51b815260040161009891906108ab565b50505050565b6001600160a01b038116811461061457600080fd5b600080604083850312156107f357600080fd5b82356107fe816107cb565b946020939093013593505050565b60008060006060848603121561082157600080fd5b833561082c816107cb565b9250602084013591506040840135610843816107cb565b809150509250925092565b60006020828403121561086057600080fd5b813561086b816107cb565b9392505050565b6000806040838503121561088557600080fd5b8235610890816107cb565b915060208301356108a0816107cb565b809150509250929050565b600060208083528351808285015260005b818110156108d8578581018301518582016040015282016108bc565b818111156108ea576000604083870101525b50601f01601f1916929092016040019392505050565b60006020828403121561091257600080fd5b5051919050565b604051610180810167ffffffffffffffff8111828210171561094b57634e487b7160e01b600052604160045260246000fd5b60405290565b60006020828403121561096357600080fd5b6040516020810181811067ffffffffffffffff8211171561099457634e487b7160e01b600052604160045260246000fd5b6040529151825250919050565b80516001600160801b03811681146109b857600080fd5b919050565b805164ffffffffff811681146109b857600080fd5b80516109b8816107cb565b805160ff811681146109b857600080fd5b60006101808284031215610a0157600080fd5b610a09610919565b610a138484610951565b8152610a21602084016109a1565b6020820152610a32604084016109a1565b6040820152610a43606084016109a1565b6060820152610a54608084016109a1565b6080820152610a6560a084016109a1565b60a0820152610a7660c084016109bd565b60c0820152610a8760e084016109d2565b60e0820152610100610a9a8185016109d2565b90820152610120610aac8482016109d2565b90820152610140610abe8482016109d2565b90820152610160610ad08482016109dd565b908201529392505050565b600060208284031215610aed57600080fd5b8151801515811461086b57600080fdfea264697066735822122027b4a73fc3eee493102f9c2df2676afa3a4b995a8458031de1f528c36b582bf564736f6c634300080a0033",
  "devdoc": {
    "kind": "dev",
    "methods": {},
    "version": 1
  },
  "userdoc": {
    "kind": "user",
    "methods": {},
    "version": 1
  },
  "storageLayout": {
    "storage": [],
    "types": null
  }
}