{
  "address": "0xF3933f625C33c626A4a00C226fb08fD9804a6a42",
  "abi": [
    {
      "inputs": [
        {
          "internalType": "contract ILendingPool",
          "name": "aave_",
          "type": "address"
        }
      ],
      "stateMutability": "nonpayable",
      "type": "constructor"
    },
    {
      "stateMutability": "payable",
      "type": "fallback"
    },
    {
      "inputs": [],
      "name": "aave",
      "outputs": [
        {
          "internalType": "contract ILendingPool",
          "name": "",
          "type": "address"
        }
      ],
      "stateMutability": "view",
      "type": "function"
    },
    {
      "inputs": [
        {
          "internalType": "address",
          "name": "asset",
          "type": "address"
        },
        {
          "internalType": "uint256",
          "name": "amount",
          "type": "uint256"
        }
      ],
      "name": "depositCall",
      "outputs": [],
      "stateMutability": "nonpayable",
      "type": "function"
    },
    {
      "inputs": [
        {
          "internalType": "address",
          "name": "asset",
          "type": "address"
        }
      ],
      "name": "getATokenAddress",
      "outputs": [
        {
          "internalType": "address",
          "name": "",
          "type": "address"
        }
      ],
      "stateMutability": "view",
      "type": "function"
    },
    {
      "inputs": [
        {
          "internalType": "address",
          "name": "asset",
          "type": "address"
        },
        {
          "internalType": "address",
          "name": "account",
          "type": "address"
        }
      ],
      "name": "getBalance",
      "outputs": [
        {
          "internalType": "uint256",
          "name": "",
          "type": "uint256"
        }
      ],
      "stateMutability": "view",
      "type": "function"
    },
    {
      "inputs": [
        {
          "internalType": "address",
          "name": "asset",
          "type": "address"
        }
      ],
      "name": "getSupplyRate",
      "outputs": [
        {
          "internalType": "uint256",
          "name": "",
          "type": "uint256"
        }
      ],
      "stateMutability": "view",
      "type": "function"
    },
    {
      "inputs": [
        {
          "internalType": "address",
          "name": "asset",
          "type": "address"
        },
        {
          "internalType": "uint256",
          "name": "amount",
          "type": "uint256"
        },
        {
          "internalType": "address",
          "name": "to",
          "type": "address"
        }
      ],
      "name": "withdrawCall",
      "outputs": [],
      "stateMutability": "nonpayable",
      "type": "function"
    },
    {
      "stateMutability": "payable",
      "type": "receive"
    }
  ],
  "transactionHash": "0x9142a1f9383db9d3cd07ce621018eec085018e8c62448b6077288fdabbe95a35",
  "args": [
    "0x8dff5e27ea6b7ac08ebfdf9eb090f32ee9a30fcf"
  ],
  "solcInputHash": "903b6e0b7a82abf3fd1d087256b904a8",
  "bytecode": "0x60c060405234801561001057600080fd5b50604051610b7f380380610b7f83398101604081905261002f91610044565b6001600160a01b031660a05230608052610074565b60006020828403121561005657600080fd5b81516001600160a01b038116811461006d57600080fd5b9392505050565b60805160a051610abc6100c36000396000818161019f0152818161025f01528181610338015281816103cd01528181610472015281816105ba0152610697015260006105760152610abc6000f3fe6080604052600436106100595760003560e01c80630754c9b4146100e05780632940be85146101025780636b5441a914610122578063711cc00514610155578063819faf7b1461018d578063d4fac45d146101c1576100a1565b366100a15760405162461bcd60e51b8152602060048201526013602482015272149150d152559157d393d517d0531313d5d151606a1b60448201526064015b60405180910390fd5b60405162461bcd60e51b815260206004820152601460248201527311905313109050d2d7d393d517d0531313d5d15160621b6044820152606401610098565b3480156100ec57600080fd5b506101006100fb366004610769565b6101e1565b005b34801561010e57600080fd5b5061010061011d366004610795565b6102bf565b34801561012e57600080fd5b5061014261013d3660046107d7565b6103ab565b6040519081526020015b60405180910390f35b34801561016157600080fd5b506101756101703660046107d7565b61044e565b6040516001600160a01b03909116815260200161014c565b34801561019957600080fd5b506101757f000000000000000000000000000000000000000000000000000000000000000081565b3480156101cd57600080fd5b506101426101dc3660046107fb565b6104e9565b6101e961056b565b60408051808201909152600381526203530360ec1b6020820152816102215760405162461bcd60e51b81526004016100989190610834565b5061022c82826105a3565b60405163e8eda9df60e01b81526001600160a01b03838116600483015260248201839052306044830152600060648301527f0000000000000000000000000000000000000000000000000000000000000000169063e8eda9df90608401600060405180830381600087803b1580156102a357600080fd5b505af11580156102b7573d6000803e3d6000fd5b505050505050565b6102c761056b565b60408051808201909152600381526235303160e81b6020820152826102ff5760405162461bcd60e51b81526004016100989190610834565b5061030a8383610675565b604051631a4ca37b60e21b81526001600160a01b0384811660048301526024820184905282811660448301527f000000000000000000000000000000000000000000000000000000000000000016906369328dec906064016020604051808303816000875af1158015610381573d6000803e3d6000fd5b505050506040513d601f19601f820116820180604052508101906103a59190610889565b50505050565b6040516335ea6a7560e01b81526001600160a01b0382811660048301526000917f0000000000000000000000000000000000000000000000000000000000000000909116906335ea6a759060240161018060405180830381865afa158015610417573d6000803e3d6000fd5b505050506040513d601f19601f8201168201806040525081019061043b9190610977565b606001516001600160801b031692915050565b6040516335ea6a7560e01b81526001600160a01b03828116600483015260009182917f000000000000000000000000000000000000000000000000000000000000000016906335ea6a759060240161018060405180830381865afa1580156104ba573d6000803e3d6000fd5b505050506040513d601f19601f820116820180604052508101906104de9190610977565b60e001519392505050565b6000806104f58461044e565b6040516370a0823160e01b81526001600160a01b038581166004830152919250908216906370a0823190602401602060405180830381865afa15801561053f573d6000803e3d6000fd5b505050506040513d601f19601f820116820180604052508101906105639190610889565b949350505050565b306001600160a01b037f00000000000000000000000000000000000000000000000000000000000000001614156105a157600080fd5b565b60405163095ea7b360e01b81526001600160a01b037f0000000000000000000000000000000000000000000000000000000000000000811660048301526024820183905283169063095ea7b3906044016020604051808303816000875af1158015610612573d6000803e3d6000fd5b505050506040513d601f19601f820116820180604052508101906106369190610a64565b604051806040016040528060038152602001621a981960e91b815250906106705760405162461bcd60e51b81526004016100989190610834565b505050565b60006106808361044e565b60405163095ea7b360e01b81526001600160a01b037f000000000000000000000000000000000000000000000000000000000000000081166004830152602482018590529192509082169063095ea7b3906044016020604051808303816000875af11580156106f3573d6000803e3d6000fd5b505050506040513d601f19601f820116820180604052508101906107179190610a64565b604051806040016040528060038152602001621a981960e91b815250906103a55760405162461bcd60e51b81526004016100989190610834565b6001600160a01b038116811461076657600080fd5b50565b6000806040838503121561077c57600080fd5b823561078781610751565b946020939093013593505050565b6000806000606084860312156107aa57600080fd5b83356107b581610751565b92506020840135915060408401356107cc81610751565b809150509250925092565b6000602082840312156107e957600080fd5b81356107f481610751565b9392505050565b6000806040838503121561080e57600080fd5b823561081981610751565b9150602083013561082981610751565b809150509250929050565b600060208083528351808285015260005b8181101561086157858101830151858201604001528201610845565b81811115610873576000604083870101525b50601f01601f1916929092016040019392505050565b60006020828403121561089b57600080fd5b5051919050565b604051610180810167ffffffffffffffff811182821017156108d457634e487b7160e01b600052604160045260246000fd5b60405290565b6000602082840312156108ec57600080fd5b6040516020810181811067ffffffffffffffff8211171561091d57634e487b7160e01b600052604160045260246000fd5b6040529151825250919050565b80516001600160801b038116811461094157600080fd5b919050565b805164ffffffffff8116811461094157600080fd5b805161094181610751565b805160ff8116811461094157600080fd5b6000610180828403121561098a57600080fd5b6109926108a2565b61099c84846108da565b81526109aa6020840161092a565b60208201526109bb6040840161092a565b60408201526109cc6060840161092a565b60608201526109dd6080840161092a565b60808201526109ee60a0840161092a565b60a08201526109ff60c08401610946565b60c0820152610a1060e0840161095b565b60e0820152610100610a2381850161095b565b90820152610120610a3584820161095b565b90820152610140610a4784820161095b565b90820152610160610a59848201610966565b908201529392505050565b600060208284031215610a7657600080fd5b815180151581146107f457600080fdfea26469706673582212204a6714a12f21d2831d6d044c0f68cfcb7bacdb182f3a99a82ea185fdefb32f3864736f6c634300080a0033",
  "devdoc": {
    "kind": "dev",
    "methods": {},
    "version": 1
  },
  "userdoc": {
    "kind": "user",
    "methods": {},
    "version": 1
  },
  "storageLayout": {
    "storage": [],
    "types": null
  }
}