{
  "address": "0xdEC0999Ea75b5179104b0dAb6B06725c7d968F6a",
  "abi": [
    {
      "inputs": [],
      "stateMutability": "nonpayable",
      "type": "constructor"
    },
    {
      "anonymous": false,
      "inputs": [
        {
          "indexed": true,
          "internalType": "address",
          "name": "previousOwner",
          "type": "address"
        },
        {
          "indexed": true,
          "internalType": "address",
          "name": "newOwner",
          "type": "address"
        }
      ],
      "name": "OwnershipTransferred",
      "type": "event"
    },
    {
      "anonymous": false,
      "inputs": [
        {
          "indexed": true,
          "internalType": "bytes32",
          "name": "role",
          "type": "bytes32"
        },
        {
          "indexed": true,
          "internalType": "bytes32",
          "name": "previousAdminRole",
          "type": "bytes32"
        },
        {
          "indexed": true,
          "internalType": "bytes32",
          "name": "newAdminRole",
          "type": "bytes32"
        }
      ],
      "name": "RoleAdminChanged",
      "type": "event"
    },
    {
      "anonymous": false,
      "inputs": [
        {
          "indexed": true,
          "internalType": "bytes32",
          "name": "role",
          "type": "bytes32"
        },
        {
          "indexed": true,
          "internalType": "address",
          "name": "account",
          "type": "address"
        },
        {
          "indexed": true,
          "internalType": "address",
          "name": "sender",
          "type": "address"
        }
      ],
      "name": "RoleGranted",
      "type": "event"
    },
    {
      "anonymous": false,
      "inputs": [
        {
          "indexed": true,
          "internalType": "bytes32",
          "name": "role",
          "type": "bytes32"
        },
        {
          "indexed": true,
          "internalType": "address",
          "name": "account",
          "type": "address"
        },
        {
          "indexed": true,
          "internalType": "address",
          "name": "sender",
          "type": "address"
        }
      ],
      "name": "RoleRevoked",
      "type": "event"
    },
    {
      "inputs": [],
      "name": "AIRDROP_OPERATOR",
      "outputs": [
        {
          "internalType": "bytes32",
          "name": "",
          "type": "bytes32"
        }
      ],
      "stateMutability": "view",
      "type": "function"
    },
    {
      "inputs": [],
      "name": "DEFAULT_ADMIN_ROLE",
      "outputs": [
        {
          "internalType": "bytes32",
          "name": "",
          "type": "bytes32"
        }
      ],
      "stateMutability": "view",
      "type": "function"
    },
    {
      "inputs": [],
      "name": "EMERGENCY_ADMIN_ROLE",
      "outputs": [
        {
          "internalType": "bytes32",
          "name": "",
          "type": "bytes32"
        }
      ],
      "stateMutability": "view",
      "type": "function"
    },
    {
      "inputs": [],
      "name": "GOVERNANCE_ROLE",
      "outputs": [
        {
          "internalType": "bytes32",
          "name": "",
          "type": "bytes32"
        }
      ],
      "stateMutability": "view",
      "type": "function"
    },
    {
      "inputs": [],
      "name": "LIQUIDATION_OPERATOR",
      "outputs": [
        {
          "internalType": "bytes32",
          "name": "",
          "type": "bytes32"
        }
      ],
      "stateMutability": "view",
      "type": "function"
    },
    {
      "inputs": [],
      "name": "LIQUIDATOR_ROLE",
      "outputs": [
        {
          "internalType": "bytes32",
          "name": "",
          "type": "bytes32"
        }
      ],
      "stateMutability": "view",
      "type": "function"
    },
    {
      "inputs": [],
      "name": "POOL_ADMIN_ROLE",
      "outputs": [
        {
          "internalType": "bytes32",
          "name": "",
          "type": "bytes32"
        }
      ],
      "stateMutability": "view",
      "type": "function"
    },
    {
      "inputs": [
        {
          "internalType": "address",
          "name": "address_",
          "type": "address"
        }
      ],
      "name": "addAirdropOperator",
      "outputs": [],
      "stateMutability": "nonpayable",
      "type": "function"
    },
    {
      "inputs": [
        {
          "internalType": "address",
          "name": "admin",
          "type": "address"
        }
      ],
      "name": "addEmergencyAdmin",
      "outputs": [],
      "stateMutability": "nonpayable",
      "type": "function"
    },
    {
      "inputs": [
        {
          "internalType": "address",
          "name": "admin",
          "type": "address"
        }
      ],
      "name": "addGovernance",
      "outputs": [],
      "stateMutability": "nonpayable",
      "type": "function"
    },
    {
      "inputs": [
        {
          "internalType": "address",
          "name": "address_",
          "type": "address"
        }
      ],
      "name": "addLiquidationOperator",
      "outputs": [],
      "stateMutability": "nonpayable",
      "type": "function"
    },
    {
      "inputs": [
        {
          "internalType": "address",
          "name": "poolAdmin",
          "type": "address"
        }
      ],
      "name": "addPoolAdmin",
      "outputs": [],
      "stateMutability": "nonpayable",
      "type": "function"
    },
    {
      "inputs": [
        {
          "internalType": "bytes32",
          "name": "role",
          "type": "bytes32"
        }
      ],
      "name": "getRoleAdmin",
      "outputs": [
        {
          "internalType": "bytes32",
          "name": "",
          "type": "bytes32"
        }
      ],
      "stateMutability": "view",
      "type": "function"
    },
    {
      "inputs": [
        {
          "internalType": "bytes32",
          "name": "role",
          "type": "bytes32"
        },
        {
          "internalType": "address",
          "name": "account",
          "type": "address"
        }
      ],
      "name": "grantRole",
      "outputs": [],
      "stateMutability": "nonpayable",
      "type": "function"
    },
    {
      "inputs": [
        {
          "internalType": "bytes32",
          "name": "role",
          "type": "bytes32"
        },
        {
          "internalType": "address",
          "name": "account",
          "type": "address"
        }
      ],
      "name": "hasRole",
      "outputs": [
        {
          "internalType": "bool",
          "name": "",
          "type": "bool"
        }
      ],
      "stateMutability": "view",
      "type": "function"
    },
    {
      "inputs": [
        {
          "internalType": "address",
          "name": "address_",
          "type": "address"
        }
      ],
      "name": "isAirdropOperator",
      "outputs": [
        {
          "internalType": "bool",
          "name": "",
          "type": "bool"
        }
      ],
      "stateMutability": "view",
      "type": "function"
    },
    {
      "inputs": [
        {
          "internalType": "address",
          "name": "admin",
          "type": "address"
        }
      ],
      "name": "isEmergencyAdmin",
      "outputs": [
        {
          "internalType": "bool",
          "name": "",
          "type": "bool"
        }
      ],
      "stateMutability": "view",
      "type": "function"
    },
    {
      "inputs": [
        {
          "internalType": "address",
          "name": "admin",
          "type": "address"
        }
      ],
      "name": "isGovernance",
      "outputs": [
        {
          "internalType": "bool",
          "name": "",
          "type": "bool"
        }
      ],
      "stateMutability": "view",
      "type": "function"
    },
    {
      "inputs": [
        {
          "internalType": "address",
          "name": "address_",
          "type": "address"
        }
      ],
      "name": "isLiquidationOperator",
      "outputs": [
        {
          "internalType": "bool",
          "name": "",
          "type": "bool"
        }
      ],
      "stateMutability": "view",
      "type": "function"
    },
    {
      "inputs": [
        {
          "internalType": "address",
          "name": "poolAdmin",
          "type": "address"
        }
      ],
      "name": "isPoolAdmin",
      "outputs": [
        {
          "internalType": "bool",
          "name": "",
          "type": "bool"
        }
      ],
      "stateMutability": "view",
      "type": "function"
    },
    {
      "inputs": [],
      "name": "owner",
      "outputs": [
        {
          "internalType": "address",
          "name": "",
          "type": "address"
        }
      ],
      "stateMutability": "view",
      "type": "function"
    },
    {
      "inputs": [
        {
          "internalType": "address",
          "name": "address_",
          "type": "address"
        }
      ],
      "name": "removeAirdropOperator",
      "outputs": [],
      "stateMutability": "nonpayable",
      "type": "function"
    },
    {
      "inputs": [
        {
          "internalType": "address",
          "name": "admin",
          "type": "address"
        }
      ],
      "name": "removeEmergencyAdmin",
      "outputs": [],
      "stateMutability": "nonpayable",
      "type": "function"
    },
    {
      "inputs": [
        {
          "internalType": "address",
          "name": "admin",
          "type": "address"
        }
      ],
      "name": "removeGovernance",
      "outputs": [],
      "stateMutability": "nonpayable",
      "type": "function"
    },
    {
      "inputs": [
        {
          "internalType": "address",
          "name": "address_",
          "type": "address"
        }
      ],
      "name": "removeLiquidationOperator",
      "outputs": [],
      "stateMutability": "nonpayable",
      "type": "function"
    },
    {
      "inputs": [
        {
          "internalType": "address",
          "name": "poolAdmin",
          "type": "address"
        }
      ],
      "name": "removePoolAdmin",
      "outputs": [],
      "stateMutability": "nonpayable",
      "type": "function"
    },
    {
      "inputs": [],
      "name": "renounceOwnership",
      "outputs": [],
      "stateMutability": "nonpayable",
      "type": "function"
    },
    {
      "inputs": [
        {
          "internalType": "bytes32",
          "name": "role",
          "type": "bytes32"
        },
        {
          "internalType": "address",
          "name": "account",
          "type": "address"
        }
      ],
      "name": "renounceRole",
      "outputs": [],
      "stateMutability": "nonpayable",
      "type": "function"
    },
    {
      "inputs": [
        {
          "internalType": "bytes32",
          "name": "role",
          "type": "bytes32"
        },
        {
          "internalType": "address",
          "name": "account",
          "type": "address"
        }
      ],
      "name": "revokeRole",
      "outputs": [],
      "stateMutability": "nonpayable",
      "type": "function"
    },
    {
      "inputs": [
        {
          "internalType": "bytes4",
          "name": "interfaceId",
          "type": "bytes4"
        }
      ],
      "name": "supportsInterface",
      "outputs": [
        {
          "internalType": "bool",
          "name": "",
          "type": "bool"
        }
      ],
      "stateMutability": "view",
      "type": "function"
    },
    {
      "inputs": [
        {
          "internalType": "address",
          "name": "newOwner",
          "type": "address"
        }
      ],
      "name": "transferOwnership",
      "outputs": [],
      "stateMutability": "nonpayable",
      "type": "function"
    }
  ],
  "transactionHash": "0x096ace000a570f78f6aa27e486cdd956539196c81aef655c455c8924c8eca0ab",
  "args": [],
  "solcInputHash": "903b6e0b7a82abf3fd1d087256b904a8",
  "bytecode": "0x608060405234801561001057600080fd5b5061001a3361003b565b61003660006100316001546001600160a01b031690565b61008d565b610139565b600180546001600160a01b038381166001600160a01b0319831681179093556040519116919082907f8be0079c531659141344cd1fd0a4f28419497f9722a3daafe3b4186f6b6457e090600090a35050565b610097828261009b565b5050565b6000828152602081815260408083206001600160a01b038516845290915290205460ff16610097576000828152602081815260408083206001600160a01b03851684529091529020805460ff191660011790556100f53390565b6001600160a01b0316816001600160a01b0316837f2f8788117e7eff1d82e926ec794901d17c78024a50270940304540a733656f0d60405160405180910390a45050565b610e75806101486000396000f3fe608060405234801561001057600080fd5b50600436106101e55760003560e01c80637be53ca11161010f578063b8f6dba7116100a2578063dee1f0e411610071578063dee1f0e41461042e578063f2fde38b14610441578063f36c8f5c14610454578063f83695cb1461046957600080fd5b8063b8f6dba7146103e0578063c13a2a6d146103f5578063c4c7f2f414610408578063d547741f1461041b57600080fd5b80639078c85a116100de5780639078c85a1461039f57806391d14854146103b2578063a217fddf146103c5578063ab52f8ad146103cd57600080fd5b80637be53ca1146103495780638b4ef30a1461035c5780638da5cb5b14610371578063906e24791461038c57600080fd5b80632500f2b6116101875780636e76fc8f116101565780636e76fc8f14610306578063715018a61461031b5780637522c56b146103235780637a9a93f41461033657600080fd5b80632500f2b6146102ba5780632f2ff15d146102cd57806336568abe146102e0578063427158d8146102f357600080fd5b8063179efb09116101c3578063179efb091461025a5780631c3599881461026f57806322650caf14610284578063248a9ca31461029757600080fd5b806301ffc9a7146101ea57806307e131a51461021257806316d8887a14610225575b600080fd5b6101fd6101f8366004610b91565b61047c565b60405190151581526020015b60405180910390f35b6101fd610220366004610bd7565b6104b3565b61024c7feb33521169e672634fcae38dcc3bab0be8a080072000cfbdc0e041665d727c1881565b604051908152602001610209565b61026d610268366004610bd7565b6104cd565b005b61024c600080516020610e0083398151915281565b61026d610292366004610bd7565b6104e8565b61024c6102a5366004610bf2565b60009081526020819052604090206001015490565b6101fd6102c8366004610bd7565b610500565b61026d6102db366004610c0b565b61051a565b61026d6102ee366004610c0b565b610545565b61026d610301366004610bd7565b6105c8565b61024c600080516020610e2083398151915281565b61026d6105e0565b61026d610331366004610bd7565b610646565b61026d610344366004610bd7565b61065e565b6101fd610357366004610bd7565b610676565b61024c600080516020610da083398151915281565b6001546040516001600160a01b039091168152602001610209565b61026d61039a366004610bd7565b610690565b6101fd6103ad366004610bd7565b6106a8565b6101fd6103c0366004610c0b565b6106be565b61024c600081565b61026d6103db366004610bd7565b6106e7565b61024c600080516020610dc083398151915281565b61026d610403366004610bd7565b6106ff565b61026d610416366004610bd7565b610717565b61026d610429366004610c0b565b61072f565b6101fd61043c366004610bd7565b610755565b61026d61044f366004610bd7565b61076f565b61024c600080516020610de083398151915281565b61026d610477366004610bd7565b610837565b60006001600160e01b03198216637965db0b60e01b14806104ad57506301ffc9a760e01b6001600160e01b03198316145b92915050565b60006104ad600080516020610e00833981519152836106be565b6104e5600080516020610e208339815191528261051a565b50565b6104e5600080516020610dc08339815191528261051a565b60006104ad600080516020610e20833981519152836106be565b600082815260208190526040902060010154610536813361084f565b61054083836108b3565b505050565b6001600160a01b03811633146105ba5760405162461bcd60e51b815260206004820152602f60248201527f416363657373436f6e74726f6c3a2063616e206f6e6c792072656e6f756e636560448201526e103937b632b9903337b91039b2b63360891b60648201526084015b60405180910390fd5b6105c48282610937565b5050565b6104e5600080516020610e008339815191528261051a565b6001546001600160a01b0316331461063a5760405162461bcd60e51b815260206004820181905260248201527f4f776e61626c653a2063616c6c6572206973206e6f7420746865206f776e657260448201526064016105b1565b610644600061099c565b565b6104e5600080516020610e008339815191528261072f565b6104e5600080516020610e208339815191528261072f565b60006104ad600080516020610dc0833981519152836106be565b6104e5600080516020610de08339815191528261072f565b60006104ad600080516020610da0833981519152835b6000918252602082815260408084206001600160a01b0393909316845291905290205460ff1690565b6104e5600080516020610da08339815191528261072f565b6104e5600080516020610da08339815191528261051a565b6104e5600080516020610de08339815191528261051a565b60008281526020819052604090206001015461074b813361084f565b6105408383610937565b60006104ad600080516020610de0833981519152836106be565b6001546001600160a01b031633146107c95760405162461bcd60e51b815260206004820181905260248201527f4f776e61626c653a2063616c6c6572206973206e6f7420746865206f776e657260448201526064016105b1565b6001600160a01b03811661082e5760405162461bcd60e51b815260206004820152602660248201527f4f776e61626c653a206e6577206f776e657220697320746865207a65726f206160448201526564647265737360d01b60648201526084016105b1565b6104e58161099c565b6104e5600080516020610dc08339815191528261072f565b61085982826106be565b6105c457610871816001600160a01b031660146109ee565b61087c8360206109ee565b60405160200161088d929190610c67565b60408051601f198184030181529082905262461bcd60e51b82526105b191600401610cdc565b6108bd82826106be565b6105c4576000828152602081815260408083206001600160a01b03851684529091529020805460ff191660011790556108f33390565b6001600160a01b0316816001600160a01b0316837f2f8788117e7eff1d82e926ec794901d17c78024a50270940304540a733656f0d60405160405180910390a45050565b61094182826106be565b156105c4576000828152602081815260408083206001600160a01b0385168085529252808320805460ff1916905551339285917ff6391f5c32d9c69d2a47ea670b442974b53935d1edc7fd64eb21e047a839171b9190a45050565b600180546001600160a01b038381166001600160a01b0319831681179093556040519116919082907f8be0079c531659141344cd1fd0a4f28419497f9722a3daafe3b4186f6b6457e090600090a35050565b606060006109fd836002610d25565b610a08906002610d44565b67ffffffffffffffff811115610a2057610a20610d5c565b6040519080825280601f01601f191660200182016040528015610a4a576020820181803683370190505b509050600360fc1b81600081518110610a6557610a65610d72565b60200101906001600160f81b031916908160001a905350600f60fb1b81600181518110610a9457610a94610d72565b60200101906001600160f81b031916908160001a9053506000610ab8846002610d25565b610ac3906001610d44565b90505b6001811115610b3b576f181899199a1a9b1b9c1cb0b131b232b360811b85600f1660108110610af757610af7610d72565b1a60f81b828281518110610b0d57610b0d610d72565b60200101906001600160f81b031916908160001a90535060049490941c93610b3481610d88565b9050610ac6565b508315610b8a5760405162461bcd60e51b815260206004820181905260248201527f537472696e67733a20686578206c656e67746820696e73756666696369656e7460448201526064016105b1565b9392505050565b600060208284031215610ba357600080fd5b81356001600160e01b031981168114610b8a57600080fd5b80356001600160a01b0381168114610bd257600080fd5b919050565b600060208284031215610be957600080fd5b610b8a82610bbb565b600060208284031215610c0457600080fd5b5035919050565b60008060408385031215610c1e57600080fd5b82359150610c2e60208401610bbb565b90509250929050565b60005b83811015610c52578181015183820152602001610c3a565b83811115610c61576000848401525b50505050565b7f416363657373436f6e74726f6c3a206163636f756e7420000000000000000000815260008351610c9f816017850160208801610c37565b7001034b99036b4b9b9b4b733903937b6329607d1b6017918401918201528351610cd0816028840160208801610c37565b01602801949350505050565b6020815260008251806020840152610cfb816040850160208701610c37565b601f01601f19169190910160400192915050565b634e487b7160e01b600052601160045260246000fd5b6000816000190483118215151615610d3f57610d3f610d0f565b500290565b60008219821115610d5757610d57610d0f565b500190565b634e487b7160e01b600052604160045260246000fd5b634e487b7160e01b600052603260045260246000fd5b600081610d9757610d97610d0f565b50600019019056fe9cbd7083a92b1b88c878310e11346bc771ac455d0b0517153b5c1ff2e52d580c12ad05bde78c5ab75238ce885307f96ecd482bb402ef831f99e7018a0f169b7b35a7846a2a701fff6f9d61a46ebff5da578c5dcee8bdf361c569f9ea4ee64771a7a56dc561434090848c8920f50ba473600b2c8caacd3a43e5c37dd3370905e55c91514091af31f62f596a314af7d5be40146b2f2355969392f055e12e0982fba2646970667358221220cdbcf16395c58934b9c48556c589d27334ead44b432b3a547998770148f177c864736f6c634300080a0033",
  "devdoc": {
    "kind": "dev",
    "methods": {
      "getRoleAdmin(bytes32)": {
        "details": "Returns the admin role that controls `role`. See {grantRole} and {revokeRole}. To change a role's admin, use {_setRoleAdmin}."
      },
      "grantRole(bytes32,address)": {
        "details": "Grants `role` to `account`. If `account` had not been already granted `role`, emits a {RoleGranted} event. Requirements: - the caller must have ``role``'s admin role."
      },
      "hasRole(bytes32,address)": {
        "details": "Returns `true` if `account` has been granted `role`."
      },
      "owner()": {
        "details": "Returns the address of the current owner."
      },
      "renounceOwnership()": {
        "details": "Leaves the contract without owner. It will not be possible to call `onlyOwner` functions anymore. Can only be called by the current owner. NOTE: Renouncing ownership will leave the contract without an owner, thereby removing any functionality that is only available to the owner."
      },
      "renounceRole(bytes32,address)": {
        "details": "Revokes `role` from the calling account. Roles are often managed via {grantRole} and {revokeRole}: this function's purpose is to provide a mechanism for accounts to lose their privileges if they are compromised (such as when a trusted device is misplaced). If the calling account had been granted `role`, emits a {RoleRevoked} event. Requirements: - the caller must be `account`."
      },
      "revokeRole(bytes32,address)": {
        "details": "Revokes `role` from `account`. If `account` had been granted `role`, emits a {RoleRevoked} event. Requirements: - the caller must have ``role``'s admin role."
      },
      "supportsInterface(bytes4)": {
        "details": "See {IERC165-supportsInterface}."
      },
      "transferOwnership(address)": {
        "details": "Transfers ownership of the contract to a new account (`newOwner`). Can only be called by the current owner."
      }
    },
    "version": 1
  },
  "userdoc": {
    "kind": "user",
    "methods": {},
    "version": 1
  },
  "storageLayout": {
    "storage": [
      {
        "astId": 24,
        "contract": "contracts/configuration/ACLManager.sol:ACLManager",
        "label": "_roles",
        "offset": 0,
        "slot": "0",
        "type": "t_mapping(t_bytes32,t_struct(RoleData)19_storage)"
      },
      {
        "astId": 387,
        "contract": "contracts/configuration/ACLManager.sol:ACLManager",
        "label": "_owner",
        "offset": 0,
        "slot": "1",
        "type": "t_address"
      }
    ],
    "types": {
      "t_address": {
        "encoding": "inplace",
        "label": "address",
        "numberOfBytes": "20"
      },
      "t_bool": {
        "encoding": "inplace",
        "label": "bool",
        "numberOfBytes": "1"
      },
      "t_bytes32": {
        "encoding": "inplace",
        "label": "bytes32",
        "numberOfBytes": "32"
      },
      "t_mapping(t_address,t_bool)": {
        "encoding": "mapping",
        "key": "t_address",
        "label": "mapping(address => bool)",
        "numberOfBytes": "32",
        "value": "t_bool"
      },
      "t_mapping(t_bytes32,t_struct(RoleData)19_storage)": {
        "encoding": "mapping",
        "key": "t_bytes32",
        "label": "mapping(bytes32 => struct AccessControl.RoleData)",
        "numberOfBytes": "32",
        "value": "t_struct(RoleData)19_storage"
      },
      "t_struct(RoleData)19_storage": {
        "encoding": "inplace",
        "label": "struct AccessControl.RoleData",
        "members": [
          {
            "astId": 16,
            "contract": "contracts/configuration/ACLManager.sol:ACLManager",
            "label": "members",
            "offset": 0,
            "slot": "0",
            "type": "t_mapping(t_address,t_bool)"
          },
          {
            "astId": 18,
            "contract": "contracts/configuration/ACLManager.sol:ACLManager",
            "label": "adminRole",
            "offset": 0,
            "slot": "1",
            "type": "t_bytes32"
          }
        ],
        "numberOfBytes": "64"
      }
    }
  }
}