{
  "address": "0x61e8088DAF22B3c22Fe404DEf2AD4f9F3007E28e",
  "abi": [
    {
      "inputs": [
        {
          "internalType": "contract IAaveLendPoolAddressesProvider",
          "name": "provider",
          "type": "address"
        },
        {
          "internalType": "contract IOpenSkyBespokeSettings",
          "name": "bespokeSettings",
          "type": "address"
        }
      ],
      "stateMutability": "nonpayable",
      "type": "constructor"
    },
    {
      "anonymous": false,
      "inputs": [
        {
          "indexed": true,
          "internalType": "address",
          "name": "asset",
          "type": "address"
        },
        {
          "indexed": true,
          "internalType": "address",
          "name": "borrower",
          "type": "address"
        },
        {
          "indexed": false,
          "internalType": "uint256",
          "name": "oldLoanId",
          "type": "uint256"
        },
        {
          "indexed": false,
          "internalType": "uint256",
          "name": "newLoanId",
          "type": "uint256"
        }
      ],
      "name": "RefinanceBespokeToBespoke",
      "type": "event"
    },
    {
      "inputs": [],
      "name": "AAVE2_ADDRESSES_PROVIDER",
      "outputs": [
        {
          "internalType": "contract IAaveLendPoolAddressesProvider",
          "name": "",
          "type": "address"
        }
      ],
      "stateMutability": "view",
      "type": "function"
    },
    {
      "inputs": [],
      "name": "BESPOKE_SETTINGS",
      "outputs": [
        {
          "internalType": "contract IOpenSkyBespokeSettings",
          "name": "",
          "type": "address"
        }
      ],
      "stateMutability": "view",
      "type": "function"
    },
    {
      "inputs": [],
      "name": "aavePool",
      "outputs": [
        {
          "internalType": "contract IAaveLendPool",
          "name": "",
          "type": "address"
        }
      ],
      "stateMutability": "view",
      "type": "function"
    },
    {
      "inputs": [
        {
          "internalType": "address[]",
          "name": "assets",
          "type": "address[]"
        },
        {
          "internalType": "uint256[]",
          "name": "amounts",
          "type": "uint256[]"
        },
        {
          "internalType": "uint256[]",
          "name": "premiums",
          "type": "uint256[]"
        },
        {
          "internalType": "address",
          "name": "initiator",
          "type": "address"
        },
        {
          "internalType": "bytes",
          "name": "params",
          "type": "bytes"
        }
      ],
      "name": "executeOperation",
      "outputs": [
        {
          "internalType": "bool",
          "name": "",
          "type": "bool"
        }
      ],
      "stateMutability": "nonpayable",
      "type": "function"
    },
    {
      "inputs": [
        {
          "internalType": "address",
          "name": "",
          "type": "address"
        },
        {
          "internalType": "address",
          "name": "",
          "type": "address"
        },
        {
          "internalType": "uint256[]",
          "name": "",
          "type": "uint256[]"
        },
        {
          "internalType": "uint256[]",
          "name": "",
          "type": "uint256[]"
        },
        {
          "internalType": "bytes",
          "name": "",
          "type": "bytes"
        }
      ],
      "name": "onERC1155BatchReceived",
      "outputs": [
        {
          "internalType": "bytes4",
          "name": "",
          "type": "bytes4"
        }
      ],
      "stateMutability": "nonpayable",
      "type": "function"
    },
    {
      "inputs": [
        {
          "internalType": "address",
          "name": "",
          "type": "address"
        },
        {
          "internalType": "address",
          "name": "",
          "type": "address"
        },
        {
          "internalType": "uint256",
          "name": "",
          "type": "uint256"
        },
        {
          "internalType": "uint256",
          "name": "",
          "type": "uint256"
        },
        {
          "internalType": "bytes",
          "name": "",
          "type": "bytes"
        }
      ],
      "name": "onERC1155Received",
      "outputs": [
        {
          "internalType": "bytes4",
          "name": "",
          "type": "bytes4"
        }
      ],
      "stateMutability": "nonpayable",
      "type": "function"
    },
    {
      "inputs": [
        {
          "internalType": "address",
          "name": "",
          "type": "address"
        },
        {
          "internalType": "address",
          "name": "",
          "type": "address"
        },
        {
          "internalType": "uint256",
          "name": "",
          "type": "uint256"
        },
        {
          "internalType": "bytes",
          "name": "",
          "type": "bytes"
        }
      ],
      "name": "onERC721Received",
      "outputs": [
        {
          "internalType": "bytes4",
          "name": "",
          "type": "bytes4"
        }
      ],
      "stateMutability": "nonpayable",
      "type": "function"
    },
    {
      "inputs": [
        {
          "internalType": "bytes4",
          "name": "interfaceId",
          "type": "bytes4"
        }
      ],
      "name": "supportsInterface",
      "outputs": [
        {
          "internalType": "bool",
          "name": "",
          "type": "bool"
        }
      ],
      "stateMutability": "view",
      "type": "function"
    }
  ],
  "transactionHash": "0x6edc8aafbba7203004ffc6ef43b6bcec197924226c8f084f0cff2516de662dee",
  "args": [
    "0xd05e3E715d945B59290df0ae8eF85c1BdB684744",
    "0xD8672EC52c7FD5CF186Bd5441419E63062898F13"
  ],
  "solcInputHash": "e69850385af8196781c724d9be9002bd",
  "bytecode": "0x60c06040523480156200001157600080fd5b506040516200227338038062002273833981016040819052620000349162000065565b6001600160a01b039182166080521660a052620000a4565b6001600160a01b03811681146200006257600080fd5b50565b600080604083850312156200007957600080fd5b825162000086816200004c565b602084015190925062000099816200004c565b809150509250929050565b60805160a0516121646200010f600039600081816101300152818161033e015281816105220152818161061401528181610709015281816108bd015281816109b401528181610ac201528181610b940152610d9b01526000818160ba015261101b01526121646000f3fe608060405234801561001057600080fd5b50600436106100885760003560e01c8063920f5c841161005b578063920f5c8414610152578063a03e4bc314610165578063bc197c811461016d578063f23a6e611461018c57600080fd5b806301ffc9a71461008d57806311ea536e146100b5578063150b7a02146100f457806329c55f061461012b575b600080fd5b6100a061009b3660046114b1565b6101ab565b60405190151581526020015b60405180910390f35b6100dc7f000000000000000000000000000000000000000000000000000000000000000081565b6040516001600160a01b0390911681526020016100ac565b610112610102366004611602565b630a85bd0160e11b949350505050565b6040516001600160e01b031990911681526020016100ac565b6100dc7f000000000000000000000000000000000000000000000000000000000000000081565b6100a06101603660046116b8565b6101e2565b6100dc611017565b61011261017b366004611830565b63bc197c8160e01b95945050505050565b61011261019a3660046118dd565b63f23a6e6160e01b95945050505050565b60006001600160e01b03198216630271189760e51b14806101dc57506301ffc9a760e01b6001600160e01b03198316145b92915050565b60006001891480156101f45750600187145b80156102005750600185145b6102655760405162461bcd60e51b815260206004820152602b60248201527f424d5f464c4153485f4c4f414e5f4d554c5449504c455f4153534554535f4e4f60448201526a1517d4d5541413d495115160aa1b60648201526084015b60405180910390fd5b3361026e611017565b6001600160a01b0316146102c45760405162461bcd60e51b815260206004820152601c60248201527f424d5f464c4153485f4c4f414e5f494e56414c49445f43414c4c455200000000604482015260640161025c565b6102cc611392565b6102d883850185611945565b6001600160a01b031660a083015260e08201819052805161030191602091810182019101611a0f565b61010085018190526080850191909152606084019190915290825280516103319190810160209081019101611ac8565b81610120018190525060007f00000000000000000000000000000000000000000000000000000000000000006001600160a01b031663956236416040518163ffffffff1660e01b8152600401602060405180830381865afa15801561039a573d6000803e3d6000fd5b505050506040513d601f19601f820116820180604052508101906103be9190611c71565b825160405163622fe39f60e01b81526001600160a01b03929092169163622fe39f916103f09160040190815260200190565b61028060405180830381865afa15801561040e573d6000803e3d6000fd5b505050506040513d601f19601f820116820180604052508101906104329190611c9d565b905081610120015161018001516001600160a01b03168161012001516001600160a01b0316146104a45760405162461bcd60e51b815260206004820181905260248201527f424d5f464c4153485f4c4f414e5f43555252454e43595f4e4f545f4d41544348604482015260640161025c565b816101200151606001516001600160a01b031681600001516001600160a01b0316146105205760405162461bcd60e51b815260206004820152602560248201527f424d5f464c4153485f4c4f414e5f544f4b454e5f414444524553535f4e4f545f60448201526409a82a886960db1b606482015260840161025c565b7f00000000000000000000000000000000000000000000000000000000000000006001600160a01b031663bb322a836040518163ffffffff1660e01b8152600401602060405180830381865afa15801561057e573d6000803e3d6000fd5b505050506040513d601f19601f820116820180604052508101906105a29190611c71565b60a08301518351604051632142170760e11b81526001600160a01b03928316600482015230602482015260448101919091529116906342842e0e90606401600060405180830381600087803b1580156105fa57600080fd5b505af115801561060e573d6000803e3d6000fd5b505050507f00000000000000000000000000000000000000000000000000000000000000006001600160a01b031663956236416040518163ffffffff1660e01b8152600401602060405180830381865afa158015610670573d6000803e3d6000fd5b505050506040513d601f19601f820116820180604052508101906106949190611c71565b8251604051636b52b36560e01b81526001600160a01b039290921691636b52b365916106c69160040190815260200190565b602060405180830381865afa1580156106e3573d6000803e3d6000fd5b505050506040513d601f19601f820116820180604052508101906107079190611df6565b7f00000000000000000000000000000000000000000000000000000000000000006001600160a01b031663956236416040518163ffffffff1660e01b8152600401602060405180830381865afa158015610765573d6000803e3d6000fd5b505050506040513d601f19601f820116820180604052508101906107899190611c71565b8351604051634b72cb4160e11b81526001600160a01b0392909216916396e59682916107bb9160040190815260200190565b602060405180830381865afa1580156107d8573d6000803e3d6000fd5b505050506040513d601f19601f820116820180604052508101906107fc9190611df6565b6108069190611e25565b6020830152898960008161081c5761081c611e3d565b90506020020135826020015111156108855760405162461bcd60e51b815260206004820152602660248201527f42505f464c4153485f4c4f414e5f524543454956455f4d4f4e45595f4e4f545f60448201526508a9c9eaa8e960d31b606482015260840161025c565b8b8b600081811061089857610898611e3d565b90506020020160208101906108ad9190611e53565b6001600160a01b031663095ea7b37f00000000000000000000000000000000000000000000000000000000000000006001600160a01b031663956236416040518163ffffffff1660e01b8152600401602060405180830381865afa158015610919573d6000803e3d6000fd5b505050506040513d601f19601f8201168201806040525081019061093d9190611c71565b60208501516040516001600160e01b031960e085901b1681526001600160a01b03909216600483015260248201526044016020604051808303816000875af115801561098d573d6000803e3d6000fd5b505050506040513d601f19601f820116820180604052508101906109b19190611e70565b507f00000000000000000000000000000000000000000000000000000000000000006001600160a01b031663956236416040518163ffffffff1660e01b8152600401602060405180830381865afa158015610a10573d6000803e3d6000fd5b505050506040513d601f19601f82011682018060405250810190610a349190611c71565b8251604051631b8fec7360e11b81526001600160a01b03929092169163371fd8e691610a669160040190815260200190565b600060405180830381600087803b158015610a8057600080fd5b505af1158015610a94573d6000803e3d6000fd5b505082516040516398460c5f60e01b81526001600160a01b0391821660048201819052935063095ea7b392507f0000000000000000000000000000000000000000000000000000000000000000909116906398460c5f90602401602060405180830381865afa158015610b0b573d6000803e3d6000fd5b505050506040513d601f19601f82011682018060405250810190610b2f9190611c71565b60208401516040516001600160e01b031960e085901b1681526001600160a01b0390921660048301526024820152604401600060405180830381600087803b158015610b7a57600080fd5b505af1158015610b8e573d6000803e3d6000fd5b505050507f00000000000000000000000000000000000000000000000000000000000000006001600160a01b031663956236416040518163ffffffff1660e01b8152600401602060405180830381865afa158015610bf0573d6000803e3d6000fd5b505050506040513d601f19601f82011682018060405250810190610c149190611c71565b6001600160a01b031663a2b8fe87836101200151836020015185606001518660800151306040518663ffffffff1660e01b8152600401610c58959493929190611ed9565b6020604051808303816000875af1158015610c77573d6000803e3d6000fd5b505050506040513d601f19601f82011682018060405250810190610c9b9190611df6565b6101408301528787600081610cb257610cb2611e3d565b905060200201358260200151610cc89190611e25565b60c0830181905260608301511115610d3357610d2e8260a001518360c001518460600151610cf691906120e8565b8e8e6000818110610d0957610d09611e3d565b9050602002016020810190610d1e9190611e53565b6001600160a01b031691906110a0565b610d99565b8160c0015182606001511015610d9957610d998260a001513084606001518560c00151610d6091906120e8565b8f8f6000818110610d7357610d73611e3d565b9050602002016020810190610d889190611e53565b6001600160a01b0316929190611108565b7f00000000000000000000000000000000000000000000000000000000000000006001600160a01b031663bb322a836040518163ffffffff1660e01b8152600401602060405180830381865afa158015610df7573d6000803e3d6000fd5b505050506040513d601f19601f82011682018060405250810190610e1b9190611c71565b60a0830151610140840151604051632142170760e11b81523060048201526001600160a01b03928316602482015260448101919091529116906342842e0e90606401600060405180830381600087803b158015610e7757600080fd5b505af1158015610e8b573d6000803e3d6000fd5b505050508b8b6000818110610ea257610ea2611e3d565b9050602002016020810190610eb79190611e53565b6001600160a01b031663095ea7b3610ecd611017565b8a8a6000818110610ee057610ee0611e3d565b905060200201358d8d6000818110610efa57610efa611e3d565b90506020020135610f0b9190611e25565b6040516001600160e01b031960e085901b1681526001600160a01b03909216600483015260248201526044016020604051808303816000875af1158015610f56573d6000803e3d6000fd5b505050506040513d601f19601f82011682018060405250810190610f7a9190611e70565b508160a001516001600160a01b03168c8c6000818110610f9c57610f9c611e3d565b9050602002016020810190610fb19190611e53565b6001600160a01b03167f537ec0d414de558d408ed2e0cb05ceee24cd9fc300600b10bf70398497d481088460000151856101400151604051610ffd929190918252602082015260400190565b60405180910390a35060019b9a5050505050505050505050565b60007f00000000000000000000000000000000000000000000000000000000000000006001600160a01b0316630261bf8b6040518163ffffffff1660e01b8152600401602060405180830381865afa158015611077573d6000803e3d6000fd5b505050506040513d601f19601f8201168201806040525081019061109b9190611c71565b905090565b6040516001600160a01b03831660248201526044810182905261110390849063a9059cbb60e01b906064015b60408051601f198184030181529190526020810180516001600160e01b03166001600160e01b031990931692909217909152611146565b505050565b6040516001600160a01b03808516602483015283166044820152606481018290526111409085906323b872dd60e01b906084016110cc565b50505050565b600061119b826040518060400160405280602081526020017f5361666545524332303a206c6f772d6c6576656c2063616c6c206661696c6564815250856001600160a01b03166112189092919063ffffffff16565b80519091501561110357808060200190518101906111b99190611e70565b6111035760405162461bcd60e51b815260206004820152602a60248201527f5361666545524332303a204552433230206f7065726174696f6e20646964206e6044820152691bdd081cdd58d8d9595960b21b606482015260840161025c565b60606112278484600085611231565b90505b9392505050565b6060824710156112925760405162461bcd60e51b815260206004820152602660248201527f416464726573733a20696e73756666696369656e742062616c616e636520666f6044820152651c8818d85b1b60d21b606482015260840161025c565b843b6112e05760405162461bcd60e51b815260206004820152601d60248201527f416464726573733a2063616c6c20746f206e6f6e2d636f6e7472616374000000604482015260640161025c565b600080866001600160a01b031685876040516112fc91906120ff565b60006040518083038185875af1925050503d8060008114611339576040519150601f19603f3d011682016040523d82523d6000602084013e61133e565b606091505b509150915061134e828286611359565b979650505050505050565b6060831561136857508161122a565b8251156113785782518084602001fd5b8160405162461bcd60e51b815260040161025c919061211b565b604051806101600160405280600081526020016000815260200160006001600160a01b03168152602001600081526020016000815260200160006001600160a01b031681526020016000815260200160608152602001606081526020016114a4604080516102c081018252600080825260208201819052909182019081526000602082018190526040820181905260608083018290526080830182905260a0830182905260c0830182905260e08301829052610100830182905261012083018290526101408301829052610160830182905261018083018290526101a083018290526101c083018290526101e08301829052610200830152610220820181905261024082018190526102609091015290565b8152602001600081525090565b6000602082840312156114c357600080fd5b81356001600160e01b03198116811461122a57600080fd5b6001600160a01b03811681146114f057600080fd5b50565b634e487b7160e01b600052604160045260246000fd5b6040516102c081016001600160401b038111828210171561152c5761152c6114f3565b60405290565b60405161028081016001600160401b038111828210171561152c5761152c6114f3565b604051601f8201601f191681016001600160401b038111828210171561157d5761157d6114f3565b604052919050565b60006001600160401b0382111561159e5761159e6114f3565b50601f01601f191660200190565b600082601f8301126115bd57600080fd5b81356115d06115cb82611585565b611555565b8181528460208386010111156115e557600080fd5b816020850160208301376000918101602001919091529392505050565b6000806000806080858703121561161857600080fd5b8435611623816114db565b93506020850135611633816114db565b92506040850135915060608501356001600160401b0381111561165557600080fd5b611661878288016115ac565b91505092959194509250565b60008083601f84011261167f57600080fd5b5081356001600160401b0381111561169657600080fd5b6020830191508360208260051b85010111156116b157600080fd5b9250929050565b600080600080600080600080600060a08a8c0312156116d657600080fd5b89356001600160401b03808211156116ed57600080fd5b6116f98d838e0161166d565b909b50995060208c013591508082111561171257600080fd5b61171e8d838e0161166d565b909950975060408c013591508082111561173757600080fd5b6117438d838e0161166d565b909750955060608c01359150611758826114db565b90935060808b0135908082111561176e57600080fd5b818c0191508c601f83011261178257600080fd5b81358181111561179157600080fd5b8d60208285010111156117a357600080fd5b6020830194508093505050509295985092959850929598565b600082601f8301126117cd57600080fd5b813560206001600160401b038211156117e8576117e86114f3565b8160051b6117f7828201611555565b928352848101820192828101908785111561181157600080fd5b83870192505b8483101561134e57823582529183019190830190611817565b600080600080600060a0868803121561184857600080fd5b8535611853816114db565b94506020860135611863816114db565b935060408601356001600160401b038082111561187f57600080fd5b61188b89838a016117bc565b945060608801359150808211156118a157600080fd5b6118ad89838a016117bc565b935060808801359150808211156118c357600080fd5b506118d0888289016115ac565b9150509295509295909350565b600080600080600060a086880312156118f557600080fd5b8535611900816114db565b94506020860135611910816114db565b9350604086013592506060860135915060808601356001600160401b0381111561193957600080fd5b6118d0888289016115ac565b6000806040838503121561195857600080fd5b82356001600160401b0381111561196e57600080fd5b61197a858286016115ac565b925050602083013561198b816114db565b809150509250929050565b60005b838110156119b1578181015183820152602001611999565b838111156111405750506000910152565b600082601f8301126119d357600080fd5b81516119e16115cb82611585565b8181528460208386010111156119f657600080fd5b611a07826020830160208701611996565b949350505050565b60008060008060808587031215611a2557600080fd5b84519350602085015192506040850151915060608501516001600160401b03811115611a5057600080fd5b611661878288016119c2565b80518015158114611a6c57600080fd5b919050565b805160028110611a6c57600080fd5b8051611a6c816114db565b805164ffffffffff81168114611a6c57600080fd5b80516001600160801b0381168114611a6c57600080fd5b805160ff81168114611a6c57600080fd5b600060208284031215611ada57600080fd5b81516001600160401b0380821115611af157600080fd5b908301906102c08286031215611b0657600080fd5b611b0e611509565b611b1783611a5c565b8152611b2560208401611a5c565b6020820152611b3660408401611a71565b6040820152611b4760608401611a80565b60608201526080830151608082015260a083015160a0820152611b6c60c08401611a80565b60c082015260e083015160e0820152610100808401518183015250610120611b95818501611a8b565b90820152610140611ba7848201611a8b565b90820152610160611bb9848201611aa0565b90820152610180611bcb848201611a80565b908201526101a0611bdd848201611a80565b908201526101c083810151908201526101e080840151908201526102008084015190820152610220611c10818501611a80565b908201526102408381015183811115611c2857600080fd5b611c34888287016119c2565b8284015250506102609150611c4a828401611ab7565b9181019190915261028082810151908201526102a091820151918101919091529392505050565b600060208284031215611c8357600080fd5b815161122a816114db565b805160048110611a6c57600080fd5b60006102808284031215611cb057600080fd5b611cb8611532565b611cc183611a80565b81526020830151602082015260408301516040820152611ce360608401611a80565b6060820152611cf460808401611a80565b6080820152611d0560a08401611a80565b60a082015260c083015160c0820152611d2060e08401611aa0565b60e0820152610100611d33818501611aa0565b90820152610120611d45848201611a80565b90820152610140611d57848201611a80565b90820152610160838101519082015261018080840151908201526101a0611d7f818501611a8b565b908201526101c0611d91848201611a8b565b908201526101e0611da3848201611a8b565b90820152610200611db5848201611a8b565b90820152610220611dc7848201611a5c565b90820152610240611dd9848201611a5c565b90820152610260611deb848201611c8e565b908201529392505050565b600060208284031215611e0857600080fd5b5051919050565b634e487b7160e01b600052601160045260246000fd5b60008219821115611e3857611e38611e0f565b500190565b634e487b7160e01b600052603260045260246000fd5b600060208284031215611e6557600080fd5b813561122a816114db565b600060208284031215611e8257600080fd5b61122a82611a5c565b60028110611ea957634e487b7160e01b600052602160045260246000fd5b9052565b60008151808452611ec5816020860160208601611996565b601f01601f19169290920160200192915050565b60c08152611eec60c08201875115159052565b60006020870151611f0160e084018215159052565b506040870151610100611f1681850183611e8b565b60608901519150610120611f34818601846001600160a01b03169052565b60808a01519250610140838187015260a08b01519350610160848188015260c08c01519450610180611f70818901876001600160a01b03169052565b60e08d015195506101a086818a0152858e015196506101c0955086868a0152848e015196506101e09450611fac858a018864ffffffffff169052565b928d0151955061020092611fc88985018864ffffffffff169052565b918d0151955061022091611fe6898401886001600160801b03169052565b908d0151955061024090612004898301886001600160a01b03169052565b8d01519550610260612020898201886001600160a01b03169052565b948d015161028089810191909152938d01516102a0808a0191909152928d01516102c0808a0191909152828e01516001600160a01b03166102e08a0152818e01516103008a018290529650939492939261207e6103808a0188611ead565b9650808e0151935050505061209961032087018260ff169052565b5090890151610340850152979097015161036083015250602080820195909552604081019390935260608301919091526001600160a01b0316608082015280830360a090910152600082520190565b6000828210156120fa576120fa611e0f565b500390565b60008251612111818460208701611996565b9190910192915050565b60208152600061122a6020830184611ead56fea2646970667358221220ea3036e09df0026a2117fe358564d9c326e9ca27205384c20e06a9bfc7392d7a64736f6c634300080a0033",
  "libraries": {
    "BespokeTypes": "0x6727E0713F266168074e3dB6AF329a7670c94339"
  },
  "devdoc": {
    "kind": "dev",
    "methods": {
      "onERC721Received(address,address,uint256,bytes)": {
        "details": "See {IERC721Receiver-onERC721Received}. Always returns `IERC721Receiver.onERC721Received.selector`."
      },
      "supportsInterface(bytes4)": {
        "details": "See {IERC165-supportsInterface}."
      }
    },
    "version": 1
  },
  "userdoc": {
    "kind": "user",
    "methods": {},
    "version": 1
  },
  "storageLayout": {
    "storage": [],
    "types": null
  }
}