{
  "address": "0xc29b145828e86fc86339c3674026EF4c31098843",
  "abi": [
    {
      "inputs": [],
      "name": "ACL_ONLY_AIRDROP_OPERATOR_CAN_CALL",
      "outputs": [
        {
          "internalType": "string",
          "name": "",
          "type": "string"
        }
      ],
      "stateMutability": "view",
      "type": "function"
    },
    {
      "inputs": [],
      "name": "ACL_ONLY_EMERGENCY_ADMIN_CAN_CALL",
      "outputs": [
        {
          "internalType": "string",
          "name": "",
          "type": "string"
        }
      ],
      "stateMutability": "view",
      "type": "function"
    },
    {
      "inputs": [],
      "name": "ACL_ONLY_GOVERNANCE_CAN_CALL",
      "outputs": [
        {
          "internalType": "string",
          "name": "",
          "type": "string"
        }
      ],
      "stateMutability": "view",
      "type": "function"
    },
    {
      "inputs": [],
      "name": "ACL_ONLY_LIQUIDATOR_CAN_CALL",
      "outputs": [
        {
          "internalType": "string",
          "name": "",
          "type": "string"
        }
      ],
      "stateMutability": "view",
      "type": "function"
    },
    {
      "inputs": [],
      "name": "ACL_ONLY_POOL_ADMIN_CAN_CALL",
      "outputs": [
        {
          "internalType": "string",
          "name": "",
          "type": "string"
        }
      ],
      "stateMutability": "view",
      "type": "function"
    },
    {
      "inputs": [],
      "name": "ACL_ONLY_POOL_CAN_CALL",
      "outputs": [
        {
          "internalType": "string",
          "name": "",
          "type": "string"
        }
      ],
      "stateMutability": "view",
      "type": "function"
    },
    {
      "inputs": [],
      "name": "AMOUNT_SCALED_IS_ZERO",
      "outputs": [
        {
          "internalType": "string",
          "name": "",
          "type": "string"
        }
      ],
      "stateMutability": "view",
      "type": "function"
    },
    {
      "inputs": [],
      "name": "AMOUNT_TRANSFER_OVERFLOW",
      "outputs": [
        {
          "internalType": "string",
          "name": "",
          "type": "string"
        }
      ],
      "stateMutability": "view",
      "type": "function"
    },
    {
      "inputs": [],
      "name": "APPROVAL_FAILED",
      "outputs": [
        {
          "internalType": "string",
          "name": "",
          "type": "string"
        }
      ],
      "stateMutability": "view",
      "type": "function"
    },
    {
      "inputs": [],
      "name": "BORROW_AMOUNT_EXCEED_BORROW_LIMIT",
      "outputs": [
        {
          "internalType": "string",
          "name": "",
          "type": "string"
        }
      ],
      "stateMutability": "view",
      "type": "function"
    },
    {
      "inputs": [],
      "name": "BORROW_DURATION_NOT_ALLOWED",
      "outputs": [
        {
          "internalType": "string",
          "name": "",
          "type": "string"
        }
      ],
      "stateMutability": "view",
      "type": "function"
    },
    {
      "inputs": [],
      "name": "DEPOSIT_AMOUNT_SHOULD_BE_BIGGER_THAN_ZERO",
      "outputs": [
        {
          "internalType": "string",
          "name": "",
          "type": "string"
        }
      ],
      "stateMutability": "view",
      "type": "function"
    },
    {
      "inputs": [],
      "name": "END_LIQUIDATION_AMOUNT_ERROR",
      "outputs": [
        {
          "internalType": "string",
          "name": "",
          "type": "string"
        }
      ],
      "stateMutability": "view",
      "type": "function"
    },
    {
      "inputs": [],
      "name": "END_LIQUIDATION_STATUS_ERROR",
      "outputs": [
        {
          "internalType": "string",
          "name": "",
          "type": "string"
        }
      ],
      "stateMutability": "view",
      "type": "function"
    },
    {
      "inputs": [],
      "name": "ETH_TRANSFER_FAILED",
      "outputs": [
        {
          "internalType": "string",
          "name": "",
          "type": "string"
        }
      ],
      "stateMutability": "view",
      "type": "function"
    },
    {
      "inputs": [],
      "name": "EXTEND_MSG_VALUE_ERROR",
      "outputs": [
        {
          "internalType": "string",
          "name": "",
          "type": "string"
        }
      ],
      "stateMutability": "view",
      "type": "function"
    },
    {
      "inputs": [],
      "name": "EXTEND_STATUS_ERROR",
      "outputs": [
        {
          "internalType": "string",
          "name": "",
          "type": "string"
        }
      ],
      "stateMutability": "view",
      "type": "function"
    },
    {
      "inputs": [],
      "name": "FALLBACK_NOT_ALLOWED",
      "outputs": [
        {
          "internalType": "string",
          "name": "",
          "type": "string"
        }
      ],
      "stateMutability": "view",
      "type": "function"
    },
    {
      "inputs": [],
      "name": "FLASHCLAIM_EXECUTOR_ERROR",
      "outputs": [
        {
          "internalType": "string",
          "name": "",
          "type": "string"
        }
      ],
      "stateMutability": "view",
      "type": "function"
    },
    {
      "inputs": [],
      "name": "FLASHCLAIM_STATUS_ERROR",
      "outputs": [
        {
          "internalType": "string",
          "name": "",
          "type": "string"
        }
      ],
      "stateMutability": "view",
      "type": "function"
    },
    {
      "inputs": [],
      "name": "LOAN_CALLER_IS_NOT_OWNER",
      "outputs": [
        {
          "internalType": "string",
          "name": "",
          "type": "string"
        }
      ],
      "stateMutability": "view",
      "type": "function"
    },
    {
      "inputs": [],
      "name": "LOAN_COLLATERAL_NFT_CAN_NOT_BE_CLAIMED",
      "outputs": [
        {
          "internalType": "string",
          "name": "",
          "type": "string"
        }
      ],
      "stateMutability": "view",
      "type": "function"
    },
    {
      "inputs": [],
      "name": "LOAN_DOES_NOT_EXIST",
      "outputs": [
        {
          "internalType": "string",
          "name": "",
          "type": "string"
        }
      ],
      "stateMutability": "view",
      "type": "function"
    },
    {
      "inputs": [],
      "name": "LOAN_LIQUIDATING_STATUS_CAN_NOT_BE_UPDATED",
      "outputs": [
        {
          "internalType": "string",
          "name": "",
          "type": "string"
        }
      ],
      "stateMutability": "view",
      "type": "function"
    },
    {
      "inputs": [],
      "name": "LOAN_REPAYER_IS_NOT_OWNER",
      "outputs": [
        {
          "internalType": "string",
          "name": "",
          "type": "string"
        }
      ],
      "stateMutability": "view",
      "type": "function"
    },
    {
      "inputs": [],
      "name": "LOAN_SET_STATUS_ERROR",
      "outputs": [
        {
          "internalType": "string",
          "name": "",
          "type": "string"
        }
      ],
      "stateMutability": "view",
      "type": "function"
    },
    {
      "inputs": [],
      "name": "MATH_ADDITION_OVERFLOW",
      "outputs": [
        {
          "internalType": "string",
          "name": "",
          "type": "string"
        }
      ],
      "stateMutability": "view",
      "type": "function"
    },
    {
      "inputs": [],
      "name": "MATH_DIVISION_BY_ZERO",
      "outputs": [
        {
          "internalType": "string",
          "name": "",
          "type": "string"
        }
      ],
      "stateMutability": "view",
      "type": "function"
    },
    {
      "inputs": [],
      "name": "MATH_MULTIPLICATION_OVERFLOW",
      "outputs": [
        {
          "internalType": "string",
          "name": "",
          "type": "string"
        }
      ],
      "stateMutability": "view",
      "type": "function"
    },
    {
      "inputs": [],
      "name": "MONEY_MARKET_APPROVAL_FAILED",
      "outputs": [
        {
          "internalType": "string",
          "name": "",
          "type": "string"
        }
      ],
      "stateMutability": "view",
      "type": "function"
    },
    {
      "inputs": [],
      "name": "MONEY_MARKET_DELEGATE_CALL_ERROR",
      "outputs": [
        {
          "internalType": "string",
          "name": "",
          "type": "string"
        }
      ],
      "stateMutability": "view",
      "type": "function"
    },
    {
      "inputs": [],
      "name": "MONEY_MARKET_DEPOSIT_AMOUNT_NOT_ALLOWED",
      "outputs": [
        {
          "internalType": "string",
          "name": "",
          "type": "string"
        }
      ],
      "stateMutability": "view",
      "type": "function"
    },
    {
      "inputs": [],
      "name": "MONEY_MARKET_REQUIRE_DELEGATE_CALL",
      "outputs": [
        {
          "internalType": "string",
          "name": "",
          "type": "string"
        }
      ],
      "stateMutability": "view",
      "type": "function"
    },
    {
      "inputs": [],
      "name": "MONEY_MARKET_WITHDRAW_AMOUNT_NOT_ALLOWED",
      "outputs": [
        {
          "internalType": "string",
          "name": "",
          "type": "string"
        }
      ],
      "stateMutability": "view",
      "type": "function"
    },
    {
      "inputs": [],
      "name": "MONEY_MARKET_WITHDRAW_AMOUNT_NOT_MATCH",
      "outputs": [
        {
          "internalType": "string",
          "name": "",
          "type": "string"
        }
      ],
      "stateMutability": "view",
      "type": "function"
    },
    {
      "inputs": [],
      "name": "NFT_ADDRESS_IS_NOT_IN_WHITELIST",
      "outputs": [
        {
          "internalType": "string",
          "name": "",
          "type": "string"
        }
      ],
      "stateMutability": "view",
      "type": "function"
    },
    {
      "inputs": [],
      "name": "PRICE_ORACLE_HAS_NO_PRICE_FEED",
      "outputs": [
        {
          "internalType": "string",
          "name": "",
          "type": "string"
        }
      ],
      "stateMutability": "view",
      "type": "function"
    },
    {
      "inputs": [],
      "name": "PRICE_ORACLE_INCORRECT_TIMESTAMP",
      "outputs": [
        {
          "internalType": "string",
          "name": "",
          "type": "string"
        }
      ],
      "stateMutability": "view",
      "type": "function"
    },
    {
      "inputs": [],
      "name": "PRICE_ORACLE_PARAMS_ERROR",
      "outputs": [
        {
          "internalType": "string",
          "name": "",
          "type": "string"
        }
      ],
      "stateMutability": "view",
      "type": "function"
    },
    {
      "inputs": [],
      "name": "RECEIVE_NOT_ALLOWED",
      "outputs": [
        {
          "internalType": "string",
          "name": "",
          "type": "string"
        }
      ],
      "stateMutability": "view",
      "type": "function"
    },
    {
      "inputs": [],
      "name": "REPAY_MSG_VALUE_ERROR",
      "outputs": [
        {
          "internalType": "string",
          "name": "",
          "type": "string"
        }
      ],
      "stateMutability": "view",
      "type": "function"
    },
    {
      "inputs": [],
      "name": "REPAY_STATUS_ERROR",
      "outputs": [
        {
          "internalType": "string",
          "name": "",
          "type": "string"
        }
      ],
      "stateMutability": "view",
      "type": "function"
    },
    {
      "inputs": [],
      "name": "RESERVE_DOES_NOT_EXIST",
      "outputs": [
        {
          "internalType": "string",
          "name": "",
          "type": "string"
        }
      ],
      "stateMutability": "view",
      "type": "function"
    },
    {
      "inputs": [],
      "name": "RESERVE_INDEX_OVERFLOW",
      "outputs": [
        {
          "internalType": "string",
          "name": "",
          "type": "string"
        }
      ],
      "stateMutability": "view",
      "type": "function"
    },
    {
      "inputs": [],
      "name": "RESERVE_LIQUIDITY_INSUFFICIENT",
      "outputs": [
        {
          "internalType": "string",
          "name": "",
          "type": "string"
        }
      ],
      "stateMutability": "view",
      "type": "function"
    },
    {
      "inputs": [],
      "name": "RESERVE_SWITCH_MONEY_MARKET_STATE_ERROR",
      "outputs": [
        {
          "internalType": "string",
          "name": "",
          "type": "string"
        }
      ],
      "stateMutability": "view",
      "type": "function"
    },
    {
      "inputs": [],
      "name": "RESERVE_TOKEN_CAN_NOT_BE_CLAIMED",
      "outputs": [
        {
          "internalType": "string",
          "name": "",
          "type": "string"
        }
      ],
      "stateMutability": "view",
      "type": "function"
    },
    {
      "inputs": [],
      "name": "RESERVE_TREASURY_FACTOR_NOT_ALLOWED",
      "outputs": [
        {
          "internalType": "string",
          "name": "",
          "type": "string"
        }
      ],
      "stateMutability": "view",
      "type": "function"
    },
    {
      "inputs": [],
      "name": "SETTING_RESERVE_FACTOR_NOT_ALLOWED",
      "outputs": [
        {
          "internalType": "string",
          "name": "",
          "type": "string"
        }
      ],
      "stateMutability": "view",
      "type": "function"
    },
    {
      "inputs": [],
      "name": "SETTING_WHITELIST_INVALID_RESERVE_ID",
      "outputs": [
        {
          "internalType": "string",
          "name": "",
          "type": "string"
        }
      ],
      "stateMutability": "view",
      "type": "function"
    },
    {
      "inputs": [],
      "name": "SETTING_WHITELIST_NFT_ADDRESS_IS_ZERO",
      "outputs": [
        {
          "internalType": "string",
          "name": "",
          "type": "string"
        }
      ],
      "stateMutability": "view",
      "type": "function"
    },
    {
      "inputs": [],
      "name": "SETTING_ZERO_ADDRESS_NOT_ALLOWED",
      "outputs": [
        {
          "internalType": "string",
          "name": "",
          "type": "string"
        }
      ],
      "stateMutability": "view",
      "type": "function"
    },
    {
      "inputs": [],
      "name": "START_LIQUIDATION_STATUS_ERROR",
      "outputs": [
        {
          "internalType": "string",
          "name": "",
          "type": "string"
        }
      ],
      "stateMutability": "view",
      "type": "function"
    },
    {
      "inputs": [],
      "name": "WITHDRAW_AMOUNT_NOT_ALLOWED",
      "outputs": [
        {
          "internalType": "string",
          "name": "",
          "type": "string"
        }
      ],
      "stateMutability": "view",
      "type": "function"
    },
    {
      "inputs": [],
      "name": "WITHDRAW_LIQUIDITY_NOT_SUFFICIENT",
      "outputs": [
        {
          "internalType": "string",
          "name": "",
          "type": "string"
        }
      ],
      "stateMutability": "view",
      "type": "function"
    }
  ],
  "transactionHash": "0x59eb55d9825b33ac955d14ac86c24e4bb27f8382272b33b10b74ec1d9847d8fb",
  "args": [],
  "solcInputHash": "fb80df0c083f4166f8e17cc8f4ebb48d",
  "bytecode": "0x610b5a61003a600b82828239805160001a60731461002d57634e487b7160e01b600052600060045260246000fd5b30600052607381538281f3fe73000000000000000000000000000000000000000030146080604052600436106103665760003560e01c80636cfcdf5d116101dd578063b470db331161010e578063d6ab80cf116100ac578063f69a13f411610086578063f69a13f414610a47578063fc1b646b14610a69578063fcce050214610a8b578063fce162d614610aad57600080fd5b8063d6ab80cf146109e1578063dad907a514610a03578063e7e3349214610a2557600080fd5b8063bf9c5c90116100e8578063bf9c5c9014610959578063c888ea621461097b578063d22edf881461099d578063d34d3bb1146109bf57600080fd5b8063b470db33146108f3578063b5539a7114610915578063b64008621461093757600080fd5b806383d452aa1161017b578063a00febcc11610155578063a00febcc1461086b578063a02b5e9b1461088d578063acd8da71146108af578063b2ba002d146108d157600080fd5b806383d452aa146108055780638854971d1461082757806398ce269a1461084957600080fd5b80637ab2bbb7116101b75780637ab2bbb71461077d5780637c76aa241461079f5780637c80d99e146107c1578063803b7895146107e357600080fd5b80636cfcdf5d1461071757806370f38c8014610739578063788fe5751461075b57600080fd5b80633cb25258116102b75780635de930631161025557806366e82b971161022f57806366e82b971461068f578063691f0527146106b1578063697c011d146106d35780636b1460d2146106f557600080fd5b80635de93063146106295780635fab3fae1461064b5780636020ba731461066d57600080fd5b8063498d86e911610291578063498d86e9146105a15780634d942ab6146105c357806350c73ba6146105e55780635cd296b31461060757600080fd5b80633cb252581461053b5780634349e3d81461055d57806343c7bd071461057f57600080fd5b80631758f253116103245780632ba13416116102fe5780632ba13416146104b3578063342521b0146104d5578063391f8784146104f75780633bdd7b111461051957600080fd5b80631758f2531461044d578063189e31871461046f5780632399a74b1461049157600080fd5b8062371bb51461036b578063029d2344146103a35780630876a60f146103c557806309b6c42b146103e75780630b93d4f3146104095780630f5ee4821461042b575b600080fd5b61038d6040518060400160405280600381526020016203331360ec1b81525081565b60405161039a9190610acf565b60405180910390f35b61038d6040518060400160405280600381526020016203130360ec1b81525081565b61038d6040518060400160405280600381526020016231313360e81b81525081565b61038d6040518060400160405280600381526020016203630360ec1b81525081565b61038d6040518060400160405280600381526020016203230360ec1b81525081565b61038d6040518060400160405280600381526020016231303160e81b81525081565b61038d6040518060400160405280600381526020016232303160e81b81525081565b61038d6040518060400160405280600381526020016203431360ec1b81525081565b61038d6040518060400160405280600381526020016233303360e81b81525081565b61038d6040518060400160405280600381526020016219999b60e91b81525081565b61038d6040518060400160405280600381526020016234303160e81b81525081565b61038d60405180604001604052806003815260200162199b1960e91b81525081565b61038d604051806040016040528060038152602001621b181960e91b81525081565b61038d6040518060400160405280600381526020016206262760eb1b81525081565b61038d6040518060400160405280600381526020016218981960e91b81525081565b61038d6040518060400160405280600381526020016235303160e81b81525081565b61038d604051806040016040528060038152602001620c8c0d60ea1b81525081565b61038d6040518060400160405280600381526020016233333360e81b81525081565b61038d6040518060400160405280600381526020016219999960e91b81525081565b61038d6040518060400160405280600381526020016233333560e81b81525081565b61038d6040518060400160405280600381526020016233323160e81b81525081565b61038d6040518060400160405280600381526020016203430360ec1b81525081565b61038d604051806040016040528060038152602001620d4c0d60ea1b81525081565b61038d6040518060400160405280600381526020016203333360ec1b81525081565b61038d604051806040016040528060038152602001621a981960e91b81525081565b61038d6040518060400160405280600381526020016234303360e81b81525081565b61038d6040518060400160405280600381526020016203530360ec1b81525081565b61038d6040518060400160405280600381526020016233303560e81b81525081565b61038d6040518060400160405280600381526020016231313160e81b81525081565b61038d604051806040016040528060038152602001620d0c0d60ea1b81525081565b61038d6040518060400160405280600381526020016233303160e81b81525081565b61038d604051806040016040528060038152602001620ccccd60ea1b81525081565b61038d6040518060400160405280600381526020016218989b60e91b81525081565b61038d604051806040016040528060038152602001621a181960e91b81525081565b61038d6040518060400160405280600381526020016233333160e81b81525081565b61038d6040518060400160405280600381526020016203332360ec1b81525081565b61038d6040518060400160405280600381526020016203131360ec1b81525081565b61038d6040518060400160405280600381526020016231313760e81b81525081565b61038d6040518060400160405280600381526020016232303360e81b81525081565b61038d6040518060400160405280600381526020016219181960e91b81525081565b61038d6040518060400160405280600381526020016218989960e91b81525081565b61038d6040518060400160405280600381526020016235303360e81b81525081565b61038d6040518060400160405280600381526020016219991960e91b81525081565b61038d6040518060400160405280600381526020016232303560e81b81525081565b61038d6040518060400160405280600381526020016236303160e81b81525081565b61038d6040518060400160405280600381526020016203330360ec1b81525081565b61038d6040518060400160405280600381526020016235303560e81b81525081565b61038d604051806040016040528060038152602001620ccc0d60ea1b81525081565b61038d6040518060400160405280600381526020016219981960e91b81525081565b61038d6040518060400160405280600381526020016233313160e81b81525081565b61038d6040518060400160405280600381526020016234303560e81b81525081565b61038d6040518060400160405280600381526020016234313160e81b81525081565b61038d6040518060400160405280600381526020016231313560e81b81525081565b61038d6040518060400160405280600381526020016233363160e81b81525081565b61038d6040518060400160405280600381526020016203336360ec1b81525081565b600060208083528351808285015260005b81811015610afc57858101830151858201604001528201610ae0565b81811115610b0e576000604083870101525b50601f01601f191692909201604001939250505056fea2646970667358221220c8e37a3933b0f5e5addb9cb6437b35b4c7a355485ed8c3cc78649bc603df19fc64736f6c634300080a0033",
  "devdoc": {
    "kind": "dev",
    "methods": {},
    "version": 1
  },
  "userdoc": {
    "kind": "user",
    "methods": {},
    "version": 1
  },
  "storageLayout": {
    "storage": [],
    "types": null
  }
}