{
  "address": "0x354882d0b07c31429620498169bde9471876F23E",
  "abi": [
    {
      "inputs": [],
      "name": "ACL_ONLY_AIRDROP_OPERATOR_CAN_CALL",
      "outputs": [
        {
          "internalType": "string",
          "name": "",
          "type": "string"
        }
      ],
      "stateMutability": "view",
      "type": "function"
    },
    {
      "inputs": [],
      "name": "ACL_ONLY_EMERGENCY_ADMIN_CAN_CALL",
      "outputs": [
        {
          "internalType": "string",
          "name": "",
          "type": "string"
        }
      ],
      "stateMutability": "view",
      "type": "function"
    },
    {
      "inputs": [],
      "name": "ACL_ONLY_GOVERNANCE_CAN_CALL",
      "outputs": [
        {
          "internalType": "string",
          "name": "",
          "type": "string"
        }
      ],
      "stateMutability": "view",
      "type": "function"
    },
    {
      "inputs": [],
      "name": "ACL_ONLY_LIQUIDATOR_CAN_CALL",
      "outputs": [
        {
          "internalType": "string",
          "name": "",
          "type": "string"
        }
      ],
      "stateMutability": "view",
      "type": "function"
    },
    {
      "inputs": [],
      "name": "ACL_ONLY_POOL_ADMIN_CAN_CALL",
      "outputs": [
        {
          "internalType": "string",
          "name": "",
          "type": "string"
        }
      ],
      "stateMutability": "view",
      "type": "function"
    },
    {
      "inputs": [],
      "name": "ACL_ONLY_POOL_CAN_CALL",
      "outputs": [
        {
          "internalType": "string",
          "name": "",
          "type": "string"
        }
      ],
      "stateMutability": "view",
      "type": "function"
    },
    {
      "inputs": [],
      "name": "AMOUNT_SCALED_IS_ZERO",
      "outputs": [
        {
          "internalType": "string",
          "name": "",
          "type": "string"
        }
      ],
      "stateMutability": "view",
      "type": "function"
    },
    {
      "inputs": [],
      "name": "AMOUNT_TRANSFER_OVERFLOW",
      "outputs": [
        {
          "internalType": "string",
          "name": "",
          "type": "string"
        }
      ],
      "stateMutability": "view",
      "type": "function"
    },
    {
      "inputs": [],
      "name": "BORROW_AMOUNT_EXCEED_BORROW_LIMIT",
      "outputs": [
        {
          "internalType": "string",
          "name": "",
          "type": "string"
        }
      ],
      "stateMutability": "view",
      "type": "function"
    },
    {
      "inputs": [],
      "name": "BORROW_DURATION_NOT_ALLOWED",
      "outputs": [
        {
          "internalType": "string",
          "name": "",
          "type": "string"
        }
      ],
      "stateMutability": "view",
      "type": "function"
    },
    {
      "inputs": [],
      "name": "DEPOSIT_AMOUNT_SHOULD_BE_BIGGER_THAN_ZERO",
      "outputs": [
        {
          "internalType": "string",
          "name": "",
          "type": "string"
        }
      ],
      "stateMutability": "view",
      "type": "function"
    },
    {
      "inputs": [],
      "name": "END_LIQUIDATION_AMOUNT_ERROR",
      "outputs": [
        {
          "internalType": "string",
          "name": "",
          "type": "string"
        }
      ],
      "stateMutability": "view",
      "type": "function"
    },
    {
      "inputs": [],
      "name": "END_LIQUIDATION_STATUS_ERROR",
      "outputs": [
        {
          "internalType": "string",
          "name": "",
          "type": "string"
        }
      ],
      "stateMutability": "view",
      "type": "function"
    },
    {
      "inputs": [],
      "name": "ETH_TRANSFER_FAILED",
      "outputs": [
        {
          "internalType": "string",
          "name": "",
          "type": "string"
        }
      ],
      "stateMutability": "view",
      "type": "function"
    },
    {
      "inputs": [],
      "name": "EXTEND_MSG_VALUE_ERROR",
      "outputs": [
        {
          "internalType": "string",
          "name": "",
          "type": "string"
        }
      ],
      "stateMutability": "view",
      "type": "function"
    },
    {
      "inputs": [],
      "name": "EXTEND_STATUS_ERROR",
      "outputs": [
        {
          "internalType": "string",
          "name": "",
          "type": "string"
        }
      ],
      "stateMutability": "view",
      "type": "function"
    },
    {
      "inputs": [],
      "name": "FALLBACK_NOT_ALLOWED",
      "outputs": [
        {
          "internalType": "string",
          "name": "",
          "type": "string"
        }
      ],
      "stateMutability": "view",
      "type": "function"
    },
    {
      "inputs": [],
      "name": "FLASHCLAIM_EXECUTOR_ERROR",
      "outputs": [
        {
          "internalType": "string",
          "name": "",
          "type": "string"
        }
      ],
      "stateMutability": "view",
      "type": "function"
    },
    {
      "inputs": [],
      "name": "FLASHCLAIM_STATUS_ERROR",
      "outputs": [
        {
          "internalType": "string",
          "name": "",
          "type": "string"
        }
      ],
      "stateMutability": "view",
      "type": "function"
    },
    {
      "inputs": [],
      "name": "LOAN_CALLER_IS_NOT_OWNER",
      "outputs": [
        {
          "internalType": "string",
          "name": "",
          "type": "string"
        }
      ],
      "stateMutability": "view",
      "type": "function"
    },
    {
      "inputs": [],
      "name": "LOAN_COLLATERAL_NFT_CAN_NOT_BE_CLAIMED",
      "outputs": [
        {
          "internalType": "string",
          "name": "",
          "type": "string"
        }
      ],
      "stateMutability": "view",
      "type": "function"
    },
    {
      "inputs": [],
      "name": "LOAN_DOES_NOT_EXIST",
      "outputs": [
        {
          "internalType": "string",
          "name": "",
          "type": "string"
        }
      ],
      "stateMutability": "view",
      "type": "function"
    },
    {
      "inputs": [],
      "name": "LOAN_LIQUIDATING_STATUS_CAN_NOT_BE_UPDATED",
      "outputs": [
        {
          "internalType": "string",
          "name": "",
          "type": "string"
        }
      ],
      "stateMutability": "view",
      "type": "function"
    },
    {
      "inputs": [],
      "name": "LOAN_REPAYER_IS_NOT_OWNER",
      "outputs": [
        {
          "internalType": "string",
          "name": "",
          "type": "string"
        }
      ],
      "stateMutability": "view",
      "type": "function"
    },
    {
      "inputs": [],
      "name": "LOAN_SET_STATUS_ERROR",
      "outputs": [
        {
          "internalType": "string",
          "name": "",
          "type": "string"
        }
      ],
      "stateMutability": "view",
      "type": "function"
    },
    {
      "inputs": [],
      "name": "MATH_ADDITION_OVERFLOW",
      "outputs": [
        {
          "internalType": "string",
          "name": "",
          "type": "string"
        }
      ],
      "stateMutability": "view",
      "type": "function"
    },
    {
      "inputs": [],
      "name": "MATH_DIVISION_BY_ZERO",
      "outputs": [
        {
          "internalType": "string",
          "name": "",
          "type": "string"
        }
      ],
      "stateMutability": "view",
      "type": "function"
    },
    {
      "inputs": [],
      "name": "MATH_MULTIPLICATION_OVERFLOW",
      "outputs": [
        {
          "internalType": "string",
          "name": "",
          "type": "string"
        }
      ],
      "stateMutability": "view",
      "type": "function"
    },
    {
      "inputs": [],
      "name": "MONEY_MARKET_APPROVAL_FAILED",
      "outputs": [
        {
          "internalType": "string",
          "name": "",
          "type": "string"
        }
      ],
      "stateMutability": "view",
      "type": "function"
    },
    {
      "inputs": [],
      "name": "MONEY_MARKET_DELEGATE_CALL_ERROR",
      "outputs": [
        {
          "internalType": "string",
          "name": "",
          "type": "string"
        }
      ],
      "stateMutability": "view",
      "type": "function"
    },
    {
      "inputs": [],
      "name": "MONEY_MARKET_DEPOSIT_AMOUNT_NOT_ALLOWED",
      "outputs": [
        {
          "internalType": "string",
          "name": "",
          "type": "string"
        }
      ],
      "stateMutability": "view",
      "type": "function"
    },
    {
      "inputs": [],
      "name": "MONEY_MARKET_REQUIRE_DELEGATE_CALL",
      "outputs": [
        {
          "internalType": "string",
          "name": "",
          "type": "string"
        }
      ],
      "stateMutability": "view",
      "type": "function"
    },
    {
      "inputs": [],
      "name": "MONEY_MARKET_WITHDRAW_AMOUNT_NOT_ALLOWED",
      "outputs": [
        {
          "internalType": "string",
          "name": "",
          "type": "string"
        }
      ],
      "stateMutability": "view",
      "type": "function"
    },
    {
      "inputs": [],
      "name": "NFT_ADDRESS_IS_NOT_IN_WHITELIST",
      "outputs": [
        {
          "internalType": "string",
          "name": "",
          "type": "string"
        }
      ],
      "stateMutability": "view",
      "type": "function"
    },
    {
      "inputs": [],
      "name": "PRICE_ORACLE_HAS_NO_PRICE_FEED",
      "outputs": [
        {
          "internalType": "string",
          "name": "",
          "type": "string"
        }
      ],
      "stateMutability": "view",
      "type": "function"
    },
    {
      "inputs": [],
      "name": "PRICE_ORACLE_INCORRECT_TIMESTAMP",
      "outputs": [
        {
          "internalType": "string",
          "name": "",
          "type": "string"
        }
      ],
      "stateMutability": "view",
      "type": "function"
    },
    {
      "inputs": [],
      "name": "PRICE_ORACLE_PARAMS_ERROR",
      "outputs": [
        {
          "internalType": "string",
          "name": "",
          "type": "string"
        }
      ],
      "stateMutability": "view",
      "type": "function"
    },
    {
      "inputs": [],
      "name": "RECEIVE_NOT_ALLOWED",
      "outputs": [
        {
          "internalType": "string",
          "name": "",
          "type": "string"
        }
      ],
      "stateMutability": "view",
      "type": "function"
    },
    {
      "inputs": [],
      "name": "REPAY_MSG_VALUE_ERROR",
      "outputs": [
        {
          "internalType": "string",
          "name": "",
          "type": "string"
        }
      ],
      "stateMutability": "view",
      "type": "function"
    },
    {
      "inputs": [],
      "name": "REPAY_STATUS_ERROR",
      "outputs": [
        {
          "internalType": "string",
          "name": "",
          "type": "string"
        }
      ],
      "stateMutability": "view",
      "type": "function"
    },
    {
      "inputs": [],
      "name": "RESERVE_DOES_NOT_EXIST",
      "outputs": [
        {
          "internalType": "string",
          "name": "",
          "type": "string"
        }
      ],
      "stateMutability": "view",
      "type": "function"
    },
    {
      "inputs": [],
      "name": "RESERVE_INDEX_OVERFLOW",
      "outputs": [
        {
          "internalType": "string",
          "name": "",
          "type": "string"
        }
      ],
      "stateMutability": "view",
      "type": "function"
    },
    {
      "inputs": [],
      "name": "RESERVE_LIQUIDITY_INSUFFICIENT",
      "outputs": [
        {
          "internalType": "string",
          "name": "",
          "type": "string"
        }
      ],
      "stateMutability": "view",
      "type": "function"
    },
    {
      "inputs": [],
      "name": "RESERVE_SWITCH_MONEY_MARKET_STATE_ERROR",
      "outputs": [
        {
          "internalType": "string",
          "name": "",
          "type": "string"
        }
      ],
      "stateMutability": "view",
      "type": "function"
    },
    {
      "inputs": [],
      "name": "RESERVE_TOKEN_CAN_NOT_BE_CLAIMED",
      "outputs": [
        {
          "internalType": "string",
          "name": "",
          "type": "string"
        }
      ],
      "stateMutability": "view",
      "type": "function"
    },
    {
      "inputs": [],
      "name": "RESERVE_TREASURY_FACTOR_NOT_ALLOWED",
      "outputs": [
        {
          "internalType": "string",
          "name": "",
          "type": "string"
        }
      ],
      "stateMutability": "view",
      "type": "function"
    },
    {
      "inputs": [],
      "name": "START_LIQUIDATION_STATUS_ERROR",
      "outputs": [
        {
          "internalType": "string",
          "name": "",
          "type": "string"
        }
      ],
      "stateMutability": "view",
      "type": "function"
    },
    {
      "inputs": [],
      "name": "WITHDRAW_AMOUNT_NOT_ALLOWED",
      "outputs": [
        {
          "internalType": "string",
          "name": "",
          "type": "string"
        }
      ],
      "stateMutability": "view",
      "type": "function"
    },
    {
      "inputs": [],
      "name": "WITHDRAW_LIQUIDITY_NOT_SUFFICIENT",
      "outputs": [
        {
          "internalType": "string",
          "name": "",
          "type": "string"
        }
      ],
      "stateMutability": "view",
      "type": "function"
    }
  ],
  "transactionHash": "0x228a200c10f592289a13e156105350e86153db7aed3a91b84a2e2b6049775e93",
  "args": [],
  "solcInputHash": "597fe0c822de038e67f456c392a88115",
  "bytecode": "0x6109ec61003a600b82828239805160001a60731461002d57634e487b7160e01b600052600060045260246000fd5b30600052607381538281f3fe73000000000000000000000000000000000000000030146080604052600436106102c45760003560e01c80636b1460d21161018c578063b2ba002d116100f3578063d34d3bb1116100ac578063e7e3349211610086578063e7e33492146108d9578063f69a13f4146108fb578063fcce05021461091d578063fce162d61461093f57600080fd5b8063d34d3bb114610873578063d6ab80cf14610895578063dad907a5146108b757600080fd5b8063b2ba002d146107a7578063b470db33146107c9578063b5539a71146107eb578063b64008621461080d578063bf9c5c901461082f578063c888ea621461085157600080fd5b8063803b789511610145578063803b7895146106db57806383d452aa146106fd5780638854971d1461071f57806398ce269a14610741578063a02b5e9b14610763578063acd8da711461078557600080fd5b80636b1460d21461060f5780636cfcdf5d1461063157806370f38c8014610653578063788fe575146106755780637ab2bbb7146106975780637c76aa24146106b957600080fd5b80634349e3d8116102305780635de93063116101e95780635de93063146105435780635fab3fae146105655780636020ba731461058757806366e82b97146105a9578063691f0527146105cb578063697c011d146105ed57600080fd5b80634349e3d81461047757806343c7bd0714610499578063498d86e9146104bb5780634d942ab6146104dd57806350c73ba6146104ff5780635cd296b31461052157600080fd5b8063189e318711610282578063189e3187146103ab5780632399a74b146103cd5780632ba13416146103ef578063342521b014610411578063391f8784146104335780633bdd7b111461045557600080fd5b8062371bb5146102c9578063029d23441461030157806309b6c42b146103235780630b93d4f3146103455780630f5ee482146103675780631758f25314610389575b600080fd5b6102eb6040518060400160405280600381526020016203331360ec1b81525081565b6040516102f89190610961565b60405180910390f35b6102eb6040518060400160405280600381526020016203130360ec1b81525081565b6102eb6040518060400160405280600381526020016203630360ec1b81525081565b6102eb6040518060400160405280600381526020016203230360ec1b81525081565b6102eb6040518060400160405280600381526020016231303160e81b81525081565b6102eb6040518060400160405280600381526020016232303160e81b81525081565b6102eb6040518060400160405280600381526020016203431360ec1b81525081565b6102eb6040518060400160405280600381526020016233303360e81b81525081565b6102eb6040518060400160405280600381526020016219999b60e91b81525081565b6102eb6040518060400160405280600381526020016234303160e81b81525081565b6102eb60405180604001604052806003815260200162199b1960e91b81525081565b6102eb604051806040016040528060038152602001621b181960e91b81525081565b6102eb6040518060400160405280600381526020016218981960e91b81525081565b6102eb6040518060400160405280600381526020016235303160e81b81525081565b6102eb604051806040016040528060038152602001620c8c0d60ea1b81525081565b6102eb6040518060400160405280600381526020016233333360e81b81525081565b6102eb6040518060400160405280600381526020016219999960e91b81525081565b6102eb6040518060400160405280600381526020016233333560e81b81525081565b6102eb6040518060400160405280600381526020016233323160e81b81525081565b6102eb6040518060400160405280600381526020016203430360ec1b81525081565b6102eb604051806040016040528060038152602001620d4c0d60ea1b81525081565b6102eb6040518060400160405280600381526020016203333360ec1b81525081565b6102eb604051806040016040528060038152602001621a981960e91b81525081565b6102eb6040518060400160405280600381526020016234303360e81b81525081565b6102eb6040518060400160405280600381526020016203530360ec1b81525081565b6102eb6040518060400160405280600381526020016233303560e81b81525081565b6102eb6040518060400160405280600381526020016231313160e81b81525081565b6102eb604051806040016040528060038152602001620d0c0d60ea1b81525081565b6102eb6040518060400160405280600381526020016233303160e81b81525081565b6102eb604051806040016040528060038152602001620ccccd60ea1b81525081565b6102eb604051806040016040528060038152602001621a181960e91b81525081565b6102eb6040518060400160405280600381526020016233333160e81b81525081565b6102eb6040518060400160405280600381526020016203332360ec1b81525081565b6102eb6040518060400160405280600381526020016203131360ec1b81525081565b6102eb6040518060400160405280600381526020016232303360e81b81525081565b6102eb6040518060400160405280600381526020016219181960e91b81525081565b6102eb6040518060400160405280600381526020016218989960e91b81525081565b6102eb6040518060400160405280600381526020016235303360e81b81525081565b6102eb6040518060400160405280600381526020016219991960e91b81525081565b6102eb6040518060400160405280600381526020016232303560e81b81525081565b6102eb6040518060400160405280600381526020016236303160e81b81525081565b6102eb6040518060400160405280600381526020016203330360ec1b81525081565b6102eb604051806040016040528060038152602001620ccc0d60ea1b81525081565b6102eb6040518060400160405280600381526020016219981960e91b81525081565b6102eb6040518060400160405280600381526020016233313160e81b81525081565b6102eb6040518060400160405280600381526020016234303560e81b81525081565b6102eb6040518060400160405280600381526020016234313160e81b81525081565b6102eb6040518060400160405280600381526020016233363160e81b81525081565b6102eb6040518060400160405280600381526020016203336360ec1b81525081565b600060208083528351808285015260005b8181101561098e57858101830151858201604001528201610972565b818111156109a0576000604083870101525b50601f01601f191692909201604001939250505056fea2646970667358221220f2d28ad3054a1c719fb71f15e47f75539f1cc1ed90c846d7d0ed1b6f16d9819264736f6c634300080a0033",
  "devdoc": {
    "kind": "dev",
    "methods": {},
    "version": 1
  },
  "userdoc": {
    "kind": "user",
    "methods": {},
    "version": 1
  },
  "storageLayout": {
    "storage": [],
    "types": null
  }
}