{
  "address": "0x4648bb80A8d14C8777321F1b4cbb1B016696102d",
  "abi": [
    {
      "inputs": [
        {
          "internalType": "uint256",
          "name": "borrowRate",
          "type": "uint256"
        },
        {
          "internalType": "uint256",
          "name": "amount",
          "type": "uint256"
        },
        {
          "internalType": "uint256",
          "name": "duration",
          "type": "uint256"
        }
      ],
      "name": "calculateBorrowInterest",
      "outputs": [
        {
          "internalType": "uint256",
          "name": "",
          "type": "uint256"
        }
      ],
      "stateMutability": "pure",
      "type": "function"
    },
    {
      "inputs": [
        {
          "internalType": "uint256",
          "name": "borrowRate",
          "type": "uint256"
        },
        {
          "internalType": "uint256",
          "name": "amount",
          "type": "uint256"
        }
      ],
      "name": "calculateBorrowInterestPerSecond",
      "outputs": [
        {
          "internalType": "uint256",
          "name": "",
          "type": "uint256"
        }
      ],
      "stateMutability": "pure",
      "type": "function"
    },
    {
      "inputs": [
        {
          "internalType": "uint256",
          "name": "rate",
          "type": "uint256"
        },
        {
          "internalType": "uint40",
          "name": "lastUpdateTimestamp",
          "type": "uint40"
        }
      ],
      "name": "calculateLinearInterest",
      "outputs": [
        {
          "internalType": "uint256",
          "name": "",
          "type": "uint256"
        }
      ],
      "stateMutability": "view",
      "type": "function"
    },
    {
      "inputs": [
        {
          "internalType": "uint256",
          "name": "availableLiquidity",
          "type": "uint256"
        },
        {
          "internalType": "uint256",
          "name": "totalBorrows",
          "type": "uint256"
        },
        {
          "internalType": "uint256",
          "name": "borrowRate",
          "type": "uint256"
        }
      ],
      "name": "calculateLoanSupplyRate",
      "outputs": [
        {
          "internalType": "uint256",
          "name": "loanSupplyRate",
          "type": "uint256"
        },
        {
          "internalType": "uint256",
          "name": "utilizationRate",
          "type": "uint256"
        }
      ],
      "stateMutability": "pure",
      "type": "function"
    }
  ],
  "transactionHash": "0xbd4aa9007f3cf1cdcc391ce94c0996b8c3d74122e8d977586db6df72ad898782",
  "args": [],
  "solcInputHash": "903b6e0b7a82abf3fd1d087256b904a8",
  "bytecode": "0x6104fc61003a600b82828239805160001a60731461002d57634e487b7160e01b600052600060045260246000fd5b30600052607381538281f3fe73000000000000000000000000000000000000000030146080604052600436106100565760003560e01c80630c2de0901461005b5780635806b3351461008157806369f2e69114610094578063db53f388146100a7575b600080fd5b61006e610069366004610363565b6100cf565b6040519081526020015b60405180910390f35b61006e61008f366004610385565b6100f2565b61006e6100a23660046103b1565b610118565b6100ba6100b5366004610385565b61015d565b60408051928352602083019190915201610078565b60006100e96301e133806100e384866101a2565b90610267565b90505b92915050565b60006101106101096301e133806100e387866101a2565b84906101a2565b949350505050565b60008061012c4264ffffffffff851661033f565b90506101106b033b2e3c9fd0803ce80000006301e1338061014d878561034b565b6101579190610401565b90610357565b6000808315801561016c575084155b6101895761018461017d8686610357565b8590610267565b61018c565b60005b905061019881846101a2565b9150935093915050565b60008215806101af575081155b156101bc575060006100ec565b816101d460026b033b2e3c9fd0803ce8000000610401565b6101e090600019610423565b6101ea9190610401565b8311156040518060400160405280600381526020016203130360ec1b815250906102305760405162461bcd60e51b8152600401610227919061043a565b60405180910390fd5b506b033b2e3c9fd0803ce8000000610249600282610401565b610253848661048f565b61025d91906104ae565b6100e99190610401565b60408051808201909152600381526218981960e91b6020820152600090826102a25760405162461bcd60e51b8152600401610227919061043a565b5060006102b0600284610401565b90506b033b2e3c9fd0803ce80000006102cb82600019610423565b6102d59190610401565b8411156040518060400160405280600381526020016203130360ec1b815250906103125760405162461bcd60e51b8152600401610227919061043a565b50828161032b6b033b2e3c9fd0803ce80000008761048f565b61033591906104ae565b6101109190610401565b60006100e98284610423565b60006100e9828461048f565b60006100e982846104ae565b6000806040838503121561037657600080fd5b50508035926020909101359150565b60008060006060848603121561039a57600080fd5b505081359360208301359350604090920135919050565b600080604083850312156103c457600080fd5b82359150602083013564ffffffffff811681146103e057600080fd5b809150509250929050565b634e487b7160e01b600052601160045260246000fd5b60008261041e57634e487b7160e01b600052601260045260246000fd5b500490565b600082821015610435576104356103eb565b500390565b600060208083528351808285015260005b818110156104675785810183015185820160400152820161044b565b81811115610479576000604083870101525b50601f01601f1916929092016040019392505050565b60008160001904831182151516156104a9576104a96103eb565b500290565b600082198211156104c1576104c16103eb565b50019056fea26469706673582212207ae25a112a75db288a711c23b2ed6ced90578494dda11b107e0b119c9470c9b564736f6c634300080a0033",
  "devdoc": {
    "kind": "dev",
    "methods": {
      "calculateLinearInterest(uint256,uint40)": {
        "details": "Function to calculate the interest accumulated using a linear interest rate formula",
        "params": {
          "lastUpdateTimestamp": "The timestamp of the last update of the interest",
          "rate": "The interest rate, in ray"
        },
        "returns": {
          "_0": "The interest rate linearly accumulated during the timeDelta, in ray*"
        }
      }
    },
    "stateVariables": {
      "SECONDS_PER_YEAR": {
        "details": "Ignoring leap years"
      }
    },
    "version": 1
  },
  "userdoc": {
    "kind": "user",
    "methods": {},
    "version": 1
  },
  "storageLayout": {
    "storage": [],
    "types": null
  }
}