{
  "address": "0x850b795133aD1235Cd7298fc9f033caC1926E342",
  "abi": [
    {
      "inputs": [
        {
          "internalType": "address",
          "name": "SETTINGS_",
          "type": "address"
        }
      ],
      "stateMutability": "nonpayable",
      "type": "constructor"
    },
    {
      "anonymous": false,
      "inputs": [
        {
          "indexed": true,
          "internalType": "uint256",
          "name": "reserveId",
          "type": "uint256"
        },
        {
          "indexed": false,
          "internalType": "address",
          "name": "user",
          "type": "address"
        },
        {
          "indexed": true,
          "internalType": "address",
          "name": "onBehalfOf",
          "type": "address"
        },
        {
          "indexed": true,
          "internalType": "uint256",
          "name": "loanId",
          "type": "uint256"
        }
      ],
      "name": "Borrow",
      "type": "event"
    },
    {
      "anonymous": false,
      "inputs": [
        {
          "indexed": false,
          "internalType": "uint256",
          "name": "reserveId",
          "type": "uint256"
        }
      ],
      "name": "CloseMoneyMarket",
      "type": "event"
    },
    {
      "anonymous": false,
      "inputs": [
        {
          "indexed": true,
          "internalType": "uint256",
          "name": "reserveId",
          "type": "uint256"
        },
        {
          "indexed": true,
          "internalType": "address",
          "name": "underlyingAsset",
          "type": "address"
        },
        {
          "indexed": true,
          "internalType": "address",
          "name": "oTokenAddress",
          "type": "address"
        },
        {
          "indexed": false,
          "internalType": "string",
          "name": "name",
          "type": "string"
        },
        {
          "indexed": false,
          "internalType": "string",
          "name": "symbol",
          "type": "string"
        }
      ],
      "name": "Create",
      "type": "event"
    },
    {
      "anonymous": false,
      "inputs": [
        {
          "indexed": true,
          "internalType": "uint256",
          "name": "reserveId",
          "type": "uint256"
        },
        {
          "indexed": true,
          "internalType": "address",
          "name": "onBehalfOf",
          "type": "address"
        },
        {
          "indexed": false,
          "internalType": "uint256",
          "name": "amount",
          "type": "uint256"
        },
        {
          "indexed": false,
          "internalType": "uint256",
          "name": "referralCode",
          "type": "uint256"
        }
      ],
      "name": "Deposit",
      "type": "event"
    },
    {
      "anonymous": false,
      "inputs": [
        {
          "indexed": true,
          "internalType": "uint256",
          "name": "reserveId",
          "type": "uint256"
        },
        {
          "indexed": true,
          "internalType": "uint256",
          "name": "loanId",
          "type": "uint256"
        },
        {
          "indexed": true,
          "internalType": "address",
          "name": "nftAddress",
          "type": "address"
        },
        {
          "indexed": false,
          "internalType": "uint256",
          "name": "tokenId",
          "type": "uint256"
        },
        {
          "indexed": false,
          "internalType": "address",
          "name": "operator",
          "type": "address"
        },
        {
          "indexed": false,
          "internalType": "uint256",
          "name": "repayAmount",
          "type": "uint256"
        },
        {
          "indexed": false,
          "internalType": "uint256",
          "name": "borrowBalance",
          "type": "uint256"
        }
      ],
      "name": "EndLiquidation",
      "type": "event"
    },
    {
      "anonymous": false,
      "inputs": [
        {
          "indexed": true,
          "internalType": "uint256",
          "name": "reserveId",
          "type": "uint256"
        },
        {
          "indexed": true,
          "internalType": "address",
          "name": "onBehalfOf",
          "type": "address"
        },
        {
          "indexed": false,
          "internalType": "uint256",
          "name": "oldLoanId",
          "type": "uint256"
        },
        {
          "indexed": false,
          "internalType": "uint256",
          "name": "newLoanId",
          "type": "uint256"
        }
      ],
      "name": "Extend",
      "type": "event"
    },
    {
      "anonymous": false,
      "inputs": [
        {
          "indexed": false,
          "internalType": "uint256",
          "name": "reserveId",
          "type": "uint256"
        }
      ],
      "name": "OpenMoneyMarket",
      "type": "event"
    },
    {
      "anonymous": false,
      "inputs": [
        {
          "indexed": false,
          "internalType": "address",
          "name": "account",
          "type": "address"
        }
      ],
      "name": "Paused",
      "type": "event"
    },
    {
      "anonymous": false,
      "inputs": [
        {
          "indexed": true,
          "internalType": "uint256",
          "name": "reserveId",
          "type": "uint256"
        },
        {
          "indexed": false,
          "internalType": "address",
          "name": "repayer",
          "type": "address"
        },
        {
          "indexed": true,
          "internalType": "address",
          "name": "onBehalfOf",
          "type": "address"
        },
        {
          "indexed": true,
          "internalType": "uint256",
          "name": "loanId",
          "type": "uint256"
        },
        {
          "indexed": false,
          "internalType": "uint256",
          "name": "repayAmount",
          "type": "uint256"
        },
        {
          "indexed": false,
          "internalType": "uint256",
          "name": "penalty",
          "type": "uint256"
        }
      ],
      "name": "Repay",
      "type": "event"
    },
    {
      "anonymous": false,
      "inputs": [
        {
          "indexed": true,
          "internalType": "uint256",
          "name": "reserveId",
          "type": "uint256"
        },
        {
          "indexed": false,
          "internalType": "address",
          "name": "interestModelAddress",
          "type": "address"
        }
      ],
      "name": "SetInterestModelAddress",
      "type": "event"
    },
    {
      "anonymous": false,
      "inputs": [
        {
          "indexed": true,
          "internalType": "uint256",
          "name": "reserveId",
          "type": "uint256"
        },
        {
          "indexed": false,
          "internalType": "uint256",
          "name": "factor",
          "type": "uint256"
        }
      ],
      "name": "SetTreasuryFactor",
      "type": "event"
    },
    {
      "anonymous": false,
      "inputs": [
        {
          "indexed": true,
          "internalType": "uint256",
          "name": "reserveId",
          "type": "uint256"
        },
        {
          "indexed": true,
          "internalType": "uint256",
          "name": "loanId",
          "type": "uint256"
        },
        {
          "indexed": true,
          "internalType": "address",
          "name": "nftAddress",
          "type": "address"
        },
        {
          "indexed": false,
          "internalType": "uint256",
          "name": "tokenId",
          "type": "uint256"
        },
        {
          "indexed": false,
          "internalType": "address",
          "name": "operator",
          "type": "address"
        }
      ],
      "name": "StartLiquidation",
      "type": "event"
    },
    {
      "anonymous": false,
      "inputs": [
        {
          "indexed": false,
          "internalType": "address",
          "name": "account",
          "type": "address"
        }
      ],
      "name": "Unpaused",
      "type": "event"
    },
    {
      "anonymous": false,
      "inputs": [
        {
          "indexed": true,
          "internalType": "uint256",
          "name": "reserveId",
          "type": "uint256"
        },
        {
          "indexed": true,
          "internalType": "address",
          "name": "onBehalfOf",
          "type": "address"
        },
        {
          "indexed": false,
          "internalType": "uint256",
          "name": "amount",
          "type": "uint256"
        }
      ],
      "name": "Withdraw",
      "type": "event"
    },
    {
      "stateMutability": "payable",
      "type": "fallback"
    },
    {
      "inputs": [],
      "name": "SETTINGS",
      "outputs": [
        {
          "internalType": "contract IOpenSkySettings",
          "name": "",
          "type": "address"
        }
      ],
      "stateMutability": "view",
      "type": "function"
    },
    {
      "inputs": [
        {
          "internalType": "uint256",
          "name": "reserveId",
          "type": "uint256"
        },
        {
          "internalType": "uint256",
          "name": "amount",
          "type": "uint256"
        },
        {
          "internalType": "uint256",
          "name": "duration",
          "type": "uint256"
        },
        {
          "internalType": "address",
          "name": "nftAddress",
          "type": "address"
        },
        {
          "internalType": "uint256",
          "name": "tokenId",
          "type": "uint256"
        },
        {
          "internalType": "address",
          "name": "onBehalfOf",
          "type": "address"
        }
      ],
      "name": "borrow",
      "outputs": [
        {
          "internalType": "uint256",
          "name": "",
          "type": "uint256"
        }
      ],
      "stateMutability": "nonpayable",
      "type": "function"
    },
    {
      "inputs": [
        {
          "internalType": "uint256",
          "name": "reserveId",
          "type": "uint256"
        },
        {
          "internalType": "address",
          "name": "token",
          "type": "address"
        }
      ],
      "name": "claimERC20Rewards",
      "outputs": [],
      "stateMutability": "nonpayable",
      "type": "function"
    },
    {
      "inputs": [
        {
          "internalType": "uint256",
          "name": "reserveId",
          "type": "uint256"
        }
      ],
      "name": "closeMoneyMarket",
      "outputs": [],
      "stateMutability": "nonpayable",
      "type": "function"
    },
    {
      "inputs": [
        {
          "internalType": "address",
          "name": "underlyingAsset",
          "type": "address"
        },
        {
          "internalType": "string",
          "name": "name",
          "type": "string"
        },
        {
          "internalType": "string",
          "name": "symbol",
          "type": "string"
        }
      ],
      "name": "create",
      "outputs": [],
      "stateMutability": "nonpayable",
      "type": "function"
    },
    {
      "inputs": [
        {
          "internalType": "uint256",
          "name": "reserveId",
          "type": "uint256"
        },
        {
          "internalType": "uint256",
          "name": "amount",
          "type": "uint256"
        },
        {
          "internalType": "address",
          "name": "onBehalfOf",
          "type": "address"
        },
        {
          "internalType": "uint256",
          "name": "referralCode",
          "type": "uint256"
        }
      ],
      "name": "deposit",
      "outputs": [],
      "stateMutability": "nonpayable",
      "type": "function"
    },
    {
      "inputs": [
        {
          "internalType": "uint256",
          "name": "loanId",
          "type": "uint256"
        },
        {
          "internalType": "uint256",
          "name": "amount",
          "type": "uint256"
        }
      ],
      "name": "endLiquidation",
      "outputs": [],
      "stateMutability": "nonpayable",
      "type": "function"
    },
    {
      "inputs": [
        {
          "internalType": "uint256",
          "name": "oldLoanId",
          "type": "uint256"
        },
        {
          "internalType": "uint256",
          "name": "amount",
          "type": "uint256"
        },
        {
          "internalType": "uint256",
          "name": "duration",
          "type": "uint256"
        },
        {
          "internalType": "address",
          "name": "onBehalfOf",
          "type": "address"
        }
      ],
      "name": "extend",
      "outputs": [
        {
          "internalType": "uint256",
          "name": "",
          "type": "uint256"
        },
        {
          "internalType": "uint256",
          "name": "",
          "type": "uint256"
        }
      ],
      "stateMutability": "nonpayable",
      "type": "function"
    },
    {
      "inputs": [
        {
          "internalType": "uint256",
          "name": "reserveId",
          "type": "uint256"
        }
      ],
      "name": "getAvailableLiquidity",
      "outputs": [
        {
          "internalType": "uint256",
          "name": "",
          "type": "uint256"
        }
      ],
      "stateMutability": "view",
      "type": "function"
    },
    {
      "inputs": [
        {
          "internalType": "uint256",
          "name": "reserveId",
          "type": "uint256"
        },
        {
          "internalType": "address",
          "name": "nftAddress",
          "type": "address"
        },
        {
          "internalType": "uint256",
          "name": "tokenId",
          "type": "uint256"
        }
      ],
      "name": "getBorrowLimitByOracle",
      "outputs": [
        {
          "internalType": "uint256",
          "name": "",
          "type": "uint256"
        }
      ],
      "stateMutability": "view",
      "type": "function"
    },
    {
      "inputs": [
        {
          "internalType": "uint256",
          "name": "reserveId",
          "type": "uint256"
        }
      ],
      "name": "getReserveData",
      "outputs": [
        {
          "components": [
            {
              "internalType": "uint256",
              "name": "reserveId",
              "type": "uint256"
            },
            {
              "internalType": "address",
              "name": "underlyingAsset",
              "type": "address"
            },
            {
              "internalType": "address",
              "name": "oTokenAddress",
              "type": "address"
            },
            {
              "internalType": "address",
              "name": "moneyMarketAddress",
              "type": "address"
            },
            {
              "internalType": "uint128",
              "name": "lastSupplyIndex",
              "type": "uint128"
            },
            {
              "internalType": "uint256",
              "name": "borrowingInterestPerSecond",
              "type": "uint256"
            },
            {
              "internalType": "uint256",
              "name": "lastMoneyMarketBalance",
              "type": "uint256"
            },
            {
              "internalType": "uint40",
              "name": "lastUpdateTimestamp",
              "type": "uint40"
            },
            {
              "internalType": "uint256",
              "name": "totalBorrows",
              "type": "uint256"
            },
            {
              "internalType": "address",
              "name": "interestModelAddress",
              "type": "address"
            },
            {
              "internalType": "uint256",
              "name": "treasuryFactor",
              "type": "uint256"
            },
            {
              "internalType": "bool",
              "name": "isMoneyMarketOn",
              "type": "bool"
            }
          ],
          "internalType": "struct DataTypes.ReserveData",
          "name": "",
          "type": "tuple"
        }
      ],
      "stateMutability": "view",
      "type": "function"
    },
    {
      "inputs": [
        {
          "internalType": "uint256",
          "name": "reserveId",
          "type": "uint256"
        }
      ],
      "name": "getReserveNormalizedIncome",
      "outputs": [
        {
          "internalType": "uint256",
          "name": "",
          "type": "uint256"
        }
      ],
      "stateMutability": "view",
      "type": "function"
    },
    {
      "inputs": [
        {
          "internalType": "uint256",
          "name": "reserveId",
          "type": "uint256"
        }
      ],
      "name": "getTVL",
      "outputs": [
        {
          "internalType": "uint256",
          "name": "",
          "type": "uint256"
        }
      ],
      "stateMutability": "view",
      "type": "function"
    },
    {
      "inputs": [
        {
          "internalType": "uint256",
          "name": "reserveId",
          "type": "uint256"
        }
      ],
      "name": "getTotalBorrowBalance",
      "outputs": [
        {
          "internalType": "uint256",
          "name": "",
          "type": "uint256"
        }
      ],
      "stateMutability": "view",
      "type": "function"
    },
    {
      "inputs": [
        {
          "internalType": "uint256",
          "name": "reserveId",
          "type": "uint256"
        }
      ],
      "name": "openMoneyMarket",
      "outputs": [],
      "stateMutability": "nonpayable",
      "type": "function"
    },
    {
      "inputs": [],
      "name": "pause",
      "outputs": [],
      "stateMutability": "nonpayable",
      "type": "function"
    },
    {
      "inputs": [],
      "name": "paused",
      "outputs": [
        {
          "internalType": "bool",
          "name": "",
          "type": "bool"
        }
      ],
      "stateMutability": "view",
      "type": "function"
    },
    {
      "inputs": [
        {
          "internalType": "uint256",
          "name": "loanId",
          "type": "uint256"
        }
      ],
      "name": "repay",
      "outputs": [
        {
          "internalType": "uint256",
          "name": "repayAmount",
          "type": "uint256"
        }
      ],
      "stateMutability": "nonpayable",
      "type": "function"
    },
    {
      "inputs": [
        {
          "internalType": "uint256",
          "name": "",
          "type": "uint256"
        }
      ],
      "name": "reserves",
      "outputs": [
        {
          "internalType": "uint256",
          "name": "reserveId",
          "type": "uint256"
        },
        {
          "internalType": "address",
          "name": "underlyingAsset",
          "type": "address"
        },
        {
          "internalType": "address",
          "name": "oTokenAddress",
          "type": "address"
        },
        {
          "internalType": "address",
          "name": "moneyMarketAddress",
          "type": "address"
        },
        {
          "internalType": "uint128",
          "name": "lastSupplyIndex",
          "type": "uint128"
        },
        {
          "internalType": "uint256",
          "name": "borrowingInterestPerSecond",
          "type": "uint256"
        },
        {
          "internalType": "uint256",
          "name": "lastMoneyMarketBalance",
          "type": "uint256"
        },
        {
          "internalType": "uint40",
          "name": "lastUpdateTimestamp",
          "type": "uint40"
        },
        {
          "internalType": "uint256",
          "name": "totalBorrows",
          "type": "uint256"
        },
        {
          "internalType": "address",
          "name": "interestModelAddress",
          "type": "address"
        },
        {
          "internalType": "uint256",
          "name": "treasuryFactor",
          "type": "uint256"
        },
        {
          "internalType": "bool",
          "name": "isMoneyMarketOn",
          "type": "bool"
        }
      ],
      "stateMutability": "view",
      "type": "function"
    },
    {
      "inputs": [
        {
          "internalType": "uint256",
          "name": "reserveId",
          "type": "uint256"
        },
        {
          "internalType": "address",
          "name": "interestModelAddress",
          "type": "address"
        }
      ],
      "name": "setInterestModelAddress",
      "outputs": [],
      "stateMutability": "nonpayable",
      "type": "function"
    },
    {
      "inputs": [
        {
          "internalType": "uint256",
          "name": "reserveId",
          "type": "uint256"
        },
        {
          "internalType": "uint256",
          "name": "factor",
          "type": "uint256"
        }
      ],
      "name": "setTreasuryFactor",
      "outputs": [],
      "stateMutability": "nonpayable",
      "type": "function"
    },
    {
      "inputs": [
        {
          "internalType": "uint256",
          "name": "loanId",
          "type": "uint256"
        }
      ],
      "name": "startLiquidation",
      "outputs": [],
      "stateMutability": "nonpayable",
      "type": "function"
    },
    {
      "inputs": [],
      "name": "unpause",
      "outputs": [],
      "stateMutability": "nonpayable",
      "type": "function"
    },
    {
      "inputs": [
        {
          "internalType": "uint256",
          "name": "reserveId",
          "type": "uint256"
        },
        {
          "internalType": "uint256",
          "name": "amount",
          "type": "uint256"
        },
        {
          "internalType": "address",
          "name": "onBehalfOf",
          "type": "address"
        }
      ],
      "name": "withdraw",
      "outputs": [],
      "stateMutability": "nonpayable",
      "type": "function"
    },
    {
      "stateMutability": "payable",
      "type": "receive"
    }
  ],
  "transactionHash": "0xb689448c39e54621f03c189ee55ff1a4ba5bd55c72cc76b3778aaa76b4048d76",
  "args": [
    "0x44692709AB4979aC917b55F6608b782bd5Ef7Bc8"
  ],
  "solcInputHash": "fb80df0c083f4166f8e17cc8f4ebb48d",
  "bytecode": "0x60a06040523480156200001157600080fd5b50604051620055c5380380620055c5833981016040819052620000349162000054565b6000805460ff19169055600180556001600160a01b031660805262000086565b6000602082840312156200006757600080fd5b81516001600160a01b03811681146200007f57600080fd5b9392505050565b60805161546d62000158600039600081816104f501528181610b5601528181610f9701528181611116015281816112b10152818161133501528181611c7801528181611d4501528181612090015281816121e40152818161230c015281816123da0152818161246a01528181612653015281816127bd0152818161283201528181612ad501528181612ba201528181612efb01528181613123015281816132c60152818161374d0152818161388401528181613b1601528181613e9e015281816143ab015261447a015261546d6000f3fe60806040526004361061014f5760003560e01c806391541e05116100b6578063dcc5cded1161006f578063dcc5cded1461054f578063e78f09491461056f578063ea3b86351461058f578063ee4cc84c146105af578063f277f90b146105cf578063f668a9c5146105ef5761018e565b806391541e0514610456578063980a8bd914610483578063a28a5336146104a3578063a7b6eb5a146104c3578063ade97ab5146104e3578063d10193cf1461052f5761018e565b806367113ef61161010857806367113ef61461028c57806376999aeb146102c1578063796d5836146102e15780638334278d146103015780638456cb59146104215780638b14f10c146104365761018e565b80630aad628b146101bf5780630ad58d2f146101f25780632235ae0f14610214578063371fd8e6146102345780633f4ba83a146102545780635c975abb146102695761018e565b3661018e57604080518082018252600381526231313160e81b6020820152905162461bcd60e51b81526101859190600401614950565b60405180910390fd5b604080518082018252600381526218989960e91b6020820152905162461bcd60e51b81526101859190600401614950565b3480156101cb57600080fd5b506101df6101da366004614963565b61060f565b6040519081526020015b60405180910390f35b3480156101fe57600080fd5b5061021261020d366004614991565b610727565b005b34801561022057600080fd5b506101df61022f366004614963565b6109d4565b34801561024057600080fd5b506101df61024f366004614963565b610b03565b34801561026057600080fd5b50610212611112565b34801561027557600080fd5b5060005460ff1660405190151581526020016101e9565b34801561029857600080fd5b506102ac6102a73660046149ca565b611256565b604080519283526020830191909152016101e9565b3480156102cd57600080fd5b506102126102dc366004614a0b565b611c4b565b3480156102ed57600080fd5b506102126102fc366004614b40565b61208c565b34801561030d57600080fd5b506103a261031c366004614963565b600260208190526000918252604090912080546001820154928201546003830154600484015460058501546006860154600787015460088801546009890154600a8a0154600b909a0154989a6001600160a01b039081169a98811699978116986001600160801b03909716979596949564ffffffffff9094169492939116919060ff168c565b604080519c8d526001600160a01b039b8c1660208e0152998b16998c019990995296891660608b01526001600160801b0390951660808a015260a089019390935260c088019190915264ffffffffff1660e0870152610100860152929092166101208401526101408301919091521515610160820152610180016101e9565b34801561042d57600080fd5b5061021261264f565b34801561044257600080fd5b506101df610451366004614bb6565b612790565b34801561046257600080fd5b50610476610471366004614963565b61293a565b6040516101e99190614cc8565b34801561048f57600080fd5b5061021261049e366004614963565b612aa8565b3480156104af57600080fd5b506102126104be366004614963565b612ea9565b3480156104cf57600080fd5b506102126104de366004614cd7565b6130d1565b3480156104ef57600080fd5b506105177f000000000000000000000000000000000000000000000000000000000000000081565b6040516001600160a01b0390911681526020016101e9565b34801561053b57600080fd5b5061021261054a366004614cd7565b6132c2565b34801561055b57600080fd5b506101df61056a366004614963565b61346f565b34801561057b57600080fd5b5061021261058a366004614d07565b613542565b34801561059b57600080fd5b506102126105aa366004614a0b565b6136fb565b3480156105bb57600080fd5b506101df6105ca366004614963565b61398a565b3480156105db57600080fd5b506102126105ea366004614963565b613ac4565b3480156105fb57600080fd5b506101df61060a366004614d46565b613ce4565b600081815260026020526040812054829015156040518060400160405280600381526020016203330360ec1b8152509061065c5760405162461bcd60e51b81526004016101859190614950565b506000838152600260208181526040928390208351610180810185528154815260018201546001600160a01b03908116938201939093529281015482169383019390935260038301548116606083015260048301546001600160801b03166080830152600583015460a0830152600683015460c0830152600783015464ffffffffff1660e08301526008830154610100830152600983015416610120820152600a820154610140820152600b9091015460ff1615156101608201526107209061424a565b9392505050565b60005460ff161561074a5760405162461bcd60e51b815260040161018590614da4565b6002600154141561076d5760405162461bcd60e51b815260040161018590614dce565b60026001558261078b81600090815260026020526040902054151590565b6040518060400160405280600381526020016203330360ec1b815250906107c55760405162461bcd60e51b81526004016101859190614950565b506000848152600260208190526040822001546001600160a01b031690816370a08231336040516001600160e01b031960e084901b1681526001600160a01b039091166004820152602401602060405180830381865afa15801561082d573d6000803e3d6000fd5b505050506040513d601f19601f820116820180604052508101906108519190614e05565b9050846000198114156108615750805b6000811180156108715750818111155b6040518060400160405280600381526020016233323160e81b815250906108ab5760405162461bcd60e51b81526004016101859190614950565b50806108b68861060f565b10156040518060400160405280600381526020016219991960e91b815250906108f25760405162461bcd60e51b81526004016101859190614950565b50600087815260026020526040808220815163395e905560e01b81526004810191909152336024820152604481018490526001600160a01b0388166064820152905173b61CF55d6D2870143DBaC50319A39a8b676d8fA69263395e90559260848082019391829003018186803b15801561096b57600080fd5b505af415801561097f573d6000803e3d6000fd5b50505050846001600160a01b0316877f9da6493a92039daf47d1f2d7a782299c5994c6323eb1e972f69c432089ec52bf836040516109bf91815260200190565b60405180910390a35050600180555050505050565b60008181526002602081815260408084208151610180810183528154815260018201546001600160a01b0390811694820194909452938101548316848301526003810154831660608501526004808201546001600160801b03166080860152600582015460a0860152600682015460c0860152600782015464ffffffffff1660e086015260088201546101008601526009820154909316610120850152600a810154610140850152600b015460ff1615156101608401525163328eb49160e01b815273b61CF55d6D2870143DBaC50319A39a8b676d8fA69263328eb49192610abc9201614cc8565b602060405180830381865af4158015610ad9573d6000803e3d6000fd5b505050506040513d601f19601f82011682018060405250810190610afd9190614e05565b92915050565b6000805460ff1615610b275760405162461bcd60e51b815260040161018590614da4565b60026001541415610b4a5760405162461bcd60e51b815260040161018590614dce565b600260018190555060007f00000000000000000000000000000000000000000000000000000000000000006001600160a01b03166335bc868a6040518163ffffffff1660e01b8152600401602060405180830381865afa158015610bb2573d6000803e3d6000fd5b505050506040513d601f19601f82011682018060405250810190610bd69190614e29565b6040516331a9108f60e11b8152600481018590529091506000906001600160a01b03831690636352211e90602401602060405180830381865afa158015610c21573d6000803e3d6000fd5b505050506040513d601f19601f82011682018060405250810190610c459190614e29565b60405163622fe39f60e01b81526004810186905290915082906000906001600160a01b0383169063622fe39f906024016101c060405180830381865afa158015610c93573d6000803e3d6000fd5b505050506040513d601f19601f82011682018060405250810190610cb79190614f7d565b90506001816101a001516005811115610cd257610cd2614f9a565b1480610cf457506002816101a001516005811115610cf257610cf2614f9a565b145b80610d1557506003816101a001516005811115610d1357610d13614f9a565b145b6040518060400160405280600381526020016233333360e81b81525090610d4f5760405162461bcd60e51b81526004016101859190614950565b50604051634b72cb4160e11b8152600481018790526000906001600160a01b038416906396e5968290602401602060405180830381865afa158015610d98573d6000803e3d6000fd5b505050506040513d601f19601f82011682018060405250810190610dbc9190614e05565b604051636b52b36560e01b8152600481018990529091506000906001600160a01b03851690636b52b36590602401602060405180830381865afa158015610e07573d6000803e3d6000fd5b505050506040513d601f19601f82011682018060405250810190610e2b9190614e05565b9050610e378282614fc6565b83516000818152600260205260409020549198509015156040518060400160405280600381526020016203330360ec1b81525090610e885760405162461bcd60e51b81526004016101859190614950565b506000818152600260205260409081902090516395705c5f60e01b815273b61CF55d6D2870143DBaC50319A39a8b676d8fA6916395705c5f91610ed4919088908d9088906004016150fc565b60006040518083038186803b158015610eec57600080fd5b505af4158015610f00573d6000803e3d6000fd5b50505050846001600160a01b031663563086128a88610f1c3390565b6040516001600160e01b031960e086901b16815260048101939093526001600160a01b039182166024840152166044820152606401600060405180830381600087803b158015610f6b57600080fd5b505af1158015610f7f573d6000803e3d6000fd5b505050506000610f8c3390565b6001600160a01b03167f00000000000000000000000000000000000000000000000000000000000000006001600160a01b0316635fee67086040518163ffffffff1660e01b8152600401602060405180830381865afa158015610ff3573d6000803e3d6000fd5b505050506040513d601f19601f820116820180604052508101906110179190614e29565b6001600160a01b03161461102b578661102d565b335b60208601516040808801519051632142170760e11b81526001600160a01b038a811660048301528085166024830152604482019290925292935016906342842e0e90606401600060405180830381600087803b15801561108c57600080fd5b505af11580156110a0573d6000803e3d6000fd5b5050505089816001600160a01b0316837fb26072383248d9c24b411a4bbd7216134067da189b28216744569be98bfe9b7f6110d83390565b604080516001600160a01b039092168252602082018f9052810189905260600160405180910390a450506001805550949695505050505050565b60007f00000000000000000000000000000000000000000000000000000000000000006001600160a01b0316639a9dbb996040518163ffffffff1660e01b8152600401602060405180830381865afa158015611172573d6000803e3d6000fd5b505050506040513d601f19601f820116820180604052508101906111969190614e29565b90506001600160a01b038116632500f2b6336040516001600160e01b031960e084901b1681526001600160a01b039091166004820152602401602060405180830381865afa1580156111ec573d6000803e3d6000fd5b505050506040513d601f19601f820116820180604052508101906112109190615135565b6040518060400160405280600381526020016232303160e81b8152509061124a5760405162461bcd60e51b81526004016101859190614950565b506112536142f2565b50565b60008061126560005460ff1690565b156112825760405162461bcd60e51b815260040161018590614da4565b600260015414156112a55760405162461bcd60e51b815260040161018590614dce565b600260018190555060007f00000000000000000000000000000000000000000000000000000000000000006001600160a01b03166335bc868a6040518163ffffffff1660e01b8152600401602060405180830381865afa15801561130d573d6000803e3d6000fd5b505050506040513d601f19601f820116820180604052508101906113319190614e29565b90507f00000000000000000000000000000000000000000000000000000000000000006001600160a01b031663d633590a6040518163ffffffff1660e01b8152600401602060405180830381865afa158015611391573d6000803e3d6000fd5b505050506040513d601f19601f820116820180604052508101906113b59190614e29565b6001600160a01b0316336001600160a01b03161415611486576040516331a9108f60e11b8152600481018890526001600160a01b038086169190831690636352211e90602401602060405180830381865afa158015611418573d6000803e3d6000fd5b505050506040513d601f19601f8201168201806040525081019061143c9190614e29565b6001600160a01b031614604051806040016040528060038152602001620d0c0d60ea1b815250906114805760405162461bcd60e51b81526004016101859190614950565b5061153d565b336040516331a9108f60e11b8152600481018990526001600160a01b0391821691831690636352211e90602401602060405180830381865afa1580156114d0573d6000803e3d6000fd5b505050506040513d601f19601f820116820180604052508101906114f49190614e29565b6001600160a01b031614604051806040016040528060038152602001620d0c0d60ea1b815250906115385760405162461bcd60e51b81526004016101859190614950565b503393505b61154561482f565b60405163622fe39f60e01b8152600481018990526001600160a01b0383169063622fe39f906024016101c060405180830381865afa15801561158b573d6000803e3d6000fd5b505050506040513d601f19601f820116820180604052508101906115af9190614f7d565b61012082018190526101a0015160029060058111156115d0576115d0614f9a565b14806115f7575060038161012001516101a0015160058111156115f5576115f5614f9a565b145b6040518060400160405280600381526020016233333560e81b815250906116315760405162461bcd60e51b81526004016101859190614950565b50610120810151805160209091015161164b919088614385565b610120810151805160208201516040909201516116689290612790565b60a082015260e081018790526000198714156116895760a081015160e08201525b8060e001518160a0015110156040518060400160405280600381526020016233333160e81b815250906116cf5760405162461bcd60e51b81526004016101859190614950565b50604051631c18749560e01b8152600481018990526001600160a01b03831690631c18749590602401602060405180830381865afa158015611715573d6000803e3d6000fd5b505050506040513d601f19601f820116820180604052508101906117399190614e05565b8152604051634b72cb4160e11b8152600481018990526001600160a01b038316906396e5968290602401602060405180830381865afa158015611780573d6000803e3d6000fd5b505050506040513d601f19601f820116820180604052508101906117a49190614e05565b6060820181905281516117b79190614fc6565b8160800181815250508060e001518161012001516080015111611832576000816101200151608001518260e001516117ef9190615150565b905081608001518110156118175780826080015161180d9190615150565b602083015261182c565b60808201516118269082615150565b60408301525b50611860565b80608001518160e00151826101200151608001516118509190615150565b61185a9190614fc6565b60208201525b6040810151156118c2576101208101515161187a9061060f565b60c082018190526040808301518151808301909252600382526233303160e81b6020830152909110156118c05760405162461bcd60e51b81526004016101859190614950565b505b604051632b18430960e11b8152600481018990526001600160a01b03868116602483018190526044830152831690635630861290606401600060405180830381600087803b15801561191357600080fd5b505af1158015611927573d6000803e3d6000fd5b50505061012080830180515160009081526002602081815260408084208151610180810183528154815260018201546001600160a01b0390811694820194909452938101548316918401919091526003810154821660608085019190915260048201546001600160801b0316608080860191909152600583015460a0860152600683015460c0860152600783015464ffffffffff1660e0808701919091526008840154610100870152600984015490941697850197909752600a820154610140850152600b9091015460ff16151561016084015287015190870151875194519095015173b61CF55d6D2870143DBaC50319A39a8b676d8fA6965063dfdafca395929491939291611a3691614fc6565b6040518663ffffffff1660e01b8152600401611a56959493929190615167565b602060405180830381865af4158015611a73573d6000803e3d6000fd5b505050506040513d601f19601f82011682018060405250810190611a979190614e05565b81610100018181525050600080836001600160a01b03166370b4ebeb846101200151600001518986610120015160200151876101200151604001518860e001518e8a61010001516040518863ffffffff1660e01b8152600401611b00979695949392919061519c565b6101e0604051808303816000875af1158015611b20573d6000803e3d6000fd5b505050506040513d601f19601f82011682018060405250810190611b4491906151d8565b61012085018051516000908152600260209081526040918290209251885191890151838a015160608b015194516303eed27160e21b815297995095975073b61CF55d6D2870143DBaC50319A39a8b676d8fA696630fbb49c496611bb1969593948a94909392600401615206565b60006040518083038186803b158015611bc957600080fd5b505af4158015611bdd573d6000803e3d6000fd5b50505061012084015151604080518d8152602081018690526001600160a01b038b1693507fbbd12926def8e41e5f1c7a10d219e405292d14f53bfdba19eebab2e3faa6c74a910160405180910390a35050602081015160409091015160018055909890975095505050505050565b60005460ff1615611c6e5760405162461bcd60e51b815260040161018590614da4565b6001600160a01b037f00000000000000000000000000000000000000000000000000000000000000001663529a356f336040516001600160e01b031960e084901b1681526001600160a01b039091166004820152602401602060405180830381865afa158015611ce2573d6000803e3d6000fd5b505050506040513d601f19601f82011682018060405250810190611d069190615135565b6040518060400160405280600381526020016232303360e81b81525090611d405760405162461bcd60e51b81526004016101859190614950565b5060007f00000000000000000000000000000000000000000000000000000000000000006001600160a01b03166335bc868a6040518163ffffffff1660e01b8152600401602060405180830381865afa158015611da1573d6000803e3d6000fd5b505050506040513d601f19601f82011682018060405250810190611dc59190614e29565b60405163622fe39f60e01b8152600481018590529091506000906001600160a01b0383169063622fe39f906024016101c060405180830381865afa158015611e11573d6000803e3d6000fd5b505050506040513d601f19601f82011682018060405250810190611e359190614f7d565b90506005816101a001516005811115611e5057611e50614f9a565b146040518060400160405280600381526020016233363160e81b81525090611e8b5760405162461bcd60e51b81526004016101859190614950565b50604051636b52b36560e01b8152600481018590526000906001600160a01b03841690636b52b36590602401602060405180830381865afa158015611ed4573d6000803e3d6000fd5b505050506040513d601f19601f82011682018060405250810190611ef89190614e05565b90508084101560405180604001604052806003815260200162199b1960e91b81525090611f385760405162461bcd60e51b81526004016101859190614950565b5081516000908152600260205260409081902090516339c5132760e11b81526004810191909152602481018590526044810182905273b61CF55d6D2870143DBaC50319A39a8b676d8fA69063738a264e9060640160006040518083038186803b158015611fa457600080fd5b505af4158015611fb8573d6000803e3d6000fd5b505060405163ed213bbf60e01b8152600481018890526001600160a01b038616925063ed213bbf9150602401600060405180830381600087803b158015611ffe57600080fd5b505af1158015612012573d6000803e3d6000fd5b5050505081602001516001600160a01b03168583600001517fcde0dc431e6f088cbd9c8b1768aff225467e33d4ac1d3356494ef79600a8680585604001516120573390565b604080519283526001600160a01b03909116602083015281018990526060810186905260800160405180910390a45050505050565b60007f00000000000000000000000000000000000000000000000000000000000000006001600160a01b0316639a9dbb996040518163ffffffff1660e01b8152600401602060405180830381865afa1580156120ec573d6000803e3d6000fd5b505050506040513d601f19601f820116820180604052508101906121109190614e29565b90506001600160a01b038116637be53ca1336040516001600160e01b031960e084901b1681526001600160a01b039091166004820152602401602060405180830381865afa158015612166573d6000803e3d6000fd5b505050506040513d601f19601f8201168201806040525081019061218a9190615135565b6040518060400160405280600381526020016219181960e91b815250906121c45760405162461bcd60e51b81526004016101859190614950565b506121d3600380546001019055565b60006121de60035490565b905060007f00000000000000000000000000000000000000000000000000000000000000006001600160a01b031663420897916040518163ffffffff1660e01b8152600401602060405180830381865afa158015612240573d6000803e3d6000fd5b505050506040513d601f19601f820116820180604052508101906122649190614e29565b6001600160a01b0316635e08f3378387878a6040518563ffffffff1660e01b81526004016122959493929190615251565b6020604051808303816000875af11580156122b4573d6000803e3d6000fd5b505050506040513d601f19601f820116820180604052508101906122d89190614e29565b9050604051806101800160405280838152602001876001600160a01b03168152602001826001600160a01b031681526020017f00000000000000000000000000000000000000000000000000000000000000006001600160a01b031663efe3e3e36040518163ffffffff1660e01b8152600401602060405180830381865afa158015612368573d6000803e3d6000fd5b505050506040513d601f19601f8201168201806040525081019061238c9190614e29565b6001600160a01b031681526020016b033b2e3c9fd0803ce80000006001600160801b031681526020016000815260200160008152602001600064ffffffffff168152602001600081526020017f00000000000000000000000000000000000000000000000000000000000000006001600160a01b03166390839e3f6040518163ffffffff1660e01b8152600401602060405180830381865afa158015612436573d6000803e3d6000fd5b505050506040513d601f19601f8201168201806040525081019061245a9190614e29565b6001600160a01b031681526020017f00000000000000000000000000000000000000000000000000000000000000006001600160a01b0316634322b7146040518163ffffffff1660e01b8152600401602060405180830381865afa1580156124c6573d6000803e3d6000fd5b505050506040513d601f19601f820116820180604052508101906124ea9190614e05565b81526001602091820181905260008581526002808452604091829020855181559385015192840180546001600160a01b03199081166001600160a01b03958616179091558583015191850180548216928516929092179091556060850151600385018054831691851691909117905560808501516004850180546fffffffffffffffffffffffffffffffff19166001600160801b0390921691909117905560a0850151600585015560c0850151600685015560e085015160078501805464ffffffffff191664ffffffffff9092169190911790556101008501516008850155610120850151600985018054909216908416179055610140840151600a84015561016090930151600b909201805460ff19169215159290921790915590518282169188169084907f4e9124cfa456690cd56bf3d36fe58f11cafd4e3faf6b2748e8eabe68e08a33709061263f908a908a90615296565b60405180910390a4505050505050565b60007f00000000000000000000000000000000000000000000000000000000000000006001600160a01b0316639a9dbb996040518163ffffffff1660e01b8152600401602060405180830381865afa1580156126af573d6000803e3d6000fd5b505050506040513d601f19601f820116820180604052508101906126d39190614e29565b90506001600160a01b038116632500f2b6336040516001600160e01b031960e084901b1681526001600160a01b039091166004820152602401602060405180830381865afa158015612729573d6000803e3d6000fd5b505050506040513d601f19601f8201168201806040525081019061274d9190615135565b6040518060400160405280600381526020016232303160e81b815250906127875760405162461bcd60e51b81526004016101859190614950565b50611253614546565b604051639dce429960e01b8152600481018490526001600160a01b038381166024830152600091612932917f00000000000000000000000000000000000000000000000000000000000000001690639dce429990604401600060405180830381865afa158015612804573d6000803e3d6000fd5b505050506040513d6000823e601f3d908101601f1916820160405261282c9190810190615309565b606001517f00000000000000000000000000000000000000000000000000000000000000006001600160a01b031663970f4c3a6040518163ffffffff1660e01b8152600401602060405180830381865afa15801561288e573d6000803e3d6000fd5b505050506040513d601f19601f820116820180604052508101906128b29190614e29565b6040516350d16d9f60e01b8152600481018890526001600160a01b0387811660248301526044820187905291909116906350d16d9f90606401602060405180830381865afa158015612908573d6000803e3d6000fd5b505050506040513d601f19601f8201168201806040525081019061292c9190614e05565b9061459e565b949350505050565b6040805161018081018252600080825260208201819052918101829052606081018290526080810182905260a0810182905260c0810182905260e08101829052610100810182905261012081018290526101408101829052610160810191909152600082815260026020526040902054829015156040518060400160405280600381526020016203330360ec1b815250906129e85760405162461bcd60e51b81526004016101859190614950565b5050506000908152600260208181526040928390208351610180810185528154815260018201546001600160a01b03908116938201939093529281015482169383019390935260038301548116606083015260048301546001600160801b03166080830152600583015460a0830152600683015460c0830152600783015464ffffffffff1660e08301526008830154610100830152600983015416610120820152600a820154610140820152600b9091015460ff16151561016082015290565b60005460ff1615612acb5760405162461bcd60e51b815260040161018590614da4565b6001600160a01b037f00000000000000000000000000000000000000000000000000000000000000001663529a356f336040516001600160e01b031960e084901b1681526001600160a01b039091166004820152602401602060405180830381865afa158015612b3f573d6000803e3d6000fd5b505050506040513d601f19601f82011682018060405250810190612b639190615135565b6040518060400160405280600381526020016232303360e81b81525090612b9d5760405162461bcd60e51b81526004016101859190614950565b5060007f00000000000000000000000000000000000000000000000000000000000000006001600160a01b03166335bc868a6040518163ffffffff1660e01b8152600401602060405180830381865afa158015612bfe573d6000803e3d6000fd5b505050506040513d601f19601f82011682018060405250810190612c229190614e29565b60405163622fe39f60e01b8152600481018490529091506000906001600160a01b0383169063622fe39f906024016101c060405180830381865afa158015612c6e573d6000803e3d6000fd5b505050506040513d601f19601f82011682018060405250810190612c929190614f7d565b90506004816101a001516005811115612cad57612cad614f9a565b146040518060400160405280600381526020016203336360ec1b81525090612ce85760405162461bcd60e51b81526004016101859190614950565b508051600090815260026020526040908190209051632a1ed55f60e11b815273b61CF55d6D2870143DBaC50319A39a8b676d8fA69163543daabe91612d32919085906004016153e1565b60006040518083038186803b158015612d4a57600080fd5b505af4158015612d5e573d6000803e3d6000fd5b5050505080602001516001600160a01b03166342842e0e83612d7d3390565b60408086015190516001600160e01b031960e086901b1681526001600160a01b0393841660048201529290911660248301526044820152606401600060405180830381600087803b158015612dd157600080fd5b505af1158015612de5573d6000803e3d6000fd5b505060405163980a8bd960e01b8152600481018690526001600160a01b038516925063980a8bd99150602401600060405180830381600087803b158015612e2b57600080fd5b505af1158015612e3f573d6000803e3d6000fd5b5050505080602001516001600160a01b03168382600001517f338bea6971e9221d0ae5f105c79da18c6614a11556e217e0aaa361424fe654d28460400151612e843390565b604080519283526001600160a01b0390911660208301520160405180910390a4505050565b600081815260026020526040902054819015156040518060400160405280600381526020016203330360ec1b81525090612ef65760405162461bcd60e51b81526004016101859190614950565b5060007f00000000000000000000000000000000000000000000000000000000000000006001600160a01b0316639a9dbb996040518163ffffffff1660e01b8152600401602060405180830381865afa158015612f57573d6000803e3d6000fd5b505050506040513d601f19601f82011682018060405250810190612f7b9190614e29565b90506001600160a01b038116632500f2b6336040516001600160e01b031960e084901b1681526001600160a01b039091166004820152602401602060405180830381865afa158015612fd1573d6000803e3d6000fd5b505050506040513d601f19601f82011682018060405250810190612ff59190615135565b6040518060400160405280600381526020016232303160e81b8152509061302f5760405162461bcd60e51b81526004016101859190614950565b50600083815260026020908152604091829020600b01548251808401909352600383526233303360e81b9183019190915260ff166130805760405162461bcd60e51b81526004016101859190614950565b50600083815260026020526040902061309890614646565b6040518381527ffa52d8cf59b61f2698ee5e988b488cc589a524be112b15acf937dab59bf36120906020015b60405180910390a1505050565b600082815260026020526040902054829015156040518060400160405280600381526020016203330360ec1b8152509061311e5760405162461bcd60e51b81526004016101859190614950565b5060007f00000000000000000000000000000000000000000000000000000000000000006001600160a01b0316639a9dbb996040518163ffffffff1660e01b8152600401602060405180830381865afa15801561317f573d6000803e3d6000fd5b505050506040513d601f19601f820116820180604052508101906131a39190614e29565b90506001600160a01b038116637be53ca1336040516001600160e01b031960e084901b1681526001600160a01b039091166004820152602401602060405180830381865afa1580156131f9573d6000803e3d6000fd5b505050506040513d601f19601f8201168201806040525081019061321d9190615135565b6040518060400160405280600381526020016219181960e91b815250906132575760405162461bcd60e51b81526004016101859190614950565b5060008481526002602090815260409182902060090180546001600160a01b0319166001600160a01b038716908117909155915191825285917f2a510455968cb9bf56ecbeeab12f13ed51a86ebdb3cdcec2f502f78c9f2a454191015b60405180910390a250505050565b60007f00000000000000000000000000000000000000000000000000000000000000006001600160a01b0316639a9dbb996040518163ffffffff1660e01b8152600401602060405180830381865afa158015613322573d6000803e3d6000fd5b505050506040513d601f19601f820116820180604052508101906133469190614e29565b90506001600160a01b038116637be53ca1336040516001600160e01b031960e084901b1681526001600160a01b039091166004820152602401602060405180830381865afa15801561339c573d6000803e3d6000fd5b505050506040513d601f19601f820116820180604052508101906133c09190615135565b6040518060400160405280600381526020016219181960e91b815250906133fa5760405162461bcd60e51b81526004016101859190614950565b5060008381526002602081905260409182902001549051634c20618560e11b81526001600160a01b03848116600483015290911690639840c30a90602401600060405180830381600087803b15801561345257600080fd5b505af1158015613466573d6000803e3d6000fd5b50505050505050565b600081815260026020526040812054829015156040518060400160405280600381526020016203330360ec1b815250906134bc5760405162461bcd60e51b81526004016101859190614950565b5060008381526002602052604090819020905163564f0dfb60e01b8152600481019190915273b61CF55d6D2870143DBaC50319A39a8b676d8fA69063564f0dfb906024015b602060405180830381865af415801561351e573d6000803e3d6000fd5b505050506040513d601f19601f820116820180604052508101906107209190614e05565b60005460ff16156135655760405162461bcd60e51b815260040161018590614da4565b600260015414156135885760405162461bcd60e51b815260040161018590614dce565b6002600155836135a681600090815260026020526040902054151590565b6040518060400160405280600381526020016203330360ec1b815250906135e05760405162461bcd60e51b81526004016101859190614950565b5060408051808201909152600381526203332360ec1b6020820152846136195760405162461bcd60e51b81526004016101859190614950565b50600085815260026020526040808220815163fe981a4f60e01b81526004810191909152336024820152604481018790526001600160a01b0386166064820152905173b61CF55d6D2870143DBaC50319A39a8b676d8fA69263fe981a4f9260848082019391829003018186803b15801561369257600080fd5b505af41580156136a6573d6000803e3d6000fd5b505060408051878152602081018690526001600160a01b03871693508892507fd36a2f67d06d285786f61a32b052b9ace6b0b7abef5177b54358abdc83a0b69b910160405180910390a3505060018055505050565b600082815260026020526040902054829015156040518060400160405280600381526020016203330360ec1b815250906137485760405162461bcd60e51b81526004016101859190614950565b5060007f00000000000000000000000000000000000000000000000000000000000000006001600160a01b0316639a9dbb996040518163ffffffff1660e01b8152600401602060405180830381865afa1580156137a9573d6000803e3d6000fd5b505050506040513d601f19601f820116820180604052508101906137cd9190614e29565b90506001600160a01b038116637be53ca1336040516001600160e01b031960e084901b1681526001600160a01b039091166004820152602401602060405180830381865afa158015613823573d6000803e3d6000fd5b505050506040513d601f19601f820116820180604052508101906138479190615135565b6040518060400160405280600381526020016219181960e91b815250906138815760405162461bcd60e51b81526004016101859190614950565b507f00000000000000000000000000000000000000000000000000000000000000006001600160a01b031663d23a65cf6040518163ffffffff1660e01b8152600401602060405180830381865afa1580156138e0573d6000803e3d6000fd5b505050506040513d601f19601f820116820180604052508101906139049190614e05565b831115604051806040016040528060038152602001620ccc0d60ea1b815250906139415760405162461bcd60e51b81526004016101859190614950565b5060008481526002602052604090819020600a018490555184907fa42eaeef2868aa910fcded03fb023a51209c7304b595991cb71ff2968b266087906132b49086815260200190565b600081815260026020526040812054829015156040518060400160405280600381526020016203330360ec1b815250906139d75760405162461bcd60e51b81526004016101859190614950565b506000838152600260208181526040928390208351610180810185528154815260018201546001600160a01b0390811693820193909352928101548216838501526003810154821660608401526004808201546001600160801b03166080850152600582015460a0850152600682015460c0850152600782015464ffffffffff1660e085015260088201546101008501526009820154909216610120840152600a810154610140840152600b015460ff161515610160830152915163640d9a7760e11b815273b61CF55d6D2870143DBaC50319A39a8b676d8fA69263c81b34ee9261350192909101614cc8565b600081815260026020526040902054819015156040518060400160405280600381526020016203330360ec1b81525090613b115760405162461bcd60e51b81526004016101859190614950565b5060007f00000000000000000000000000000000000000000000000000000000000000006001600160a01b0316639a9dbb996040518163ffffffff1660e01b8152600401602060405180830381865afa158015613b72573d6000803e3d6000fd5b505050506040513d601f19601f82011682018060405250810190613b969190614e29565b90506001600160a01b038116632500f2b6336040516001600160e01b031960e084901b1681526001600160a01b039091166004820152602401602060405180830381865afa158015613bec573d6000803e3d6000fd5b505050506040513d601f19601f82011682018060405250810190613c109190615135565b6040518060400160405280600381526020016232303160e81b81525090613c4a5760405162461bcd60e51b81526004016101859190614950565b50600083815260026020908152604091829020600b01548251808401909352600383526233303360e81b9183019190915260ff1615613c9c5760405162461bcd60e51b81526004016101859190614950565b506000838152600260205260409020613cb490614741565b6040518381527f7d112c7767bf19c038f01732f5928c582a8f0de6fce5f2b0c70e9e4a91d3d39c906020016130c4565b6000805460ff1615613d085760405162461bcd60e51b815260040161018590614da4565b60026001541415613d2b5760405162461bcd60e51b815260040161018590614dce565b600260015586613d4981600090815260026020526040902054151590565b6040518060400160405280600381526020016203330360ec1b81525090613d835760405162461bcd60e51b81526004016101859190614950565b50613d8f888688614385565b613dca6040518060a001604052806000815260200160008152602001600081526020016000815260200160006001600160a01b031681525090565b613dd5898787612790565b8152613de08961060f565b602082015260408101889052600019881415613e15576020810151815110613e0c578060200151613e0f565b80515b60408201525b60408082015182518251808401909352600383526233333160e81b60208401521015613e545760405162461bcd60e51b81526004016101859190614950565b508060400151816020015110156040518060400160405280600381526020016233303160e81b81525090613e9b5760405162461bcd60e51b81526004016101859190614950565b507f00000000000000000000000000000000000000000000000000000000000000006001600160a01b03166335bc868a6040518163ffffffff1660e01b8152600401602060405180830381865afa158015613efa573d6000803e3d6000fd5b505050506040513d601f19601f82011682018060405250810190613f1e9190614e29565b6001600160a01b03908116608083015286166342842e0e3360808401516040516001600160e01b031960e085901b1681526001600160a01b0392831660048201529116602482015260448101889052606401600060405180830381600087803b158015613f8a57600080fd5b505af1158015613f9e573d6000803e3d6000fd5b50505060008a81526002602081815260408084208151610180810183528154815260018201546001600160a01b0390811694820194909452938101548316848301526003810154831660608501526004808201546001600160801b03166080860152600582015460a0860152600682015460c0860152600782015464ffffffffff1660e086015260088201546101008601526009820154909316610120850152600a810154610140850152600b015460ff16151561016084015285810151905163dfdafca360e01b815273b61CF55d6D2870143DBaC50319A39a8b676d8fA6955063dfdafca3946140989493909283929091839101615167565b602060405180830381865af41580156140b5573d6000803e3d6000fd5b505050506040513d601f19601f820116820180604052508101906140d99190614e05565b81606001818152505060008082608001516001600160a01b03166370b4ebeb8c888b8b88604001518f8a606001516040518863ffffffff1660e01b8152600401614129979695949392919061519c565b6101e0604051808303816000875af1158015614149573d6000803e3d6000fd5b505050506040513d601f19601f8201168201806040525081019061416d91906151d8565b60008d81526002602052604090819020905163030b159d60e31b815292945090925073b61CF55d6D2870143DBaC50319A39a8b676d8fA691631858ace8916141b99185906004016153e1565b60006040518083038186803b1580156141d157600080fd5b505af41580156141e5573d6000803e3d6000fd5b5050505081866001600160a01b03168c7ff9a33434428db5f0416c03e38307599ad0b9b9965d6c070eb08e87cc1f0ca50e61421d3390565b6040516001600160a01b03909116815260200160405180910390a450600180559998505050505050505050565b6000816101600151156142b55760608201516020830151604080850151905163d4fac45d60e01b81526001600160a01b039283166004820152908216602482015291169063d4fac45d906044015b602060405180830381865afa158015610ad9573d6000803e3d6000fd5b602082015160408084015190516370a0823160e01b81526001600160a01b0391821660048201529116906370a0823190602401614298565b919050565b60005460ff1661433b5760405162461bcd60e51b815260206004820152601460248201527314185d5cd8589b194e881b9bdd081c185d5cd95960621b6044820152606401610185565b6000805460ff191690557f5db9ee0a495bf2e6ff9c91a7834c1ba4fdd244a5e8aa4e537bd38aeae4b073aa335b6040516001600160a01b03909116815260200160405180910390a1565b6040516346296c6960e01b8152600481018490526001600160a01b0383811660248301527f000000000000000000000000000000000000000000000000000000000000000016906346296c6990604401602060405180830381865afa1580156143f2573d6000803e3d6000fd5b505050506040513d601f19601f820116820180604052508101906144169190615135565b6040518060400160405280600381526020016219999960e91b815250906144505760405162461bcd60e51b81526004016101859190614950565b50604051639dce429960e01b8152600481018490526001600160a01b0383811660248301526000917f000000000000000000000000000000000000000000000000000000000000000090911690639dce429990604401600060405180830381865afa1580156144c3573d6000803e3d6000fd5b505050506040513d6000823e601f3d908101601f191682016040526144eb9190810190615309565b90508060800151821015801561450557508060a001518211155b6040518060400160405280600381526020016203333360ec1b8152509061453f5760405162461bcd60e51b81526004016101859190614950565b5050505050565b60005460ff16156145695760405162461bcd60e51b815260040161018590614da4565b6000805460ff191660011790557f62e78cea01bee320cd4e420270b5ea74000d11b0c9f74754ebdbfc544b05a2586143683390565b60008215806145ab575081155b156145b857506000610afd565b816145c660026127106153f6565b6145d290600019615150565b6145dc91906153f6565b8311156040518060400160405280600381526020016203130360ec1b815250906146195760405162461bcd60e51b81526004016101859190614950565b506127106146286002826153f6565b6146328486615418565b61463c9190614fc6565b61072091906153f6565b60028101546003820154600183015460405163d4fac45d60e01b81526001600160a01b0391821660048201529281166024840181905292600092919091169063d4fac45d90604401602060405180830381865afa1580156146ab573d6000803e3d6000fd5b505050506040513d601f19601f820116820180604052508101906146cf9190614e05565b604051627b8a6760e11b8152600481018290526001600160a01b0384166024820181905291925062f714ce90604401600060405180830381600087803b15801561471857600080fd5b505af115801561472c573d6000803e3d6000fd5b505050600b909301805460ff19169055505050565b600b8101805460ff1916600190811790915581015460028201546040516370a0823160e01b81526001600160a01b03918216600482015260009291909116906370a0823190602401602060405180830381865afa1580156147a6573d6000803e3d6000fd5b505050506040513d601f19601f820116820180604052508101906147ca9190614e05565b600283015460405163b6b55f2560e01b8152600481018390529192506001600160a01b03169063b6b55f2590602401600060405180830381600087803b15801561481357600080fd5b505af1158015614827573d6000803e3d6000fd5b505050505050565b6040518061014001604052806000815260200160008152602001600081526020016000815260200160008152602001600081526020016000815260200160008152602001600081526020016148ef604080516101c081018252600080825260208201819052918101829052606081018290526080810182905260a0810182905260c0810182905260e0810182905261010081018290526101208101829052610140810182905261016081018290526101808101829052906101a082015290565b905290565b60005b8381101561490f5781810151838201526020016148f7565b8381111561491e576000848401525b50505050565b6000815180845261493c8160208601602086016148f4565b601f01601f19169290920160200192915050565b6020815260006107206020830184614924565b60006020828403121561497557600080fd5b5035919050565b6001600160a01b038116811461125357600080fd5b6000806000606084860312156149a657600080fd5b833592506020840135915060408401356149bf8161497c565b809150509250925092565b600080600080608085870312156149e057600080fd5b8435935060208501359250604085013591506060850135614a008161497c565b939692955090935050565b60008060408385031215614a1e57600080fd5b50508035926020909101359150565b634e487b7160e01b600052604160045260246000fd5b6040516101c0810167ffffffffffffffff81118282101715614a6757614a67614a2d565b60405290565b604051610100810167ffffffffffffffff81118282101715614a6757614a67614a2d565b604051601f8201601f1916810167ffffffffffffffff81118282101715614aba57614aba614a2d565b604052919050565b600067ffffffffffffffff821115614adc57614adc614a2d565b50601f01601f191660200190565b600082601f830112614afb57600080fd5b8135614b0e614b0982614ac2565b614a91565b818152846020838601011115614b2357600080fd5b816020850160208301376000918101602001919091529392505050565b600080600060608486031215614b5557600080fd5b8335614b608161497c565b9250602084013567ffffffffffffffff80821115614b7d57600080fd5b614b8987838801614aea565b93506040860135915080821115614b9f57600080fd5b50614bac86828701614aea565b9150509250925092565b600080600060608486031215614bcb57600080fd5b833592506020840135614bdd8161497c565b929592945050506040919091013590565b805182526020810151614c0c60208401826001600160a01b03169052565b506040810151614c2760408401826001600160a01b03169052565b506060810151614c4260608401826001600160a01b03169052565b506080810151614c5d60808401826001600160801b03169052565b5060a081015160a083015260c081015160c083015260e0810151614c8a60e084018264ffffffffff169052565b506101008181015190830152610120808201516001600160a01b0316908301526101408082015190830152610160808201518015158285015261491e565b6101808101610afd8284614bee565b60008060408385031215614cea57600080fd5b823591506020830135614cfc8161497c565b809150509250929050565b60008060008060808587031215614d1d57600080fd5b84359350602085013592506040850135614d368161497c565b9396929550929360600135925050565b60008060008060008060c08789031215614d5f57600080fd5b8635955060208701359450604087013593506060870135614d7f8161497c565b92506080870135915060a0870135614d968161497c565b809150509295509295509295565b60208082526010908201526f14185d5cd8589b194e881c185d5cd95960821b604082015260600190565b6020808252601f908201527f5265656e7472616e637947756172643a207265656e7472616e742063616c6c00604082015260600190565b600060208284031215614e1757600080fd5b5051919050565b80516142ed8161497c565b600060208284031215614e3b57600080fd5b81516107208161497c565b80516001600160801b03811681146142ed57600080fd5b805164ffffffffff811681146142ed57600080fd5b8051600681106142ed57600080fd5b60006101c08284031215614e9457600080fd5b614e9c614a43565b905081518152614eae60208301614e1e565b602082015260408201516040820152614ec960608301614e1e565b606082015260808201516080820152614ee460a08301614e46565b60a0820152614ef560c08301614e46565b60c0820152614f0660e08301614e5d565b60e0820152610100614f19818401614e5d565b90820152610120614f2b838201614e5d565b90820152610140614f3d838201614e5d565b90820152610160614f4f838201614e5d565b90820152610180614f61838201614e5d565b908201526101a0614f73838201614e72565b9082015292915050565b60006101c08284031215614f9057600080fd5b6107208383614e81565b634e487b7160e01b600052602160045260246000fd5b634e487b7160e01b600052601160045260246000fd5b60008219821115614fd957614fd9614fb0565b500190565b60068110614ffc57634e487b7160e01b600052602160045260246000fd5b9052565b80518252602081015161501e60208401826001600160a01b03169052565b5060408101516040830152606081015161504360608401826001600160a01b03169052565b506080810151608083015260a081015161506860a08401826001600160801b03169052565b5060c081015161508360c08401826001600160801b03169052565b5060e081015161509c60e084018264ffffffffff169052565b506101008181015164ffffffffff9081169184019190915261012080830151821690840152610140808301518216908401526101608083015182169084015261018080830151909116908301526101a08082015161491e82850182614fde565b84815261022081016151116020830186615000565b6101e0820193909352610200015292915050565b805180151581146142ed57600080fd5b60006020828403121561514757600080fd5b61072082615125565b60008282101561516257615162614fb0565b500390565b61020081016151768288614bee565b85610180830152846101a0830152836101c0830152826101e08301529695505050505050565b9687526001600160a01b0395861660208801529390941660408601526060850191909152608084015260a083019190915260c082015260e00190565b6000806101e083850312156151ec57600080fd5b825191506151fd8460208501614e81565b90509250929050565b878152610420810161521b6020830189615000565b6152296101e0830188615000565b856103a0830152846103c0830152836103e08301528261040083015298975050505050505050565b84815260806020820152600061526a6080830186614924565b828103604084015261527c8186614924565b91505060018060a01b038316606083015295945050505050565b6040815260006152a96040830185614924565b82810360208401526152bb8185614924565b95945050505050565b600082601f8301126152d557600080fd5b81516152e3614b0982614ac2565b8181528460208386010111156152f857600080fd5b6129328260208301602087016148f4565b60006020828403121561531b57600080fd5b815167ffffffffffffffff8082111561533357600080fd5b90830190610100828603121561534857600080fd5b615350614a6d565b61535983615125565b815260208301518281111561536d57600080fd5b615379878286016152c4565b60208301525060408301518281111561539157600080fd5b61539d878286016152c4565b604083015250606083015160608201526080830151608082015260a083015160a082015260c083015160c082015260e083015160e082015280935050505092915050565b8281526101e081016107206020830184615000565b60008261541357634e487b7160e01b600052601260045260246000fd5b500490565b600081600019048311821515161561543257615432614fb0565b50029056fea2646970667358221220a5cbaf181dcde24ae502ac7a31ba2eac229ce02321e85d6f3e2263ff0f44573b64736f6c634300080a0033",
  "deployedBytecode": "0x60806040526004361061014f5760003560e01c806391541e05116100b6578063dcc5cded1161006f578063dcc5cded1461054f578063e78f09491461056f578063ea3b86351461058f578063ee4cc84c146105af578063f277f90b146105cf578063f668a9c5146105ef5761018e565b806391541e0514610456578063980a8bd914610483578063a28a5336146104a3578063a7b6eb5a146104c3578063ade97ab5146104e3578063d10193cf1461052f5761018e565b806367113ef61161010857806367113ef61461028c57806376999aeb146102c1578063796d5836146102e15780638334278d146103015780638456cb59146104215780638b14f10c146104365761018e565b80630aad628b146101bf5780630ad58d2f146101f25780632235ae0f14610214578063371fd8e6146102345780633f4ba83a146102545780635c975abb146102695761018e565b3661018e57604080518082018252600381526231313160e81b6020820152905162461bcd60e51b81526101859190600401614950565b60405180910390fd5b604080518082018252600381526218989960e91b6020820152905162461bcd60e51b81526101859190600401614950565b3480156101cb57600080fd5b506101df6101da366004614963565b61060f565b6040519081526020015b60405180910390f35b3480156101fe57600080fd5b5061021261020d366004614991565b610727565b005b34801561022057600080fd5b506101df61022f366004614963565b6109d4565b34801561024057600080fd5b506101df61024f366004614963565b610b03565b34801561026057600080fd5b50610212611112565b34801561027557600080fd5b5060005460ff1660405190151581526020016101e9565b34801561029857600080fd5b506102ac6102a73660046149ca565b611256565b604080519283526020830191909152016101e9565b3480156102cd57600080fd5b506102126102dc366004614a0b565b611c4b565b3480156102ed57600080fd5b506102126102fc366004614b40565b61208c565b34801561030d57600080fd5b506103a261031c366004614963565b600260208190526000918252604090912080546001820154928201546003830154600484015460058501546006860154600787015460088801546009890154600a8a0154600b909a0154989a6001600160a01b039081169a98811699978116986001600160801b03909716979596949564ffffffffff9094169492939116919060ff168c565b604080519c8d526001600160a01b039b8c1660208e0152998b16998c019990995296891660608b01526001600160801b0390951660808a015260a089019390935260c088019190915264ffffffffff1660e0870152610100860152929092166101208401526101408301919091521515610160820152610180016101e9565b34801561042d57600080fd5b5061021261264f565b34801561044257600080fd5b506101df610451366004614bb6565b612790565b34801561046257600080fd5b50610476610471366004614963565b61293a565b6040516101e99190614cc8565b34801561048f57600080fd5b5061021261049e366004614963565b612aa8565b3480156104af57600080fd5b506102126104be366004614963565b612ea9565b3480156104cf57600080fd5b506102126104de366004614cd7565b6130d1565b3480156104ef57600080fd5b506105177f000000000000000000000000000000000000000000000000000000000000000081565b6040516001600160a01b0390911681526020016101e9565b34801561053b57600080fd5b5061021261054a366004614cd7565b6132c2565b34801561055b57600080fd5b506101df61056a366004614963565b61346f565b34801561057b57600080fd5b5061021261058a366004614d07565b613542565b34801561059b57600080fd5b506102126105aa366004614a0b565b6136fb565b3480156105bb57600080fd5b506101df6105ca366004614963565b61398a565b3480156105db57600080fd5b506102126105ea366004614963565b613ac4565b3480156105fb57600080fd5b506101df61060a366004614d46565b613ce4565b600081815260026020526040812054829015156040518060400160405280600381526020016203330360ec1b8152509061065c5760405162461bcd60e51b81526004016101859190614950565b506000838152600260208181526040928390208351610180810185528154815260018201546001600160a01b03908116938201939093529281015482169383019390935260038301548116606083015260048301546001600160801b03166080830152600583015460a0830152600683015460c0830152600783015464ffffffffff1660e08301526008830154610100830152600983015416610120820152600a820154610140820152600b9091015460ff1615156101608201526107209061424a565b9392505050565b60005460ff161561074a5760405162461bcd60e51b815260040161018590614da4565b6002600154141561076d5760405162461bcd60e51b815260040161018590614dce565b60026001558261078b81600090815260026020526040902054151590565b6040518060400160405280600381526020016203330360ec1b815250906107c55760405162461bcd60e51b81526004016101859190614950565b506000848152600260208190526040822001546001600160a01b031690816370a08231336040516001600160e01b031960e084901b1681526001600160a01b039091166004820152602401602060405180830381865afa15801561082d573d6000803e3d6000fd5b505050506040513d601f19601f820116820180604052508101906108519190614e05565b9050846000198114156108615750805b6000811180156108715750818111155b6040518060400160405280600381526020016233323160e81b815250906108ab5760405162461bcd60e51b81526004016101859190614950565b50806108b68861060f565b10156040518060400160405280600381526020016219991960e91b815250906108f25760405162461bcd60e51b81526004016101859190614950565b50600087815260026020526040808220815163395e905560e01b81526004810191909152336024820152604481018490526001600160a01b0388166064820152905173__$5e6137a1b5a0a366e2874209b5abf71c10$__9263395e90559260848082019391829003018186803b15801561096b57600080fd5b505af415801561097f573d6000803e3d6000fd5b50505050846001600160a01b0316877f9da6493a92039daf47d1f2d7a782299c5994c6323eb1e972f69c432089ec52bf836040516109bf91815260200190565b60405180910390a35050600180555050505050565b60008181526002602081815260408084208151610180810183528154815260018201546001600160a01b0390811694820194909452938101548316848301526003810154831660608501526004808201546001600160801b03166080860152600582015460a0860152600682015460c0860152600782015464ffffffffff1660e086015260088201546101008601526009820154909316610120850152600a810154610140850152600b015460ff1615156101608401525163328eb49160e01b815273__$5e6137a1b5a0a366e2874209b5abf71c10$__9263328eb49192610abc9201614cc8565b602060405180830381865af4158015610ad9573d6000803e3d6000fd5b505050506040513d601f19601f82011682018060405250810190610afd9190614e05565b92915050565b6000805460ff1615610b275760405162461bcd60e51b815260040161018590614da4565b60026001541415610b4a5760405162461bcd60e51b815260040161018590614dce565b600260018190555060007f00000000000000000000000000000000000000000000000000000000000000006001600160a01b03166335bc868a6040518163ffffffff1660e01b8152600401602060405180830381865afa158015610bb2573d6000803e3d6000fd5b505050506040513d601f19601f82011682018060405250810190610bd69190614e29565b6040516331a9108f60e11b8152600481018590529091506000906001600160a01b03831690636352211e90602401602060405180830381865afa158015610c21573d6000803e3d6000fd5b505050506040513d601f19601f82011682018060405250810190610c459190614e29565b60405163622fe39f60e01b81526004810186905290915082906000906001600160a01b0383169063622fe39f906024016101c060405180830381865afa158015610c93573d6000803e3d6000fd5b505050506040513d601f19601f82011682018060405250810190610cb79190614f7d565b90506001816101a001516005811115610cd257610cd2614f9a565b1480610cf457506002816101a001516005811115610cf257610cf2614f9a565b145b80610d1557506003816101a001516005811115610d1357610d13614f9a565b145b6040518060400160405280600381526020016233333360e81b81525090610d4f5760405162461bcd60e51b81526004016101859190614950565b50604051634b72cb4160e11b8152600481018790526000906001600160a01b038416906396e5968290602401602060405180830381865afa158015610d98573d6000803e3d6000fd5b505050506040513d601f19601f82011682018060405250810190610dbc9190614e05565b604051636b52b36560e01b8152600481018990529091506000906001600160a01b03851690636b52b36590602401602060405180830381865afa158015610e07573d6000803e3d6000fd5b505050506040513d601f19601f82011682018060405250810190610e2b9190614e05565b9050610e378282614fc6565b83516000818152600260205260409020549198509015156040518060400160405280600381526020016203330360ec1b81525090610e885760405162461bcd60e51b81526004016101859190614950565b506000818152600260205260409081902090516395705c5f60e01b815273__$5e6137a1b5a0a366e2874209b5abf71c10$__916395705c5f91610ed4919088908d9088906004016150fc565b60006040518083038186803b158015610eec57600080fd5b505af4158015610f00573d6000803e3d6000fd5b50505050846001600160a01b031663563086128a88610f1c3390565b6040516001600160e01b031960e086901b16815260048101939093526001600160a01b039182166024840152166044820152606401600060405180830381600087803b158015610f6b57600080fd5b505af1158015610f7f573d6000803e3d6000fd5b505050506000610f8c3390565b6001600160a01b03167f00000000000000000000000000000000000000000000000000000000000000006001600160a01b0316635fee67086040518163ffffffff1660e01b8152600401602060405180830381865afa158015610ff3573d6000803e3d6000fd5b505050506040513d601f19601f820116820180604052508101906110179190614e29565b6001600160a01b03161461102b578661102d565b335b60208601516040808801519051632142170760e11b81526001600160a01b038a811660048301528085166024830152604482019290925292935016906342842e0e90606401600060405180830381600087803b15801561108c57600080fd5b505af11580156110a0573d6000803e3d6000fd5b5050505089816001600160a01b0316837fb26072383248d9c24b411a4bbd7216134067da189b28216744569be98bfe9b7f6110d83390565b604080516001600160a01b039092168252602082018f9052810189905260600160405180910390a450506001805550949695505050505050565b60007f00000000000000000000000000000000000000000000000000000000000000006001600160a01b0316639a9dbb996040518163ffffffff1660e01b8152600401602060405180830381865afa158015611172573d6000803e3d6000fd5b505050506040513d601f19601f820116820180604052508101906111969190614e29565b90506001600160a01b038116632500f2b6336040516001600160e01b031960e084901b1681526001600160a01b039091166004820152602401602060405180830381865afa1580156111ec573d6000803e3d6000fd5b505050506040513d601f19601f820116820180604052508101906112109190615135565b6040518060400160405280600381526020016232303160e81b8152509061124a5760405162461bcd60e51b81526004016101859190614950565b506112536142f2565b50565b60008061126560005460ff1690565b156112825760405162461bcd60e51b815260040161018590614da4565b600260015414156112a55760405162461bcd60e51b815260040161018590614dce565b600260018190555060007f00000000000000000000000000000000000000000000000000000000000000006001600160a01b03166335bc868a6040518163ffffffff1660e01b8152600401602060405180830381865afa15801561130d573d6000803e3d6000fd5b505050506040513d601f19601f820116820180604052508101906113319190614e29565b90507f00000000000000000000000000000000000000000000000000000000000000006001600160a01b031663d633590a6040518163ffffffff1660e01b8152600401602060405180830381865afa158015611391573d6000803e3d6000fd5b505050506040513d601f19601f820116820180604052508101906113b59190614e29565b6001600160a01b0316336001600160a01b03161415611486576040516331a9108f60e11b8152600481018890526001600160a01b038086169190831690636352211e90602401602060405180830381865afa158015611418573d6000803e3d6000fd5b505050506040513d601f19601f8201168201806040525081019061143c9190614e29565b6001600160a01b031614604051806040016040528060038152602001620d0c0d60ea1b815250906114805760405162461bcd60e51b81526004016101859190614950565b5061153d565b336040516331a9108f60e11b8152600481018990526001600160a01b0391821691831690636352211e90602401602060405180830381865afa1580156114d0573d6000803e3d6000fd5b505050506040513d601f19601f820116820180604052508101906114f49190614e29565b6001600160a01b031614604051806040016040528060038152602001620d0c0d60ea1b815250906115385760405162461bcd60e51b81526004016101859190614950565b503393505b61154561482f565b60405163622fe39f60e01b8152600481018990526001600160a01b0383169063622fe39f906024016101c060405180830381865afa15801561158b573d6000803e3d6000fd5b505050506040513d601f19601f820116820180604052508101906115af9190614f7d565b61012082018190526101a0015160029060058111156115d0576115d0614f9a565b14806115f7575060038161012001516101a0015160058111156115f5576115f5614f9a565b145b6040518060400160405280600381526020016233333560e81b815250906116315760405162461bcd60e51b81526004016101859190614950565b50610120810151805160209091015161164b919088614385565b610120810151805160208201516040909201516116689290612790565b60a082015260e081018790526000198714156116895760a081015160e08201525b8060e001518160a0015110156040518060400160405280600381526020016233333160e81b815250906116cf5760405162461bcd60e51b81526004016101859190614950565b50604051631c18749560e01b8152600481018990526001600160a01b03831690631c18749590602401602060405180830381865afa158015611715573d6000803e3d6000fd5b505050506040513d601f19601f820116820180604052508101906117399190614e05565b8152604051634b72cb4160e11b8152600481018990526001600160a01b038316906396e5968290602401602060405180830381865afa158015611780573d6000803e3d6000fd5b505050506040513d601f19601f820116820180604052508101906117a49190614e05565b6060820181905281516117b79190614fc6565b8160800181815250508060e001518161012001516080015111611832576000816101200151608001518260e001516117ef9190615150565b905081608001518110156118175780826080015161180d9190615150565b602083015261182c565b60808201516118269082615150565b60408301525b50611860565b80608001518160e00151826101200151608001516118509190615150565b61185a9190614fc6565b60208201525b6040810151156118c2576101208101515161187a9061060f565b60c082018190526040808301518151808301909252600382526233303160e81b6020830152909110156118c05760405162461bcd60e51b81526004016101859190614950565b505b604051632b18430960e11b8152600481018990526001600160a01b03868116602483018190526044830152831690635630861290606401600060405180830381600087803b15801561191357600080fd5b505af1158015611927573d6000803e3d6000fd5b50505061012080830180515160009081526002602081815260408084208151610180810183528154815260018201546001600160a01b0390811694820194909452938101548316918401919091526003810154821660608085019190915260048201546001600160801b0316608080860191909152600583015460a0860152600683015460c0860152600783015464ffffffffff1660e0808701919091526008840154610100870152600984015490941697850197909752600a820154610140850152600b9091015460ff16151561016084015287015190870151875194519095015173__$5e6137a1b5a0a366e2874209b5abf71c10$__965063dfdafca395929491939291611a3691614fc6565b6040518663ffffffff1660e01b8152600401611a56959493929190615167565b602060405180830381865af4158015611a73573d6000803e3d6000fd5b505050506040513d601f19601f82011682018060405250810190611a979190614e05565b81610100018181525050600080836001600160a01b03166370b4ebeb846101200151600001518986610120015160200151876101200151604001518860e001518e8a61010001516040518863ffffffff1660e01b8152600401611b00979695949392919061519c565b6101e0604051808303816000875af1158015611b20573d6000803e3d6000fd5b505050506040513d601f19601f82011682018060405250810190611b4491906151d8565b61012085018051516000908152600260209081526040918290209251885191890151838a015160608b015194516303eed27160e21b815297995095975073__$5e6137a1b5a0a366e2874209b5abf71c10$__96630fbb49c496611bb1969593948a94909392600401615206565b60006040518083038186803b158015611bc957600080fd5b505af4158015611bdd573d6000803e3d6000fd5b50505061012084015151604080518d8152602081018690526001600160a01b038b1693507fbbd12926def8e41e5f1c7a10d219e405292d14f53bfdba19eebab2e3faa6c74a910160405180910390a35050602081015160409091015160018055909890975095505050505050565b60005460ff1615611c6e5760405162461bcd60e51b815260040161018590614da4565b6001600160a01b037f00000000000000000000000000000000000000000000000000000000000000001663529a356f336040516001600160e01b031960e084901b1681526001600160a01b039091166004820152602401602060405180830381865afa158015611ce2573d6000803e3d6000fd5b505050506040513d601f19601f82011682018060405250810190611d069190615135565b6040518060400160405280600381526020016232303360e81b81525090611d405760405162461bcd60e51b81526004016101859190614950565b5060007f00000000000000000000000000000000000000000000000000000000000000006001600160a01b03166335bc868a6040518163ffffffff1660e01b8152600401602060405180830381865afa158015611da1573d6000803e3d6000fd5b505050506040513d601f19601f82011682018060405250810190611dc59190614e29565b60405163622fe39f60e01b8152600481018590529091506000906001600160a01b0383169063622fe39f906024016101c060405180830381865afa158015611e11573d6000803e3d6000fd5b505050506040513d601f19601f82011682018060405250810190611e359190614f7d565b90506005816101a001516005811115611e5057611e50614f9a565b146040518060400160405280600381526020016233363160e81b81525090611e8b5760405162461bcd60e51b81526004016101859190614950565b50604051636b52b36560e01b8152600481018590526000906001600160a01b03841690636b52b36590602401602060405180830381865afa158015611ed4573d6000803e3d6000fd5b505050506040513d601f19601f82011682018060405250810190611ef89190614e05565b90508084101560405180604001604052806003815260200162199b1960e91b81525090611f385760405162461bcd60e51b81526004016101859190614950565b5081516000908152600260205260409081902090516339c5132760e11b81526004810191909152602481018590526044810182905273__$5e6137a1b5a0a366e2874209b5abf71c10$__9063738a264e9060640160006040518083038186803b158015611fa457600080fd5b505af4158015611fb8573d6000803e3d6000fd5b505060405163ed213bbf60e01b8152600481018890526001600160a01b038616925063ed213bbf9150602401600060405180830381600087803b158015611ffe57600080fd5b505af1158015612012573d6000803e3d6000fd5b5050505081602001516001600160a01b03168583600001517fcde0dc431e6f088cbd9c8b1768aff225467e33d4ac1d3356494ef79600a8680585604001516120573390565b604080519283526001600160a01b03909116602083015281018990526060810186905260800160405180910390a45050505050565b60007f00000000000000000000000000000000000000000000000000000000000000006001600160a01b0316639a9dbb996040518163ffffffff1660e01b8152600401602060405180830381865afa1580156120ec573d6000803e3d6000fd5b505050506040513d601f19601f820116820180604052508101906121109190614e29565b90506001600160a01b038116637be53ca1336040516001600160e01b031960e084901b1681526001600160a01b039091166004820152602401602060405180830381865afa158015612166573d6000803e3d6000fd5b505050506040513d601f19601f8201168201806040525081019061218a9190615135565b6040518060400160405280600381526020016219181960e91b815250906121c45760405162461bcd60e51b81526004016101859190614950565b506121d3600380546001019055565b60006121de60035490565b905060007f00000000000000000000000000000000000000000000000000000000000000006001600160a01b031663420897916040518163ffffffff1660e01b8152600401602060405180830381865afa158015612240573d6000803e3d6000fd5b505050506040513d601f19601f820116820180604052508101906122649190614e29565b6001600160a01b0316635e08f3378387878a6040518563ffffffff1660e01b81526004016122959493929190615251565b6020604051808303816000875af11580156122b4573d6000803e3d6000fd5b505050506040513d601f19601f820116820180604052508101906122d89190614e29565b9050604051806101800160405280838152602001876001600160a01b03168152602001826001600160a01b031681526020017f00000000000000000000000000000000000000000000000000000000000000006001600160a01b031663efe3e3e36040518163ffffffff1660e01b8152600401602060405180830381865afa158015612368573d6000803e3d6000fd5b505050506040513d601f19601f8201168201806040525081019061238c9190614e29565b6001600160a01b031681526020016b033b2e3c9fd0803ce80000006001600160801b031681526020016000815260200160008152602001600064ffffffffff168152602001600081526020017f00000000000000000000000000000000000000000000000000000000000000006001600160a01b03166390839e3f6040518163ffffffff1660e01b8152600401602060405180830381865afa158015612436573d6000803e3d6000fd5b505050506040513d601f19601f8201168201806040525081019061245a9190614e29565b6001600160a01b031681526020017f00000000000000000000000000000000000000000000000000000000000000006001600160a01b0316634322b7146040518163ffffffff1660e01b8152600401602060405180830381865afa1580156124c6573d6000803e3d6000fd5b505050506040513d601f19601f820116820180604052508101906124ea9190614e05565b81526001602091820181905260008581526002808452604091829020855181559385015192840180546001600160a01b03199081166001600160a01b03958616179091558583015191850180548216928516929092179091556060850151600385018054831691851691909117905560808501516004850180546fffffffffffffffffffffffffffffffff19166001600160801b0390921691909117905560a0850151600585015560c0850151600685015560e085015160078501805464ffffffffff191664ffffffffff9092169190911790556101008501516008850155610120850151600985018054909216908416179055610140840151600a84015561016090930151600b909201805460ff19169215159290921790915590518282169188169084907f4e9124cfa456690cd56bf3d36fe58f11cafd4e3faf6b2748e8eabe68e08a33709061263f908a908a90615296565b60405180910390a4505050505050565b60007f00000000000000000000000000000000000000000000000000000000000000006001600160a01b0316639a9dbb996040518163ffffffff1660e01b8152600401602060405180830381865afa1580156126af573d6000803e3d6000fd5b505050506040513d601f19601f820116820180604052508101906126d39190614e29565b90506001600160a01b038116632500f2b6336040516001600160e01b031960e084901b1681526001600160a01b039091166004820152602401602060405180830381865afa158015612729573d6000803e3d6000fd5b505050506040513d601f19601f8201168201806040525081019061274d9190615135565b6040518060400160405280600381526020016232303160e81b815250906127875760405162461bcd60e51b81526004016101859190614950565b50611253614546565b604051639dce429960e01b8152600481018490526001600160a01b038381166024830152600091612932917f00000000000000000000000000000000000000000000000000000000000000001690639dce429990604401600060405180830381865afa158015612804573d6000803e3d6000fd5b505050506040513d6000823e601f3d908101601f1916820160405261282c9190810190615309565b606001517f00000000000000000000000000000000000000000000000000000000000000006001600160a01b031663970f4c3a6040518163ffffffff1660e01b8152600401602060405180830381865afa15801561288e573d6000803e3d6000fd5b505050506040513d601f19601f820116820180604052508101906128b29190614e29565b6040516350d16d9f60e01b8152600481018890526001600160a01b0387811660248301526044820187905291909116906350d16d9f90606401602060405180830381865afa158015612908573d6000803e3d6000fd5b505050506040513d601f19601f8201168201806040525081019061292c9190614e05565b9061459e565b949350505050565b6040805161018081018252600080825260208201819052918101829052606081018290526080810182905260a0810182905260c0810182905260e08101829052610100810182905261012081018290526101408101829052610160810191909152600082815260026020526040902054829015156040518060400160405280600381526020016203330360ec1b815250906129e85760405162461bcd60e51b81526004016101859190614950565b5050506000908152600260208181526040928390208351610180810185528154815260018201546001600160a01b03908116938201939093529281015482169383019390935260038301548116606083015260048301546001600160801b03166080830152600583015460a0830152600683015460c0830152600783015464ffffffffff1660e08301526008830154610100830152600983015416610120820152600a820154610140820152600b9091015460ff16151561016082015290565b60005460ff1615612acb5760405162461bcd60e51b815260040161018590614da4565b6001600160a01b037f00000000000000000000000000000000000000000000000000000000000000001663529a356f336040516001600160e01b031960e084901b1681526001600160a01b039091166004820152602401602060405180830381865afa158015612b3f573d6000803e3d6000fd5b505050506040513d601f19601f82011682018060405250810190612b639190615135565b6040518060400160405280600381526020016232303360e81b81525090612b9d5760405162461bcd60e51b81526004016101859190614950565b5060007f00000000000000000000000000000000000000000000000000000000000000006001600160a01b03166335bc868a6040518163ffffffff1660e01b8152600401602060405180830381865afa158015612bfe573d6000803e3d6000fd5b505050506040513d601f19601f82011682018060405250810190612c229190614e29565b60405163622fe39f60e01b8152600481018490529091506000906001600160a01b0383169063622fe39f906024016101c060405180830381865afa158015612c6e573d6000803e3d6000fd5b505050506040513d601f19601f82011682018060405250810190612c929190614f7d565b90506004816101a001516005811115612cad57612cad614f9a565b146040518060400160405280600381526020016203336360ec1b81525090612ce85760405162461bcd60e51b81526004016101859190614950565b508051600090815260026020526040908190209051632a1ed55f60e11b815273__$5e6137a1b5a0a366e2874209b5abf71c10$__9163543daabe91612d32919085906004016153e1565b60006040518083038186803b158015612d4a57600080fd5b505af4158015612d5e573d6000803e3d6000fd5b5050505080602001516001600160a01b03166342842e0e83612d7d3390565b60408086015190516001600160e01b031960e086901b1681526001600160a01b0393841660048201529290911660248301526044820152606401600060405180830381600087803b158015612dd157600080fd5b505af1158015612de5573d6000803e3d6000fd5b505060405163980a8bd960e01b8152600481018690526001600160a01b038516925063980a8bd99150602401600060405180830381600087803b158015612e2b57600080fd5b505af1158015612e3f573d6000803e3d6000fd5b5050505080602001516001600160a01b03168382600001517f338bea6971e9221d0ae5f105c79da18c6614a11556e217e0aaa361424fe654d28460400151612e843390565b604080519283526001600160a01b0390911660208301520160405180910390a4505050565b600081815260026020526040902054819015156040518060400160405280600381526020016203330360ec1b81525090612ef65760405162461bcd60e51b81526004016101859190614950565b5060007f00000000000000000000000000000000000000000000000000000000000000006001600160a01b0316639a9dbb996040518163ffffffff1660e01b8152600401602060405180830381865afa158015612f57573d6000803e3d6000fd5b505050506040513d601f19601f82011682018060405250810190612f7b9190614e29565b90506001600160a01b038116632500f2b6336040516001600160e01b031960e084901b1681526001600160a01b039091166004820152602401602060405180830381865afa158015612fd1573d6000803e3d6000fd5b505050506040513d601f19601f82011682018060405250810190612ff59190615135565b6040518060400160405280600381526020016232303160e81b8152509061302f5760405162461bcd60e51b81526004016101859190614950565b50600083815260026020908152604091829020600b01548251808401909352600383526233303360e81b9183019190915260ff166130805760405162461bcd60e51b81526004016101859190614950565b50600083815260026020526040902061309890614646565b6040518381527ffa52d8cf59b61f2698ee5e988b488cc589a524be112b15acf937dab59bf36120906020015b60405180910390a1505050565b600082815260026020526040902054829015156040518060400160405280600381526020016203330360ec1b8152509061311e5760405162461bcd60e51b81526004016101859190614950565b5060007f00000000000000000000000000000000000000000000000000000000000000006001600160a01b0316639a9dbb996040518163ffffffff1660e01b8152600401602060405180830381865afa15801561317f573d6000803e3d6000fd5b505050506040513d601f19601f820116820180604052508101906131a39190614e29565b90506001600160a01b038116637be53ca1336040516001600160e01b031960e084901b1681526001600160a01b039091166004820152602401602060405180830381865afa1580156131f9573d6000803e3d6000fd5b505050506040513d601f19601f8201168201806040525081019061321d9190615135565b6040518060400160405280600381526020016219181960e91b815250906132575760405162461bcd60e51b81526004016101859190614950565b5060008481526002602090815260409182902060090180546001600160a01b0319166001600160a01b038716908117909155915191825285917f2a510455968cb9bf56ecbeeab12f13ed51a86ebdb3cdcec2f502f78c9f2a454191015b60405180910390a250505050565b60007f00000000000000000000000000000000000000000000000000000000000000006001600160a01b0316639a9dbb996040518163ffffffff1660e01b8152600401602060405180830381865afa158015613322573d6000803e3d6000fd5b505050506040513d601f19601f820116820180604052508101906133469190614e29565b90506001600160a01b038116637be53ca1336040516001600160e01b031960e084901b1681526001600160a01b039091166004820152602401602060405180830381865afa15801561339c573d6000803e3d6000fd5b505050506040513d601f19601f820116820180604052508101906133c09190615135565b6040518060400160405280600381526020016219181960e91b815250906133fa5760405162461bcd60e51b81526004016101859190614950565b5060008381526002602081905260409182902001549051634c20618560e11b81526001600160a01b03848116600483015290911690639840c30a90602401600060405180830381600087803b15801561345257600080fd5b505af1158015613466573d6000803e3d6000fd5b50505050505050565b600081815260026020526040812054829015156040518060400160405280600381526020016203330360ec1b815250906134bc5760405162461bcd60e51b81526004016101859190614950565b5060008381526002602052604090819020905163564f0dfb60e01b8152600481019190915273__$5e6137a1b5a0a366e2874209b5abf71c10$__9063564f0dfb906024015b602060405180830381865af415801561351e573d6000803e3d6000fd5b505050506040513d601f19601f820116820180604052508101906107209190614e05565b60005460ff16156135655760405162461bcd60e51b815260040161018590614da4565b600260015414156135885760405162461bcd60e51b815260040161018590614dce565b6002600155836135a681600090815260026020526040902054151590565b6040518060400160405280600381526020016203330360ec1b815250906135e05760405162461bcd60e51b81526004016101859190614950565b5060408051808201909152600381526203332360ec1b6020820152846136195760405162461bcd60e51b81526004016101859190614950565b50600085815260026020526040808220815163fe981a4f60e01b81526004810191909152336024820152604481018790526001600160a01b0386166064820152905173__$5e6137a1b5a0a366e2874209b5abf71c10$__9263fe981a4f9260848082019391829003018186803b15801561369257600080fd5b505af41580156136a6573d6000803e3d6000fd5b505060408051878152602081018690526001600160a01b03871693508892507fd36a2f67d06d285786f61a32b052b9ace6b0b7abef5177b54358abdc83a0b69b910160405180910390a3505060018055505050565b600082815260026020526040902054829015156040518060400160405280600381526020016203330360ec1b815250906137485760405162461bcd60e51b81526004016101859190614950565b5060007f00000000000000000000000000000000000000000000000000000000000000006001600160a01b0316639a9dbb996040518163ffffffff1660e01b8152600401602060405180830381865afa1580156137a9573d6000803e3d6000fd5b505050506040513d601f19601f820116820180604052508101906137cd9190614e29565b90506001600160a01b038116637be53ca1336040516001600160e01b031960e084901b1681526001600160a01b039091166004820152602401602060405180830381865afa158015613823573d6000803e3d6000fd5b505050506040513d601f19601f820116820180604052508101906138479190615135565b6040518060400160405280600381526020016219181960e91b815250906138815760405162461bcd60e51b81526004016101859190614950565b507f00000000000000000000000000000000000000000000000000000000000000006001600160a01b031663d23a65cf6040518163ffffffff1660e01b8152600401602060405180830381865afa1580156138e0573d6000803e3d6000fd5b505050506040513d601f19601f820116820180604052508101906139049190614e05565b831115604051806040016040528060038152602001620ccc0d60ea1b815250906139415760405162461bcd60e51b81526004016101859190614950565b5060008481526002602052604090819020600a018490555184907fa42eaeef2868aa910fcded03fb023a51209c7304b595991cb71ff2968b266087906132b49086815260200190565b600081815260026020526040812054829015156040518060400160405280600381526020016203330360ec1b815250906139d75760405162461bcd60e51b81526004016101859190614950565b506000838152600260208181526040928390208351610180810185528154815260018201546001600160a01b0390811693820193909352928101548216838501526003810154821660608401526004808201546001600160801b03166080850152600582015460a0850152600682015460c0850152600782015464ffffffffff1660e085015260088201546101008501526009820154909216610120840152600a810154610140840152600b015460ff161515610160830152915163640d9a7760e11b815273__$5e6137a1b5a0a366e2874209b5abf71c10$__9263c81b34ee9261350192909101614cc8565b600081815260026020526040902054819015156040518060400160405280600381526020016203330360ec1b81525090613b115760405162461bcd60e51b81526004016101859190614950565b5060007f00000000000000000000000000000000000000000000000000000000000000006001600160a01b0316639a9dbb996040518163ffffffff1660e01b8152600401602060405180830381865afa158015613b72573d6000803e3d6000fd5b505050506040513d601f19601f82011682018060405250810190613b969190614e29565b90506001600160a01b038116632500f2b6336040516001600160e01b031960e084901b1681526001600160a01b039091166004820152602401602060405180830381865afa158015613bec573d6000803e3d6000fd5b505050506040513d601f19601f82011682018060405250810190613c109190615135565b6040518060400160405280600381526020016232303160e81b81525090613c4a5760405162461bcd60e51b81526004016101859190614950565b50600083815260026020908152604091829020600b01548251808401909352600383526233303360e81b9183019190915260ff1615613c9c5760405162461bcd60e51b81526004016101859190614950565b506000838152600260205260409020613cb490614741565b6040518381527f7d112c7767bf19c038f01732f5928c582a8f0de6fce5f2b0c70e9e4a91d3d39c906020016130c4565b6000805460ff1615613d085760405162461bcd60e51b815260040161018590614da4565b60026001541415613d2b5760405162461bcd60e51b815260040161018590614dce565b600260015586613d4981600090815260026020526040902054151590565b6040518060400160405280600381526020016203330360ec1b81525090613d835760405162461bcd60e51b81526004016101859190614950565b50613d8f888688614385565b613dca6040518060a001604052806000815260200160008152602001600081526020016000815260200160006001600160a01b031681525090565b613dd5898787612790565b8152613de08961060f565b602082015260408101889052600019881415613e15576020810151815110613e0c578060200151613e0f565b80515b60408201525b60408082015182518251808401909352600383526233333160e81b60208401521015613e545760405162461bcd60e51b81526004016101859190614950565b508060400151816020015110156040518060400160405280600381526020016233303160e81b81525090613e9b5760405162461bcd60e51b81526004016101859190614950565b507f00000000000000000000000000000000000000000000000000000000000000006001600160a01b03166335bc868a6040518163ffffffff1660e01b8152600401602060405180830381865afa158015613efa573d6000803e3d6000fd5b505050506040513d601f19601f82011682018060405250810190613f1e9190614e29565b6001600160a01b03908116608083015286166342842e0e3360808401516040516001600160e01b031960e085901b1681526001600160a01b0392831660048201529116602482015260448101889052606401600060405180830381600087803b158015613f8a57600080fd5b505af1158015613f9e573d6000803e3d6000fd5b50505060008a81526002602081815260408084208151610180810183528154815260018201546001600160a01b0390811694820194909452938101548316848301526003810154831660608501526004808201546001600160801b03166080860152600582015460a0860152600682015460c0860152600782015464ffffffffff1660e086015260088201546101008601526009820154909316610120850152600a810154610140850152600b015460ff16151561016084015285810151905163dfdafca360e01b815273__$5e6137a1b5a0a366e2874209b5abf71c10$__955063dfdafca3946140989493909283929091839101615167565b602060405180830381865af41580156140b5573d6000803e3d6000fd5b505050506040513d601f19601f820116820180604052508101906140d99190614e05565b81606001818152505060008082608001516001600160a01b03166370b4ebeb8c888b8b88604001518f8a606001516040518863ffffffff1660e01b8152600401614129979695949392919061519c565b6101e0604051808303816000875af1158015614149573d6000803e3d6000fd5b505050506040513d601f19601f8201168201806040525081019061416d91906151d8565b60008d81526002602052604090819020905163030b159d60e31b815292945090925073__$5e6137a1b5a0a366e2874209b5abf71c10$__91631858ace8916141b99185906004016153e1565b60006040518083038186803b1580156141d157600080fd5b505af41580156141e5573d6000803e3d6000fd5b5050505081866001600160a01b03168c7ff9a33434428db5f0416c03e38307599ad0b9b9965d6c070eb08e87cc1f0ca50e61421d3390565b6040516001600160a01b03909116815260200160405180910390a450600180559998505050505050505050565b6000816101600151156142b55760608201516020830151604080850151905163d4fac45d60e01b81526001600160a01b039283166004820152908216602482015291169063d4fac45d906044015b602060405180830381865afa158015610ad9573d6000803e3d6000fd5b602082015160408084015190516370a0823160e01b81526001600160a01b0391821660048201529116906370a0823190602401614298565b919050565b60005460ff1661433b5760405162461bcd60e51b815260206004820152601460248201527314185d5cd8589b194e881b9bdd081c185d5cd95960621b6044820152606401610185565b6000805460ff191690557f5db9ee0a495bf2e6ff9c91a7834c1ba4fdd244a5e8aa4e537bd38aeae4b073aa335b6040516001600160a01b03909116815260200160405180910390a1565b6040516346296c6960e01b8152600481018490526001600160a01b0383811660248301527f000000000000000000000000000000000000000000000000000000000000000016906346296c6990604401602060405180830381865afa1580156143f2573d6000803e3d6000fd5b505050506040513d601f19601f820116820180604052508101906144169190615135565b6040518060400160405280600381526020016219999960e91b815250906144505760405162461bcd60e51b81526004016101859190614950565b50604051639dce429960e01b8152600481018490526001600160a01b0383811660248301526000917f000000000000000000000000000000000000000000000000000000000000000090911690639dce429990604401600060405180830381865afa1580156144c3573d6000803e3d6000fd5b505050506040513d6000823e601f3d908101601f191682016040526144eb9190810190615309565b90508060800151821015801561450557508060a001518211155b6040518060400160405280600381526020016203333360ec1b8152509061453f5760405162461bcd60e51b81526004016101859190614950565b5050505050565b60005460ff16156145695760405162461bcd60e51b815260040161018590614da4565b6000805460ff191660011790557f62e78cea01bee320cd4e420270b5ea74000d11b0c9f74754ebdbfc544b05a2586143683390565b60008215806145ab575081155b156145b857506000610afd565b816145c660026127106153f6565b6145d290600019615150565b6145dc91906153f6565b8311156040518060400160405280600381526020016203130360ec1b815250906146195760405162461bcd60e51b81526004016101859190614950565b506127106146286002826153f6565b6146328486615418565b61463c9190614fc6565b61072091906153f6565b60028101546003820154600183015460405163d4fac45d60e01b81526001600160a01b0391821660048201529281166024840181905292600092919091169063d4fac45d90604401602060405180830381865afa1580156146ab573d6000803e3d6000fd5b505050506040513d601f19601f820116820180604052508101906146cf9190614e05565b604051627b8a6760e11b8152600481018290526001600160a01b0384166024820181905291925062f714ce90604401600060405180830381600087803b15801561471857600080fd5b505af115801561472c573d6000803e3d6000fd5b505050600b909301805460ff19169055505050565b600b8101805460ff1916600190811790915581015460028201546040516370a0823160e01b81526001600160a01b03918216600482015260009291909116906370a0823190602401602060405180830381865afa1580156147a6573d6000803e3d6000fd5b505050506040513d601f19601f820116820180604052508101906147ca9190614e05565b600283015460405163b6b55f2560e01b8152600481018390529192506001600160a01b03169063b6b55f2590602401600060405180830381600087803b15801561481357600080fd5b505af1158015614827573d6000803e3d6000fd5b505050505050565b6040518061014001604052806000815260200160008152602001600081526020016000815260200160008152602001600081526020016000815260200160008152602001600081526020016148ef604080516101c081018252600080825260208201819052918101829052606081018290526080810182905260a0810182905260c0810182905260e0810182905261010081018290526101208101829052610140810182905261016081018290526101808101829052906101a082015290565b905290565b60005b8381101561490f5781810151838201526020016148f7565b8381111561491e576000848401525b50505050565b6000815180845261493c8160208601602086016148f4565b601f01601f19169290920160200192915050565b6020815260006107206020830184614924565b60006020828403121561497557600080fd5b5035919050565b6001600160a01b038116811461125357600080fd5b6000806000606084860312156149a657600080fd5b833592506020840135915060408401356149bf8161497c565b809150509250925092565b600080600080608085870312156149e057600080fd5b8435935060208501359250604085013591506060850135614a008161497c565b939692955090935050565b60008060408385031215614a1e57600080fd5b50508035926020909101359150565b634e487b7160e01b600052604160045260246000fd5b6040516101c0810167ffffffffffffffff81118282101715614a6757614a67614a2d565b60405290565b604051610100810167ffffffffffffffff81118282101715614a6757614a67614a2d565b604051601f8201601f1916810167ffffffffffffffff81118282101715614aba57614aba614a2d565b604052919050565b600067ffffffffffffffff821115614adc57614adc614a2d565b50601f01601f191660200190565b600082601f830112614afb57600080fd5b8135614b0e614b0982614ac2565b614a91565b818152846020838601011115614b2357600080fd5b816020850160208301376000918101602001919091529392505050565b600080600060608486031215614b5557600080fd5b8335614b608161497c565b9250602084013567ffffffffffffffff80821115614b7d57600080fd5b614b8987838801614aea565b93506040860135915080821115614b9f57600080fd5b50614bac86828701614aea565b9150509250925092565b600080600060608486031215614bcb57600080fd5b833592506020840135614bdd8161497c565b929592945050506040919091013590565b805182526020810151614c0c60208401826001600160a01b03169052565b506040810151614c2760408401826001600160a01b03169052565b506060810151614c4260608401826001600160a01b03169052565b506080810151614c5d60808401826001600160801b03169052565b5060a081015160a083015260c081015160c083015260e0810151614c8a60e084018264ffffffffff169052565b506101008181015190830152610120808201516001600160a01b0316908301526101408082015190830152610160808201518015158285015261491e565b6101808101610afd8284614bee565b60008060408385031215614cea57600080fd5b823591506020830135614cfc8161497c565b809150509250929050565b60008060008060808587031215614d1d57600080fd5b84359350602085013592506040850135614d368161497c565b9396929550929360600135925050565b60008060008060008060c08789031215614d5f57600080fd5b8635955060208701359450604087013593506060870135614d7f8161497c565b92506080870135915060a0870135614d968161497c565b809150509295509295509295565b60208082526010908201526f14185d5cd8589b194e881c185d5cd95960821b604082015260600190565b6020808252601f908201527f5265656e7472616e637947756172643a207265656e7472616e742063616c6c00604082015260600190565b600060208284031215614e1757600080fd5b5051919050565b80516142ed8161497c565b600060208284031215614e3b57600080fd5b81516107208161497c565b80516001600160801b03811681146142ed57600080fd5b805164ffffffffff811681146142ed57600080fd5b8051600681106142ed57600080fd5b60006101c08284031215614e9457600080fd5b614e9c614a43565b905081518152614eae60208301614e1e565b602082015260408201516040820152614ec960608301614e1e565b606082015260808201516080820152614ee460a08301614e46565b60a0820152614ef560c08301614e46565b60c0820152614f0660e08301614e5d565b60e0820152610100614f19818401614e5d565b90820152610120614f2b838201614e5d565b90820152610140614f3d838201614e5d565b90820152610160614f4f838201614e5d565b90820152610180614f61838201614e5d565b908201526101a0614f73838201614e72565b9082015292915050565b60006101c08284031215614f9057600080fd5b6107208383614e81565b634e487b7160e01b600052602160045260246000fd5b634e487b7160e01b600052601160045260246000fd5b60008219821115614fd957614fd9614fb0565b500190565b60068110614ffc57634e487b7160e01b600052602160045260246000fd5b9052565b80518252602081015161501e60208401826001600160a01b03169052565b5060408101516040830152606081015161504360608401826001600160a01b03169052565b506080810151608083015260a081015161506860a08401826001600160801b03169052565b5060c081015161508360c08401826001600160801b03169052565b5060e081015161509c60e084018264ffffffffff169052565b506101008181015164ffffffffff9081169184019190915261012080830151821690840152610140808301518216908401526101608083015182169084015261018080830151909116908301526101a08082015161491e82850182614fde565b84815261022081016151116020830186615000565b6101e0820193909352610200015292915050565b805180151581146142ed57600080fd5b60006020828403121561514757600080fd5b61072082615125565b60008282101561516257615162614fb0565b500390565b61020081016151768288614bee565b85610180830152846101a0830152836101c0830152826101e08301529695505050505050565b9687526001600160a01b0395861660208801529390941660408601526060850191909152608084015260a083019190915260c082015260e00190565b6000806101e083850312156151ec57600080fd5b825191506151fd8460208501614e81565b90509250929050565b878152610420810161521b6020830189615000565b6152296101e0830188615000565b856103a0830152846103c0830152836103e08301528261040083015298975050505050505050565b84815260806020820152600061526a6080830186614924565b828103604084015261527c8186614924565b91505060018060a01b038316606083015295945050505050565b6040815260006152a96040830185614924565b82810360208401526152bb8185614924565b95945050505050565b600082601f8301126152d557600080fd5b81516152e3614b0982614ac2565b8181528460208386010111156152f857600080fd5b6129328260208301602087016148f4565b60006020828403121561531b57600080fd5b815167ffffffffffffffff8082111561533357600080fd5b90830190610100828603121561534857600080fd5b615350614a6d565b61535983615125565b815260208301518281111561536d57600080fd5b615379878286016152c4565b60208301525060408301518281111561539157600080fd5b61539d878286016152c4565b604083015250606083015160608201526080830151608082015260a083015160a082015260c083015160c082015260e083015160e082015280935050505092915050565b8281526101e081016107206020830184615000565b60008261541357634e487b7160e01b600052601260045260246000fd5b500490565b600081600019048311821515161561543257615432614fb0565b50029056fea2646970667358221220a5cbaf181dcde24ae502ac7a31ba2eac229ce02321e85d6f3e2263ff0f44573b64736f6c634300080a0033",
  "libraries": {
    "Errors": "0xc29b145828e86fc86339c3674026EF4c31098843",
    "MathUtils": "0x9574f7087a2d87eB270D63214DE3562E4698aD19",
    "PercentageMath": "0x9Ac06e13c5f1521B9f2D4cb66Bca18dF7665d88b",
    "DataTypes": "0x5ba0EcD962fd1dD0cc83B6002808BAabd0eA21F4",
    "ReserveLogic": "0xb61CF55d6D2870143DBaC50319A39a8b676d8fA6"
  },
  "devdoc": {
    "author": "OpenSky Labs",
    "kind": "dev",
    "methods": {
      "borrow(uint256,uint256,uint256,address,uint256,address)": {
        "details": "Borrows ETH from reserve using an NFT as collateral and will receive a loan NFT as receipt.",
        "params": {
          "amount": "amount of ETH user will borrow",
          "duration": "The desired duration of the loan",
          "nftAddress": "The collateral NFT address",
          "onBehalfOf": "address of the user who will receive ETH and loan NFT.*",
          "reserveId": "The ID of the reserve",
          "tokenId": "The ID of the NFT"
        }
      },
      "closeMoneyMarket(uint256)": {
        "details": "Only callable by the emergency admin role",
        "params": {
          "reserveId": "The ID of the reserve*"
        }
      },
      "create(address,string,string)": {
        "details": "Only callable by the pool admin role",
        "params": {
          "name": "The name of the oToken",
          "symbol": "The symbol for the oToken*",
          "underlyingAsset": "The address of the underlying asset"
        }
      },
      "deposit(uint256,uint256,address,uint256)": {
        "details": "Deposits ETH into the reserve.",
        "params": {
          "referralCode": "integrators are assigned a referral code and can potentially receive rewards*",
          "reserveId": "The ID of the reserve"
        }
      },
      "endLiquidation(uint256,uint256)": {
        "details": "Completes liquidation for a loan which will be repaid.",
        "params": {
          "amount": "The amount of the token that will be repaid.",
          "loanId": "The ID of the liquidated loan that will be repaid."
        }
      },
      "extend(uint256,uint256,uint256,address)": {
        "details": "Extends creates a new loan and terminates the old loan.",
        "params": {
          "amount": "The amount of ERC20 token the user will borrow in the new loan",
          "duration": "The selected duration the user will borrow in the new loan",
          "loanId": "The loan ID to extend",
          "onBehalfOf": "The address will borrow in the new loan*"
        }
      },
      "getAvailableLiquidity(uint256)": {
        "details": "Returns the remaining liquidity of the reserve",
        "params": {
          "reserveId": "The ID of the reserve"
        },
        "returns": {
          "_0": "The reserve's withdrawable balance"
        }
      },
      "getBorrowLimitByOracle(uint256,address,uint256)": {
        "details": "Returns the instantaneous borrow limit value of a special NFT",
        "params": {
          "nftAddress": "The address of the NFT",
          "tokenId": "The ID of the NFT"
        },
        "returns": {
          "_0": "The NFT's borrow limit"
        }
      },
      "getReserveData(uint256)": {
        "details": "Returns the state of the reserve",
        "params": {
          "reserveId": "The ID of the reserve"
        },
        "returns": {
          "_0": "The state of the reserve*"
        }
      },
      "getReserveNormalizedIncome(uint256)": {
        "details": "Returns the normalized income of the reserve",
        "params": {
          "reserveId": "The ID of the reserve"
        },
        "returns": {
          "_0": "The reserve's normalized income"
        }
      },
      "getTVL(uint256)": {
        "details": "Returns TVL (total value locked) of the reserve.",
        "params": {
          "reserveId": "The ID of the reserve"
        },
        "returns": {
          "_0": "The reserve's TVL"
        }
      },
      "getTotalBorrowBalance(uint256)": {
        "details": "Returns the sum of all users borrow balances include borrow interest accrued",
        "params": {
          "reserveId": "The ID of the reserve"
        },
        "returns": {
          "_0": "The total borrow balance of the reserve"
        }
      },
      "openMoneyMarket(uint256)": {
        "details": "Only callable by the emergency admin role",
        "params": {
          "reserveId": "The ID of the reserve*"
        }
      },
      "pause()": {
        "details": "Pause pool for emergency case, can only be called by emergency admin.*"
      },
      "paused()": {
        "details": "Returns true if the contract is paused, and false otherwise."
      },
      "repay(uint256)": {
        "details": "Repays a loan, as a result the corresponding loan NFT owner will receive the collateralized NFT.",
        "params": {
          "loanId": "The ID of the loan the user will repay"
        }
      },
      "setInterestModelAddress(uint256,address)": {
        "details": "Only callable by the pool admin role",
        "params": {
          "interestModelAddress": "The new address of the interest model contract*",
          "reserveId": "The ID of the reserve"
        }
      },
      "setTreasuryFactor(uint256,uint256)": {
        "details": "Only callable by the pool admin role",
        "params": {
          "factor": "The new treasury factor of the reserve*",
          "reserveId": "The ID of the reserve"
        }
      },
      "startLiquidation(uint256)": {
        "details": "Starts liquidation for a loan when it's in LIQUIDATABLE status",
        "params": {
          "loanId": "The ID of the loan which will be liquidated"
        }
      },
      "unpause()": {
        "details": "Unpause pool for emergency case, can only be called by emergency admin.*"
      },
      "withdraw(uint256,uint256,address)": {
        "details": "withdraws the ETH from reserve.",
        "params": {
          "amount": "amount of oETH to withdraw and receive native ETH*",
          "reserveId": "The ID of the reserve"
        }
      }
    },
    "title": "OpenSkyPool contract",
    "version": 1
  },
  "userdoc": {
    "kind": "user",
    "methods": {
      "closeMoneyMarket(uint256)": {
        "notice": "Close the money market"
      },
      "create(address,string,string)": {
        "notice": "Creates a reserve"
      },
      "openMoneyMarket(uint256)": {
        "notice": "Open the money market"
      },
      "setInterestModelAddress(uint256,address)": {
        "notice": "Updates the interest model address of a reserve"
      },
      "setTreasuryFactor(uint256,uint256)": {
        "notice": "Updates the treasury factor of a reserve"
      }
    },
    "notice": "Main point of interaction with OpenSky protocol's pool - Users can:   # Deposit   # Withdraw*",
    "version": 1
  },
  "storageLayout": {
    "storage": [
      {
        "astId": 1294,
        "contract": "contracts/OpenSkyPool.sol:OpenSkyPool",
        "label": "_paused",
        "offset": 0,
        "slot": "0",
        "type": "t_bool"
      },
      {
        "astId": 1379,
        "contract": "contracts/OpenSkyPool.sol:OpenSkyPool",
        "label": "_status",
        "offset": 0,
        "slot": "1",
        "type": "t_uint256"
      },
      {
        "astId": 11020,
        "contract": "contracts/OpenSkyPool.sol:OpenSkyPool",
        "label": "reserves",
        "offset": 0,
        "slot": "2",
        "type": "t_mapping(t_uint256,t_struct(ReserveData)21732_storage)"
      },
      {
        "astId": 11026,
        "contract": "contracts/OpenSkyPool.sol:OpenSkyPool",
        "label": "_reserveIdTracker",
        "offset": 0,
        "slot": "3",
        "type": "t_struct(Counter)6236_storage"
      }
    ],
    "types": {
      "t_address": {
        "encoding": "inplace",
        "label": "address",
        "numberOfBytes": "20"
      },
      "t_bool": {
        "encoding": "inplace",
        "label": "bool",
        "numberOfBytes": "1"
      },
      "t_mapping(t_uint256,t_struct(ReserveData)21732_storage)": {
        "encoding": "mapping",
        "key": "t_uint256",
        "label": "mapping(uint256 => struct DataTypes.ReserveData)",
        "numberOfBytes": "32",
        "value": "t_struct(ReserveData)21732_storage"
      },
      "t_struct(Counter)6236_storage": {
        "encoding": "inplace",
        "label": "struct Counters.Counter",
        "members": [
          {
            "astId": 6235,
            "contract": "contracts/OpenSkyPool.sol:OpenSkyPool",
            "label": "_value",
            "offset": 0,
            "slot": "0",
            "type": "t_uint256"
          }
        ],
        "numberOfBytes": "32"
      },
      "t_struct(ReserveData)21732_storage": {
        "encoding": "inplace",
        "label": "struct DataTypes.ReserveData",
        "members": [
          {
            "astId": 21709,
            "contract": "contracts/OpenSkyPool.sol:OpenSkyPool",
            "label": "reserveId",
            "offset": 0,
            "slot": "0",
            "type": "t_uint256"
          },
          {
            "astId": 21711,
            "contract": "contracts/OpenSkyPool.sol:OpenSkyPool",
            "label": "underlyingAsset",
            "offset": 0,
            "slot": "1",
            "type": "t_address"
          },
          {
            "astId": 21713,
            "contract": "contracts/OpenSkyPool.sol:OpenSkyPool",
            "label": "oTokenAddress",
            "offset": 0,
            "slot": "2",
            "type": "t_address"
          },
          {
            "astId": 21715,
            "contract": "contracts/OpenSkyPool.sol:OpenSkyPool",
            "label": "moneyMarketAddress",
            "offset": 0,
            "slot": "3",
            "type": "t_address"
          },
          {
            "astId": 21717,
            "contract": "contracts/OpenSkyPool.sol:OpenSkyPool",
            "label": "lastSupplyIndex",
            "offset": 0,
            "slot": "4",
            "type": "t_uint128"
          },
          {
            "astId": 21719,
            "contract": "contracts/OpenSkyPool.sol:OpenSkyPool",
            "label": "borrowingInterestPerSecond",
            "offset": 0,
            "slot": "5",
            "type": "t_uint256"
          },
          {
            "astId": 21721,
            "contract": "contracts/OpenSkyPool.sol:OpenSkyPool",
            "label": "lastMoneyMarketBalance",
            "offset": 0,
            "slot": "6",
            "type": "t_uint256"
          },
          {
            "astId": 21723,
            "contract": "contracts/OpenSkyPool.sol:OpenSkyPool",
            "label": "lastUpdateTimestamp",
            "offset": 0,
            "slot": "7",
            "type": "t_uint40"
          },
          {
            "astId": 21725,
            "contract": "contracts/OpenSkyPool.sol:OpenSkyPool",
            "label": "totalBorrows",
            "offset": 0,
            "slot": "8",
            "type": "t_uint256"
          },
          {
            "astId": 21727,
            "contract": "contracts/OpenSkyPool.sol:OpenSkyPool",
            "label": "interestModelAddress",
            "offset": 0,
            "slot": "9",
            "type": "t_address"
          },
          {
            "astId": 21729,
            "contract": "contracts/OpenSkyPool.sol:OpenSkyPool",
            "label": "treasuryFactor",
            "offset": 0,
            "slot": "10",
            "type": "t_uint256"
          },
          {
            "astId": 21731,
            "contract": "contracts/OpenSkyPool.sol:OpenSkyPool",
            "label": "isMoneyMarketOn",
            "offset": 0,
            "slot": "11",
            "type": "t_bool"
          }
        ],
        "numberOfBytes": "384"
      },
      "t_uint128": {
        "encoding": "inplace",
        "label": "uint128",
        "numberOfBytes": "16"
      },
      "t_uint256": {
        "encoding": "inplace",
        "label": "uint256",
        "numberOfBytes": "32"
      },
      "t_uint40": {
        "encoding": "inplace",
        "label": "uint40",
        "numberOfBytes": "5"
      }
    }
  }
}