{
  "address": "0x44692709AB4979aC917b55F6608b782bd5Ef7Bc8",
  "abi": [
    {
      "inputs": [
        {
          "internalType": "address",
          "name": "_ACLManagerAddress",
          "type": "address"
        }
      ],
      "stateMutability": "nonpayable",
      "type": "constructor"
    },
    {
      "anonymous": false,
      "inputs": [
        {
          "indexed": false,
          "internalType": "address",
          "name": "operator",
          "type": "address"
        },
        {
          "indexed": false,
          "internalType": "address",
          "name": "address_",
          "type": "address"
        }
      ],
      "name": "AddLiquidator",
      "type": "event"
    },
    {
      "anonymous": false,
      "inputs": [
        {
          "indexed": false,
          "internalType": "address",
          "name": "operator",
          "type": "address"
        },
        {
          "indexed": false,
          "internalType": "uint256",
          "name": "reserveId",
          "type": "uint256"
        },
        {
          "indexed": false,
          "internalType": "address",
          "name": "nft",
          "type": "address"
        }
      ],
      "name": "AddToWhitelist",
      "type": "event"
    },
    {
      "anonymous": false,
      "inputs": [
        {
          "indexed": false,
          "internalType": "address",
          "name": "operator",
          "type": "address"
        },
        {
          "indexed": false,
          "internalType": "address",
          "name": "address_",
          "type": "address"
        }
      ],
      "name": "InitDaoVaultAddress",
      "type": "event"
    },
    {
      "anonymous": false,
      "inputs": [
        {
          "indexed": false,
          "internalType": "address",
          "name": "operator",
          "type": "address"
        },
        {
          "indexed": false,
          "internalType": "address",
          "name": "address_",
          "type": "address"
        }
      ],
      "name": "InitIncentiveControllerAddress",
      "type": "event"
    },
    {
      "anonymous": false,
      "inputs": [
        {
          "indexed": false,
          "internalType": "address",
          "name": "operator",
          "type": "address"
        },
        {
          "indexed": false,
          "internalType": "address",
          "name": "address_",
          "type": "address"
        }
      ],
      "name": "InitLoanAddress",
      "type": "event"
    },
    {
      "anonymous": false,
      "inputs": [
        {
          "indexed": false,
          "internalType": "address",
          "name": "operator",
          "type": "address"
        },
        {
          "indexed": false,
          "internalType": "address",
          "name": "address_",
          "type": "address"
        }
      ],
      "name": "InitPoolAddress",
      "type": "event"
    },
    {
      "anonymous": false,
      "inputs": [
        {
          "indexed": false,
          "internalType": "address",
          "name": "operator",
          "type": "address"
        },
        {
          "indexed": false,
          "internalType": "address",
          "name": "address_",
          "type": "address"
        }
      ],
      "name": "InitPunkGatewayAddress",
      "type": "event"
    },
    {
      "anonymous": false,
      "inputs": [
        {
          "indexed": false,
          "internalType": "address",
          "name": "operator",
          "type": "address"
        },
        {
          "indexed": false,
          "internalType": "address",
          "name": "address_",
          "type": "address"
        }
      ],
      "name": "InitVaultFactoryAddress",
      "type": "event"
    },
    {
      "anonymous": false,
      "inputs": [
        {
          "indexed": false,
          "internalType": "address",
          "name": "operator",
          "type": "address"
        },
        {
          "indexed": false,
          "internalType": "address",
          "name": "address_",
          "type": "address"
        }
      ],
      "name": "InitWETHGatewayAddress",
      "type": "event"
    },
    {
      "anonymous": false,
      "inputs": [
        {
          "indexed": true,
          "internalType": "address",
          "name": "previousOwner",
          "type": "address"
        },
        {
          "indexed": true,
          "internalType": "address",
          "name": "newOwner",
          "type": "address"
        }
      ],
      "name": "OwnershipTransferred",
      "type": "event"
    },
    {
      "anonymous": false,
      "inputs": [
        {
          "indexed": false,
          "internalType": "address",
          "name": "operator",
          "type": "address"
        },
        {
          "indexed": false,
          "internalType": "uint256",
          "name": "reserveId",
          "type": "uint256"
        },
        {
          "indexed": false,
          "internalType": "address",
          "name": "nft",
          "type": "address"
        }
      ],
      "name": "RemoveFromWhitelist",
      "type": "event"
    },
    {
      "anonymous": false,
      "inputs": [
        {
          "indexed": false,
          "internalType": "address",
          "name": "operator",
          "type": "address"
        },
        {
          "indexed": false,
          "internalType": "address",
          "name": "address_",
          "type": "address"
        }
      ],
      "name": "RemoveLiquidator",
      "type": "event"
    },
    {
      "anonymous": false,
      "inputs": [
        {
          "indexed": false,
          "internalType": "address",
          "name": "operator",
          "type": "address"
        },
        {
          "indexed": false,
          "internalType": "address",
          "name": "address_",
          "type": "address"
        }
      ],
      "name": "SetACLManagerAddress",
      "type": "event"
    },
    {
      "anonymous": false,
      "inputs": [
        {
          "indexed": false,
          "internalType": "address",
          "name": "operator",
          "type": "address"
        },
        {
          "indexed": false,
          "internalType": "address",
          "name": "address_",
          "type": "address"
        }
      ],
      "name": "SetInterestRateStrategyAddress",
      "type": "event"
    },
    {
      "anonymous": false,
      "inputs": [
        {
          "indexed": false,
          "internalType": "address",
          "name": "operator",
          "type": "address"
        },
        {
          "indexed": false,
          "internalType": "address",
          "name": "address_",
          "type": "address"
        }
      ],
      "name": "SetLoanDescriptorAddress",
      "type": "event"
    },
    {
      "anonymous": false,
      "inputs": [
        {
          "indexed": false,
          "internalType": "address",
          "name": "operator",
          "type": "address"
        },
        {
          "indexed": false,
          "internalType": "address",
          "name": "address_",
          "type": "address"
        }
      ],
      "name": "SetMoneyMarketAddress",
      "type": "event"
    },
    {
      "anonymous": false,
      "inputs": [
        {
          "indexed": false,
          "internalType": "address",
          "name": "operator",
          "type": "address"
        },
        {
          "indexed": false,
          "internalType": "address",
          "name": "address_",
          "type": "address"
        }
      ],
      "name": "SetNftPriceOracleAddress",
      "type": "event"
    },
    {
      "anonymous": false,
      "inputs": [
        {
          "indexed": false,
          "internalType": "address",
          "name": "operator",
          "type": "address"
        },
        {
          "indexed": false,
          "internalType": "uint256",
          "name": "factor",
          "type": "uint256"
        }
      ],
      "name": "SetOverdueLoanFeeFactor",
      "type": "event"
    },
    {
      "anonymous": false,
      "inputs": [
        {
          "indexed": false,
          "internalType": "address",
          "name": "operator",
          "type": "address"
        },
        {
          "indexed": false,
          "internalType": "uint256",
          "name": "factor",
          "type": "uint256"
        }
      ],
      "name": "SetPrepaymentFeeFactor",
      "type": "event"
    },
    {
      "anonymous": false,
      "inputs": [
        {
          "indexed": false,
          "internalType": "address",
          "name": "operator",
          "type": "address"
        },
        {
          "indexed": false,
          "internalType": "uint256",
          "name": "factor",
          "type": "uint256"
        }
      ],
      "name": "SetReserveFactor",
      "type": "event"
    },
    {
      "anonymous": false,
      "inputs": [
        {
          "indexed": false,
          "internalType": "address",
          "name": "operator",
          "type": "address"
        },
        {
          "indexed": false,
          "internalType": "address",
          "name": "address_",
          "type": "address"
        }
      ],
      "name": "SetTreasuryAddress",
      "type": "event"
    },
    {
      "inputs": [],
      "name": "ACLManagerAddress",
      "outputs": [
        {
          "internalType": "address",
          "name": "",
          "type": "address"
        }
      ],
      "stateMutability": "view",
      "type": "function"
    },
    {
      "inputs": [],
      "name": "MAX_RESERVE_FACTOR",
      "outputs": [
        {
          "internalType": "uint256",
          "name": "",
          "type": "uint256"
        }
      ],
      "stateMutability": "view",
      "type": "function"
    },
    {
      "inputs": [
        {
          "internalType": "address",
          "name": "address_",
          "type": "address"
        }
      ],
      "name": "addLiquidator",
      "outputs": [],
      "stateMutability": "nonpayable",
      "type": "function"
    },
    {
      "inputs": [
        {
          "internalType": "uint256",
          "name": "reserveId",
          "type": "uint256"
        },
        {
          "internalType": "address",
          "name": "nft",
          "type": "address"
        },
        {
          "internalType": "string",
          "name": "name",
          "type": "string"
        },
        {
          "internalType": "string",
          "name": "symbol",
          "type": "string"
        },
        {
          "internalType": "uint256",
          "name": "LTV",
          "type": "uint256"
        },
        {
          "internalType": "uint256",
          "name": "minBorrowDuration",
          "type": "uint256"
        },
        {
          "internalType": "uint256",
          "name": "maxBorrowDuration",
          "type": "uint256"
        },
        {
          "internalType": "uint256",
          "name": "extendableDuration",
          "type": "uint256"
        },
        {
          "internalType": "uint256",
          "name": "overdueDuration",
          "type": "uint256"
        }
      ],
      "name": "addToWhitelist",
      "outputs": [],
      "stateMutability": "nonpayable",
      "type": "function"
    },
    {
      "inputs": [],
      "name": "daoVaultAddress",
      "outputs": [
        {
          "internalType": "address",
          "name": "",
          "type": "address"
        }
      ],
      "stateMutability": "view",
      "type": "function"
    },
    {
      "inputs": [
        {
          "internalType": "uint256",
          "name": "reserveId",
          "type": "uint256"
        },
        {
          "internalType": "address",
          "name": "nft",
          "type": "address"
        }
      ],
      "name": "getWhitelistDetail",
      "outputs": [
        {
          "components": [
            {
              "internalType": "bool",
              "name": "enabled",
              "type": "bool"
            },
            {
              "internalType": "string",
              "name": "name",
              "type": "string"
            },
            {
              "internalType": "string",
              "name": "symbol",
              "type": "string"
            },
            {
              "internalType": "uint256",
              "name": "LTV",
              "type": "uint256"
            },
            {
              "internalType": "uint256",
              "name": "minBorrowDuration",
              "type": "uint256"
            },
            {
              "internalType": "uint256",
              "name": "maxBorrowDuration",
              "type": "uint256"
            },
            {
              "internalType": "uint256",
              "name": "extendableDuration",
              "type": "uint256"
            },
            {
              "internalType": "uint256",
              "name": "overdueDuration",
              "type": "uint256"
            }
          ],
          "internalType": "struct DataTypes.WhitelistInfo",
          "name": "",
          "type": "tuple"
        }
      ],
      "stateMutability": "view",
      "type": "function"
    },
    {
      "inputs": [
        {
          "internalType": "uint256",
          "name": "reserveId",
          "type": "uint256"
        },
        {
          "internalType": "address",
          "name": "nft",
          "type": "address"
        }
      ],
      "name": "inWhitelist",
      "outputs": [
        {
          "internalType": "bool",
          "name": "",
          "type": "bool"
        }
      ],
      "stateMutability": "view",
      "type": "function"
    },
    {
      "inputs": [],
      "name": "incentiveControllerAddress",
      "outputs": [
        {
          "internalType": "address",
          "name": "",
          "type": "address"
        }
      ],
      "stateMutability": "view",
      "type": "function"
    },
    {
      "inputs": [
        {
          "internalType": "address",
          "name": "address_",
          "type": "address"
        }
      ],
      "name": "initDaoVaultAddress",
      "outputs": [],
      "stateMutability": "nonpayable",
      "type": "function"
    },
    {
      "inputs": [
        {
          "internalType": "address",
          "name": "address_",
          "type": "address"
        }
      ],
      "name": "initIncentiveControllerAddress",
      "outputs": [],
      "stateMutability": "nonpayable",
      "type": "function"
    },
    {
      "inputs": [
        {
          "internalType": "address",
          "name": "address_",
          "type": "address"
        }
      ],
      "name": "initLoanAddress",
      "outputs": [],
      "stateMutability": "nonpayable",
      "type": "function"
    },
    {
      "inputs": [
        {
          "internalType": "address",
          "name": "address_",
          "type": "address"
        }
      ],
      "name": "initPoolAddress",
      "outputs": [],
      "stateMutability": "nonpayable",
      "type": "function"
    },
    {
      "inputs": [
        {
          "internalType": "address",
          "name": "address_",
          "type": "address"
        }
      ],
      "name": "initPunkGatewayAddress",
      "outputs": [],
      "stateMutability": "nonpayable",
      "type": "function"
    },
    {
      "inputs": [
        {
          "internalType": "address",
          "name": "address_",
          "type": "address"
        }
      ],
      "name": "initVaultFactoryAddress",
      "outputs": [],
      "stateMutability": "nonpayable",
      "type": "function"
    },
    {
      "inputs": [
        {
          "internalType": "address",
          "name": "address_",
          "type": "address"
        }
      ],
      "name": "initWETHGatewayAddress",
      "outputs": [],
      "stateMutability": "nonpayable",
      "type": "function"
    },
    {
      "inputs": [],
      "name": "interestRateStrategyAddress",
      "outputs": [
        {
          "internalType": "address",
          "name": "",
          "type": "address"
        }
      ],
      "stateMutability": "view",
      "type": "function"
    },
    {
      "inputs": [
        {
          "internalType": "address",
          "name": "address_",
          "type": "address"
        }
      ],
      "name": "isLiquidator",
      "outputs": [
        {
          "internalType": "bool",
          "name": "",
          "type": "bool"
        }
      ],
      "stateMutability": "view",
      "type": "function"
    },
    {
      "inputs": [],
      "name": "loanAddress",
      "outputs": [
        {
          "internalType": "address",
          "name": "",
          "type": "address"
        }
      ],
      "stateMutability": "view",
      "type": "function"
    },
    {
      "inputs": [],
      "name": "loanDescriptorAddress",
      "outputs": [
        {
          "internalType": "address",
          "name": "",
          "type": "address"
        }
      ],
      "stateMutability": "view",
      "type": "function"
    },
    {
      "inputs": [],
      "name": "moneyMarketAddress",
      "outputs": [
        {
          "internalType": "address",
          "name": "",
          "type": "address"
        }
      ],
      "stateMutability": "view",
      "type": "function"
    },
    {
      "inputs": [],
      "name": "nftPriceOracleAddress",
      "outputs": [
        {
          "internalType": "address",
          "name": "",
          "type": "address"
        }
      ],
      "stateMutability": "view",
      "type": "function"
    },
    {
      "inputs": [],
      "name": "overdueLoanFeeFactor",
      "outputs": [
        {
          "internalType": "uint256",
          "name": "",
          "type": "uint256"
        }
      ],
      "stateMutability": "view",
      "type": "function"
    },
    {
      "inputs": [],
      "name": "owner",
      "outputs": [
        {
          "internalType": "address",
          "name": "",
          "type": "address"
        }
      ],
      "stateMutability": "view",
      "type": "function"
    },
    {
      "inputs": [],
      "name": "poolAddress",
      "outputs": [
        {
          "internalType": "address",
          "name": "",
          "type": "address"
        }
      ],
      "stateMutability": "view",
      "type": "function"
    },
    {
      "inputs": [],
      "name": "prepaymentFeeFactor",
      "outputs": [
        {
          "internalType": "uint256",
          "name": "",
          "type": "uint256"
        }
      ],
      "stateMutability": "view",
      "type": "function"
    },
    {
      "inputs": [],
      "name": "punkGatewayAddress",
      "outputs": [
        {
          "internalType": "address",
          "name": "",
          "type": "address"
        }
      ],
      "stateMutability": "view",
      "type": "function"
    },
    {
      "inputs": [
        {
          "internalType": "uint256",
          "name": "reserveId",
          "type": "uint256"
        },
        {
          "internalType": "address",
          "name": "nft",
          "type": "address"
        }
      ],
      "name": "removeFromWhitelist",
      "outputs": [],
      "stateMutability": "nonpayable",
      "type": "function"
    },
    {
      "inputs": [
        {
          "internalType": "address",
          "name": "address_",
          "type": "address"
        }
      ],
      "name": "removeLiquidator",
      "outputs": [],
      "stateMutability": "nonpayable",
      "type": "function"
    },
    {
      "inputs": [],
      "name": "renounceOwnership",
      "outputs": [],
      "stateMutability": "nonpayable",
      "type": "function"
    },
    {
      "inputs": [],
      "name": "reserveFactor",
      "outputs": [
        {
          "internalType": "uint256",
          "name": "",
          "type": "uint256"
        }
      ],
      "stateMutability": "view",
      "type": "function"
    },
    {
      "inputs": [
        {
          "internalType": "address",
          "name": "address_",
          "type": "address"
        }
      ],
      "name": "setInterestRateStrategyAddress",
      "outputs": [],
      "stateMutability": "nonpayable",
      "type": "function"
    },
    {
      "inputs": [
        {
          "internalType": "address",
          "name": "address_",
          "type": "address"
        }
      ],
      "name": "setLoanDescriptorAddress",
      "outputs": [],
      "stateMutability": "nonpayable",
      "type": "function"
    },
    {
      "inputs": [
        {
          "internalType": "address",
          "name": "address_",
          "type": "address"
        }
      ],
      "name": "setMoneyMarketAddress",
      "outputs": [],
      "stateMutability": "nonpayable",
      "type": "function"
    },
    {
      "inputs": [
        {
          "internalType": "address",
          "name": "address_",
          "type": "address"
        }
      ],
      "name": "setNftPriceOracleAddress",
      "outputs": [],
      "stateMutability": "nonpayable",
      "type": "function"
    },
    {
      "inputs": [
        {
          "internalType": "uint256",
          "name": "factor",
          "type": "uint256"
        }
      ],
      "name": "setOverdueLoanFeeFactor",
      "outputs": [],
      "stateMutability": "nonpayable",
      "type": "function"
    },
    {
      "inputs": [
        {
          "internalType": "uint256",
          "name": "factor",
          "type": "uint256"
        }
      ],
      "name": "setPrepaymentFeeFactor",
      "outputs": [],
      "stateMutability": "nonpayable",
      "type": "function"
    },
    {
      "inputs": [
        {
          "internalType": "uint256",
          "name": "factor",
          "type": "uint256"
        }
      ],
      "name": "setReserveFactor",
      "outputs": [],
      "stateMutability": "nonpayable",
      "type": "function"
    },
    {
      "inputs": [
        {
          "internalType": "address",
          "name": "address_",
          "type": "address"
        }
      ],
      "name": "setTreasuryAddress",
      "outputs": [],
      "stateMutability": "nonpayable",
      "type": "function"
    },
    {
      "inputs": [
        {
          "internalType": "address",
          "name": "newOwner",
          "type": "address"
        }
      ],
      "name": "transferOwnership",
      "outputs": [],
      "stateMutability": "nonpayable",
      "type": "function"
    },
    {
      "inputs": [],
      "name": "treasuryAddress",
      "outputs": [
        {
          "internalType": "address",
          "name": "",
          "type": "address"
        }
      ],
      "stateMutability": "view",
      "type": "function"
    },
    {
      "inputs": [],
      "name": "vaultFactoryAddress",
      "outputs": [
        {
          "internalType": "address",
          "name": "",
          "type": "address"
        }
      ],
      "stateMutability": "view",
      "type": "function"
    },
    {
      "inputs": [],
      "name": "wethGatewayAddress",
      "outputs": [
        {
          "internalType": "address",
          "name": "",
          "type": "address"
        }
      ],
      "stateMutability": "view",
      "type": "function"
    }
  ],
  "transactionHash": "0xbb2eead7f096e53e15c5fbd58bec33962a72cd8a638cbf8382d4cab292505313",
  "args": [
    "0x82c5f6cf9DC400e75DDCbAD2e4092054264238d4"
  ],
  "solcInputHash": "fb80df0c083f4166f8e17cc8f4ebb48d",
  "bytecode": "0x60a06040526107d0600f55600060105560646011553480156200002157600080fd5b5060405162002716380380620027168339810160408190526200004491620000b1565b6200004f3362000061565b6001600160a01b0316608052620000e3565b600080546001600160a01b038381166001600160a01b0319831681178455604051919092169283917f8be0079c531659141344cd1fd0a4f28419497f9722a3daafe3b4186f6b6457e09190a35050565b600060208284031215620000c457600080fd5b81516001600160a01b0381168114620000dc57600080fd5b9392505050565b6080516125c362000153600039600081816104bb015281816105eb0152818161084b015281816109da01528181610c3f01528181610da20152818161103d015281816111a0015281816114460152818161193701528181611a9a01528181611dad0152611fd101526125c36000f3fe608060405234801561001057600080fd5b506004361061025e5760003560e01c80638da5cb5b11610146578063ce87179f116100c3578063e17b740411610087578063e17b740414610577578063e8c3400b1461058a578063efb744001461059d578063efe3e3e3146105b0578063f2fde38b146105c3578063fea3e613146105d657600080fd5b8063ce87179f14610536578063d0cf1f781461053f578063d23a65cf14610552578063d633590a1461055b578063d7a5a9d31461056e57600080fd5b80639a9dbb991161010a5780639a9dbb99146104b65780639dce4299146104dd578063ab9b6da5146104fd578063bad2e60c14610510578063c5f956af1461052357600080fd5b80638da5cb5b146104595780638dcf86c71461046a57806390839e3f1461047d578063970f4c3a1461049057806397dfa0d1146104a357600080fd5b8063529a356f116101df5780636d6a723c116101a35780636d6a723c146103f25780636e3a05ff14610405578063715018a61461041857806379380038146104205780637fd6e95e1461043357806389cdd47d1461044657600080fd5b8063529a356f1461037a5780635fee6708146103a6578063616132af146103b957806361f1ce63146103cc5780636605bfda146103df57600080fd5b8063420897911161022657806342089791146102e15780634322b714146102f457806346296c691461030b5780634c4e7f6f146103545780634d5d78531461036757600080fd5b80631755ff21146102635780631c446983146102935780631c966987146102a857806335bc868a146102bb5780633d6a3844146102ce575b600080fd5b600354610276906001600160a01b031681565b6040516001600160a01b0390911681526020015b60405180910390f35b6102a66102a1366004612228565b6105e9565b005b6102a66102b636600461225d565b610747565b600454610276906001600160a01b031681565b600954610276906001600160a01b031681565b600554610276906001600160a01b031681565b6102fd600f5481565b60405190815260200161028a565b61034461031936600461227f565b60009182526001602090815260408084206001600160a01b0393909316845291905290205460ff1690565b604051901515815260200161028a565b6102a661036236600461225d565b610849565b6102a661037536600461225d565b6109d8565b61034461038836600461225d565b6001600160a01b031660009081526002602052604090205460ff1690565b600854610276906001600160a01b031681565b6102a66103c736600461225d565b610b3b565b6102a66103da36600461225d565b610c3d565b6102a66103ed36600461225d565b610da0565b600654610276906001600160a01b031681565b6102a661041336600461225d565b610f03565b6102a6611005565b6102a661042e36600461225d565b61103b565b6102a661044136600461234e565b61119e565b6102a6610454366004612228565b611444565b6000546001600160a01b0316610276565b6102a661047836600461225d565b611553565b600e54610276906001600160a01b031681565b600d54610276906001600160a01b031681565b600c54610276906001600160a01b031681565b6102767f000000000000000000000000000000000000000000000000000000000000000081565b6104f06104eb36600461227f565b611655565b60405161028a9190612447565b6102a661050b36600461225d565b611835565b6102a661051e36600461225d565b611935565b600b54610276906001600160a01b031681565b6102fd60105481565b6102a661054d366004612228565b611a98565b6102fd610bb881565b600754610276906001600160a01b031681565b6102fd60115481565b6102a661058536600461225d565b611ba7565b6102a661059836600461225d565b611ca9565b6102a66105ab36600461225d565b611dab565b600a54610276906001600160a01b031681565b6102a66105d136600461225d565b611f34565b6102a66105e436600461227f565b611fcf565b7f00000000000000000000000000000000000000000000000000000000000000006001600160a01b03811663dee1f0e4336040516001600160e01b031960e084901b1681526001600160a01b039091166004820152602401602060405180830381865afa15801561065e573d6000803e3d6000fd5b505050506040513d601f19601f8201168201806040525081019061068291906124ce565b6040518060400160405280600381526020016203230360ec1b815250906106c55760405162461bcd60e51b81526004016106bc91906124f0565b60405180910390fd5b5060408051808201909152600381526218989b60e91b6020820152610bb88311156107035760405162461bcd60e51b81526004016106bc91906124f0565b50600f82905560408051338152602081018490527faec3b0dfb932ebcf519716c413557fafef520bf9d7a371d8ef50799927c70ff391015b60405180910390a15050565b6000546001600160a01b031633146107715760405162461bcd60e51b81526004016106bc90612503565b60085460408051808201909152600381526231313560e81b60208201526001600160a01b039091169081156107b95760405162461bcd60e51b81526004016106bc91906124f0565b5060408051808201909152600381526231313560e81b60208201526001600160a01b0383166107fb5760405162461bcd60e51b81526004016106bc91906124f0565b50600880546001600160a01b0319166001600160a01b0384161790556040517f0b7a3bfb39d270493197f76528d22ee7fec7a8f6641a345ded3b823d43b321099061073b9033908590612538565b7f00000000000000000000000000000000000000000000000000000000000000006001600160a01b03811663dee1f0e4336040516001600160e01b031960e084901b1681526001600160a01b039091166004820152602401602060405180830381865afa1580156108be573d6000803e3d6000fd5b505050506040513d601f19601f820116820180604052508101906108e291906124ce565b6040518060400160405280600381526020016203230360ec1b8152509061091c5760405162461bcd60e51b81526004016106bc91906124f0565b5060408051808201909152600381526231313560e81b60208201526001600160a01b03831661095e5760405162461bcd60e51b81526004016106bc91906124f0565b506001600160a01b03821660009081526002602052604090205460ff166109d4576001600160a01b03821660009081526002602052604090819020805460ff19166001179055517f3760e7da06f31ff5603c2d535353085d2065acd17d3d319263a9ada4c8012bcc9061073b9033908590612538565b5050565b7f00000000000000000000000000000000000000000000000000000000000000006001600160a01b03811663dee1f0e4336040516001600160e01b031960e084901b1681526001600160a01b039091166004820152602401602060405180830381865afa158015610a4d573d6000803e3d6000fd5b505050506040513d601f19601f82011682018060405250810190610a7191906124ce565b6040518060400160405280600381526020016203230360ec1b81525090610aab5760405162461bcd60e51b81526004016106bc91906124f0565b5060408051808201909152600381526231313560e81b60208201526001600160a01b038316610aed5760405162461bcd60e51b81526004016106bc91906124f0565b50600a80546001600160a01b0319166001600160a01b0384161790556040517fade84c64161ab179b31f6347f1f6c2370b0b9e35205cd360fff7b0e9c88320959061073b9033908590612538565b6000546001600160a01b03163314610b655760405162461bcd60e51b81526004016106bc90612503565b60065460408051808201909152600381526231313560e81b60208201526001600160a01b03909116908115610bad5760405162461bcd60e51b81526004016106bc91906124f0565b5060408051808201909152600381526231313560e81b60208201526001600160a01b038316610bef5760405162461bcd60e51b81526004016106bc91906124f0565b50600680546001600160a01b0319166001600160a01b0384161790556040517f11f20b92db6744078eb0c18672364cff6fdf227dbc6cc5918c30dd2ba538bf809061073b9033908590612538565b7f00000000000000000000000000000000000000000000000000000000000000006001600160a01b03811663dee1f0e4336040516001600160e01b031960e084901b1681526001600160a01b039091166004820152602401602060405180830381865afa158015610cb2573d6000803e3d6000fd5b505050506040513d601f19601f82011682018060405250810190610cd691906124ce565b6040518060400160405280600381526020016203230360ec1b81525090610d105760405162461bcd60e51b81526004016106bc91906124f0565b5060408051808201909152600381526231313560e81b60208201526001600160a01b038316610d525760405162461bcd60e51b81526004016106bc91906124f0565b50600e80546001600160a01b0319166001600160a01b0384161790556040517f8ae2fc9d7793180dcc54372828b79d8d347e11a6204bddba90ffe2fefbf3a45b9061073b9033908590612538565b7f00000000000000000000000000000000000000000000000000000000000000006001600160a01b03811663dee1f0e4336040516001600160e01b031960e084901b1681526001600160a01b039091166004820152602401602060405180830381865afa158015610e15573d6000803e3d6000fd5b505050506040513d601f19601f82011682018060405250810190610e3991906124ce565b6040518060400160405280600381526020016203230360ec1b81525090610e735760405162461bcd60e51b81526004016106bc91906124f0565b5060408051808201909152600381526231313560e81b60208201526001600160a01b038316610eb55760405162461bcd60e51b81526004016106bc91906124f0565b50600b80546001600160a01b0319166001600160a01b0384161790556040517f61885cdba916be748ff3e3f6f15e4206153b8ea3b7acabade9d04b4063a835109061073b9033908590612538565b6000546001600160a01b03163314610f2d5760405162461bcd60e51b81526004016106bc90612503565b60055460408051808201909152600381526231313560e81b60208201526001600160a01b03909116908115610f755760405162461bcd60e51b81526004016106bc91906124f0565b5060408051808201909152600381526231313560e81b60208201526001600160a01b038316610fb75760405162461bcd60e51b81526004016106bc91906124f0565b50600580546001600160a01b0319166001600160a01b0384161790556040517f9ab3c5760425674448f5fc907a4011002c9478cb26b31ae268a0400bb603c67b9061073b9033908590612538565b6000546001600160a01b0316331461102f5760405162461bcd60e51b81526004016106bc90612503565b611039600061213f565b565b7f00000000000000000000000000000000000000000000000000000000000000006001600160a01b03811663dee1f0e4336040516001600160e01b031960e084901b1681526001600160a01b039091166004820152602401602060405180830381865afa1580156110b0573d6000803e3d6000fd5b505050506040513d601f19601f820116820180604052508101906110d491906124ce565b6040518060400160405280600381526020016203230360ec1b8152509061110e5760405162461bcd60e51b81526004016106bc91906124f0565b5060408051808201909152600381526231313560e81b60208201526001600160a01b0383166111505760405162461bcd60e51b81526004016106bc91906124f0565b50600c80546001600160a01b0319166001600160a01b0384161790556040517fc5c2d52985d8e0e38d9eb84f6886aca79638c04d053ff66a35cbcedc58dfa55d9061073b9033908590612538565b7f00000000000000000000000000000000000000000000000000000000000000006001600160a01b03811663dee1f0e4336040516001600160e01b031960e084901b1681526001600160a01b039091166004820152602401602060405180830381865afa158015611213573d6000803e3d6000fd5b505050506040513d601f19601f8201168201806040525081019061123791906124ce565b6040518060400160405280600381526020016203230360ec1b815250906112715760405162461bcd60e51b81526004016106bc91906124f0565b5060408051808201909152600381526231313760e81b60208201528a6112aa5760405162461bcd60e51b81526004016106bc91906124f0565b5060408051808201909152600381526206262760eb1b60208201526001600160a01b038a166112ec5760405162461bcd60e51b81526004016106bc91906124f0565b5060405180610100016040528060011515815260200189815260200188815260200187815260200186815260200185815260200184815260200183815250600160008c815260200190815260200160002060008b6001600160a01b03166001600160a01b0316815260200190815260200160002060008201518160000160006101000a81548160ff021916908315150217905550602082015181600101908051906020019061139c92919061218f565b50604082015180516113b891600284019160209091019061218f565b5060608281015160038301556080830151600483015560a0830151600583015560c0830151600683015560e09092015160079091015560408051338152602081018d90526001600160a01b038c16918101919091527f32e7bdd0caf2ffa7433b24abeaa8da765ccac460b1c584c9b718c59b0ec56b9d910160405180910390a150505050505050505050565b7f00000000000000000000000000000000000000000000000000000000000000006001600160a01b03811663dee1f0e4336040516001600160e01b031960e084901b1681526001600160a01b039091166004820152602401602060405180830381865afa1580156114b9573d6000803e3d6000fd5b505050506040513d601f19601f820116820180604052508101906114dd91906124ce565b6040518060400160405280600381526020016203230360ec1b815250906115175760405162461bcd60e51b81526004016106bc91906124f0565b50601182905560408051338152602081018490527f7c711ee19f0c912a57665c93f4d4e5c0eadfe3547c2a7674d27e359ddcc0126e910161073b565b6000546001600160a01b0316331461157d5760405162461bcd60e51b81526004016106bc90612503565b60075460408051808201909152600381526231313560e81b60208201526001600160a01b039091169081156115c55760405162461bcd60e51b81526004016106bc91906124f0565b5060408051808201909152600381526231313560e81b60208201526001600160a01b0383166116075760405162461bcd60e51b81526004016106bc91906124f0565b50600780546001600160a01b0319166001600160a01b0384161790556040517f7467a52675bb450a8aac4c82155c4a2068217cc3ed5cb94ec5de88b099bde1cc9061073b9033908590612538565b61169f604051806101000160405280600015158152602001606081526020016060815260200160008152602001600081526020016000815260200160008152602001600081525090565b60008381526001602081815260408084206001600160a01b038716855282529283902083516101008101909452805460ff16151584529182018054918401916116e790612552565b80601f016020809104026020016040519081016040528092919081815260200182805461171390612552565b80156117605780601f1061173557610100808354040283529160200191611760565b820191906000526020600020905b81548152906001019060200180831161174357829003601f168201915b5050505050815260200160028201805461177990612552565b80601f01602080910402602001604051908101604052809291908181526020018280546117a590612552565b80156117f25780601f106117c7576101008083540402835291602001916117f2565b820191906000526020600020905b8154815290600101906020018083116117d557829003601f168201915b5050505050815260200160038201548152602001600482015481526020016005820154815260200160068201548152602001600782015481525050905092915050565b6000546001600160a01b0316331461185f5760405162461bcd60e51b81526004016106bc90612503565b60038054604080518082019091529182526231313560e81b60208301526001600160a01b03169081156118a55760405162461bcd60e51b81526004016106bc91906124f0565b5060408051808201909152600381526231313560e81b60208201526001600160a01b0383166118e75760405162461bcd60e51b81526004016106bc91906124f0565b50600380546001600160a01b0319166001600160a01b0384161790556040517f8d1ad6da1aa2e761965c5c3ff39a053a2182097a70a72f2d6e289fdc97eb55759061073b9033908590612538565b7f00000000000000000000000000000000000000000000000000000000000000006001600160a01b03811663dee1f0e4336040516001600160e01b031960e084901b1681526001600160a01b039091166004820152602401602060405180830381865afa1580156119aa573d6000803e3d6000fd5b505050506040513d601f19601f820116820180604052508101906119ce91906124ce565b6040518060400160405280600381526020016203230360ec1b81525090611a085760405162461bcd60e51b81526004016106bc91906124f0565b5060408051808201909152600381526231313560e81b60208201526001600160a01b038316611a4a5760405162461bcd60e51b81526004016106bc91906124f0565b50600d80546001600160a01b0319166001600160a01b0384161790556040517fb6b2ebc8274df9ba5f06827eaf0f57cd989858c0a9d8ada796c997713783b8a39061073b9033908590612538565b7f00000000000000000000000000000000000000000000000000000000000000006001600160a01b03811663dee1f0e4336040516001600160e01b031960e084901b1681526001600160a01b039091166004820152602401602060405180830381865afa158015611b0d573d6000803e3d6000fd5b505050506040513d601f19601f82011682018060405250810190611b3191906124ce565b6040518060400160405280600381526020016203230360ec1b81525090611b6b5760405162461bcd60e51b81526004016106bc91906124f0565b50601082905560408051338152602081018490527fe24a3096e9789345a0c4af40c35735f55e9d4658eb8146d31a97ff7b5de963c0910161073b565b6000546001600160a01b03163314611bd15760405162461bcd60e51b81526004016106bc90612503565b60095460408051808201909152600381526231313560e81b60208201526001600160a01b03909116908115611c195760405162461bcd60e51b81526004016106bc91906124f0565b5060408051808201909152600381526231313560e81b60208201526001600160a01b038316611c5b5760405162461bcd60e51b81526004016106bc91906124f0565b50600980546001600160a01b0319166001600160a01b0384161790556040517f47f677ce3d261a95b89ad560a9a8987dfa002e575bc1891a26ee46dc822c379b9061073b9033908590612538565b6000546001600160a01b03163314611cd35760405162461bcd60e51b81526004016106bc90612503565b60045460408051808201909152600381526231313560e81b60208201526001600160a01b03909116908115611d1b5760405162461bcd60e51b81526004016106bc91906124f0565b5060408051808201909152600381526231313560e81b60208201526001600160a01b038316611d5d5760405162461bcd60e51b81526004016106bc91906124f0565b50600480546001600160a01b0319166001600160a01b0384161790556040517f9604823ca2a8462263e820f8d51b7c6657d28dbe05e8772f2a5f7e910ca82abe9061073b9033908590612538565b7f00000000000000000000000000000000000000000000000000000000000000006001600160a01b03811663dee1f0e4336040516001600160e01b031960e084901b1681526001600160a01b039091166004820152602401602060405180830381865afa158015611e20573d6000803e3d6000fd5b505050506040513d601f19601f82011682018060405250810190611e4491906124ce565b6040518060400160405280600381526020016203230360ec1b81525090611e7e5760405162461bcd60e51b81526004016106bc91906124f0565b5060408051808201909152600381526231313560e81b60208201526001600160a01b038316611ec05760405162461bcd60e51b81526004016106bc91906124f0565b506001600160a01b03821660009081526002602052604090205460ff16156109d4576001600160a01b03821660009081526002602052604090819020805460ff19169055517f8a89f839e075df5120850499917e87744c78036ca455ee0fe16c3d5ce0a4b5e09061073b9033908590612538565b6000546001600160a01b03163314611f5e5760405162461bcd60e51b81526004016106bc90612503565b6001600160a01b038116611fc35760405162461bcd60e51b815260206004820152602660248201527f4f776e61626c653a206e6577206f776e657220697320746865207a65726f206160448201526564647265737360d01b60648201526084016106bc565b611fcc8161213f565b50565b7f00000000000000000000000000000000000000000000000000000000000000006001600160a01b03811663dee1f0e4336040516001600160e01b031960e084901b1681526001600160a01b039091166004820152602401602060405180830381865afa158015612044573d6000803e3d6000fd5b505050506040513d601f19601f8201168201806040525081019061206891906124ce565b6040518060400160405280600381526020016203230360ec1b815250906120a25760405162461bcd60e51b81526004016106bc91906124f0565b5060008381526001602090815260408083206001600160a01b038616845290915290205460ff161561213a5760008381526001602090815260408083206001600160a01b03861680855290835292819020805460ff1916905580513381529182018690528101919091527f2d76bfcbbc75c3b84be47268af9150df9dd855d146070aed72f041c784371e7a9060600160405180910390a15b505050565b600080546001600160a01b038381166001600160a01b0319831681178455604051919092169283917f8be0079c531659141344cd1fd0a4f28419497f9722a3daafe3b4186f6b6457e09190a35050565b82805461219b90612552565b90600052602060002090601f0160209004810192826121bd5760008555612203565b82601f106121d657805160ff1916838001178555612203565b82800160010185558215612203579182015b828111156122035782518255916020019190600101906121e8565b5061220f929150612213565b5090565b5b8082111561220f5760008155600101612214565b60006020828403121561223a57600080fd5b5035919050565b80356001600160a01b038116811461225857600080fd5b919050565b60006020828403121561226f57600080fd5b61227882612241565b9392505050565b6000806040838503121561229257600080fd5b823591506122a260208401612241565b90509250929050565b634e487b7160e01b600052604160045260246000fd5b600082601f8301126122d257600080fd5b813567ffffffffffffffff808211156122ed576122ed6122ab565b604051601f8301601f19908116603f01168101908282118183101715612315576123156122ab565b8160405283815286602085880101111561232e57600080fd5b836020870160208301376000602085830101528094505050505092915050565b60008060008060008060008060006101208a8c03121561236d57600080fd5b8935985061237d60208b01612241565b975060408a013567ffffffffffffffff8082111561239a57600080fd5b6123a68d838e016122c1565b985060608c01359150808211156123bc57600080fd5b506123c98c828d016122c1565b999c989b50969960808101359860a0820135985060c0820135975060e0820135965061010090910135945092505050565b6000815180845260005b8181101561242057602081850181015186830182015201612404565b81811115612432576000602083870101525b50601f01601f19169290920160200192915050565b60208152815115156020820152600060208301516101008060408501526124726101208501836123fa565b91506040850151601f1985840301606086015261248f83826123fa565b92505060608501516080850152608085015160a085015260a085015160c085015260c085015160e085015260e085015181850152508091505092915050565b6000602082840312156124e057600080fd5b8151801515811461227857600080fd5b60208152600061227860208301846123fa565b6020808252818101527f4f776e61626c653a2063616c6c6572206973206e6f7420746865206f776e6572604082015260600190565b6001600160a01b0392831681529116602082015260400190565b600181811c9082168061256657607f821691505b6020821081141561258757634e487b7160e01b600052602260045260246000fd5b5091905056fea2646970667358221220d93c82c4efff1c842ea13ac6ed5e17b3c1834ff1c721efbc126444c70290a5c264736f6c634300080a0033",
  "devdoc": {
    "kind": "dev",
    "methods": {
      "owner()": {
        "details": "Returns the address of the current owner."
      },
      "renounceOwnership()": {
        "details": "Leaves the contract without owner. It will not be possible to call `onlyOwner` functions anymore. Can only be called by the current owner. NOTE: Renouncing ownership will leave the contract without an owner, thereby removing any functionality that is only available to the owner."
      },
      "transferOwnership(address)": {
        "details": "Transfers ownership of the contract to a new account (`newOwner`). Can only be called by the current owner."
      }
    },
    "version": 1
  },
  "userdoc": {
    "kind": "user",
    "methods": {},
    "version": 1
  },
  "storageLayout": {
    "storage": [
      {
        "astId": 387,
        "contract": "contracts/configuration/OpenSkySettings.sol:OpenSkySettings",
        "label": "_owner",
        "offset": 0,
        "slot": "0",
        "type": "t_address"
      },
      {
        "astId": 17056,
        "contract": "contracts/configuration/OpenSkySettings.sol:OpenSkySettings",
        "label": "_whitelist",
        "offset": 0,
        "slot": "1",
        "type": "t_mapping(t_uint256,t_mapping(t_address,t_struct(WhitelistInfo)21786_storage))"
      },
      {
        "astId": 17060,
        "contract": "contracts/configuration/OpenSkySettings.sol:OpenSkySettings",
        "label": "_liquidators",
        "offset": 0,
        "slot": "2",
        "type": "t_mapping(t_address,t_bool)"
      },
      {
        "astId": 17063,
        "contract": "contracts/configuration/OpenSkySettings.sol:OpenSkySettings",
        "label": "poolAddress",
        "offset": 0,
        "slot": "3",
        "type": "t_address"
      },
      {
        "astId": 17066,
        "contract": "contracts/configuration/OpenSkySettings.sol:OpenSkySettings",
        "label": "loanAddress",
        "offset": 0,
        "slot": "4",
        "type": "t_address"
      },
      {
        "astId": 17069,
        "contract": "contracts/configuration/OpenSkySettings.sol:OpenSkySettings",
        "label": "vaultFactoryAddress",
        "offset": 0,
        "slot": "5",
        "type": "t_address"
      },
      {
        "astId": 17072,
        "contract": "contracts/configuration/OpenSkySettings.sol:OpenSkySettings",
        "label": "incentiveControllerAddress",
        "offset": 0,
        "slot": "6",
        "type": "t_address"
      },
      {
        "astId": 17075,
        "contract": "contracts/configuration/OpenSkySettings.sol:OpenSkySettings",
        "label": "wethGatewayAddress",
        "offset": 0,
        "slot": "7",
        "type": "t_address"
      },
      {
        "astId": 17078,
        "contract": "contracts/configuration/OpenSkySettings.sol:OpenSkySettings",
        "label": "punkGatewayAddress",
        "offset": 0,
        "slot": "8",
        "type": "t_address"
      },
      {
        "astId": 17081,
        "contract": "contracts/configuration/OpenSkySettings.sol:OpenSkySettings",
        "label": "daoVaultAddress",
        "offset": 0,
        "slot": "9",
        "type": "t_address"
      },
      {
        "astId": 17084,
        "contract": "contracts/configuration/OpenSkySettings.sol:OpenSkySettings",
        "label": "moneyMarketAddress",
        "offset": 0,
        "slot": "10",
        "type": "t_address"
      },
      {
        "astId": 17087,
        "contract": "contracts/configuration/OpenSkySettings.sol:OpenSkySettings",
        "label": "treasuryAddress",
        "offset": 0,
        "slot": "11",
        "type": "t_address"
      },
      {
        "astId": 17090,
        "contract": "contracts/configuration/OpenSkySettings.sol:OpenSkySettings",
        "label": "loanDescriptorAddress",
        "offset": 0,
        "slot": "12",
        "type": "t_address"
      },
      {
        "astId": 17093,
        "contract": "contracts/configuration/OpenSkySettings.sol:OpenSkySettings",
        "label": "nftPriceOracleAddress",
        "offset": 0,
        "slot": "13",
        "type": "t_address"
      },
      {
        "astId": 17096,
        "contract": "contracts/configuration/OpenSkySettings.sol:OpenSkySettings",
        "label": "interestRateStrategyAddress",
        "offset": 0,
        "slot": "14",
        "type": "t_address"
      },
      {
        "astId": 17100,
        "contract": "contracts/configuration/OpenSkySettings.sol:OpenSkySettings",
        "label": "reserveFactor",
        "offset": 0,
        "slot": "15",
        "type": "t_uint256"
      },
      {
        "astId": 17104,
        "contract": "contracts/configuration/OpenSkySettings.sol:OpenSkySettings",
        "label": "prepaymentFeeFactor",
        "offset": 0,
        "slot": "16",
        "type": "t_uint256"
      },
      {
        "astId": 17108,
        "contract": "contracts/configuration/OpenSkySettings.sol:OpenSkySettings",
        "label": "overdueLoanFeeFactor",
        "offset": 0,
        "slot": "17",
        "type": "t_uint256"
      }
    ],
    "types": {
      "t_address": {
        "encoding": "inplace",
        "label": "address",
        "numberOfBytes": "20"
      },
      "t_bool": {
        "encoding": "inplace",
        "label": "bool",
        "numberOfBytes": "1"
      },
      "t_mapping(t_address,t_bool)": {
        "encoding": "mapping",
        "key": "t_address",
        "label": "mapping(address => bool)",
        "numberOfBytes": "32",
        "value": "t_bool"
      },
      "t_mapping(t_address,t_struct(WhitelistInfo)21786_storage)": {
        "encoding": "mapping",
        "key": "t_address",
        "label": "mapping(address => struct DataTypes.WhitelistInfo)",
        "numberOfBytes": "32",
        "value": "t_struct(WhitelistInfo)21786_storage"
      },
      "t_mapping(t_uint256,t_mapping(t_address,t_struct(WhitelistInfo)21786_storage))": {
        "encoding": "mapping",
        "key": "t_uint256",
        "label": "mapping(uint256 => mapping(address => struct DataTypes.WhitelistInfo))",
        "numberOfBytes": "32",
        "value": "t_mapping(t_address,t_struct(WhitelistInfo)21786_storage)"
      },
      "t_string_storage": {
        "encoding": "bytes",
        "label": "string",
        "numberOfBytes": "32"
      },
      "t_struct(WhitelistInfo)21786_storage": {
        "encoding": "inplace",
        "label": "struct DataTypes.WhitelistInfo",
        "members": [
          {
            "astId": 21771,
            "contract": "contracts/configuration/OpenSkySettings.sol:OpenSkySettings",
            "label": "enabled",
            "offset": 0,
            "slot": "0",
            "type": "t_bool"
          },
          {
            "astId": 21773,
            "contract": "contracts/configuration/OpenSkySettings.sol:OpenSkySettings",
            "label": "name",
            "offset": 0,
            "slot": "1",
            "type": "t_string_storage"
          },
          {
            "astId": 21775,
            "contract": "contracts/configuration/OpenSkySettings.sol:OpenSkySettings",
            "label": "symbol",
            "offset": 0,
            "slot": "2",
            "type": "t_string_storage"
          },
          {
            "astId": 21777,
            "contract": "contracts/configuration/OpenSkySettings.sol:OpenSkySettings",
            "label": "LTV",
            "offset": 0,
            "slot": "3",
            "type": "t_uint256"
          },
          {
            "astId": 21779,
            "contract": "contracts/configuration/OpenSkySettings.sol:OpenSkySettings",
            "label": "minBorrowDuration",
            "offset": 0,
            "slot": "4",
            "type": "t_uint256"
          },
          {
            "astId": 21781,
            "contract": "contracts/configuration/OpenSkySettings.sol:OpenSkySettings",
            "label": "maxBorrowDuration",
            "offset": 0,
            "slot": "5",
            "type": "t_uint256"
          },
          {
            "astId": 21783,
            "contract": "contracts/configuration/OpenSkySettings.sol:OpenSkySettings",
            "label": "extendableDuration",
            "offset": 0,
            "slot": "6",
            "type": "t_uint256"
          },
          {
            "astId": 21785,
            "contract": "contracts/configuration/OpenSkySettings.sol:OpenSkySettings",
            "label": "overdueDuration",
            "offset": 0,
            "slot": "7",
            "type": "t_uint256"
          }
        ],
        "numberOfBytes": "256"
      },
      "t_uint256": {
        "encoding": "inplace",
        "label": "uint256",
        "numberOfBytes": "32"
      }
    }
  }
}