{
  "address": "0xBcE48c15D47D93A3bbb6a5fd1847DF1Cb61369dC",
  "abi": [
    {
      "inputs": [
        {
          "internalType": "address",
          "name": "SETTINGS_",
          "type": "address"
        },
        {
          "internalType": "address",
          "name": "PUNK_",
          "type": "address"
        },
        {
          "internalType": "address",
          "name": "WPUNK_",
          "type": "address"
        },
        {
          "internalType": "address",
          "name": "WETH_",
          "type": "address"
        }
      ],
      "stateMutability": "nonpayable",
      "type": "constructor"
    },
    {
      "anonymous": false,
      "inputs": [
        {
          "indexed": true,
          "internalType": "uint256",
          "name": "reserveId",
          "type": "uint256"
        },
        {
          "indexed": true,
          "internalType": "address",
          "name": "user",
          "type": "address"
        },
        {
          "indexed": false,
          "internalType": "uint256",
          "name": "amount",
          "type": "uint256"
        },
        {
          "indexed": false,
          "internalType": "uint256",
          "name": "duration",
          "type": "uint256"
        },
        {
          "indexed": false,
          "internalType": "uint256",
          "name": "punkIndex",
          "type": "uint256"
        },
        {
          "indexed": false,
          "internalType": "uint256",
          "name": "loanId",
          "type": "uint256"
        }
      ],
      "name": "Borrow",
      "type": "event"
    },
    {
      "anonymous": false,
      "inputs": [
        {
          "indexed": true,
          "internalType": "uint256",
          "name": "reserveId",
          "type": "uint256"
        },
        {
          "indexed": true,
          "internalType": "address",
          "name": "user",
          "type": "address"
        },
        {
          "indexed": false,
          "internalType": "uint256",
          "name": "amount",
          "type": "uint256"
        },
        {
          "indexed": false,
          "internalType": "uint256",
          "name": "duration",
          "type": "uint256"
        },
        {
          "indexed": false,
          "internalType": "uint256",
          "name": "punkIndex",
          "type": "uint256"
        },
        {
          "indexed": false,
          "internalType": "uint256",
          "name": "loanId",
          "type": "uint256"
        }
      ],
      "name": "BorrowETH",
      "type": "event"
    },
    {
      "anonymous": false,
      "inputs": [
        {
          "indexed": false,
          "internalType": "address",
          "name": "",
          "type": "address"
        },
        {
          "indexed": false,
          "internalType": "uint256",
          "name": "",
          "type": "uint256"
        }
      ],
      "name": "Received",
      "type": "event"
    },
    {
      "anonymous": false,
      "inputs": [
        {
          "indexed": true,
          "internalType": "uint256",
          "name": "reserveId",
          "type": "uint256"
        },
        {
          "indexed": true,
          "internalType": "address",
          "name": "user",
          "type": "address"
        },
        {
          "indexed": false,
          "internalType": "uint256",
          "name": "punkIndex",
          "type": "uint256"
        },
        {
          "indexed": false,
          "internalType": "uint256",
          "name": "loanId",
          "type": "uint256"
        }
      ],
      "name": "Repay",
      "type": "event"
    },
    {
      "anonymous": false,
      "inputs": [
        {
          "indexed": true,
          "internalType": "uint256",
          "name": "reserveId",
          "type": "uint256"
        },
        {
          "indexed": true,
          "internalType": "address",
          "name": "user",
          "type": "address"
        },
        {
          "indexed": false,
          "internalType": "uint256",
          "name": "punkIndex",
          "type": "uint256"
        },
        {
          "indexed": false,
          "internalType": "uint256",
          "name": "loanId",
          "type": "uint256"
        }
      ],
      "name": "RepayETH",
      "type": "event"
    },
    {
      "inputs": [],
      "name": "PUNK",
      "outputs": [
        {
          "internalType": "contract ICryptoPunk",
          "name": "",
          "type": "address"
        }
      ],
      "stateMutability": "view",
      "type": "function"
    },
    {
      "inputs": [],
      "name": "SETTINGS",
      "outputs": [
        {
          "internalType": "contract IOpenSkySettings",
          "name": "",
          "type": "address"
        }
      ],
      "stateMutability": "view",
      "type": "function"
    },
    {
      "inputs": [],
      "name": "WETH",
      "outputs": [
        {
          "internalType": "contract IWETH",
          "name": "",
          "type": "address"
        }
      ],
      "stateMutability": "view",
      "type": "function"
    },
    {
      "inputs": [],
      "name": "WPUNK",
      "outputs": [
        {
          "internalType": "contract IWrappedPunk",
          "name": "",
          "type": "address"
        }
      ],
      "stateMutability": "view",
      "type": "function"
    },
    {
      "inputs": [],
      "name": "WPUNK_PROXY_ADDRESS",
      "outputs": [
        {
          "internalType": "address",
          "name": "",
          "type": "address"
        }
      ],
      "stateMutability": "view",
      "type": "function"
    },
    {
      "inputs": [
        {
          "internalType": "uint256",
          "name": "reserveId",
          "type": "uint256"
        },
        {
          "internalType": "uint256",
          "name": "amount",
          "type": "uint256"
        },
        {
          "internalType": "uint256",
          "name": "duration",
          "type": "uint256"
        },
        {
          "internalType": "uint256",
          "name": "punkIndex",
          "type": "uint256"
        }
      ],
      "name": "borrow",
      "outputs": [],
      "stateMutability": "nonpayable",
      "type": "function"
    },
    {
      "inputs": [
        {
          "internalType": "uint256",
          "name": "reserveId",
          "type": "uint256"
        },
        {
          "internalType": "uint256",
          "name": "amount",
          "type": "uint256"
        },
        {
          "internalType": "uint256",
          "name": "duration",
          "type": "uint256"
        },
        {
          "internalType": "uint256",
          "name": "punkIndex",
          "type": "uint256"
        }
      ],
      "name": "borrowETH",
      "outputs": [],
      "stateMutability": "nonpayable",
      "type": "function"
    },
    {
      "inputs": [
        {
          "internalType": "address",
          "name": "",
          "type": "address"
        },
        {
          "internalType": "address",
          "name": "",
          "type": "address"
        },
        {
          "internalType": "uint256",
          "name": "",
          "type": "uint256"
        },
        {
          "internalType": "bytes",
          "name": "",
          "type": "bytes"
        }
      ],
      "name": "onERC721Received",
      "outputs": [
        {
          "internalType": "bytes4",
          "name": "",
          "type": "bytes4"
        }
      ],
      "stateMutability": "nonpayable",
      "type": "function"
    },
    {
      "inputs": [
        {
          "internalType": "uint256",
          "name": "loanId",
          "type": "uint256"
        }
      ],
      "name": "repay",
      "outputs": [],
      "stateMutability": "nonpayable",
      "type": "function"
    },
    {
      "inputs": [
        {
          "internalType": "uint256",
          "name": "loanId",
          "type": "uint256"
        }
      ],
      "name": "repayETH",
      "outputs": [],
      "stateMutability": "payable",
      "type": "function"
    },
    {
      "stateMutability": "payable",
      "type": "receive"
    }
  ],
  "transactionHash": "0xac6f33db24d9e5b484dfd4cfff4852ff6bb44c52d42530b39ba2cc21aa7773cd",
  "args": [
    "0x57528D98c3a8762c78f4D02a89CBc0Eaf77FD322",
    "0xe88409A6A31576c42dCb06659E1Fa3D718Bc0815",
    "0x8733DA97F42c13885Bcd88129492D7900728a3dA",
    "0x0d500b1d8e8ef31e21c99d1db9a6444d3adf1270"
  ],
  "solcInputHash": "903b6e0b7a82abf3fd1d087256b904a8",
  "bytecode": "0x6101006040523480156200001257600080fd5b50604051620024b8380380620024b883398101604081905262000035916200023f565b6001600160a01b0380851660805283811660a05282811660c081905290821660e05260408051636eec0fc160e11b8152905163ddd81f829160048082019260009290919082900301818387803b1580156200008f57600080fd5b505af1158015620000a4573d6000803e3d6000fd5b505060c051604051631538f65960e31b81523060048201526001600160a01b03909116925063a9c7b2c891506024016020604051808303816000875af1158015620000f3573d6000803e3d6000fd5b505050506040513d601f19601f820116820180604052508101906200011991906200029c565b6000806101000a8154816001600160a01b0302191690836001600160a01b0316021790555060c0516001600160a01b031663a22cb4656080516001600160a01b0316631755ff216040518163ffffffff1660e01b8152600401602060405180830381865afa15801562000190573d6000803e3d6000fd5b505050506040513d601f19601f82011682018060405250810190620001b691906200029c565b6040516001600160e01b031960e084901b1681526001600160a01b03909116600482015260016024820152604401600060405180830381600087803b158015620001ff57600080fd5b505af115801562000214573d6000803e3d6000fd5b5050505050505050620002c1565b80516001600160a01b03811681146200023a57600080fd5b919050565b600080600080608085870312156200025657600080fd5b620002618562000222565b9350620002716020860162000222565b9250620002816040860162000222565b9150620002916060860162000222565b905092959194509250565b600060208284031215620002af57600080fd5b620002ba8262000222565b9392505050565b60805160a05160c05160e051612115620003a360003960008181610215015281816105b6015281816108c401528181610dee0152610e9f015260008181610249015281816108470152818161115b015281816112720152818161151501526117a20152600081816101a101528181610f7f0152818161105c015281816110e7015261183201526000818161027d015281816102a3015281816103c4015281816104ba015281816106fd015281816109ac01528181610aa201528181610cf7015281816111c5015281816113cb015281816115a1015261169501526121156000f3fe6080604052600436106100955760003560e01c8063371fd8e611610059578063371fd8e6146101c3578063900f60ba146101e3578063ad5c464814610203578063add9cf0314610237578063ade97ab51461026b57600080fd5b8063111d9482146100d9578063150b7a02146100fb5780632247463e14610144578063268b463d14610157578063296f76b31461018f57600080fd5b366100d457604080513381523460208201527f88a5966d370b9919b20f3e2c13ff65706f196a4e32cc2c12bf57088f88525874910160405180910390a1005b600080fd5b3480156100e557600080fd5b506100f96100f4366004611c15565b61029f565b005b34801561010757600080fd5b50610126610116366004611cf4565b630a85bd0160e11b949350505050565b6040516001600160e01b031990911681526020015b60405180910390f35b6100f9610152366004611db8565b6103c0565b34801561016357600080fd5b50600054610177906001600160a01b031681565b6040516001600160a01b03909116815260200161013b565b34801561019b57600080fd5b506101777f000000000000000000000000000000000000000000000000000000000000000081565b3480156101cf57600080fd5b506100f96101de366004611db8565b6109a8565b3480156101ef57600080fd5b506100f96101fe366004611c15565b610cf3565b34801561020f57600080fd5b506101777f000000000000000000000000000000000000000000000000000000000000000081565b34801561024357600080fd5b506101777f000000000000000000000000000000000000000000000000000000000000000081565b34801561027757600080fd5b506101777f000000000000000000000000000000000000000000000000000000000000000081565b60007f00000000000000000000000000000000000000000000000000000000000000006001600160a01b0316631755ff216040518163ffffffff1660e01b8152600401602060405180830381865afa1580156102ff573d6000803e3d6000fd5b505050506040513d601f19601f820116820180604052508101906103239190611de1565b6001600160a01b03166391541e05866040518263ffffffff1660e01b815260040161035091815260200190565b61018060405180830381865afa15801561036e573d6000803e3d6000fd5b505050506040513d601f19601f820116820180604052508101906103929190611e43565b6020015190506103a485858585610f5c565b506103b96001600160a01b038216338661135f565b5050505050565b60007f00000000000000000000000000000000000000000000000000000000000000006001600160a01b03166335bc868a6040518163ffffffff1660e01b8152600401602060405180830381865afa158015610420573d6000803e3d6000fd5b505050506040513d601f19601f820116820180604052508101906104449190611de1565b60405163622fe39f60e01b8152600481018490529091506000906001600160a01b0383169063622fe39f906024016101c060405180830381865afa158015610490573d6000803e3d6000fd5b505050506040513d601f19601f820116820180604052508101906104b49190611f1b565b905060007f00000000000000000000000000000000000000000000000000000000000000006001600160a01b0316631755ff216040518163ffffffff1660e01b8152600401602060405180830381865afa158015610516573d6000803e3d6000fd5b505050506040513d601f19601f8201168201806040525081019061053a9190611de1565b82516040516391541e0560e01b81526001600160a01b0392909216916391541e059161056c9160040190815260200190565b61018060405180830381865afa15801561058a573d6000803e3d6000fd5b505050506040513d601f19601f820116820180604052508101906105ae9190611e43565b6020015190507f00000000000000000000000000000000000000000000000000000000000000006001600160a01b0316816001600160a01b0316146106445760405162461bcd60e51b815260206004820152602160248201527f52455041595f4554485f524553455256455f41535345545f4e4f545f4d4154436044820152600960fb1b60648201526084015b60405180910390fd5b604051636b52b36560e01b8152600481018590526000906001600160a01b03851690636b52b36590602401602060405180830381865afa15801561068c573d6000803e3d6000fd5b505050506040513d601f19601f820116820180604052508101906106b0919061200b565b9050803410156106f95760405162461bcd60e51b81526020600482015260146024820152730a48aa082b2be8aa890be9c9ea8be8a9c9eaa8e960631b604482015260640161063b565b60007f00000000000000000000000000000000000000000000000000000000000000006001600160a01b03166335bc868a6040518163ffffffff1660e01b8152600401602060405180830381865afa158015610759573d6000803e3d6000fd5b505050506040513d601f19601f8201168201806040525081019061077d9190611de1565b6001600160a01b0316636352211e876040518263ffffffff1660e01b81526004016107aa91815260200190565b602060405180830381865afa1580156107c7573d6000803e3d6000fd5b505050506040513d601f19601f820116820180604052508101906107eb9190611de1565b9050336001600160a01b038216146108455760405162461bcd60e51b815260206004820152601b60248201527f52455041595f555345525f4e4f545f4f574e5f5448455f4c4f414e0000000000604482015260640161063b565b7f00000000000000000000000000000000000000000000000000000000000000006001600160a01b031684602001516001600160a01b0316146108c25760405162461bcd60e51b81526020600482015260156024820152742922a820acafa727aa2fa0afa82aa725afa627a0a760591b604482015260640161063b565b7f00000000000000000000000000000000000000000000000000000000000000006001600160a01b031663d0e30db0836040518263ffffffff1660e01b81526004016000604051808303818588803b15801561091d57600080fd5b505af1158015610931573d6000803e3d6000fd5b5050505050610942868585856113c7565b8134111561095d5761095d336109588434612024565b6118f2565b83516040808601518151908152602081018990523392917f58a95140c905d05fa474061eeec893aa434dab2bc58eaa7b48056fce4996e18b91015b60405180910390a3505050505050565b60007f00000000000000000000000000000000000000000000000000000000000000006001600160a01b03166335bc868a6040518163ffffffff1660e01b8152600401602060405180830381865afa158015610a08573d6000803e3d6000fd5b505050506040513d601f19601f82011682018060405250810190610a2c9190611de1565b60405163622fe39f60e01b8152600481018490529091506000906001600160a01b0383169063622fe39f906024016101c060405180830381865afa158015610a78573d6000803e3d6000fd5b505050506040513d601f19601f82011682018060405250810190610a9c9190611f1b565b905060007f00000000000000000000000000000000000000000000000000000000000000006001600160a01b0316631755ff216040518163ffffffff1660e01b8152600401602060405180830381865afa158015610afe573d6000803e3d6000fd5b505050506040513d601f19601f82011682018060405250810190610b229190611de1565b82516040516391541e0560e01b81526001600160a01b0392909216916391541e0591610b549160040190815260200190565b61018060405180830381865afa158015610b72573d6000803e3d6000fd5b505050506040513d601f19601f82011682018060405250810190610b969190611e43565b60200151604051636b52b36560e01b8152600481018690529091506000906001600160a01b03851690636b52b36590602401602060405180830381865afa158015610be5573d6000803e3d6000fd5b505050506040513d601f19601f82011682018060405250810190610c09919061200b565b9050806001600160a01b0383166370a08231336040516001600160e01b031960e084901b1681526001600160a01b039091166004820152602401602060405180830381865afa158015610c60573d6000803e3d6000fd5b505050506040513d601f19601f82011682018060405250810190610c84919061200b565b1015610cd25760405162461bcd60e51b815260206004820181905260248201527f52455041595f554e4445524c59494e4741535345545f4e4f545f454e4f554748604482015260640161063b565b610ce76001600160a01b03831633308461198b565b6103b9858484846113c7565b60007f00000000000000000000000000000000000000000000000000000000000000006001600160a01b0316631755ff216040518163ffffffff1660e01b8152600401602060405180830381865afa158015610d53573d6000803e3d6000fd5b505050506040513d601f19601f82011682018060405250810190610d779190611de1565b6001600160a01b03166391541e05866040518263ffffffff1660e01b8152600401610da491815260200190565b61018060405180830381865afa158015610dc2573d6000803e3d6000fd5b505050506040513d601f19601f82011682018060405250810190610de69190611e43565b6020015190507f00000000000000000000000000000000000000000000000000000000000000006001600160a01b0316816001600160a01b031614610e785760405162461bcd60e51b815260206004820152602260248201527f424f52524f575f4554485f524553455256455f41535345545f4e4f545f4d4154604482015261086960f31b606482015260840161063b565b6000610e8686868686610f5c565b604051632e1a7d4d60e01b8152600481018790529091507f00000000000000000000000000000000000000000000000000000000000000006001600160a01b031690632e1a7d4d90602401600060405180830381600087803b158015610eeb57600080fd5b505af1158015610eff573d6000803e3d6000fd5b50505050610f13610f0d3390565b866118f2565b604080518681526020810186905290810184905260608101829052339087907fd0f65229433ec4eae01027a1d44f915a610fadee0436aad3533c78340c7dfb9590608001610998565b604051630b02f02d60e31b81526004810182905260009081906001600160a01b037f000000000000000000000000000000000000000000000000000000000000000016906358178168906024016020604051808303816000875af1158015610fc8573d6000803e3d6000fd5b505050506040513d601f19601f82011682018060405250810190610fec9190611de1565b90506001600160a01b03811633146110465760405162461bcd60e51b815260206004820152601e60248201527f4445504f5349545f50554e4b5f4e4f545f4f574e45525f4f465f50554e4b0000604482015260640161063b565b60405163104c9fd360e31b8152600481018490527f00000000000000000000000000000000000000000000000000000000000000006001600160a01b031690638264fe9890602401600060405180830381600087803b1580156110a857600080fd5b505af11580156110bc573d6000803e3d6000fd5b50506000546040516322dca8bb60e21b81526001600160a01b039182166004820152602481018790527f00000000000000000000000000000000000000000000000000000000000000009091169250638b72a2ec9150604401600060405180830381600087803b15801561112f57600080fd5b505af1158015611143573d6000803e3d6000fd5b505060405163140e25ad60e31b8152600481018690527f00000000000000000000000000000000000000000000000000000000000000006001600160a01b0316925063a0712d689150602401600060405180830381600087803b1580156111a957600080fd5b505af11580156111bd573d6000803e3d6000fd5b5050505060007f00000000000000000000000000000000000000000000000000000000000000006001600160a01b0316631755ff216040518163ffffffff1660e01b8152600401602060405180830381865afa158015611221573d6000803e3d6000fd5b505050506040513d601f19601f820116820180604052508101906112459190611de1565b6040805163f668a9c560e01b8152600481018a905260248101899052604481018890526001600160a01b037f000000000000000000000000000000000000000000000000000000000000000081166064830152608482018890523360a48301529151929091169163f668a9c59160c48082019260209290919082900301816000875af11580156112d9573d6000803e3d6000fd5b505050506040513d601f19601f820116820180604052508101906112fd919061200b565b6040805188815260208101889052908101869052606081018290529091506001600160a01b0383169088907f8022857986a1f6403c350b6ffd0f3ceef7b305fe08e1bc74b0841f4d41d3a92d9060800160405180910390a39695505050505050565b6040516001600160a01b0383166024820152604481018290526113c290849063a9059cbb60e01b906064015b60408051601f198184030181529190526020810180516001600160e01b03166001600160e01b0319909316929092179091526119c9565b505050565b60007f00000000000000000000000000000000000000000000000000000000000000006001600160a01b03166335bc868a6040518163ffffffff1660e01b8152600401602060405180830381865afa158015611427573d6000803e3d6000fd5b505050506040513d601f19601f8201168201806040525081019061144b9190611de1565b6001600160a01b0316636352211e866040518263ffffffff1660e01b815260040161147891815260200190565b602060405180830381865afa158015611495573d6000803e3d6000fd5b505050506040513d601f19601f820116820180604052508101906114b99190611de1565b9050336001600160a01b038216146115135760405162461bcd60e51b815260206004820152601b60248201527f52455041595f555345525f4e4f545f4f574e5f5448455f4c4f414e0000000000604482015260640161063b565b7f00000000000000000000000000000000000000000000000000000000000000006001600160a01b031684602001516001600160a01b0316146115905760405162461bcd60e51b81526020600482015260156024820152742922a820acafa727aa2fa0afa82aa725afa627a0a760591b604482015260640161063b565b826001600160a01b031663095ea7b37f00000000000000000000000000000000000000000000000000000000000000006001600160a01b0316631755ff216040518163ffffffff1660e01b8152600401602060405180830381865afa1580156115fd573d6000803e3d6000fd5b505050506040513d601f19601f820116820180604052508101906116219190611de1565b6040516001600160e01b031960e084901b1681526001600160a01b039091166004820152602481018590526044016020604051808303816000875af115801561166e573d6000803e3d6000fd5b505050506040513d601f19601f820116820180604052508101906116929190612049565b507f00000000000000000000000000000000000000000000000000000000000000006001600160a01b0316631755ff216040518163ffffffff1660e01b8152600401602060405180830381865afa1580156116f1573d6000803e3d6000fd5b505050506040513d601f19601f820116820180604052508101906117159190611de1565b6001600160a01b031663371fd8e6866040518263ffffffff1660e01b815260040161174291815260200190565b6020604051808303816000875af1158015611761573d6000803e3d6000fd5b505050506040513d601f19601f82011682018060405250810190611785919061200b565b506040848101519051630852cd8d60e31b815260048101919091527f00000000000000000000000000000000000000000000000000000000000000006001600160a01b0316906342966c6890602401600060405180830381600087803b1580156117ee57600080fd5b505af1158015611802573d6000803e3d6000fd5b5050505060408481015190516322dca8bb60e21b81526001600160a01b03838116600483015260248201929092527f000000000000000000000000000000000000000000000000000000000000000090911690638b72a2ec90604401600060405180830381600087803b15801561187857600080fd5b505af115801561188c573d6000803e3d6000fd5b505050506118973390565b6001600160a01b031684600001517f4e209d95368098bc8c8a8b0010964bca5d6789b67388238d3a2bad8e236e54b08660400151886040516118e3929190918252602082015260400190565b60405180910390a35050505050565b6000826001600160a01b03168260405160006040518083038185875af1925050503d806000811461193f576040519150601f19603f3d011682016040523d82523d6000602084013e611944565b606091505b50509050806113c25760405162461bcd60e51b815260206004820152601360248201527211551217d514905394d1915497d19052531151606a1b604482015260640161063b565b6040516001600160a01b03808516602483015283166044820152606481018290526119c39085906323b872dd60e01b9060840161138b565b50505050565b6000611a1e826040518060400160405280602081526020017f5361666545524332303a206c6f772d6c6576656c2063616c6c206661696c6564815250856001600160a01b0316611a9b9092919063ffffffff16565b8051909150156113c25780806020019051810190611a3c9190612049565b6113c25760405162461bcd60e51b815260206004820152602a60248201527f5361666545524332303a204552433230206f7065726174696f6e20646964206e6044820152691bdd081cdd58d8d9595960b21b606482015260840161063b565b6060611aaa8484600085611ab4565b90505b9392505050565b606082471015611b155760405162461bcd60e51b815260206004820152602660248201527f416464726573733a20696e73756666696369656e742062616c616e636520666f6044820152651c8818d85b1b60d21b606482015260840161063b565b843b611b635760405162461bcd60e51b815260206004820152601d60248201527f416464726573733a2063616c6c20746f206e6f6e2d636f6e7472616374000000604482015260640161063b565b600080866001600160a01b03168587604051611b7f9190612090565b60006040518083038185875af1925050503d8060008114611bbc576040519150601f19603f3d011682016040523d82523d6000602084013e611bc1565b606091505b5091509150611bd1828286611bdc565b979650505050505050565b60608315611beb575081611aad565b825115611bfb5782518084602001fd5b8160405162461bcd60e51b815260040161063b91906120ac565b60008060008060808587031215611c2b57600080fd5b5050823594602084013594506040840135936060013592509050565b6001600160a01b0381168114611c5c57600080fd5b50565b634e487b7160e01b600052604160045260246000fd5b604051610180810167ffffffffffffffff81118282101715611c9957611c99611c5f565b60405290565b6040516101c0810167ffffffffffffffff81118282101715611c9957611c99611c5f565b604051601f8201601f1916810167ffffffffffffffff81118282101715611cec57611cec611c5f565b604052919050565b60008060008060808587031215611d0a57600080fd5b8435611d1581611c47565b9350602085810135611d2681611c47565b935060408601359250606086013567ffffffffffffffff80821115611d4a57600080fd5b818801915088601f830112611d5e57600080fd5b813581811115611d7057611d70611c5f565b611d82601f8201601f19168501611cc3565b91508082528984828501011115611d9857600080fd5b808484018584013760008482840101525080935050505092959194509250565b600060208284031215611dca57600080fd5b5035919050565b8051611ddc81611c47565b919050565b600060208284031215611df357600080fd5b8151611aad81611c47565b80516fffffffffffffffffffffffffffffffff81168114611ddc57600080fd5b805164ffffffffff81168114611ddc57600080fd5b80518015158114611ddc57600080fd5b60006101808284031215611e5657600080fd5b611e5e611c75565b82518152611e6e60208401611dd1565b6020820152611e7f60408401611dd1565b6040820152611e9060608401611dd1565b6060820152611ea160808401611dfe565b608082015260a083015160a082015260c083015160c0820152611ec660e08401611e1e565b60e08201526101008381015190820152610120611ee4818501611dd1565b908201526101408381015190820152610160611f01818501611e33565b908201529392505050565b805160068110611ddc57600080fd5b60006101c08284031215611f2e57600080fd5b611f36611c9f565b82518152611f4660208401611dd1565b602082015260408301516040820152611f6160608401611dd1565b606082015260808301516080820152611f7c60a08401611dfe565b60a0820152611f8d60c08401611dfe565b60c0820152611f9e60e08401611e1e565b60e0820152610100611fb1818501611e1e565b90820152610120611fc3848201611e1e565b90820152610140611fd5848201611e1e565b90820152610160611fe7848201611e1e565b90820152610180611ff9848201611e1e565b908201526101a0611f01848201611f0c565b60006020828403121561201d57600080fd5b5051919050565b60008282101561204457634e487b7160e01b600052601160045260246000fd5b500390565b60006020828403121561205b57600080fd5b611aad82611e33565b60005b8381101561207f578181015183820152602001612067565b838111156119c35750506000910152565b600082516120a2818460208701612064565b9190910192915050565b60208152600082518060208401526120cb816040850160208701612064565b601f01601f1916919091016040019291505056fea26469706673582212205f2204c19e610ef10a999eda856368df87ca374cb43f2be4efb4ea446ba55bb364736f6c634300080a0033",
  "devdoc": {
    "kind": "dev",
    "methods": {
      "onERC721Received(address,address,uint256,bytes)": {
        "details": "See {IERC721Receiver-onERC721Received}. Always returns `IERC721Receiver.onERC721Received.selector`."
      }
    },
    "version": 1
  },
  "userdoc": {
    "kind": "user",
    "methods": {
      "repay(uint256)": {
        "notice": "Only loan NFT owner can repay"
      }
    },
    "version": 1
  },
  "storageLayout": {
    "storage": [
      {
        "astId": 22123,
        "contract": "contracts/misc/OpenSkyPunkGateway.sol:OpenSkyPunkGateway",
        "label": "WPUNK_PROXY_ADDRESS",
        "offset": 0,
        "slot": "0",
        "type": "t_address"
      }
    ],
    "types": {
      "t_address": {
        "encoding": "inplace",
        "label": "address",
        "numberOfBytes": "20"
      }
    }
  }
}