{
  "address": "0x3e1a786cb18C421D566ad89fB6788A1cd813fa5A",
  "abi": [
    {
      "inputs": [
        {
          "internalType": "string",
          "name": "name",
          "type": "string"
        },
        {
          "internalType": "string",
          "name": "symbol",
          "type": "string"
        },
        {
          "internalType": "address",
          "name": "_settings",
          "type": "address"
        },
        {
          "internalType": "address",
          "name": "pool",
          "type": "address"
        }
      ],
      "stateMutability": "nonpayable",
      "type": "constructor"
    },
    {
      "anonymous": false,
      "inputs": [
        {
          "indexed": true,
          "internalType": "address",
          "name": "owner",
          "type": "address"
        },
        {
          "indexed": true,
          "internalType": "address",
          "name": "approved",
          "type": "address"
        },
        {
          "indexed": true,
          "internalType": "uint256",
          "name": "tokenId",
          "type": "uint256"
        }
      ],
      "name": "Approval",
      "type": "event"
    },
    {
      "anonymous": false,
      "inputs": [
        {
          "indexed": true,
          "internalType": "address",
          "name": "owner",
          "type": "address"
        },
        {
          "indexed": true,
          "internalType": "address",
          "name": "operator",
          "type": "address"
        },
        {
          "indexed": false,
          "internalType": "bool",
          "name": "approved",
          "type": "bool"
        }
      ],
      "name": "ApprovalForAll",
      "type": "event"
    },
    {
      "anonymous": false,
      "inputs": [
        {
          "indexed": true,
          "internalType": "address",
          "name": "token",
          "type": "address"
        },
        {
          "indexed": true,
          "internalType": "address",
          "name": "to",
          "type": "address"
        },
        {
          "indexed": false,
          "internalType": "uint256[]",
          "name": "ids",
          "type": "uint256[]"
        },
        {
          "indexed": false,
          "internalType": "uint256[]",
          "name": "amounts",
          "type": "uint256[]"
        },
        {
          "indexed": false,
          "internalType": "bytes",
          "name": "data",
          "type": "bytes"
        }
      ],
      "name": "ClaimERC1155Airdrop",
      "type": "event"
    },
    {
      "anonymous": false,
      "inputs": [
        {
          "indexed": true,
          "internalType": "address",
          "name": "token",
          "type": "address"
        },
        {
          "indexed": true,
          "internalType": "address",
          "name": "to",
          "type": "address"
        },
        {
          "indexed": false,
          "internalType": "uint256",
          "name": "amount",
          "type": "uint256"
        }
      ],
      "name": "ClaimERC20Airdrop",
      "type": "event"
    },
    {
      "anonymous": false,
      "inputs": [
        {
          "indexed": true,
          "internalType": "address",
          "name": "token",
          "type": "address"
        },
        {
          "indexed": true,
          "internalType": "address",
          "name": "to",
          "type": "address"
        },
        {
          "indexed": false,
          "internalType": "uint256[]",
          "name": "ids",
          "type": "uint256[]"
        }
      ],
      "name": "ClaimERC721Airdrop",
      "type": "event"
    },
    {
      "anonymous": false,
      "inputs": [
        {
          "indexed": true,
          "internalType": "uint256",
          "name": "tokenId",
          "type": "uint256"
        },
        {
          "indexed": true,
          "internalType": "address",
          "name": "onBehalfOf",
          "type": "address"
        },
        {
          "indexed": true,
          "internalType": "address",
          "name": "repayer",
          "type": "address"
        }
      ],
      "name": "End",
      "type": "event"
    },
    {
      "anonymous": false,
      "inputs": [
        {
          "indexed": true,
          "internalType": "uint256",
          "name": "tokenId",
          "type": "uint256"
        },
        {
          "indexed": true,
          "internalType": "address",
          "name": "liquidator",
          "type": "address"
        }
      ],
      "name": "EndLiquidation",
      "type": "event"
    },
    {
      "anonymous": false,
      "inputs": [
        {
          "indexed": true,
          "internalType": "address",
          "name": "receiver",
          "type": "address"
        },
        {
          "indexed": false,
          "internalType": "address",
          "name": "sender",
          "type": "address"
        },
        {
          "indexed": true,
          "internalType": "address",
          "name": "nftAddress",
          "type": "address"
        },
        {
          "indexed": true,
          "internalType": "uint256",
          "name": "tokenId",
          "type": "uint256"
        }
      ],
      "name": "FlashClaim",
      "type": "event"
    },
    {
      "anonymous": false,
      "inputs": [
        {
          "indexed": true,
          "internalType": "uint256",
          "name": "tokenId",
          "type": "uint256"
        },
        {
          "indexed": true,
          "internalType": "address",
          "name": "recipient",
          "type": "address"
        }
      ],
      "name": "Mint",
      "type": "event"
    },
    {
      "anonymous": false,
      "inputs": [
        {
          "indexed": true,
          "internalType": "address",
          "name": "previousOwner",
          "type": "address"
        },
        {
          "indexed": true,
          "internalType": "address",
          "name": "newOwner",
          "type": "address"
        }
      ],
      "name": "OwnershipTransferred",
      "type": "event"
    },
    {
      "anonymous": false,
      "inputs": [
        {
          "indexed": true,
          "internalType": "uint256",
          "name": "tokenId",
          "type": "uint256"
        },
        {
          "indexed": true,
          "internalType": "address",
          "name": "liquidator",
          "type": "address"
        }
      ],
      "name": "StartLiquidation",
      "type": "event"
    },
    {
      "anonymous": false,
      "inputs": [
        {
          "indexed": true,
          "internalType": "address",
          "name": "from",
          "type": "address"
        },
        {
          "indexed": true,
          "internalType": "address",
          "name": "to",
          "type": "address"
        },
        {
          "indexed": true,
          "internalType": "uint256",
          "name": "tokenId",
          "type": "uint256"
        }
      ],
      "name": "Transfer",
      "type": "event"
    },
    {
      "anonymous": false,
      "inputs": [
        {
          "indexed": true,
          "internalType": "uint256",
          "name": "tokenId",
          "type": "uint256"
        },
        {
          "indexed": true,
          "internalType": "enum DataTypes.LoanStatus",
          "name": "status",
          "type": "uint8"
        }
      ],
      "name": "UpdateStatus",
      "type": "event"
    },
    {
      "inputs": [],
      "name": "SETTINGS",
      "outputs": [
        {
          "internalType": "contract IOpenSkySettings",
          "name": "",
          "type": "address"
        }
      ],
      "stateMutability": "view",
      "type": "function"
    },
    {
      "inputs": [
        {
          "internalType": "address",
          "name": "to",
          "type": "address"
        },
        {
          "internalType": "uint256",
          "name": "tokenId",
          "type": "uint256"
        }
      ],
      "name": "approve",
      "outputs": [],
      "stateMutability": "nonpayable",
      "type": "function"
    },
    {
      "inputs": [
        {
          "internalType": "address",
          "name": "owner",
          "type": "address"
        }
      ],
      "name": "balanceOf",
      "outputs": [
        {
          "internalType": "uint256",
          "name": "",
          "type": "uint256"
        }
      ],
      "stateMutability": "view",
      "type": "function"
    },
    {
      "inputs": [
        {
          "internalType": "address",
          "name": "token",
          "type": "address"
        },
        {
          "internalType": "address",
          "name": "to",
          "type": "address"
        },
        {
          "internalType": "uint256[]",
          "name": "ids",
          "type": "uint256[]"
        },
        {
          "internalType": "uint256[]",
          "name": "amounts",
          "type": "uint256[]"
        },
        {
          "internalType": "bytes",
          "name": "data",
          "type": "bytes"
        }
      ],
      "name": "claimERC1155Airdrop",
      "outputs": [],
      "stateMutability": "nonpayable",
      "type": "function"
    },
    {
      "inputs": [
        {
          "internalType": "address",
          "name": "token",
          "type": "address"
        },
        {
          "internalType": "address",
          "name": "to",
          "type": "address"
        },
        {
          "internalType": "uint256",
          "name": "amount",
          "type": "uint256"
        }
      ],
      "name": "claimERC20Airdrop",
      "outputs": [],
      "stateMutability": "nonpayable",
      "type": "function"
    },
    {
      "inputs": [
        {
          "internalType": "address",
          "name": "token",
          "type": "address"
        },
        {
          "internalType": "address",
          "name": "to",
          "type": "address"
        },
        {
          "internalType": "uint256[]",
          "name": "ids",
          "type": "uint256[]"
        }
      ],
      "name": "claimERC721Airdrop",
      "outputs": [],
      "stateMutability": "nonpayable",
      "type": "function"
    },
    {
      "inputs": [
        {
          "internalType": "uint256",
          "name": "tokenId",
          "type": "uint256"
        },
        {
          "internalType": "address",
          "name": "onBehalfOf",
          "type": "address"
        },
        {
          "internalType": "address",
          "name": "repayer",
          "type": "address"
        }
      ],
      "name": "end",
      "outputs": [],
      "stateMutability": "nonpayable",
      "type": "function"
    },
    {
      "inputs": [
        {
          "internalType": "uint256",
          "name": "tokenId",
          "type": "uint256"
        }
      ],
      "name": "endLiquidation",
      "outputs": [],
      "stateMutability": "nonpayable",
      "type": "function"
    },
    {
      "inputs": [
        {
          "internalType": "address",
          "name": "receiverAddress",
          "type": "address"
        },
        {
          "internalType": "uint256[]",
          "name": "loanIds",
          "type": "uint256[]"
        },
        {
          "internalType": "bytes",
          "name": "params",
          "type": "bytes"
        }
      ],
      "name": "flashClaim",
      "outputs": [],
      "stateMutability": "nonpayable",
      "type": "function"
    },
    {
      "inputs": [
        {
          "internalType": "uint256",
          "name": "tokenId",
          "type": "uint256"
        }
      ],
      "name": "getApproved",
      "outputs": [
        {
          "internalType": "address",
          "name": "",
          "type": "address"
        }
      ],
      "stateMutability": "view",
      "type": "function"
    },
    {
      "inputs": [
        {
          "internalType": "uint256",
          "name": "tokenId",
          "type": "uint256"
        }
      ],
      "name": "getBorrowBalance",
      "outputs": [
        {
          "internalType": "uint256",
          "name": "",
          "type": "uint256"
        }
      ],
      "stateMutability": "view",
      "type": "function"
    },
    {
      "inputs": [
        {
          "internalType": "uint256",
          "name": "tokenId",
          "type": "uint256"
        }
      ],
      "name": "getBorrowInterest",
      "outputs": [
        {
          "internalType": "uint256",
          "name": "",
          "type": "uint256"
        }
      ],
      "stateMutability": "view",
      "type": "function"
    },
    {
      "inputs": [
        {
          "internalType": "uint256",
          "name": "tokenId",
          "type": "uint256"
        }
      ],
      "name": "getLoanData",
      "outputs": [
        {
          "components": [
            {
              "internalType": "uint256",
              "name": "reserveId",
              "type": "uint256"
            },
            {
              "internalType": "address",
              "name": "nftAddress",
              "type": "address"
            },
            {
              "internalType": "uint256",
              "name": "tokenId",
              "type": "uint256"
            },
            {
              "internalType": "address",
              "name": "borrower",
              "type": "address"
            },
            {
              "internalType": "uint256",
              "name": "amount",
              "type": "uint256"
            },
            {
              "internalType": "uint128",
              "name": "borrowRate",
              "type": "uint128"
            },
            {
              "internalType": "uint128",
              "name": "interestPerSecond",
              "type": "uint128"
            },
            {
              "internalType": "uint40",
              "name": "borrowBegin",
              "type": "uint40"
            },
            {
              "internalType": "uint40",
              "name": "borrowDuration",
              "type": "uint40"
            },
            {
              "internalType": "uint40",
              "name": "borrowOverdueTime",
              "type": "uint40"
            },
            {
              "internalType": "uint40",
              "name": "liquidatableTime",
              "type": "uint40"
            },
            {
              "internalType": "uint40",
              "name": "extendableTime",
              "type": "uint40"
            },
            {
              "internalType": "uint40",
              "name": "borrowEnd",
              "type": "uint40"
            },
            {
              "internalType": "enum DataTypes.LoanStatus",
              "name": "status",
              "type": "uint8"
            }
          ],
          "internalType": "struct DataTypes.LoanData",
          "name": "",
          "type": "tuple"
        }
      ],
      "stateMutability": "view",
      "type": "function"
    },
    {
      "inputs": [
        {
          "internalType": "address",
          "name": "",
          "type": "address"
        },
        {
          "internalType": "uint256",
          "name": "",
          "type": "uint256"
        }
      ],
      "name": "getLoanId",
      "outputs": [
        {
          "internalType": "uint256",
          "name": "",
          "type": "uint256"
        }
      ],
      "stateMutability": "view",
      "type": "function"
    },
    {
      "inputs": [
        {
          "internalType": "uint256",
          "name": "tokenId",
          "type": "uint256"
        }
      ],
      "name": "getPenalty",
      "outputs": [
        {
          "internalType": "uint256",
          "name": "",
          "type": "uint256"
        }
      ],
      "stateMutability": "view",
      "type": "function"
    },
    {
      "inputs": [
        {
          "internalType": "uint256",
          "name": "tokenId",
          "type": "uint256"
        }
      ],
      "name": "getStatus",
      "outputs": [
        {
          "internalType": "enum DataTypes.LoanStatus",
          "name": "",
          "type": "uint8"
        }
      ],
      "stateMutability": "view",
      "type": "function"
    },
    {
      "inputs": [
        {
          "internalType": "address",
          "name": "owner",
          "type": "address"
        },
        {
          "internalType": "address",
          "name": "operator",
          "type": "address"
        }
      ],
      "name": "isApprovedForAll",
      "outputs": [
        {
          "internalType": "bool",
          "name": "",
          "type": "bool"
        }
      ],
      "stateMutability": "view",
      "type": "function"
    },
    {
      "inputs": [
        {
          "internalType": "uint256",
          "name": "reserveId",
          "type": "uint256"
        },
        {
          "internalType": "address",
          "name": "borrower",
          "type": "address"
        },
        {
          "internalType": "address",
          "name": "nftAddress",
          "type": "address"
        },
        {
          "internalType": "uint256",
          "name": "nftTokenId",
          "type": "uint256"
        },
        {
          "internalType": "uint256",
          "name": "amount",
          "type": "uint256"
        },
        {
          "internalType": "uint256",
          "name": "duration",
          "type": "uint256"
        },
        {
          "internalType": "uint256",
          "name": "borrowRate",
          "type": "uint256"
        }
      ],
      "name": "mint",
      "outputs": [
        {
          "internalType": "uint256",
          "name": "loanId",
          "type": "uint256"
        },
        {
          "components": [
            {
              "internalType": "uint256",
              "name": "reserveId",
              "type": "uint256"
            },
            {
              "internalType": "address",
              "name": "nftAddress",
              "type": "address"
            },
            {
              "internalType": "uint256",
              "name": "tokenId",
              "type": "uint256"
            },
            {
              "internalType": "address",
              "name": "borrower",
              "type": "address"
            },
            {
              "internalType": "uint256",
              "name": "amount",
              "type": "uint256"
            },
            {
              "internalType": "uint128",
              "name": "borrowRate",
              "type": "uint128"
            },
            {
              "internalType": "uint128",
              "name": "interestPerSecond",
              "type": "uint128"
            },
            {
              "internalType": "uint40",
              "name": "borrowBegin",
              "type": "uint40"
            },
            {
              "internalType": "uint40",
              "name": "borrowDuration",
              "type": "uint40"
            },
            {
              "internalType": "uint40",
              "name": "borrowOverdueTime",
              "type": "uint40"
            },
            {
              "internalType": "uint40",
              "name": "liquidatableTime",
              "type": "uint40"
            },
            {
              "internalType": "uint40",
              "name": "extendableTime",
              "type": "uint40"
            },
            {
              "internalType": "uint40",
              "name": "borrowEnd",
              "type": "uint40"
            },
            {
              "internalType": "enum DataTypes.LoanStatus",
              "name": "status",
              "type": "uint8"
            }
          ],
          "internalType": "struct DataTypes.LoanData",
          "name": "loan",
          "type": "tuple"
        }
      ],
      "stateMutability": "nonpayable",
      "type": "function"
    },
    {
      "inputs": [],
      "name": "name",
      "outputs": [
        {
          "internalType": "string",
          "name": "",
          "type": "string"
        }
      ],
      "stateMutability": "view",
      "type": "function"
    },
    {
      "inputs": [
        {
          "internalType": "address",
          "name": "",
          "type": "address"
        },
        {
          "internalType": "address",
          "name": "",
          "type": "address"
        },
        {
          "internalType": "uint256[]",
          "name": "",
          "type": "uint256[]"
        },
        {
          "internalType": "uint256[]",
          "name": "",
          "type": "uint256[]"
        },
        {
          "internalType": "bytes",
          "name": "",
          "type": "bytes"
        }
      ],
      "name": "onERC1155BatchReceived",
      "outputs": [
        {
          "internalType": "bytes4",
          "name": "",
          "type": "bytes4"
        }
      ],
      "stateMutability": "nonpayable",
      "type": "function"
    },
    {
      "inputs": [
        {
          "internalType": "address",
          "name": "",
          "type": "address"
        },
        {
          "internalType": "address",
          "name": "",
          "type": "address"
        },
        {
          "internalType": "uint256",
          "name": "",
          "type": "uint256"
        },
        {
          "internalType": "uint256",
          "name": "",
          "type": "uint256"
        },
        {
          "internalType": "bytes",
          "name": "",
          "type": "bytes"
        }
      ],
      "name": "onERC1155Received",
      "outputs": [
        {
          "internalType": "bytes4",
          "name": "",
          "type": "bytes4"
        }
      ],
      "stateMutability": "nonpayable",
      "type": "function"
    },
    {
      "inputs": [
        {
          "internalType": "address",
          "name": "",
          "type": "address"
        },
        {
          "internalType": "address",
          "name": "",
          "type": "address"
        },
        {
          "internalType": "uint256",
          "name": "",
          "type": "uint256"
        },
        {
          "internalType": "bytes",
          "name": "",
          "type": "bytes"
        }
      ],
      "name": "onERC721Received",
      "outputs": [
        {
          "internalType": "bytes4",
          "name": "",
          "type": "bytes4"
        }
      ],
      "stateMutability": "nonpayable",
      "type": "function"
    },
    {
      "inputs": [],
      "name": "owner",
      "outputs": [
        {
          "internalType": "address",
          "name": "",
          "type": "address"
        }
      ],
      "stateMutability": "view",
      "type": "function"
    },
    {
      "inputs": [
        {
          "internalType": "uint256",
          "name": "tokenId",
          "type": "uint256"
        }
      ],
      "name": "ownerOf",
      "outputs": [
        {
          "internalType": "address",
          "name": "",
          "type": "address"
        }
      ],
      "stateMutability": "view",
      "type": "function"
    },
    {
      "inputs": [],
      "name": "renounceOwnership",
      "outputs": [],
      "stateMutability": "nonpayable",
      "type": "function"
    },
    {
      "inputs": [
        {
          "internalType": "address",
          "name": "from",
          "type": "address"
        },
        {
          "internalType": "address",
          "name": "to",
          "type": "address"
        },
        {
          "internalType": "uint256",
          "name": "tokenId",
          "type": "uint256"
        }
      ],
      "name": "safeTransferFrom",
      "outputs": [],
      "stateMutability": "nonpayable",
      "type": "function"
    },
    {
      "inputs": [
        {
          "internalType": "address",
          "name": "from",
          "type": "address"
        },
        {
          "internalType": "address",
          "name": "to",
          "type": "address"
        },
        {
          "internalType": "uint256",
          "name": "tokenId",
          "type": "uint256"
        },
        {
          "internalType": "bytes",
          "name": "_data",
          "type": "bytes"
        }
      ],
      "name": "safeTransferFrom",
      "outputs": [],
      "stateMutability": "nonpayable",
      "type": "function"
    },
    {
      "inputs": [
        {
          "internalType": "address",
          "name": "operator",
          "type": "address"
        },
        {
          "internalType": "bool",
          "name": "approved",
          "type": "bool"
        }
      ],
      "name": "setApprovalForAll",
      "outputs": [],
      "stateMutability": "nonpayable",
      "type": "function"
    },
    {
      "inputs": [
        {
          "internalType": "uint256",
          "name": "tokenId",
          "type": "uint256"
        }
      ],
      "name": "startLiquidation",
      "outputs": [],
      "stateMutability": "nonpayable",
      "type": "function"
    },
    {
      "inputs": [
        {
          "internalType": "bytes4",
          "name": "interfaceId",
          "type": "bytes4"
        }
      ],
      "name": "supportsInterface",
      "outputs": [
        {
          "internalType": "bool",
          "name": "",
          "type": "bool"
        }
      ],
      "stateMutability": "view",
      "type": "function"
    },
    {
      "inputs": [],
      "name": "symbol",
      "outputs": [
        {
          "internalType": "string",
          "name": "",
          "type": "string"
        }
      ],
      "stateMutability": "view",
      "type": "function"
    },
    {
      "inputs": [
        {
          "internalType": "uint256",
          "name": "index",
          "type": "uint256"
        }
      ],
      "name": "tokenByIndex",
      "outputs": [
        {
          "internalType": "uint256",
          "name": "",
          "type": "uint256"
        }
      ],
      "stateMutability": "view",
      "type": "function"
    },
    {
      "inputs": [
        {
          "internalType": "address",
          "name": "owner",
          "type": "address"
        },
        {
          "internalType": "uint256",
          "name": "index",
          "type": "uint256"
        }
      ],
      "name": "tokenOfOwnerByIndex",
      "outputs": [
        {
          "internalType": "uint256",
          "name": "",
          "type": "uint256"
        }
      ],
      "stateMutability": "view",
      "type": "function"
    },
    {
      "inputs": [
        {
          "internalType": "uint256",
          "name": "tokenId",
          "type": "uint256"
        }
      ],
      "name": "tokenURI",
      "outputs": [
        {
          "internalType": "string",
          "name": "",
          "type": "string"
        }
      ],
      "stateMutability": "view",
      "type": "function"
    },
    {
      "inputs": [],
      "name": "totalBorrows",
      "outputs": [
        {
          "internalType": "uint256",
          "name": "",
          "type": "uint256"
        }
      ],
      "stateMutability": "view",
      "type": "function"
    },
    {
      "inputs": [],
      "name": "totalSupply",
      "outputs": [
        {
          "internalType": "uint256",
          "name": "",
          "type": "uint256"
        }
      ],
      "stateMutability": "view",
      "type": "function"
    },
    {
      "inputs": [
        {
          "internalType": "address",
          "name": "from",
          "type": "address"
        },
        {
          "internalType": "address",
          "name": "to",
          "type": "address"
        },
        {
          "internalType": "uint256",
          "name": "tokenId",
          "type": "uint256"
        }
      ],
      "name": "transferFrom",
      "outputs": [],
      "stateMutability": "nonpayable",
      "type": "function"
    },
    {
      "inputs": [
        {
          "internalType": "address",
          "name": "newOwner",
          "type": "address"
        }
      ],
      "name": "transferOwnership",
      "outputs": [],
      "stateMutability": "nonpayable",
      "type": "function"
    },
    {
      "inputs": [
        {
          "internalType": "address",
          "name": "",
          "type": "address"
        }
      ],
      "name": "userBorrows",
      "outputs": [
        {
          "internalType": "uint256",
          "name": "",
          "type": "uint256"
        }
      ],
      "stateMutability": "view",
      "type": "function"
    }
  ],
  "transactionHash": "0xfe23b94c3d527d3653db303ffa1d13395ca1cf1f8e11b603c45a8da871e9ea7f",
  "args": [
    "OpenSky Loan",
    "OSL",
    "0x57528D98c3a8762c78f4D02a89CBc0Eaf77FD322",
    "0xf3Bc6651EFb2EdA164282804939D4ca16311ca87"
  ],
  "solcInputHash": "903b6e0b7a82abf3fd1d087256b904a8",
  "bytecode": "0x60a06040523480156200001157600080fd5b506040516200547038038062005470833981016040819052620000349162000292565b8351849084906200004d90600090602085019062000102565b5080516200006390600190602084019062000102565b505050620000806200007a620000ac60201b60201c565b620000b0565b6001600160a01b03918216608052601080546001600160a01b03191691909216179055506200035e9050565b3390565b600a80546001600160a01b038381166001600160a01b0319831681179093556040519116919082907f8be0079c531659141344cd1fd0a4f28419497f9722a3daafe3b4186f6b6457e090600090a35050565b828054620001109062000321565b90600052602060002090601f0160209004810192826200013457600085556200017f565b82601f106200014f57805160ff19168380011785556200017f565b828001600101855582156200017f579182015b828111156200017f57825182559160200191906001019062000162565b506200018d92915062000191565b5090565b5b808211156200018d576000815560010162000192565b634e487b7160e01b600052604160045260246000fd5b600082601f830112620001d057600080fd5b81516001600160401b0380821115620001ed57620001ed620001a8565b604051601f8301601f19908116603f01168101908282118183101715620002185762000218620001a8565b816040528381526020925086838588010111156200023557600080fd5b600091505b838210156200025957858201830151818301840152908201906200023a565b838211156200026b5760008385830101525b9695505050505050565b80516001600160a01b03811681146200028d57600080fd5b919050565b60008060008060808587031215620002a957600080fd5b84516001600160401b0380821115620002c157600080fd5b620002cf88838901620001be565b95506020870151915080821115620002e657600080fd5b50620002f587828801620001be565b935050620003066040860162000275565b9150620003166060860162000275565b905092959194509250565b600181811c908216806200033657607f821691505b602082108114156200035857634e487b7160e01b600052602260045260246000fd5b50919050565b6080516150b0620003c0600039600081816104e60152818161111a01528181611b320152818161206b0152818161211c01528181612412015281816124a2015281816125b10152818161286e01528181612f1801526132a601526150b06000f3fe608060405234801561001057600080fd5b506004361061023d5760003560e01c80636b52b3651161013b578063ade97ab5116100b8578063e3185e121161007c578063e3185e1214610560578063e985e9c514610573578063ed213bbf146105af578063f23a6e61146105c2578063f2fde38b146105e157600080fd5b8063ade97ab5146104e1578063b88d4fde14610508578063bc197c811461051b578063c87b56dd1461053a578063cae595531461054d57600080fd5b80638da5cb5b116100ff5780638da5cb5b1461048f57806395d89b41146104a057806396e59682146104a8578063980a8bd9146104bb578063a22cb465146104ce57600080fd5b80636b52b3651461042057806370a082311461043357806370b4ebeb14610446578063715018a61461046757806377593cc41461046f57600080fd5b806323b872dd116101c95780634f6ccce71161018d5780634f6ccce7146103a757806356308612146103ba5780635c622a0e146103cd578063622fe39f146103ed5780636352211e1461040d57600080fd5b806323b872dd146103525780632f745c591461036557806342842e0e1461037857806347bd37181461038b5780634f0709161461039457600080fd5b8063095ea7b311610210578063095ea7b3146102bf57806311615d30146102d2578063150b7a021461030b57806318160ddd146103375780631c1874951461033f57600080fd5b806301ffc9a71461024257806303282d6e1461026a57806306fdde031461027f578063081812fc14610294575b600080fd5b61025561025036600461421f565b6105f4565b60405190151581526020015b60405180910390f35b61027d6102783660046142dd565b610605565b005b610287610c2d565b60405161026191906143b7565b6102a76102a23660046143ca565b610cbf565b6040516001600160a01b039091168152602001610261565b61027d6102cd3660046143e3565b610d47565b6102fd6102e03660046143e3565b600c60209081526000928352604080842090915290825290205481565b604051908152602001610261565b61031e6103193660046144fb565b610e5d565b6040516001600160e01b03199091168152602001610261565b6008546102fd565b6102fd61034d3660046143ca565b610e6e565b61027d610360366004614566565b611034565b6102fd6103733660046143e3565b611065565b61027d610386366004614566565b6110fb565b6102fd600d5481565b61027d6103a2366004614566565b611116565b6102fd6103b53660046143ca565b6112b6565b61027d6103c83660046145a7565b611349565b6103e06103db3660046143ca565b6115b8565b6040516102619190614621565b6104006103fb3660046143ca565b6117a0565b604051610261919061472b565b6102a761041b3660046143ca565b61193d565b6102fd61042e3660046143ca565b6119b4565b6102fd61044136600461473a565b611a26565b610459610454366004614757565b611aad565b6040516102619291906147bc565b61027d611e6d565b6102fd61047d36600461473a565b600e6020526000908152604090205481565b600a546001600160a01b03166102a7565b610287611ed3565b6102fd6104b63660046143ca565b611ee2565b61027d6104c93660046143ca565b612182565b61027d6104dc3660046147df565b612306565b6102a77f000000000000000000000000000000000000000000000000000000000000000081565b61027d6105163660046144fb565b6123cb565b61031e61052936600461488c565b63bc197c8160e01b95945050505050565b6102876105483660046143ca565b612403565b61027d61055b366004614939565b6125ad565b61027d61056e36600461499d565b61286a565b610255610581366004614a5b565b6001600160a01b03918216600090815260056020908152604080832093909416825291909152205460ff1690565b61027d6105bd3660046143ca565b612a6f565b61031e6105d0366004614a89565b63f23a6e6160e01b95945050505050565b61027d6105ef36600461473a565b612bc2565b60006105ff826105f4565b92915050565b60008581856001600160401b038111156106215761062161440f565b60405190808252806020026020018201604052801561064a578160200160208202803683370190505b5090506000866001600160401b038111156106675761066761440f565b604051908082528060200260200182016040528015610690578160200160208202803683370190505b509050600093505b8684101561094a57336106c28989878181106106b6576106b6614af1565b9050602002013561193d565b6001600160a01b031614604051806040016040528060038152602001620d0c0d60ea1b8152509061070f5760405162461bcd60e51b815260040161070691906143b7565b60405180910390fd5b50600061073389898781811061072757610727614af1565b905060200201356115b8565b90506004816005811115610749576107496145e9565b1415801561076957506005816005811115610766576107666145e9565b14155b6040518060400160405280600381526020016234313160e81b815250906107a35760405162461bcd60e51b815260040161070691906143b7565b506000600b60008b8b898181106107bc576107bc614af1565b6020908102929092013583525081810192909252604090810160002081516101c0810183528154815260018201546001600160a01b039081169482019490945260028201549281019290925260038101549092166060820152600482015460808201526005808301546001600160801b0380821660a0850152600160801b9091041660c0830152600683015464ffffffffff80821660e0850152600160281b82048116610100850152600160501b82048116610120850152600160781b82048116610140850152600160a01b82048116610160850152600160c81b8204166101808401529192916101a0840191600160f01b90910460ff16908111156108c4576108c46145e9565b60058111156108d5576108d56145e9565b81525050905080602001518487815181106108f2576108f2614af1565b60200260200101906001600160a01b031690816001600160a01b031681525050806040015183878151811061092957610929614af1565b6020026020010181815250505050838061094290614b1d565b945050610698565b600093505b86841015610a185781848151811061096957610969614af1565b60200260200101516001600160a01b03166342842e0e308b84888151811061099357610993614af1565b60209081029190910101516040516001600160e01b031960e086901b1681526001600160a01b0393841660048201529290911660248301526044820152606401600060405180830381600087803b1580156109ed57600080fd5b505af1158015610a01573d6000803e3d6000fd5b505050508380610a1090614b1d565b94505061094f565b604051628e896f60e41b81526001600160a01b038416906308e896f090610a4d9085908590339030908d908d90600401614b61565b6020604051808303816000875af1158015610a6c573d6000803e3d6000fd5b505050506040513d601f19601f82011682018060405250810190610a909190614c25565b6040518060400160405280600381526020016203431360ec1b81525090610aca5760405162461bcd60e51b815260040161070691906143b7565b50600093505b86841015610c2257818481518110610aea57610aea614af1565b60200260200101516001600160a01b03166342842e0e8a30848881518110610b1457610b14614af1565b60209081029190910101516040516001600160e01b031960e086901b1681526001600160a01b0393841660048201529290911660248301526044820152606401600060405180830381600087803b158015610b6e57600080fd5b505af1158015610b82573d6000803e3d6000fd5b50505050808481518110610b9857610b98614af1565b6020026020010151828581518110610bb257610bb2614af1565b60200260200101516001600160a01b03168a6001600160a01b03167f6bac1c66016500cd7b62d69e86268760baac6cd34a70003af66ffa8a97983216610bf53390565b6040516001600160a01b03909116815260200160405180910390a483610c1a81614b1d565b945050610ad0565b505050505050505050565b606060008054610c3c90614c42565b80601f0160208091040260200160405190810160405280929190818152602001828054610c6890614c42565b8015610cb55780601f10610c8a57610100808354040283529160200191610cb5565b820191906000526020600020905b815481529060010190602001808311610c9857829003601f168201915b5050505050905090565b6000610cca82612c8d565b610d2b5760405162461bcd60e51b815260206004820152602c60248201527f4552433732313a20617070726f76656420717565727920666f72206e6f6e657860448201526b34b9ba32b73a103a37b5b2b760a11b6064820152608401610706565b506000908152600460205260409020546001600160a01b031690565b6000610d528261193d565b9050806001600160a01b0316836001600160a01b03161415610dc05760405162461bcd60e51b815260206004820152602160248201527f4552433732313a20617070726f76616c20746f2063757272656e74206f776e656044820152603960f91b6064820152608401610706565b336001600160a01b0382161480610ddc5750610ddc8133610581565b610e4e5760405162461bcd60e51b815260206004820152603860248201527f4552433732313a20617070726f76652063616c6c6572206973206e6f74206f7760448201527f6e6572206e6f7220617070726f76656420666f7220616c6c00000000000000006064820152608401610706565b610e588383612caa565b505050565b630a85bd0160e11b5b949350505050565b600081610e7a81612c8d565b6040518060400160405280600381526020016203430360ec1b81525090610eb45760405162461bcd60e51b815260040161070691906143b7565b506000838152600b6020908152604080832081516101c0810183528154815260018201546001600160a01b039081169482019490945260028201549281019290925260038101549092166060820152600482015460808201526005808301546001600160801b0380821660a0850152600160801b9091041660c0830152600683015464ffffffffff80821660e0850152600160281b82048116610100850152600160501b82048116610120850152600160781b82048116610140850152600160a01b82048116610160850152600160c81b8204166101808401529192916101a0840191600160f01b90910460ff1690811115610fb257610fb26145e9565b6005811115610fc357610fc36145e9565b81525050905060008082610180015164ffffffffff1611610fe45742610ff2565b81610180015164ffffffffff165b90506110296110158360e0015164ffffffffff1683612d1890919063ffffffff16565b60c08401516001600160801b031690612d24565b935050505b50919050565b61103e3382612de0565b61105a5760405162461bcd60e51b815260040161070690614c77565b610e58838383612ec6565b600061107083611a26565b82106110d25760405162461bcd60e51b815260206004820152602b60248201527f455243373231456e756d657261626c653a206f776e657220696e646578206f7560448201526a74206f6620626f756e647360a81b6064820152608401610706565b506001600160a01b03919091166000908152600660209081526040808320938352929052205490565b610e58838383604051806020016040528060008152506123cb565b60007f00000000000000000000000000000000000000000000000000000000000000006001600160a01b0316639a9dbb996040518163ffffffff1660e01b8152600401602060405180830381865afa158015611176573d6000803e3d6000fd5b505050506040513d601f19601f8201168201806040525081019061119a9190614cc8565b90506001600160a01b038116639078c85a336040516001600160e01b031960e084901b1681526001600160a01b039091166004820152602401602060405180830381865afa1580156111f0573d6000803e3d6000fd5b505050506040513d601f19601f820116820180604052508101906112149190614c25565b6040518060400160405280600381526020016232303560e81b8152509061124e5760405162461bcd60e51b815260040161070691906143b7565b506112636001600160a01b0385168484613250565b826001600160a01b0316846001600160a01b03167f81275949a17d84915b61eeb24587a501cc8863011afba1ed12f3f6c5bdfd6a21846040516112a891815260200190565b60405180910390a350505050565b60006112c160085490565b82106113245760405162461bcd60e51b815260206004820152602c60248201527f455243373231456e756d657261626c653a20676c6f62616c20696e646578206f60448201526b7574206f6620626f756e647360a01b6064820152608401610706565b6008828154811061133757611337614af1565b90600052602060002001549050919050565b6010546001600160a01b0316336001600160a01b0316146040518060400160405280600381526020016219181b60e91b8152509061139a5760405162461bcd60e51b815260040161070691906143b7565b50826113a581612c8d565b6040518060400160405280600381526020016203430360ec1b815250906113df5760405162461bcd60e51b815260040161070691906143b7565b50826001600160a01b03166113f38561193d565b6001600160a01b031614604051806040016040528060038152602001621a181960e91b815250906114375760405162461bcd60e51b815260040161070691906143b7565b5060056000858152600b6020526040902060060154600160f01b900460ff166005811115611467576114676145e9565b146114f15760006114778561193d565b9050611482816132a2565b6000858152600b60209081526040808320600401546001600160a01b0385168452600e909252909120546114b591612d18565b6001600160a01b0382166000908152600e6020908152604080832093909355878252600b90522060040154600d546114ec91612d18565b600d55505b6114fa846133ba565b6000848152600b602081815260408084206001810180546001600160a01b039081168752600c855283872060028401805489529086528488208890558b88529590945285825580546001600160a01b0319908116909155938590556003810180549094169093556004830184905560058301849055600690920180546001600160f81b03191690559051848216929186169187917f2b23481a24e3c10d00df04743856de486787a766f4dcbf88f1bd1281466a8d089190a450505050565b6000816115c481612c8d565b6040518060400160405280600381526020016203430360ec1b815250906115fe5760405162461bcd60e51b815260040161070691906143b7565b506000838152600b6020908152604080832081516101c0810183528154815260018201546001600160a01b039081169482019490945260028201549281019290925260038101549092166060820152600482015460808201526005808301546001600160801b0380821660a0850152600160801b9091041660c0830152600683015464ffffffffff80821660e0850152600160281b82048116610100850152600160501b82048116610120850152600160781b82048116610140850152600160a01b82048116610160850152600160c81b8204166101808401529192916101a0840191600160f01b90910460ff16908111156116fc576116fc6145e9565b600581111561170d5761170d6145e9565b9052506000858152600b6020526040902060060154909150600160f01b900460ff166001816005811115611743576117436145e9565b1415610e66574282610140015164ffffffffff16101561176557506004610e66565b4282610120015164ffffffffff16101561178157506003610e66565b4282610160015164ffffffffff161015610e6657506002949350505050565b6117a8614197565b816117b281612c8d565b6040518060400160405280600381526020016203430360ec1b815250906117ec5760405162461bcd60e51b815260040161070691906143b7565b506000838152600b6020908152604080832081516101c0810183528154815260018201546001600160a01b039081169482019490945260028201549281019290925260038101549092166060820152600482015460808201526005808301546001600160801b0380821660a0850152600160801b9091041660c0830152600683015464ffffffffff80821660e0850152600160281b82048116610100850152600160501b82048116610120850152600160781b82048116610140850152600160a01b82048116610160850152600160c81b8204166101808401529192916101a0840191600160f01b90910460ff16908111156118ea576118ea6145e9565b60058111156118fb576118fb6145e9565b9052509050611909846115b8565b816101a001906005811115611920576119206145e9565b90816005811115611933576119336145e9565b9052509392505050565b6000818152600260205260408120546001600160a01b0316806105ff5760405162461bcd60e51b815260206004820152602960248201527f4552433732313a206f776e657220717565727920666f72206e6f6e657869737460448201526832b73a103a37b5b2b760b91b6064820152608401610706565b6000816119c081612c8d565b6040518060400160405280600381526020016203430360ec1b815250906119fa5760405162461bcd60e51b815260040161070691906143b7565b50611a1f611a0784610e6e565b6000858152600b602052604090206004015490613461565b9392505050565b60006001600160a01b038216611a915760405162461bcd60e51b815260206004820152602a60248201527f4552433732313a2062616c616e636520717565727920666f7220746865207a65604482015269726f206164647265737360b01b6064820152608401610706565b506001600160a01b031660009081526003602052604090205490565b6000611ab7614197565b6010546001600160a01b0316336001600160a01b0316146040518060400160405280600381526020016219181b60e91b81525090611b085760405162461bcd60e51b815260040161070691906143b7565b50604051639dce429960e01b8152600481018a90526001600160a01b0388811660248301526000917f000000000000000000000000000000000000000000000000000000000000000090911690639dce429990604401600060405180830381865afa158015611b7b573d6000803e3d6000fd5b505050506040513d6000823e601f3d908101601f19168201604052611ba39190810190614d2a565b6040805160a0810182526000602082018190529181018290526060810182905260808101919091524264ffffffffff8116825291925090611be49087613461565b64ffffffffff16602082015260e0820151611c0990611c034289613461565b90613461565b64ffffffffff16604082015260c0820151611c2e90611c284289613461565b90612d18565b64ffffffffff16606082015260405162c2de0960e41b81526004810186905260248101889052734648bb80A8d14C8777321F1b4cbb1B016696102d90630c2de09090604401602060405180830381865af4158015611c90573d6000803e3d6000fd5b505050506040513d601f19601f82011682018060405250810190611cb49190614e01565b816080018181525050604051806101c001604052808c81526020018a6001600160a01b031681526020018981526020018b6001600160a01b03168152602001888152602001866001600160801b0316815260200182608001516001600160801b03168152602001826000015164ffffffffff1681526020018764ffffffffff168152602001826020015164ffffffffff168152602001826040015164ffffffffff168152602001826060015164ffffffffff168152602001600064ffffffffff16815260200160016005811115611d8d57611d8d6145e9565b90529250611d9b838b61346d565b6020840151601054604080870151905163095ea7b360e01b81526001600160a01b0392831660048201526024810191909152929650169063095ea7b390604401600060405180830381600087803b158015611df557600080fd5b505af1158015611e09573d6000803e3d6000fd5b505050506001600160a01b038981166000908152600c602090815260408083208c845290915280822087905551918c169186917ff3cea5493d790af0133817606f7350a91d7f154ea52eaa79d179d4d231e5010291a3505097509795505050505050565b600a546001600160a01b03163314611ec75760405162461bcd60e51b815260206004820181905260248201527f4f776e61626c653a2063616c6c6572206973206e6f7420746865206f776e65726044820152606401610706565b611ed16000613682565b565b606060018054610c3c90614c42565b600081611eee81612c8d565b6040518060400160405280600381526020016203430360ec1b81525090611f285760405162461bcd60e51b815260040161070691906143b7565b506000611f34846115b8565b6000858152600b6020908152604080832081516101c0810183528154815260018201546001600160a01b039081169482019490945260028201549281019290925260038101549092166060820152600482015460808201526005808301546001600160801b0380821660a0850152600160801b9091041660c0830152600683015464ffffffffff80821660e0850152600160281b82048116610100850152600160501b82048116610120850152600160781b82048116610140850152600160a01b82048116610160850152600160c81b820416610180840152949550929390926101a0840191600160f01b900460ff1690811115612034576120346145e9565b6005811115612045576120456145e9565b905250905060006001836005811115612060576120606145e9565b14156120fd576120f67f00000000000000000000000000000000000000000000000000000000000000006001600160a01b031663ce87179f6040518163ffffffff1660e01b8152600401602060405180830381865afa1580156120c7573d6000803e3d6000fd5b505050506040513d601f19601f820116820180604052508101906120eb9190614e01565b6080840151906136d4565b9050611029565b6003836005811115612111576121116145e9565b1415611029576121787f00000000000000000000000000000000000000000000000000000000000000006001600160a01b031663d7a5a9d36040518163ffffffff1660e01b8152600401602060405180830381865afa1580156120c7573d6000803e3d6000fd5b9695505050505050565b6010546001600160a01b0316336001600160a01b0316146040518060400160405280600381526020016219181b60e91b815250906121d35760405162461bcd60e51b815260040161070691906143b7565b50806121de81612c8d565b6040518060400160405280600381526020016203430360ec1b815250906122185760405162461bcd60e51b815260040161070691906143b7565b5061222482600561375e565b6000828152600b60205260408120600601805464ffffffffff60c81b1916600160c81b4264ffffffffff160217905561225c8361193d565b9050612267816132a2565b6000838152600b60209081526040808320600401546001600160a01b0385168452600e9092529091205461229a91612d18565b6001600160a01b0382166000908152600e6020908152604080832093909355858252600b90522060040154600d546122d191612d18565b600d55604051339084907f59173af14430de8eac2adf90a01b6fa0f9309c0a43c38c2d0757fecd34be291590600090a3505050565b6001600160a01b03821633141561235f5760405162461bcd60e51b815260206004820152601960248201527f4552433732313a20617070726f766520746f2063616c6c6572000000000000006044820152606401610706565b3360008181526005602090815260408083206001600160a01b03871680855290835292819020805460ff191686151590811790915590519081529192917f17307eab39ab6107e8899845ad3d59bd9653f200f220920489ca2b5937696c31910160405180910390a35050565b6123d53383612de0565b6123f15760405162461bcd60e51b815260040161070690614c77565b6123fd848484846138a8565b50505050565b606060006001600160a01b03167f00000000000000000000000000000000000000000000000000000000000000006001600160a01b03166397dfa0d16040518163ffffffff1660e01b8152600401602060405180830381865afa15801561246e573d6000803e3d6000fd5b505050506040513d601f19601f820116820180604052508101906124929190614cc8565b6001600160a01b031614612594577f00000000000000000000000000000000000000000000000000000000000000006001600160a01b03166397dfa0d16040518163ffffffff1660e01b8152600401602060405180830381865afa1580156124fe573d6000803e3d6000fd5b505050506040513d601f19601f820116820180604052508101906125229190614cc8565b6001600160a01b031663c87b56dd836040518263ffffffff1660e01b815260040161254f91815260200190565b600060405180830381865afa15801561256c573d6000803e3d6000fd5b505050506040513d6000823e601f3d908101601f191682016040526105ff9190810190614e1a565b505060408051602081019091526000815290565b919050565b60007f00000000000000000000000000000000000000000000000000000000000000006001600160a01b0316639a9dbb996040518163ffffffff1660e01b8152600401602060405180830381865afa15801561260d573d6000803e3d6000fd5b505050506040513d601f19601f820116820180604052508101906126319190614cc8565b90506001600160a01b038116639078c85a336040516001600160e01b031960e084901b1681526001600160a01b039091166004820152602401602060405180830381865afa158015612687573d6000803e3d6000fd5b505050506040513d601f19601f820116820180604052508101906126ab9190614c25565b6040518060400160405280600381526020016232303560e81b815250906126e55760405162461bcd60e51b815260040161070691906143b7565b5060005b82811015612815576001600160a01b0386166000908152600c602052604081209085858481811061271c5761271c614af1565b905060200201358152602001908152602001600020546000146040518060400160405280600381526020016234303560e81b8152509061276f5760405162461bcd60e51b815260040161070691906143b7565b50856001600160a01b03166342842e0e308787878681811061279357612793614af1565b6040516001600160e01b031960e088901b1681526001600160a01b03958616600482015294909316602485015250602090910201356044820152606401600060405180830381600087803b1580156127ea57600080fd5b505af11580156127fe573d6000803e3d6000fd5b50505050808061280d90614b1d565b9150506126e9565b50836001600160a01b0316856001600160a01b03167f6c6b18e67b757c02ba92ef0f54038fc2135767acf9bef174b8780835ff455822858560405161285b929190614e84565b60405180910390a35050505050565b60007f00000000000000000000000000000000000000000000000000000000000000006001600160a01b0316639a9dbb996040518163ffffffff1660e01b8152600401602060405180830381865afa1580156128ca573d6000803e3d6000fd5b505050506040513d601f19601f820116820180604052508101906128ee9190614cc8565b90506001600160a01b038116639078c85a336040516001600160e01b031960e084901b1681526001600160a01b039091166004820152602401602060405180830381865afa158015612944573d6000803e3d6000fd5b505050506040513d601f19601f820116820180604052508101906129689190614c25565b6040518060400160405280600381526020016232303560e81b815250906129a25760405162461bcd60e51b815260040161070691906143b7565b50604051631759616b60e11b81526001600160a01b038a1690632eb2c2d6906129dd9030908c908c908c908c908c908c908c90600401614e98565b600060405180830381600087803b1580156129f757600080fd5b505af1158015612a0b573d6000803e3d6000fd5b50505050876001600160a01b0316896001600160a01b03167fc8144f7a11a69e58de79275b3e7420b4942b4e8318a0e0aa9ccb457c60387b02898989898989604051612a5c96959493929190614eed565b60405180910390a3505050505050505050565b6010546001600160a01b0316336001600160a01b0316146040518060400160405280600381526020016219181b60e91b81525090612ac05760405162461bcd60e51b815260040161070691906143b7565b5080612acb81612c8d565b6040518060400160405280600381526020016203430360ec1b81525090612b055760405162461bcd60e51b815260040161070691906143b7565b50612b0f826133ba565b6000828152600b602081815260408084206001810180546001600160a01b03168652600c845282862060028301805488529085528387208790558887529490935284815582546001600160a01b0319908116909355928490556003830180549092169091556004820183905560058201839055600690910180546001600160f81b031916905551339184917ffd2b5951436d1ea366069166d930e14be3feb38021ab9cb0269ba75b3db9af8c9190a35050565b600a546001600160a01b03163314612c1c5760405162461bcd60e51b815260206004820181905260248201527f4f776e61626c653a2063616c6c6572206973206e6f7420746865206f776e65726044820152606401610706565b6001600160a01b038116612c815760405162461bcd60e51b815260206004820152602660248201527f4f776e61626c653a206e6577206f776e657220697320746865207a65726f206160448201526564647265737360d01b6064820152608401610706565b612c8a81613682565b50565b6000908152600260205260409020546001600160a01b0316151590565b600081815260046020526040902080546001600160a01b0319166001600160a01b0384169081179091558190612cdf8261193d565b6001600160a01b03167f8c5be1e5ebec7d5bd14f71427d1e84f3dd0314c0f7b2291e5b200ac8c7c3b92560405160405180910390a45050565b6000611a1f8284614f36565b6000821580612d31575081155b15612d3e575060006105ff565b81612d5660026b033b2e3c9fd0803ce8000000614f4d565b612d6290600019614f36565b612d6c9190614f4d565b8311156040518060400160405280600381526020016203130360ec1b81525090612da95760405162461bcd60e51b815260040161070691906143b7565b506b033b2e3c9fd0803ce8000000612dc2600282614f4d565b612dcc8486614f6f565b612dd69190614f8e565b611a1f9190614f4d565b6000612deb82612c8d565b612e4c5760405162461bcd60e51b815260206004820152602c60248201527f4552433732313a206f70657261746f7220717565727920666f72206e6f6e657860448201526b34b9ba32b73a103a37b5b2b760a11b6064820152608401610706565b6000612e578361193d565b9050806001600160a01b0316846001600160a01b03161480612e925750836001600160a01b0316612e8784610cbf565b6001600160a01b0316145b80610e6657506001600160a01b0380821660009081526005602090815260408083209388168352929052205460ff16610e66565b612ed18383836138db565b6000612edc826115b8565b90506001816005811115612ef257612ef26145e9565b1480612f0f57506002816005811115612f0d57612f0d6145e9565b145b156123fd5760007f00000000000000000000000000000000000000000000000000000000000000006001600160a01b0316636d6a723c6040518163ffffffff1660e01b8152600401602060405180830381865afa158015612f74573d6000803e3d6000fd5b505050506040513d601f19601f82011682018060405250810190612f989190614cc8565b6000848152600b6020908152604080832081516101c0810183528154815260018201546001600160a01b039081169482019490945260028201549281019290925260038101549092166060820152600482015460808201526005808301546001600160801b0380821660a0850152600160801b9091041660c0830152600683015464ffffffffff80821660e0850152600160281b82048116610100850152600160501b82048116610120850152600160781b82048116610140850152600160a01b82048116610160850152600160c81b820416610180840152949550929390926101a0840191600160f01b900460ff1690811115613098576130986145e9565b60058111156130a9576130a96145e9565b90525090506001600160a01b038216156131d2576001600160a01b038681166000818152600e60205260409081902054600d5491516318c39f1760e11b815260048101939093526024830152604482015283918216906331873e2e90606401600060405180830381600087803b15801561312257600080fd5b505af1158015613136573d6000803e3d6000fd5b50505050856001600160a01b0316876001600160a01b0316146131d0576001600160a01b038681166000818152600e60205260409081902054600d5491516318c39f1760e11b8152600481019390935260248301526044820152908216906331873e2e90606401600060405180830381600087803b1580156131b757600080fd5b505af11580156131cb573d6000803e3d6000fd5b505050505b505b60808101516001600160a01b0387166000908152600e60205260409020546131f991612d18565b6001600160a01b038088166000908152600e60205260408082209390935560808401519188168152919091205461322f91613461565b6001600160a01b0386166000908152600e6020526040902055505050505050565b604080516001600160a01b038416602482015260448082018490528251808303909101815260649091019091526020810180516001600160e01b031663a9059cbb60e01b179052610e58908490613a86565b60007f00000000000000000000000000000000000000000000000000000000000000006001600160a01b0316636d6a723c6040518163ffffffff1660e01b8152600401602060405180830381865afa158015613302573d6000803e3d6000fd5b505050506040513d601f19601f820116820180604052508101906133269190614cc8565b90506001600160a01b038116156133b6576001600160a01b038281166000818152600e60205260409081902054600d5491516318c39f1760e11b815260048101939093526024830152604482015282918216906331873e2e90606401600060405180830381600087803b15801561339c57600080fd5b505af11580156133b0573d6000803e3d6000fd5b50505050505b5050565b60006133c58261193d565b90506133d381600084613b58565b6133de600083612caa565b6001600160a01b0381166000908152600360205260408120805460019290613407908490614f36565b909155505060008281526002602052604080822080546001600160a01b0319169055518391906001600160a01b038416907fddf252ad1be2c89b69c2b068fc378daa952ba7f163c4a11628f55a4df523b3ef908390a45050565b6000611a1f8284614f8e565b600061347d600f80546001019055565b50600f5461348b8282613c10565b6000818152600b602090815260409182902085518155908501516001820180546001600160a01b039283166001600160a01b0319918216179091559286015160028301556060860151600383018054919092169316929092179091556080840151600482015560a084015160c08501516001600160801b03908116600160801b0291161760058083019190915560e08501516006830180546101008801516101208901516101408a01516101608b01516101808c015164ffffffffff908116600160c81b0264ffffffffff60c81b19928216600160a01b029290921669ffffffffffffffffffff60a01b19938216600160781b0264ffffffffff60781b19958316600160501b029590951669ffffffffffffffffffff60501b19968316600160281b0269ffffffffffffffffffff199098169290991691909117959095179390931695909517179390931617919091178082556101a087015187949390929160ff60f01b191690600160f01b908490811115613609576136096145e9565b021790555090505061361e83606001516132a2565b6080830151600d5461362f91613461565b600d55608083015160608401516001600160a01b03166000908152600e602052604090205461365d91613461565b6060909301516001600160a01b03166000908152600e60205260409020929092555090565b600a80546001600160a01b038381166001600160a01b0319831681179093556040519116919082907f8be0079c531659141344cd1fd0a4f28419497f9722a3daafe3b4186f6b6457e090600090a35050565b60008215806136e1575081155b156136ee575060006105ff565b816136fc6002612710614f4d565b61370890600019614f36565b6137129190614f4d565b8311156040518060400160405280600381526020016203130360ec1b8152509061374f5760405162461bcd60e51b815260040161070691906143b7565b50612710612dc2600282614f4d565b6000828152600b6020526040902060056006820154600160f01b900460ff16600581111561378e5761378e6145e9565b14156040518060400160405280600381526020016234303360e81b815250906137ca5760405162461bcd60e51b815260040161070691906143b7565b508160058111156137dd576137dd6145e9565b6006820154600160f01b900460ff1660058111156137fd576137fd6145e9565b14156040518060400160405280600381526020016234303160e81b815250906138395760405162461bcd60e51b815260040161070691906143b7565b5060068101805483919060ff60f01b1916600160f01b836005811115613861576138616145e9565b0217905550816005811115613878576138786145e9565b60405184907f1ec5c05690dbdf3fe6eeaa13c3026d2706bba8ff773391bf70f15b407fb1658890600090a3505050565b6138b3848484612ec6565b6138bf84848484613c2a565b6123fd5760405162461bcd60e51b815260040161070690614fa6565b826001600160a01b03166138ee8261193d565b6001600160a01b0316146139565760405162461bcd60e51b815260206004820152602960248201527f4552433732313a207472616e73666572206f6620746f6b656e2074686174206960448201526839903737ba1037bbb760b91b6064820152608401610706565b6001600160a01b0382166139b85760405162461bcd60e51b8152602060048201526024808201527f4552433732313a207472616e7366657220746f20746865207a65726f206164646044820152637265737360e01b6064820152608401610706565b6139c3838383613b58565b6139ce600082612caa565b6001600160a01b03831660009081526003602052604081208054600192906139f7908490614f36565b90915550506001600160a01b0382166000908152600360205260408120805460019290613a25908490614f8e565b909155505060008181526002602052604080822080546001600160a01b0319166001600160a01b0386811691821790925591518493918716917fddf252ad1be2c89b69c2b068fc378daa952ba7f163c4a11628f55a4df523b3ef91a4505050565b6000613adb826040518060400160405280602081526020017f5361666545524332303a206c6f772d6c6576656c2063616c6c206661696c6564815250856001600160a01b0316613d259092919063ffffffff16565b805190915015610e585780806020019051810190613af99190614c25565b610e585760405162461bcd60e51b815260206004820152602a60248201527f5361666545524332303a204552433230206f7065726174696f6e20646964206e6044820152691bdd081cdd58d8d9595960b21b6064820152608401610706565b6001600160a01b038316613bb357613bae81600880546000838152600960205260408120829055600182018355919091527ff3f7a9fe364faab93b216da50a3214154f22a0a2b415b23a84c8169e8b636ee30155565b613bd6565b816001600160a01b0316836001600160a01b031614613bd657613bd68382613d34565b6001600160a01b038216613bed57610e5881613dd1565b826001600160a01b0316826001600160a01b031614610e5857610e588282613e80565b6133b6828260405180602001604052806000815250613ec4565b60006001600160a01b0384163b15613d1d57604051630a85bd0160e11b81526001600160a01b0385169063150b7a0290613c6e903390899088908890600401614ff8565b6020604051808303816000875af1925050508015613ca9575060408051601f3d908101601f19168201909252613ca69181019061502b565b60015b613d03573d808015613cd7576040519150601f19603f3d011682016040523d82523d6000602084013e613cdc565b606091505b508051613cfb5760405162461bcd60e51b815260040161070690614fa6565b805181602001fd5b6001600160e01b031916630a85bd0160e11b149050610e66565b506001610e66565b6060610e668484600085613ef7565b60006001613d4184611a26565b613d4b9190614f36565b600083815260076020526040902054909150808214613d9e576001600160a01b03841660009081526006602090815260408083208584528252808320548484528184208190558352600790915290208190555b5060009182526007602090815260408084208490556001600160a01b039094168352600681528383209183525290812055565b600854600090613de390600190614f36565b60008381526009602052604081205460088054939450909284908110613e0b57613e0b614af1565b906000526020600020015490508060088381548110613e2c57613e2c614af1565b6000918252602080832090910192909255828152600990915260408082208490558582528120556008805480613e6457613e64615048565b6001900381819060005260206000200160009055905550505050565b6000613e8b83611a26565b6001600160a01b039093166000908152600660209081526040808320868452825280832085905593825260079052919091209190915550565b613ece838361401f565b613edb6000848484613c2a565b610e585760405162461bcd60e51b815260040161070690614fa6565b606082471015613f585760405162461bcd60e51b815260206004820152602660248201527f416464726573733a20696e73756666696369656e742062616c616e636520666f6044820152651c8818d85b1b60d21b6064820152608401610706565b843b613fa65760405162461bcd60e51b815260206004820152601d60248201527f416464726573733a2063616c6c20746f206e6f6e2d636f6e74726163740000006044820152606401610706565b600080866001600160a01b03168587604051613fc2919061505e565b60006040518083038185875af1925050503d8060008114613fff576040519150601f19603f3d011682016040523d82523d6000602084013e614004565b606091505b509150915061401482828661415e565b979650505050505050565b6001600160a01b0382166140755760405162461bcd60e51b815260206004820181905260248201527f4552433732313a206d696e7420746f20746865207a65726f20616464726573736044820152606401610706565b61407e81612c8d565b156140cb5760405162461bcd60e51b815260206004820152601c60248201527f4552433732313a20746f6b656e20616c7265616479206d696e746564000000006044820152606401610706565b6140d760008383613b58565b6001600160a01b0382166000908152600360205260408120805460019290614100908490614f8e565b909155505060008181526002602052604080822080546001600160a01b0319166001600160a01b03861690811790915590518392907fddf252ad1be2c89b69c2b068fc378daa952ba7f163c4a11628f55a4df523b3ef908290a45050565b6060831561416d575081611a1f565b82511561417d5782518084602001fd5b8160405162461bcd60e51b815260040161070691906143b7565b604080516101c081018252600080825260208201819052918101829052606081018290526080810182905260a0810182905260c0810182905260e0810182905261010081018290526101208101829052610140810182905261016081018290526101808101829052906101a082015290565b6001600160e01b031981168114612c8a57600080fd5b60006020828403121561423157600080fd5b8135611a1f81614209565b6001600160a01b0381168114612c8a57600080fd5b60008083601f84011261426357600080fd5b5081356001600160401b0381111561427a57600080fd5b6020830191508360208260051b850101111561429557600080fd5b9250929050565b60008083601f8401126142ae57600080fd5b5081356001600160401b038111156142c557600080fd5b60208301915083602082850101111561429557600080fd5b6000806000806000606086880312156142f557600080fd5b85356143008161423c565b945060208601356001600160401b038082111561431c57600080fd5b61432889838a01614251565b9096509450604088013591508082111561434157600080fd5b5061434e8882890161429c565b969995985093965092949392505050565b60005b8381101561437a578181015183820152602001614362565b838111156123fd5750506000910152565b600081518084526143a381602086016020860161435f565b601f01601f19169290920160200192915050565b602081526000611a1f602083018461438b565b6000602082840312156143dc57600080fd5b5035919050565b600080604083850312156143f657600080fd5b82356144018161423c565b946020939093013593505050565b634e487b7160e01b600052604160045260246000fd5b60405161010081016001600160401b03811182821017156144485761444861440f565b60405290565b604051601f8201601f191681016001600160401b03811182821017156144765761447661440f565b604052919050565b60006001600160401b038211156144975761449761440f565b50601f01601f191660200190565b600082601f8301126144b657600080fd5b81356144c96144c48261447e565b61444e565b8181528460208386010111156144de57600080fd5b816020850160208301376000918101602001919091529392505050565b6000806000806080858703121561451157600080fd5b843561451c8161423c565b9350602085013561452c8161423c565b92506040850135915060608501356001600160401b0381111561454e57600080fd5b61455a878288016144a5565b91505092959194509250565b60008060006060848603121561457b57600080fd5b83356145868161423c565b925060208401356145968161423c565b929592945050506040919091013590565b6000806000606084860312156145bc57600080fd5b8335925060208401356145ce8161423c565b915060408401356145de8161423c565b809150509250925092565b634e487b7160e01b600052602160045260246000fd5b6006811061461d57634e487b7160e01b600052602160045260246000fd5b9052565b602081016105ff82846145ff565b80518252602081015161464d60208401826001600160a01b03169052565b5060408101516040830152606081015161467260608401826001600160a01b03169052565b506080810151608083015260a081015161469760a08401826001600160801b03169052565b5060c08101516146b260c08401826001600160801b03169052565b5060e08101516146cb60e084018264ffffffffff169052565b506101008181015164ffffffffff9081169184019190915261012080830151821690840152610140808301518216908401526101608083015182169084015261018080830151909116908301526101a0808201516123fd828501826145ff565b6101c081016105ff828461462f565b60006020828403121561474c57600080fd5b8135611a1f8161423c565b600080600080600080600060e0888a03121561477257600080fd5b8735965060208801356147848161423c565b955060408801356147948161423c565b969995985095966060810135965060808101359560a0820135955060c0909101359350915050565b8281526101e08101611a1f602083018461462f565b8015158114612c8a57600080fd5b600080604083850312156147f257600080fd5b82356147fd8161423c565b9150602083013561480d816147d1565b809150509250929050565b600082601f83011261482957600080fd5b813560206001600160401b038211156148445761484461440f565b8160051b61485382820161444e565b928352848101820192828101908785111561486d57600080fd5b83870192505b8483101561401457823582529183019190830190614873565b600080600080600060a086880312156148a457600080fd5b85356148af8161423c565b945060208601356148bf8161423c565b935060408601356001600160401b03808211156148db57600080fd5b6148e789838a01614818565b945060608801359150808211156148fd57600080fd5b61490989838a01614818565b9350608088013591508082111561491f57600080fd5b5061492c888289016144a5565b9150509295509295909350565b6000806000806060858703121561494f57600080fd5b843561495a8161423c565b9350602085013561496a8161423c565b925060408501356001600160401b0381111561498557600080fd5b61499187828801614251565b95989497509550505050565b60008060008060008060008060a0898b0312156149b957600080fd5b88356149c48161423c565b975060208901356149d48161423c565b965060408901356001600160401b03808211156149f057600080fd5b6149fc8c838d01614251565b909850965060608b0135915080821115614a1557600080fd5b614a218c838d01614251565b909650945060808b0135915080821115614a3a57600080fd5b50614a478b828c0161429c565b999c989b5096995094979396929594505050565b60008060408385031215614a6e57600080fd5b8235614a798161423c565b9150602083013561480d8161423c565b600080600080600060a08688031215614aa157600080fd5b8535614aac8161423c565b94506020860135614abc8161423c565b9350604086013592506060860135915060808601356001600160401b03811115614ae557600080fd5b61492c888289016144a5565b634e487b7160e01b600052603260045260246000fd5b634e487b7160e01b600052601160045260246000fd5b6000600019821415614b3157614b31614b07565b5060010190565b81835281816020850137506000828201602090810191909152601f909101601f19169091010190565b60a0808252875190820181905260009060209060c0840190828b01845b82811015614ba35781516001600160a01b031684529284019290840190600101614b7e565b5050508381038285015288518082528983019183019060005b81811015614bd857835183529284019291840191600101614bbc565b50506001600160a01b03891660408601526001600160a01b03881660608601528481036080860152614c0b818789614b38565b9b9a5050505050505050505050565b80516125a8816147d1565b600060208284031215614c3757600080fd5b8151611a1f816147d1565b600181811c90821680614c5657607f821691505b6020821081141561102e57634e487b7160e01b600052602260045260246000fd5b60208082526031908201527f4552433732313a207472616e736665722063616c6c6572206973206e6f74206f6040820152701ddb995c881b9bdc88185c1c1c9bdd9959607a1b606082015260800190565b600060208284031215614cda57600080fd5b8151611a1f8161423c565b600082601f830112614cf657600080fd5b8151614d046144c48261447e565b818152846020838601011115614d1957600080fd5b610e6682602083016020870161435f565b600060208284031215614d3c57600080fd5b81516001600160401b0380821115614d5357600080fd5b908301906101008286031215614d6857600080fd5b614d70614425565b614d7983614c1a565b8152602083015182811115614d8d57600080fd5b614d9987828601614ce5565b602083015250604083015182811115614db157600080fd5b614dbd87828601614ce5565b604083015250606083015160608201526080830151608082015260a083015160a082015260c083015160c082015260e083015160e082015280935050505092915050565b600060208284031215614e1357600080fd5b5051919050565b600060208284031215614e2c57600080fd5b81516001600160401b03811115614e4257600080fd5b610e6684828501614ce5565b81835260006001600160fb1b03831115614e6757600080fd5b8260051b8083602087013760009401602001938452509192915050565b602081526000610e66602083018486614e4e565b6001600160a01b0389811682528816602082015260a060408201819052600090614ec5908301888a614e4e565b8281036060840152614ed8818789614e4e565b90508281036080840152614c0b818587614b38565b606081526000614f0160608301888a614e4e565b8281036020840152614f14818789614e4e565b90508281036040840152614f29818587614b38565b9998505050505050505050565b600082821015614f4857614f48614b07565b500390565b600082614f6a57634e487b7160e01b600052601260045260246000fd5b500490565b6000816000190483118215151615614f8957614f89614b07565b500290565b60008219821115614fa157614fa1614b07565b500190565b60208082526032908201527f4552433732313a207472616e7366657220746f206e6f6e20455243373231526560408201527131b2b4bb32b91034b6b83632b6b2b73a32b960711b606082015260800190565b6001600160a01b03858116825284166020820152604081018390526080606082018190526000906121789083018461438b565b60006020828403121561503d57600080fd5b8151611a1f81614209565b634e487b7160e01b600052603160045260246000fd5b6000825161507081846020870161435f565b919091019291505056fea2646970667358221220362b99cce7915aff556bd14f51baef9ee34811b00b09ffdc82c7991578998f4d64736f6c634300080a0033",
  "deployedBytecode": "0x608060405234801561001057600080fd5b506004361061023d5760003560e01c80636b52b3651161013b578063ade97ab5116100b8578063e3185e121161007c578063e3185e1214610560578063e985e9c514610573578063ed213bbf146105af578063f23a6e61146105c2578063f2fde38b146105e157600080fd5b8063ade97ab5146104e1578063b88d4fde14610508578063bc197c811461051b578063c87b56dd1461053a578063cae595531461054d57600080fd5b80638da5cb5b116100ff5780638da5cb5b1461048f57806395d89b41146104a057806396e59682146104a8578063980a8bd9146104bb578063a22cb465146104ce57600080fd5b80636b52b3651461042057806370a082311461043357806370b4ebeb14610446578063715018a61461046757806377593cc41461046f57600080fd5b806323b872dd116101c95780634f6ccce71161018d5780634f6ccce7146103a757806356308612146103ba5780635c622a0e146103cd578063622fe39f146103ed5780636352211e1461040d57600080fd5b806323b872dd146103525780632f745c591461036557806342842e0e1461037857806347bd37181461038b5780634f0709161461039457600080fd5b8063095ea7b311610210578063095ea7b3146102bf57806311615d30146102d2578063150b7a021461030b57806318160ddd146103375780631c1874951461033f57600080fd5b806301ffc9a71461024257806303282d6e1461026a57806306fdde031461027f578063081812fc14610294575b600080fd5b61025561025036600461421f565b6105f4565b60405190151581526020015b60405180910390f35b61027d6102783660046142dd565b610605565b005b610287610c2d565b60405161026191906143b7565b6102a76102a23660046143ca565b610cbf565b6040516001600160a01b039091168152602001610261565b61027d6102cd3660046143e3565b610d47565b6102fd6102e03660046143e3565b600c60209081526000928352604080842090915290825290205481565b604051908152602001610261565b61031e6103193660046144fb565b610e5d565b6040516001600160e01b03199091168152602001610261565b6008546102fd565b6102fd61034d3660046143ca565b610e6e565b61027d610360366004614566565b611034565b6102fd6103733660046143e3565b611065565b61027d610386366004614566565b6110fb565b6102fd600d5481565b61027d6103a2366004614566565b611116565b6102fd6103b53660046143ca565b6112b6565b61027d6103c83660046145a7565b611349565b6103e06103db3660046143ca565b6115b8565b6040516102619190614621565b6104006103fb3660046143ca565b6117a0565b604051610261919061472b565b6102a761041b3660046143ca565b61193d565b6102fd61042e3660046143ca565b6119b4565b6102fd61044136600461473a565b611a26565b610459610454366004614757565b611aad565b6040516102619291906147bc565b61027d611e6d565b6102fd61047d36600461473a565b600e6020526000908152604090205481565b600a546001600160a01b03166102a7565b610287611ed3565b6102fd6104b63660046143ca565b611ee2565b61027d6104c93660046143ca565b612182565b61027d6104dc3660046147df565b612306565b6102a77f000000000000000000000000000000000000000000000000000000000000000081565b61027d6105163660046144fb565b6123cb565b61031e61052936600461488c565b63bc197c8160e01b95945050505050565b6102876105483660046143ca565b612403565b61027d61055b366004614939565b6125ad565b61027d61056e36600461499d565b61286a565b610255610581366004614a5b565b6001600160a01b03918216600090815260056020908152604080832093909416825291909152205460ff1690565b61027d6105bd3660046143ca565b612a6f565b61031e6105d0366004614a89565b63f23a6e6160e01b95945050505050565b61027d6105ef36600461473a565b612bc2565b60006105ff826105f4565b92915050565b60008581856001600160401b038111156106215761062161440f565b60405190808252806020026020018201604052801561064a578160200160208202803683370190505b5090506000866001600160401b038111156106675761066761440f565b604051908082528060200260200182016040528015610690578160200160208202803683370190505b509050600093505b8684101561094a57336106c28989878181106106b6576106b6614af1565b9050602002013561193d565b6001600160a01b031614604051806040016040528060038152602001620d0c0d60ea1b8152509061070f5760405162461bcd60e51b815260040161070691906143b7565b60405180910390fd5b50600061073389898781811061072757610727614af1565b905060200201356115b8565b90506004816005811115610749576107496145e9565b1415801561076957506005816005811115610766576107666145e9565b14155b6040518060400160405280600381526020016234313160e81b815250906107a35760405162461bcd60e51b815260040161070691906143b7565b506000600b60008b8b898181106107bc576107bc614af1565b6020908102929092013583525081810192909252604090810160002081516101c0810183528154815260018201546001600160a01b039081169482019490945260028201549281019290925260038101549092166060820152600482015460808201526005808301546001600160801b0380821660a0850152600160801b9091041660c0830152600683015464ffffffffff80821660e0850152600160281b82048116610100850152600160501b82048116610120850152600160781b82048116610140850152600160a01b82048116610160850152600160c81b8204166101808401529192916101a0840191600160f01b90910460ff16908111156108c4576108c46145e9565b60058111156108d5576108d56145e9565b81525050905080602001518487815181106108f2576108f2614af1565b60200260200101906001600160a01b031690816001600160a01b031681525050806040015183878151811061092957610929614af1565b6020026020010181815250505050838061094290614b1d565b945050610698565b600093505b86841015610a185781848151811061096957610969614af1565b60200260200101516001600160a01b03166342842e0e308b84888151811061099357610993614af1565b60209081029190910101516040516001600160e01b031960e086901b1681526001600160a01b0393841660048201529290911660248301526044820152606401600060405180830381600087803b1580156109ed57600080fd5b505af1158015610a01573d6000803e3d6000fd5b505050508380610a1090614b1d565b94505061094f565b604051628e896f60e41b81526001600160a01b038416906308e896f090610a4d9085908590339030908d908d90600401614b61565b6020604051808303816000875af1158015610a6c573d6000803e3d6000fd5b505050506040513d601f19601f82011682018060405250810190610a909190614c25565b6040518060400160405280600381526020016203431360ec1b81525090610aca5760405162461bcd60e51b815260040161070691906143b7565b50600093505b86841015610c2257818481518110610aea57610aea614af1565b60200260200101516001600160a01b03166342842e0e8a30848881518110610b1457610b14614af1565b60209081029190910101516040516001600160e01b031960e086901b1681526001600160a01b0393841660048201529290911660248301526044820152606401600060405180830381600087803b158015610b6e57600080fd5b505af1158015610b82573d6000803e3d6000fd5b50505050808481518110610b9857610b98614af1565b6020026020010151828581518110610bb257610bb2614af1565b60200260200101516001600160a01b03168a6001600160a01b03167f6bac1c66016500cd7b62d69e86268760baac6cd34a70003af66ffa8a97983216610bf53390565b6040516001600160a01b03909116815260200160405180910390a483610c1a81614b1d565b945050610ad0565b505050505050505050565b606060008054610c3c90614c42565b80601f0160208091040260200160405190810160405280929190818152602001828054610c6890614c42565b8015610cb55780601f10610c8a57610100808354040283529160200191610cb5565b820191906000526020600020905b815481529060010190602001808311610c9857829003601f168201915b5050505050905090565b6000610cca82612c8d565b610d2b5760405162461bcd60e51b815260206004820152602c60248201527f4552433732313a20617070726f76656420717565727920666f72206e6f6e657860448201526b34b9ba32b73a103a37b5b2b760a11b6064820152608401610706565b506000908152600460205260409020546001600160a01b031690565b6000610d528261193d565b9050806001600160a01b0316836001600160a01b03161415610dc05760405162461bcd60e51b815260206004820152602160248201527f4552433732313a20617070726f76616c20746f2063757272656e74206f776e656044820152603960f91b6064820152608401610706565b336001600160a01b0382161480610ddc5750610ddc8133610581565b610e4e5760405162461bcd60e51b815260206004820152603860248201527f4552433732313a20617070726f76652063616c6c6572206973206e6f74206f7760448201527f6e6572206e6f7220617070726f76656420666f7220616c6c00000000000000006064820152608401610706565b610e588383612caa565b505050565b630a85bd0160e11b5b949350505050565b600081610e7a81612c8d565b6040518060400160405280600381526020016203430360ec1b81525090610eb45760405162461bcd60e51b815260040161070691906143b7565b506000838152600b6020908152604080832081516101c0810183528154815260018201546001600160a01b039081169482019490945260028201549281019290925260038101549092166060820152600482015460808201526005808301546001600160801b0380821660a0850152600160801b9091041660c0830152600683015464ffffffffff80821660e0850152600160281b82048116610100850152600160501b82048116610120850152600160781b82048116610140850152600160a01b82048116610160850152600160c81b8204166101808401529192916101a0840191600160f01b90910460ff1690811115610fb257610fb26145e9565b6005811115610fc357610fc36145e9565b81525050905060008082610180015164ffffffffff1611610fe45742610ff2565b81610180015164ffffffffff165b90506110296110158360e0015164ffffffffff1683612d1890919063ffffffff16565b60c08401516001600160801b031690612d24565b935050505b50919050565b61103e3382612de0565b61105a5760405162461bcd60e51b815260040161070690614c77565b610e58838383612ec6565b600061107083611a26565b82106110d25760405162461bcd60e51b815260206004820152602b60248201527f455243373231456e756d657261626c653a206f776e657220696e646578206f7560448201526a74206f6620626f756e647360a81b6064820152608401610706565b506001600160a01b03919091166000908152600660209081526040808320938352929052205490565b610e58838383604051806020016040528060008152506123cb565b60007f00000000000000000000000000000000000000000000000000000000000000006001600160a01b0316639a9dbb996040518163ffffffff1660e01b8152600401602060405180830381865afa158015611176573d6000803e3d6000fd5b505050506040513d601f19601f8201168201806040525081019061119a9190614cc8565b90506001600160a01b038116639078c85a336040516001600160e01b031960e084901b1681526001600160a01b039091166004820152602401602060405180830381865afa1580156111f0573d6000803e3d6000fd5b505050506040513d601f19601f820116820180604052508101906112149190614c25565b6040518060400160405280600381526020016232303560e81b8152509061124e5760405162461bcd60e51b815260040161070691906143b7565b506112636001600160a01b0385168484613250565b826001600160a01b0316846001600160a01b03167f81275949a17d84915b61eeb24587a501cc8863011afba1ed12f3f6c5bdfd6a21846040516112a891815260200190565b60405180910390a350505050565b60006112c160085490565b82106113245760405162461bcd60e51b815260206004820152602c60248201527f455243373231456e756d657261626c653a20676c6f62616c20696e646578206f60448201526b7574206f6620626f756e647360a01b6064820152608401610706565b6008828154811061133757611337614af1565b90600052602060002001549050919050565b6010546001600160a01b0316336001600160a01b0316146040518060400160405280600381526020016219181b60e91b8152509061139a5760405162461bcd60e51b815260040161070691906143b7565b50826113a581612c8d565b6040518060400160405280600381526020016203430360ec1b815250906113df5760405162461bcd60e51b815260040161070691906143b7565b50826001600160a01b03166113f38561193d565b6001600160a01b031614604051806040016040528060038152602001621a181960e91b815250906114375760405162461bcd60e51b815260040161070691906143b7565b5060056000858152600b6020526040902060060154600160f01b900460ff166005811115611467576114676145e9565b146114f15760006114778561193d565b9050611482816132a2565b6000858152600b60209081526040808320600401546001600160a01b0385168452600e909252909120546114b591612d18565b6001600160a01b0382166000908152600e6020908152604080832093909355878252600b90522060040154600d546114ec91612d18565b600d55505b6114fa846133ba565b6000848152600b602081815260408084206001810180546001600160a01b039081168752600c855283872060028401805489529086528488208890558b88529590945285825580546001600160a01b0319908116909155938590556003810180549094169093556004830184905560058301849055600690920180546001600160f81b03191690559051848216929186169187917f2b23481a24e3c10d00df04743856de486787a766f4dcbf88f1bd1281466a8d089190a450505050565b6000816115c481612c8d565b6040518060400160405280600381526020016203430360ec1b815250906115fe5760405162461bcd60e51b815260040161070691906143b7565b506000838152600b6020908152604080832081516101c0810183528154815260018201546001600160a01b039081169482019490945260028201549281019290925260038101549092166060820152600482015460808201526005808301546001600160801b0380821660a0850152600160801b9091041660c0830152600683015464ffffffffff80821660e0850152600160281b82048116610100850152600160501b82048116610120850152600160781b82048116610140850152600160a01b82048116610160850152600160c81b8204166101808401529192916101a0840191600160f01b90910460ff16908111156116fc576116fc6145e9565b600581111561170d5761170d6145e9565b9052506000858152600b6020526040902060060154909150600160f01b900460ff166001816005811115611743576117436145e9565b1415610e66574282610140015164ffffffffff16101561176557506004610e66565b4282610120015164ffffffffff16101561178157506003610e66565b4282610160015164ffffffffff161015610e6657506002949350505050565b6117a8614197565b816117b281612c8d565b6040518060400160405280600381526020016203430360ec1b815250906117ec5760405162461bcd60e51b815260040161070691906143b7565b506000838152600b6020908152604080832081516101c0810183528154815260018201546001600160a01b039081169482019490945260028201549281019290925260038101549092166060820152600482015460808201526005808301546001600160801b0380821660a0850152600160801b9091041660c0830152600683015464ffffffffff80821660e0850152600160281b82048116610100850152600160501b82048116610120850152600160781b82048116610140850152600160a01b82048116610160850152600160c81b8204166101808401529192916101a0840191600160f01b90910460ff16908111156118ea576118ea6145e9565b60058111156118fb576118fb6145e9565b9052509050611909846115b8565b816101a001906005811115611920576119206145e9565b90816005811115611933576119336145e9565b9052509392505050565b6000818152600260205260408120546001600160a01b0316806105ff5760405162461bcd60e51b815260206004820152602960248201527f4552433732313a206f776e657220717565727920666f72206e6f6e657869737460448201526832b73a103a37b5b2b760b91b6064820152608401610706565b6000816119c081612c8d565b6040518060400160405280600381526020016203430360ec1b815250906119fa5760405162461bcd60e51b815260040161070691906143b7565b50611a1f611a0784610e6e565b6000858152600b602052604090206004015490613461565b9392505050565b60006001600160a01b038216611a915760405162461bcd60e51b815260206004820152602a60248201527f4552433732313a2062616c616e636520717565727920666f7220746865207a65604482015269726f206164647265737360b01b6064820152608401610706565b506001600160a01b031660009081526003602052604090205490565b6000611ab7614197565b6010546001600160a01b0316336001600160a01b0316146040518060400160405280600381526020016219181b60e91b81525090611b085760405162461bcd60e51b815260040161070691906143b7565b50604051639dce429960e01b8152600481018a90526001600160a01b0388811660248301526000917f000000000000000000000000000000000000000000000000000000000000000090911690639dce429990604401600060405180830381865afa158015611b7b573d6000803e3d6000fd5b505050506040513d6000823e601f3d908101601f19168201604052611ba39190810190614d2a565b6040805160a0810182526000602082018190529181018290526060810182905260808101919091524264ffffffffff8116825291925090611be49087613461565b64ffffffffff16602082015260e0820151611c0990611c034289613461565b90613461565b64ffffffffff16604082015260c0820151611c2e90611c284289613461565b90612d18565b64ffffffffff16606082015260405162c2de0960e41b8152600481018690526024810188905273__$f742c272e27921345744ab659e4a493fb5$__90630c2de09090604401602060405180830381865af4158015611c90573d6000803e3d6000fd5b505050506040513d601f19601f82011682018060405250810190611cb49190614e01565b816080018181525050604051806101c001604052808c81526020018a6001600160a01b031681526020018981526020018b6001600160a01b03168152602001888152602001866001600160801b0316815260200182608001516001600160801b03168152602001826000015164ffffffffff1681526020018764ffffffffff168152602001826020015164ffffffffff168152602001826040015164ffffffffff168152602001826060015164ffffffffff168152602001600064ffffffffff16815260200160016005811115611d8d57611d8d6145e9565b90529250611d9b838b61346d565b6020840151601054604080870151905163095ea7b360e01b81526001600160a01b0392831660048201526024810191909152929650169063095ea7b390604401600060405180830381600087803b158015611df557600080fd5b505af1158015611e09573d6000803e3d6000fd5b505050506001600160a01b038981166000908152600c602090815260408083208c845290915280822087905551918c169186917ff3cea5493d790af0133817606f7350a91d7f154ea52eaa79d179d4d231e5010291a3505097509795505050505050565b600a546001600160a01b03163314611ec75760405162461bcd60e51b815260206004820181905260248201527f4f776e61626c653a2063616c6c6572206973206e6f7420746865206f776e65726044820152606401610706565b611ed16000613682565b565b606060018054610c3c90614c42565b600081611eee81612c8d565b6040518060400160405280600381526020016203430360ec1b81525090611f285760405162461bcd60e51b815260040161070691906143b7565b506000611f34846115b8565b6000858152600b6020908152604080832081516101c0810183528154815260018201546001600160a01b039081169482019490945260028201549281019290925260038101549092166060820152600482015460808201526005808301546001600160801b0380821660a0850152600160801b9091041660c0830152600683015464ffffffffff80821660e0850152600160281b82048116610100850152600160501b82048116610120850152600160781b82048116610140850152600160a01b82048116610160850152600160c81b820416610180840152949550929390926101a0840191600160f01b900460ff1690811115612034576120346145e9565b6005811115612045576120456145e9565b905250905060006001836005811115612060576120606145e9565b14156120fd576120f67f00000000000000000000000000000000000000000000000000000000000000006001600160a01b031663ce87179f6040518163ffffffff1660e01b8152600401602060405180830381865afa1580156120c7573d6000803e3d6000fd5b505050506040513d601f19601f820116820180604052508101906120eb9190614e01565b6080840151906136d4565b9050611029565b6003836005811115612111576121116145e9565b1415611029576121787f00000000000000000000000000000000000000000000000000000000000000006001600160a01b031663d7a5a9d36040518163ffffffff1660e01b8152600401602060405180830381865afa1580156120c7573d6000803e3d6000fd5b9695505050505050565b6010546001600160a01b0316336001600160a01b0316146040518060400160405280600381526020016219181b60e91b815250906121d35760405162461bcd60e51b815260040161070691906143b7565b50806121de81612c8d565b6040518060400160405280600381526020016203430360ec1b815250906122185760405162461bcd60e51b815260040161070691906143b7565b5061222482600561375e565b6000828152600b60205260408120600601805464ffffffffff60c81b1916600160c81b4264ffffffffff160217905561225c8361193d565b9050612267816132a2565b6000838152600b60209081526040808320600401546001600160a01b0385168452600e9092529091205461229a91612d18565b6001600160a01b0382166000908152600e6020908152604080832093909355858252600b90522060040154600d546122d191612d18565b600d55604051339084907f59173af14430de8eac2adf90a01b6fa0f9309c0a43c38c2d0757fecd34be291590600090a3505050565b6001600160a01b03821633141561235f5760405162461bcd60e51b815260206004820152601960248201527f4552433732313a20617070726f766520746f2063616c6c6572000000000000006044820152606401610706565b3360008181526005602090815260408083206001600160a01b03871680855290835292819020805460ff191686151590811790915590519081529192917f17307eab39ab6107e8899845ad3d59bd9653f200f220920489ca2b5937696c31910160405180910390a35050565b6123d53383612de0565b6123f15760405162461bcd60e51b815260040161070690614c77565b6123fd848484846138a8565b50505050565b606060006001600160a01b03167f00000000000000000000000000000000000000000000000000000000000000006001600160a01b03166397dfa0d16040518163ffffffff1660e01b8152600401602060405180830381865afa15801561246e573d6000803e3d6000fd5b505050506040513d601f19601f820116820180604052508101906124929190614cc8565b6001600160a01b031614612594577f00000000000000000000000000000000000000000000000000000000000000006001600160a01b03166397dfa0d16040518163ffffffff1660e01b8152600401602060405180830381865afa1580156124fe573d6000803e3d6000fd5b505050506040513d601f19601f820116820180604052508101906125229190614cc8565b6001600160a01b031663c87b56dd836040518263ffffffff1660e01b815260040161254f91815260200190565b600060405180830381865afa15801561256c573d6000803e3d6000fd5b505050506040513d6000823e601f3d908101601f191682016040526105ff9190810190614e1a565b505060408051602081019091526000815290565b919050565b60007f00000000000000000000000000000000000000000000000000000000000000006001600160a01b0316639a9dbb996040518163ffffffff1660e01b8152600401602060405180830381865afa15801561260d573d6000803e3d6000fd5b505050506040513d601f19601f820116820180604052508101906126319190614cc8565b90506001600160a01b038116639078c85a336040516001600160e01b031960e084901b1681526001600160a01b039091166004820152602401602060405180830381865afa158015612687573d6000803e3d6000fd5b505050506040513d601f19601f820116820180604052508101906126ab9190614c25565b6040518060400160405280600381526020016232303560e81b815250906126e55760405162461bcd60e51b815260040161070691906143b7565b5060005b82811015612815576001600160a01b0386166000908152600c602052604081209085858481811061271c5761271c614af1565b905060200201358152602001908152602001600020546000146040518060400160405280600381526020016234303560e81b8152509061276f5760405162461bcd60e51b815260040161070691906143b7565b50856001600160a01b03166342842e0e308787878681811061279357612793614af1565b6040516001600160e01b031960e088901b1681526001600160a01b03958616600482015294909316602485015250602090910201356044820152606401600060405180830381600087803b1580156127ea57600080fd5b505af11580156127fe573d6000803e3d6000fd5b50505050808061280d90614b1d565b9150506126e9565b50836001600160a01b0316856001600160a01b03167f6c6b18e67b757c02ba92ef0f54038fc2135767acf9bef174b8780835ff455822858560405161285b929190614e84565b60405180910390a35050505050565b60007f00000000000000000000000000000000000000000000000000000000000000006001600160a01b0316639a9dbb996040518163ffffffff1660e01b8152600401602060405180830381865afa1580156128ca573d6000803e3d6000fd5b505050506040513d601f19601f820116820180604052508101906128ee9190614cc8565b90506001600160a01b038116639078c85a336040516001600160e01b031960e084901b1681526001600160a01b039091166004820152602401602060405180830381865afa158015612944573d6000803e3d6000fd5b505050506040513d601f19601f820116820180604052508101906129689190614c25565b6040518060400160405280600381526020016232303560e81b815250906129a25760405162461bcd60e51b815260040161070691906143b7565b50604051631759616b60e11b81526001600160a01b038a1690632eb2c2d6906129dd9030908c908c908c908c908c908c908c90600401614e98565b600060405180830381600087803b1580156129f757600080fd5b505af1158015612a0b573d6000803e3d6000fd5b50505050876001600160a01b0316896001600160a01b03167fc8144f7a11a69e58de79275b3e7420b4942b4e8318a0e0aa9ccb457c60387b02898989898989604051612a5c96959493929190614eed565b60405180910390a3505050505050505050565b6010546001600160a01b0316336001600160a01b0316146040518060400160405280600381526020016219181b60e91b81525090612ac05760405162461bcd60e51b815260040161070691906143b7565b5080612acb81612c8d565b6040518060400160405280600381526020016203430360ec1b81525090612b055760405162461bcd60e51b815260040161070691906143b7565b50612b0f826133ba565b6000828152600b602081815260408084206001810180546001600160a01b03168652600c845282862060028301805488529085528387208790558887529490935284815582546001600160a01b0319908116909355928490556003830180549092169091556004820183905560058201839055600690910180546001600160f81b031916905551339184917ffd2b5951436d1ea366069166d930e14be3feb38021ab9cb0269ba75b3db9af8c9190a35050565b600a546001600160a01b03163314612c1c5760405162461bcd60e51b815260206004820181905260248201527f4f776e61626c653a2063616c6c6572206973206e6f7420746865206f776e65726044820152606401610706565b6001600160a01b038116612c815760405162461bcd60e51b815260206004820152602660248201527f4f776e61626c653a206e6577206f776e657220697320746865207a65726f206160448201526564647265737360d01b6064820152608401610706565b612c8a81613682565b50565b6000908152600260205260409020546001600160a01b0316151590565b600081815260046020526040902080546001600160a01b0319166001600160a01b0384169081179091558190612cdf8261193d565b6001600160a01b03167f8c5be1e5ebec7d5bd14f71427d1e84f3dd0314c0f7b2291e5b200ac8c7c3b92560405160405180910390a45050565b6000611a1f8284614f36565b6000821580612d31575081155b15612d3e575060006105ff565b81612d5660026b033b2e3c9fd0803ce8000000614f4d565b612d6290600019614f36565b612d6c9190614f4d565b8311156040518060400160405280600381526020016203130360ec1b81525090612da95760405162461bcd60e51b815260040161070691906143b7565b506b033b2e3c9fd0803ce8000000612dc2600282614f4d565b612dcc8486614f6f565b612dd69190614f8e565b611a1f9190614f4d565b6000612deb82612c8d565b612e4c5760405162461bcd60e51b815260206004820152602c60248201527f4552433732313a206f70657261746f7220717565727920666f72206e6f6e657860448201526b34b9ba32b73a103a37b5b2b760a11b6064820152608401610706565b6000612e578361193d565b9050806001600160a01b0316846001600160a01b03161480612e925750836001600160a01b0316612e8784610cbf565b6001600160a01b0316145b80610e6657506001600160a01b0380821660009081526005602090815260408083209388168352929052205460ff16610e66565b612ed18383836138db565b6000612edc826115b8565b90506001816005811115612ef257612ef26145e9565b1480612f0f57506002816005811115612f0d57612f0d6145e9565b145b156123fd5760007f00000000000000000000000000000000000000000000000000000000000000006001600160a01b0316636d6a723c6040518163ffffffff1660e01b8152600401602060405180830381865afa158015612f74573d6000803e3d6000fd5b505050506040513d601f19601f82011682018060405250810190612f989190614cc8565b6000848152600b6020908152604080832081516101c0810183528154815260018201546001600160a01b039081169482019490945260028201549281019290925260038101549092166060820152600482015460808201526005808301546001600160801b0380821660a0850152600160801b9091041660c0830152600683015464ffffffffff80821660e0850152600160281b82048116610100850152600160501b82048116610120850152600160781b82048116610140850152600160a01b82048116610160850152600160c81b820416610180840152949550929390926101a0840191600160f01b900460ff1690811115613098576130986145e9565b60058111156130a9576130a96145e9565b90525090506001600160a01b038216156131d2576001600160a01b038681166000818152600e60205260409081902054600d5491516318c39f1760e11b815260048101939093526024830152604482015283918216906331873e2e90606401600060405180830381600087803b15801561312257600080fd5b505af1158015613136573d6000803e3d6000fd5b50505050856001600160a01b0316876001600160a01b0316146131d0576001600160a01b038681166000818152600e60205260409081902054600d5491516318c39f1760e11b8152600481019390935260248301526044820152908216906331873e2e90606401600060405180830381600087803b1580156131b757600080fd5b505af11580156131cb573d6000803e3d6000fd5b505050505b505b60808101516001600160a01b0387166000908152600e60205260409020546131f991612d18565b6001600160a01b038088166000908152600e60205260408082209390935560808401519188168152919091205461322f91613461565b6001600160a01b0386166000908152600e6020526040902055505050505050565b604080516001600160a01b038416602482015260448082018490528251808303909101815260649091019091526020810180516001600160e01b031663a9059cbb60e01b179052610e58908490613a86565b60007f00000000000000000000000000000000000000000000000000000000000000006001600160a01b0316636d6a723c6040518163ffffffff1660e01b8152600401602060405180830381865afa158015613302573d6000803e3d6000fd5b505050506040513d601f19601f820116820180604052508101906133269190614cc8565b90506001600160a01b038116156133b6576001600160a01b038281166000818152600e60205260409081902054600d5491516318c39f1760e11b815260048101939093526024830152604482015282918216906331873e2e90606401600060405180830381600087803b15801561339c57600080fd5b505af11580156133b0573d6000803e3d6000fd5b50505050505b5050565b60006133c58261193d565b90506133d381600084613b58565b6133de600083612caa565b6001600160a01b0381166000908152600360205260408120805460019290613407908490614f36565b909155505060008281526002602052604080822080546001600160a01b0319169055518391906001600160a01b038416907fddf252ad1be2c89b69c2b068fc378daa952ba7f163c4a11628f55a4df523b3ef908390a45050565b6000611a1f8284614f8e565b600061347d600f80546001019055565b50600f5461348b8282613c10565b6000818152600b602090815260409182902085518155908501516001820180546001600160a01b039283166001600160a01b0319918216179091559286015160028301556060860151600383018054919092169316929092179091556080840151600482015560a084015160c08501516001600160801b03908116600160801b0291161760058083019190915560e08501516006830180546101008801516101208901516101408a01516101608b01516101808c015164ffffffffff908116600160c81b0264ffffffffff60c81b19928216600160a01b029290921669ffffffffffffffffffff60a01b19938216600160781b0264ffffffffff60781b19958316600160501b029590951669ffffffffffffffffffff60501b19968316600160281b0269ffffffffffffffffffff199098169290991691909117959095179390931695909517179390931617919091178082556101a087015187949390929160ff60f01b191690600160f01b908490811115613609576136096145e9565b021790555090505061361e83606001516132a2565b6080830151600d5461362f91613461565b600d55608083015160608401516001600160a01b03166000908152600e602052604090205461365d91613461565b6060909301516001600160a01b03166000908152600e60205260409020929092555090565b600a80546001600160a01b038381166001600160a01b0319831681179093556040519116919082907f8be0079c531659141344cd1fd0a4f28419497f9722a3daafe3b4186f6b6457e090600090a35050565b60008215806136e1575081155b156136ee575060006105ff565b816136fc6002612710614f4d565b61370890600019614f36565b6137129190614f4d565b8311156040518060400160405280600381526020016203130360ec1b8152509061374f5760405162461bcd60e51b815260040161070691906143b7565b50612710612dc2600282614f4d565b6000828152600b6020526040902060056006820154600160f01b900460ff16600581111561378e5761378e6145e9565b14156040518060400160405280600381526020016234303360e81b815250906137ca5760405162461bcd60e51b815260040161070691906143b7565b508160058111156137dd576137dd6145e9565b6006820154600160f01b900460ff1660058111156137fd576137fd6145e9565b14156040518060400160405280600381526020016234303160e81b815250906138395760405162461bcd60e51b815260040161070691906143b7565b5060068101805483919060ff60f01b1916600160f01b836005811115613861576138616145e9565b0217905550816005811115613878576138786145e9565b60405184907f1ec5c05690dbdf3fe6eeaa13c3026d2706bba8ff773391bf70f15b407fb1658890600090a3505050565b6138b3848484612ec6565b6138bf84848484613c2a565b6123fd5760405162461bcd60e51b815260040161070690614fa6565b826001600160a01b03166138ee8261193d565b6001600160a01b0316146139565760405162461bcd60e51b815260206004820152602960248201527f4552433732313a207472616e73666572206f6620746f6b656e2074686174206960448201526839903737ba1037bbb760b91b6064820152608401610706565b6001600160a01b0382166139b85760405162461bcd60e51b8152602060048201526024808201527f4552433732313a207472616e7366657220746f20746865207a65726f206164646044820152637265737360e01b6064820152608401610706565b6139c3838383613b58565b6139ce600082612caa565b6001600160a01b03831660009081526003602052604081208054600192906139f7908490614f36565b90915550506001600160a01b0382166000908152600360205260408120805460019290613a25908490614f8e565b909155505060008181526002602052604080822080546001600160a01b0319166001600160a01b0386811691821790925591518493918716917fddf252ad1be2c89b69c2b068fc378daa952ba7f163c4a11628f55a4df523b3ef91a4505050565b6000613adb826040518060400160405280602081526020017f5361666545524332303a206c6f772d6c6576656c2063616c6c206661696c6564815250856001600160a01b0316613d259092919063ffffffff16565b805190915015610e585780806020019051810190613af99190614c25565b610e585760405162461bcd60e51b815260206004820152602a60248201527f5361666545524332303a204552433230206f7065726174696f6e20646964206e6044820152691bdd081cdd58d8d9595960b21b6064820152608401610706565b6001600160a01b038316613bb357613bae81600880546000838152600960205260408120829055600182018355919091527ff3f7a9fe364faab93b216da50a3214154f22a0a2b415b23a84c8169e8b636ee30155565b613bd6565b816001600160a01b0316836001600160a01b031614613bd657613bd68382613d34565b6001600160a01b038216613bed57610e5881613dd1565b826001600160a01b0316826001600160a01b031614610e5857610e588282613e80565b6133b6828260405180602001604052806000815250613ec4565b60006001600160a01b0384163b15613d1d57604051630a85bd0160e11b81526001600160a01b0385169063150b7a0290613c6e903390899088908890600401614ff8565b6020604051808303816000875af1925050508015613ca9575060408051601f3d908101601f19168201909252613ca69181019061502b565b60015b613d03573d808015613cd7576040519150601f19603f3d011682016040523d82523d6000602084013e613cdc565b606091505b508051613cfb5760405162461bcd60e51b815260040161070690614fa6565b805181602001fd5b6001600160e01b031916630a85bd0160e11b149050610e66565b506001610e66565b6060610e668484600085613ef7565b60006001613d4184611a26565b613d4b9190614f36565b600083815260076020526040902054909150808214613d9e576001600160a01b03841660009081526006602090815260408083208584528252808320548484528184208190558352600790915290208190555b5060009182526007602090815260408084208490556001600160a01b039094168352600681528383209183525290812055565b600854600090613de390600190614f36565b60008381526009602052604081205460088054939450909284908110613e0b57613e0b614af1565b906000526020600020015490508060088381548110613e2c57613e2c614af1565b6000918252602080832090910192909255828152600990915260408082208490558582528120556008805480613e6457613e64615048565b6001900381819060005260206000200160009055905550505050565b6000613e8b83611a26565b6001600160a01b039093166000908152600660209081526040808320868452825280832085905593825260079052919091209190915550565b613ece838361401f565b613edb6000848484613c2a565b610e585760405162461bcd60e51b815260040161070690614fa6565b606082471015613f585760405162461bcd60e51b815260206004820152602660248201527f416464726573733a20696e73756666696369656e742062616c616e636520666f6044820152651c8818d85b1b60d21b6064820152608401610706565b843b613fa65760405162461bcd60e51b815260206004820152601d60248201527f416464726573733a2063616c6c20746f206e6f6e2d636f6e74726163740000006044820152606401610706565b600080866001600160a01b03168587604051613fc2919061505e565b60006040518083038185875af1925050503d8060008114613fff576040519150601f19603f3d011682016040523d82523d6000602084013e614004565b606091505b509150915061401482828661415e565b979650505050505050565b6001600160a01b0382166140755760405162461bcd60e51b815260206004820181905260248201527f4552433732313a206d696e7420746f20746865207a65726f20616464726573736044820152606401610706565b61407e81612c8d565b156140cb5760405162461bcd60e51b815260206004820152601c60248201527f4552433732313a20746f6b656e20616c7265616479206d696e746564000000006044820152606401610706565b6140d760008383613b58565b6001600160a01b0382166000908152600360205260408120805460019290614100908490614f8e565b909155505060008181526002602052604080822080546001600160a01b0319166001600160a01b03861690811790915590518392907fddf252ad1be2c89b69c2b068fc378daa952ba7f163c4a11628f55a4df523b3ef908290a45050565b6060831561416d575081611a1f565b82511561417d5782518084602001fd5b8160405162461bcd60e51b815260040161070691906143b7565b604080516101c081018252600080825260208201819052918101829052606081018290526080810182905260a0810182905260c0810182905260e0810182905261010081018290526101208101829052610140810182905261016081018290526101808101829052906101a082015290565b6001600160e01b031981168114612c8a57600080fd5b60006020828403121561423157600080fd5b8135611a1f81614209565b6001600160a01b0381168114612c8a57600080fd5b60008083601f84011261426357600080fd5b5081356001600160401b0381111561427a57600080fd5b6020830191508360208260051b850101111561429557600080fd5b9250929050565b60008083601f8401126142ae57600080fd5b5081356001600160401b038111156142c557600080fd5b60208301915083602082850101111561429557600080fd5b6000806000806000606086880312156142f557600080fd5b85356143008161423c565b945060208601356001600160401b038082111561431c57600080fd5b61432889838a01614251565b9096509450604088013591508082111561434157600080fd5b5061434e8882890161429c565b969995985093965092949392505050565b60005b8381101561437a578181015183820152602001614362565b838111156123fd5750506000910152565b600081518084526143a381602086016020860161435f565b601f01601f19169290920160200192915050565b602081526000611a1f602083018461438b565b6000602082840312156143dc57600080fd5b5035919050565b600080604083850312156143f657600080fd5b82356144018161423c565b946020939093013593505050565b634e487b7160e01b600052604160045260246000fd5b60405161010081016001600160401b03811182821017156144485761444861440f565b60405290565b604051601f8201601f191681016001600160401b03811182821017156144765761447661440f565b604052919050565b60006001600160401b038211156144975761449761440f565b50601f01601f191660200190565b600082601f8301126144b657600080fd5b81356144c96144c48261447e565b61444e565b8181528460208386010111156144de57600080fd5b816020850160208301376000918101602001919091529392505050565b6000806000806080858703121561451157600080fd5b843561451c8161423c565b9350602085013561452c8161423c565b92506040850135915060608501356001600160401b0381111561454e57600080fd5b61455a878288016144a5565b91505092959194509250565b60008060006060848603121561457b57600080fd5b83356145868161423c565b925060208401356145968161423c565b929592945050506040919091013590565b6000806000606084860312156145bc57600080fd5b8335925060208401356145ce8161423c565b915060408401356145de8161423c565b809150509250925092565b634e487b7160e01b600052602160045260246000fd5b6006811061461d57634e487b7160e01b600052602160045260246000fd5b9052565b602081016105ff82846145ff565b80518252602081015161464d60208401826001600160a01b03169052565b5060408101516040830152606081015161467260608401826001600160a01b03169052565b506080810151608083015260a081015161469760a08401826001600160801b03169052565b5060c08101516146b260c08401826001600160801b03169052565b5060e08101516146cb60e084018264ffffffffff169052565b506101008181015164ffffffffff9081169184019190915261012080830151821690840152610140808301518216908401526101608083015182169084015261018080830151909116908301526101a0808201516123fd828501826145ff565b6101c081016105ff828461462f565b60006020828403121561474c57600080fd5b8135611a1f8161423c565b600080600080600080600060e0888a03121561477257600080fd5b8735965060208801356147848161423c565b955060408801356147948161423c565b969995985095966060810135965060808101359560a0820135955060c0909101359350915050565b8281526101e08101611a1f602083018461462f565b8015158114612c8a57600080fd5b600080604083850312156147f257600080fd5b82356147fd8161423c565b9150602083013561480d816147d1565b809150509250929050565b600082601f83011261482957600080fd5b813560206001600160401b038211156148445761484461440f565b8160051b61485382820161444e565b928352848101820192828101908785111561486d57600080fd5b83870192505b8483101561401457823582529183019190830190614873565b600080600080600060a086880312156148a457600080fd5b85356148af8161423c565b945060208601356148bf8161423c565b935060408601356001600160401b03808211156148db57600080fd5b6148e789838a01614818565b945060608801359150808211156148fd57600080fd5b61490989838a01614818565b9350608088013591508082111561491f57600080fd5b5061492c888289016144a5565b9150509295509295909350565b6000806000806060858703121561494f57600080fd5b843561495a8161423c565b9350602085013561496a8161423c565b925060408501356001600160401b0381111561498557600080fd5b61499187828801614251565b95989497509550505050565b60008060008060008060008060a0898b0312156149b957600080fd5b88356149c48161423c565b975060208901356149d48161423c565b965060408901356001600160401b03808211156149f057600080fd5b6149fc8c838d01614251565b909850965060608b0135915080821115614a1557600080fd5b614a218c838d01614251565b909650945060808b0135915080821115614a3a57600080fd5b50614a478b828c0161429c565b999c989b5096995094979396929594505050565b60008060408385031215614a6e57600080fd5b8235614a798161423c565b9150602083013561480d8161423c565b600080600080600060a08688031215614aa157600080fd5b8535614aac8161423c565b94506020860135614abc8161423c565b9350604086013592506060860135915060808601356001600160401b03811115614ae557600080fd5b61492c888289016144a5565b634e487b7160e01b600052603260045260246000fd5b634e487b7160e01b600052601160045260246000fd5b6000600019821415614b3157614b31614b07565b5060010190565b81835281816020850137506000828201602090810191909152601f909101601f19169091010190565b60a0808252875190820181905260009060209060c0840190828b01845b82811015614ba35781516001600160a01b031684529284019290840190600101614b7e565b5050508381038285015288518082528983019183019060005b81811015614bd857835183529284019291840191600101614bbc565b50506001600160a01b03891660408601526001600160a01b03881660608601528481036080860152614c0b818789614b38565b9b9a5050505050505050505050565b80516125a8816147d1565b600060208284031215614c3757600080fd5b8151611a1f816147d1565b600181811c90821680614c5657607f821691505b6020821081141561102e57634e487b7160e01b600052602260045260246000fd5b60208082526031908201527f4552433732313a207472616e736665722063616c6c6572206973206e6f74206f6040820152701ddb995c881b9bdc88185c1c1c9bdd9959607a1b606082015260800190565b600060208284031215614cda57600080fd5b8151611a1f8161423c565b600082601f830112614cf657600080fd5b8151614d046144c48261447e565b818152846020838601011115614d1957600080fd5b610e6682602083016020870161435f565b600060208284031215614d3c57600080fd5b81516001600160401b0380821115614d5357600080fd5b908301906101008286031215614d6857600080fd5b614d70614425565b614d7983614c1a565b8152602083015182811115614d8d57600080fd5b614d9987828601614ce5565b602083015250604083015182811115614db157600080fd5b614dbd87828601614ce5565b604083015250606083015160608201526080830151608082015260a083015160a082015260c083015160c082015260e083015160e082015280935050505092915050565b600060208284031215614e1357600080fd5b5051919050565b600060208284031215614e2c57600080fd5b81516001600160401b03811115614e4257600080fd5b610e6684828501614ce5565b81835260006001600160fb1b03831115614e6757600080fd5b8260051b8083602087013760009401602001938452509192915050565b602081526000610e66602083018486614e4e565b6001600160a01b0389811682528816602082015260a060408201819052600090614ec5908301888a614e4e565b8281036060840152614ed8818789614e4e565b90508281036080840152614c0b818587614b38565b606081526000614f0160608301888a614e4e565b8281036020840152614f14818789614e4e565b90508281036040840152614f29818587614b38565b9998505050505050505050565b600082821015614f4857614f48614b07565b500390565b600082614f6a57634e487b7160e01b600052601260045260246000fd5b500490565b6000816000190483118215151615614f8957614f89614b07565b500290565b60008219821115614fa157614fa1614b07565b500190565b60208082526032908201527f4552433732313a207472616e7366657220746f206e6f6e20455243373231526560408201527131b2b4bb32b91034b6b83632b6b2b73a32b960711b606082015260800190565b6001600160a01b03858116825284166020820152604081018390526080606082018190526000906121789083018461438b565b60006020828403121561503d57600080fd5b8151611a1f81614209565b634e487b7160e01b600052603160045260246000fd5b6000825161507081846020870161435f565b919091019291505056fea2646970667358221220362b99cce7915aff556bd14f51baef9ee34811b00b09ffdc82c7991578998f4d64736f6c634300080a0033",
  "libraries": {
    "MathUtils": "0x4648bb80A8d14C8777321F1b4cbb1B016696102d"
  },
  "devdoc": {
    "author": "OpenSky Labs",
    "details": "The functions about handling loan are callable by the OpenSkyPool contract defined also in the OpenSkySettings*",
    "kind": "dev",
    "methods": {
      "approve(address,uint256)": {
        "details": "See {IERC721-approve}."
      },
      "balanceOf(address)": {
        "details": "See {IERC721-balanceOf}."
      },
      "claimERC1155Airdrop(address,address,uint256[],uint256[],bytes)": {
        "params": {
          "amounts": "The amount of the ERC1155 tokens",
          "data": "packed params to pass to the receiver as extra information*",
          "ids": "The ID of the ERC1155 token",
          "to": "The address which will receive the ERC1155 tokens",
          "token": "The address of the airdropped token"
        }
      },
      "claimERC20Airdrop(address,address,uint256)": {
        "params": {
          "amount": "The amount of the ERC20 token*",
          "to": "The address which will receive ERC20 token",
          "token": "The address of the airdropped token"
        }
      },
      "claimERC721Airdrop(address,address,uint256[])": {
        "params": {
          "ids": "The ID of the ERC721 token*",
          "to": "The address which will receive the ERC721 token",
          "token": "The address of the airdropped token"
        }
      },
      "constructor": {
        "details": "Constructor.",
        "params": {
          "_settings": "The address of the OpenSkySettings contract",
          "name": "The name of OpenSkyLoan NFT",
          "symbol": "The symbol of OpenSkyLoan NFT"
        }
      },
      "end(uint256,address,address)": {
        "params": {
          "onBehalfOf": "The address the repayer is repaying for",
          "repayer": "The address of the repayer*",
          "tokenId": "The ID of the loan"
        }
      },
      "endLiquidation(uint256)": {
        "params": {
          "tokenId": "The ID of the loan*"
        }
      },
      "flashClaim(address,uint256[],bytes)": {
        "details": "IMPORTANT There are security concerns for developers of flash loan receiver contracts that must be carefully considered",
        "params": {
          "loanIds": "The ID of loan being flash-borrowed",
          "params": "packed params to pass to the receiver as extra information*",
          "receiverAddress": "The address of the contract receiving the funds, implementing IFlashClaimReceiver interface"
        }
      },
      "getApproved(uint256)": {
        "details": "See {IERC721-getApproved}."
      },
      "getBorrowBalance(uint256)": {
        "params": {
          "tokenId": "The ID of the loan"
        },
        "returns": {
          "_0": "The borrow balance of the loan*"
        }
      },
      "getBorrowInterest(uint256)": {
        "params": {
          "tokenId": "The ID of the loan"
        },
        "returns": {
          "_0": "The borrow interest of the loan*"
        }
      },
      "getLoanData(uint256)": {
        "params": {
          "tokenId": "The ID of the loan"
        },
        "returns": {
          "_0": "The details of the loan*"
        }
      },
      "getPenalty(uint256)": {
        "params": {
          "tokenId": "The ID of the loan"
        },
        "returns": {
          "_0": "The penalty fee of the loan*"
        }
      },
      "getStatus(uint256)": {
        "params": {
          "tokenId": "The ID of the loan"
        },
        "returns": {
          "_0": "The status of the loan*"
        }
      },
      "isApprovedForAll(address,address)": {
        "details": "See {IERC721-isApprovedForAll}."
      },
      "mint(uint256,address,address,uint256,uint256,uint256,uint256)": {
        "params": {
          "amount": "The amount of the loan",
          "borrowRate": "The borrow rate of the loan",
          "borrower": "The address of the borrower",
          "duration": "The duration of the loan",
          "nftAddress": "The contract address of the collateralized NFT ",
          "nftTokenId": "The ID of the collateralized NFT",
          "reserveId": "The ID of the reserve"
        },
        "returns": {
          "loanId": "and loan data*"
        }
      },
      "name()": {
        "details": "See {IERC721Metadata-name}."
      },
      "onERC721Received(address,address,uint256,bytes)": {
        "details": "See {IERC721Receiver-onERC721Received}. Always returns `IERC721Receiver.onERC721Received.selector`."
      },
      "owner()": {
        "details": "Returns the address of the current owner."
      },
      "ownerOf(uint256)": {
        "details": "See {IERC721-ownerOf}."
      },
      "renounceOwnership()": {
        "details": "Leaves the contract without owner. It will not be possible to call `onlyOwner` functions anymore. Can only be called by the current owner. NOTE: Renouncing ownership will leave the contract without an owner, thereby removing any functionality that is only available to the owner."
      },
      "safeTransferFrom(address,address,uint256)": {
        "details": "See {IERC721-safeTransferFrom}."
      },
      "safeTransferFrom(address,address,uint256,bytes)": {
        "details": "See {IERC721-safeTransferFrom}."
      },
      "setApprovalForAll(address,bool)": {
        "details": "See {IERC721-setApprovalForAll}."
      },
      "startLiquidation(uint256)": {
        "params": {
          "tokenId": "The ID of the defaulted loan*"
        }
      },
      "symbol()": {
        "details": "See {IERC721Metadata-symbol}."
      },
      "tokenByIndex(uint256)": {
        "details": "See {IERC721Enumerable-tokenByIndex}."
      },
      "tokenOfOwnerByIndex(address,uint256)": {
        "details": "See {IERC721Enumerable-tokenOfOwnerByIndex}."
      },
      "tokenURI(uint256)": {
        "details": "See {IERC721Metadata-tokenURI}."
      },
      "totalSupply()": {
        "details": "See {IERC721Enumerable-totalSupply}."
      },
      "transferFrom(address,address,uint256)": {
        "details": "See {IERC721-transferFrom}."
      },
      "transferOwnership(address)": {
        "details": "Transfers ownership of the contract to a new account (`newOwner`). Can only be called by the current owner."
      }
    },
    "stateVariables": {
      "getLoanId": {
        "params": {
          "nftAddress": "The address of the collateralized NFT",
          "tokenId": "The ID of the collateralized NFT"
        },
        "return": "The ID of the loan*",
        "returns": {
          "_0": "The ID of the loan*"
        }
      }
    },
    "title": "OpenSkyLoan contract",
    "version": 1
  },
  "userdoc": {
    "kind": "user",
    "methods": {
      "claimERC1155Airdrop(address,address,uint256[],uint256[],bytes)": {
        "notice": "Claim the ERC1155 token which has been airdropped to the loan contract"
      },
      "claimERC20Airdrop(address,address,uint256)": {
        "notice": "Claim the ERC20 token which has been airdropped to the loan contract"
      },
      "claimERC721Airdrop(address,address,uint256[])": {
        "notice": "Claim the ERC721 token which has been airdropped to the loan contract"
      },
      "end(uint256,address,address)": {
        "notice": "Terminates the loan"
      },
      "endLiquidation(uint256)": {
        "notice": "Ends liquidation of a loan that is fully settled"
      },
      "flashClaim(address,uint256[],bytes)": {
        "notice": "Allows smart contracts to access the collateralized NFT within one transaction, as long as the amount taken plus a fee is returned"
      },
      "getBorrowBalance(uint256)": {
        "notice": "Returns the borrow balance of a loan, including borrow interest"
      },
      "getBorrowInterest(uint256)": {
        "notice": "Returns the borrow interest of the loan"
      },
      "getLoanData(uint256)": {
        "notice": "Returns the loan data"
      },
      "getLoanId(address,uint256)": {
        "notice": "Returns the ID of the loan"
      },
      "getPenalty(uint256)": {
        "notice": "Returns the penalty fee of the loan"
      },
      "getStatus(uint256)": {
        "notice": "Returns the status of a loan"
      },
      "mint(uint256,address,address,uint256,uint256,uint256,uint256)": {
        "notice": "Mints a loan NFT to user"
      },
      "startLiquidation(uint256)": {
        "notice": "Starts liquidation of the loan in default"
      }
    },
    "notice": "Implementation of the loan NFT for the OpenSky protocol",
    "version": 1
  },
  "storageLayout": {
    "storage": [
      {
        "astId": 4564,
        "contract": "contracts/OpenSkyLoan.sol:OpenSkyLoan",
        "label": "_name",
        "offset": 0,
        "slot": "0",
        "type": "t_string_storage"
      },
      {
        "astId": 4566,
        "contract": "contracts/OpenSkyLoan.sol:OpenSkyLoan",
        "label": "_symbol",
        "offset": 0,
        "slot": "1",
        "type": "t_string_storage"
      },
      {
        "astId": 4570,
        "contract": "contracts/OpenSkyLoan.sol:OpenSkyLoan",
        "label": "_owners",
        "offset": 0,
        "slot": "2",
        "type": "t_mapping(t_uint256,t_address)"
      },
      {
        "astId": 4574,
        "contract": "contracts/OpenSkyLoan.sol:OpenSkyLoan",
        "label": "_balances",
        "offset": 0,
        "slot": "3",
        "type": "t_mapping(t_address,t_uint256)"
      },
      {
        "astId": 4578,
        "contract": "contracts/OpenSkyLoan.sol:OpenSkyLoan",
        "label": "_tokenApprovals",
        "offset": 0,
        "slot": "4",
        "type": "t_mapping(t_uint256,t_address)"
      },
      {
        "astId": 4584,
        "contract": "contracts/OpenSkyLoan.sol:OpenSkyLoan",
        "label": "_operatorApprovals",
        "offset": 0,
        "slot": "5",
        "type": "t_mapping(t_address,t_mapping(t_address,t_bool))"
      },
      {
        "astId": 5503,
        "contract": "contracts/OpenSkyLoan.sol:OpenSkyLoan",
        "label": "_ownedTokens",
        "offset": 0,
        "slot": "6",
        "type": "t_mapping(t_address,t_mapping(t_uint256,t_uint256))"
      },
      {
        "astId": 5507,
        "contract": "contracts/OpenSkyLoan.sol:OpenSkyLoan",
        "label": "_ownedTokensIndex",
        "offset": 0,
        "slot": "7",
        "type": "t_mapping(t_uint256,t_uint256)"
      },
      {
        "astId": 5510,
        "contract": "contracts/OpenSkyLoan.sol:OpenSkyLoan",
        "label": "_allTokens",
        "offset": 0,
        "slot": "8",
        "type": "t_array(t_uint256)dyn_storage"
      },
      {
        "astId": 5514,
        "contract": "contracts/OpenSkyLoan.sol:OpenSkyLoan",
        "label": "_allTokensIndex",
        "offset": 0,
        "slot": "9",
        "type": "t_mapping(t_uint256,t_uint256)"
      },
      {
        "astId": 387,
        "contract": "contracts/OpenSkyLoan.sol:OpenSkyLoan",
        "label": "_owner",
        "offset": 0,
        "slot": "10",
        "type": "t_address"
      },
      {
        "astId": 8712,
        "contract": "contracts/OpenSkyLoan.sol:OpenSkyLoan",
        "label": "_loans",
        "offset": 0,
        "slot": "11",
        "type": "t_mapping(t_uint256,t_struct(LoanData)21312_storage)"
      },
      {
        "astId": 8720,
        "contract": "contracts/OpenSkyLoan.sol:OpenSkyLoan",
        "label": "getLoanId",
        "offset": 0,
        "slot": "12",
        "type": "t_mapping(t_address,t_mapping(t_uint256,t_uint256))"
      },
      {
        "astId": 8722,
        "contract": "contracts/OpenSkyLoan.sol:OpenSkyLoan",
        "label": "totalBorrows",
        "offset": 0,
        "slot": "13",
        "type": "t_uint256"
      },
      {
        "astId": 8726,
        "contract": "contracts/OpenSkyLoan.sol:OpenSkyLoan",
        "label": "userBorrows",
        "offset": 0,
        "slot": "14",
        "type": "t_mapping(t_address,t_uint256)"
      },
      {
        "astId": 8729,
        "contract": "contracts/OpenSkyLoan.sol:OpenSkyLoan",
        "label": "_tokenIdTracker",
        "offset": 0,
        "slot": "15",
        "type": "t_struct(Counter)6236_storage"
      },
      {
        "astId": 8737,
        "contract": "contracts/OpenSkyLoan.sol:OpenSkyLoan",
        "label": "_pool",
        "offset": 0,
        "slot": "16",
        "type": "t_address"
      }
    ],
    "types": {
      "t_address": {
        "encoding": "inplace",
        "label": "address",
        "numberOfBytes": "20"
      },
      "t_array(t_uint256)dyn_storage": {
        "base": "t_uint256",
        "encoding": "dynamic_array",
        "label": "uint256[]",
        "numberOfBytes": "32"
      },
      "t_bool": {
        "encoding": "inplace",
        "label": "bool",
        "numberOfBytes": "1"
      },
      "t_enum(LoanStatus)21319": {
        "encoding": "inplace",
        "label": "enum DataTypes.LoanStatus",
        "numberOfBytes": "1"
      },
      "t_mapping(t_address,t_bool)": {
        "encoding": "mapping",
        "key": "t_address",
        "label": "mapping(address => bool)",
        "numberOfBytes": "32",
        "value": "t_bool"
      },
      "t_mapping(t_address,t_mapping(t_address,t_bool))": {
        "encoding": "mapping",
        "key": "t_address",
        "label": "mapping(address => mapping(address => bool))",
        "numberOfBytes": "32",
        "value": "t_mapping(t_address,t_bool)"
      },
      "t_mapping(t_address,t_mapping(t_uint256,t_uint256))": {
        "encoding": "mapping",
        "key": "t_address",
        "label": "mapping(address => mapping(uint256 => uint256))",
        "numberOfBytes": "32",
        "value": "t_mapping(t_uint256,t_uint256)"
      },
      "t_mapping(t_address,t_uint256)": {
        "encoding": "mapping",
        "key": "t_address",
        "label": "mapping(address => uint256)",
        "numberOfBytes": "32",
        "value": "t_uint256"
      },
      "t_mapping(t_uint256,t_address)": {
        "encoding": "mapping",
        "key": "t_uint256",
        "label": "mapping(uint256 => address)",
        "numberOfBytes": "32",
        "value": "t_address"
      },
      "t_mapping(t_uint256,t_struct(LoanData)21312_storage)": {
        "encoding": "mapping",
        "key": "t_uint256",
        "label": "mapping(uint256 => struct DataTypes.LoanData)",
        "numberOfBytes": "32",
        "value": "t_struct(LoanData)21312_storage"
      },
      "t_mapping(t_uint256,t_uint256)": {
        "encoding": "mapping",
        "key": "t_uint256",
        "label": "mapping(uint256 => uint256)",
        "numberOfBytes": "32",
        "value": "t_uint256"
      },
      "t_string_storage": {
        "encoding": "bytes",
        "label": "string",
        "numberOfBytes": "32"
      },
      "t_struct(Counter)6236_storage": {
        "encoding": "inplace",
        "label": "struct Counters.Counter",
        "members": [
          {
            "astId": 6235,
            "contract": "contracts/OpenSkyLoan.sol:OpenSkyLoan",
            "label": "_value",
            "offset": 0,
            "slot": "0",
            "type": "t_uint256"
          }
        ],
        "numberOfBytes": "32"
      },
      "t_struct(LoanData)21312_storage": {
        "encoding": "inplace",
        "label": "struct DataTypes.LoanData",
        "members": [
          {
            "astId": 21284,
            "contract": "contracts/OpenSkyLoan.sol:OpenSkyLoan",
            "label": "reserveId",
            "offset": 0,
            "slot": "0",
            "type": "t_uint256"
          },
          {
            "astId": 21286,
            "contract": "contracts/OpenSkyLoan.sol:OpenSkyLoan",
            "label": "nftAddress",
            "offset": 0,
            "slot": "1",
            "type": "t_address"
          },
          {
            "astId": 21288,
            "contract": "contracts/OpenSkyLoan.sol:OpenSkyLoan",
            "label": "tokenId",
            "offset": 0,
            "slot": "2",
            "type": "t_uint256"
          },
          {
            "astId": 21290,
            "contract": "contracts/OpenSkyLoan.sol:OpenSkyLoan",
            "label": "borrower",
            "offset": 0,
            "slot": "3",
            "type": "t_address"
          },
          {
            "astId": 21292,
            "contract": "contracts/OpenSkyLoan.sol:OpenSkyLoan",
            "label": "amount",
            "offset": 0,
            "slot": "4",
            "type": "t_uint256"
          },
          {
            "astId": 21294,
            "contract": "contracts/OpenSkyLoan.sol:OpenSkyLoan",
            "label": "borrowRate",
            "offset": 0,
            "slot": "5",
            "type": "t_uint128"
          },
          {
            "astId": 21296,
            "contract": "contracts/OpenSkyLoan.sol:OpenSkyLoan",
            "label": "interestPerSecond",
            "offset": 16,
            "slot": "5",
            "type": "t_uint128"
          },
          {
            "astId": 21298,
            "contract": "contracts/OpenSkyLoan.sol:OpenSkyLoan",
            "label": "borrowBegin",
            "offset": 0,
            "slot": "6",
            "type": "t_uint40"
          },
          {
            "astId": 21300,
            "contract": "contracts/OpenSkyLoan.sol:OpenSkyLoan",
            "label": "borrowDuration",
            "offset": 5,
            "slot": "6",
            "type": "t_uint40"
          },
          {
            "astId": 21302,
            "contract": "contracts/OpenSkyLoan.sol:OpenSkyLoan",
            "label": "borrowOverdueTime",
            "offset": 10,
            "slot": "6",
            "type": "t_uint40"
          },
          {
            "astId": 21304,
            "contract": "contracts/OpenSkyLoan.sol:OpenSkyLoan",
            "label": "liquidatableTime",
            "offset": 15,
            "slot": "6",
            "type": "t_uint40"
          },
          {
            "astId": 21306,
            "contract": "contracts/OpenSkyLoan.sol:OpenSkyLoan",
            "label": "extendableTime",
            "offset": 20,
            "slot": "6",
            "type": "t_uint40"
          },
          {
            "astId": 21308,
            "contract": "contracts/OpenSkyLoan.sol:OpenSkyLoan",
            "label": "borrowEnd",
            "offset": 25,
            "slot": "6",
            "type": "t_uint40"
          },
          {
            "astId": 21311,
            "contract": "contracts/OpenSkyLoan.sol:OpenSkyLoan",
            "label": "status",
            "offset": 30,
            "slot": "6",
            "type": "t_enum(LoanStatus)21319"
          }
        ],
        "numberOfBytes": "224"
      },
      "t_uint128": {
        "encoding": "inplace",
        "label": "uint128",
        "numberOfBytes": "16"
      },
      "t_uint256": {
        "encoding": "inplace",
        "label": "uint256",
        "numberOfBytes": "32"
      },
      "t_uint40": {
        "encoding": "inplace",
        "label": "uint40",
        "numberOfBytes": "5"
      }
    }
  }
}