{
  "address": "0x1BC00070c6Bd23481D6F6C1f27Cd8C923d94a54C",
  "abi": [
    {
      "inputs": [
        {
          "internalType": "address",
          "name": "SETTINGS_",
          "type": "address"
        },
        {
          "internalType": "address",
          "name": "BESPOKE_SETTINGS_",
          "type": "address"
        },
        {
          "internalType": "address",
          "name": "WETH_",
          "type": "address"
        }
      ],
      "stateMutability": "nonpayable",
      "type": "constructor"
    },
    {
      "anonymous": false,
      "inputs": [
        {
          "indexed": true,
          "internalType": "address",
          "name": "sender",
          "type": "address"
        },
        {
          "indexed": false,
          "internalType": "uint256",
          "name": "nonce",
          "type": "uint256"
        }
      ],
      "name": "CancelAllOffers",
      "type": "event"
    },
    {
      "anonymous": false,
      "inputs": [
        {
          "indexed": true,
          "internalType": "address",
          "name": "sender",
          "type": "address"
        },
        {
          "indexed": false,
          "internalType": "uint256[]",
          "name": "nonces",
          "type": "uint256[]"
        }
      ],
      "name": "CancelMultipleOffers",
      "type": "event"
    },
    {
      "anonymous": false,
      "inputs": [
        {
          "indexed": true,
          "internalType": "address",
          "name": "token",
          "type": "address"
        },
        {
          "indexed": true,
          "internalType": "address",
          "name": "to",
          "type": "address"
        },
        {
          "indexed": false,
          "internalType": "uint256[]",
          "name": "ids",
          "type": "uint256[]"
        },
        {
          "indexed": false,
          "internalType": "uint256[]",
          "name": "amounts",
          "type": "uint256[]"
        },
        {
          "indexed": false,
          "internalType": "bytes",
          "name": "data",
          "type": "bytes"
        }
      ],
      "name": "ClaimERC1155Airdrop",
      "type": "event"
    },
    {
      "anonymous": false,
      "inputs": [
        {
          "indexed": true,
          "internalType": "address",
          "name": "token",
          "type": "address"
        },
        {
          "indexed": true,
          "internalType": "address",
          "name": "to",
          "type": "address"
        },
        {
          "indexed": false,
          "internalType": "uint256",
          "name": "amount",
          "type": "uint256"
        }
      ],
      "name": "ClaimERC20Airdrop",
      "type": "event"
    },
    {
      "anonymous": false,
      "inputs": [
        {
          "indexed": true,
          "internalType": "address",
          "name": "token",
          "type": "address"
        },
        {
          "indexed": true,
          "internalType": "address",
          "name": "to",
          "type": "address"
        },
        {
          "indexed": false,
          "internalType": "uint256[]",
          "name": "ids",
          "type": "uint256[]"
        }
      ],
      "name": "ClaimERC721Airdrop",
      "type": "event"
    },
    {
      "anonymous": false,
      "inputs": [
        {
          "indexed": true,
          "internalType": "address",
          "name": "receiver",
          "type": "address"
        },
        {
          "indexed": false,
          "internalType": "address",
          "name": "sender",
          "type": "address"
        },
        {
          "indexed": true,
          "internalType": "address",
          "name": "nftAddress",
          "type": "address"
        },
        {
          "indexed": true,
          "internalType": "uint256",
          "name": "tokenId",
          "type": "uint256"
        }
      ],
      "name": "FlashClaim",
      "type": "event"
    },
    {
      "anonymous": false,
      "inputs": [
        {
          "indexed": true,
          "internalType": "uint256",
          "name": "loanId",
          "type": "uint256"
        },
        {
          "indexed": true,
          "internalType": "address",
          "name": "lender",
          "type": "address"
        }
      ],
      "name": "Foreclose",
      "type": "event"
    },
    {
      "anonymous": false,
      "inputs": [
        {
          "indexed": true,
          "internalType": "address",
          "name": "previousOwner",
          "type": "address"
        },
        {
          "indexed": true,
          "internalType": "address",
          "name": "newOwner",
          "type": "address"
        }
      ],
      "name": "OwnershipTransferred",
      "type": "event"
    },
    {
      "anonymous": false,
      "inputs": [
        {
          "indexed": false,
          "internalType": "address",
          "name": "account",
          "type": "address"
        }
      ],
      "name": "Paused",
      "type": "event"
    },
    {
      "anonymous": false,
      "inputs": [
        {
          "indexed": true,
          "internalType": "uint256",
          "name": "loanId",
          "type": "uint256"
        },
        {
          "indexed": true,
          "internalType": "address",
          "name": "borrower",
          "type": "address"
        }
      ],
      "name": "Repay",
      "type": "event"
    },
    {
      "anonymous": false,
      "inputs": [
        {
          "indexed": true,
          "internalType": "uint256",
          "name": "loanId",
          "type": "uint256"
        },
        {
          "indexed": true,
          "internalType": "address",
          "name": "borrower",
          "type": "address"
        }
      ],
      "name": "RepayETH",
      "type": "event"
    },
    {
      "anonymous": false,
      "inputs": [
        {
          "indexed": true,
          "internalType": "uint256",
          "name": "loanId",
          "type": "uint256"
        },
        {
          "indexed": true,
          "internalType": "address",
          "name": "lender",
          "type": "address"
        },
        {
          "indexed": true,
          "internalType": "address",
          "name": "borrower",
          "type": "address"
        },
        {
          "indexed": false,
          "internalType": "uint256",
          "name": "nonce",
          "type": "uint256"
        }
      ],
      "name": "TakeBorrowOffer",
      "type": "event"
    },
    {
      "anonymous": false,
      "inputs": [
        {
          "indexed": true,
          "internalType": "uint256",
          "name": "loanId",
          "type": "uint256"
        },
        {
          "indexed": true,
          "internalType": "address",
          "name": "lender",
          "type": "address"
        },
        {
          "indexed": true,
          "internalType": "address",
          "name": "borrower",
          "type": "address"
        },
        {
          "indexed": false,
          "internalType": "uint256",
          "name": "nonce",
          "type": "uint256"
        }
      ],
      "name": "TakeBorrowOfferETH",
      "type": "event"
    },
    {
      "anonymous": false,
      "inputs": [
        {
          "indexed": false,
          "internalType": "address",
          "name": "account",
          "type": "address"
        }
      ],
      "name": "Unpaused",
      "type": "event"
    },
    {
      "stateMutability": "payable",
      "type": "fallback"
    },
    {
      "inputs": [],
      "name": "BESPOKE_SETTINGS",
      "outputs": [
        {
          "internalType": "contract IOpenSkyBespokeSettings",
          "name": "",
          "type": "address"
        }
      ],
      "stateMutability": "view",
      "type": "function"
    },
    {
      "inputs": [],
      "name": "DOMAIN_SEPARATOR",
      "outputs": [
        {
          "internalType": "bytes32",
          "name": "",
          "type": "bytes32"
        }
      ],
      "stateMutability": "view",
      "type": "function"
    },
    {
      "inputs": [],
      "name": "INTERFACE_ID_ERC1155",
      "outputs": [
        {
          "internalType": "bytes4",
          "name": "",
          "type": "bytes4"
        }
      ],
      "stateMutability": "view",
      "type": "function"
    },
    {
      "inputs": [],
      "name": "INTERFACE_ID_ERC721",
      "outputs": [
        {
          "internalType": "bytes4",
          "name": "",
          "type": "bytes4"
        }
      ],
      "stateMutability": "view",
      "type": "function"
    },
    {
      "inputs": [],
      "name": "SETTINGS",
      "outputs": [
        {
          "internalType": "contract IOpenSkySettings",
          "name": "",
          "type": "address"
        }
      ],
      "stateMutability": "view",
      "type": "function"
    },
    {
      "inputs": [],
      "name": "WETH",
      "outputs": [
        {
          "internalType": "contract IWETH",
          "name": "",
          "type": "address"
        }
      ],
      "stateMutability": "view",
      "type": "function"
    },
    {
      "inputs": [
        {
          "internalType": "uint256",
          "name": "minNonce_",
          "type": "uint256"
        }
      ],
      "name": "cancelAllBorrowOffersForSender",
      "outputs": [],
      "stateMutability": "nonpayable",
      "type": "function"
    },
    {
      "inputs": [
        {
          "internalType": "uint256[]",
          "name": "offerNonces",
          "type": "uint256[]"
        }
      ],
      "name": "cancelMultipleBorrowOffers",
      "outputs": [],
      "stateMutability": "nonpayable",
      "type": "function"
    },
    {
      "inputs": [
        {
          "internalType": "address",
          "name": "token",
          "type": "address"
        },
        {
          "internalType": "address",
          "name": "to",
          "type": "address"
        },
        {
          "internalType": "uint256[]",
          "name": "ids",
          "type": "uint256[]"
        },
        {
          "internalType": "uint256[]",
          "name": "amounts",
          "type": "uint256[]"
        },
        {
          "internalType": "bytes",
          "name": "data",
          "type": "bytes"
        }
      ],
      "name": "claimERC1155Airdrop",
      "outputs": [],
      "stateMutability": "nonpayable",
      "type": "function"
    },
    {
      "inputs": [
        {
          "internalType": "address",
          "name": "token",
          "type": "address"
        },
        {
          "internalType": "address",
          "name": "to",
          "type": "address"
        },
        {
          "internalType": "uint256",
          "name": "amount",
          "type": "uint256"
        }
      ],
      "name": "claimERC20Airdrop",
      "outputs": [],
      "stateMutability": "nonpayable",
      "type": "function"
    },
    {
      "inputs": [
        {
          "internalType": "address",
          "name": "token",
          "type": "address"
        },
        {
          "internalType": "address",
          "name": "to",
          "type": "address"
        },
        {
          "internalType": "uint256[]",
          "name": "ids",
          "type": "uint256[]"
        }
      ],
      "name": "claimERC721Airdrop",
      "outputs": [],
      "stateMutability": "nonpayable",
      "type": "function"
    },
    {
      "inputs": [
        {
          "internalType": "address",
          "name": "token",
          "type": "address"
        },
        {
          "internalType": "address",
          "name": "to",
          "type": "address"
        },
        {
          "internalType": "uint256",
          "name": "amount",
          "type": "uint256"
        }
      ],
      "name": "emergencyTokenTransfer",
      "outputs": [],
      "stateMutability": "nonpayable",
      "type": "function"
    },
    {
      "inputs": [
        {
          "internalType": "address",
          "name": "receiverAddress",
          "type": "address"
        },
        {
          "internalType": "uint256[]",
          "name": "loanIds",
          "type": "uint256[]"
        },
        {
          "internalType": "bytes",
          "name": "params",
          "type": "bytes"
        }
      ],
      "name": "flashClaim",
      "outputs": [],
      "stateMutability": "nonpayable",
      "type": "function"
    },
    {
      "inputs": [
        {
          "internalType": "uint256",
          "name": "loanId",
          "type": "uint256"
        }
      ],
      "name": "foreclose",
      "outputs": [],
      "stateMutability": "nonpayable",
      "type": "function"
    },
    {
      "inputs": [
        {
          "internalType": "uint256",
          "name": "loanId",
          "type": "uint256"
        }
      ],
      "name": "getBorrowBalance",
      "outputs": [
        {
          "internalType": "uint256",
          "name": "",
          "type": "uint256"
        }
      ],
      "stateMutability": "view",
      "type": "function"
    },
    {
      "inputs": [
        {
          "internalType": "uint256",
          "name": "loanId",
          "type": "uint256"
        }
      ],
      "name": "getBorrowInterest",
      "outputs": [
        {
          "internalType": "uint256",
          "name": "",
          "type": "uint256"
        }
      ],
      "stateMutability": "view",
      "type": "function"
    },
    {
      "inputs": [
        {
          "internalType": "uint256",
          "name": "loanId",
          "type": "uint256"
        }
      ],
      "name": "getLoanData",
      "outputs": [
        {
          "components": [
            {
              "internalType": "uint256",
              "name": "reserveId",
              "type": "uint256"
            },
            {
              "internalType": "address",
              "name": "nftAddress",
              "type": "address"
            },
            {
              "internalType": "uint256",
              "name": "tokenId",
              "type": "uint256"
            },
            {
              "internalType": "uint256",
              "name": "tokenAmount",
              "type": "uint256"
            },
            {
              "internalType": "address",
              "name": "borrower",
              "type": "address"
            },
            {
              "internalType": "uint256",
              "name": "amount",
              "type": "uint256"
            },
            {
              "internalType": "uint128",
              "name": "borrowRate",
              "type": "uint128"
            },
            {
              "internalType": "uint128",
              "name": "interestPerSecond",
              "type": "uint128"
            },
            {
              "internalType": "address",
              "name": "currency",
              "type": "address"
            },
            {
              "internalType": "uint40",
              "name": "borrowDuration",
              "type": "uint40"
            },
            {
              "internalType": "uint40",
              "name": "borrowBegin",
              "type": "uint40"
            },
            {
              "internalType": "uint40",
              "name": "borrowOverdueTime",
              "type": "uint40"
            },
            {
              "internalType": "uint40",
              "name": "liquidatableTime",
              "type": "uint40"
            },
            {
              "internalType": "address",
              "name": "lender",
              "type": "address"
            },
            {
              "internalType": "enum BespokeTypes.LoanStatus",
              "name": "status",
              "type": "uint8"
            }
          ],
          "internalType": "struct BespokeTypes.LoanData",
          "name": "",
          "type": "tuple"
        }
      ],
      "stateMutability": "view",
      "type": "function"
    },
    {
      "inputs": [
        {
          "internalType": "uint256",
          "name": "loanId",
          "type": "uint256"
        }
      ],
      "name": "getPenalty",
      "outputs": [
        {
          "internalType": "uint256",
          "name": "",
          "type": "uint256"
        }
      ],
      "stateMutability": "view",
      "type": "function"
    },
    {
      "inputs": [
        {
          "internalType": "uint256",
          "name": "loanId",
          "type": "uint256"
        }
      ],
      "name": "getStatus",
      "outputs": [
        {
          "internalType": "enum BespokeTypes.LoanStatus",
          "name": "",
          "type": "uint8"
        }
      ],
      "stateMutability": "view",
      "type": "function"
    },
    {
      "inputs": [
        {
          "internalType": "address",
          "name": "account",
          "type": "address"
        },
        {
          "internalType": "uint256",
          "name": "nonce",
          "type": "uint256"
        }
      ],
      "name": "isValidNonce",
      "outputs": [
        {
          "internalType": "bool",
          "name": "",
          "type": "bool"
        }
      ],
      "stateMutability": "view",
      "type": "function"
    },
    {
      "inputs": [
        {
          "internalType": "address",
          "name": "",
          "type": "address"
        }
      ],
      "name": "minNonce",
      "outputs": [
        {
          "internalType": "uint256",
          "name": "",
          "type": "uint256"
        }
      ],
      "stateMutability": "view",
      "type": "function"
    },
    {
      "inputs": [
        {
          "internalType": "address",
          "name": "",
          "type": "address"
        }
      ],
      "name": "nftBorrowStat",
      "outputs": [
        {
          "internalType": "uint256",
          "name": "",
          "type": "uint256"
        }
      ],
      "stateMutability": "view",
      "type": "function"
    },
    {
      "inputs": [
        {
          "internalType": "address",
          "name": "",
          "type": "address"
        },
        {
          "internalType": "address",
          "name": "",
          "type": "address"
        },
        {
          "internalType": "uint256[]",
          "name": "",
          "type": "uint256[]"
        },
        {
          "internalType": "uint256[]",
          "name": "",
          "type": "uint256[]"
        },
        {
          "internalType": "bytes",
          "name": "",
          "type": "bytes"
        }
      ],
      "name": "onERC1155BatchReceived",
      "outputs": [
        {
          "internalType": "bytes4",
          "name": "",
          "type": "bytes4"
        }
      ],
      "stateMutability": "nonpayable",
      "type": "function"
    },
    {
      "inputs": [
        {
          "internalType": "address",
          "name": "",
          "type": "address"
        },
        {
          "internalType": "address",
          "name": "",
          "type": "address"
        },
        {
          "internalType": "uint256",
          "name": "",
          "type": "uint256"
        },
        {
          "internalType": "uint256",
          "name": "",
          "type": "uint256"
        },
        {
          "internalType": "bytes",
          "name": "",
          "type": "bytes"
        }
      ],
      "name": "onERC1155Received",
      "outputs": [
        {
          "internalType": "bytes4",
          "name": "",
          "type": "bytes4"
        }
      ],
      "stateMutability": "nonpayable",
      "type": "function"
    },
    {
      "inputs": [
        {
          "internalType": "address",
          "name": "",
          "type": "address"
        },
        {
          "internalType": "address",
          "name": "",
          "type": "address"
        },
        {
          "internalType": "uint256",
          "name": "",
          "type": "uint256"
        },
        {
          "internalType": "bytes",
          "name": "",
          "type": "bytes"
        }
      ],
      "name": "onERC721Received",
      "outputs": [
        {
          "internalType": "bytes4",
          "name": "",
          "type": "bytes4"
        }
      ],
      "stateMutability": "nonpayable",
      "type": "function"
    },
    {
      "inputs": [],
      "name": "owner",
      "outputs": [
        {
          "internalType": "address",
          "name": "",
          "type": "address"
        }
      ],
      "stateMutability": "view",
      "type": "function"
    },
    {
      "inputs": [],
      "name": "pause",
      "outputs": [],
      "stateMutability": "nonpayable",
      "type": "function"
    },
    {
      "inputs": [],
      "name": "paused",
      "outputs": [
        {
          "internalType": "bool",
          "name": "",
          "type": "bool"
        }
      ],
      "stateMutability": "view",
      "type": "function"
    },
    {
      "inputs": [],
      "name": "renounceOwnership",
      "outputs": [],
      "stateMutability": "nonpayable",
      "type": "function"
    },
    {
      "inputs": [
        {
          "internalType": "uint256",
          "name": "loanId",
          "type": "uint256"
        }
      ],
      "name": "repay",
      "outputs": [],
      "stateMutability": "nonpayable",
      "type": "function"
    },
    {
      "inputs": [
        {
          "internalType": "uint256",
          "name": "loanId",
          "type": "uint256"
        }
      ],
      "name": "repayETH",
      "outputs": [],
      "stateMutability": "payable",
      "type": "function"
    },
    {
      "inputs": [
        {
          "internalType": "bytes4",
          "name": "interfaceId",
          "type": "bytes4"
        }
      ],
      "name": "supportsInterface",
      "outputs": [
        {
          "internalType": "bool",
          "name": "",
          "type": "bool"
        }
      ],
      "stateMutability": "view",
      "type": "function"
    },
    {
      "inputs": [
        {
          "components": [
            {
              "internalType": "uint256",
              "name": "reserveId",
              "type": "uint256"
            },
            {
              "internalType": "address",
              "name": "nftAddress",
              "type": "address"
            },
            {
              "internalType": "uint256",
              "name": "tokenId",
              "type": "uint256"
            },
            {
              "internalType": "uint256",
              "name": "tokenAmount",
              "type": "uint256"
            },
            {
              "internalType": "address",
              "name": "borrower",
              "type": "address"
            },
            {
              "internalType": "uint256",
              "name": "borrowAmountMin",
              "type": "uint256"
            },
            {
              "internalType": "uint256",
              "name": "borrowAmountMax",
              "type": "uint256"
            },
            {
              "internalType": "uint40",
              "name": "borrowDurationMin",
              "type": "uint40"
            },
            {
              "internalType": "uint40",
              "name": "borrowDurationMax",
              "type": "uint40"
            },
            {
              "internalType": "uint128",
              "name": "borrowRate",
              "type": "uint128"
            },
            {
              "internalType": "address",
              "name": "currency",
              "type": "address"
            },
            {
              "internalType": "uint256",
              "name": "nonce",
              "type": "uint256"
            },
            {
              "internalType": "uint256",
              "name": "deadline",
              "type": "uint256"
            },
            {
              "internalType": "uint8",
              "name": "v",
              "type": "uint8"
            },
            {
              "internalType": "bytes32",
              "name": "r",
              "type": "bytes32"
            },
            {
              "internalType": "bytes32",
              "name": "s",
              "type": "bytes32"
            }
          ],
          "internalType": "struct BespokeTypes.BorrowOffer",
          "name": "offerData",
          "type": "tuple"
        },
        {
          "internalType": "uint256",
          "name": "supplyAmount",
          "type": "uint256"
        },
        {
          "internalType": "uint256",
          "name": "supplyDuration",
          "type": "uint256"
        }
      ],
      "name": "takeBorrowOffer",
      "outputs": [],
      "stateMutability": "nonpayable",
      "type": "function"
    },
    {
      "inputs": [
        {
          "components": [
            {
              "internalType": "uint256",
              "name": "reserveId",
              "type": "uint256"
            },
            {
              "internalType": "address",
              "name": "nftAddress",
              "type": "address"
            },
            {
              "internalType": "uint256",
              "name": "tokenId",
              "type": "uint256"
            },
            {
              "internalType": "uint256",
              "name": "tokenAmount",
              "type": "uint256"
            },
            {
              "internalType": "address",
              "name": "borrower",
              "type": "address"
            },
            {
              "internalType": "uint256",
              "name": "borrowAmountMin",
              "type": "uint256"
            },
            {
              "internalType": "uint256",
              "name": "borrowAmountMax",
              "type": "uint256"
            },
            {
              "internalType": "uint40",
              "name": "borrowDurationMin",
              "type": "uint40"
            },
            {
              "internalType": "uint40",
              "name": "borrowDurationMax",
              "type": "uint40"
            },
            {
              "internalType": "uint128",
              "name": "borrowRate",
              "type": "uint128"
            },
            {
              "internalType": "address",
              "name": "currency",
              "type": "address"
            },
            {
              "internalType": "uint256",
              "name": "nonce",
              "type": "uint256"
            },
            {
              "internalType": "uint256",
              "name": "deadline",
              "type": "uint256"
            },
            {
              "internalType": "uint8",
              "name": "v",
              "type": "uint8"
            },
            {
              "internalType": "bytes32",
              "name": "r",
              "type": "bytes32"
            },
            {
              "internalType": "bytes32",
              "name": "s",
              "type": "bytes32"
            }
          ],
          "internalType": "struct BespokeTypes.BorrowOffer",
          "name": "offerData",
          "type": "tuple"
        },
        {
          "internalType": "uint256",
          "name": "supplyAmount",
          "type": "uint256"
        },
        {
          "internalType": "uint256",
          "name": "supplyDuration",
          "type": "uint256"
        }
      ],
      "name": "takeBorrowOfferETH",
      "outputs": [],
      "stateMutability": "payable",
      "type": "function"
    },
    {
      "inputs": [
        {
          "internalType": "address",
          "name": "newOwner",
          "type": "address"
        }
      ],
      "name": "transferOwnership",
      "outputs": [],
      "stateMutability": "nonpayable",
      "type": "function"
    },
    {
      "inputs": [],
      "name": "unpause",
      "outputs": [],
      "stateMutability": "nonpayable",
      "type": "function"
    },
    {
      "stateMutability": "payable",
      "type": "receive"
    }
  ],
  "transactionHash": "0x99e75864114fe445f47c9d6fbe0375754e1089a8cf216017aa03cde09deccdb7",
  "args": [
    "0x57528D98c3a8762c78f4D02a89CBc0Eaf77FD322",
    "0x061cE61E00cC0027c4bF843FD8bEaEb1af4C67B5",
    "0x0d500b1d8e8ef31e21c99d1db9a6444d3adf1270"
  ],
  "solcInputHash": "903b6e0b7a82abf3fd1d087256b904a8",
  "bytecode": "0x6101006040523480156200001257600080fd5b50604051620060a3380380620060a38339810160408190526200003591620001b1565b620000403362000144565b6000805460ff60a01b1916905560018080556001600160a01b0380851660805283811660a052821660c052604080518082018252918252603160f81b602092830152516200011f917f8b73c3c69bb8fe3d512ecc4cf759cc79239f7b179b0ffacaa9a75d522b39400f917ff0cf7ce475272740cae17eb3cadd6d254800be81c53f84a2f273b99036471c62917fc89efdaa54c0f20c7adf612882df0950f5a951637e0307cdcb4c672f298b8bc69146913091019485526020850193909352604084019190915260608301526001600160a01b0316608082015260a00190565b60408051601f19818403018152919052805160209091012060e05250620001fb915050565b600080546001600160a01b038381166001600160a01b0319831681178455604051919092169283917f8be0079c531659141344cd1fd0a4f28419497f9722a3daafe3b4186f6b6457e09190a35050565b80516001600160a01b0381168114620001ac57600080fd5b919050565b600080600060608486031215620001c757600080fd5b620001d28462000194565b9250620001e26020850162000194565b9150620001f26040850162000194565b90509250925092565b60805160a05160c05160e051615d41620003626000396000818161043b0152818161209701526131290152600081816106b20152818161111a015281816112f50152818161207101528181612416015281816124a001526125910152600081816103b4015281816108b9015281816120b90152818161266401528181612edb0152818161314b015281816135b101528181613cc901528181613dbb01528181613edb015281816141d5015281816142b60152818161477101526148440152600081816106e60152818161101e015281816113780152818161146c0152818161156f0152818161193801528181611a5801528181611b4c01528181611c4f01528181611d4701528181611e6c015281816120db0152818161218a015281816122bf01528181612b4401528181612f6a0152818161316d0152818161321c015281816133380152818161344901528181613662015281816138dd015261460a0152615d416000f3fe6080604052600436106102135760003560e01c8063715018a611610118578063aa99fa98116100a0578063bc6bc0cd1161006f578063bc6bc0cd14610734578063cae595531461074f578063e3185e121461076f578063f23a6e611461078f578063f2fde38b146107bb5761025e565b8063aa99fa9814610673578063ad5c4648146106a0578063ade97ab5146106d4578063bc197c81146107085761025e565b80638bf1badd116100e75780638bf1badd146105d55780638da5cb5b146105f557806396e5968214610613578063a3d5b25514610633578063a6348739146106535761025e565b8063715018a61461055e5780638456cb591461057357806384e5cec5146105885780638a181833146105a85761025e565b80633644e5151161019b5780635b3ce3241161016a5780635b3ce324146104b25780635c622a0e146104c55780635c975abb146104f2578063622fe39f146105115780636b52b3651461053e5761025e565b80633644e51514610429578063371fd8e61461045d5780633f4ba83a1461047d5780634f070916146104925761025e565b80631c187495116101e25780631c187495146103615780632247463e1461038f57806329c55f06146103a25780632f844ea8146103ee57806333bf61561461040e5761025e565b806301ffc9a7146102a657806303282d6e146102db5780630647ee20146102fd578063150b7a021461031d5761025e565b3661025e5760405162461bcd60e51b8152602060048201526016602482015275109357d49150d152559157d393d517d0531313d5d15160521b60448201526064015b60405180910390fd5b60405162461bcd60e51b815260206004820152601760248201527f424d5f46414c4c4241434b5f4e4f545f414c4c4f5745440000000000000000006044820152606401610255565b3480156102b257600080fd5b506102c66102c1366004614c87565b6107db565b60405190151581526020015b60405180910390f35b3480156102e757600080fd5b506102fb6102f6366004614d62565b610812565b005b34801561030957600080fd5b506102c6610318366004614de4565b610dd7565b34801561032957600080fd5b50610348610338366004614f11565b630a85bd0160e11b949350505050565b6040516001600160e01b031990911681526020016102d2565b34801561036d57600080fd5b5061038161037c366004614f7c565b610e2a565b6040519081526020016102d2565b6102fb61039d366004614f7c565b610fb8565b3480156103ae57600080fd5b506103d67f000000000000000000000000000000000000000000000000000000000000000081565b6040516001600160a01b0390911681526020016102d2565b3480156103fa57600080fd5b506102fb610409366004614f95565b61167e565b34801561041a57600080fd5b50610348636cdb3d1360e11b81565b34801561043557600080fd5b506103817f000000000000000000000000000000000000000000000000000000000000000081565b34801561046957600080fd5b506102fb610478366004614f7c565b6117c8565b34801561048957600080fd5b506102fb611d43565b34801561049e57600080fd5b506102fb6104ad366004614fd6565b611e68565b6102fb6104c0366004615066565b611fe9565b3480156104d157600080fd5b506104e56104e0366004614f7c565b612742565b6040516102d291906151b8565b3480156104fe57600080fd5b50600054600160a01b900460ff166102c6565b34801561051d57600080fd5b5061053161052c366004614f7c565b6128d7565b6040516102d291906151c6565b34801561054a57600080fd5b50610381610559366004614f7c565b612ab3565b34801561056a57600080fd5b506102fb612ada565b34801561057f57600080fd5b506102fb612b40565b34801561059457600080fd5b506102fb6105a3366004614f7c565b612c62565b3480156105b457600080fd5b506103816105c33660046152db565b60066020526000908152604090205481565b3480156105e157600080fd5b506102fb6105f0366004614f7c565b612d4a565b34801561060157600080fd5b506000546001600160a01b03166103d6565b34801561061f57600080fd5b5061038161062e366004614f7c565b612ea7565b34801561063f57600080fd5b506102fb61064e366004614fd6565b612f66565b34801561065f57600080fd5b506102fb61066e366004615066565b61309a565b34801561067f57600080fd5b5061038161068e3660046152db565b60026020526000908152604090205481565b3480156106ac57600080fd5b506103d67f000000000000000000000000000000000000000000000000000000000000000081565b3480156106e057600080fd5b506103d67f000000000000000000000000000000000000000000000000000000000000000081565b34801561071457600080fd5b5061034861072336600461536c565b63bc197c8160e01b95945050505050565b34801561074057600080fd5b506103486380ac58cd60e01b81565b34801561075b57600080fd5b506102fb61076a366004615419565b61365e565b34801561077b57600080fd5b506102fb61078a36600461547d565b6138d9565b34801561079b57600080fd5b506103486107aa36600461553b565b63f23a6e6160e01b95945050505050565b3480156107c757600080fd5b506102fb6107d63660046152db565b613b34565b60006001600160e01b03198216630271189760e51b148061080c57506301ffc9a760e01b6001600160e01b03198316145b92915050565b60008581856001600160401b0381111561082e5761082e614e10565b604051908082528060200260200182016040528015610857578160200160208202803683370190505b5090506000866001600160401b0381111561087457610874614e10565b60405190808252806020026020018201604052801561089d578160200160208202803683370190505b509050600093505b86841015610b1757336001600160a01b03167f00000000000000000000000000000000000000000000000000000000000000006001600160a01b031663bb322a836040518163ffffffff1660e01b8152600401602060405180830381865afa158015610915573d6000803e3d6000fd5b505050506040513d601f19601f8201168201806040525081019061093991906155ae565b6001600160a01b0316636352211e8a8a88818110610959576109596155cb565b905060200201356040518263ffffffff1660e01b815260040161097e91815260200190565b602060405180830381865afa15801561099b573d6000803e3d6000fd5b505050506040513d601f19601f820116820180604052508101906109bf91906155ae565b6001600160a01b031614610a1f5760405162461bcd60e51b815260206004820152602160248201527f424d5f464c415348434c41494d5f43414c4c45525f49535f4e4f545f4f574e456044820152602960f91b6064820152608401610255565b6000610a42898987818110610a3657610a366155cb565b905060200201356128d7565b90506003816101c001516003811115610a5d57610a5d615180565b1415610aab5760405162461bcd60e51b815260206004820152601a60248201527f424d5f464c415348434c41494d5f5354415455535f4552524f520000000000006044820152606401610255565b8060200151838681518110610ac257610ac26155cb565b60200260200101906001600160a01b031690816001600160a01b0316815250508060400151828681518110610af957610af96155cb565b60209081029190910101525083610b0f816155f7565b9450506108a5565b600093505b86841015610bcb57818481518110610b3657610b366155cb565b60200260200101516001600160a01b03166342842e0e308b848881518110610b6057610b606155cb565b60200260200101516040518463ffffffff1660e01b8152600401610b8693929190615612565b600060405180830381600087803b158015610ba057600080fd5b505af1158015610bb4573d6000803e3d6000fd5b505050508380610bc3906155f7565b945050610b1c565b604051628e896f60e41b81526001600160a01b038416906308e896f090610c009085908590339030908d908d9060040161565f565b6020604051808303816000875af1158015610c1f573d6000803e3d6000fd5b505050506040513d601f19601f82011682018060405250810190610c439190615728565b610c8f5760405162461bcd60e51b815260206004820152601c60248201527f424d5f464c415348434c41494d5f4558454355544f525f4552524f52000000006044820152606401610255565b600093505b86841015610dcc57818481518110610cae57610cae6155cb565b60200260200101516001600160a01b03166342842e0e8a30848881518110610cd857610cd86155cb565b60200260200101516040518463ffffffff1660e01b8152600401610cfe93929190615612565b600060405180830381600087803b158015610d1857600080fd5b505af1158015610d2c573d6000803e3d6000fd5b50505050808481518110610d4257610d426155cb565b6020026020010151828581518110610d5c57610d5c6155cb565b60200260200101516001600160a01b03168a6001600160a01b03167f6bac1c66016500cd7b62d69e86268760baac6cd34a70003af66ffa8a97983216610d9f3390565b6040516001600160a01b03909116815260200160405180910390a483610dc4816155f7565b945050610c94565b505050505050505050565b6001600160a01b038216600090815260036020908152604080832084845290915281205460ff16158015610e2357506001600160a01b0383166000908152600260205260409020548210155b9392505050565b600081815260056020818152604080842081516101e0810183528154815260018201546001600160a01b039081169482019490945260028201549281019290925260038082015460608401526004820154841660808401529381015460a083015260068101546001600160801b0380821660c0850152600160801b9091041660e0830152600781015480841661010084015264ffffffffff600160a01b82048116610120850152600160c81b90910481166101408401526008820154808216610160850152650100000000008104909116610180840152600160501b81049093166101a08301528493919290916101c084019160ff600160f01b9091041690811115610f3857610f38615180565b6003811115610f4957610f49615180565b815250509050600081610160015164ffffffffff164210610f6a5742610f78565b81610160015164ffffffffff165b9050610fb0610f9c83610140015164ffffffffff1683613bfc90919063ffffffff16565b60e08401516001600160801b031690613c08565b949350505050565b60026001541415610fdb5760405162461bcd60e51b815260040161025590615743565b6002600155600081815260056020526040902054819061100d5760405162461bcd60e51b81526004016102559061577a565b6000611018836128d7565b905060007f00000000000000000000000000000000000000000000000000000000000000006001600160a01b0316631755ff216040518163ffffffff1660e01b8152600401602060405180830381865afa15801561107a573d6000803e3d6000fd5b505050506040513d601f19601f8201168201806040525081019061109e91906155ae565b82516040516391541e0560e01b81526001600160a01b0392909216916391541e05916110d09160040190815260200190565b61018060405180830381865afa1580156110ee573d6000803e3d6000fd5b505050506040513d601f19601f8201168201806040525081019061111291906157c7565b6020015190507f00000000000000000000000000000000000000000000000000000000000000006001600160a01b0316816001600160a01b0316146111995760405162461bcd60e51b815260206004820152601c60248201527f424d5f52455041595f4554485f41535345545f4e4f545f4d41544348000000006044820152606401610255565b6001826101c0015160038111156111b2576111b2615180565b14806111d457506002826101c0015160038111156111d2576111d2615180565b145b6112185760405162461bcd60e51b81526020600482015260156024820152742126afa922a820acafa9aa20aa2aa9afa2a92927a960591b6044820152606401610255565b60008061122486613cc4565b91509150816001600160a01b03166112393390565b6001600160a01b03161461128f5760405162461bcd60e51b815260206004820152601d60248201527f424d5f52455041595f4e4f545f424f52524f575f4e46545f4f574e45520000006044820152606401610255565b600080600061129d89613eb0565b925092509250823410156112f35760405162461bcd60e51b815260206004820152601d60248201527f424d5f52455041595f4554485f494e5055545f4e4f545f454e4f5547480000006044820152606401610255565b7f00000000000000000000000000000000000000000000000000000000000000006001600160a01b031663d0e30db0846040518263ffffffff1660e01b81526004016000604051808303818588803b15801561134e57600080fd5b505af1158015611362573d6000803e3d6000fd5b5050505050856001600160a01b031663095ea7b37f00000000000000000000000000000000000000000000000000000000000000006001600160a01b0316631755ff216040518163ffffffff1660e01b8152600401602060405180830381865afa1580156113d4573d6000803e3d6000fd5b505050506040513d601f19601f820116820180604052508101906113f891906155ae565b6040516001600160e01b031960e084901b1681526001600160a01b039091166004820152602481018590526044016020604051808303816000875af1158015611445573d6000803e3d6000fd5b505050506040513d601f19601f820116820180604052508101906114699190615728565b507f00000000000000000000000000000000000000000000000000000000000000006001600160a01b0316631755ff216040518163ffffffff1660e01b8152600401602060405180830381865afa1580156114c8573d6000803e3d6000fd5b505050506040513d601f19601f820116820180604052508101906114ec91906155ae565b875160405163e78f094960e01b81526004810191909152602481018490526001600160a01b03868116604483015260006064830152919091169063e78f094990608401600060405180830381600087803b15801561154957600080fd5b505af115801561155d573d6000803e3d6000fd5b505050506000811115611600576116007f00000000000000000000000000000000000000000000000000000000000000006001600160a01b0316633d6a38446040518163ffffffff1660e01b8152600401602060405180830381865afa1580156115cb573d6000803e3d6000fd5b505050506040513d601f19601f820116820180604052508101906115ef91906155ae565b6001600160a01b0388169083613f84565b611619876020015130878a604001518b60600151613fec565b6116278988602001516141d3565b82341115611642576116423361163d8534615890565b614438565b60405133908a907f82569af5d9f2daff073ff0831c749b4d63b0b482446f46f2cf79d7df8f0720b190600090a350506001805550505050505050565b806116cb5760405162461bcd60e51b815260206004820152601960248201527f424d5f43414e43454c5f43414e4e4f545f42455f454d505459000000000000006044820152606401610255565b60005b8181101561178057336000908152600260205260409020548383838181106116f8576116f86155cb565b90506020020135101561171d5760405162461bcd60e51b8152600401610255906158a7565b336000908152600360205260408120600191858585818110611741576117416155cb565b90506020020135815260200190815260200160002060006101000a81548160ff0219169083151502179055508080611778906155f7565b9150506116ce565b50336001600160a01b03167fac0004ba1a2ea62c1d6de00ade33246fa25432a7148f9e20cce8d9fea7493aa183836040516117bc92919061591f565b60405180910390a25050565b600260015414156117eb5760405162461bcd60e51b815260040161025590615743565b6002600155600081815260056020526040902054819061181d5760405162461bcd60e51b81526004016102559061577a565b6000611828836128d7565b90506001816101c00151600381111561184357611843615180565b148061186557506002816101c00151600381111561186357611863615180565b145b6118a95760405162461bcd60e51b81526020600482015260156024820152742126afa922a820acafa9aa20aa2aa9afa2a92927a960591b6044820152606401610255565b6000806118b585613cc4565b91509150816001600160a01b03166118ca3390565b6001600160a01b0316146119205760405162461bcd60e51b815260206004820152601d60248201527f424d5f52455041595f4e4f545f424f52524f575f4e46545f4f574e45520000006044820152606401610255565b600080600061192e88613eb0565b92509250925060007f00000000000000000000000000000000000000000000000000000000000000006001600160a01b0316631755ff216040518163ffffffff1660e01b8152600401602060405180830381865afa158015611994573d6000803e3d6000fd5b505050506040513d601f19601f820116820180604052508101906119b891906155ae565b87516040516391541e0560e01b81526001600160a01b0392909216916391541e05916119ea9160040190815260200190565b61018060405180830381865afa158015611a08573d6000803e3d6000fd5b505050506040513d601f19601f82011682018060405250810190611a2c91906157c7565b602001519050611a476001600160a01b0382163330876144d4565b806001600160a01b031663095ea7b37f00000000000000000000000000000000000000000000000000000000000000006001600160a01b0316631755ff216040518163ffffffff1660e01b8152600401602060405180830381865afa158015611ab4573d6000803e3d6000fd5b505050506040513d601f19601f82011682018060405250810190611ad891906155ae565b6040516001600160e01b031960e084901b1681526001600160a01b039091166004820152602481018690526044016020604051808303816000875af1158015611b25573d6000803e3d6000fd5b505050506040513d601f19601f82011682018060405250810190611b499190615728565b507f00000000000000000000000000000000000000000000000000000000000000006001600160a01b0316631755ff216040518163ffffffff1660e01b8152600401602060405180830381865afa158015611ba8573d6000803e3d6000fd5b505050506040513d601f19601f82011682018060405250810190611bcc91906155ae565b875160405163e78f094960e01b81526004810191909152602481018590526001600160a01b03878116604483015260006064830152919091169063e78f094990608401600060405180830381600087803b158015611c2957600080fd5b505af1158015611c3d573d6000803e3d6000fd5b505050506000821115611ce057611ce07f00000000000000000000000000000000000000000000000000000000000000006001600160a01b0316633d6a38446040518163ffffffff1660e01b8152600401602060405180830381865afa158015611cab573d6000803e3d6000fd5b505050506040513d601f19601f82011682018060405250810190611ccf91906155ae565b6001600160a01b0383169084613f84565b611cf9876020015130888a604001518b60600151613fec565b611d078988602001516141d3565b60405133908a907f2469cc9e12e74c63438d5b1117b318cd3a4cdaf9d659d9eac6d975d14d96325490600090a350506001805550505050505050565b60007f00000000000000000000000000000000000000000000000000000000000000006001600160a01b0316639a9dbb996040518163ffffffff1660e01b8152600401602060405180830381865afa158015611da3573d6000803e3d6000fd5b505050506040513d601f19601f82011682018060405250810190611dc791906155ae565b90506001600160a01b038116632500f2b6336040516001600160e01b031960e084901b1681526001600160a01b039091166004820152602401602060405180830381865afa158015611e1d573d6000803e3d6000fd5b505050506040513d601f19601f82011682018060405250810190611e419190615728565b611e5d5760405162461bcd60e51b815260040161025590615933565b611e656144f5565b50565b60007f00000000000000000000000000000000000000000000000000000000000000006001600160a01b0316639a9dbb996040518163ffffffff1660e01b8152600401602060405180830381865afa158015611ec8573d6000803e3d6000fd5b505050506040513d601f19601f82011682018060405250810190611eec91906155ae565b90506001600160a01b038116639078c85a336040516001600160e01b031960e084901b1681526001600160a01b039091166004820152602401602060405180830381865afa158015611f42573d6000803e3d6000fd5b505050506040513d601f19601f82011682018060405250810190611f669190615728565b611f825760405162461bcd60e51b815260040161025590615977565b611f966001600160a01b0385168484613f84565b826001600160a01b0316846001600160a01b03167f81275949a17d84915b61eeb24587a501cc8863011afba1ed12f3f6c5bdfd6a2184604051611fdb91815260200190565b60405180910390a350505050565b600054600160a01b900460ff16156120135760405162461bcd60e51b8152600401610255906159bc565b600260015414156120365760405162461bcd60e51b815260040161025590615743565b60026001819055604051634f9df08b60e11b81527372c1Dcb9b000bAB29F2d480d84d712b4afa4D2D691639f3be116916121039160039188907f000000000000000000000000000000000000000000000000000000000000000090899089907f0000000000000000000000000000000000000000000000000000000000000000907f0000000000000000000000000000000000000000000000000000000000000000907f000000000000000000000000000000000000000000000000000000000000000090600401615ad6565b60006040518083038186803b15801561211b57600080fd5b505af415801561212f573d6000803e3d6000fd5b5050506080840180516001600160a01b031660009081526003602090815260408083206101608901518452825291829020805460ff1916600117905586015191519086015160608701516121869450309190613fec565b60007f00000000000000000000000000000000000000000000000000000000000000006001600160a01b0316631755ff216040518163ffffffff1660e01b8152600401602060405180830381865afa1580156121e6573d6000803e3d6000fd5b505050506040513d601f19601f8201168201806040525081019061220a91906155ae565b84516040516391541e0560e01b81526001600160a01b0392909216916391541e059161223c9160040190815260200190565b61018060405180830381865afa15801561225a573d6000803e3d6000fd5b505050506040513d601f19601f8201168201806040525081019061227e91906157c7565b60400151905060008061229d8660000151846122973390565b88614592565b909250905081156123ac576122bd6001600160a01b0384163330856144d4565b7f00000000000000000000000000000000000000000000000000000000000000006001600160a01b0316631755ff216040518163ffffffff1660e01b8152600401602060405180830381865afa15801561231b573d6000803e3d6000fd5b505050506040513d601f19601f8201168201806040525081019061233f91906155ae565b8651604051630ad58d2f60e01b81526004810191909152602481018490523060448201526001600160a01b039190911690630ad58d2f90606401600060405180830381600087803b15801561239357600080fd5b505af11580156123a7573d6000803e3d6000fd5b505050505b801561248957803410156124145760405162461bcd60e51b815260206004820152602960248201527f424d5f54414b455f424f52524f575f4f464645525f4554485f494e5055545f4e60448201526809ea8be8a9c9eaa8e960bb1b6064820152608401610255565b7f00000000000000000000000000000000000000000000000000000000000000006001600160a01b031663d0e30db0826040518263ffffffff1660e01b81526004016000604051808303818588803b15801561246f57600080fd5b505af1158015612483573d6000803e3d6000fd5b50505050505b6040516370a0823160e01b815230600482015285907f00000000000000000000000000000000000000000000000000000000000000006001600160a01b0316906370a0823190602401602060405180830381865afa1580156124ef573d6000803e3d6000fd5b505050506040513d601f19601f820116820180604052508101906125139190615b3a565b10156125755760405162461bcd60e51b815260206004820152602b60248201527f424d5f54414b455f424f52524f575f4f464645525f4554485f42414c414e434560448201526a0be9c9ea8be8a9c9eaa8e960ab1b6064820152608401610255565b60808601516040516323b872dd60e01b81526001600160a01b037f000000000000000000000000000000000000000000000000000000000000000016916323b872dd916125c89130918a90600401615612565b6020604051808303816000875af11580156125e7573d6000803e3d6000fd5b505050506040513d601f19601f8201168201806040525081019061260b9190615728565b506000612627876080015161261d3390565b8960200151614741565b6040516354df411f60e11b81529091507372c1Dcb9b000bAB29F2d480d84d712b4afa4D2D69063a9be823e9061268c906005908b9086908c908c907f000000000000000000000000000000000000000000000000000000000000000090600401615b53565b60006040518083038186803b1580156126a457600080fd5b505af41580156126b8573d6000803e3d6000fd5b50505050813411156126de5760006126d08334615890565b90506126dc3382614438565b505b60808701516001600160a01b0316336001600160a01b0316827f07141acefc5be4b65a882bfd654f0777113c68893007b01390f6d6824e4cde118a610160015160405161272d91815260200190565b60405180910390a45050600180555050505050565b600081815260056020818152604080842081516101e0810183528154815260018201546001600160a01b039081169482019490945260028201549281019290925260038082015460608401526004820154841660808401529381015460a083015260068101546001600160801b0380821660c0850152600160801b9091041660e0830152600781015480841661010084015264ffffffffff600160a01b82048116610120850152600160c81b90910481166101408401526008820154808216610160850152650100000000008104909116610180840152600160501b81049093166101a08301528493919290916101c084019160ff600160f01b909104169081111561285057612850615180565b600381111561286157612861615180565b905250600084815260056020526040902060080154909150600160f01b900460ff16600181600381111561289757612897615180565b1415610e23574282610180015164ffffffffff1610156128b957506003610e23565b4282610160015164ffffffffff161015610e23575060029392505050565b612954604080516101e081018252600080825260208201819052918101829052606081018290526080810182905260a0810182905260c0810182905260e08101829052610100810182905261012081018290526101408101829052610160810182905261018081018290526101a08101829052906101c082015290565b600082815260056020818152604080842081516101e0810183528154815260018201546001600160a01b039081169482019490945260028201549281019290925260038082015460608401526004820154841660808401529381015460a083015260068101546001600160801b0380821660c0850152600160801b9091041660e08301526007810154808416610100840152600160a01b810464ffffffffff908116610120850152600160c81b90910481166101408401526008820154808216610160850152650100000000008104909116610180840152600160501b81049093166101a0830152909290916101c0840191600160f01b90910460ff1690811115612a6157612a61615180565b6003811115612a7257612a72615180565b9052509050612a8083612742565b816101c001906003811115612a9757612a97615180565b90816003811115612aaa57612aaa615180565b90525092915050565b600061080c612ac183610e2a565b600084815260056020819052604090912001549061495f565b6000546001600160a01b03163314612b345760405162461bcd60e51b815260206004820181905260248201527f4f776e61626c653a2063616c6c6572206973206e6f7420746865206f776e65726044820152606401610255565b612b3e600061496b565b565b60007f00000000000000000000000000000000000000000000000000000000000000006001600160a01b0316639a9dbb996040518163ffffffff1660e01b8152600401602060405180830381865afa158015612ba0573d6000803e3d6000fd5b505050506040513d601f19601f82011682018060405250810190612bc491906155ae565b90506001600160a01b038116632500f2b6336040516001600160e01b031960e084901b1681526001600160a01b039091166004820152602401602060405180830381865afa158015612c1a573d6000803e3d6000fd5b505050506040513d601f19601f82011682018060405250810190612c3e9190615728565b612c5a5760405162461bcd60e51b815260040161025590615933565b611e656149bb565b336000908152600260205260409020548111612c905760405162461bcd60e51b8152600401610255906158a7565b33600090815260026020526040902054612cad906207a120615b99565b8110612cfb5760405162461bcd60e51b815260206004820152601c60248201527f424d5f43414e43454c5f43414e4e4f545f43414e43454c5f4d4f5245000000006044820152606401610255565b3360008181526002602052604090819020839055517f3472ca53ce86826d0cf2457fc20b0aadb9ff559e29da4c38e37e98fb8edd966d90612d3f9084815260200190565b60405180910390a250565b600054600160a01b900460ff1615612d745760405162461bcd60e51b8152600401610255906159bc565b60026001541415612d975760405162461bcd60e51b815260040161025590615743565b60026001556000818152600560205260409020548190612dc95760405162461bcd60e51b81526004016102559061577a565b6000612dd4836128d7565b90506003816101c001516003811115612def57612def615180565b14612e3c5760405162461bcd60e51b815260206004820152601960248201527f424d5f464f5245434c4f53455f5354415455535f4552524f52000000000000006044820152606401610255565b6000612e4784613cc4565b915050612e638260200151308385604001518660600151613fec565b612e718483602001516141d3565b604051339085907ee238c49f37203eb7f8f1b247198f719d692924475beb17ffb2791f4a02599190600090a35050600180555050565b600080612eb3836128d7565b905060006002826101c001516003811115612ed057612ed0615180565b1415610e2357610fb07f00000000000000000000000000000000000000000000000000000000000000006001600160a01b031663d7a5a9d36040518163ffffffff1660e01b8152600401602060405180830381865afa158015612f37573d6000803e3d6000fd5b505050506040513d601f19601f82011682018060405250810190612f5b9190615b3a565b60a084015190614a20565b60007f00000000000000000000000000000000000000000000000000000000000000006001600160a01b0316639a9dbb996040518163ffffffff1660e01b8152600401602060405180830381865afa158015612fc6573d6000803e3d6000fd5b505050506040513d601f19601f82011682018060405250810190612fea91906155ae565b90506001600160a01b038116632500f2b6336040516001600160e01b031960e084901b1681526001600160a01b039091166004820152602401602060405180830381865afa158015613040573d6000803e3d6000fd5b505050506040513d601f19601f820116820180604052508101906130649190615728565b6130805760405162461bcd60e51b815260040161025590615933565b6130946001600160a01b0385168484613f84565b50505050565b600054600160a01b900460ff16156130c45760405162461bcd60e51b8152600401610255906159bc565b600260015414156130e75760405162461bcd60e51b815260040161025590615743565b60026001819055604051634f9df08b60e11b81527372c1Dcb9b000bAB29F2d480d84d712b4afa4D2D691639f3be11691613195916003918890600090899089907f0000000000000000000000000000000000000000000000000000000000000000907f0000000000000000000000000000000000000000000000000000000000000000907f000000000000000000000000000000000000000000000000000000000000000090600401615ad6565b60006040518083038186803b1580156131ad57600080fd5b505af41580156131c1573d6000803e3d6000fd5b5050506080840180516001600160a01b031660009081526003602090815260408083206101608901518452825291829020805460ff1916600117905586015191519086015160608701516132189450309190613fec565b60007f00000000000000000000000000000000000000000000000000000000000000006001600160a01b0316631755ff216040518163ffffffff1660e01b8152600401602060405180830381865afa158015613278573d6000803e3d6000fd5b505050506040513d601f19601f8201168201806040525081019061329c91906155ae565b84516040516391541e0560e01b81526001600160a01b0392909216916391541e05916132ce9160040190815260200190565b61018060405180830381865afa1580156132ec573d6000803e3d6000fd5b505050506040513d601f19601f8201168201806040525081019061331091906157c7565b9050600080613329866000015184604001516122973390565b9092509050811561353e5760007f00000000000000000000000000000000000000000000000000000000000000006001600160a01b0316631755ff216040518163ffffffff1660e01b8152600401602060405180830381865afa158015613394573d6000803e3d6000fd5b505050506040513d601f19601f820116820180604052508101906133b891906155ae565b87516040516391541e0560e01b81526001600160a01b0392909216916391541e05916133ea9160040190815260200190565b61018060405180830381865afa158015613408573d6000803e3d6000fd5b505050506040513d601f19601f8201168201806040525081019061342c91906157c7565b6040015190506134476001600160a01b0382163330866144d4565b7f00000000000000000000000000000000000000000000000000000000000000006001600160a01b0316631755ff216040518163ffffffff1660e01b8152600401602060405180830381865afa1580156134a5573d6000803e3d6000fd5b505050506040513d601f19601f820116820180604052508101906134c991906155ae565b87516080890151604051630ad58d2f60e01b81526004810192909252602482018690526001600160a01b0390811660448301529190911690630ad58d2f90606401600060405180830381600087803b15801561352457600080fd5b505af1158015613538573d6000803e3d6000fd5b50505050505b80156135635761356333608088015160208601516001600160a01b03169190846144d4565b6000613574876080015161261d3390565b6040516354df411f60e11b81529091507372c1Dcb9b000bAB29F2d480d84d712b4afa4D2D69063a9be823e906135d9906005908b9086908c908c907f000000000000000000000000000000000000000000000000000000000000000090600401615b53565b60006040518083038186803b1580156135f157600080fd5b505af4158015613605573d6000803e3d6000fd5b5050505086608001516001600160a01b031661361e3390565b6001600160a01b0316827fab157b8cd54d46b9caba037acb2d145ddcc71afb209196c78223291654fd2c3c8a610160015160405161272d91815260200190565b60007f00000000000000000000000000000000000000000000000000000000000000006001600160a01b0316639a9dbb996040518163ffffffff1660e01b8152600401602060405180830381865afa1580156136be573d6000803e3d6000fd5b505050506040513d601f19601f820116820180604052508101906136e291906155ae565b90506001600160a01b038116639078c85a336040516001600160e01b031960e084901b1681526001600160a01b039091166004820152602401602060405180830381865afa158015613738573d6000803e3d6000fd5b505050506040513d601f19601f8201168201806040525081019061375c9190615728565b6137785760405162461bcd60e51b815260040161025590615977565b6001600160a01b038516600090815260066020526040902054156137ec5760405162461bcd60e51b815260206004820152602560248201527f424d5f434c41494d5f4552433732315f41495244524f505f4e4f545f5355505060448201526413d495115160da1b6064820152608401610255565b60005b8281101561388457856001600160a01b03166342842e0e308787878681811061381a5761381a6155cb565b905060200201356040518463ffffffff1660e01b815260040161383f93929190615612565b600060405180830381600087803b15801561385957600080fd5b505af115801561386d573d6000803e3d6000fd5b50505050808061387c906155f7565b9150506137ef565b50836001600160a01b0316856001600160a01b03167f6c6b18e67b757c02ba92ef0f54038fc2135767acf9bef174b8780835ff45582285856040516138ca92919061591f565b60405180910390a35050505050565b60007f00000000000000000000000000000000000000000000000000000000000000006001600160a01b0316639a9dbb996040518163ffffffff1660e01b8152600401602060405180830381865afa158015613939573d6000803e3d6000fd5b505050506040513d601f19601f8201168201806040525081019061395d91906155ae565b90506001600160a01b038116639078c85a336040516001600160e01b031960e084901b1681526001600160a01b039091166004820152602401602060405180830381865afa1580156139b3573d6000803e3d6000fd5b505050506040513d601f19601f820116820180604052508101906139d79190615728565b6139f35760405162461bcd60e51b815260040161025590615977565b6001600160a01b03891660009081526006602052604090205415613a685760405162461bcd60e51b815260206004820152602660248201527f424d5f434c41494d5f455243313135355f41495244524f505f4e4f545f5355506044820152651413d495115160d21b6064820152608401610255565b604051631759616b60e11b81526001600160a01b038a1690632eb2c2d690613aa29030908c908c908c908c908c908c908c90600401615bb1565b600060405180830381600087803b158015613abc57600080fd5b505af1158015613ad0573d6000803e3d6000fd5b50505050876001600160a01b0316896001600160a01b03167fc8144f7a11a69e58de79275b3e7420b4942b4e8318a0e0aa9ccb457c60387b02898989898989604051613b2196959493929190615c06565b60405180910390a3505050505050505050565b6000546001600160a01b03163314613b8e5760405162461bcd60e51b815260206004820181905260248201527f4f776e61626c653a2063616c6c6572206973206e6f7420746865206f776e65726044820152606401610255565b6001600160a01b038116613bf35760405162461bcd60e51b815260206004820152602660248201527f4f776e61626c653a206e6577206f776e657220697320746865207a65726f206160448201526564647265737360d01b6064820152608401610255565b611e658161496b565b6000610e238284615890565b6000821580613c15575081155b15613c225750600061080c565b81613c3a60026b033b2e3c9fd0803ce8000000615c4f565b613c4690600019615890565b613c509190615c4f565b8311156040518060400160405280600381526020016203130360ec1b81525090613c8d5760405162461bcd60e51b81526004016102559190615c9d565b506b033b2e3c9fd0803ce8000000613ca6600282615c4f565b613cb08486615cd0565b613cba9190615b99565b610e239190615c4f565b6000807f00000000000000000000000000000000000000000000000000000000000000006001600160a01b031663b39348386040518163ffffffff1660e01b8152600401602060405180830381865afa158015613d25573d6000803e3d6000fd5b505050506040513d601f19601f82011682018060405250810190613d4991906155ae565b6001600160a01b0316636352211e846040518263ffffffff1660e01b8152600401613d7691815260200190565b602060405180830381865afa158015613d93573d6000803e3d6000fd5b505050506040513d601f19601f82011682018060405250810190613db791906155ae565b90507f00000000000000000000000000000000000000000000000000000000000000006001600160a01b031663bb322a836040518163ffffffff1660e01b8152600401602060405180830381865afa158015613e17573d6000803e3d6000fd5b505050506040513d601f19601f82011682018060405250810190613e3b91906155ae565b6001600160a01b0316636352211e846040518263ffffffff1660e01b8152600401613e6891815260200190565b602060405180830381865afa158015613e85573d6000803e3d6000fd5b505050506040513d601f19601f82011682018060405250810190613ea991906155ae565b9150915091565b600080600080613ebf85612ea7565b9050613ed481613ece87612ab3565b9061495f565b9350613f6e7f00000000000000000000000000000000000000000000000000000000000000006001600160a01b0316634322b7146040518163ffffffff1660e01b8152600401602060405180830381865afa158015613f37573d6000803e3d6000fd5b505050506040513d601f19601f82011682018060405250810190613f5b9190615b3a565b613f6883613ece89610e2a565b90614a20565b9150613f7a8483613bfc565b9250509193909250565b6040516001600160a01b038316602482015260448101829052613fe790849063a9059cbb60e01b906064015b60408051601f198184030181529190526020810180516001600160e01b03166001600160e01b031990931692909217909152614aaa565b505050565b6040516301ffc9a760e01b81526380ac58cd60e01b60048201526001600160a01b038616906301ffc9a790602401602060405180830381865afa158015614037573d6000803e3d6000fd5b505050506040513d601f19601f8201168201806040525081019061405b9190615728565b156140c757604051632142170760e11b81526001600160a01b038616906342842e0e9061409090879087908790600401615612565b600060405180830381600087803b1580156140aa57600080fd5b505af11580156140be573d6000803e3d6000fd5b505050506141cc565b6040516301ffc9a760e01b8152636cdb3d1360e11b60048201526001600160a01b038616906301ffc9a790602401602060405180830381865afa158015614112573d6000803e3d6000fd5b505050506040513d601f19601f820116820180604052508101906141369190615728565b1561418d57604051637921219560e11b81526001600160a01b0385811660048301528481166024830152604482018490526064820183905260a06084830152600060a483015286169063f242432a9060c401614090565b60405162461bcd60e51b8152602060048201526014602482015273109357d3919517d393d517d4d5541413d495115160621b6044820152606401610255565b5050505050565b7f00000000000000000000000000000000000000000000000000000000000000006001600160a01b031663bb322a836040518163ffffffff1660e01b8152600401602060405180830381865afa158015614231573d6000803e3d6000fd5b505050506040513d601f19601f8201168201806040525081019061425591906155ae565b6001600160a01b03166342966c68836040518263ffffffff1660e01b815260040161428291815260200190565b600060405180830381600087803b15801561429c57600080fd5b505af11580156142b0573d6000803e3d6000fd5b505050507f00000000000000000000000000000000000000000000000000000000000000006001600160a01b031663b39348386040518163ffffffff1660e01b8152600401602060405180830381865afa158015614312573d6000803e3d6000fd5b505050506040513d601f19601f8201168201806040525081019061433691906155ae565b6001600160a01b03166342966c68836040518263ffffffff1660e01b815260040161436391815260200190565b600060405180830381600087803b15801561437d57600080fd5b505af1158015614391573d6000803e3d6000fd5b505050506001600160a01b03811660009081526006602052604081208054600192906143be908490615890565b909155505050600090815260056020819052604082208281556001810180546001600160a01b03199081169091556002820184905560038201849055600482018054909116905590810182905560068101919091556007810180546001600160f01b031916905560080180546001600160f81b0319169055565b6000826001600160a01b03168260405160006040518083038185875af1925050503d8060008114614485576040519150601f19603f3d011682016040523d82523d6000602084013e61448a565b606091505b5050905080613fe75760405162461bcd60e51b8152602060048201526016602482015275109357d1551217d514905394d1915497d1905253115160521b6044820152606401610255565b613094846323b872dd60e01b858585604051602401613fb093929190615612565b600054600160a01b900460ff166145455760405162461bcd60e51b815260206004820152601460248201527314185d5cd8589b194e881b9bdd081c185d5cd95960621b6044820152606401610255565b6000805460ff60a01b191690557f5db9ee0a495bf2e6ff9c91a7834c1ba4fdd244a5e8aa4e537bd38aeae4b073aa335b6040516001600160a01b03909116815260200160405180910390a1565b6040516370a0823160e01b81526001600160a01b03838116600483015260009182918291908716906370a0823190602401602060405180830381865afa1580156145e0573d6000803e3d6000fd5b505050506040513d601f19601f820116820180604052508101906146049190615b3a565b905060007f00000000000000000000000000000000000000000000000000000000000000006001600160a01b0316631755ff216040518163ffffffff1660e01b8152600401602060405180830381865afa158015614666573d6000803e3d6000fd5b505050506040513d601f19601f8201168201806040525081019061468a91906155ae565b6001600160a01b0316630aad628b896040518263ffffffff1660e01b81526004016146b791815260200190565b602060405180830381865afa1580156146d4573d6000803e3d6000fd5b505050506040513d601f19601f820116820180604052508101906146f89190615b3a565b90508181116147075780614709565b815b9150848210614718578461471a565b815b935084821061472a576000614734565b6147348583613bfc565b9250505094509492505050565b600060045460016147529190615b99565b60048181556040805163bb322a8360e01b815290516001600160a01b037f0000000000000000000000000000000000000000000000000000000000000000169263bb322a83928082019260209290918290030181865afa1580156147ba573d6000803e3d6000fd5b505050506040513d601f19601f820116820180604052508101906147de91906155ae565b6040516394bf804d60e01b8152600481018390526001600160a01b03878116602483015291909116906394bf804d90604401600060405180830381600087803b15801561482a57600080fd5b505af115801561483e573d6000803e3d6000fd5b505050507f00000000000000000000000000000000000000000000000000000000000000006001600160a01b031663b39348386040518163ffffffff1660e01b8152600401602060405180830381865afa1580156148a0573d6000803e3d6000fd5b505050506040513d601f19601f820116820180604052508101906148c491906155ae565b6040516394bf804d60e01b8152600481018390526001600160a01b03868116602483015291909116906394bf804d90604401600060405180830381600087803b15801561491057600080fd5b505af1158015614924573d6000803e3d6000fd5b505050506001600160a01b0383166000908152600660205260408120805460019290614951908490615b99565b909155509095945050505050565b6000610e238284615b99565b600080546001600160a01b038381166001600160a01b0319831681178455604051919092169283917f8be0079c531659141344cd1fd0a4f28419497f9722a3daafe3b4186f6b6457e09190a35050565b600054600160a01b900460ff16156149e55760405162461bcd60e51b8152600401610255906159bc565b6000805460ff60a01b1916600160a01b1790557f62e78cea01bee320cd4e420270b5ea74000d11b0c9f74754ebdbfc544b05a2586145753390565b6000821580614a2d575081155b15614a3a5750600061080c565b81614a486002612710615c4f565b614a5490600019615890565b614a5e9190615c4f565b8311156040518060400160405280600381526020016203130360ec1b81525090614a9b5760405162461bcd60e51b81526004016102559190615c9d565b50612710613ca6600282615c4f565b6000614aff826040518060400160405280602081526020017f5361666545524332303a206c6f772d6c6576656c2063616c6c206661696c6564815250856001600160a01b0316614b7c9092919063ffffffff16565b805190915015613fe75780806020019051810190614b1d9190615728565b613fe75760405162461bcd60e51b815260206004820152602a60248201527f5361666545524332303a204552433230206f7065726174696f6e20646964206e6044820152691bdd081cdd58d8d9595960b21b6064820152608401610255565b6060610fb0848460008585843b614bd55760405162461bcd60e51b815260206004820152601d60248201527f416464726573733a2063616c6c20746f206e6f6e2d636f6e74726163740000006044820152606401610255565b600080866001600160a01b03168587604051614bf19190615cef565b60006040518083038185875af1925050503d8060008114614c2e576040519150601f19603f3d011682016040523d82523d6000602084013e614c33565b606091505b5091509150614c43828286614c4e565b979650505050505050565b60608315614c5d575081610e23565b825115614c6d5782518084602001fd5b8160405162461bcd60e51b81526004016102559190615c9d565b600060208284031215614c9957600080fd5b81356001600160e01b031981168114610e2357600080fd5b6001600160a01b0381168114611e6557600080fd5b8035614cd181614cb1565b919050565b60008083601f840112614ce857600080fd5b5081356001600160401b03811115614cff57600080fd5b6020830191508360208260051b8501011115614d1a57600080fd5b9250929050565b60008083601f840112614d3357600080fd5b5081356001600160401b03811115614d4a57600080fd5b602083019150836020828501011115614d1a57600080fd5b600080600080600060608688031215614d7a57600080fd5b8535614d8581614cb1565b945060208601356001600160401b0380821115614da157600080fd5b614dad89838a01614cd6565b90965094506040880135915080821115614dc657600080fd5b50614dd388828901614d21565b969995985093965092949392505050565b60008060408385031215614df757600080fd5b8235614e0281614cb1565b946020939093013593505050565b634e487b7160e01b600052604160045260246000fd5b60405161020081016001600160401b0381118282101715614e4957614e49614e10565b60405290565b60405161018081016001600160401b0381118282101715614e4957614e49614e10565b604051601f8201601f191681016001600160401b0381118282101715614e9a57614e9a614e10565b604052919050565b600082601f830112614eb357600080fd5b81356001600160401b03811115614ecc57614ecc614e10565b614edf601f8201601f1916602001614e72565b818152846020838601011115614ef457600080fd5b816020850160208301376000918101602001919091529392505050565b60008060008060808587031215614f2757600080fd5b8435614f3281614cb1565b93506020850135614f4281614cb1565b92506040850135915060608501356001600160401b03811115614f6457600080fd5b614f7087828801614ea2565b91505092959194509250565b600060208284031215614f8e57600080fd5b5035919050565b60008060208385031215614fa857600080fd5b82356001600160401b03811115614fbe57600080fd5b614fca85828601614cd6565b90969095509350505050565b600080600060608486031215614feb57600080fd5b8335614ff681614cb1565b9250602084013561500681614cb1565b929592945050506040919091013590565b64ffffffffff81168114611e6557600080fd5b8035614cd181615017565b6001600160801b0381168114611e6557600080fd5b8035614cd181615035565b803560ff81168114614cd157600080fd5b600080600083850361024081121561507d57600080fd5b6102008082121561508d57600080fd5b615095614e26565b9150853582526150a760208701614cc6565b602083015260408601356040830152606086013560608301526150cc60808701614cc6565b608083015260a086013560a083015260c086013560c08301526150f160e0870161502a565b60e083015261010061510481880161502a565b9083015261012061511687820161504a565b90830152610140615128878201614cc6565b90830152610160868101359083015261018080870135908301526101a0615150818801615055565b908301526101c086810135908301526101e080870135908301529096908501359550610220909401359392505050565b634e487b7160e01b600052602160045260246000fd5b600481106151b457634e487b7160e01b600052602160045260246000fd5b9052565b6020810161080c8284615196565b815181526020808301516101e08301916151ea908401826001600160a01b03169052565b506040830151604083015260608301516060830152608083015161521960808401826001600160a01b03169052565b5060a083015160a083015260c083015161523e60c08401826001600160801b03169052565b5060e083015161525960e08401826001600160801b03169052565b50610100838101516001600160a01b03908116918401919091526101208085015164ffffffffff90811691850191909152610140808601518216908501526101608086015182169085015261018080860151909116908401526101a080850151909116908301526101c0808401516152d382850182615196565b505092915050565b6000602082840312156152ed57600080fd5b8135610e2381614cb1565b600082601f83011261530957600080fd5b813560206001600160401b0382111561532457615324614e10565b8160051b615333828201614e72565b928352848101820192828101908785111561534d57600080fd5b83870192505b84831015614c4357823582529183019190830190615353565b600080600080600060a0868803121561538457600080fd5b853561538f81614cb1565b9450602086013561539f81614cb1565b935060408601356001600160401b03808211156153bb57600080fd5b6153c789838a016152f8565b945060608801359150808211156153dd57600080fd5b6153e989838a016152f8565b935060808801359150808211156153ff57600080fd5b5061540c88828901614ea2565b9150509295509295909350565b6000806000806060858703121561542f57600080fd5b843561543a81614cb1565b9350602085013561544a81614cb1565b925060408501356001600160401b0381111561546557600080fd5b61547187828801614cd6565b95989497509550505050565b60008060008060008060008060a0898b03121561549957600080fd5b88356154a481614cb1565b975060208901356154b481614cb1565b965060408901356001600160401b03808211156154d057600080fd5b6154dc8c838d01614cd6565b909850965060608b01359150808211156154f557600080fd5b6155018c838d01614cd6565b909650945060808b013591508082111561551a57600080fd5b506155278b828c01614d21565b999c989b5096995094979396929594505050565b600080600080600060a0868803121561555357600080fd5b853561555e81614cb1565b9450602086013561556e81614cb1565b9350604086013592506060860135915060808601356001600160401b0381111561559757600080fd5b61540c88828901614ea2565b8051614cd181614cb1565b6000602082840312156155c057600080fd5b8151610e2381614cb1565b634e487b7160e01b600052603260045260246000fd5b634e487b7160e01b600052601160045260246000fd5b600060001982141561560b5761560b6155e1565b5060010190565b6001600160a01b039384168152919092166020820152604081019190915260600190565b81835281816020850137506000828201602090810191909152601f909101601f19169091010190565b60a0808252875190820181905260009060209060c0840190828b01845b828110156156a15781516001600160a01b03168452928401929084019060010161567c565b5050508381038285015288518082528983019183019060005b818110156156d6578351835292840192918401916001016156ba565b50506001600160a01b03891660408601526001600160a01b03881660608601528481036080860152615709818789615636565b9b9a5050505050505050505050565b80518015158114614cd157600080fd5b60006020828403121561573a57600080fd5b610e2382615718565b6020808252601f908201527f5265656e7472616e637947756172643a207265656e7472616e742063616c6c00604082015260600190565b60208082526018908201527f424d5f434845434b5f4c4f414e5f4e4f545f4558495354530000000000000000604082015260600190565b8051614cd181615035565b8051614cd181615017565b600061018082840312156157da57600080fd5b6157e2614e4f565b825181526157f2602084016155a3565b6020820152615803604084016155a3565b6040820152615814606084016155a3565b6060820152615825608084016157b1565b608082015260a083015160a082015260c083015160c082015261584a60e084016157bc565b60e082015261010083810151908201526101206158688185016155a3565b908201526101408381015190820152610160615885818501615718565b908201529392505050565b6000828210156158a2576158a26155e1565b500390565b60208082526022908201527f424d5f43414e43454c5f4e4f4e43455f4c4f5745525f5448414e5f4355525245604082015261139560f21b606082015260800190565b81835260006001600160fb1b0383111561590257600080fd5b8260051b8083602087013760009401602001938452509192915050565b602081526000610fb06020830184866158e9565b60208082526024908201527f424d5f41434c5f4f4e4c595f454d455247454e43595f41444d494e5f43414e5f60408201526310d0531360e21b606082015260800190565b60208082526025908201527f424d5f41434c5f4f4e4c595f41495244524f505f4f50455241544f525f43414e60408201526417d0d0531360da1b606082015260800190565b60208082526010908201526f14185d5cd8589b194e881c185d5cd95960821b604082015260600190565b805182526020810151615a0460208401826001600160a01b03169052565b5060408101516040830152606081015160608301526080810151615a3360808401826001600160a01b03169052565b5060a081015160a083015260c081015160c083015260e0810151615a6060e084018264ffffffffff169052565b506101008181015164ffffffffff1690830152610120808201516001600160801b031690830152610140808201516001600160a01b031690830152610160808201519083015261018080820151908301526101a08082015160ff16908301526101c080820151908301526101e090810151910152565b898152602081018990526103008101615af2604083018a6159e6565b6001600160a01b039788166102408301526102608201969096526102808101949094526102a084019290925284166102c08301529092166102e0909201919091529392505050565b600060208284031215615b4c57600080fd5b5051919050565b8681526102a08101615b6860208301886159e6565b6102208201959095526102408101939093526102608301919091526001600160a01b03166102809091015292915050565b60008219821115615bac57615bac6155e1565b500190565b6001600160a01b0389811682528816602082015260a060408201819052600090615bde908301888a6158e9565b8281036060840152615bf18187896158e9565b90508281036080840152615709818587615636565b606081526000615c1a60608301888a6158e9565b8281036020840152615c2d8187896158e9565b90508281036040840152615c42818587615636565b9998505050505050505050565b600082615c6c57634e487b7160e01b600052601260045260246000fd5b500490565b60005b83811015615c8c578181015183820152602001615c74565b838111156130945750506000910152565b6020815260008251806020840152615cbc816040850160208701615c71565b601f01601f19169190910160400192915050565b6000816000190483118215151615615cea57615cea6155e1565b500290565b60008251615d01818460208701615c71565b919091019291505056fea2646970667358221220d140a9a73c491c3da6d289eff4ec551b0a1d72db9a7fe7b3ab11e1a1baca060b64736f6c634300080a0033",
  "deployedBytecode": "0x6080604052600436106102135760003560e01c8063715018a611610118578063aa99fa98116100a0578063bc6bc0cd1161006f578063bc6bc0cd14610734578063cae595531461074f578063e3185e121461076f578063f23a6e611461078f578063f2fde38b146107bb5761025e565b8063aa99fa9814610673578063ad5c4648146106a0578063ade97ab5146106d4578063bc197c81146107085761025e565b80638bf1badd116100e75780638bf1badd146105d55780638da5cb5b146105f557806396e5968214610613578063a3d5b25514610633578063a6348739146106535761025e565b8063715018a61461055e5780638456cb591461057357806384e5cec5146105885780638a181833146105a85761025e565b80633644e5151161019b5780635b3ce3241161016a5780635b3ce324146104b25780635c622a0e146104c55780635c975abb146104f2578063622fe39f146105115780636b52b3651461053e5761025e565b80633644e51514610429578063371fd8e61461045d5780633f4ba83a1461047d5780634f070916146104925761025e565b80631c187495116101e25780631c187495146103615780632247463e1461038f57806329c55f06146103a25780632f844ea8146103ee57806333bf61561461040e5761025e565b806301ffc9a7146102a657806303282d6e146102db5780630647ee20146102fd578063150b7a021461031d5761025e565b3661025e5760405162461bcd60e51b8152602060048201526016602482015275109357d49150d152559157d393d517d0531313d5d15160521b60448201526064015b60405180910390fd5b60405162461bcd60e51b815260206004820152601760248201527f424d5f46414c4c4241434b5f4e4f545f414c4c4f5745440000000000000000006044820152606401610255565b3480156102b257600080fd5b506102c66102c1366004614c87565b6107db565b60405190151581526020015b60405180910390f35b3480156102e757600080fd5b506102fb6102f6366004614d62565b610812565b005b34801561030957600080fd5b506102c6610318366004614de4565b610dd7565b34801561032957600080fd5b50610348610338366004614f11565b630a85bd0160e11b949350505050565b6040516001600160e01b031990911681526020016102d2565b34801561036d57600080fd5b5061038161037c366004614f7c565b610e2a565b6040519081526020016102d2565b6102fb61039d366004614f7c565b610fb8565b3480156103ae57600080fd5b506103d67f000000000000000000000000000000000000000000000000000000000000000081565b6040516001600160a01b0390911681526020016102d2565b3480156103fa57600080fd5b506102fb610409366004614f95565b61167e565b34801561041a57600080fd5b50610348636cdb3d1360e11b81565b34801561043557600080fd5b506103817f000000000000000000000000000000000000000000000000000000000000000081565b34801561046957600080fd5b506102fb610478366004614f7c565b6117c8565b34801561048957600080fd5b506102fb611d43565b34801561049e57600080fd5b506102fb6104ad366004614fd6565b611e68565b6102fb6104c0366004615066565b611fe9565b3480156104d157600080fd5b506104e56104e0366004614f7c565b612742565b6040516102d291906151b8565b3480156104fe57600080fd5b50600054600160a01b900460ff166102c6565b34801561051d57600080fd5b5061053161052c366004614f7c565b6128d7565b6040516102d291906151c6565b34801561054a57600080fd5b50610381610559366004614f7c565b612ab3565b34801561056a57600080fd5b506102fb612ada565b34801561057f57600080fd5b506102fb612b40565b34801561059457600080fd5b506102fb6105a3366004614f7c565b612c62565b3480156105b457600080fd5b506103816105c33660046152db565b60066020526000908152604090205481565b3480156105e157600080fd5b506102fb6105f0366004614f7c565b612d4a565b34801561060157600080fd5b506000546001600160a01b03166103d6565b34801561061f57600080fd5b5061038161062e366004614f7c565b612ea7565b34801561063f57600080fd5b506102fb61064e366004614fd6565b612f66565b34801561065f57600080fd5b506102fb61066e366004615066565b61309a565b34801561067f57600080fd5b5061038161068e3660046152db565b60026020526000908152604090205481565b3480156106ac57600080fd5b506103d67f000000000000000000000000000000000000000000000000000000000000000081565b3480156106e057600080fd5b506103d67f000000000000000000000000000000000000000000000000000000000000000081565b34801561071457600080fd5b5061034861072336600461536c565b63bc197c8160e01b95945050505050565b34801561074057600080fd5b506103486380ac58cd60e01b81565b34801561075b57600080fd5b506102fb61076a366004615419565b61365e565b34801561077b57600080fd5b506102fb61078a36600461547d565b6138d9565b34801561079b57600080fd5b506103486107aa36600461553b565b63f23a6e6160e01b95945050505050565b3480156107c757600080fd5b506102fb6107d63660046152db565b613b34565b60006001600160e01b03198216630271189760e51b148061080c57506301ffc9a760e01b6001600160e01b03198316145b92915050565b60008581856001600160401b0381111561082e5761082e614e10565b604051908082528060200260200182016040528015610857578160200160208202803683370190505b5090506000866001600160401b0381111561087457610874614e10565b60405190808252806020026020018201604052801561089d578160200160208202803683370190505b509050600093505b86841015610b1757336001600160a01b03167f00000000000000000000000000000000000000000000000000000000000000006001600160a01b031663bb322a836040518163ffffffff1660e01b8152600401602060405180830381865afa158015610915573d6000803e3d6000fd5b505050506040513d601f19601f8201168201806040525081019061093991906155ae565b6001600160a01b0316636352211e8a8a88818110610959576109596155cb565b905060200201356040518263ffffffff1660e01b815260040161097e91815260200190565b602060405180830381865afa15801561099b573d6000803e3d6000fd5b505050506040513d601f19601f820116820180604052508101906109bf91906155ae565b6001600160a01b031614610a1f5760405162461bcd60e51b815260206004820152602160248201527f424d5f464c415348434c41494d5f43414c4c45525f49535f4e4f545f4f574e456044820152602960f91b6064820152608401610255565b6000610a42898987818110610a3657610a366155cb565b905060200201356128d7565b90506003816101c001516003811115610a5d57610a5d615180565b1415610aab5760405162461bcd60e51b815260206004820152601a60248201527f424d5f464c415348434c41494d5f5354415455535f4552524f520000000000006044820152606401610255565b8060200151838681518110610ac257610ac26155cb565b60200260200101906001600160a01b031690816001600160a01b0316815250508060400151828681518110610af957610af96155cb565b60209081029190910101525083610b0f816155f7565b9450506108a5565b600093505b86841015610bcb57818481518110610b3657610b366155cb565b60200260200101516001600160a01b03166342842e0e308b848881518110610b6057610b606155cb565b60200260200101516040518463ffffffff1660e01b8152600401610b8693929190615612565b600060405180830381600087803b158015610ba057600080fd5b505af1158015610bb4573d6000803e3d6000fd5b505050508380610bc3906155f7565b945050610b1c565b604051628e896f60e41b81526001600160a01b038416906308e896f090610c009085908590339030908d908d9060040161565f565b6020604051808303816000875af1158015610c1f573d6000803e3d6000fd5b505050506040513d601f19601f82011682018060405250810190610c439190615728565b610c8f5760405162461bcd60e51b815260206004820152601c60248201527f424d5f464c415348434c41494d5f4558454355544f525f4552524f52000000006044820152606401610255565b600093505b86841015610dcc57818481518110610cae57610cae6155cb565b60200260200101516001600160a01b03166342842e0e8a30848881518110610cd857610cd86155cb565b60200260200101516040518463ffffffff1660e01b8152600401610cfe93929190615612565b600060405180830381600087803b158015610d1857600080fd5b505af1158015610d2c573d6000803e3d6000fd5b50505050808481518110610d4257610d426155cb565b6020026020010151828581518110610d5c57610d5c6155cb565b60200260200101516001600160a01b03168a6001600160a01b03167f6bac1c66016500cd7b62d69e86268760baac6cd34a70003af66ffa8a97983216610d9f3390565b6040516001600160a01b03909116815260200160405180910390a483610dc4816155f7565b945050610c94565b505050505050505050565b6001600160a01b038216600090815260036020908152604080832084845290915281205460ff16158015610e2357506001600160a01b0383166000908152600260205260409020548210155b9392505050565b600081815260056020818152604080842081516101e0810183528154815260018201546001600160a01b039081169482019490945260028201549281019290925260038082015460608401526004820154841660808401529381015460a083015260068101546001600160801b0380821660c0850152600160801b9091041660e0830152600781015480841661010084015264ffffffffff600160a01b82048116610120850152600160c81b90910481166101408401526008820154808216610160850152650100000000008104909116610180840152600160501b81049093166101a08301528493919290916101c084019160ff600160f01b9091041690811115610f3857610f38615180565b6003811115610f4957610f49615180565b815250509050600081610160015164ffffffffff164210610f6a5742610f78565b81610160015164ffffffffff165b9050610fb0610f9c83610140015164ffffffffff1683613bfc90919063ffffffff16565b60e08401516001600160801b031690613c08565b949350505050565b60026001541415610fdb5760405162461bcd60e51b815260040161025590615743565b6002600155600081815260056020526040902054819061100d5760405162461bcd60e51b81526004016102559061577a565b6000611018836128d7565b905060007f00000000000000000000000000000000000000000000000000000000000000006001600160a01b0316631755ff216040518163ffffffff1660e01b8152600401602060405180830381865afa15801561107a573d6000803e3d6000fd5b505050506040513d601f19601f8201168201806040525081019061109e91906155ae565b82516040516391541e0560e01b81526001600160a01b0392909216916391541e05916110d09160040190815260200190565b61018060405180830381865afa1580156110ee573d6000803e3d6000fd5b505050506040513d601f19601f8201168201806040525081019061111291906157c7565b6020015190507f00000000000000000000000000000000000000000000000000000000000000006001600160a01b0316816001600160a01b0316146111995760405162461bcd60e51b815260206004820152601c60248201527f424d5f52455041595f4554485f41535345545f4e4f545f4d41544348000000006044820152606401610255565b6001826101c0015160038111156111b2576111b2615180565b14806111d457506002826101c0015160038111156111d2576111d2615180565b145b6112185760405162461bcd60e51b81526020600482015260156024820152742126afa922a820acafa9aa20aa2aa9afa2a92927a960591b6044820152606401610255565b60008061122486613cc4565b91509150816001600160a01b03166112393390565b6001600160a01b03161461128f5760405162461bcd60e51b815260206004820152601d60248201527f424d5f52455041595f4e4f545f424f52524f575f4e46545f4f574e45520000006044820152606401610255565b600080600061129d89613eb0565b925092509250823410156112f35760405162461bcd60e51b815260206004820152601d60248201527f424d5f52455041595f4554485f494e5055545f4e4f545f454e4f5547480000006044820152606401610255565b7f00000000000000000000000000000000000000000000000000000000000000006001600160a01b031663d0e30db0846040518263ffffffff1660e01b81526004016000604051808303818588803b15801561134e57600080fd5b505af1158015611362573d6000803e3d6000fd5b5050505050856001600160a01b031663095ea7b37f00000000000000000000000000000000000000000000000000000000000000006001600160a01b0316631755ff216040518163ffffffff1660e01b8152600401602060405180830381865afa1580156113d4573d6000803e3d6000fd5b505050506040513d601f19601f820116820180604052508101906113f891906155ae565b6040516001600160e01b031960e084901b1681526001600160a01b039091166004820152602481018590526044016020604051808303816000875af1158015611445573d6000803e3d6000fd5b505050506040513d601f19601f820116820180604052508101906114699190615728565b507f00000000000000000000000000000000000000000000000000000000000000006001600160a01b0316631755ff216040518163ffffffff1660e01b8152600401602060405180830381865afa1580156114c8573d6000803e3d6000fd5b505050506040513d601f19601f820116820180604052508101906114ec91906155ae565b875160405163e78f094960e01b81526004810191909152602481018490526001600160a01b03868116604483015260006064830152919091169063e78f094990608401600060405180830381600087803b15801561154957600080fd5b505af115801561155d573d6000803e3d6000fd5b505050506000811115611600576116007f00000000000000000000000000000000000000000000000000000000000000006001600160a01b0316633d6a38446040518163ffffffff1660e01b8152600401602060405180830381865afa1580156115cb573d6000803e3d6000fd5b505050506040513d601f19601f820116820180604052508101906115ef91906155ae565b6001600160a01b0388169083613f84565b611619876020015130878a604001518b60600151613fec565b6116278988602001516141d3565b82341115611642576116423361163d8534615890565b614438565b60405133908a907f82569af5d9f2daff073ff0831c749b4d63b0b482446f46f2cf79d7df8f0720b190600090a350506001805550505050505050565b806116cb5760405162461bcd60e51b815260206004820152601960248201527f424d5f43414e43454c5f43414e4e4f545f42455f454d505459000000000000006044820152606401610255565b60005b8181101561178057336000908152600260205260409020548383838181106116f8576116f86155cb565b90506020020135101561171d5760405162461bcd60e51b8152600401610255906158a7565b336000908152600360205260408120600191858585818110611741576117416155cb565b90506020020135815260200190815260200160002060006101000a81548160ff0219169083151502179055508080611778906155f7565b9150506116ce565b50336001600160a01b03167fac0004ba1a2ea62c1d6de00ade33246fa25432a7148f9e20cce8d9fea7493aa183836040516117bc92919061591f565b60405180910390a25050565b600260015414156117eb5760405162461bcd60e51b815260040161025590615743565b6002600155600081815260056020526040902054819061181d5760405162461bcd60e51b81526004016102559061577a565b6000611828836128d7565b90506001816101c00151600381111561184357611843615180565b148061186557506002816101c00151600381111561186357611863615180565b145b6118a95760405162461bcd60e51b81526020600482015260156024820152742126afa922a820acafa9aa20aa2aa9afa2a92927a960591b6044820152606401610255565b6000806118b585613cc4565b91509150816001600160a01b03166118ca3390565b6001600160a01b0316146119205760405162461bcd60e51b815260206004820152601d60248201527f424d5f52455041595f4e4f545f424f52524f575f4e46545f4f574e45520000006044820152606401610255565b600080600061192e88613eb0565b92509250925060007f00000000000000000000000000000000000000000000000000000000000000006001600160a01b0316631755ff216040518163ffffffff1660e01b8152600401602060405180830381865afa158015611994573d6000803e3d6000fd5b505050506040513d601f19601f820116820180604052508101906119b891906155ae565b87516040516391541e0560e01b81526001600160a01b0392909216916391541e05916119ea9160040190815260200190565b61018060405180830381865afa158015611a08573d6000803e3d6000fd5b505050506040513d601f19601f82011682018060405250810190611a2c91906157c7565b602001519050611a476001600160a01b0382163330876144d4565b806001600160a01b031663095ea7b37f00000000000000000000000000000000000000000000000000000000000000006001600160a01b0316631755ff216040518163ffffffff1660e01b8152600401602060405180830381865afa158015611ab4573d6000803e3d6000fd5b505050506040513d601f19601f82011682018060405250810190611ad891906155ae565b6040516001600160e01b031960e084901b1681526001600160a01b039091166004820152602481018690526044016020604051808303816000875af1158015611b25573d6000803e3d6000fd5b505050506040513d601f19601f82011682018060405250810190611b499190615728565b507f00000000000000000000000000000000000000000000000000000000000000006001600160a01b0316631755ff216040518163ffffffff1660e01b8152600401602060405180830381865afa158015611ba8573d6000803e3d6000fd5b505050506040513d601f19601f82011682018060405250810190611bcc91906155ae565b875160405163e78f094960e01b81526004810191909152602481018590526001600160a01b03878116604483015260006064830152919091169063e78f094990608401600060405180830381600087803b158015611c2957600080fd5b505af1158015611c3d573d6000803e3d6000fd5b505050506000821115611ce057611ce07f00000000000000000000000000000000000000000000000000000000000000006001600160a01b0316633d6a38446040518163ffffffff1660e01b8152600401602060405180830381865afa158015611cab573d6000803e3d6000fd5b505050506040513d601f19601f82011682018060405250810190611ccf91906155ae565b6001600160a01b0383169084613f84565b611cf9876020015130888a604001518b60600151613fec565b611d078988602001516141d3565b60405133908a907f2469cc9e12e74c63438d5b1117b318cd3a4cdaf9d659d9eac6d975d14d96325490600090a350506001805550505050505050565b60007f00000000000000000000000000000000000000000000000000000000000000006001600160a01b0316639a9dbb996040518163ffffffff1660e01b8152600401602060405180830381865afa158015611da3573d6000803e3d6000fd5b505050506040513d601f19601f82011682018060405250810190611dc791906155ae565b90506001600160a01b038116632500f2b6336040516001600160e01b031960e084901b1681526001600160a01b039091166004820152602401602060405180830381865afa158015611e1d573d6000803e3d6000fd5b505050506040513d601f19601f82011682018060405250810190611e419190615728565b611e5d5760405162461bcd60e51b815260040161025590615933565b611e656144f5565b50565b60007f00000000000000000000000000000000000000000000000000000000000000006001600160a01b0316639a9dbb996040518163ffffffff1660e01b8152600401602060405180830381865afa158015611ec8573d6000803e3d6000fd5b505050506040513d601f19601f82011682018060405250810190611eec91906155ae565b90506001600160a01b038116639078c85a336040516001600160e01b031960e084901b1681526001600160a01b039091166004820152602401602060405180830381865afa158015611f42573d6000803e3d6000fd5b505050506040513d601f19601f82011682018060405250810190611f669190615728565b611f825760405162461bcd60e51b815260040161025590615977565b611f966001600160a01b0385168484613f84565b826001600160a01b0316846001600160a01b03167f81275949a17d84915b61eeb24587a501cc8863011afba1ed12f3f6c5bdfd6a2184604051611fdb91815260200190565b60405180910390a350505050565b600054600160a01b900460ff16156120135760405162461bcd60e51b8152600401610255906159bc565b600260015414156120365760405162461bcd60e51b815260040161025590615743565b60026001819055604051634f9df08b60e11b815273__$99340bd5a7874738aefb18e7cdd0ba78ce$__91639f3be116916121039160039188907f000000000000000000000000000000000000000000000000000000000000000090899089907f0000000000000000000000000000000000000000000000000000000000000000907f0000000000000000000000000000000000000000000000000000000000000000907f000000000000000000000000000000000000000000000000000000000000000090600401615ad6565b60006040518083038186803b15801561211b57600080fd5b505af415801561212f573d6000803e3d6000fd5b5050506080840180516001600160a01b031660009081526003602090815260408083206101608901518452825291829020805460ff1916600117905586015191519086015160608701516121869450309190613fec565b60007f00000000000000000000000000000000000000000000000000000000000000006001600160a01b0316631755ff216040518163ffffffff1660e01b8152600401602060405180830381865afa1580156121e6573d6000803e3d6000fd5b505050506040513d601f19601f8201168201806040525081019061220a91906155ae565b84516040516391541e0560e01b81526001600160a01b0392909216916391541e059161223c9160040190815260200190565b61018060405180830381865afa15801561225a573d6000803e3d6000fd5b505050506040513d601f19601f8201168201806040525081019061227e91906157c7565b60400151905060008061229d8660000151846122973390565b88614592565b909250905081156123ac576122bd6001600160a01b0384163330856144d4565b7f00000000000000000000000000000000000000000000000000000000000000006001600160a01b0316631755ff216040518163ffffffff1660e01b8152600401602060405180830381865afa15801561231b573d6000803e3d6000fd5b505050506040513d601f19601f8201168201806040525081019061233f91906155ae565b8651604051630ad58d2f60e01b81526004810191909152602481018490523060448201526001600160a01b039190911690630ad58d2f90606401600060405180830381600087803b15801561239357600080fd5b505af11580156123a7573d6000803e3d6000fd5b505050505b801561248957803410156124145760405162461bcd60e51b815260206004820152602960248201527f424d5f54414b455f424f52524f575f4f464645525f4554485f494e5055545f4e60448201526809ea8be8a9c9eaa8e960bb1b6064820152608401610255565b7f00000000000000000000000000000000000000000000000000000000000000006001600160a01b031663d0e30db0826040518263ffffffff1660e01b81526004016000604051808303818588803b15801561246f57600080fd5b505af1158015612483573d6000803e3d6000fd5b50505050505b6040516370a0823160e01b815230600482015285907f00000000000000000000000000000000000000000000000000000000000000006001600160a01b0316906370a0823190602401602060405180830381865afa1580156124ef573d6000803e3d6000fd5b505050506040513d601f19601f820116820180604052508101906125139190615b3a565b10156125755760405162461bcd60e51b815260206004820152602b60248201527f424d5f54414b455f424f52524f575f4f464645525f4554485f42414c414e434560448201526a0be9c9ea8be8a9c9eaa8e960ab1b6064820152608401610255565b60808601516040516323b872dd60e01b81526001600160a01b037f000000000000000000000000000000000000000000000000000000000000000016916323b872dd916125c89130918a90600401615612565b6020604051808303816000875af11580156125e7573d6000803e3d6000fd5b505050506040513d601f19601f8201168201806040525081019061260b9190615728565b506000612627876080015161261d3390565b8960200151614741565b6040516354df411f60e11b815290915073__$99340bd5a7874738aefb18e7cdd0ba78ce$__9063a9be823e9061268c906005908b9086908c908c907f000000000000000000000000000000000000000000000000000000000000000090600401615b53565b60006040518083038186803b1580156126a457600080fd5b505af41580156126b8573d6000803e3d6000fd5b50505050813411156126de5760006126d08334615890565b90506126dc3382614438565b505b60808701516001600160a01b0316336001600160a01b0316827f07141acefc5be4b65a882bfd654f0777113c68893007b01390f6d6824e4cde118a610160015160405161272d91815260200190565b60405180910390a45050600180555050505050565b600081815260056020818152604080842081516101e0810183528154815260018201546001600160a01b039081169482019490945260028201549281019290925260038082015460608401526004820154841660808401529381015460a083015260068101546001600160801b0380821660c0850152600160801b9091041660e0830152600781015480841661010084015264ffffffffff600160a01b82048116610120850152600160c81b90910481166101408401526008820154808216610160850152650100000000008104909116610180840152600160501b81049093166101a08301528493919290916101c084019160ff600160f01b909104169081111561285057612850615180565b600381111561286157612861615180565b905250600084815260056020526040902060080154909150600160f01b900460ff16600181600381111561289757612897615180565b1415610e23574282610180015164ffffffffff1610156128b957506003610e23565b4282610160015164ffffffffff161015610e23575060029392505050565b612954604080516101e081018252600080825260208201819052918101829052606081018290526080810182905260a0810182905260c0810182905260e08101829052610100810182905261012081018290526101408101829052610160810182905261018081018290526101a08101829052906101c082015290565b600082815260056020818152604080842081516101e0810183528154815260018201546001600160a01b039081169482019490945260028201549281019290925260038082015460608401526004820154841660808401529381015460a083015260068101546001600160801b0380821660c0850152600160801b9091041660e08301526007810154808416610100840152600160a01b810464ffffffffff908116610120850152600160c81b90910481166101408401526008820154808216610160850152650100000000008104909116610180840152600160501b81049093166101a0830152909290916101c0840191600160f01b90910460ff1690811115612a6157612a61615180565b6003811115612a7257612a72615180565b9052509050612a8083612742565b816101c001906003811115612a9757612a97615180565b90816003811115612aaa57612aaa615180565b90525092915050565b600061080c612ac183610e2a565b600084815260056020819052604090912001549061495f565b6000546001600160a01b03163314612b345760405162461bcd60e51b815260206004820181905260248201527f4f776e61626c653a2063616c6c6572206973206e6f7420746865206f776e65726044820152606401610255565b612b3e600061496b565b565b60007f00000000000000000000000000000000000000000000000000000000000000006001600160a01b0316639a9dbb996040518163ffffffff1660e01b8152600401602060405180830381865afa158015612ba0573d6000803e3d6000fd5b505050506040513d601f19601f82011682018060405250810190612bc491906155ae565b90506001600160a01b038116632500f2b6336040516001600160e01b031960e084901b1681526001600160a01b039091166004820152602401602060405180830381865afa158015612c1a573d6000803e3d6000fd5b505050506040513d601f19601f82011682018060405250810190612c3e9190615728565b612c5a5760405162461bcd60e51b815260040161025590615933565b611e656149bb565b336000908152600260205260409020548111612c905760405162461bcd60e51b8152600401610255906158a7565b33600090815260026020526040902054612cad906207a120615b99565b8110612cfb5760405162461bcd60e51b815260206004820152601c60248201527f424d5f43414e43454c5f43414e4e4f545f43414e43454c5f4d4f5245000000006044820152606401610255565b3360008181526002602052604090819020839055517f3472ca53ce86826d0cf2457fc20b0aadb9ff559e29da4c38e37e98fb8edd966d90612d3f9084815260200190565b60405180910390a250565b600054600160a01b900460ff1615612d745760405162461bcd60e51b8152600401610255906159bc565b60026001541415612d975760405162461bcd60e51b815260040161025590615743565b60026001556000818152600560205260409020548190612dc95760405162461bcd60e51b81526004016102559061577a565b6000612dd4836128d7565b90506003816101c001516003811115612def57612def615180565b14612e3c5760405162461bcd60e51b815260206004820152601960248201527f424d5f464f5245434c4f53455f5354415455535f4552524f52000000000000006044820152606401610255565b6000612e4784613cc4565b915050612e638260200151308385604001518660600151613fec565b612e718483602001516141d3565b604051339085907ee238c49f37203eb7f8f1b247198f719d692924475beb17ffb2791f4a02599190600090a35050600180555050565b600080612eb3836128d7565b905060006002826101c001516003811115612ed057612ed0615180565b1415610e2357610fb07f00000000000000000000000000000000000000000000000000000000000000006001600160a01b031663d7a5a9d36040518163ffffffff1660e01b8152600401602060405180830381865afa158015612f37573d6000803e3d6000fd5b505050506040513d601f19601f82011682018060405250810190612f5b9190615b3a565b60a084015190614a20565b60007f00000000000000000000000000000000000000000000000000000000000000006001600160a01b0316639a9dbb996040518163ffffffff1660e01b8152600401602060405180830381865afa158015612fc6573d6000803e3d6000fd5b505050506040513d601f19601f82011682018060405250810190612fea91906155ae565b90506001600160a01b038116632500f2b6336040516001600160e01b031960e084901b1681526001600160a01b039091166004820152602401602060405180830381865afa158015613040573d6000803e3d6000fd5b505050506040513d601f19601f820116820180604052508101906130649190615728565b6130805760405162461bcd60e51b815260040161025590615933565b6130946001600160a01b0385168484613f84565b50505050565b600054600160a01b900460ff16156130c45760405162461bcd60e51b8152600401610255906159bc565b600260015414156130e75760405162461bcd60e51b815260040161025590615743565b60026001819055604051634f9df08b60e11b815273__$99340bd5a7874738aefb18e7cdd0ba78ce$__91639f3be11691613195916003918890600090899089907f0000000000000000000000000000000000000000000000000000000000000000907f0000000000000000000000000000000000000000000000000000000000000000907f000000000000000000000000000000000000000000000000000000000000000090600401615ad6565b60006040518083038186803b1580156131ad57600080fd5b505af41580156131c1573d6000803e3d6000fd5b5050506080840180516001600160a01b031660009081526003602090815260408083206101608901518452825291829020805460ff1916600117905586015191519086015160608701516132189450309190613fec565b60007f00000000000000000000000000000000000000000000000000000000000000006001600160a01b0316631755ff216040518163ffffffff1660e01b8152600401602060405180830381865afa158015613278573d6000803e3d6000fd5b505050506040513d601f19601f8201168201806040525081019061329c91906155ae565b84516040516391541e0560e01b81526001600160a01b0392909216916391541e05916132ce9160040190815260200190565b61018060405180830381865afa1580156132ec573d6000803e3d6000fd5b505050506040513d601f19601f8201168201806040525081019061331091906157c7565b9050600080613329866000015184604001516122973390565b9092509050811561353e5760007f00000000000000000000000000000000000000000000000000000000000000006001600160a01b0316631755ff216040518163ffffffff1660e01b8152600401602060405180830381865afa158015613394573d6000803e3d6000fd5b505050506040513d601f19601f820116820180604052508101906133b891906155ae565b87516040516391541e0560e01b81526001600160a01b0392909216916391541e05916133ea9160040190815260200190565b61018060405180830381865afa158015613408573d6000803e3d6000fd5b505050506040513d601f19601f8201168201806040525081019061342c91906157c7565b6040015190506134476001600160a01b0382163330866144d4565b7f00000000000000000000000000000000000000000000000000000000000000006001600160a01b0316631755ff216040518163ffffffff1660e01b8152600401602060405180830381865afa1580156134a5573d6000803e3d6000fd5b505050506040513d601f19601f820116820180604052508101906134c991906155ae565b87516080890151604051630ad58d2f60e01b81526004810192909252602482018690526001600160a01b0390811660448301529190911690630ad58d2f90606401600060405180830381600087803b15801561352457600080fd5b505af1158015613538573d6000803e3d6000fd5b50505050505b80156135635761356333608088015160208601516001600160a01b03169190846144d4565b6000613574876080015161261d3390565b6040516354df411f60e11b815290915073__$99340bd5a7874738aefb18e7cdd0ba78ce$__9063a9be823e906135d9906005908b9086908c908c907f000000000000000000000000000000000000000000000000000000000000000090600401615b53565b60006040518083038186803b1580156135f157600080fd5b505af4158015613605573d6000803e3d6000fd5b5050505086608001516001600160a01b031661361e3390565b6001600160a01b0316827fab157b8cd54d46b9caba037acb2d145ddcc71afb209196c78223291654fd2c3c8a610160015160405161272d91815260200190565b60007f00000000000000000000000000000000000000000000000000000000000000006001600160a01b0316639a9dbb996040518163ffffffff1660e01b8152600401602060405180830381865afa1580156136be573d6000803e3d6000fd5b505050506040513d601f19601f820116820180604052508101906136e291906155ae565b90506001600160a01b038116639078c85a336040516001600160e01b031960e084901b1681526001600160a01b039091166004820152602401602060405180830381865afa158015613738573d6000803e3d6000fd5b505050506040513d601f19601f8201168201806040525081019061375c9190615728565b6137785760405162461bcd60e51b815260040161025590615977565b6001600160a01b038516600090815260066020526040902054156137ec5760405162461bcd60e51b815260206004820152602560248201527f424d5f434c41494d5f4552433732315f41495244524f505f4e4f545f5355505060448201526413d495115160da1b6064820152608401610255565b60005b8281101561388457856001600160a01b03166342842e0e308787878681811061381a5761381a6155cb565b905060200201356040518463ffffffff1660e01b815260040161383f93929190615612565b600060405180830381600087803b15801561385957600080fd5b505af115801561386d573d6000803e3d6000fd5b50505050808061387c906155f7565b9150506137ef565b50836001600160a01b0316856001600160a01b03167f6c6b18e67b757c02ba92ef0f54038fc2135767acf9bef174b8780835ff45582285856040516138ca92919061591f565b60405180910390a35050505050565b60007f00000000000000000000000000000000000000000000000000000000000000006001600160a01b0316639a9dbb996040518163ffffffff1660e01b8152600401602060405180830381865afa158015613939573d6000803e3d6000fd5b505050506040513d601f19601f8201168201806040525081019061395d91906155ae565b90506001600160a01b038116639078c85a336040516001600160e01b031960e084901b1681526001600160a01b039091166004820152602401602060405180830381865afa1580156139b3573d6000803e3d6000fd5b505050506040513d601f19601f820116820180604052508101906139d79190615728565b6139f35760405162461bcd60e51b815260040161025590615977565b6001600160a01b03891660009081526006602052604090205415613a685760405162461bcd60e51b815260206004820152602660248201527f424d5f434c41494d5f455243313135355f41495244524f505f4e4f545f5355506044820152651413d495115160d21b6064820152608401610255565b604051631759616b60e11b81526001600160a01b038a1690632eb2c2d690613aa29030908c908c908c908c908c908c908c90600401615bb1565b600060405180830381600087803b158015613abc57600080fd5b505af1158015613ad0573d6000803e3d6000fd5b50505050876001600160a01b0316896001600160a01b03167fc8144f7a11a69e58de79275b3e7420b4942b4e8318a0e0aa9ccb457c60387b02898989898989604051613b2196959493929190615c06565b60405180910390a3505050505050505050565b6000546001600160a01b03163314613b8e5760405162461bcd60e51b815260206004820181905260248201527f4f776e61626c653a2063616c6c6572206973206e6f7420746865206f776e65726044820152606401610255565b6001600160a01b038116613bf35760405162461bcd60e51b815260206004820152602660248201527f4f776e61626c653a206e6577206f776e657220697320746865207a65726f206160448201526564647265737360d01b6064820152608401610255565b611e658161496b565b6000610e238284615890565b6000821580613c15575081155b15613c225750600061080c565b81613c3a60026b033b2e3c9fd0803ce8000000615c4f565b613c4690600019615890565b613c509190615c4f565b8311156040518060400160405280600381526020016203130360ec1b81525090613c8d5760405162461bcd60e51b81526004016102559190615c9d565b506b033b2e3c9fd0803ce8000000613ca6600282615c4f565b613cb08486615cd0565b613cba9190615b99565b610e239190615c4f565b6000807f00000000000000000000000000000000000000000000000000000000000000006001600160a01b031663b39348386040518163ffffffff1660e01b8152600401602060405180830381865afa158015613d25573d6000803e3d6000fd5b505050506040513d601f19601f82011682018060405250810190613d4991906155ae565b6001600160a01b0316636352211e846040518263ffffffff1660e01b8152600401613d7691815260200190565b602060405180830381865afa158015613d93573d6000803e3d6000fd5b505050506040513d601f19601f82011682018060405250810190613db791906155ae565b90507f00000000000000000000000000000000000000000000000000000000000000006001600160a01b031663bb322a836040518163ffffffff1660e01b8152600401602060405180830381865afa158015613e17573d6000803e3d6000fd5b505050506040513d601f19601f82011682018060405250810190613e3b91906155ae565b6001600160a01b0316636352211e846040518263ffffffff1660e01b8152600401613e6891815260200190565b602060405180830381865afa158015613e85573d6000803e3d6000fd5b505050506040513d601f19601f82011682018060405250810190613ea991906155ae565b9150915091565b600080600080613ebf85612ea7565b9050613ed481613ece87612ab3565b9061495f565b9350613f6e7f00000000000000000000000000000000000000000000000000000000000000006001600160a01b0316634322b7146040518163ffffffff1660e01b8152600401602060405180830381865afa158015613f37573d6000803e3d6000fd5b505050506040513d601f19601f82011682018060405250810190613f5b9190615b3a565b613f6883613ece89610e2a565b90614a20565b9150613f7a8483613bfc565b9250509193909250565b6040516001600160a01b038316602482015260448101829052613fe790849063a9059cbb60e01b906064015b60408051601f198184030181529190526020810180516001600160e01b03166001600160e01b031990931692909217909152614aaa565b505050565b6040516301ffc9a760e01b81526380ac58cd60e01b60048201526001600160a01b038616906301ffc9a790602401602060405180830381865afa158015614037573d6000803e3d6000fd5b505050506040513d601f19601f8201168201806040525081019061405b9190615728565b156140c757604051632142170760e11b81526001600160a01b038616906342842e0e9061409090879087908790600401615612565b600060405180830381600087803b1580156140aa57600080fd5b505af11580156140be573d6000803e3d6000fd5b505050506141cc565b6040516301ffc9a760e01b8152636cdb3d1360e11b60048201526001600160a01b038616906301ffc9a790602401602060405180830381865afa158015614112573d6000803e3d6000fd5b505050506040513d601f19601f820116820180604052508101906141369190615728565b1561418d57604051637921219560e11b81526001600160a01b0385811660048301528481166024830152604482018490526064820183905260a06084830152600060a483015286169063f242432a9060c401614090565b60405162461bcd60e51b8152602060048201526014602482015273109357d3919517d393d517d4d5541413d495115160621b6044820152606401610255565b5050505050565b7f00000000000000000000000000000000000000000000000000000000000000006001600160a01b031663bb322a836040518163ffffffff1660e01b8152600401602060405180830381865afa158015614231573d6000803e3d6000fd5b505050506040513d601f19601f8201168201806040525081019061425591906155ae565b6001600160a01b03166342966c68836040518263ffffffff1660e01b815260040161428291815260200190565b600060405180830381600087803b15801561429c57600080fd5b505af11580156142b0573d6000803e3d6000fd5b505050507f00000000000000000000000000000000000000000000000000000000000000006001600160a01b031663b39348386040518163ffffffff1660e01b8152600401602060405180830381865afa158015614312573d6000803e3d6000fd5b505050506040513d601f19601f8201168201806040525081019061433691906155ae565b6001600160a01b03166342966c68836040518263ffffffff1660e01b815260040161436391815260200190565b600060405180830381600087803b15801561437d57600080fd5b505af1158015614391573d6000803e3d6000fd5b505050506001600160a01b03811660009081526006602052604081208054600192906143be908490615890565b909155505050600090815260056020819052604082208281556001810180546001600160a01b03199081169091556002820184905560038201849055600482018054909116905590810182905560068101919091556007810180546001600160f01b031916905560080180546001600160f81b0319169055565b6000826001600160a01b03168260405160006040518083038185875af1925050503d8060008114614485576040519150601f19603f3d011682016040523d82523d6000602084013e61448a565b606091505b5050905080613fe75760405162461bcd60e51b8152602060048201526016602482015275109357d1551217d514905394d1915497d1905253115160521b6044820152606401610255565b613094846323b872dd60e01b858585604051602401613fb093929190615612565b600054600160a01b900460ff166145455760405162461bcd60e51b815260206004820152601460248201527314185d5cd8589b194e881b9bdd081c185d5cd95960621b6044820152606401610255565b6000805460ff60a01b191690557f5db9ee0a495bf2e6ff9c91a7834c1ba4fdd244a5e8aa4e537bd38aeae4b073aa335b6040516001600160a01b03909116815260200160405180910390a1565b6040516370a0823160e01b81526001600160a01b03838116600483015260009182918291908716906370a0823190602401602060405180830381865afa1580156145e0573d6000803e3d6000fd5b505050506040513d601f19601f820116820180604052508101906146049190615b3a565b905060007f00000000000000000000000000000000000000000000000000000000000000006001600160a01b0316631755ff216040518163ffffffff1660e01b8152600401602060405180830381865afa158015614666573d6000803e3d6000fd5b505050506040513d601f19601f8201168201806040525081019061468a91906155ae565b6001600160a01b0316630aad628b896040518263ffffffff1660e01b81526004016146b791815260200190565b602060405180830381865afa1580156146d4573d6000803e3d6000fd5b505050506040513d601f19601f820116820180604052508101906146f89190615b3a565b90508181116147075780614709565b815b9150848210614718578461471a565b815b935084821061472a576000614734565b6147348583613bfc565b9250505094509492505050565b600060045460016147529190615b99565b60048181556040805163bb322a8360e01b815290516001600160a01b037f0000000000000000000000000000000000000000000000000000000000000000169263bb322a83928082019260209290918290030181865afa1580156147ba573d6000803e3d6000fd5b505050506040513d601f19601f820116820180604052508101906147de91906155ae565b6040516394bf804d60e01b8152600481018390526001600160a01b03878116602483015291909116906394bf804d90604401600060405180830381600087803b15801561482a57600080fd5b505af115801561483e573d6000803e3d6000fd5b505050507f00000000000000000000000000000000000000000000000000000000000000006001600160a01b031663b39348386040518163ffffffff1660e01b8152600401602060405180830381865afa1580156148a0573d6000803e3d6000fd5b505050506040513d601f19601f820116820180604052508101906148c491906155ae565b6040516394bf804d60e01b8152600481018390526001600160a01b03868116602483015291909116906394bf804d90604401600060405180830381600087803b15801561491057600080fd5b505af1158015614924573d6000803e3d6000fd5b505050506001600160a01b0383166000908152600660205260408120805460019290614951908490615b99565b909155509095945050505050565b6000610e238284615b99565b600080546001600160a01b038381166001600160a01b0319831681178455604051919092169283917f8be0079c531659141344cd1fd0a4f28419497f9722a3daafe3b4186f6b6457e09190a35050565b600054600160a01b900460ff16156149e55760405162461bcd60e51b8152600401610255906159bc565b6000805460ff60a01b1916600160a01b1790557f62e78cea01bee320cd4e420270b5ea74000d11b0c9f74754ebdbfc544b05a2586145753390565b6000821580614a2d575081155b15614a3a5750600061080c565b81614a486002612710615c4f565b614a5490600019615890565b614a5e9190615c4f565b8311156040518060400160405280600381526020016203130360ec1b81525090614a9b5760405162461bcd60e51b81526004016102559190615c9d565b50612710613ca6600282615c4f565b6000614aff826040518060400160405280602081526020017f5361666545524332303a206c6f772d6c6576656c2063616c6c206661696c6564815250856001600160a01b0316614b7c9092919063ffffffff16565b805190915015613fe75780806020019051810190614b1d9190615728565b613fe75760405162461bcd60e51b815260206004820152602a60248201527f5361666545524332303a204552433230206f7065726174696f6e20646964206e6044820152691bdd081cdd58d8d9595960b21b6064820152608401610255565b6060610fb0848460008585843b614bd55760405162461bcd60e51b815260206004820152601d60248201527f416464726573733a2063616c6c20746f206e6f6e2d636f6e74726163740000006044820152606401610255565b600080866001600160a01b03168587604051614bf19190615cef565b60006040518083038185875af1925050503d8060008114614c2e576040519150601f19603f3d011682016040523d82523d6000602084013e614c33565b606091505b5091509150614c43828286614c4e565b979650505050505050565b60608315614c5d575081610e23565b825115614c6d5782518084602001fd5b8160405162461bcd60e51b81526004016102559190615c9d565b600060208284031215614c9957600080fd5b81356001600160e01b031981168114610e2357600080fd5b6001600160a01b0381168114611e6557600080fd5b8035614cd181614cb1565b919050565b60008083601f840112614ce857600080fd5b5081356001600160401b03811115614cff57600080fd5b6020830191508360208260051b8501011115614d1a57600080fd5b9250929050565b60008083601f840112614d3357600080fd5b5081356001600160401b03811115614d4a57600080fd5b602083019150836020828501011115614d1a57600080fd5b600080600080600060608688031215614d7a57600080fd5b8535614d8581614cb1565b945060208601356001600160401b0380821115614da157600080fd5b614dad89838a01614cd6565b90965094506040880135915080821115614dc657600080fd5b50614dd388828901614d21565b969995985093965092949392505050565b60008060408385031215614df757600080fd5b8235614e0281614cb1565b946020939093013593505050565b634e487b7160e01b600052604160045260246000fd5b60405161020081016001600160401b0381118282101715614e4957614e49614e10565b60405290565b60405161018081016001600160401b0381118282101715614e4957614e49614e10565b604051601f8201601f191681016001600160401b0381118282101715614e9a57614e9a614e10565b604052919050565b600082601f830112614eb357600080fd5b81356001600160401b03811115614ecc57614ecc614e10565b614edf601f8201601f1916602001614e72565b818152846020838601011115614ef457600080fd5b816020850160208301376000918101602001919091529392505050565b60008060008060808587031215614f2757600080fd5b8435614f3281614cb1565b93506020850135614f4281614cb1565b92506040850135915060608501356001600160401b03811115614f6457600080fd5b614f7087828801614ea2565b91505092959194509250565b600060208284031215614f8e57600080fd5b5035919050565b60008060208385031215614fa857600080fd5b82356001600160401b03811115614fbe57600080fd5b614fca85828601614cd6565b90969095509350505050565b600080600060608486031215614feb57600080fd5b8335614ff681614cb1565b9250602084013561500681614cb1565b929592945050506040919091013590565b64ffffffffff81168114611e6557600080fd5b8035614cd181615017565b6001600160801b0381168114611e6557600080fd5b8035614cd181615035565b803560ff81168114614cd157600080fd5b600080600083850361024081121561507d57600080fd5b6102008082121561508d57600080fd5b615095614e26565b9150853582526150a760208701614cc6565b602083015260408601356040830152606086013560608301526150cc60808701614cc6565b608083015260a086013560a083015260c086013560c08301526150f160e0870161502a565b60e083015261010061510481880161502a565b9083015261012061511687820161504a565b90830152610140615128878201614cc6565b90830152610160868101359083015261018080870135908301526101a0615150818801615055565b908301526101c086810135908301526101e080870135908301529096908501359550610220909401359392505050565b634e487b7160e01b600052602160045260246000fd5b600481106151b457634e487b7160e01b600052602160045260246000fd5b9052565b6020810161080c8284615196565b815181526020808301516101e08301916151ea908401826001600160a01b03169052565b506040830151604083015260608301516060830152608083015161521960808401826001600160a01b03169052565b5060a083015160a083015260c083015161523e60c08401826001600160801b03169052565b5060e083015161525960e08401826001600160801b03169052565b50610100838101516001600160a01b03908116918401919091526101208085015164ffffffffff90811691850191909152610140808601518216908501526101608086015182169085015261018080860151909116908401526101a080850151909116908301526101c0808401516152d382850182615196565b505092915050565b6000602082840312156152ed57600080fd5b8135610e2381614cb1565b600082601f83011261530957600080fd5b813560206001600160401b0382111561532457615324614e10565b8160051b615333828201614e72565b928352848101820192828101908785111561534d57600080fd5b83870192505b84831015614c4357823582529183019190830190615353565b600080600080600060a0868803121561538457600080fd5b853561538f81614cb1565b9450602086013561539f81614cb1565b935060408601356001600160401b03808211156153bb57600080fd5b6153c789838a016152f8565b945060608801359150808211156153dd57600080fd5b6153e989838a016152f8565b935060808801359150808211156153ff57600080fd5b5061540c88828901614ea2565b9150509295509295909350565b6000806000806060858703121561542f57600080fd5b843561543a81614cb1565b9350602085013561544a81614cb1565b925060408501356001600160401b0381111561546557600080fd5b61547187828801614cd6565b95989497509550505050565b60008060008060008060008060a0898b03121561549957600080fd5b88356154a481614cb1565b975060208901356154b481614cb1565b965060408901356001600160401b03808211156154d057600080fd5b6154dc8c838d01614cd6565b909850965060608b01359150808211156154f557600080fd5b6155018c838d01614cd6565b909650945060808b013591508082111561551a57600080fd5b506155278b828c01614d21565b999c989b5096995094979396929594505050565b600080600080600060a0868803121561555357600080fd5b853561555e81614cb1565b9450602086013561556e81614cb1565b9350604086013592506060860135915060808601356001600160401b0381111561559757600080fd5b61540c88828901614ea2565b8051614cd181614cb1565b6000602082840312156155c057600080fd5b8151610e2381614cb1565b634e487b7160e01b600052603260045260246000fd5b634e487b7160e01b600052601160045260246000fd5b600060001982141561560b5761560b6155e1565b5060010190565b6001600160a01b039384168152919092166020820152604081019190915260600190565b81835281816020850137506000828201602090810191909152601f909101601f19169091010190565b60a0808252875190820181905260009060209060c0840190828b01845b828110156156a15781516001600160a01b03168452928401929084019060010161567c565b5050508381038285015288518082528983019183019060005b818110156156d6578351835292840192918401916001016156ba565b50506001600160a01b03891660408601526001600160a01b03881660608601528481036080860152615709818789615636565b9b9a5050505050505050505050565b80518015158114614cd157600080fd5b60006020828403121561573a57600080fd5b610e2382615718565b6020808252601f908201527f5265656e7472616e637947756172643a207265656e7472616e742063616c6c00604082015260600190565b60208082526018908201527f424d5f434845434b5f4c4f414e5f4e4f545f4558495354530000000000000000604082015260600190565b8051614cd181615035565b8051614cd181615017565b600061018082840312156157da57600080fd5b6157e2614e4f565b825181526157f2602084016155a3565b6020820152615803604084016155a3565b6040820152615814606084016155a3565b6060820152615825608084016157b1565b608082015260a083015160a082015260c083015160c082015261584a60e084016157bc565b60e082015261010083810151908201526101206158688185016155a3565b908201526101408381015190820152610160615885818501615718565b908201529392505050565b6000828210156158a2576158a26155e1565b500390565b60208082526022908201527f424d5f43414e43454c5f4e4f4e43455f4c4f5745525f5448414e5f4355525245604082015261139560f21b606082015260800190565b81835260006001600160fb1b0383111561590257600080fd5b8260051b8083602087013760009401602001938452509192915050565b602081526000610fb06020830184866158e9565b60208082526024908201527f424d5f41434c5f4f4e4c595f454d455247454e43595f41444d494e5f43414e5f60408201526310d0531360e21b606082015260800190565b60208082526025908201527f424d5f41434c5f4f4e4c595f41495244524f505f4f50455241544f525f43414e60408201526417d0d0531360da1b606082015260800190565b60208082526010908201526f14185d5cd8589b194e881c185d5cd95960821b604082015260600190565b805182526020810151615a0460208401826001600160a01b03169052565b5060408101516040830152606081015160608301526080810151615a3360808401826001600160a01b03169052565b5060a081015160a083015260c081015160c083015260e0810151615a6060e084018264ffffffffff169052565b506101008181015164ffffffffff1690830152610120808201516001600160801b031690830152610140808201516001600160a01b031690830152610160808201519083015261018080820151908301526101a08082015160ff16908301526101c080820151908301526101e090810151910152565b898152602081018990526103008101615af2604083018a6159e6565b6001600160a01b039788166102408301526102608201969096526102808101949094526102a084019290925284166102c08301529092166102e0909201919091529392505050565b600060208284031215615b4c57600080fd5b5051919050565b8681526102a08101615b6860208301886159e6565b6102208201959095526102408101939093526102608301919091526001600160a01b03166102809091015292915050565b60008219821115615bac57615bac6155e1565b500190565b6001600160a01b0389811682528816602082015260a060408201819052600090615bde908301888a6158e9565b8281036060840152615bf18187896158e9565b90508281036080840152615709818587615636565b606081526000615c1a60608301888a6158e9565b8281036020840152615c2d8187896158e9565b90508281036040840152615c42818587615636565b9998505050505050505050565b600082615c6c57634e487b7160e01b600052601260045260246000fd5b500490565b60005b83811015615c8c578181015183820152602001615c74565b838111156130945750506000910152565b6020815260008251806020840152615cbc816040850160208701615c71565b601f01601f19169190910160400192915050565b6000816000190483118215151615615cea57615cea6155e1565b500290565b60008251615d01818460208701615c71565b919091019291505056fea2646970667358221220d140a9a73c491c3da6d289eff4ec551b0a1d72db9a7fe7b3ab11e1a1baca060b64736f6c634300080a0033",
  "libraries": {
    "BespokeTypes": "0x681e6C44Ca63882D0c17b9dE3cf3d736406F1ed3",
    "SignatureChecker": "0xD09F5D4C1DaF305f1437b6F2e38E4c27d0466b15",
    "BespokeLogic": "0x72c1Dcb9b000bAB29F2d480d84d712b4afa4D2D6",
    "MathUtils": "0x4648bb80A8d14C8777321F1b4cbb1B016696102d",
    "PercentageMath": "0xa22eF7fA838086378C1bae4aB77915407a126D9d",
    "WadRayMath": "0xc62256A873f07278Ec9d3Ac36BD7F10b86fE7ac4"
  },
  "devdoc": {
    "kind": "dev",
    "methods": {
      "cancelAllBorrowOffersForSender(uint256)": {
        "params": {
          "minNonce_": "minimum user nonce"
        }
      },
      "cancelMultipleBorrowOffers(uint256[])": {
        "params": {
          "offerNonces": "array of borrowOffer nonces"
        }
      },
      "claimERC1155Airdrop(address,address,uint256[],uint256[],bytes)": {
        "params": {
          "amounts": "The amount of the ERC1155 tokens",
          "data": "packed params to pass to the receiver as extra information*",
          "ids": "The ID of the ERC1155 token",
          "to": "The address which will receive the ERC1155 tokens",
          "token": "The address of the airdropped token"
        }
      },
      "claimERC20Airdrop(address,address,uint256)": {
        "params": {
          "amount": "The amount of the ERC20 token*",
          "to": "The address which will receive ERC20 token",
          "token": "The address of the airdropped token"
        }
      },
      "claimERC721Airdrop(address,address,uint256[])": {
        "params": {
          "ids": "The ID of the ERC721 token*",
          "to": "The address which will receive the ERC721 token",
          "token": "The address of the airdropped token"
        }
      },
      "emergencyTokenTransfer(address,address,uint256)": {
        "details": "transfer ERC20 from the utility contract, for ERC20 recovery in case of stuck tokens due direct transfers to the contract address.",
        "params": {
          "amount": "amount to send",
          "to": "recipient of the transfer",
          "token": "token to transfer"
        }
      },
      "flashClaim(address,uint256[],bytes)": {
        "details": "IMPORTANT There are security concerns for developers of flash loan receiver contracts that must be carefully considered",
        "params": {
          "loanIds": "The ID of loan being flash-borrowed",
          "params": "packed params to pass to the receiver as extra information*",
          "receiverAddress": "The address of the contract receiving the funds, implementing IFlashClaimReceiver interface"
        }
      },
      "onERC721Received(address,address,uint256,bytes)": {
        "details": "See {IERC721Receiver-onERC721Received}. Always returns `IERC721Receiver.onERC721Received.selector`."
      },
      "owner()": {
        "details": "Returns the address of the current owner."
      },
      "pause()": {
        "details": "Pause pool for emergency case, can only be called by emergency admin."
      },
      "paused()": {
        "details": "Returns true if the contract is paused, and false otherwise."
      },
      "renounceOwnership()": {
        "details": "Leaves the contract without owner. It will not be possible to call `onlyOwner` functions anymore. Can only be called by the current owner. NOTE: Renouncing ownership will leave the contract without an owner, thereby removing any functionality that is only available to the owner."
      },
      "supportsInterface(bytes4)": {
        "details": "See {IERC165-supportsInterface}."
      },
      "transferOwnership(address)": {
        "details": "Transfers ownership of the contract to a new account (`newOwner`). Can only be called by the current owner."
      },
      "unpause()": {
        "details": "Unpause pool for emergency case, can only be called by emergency admin."
      }
    },
    "version": 1
  },
  "userdoc": {
    "kind": "user",
    "methods": {
      "cancelAllBorrowOffersForSender(uint256)": {
        "notice": "Cancel all pending offers for a sender"
      },
      "claimERC1155Airdrop(address,address,uint256[],uint256[],bytes)": {
        "notice": "Claim the ERC1155 token which has been airdropped to the loan contract"
      },
      "claimERC20Airdrop(address,address,uint256)": {
        "notice": "Claim the ERC20 token which has been airdropped to the loan contract"
      },
      "claimERC721Airdrop(address,address,uint256[])": {
        "notice": "Claim the ERC721 token which has been airdropped to the loan contract"
      },
      "flashClaim(address,uint256[],bytes)": {
        "notice": "Allows smart contracts to access the collateralized NFT within one transaction, as long as the amount taken plus a fee is returned"
      },
      "foreclose(uint256)": {
        "notice": "anyone can trigger but only OpenSkyLendNFT owner can receive collateral"
      },
      "repay(uint256)": {
        "notice": "Only OpenSkyBorrowNFT owner can repayOnly OpenSkyLendNFT owner can recieve the paymentThis function is not pausable for safety"
      },
      "repayETH(uint256)": {
        "notice": "Only OpenSkyBorrowNFT owner can repayOnly OpenSkyLendNFT owner can recieve the paymentThis function is not pausable for safety"
      },
      "takeBorrowOffer((uint256,address,uint256,uint256,address,uint256,uint256,uint40,uint40,uint128,address,uint256,uint256,uint8,bytes32,bytes32),uint256,uint256)": {
        "notice": "take an borrowing offer using ERC20 include WETH"
      },
      "takeBorrowOfferETH((uint256,address,uint256,uint256,address,uint256,uint256,uint40,uint40,uint128,address,uint256,uint256,uint8,bytes32,bytes32),uint256,uint256)": {
        "notice": "Take a borrow offer. Only for WETH reserve.Consider using taker's oWETH balance first, then ETH if oWETH is not enoughBorrower will receive WETH"
      }
    },
    "version": 1
  },
  "storageLayout": {
    "storage": [
      {
        "astId": 387,
        "contract": "contracts/bespokemarket/OpenSkyBespokeMarket.sol:OpenSkyBespokeMarket",
        "label": "_owner",
        "offset": 0,
        "slot": "0",
        "type": "t_address"
      },
      {
        "astId": 1294,
        "contract": "contracts/bespokemarket/OpenSkyBespokeMarket.sol:OpenSkyBespokeMarket",
        "label": "_paused",
        "offset": 20,
        "slot": "0",
        "type": "t_bool"
      },
      {
        "astId": 1379,
        "contract": "contracts/bespokemarket/OpenSkyBespokeMarket.sol:OpenSkyBespokeMarket",
        "label": "_status",
        "offset": 0,
        "slot": "1",
        "type": "t_uint256"
      },
      {
        "astId": 12937,
        "contract": "contracts/bespokemarket/OpenSkyBespokeMarket.sol:OpenSkyBespokeMarket",
        "label": "minNonce",
        "offset": 0,
        "slot": "2",
        "type": "t_mapping(t_address,t_uint256)"
      },
      {
        "astId": 12943,
        "contract": "contracts/bespokemarket/OpenSkyBespokeMarket.sol:OpenSkyBespokeMarket",
        "label": "_nonce",
        "offset": 0,
        "slot": "3",
        "type": "t_mapping(t_address,t_mapping(t_uint256,t_bool))"
      },
      {
        "astId": 12945,
        "contract": "contracts/bespokemarket/OpenSkyBespokeMarket.sol:OpenSkyBespokeMarket",
        "label": "_loanIdTracker",
        "offset": 0,
        "slot": "4",
        "type": "t_uint256"
      },
      {
        "astId": 12950,
        "contract": "contracts/bespokemarket/OpenSkyBespokeMarket.sol:OpenSkyBespokeMarket",
        "label": "_loans",
        "offset": 0,
        "slot": "5",
        "type": "t_mapping(t_uint256,t_struct(LoanData)16405_storage)"
      },
      {
        "astId": 12954,
        "contract": "contracts/bespokemarket/OpenSkyBespokeMarket.sol:OpenSkyBespokeMarket",
        "label": "nftBorrowStat",
        "offset": 0,
        "slot": "6",
        "type": "t_mapping(t_address,t_uint256)"
      }
    ],
    "types": {
      "t_address": {
        "encoding": "inplace",
        "label": "address",
        "numberOfBytes": "20"
      },
      "t_bool": {
        "encoding": "inplace",
        "label": "bool",
        "numberOfBytes": "1"
      },
      "t_enum(LoanStatus)16410": {
        "encoding": "inplace",
        "label": "enum BespokeTypes.LoanStatus",
        "numberOfBytes": "1"
      },
      "t_mapping(t_address,t_mapping(t_uint256,t_bool))": {
        "encoding": "mapping",
        "key": "t_address",
        "label": "mapping(address => mapping(uint256 => bool))",
        "numberOfBytes": "32",
        "value": "t_mapping(t_uint256,t_bool)"
      },
      "t_mapping(t_address,t_uint256)": {
        "encoding": "mapping",
        "key": "t_address",
        "label": "mapping(address => uint256)",
        "numberOfBytes": "32",
        "value": "t_uint256"
      },
      "t_mapping(t_uint256,t_bool)": {
        "encoding": "mapping",
        "key": "t_uint256",
        "label": "mapping(uint256 => bool)",
        "numberOfBytes": "32",
        "value": "t_bool"
      },
      "t_mapping(t_uint256,t_struct(LoanData)16405_storage)": {
        "encoding": "mapping",
        "key": "t_uint256",
        "label": "mapping(uint256 => struct BespokeTypes.LoanData)",
        "numberOfBytes": "32",
        "value": "t_struct(LoanData)16405_storage"
      },
      "t_struct(LoanData)16405_storage": {
        "encoding": "inplace",
        "label": "struct BespokeTypes.LoanData",
        "members": [
          {
            "astId": 16375,
            "contract": "contracts/bespokemarket/OpenSkyBespokeMarket.sol:OpenSkyBespokeMarket",
            "label": "reserveId",
            "offset": 0,
            "slot": "0",
            "type": "t_uint256"
          },
          {
            "astId": 16377,
            "contract": "contracts/bespokemarket/OpenSkyBespokeMarket.sol:OpenSkyBespokeMarket",
            "label": "nftAddress",
            "offset": 0,
            "slot": "1",
            "type": "t_address"
          },
          {
            "astId": 16379,
            "contract": "contracts/bespokemarket/OpenSkyBespokeMarket.sol:OpenSkyBespokeMarket",
            "label": "tokenId",
            "offset": 0,
            "slot": "2",
            "type": "t_uint256"
          },
          {
            "astId": 16381,
            "contract": "contracts/bespokemarket/OpenSkyBespokeMarket.sol:OpenSkyBespokeMarket",
            "label": "tokenAmount",
            "offset": 0,
            "slot": "3",
            "type": "t_uint256"
          },
          {
            "astId": 16383,
            "contract": "contracts/bespokemarket/OpenSkyBespokeMarket.sol:OpenSkyBespokeMarket",
            "label": "borrower",
            "offset": 0,
            "slot": "4",
            "type": "t_address"
          },
          {
            "astId": 16385,
            "contract": "contracts/bespokemarket/OpenSkyBespokeMarket.sol:OpenSkyBespokeMarket",
            "label": "amount",
            "offset": 0,
            "slot": "5",
            "type": "t_uint256"
          },
          {
            "astId": 16387,
            "contract": "contracts/bespokemarket/OpenSkyBespokeMarket.sol:OpenSkyBespokeMarket",
            "label": "borrowRate",
            "offset": 0,
            "slot": "6",
            "type": "t_uint128"
          },
          {
            "astId": 16389,
            "contract": "contracts/bespokemarket/OpenSkyBespokeMarket.sol:OpenSkyBespokeMarket",
            "label": "interestPerSecond",
            "offset": 16,
            "slot": "6",
            "type": "t_uint128"
          },
          {
            "astId": 16391,
            "contract": "contracts/bespokemarket/OpenSkyBespokeMarket.sol:OpenSkyBespokeMarket",
            "label": "currency",
            "offset": 0,
            "slot": "7",
            "type": "t_address"
          },
          {
            "astId": 16393,
            "contract": "contracts/bespokemarket/OpenSkyBespokeMarket.sol:OpenSkyBespokeMarket",
            "label": "borrowDuration",
            "offset": 20,
            "slot": "7",
            "type": "t_uint40"
          },
          {
            "astId": 16395,
            "contract": "contracts/bespokemarket/OpenSkyBespokeMarket.sol:OpenSkyBespokeMarket",
            "label": "borrowBegin",
            "offset": 25,
            "slot": "7",
            "type": "t_uint40"
          },
          {
            "astId": 16397,
            "contract": "contracts/bespokemarket/OpenSkyBespokeMarket.sol:OpenSkyBespokeMarket",
            "label": "borrowOverdueTime",
            "offset": 0,
            "slot": "8",
            "type": "t_uint40"
          },
          {
            "astId": 16399,
            "contract": "contracts/bespokemarket/OpenSkyBespokeMarket.sol:OpenSkyBespokeMarket",
            "label": "liquidatableTime",
            "offset": 5,
            "slot": "8",
            "type": "t_uint40"
          },
          {
            "astId": 16401,
            "contract": "contracts/bespokemarket/OpenSkyBespokeMarket.sol:OpenSkyBespokeMarket",
            "label": "lender",
            "offset": 10,
            "slot": "8",
            "type": "t_address"
          },
          {
            "astId": 16404,
            "contract": "contracts/bespokemarket/OpenSkyBespokeMarket.sol:OpenSkyBespokeMarket",
            "label": "status",
            "offset": 30,
            "slot": "8",
            "type": "t_enum(LoanStatus)16410"
          }
        ],
        "numberOfBytes": "288"
      },
      "t_uint128": {
        "encoding": "inplace",
        "label": "uint128",
        "numberOfBytes": "16"
      },
      "t_uint256": {
        "encoding": "inplace",
        "label": "uint256",
        "numberOfBytes": "32"
      },
      "t_uint40": {
        "encoding": "inplace",
        "label": "uint40",
        "numberOfBytes": "5"
      }
    }
  }
}