{
  "address": "0xCccfb0041c2E60561A9cAe4FC8e670c9B7827b97",
  "abi": [
    {
      "inputs": [
        {
          "internalType": "address",
          "name": "settings",
          "type": "address"
        },
        {
          "internalType": "address",
          "name": "priceOracle",
          "type": "address"
        },
        {
          "internalType": "address",
          "name": "weth",
          "type": "address"
        }
      ],
      "stateMutability": "nonpayable",
      "type": "constructor"
    },
    {
      "anonymous": false,
      "inputs": [
        {
          "indexed": true,
          "internalType": "address",
          "name": "sender",
          "type": "address"
        },
        {
          "indexed": true,
          "internalType": "uint256",
          "name": "loanId",
          "type": "uint256"
        },
        {
          "indexed": false,
          "internalType": "uint256",
          "name": "price",
          "type": "uint256"
        },
        {
          "indexed": false,
          "internalType": "address",
          "name": "nftAddress",
          "type": "address"
        },
        {
          "indexed": false,
          "internalType": "uint256",
          "name": "tokenId",
          "type": "uint256"
        }
      ],
      "name": "Liquidate",
      "type": "event"
    },
    {
      "inputs": [],
      "name": "PRICE_ORACLE",
      "outputs": [
        {
          "internalType": "contract IOpenSkyDutchAuctionPriceOracle",
          "name": "",
          "type": "address"
        }
      ],
      "stateMutability": "view",
      "type": "function"
    },
    {
      "inputs": [],
      "name": "SETTINGS",
      "outputs": [
        {
          "internalType": "contract IOpenSkySettings",
          "name": "",
          "type": "address"
        }
      ],
      "stateMutability": "view",
      "type": "function"
    },
    {
      "inputs": [],
      "name": "WETH",
      "outputs": [
        {
          "internalType": "contract IWETH",
          "name": "",
          "type": "address"
        }
      ],
      "stateMutability": "view",
      "type": "function"
    },
    {
      "inputs": [
        {
          "internalType": "uint256",
          "name": "loanId",
          "type": "uint256"
        }
      ],
      "name": "getPrice",
      "outputs": [
        {
          "internalType": "uint256",
          "name": "",
          "type": "uint256"
        }
      ],
      "stateMutability": "view",
      "type": "function"
    },
    {
      "inputs": [
        {
          "internalType": "uint256",
          "name": "loanId",
          "type": "uint256"
        }
      ],
      "name": "liquidate",
      "outputs": [],
      "stateMutability": "nonpayable",
      "type": "function"
    },
    {
      "inputs": [
        {
          "internalType": "uint256",
          "name": "loanId",
          "type": "uint256"
        }
      ],
      "name": "liquidateETH",
      "outputs": [],
      "stateMutability": "payable",
      "type": "function"
    },
    {
      "inputs": [
        {
          "internalType": "address",
          "name": "",
          "type": "address"
        },
        {
          "internalType": "address",
          "name": "",
          "type": "address"
        },
        {
          "internalType": "uint256",
          "name": "",
          "type": "uint256"
        },
        {
          "internalType": "bytes",
          "name": "",
          "type": "bytes"
        }
      ],
      "name": "onERC721Received",
      "outputs": [
        {
          "internalType": "bytes4",
          "name": "",
          "type": "bytes4"
        }
      ],
      "stateMutability": "nonpayable",
      "type": "function"
    }
  ],
  "transactionHash": "0xa9fc86bb944d0193e30048398337780e0fb2186304db66bbb73caf3bab020c45",
  "args": [
    "0x3278e9b9E69C15ee013C0a0ad56845F9Dff68878",
    "0xD1A272DF111400963b891e1E458942E504F1049D",
    "0x0d500b1d8e8ef31e21c99d1db9a6444d3adf1270"
  ],
  "solcInputHash": "9bc78a34d9aec8995764b7320f6c0ae4",
  "bytecode": "0x60e06040523480156200001157600080fd5b5060405162001c9438038062001c9483398101604081905262000034916200006f565b6001600160a01b0392831660805290821660a0521660c052620000b9565b80516001600160a01b03811681146200006a57600080fd5b919050565b6000806000606084860312156200008557600080fd5b620000908462000052565b9250620000a06020850162000052565b9150620000b06040850162000052565b90509250925092565b60805160a05160c051611b43620001516000396000818161015101528181610b3e0152610bb201526000818160870152611128015260008181610185015281816101d90152818161031b0152818161046d015281816105830152818161061a015281816107020152818161088701528181610a5d01528181610be101528181610cd501528181610e2f0152610ee00152611b436000f3fe6080604052600436106100705760003560e01c806393c880e51161004e57806393c880e51461012c578063ad5c46481461013f578063ade97ab514610173578063e7572230146101a757600080fd5b80630a19399a14610075578063150b7a02146100c6578063415f12401461010a575b600080fd5b34801561008157600080fd5b506100a97f000000000000000000000000000000000000000000000000000000000000000081565b6040516001600160a01b0390911681526020015b60405180910390f35b3480156100d257600080fd5b506100f16100e13660046116f1565b630a85bd0160e11b949350505050565b6040516001600160e01b031990911681526020016100bd565b34801561011657600080fd5b5061012a6101253660046117b5565b6101d5565b005b61012a61013a3660046117b5565b610883565b34801561014b57600080fd5b506100a97f000000000000000000000000000000000000000000000000000000000000000081565b34801561017f57600080fd5b506100a97f000000000000000000000000000000000000000000000000000000000000000081565b3480156101b357600080fd5b506101c76101c23660046117b5565b610edb565b6040519081526020016100bd565b60007f00000000000000000000000000000000000000000000000000000000000000006001600160a01b03166335bc868a6040518163ffffffff1660e01b8152600401602060405180830381865afa158015610235573d6000803e3d6000fd5b505050506040513d601f19601f8201168201806040525081019061025991906117de565b9050600061026683610edb565b604051636b52b36560e01b8152600481018590529091506000906001600160a01b03841690636b52b36590602401602060405180830381865afa1580156102b1573d6000803e3d6000fd5b505050506040513d601f19601f820116820180604052508101906102d591906117fb565b90508082116103195760405162461bcd60e51b815260206004820152600b60248201526a282924a1a2afa2a92927a960a91b60448201526064015b60405180910390fd5b7f00000000000000000000000000000000000000000000000000000000000000006001600160a01b0316631755ff216040518163ffffffff1660e01b8152600401602060405180830381865afa158015610377573d6000803e3d6000fd5b505050506040513d601f19601f8201168201806040525081019061039b91906117de565b6001600160a01b031663980a8bd9856040518263ffffffff1660e01b81526004016103c891815260200190565b600060405180830381600087803b1580156103e257600080fd5b505af11580156103f6573d6000803e3d6000fd5b505060405163622fe39f60e01b815260048101879052600092506001600160a01b038616915063622fe39f906024016101c060405180830381865afa158015610443573d6000803e3d6000fd5b505050506040513d601f19601f820116820180604052508101906104679190611858565b905060007f00000000000000000000000000000000000000000000000000000000000000006001600160a01b0316631755ff216040518163ffffffff1660e01b8152600401602060405180830381865afa1580156104c9573d6000803e3d6000fd5b505050506040513d601f19601f820116820180604052508101906104ed91906117de565b82516040516391541e0560e01b81526001600160a01b0392909216916391541e059161051f9160040190815260200190565b61018060405180830381865afa15801561053d573d6000803e3d6000fd5b505050506040513d601f19601f820116820180604052508101906105619190611963565b602081015190915061057e906001600160a01b03163330876111a4565b6106187f00000000000000000000000000000000000000000000000000000000000000006001600160a01b0316631755ff216040518163ffffffff1660e01b8152600401602060405180830381865afa1580156105df573d6000803e3d6000fd5b505050506040513d601f19601f8201168201806040525081019061060391906117de565b60208301516001600160a01b03169085611215565b7f00000000000000000000000000000000000000000000000000000000000000006001600160a01b0316631755ff216040518163ffffffff1660e01b8152600401602060405180830381865afa158015610676573d6000803e3d6000fd5b505050506040513d601f19601f8201168201806040525081019061069a91906117de565b6040516376999aeb60e01b815260048101889052602481018590526001600160a01b0391909116906376999aeb90604401600060405180830381600087803b1580156106e557600080fd5b505af11580156106f9573d6000803e3d6000fd5b505050506107a17f00000000000000000000000000000000000000000000000000000000000000006001600160a01b031663c5f956af6040518163ffffffff1660e01b8152600401602060405180830381865afa15801561075e573d6000803e3d6000fd5b505050506040513d601f19601f8201168201806040525081019061078291906117de565b61078c8587611a21565b60208401516001600160a01b0316919061132f565b60208201516040808401519051632142170760e11b815230600482015233602482015260448101919091526001600160a01b03909116906342842e0e90606401600060405180830381600087803b1580156107fb57600080fd5b505af115801561080f573d6000803e3d6000fd5b5050505085336001600160a01b03167f4b8d7131b208cfad1c8c5b871ed62010c2cba71708706f2d663b0d2d63f6e1638685602001518660400151604051610873939291909283526001600160a01b03919091166020830152604082015260600190565b60405180910390a3505050505050565b60007f00000000000000000000000000000000000000000000000000000000000000006001600160a01b03166335bc868a6040518163ffffffff1660e01b8152600401602060405180830381865afa1580156108e3573d6000803e3d6000fd5b505050506040513d601f19601f8201168201806040525081019061090791906117de565b9050600061091483610edb565b604051636b52b36560e01b8152600481018590529091506000906001600160a01b03841690636b52b36590602401602060405180830381865afa15801561095f573d6000803e3d6000fd5b505050506040513d601f19601f8201168201806040525081019061098391906117fb565b9050813410156109af5760405162461bcd60e51b81526020600482015260006024820152604401610310565b8082116109ec5760405162461bcd60e51b815260206004820152600b60248201526a282924a1a2afa2a92927a960a91b6044820152606401610310565b60405163622fe39f60e01b8152600481018590526000906001600160a01b0385169063622fe39f906024016101c060405180830381865afa158015610a35573d6000803e3d6000fd5b505050506040513d601f19601f82011682018060405250810190610a599190611858565b90507f00000000000000000000000000000000000000000000000000000000000000006001600160a01b0316631755ff216040518163ffffffff1660e01b8152600401602060405180830381865afa158015610ab9573d6000803e3d6000fd5b505050506040513d601f19601f82011682018060405250810190610add91906117de565b6001600160a01b031663980a8bd9866040518263ffffffff1660e01b8152600401610b0a91815260200190565b600060405180830381600087803b158015610b2457600080fd5b505af1158015610b38573d6000803e3d6000fd5b505050507f00000000000000000000000000000000000000000000000000000000000000006001600160a01b031663d0e30db0836040518263ffffffff1660e01b81526004016000604051808303818588803b158015610b9757600080fd5b505af1158015610bab573d6000803e3d6000fd5b50505050507f00000000000000000000000000000000000000000000000000000000000000006001600160a01b031663095ea7b37f00000000000000000000000000000000000000000000000000000000000000006001600160a01b0316631755ff216040518163ffffffff1660e01b8152600401602060405180830381865afa158015610c3d573d6000803e3d6000fd5b505050506040513d601f19601f82011682018060405250810190610c6191906117de565b6040516001600160e01b031960e084901b1681526001600160a01b039091166004820152602481018590526044016020604051808303816000875af1158015610cae573d6000803e3d6000fd5b505050506040513d601f19601f82011682018060405250810190610cd29190611a46565b507f00000000000000000000000000000000000000000000000000000000000000006001600160a01b0316631755ff216040518163ffffffff1660e01b8152600401602060405180830381865afa158015610d31573d6000803e3d6000fd5b505050506040513d601f19601f82011682018060405250810190610d5591906117de565b6040516376999aeb60e01b815260048101879052602481018490526001600160a01b0391909116906376999aeb90604401600060405180830381600087803b158015610da057600080fd5b505af1158015610db4573d6000803e3d6000fd5b50505060208201516040808401519051632142170760e11b815230600482015233602482015260448101919091526001600160a01b0390911691506342842e0e90606401600060405180830381600087803b158015610e1257600080fd5b505af1158015610e26573d6000803e3d6000fd5b50505050610ebe7f00000000000000000000000000000000000000000000000000000000000000006001600160a01b031663c5f956af6040518163ffffffff1660e01b8152600401602060405180830381865afa158015610e8b573d6000803e3d6000fd5b505050506040513d601f19601f82011682018060405250810190610eaf91906117de565b610eb98486611a21565b61135f565b82341115610ed457610ed433610eb98534611a21565b5050505050565b6000807f00000000000000000000000000000000000000000000000000000000000000006001600160a01b03166335bc868a6040518163ffffffff1660e01b8152600401602060405180830381865afa158015610f3c573d6000803e3d6000fd5b505050506040513d601f19601f82011682018060405250810190610f6091906117de565b90506004604051632e31150760e11b8152600481018590526001600160a01b03831690635c622a0e90602401602060405180830381865afa158015610fa9573d6000803e3d6000fd5b505050506040513d601f19601f82011682018060405250810190610fcd9190611a77565b6005811115610fde57610fde611a61565b1461101f5760405162461bcd60e51b81526020600482015260116024820152702627a0a72fa9aa20aa2aa9afa2a92927a960791b6044820152606401610310565b60405163622fe39f60e01b8152600481018490526000906001600160a01b0383169063622fe39f906024016101c060405180830381865afa158015611068573d6000803e3d6000fd5b505050506040513d601f19601f8201168201806040525081019061108c9190611858565b604051636b52b36560e01b8152600481018690529091506000906001600160a01b03841690636b52b36590602401602060405180830381865afa1580156110d7573d6000803e3d6000fd5b505050506040513d601f19601f820116820180604052508101906110fb91906117fb565b610140830151604051635cf4ee9160e01b81526004810183905264ffffffffff90911660248201529091507f00000000000000000000000000000000000000000000000000000000000000006001600160a01b031690635cf4ee9190604401602060405180830381865afa158015611177573d6000803e3d6000fd5b505050506040513d601f19601f8201168201806040525081019061119b91906117fb565b95945050505050565b6040516001600160a01b038085166024830152831660448201526064810182905261120f9085906323b872dd60e01b906084015b60408051601f198184030181529190526020810180516001600160e01b03166001600160e01b0319909316929092179091526113f8565b50505050565b80158061128f5750604051636eb1769f60e11b81523060048201526001600160a01b03838116602483015284169063dd62ed3e90604401602060405180830381865afa158015611269573d6000803e3d6000fd5b505050506040513d601f19601f8201168201806040525081019061128d91906117fb565b155b6112fa5760405162461bcd60e51b815260206004820152603660248201527f5361666545524332303a20617070726f76652066726f6d206e6f6e2d7a65726f60448201527520746f206e6f6e2d7a65726f20616c6c6f77616e636560501b6064820152608401610310565b6040516001600160a01b03831660248201526044810182905261132a90849063095ea7b360e01b906064016111d8565b505050565b6040516001600160a01b03831660248201526044810182905261132a90849063a9059cbb60e01b906064016111d8565b6000826001600160a01b03168260405160006040518083038185875af1925050503d80600081146113ac576040519150601f19603f3d011682016040523d82523d6000602084013e6113b1565b606091505b505090508061132a5760405162461bcd60e51b815260206004820152601360248201527211551217d514905394d1915497d19052531151606a1b6044820152606401610310565b600061144d826040518060400160405280602081526020017f5361666545524332303a206c6f772d6c6576656c2063616c6c206661696c6564815250856001600160a01b03166114ca9092919063ffffffff16565b80519091501561132a578080602001905181019061146b9190611a46565b61132a5760405162461bcd60e51b815260206004820152602a60248201527f5361666545524332303a204552433230206f7065726174696f6e20646964206e6044820152691bdd081cdd58d8d9595960b21b6064820152608401610310565b60606114d984846000856114e3565b90505b9392505050565b6060824710156115445760405162461bcd60e51b815260206004820152602660248201527f416464726573733a20696e73756666696369656e742062616c616e636520666f6044820152651c8818d85b1b60d21b6064820152608401610310565b843b6115925760405162461bcd60e51b815260206004820152601d60248201527f416464726573733a2063616c6c20746f206e6f6e2d636f6e74726163740000006044820152606401610310565b600080866001600160a01b031685876040516115ae9190611abe565b60006040518083038185875af1925050503d80600081146115eb576040519150601f19603f3d011682016040523d82523d6000602084013e6115f0565b606091505b509150915061160082828661160b565b979650505050505050565b6060831561161a5750816114dc565b82511561162a5782518084602001fd5b8160405162461bcd60e51b81526004016103109190611ada565b6001600160a01b038116811461165957600080fd5b50565b634e487b7160e01b600052604160045260246000fd5b6040516101c0810167ffffffffffffffff811182821017156116965761169661165c565b60405290565b604051610180810167ffffffffffffffff811182821017156116965761169661165c565b604051601f8201601f1916810167ffffffffffffffff811182821017156116e9576116e961165c565b604052919050565b6000806000806080858703121561170757600080fd5b843561171281611644565b935060208581013561172381611644565b935060408601359250606086013567ffffffffffffffff8082111561174757600080fd5b818801915088601f83011261175b57600080fd5b81358181111561176d5761176d61165c565b61177f601f8201601f191685016116c0565b9150808252898482850101111561179557600080fd5b808484018584013760008482840101525080935050505092959194509250565b6000602082840312156117c757600080fd5b5035919050565b80516117d981611644565b919050565b6000602082840312156117f057600080fd5b81516114dc81611644565b60006020828403121561180d57600080fd5b5051919050565b80516fffffffffffffffffffffffffffffffff811681146117d957600080fd5b805164ffffffffff811681146117d957600080fd5b8051600681106117d957600080fd5b60006101c0828403121561186b57600080fd5b611873611672565b82518152611883602084016117ce565b60208201526040830151604082015261189e606084016117ce565b6060820152608083015160808201526118b960a08401611814565b60a08201526118ca60c08401611814565b60c08201526118db60e08401611834565b60e08201526101006118ee818501611834565b90820152610120611900848201611834565b90820152610140611912848201611834565b90820152610160611924848201611834565b90820152610180611936848201611834565b908201526101a0611948848201611849565b908201529392505050565b805180151581146117d957600080fd5b6000610180828403121561197657600080fd5b61197e61169c565b8251815261198e602084016117ce565b602082015261199f604084016117ce565b60408201526119b0606084016117ce565b60608201526119c160808401611814565b608082015260a083015160a082015260c083015160c08201526119e660e08401611834565b60e08201526101008381015190820152610120611a048185016117ce565b908201526101408381015190820152610160611948818501611953565b600082821015611a4157634e487b7160e01b600052601160045260246000fd5b500390565b600060208284031215611a5857600080fd5b6114dc82611953565b634e487b7160e01b600052602160045260246000fd5b600060208284031215611a8957600080fd5b6114dc82611849565b60005b83811015611aad578181015183820152602001611a95565b8381111561120f5750506000910152565b60008251611ad0818460208701611a92565b9190910192915050565b6020815260008251806020840152611af9816040850160208701611a92565b601f01601f1916919091016040019291505056fea26469706673582212200263109884fe2b2defa6e555bb6672c0f992a5c436bb4eb1c640be51d13d286464736f6c634300080a0033",
  "devdoc": {
    "kind": "dev",
    "methods": {
      "onERC721Received(address,address,uint256,bytes)": {
        "details": "See {IERC721Receiver-onERC721Received}. Always returns `IERC721Receiver.onERC721Received.selector`."
      }
    },
    "version": 1
  },
  "userdoc": {
    "kind": "user",
    "methods": {},
    "version": 1
  },
  "storageLayout": {
    "storage": [],
    "types": null
  }
}