{
  "address": "0xA04D98897A28FFe7AFeE0BEAE7B9E30c37a3C7D9",
  "abi": [
    {
      "inputs": [
        {
          "internalType": "string",
          "name": "name",
          "type": "string"
        },
        {
          "internalType": "string",
          "name": "symbol",
          "type": "string"
        },
        {
          "internalType": "address",
          "name": "_settings",
          "type": "address"
        },
        {
          "internalType": "address",
          "name": "pool",
          "type": "address"
        }
      ],
      "stateMutability": "nonpayable",
      "type": "constructor"
    },
    {
      "anonymous": false,
      "inputs": [
        {
          "indexed": true,
          "internalType": "address",
          "name": "owner",
          "type": "address"
        },
        {
          "indexed": true,
          "internalType": "address",
          "name": "approved",
          "type": "address"
        },
        {
          "indexed": true,
          "internalType": "uint256",
          "name": "tokenId",
          "type": "uint256"
        }
      ],
      "name": "Approval",
      "type": "event"
    },
    {
      "anonymous": false,
      "inputs": [
        {
          "indexed": true,
          "internalType": "address",
          "name": "owner",
          "type": "address"
        },
        {
          "indexed": true,
          "internalType": "address",
          "name": "operator",
          "type": "address"
        },
        {
          "indexed": false,
          "internalType": "bool",
          "name": "approved",
          "type": "bool"
        }
      ],
      "name": "ApprovalForAll",
      "type": "event"
    },
    {
      "anonymous": false,
      "inputs": [
        {
          "indexed": true,
          "internalType": "address",
          "name": "token",
          "type": "address"
        },
        {
          "indexed": true,
          "internalType": "address",
          "name": "to",
          "type": "address"
        },
        {
          "indexed": false,
          "internalType": "uint256[]",
          "name": "ids",
          "type": "uint256[]"
        },
        {
          "indexed": false,
          "internalType": "uint256[]",
          "name": "amounts",
          "type": "uint256[]"
        },
        {
          "indexed": false,
          "internalType": "bytes",
          "name": "data",
          "type": "bytes"
        }
      ],
      "name": "ClaimERC1155Airdrop",
      "type": "event"
    },
    {
      "anonymous": false,
      "inputs": [
        {
          "indexed": true,
          "internalType": "address",
          "name": "token",
          "type": "address"
        },
        {
          "indexed": true,
          "internalType": "address",
          "name": "to",
          "type": "address"
        },
        {
          "indexed": false,
          "internalType": "uint256",
          "name": "amount",
          "type": "uint256"
        }
      ],
      "name": "ClaimERC20Airdrop",
      "type": "event"
    },
    {
      "anonymous": false,
      "inputs": [
        {
          "indexed": true,
          "internalType": "address",
          "name": "token",
          "type": "address"
        },
        {
          "indexed": true,
          "internalType": "address",
          "name": "to",
          "type": "address"
        },
        {
          "indexed": false,
          "internalType": "uint256[]",
          "name": "ids",
          "type": "uint256[]"
        }
      ],
      "name": "ClaimERC721Airdrop",
      "type": "event"
    },
    {
      "anonymous": false,
      "inputs": [
        {
          "indexed": true,
          "internalType": "uint256",
          "name": "tokenId",
          "type": "uint256"
        },
        {
          "indexed": true,
          "internalType": "address",
          "name": "onBehalfOf",
          "type": "address"
        },
        {
          "indexed": true,
          "internalType": "address",
          "name": "repayer",
          "type": "address"
        }
      ],
      "name": "End",
      "type": "event"
    },
    {
      "anonymous": false,
      "inputs": [
        {
          "indexed": true,
          "internalType": "uint256",
          "name": "tokenId",
          "type": "uint256"
        },
        {
          "indexed": true,
          "internalType": "address",
          "name": "liquidator",
          "type": "address"
        }
      ],
      "name": "EndLiquidation",
      "type": "event"
    },
    {
      "anonymous": false,
      "inputs": [
        {
          "indexed": true,
          "internalType": "address",
          "name": "receiver",
          "type": "address"
        },
        {
          "indexed": false,
          "internalType": "address",
          "name": "sender",
          "type": "address"
        },
        {
          "indexed": true,
          "internalType": "address",
          "name": "nftAddress",
          "type": "address"
        },
        {
          "indexed": true,
          "internalType": "uint256",
          "name": "tokenId",
          "type": "uint256"
        }
      ],
      "name": "FlashClaim",
      "type": "event"
    },
    {
      "anonymous": false,
      "inputs": [
        {
          "indexed": true,
          "internalType": "uint256",
          "name": "tokenId",
          "type": "uint256"
        },
        {
          "indexed": true,
          "internalType": "address",
          "name": "recipient",
          "type": "address"
        }
      ],
      "name": "Mint",
      "type": "event"
    },
    {
      "anonymous": false,
      "inputs": [
        {
          "indexed": true,
          "internalType": "address",
          "name": "previousOwner",
          "type": "address"
        },
        {
          "indexed": true,
          "internalType": "address",
          "name": "newOwner",
          "type": "address"
        }
      ],
      "name": "OwnershipTransferred",
      "type": "event"
    },
    {
      "anonymous": false,
      "inputs": [
        {
          "indexed": true,
          "internalType": "uint256",
          "name": "tokenId",
          "type": "uint256"
        },
        {
          "indexed": true,
          "internalType": "address",
          "name": "liquidator",
          "type": "address"
        }
      ],
      "name": "StartLiquidation",
      "type": "event"
    },
    {
      "anonymous": false,
      "inputs": [
        {
          "indexed": true,
          "internalType": "address",
          "name": "from",
          "type": "address"
        },
        {
          "indexed": true,
          "internalType": "address",
          "name": "to",
          "type": "address"
        },
        {
          "indexed": true,
          "internalType": "uint256",
          "name": "tokenId",
          "type": "uint256"
        }
      ],
      "name": "Transfer",
      "type": "event"
    },
    {
      "anonymous": false,
      "inputs": [
        {
          "indexed": true,
          "internalType": "uint256",
          "name": "tokenId",
          "type": "uint256"
        },
        {
          "indexed": true,
          "internalType": "enum DataTypes.LoanStatus",
          "name": "status",
          "type": "uint8"
        }
      ],
      "name": "UpdateStatus",
      "type": "event"
    },
    {
      "inputs": [],
      "name": "SETTINGS",
      "outputs": [
        {
          "internalType": "contract IOpenSkySettings",
          "name": "",
          "type": "address"
        }
      ],
      "stateMutability": "view",
      "type": "function"
    },
    {
      "inputs": [
        {
          "internalType": "address",
          "name": "to",
          "type": "address"
        },
        {
          "internalType": "uint256",
          "name": "tokenId",
          "type": "uint256"
        }
      ],
      "name": "approve",
      "outputs": [],
      "stateMutability": "nonpayable",
      "type": "function"
    },
    {
      "inputs": [
        {
          "internalType": "address",
          "name": "owner",
          "type": "address"
        }
      ],
      "name": "balanceOf",
      "outputs": [
        {
          "internalType": "uint256",
          "name": "",
          "type": "uint256"
        }
      ],
      "stateMutability": "view",
      "type": "function"
    },
    {
      "inputs": [
        {
          "internalType": "address",
          "name": "token",
          "type": "address"
        },
        {
          "internalType": "address",
          "name": "to",
          "type": "address"
        },
        {
          "internalType": "uint256[]",
          "name": "ids",
          "type": "uint256[]"
        },
        {
          "internalType": "uint256[]",
          "name": "amounts",
          "type": "uint256[]"
        },
        {
          "internalType": "bytes",
          "name": "data",
          "type": "bytes"
        }
      ],
      "name": "claimERC1155Airdrop",
      "outputs": [],
      "stateMutability": "nonpayable",
      "type": "function"
    },
    {
      "inputs": [
        {
          "internalType": "address",
          "name": "token",
          "type": "address"
        },
        {
          "internalType": "address",
          "name": "to",
          "type": "address"
        },
        {
          "internalType": "uint256",
          "name": "amount",
          "type": "uint256"
        }
      ],
      "name": "claimERC20Airdrop",
      "outputs": [],
      "stateMutability": "nonpayable",
      "type": "function"
    },
    {
      "inputs": [
        {
          "internalType": "address",
          "name": "token",
          "type": "address"
        },
        {
          "internalType": "address",
          "name": "to",
          "type": "address"
        },
        {
          "internalType": "uint256[]",
          "name": "ids",
          "type": "uint256[]"
        }
      ],
      "name": "claimERC721Airdrop",
      "outputs": [],
      "stateMutability": "nonpayable",
      "type": "function"
    },
    {
      "inputs": [
        {
          "internalType": "uint256",
          "name": "tokenId",
          "type": "uint256"
        },
        {
          "internalType": "address",
          "name": "onBehalfOf",
          "type": "address"
        },
        {
          "internalType": "address",
          "name": "repayer",
          "type": "address"
        }
      ],
      "name": "end",
      "outputs": [],
      "stateMutability": "nonpayable",
      "type": "function"
    },
    {
      "inputs": [
        {
          "internalType": "uint256",
          "name": "tokenId",
          "type": "uint256"
        }
      ],
      "name": "endLiquidation",
      "outputs": [],
      "stateMutability": "nonpayable",
      "type": "function"
    },
    {
      "inputs": [
        {
          "internalType": "address",
          "name": "receiverAddress",
          "type": "address"
        },
        {
          "internalType": "uint256[]",
          "name": "loanIds",
          "type": "uint256[]"
        },
        {
          "internalType": "bytes",
          "name": "params",
          "type": "bytes"
        }
      ],
      "name": "flashClaim",
      "outputs": [],
      "stateMutability": "nonpayable",
      "type": "function"
    },
    {
      "inputs": [
        {
          "internalType": "uint256",
          "name": "tokenId",
          "type": "uint256"
        }
      ],
      "name": "getApproved",
      "outputs": [
        {
          "internalType": "address",
          "name": "",
          "type": "address"
        }
      ],
      "stateMutability": "view",
      "type": "function"
    },
    {
      "inputs": [
        {
          "internalType": "uint256",
          "name": "tokenId",
          "type": "uint256"
        }
      ],
      "name": "getBorrowBalance",
      "outputs": [
        {
          "internalType": "uint256",
          "name": "",
          "type": "uint256"
        }
      ],
      "stateMutability": "view",
      "type": "function"
    },
    {
      "inputs": [
        {
          "internalType": "uint256",
          "name": "tokenId",
          "type": "uint256"
        }
      ],
      "name": "getBorrowInterest",
      "outputs": [
        {
          "internalType": "uint256",
          "name": "",
          "type": "uint256"
        }
      ],
      "stateMutability": "view",
      "type": "function"
    },
    {
      "inputs": [
        {
          "internalType": "uint256",
          "name": "tokenId",
          "type": "uint256"
        }
      ],
      "name": "getLoanData",
      "outputs": [
        {
          "components": [
            {
              "internalType": "uint256",
              "name": "reserveId",
              "type": "uint256"
            },
            {
              "internalType": "address",
              "name": "nftAddress",
              "type": "address"
            },
            {
              "internalType": "uint256",
              "name": "tokenId",
              "type": "uint256"
            },
            {
              "internalType": "address",
              "name": "borrower",
              "type": "address"
            },
            {
              "internalType": "uint256",
              "name": "amount",
              "type": "uint256"
            },
            {
              "internalType": "uint128",
              "name": "borrowRate",
              "type": "uint128"
            },
            {
              "internalType": "uint128",
              "name": "interestPerSecond",
              "type": "uint128"
            },
            {
              "internalType": "uint40",
              "name": "borrowBegin",
              "type": "uint40"
            },
            {
              "internalType": "uint40",
              "name": "borrowDuration",
              "type": "uint40"
            },
            {
              "internalType": "uint40",
              "name": "borrowOverdueTime",
              "type": "uint40"
            },
            {
              "internalType": "uint40",
              "name": "liquidatableTime",
              "type": "uint40"
            },
            {
              "internalType": "uint40",
              "name": "extendableTime",
              "type": "uint40"
            },
            {
              "internalType": "uint40",
              "name": "borrowEnd",
              "type": "uint40"
            },
            {
              "internalType": "enum DataTypes.LoanStatus",
              "name": "status",
              "type": "uint8"
            }
          ],
          "internalType": "struct DataTypes.LoanData",
          "name": "",
          "type": "tuple"
        }
      ],
      "stateMutability": "view",
      "type": "function"
    },
    {
      "inputs": [
        {
          "internalType": "address",
          "name": "",
          "type": "address"
        },
        {
          "internalType": "uint256",
          "name": "",
          "type": "uint256"
        }
      ],
      "name": "getLoanId",
      "outputs": [
        {
          "internalType": "uint256",
          "name": "",
          "type": "uint256"
        }
      ],
      "stateMutability": "view",
      "type": "function"
    },
    {
      "inputs": [
        {
          "internalType": "uint256",
          "name": "tokenId",
          "type": "uint256"
        }
      ],
      "name": "getPenalty",
      "outputs": [
        {
          "internalType": "uint256",
          "name": "",
          "type": "uint256"
        }
      ],
      "stateMutability": "view",
      "type": "function"
    },
    {
      "inputs": [
        {
          "internalType": "uint256",
          "name": "tokenId",
          "type": "uint256"
        }
      ],
      "name": "getStatus",
      "outputs": [
        {
          "internalType": "enum DataTypes.LoanStatus",
          "name": "",
          "type": "uint8"
        }
      ],
      "stateMutability": "view",
      "type": "function"
    },
    {
      "inputs": [
        {
          "internalType": "address",
          "name": "owner",
          "type": "address"
        },
        {
          "internalType": "address",
          "name": "operator",
          "type": "address"
        }
      ],
      "name": "isApprovedForAll",
      "outputs": [
        {
          "internalType": "bool",
          "name": "",
          "type": "bool"
        }
      ],
      "stateMutability": "view",
      "type": "function"
    },
    {
      "inputs": [
        {
          "internalType": "uint256",
          "name": "reserveId",
          "type": "uint256"
        },
        {
          "internalType": "address",
          "name": "borrower",
          "type": "address"
        },
        {
          "internalType": "address",
          "name": "nftAddress",
          "type": "address"
        },
        {
          "internalType": "uint256",
          "name": "nftTokenId",
          "type": "uint256"
        },
        {
          "internalType": "uint256",
          "name": "amount",
          "type": "uint256"
        },
        {
          "internalType": "uint256",
          "name": "duration",
          "type": "uint256"
        },
        {
          "internalType": "uint256",
          "name": "borrowRate",
          "type": "uint256"
        }
      ],
      "name": "mint",
      "outputs": [
        {
          "internalType": "uint256",
          "name": "loanId",
          "type": "uint256"
        },
        {
          "components": [
            {
              "internalType": "uint256",
              "name": "reserveId",
              "type": "uint256"
            },
            {
              "internalType": "address",
              "name": "nftAddress",
              "type": "address"
            },
            {
              "internalType": "uint256",
              "name": "tokenId",
              "type": "uint256"
            },
            {
              "internalType": "address",
              "name": "borrower",
              "type": "address"
            },
            {
              "internalType": "uint256",
              "name": "amount",
              "type": "uint256"
            },
            {
              "internalType": "uint128",
              "name": "borrowRate",
              "type": "uint128"
            },
            {
              "internalType": "uint128",
              "name": "interestPerSecond",
              "type": "uint128"
            },
            {
              "internalType": "uint40",
              "name": "borrowBegin",
              "type": "uint40"
            },
            {
              "internalType": "uint40",
              "name": "borrowDuration",
              "type": "uint40"
            },
            {
              "internalType": "uint40",
              "name": "borrowOverdueTime",
              "type": "uint40"
            },
            {
              "internalType": "uint40",
              "name": "liquidatableTime",
              "type": "uint40"
            },
            {
              "internalType": "uint40",
              "name": "extendableTime",
              "type": "uint40"
            },
            {
              "internalType": "uint40",
              "name": "borrowEnd",
              "type": "uint40"
            },
            {
              "internalType": "enum DataTypes.LoanStatus",
              "name": "status",
              "type": "uint8"
            }
          ],
          "internalType": "struct DataTypes.LoanData",
          "name": "loan",
          "type": "tuple"
        }
      ],
      "stateMutability": "nonpayable",
      "type": "function"
    },
    {
      "inputs": [],
      "name": "name",
      "outputs": [
        {
          "internalType": "string",
          "name": "",
          "type": "string"
        }
      ],
      "stateMutability": "view",
      "type": "function"
    },
    {
      "inputs": [
        {
          "internalType": "address",
          "name": "",
          "type": "address"
        },
        {
          "internalType": "address",
          "name": "",
          "type": "address"
        },
        {
          "internalType": "uint256[]",
          "name": "",
          "type": "uint256[]"
        },
        {
          "internalType": "uint256[]",
          "name": "",
          "type": "uint256[]"
        },
        {
          "internalType": "bytes",
          "name": "",
          "type": "bytes"
        }
      ],
      "name": "onERC1155BatchReceived",
      "outputs": [
        {
          "internalType": "bytes4",
          "name": "",
          "type": "bytes4"
        }
      ],
      "stateMutability": "nonpayable",
      "type": "function"
    },
    {
      "inputs": [
        {
          "internalType": "address",
          "name": "",
          "type": "address"
        },
        {
          "internalType": "address",
          "name": "",
          "type": "address"
        },
        {
          "internalType": "uint256",
          "name": "",
          "type": "uint256"
        },
        {
          "internalType": "uint256",
          "name": "",
          "type": "uint256"
        },
        {
          "internalType": "bytes",
          "name": "",
          "type": "bytes"
        }
      ],
      "name": "onERC1155Received",
      "outputs": [
        {
          "internalType": "bytes4",
          "name": "",
          "type": "bytes4"
        }
      ],
      "stateMutability": "nonpayable",
      "type": "function"
    },
    {
      "inputs": [
        {
          "internalType": "address",
          "name": "",
          "type": "address"
        },
        {
          "internalType": "address",
          "name": "",
          "type": "address"
        },
        {
          "internalType": "uint256",
          "name": "",
          "type": "uint256"
        },
        {
          "internalType": "bytes",
          "name": "",
          "type": "bytes"
        }
      ],
      "name": "onERC721Received",
      "outputs": [
        {
          "internalType": "bytes4",
          "name": "",
          "type": "bytes4"
        }
      ],
      "stateMutability": "nonpayable",
      "type": "function"
    },
    {
      "inputs": [],
      "name": "owner",
      "outputs": [
        {
          "internalType": "address",
          "name": "",
          "type": "address"
        }
      ],
      "stateMutability": "view",
      "type": "function"
    },
    {
      "inputs": [
        {
          "internalType": "uint256",
          "name": "tokenId",
          "type": "uint256"
        }
      ],
      "name": "ownerOf",
      "outputs": [
        {
          "internalType": "address",
          "name": "",
          "type": "address"
        }
      ],
      "stateMutability": "view",
      "type": "function"
    },
    {
      "inputs": [],
      "name": "renounceOwnership",
      "outputs": [],
      "stateMutability": "nonpayable",
      "type": "function"
    },
    {
      "inputs": [
        {
          "internalType": "address",
          "name": "from",
          "type": "address"
        },
        {
          "internalType": "address",
          "name": "to",
          "type": "address"
        },
        {
          "internalType": "uint256",
          "name": "tokenId",
          "type": "uint256"
        }
      ],
      "name": "safeTransferFrom",
      "outputs": [],
      "stateMutability": "nonpayable",
      "type": "function"
    },
    {
      "inputs": [
        {
          "internalType": "address",
          "name": "from",
          "type": "address"
        },
        {
          "internalType": "address",
          "name": "to",
          "type": "address"
        },
        {
          "internalType": "uint256",
          "name": "tokenId",
          "type": "uint256"
        },
        {
          "internalType": "bytes",
          "name": "_data",
          "type": "bytes"
        }
      ],
      "name": "safeTransferFrom",
      "outputs": [],
      "stateMutability": "nonpayable",
      "type": "function"
    },
    {
      "inputs": [
        {
          "internalType": "address",
          "name": "operator",
          "type": "address"
        },
        {
          "internalType": "bool",
          "name": "approved",
          "type": "bool"
        }
      ],
      "name": "setApprovalForAll",
      "outputs": [],
      "stateMutability": "nonpayable",
      "type": "function"
    },
    {
      "inputs": [
        {
          "internalType": "uint256",
          "name": "tokenId",
          "type": "uint256"
        }
      ],
      "name": "startLiquidation",
      "outputs": [],
      "stateMutability": "nonpayable",
      "type": "function"
    },
    {
      "inputs": [
        {
          "internalType": "bytes4",
          "name": "interfaceId",
          "type": "bytes4"
        }
      ],
      "name": "supportsInterface",
      "outputs": [
        {
          "internalType": "bool",
          "name": "",
          "type": "bool"
        }
      ],
      "stateMutability": "view",
      "type": "function"
    },
    {
      "inputs": [],
      "name": "symbol",
      "outputs": [
        {
          "internalType": "string",
          "name": "",
          "type": "string"
        }
      ],
      "stateMutability": "view",
      "type": "function"
    },
    {
      "inputs": [
        {
          "internalType": "uint256",
          "name": "index",
          "type": "uint256"
        }
      ],
      "name": "tokenByIndex",
      "outputs": [
        {
          "internalType": "uint256",
          "name": "",
          "type": "uint256"
        }
      ],
      "stateMutability": "view",
      "type": "function"
    },
    {
      "inputs": [
        {
          "internalType": "address",
          "name": "owner",
          "type": "address"
        },
        {
          "internalType": "uint256",
          "name": "index",
          "type": "uint256"
        }
      ],
      "name": "tokenOfOwnerByIndex",
      "outputs": [
        {
          "internalType": "uint256",
          "name": "",
          "type": "uint256"
        }
      ],
      "stateMutability": "view",
      "type": "function"
    },
    {
      "inputs": [
        {
          "internalType": "uint256",
          "name": "tokenId",
          "type": "uint256"
        }
      ],
      "name": "tokenURI",
      "outputs": [
        {
          "internalType": "string",
          "name": "",
          "type": "string"
        }
      ],
      "stateMutability": "view",
      "type": "function"
    },
    {
      "inputs": [],
      "name": "totalBorrows",
      "outputs": [
        {
          "internalType": "uint256",
          "name": "",
          "type": "uint256"
        }
      ],
      "stateMutability": "view",
      "type": "function"
    },
    {
      "inputs": [],
      "name": "totalSupply",
      "outputs": [
        {
          "internalType": "uint256",
          "name": "",
          "type": "uint256"
        }
      ],
      "stateMutability": "view",
      "type": "function"
    },
    {
      "inputs": [
        {
          "internalType": "address",
          "name": "from",
          "type": "address"
        },
        {
          "internalType": "address",
          "name": "to",
          "type": "address"
        },
        {
          "internalType": "uint256",
          "name": "tokenId",
          "type": "uint256"
        }
      ],
      "name": "transferFrom",
      "outputs": [],
      "stateMutability": "nonpayable",
      "type": "function"
    },
    {
      "inputs": [
        {
          "internalType": "address",
          "name": "newOwner",
          "type": "address"
        }
      ],
      "name": "transferOwnership",
      "outputs": [],
      "stateMutability": "nonpayable",
      "type": "function"
    },
    {
      "inputs": [
        {
          "internalType": "address",
          "name": "",
          "type": "address"
        }
      ],
      "name": "userBorrows",
      "outputs": [
        {
          "internalType": "uint256",
          "name": "",
          "type": "uint256"
        }
      ],
      "stateMutability": "view",
      "type": "function"
    }
  ],
  "transactionHash": "0x92b8d5700d0c7cda65f94f90891039d713cbaf2daed87f4a8848ca4eae14f608",
  "args": [
    "OpenSky Loan",
    "OSL",
    "0x12D182BE71BF456353FBc3aeFdae4C98465D9ef5",
    "0x4Be1A297531665a0AdafdF004453C0f4b7eBBc1A"
  ],
  "solcInputHash": "597fe0c822de038e67f456c392a88115",
  "bytecode": "0x60a06040523480156200001157600080fd5b506040516200555338038062005553833981016040819052620000349162000297565b8351849084906200004d90600090602085019062000107565b5080516200006390600190602084019062000107565b505050620000806200007a620000b160201b60201c565b620000b5565b6001600b556001600160a01b03918216608052601180546001600160a01b0319169190921617905550620003639050565b3390565b600a80546001600160a01b038381166001600160a01b0319831681179093556040519116919082907f8be0079c531659141344cd1fd0a4f28419497f9722a3daafe3b4186f6b6457e090600090a35050565b828054620001159062000326565b90600052602060002090601f01602090048101928262000139576000855562000184565b82601f106200015457805160ff191683800117855562000184565b8280016001018555821562000184579182015b828111156200018457825182559160200191906001019062000167565b506200019292915062000196565b5090565b5b8082111562000192576000815560010162000197565b634e487b7160e01b600052604160045260246000fd5b600082601f830112620001d557600080fd5b81516001600160401b0380821115620001f257620001f2620001ad565b604051601f8301601f19908116603f011681019082821181831017156200021d576200021d620001ad565b816040528381526020925086838588010111156200023a57600080fd5b600091505b838210156200025e57858201830151818301840152908201906200023f565b83821115620002705760008385830101525b9695505050505050565b80516001600160a01b03811681146200029257600080fd5b919050565b60008060008060808587031215620002ae57600080fd5b84516001600160401b0380821115620002c657600080fd5b620002d488838901620001c3565b95506020870151915080821115620002eb57600080fd5b50620002fa87828801620001c3565b9350506200030b604086016200027a565b91506200031b606086016200027a565b905092959194509250565b600181811c908216806200033b57607f821691505b602082108114156200035d57634e487b7160e01b600052602260045260246000fd5b50919050565b60805161518e620003c5600039600081816104e60152818161116c01528181611b87015281816120c1015281816121720152818161246a015281816124fa01528181612609015281816128c601528181612f890152613319015261518e6000f3fe608060405234801561001057600080fd5b506004361061023d5760003560e01c80636b52b3651161013b578063ade97ab5116100b8578063e3185e121161007c578063e3185e1214610560578063e985e9c514610573578063ed213bbf146105af578063f23a6e61146105c2578063f2fde38b146105e157600080fd5b8063ade97ab5146104e1578063b88d4fde14610508578063bc197c811461051b578063c87b56dd1461053a578063cae595531461054d57600080fd5b80638da5cb5b116100ff5780638da5cb5b1461048f57806395d89b41146104a057806396e59682146104a8578063980a8bd9146104bb578063a22cb465146104ce57600080fd5b80636b52b3651461042057806370a082311461043357806370b4ebeb14610446578063715018a61461046757806377593cc41461046f57600080fd5b806323b872dd116101c95780634f6ccce71161018d5780634f6ccce7146103a757806356308612146103ba5780635c622a0e146103cd578063622fe39f146103ed5780636352211e1461040d57600080fd5b806323b872dd146103525780632f745c591461036557806342842e0e1461037857806347bd37181461038b5780634f0709161461039457600080fd5b8063095ea7b311610210578063095ea7b3146102bf57806311615d30146102d2578063150b7a021461030b57806318160ddd146103375780631c1874951461033f57600080fd5b806301ffc9a71461024257806303282d6e1461026a57806306fdde031461027f578063081812fc14610294575b600080fd5b6102556102503660046142fd565b6105f4565b60405190151581526020015b60405180910390f35b61027d6102783660046143bb565b610605565b005b610287610c86565b6040516102619190614495565b6102a76102a23660046144a8565b610d18565b6040516001600160a01b039091168152602001610261565b61027d6102cd3660046144c1565b610da0565b6102fd6102e03660046144c1565b600d60209081526000928352604080842090915290825290205481565b604051908152602001610261565b61031e6103193660046145d9565b610eb6565b6040516001600160e01b03199091168152602001610261565b6008546102fd565b6102fd61034d3660046144a8565b610ec7565b61027d610360366004614644565b611086565b6102fd6103733660046144c1565b6110b7565b61027d610386366004614644565b61114d565b6102fd600e5481565b61027d6103a2366004614644565b611168565b6102fd6103b53660046144a8565b611308565b61027d6103c8366004614685565b61139b565b6103e06103db3660046144a8565b61160c565b60405161026191906146ff565b6104006103fb3660046144a8565b6117f4565b6040516102619190614809565b6102a761041b3660046144a8565b611991565b6102fd61042e3660046144a8565b611a08565b6102fd610441366004614818565b611a7b565b610459610454366004614835565b611b02565b60405161026192919061489a565b61027d611ec3565b6102fd61047d366004614818565b600f6020526000908152604090205481565b600a546001600160a01b03166102a7565b610287611f29565b6102fd6104b63660046144a8565b611f38565b61027d6104c93660046144a8565b6121d8565b61027d6104dc3660046148bd565b61235e565b6102a77f000000000000000000000000000000000000000000000000000000000000000081565b61027d6105163660046145d9565b612423565b61031e61052936600461496a565b63bc197c8160e01b95945050505050565b6102876105483660046144a8565b61245b565b61027d61055b366004614a17565b612605565b61027d61056e366004614a7b565b6128c2565b610255610581366004614b39565b6001600160a01b03918216600090815260056020908152604080832093909416825291909152205460ff1690565b61027d6105bd3660046144a8565b612ac7565b61031e6105d0366004614b67565b63f23a6e6160e01b95945050505050565b61027d6105ef366004614818565b612c1a565b60006105ff82612ce5565b92915050565b6002600b54141561065d5760405162461bcd60e51b815260206004820152601f60248201527f5265656e7472616e637947756172643a207265656e7472616e742063616c6c0060448201526064015b60405180910390fd5b6002600b5560008581856001600160401b0381111561067e5761067e6144ed565b6040519080825280602002602001820160405280156106a7578160200160208202803683370190505b5090506000866001600160401b038111156106c4576106c46144ed565b6040519080825280602002602001820160405280156106ed578160200160208202803683370190505b509050600093505b8684101561099e573361071f89898781811061071357610713614bcf565b90506020020135611991565b6001600160a01b031614604051806040016040528060038152602001620d0c0d60ea1b815250906107635760405162461bcd60e51b81526004016106549190614495565b50600061078789898781811061077b5761077b614bcf565b9050602002013561160c565b9050600481600581111561079d5761079d6146c7565b141580156107bd575060058160058111156107ba576107ba6146c7565b14155b6040518060400160405280600381526020016234313160e81b815250906107f75760405162461bcd60e51b81526004016106549190614495565b506000600c60008b8b8981811061081057610810614bcf565b6020908102929092013583525081810192909252604090810160002081516101c0810183528154815260018201546001600160a01b039081169482019490945260028201549281019290925260038101549092166060820152600482015460808201526005808301546001600160801b0380821660a0850152600160801b9091041660c0830152600683015464ffffffffff80821660e0850152600160281b82048116610100850152600160501b82048116610120850152600160781b82048116610140850152600160a01b82048116610160850152600160c81b8204166101808401529192916101a0840191600160f01b90910460ff1690811115610918576109186146c7565b6005811115610929576109296146c7565b815250509050806020015184878151811061094657610946614bcf565b60200260200101906001600160a01b031690816001600160a01b031681525050806040015183878151811061097d5761097d614bcf565b6020026020010181815250505050838061099690614bfb565b9450506106f5565b600093505b86841015610a6c578184815181106109bd576109bd614bcf565b60200260200101516001600160a01b03166342842e0e308b8488815181106109e7576109e7614bcf565b60209081029190910101516040516001600160e01b031960e086901b1681526001600160a01b0393841660048201529290911660248301526044820152606401600060405180830381600087803b158015610a4157600080fd5b505af1158015610a55573d6000803e3d6000fd5b505050508380610a6490614bfb565b9450506109a3565b604051628e896f60e41b81526001600160a01b038416906308e896f090610aa19085908590339030908d908d90600401614c3f565b6020604051808303816000875af1158015610ac0573d6000803e3d6000fd5b505050506040513d601f19601f82011682018060405250810190610ae49190614d03565b6040518060400160405280600381526020016203431360ec1b81525090610b1e5760405162461bcd60e51b81526004016106549190614495565b50600093505b86841015610c7657818481518110610b3e57610b3e614bcf565b60200260200101516001600160a01b03166342842e0e8a30848881518110610b6857610b68614bcf565b60209081029190910101516040516001600160e01b031960e086901b1681526001600160a01b0393841660048201529290911660248301526044820152606401600060405180830381600087803b158015610bc257600080fd5b505af1158015610bd6573d6000803e3d6000fd5b50505050808481518110610bec57610bec614bcf565b6020026020010151828581518110610c0657610c06614bcf565b60200260200101516001600160a01b03168a6001600160a01b03167f6bac1c66016500cd7b62d69e86268760baac6cd34a70003af66ffa8a97983216610c493390565b6040516001600160a01b03909116815260200160405180910390a483610c6e81614bfb565b945050610b24565b50506001600b5550505050505050565b606060008054610c9590614d20565b80601f0160208091040260200160405190810160405280929190818152602001828054610cc190614d20565b8015610d0e5780601f10610ce357610100808354040283529160200191610d0e565b820191906000526020600020905b815481529060010190602001808311610cf157829003601f168201915b5050505050905090565b6000610d2382612d0a565b610d845760405162461bcd60e51b815260206004820152602c60248201527f4552433732313a20617070726f76656420717565727920666f72206e6f6e657860448201526b34b9ba32b73a103a37b5b2b760a11b6064820152608401610654565b506000908152600460205260409020546001600160a01b031690565b6000610dab82611991565b9050806001600160a01b0316836001600160a01b03161415610e195760405162461bcd60e51b815260206004820152602160248201527f4552433732313a20617070726f76616c20746f2063757272656e74206f776e656044820152603960f91b6064820152608401610654565b336001600160a01b0382161480610e355750610e358133610581565b610ea75760405162461bcd60e51b815260206004820152603860248201527f4552433732313a20617070726f76652063616c6c6572206973206e6f74206f7760448201527f6e6572206e6f7220617070726f76656420666f7220616c6c00000000000000006064820152608401610654565b610eb18383612d27565b505050565b630a85bd0160e11b5b949350505050565b600081610ed381612d0a565b6040518060400160405280600381526020016203430360ec1b81525090610f0d5760405162461bcd60e51b81526004016106549190614495565b506000838152600c6020908152604080832081516101c0810183528154815260018201546001600160a01b039081169482019490945260028201549281019290925260038101549092166060820152600482015460808201526005808301546001600160801b0380821660a0850152600160801b9091041660c0830152600683015464ffffffffff80821660e0850152600160281b82048116610100850152600160501b82048116610120850152600160781b82048116610140850152600160a01b82048116610160850152600160c81b8204166101808401529192916101a0840191600160f01b90910460ff169081111561100b5761100b6146c7565b600581111561101c5761101c6146c7565b81525050905060008082610180015164ffffffffff161161103d574261104b565b81610180015164ffffffffff165b905061107b8260e0015164ffffffffff16826110679190614d55565b60c08401516001600160801b031690612d95565b935050505b50919050565b6110903382612e51565b6110ac5760405162461bcd60e51b815260040161065490614d6c565b610eb1838383612f37565b60006110c283611a7b565b82106111245760405162461bcd60e51b815260206004820152602b60248201527f455243373231456e756d657261626c653a206f776e657220696e646578206f7560448201526a74206f6620626f756e647360a81b6064820152608401610654565b506001600160a01b03919091166000908152600660209081526040808320938352929052205490565b610eb183838360405180602001604052806000815250612423565b60007f00000000000000000000000000000000000000000000000000000000000000006001600160a01b0316639a9dbb996040518163ffffffff1660e01b8152600401602060405180830381865afa1580156111c8573d6000803e3d6000fd5b505050506040513d601f19601f820116820180604052508101906111ec9190614dbd565b90506001600160a01b038116639078c85a336040516001600160e01b031960e084901b1681526001600160a01b039091166004820152602401602060405180830381865afa158015611242573d6000803e3d6000fd5b505050506040513d601f19601f820116820180604052508101906112669190614d03565b604051806040016040528060038152602001620c8c0d60ea1b815250906112a05760405162461bcd60e51b81526004016106549190614495565b506112b56001600160a01b03851684846132c3565b826001600160a01b0316846001600160a01b03167f81275949a17d84915b61eeb24587a501cc8863011afba1ed12f3f6c5bdfd6a21846040516112fa91815260200190565b60405180910390a350505050565b600061131360085490565b82106113765760405162461bcd60e51b815260206004820152602c60248201527f455243373231456e756d657261626c653a20676c6f62616c20696e646578206f60448201526b7574206f6620626f756e647360a01b6064820152608401610654565b6008828154811061138957611389614bcf565b90600052602060002001549050919050565b6011546001600160a01b0316336001600160a01b0316146040518060400160405280600381526020016232303560e81b815250906113ec5760405162461bcd60e51b81526004016106549190614495565b50826113f781612d0a565b6040518060400160405280600381526020016203430360ec1b815250906114315760405162461bcd60e51b81526004016106549190614495565b50826001600160a01b031661144585611991565b6001600160a01b031614604051806040016040528060038152602001621a181960e91b815250906114895760405162461bcd60e51b81526004016106549190614495565b5060056000858152600c6020526040902060060154600160f01b900460ff1660058111156114b9576114b96146c7565b146115455760006114c985611991565b90506114d481613315565b6000858152600c60209081526040808320600401546001600160a01b0385168452600f909252909120546115089190614d55565b6001600160a01b0382166000908152600f6020908152604080832093909355878252600c90522060040154600e546115409190614d55565b600e55505b61154e8461342d565b6000848152600c602081815260408084206001810180546001600160a01b039081168752600d855283872060028401805489529086528488208890558b88529590945285825580546001600160a01b0319908116909155938590556003810180549094169093556004830184905560058301849055600690920180546001600160f81b03191690559051848216929186169187917f2b23481a24e3c10d00df04743856de486787a766f4dcbf88f1bd1281466a8d089190a450505050565b60008161161881612d0a565b6040518060400160405280600381526020016203430360ec1b815250906116525760405162461bcd60e51b81526004016106549190614495565b506000838152600c6020908152604080832081516101c0810183528154815260018201546001600160a01b039081169482019490945260028201549281019290925260038101549092166060820152600482015460808201526005808301546001600160801b0380821660a0850152600160801b9091041660c0830152600683015464ffffffffff80821660e0850152600160281b82048116610100850152600160501b82048116610120850152600160781b82048116610140850152600160a01b82048116610160850152600160c81b8204166101808401529192916101a0840191600160f01b90910460ff1690811115611750576117506146c7565b6005811115611761576117616146c7565b9052506000858152600c6020526040902060060154909150600160f01b900460ff166001816005811115611797576117976146c7565b1415610ebf574282610140015164ffffffffff1610156117b957506004610ebf565b4282610120015164ffffffffff1610156117d557506003610ebf565b4282610160015164ffffffffff161015610ebf57506002949350505050565b6117fc614275565b8161180681612d0a565b6040518060400160405280600381526020016203430360ec1b815250906118405760405162461bcd60e51b81526004016106549190614495565b506000838152600c6020908152604080832081516101c0810183528154815260018201546001600160a01b039081169482019490945260028201549281019290925260038101549092166060820152600482015460808201526005808301546001600160801b0380821660a0850152600160801b9091041660c0830152600683015464ffffffffff80821660e0850152600160281b82048116610100850152600160501b82048116610120850152600160781b82048116610140850152600160a01b82048116610160850152600160c81b8204166101808401529192916101a0840191600160f01b90910460ff169081111561193e5761193e6146c7565b600581111561194f5761194f6146c7565b905250905061195d8461160c565b816101a001906005811115611974576119746146c7565b90816005811115611987576119876146c7565b9052509392505050565b6000818152600260205260408120546001600160a01b0316806105ff5760405162461bcd60e51b815260206004820152602960248201527f4552433732313a206f776e657220717565727920666f72206e6f6e657869737460448201526832b73a103a37b5b2b760b91b6064820152608401610654565b600081611a1481612d0a565b6040518060400160405280600381526020016203430360ec1b81525090611a4e5760405162461bcd60e51b81526004016106549190614495565b50611a5883610ec7565b6000848152600c6020526040902060040154611a749190614dda565b9392505050565b60006001600160a01b038216611ae65760405162461bcd60e51b815260206004820152602a60248201527f4552433732313a2062616c616e636520717565727920666f7220746865207a65604482015269726f206164647265737360b01b6064820152608401610654565b506001600160a01b031660009081526003602052604090205490565b6000611b0c614275565b6011546001600160a01b0316336001600160a01b0316146040518060400160405280600381526020016232303560e81b81525090611b5d5760405162461bcd60e51b81526004016106549190614495565b50604051639dce429960e01b8152600481018a90526001600160a01b0388811660248301526000917f000000000000000000000000000000000000000000000000000000000000000090911690639dce429990604401600060405180830381865afa158015611bd0573d6000803e3d6000fd5b505050506040513d6000823e601f3d908101601f19168201604052611bf89190810190614e37565b6040805160a0810182526000602082018190529181018290526060810182905260808101919091524264ffffffffff8116825291925090611c3a908790614dda565b64ffffffffff16602082015260e0820151611c558742614dda565b611c5f9190614dda565b64ffffffffff16604082015260c0820151611c7a8742614dda565b611c849190614d55565b64ffffffffff16606082015260405162c2de0960e41b8152600481018690526024810188905273703EeF551575F5A57b49CEfBb958Fc9614206F3390630c2de09090604401602060405180830381865af4158015611ce6573d6000803e3d6000fd5b505050506040513d601f19601f82011682018060405250810190611d0a9190614f0e565b816080018181525050604051806101c001604052808c81526020018a6001600160a01b031681526020018981526020018b6001600160a01b03168152602001888152602001866001600160801b0316815260200182608001516001600160801b03168152602001826000015164ffffffffff1681526020018764ffffffffff168152602001826020015164ffffffffff168152602001826040015164ffffffffff168152602001826060015164ffffffffff168152602001600064ffffffffff16815260200160016005811115611de357611de36146c7565b90529250611df1838b6134d4565b6020840151601154604080870151905163095ea7b360e01b81526001600160a01b0392831660048201526024810191909152929650169063095ea7b390604401600060405180830381600087803b158015611e4b57600080fd5b505af1158015611e5f573d6000803e3d6000fd5b505050506001600160a01b038981166000908152600d602090815260408083208c845290915280822087905551918c169186917ff3cea5493d790af0133817606f7350a91d7f154ea52eaa79d179d4d231e5010291a3505097509795505050505050565b600a546001600160a01b03163314611f1d5760405162461bcd60e51b815260206004820181905260248201527f4f776e61626c653a2063616c6c6572206973206e6f7420746865206f776e65726044820152606401610654565b611f2760006136eb565b565b606060018054610c9590614d20565b600081611f4481612d0a565b6040518060400160405280600381526020016203430360ec1b81525090611f7e5760405162461bcd60e51b81526004016106549190614495565b506000611f8a8461160c565b6000858152600c6020908152604080832081516101c0810183528154815260018201546001600160a01b039081169482019490945260028201549281019290925260038101549092166060820152600482015460808201526005808301546001600160801b0380821660a0850152600160801b9091041660c0830152600683015464ffffffffff80821660e0850152600160281b82048116610100850152600160501b82048116610120850152600160781b82048116610140850152600160a01b82048116610160850152600160c81b820416610180840152949550929390926101a0840191600160f01b900460ff169081111561208a5761208a6146c7565b600581111561209b5761209b6146c7565b9052509050600060018360058111156120b6576120b66146c7565b14156121535761214c7f00000000000000000000000000000000000000000000000000000000000000006001600160a01b031663ce87179f6040518163ffffffff1660e01b8152600401602060405180830381865afa15801561211d573d6000803e3d6000fd5b505050506040513d601f19601f820116820180604052508101906121419190614f0e565b60808401519061373d565b905061107b565b6003836005811115612167576121676146c7565b141561107b576121ce7f00000000000000000000000000000000000000000000000000000000000000006001600160a01b031663d7a5a9d36040518163ffffffff1660e01b8152600401602060405180830381865afa15801561211d573d6000803e3d6000fd5b9695505050505050565b6011546001600160a01b0316336001600160a01b0316146040518060400160405280600381526020016232303560e81b815250906122295760405162461bcd60e51b81526004016106549190614495565b508061223481612d0a565b6040518060400160405280600381526020016203430360ec1b8152509061226e5760405162461bcd60e51b81526004016106549190614495565b5061227a8260056137c7565b6000828152600c60205260408120600601805464ffffffffff60c81b1916600160c81b4264ffffffffff16021790556122b283611991565b90506122bd81613315565b6000838152600c60209081526040808320600401546001600160a01b0385168452600f909252909120546122f19190614d55565b6001600160a01b0382166000908152600f6020908152604080832093909355858252600c90522060040154600e546123299190614d55565b600e55604051339084907f59173af14430de8eac2adf90a01b6fa0f9309c0a43c38c2d0757fecd34be291590600090a3505050565b6001600160a01b0382163314156123b75760405162461bcd60e51b815260206004820152601960248201527f4552433732313a20617070726f766520746f2063616c6c6572000000000000006044820152606401610654565b3360008181526005602090815260408083206001600160a01b03871680855290835292819020805460ff191686151590811790915590519081529192917f17307eab39ab6107e8899845ad3d59bd9653f200f220920489ca2b5937696c31910160405180910390a35050565b61242d3383612e51565b6124495760405162461bcd60e51b815260040161065490614d6c565b61245584848484613911565b50505050565b606060006001600160a01b03167f00000000000000000000000000000000000000000000000000000000000000006001600160a01b03166397dfa0d16040518163ffffffff1660e01b8152600401602060405180830381865afa1580156124c6573d6000803e3d6000fd5b505050506040513d601f19601f820116820180604052508101906124ea9190614dbd565b6001600160a01b0316146125ec577f00000000000000000000000000000000000000000000000000000000000000006001600160a01b03166397dfa0d16040518163ffffffff1660e01b8152600401602060405180830381865afa158015612556573d6000803e3d6000fd5b505050506040513d601f19601f8201168201806040525081019061257a9190614dbd565b6001600160a01b031663c87b56dd836040518263ffffffff1660e01b81526004016125a791815260200190565b600060405180830381865afa1580156125c4573d6000803e3d6000fd5b505050506040513d6000823e601f3d908101601f191682016040526105ff9190810190614f27565b505060408051602081019091526000815290565b919050565b60007f00000000000000000000000000000000000000000000000000000000000000006001600160a01b0316639a9dbb996040518163ffffffff1660e01b8152600401602060405180830381865afa158015612665573d6000803e3d6000fd5b505050506040513d601f19601f820116820180604052508101906126899190614dbd565b90506001600160a01b038116639078c85a336040516001600160e01b031960e084901b1681526001600160a01b039091166004820152602401602060405180830381865afa1580156126df573d6000803e3d6000fd5b505050506040513d601f19601f820116820180604052508101906127039190614d03565b604051806040016040528060038152602001620c8c0d60ea1b8152509061273d5760405162461bcd60e51b81526004016106549190614495565b5060005b8281101561286d576001600160a01b0386166000908152600d602052604081209085858481811061277457612774614bcf565b905060200201358152602001908152602001600020546000146040518060400160405280600381526020016234303560e81b815250906127c75760405162461bcd60e51b81526004016106549190614495565b50856001600160a01b03166342842e0e30878787868181106127eb576127eb614bcf565b6040516001600160e01b031960e088901b1681526001600160a01b03958616600482015294909316602485015250602090910201356044820152606401600060405180830381600087803b15801561284257600080fd5b505af1158015612856573d6000803e3d6000fd5b50505050808061286590614bfb565b915050612741565b50836001600160a01b0316856001600160a01b03167f6c6b18e67b757c02ba92ef0f54038fc2135767acf9bef174b8780835ff45582285856040516128b3929190614f91565b60405180910390a35050505050565b60007f00000000000000000000000000000000000000000000000000000000000000006001600160a01b0316639a9dbb996040518163ffffffff1660e01b8152600401602060405180830381865afa158015612922573d6000803e3d6000fd5b505050506040513d601f19601f820116820180604052508101906129469190614dbd565b90506001600160a01b038116639078c85a336040516001600160e01b031960e084901b1681526001600160a01b039091166004820152602401602060405180830381865afa15801561299c573d6000803e3d6000fd5b505050506040513d601f19601f820116820180604052508101906129c09190614d03565b604051806040016040528060038152602001620c8c0d60ea1b815250906129fa5760405162461bcd60e51b81526004016106549190614495565b50604051631759616b60e11b81526001600160a01b038a1690632eb2c2d690612a359030908c908c908c908c908c908c908c90600401614fa5565b600060405180830381600087803b158015612a4f57600080fd5b505af1158015612a63573d6000803e3d6000fd5b50505050876001600160a01b0316896001600160a01b03167fc8144f7a11a69e58de79275b3e7420b4942b4e8318a0e0aa9ccb457c60387b02898989898989604051612ab496959493929190614ffa565b60405180910390a3505050505050505050565b6011546001600160a01b0316336001600160a01b0316146040518060400160405280600381526020016232303560e81b81525090612b185760405162461bcd60e51b81526004016106549190614495565b5080612b2381612d0a565b6040518060400160405280600381526020016203430360ec1b81525090612b5d5760405162461bcd60e51b81526004016106549190614495565b50612b678261342d565b6000828152600c602081815260408084206001810180546001600160a01b03168652600d845282862060028301805488529085528387208790558887529490935284815582546001600160a01b0319908116909355928490556003830180549092169091556004820183905560058201839055600690910180546001600160f81b031916905551339184917ffd2b5951436d1ea366069166d930e14be3feb38021ab9cb0269ba75b3db9af8c9190a35050565b600a546001600160a01b03163314612c745760405162461bcd60e51b815260206004820181905260248201527f4f776e61626c653a2063616c6c6572206973206e6f7420746865206f776e65726044820152606401610654565b6001600160a01b038116612cd95760405162461bcd60e51b815260206004820152602660248201527f4f776e61626c653a206e6577206f776e657220697320746865207a65726f206160448201526564647265737360d01b6064820152608401610654565b612ce2816136eb565b50565b60006001600160e01b03198216630271189760e51b14806105ff57506105ff82613944565b6000908152600260205260409020546001600160a01b0316151590565b600081815260046020526040902080546001600160a01b0319166001600160a01b0384169081179091558190612d5c82611991565b6001600160a01b03167f8c5be1e5ebec7d5bd14f71427d1e84f3dd0314c0f7b2291e5b200ac8c7c3b92560405160405180910390a45050565b6000821580612da2575081155b15612daf575060006105ff565b81612dc760026b033b2e3c9fd0803ce8000000615043565b612dd390600019614d55565b612ddd9190615043565b8311156040518060400160405280600381526020016203130360ec1b81525090612e1a5760405162461bcd60e51b81526004016106549190614495565b506b033b2e3c9fd0803ce8000000612e33600282615043565b612e3d8486615065565b612e479190614dda565b611a749190615043565b6000612e5c82612d0a565b612ebd5760405162461bcd60e51b815260206004820152602c60248201527f4552433732313a206f70657261746f7220717565727920666f72206e6f6e657860448201526b34b9ba32b73a103a37b5b2b760a11b6064820152608401610654565b6000612ec883611991565b9050806001600160a01b0316846001600160a01b03161480612f035750836001600160a01b0316612ef884610d18565b6001600160a01b0316145b80610ebf57506001600160a01b0380821660009081526005602090815260408083209388168352929052205460ff16610ebf565b612f42838383613969565b6000612f4d8261160c565b90506001816005811115612f6357612f636146c7565b1480612f8057506002816005811115612f7e57612f7e6146c7565b145b156124555760007f00000000000000000000000000000000000000000000000000000000000000006001600160a01b0316636d6a723c6040518163ffffffff1660e01b8152600401602060405180830381865afa158015612fe5573d6000803e3d6000fd5b505050506040513d601f19601f820116820180604052508101906130099190614dbd565b6000848152600c6020908152604080832081516101c0810183528154815260018201546001600160a01b039081169482019490945260028201549281019290925260038101549092166060820152600482015460808201526005808301546001600160801b0380821660a0850152600160801b9091041660c0830152600683015464ffffffffff80821660e0850152600160281b82048116610100850152600160501b82048116610120850152600160781b82048116610140850152600160a01b82048116610160850152600160c81b820416610180840152949550929390926101a0840191600160f01b900460ff1690811115613109576131096146c7565b600581111561311a5761311a6146c7565b90525090506001600160a01b03821615613243576001600160a01b038681166000818152600f60205260409081902054600e5491516318c39f1760e11b815260048101939093526024830152604482015283918216906331873e2e90606401600060405180830381600087803b15801561319357600080fd5b505af11580156131a7573d6000803e3d6000fd5b50505050856001600160a01b0316876001600160a01b031614613241576001600160a01b038681166000818152600f60205260409081902054600e5491516318c39f1760e11b8152600481019390935260248301526044820152908216906331873e2e90606401600060405180830381600087803b15801561322857600080fd5b505af115801561323c573d6000803e3d6000fd5b505050505b505b60808101516001600160a01b0387166000908152600f602052604090205461326b9190614d55565b6001600160a01b038088166000908152600f6020526040808220939093556080840151918816815291909120546132a29190614dda565b6001600160a01b0386166000908152600f6020526040902055505050505050565b604080516001600160a01b038416602482015260448082018490528251808303909101815260649091019091526020810180516001600160e01b031663a9059cbb60e01b179052610eb1908490613b14565b60007f00000000000000000000000000000000000000000000000000000000000000006001600160a01b0316636d6a723c6040518163ffffffff1660e01b8152600401602060405180830381865afa158015613375573d6000803e3d6000fd5b505050506040513d601f19601f820116820180604052508101906133999190614dbd565b90506001600160a01b03811615613429576001600160a01b038281166000818152600f60205260409081902054600e5491516318c39f1760e11b815260048101939093526024830152604482015282918216906331873e2e90606401600060405180830381600087803b15801561340f57600080fd5b505af1158015613423573d6000803e3d6000fd5b50505050505b5050565b600061343882611991565b905061344681600084613be6565b613451600083612d27565b6001600160a01b038116600090815260036020526040812080546001929061347a908490614d55565b909155505060008281526002602052604080822080546001600160a01b0319169055518391906001600160a01b038416907fddf252ad1be2c89b69c2b068fc378daa952ba7f163c4a11628f55a4df523b3ef908390a45050565b60006134e4601080546001019055565b506010546134f28282613c9e565b6000818152600c602090815260409182902085518155908501516001820180546001600160a01b039283166001600160a01b0319918216179091559286015160028301556060860151600383018054919092169316929092179091556080840151600482015560a084015160c08501516001600160801b03908116600160801b0291161760058083019190915560e08501516006830180546101008801516101208901516101408a01516101608b01516101808c015164ffffffffff908116600160c81b0264ffffffffff60c81b19928216600160a01b029290921669ffffffffffffffffffff60a01b19938216600160781b0264ffffffffff60781b19958316600160501b029590951669ffffffffffffffffffff60501b19968316600160281b0269ffffffffffffffffffff199098169290991691909117959095179390931695909517179390931617919091178082556101a087015187949390929160ff60f01b191690600160f01b908490811115613670576136706146c7565b02179055509050506136858360600151613315565b8260800151600e546136979190614dda565b600e55608083015160608401516001600160a01b03166000908152600f60205260409020546136c69190614dda565b6060909301516001600160a01b03166000908152600f60205260409020929092555090565b600a80546001600160a01b038381166001600160a01b0319831681179093556040519116919082907f8be0079c531659141344cd1fd0a4f28419497f9722a3daafe3b4186f6b6457e090600090a35050565b600082158061374a575081155b15613757575060006105ff565b816137656002612710615043565b61377190600019614d55565b61377b9190615043565b8311156040518060400160405280600381526020016203130360ec1b815250906137b85760405162461bcd60e51b81526004016106549190614495565b50612710612e33600282615043565b6000828152600c6020526040902060056006820154600160f01b900460ff1660058111156137f7576137f76146c7565b14156040518060400160405280600381526020016234303360e81b815250906138335760405162461bcd60e51b81526004016106549190614495565b50816005811115613846576138466146c7565b6006820154600160f01b900460ff166005811115613866576138666146c7565b14156040518060400160405280600381526020016234303160e81b815250906138a25760405162461bcd60e51b81526004016106549190614495565b5060068101805483919060ff60f01b1916600160f01b8360058111156138ca576138ca6146c7565b02179055508160058111156138e1576138e16146c7565b60405184907f1ec5c05690dbdf3fe6eeaa13c3026d2706bba8ff773391bf70f15b407fb1658890600090a3505050565b61391c848484612f37565b61392884848484613cb8565b6124555760405162461bcd60e51b815260040161065490615084565b60006001600160e01b0319821663780e9d6360e01b14806105ff57506105ff82613db3565b826001600160a01b031661397c82611991565b6001600160a01b0316146139e45760405162461bcd60e51b815260206004820152602960248201527f4552433732313a207472616e73666572206f6620746f6b656e2074686174206960448201526839903737ba1037bbb760b91b6064820152608401610654565b6001600160a01b038216613a465760405162461bcd60e51b8152602060048201526024808201527f4552433732313a207472616e7366657220746f20746865207a65726f206164646044820152637265737360e01b6064820152608401610654565b613a51838383613be6565b613a5c600082612d27565b6001600160a01b0383166000908152600360205260408120805460019290613a85908490614d55565b90915550506001600160a01b0382166000908152600360205260408120805460019290613ab3908490614dda565b909155505060008181526002602052604080822080546001600160a01b0319166001600160a01b0386811691821790925591518493918716917fddf252ad1be2c89b69c2b068fc378daa952ba7f163c4a11628f55a4df523b3ef91a4505050565b6000613b69826040518060400160405280602081526020017f5361666545524332303a206c6f772d6c6576656c2063616c6c206661696c6564815250856001600160a01b0316613e039092919063ffffffff16565b805190915015610eb15780806020019051810190613b879190614d03565b610eb15760405162461bcd60e51b815260206004820152602a60248201527f5361666545524332303a204552433230206f7065726174696f6e20646964206e6044820152691bdd081cdd58d8d9595960b21b6064820152608401610654565b6001600160a01b038316613c4157613c3c81600880546000838152600960205260408120829055600182018355919091527ff3f7a9fe364faab93b216da50a3214154f22a0a2b415b23a84c8169e8b636ee30155565b613c64565b816001600160a01b0316836001600160a01b031614613c6457613c648382613e12565b6001600160a01b038216613c7b57610eb181613eaf565b826001600160a01b0316826001600160a01b031614610eb157610eb18282613f5e565b613429828260405180602001604052806000815250613fa2565b60006001600160a01b0384163b15613dab57604051630a85bd0160e11b81526001600160a01b0385169063150b7a0290613cfc9033908990889088906004016150d6565b6020604051808303816000875af1925050508015613d37575060408051601f3d908101601f19168201909252613d3491810190615109565b60015b613d91573d808015613d65576040519150601f19603f3d011682016040523d82523d6000602084013e613d6a565b606091505b508051613d895760405162461bcd60e51b815260040161065490615084565b805181602001fd5b6001600160e01b031916630a85bd0160e11b149050610ebf565b506001610ebf565b60006001600160e01b031982166380ac58cd60e01b1480613de457506001600160e01b03198216635b5e139f60e01b145b806105ff57506301ffc9a760e01b6001600160e01b03198316146105ff565b6060610ebf8484600085613fd5565b60006001613e1f84611a7b565b613e299190614d55565b600083815260076020526040902054909150808214613e7c576001600160a01b03841660009081526006602090815260408083208584528252808320548484528184208190558352600790915290208190555b5060009182526007602090815260408084208490556001600160a01b039094168352600681528383209183525290812055565b600854600090613ec190600190614d55565b60008381526009602052604081205460088054939450909284908110613ee957613ee9614bcf565b906000526020600020015490508060088381548110613f0a57613f0a614bcf565b6000918252602080832090910192909255828152600990915260408082208490558582528120556008805480613f4257613f42615126565b6001900381819060005260206000200160009055905550505050565b6000613f6983611a7b565b6001600160a01b039093166000908152600660209081526040808320868452825280832085905593825260079052919091209190915550565b613fac83836140fd565b613fb96000848484613cb8565b610eb15760405162461bcd60e51b815260040161065490615084565b6060824710156140365760405162461bcd60e51b815260206004820152602660248201527f416464726573733a20696e73756666696369656e742062616c616e636520666f6044820152651c8818d85b1b60d21b6064820152608401610654565b843b6140845760405162461bcd60e51b815260206004820152601d60248201527f416464726573733a2063616c6c20746f206e6f6e2d636f6e74726163740000006044820152606401610654565b600080866001600160a01b031685876040516140a0919061513c565b60006040518083038185875af1925050503d80600081146140dd576040519150601f19603f3d011682016040523d82523d6000602084013e6140e2565b606091505b50915091506140f282828661423c565b979650505050505050565b6001600160a01b0382166141535760405162461bcd60e51b815260206004820181905260248201527f4552433732313a206d696e7420746f20746865207a65726f20616464726573736044820152606401610654565b61415c81612d0a565b156141a95760405162461bcd60e51b815260206004820152601c60248201527f4552433732313a20746f6b656e20616c7265616479206d696e746564000000006044820152606401610654565b6141b560008383613be6565b6001600160a01b03821660009081526003602052604081208054600192906141de908490614dda565b909155505060008181526002602052604080822080546001600160a01b0319166001600160a01b03861690811790915590518392907fddf252ad1be2c89b69c2b068fc378daa952ba7f163c4a11628f55a4df523b3ef908290a45050565b6060831561424b575081611a74565b82511561425b5782518084602001fd5b8160405162461bcd60e51b81526004016106549190614495565b604080516101c081018252600080825260208201819052918101829052606081018290526080810182905260a0810182905260c0810182905260e0810182905261010081018290526101208101829052610140810182905261016081018290526101808101829052906101a082015290565b6001600160e01b031981168114612ce257600080fd5b60006020828403121561430f57600080fd5b8135611a74816142e7565b6001600160a01b0381168114612ce257600080fd5b60008083601f84011261434157600080fd5b5081356001600160401b0381111561435857600080fd5b6020830191508360208260051b850101111561437357600080fd5b9250929050565b60008083601f84011261438c57600080fd5b5081356001600160401b038111156143a357600080fd5b60208301915083602082850101111561437357600080fd5b6000806000806000606086880312156143d357600080fd5b85356143de8161431a565b945060208601356001600160401b03808211156143fa57600080fd5b61440689838a0161432f565b9096509450604088013591508082111561441f57600080fd5b5061442c8882890161437a565b969995985093965092949392505050565b60005b83811015614458578181015183820152602001614440565b838111156124555750506000910152565b6000815180845261448181602086016020860161443d565b601f01601f19169290920160200192915050565b602081526000611a746020830184614469565b6000602082840312156144ba57600080fd5b5035919050565b600080604083850312156144d457600080fd5b82356144df8161431a565b946020939093013593505050565b634e487b7160e01b600052604160045260246000fd5b60405161010081016001600160401b0381118282101715614526576145266144ed565b60405290565b604051601f8201601f191681016001600160401b0381118282101715614554576145546144ed565b604052919050565b60006001600160401b03821115614575576145756144ed565b50601f01601f191660200190565b600082601f83011261459457600080fd5b81356145a76145a28261455c565b61452c565b8181528460208386010111156145bc57600080fd5b816020850160208301376000918101602001919091529392505050565b600080600080608085870312156145ef57600080fd5b84356145fa8161431a565b9350602085013561460a8161431a565b92506040850135915060608501356001600160401b0381111561462c57600080fd5b61463887828801614583565b91505092959194509250565b60008060006060848603121561465957600080fd5b83356146648161431a565b925060208401356146748161431a565b929592945050506040919091013590565b60008060006060848603121561469a57600080fd5b8335925060208401356146ac8161431a565b915060408401356146bc8161431a565b809150509250925092565b634e487b7160e01b600052602160045260246000fd5b600681106146fb57634e487b7160e01b600052602160045260246000fd5b9052565b602081016105ff82846146dd565b80518252602081015161472b60208401826001600160a01b03169052565b5060408101516040830152606081015161475060608401826001600160a01b03169052565b506080810151608083015260a081015161477560a08401826001600160801b03169052565b5060c081015161479060c08401826001600160801b03169052565b5060e08101516147a960e084018264ffffffffff169052565b506101008181015164ffffffffff9081169184019190915261012080830151821690840152610140808301518216908401526101608083015182169084015261018080830151909116908301526101a080820151612455828501826146dd565b6101c081016105ff828461470d565b60006020828403121561482a57600080fd5b8135611a748161431a565b600080600080600080600060e0888a03121561485057600080fd5b8735965060208801356148628161431a565b955060408801356148728161431a565b969995985095966060810135965060808101359560a0820135955060c0909101359350915050565b8281526101e08101611a74602083018461470d565b8015158114612ce257600080fd5b600080604083850312156148d057600080fd5b82356148db8161431a565b915060208301356148eb816148af565b809150509250929050565b600082601f83011261490757600080fd5b813560206001600160401b03821115614922576149226144ed565b8160051b61493182820161452c565b928352848101820192828101908785111561494b57600080fd5b83870192505b848310156140f257823582529183019190830190614951565b600080600080600060a0868803121561498257600080fd5b853561498d8161431a565b9450602086013561499d8161431a565b935060408601356001600160401b03808211156149b957600080fd5b6149c589838a016148f6565b945060608801359150808211156149db57600080fd5b6149e789838a016148f6565b935060808801359150808211156149fd57600080fd5b50614a0a88828901614583565b9150509295509295909350565b60008060008060608587031215614a2d57600080fd5b8435614a388161431a565b93506020850135614a488161431a565b925060408501356001600160401b03811115614a6357600080fd5b614a6f8782880161432f565b95989497509550505050565b60008060008060008060008060a0898b031215614a9757600080fd5b8835614aa28161431a565b97506020890135614ab28161431a565b965060408901356001600160401b0380821115614ace57600080fd5b614ada8c838d0161432f565b909850965060608b0135915080821115614af357600080fd5b614aff8c838d0161432f565b909650945060808b0135915080821115614b1857600080fd5b50614b258b828c0161437a565b999c989b5096995094979396929594505050565b60008060408385031215614b4c57600080fd5b8235614b578161431a565b915060208301356148eb8161431a565b600080600080600060a08688031215614b7f57600080fd5b8535614b8a8161431a565b94506020860135614b9a8161431a565b9350604086013592506060860135915060808601356001600160401b03811115614bc357600080fd5b614a0a88828901614583565b634e487b7160e01b600052603260045260246000fd5b634e487b7160e01b600052601160045260246000fd5b6000600019821415614c0f57614c0f614be5565b5060010190565b81835281816020850137506000828201602090810191909152601f909101601f19169091010190565b60a0808252875190820181905260009060209060c0840190828b01845b82811015614c815781516001600160a01b031684529284019290840190600101614c5c565b5050508381038285015288518082528983019183019060005b81811015614cb657835183529284019291840191600101614c9a565b50506001600160a01b03891660408601526001600160a01b03881660608601528481036080860152614ce9818789614c16565b9b9a5050505050505050505050565b8051612600816148af565b600060208284031215614d1557600080fd5b8151611a74816148af565b600181811c90821680614d3457607f821691505b6020821081141561108057634e487b7160e01b600052602260045260246000fd5b600082821015614d6757614d67614be5565b500390565b60208082526031908201527f4552433732313a207472616e736665722063616c6c6572206973206e6f74206f6040820152701ddb995c881b9bdc88185c1c1c9bdd9959607a1b606082015260800190565b600060208284031215614dcf57600080fd5b8151611a748161431a565b60008219821115614ded57614ded614be5565b500190565b600082601f830112614e0357600080fd5b8151614e116145a28261455c565b818152846020838601011115614e2657600080fd5b610ebf82602083016020870161443d565b600060208284031215614e4957600080fd5b81516001600160401b0380821115614e6057600080fd5b908301906101008286031215614e7557600080fd5b614e7d614503565b614e8683614cf8565b8152602083015182811115614e9a57600080fd5b614ea687828601614df2565b602083015250604083015182811115614ebe57600080fd5b614eca87828601614df2565b604083015250606083015160608201526080830151608082015260a083015160a082015260c083015160c082015260e083015160e082015280935050505092915050565b600060208284031215614f2057600080fd5b5051919050565b600060208284031215614f3957600080fd5b81516001600160401b03811115614f4f57600080fd5b610ebf84828501614df2565b81835260006001600160fb1b03831115614f7457600080fd5b8260051b8083602087013760009401602001938452509192915050565b602081526000610ebf602083018486614f5b565b6001600160a01b0389811682528816602082015260a060408201819052600090614fd2908301888a614f5b565b8281036060840152614fe5818789614f5b565b90508281036080840152614ce9818587614c16565b60608152600061500e60608301888a614f5b565b8281036020840152615021818789614f5b565b90508281036040840152615036818587614c16565b9998505050505050505050565b60008261506057634e487b7160e01b600052601260045260246000fd5b500490565b600081600019048311821515161561507f5761507f614be5565b500290565b60208082526032908201527f4552433732313a207472616e7366657220746f206e6f6e20455243373231526560408201527131b2b4bb32b91034b6b83632b6b2b73a32b960711b606082015260800190565b6001600160a01b03858116825284166020820152604081018390526080606082018190526000906121ce90830184614469565b60006020828403121561511b57600080fd5b8151611a74816142e7565b634e487b7160e01b600052603160045260246000fd5b6000825161514e81846020870161443d565b919091019291505056fea26469706673582212209cdb3c92cf5ad9ff5091cb4b63dcacc60dfe5e6b348384736c4fc6f70c7f070664736f6c634300080a0033",
  "deployedBytecode": "0x608060405234801561001057600080fd5b506004361061023d5760003560e01c80636b52b3651161013b578063ade97ab5116100b8578063e3185e121161007c578063e3185e1214610560578063e985e9c514610573578063ed213bbf146105af578063f23a6e61146105c2578063f2fde38b146105e157600080fd5b8063ade97ab5146104e1578063b88d4fde14610508578063bc197c811461051b578063c87b56dd1461053a578063cae595531461054d57600080fd5b80638da5cb5b116100ff5780638da5cb5b1461048f57806395d89b41146104a057806396e59682146104a8578063980a8bd9146104bb578063a22cb465146104ce57600080fd5b80636b52b3651461042057806370a082311461043357806370b4ebeb14610446578063715018a61461046757806377593cc41461046f57600080fd5b806323b872dd116101c95780634f6ccce71161018d5780634f6ccce7146103a757806356308612146103ba5780635c622a0e146103cd578063622fe39f146103ed5780636352211e1461040d57600080fd5b806323b872dd146103525780632f745c591461036557806342842e0e1461037857806347bd37181461038b5780634f0709161461039457600080fd5b8063095ea7b311610210578063095ea7b3146102bf57806311615d30146102d2578063150b7a021461030b57806318160ddd146103375780631c1874951461033f57600080fd5b806301ffc9a71461024257806303282d6e1461026a57806306fdde031461027f578063081812fc14610294575b600080fd5b6102556102503660046142fd565b6105f4565b60405190151581526020015b60405180910390f35b61027d6102783660046143bb565b610605565b005b610287610c86565b6040516102619190614495565b6102a76102a23660046144a8565b610d18565b6040516001600160a01b039091168152602001610261565b61027d6102cd3660046144c1565b610da0565b6102fd6102e03660046144c1565b600d60209081526000928352604080842090915290825290205481565b604051908152602001610261565b61031e6103193660046145d9565b610eb6565b6040516001600160e01b03199091168152602001610261565b6008546102fd565b6102fd61034d3660046144a8565b610ec7565b61027d610360366004614644565b611086565b6102fd6103733660046144c1565b6110b7565b61027d610386366004614644565b61114d565b6102fd600e5481565b61027d6103a2366004614644565b611168565b6102fd6103b53660046144a8565b611308565b61027d6103c8366004614685565b61139b565b6103e06103db3660046144a8565b61160c565b60405161026191906146ff565b6104006103fb3660046144a8565b6117f4565b6040516102619190614809565b6102a761041b3660046144a8565b611991565b6102fd61042e3660046144a8565b611a08565b6102fd610441366004614818565b611a7b565b610459610454366004614835565b611b02565b60405161026192919061489a565b61027d611ec3565b6102fd61047d366004614818565b600f6020526000908152604090205481565b600a546001600160a01b03166102a7565b610287611f29565b6102fd6104b63660046144a8565b611f38565b61027d6104c93660046144a8565b6121d8565b61027d6104dc3660046148bd565b61235e565b6102a77f000000000000000000000000000000000000000000000000000000000000000081565b61027d6105163660046145d9565b612423565b61031e61052936600461496a565b63bc197c8160e01b95945050505050565b6102876105483660046144a8565b61245b565b61027d61055b366004614a17565b612605565b61027d61056e366004614a7b565b6128c2565b610255610581366004614b39565b6001600160a01b03918216600090815260056020908152604080832093909416825291909152205460ff1690565b61027d6105bd3660046144a8565b612ac7565b61031e6105d0366004614b67565b63f23a6e6160e01b95945050505050565b61027d6105ef366004614818565b612c1a565b60006105ff82612ce5565b92915050565b6002600b54141561065d5760405162461bcd60e51b815260206004820152601f60248201527f5265656e7472616e637947756172643a207265656e7472616e742063616c6c0060448201526064015b60405180910390fd5b6002600b5560008581856001600160401b0381111561067e5761067e6144ed565b6040519080825280602002602001820160405280156106a7578160200160208202803683370190505b5090506000866001600160401b038111156106c4576106c46144ed565b6040519080825280602002602001820160405280156106ed578160200160208202803683370190505b509050600093505b8684101561099e573361071f89898781811061071357610713614bcf565b90506020020135611991565b6001600160a01b031614604051806040016040528060038152602001620d0c0d60ea1b815250906107635760405162461bcd60e51b81526004016106549190614495565b50600061078789898781811061077b5761077b614bcf565b9050602002013561160c565b9050600481600581111561079d5761079d6146c7565b141580156107bd575060058160058111156107ba576107ba6146c7565b14155b6040518060400160405280600381526020016234313160e81b815250906107f75760405162461bcd60e51b81526004016106549190614495565b506000600c60008b8b8981811061081057610810614bcf565b6020908102929092013583525081810192909252604090810160002081516101c0810183528154815260018201546001600160a01b039081169482019490945260028201549281019290925260038101549092166060820152600482015460808201526005808301546001600160801b0380821660a0850152600160801b9091041660c0830152600683015464ffffffffff80821660e0850152600160281b82048116610100850152600160501b82048116610120850152600160781b82048116610140850152600160a01b82048116610160850152600160c81b8204166101808401529192916101a0840191600160f01b90910460ff1690811115610918576109186146c7565b6005811115610929576109296146c7565b815250509050806020015184878151811061094657610946614bcf565b60200260200101906001600160a01b031690816001600160a01b031681525050806040015183878151811061097d5761097d614bcf565b6020026020010181815250505050838061099690614bfb565b9450506106f5565b600093505b86841015610a6c578184815181106109bd576109bd614bcf565b60200260200101516001600160a01b03166342842e0e308b8488815181106109e7576109e7614bcf565b60209081029190910101516040516001600160e01b031960e086901b1681526001600160a01b0393841660048201529290911660248301526044820152606401600060405180830381600087803b158015610a4157600080fd5b505af1158015610a55573d6000803e3d6000fd5b505050508380610a6490614bfb565b9450506109a3565b604051628e896f60e41b81526001600160a01b038416906308e896f090610aa19085908590339030908d908d90600401614c3f565b6020604051808303816000875af1158015610ac0573d6000803e3d6000fd5b505050506040513d601f19601f82011682018060405250810190610ae49190614d03565b6040518060400160405280600381526020016203431360ec1b81525090610b1e5760405162461bcd60e51b81526004016106549190614495565b50600093505b86841015610c7657818481518110610b3e57610b3e614bcf565b60200260200101516001600160a01b03166342842e0e8a30848881518110610b6857610b68614bcf565b60209081029190910101516040516001600160e01b031960e086901b1681526001600160a01b0393841660048201529290911660248301526044820152606401600060405180830381600087803b158015610bc257600080fd5b505af1158015610bd6573d6000803e3d6000fd5b50505050808481518110610bec57610bec614bcf565b6020026020010151828581518110610c0657610c06614bcf565b60200260200101516001600160a01b03168a6001600160a01b03167f6bac1c66016500cd7b62d69e86268760baac6cd34a70003af66ffa8a97983216610c493390565b6040516001600160a01b03909116815260200160405180910390a483610c6e81614bfb565b945050610b24565b50506001600b5550505050505050565b606060008054610c9590614d20565b80601f0160208091040260200160405190810160405280929190818152602001828054610cc190614d20565b8015610d0e5780601f10610ce357610100808354040283529160200191610d0e565b820191906000526020600020905b815481529060010190602001808311610cf157829003601f168201915b5050505050905090565b6000610d2382612d0a565b610d845760405162461bcd60e51b815260206004820152602c60248201527f4552433732313a20617070726f76656420717565727920666f72206e6f6e657860448201526b34b9ba32b73a103a37b5b2b760a11b6064820152608401610654565b506000908152600460205260409020546001600160a01b031690565b6000610dab82611991565b9050806001600160a01b0316836001600160a01b03161415610e195760405162461bcd60e51b815260206004820152602160248201527f4552433732313a20617070726f76616c20746f2063757272656e74206f776e656044820152603960f91b6064820152608401610654565b336001600160a01b0382161480610e355750610e358133610581565b610ea75760405162461bcd60e51b815260206004820152603860248201527f4552433732313a20617070726f76652063616c6c6572206973206e6f74206f7760448201527f6e6572206e6f7220617070726f76656420666f7220616c6c00000000000000006064820152608401610654565b610eb18383612d27565b505050565b630a85bd0160e11b5b949350505050565b600081610ed381612d0a565b6040518060400160405280600381526020016203430360ec1b81525090610f0d5760405162461bcd60e51b81526004016106549190614495565b506000838152600c6020908152604080832081516101c0810183528154815260018201546001600160a01b039081169482019490945260028201549281019290925260038101549092166060820152600482015460808201526005808301546001600160801b0380821660a0850152600160801b9091041660c0830152600683015464ffffffffff80821660e0850152600160281b82048116610100850152600160501b82048116610120850152600160781b82048116610140850152600160a01b82048116610160850152600160c81b8204166101808401529192916101a0840191600160f01b90910460ff169081111561100b5761100b6146c7565b600581111561101c5761101c6146c7565b81525050905060008082610180015164ffffffffff161161103d574261104b565b81610180015164ffffffffff165b905061107b8260e0015164ffffffffff16826110679190614d55565b60c08401516001600160801b031690612d95565b935050505b50919050565b6110903382612e51565b6110ac5760405162461bcd60e51b815260040161065490614d6c565b610eb1838383612f37565b60006110c283611a7b565b82106111245760405162461bcd60e51b815260206004820152602b60248201527f455243373231456e756d657261626c653a206f776e657220696e646578206f7560448201526a74206f6620626f756e647360a81b6064820152608401610654565b506001600160a01b03919091166000908152600660209081526040808320938352929052205490565b610eb183838360405180602001604052806000815250612423565b60007f00000000000000000000000000000000000000000000000000000000000000006001600160a01b0316639a9dbb996040518163ffffffff1660e01b8152600401602060405180830381865afa1580156111c8573d6000803e3d6000fd5b505050506040513d601f19601f820116820180604052508101906111ec9190614dbd565b90506001600160a01b038116639078c85a336040516001600160e01b031960e084901b1681526001600160a01b039091166004820152602401602060405180830381865afa158015611242573d6000803e3d6000fd5b505050506040513d601f19601f820116820180604052508101906112669190614d03565b604051806040016040528060038152602001620c8c0d60ea1b815250906112a05760405162461bcd60e51b81526004016106549190614495565b506112b56001600160a01b03851684846132c3565b826001600160a01b0316846001600160a01b03167f81275949a17d84915b61eeb24587a501cc8863011afba1ed12f3f6c5bdfd6a21846040516112fa91815260200190565b60405180910390a350505050565b600061131360085490565b82106113765760405162461bcd60e51b815260206004820152602c60248201527f455243373231456e756d657261626c653a20676c6f62616c20696e646578206f60448201526b7574206f6620626f756e647360a01b6064820152608401610654565b6008828154811061138957611389614bcf565b90600052602060002001549050919050565b6011546001600160a01b0316336001600160a01b0316146040518060400160405280600381526020016232303560e81b815250906113ec5760405162461bcd60e51b81526004016106549190614495565b50826113f781612d0a565b6040518060400160405280600381526020016203430360ec1b815250906114315760405162461bcd60e51b81526004016106549190614495565b50826001600160a01b031661144585611991565b6001600160a01b031614604051806040016040528060038152602001621a181960e91b815250906114895760405162461bcd60e51b81526004016106549190614495565b5060056000858152600c6020526040902060060154600160f01b900460ff1660058111156114b9576114b96146c7565b146115455760006114c985611991565b90506114d481613315565b6000858152600c60209081526040808320600401546001600160a01b0385168452600f909252909120546115089190614d55565b6001600160a01b0382166000908152600f6020908152604080832093909355878252600c90522060040154600e546115409190614d55565b600e55505b61154e8461342d565b6000848152600c602081815260408084206001810180546001600160a01b039081168752600d855283872060028401805489529086528488208890558b88529590945285825580546001600160a01b0319908116909155938590556003810180549094169093556004830184905560058301849055600690920180546001600160f81b03191690559051848216929186169187917f2b23481a24e3c10d00df04743856de486787a766f4dcbf88f1bd1281466a8d089190a450505050565b60008161161881612d0a565b6040518060400160405280600381526020016203430360ec1b815250906116525760405162461bcd60e51b81526004016106549190614495565b506000838152600c6020908152604080832081516101c0810183528154815260018201546001600160a01b039081169482019490945260028201549281019290925260038101549092166060820152600482015460808201526005808301546001600160801b0380821660a0850152600160801b9091041660c0830152600683015464ffffffffff80821660e0850152600160281b82048116610100850152600160501b82048116610120850152600160781b82048116610140850152600160a01b82048116610160850152600160c81b8204166101808401529192916101a0840191600160f01b90910460ff1690811115611750576117506146c7565b6005811115611761576117616146c7565b9052506000858152600c6020526040902060060154909150600160f01b900460ff166001816005811115611797576117976146c7565b1415610ebf574282610140015164ffffffffff1610156117b957506004610ebf565b4282610120015164ffffffffff1610156117d557506003610ebf565b4282610160015164ffffffffff161015610ebf57506002949350505050565b6117fc614275565b8161180681612d0a565b6040518060400160405280600381526020016203430360ec1b815250906118405760405162461bcd60e51b81526004016106549190614495565b506000838152600c6020908152604080832081516101c0810183528154815260018201546001600160a01b039081169482019490945260028201549281019290925260038101549092166060820152600482015460808201526005808301546001600160801b0380821660a0850152600160801b9091041660c0830152600683015464ffffffffff80821660e0850152600160281b82048116610100850152600160501b82048116610120850152600160781b82048116610140850152600160a01b82048116610160850152600160c81b8204166101808401529192916101a0840191600160f01b90910460ff169081111561193e5761193e6146c7565b600581111561194f5761194f6146c7565b905250905061195d8461160c565b816101a001906005811115611974576119746146c7565b90816005811115611987576119876146c7565b9052509392505050565b6000818152600260205260408120546001600160a01b0316806105ff5760405162461bcd60e51b815260206004820152602960248201527f4552433732313a206f776e657220717565727920666f72206e6f6e657869737460448201526832b73a103a37b5b2b760b91b6064820152608401610654565b600081611a1481612d0a565b6040518060400160405280600381526020016203430360ec1b81525090611a4e5760405162461bcd60e51b81526004016106549190614495565b50611a5883610ec7565b6000848152600c6020526040902060040154611a749190614dda565b9392505050565b60006001600160a01b038216611ae65760405162461bcd60e51b815260206004820152602a60248201527f4552433732313a2062616c616e636520717565727920666f7220746865207a65604482015269726f206164647265737360b01b6064820152608401610654565b506001600160a01b031660009081526003602052604090205490565b6000611b0c614275565b6011546001600160a01b0316336001600160a01b0316146040518060400160405280600381526020016232303560e81b81525090611b5d5760405162461bcd60e51b81526004016106549190614495565b50604051639dce429960e01b8152600481018a90526001600160a01b0388811660248301526000917f000000000000000000000000000000000000000000000000000000000000000090911690639dce429990604401600060405180830381865afa158015611bd0573d6000803e3d6000fd5b505050506040513d6000823e601f3d908101601f19168201604052611bf89190810190614e37565b6040805160a0810182526000602082018190529181018290526060810182905260808101919091524264ffffffffff8116825291925090611c3a908790614dda565b64ffffffffff16602082015260e0820151611c558742614dda565b611c5f9190614dda565b64ffffffffff16604082015260c0820151611c7a8742614dda565b611c849190614d55565b64ffffffffff16606082015260405162c2de0960e41b8152600481018690526024810188905273__$f742c272e27921345744ab659e4a493fb5$__90630c2de09090604401602060405180830381865af4158015611ce6573d6000803e3d6000fd5b505050506040513d601f19601f82011682018060405250810190611d0a9190614f0e565b816080018181525050604051806101c001604052808c81526020018a6001600160a01b031681526020018981526020018b6001600160a01b03168152602001888152602001866001600160801b0316815260200182608001516001600160801b03168152602001826000015164ffffffffff1681526020018764ffffffffff168152602001826020015164ffffffffff168152602001826040015164ffffffffff168152602001826060015164ffffffffff168152602001600064ffffffffff16815260200160016005811115611de357611de36146c7565b90529250611df1838b6134d4565b6020840151601154604080870151905163095ea7b360e01b81526001600160a01b0392831660048201526024810191909152929650169063095ea7b390604401600060405180830381600087803b158015611e4b57600080fd5b505af1158015611e5f573d6000803e3d6000fd5b505050506001600160a01b038981166000908152600d602090815260408083208c845290915280822087905551918c169186917ff3cea5493d790af0133817606f7350a91d7f154ea52eaa79d179d4d231e5010291a3505097509795505050505050565b600a546001600160a01b03163314611f1d5760405162461bcd60e51b815260206004820181905260248201527f4f776e61626c653a2063616c6c6572206973206e6f7420746865206f776e65726044820152606401610654565b611f2760006136eb565b565b606060018054610c9590614d20565b600081611f4481612d0a565b6040518060400160405280600381526020016203430360ec1b81525090611f7e5760405162461bcd60e51b81526004016106549190614495565b506000611f8a8461160c565b6000858152600c6020908152604080832081516101c0810183528154815260018201546001600160a01b039081169482019490945260028201549281019290925260038101549092166060820152600482015460808201526005808301546001600160801b0380821660a0850152600160801b9091041660c0830152600683015464ffffffffff80821660e0850152600160281b82048116610100850152600160501b82048116610120850152600160781b82048116610140850152600160a01b82048116610160850152600160c81b820416610180840152949550929390926101a0840191600160f01b900460ff169081111561208a5761208a6146c7565b600581111561209b5761209b6146c7565b9052509050600060018360058111156120b6576120b66146c7565b14156121535761214c7f00000000000000000000000000000000000000000000000000000000000000006001600160a01b031663ce87179f6040518163ffffffff1660e01b8152600401602060405180830381865afa15801561211d573d6000803e3d6000fd5b505050506040513d601f19601f820116820180604052508101906121419190614f0e565b60808401519061373d565b905061107b565b6003836005811115612167576121676146c7565b141561107b576121ce7f00000000000000000000000000000000000000000000000000000000000000006001600160a01b031663d7a5a9d36040518163ffffffff1660e01b8152600401602060405180830381865afa15801561211d573d6000803e3d6000fd5b9695505050505050565b6011546001600160a01b0316336001600160a01b0316146040518060400160405280600381526020016232303560e81b815250906122295760405162461bcd60e51b81526004016106549190614495565b508061223481612d0a565b6040518060400160405280600381526020016203430360ec1b8152509061226e5760405162461bcd60e51b81526004016106549190614495565b5061227a8260056137c7565b6000828152600c60205260408120600601805464ffffffffff60c81b1916600160c81b4264ffffffffff16021790556122b283611991565b90506122bd81613315565b6000838152600c60209081526040808320600401546001600160a01b0385168452600f909252909120546122f19190614d55565b6001600160a01b0382166000908152600f6020908152604080832093909355858252600c90522060040154600e546123299190614d55565b600e55604051339084907f59173af14430de8eac2adf90a01b6fa0f9309c0a43c38c2d0757fecd34be291590600090a3505050565b6001600160a01b0382163314156123b75760405162461bcd60e51b815260206004820152601960248201527f4552433732313a20617070726f766520746f2063616c6c6572000000000000006044820152606401610654565b3360008181526005602090815260408083206001600160a01b03871680855290835292819020805460ff191686151590811790915590519081529192917f17307eab39ab6107e8899845ad3d59bd9653f200f220920489ca2b5937696c31910160405180910390a35050565b61242d3383612e51565b6124495760405162461bcd60e51b815260040161065490614d6c565b61245584848484613911565b50505050565b606060006001600160a01b03167f00000000000000000000000000000000000000000000000000000000000000006001600160a01b03166397dfa0d16040518163ffffffff1660e01b8152600401602060405180830381865afa1580156124c6573d6000803e3d6000fd5b505050506040513d601f19601f820116820180604052508101906124ea9190614dbd565b6001600160a01b0316146125ec577f00000000000000000000000000000000000000000000000000000000000000006001600160a01b03166397dfa0d16040518163ffffffff1660e01b8152600401602060405180830381865afa158015612556573d6000803e3d6000fd5b505050506040513d601f19601f8201168201806040525081019061257a9190614dbd565b6001600160a01b031663c87b56dd836040518263ffffffff1660e01b81526004016125a791815260200190565b600060405180830381865afa1580156125c4573d6000803e3d6000fd5b505050506040513d6000823e601f3d908101601f191682016040526105ff9190810190614f27565b505060408051602081019091526000815290565b919050565b60007f00000000000000000000000000000000000000000000000000000000000000006001600160a01b0316639a9dbb996040518163ffffffff1660e01b8152600401602060405180830381865afa158015612665573d6000803e3d6000fd5b505050506040513d601f19601f820116820180604052508101906126899190614dbd565b90506001600160a01b038116639078c85a336040516001600160e01b031960e084901b1681526001600160a01b039091166004820152602401602060405180830381865afa1580156126df573d6000803e3d6000fd5b505050506040513d601f19601f820116820180604052508101906127039190614d03565b604051806040016040528060038152602001620c8c0d60ea1b8152509061273d5760405162461bcd60e51b81526004016106549190614495565b5060005b8281101561286d576001600160a01b0386166000908152600d602052604081209085858481811061277457612774614bcf565b905060200201358152602001908152602001600020546000146040518060400160405280600381526020016234303560e81b815250906127c75760405162461bcd60e51b81526004016106549190614495565b50856001600160a01b03166342842e0e30878787868181106127eb576127eb614bcf565b6040516001600160e01b031960e088901b1681526001600160a01b03958616600482015294909316602485015250602090910201356044820152606401600060405180830381600087803b15801561284257600080fd5b505af1158015612856573d6000803e3d6000fd5b50505050808061286590614bfb565b915050612741565b50836001600160a01b0316856001600160a01b03167f6c6b18e67b757c02ba92ef0f54038fc2135767acf9bef174b8780835ff45582285856040516128b3929190614f91565b60405180910390a35050505050565b60007f00000000000000000000000000000000000000000000000000000000000000006001600160a01b0316639a9dbb996040518163ffffffff1660e01b8152600401602060405180830381865afa158015612922573d6000803e3d6000fd5b505050506040513d601f19601f820116820180604052508101906129469190614dbd565b90506001600160a01b038116639078c85a336040516001600160e01b031960e084901b1681526001600160a01b039091166004820152602401602060405180830381865afa15801561299c573d6000803e3d6000fd5b505050506040513d601f19601f820116820180604052508101906129c09190614d03565b604051806040016040528060038152602001620c8c0d60ea1b815250906129fa5760405162461bcd60e51b81526004016106549190614495565b50604051631759616b60e11b81526001600160a01b038a1690632eb2c2d690612a359030908c908c908c908c908c908c908c90600401614fa5565b600060405180830381600087803b158015612a4f57600080fd5b505af1158015612a63573d6000803e3d6000fd5b50505050876001600160a01b0316896001600160a01b03167fc8144f7a11a69e58de79275b3e7420b4942b4e8318a0e0aa9ccb457c60387b02898989898989604051612ab496959493929190614ffa565b60405180910390a3505050505050505050565b6011546001600160a01b0316336001600160a01b0316146040518060400160405280600381526020016232303560e81b81525090612b185760405162461bcd60e51b81526004016106549190614495565b5080612b2381612d0a565b6040518060400160405280600381526020016203430360ec1b81525090612b5d5760405162461bcd60e51b81526004016106549190614495565b50612b678261342d565b6000828152600c602081815260408084206001810180546001600160a01b03168652600d845282862060028301805488529085528387208790558887529490935284815582546001600160a01b0319908116909355928490556003830180549092169091556004820183905560058201839055600690910180546001600160f81b031916905551339184917ffd2b5951436d1ea366069166d930e14be3feb38021ab9cb0269ba75b3db9af8c9190a35050565b600a546001600160a01b03163314612c745760405162461bcd60e51b815260206004820181905260248201527f4f776e61626c653a2063616c6c6572206973206e6f7420746865206f776e65726044820152606401610654565b6001600160a01b038116612cd95760405162461bcd60e51b815260206004820152602660248201527f4f776e61626c653a206e6577206f776e657220697320746865207a65726f206160448201526564647265737360d01b6064820152608401610654565b612ce2816136eb565b50565b60006001600160e01b03198216630271189760e51b14806105ff57506105ff82613944565b6000908152600260205260409020546001600160a01b0316151590565b600081815260046020526040902080546001600160a01b0319166001600160a01b0384169081179091558190612d5c82611991565b6001600160a01b03167f8c5be1e5ebec7d5bd14f71427d1e84f3dd0314c0f7b2291e5b200ac8c7c3b92560405160405180910390a45050565b6000821580612da2575081155b15612daf575060006105ff565b81612dc760026b033b2e3c9fd0803ce8000000615043565b612dd390600019614d55565b612ddd9190615043565b8311156040518060400160405280600381526020016203130360ec1b81525090612e1a5760405162461bcd60e51b81526004016106549190614495565b506b033b2e3c9fd0803ce8000000612e33600282615043565b612e3d8486615065565b612e479190614dda565b611a749190615043565b6000612e5c82612d0a565b612ebd5760405162461bcd60e51b815260206004820152602c60248201527f4552433732313a206f70657261746f7220717565727920666f72206e6f6e657860448201526b34b9ba32b73a103a37b5b2b760a11b6064820152608401610654565b6000612ec883611991565b9050806001600160a01b0316846001600160a01b03161480612f035750836001600160a01b0316612ef884610d18565b6001600160a01b0316145b80610ebf57506001600160a01b0380821660009081526005602090815260408083209388168352929052205460ff16610ebf565b612f42838383613969565b6000612f4d8261160c565b90506001816005811115612f6357612f636146c7565b1480612f8057506002816005811115612f7e57612f7e6146c7565b145b156124555760007f00000000000000000000000000000000000000000000000000000000000000006001600160a01b0316636d6a723c6040518163ffffffff1660e01b8152600401602060405180830381865afa158015612fe5573d6000803e3d6000fd5b505050506040513d601f19601f820116820180604052508101906130099190614dbd565b6000848152600c6020908152604080832081516101c0810183528154815260018201546001600160a01b039081169482019490945260028201549281019290925260038101549092166060820152600482015460808201526005808301546001600160801b0380821660a0850152600160801b9091041660c0830152600683015464ffffffffff80821660e0850152600160281b82048116610100850152600160501b82048116610120850152600160781b82048116610140850152600160a01b82048116610160850152600160c81b820416610180840152949550929390926101a0840191600160f01b900460ff1690811115613109576131096146c7565b600581111561311a5761311a6146c7565b90525090506001600160a01b03821615613243576001600160a01b038681166000818152600f60205260409081902054600e5491516318c39f1760e11b815260048101939093526024830152604482015283918216906331873e2e90606401600060405180830381600087803b15801561319357600080fd5b505af11580156131a7573d6000803e3d6000fd5b50505050856001600160a01b0316876001600160a01b031614613241576001600160a01b038681166000818152600f60205260409081902054600e5491516318c39f1760e11b8152600481019390935260248301526044820152908216906331873e2e90606401600060405180830381600087803b15801561322857600080fd5b505af115801561323c573d6000803e3d6000fd5b505050505b505b60808101516001600160a01b0387166000908152600f602052604090205461326b9190614d55565b6001600160a01b038088166000908152600f6020526040808220939093556080840151918816815291909120546132a29190614dda565b6001600160a01b0386166000908152600f6020526040902055505050505050565b604080516001600160a01b038416602482015260448082018490528251808303909101815260649091019091526020810180516001600160e01b031663a9059cbb60e01b179052610eb1908490613b14565b60007f00000000000000000000000000000000000000000000000000000000000000006001600160a01b0316636d6a723c6040518163ffffffff1660e01b8152600401602060405180830381865afa158015613375573d6000803e3d6000fd5b505050506040513d601f19601f820116820180604052508101906133999190614dbd565b90506001600160a01b03811615613429576001600160a01b038281166000818152600f60205260409081902054600e5491516318c39f1760e11b815260048101939093526024830152604482015282918216906331873e2e90606401600060405180830381600087803b15801561340f57600080fd5b505af1158015613423573d6000803e3d6000fd5b50505050505b5050565b600061343882611991565b905061344681600084613be6565b613451600083612d27565b6001600160a01b038116600090815260036020526040812080546001929061347a908490614d55565b909155505060008281526002602052604080822080546001600160a01b0319169055518391906001600160a01b038416907fddf252ad1be2c89b69c2b068fc378daa952ba7f163c4a11628f55a4df523b3ef908390a45050565b60006134e4601080546001019055565b506010546134f28282613c9e565b6000818152600c602090815260409182902085518155908501516001820180546001600160a01b039283166001600160a01b0319918216179091559286015160028301556060860151600383018054919092169316929092179091556080840151600482015560a084015160c08501516001600160801b03908116600160801b0291161760058083019190915560e08501516006830180546101008801516101208901516101408a01516101608b01516101808c015164ffffffffff908116600160c81b0264ffffffffff60c81b19928216600160a01b029290921669ffffffffffffffffffff60a01b19938216600160781b0264ffffffffff60781b19958316600160501b029590951669ffffffffffffffffffff60501b19968316600160281b0269ffffffffffffffffffff199098169290991691909117959095179390931695909517179390931617919091178082556101a087015187949390929160ff60f01b191690600160f01b908490811115613670576136706146c7565b02179055509050506136858360600151613315565b8260800151600e546136979190614dda565b600e55608083015160608401516001600160a01b03166000908152600f60205260409020546136c69190614dda565b6060909301516001600160a01b03166000908152600f60205260409020929092555090565b600a80546001600160a01b038381166001600160a01b0319831681179093556040519116919082907f8be0079c531659141344cd1fd0a4f28419497f9722a3daafe3b4186f6b6457e090600090a35050565b600082158061374a575081155b15613757575060006105ff565b816137656002612710615043565b61377190600019614d55565b61377b9190615043565b8311156040518060400160405280600381526020016203130360ec1b815250906137b85760405162461bcd60e51b81526004016106549190614495565b50612710612e33600282615043565b6000828152600c6020526040902060056006820154600160f01b900460ff1660058111156137f7576137f76146c7565b14156040518060400160405280600381526020016234303360e81b815250906138335760405162461bcd60e51b81526004016106549190614495565b50816005811115613846576138466146c7565b6006820154600160f01b900460ff166005811115613866576138666146c7565b14156040518060400160405280600381526020016234303160e81b815250906138a25760405162461bcd60e51b81526004016106549190614495565b5060068101805483919060ff60f01b1916600160f01b8360058111156138ca576138ca6146c7565b02179055508160058111156138e1576138e16146c7565b60405184907f1ec5c05690dbdf3fe6eeaa13c3026d2706bba8ff773391bf70f15b407fb1658890600090a3505050565b61391c848484612f37565b61392884848484613cb8565b6124555760405162461bcd60e51b815260040161065490615084565b60006001600160e01b0319821663780e9d6360e01b14806105ff57506105ff82613db3565b826001600160a01b031661397c82611991565b6001600160a01b0316146139e45760405162461bcd60e51b815260206004820152602960248201527f4552433732313a207472616e73666572206f6620746f6b656e2074686174206960448201526839903737ba1037bbb760b91b6064820152608401610654565b6001600160a01b038216613a465760405162461bcd60e51b8152602060048201526024808201527f4552433732313a207472616e7366657220746f20746865207a65726f206164646044820152637265737360e01b6064820152608401610654565b613a51838383613be6565b613a5c600082612d27565b6001600160a01b0383166000908152600360205260408120805460019290613a85908490614d55565b90915550506001600160a01b0382166000908152600360205260408120805460019290613ab3908490614dda565b909155505060008181526002602052604080822080546001600160a01b0319166001600160a01b0386811691821790925591518493918716917fddf252ad1be2c89b69c2b068fc378daa952ba7f163c4a11628f55a4df523b3ef91a4505050565b6000613b69826040518060400160405280602081526020017f5361666545524332303a206c6f772d6c6576656c2063616c6c206661696c6564815250856001600160a01b0316613e039092919063ffffffff16565b805190915015610eb15780806020019051810190613b879190614d03565b610eb15760405162461bcd60e51b815260206004820152602a60248201527f5361666545524332303a204552433230206f7065726174696f6e20646964206e6044820152691bdd081cdd58d8d9595960b21b6064820152608401610654565b6001600160a01b038316613c4157613c3c81600880546000838152600960205260408120829055600182018355919091527ff3f7a9fe364faab93b216da50a3214154f22a0a2b415b23a84c8169e8b636ee30155565b613c64565b816001600160a01b0316836001600160a01b031614613c6457613c648382613e12565b6001600160a01b038216613c7b57610eb181613eaf565b826001600160a01b0316826001600160a01b031614610eb157610eb18282613f5e565b613429828260405180602001604052806000815250613fa2565b60006001600160a01b0384163b15613dab57604051630a85bd0160e11b81526001600160a01b0385169063150b7a0290613cfc9033908990889088906004016150d6565b6020604051808303816000875af1925050508015613d37575060408051601f3d908101601f19168201909252613d3491810190615109565b60015b613d91573d808015613d65576040519150601f19603f3d011682016040523d82523d6000602084013e613d6a565b606091505b508051613d895760405162461bcd60e51b815260040161065490615084565b805181602001fd5b6001600160e01b031916630a85bd0160e11b149050610ebf565b506001610ebf565b60006001600160e01b031982166380ac58cd60e01b1480613de457506001600160e01b03198216635b5e139f60e01b145b806105ff57506301ffc9a760e01b6001600160e01b03198316146105ff565b6060610ebf8484600085613fd5565b60006001613e1f84611a7b565b613e299190614d55565b600083815260076020526040902054909150808214613e7c576001600160a01b03841660009081526006602090815260408083208584528252808320548484528184208190558352600790915290208190555b5060009182526007602090815260408084208490556001600160a01b039094168352600681528383209183525290812055565b600854600090613ec190600190614d55565b60008381526009602052604081205460088054939450909284908110613ee957613ee9614bcf565b906000526020600020015490508060088381548110613f0a57613f0a614bcf565b6000918252602080832090910192909255828152600990915260408082208490558582528120556008805480613f4257613f42615126565b6001900381819060005260206000200160009055905550505050565b6000613f6983611a7b565b6001600160a01b039093166000908152600660209081526040808320868452825280832085905593825260079052919091209190915550565b613fac83836140fd565b613fb96000848484613cb8565b610eb15760405162461bcd60e51b815260040161065490615084565b6060824710156140365760405162461bcd60e51b815260206004820152602660248201527f416464726573733a20696e73756666696369656e742062616c616e636520666f6044820152651c8818d85b1b60d21b6064820152608401610654565b843b6140845760405162461bcd60e51b815260206004820152601d60248201527f416464726573733a2063616c6c20746f206e6f6e2d636f6e74726163740000006044820152606401610654565b600080866001600160a01b031685876040516140a0919061513c565b60006040518083038185875af1925050503d80600081146140dd576040519150601f19603f3d011682016040523d82523d6000602084013e6140e2565b606091505b50915091506140f282828661423c565b979650505050505050565b6001600160a01b0382166141535760405162461bcd60e51b815260206004820181905260248201527f4552433732313a206d696e7420746f20746865207a65726f20616464726573736044820152606401610654565b61415c81612d0a565b156141a95760405162461bcd60e51b815260206004820152601c60248201527f4552433732313a20746f6b656e20616c7265616479206d696e746564000000006044820152606401610654565b6141b560008383613be6565b6001600160a01b03821660009081526003602052604081208054600192906141de908490614dda565b909155505060008181526002602052604080822080546001600160a01b0319166001600160a01b03861690811790915590518392907fddf252ad1be2c89b69c2b068fc378daa952ba7f163c4a11628f55a4df523b3ef908290a45050565b6060831561424b575081611a74565b82511561425b5782518084602001fd5b8160405162461bcd60e51b81526004016106549190614495565b604080516101c081018252600080825260208201819052918101829052606081018290526080810182905260a0810182905260c0810182905260e0810182905261010081018290526101208101829052610140810182905261016081018290526101808101829052906101a082015290565b6001600160e01b031981168114612ce257600080fd5b60006020828403121561430f57600080fd5b8135611a74816142e7565b6001600160a01b0381168114612ce257600080fd5b60008083601f84011261434157600080fd5b5081356001600160401b0381111561435857600080fd5b6020830191508360208260051b850101111561437357600080fd5b9250929050565b60008083601f84011261438c57600080fd5b5081356001600160401b038111156143a357600080fd5b60208301915083602082850101111561437357600080fd5b6000806000806000606086880312156143d357600080fd5b85356143de8161431a565b945060208601356001600160401b03808211156143fa57600080fd5b61440689838a0161432f565b9096509450604088013591508082111561441f57600080fd5b5061442c8882890161437a565b969995985093965092949392505050565b60005b83811015614458578181015183820152602001614440565b838111156124555750506000910152565b6000815180845261448181602086016020860161443d565b601f01601f19169290920160200192915050565b602081526000611a746020830184614469565b6000602082840312156144ba57600080fd5b5035919050565b600080604083850312156144d457600080fd5b82356144df8161431a565b946020939093013593505050565b634e487b7160e01b600052604160045260246000fd5b60405161010081016001600160401b0381118282101715614526576145266144ed565b60405290565b604051601f8201601f191681016001600160401b0381118282101715614554576145546144ed565b604052919050565b60006001600160401b03821115614575576145756144ed565b50601f01601f191660200190565b600082601f83011261459457600080fd5b81356145a76145a28261455c565b61452c565b8181528460208386010111156145bc57600080fd5b816020850160208301376000918101602001919091529392505050565b600080600080608085870312156145ef57600080fd5b84356145fa8161431a565b9350602085013561460a8161431a565b92506040850135915060608501356001600160401b0381111561462c57600080fd5b61463887828801614583565b91505092959194509250565b60008060006060848603121561465957600080fd5b83356146648161431a565b925060208401356146748161431a565b929592945050506040919091013590565b60008060006060848603121561469a57600080fd5b8335925060208401356146ac8161431a565b915060408401356146bc8161431a565b809150509250925092565b634e487b7160e01b600052602160045260246000fd5b600681106146fb57634e487b7160e01b600052602160045260246000fd5b9052565b602081016105ff82846146dd565b80518252602081015161472b60208401826001600160a01b03169052565b5060408101516040830152606081015161475060608401826001600160a01b03169052565b506080810151608083015260a081015161477560a08401826001600160801b03169052565b5060c081015161479060c08401826001600160801b03169052565b5060e08101516147a960e084018264ffffffffff169052565b506101008181015164ffffffffff9081169184019190915261012080830151821690840152610140808301518216908401526101608083015182169084015261018080830151909116908301526101a080820151612455828501826146dd565b6101c081016105ff828461470d565b60006020828403121561482a57600080fd5b8135611a748161431a565b600080600080600080600060e0888a03121561485057600080fd5b8735965060208801356148628161431a565b955060408801356148728161431a565b969995985095966060810135965060808101359560a0820135955060c0909101359350915050565b8281526101e08101611a74602083018461470d565b8015158114612ce257600080fd5b600080604083850312156148d057600080fd5b82356148db8161431a565b915060208301356148eb816148af565b809150509250929050565b600082601f83011261490757600080fd5b813560206001600160401b03821115614922576149226144ed565b8160051b61493182820161452c565b928352848101820192828101908785111561494b57600080fd5b83870192505b848310156140f257823582529183019190830190614951565b600080600080600060a0868803121561498257600080fd5b853561498d8161431a565b9450602086013561499d8161431a565b935060408601356001600160401b03808211156149b957600080fd5b6149c589838a016148f6565b945060608801359150808211156149db57600080fd5b6149e789838a016148f6565b935060808801359150808211156149fd57600080fd5b50614a0a88828901614583565b9150509295509295909350565b60008060008060608587031215614a2d57600080fd5b8435614a388161431a565b93506020850135614a488161431a565b925060408501356001600160401b03811115614a6357600080fd5b614a6f8782880161432f565b95989497509550505050565b60008060008060008060008060a0898b031215614a9757600080fd5b8835614aa28161431a565b97506020890135614ab28161431a565b965060408901356001600160401b0380821115614ace57600080fd5b614ada8c838d0161432f565b909850965060608b0135915080821115614af357600080fd5b614aff8c838d0161432f565b909650945060808b0135915080821115614b1857600080fd5b50614b258b828c0161437a565b999c989b5096995094979396929594505050565b60008060408385031215614b4c57600080fd5b8235614b578161431a565b915060208301356148eb8161431a565b600080600080600060a08688031215614b7f57600080fd5b8535614b8a8161431a565b94506020860135614b9a8161431a565b9350604086013592506060860135915060808601356001600160401b03811115614bc357600080fd5b614a0a88828901614583565b634e487b7160e01b600052603260045260246000fd5b634e487b7160e01b600052601160045260246000fd5b6000600019821415614c0f57614c0f614be5565b5060010190565b81835281816020850137506000828201602090810191909152601f909101601f19169091010190565b60a0808252875190820181905260009060209060c0840190828b01845b82811015614c815781516001600160a01b031684529284019290840190600101614c5c565b5050508381038285015288518082528983019183019060005b81811015614cb657835183529284019291840191600101614c9a565b50506001600160a01b03891660408601526001600160a01b03881660608601528481036080860152614ce9818789614c16565b9b9a5050505050505050505050565b8051612600816148af565b600060208284031215614d1557600080fd5b8151611a74816148af565b600181811c90821680614d3457607f821691505b6020821081141561108057634e487b7160e01b600052602260045260246000fd5b600082821015614d6757614d67614be5565b500390565b60208082526031908201527f4552433732313a207472616e736665722063616c6c6572206973206e6f74206f6040820152701ddb995c881b9bdc88185c1c1c9bdd9959607a1b606082015260800190565b600060208284031215614dcf57600080fd5b8151611a748161431a565b60008219821115614ded57614ded614be5565b500190565b600082601f830112614e0357600080fd5b8151614e116145a28261455c565b818152846020838601011115614e2657600080fd5b610ebf82602083016020870161443d565b600060208284031215614e4957600080fd5b81516001600160401b0380821115614e6057600080fd5b908301906101008286031215614e7557600080fd5b614e7d614503565b614e8683614cf8565b8152602083015182811115614e9a57600080fd5b614ea687828601614df2565b602083015250604083015182811115614ebe57600080fd5b614eca87828601614df2565b604083015250606083015160608201526080830151608082015260a083015160a082015260c083015160c082015260e083015160e082015280935050505092915050565b600060208284031215614f2057600080fd5b5051919050565b600060208284031215614f3957600080fd5b81516001600160401b03811115614f4f57600080fd5b610ebf84828501614df2565b81835260006001600160fb1b03831115614f7457600080fd5b8260051b8083602087013760009401602001938452509192915050565b602081526000610ebf602083018486614f5b565b6001600160a01b0389811682528816602082015260a060408201819052600090614fd2908301888a614f5b565b8281036060840152614fe5818789614f5b565b90508281036080840152614ce9818587614c16565b60608152600061500e60608301888a614f5b565b8281036020840152615021818789614f5b565b90508281036040840152615036818587614c16565b9998505050505050505050565b60008261506057634e487b7160e01b600052601260045260246000fd5b500490565b600081600019048311821515161561507f5761507f614be5565b500290565b60208082526032908201527f4552433732313a207472616e7366657220746f206e6f6e20455243373231526560408201527131b2b4bb32b91034b6b83632b6b2b73a32b960711b606082015260800190565b6001600160a01b03858116825284166020820152604081018390526080606082018190526000906121ce90830184614469565b60006020828403121561511b57600080fd5b8151611a74816142e7565b634e487b7160e01b600052603160045260246000fd5b6000825161514e81846020870161443d565b919091019291505056fea26469706673582212209cdb3c92cf5ad9ff5091cb4b63dcacc60dfe5e6b348384736c4fc6f70c7f070664736f6c634300080a0033",
  "libraries": {
    "MathUtils": "0x703EeF551575F5A57b49CEfBb958Fc9614206F33"
  },
  "devdoc": {
    "author": "OpenSky Labs",
    "details": "The functions about handling loan are callable by the OpenSkyPool contract defined also in the OpenSkySettings*",
    "kind": "dev",
    "methods": {
      "approve(address,uint256)": {
        "details": "See {IERC721-approve}."
      },
      "balanceOf(address)": {
        "details": "See {IERC721-balanceOf}."
      },
      "claimERC1155Airdrop(address,address,uint256[],uint256[],bytes)": {
        "params": {
          "amounts": "The amount of the ERC1155 tokens",
          "data": "packed params to pass to the receiver as extra information*",
          "ids": "The ID of the ERC1155 token",
          "to": "The address which will receive the ERC1155 tokens",
          "token": "The address of the airdropped token"
        }
      },
      "claimERC20Airdrop(address,address,uint256)": {
        "params": {
          "amount": "The amount of the ERC20 token*",
          "to": "The address which will receive ERC20 token",
          "token": "The address of the airdropped token"
        }
      },
      "claimERC721Airdrop(address,address,uint256[])": {
        "params": {
          "ids": "The ID of the ERC721 token*",
          "to": "The address which will receive the ERC721 token",
          "token": "The address of the airdropped token"
        }
      },
      "constructor": {
        "details": "Constructor.",
        "params": {
          "_settings": "The address of the OpenSkySettings contract",
          "name": "The name of OpenSkyLoan NFT",
          "symbol": "The symbol of OpenSkyLoan NFT"
        }
      },
      "end(uint256,address,address)": {
        "params": {
          "onBehalfOf": "The address the repayer is repaying for",
          "repayer": "The address of the repayer*",
          "tokenId": "The ID of the loan"
        }
      },
      "endLiquidation(uint256)": {
        "params": {
          "tokenId": "The ID of the loan*"
        }
      },
      "flashClaim(address,uint256[],bytes)": {
        "details": "IMPORTANT There are security concerns for developers of flash loan receiver contracts that must be carefully considered",
        "params": {
          "loanIds": "The ID of loan being flash-borrowed",
          "params": "packed params to pass to the receiver as extra information*",
          "receiverAddress": "The address of the contract receiving the funds, implementing IOpenSkyFlashClaimReceiver interface"
        }
      },
      "getApproved(uint256)": {
        "details": "See {IERC721-getApproved}."
      },
      "getBorrowBalance(uint256)": {
        "params": {
          "tokenId": "The ID of the loan"
        },
        "returns": {
          "_0": "The borrow balance of the loan*"
        }
      },
      "getBorrowInterest(uint256)": {
        "params": {
          "tokenId": "The ID of the loan"
        },
        "returns": {
          "_0": "The borrow interest of the loan*"
        }
      },
      "getLoanData(uint256)": {
        "params": {
          "tokenId": "The ID of the loan"
        },
        "returns": {
          "_0": "The details of the loan*"
        }
      },
      "getPenalty(uint256)": {
        "params": {
          "tokenId": "The ID of the loan"
        },
        "returns": {
          "_0": "The penalty fee of the loan*"
        }
      },
      "getStatus(uint256)": {
        "params": {
          "tokenId": "The ID of the loan"
        },
        "returns": {
          "_0": "The status of the loan*"
        }
      },
      "isApprovedForAll(address,address)": {
        "details": "See {IERC721-isApprovedForAll}."
      },
      "mint(uint256,address,address,uint256,uint256,uint256,uint256)": {
        "params": {
          "amount": "The amount of the loan",
          "borrowRate": "The borrow rate of the loan",
          "borrower": "The address of the borrower",
          "duration": "The duration of the loan",
          "nftAddress": "The contract address of the collateralized NFT ",
          "nftTokenId": "The ID of the collateralized NFT",
          "reserveId": "The ID of the reserve"
        },
        "returns": {
          "loanId": "and loan data*"
        }
      },
      "name()": {
        "details": "See {IERC721Metadata-name}."
      },
      "onERC721Received(address,address,uint256,bytes)": {
        "details": "See {IERC721Receiver-onERC721Received}. Always returns `IERC721Receiver.onERC721Received.selector`."
      },
      "owner()": {
        "details": "Returns the address of the current owner."
      },
      "ownerOf(uint256)": {
        "details": "See {IERC721-ownerOf}."
      },
      "renounceOwnership()": {
        "details": "Leaves the contract without owner. It will not be possible to call `onlyOwner` functions anymore. Can only be called by the current owner. NOTE: Renouncing ownership will leave the contract without an owner, thereby removing any functionality that is only available to the owner."
      },
      "safeTransferFrom(address,address,uint256)": {
        "details": "See {IERC721-safeTransferFrom}."
      },
      "safeTransferFrom(address,address,uint256,bytes)": {
        "details": "See {IERC721-safeTransferFrom}."
      },
      "setApprovalForAll(address,bool)": {
        "details": "See {IERC721-setApprovalForAll}."
      },
      "startLiquidation(uint256)": {
        "params": {
          "tokenId": "The ID of the defaulted loan*"
        }
      },
      "symbol()": {
        "details": "See {IERC721Metadata-symbol}."
      },
      "tokenByIndex(uint256)": {
        "details": "See {IERC721Enumerable-tokenByIndex}."
      },
      "tokenOfOwnerByIndex(address,uint256)": {
        "details": "See {IERC721Enumerable-tokenOfOwnerByIndex}."
      },
      "tokenURI(uint256)": {
        "details": "See {IERC721Metadata-tokenURI}."
      },
      "totalSupply()": {
        "details": "See {IERC721Enumerable-totalSupply}."
      },
      "transferFrom(address,address,uint256)": {
        "details": "See {IERC721-transferFrom}."
      },
      "transferOwnership(address)": {
        "details": "Transfers ownership of the contract to a new account (`newOwner`). Can only be called by the current owner."
      }
    },
    "stateVariables": {
      "getLoanId": {
        "params": {
          "nftAddress": "The address of the collateralized NFT",
          "tokenId": "The ID of the collateralized NFT"
        },
        "return": "The ID of the loan*",
        "returns": {
          "_0": "The ID of the loan*"
        }
      }
    },
    "title": "OpenSkyLoan contract",
    "version": 1
  },
  "userdoc": {
    "kind": "user",
    "methods": {
      "claimERC1155Airdrop(address,address,uint256[],uint256[],bytes)": {
        "notice": "Claim the ERC1155 token which has been airdropped to the loan contract"
      },
      "claimERC20Airdrop(address,address,uint256)": {
        "notice": "Claim the ERC20 token which has been airdropped to the loan contract"
      },
      "claimERC721Airdrop(address,address,uint256[])": {
        "notice": "Claim the ERC721 token which has been airdropped to the loan contract"
      },
      "end(uint256,address,address)": {
        "notice": "Terminates the loan"
      },
      "endLiquidation(uint256)": {
        "notice": "Ends liquidation of a loan that is fully settled"
      },
      "flashClaim(address,uint256[],bytes)": {
        "notice": "Allows smart contracts to access the collateralized NFT within one transaction, as long as the amount taken plus a fee is returned"
      },
      "getBorrowBalance(uint256)": {
        "notice": "Returns the borrow balance of a loan, including borrow interest"
      },
      "getBorrowInterest(uint256)": {
        "notice": "Returns the borrow interest of the loan"
      },
      "getLoanData(uint256)": {
        "notice": "Returns the loan data"
      },
      "getLoanId(address,uint256)": {
        "notice": "Returns the ID of the loan"
      },
      "getPenalty(uint256)": {
        "notice": "Returns the penalty fee of the loan"
      },
      "getStatus(uint256)": {
        "notice": "Returns the status of a loan"
      },
      "mint(uint256,address,address,uint256,uint256,uint256,uint256)": {
        "notice": "Mints a loan NFT to user"
      },
      "startLiquidation(uint256)": {
        "notice": "Starts liquidation of the loan in default"
      }
    },
    "notice": "Implementation of the loan NFT for the OpenSky protocol",
    "version": 1
  },
  "storageLayout": {
    "storage": [
      {
        "astId": 4564,
        "contract": "contracts/OpenSkyLoan.sol:OpenSkyLoan",
        "label": "_name",
        "offset": 0,
        "slot": "0",
        "type": "t_string_storage"
      },
      {
        "astId": 4566,
        "contract": "contracts/OpenSkyLoan.sol:OpenSkyLoan",
        "label": "_symbol",
        "offset": 0,
        "slot": "1",
        "type": "t_string_storage"
      },
      {
        "astId": 4570,
        "contract": "contracts/OpenSkyLoan.sol:OpenSkyLoan",
        "label": "_owners",
        "offset": 0,
        "slot": "2",
        "type": "t_mapping(t_uint256,t_address)"
      },
      {
        "astId": 4574,
        "contract": "contracts/OpenSkyLoan.sol:OpenSkyLoan",
        "label": "_balances",
        "offset": 0,
        "slot": "3",
        "type": "t_mapping(t_address,t_uint256)"
      },
      {
        "astId": 4578,
        "contract": "contracts/OpenSkyLoan.sol:OpenSkyLoan",
        "label": "_tokenApprovals",
        "offset": 0,
        "slot": "4",
        "type": "t_mapping(t_uint256,t_address)"
      },
      {
        "astId": 4584,
        "contract": "contracts/OpenSkyLoan.sol:OpenSkyLoan",
        "label": "_operatorApprovals",
        "offset": 0,
        "slot": "5",
        "type": "t_mapping(t_address,t_mapping(t_address,t_bool))"
      },
      {
        "astId": 5503,
        "contract": "contracts/OpenSkyLoan.sol:OpenSkyLoan",
        "label": "_ownedTokens",
        "offset": 0,
        "slot": "6",
        "type": "t_mapping(t_address,t_mapping(t_uint256,t_uint256))"
      },
      {
        "astId": 5507,
        "contract": "contracts/OpenSkyLoan.sol:OpenSkyLoan",
        "label": "_ownedTokensIndex",
        "offset": 0,
        "slot": "7",
        "type": "t_mapping(t_uint256,t_uint256)"
      },
      {
        "astId": 5510,
        "contract": "contracts/OpenSkyLoan.sol:OpenSkyLoan",
        "label": "_allTokens",
        "offset": 0,
        "slot": "8",
        "type": "t_array(t_uint256)dyn_storage"
      },
      {
        "astId": 5514,
        "contract": "contracts/OpenSkyLoan.sol:OpenSkyLoan",
        "label": "_allTokensIndex",
        "offset": 0,
        "slot": "9",
        "type": "t_mapping(t_uint256,t_uint256)"
      },
      {
        "astId": 387,
        "contract": "contracts/OpenSkyLoan.sol:OpenSkyLoan",
        "label": "_owner",
        "offset": 0,
        "slot": "10",
        "type": "t_address"
      },
      {
        "astId": 1379,
        "contract": "contracts/OpenSkyLoan.sol:OpenSkyLoan",
        "label": "_status",
        "offset": 0,
        "slot": "11",
        "type": "t_uint256"
      },
      {
        "astId": 8763,
        "contract": "contracts/OpenSkyLoan.sol:OpenSkyLoan",
        "label": "_loans",
        "offset": 0,
        "slot": "12",
        "type": "t_mapping(t_uint256,t_struct(LoanData)21566_storage)"
      },
      {
        "astId": 8771,
        "contract": "contracts/OpenSkyLoan.sol:OpenSkyLoan",
        "label": "getLoanId",
        "offset": 0,
        "slot": "13",
        "type": "t_mapping(t_address,t_mapping(t_uint256,t_uint256))"
      },
      {
        "astId": 8773,
        "contract": "contracts/OpenSkyLoan.sol:OpenSkyLoan",
        "label": "totalBorrows",
        "offset": 0,
        "slot": "14",
        "type": "t_uint256"
      },
      {
        "astId": 8777,
        "contract": "contracts/OpenSkyLoan.sol:OpenSkyLoan",
        "label": "userBorrows",
        "offset": 0,
        "slot": "15",
        "type": "t_mapping(t_address,t_uint256)"
      },
      {
        "astId": 8780,
        "contract": "contracts/OpenSkyLoan.sol:OpenSkyLoan",
        "label": "_tokenIdTracker",
        "offset": 0,
        "slot": "16",
        "type": "t_struct(Counter)6236_storage"
      },
      {
        "astId": 8785,
        "contract": "contracts/OpenSkyLoan.sol:OpenSkyLoan",
        "label": "_pool",
        "offset": 0,
        "slot": "17",
        "type": "t_address"
      }
    ],
    "types": {
      "t_address": {
        "encoding": "inplace",
        "label": "address",
        "numberOfBytes": "20"
      },
      "t_array(t_uint256)dyn_storage": {
        "base": "t_uint256",
        "encoding": "dynamic_array",
        "label": "uint256[]",
        "numberOfBytes": "32"
      },
      "t_bool": {
        "encoding": "inplace",
        "label": "bool",
        "numberOfBytes": "1"
      },
      "t_enum(LoanStatus)21573": {
        "encoding": "inplace",
        "label": "enum DataTypes.LoanStatus",
        "numberOfBytes": "1"
      },
      "t_mapping(t_address,t_bool)": {
        "encoding": "mapping",
        "key": "t_address",
        "label": "mapping(address => bool)",
        "numberOfBytes": "32",
        "value": "t_bool"
      },
      "t_mapping(t_address,t_mapping(t_address,t_bool))": {
        "encoding": "mapping",
        "key": "t_address",
        "label": "mapping(address => mapping(address => bool))",
        "numberOfBytes": "32",
        "value": "t_mapping(t_address,t_bool)"
      },
      "t_mapping(t_address,t_mapping(t_uint256,t_uint256))": {
        "encoding": "mapping",
        "key": "t_address",
        "label": "mapping(address => mapping(uint256 => uint256))",
        "numberOfBytes": "32",
        "value": "t_mapping(t_uint256,t_uint256)"
      },
      "t_mapping(t_address,t_uint256)": {
        "encoding": "mapping",
        "key": "t_address",
        "label": "mapping(address => uint256)",
        "numberOfBytes": "32",
        "value": "t_uint256"
      },
      "t_mapping(t_uint256,t_address)": {
        "encoding": "mapping",
        "key": "t_uint256",
        "label": "mapping(uint256 => address)",
        "numberOfBytes": "32",
        "value": "t_address"
      },
      "t_mapping(t_uint256,t_struct(LoanData)21566_storage)": {
        "encoding": "mapping",
        "key": "t_uint256",
        "label": "mapping(uint256 => struct DataTypes.LoanData)",
        "numberOfBytes": "32",
        "value": "t_struct(LoanData)21566_storage"
      },
      "t_mapping(t_uint256,t_uint256)": {
        "encoding": "mapping",
        "key": "t_uint256",
        "label": "mapping(uint256 => uint256)",
        "numberOfBytes": "32",
        "value": "t_uint256"
      },
      "t_string_storage": {
        "encoding": "bytes",
        "label": "string",
        "numberOfBytes": "32"
      },
      "t_struct(Counter)6236_storage": {
        "encoding": "inplace",
        "label": "struct Counters.Counter",
        "members": [
          {
            "astId": 6235,
            "contract": "contracts/OpenSkyLoan.sol:OpenSkyLoan",
            "label": "_value",
            "offset": 0,
            "slot": "0",
            "type": "t_uint256"
          }
        ],
        "numberOfBytes": "32"
      },
      "t_struct(LoanData)21566_storage": {
        "encoding": "inplace",
        "label": "struct DataTypes.LoanData",
        "members": [
          {
            "astId": 21538,
            "contract": "contracts/OpenSkyLoan.sol:OpenSkyLoan",
            "label": "reserveId",
            "offset": 0,
            "slot": "0",
            "type": "t_uint256"
          },
          {
            "astId": 21540,
            "contract": "contracts/OpenSkyLoan.sol:OpenSkyLoan",
            "label": "nftAddress",
            "offset": 0,
            "slot": "1",
            "type": "t_address"
          },
          {
            "astId": 21542,
            "contract": "contracts/OpenSkyLoan.sol:OpenSkyLoan",
            "label": "tokenId",
            "offset": 0,
            "slot": "2",
            "type": "t_uint256"
          },
          {
            "astId": 21544,
            "contract": "contracts/OpenSkyLoan.sol:OpenSkyLoan",
            "label": "borrower",
            "offset": 0,
            "slot": "3",
            "type": "t_address"
          },
          {
            "astId": 21546,
            "contract": "contracts/OpenSkyLoan.sol:OpenSkyLoan",
            "label": "amount",
            "offset": 0,
            "slot": "4",
            "type": "t_uint256"
          },
          {
            "astId": 21548,
            "contract": "contracts/OpenSkyLoan.sol:OpenSkyLoan",
            "label": "borrowRate",
            "offset": 0,
            "slot": "5",
            "type": "t_uint128"
          },
          {
            "astId": 21550,
            "contract": "contracts/OpenSkyLoan.sol:OpenSkyLoan",
            "label": "interestPerSecond",
            "offset": 16,
            "slot": "5",
            "type": "t_uint128"
          },
          {
            "astId": 21552,
            "contract": "contracts/OpenSkyLoan.sol:OpenSkyLoan",
            "label": "borrowBegin",
            "offset": 0,
            "slot": "6",
            "type": "t_uint40"
          },
          {
            "astId": 21554,
            "contract": "contracts/OpenSkyLoan.sol:OpenSkyLoan",
            "label": "borrowDuration",
            "offset": 5,
            "slot": "6",
            "type": "t_uint40"
          },
          {
            "astId": 21556,
            "contract": "contracts/OpenSkyLoan.sol:OpenSkyLoan",
            "label": "borrowOverdueTime",
            "offset": 10,
            "slot": "6",
            "type": "t_uint40"
          },
          {
            "astId": 21558,
            "contract": "contracts/OpenSkyLoan.sol:OpenSkyLoan",
            "label": "liquidatableTime",
            "offset": 15,
            "slot": "6",
            "type": "t_uint40"
          },
          {
            "astId": 21560,
            "contract": "contracts/OpenSkyLoan.sol:OpenSkyLoan",
            "label": "extendableTime",
            "offset": 20,
            "slot": "6",
            "type": "t_uint40"
          },
          {
            "astId": 21562,
            "contract": "contracts/OpenSkyLoan.sol:OpenSkyLoan",
            "label": "borrowEnd",
            "offset": 25,
            "slot": "6",
            "type": "t_uint40"
          },
          {
            "astId": 21565,
            "contract": "contracts/OpenSkyLoan.sol:OpenSkyLoan",
            "label": "status",
            "offset": 30,
            "slot": "6",
            "type": "t_enum(LoanStatus)21573"
          }
        ],
        "numberOfBytes": "224"
      },
      "t_uint128": {
        "encoding": "inplace",
        "label": "uint128",
        "numberOfBytes": "16"
      },
      "t_uint256": {
        "encoding": "inplace",
        "label": "uint256",
        "numberOfBytes": "32"
      },
      "t_uint40": {
        "encoding": "inplace",
        "label": "uint40",
        "numberOfBytes": "5"
      }
    }
  }
}