{
  "address": "0xc1f5Ca9EB2B1Ae88fb717ab9f467dc7da70Ea333",
  "abi": [
    {
      "inputs": [
        {
          "internalType": "address",
          "name": "_settings",
          "type": "address"
        }
      ],
      "stateMutability": "nonpayable",
      "type": "constructor"
    },
    {
      "inputs": [],
      "name": "SETTINGS",
      "outputs": [
        {
          "internalType": "contract IOpenSkySettings",
          "name": "",
          "type": "address"
        }
      ],
      "stateMutability": "view",
      "type": "function"
    },
    {
      "inputs": [
        {
          "internalType": "uint256",
          "name": "reserveId",
          "type": "uint256"
        },
        {
          "internalType": "string",
          "name": "name",
          "type": "string"
        },
        {
          "internalType": "string",
          "name": "symbol",
          "type": "string"
        },
        {
          "internalType": "address",
          "name": "underlyingAsset",
          "type": "address"
        }
      ],
      "name": "create",
      "outputs": [
        {
          "internalType": "address",
          "name": "oTokenAddress",
          "type": "address"
        }
      ],
      "stateMutability": "nonpayable",
      "type": "function"
    }
  ],
  "transactionHash": "0x3f3b9d3c5d839d66996248f239518d65b4ac01cde44ddce2c0f1f15d8ac4da18",
  "args": [
    "0x12D182BE71BF456353FBc3aeFdae4C98465D9ef5"
  ],
  "solcInputHash": "597fe0c822de038e67f456c392a88115",
  "bytecode": "0x60a060405234801561001057600080fd5b5060405161390638038061390683398101604081905261002f91610040565b6001600160a01b0316608052610070565b60006020828403121561005257600080fd5b81516001600160a01b038116811461006957600080fd5b9392505050565b60805161386f61009760003960008181606f0152818160950152610174015261386f6000f3fe608060405234801561001057600080fd5b50600436106100365760003560e01c80635e08f3371461003b578063ade97ab51461006a575b600080fd5b61004e61004936600461029c565b610091565b6040516001600160a01b03909116815260200160405180910390f35b61004e7f000000000000000000000000000000000000000000000000000000000000000081565b60007f00000000000000000000000000000000000000000000000000000000000000006001600160a01b0316631755ff216040518163ffffffff1660e01b8152600401602060405180830381865afa1580156100f1573d6000803e3d6000fd5b505050506040513d601f19601f82011682018060405250810190610115919061031c565b6001600160a01b0316336001600160a01b0316146040518060400160405280600381526020016232303560e81b8152509061016c5760405162461bcd60e51b8152600401610163919061038d565b60405180910390fd5b5033858585857f000000000000000000000000000000000000000000000000000000000000000060405161019f906101d4565b6101ae969594939291906103a0565b604051809103906000f0801580156101ca573d6000803e3d6000fd5b5095945050505050565b613443806103f783390190565b634e487b7160e01b600052604160045260246000fd5b600082601f83011261020857600080fd5b813567ffffffffffffffff80821115610223576102236101e1565b604051601f8301601f19908116603f0116810190828211818310171561024b5761024b6101e1565b8160405283815286602085880101111561026457600080fd5b836020870160208301376000602085830101528094505050505092915050565b6001600160a01b038116811461029957600080fd5b50565b600080600080608085870312156102b257600080fd5b84359350602085013567ffffffffffffffff808211156102d157600080fd5b6102dd888389016101f7565b945060408701359150808211156102f357600080fd5b50610300878288016101f7565b925050606085013561031181610284565b939692955090935050565b60006020828403121561032e57600080fd5b815161033981610284565b9392505050565b6000815180845260005b818110156103665760208185018101518683018201520161034a565b81811115610378576000602083870101525b50601f01601f19169290920160200192915050565b6020815260006103396020830184610340565b600060018060a01b03808916835287602084015260c060408401526103c860c0840188610340565b83810360608501526103da8188610340565b9582166080850152509290921660a0909101525094935050505056fe6101c06040527f6e71edae12b1b97f4d1f60370fef10105fa2faae0126114a169c64845d6126c9610120523480156200003757600080fd5b5060405162003443380380620034438339810160408190526200005a91620002ec565b8280604051806040016040528060018152602001603160f81b81525086868160039080519060200190620000909291906200015c565b508051620000a69060049060208401906200015c565b5050825160209384012082519284019290922060c083815260e08290524660a0818152604080517f8b73c3c69bb8fe3d512ecc4cf759cc79239f7b179b0ffacaa9a75d522b39400f818a018190528183019890985260608101959095526080808601939093523085830152805180860390920182529390920190925280519401939093209092526101005250506001600160a01b03958616610160526101809490945284166101a05250501661014052620003d4565b8280546200016a9062000397565b90600052602060002090601f0160209004810192826200018e5760008555620001d9565b82601f10620001a957805160ff1916838001178555620001d9565b82800160010185558215620001d9579182015b82811115620001d9578251825591602001919060010190620001bc565b50620001e7929150620001eb565b5090565b5b80821115620001e75760008155600101620001ec565b80516001600160a01b03811681146200021a57600080fd5b919050565b634e487b7160e01b600052604160045260246000fd5b600082601f8301126200024757600080fd5b81516001600160401b03808211156200026457620002646200021f565b604051601f8301601f19908116603f011681019082821181831017156200028f576200028f6200021f565b81604052838152602092508683858801011115620002ac57600080fd5b600091505b83821015620002d05785820183015181830184015290820190620002b1565b83821115620002e25760008385830101525b9695505050505050565b60008060008060008060c087890312156200030657600080fd5b620003118762000202565b6020880151604089015191975095506001600160401b03808211156200033657600080fd5b620003448a838b0162000235565b955060608901519150808211156200035b57600080fd5b506200036a89828a0162000235565b9350506200037b6080880162000202565b91506200038b60a0880162000202565b90509295509295509295565b600181811c90821680620003ac57607f821691505b60208210811415620003ce57634e487b7160e01b600052602260045260246000fd5b50919050565b60805160a05160c05160e05161010051610120516101405161016051610180516101a051612f366200050d6000396000818161075c0152818161086101528181610fef0152818161108301526113570152600081816106a001528181610a3401528181610b0401528181610cd701528181610f360152818161129b0152818161145b0152611b93015260008181610641015281816106c90152818161096b01528181610a5e01528181610b3801528181610d0a01528181610e2801528181610ee001528181610f5f01528181611245015281816112c40152818161148f0152818161169d0152611bbc01526000818161050f015281816119c701528181611ce50152611f970152600061157001526000611ed201526000611f2101526000611efc01526000611e8001526000611ea90152612f366000f3fe6080604052600436106101c55760003560e01c806370a08231116100f7578063a9059cbb11610095578063beb44bd811610064578063beb44bd81461057e578063d505accf1461059e578063dd62ed3e146105be578063f5298aca1461060457600080fd5b8063a9059cbb146104dd578063ade97ab5146104fd578063b1bf962d14610549578063b6b55f251461055e57600080fd5b80637ecebe00116100d15780637ecebe001461046857806395d89b41146104885780639840c30a1461049d578063a457c2d7146104bd57600080fd5b806370a082311461040857806379cc6790146104285780637df5bd3b1461044857600080fd5b80631da24f3e11610164578063313ce5671161013e578063313ce567146103975780633644e515146103b357806339509351146103c857806342966c68146103e857600080fd5b80631da24f3e146103425780631f07e4df1461036257806323b872dd1461037757600080fd5b80630afbcdc9116101a05780630afbcdc914610286578063150b7a02146102bb578063156e29f6146102ff57806318160ddd1461031f57600080fd5b8062f714ce1461020957806306fdde031461022b578063095ea7b31461025657600080fd5b3661020457604080513381523460208201527f88a5966d370b9919b20f3e2c13ff65706f196a4e32cc2c12bf57088f88525874910160405180910390a1005b600080fd5b34801561021557600080fd5b5061022961022436600461294a565b610624565b005b34801561023757600080fd5b5061024061088d565b60405161024d91906129a6565b60405180910390f35b34801561026257600080fd5b506102766102713660046129d9565b61091f565b604051901515815260200161024d565b34801561029257600080fd5b506102a66102a1366004612a05565b610936565b6040805192835260208301919091520161024d565b3480156102c757600080fd5b506102e66102d6366004612a93565b630a85bd0160e11b949350505050565b6040516001600160e01b0319909116815260200161024d565b34801561030b57600080fd5b5061022961031a366004612b57565b61094e565b34801561032b57600080fd5b50610334610a0a565b60405190815260200161024d565b34801561034e57600080fd5b5061033461035d366004612a05565b610ade565b34801561036e57600080fd5b50610334610ae9565b34801561038357600080fd5b50610276610392366004612b8c565b610bc4565b3480156103a357600080fd5b506040516012815260200161024d565b3480156103bf57600080fd5b50610334610c70565b3480156103d457600080fd5b506102766103e33660046129d9565b610c7f565b3480156103f457600080fd5b50610229610403366004612bcd565b610cbb565b34801561041457600080fd5b50610334610423366004612a05565b610cc8565b34801561043457600080fd5b506102296104433660046129d9565b610d8a565b34801561045457600080fd5b50610229610463366004612be6565b610e0b565b34801561047457600080fd5b50610334610483366004612a05565b610e96565b34801561049457600080fd5b50610240610eb4565b3480156104a957600080fd5b506102296104b8366004612a05565b610ec3565b3480156104c957600080fd5b506102766104d83660046129d9565b611177565b3480156104e957600080fd5b506102766104f83660046129d9565b611210565b34801561050957600080fd5b506105317f000000000000000000000000000000000000000000000000000000000000000081565b6040516001600160a01b03909116815260200161024d565b34801561055557600080fd5b5061033461121d565b34801561056a57600080fd5b50610229610579366004612bcd565b611228565b34801561058a57600080fd5b50610334610599366004612a05565b611440565b3480156105aa57600080fd5b506102296105b9366004612c08565b61151c565b3480156105ca57600080fd5b506103346105d9366004612c7f565b6001600160a01b03918216600090815260016020908152604080832093909416825291909152205490565b34801561061057600080fd5b5061022961061f366004612b57565b611680565b60408051808201909152600381526232303560e81b6020820152337f00000000000000000000000000000000000000000000000000000000000000006001600160a01b0316146106905760405162461bcd60e51b815260040161068791906129a6565b60405180910390fd5b506040516391541e0560e01b81527f000000000000000000000000000000000000000000000000000000000000000060048201526000907f00000000000000000000000000000000000000000000000000000000000000006001600160a01b0316906391541e059060240161018060405180830381865afa158015610719573d6000803e3d6000fd5b505050506040513d601f19601f8201168201806040525081019061073d9190612cf9565b9050806101600151156108545760608101516040516001600160a01b037f000000000000000000000000000000000000000000000000000000000000000081166024830152604482018690528481166064830152600092169060840160408051601f198184030181529181526020820180516001600160e01b0316632940be8560e01b179052516107ce9190612dc2565b600060405180830381855af49150503d8060008114610809576040519150601f19603f3d011682016040523d82523d6000602084013e61080e565b606091505b50509050806040518060400160405280600381526020016235303360e81b8152509061084d5760405162461bcd60e51b815260040161068791906129a6565b5050505050565b6108886001600160a01b037f0000000000000000000000000000000000000000000000000000000000000000168385611736565b505050565b60606003805461089c90612dde565b80601f01602080910402602001604051908101604052809291908181526020018280546108c890612dde565b80156109155780601f106108ea57610100808354040283529160200191610915565b820191906000526020600020905b8154815290600101906020018083116108f857829003601f168201915b5050505050905090565b600061092c338484611788565b5060015b92915050565b600080610942836118ac565b60025491509150915091565b60408051808201909152600381526232303560e81b6020820152337f00000000000000000000000000000000000000000000000000000000000000006001600160a01b0316146109b15760405162461bcd60e51b815260040161068791906129a6565b5060006109be83836118c7565b60408051808201909152600381526203331360ec1b6020820152909150816109f95760405162461bcd60e51b815260040161068791906129a6565b50610a04848261199f565b50505050565b600080610a1660025490565b905080610a2557600091505090565b60405163dcc5cded60e01b81527f00000000000000000000000000000000000000000000000000000000000000006004820152610ad8907f00000000000000000000000000000000000000000000000000000000000000006001600160a01b03169063dcc5cded90602401602060405180830381865afa158015610aad573d6000803e3d6000fd5b505050506040513d601f19601f82011682018060405250810190610ad19190612e13565b8290611ac8565b91505090565b6000610930826118ac565b600080610af560025490565b6040516391541e0560e01b81527f000000000000000000000000000000000000000000000000000000000000000060048201529091506000906001600160a01b037f000000000000000000000000000000000000000000000000000000000000000016906391541e059060240161018060405180830381865afa158015610b80573d6000803e3d6000fd5b505050506040513d601f19601f82011682018060405250810190610ba49190612cf9565b608001516001600160801b03169050610bbd8282611ac8565b9250505090565b6000610bd1848484611b84565b6001600160a01b038416600090815260016020908152604080832033845290915290205482811015610c565760405162461bcd60e51b815260206004820152602860248201527f45524332303a207472616e7366657220616d6f756e74206578636565647320616044820152676c6c6f77616e636560c01b6064820152608401610687565b610c638533858403611788565b60019150505b9392505050565b6000610c7a611e7c565b905090565b3360008181526001602090815260408083206001600160a01b0387168452909152812054909161092c918590610cb6908690612e42565b611788565b610cc53382611f6f565b50565b60405163dcc5cded60e01b81527f0000000000000000000000000000000000000000000000000000000000000000600482015260009081906001600160a01b037f0000000000000000000000000000000000000000000000000000000000000000169063dcc5cded90602401602060405180830381865afa158015610d51573d6000803e3d6000fd5b505050506040513d601f19601f82011682018060405250810190610d759190612e13565b9050610c6981610d84856118ac565b90611ac8565b6000610d9683336105d9565b905081811015610df45760405162461bcd60e51b8152602060048201526024808201527f45524332303a206275726e20616d6f756e74206578636565647320616c6c6f77604482015263616e636560e01b6064820152608401610687565b610e018333848403611788565b6108888383611f6f565b60408051808201909152600381526232303560e81b6020820152337f00000000000000000000000000000000000000000000000000000000000000006001600160a01b031614610e6e5760405162461bcd60e51b815260040161068791906129a6565b5081610e78575050565b610e92610e83611f93565b610e8d84846118c7565b61199f565b5050565b6001600160a01b038116600090815260056020526040812054610930565b60606004805461089c90612dde565b60408051808201909152600381526232303560e81b6020820152337f00000000000000000000000000000000000000000000000000000000000000006001600160a01b031614610f265760405162461bcd60e51b815260040161068791906129a6565b506040516391541e0560e01b81527f000000000000000000000000000000000000000000000000000000000000000060048201526000907f00000000000000000000000000000000000000000000000000000000000000006001600160a01b0316906391541e059060240161018060405180830381865afa158015610faf573d6000803e3d6000fd5b505050506040513d601f19601f82011682018060405250810190610fd39190612cf9565b606081015160405163244a775d60e11b81526001600160a01b037f000000000000000000000000000000000000000000000000000000000000000081166004830152929350911690634894eeba90602401602060405180830381865afa158015611041573d6000803e3d6000fd5b505050506040513d601f19601f820116820180604052508101906110659190612e5a565b6001600160a01b0316826001600160a01b0316141580156110b857507f00000000000000000000000000000000000000000000000000000000000000006001600160a01b0316826001600160a01b031614155b6040518060400160405280600381526020016233303560e81b815250906110f25760405162461bcd60e51b815260040161068791906129a6565b50610e926110fe611f93565b6040516370a0823160e01b81523060048201526001600160a01b038516906370a0823190602401602060405180830381865afa158015611142573d6000803e3d6000fd5b505050506040513d601f19601f820116820180604052508101906111669190612e13565b6001600160a01b0385169190611736565b3360009081526001602090815260408083206001600160a01b0386168452909152812054828110156111f95760405162461bcd60e51b815260206004820152602560248201527f45524332303a2064656372656173656420616c6c6f77616e63652062656c6f77604482015264207a65726f60d81b6064820152608401610687565b6112063385858403611788565b5060019392505050565b600061092c338484611b84565b6000610c7a60025490565b60408051808201909152600381526232303560e81b6020820152337f00000000000000000000000000000000000000000000000000000000000000006001600160a01b03161461128b5760405162461bcd60e51b815260040161068791906129a6565b506040516391541e0560e01b81527f000000000000000000000000000000000000000000000000000000000000000060048201526000907f00000000000000000000000000000000000000000000000000000000000000006001600160a01b0316906391541e059060240161018060405180830381865afa158015611314573d6000803e3d6000fd5b505050506040513d601f19601f820116820180604052508101906113389190612cf9565b905080610160015115610e925760608101516040516001600160a01b037f00000000000000000000000000000000000000000000000000000000000000008116602483015260448201859052600092169060640160408051601f198184030181529181526020820180516001600160e01b03166301d5326d60e21b179052516113c19190612dc2565b600060405180830381855af49150503d80600081146113fc576040519150601f19603f3d011682016040523d82523d6000602084013e611401565b606091505b50509050806040518060400160405280600381526020016235303360e81b81525090610a045760405162461bcd60e51b815260040161068791906129a6565b60008061144c836118ac565b6040516391541e0560e01b81527f000000000000000000000000000000000000000000000000000000000000000060048201529091506000906001600160a01b037f000000000000000000000000000000000000000000000000000000000000000016906391541e059060240161018060405180830381865afa1580156114d7573d6000803e3d6000fd5b505050506040513d601f19601f820116820180604052508101906114fb9190612cf9565b608001516001600160801b031690506115148282611ac8565b949350505050565b8342111561156c5760405162461bcd60e51b815260206004820152601d60248201527f45524332305065726d69743a206578706972656420646561646c696e650000006044820152606401610687565b60007f000000000000000000000000000000000000000000000000000000000000000088888861159b8c612017565b6040805160208101969096526001600160a01b0394851690860152929091166060840152608083015260a082015260c0810186905260e00160405160208183030381529060405280519060200120905060006115f68261203f565b905060006116068287878761208d565b9050896001600160a01b0316816001600160a01b0316146116695760405162461bcd60e51b815260206004820152601e60248201527f45524332305065726d69743a20696e76616c6964207369676e617475726500006044820152606401610687565b6116748a8a8a611788565b50505050505050505050565b60408051808201909152600381526232303560e81b6020820152337f00000000000000000000000000000000000000000000000000000000000000006001600160a01b0316146116e35760405162461bcd60e51b815260040161068791906129a6565b5060006116f083836118c7565b60408051808201909152600381526203331360ec1b60208201529091508161172b5760405162461bcd60e51b815260040161068791906129a6565b50610a048482611f6f565b604080516001600160a01b038416602482015260448082018490528251808303909101815260649091019091526020810180516001600160e01b031663a9059cbb60e01b1790526108889084906120b5565b6001600160a01b0383166117ea5760405162461bcd60e51b8152602060048201526024808201527f45524332303a20617070726f76652066726f6d20746865207a65726f206164646044820152637265737360e01b6064820152608401610687565b6001600160a01b03821661184b5760405162461bcd60e51b815260206004820152602260248201527f45524332303a20617070726f766520746f20746865207a65726f206164647265604482015261737360f01b6064820152608401610687565b6001600160a01b0383811660008181526001602090815260408083209487168084529482529182902085905590518481527f8c5be1e5ebec7d5bd14f71427d1e84f3dd0314c0f7b2291e5b200ac8c7c3b925910160405180910390a3505050565b6001600160a01b031660009081526020819052604090205490565b60408051808201909152600381526218981960e91b6020820152600090826119025760405162461bcd60e51b815260040161068791906129a6565b506000611910600284612e77565b90506b033b2e3c9fd0803ce800000061192b82600019612e99565b6119359190612e77565b8411156040518060400160405280600381526020016203130360ec1b815250906119725760405162461bcd60e51b815260040161068791906129a6565b50828161198b6b033b2e3c9fd0803ce800000087612eb0565b6119959190612e42565b6115149190612e77565b60006119aa836118ac565b905060006119b760025490565b90506119c38484612187565b60007f00000000000000000000000000000000000000000000000000000000000000006001600160a01b0316636d6a723c6040518163ffffffff1660e01b8152600401602060405180830381865afa158015611a23573d6000803e3d6000fd5b505050506040513d601f19601f82011682018060405250810190611a479190612e5a565b90506001600160a01b0381161561084d576040516318c39f1760e11b81526001600160a01b03868116600483015260248201859052604482018490528216906331873e2e90606401600060405180830381600087803b158015611aa957600080fd5b505af1158015611abd573d6000803e3d6000fd5b505050505050505050565b6000821580611ad5575081155b15611ae257506000610930565b81611afa60026b033b2e3c9fd0803ce8000000612e77565b611b0690600019612e99565b611b109190612e77565b8311156040518060400160405280600381526020016203130360ec1b81525090611b4d5760405162461bcd60e51b815260040161068791906129a6565b506b033b2e3c9fd0803ce8000000611b66600282612e77565b611b708486612eb0565b611b7a9190612e42565b610c699190612e77565b60405163dcc5cded60e01b81527f000000000000000000000000000000000000000000000000000000000000000060048201526000907f00000000000000000000000000000000000000000000000000000000000000006001600160a01b03169063dcc5cded90602401602060405180830381865afa158015611c0b573d6000803e3d6000fd5b505050506040513d601f19601f82011682018060405250810190611c2f9190612e13565b90506000611c3d83836118c7565b60408051808201909152600381526203331360ec1b602082015290915081611c785760405162461bcd60e51b815260040161068791906129a6565b5060408051808201909152600381526233313160e81b60208201526001600160801b03821115611cbb5760405162461bcd60e51b815260040161068791906129a6565b506000611cc7866118ac565b90506000611cd4866118ac565b9050611ce1878785612266565b60007f00000000000000000000000000000000000000000000000000000000000000006001600160a01b0316636d6a723c6040518163ffffffff1660e01b8152600401602060405180830381865afa158015611d41573d6000803e3d6000fd5b505050506040513d601f19601f82011682018060405250810190611d659190612e5a565b90506001600160a01b03811615611e72576000611d8160025490565b6040516318c39f1760e11b81526001600160a01b038b811660048301526024820187905260448201839052919250908316906331873e2e90606401600060405180830381600087803b158015611dd657600080fd5b505af1158015611dea573d6000803e3d6000fd5b50505050876001600160a01b0316896001600160a01b031614611abd576040516318c39f1760e11b81526001600160a01b03898116600483015260248201859052604482018390528316906331873e2e90606401600060405180830381600087803b158015611e5857600080fd5b505af1158015611e6c573d6000803e3d6000fd5b50505050505b5050505050505050565b60007f0000000000000000000000000000000000000000000000000000000000000000461415611ecb57507f000000000000000000000000000000000000000000000000000000000000000090565b50604080517f00000000000000000000000000000000000000000000000000000000000000006020808301919091527f0000000000000000000000000000000000000000000000000000000000000000828401527f000000000000000000000000000000000000000000000000000000000000000060608301524660808301523060a0808401919091528351808403909101815260c0909201909252805191012090565b6000611f7a836118ac565b90506000611f8760025490565b90506119c38484612434565b60007f00000000000000000000000000000000000000000000000000000000000000006001600160a01b0316633d6a38446040518163ffffffff1660e01b8152600401602060405180830381865afa158015611ff3573d6000803e3d6000fd5b505050506040513d601f19601f82011682018060405250810190610c7a9190612e5a565b6001600160a01b03811660009081526005602052604090208054600181018255905b50919050565b600061093061204c611e7c565b8360405161190160f01b6020820152602281018390526042810182905260009060620160405160208183030381529060405280519060200120905092915050565b600080600061209e87878787612582565b915091506120ab8161266f565b5095945050505050565b600061210a826040518060400160405280602081526020017f5361666545524332303a206c6f772d6c6576656c2063616c6c206661696c6564815250856001600160a01b031661282a9092919063ffffffff16565b80519091501561088857808060200190518101906121289190612ecf565b6108885760405162461bcd60e51b815260206004820152602a60248201527f5361666545524332303a204552433230206f7065726174696f6e20646964206e6044820152691bdd081cdd58d8d9595960b21b6064820152608401610687565b6001600160a01b0382166121dd5760405162461bcd60e51b815260206004820152601f60248201527f45524332303a206d696e7420746f20746865207a65726f2061646472657373006044820152606401610687565b80600260008282546121ef9190612e42565b90915550506001600160a01b0382166000908152602081905260408120805483929061221c908490612e42565b90915550506040518181526001600160a01b038316906000907fddf252ad1be2c89b69c2b068fc378daa952ba7f163c4a11628f55a4df523b3ef9060200160405180910390a35050565b6001600160a01b0383166122ca5760405162461bcd60e51b815260206004820152602560248201527f45524332303a207472616e736665722066726f6d20746865207a65726f206164604482015264647265737360d81b6064820152608401610687565b6001600160a01b03821661232c5760405162461bcd60e51b815260206004820152602360248201527f45524332303a207472616e7366657220746f20746865207a65726f206164647260448201526265737360e81b6064820152608401610687565b6001600160a01b038316600090815260208190526040902054818110156123a45760405162461bcd60e51b815260206004820152602660248201527f45524332303a207472616e7366657220616d6f756e7420657863656564732062604482015265616c616e636560d01b6064820152608401610687565b6001600160a01b038085166000908152602081905260408082208585039055918516815290812080548492906123db908490612e42565b92505081905550826001600160a01b0316846001600160a01b03167fddf252ad1be2c89b69c2b068fc378daa952ba7f163c4a11628f55a4df523b3ef8460405161242791815260200190565b60405180910390a3610a04565b6001600160a01b0382166124945760405162461bcd60e51b815260206004820152602160248201527f45524332303a206275726e2066726f6d20746865207a65726f206164647265736044820152607360f81b6064820152608401610687565b6001600160a01b038216600090815260208190526040902054818110156125085760405162461bcd60e51b815260206004820152602260248201527f45524332303a206275726e20616d6f756e7420657863656564732062616c616e604482015261636560f01b6064820152608401610687565b6001600160a01b0383166000908152602081905260408120838303905560028054849290612537908490612e99565b90915550506040518281526000906001600160a01b038516907fddf252ad1be2c89b69c2b068fc378daa952ba7f163c4a11628f55a4df523b3ef9060200160405180910390a3505050565b6000807f7fffffffffffffffffffffffffffffff5d576e7357a4501ddfe92f46681b20a08311156125b95750600090506003612666565b8460ff16601b141580156125d157508460ff16601c14155b156125e25750600090506004612666565b6040805160008082526020820180845289905260ff881692820192909252606081018690526080810185905260019060a0016020604051602081039080840390855afa158015612636573d6000803e3d6000fd5b5050604051601f1901519150506001600160a01b03811661265f57600060019250925050612666565b9150600090505b94509492505050565b600081600481111561268357612683612eea565b141561268c5750565b60018160048111156126a0576126a0612eea565b14156126ee5760405162461bcd60e51b815260206004820152601860248201527f45434453413a20696e76616c6964207369676e617475726500000000000000006044820152606401610687565b600281600481111561270257612702612eea565b14156127505760405162461bcd60e51b815260206004820152601f60248201527f45434453413a20696e76616c6964207369676e6174757265206c656e677468006044820152606401610687565b600381600481111561276457612764612eea565b14156127bd5760405162461bcd60e51b815260206004820152602260248201527f45434453413a20696e76616c6964207369676e6174757265202773272076616c604482015261756560f01b6064820152608401610687565b60048160048111156127d1576127d1612eea565b1415610cc55760405162461bcd60e51b815260206004820152602260248201527f45434453413a20696e76616c6964207369676e6174757265202776272076616c604482015261756560f01b6064820152608401610687565b6060611514848460008585843b6128835760405162461bcd60e51b815260206004820152601d60248201527f416464726573733a2063616c6c20746f206e6f6e2d636f6e74726163740000006044820152606401610687565b600080866001600160a01b0316858760405161289f9190612dc2565b60006040518083038185875af1925050503d80600081146128dc576040519150601f19603f3d011682016040523d82523d6000602084013e6128e1565b606091505b50915091506128f18282866128fc565b979650505050505050565b6060831561290b575081610c69565b82511561291b5782518084602001fd5b8160405162461bcd60e51b815260040161068791906129a6565b6001600160a01b0381168114610cc557600080fd5b6000806040838503121561295d57600080fd5b82359150602083013561296f81612935565b809150509250929050565b60005b8381101561299557818101518382015260200161297d565b83811115610a045750506000910152565b60208152600082518060208401526129c581604085016020870161297a565b601f01601f19169190910160400192915050565b600080604083850312156129ec57600080fd5b82356129f781612935565b946020939093013593505050565b600060208284031215612a1757600080fd5b8135610c6981612935565b634e487b7160e01b600052604160045260246000fd5b604051610180810167ffffffffffffffff81118282101715612a5c57612a5c612a22565b60405290565b604051601f8201601f1916810167ffffffffffffffff81118282101715612a8b57612a8b612a22565b604052919050565b60008060008060808587031215612aa957600080fd5b8435612ab481612935565b9350602085810135612ac581612935565b935060408601359250606086013567ffffffffffffffff80821115612ae957600080fd5b818801915088601f830112612afd57600080fd5b813581811115612b0f57612b0f612a22565b612b21601f8201601f19168501612a62565b91508082528984828501011115612b3757600080fd5b808484018584013760008482840101525080935050505092959194509250565b600080600060608486031215612b6c57600080fd5b8335612b7781612935565b95602085013595506040909401359392505050565b600080600060608486031215612ba157600080fd5b8335612bac81612935565b92506020840135612bbc81612935565b929592945050506040919091013590565b600060208284031215612bdf57600080fd5b5035919050565b60008060408385031215612bf957600080fd5b50508035926020909101359150565b600080600080600080600060e0888a031215612c2357600080fd5b8735612c2e81612935565b96506020880135612c3e81612935565b95506040880135945060608801359350608088013560ff81168114612c6257600080fd5b9699959850939692959460a0840135945060c09093013592915050565b60008060408385031215612c9257600080fd5b8235612c9d81612935565b9150602083013561296f81612935565b8051612cb881612935565b919050565b80516001600160801b0381168114612cb857600080fd5b805164ffffffffff81168114612cb857600080fd5b80518015158114612cb857600080fd5b60006101808284031215612d0c57600080fd5b612d14612a38565b82518152612d2460208401612cad565b6020820152612d3560408401612cad565b6040820152612d4660608401612cad565b6060820152612d5760808401612cbd565b608082015260a083015160a082015260c083015160c0820152612d7c60e08401612cd4565b60e08201526101008381015190820152610120612d9a818501612cad565b908201526101408381015190820152610160612db7818501612ce9565b908201529392505050565b60008251612dd481846020870161297a565b9190910192915050565b600181811c90821680612df257607f821691505b6020821081141561203957634e487b7160e01b600052602260045260246000fd5b600060208284031215612e2557600080fd5b5051919050565b634e487b7160e01b600052601160045260246000fd5b60008219821115612e5557612e55612e2c565b500190565b600060208284031215612e6c57600080fd5b8151610c6981612935565b600082612e9457634e487b7160e01b600052601260045260246000fd5b500490565b600082821015612eab57612eab612e2c565b500390565b6000816000190483118215151615612eca57612eca612e2c565b500290565b600060208284031215612ee157600080fd5b610c6982612ce9565b634e487b7160e01b600052602160045260246000fdfea26469706673582212206cf8fec893a01bfca01b7ffeacb2446ed9d9f1276175c38ba4247d819bc10a2c64736f6c634300080a0033a264697066735822122038774c0a7eefc540d8636973660433c200daa4cccdba3d699fb0a71c722e18f264736f6c634300080a0033",
  "libraries": {},
  "devdoc": {
    "kind": "dev",
    "methods": {},
    "version": 1
  },
  "userdoc": {
    "kind": "user",
    "methods": {},
    "version": 1
  },
  "storageLayout": {
    "storage": [],
    "types": null
  }
}