{
  "address": "0x233Da04281824c745Dd25176A6e11f64964f01F9",
  "abi": [
    {
      "inputs": [
        {
          "internalType": "address",
          "name": "_settings",
          "type": "address"
        }
      ],
      "stateMutability": "nonpayable",
      "type": "constructor"
    },
    {
      "anonymous": false,
      "inputs": [
        {
          "indexed": true,
          "internalType": "uint256",
          "name": "reserveId",
          "type": "uint256"
        },
        {
          "indexed": false,
          "internalType": "string",
          "name": "name",
          "type": "string"
        },
        {
          "indexed": false,
          "internalType": "string",
          "name": "symbol",
          "type": "string"
        },
        {
          "indexed": true,
          "internalType": "address",
          "name": "underlyingAsset",
          "type": "address"
        }
      ],
      "name": "Create",
      "type": "event"
    },
    {
      "inputs": [],
      "name": "SETTINGS",
      "outputs": [
        {
          "internalType": "contract IOpenSkySettings",
          "name": "",
          "type": "address"
        }
      ],
      "stateMutability": "view",
      "type": "function"
    },
    {
      "inputs": [
        {
          "internalType": "uint256",
          "name": "reserveId",
          "type": "uint256"
        },
        {
          "internalType": "string",
          "name": "name",
          "type": "string"
        },
        {
          "internalType": "string",
          "name": "symbol",
          "type": "string"
        },
        {
          "internalType": "address",
          "name": "underlyingAsset",
          "type": "address"
        }
      ],
      "name": "create",
      "outputs": [
        {
          "internalType": "address",
          "name": "oTokenAddress",
          "type": "address"
        }
      ],
      "stateMutability": "nonpayable",
      "type": "function"
    }
  ],
  "transactionHash": "0xa002ac6ce4be0f7a0b67fb0d0d8fb2ca82de836f2bc143c233ca892d93ed19a1",
  "args": [
    "0x44692709AB4979aC917b55F6608b782bd5Ef7Bc8"
  ],
  "solcInputHash": "fb80df0c083f4166f8e17cc8f4ebb48d",
  "bytecode": "0x60a060405234801561001057600080fd5b50604051613abc380380613abc83398101604081905261002f91610040565b6001600160a01b0316608052610070565b60006020828403121561005257600080fd5b81516001600160a01b038116811461006957600080fd5b9392505050565b608051613a2561009760003960008181606f01528181609501526101740152613a256000f3fe608060405234801561001057600080fd5b50600436106100365760003560e01c80635e08f3371461003b578063ade97ab51461006a575b600080fd5b61004e6100493660046102e2565b610091565b6040516001600160a01b03909116815260200160405180910390f35b61004e7f000000000000000000000000000000000000000000000000000000000000000081565b60007f00000000000000000000000000000000000000000000000000000000000000006001600160a01b0316631755ff216040518163ffffffff1660e01b8152600401602060405180830381865afa1580156100f1573d6000803e3d6000fd5b505050506040513d601f19601f820116820180604052508101906101159190610362565b6001600160a01b0316336001600160a01b0316146040518060400160405280600381526020016232303560e81b8152509061016c5760405162461bcd60e51b815260040161016391906103d3565b60405180910390fd5b5033858585857f000000000000000000000000000000000000000000000000000000000000000060405161019f90610219565b6101ae969594939291906103e6565b604051809103906000f0801580156101ca573d6000803e3d6000fd5b509050816001600160a01b0316857f371bf97bfa9c54c26bb6834711998fb3fd0a2535a9b62470611dd85c9074fb38868660405161020992919061043c565b60405180910390a3949350505050565b613585806200046b83390190565b634e487b7160e01b600052604160045260246000fd5b600082601f83011261024e57600080fd5b813567ffffffffffffffff8082111561026957610269610227565b604051601f8301601f19908116603f0116810190828211818310171561029157610291610227565b816040528381528660208588010111156102aa57600080fd5b836020870160208301376000602085830101528094505050505092915050565b6001600160a01b03811681146102df57600080fd5b50565b600080600080608085870312156102f857600080fd5b84359350602085013567ffffffffffffffff8082111561031757600080fd5b6103238883890161023d565b9450604087013591508082111561033957600080fd5b506103468782880161023d565b9250506060850135610357816102ca565b939692955090935050565b60006020828403121561037457600080fd5b815161037f816102ca565b9392505050565b6000815180845260005b818110156103ac57602081850181015186830182015201610390565b818111156103be576000602083870101525b50601f01601f19169290920160200192915050565b60208152600061037f6020830184610386565b600060018060a01b03808916835287602084015260c0604084015261040e60c0840188610386565b83810360608501526104208188610386565b9582166080850152509290921660a09091015250949350505050565b60408152600061044f6040830185610386565b82810360208401526104618185610386565b9594505050505056fe6101c06040527f6e71edae12b1b97f4d1f60370fef10105fa2faae0126114a169c64845d6126c9610120523480156200003757600080fd5b5060405162003585380380620035858339810160408190526200005a91620002ec565b8280604051806040016040528060018152602001603160f81b81525086868160039080519060200190620000909291906200015c565b508051620000a69060049060208401906200015c565b5050825160209384012082519284019290922060c083815260e08290524660a0818152604080517f8b73c3c69bb8fe3d512ecc4cf759cc79239f7b179b0ffacaa9a75d522b39400f818a018190528183019890985260608101959095526080808601939093523085830152805180860390920182529390920190925280519401939093209092526101005250506001600160a01b03958616610160526101809490945284166101a05250501661014052620003d4565b8280546200016a9062000397565b90600052602060002090601f0160209004810192826200018e5760008555620001d9565b82601f10620001a957805160ff1916838001178555620001d9565b82800160010185558215620001d9579182015b82811115620001d9578251825591602001919060010190620001bc565b50620001e7929150620001eb565b5090565b5b80821115620001e75760008155600101620001ec565b80516001600160a01b03811681146200021a57600080fd5b919050565b634e487b7160e01b600052604160045260246000fd5b600082601f8301126200024757600080fd5b81516001600160401b03808211156200026457620002646200021f565b604051601f8301601f19908116603f011681019082821181831017156200028f576200028f6200021f565b81604052838152602092508683858801011115620002ac57600080fd5b600091505b83821015620002d05785820183015181830184015290820190620002b1565b83821115620002e25760008385830101525b9695505050505050565b60008060008060008060c087890312156200030657600080fd5b620003118762000202565b6020880151604089015191975095506001600160401b03808211156200033657600080fd5b620003448a838b0162000235565b955060608901519150808211156200035b57600080fd5b506200036a89828a0162000235565b9350506200037b6080880162000202565b91506200038b60a0880162000202565b90509295509295509295565b600181811c90821680620003ac57607f821691505b60208210811415620003ce57634e487b7160e01b600052602260045260246000fd5b50919050565b60805160a05160c05160e05161010051610120516101405161016051610180516101a0516130786200050d6000396000818161075c01528181610861015281816110af0152818161114301526114170152600081816106a001528181610aac01528181610b7c01528181610d4f01528181610ff60152818161135b0152818161154e0152611cc1015260008181610641015281816106c90152818161099e01528181610ad601528181610bb001528181610d8201528181610ea501528181610fa00152818161101f015281816113050152818161138401528181611582015281816117900152611cea01526000818161050f01528181611afb01528181611e1301526120b60152600061166301526000611ff1015260006120400152600061201b01526000611f9f01526000611fc801526130786000f3fe6080604052600436106101c55760003560e01c806370a08231116100f7578063a9059cbb11610095578063beb44bd811610064578063beb44bd81461057e578063d505accf1461059e578063dd62ed3e146105be578063f5298aca1461060457600080fd5b8063a9059cbb146104dd578063ade97ab5146104fd578063b1bf962d14610549578063b6b55f251461055e57600080fd5b80637ecebe00116100d15780637ecebe001461046857806395d89b41146104885780639840c30a1461049d578063a457c2d7146104bd57600080fd5b806370a082311461040857806379cc6790146104285780637df5bd3b1461044857600080fd5b80631da24f3e11610164578063313ce5671161013e578063313ce567146103975780633644e515146103b357806339509351146103c857806342966c68146103e857600080fd5b80631da24f3e146103425780631f07e4df1461036257806323b872dd1461037757600080fd5b80630afbcdc9116101a05780630afbcdc914610286578063150b7a02146102bb578063156e29f6146102ff57806318160ddd1461031f57600080fd5b8062f714ce1461020957806306fdde031461022b578063095ea7b31461025657600080fd5b3661020457604080513381523460208201527f88a5966d370b9919b20f3e2c13ff65706f196a4e32cc2c12bf57088f88525874910160405180910390a1005b600080fd5b34801561021557600080fd5b50610229610224366004612a6b565b610624565b005b34801561023757600080fd5b506102406108c0565b60405161024d9190612ac7565b60405180910390f35b34801561026257600080fd5b50610276610271366004612afa565b610952565b604051901515815260200161024d565b34801561029257600080fd5b506102a66102a1366004612b26565b610969565b6040805192835260208301919091520161024d565b3480156102c757600080fd5b506102e66102d6366004612bb4565b630a85bd0160e11b949350505050565b6040516001600160e01b0319909116815260200161024d565b34801561030b57600080fd5b5061022961031a366004612c78565b610981565b34801561032b57600080fd5b50610334610a82565b60405190815260200161024d565b34801561034e57600080fd5b5061033461035d366004612b26565b610b56565b34801561036e57600080fd5b50610334610b61565b34801561038357600080fd5b50610276610392366004612cad565b610c3c565b3480156103a357600080fd5b506040516012815260200161024d565b3480156103bf57600080fd5b50610334610ce8565b3480156103d457600080fd5b506102766103e3366004612afa565b610cf7565b3480156103f457600080fd5b50610229610403366004612cee565b610d33565b34801561041457600080fd5b50610334610423366004612b26565b610d40565b34801561043457600080fd5b50610229610443366004612afa565b610e02565b34801561045457600080fd5b50610229610463366004612d07565b610e88565b34801561047457600080fd5b50610334610483366004612b26565b610f56565b34801561049457600080fd5b50610240610f74565b3480156104a957600080fd5b506102296104b8366004612b26565b610f83565b3480156104c957600080fd5b506102766104d8366004612afa565b611237565b3480156104e957600080fd5b506102766104f8366004612afa565b6112d0565b34801561050957600080fd5b506105317f000000000000000000000000000000000000000000000000000000000000000081565b6040516001600160a01b03909116815260200161024d565b34801561055557600080fd5b506103346112dd565b34801561056a57600080fd5b50610229610579366004612cee565b6112e8565b34801561058a57600080fd5b50610334610599366004612b26565b611533565b3480156105aa57600080fd5b506102296105b9366004612d29565b61160f565b3480156105ca57600080fd5b506103346105d9366004612da0565b6001600160a01b03918216600090815260016020908152604080832093909416825291909152205490565b34801561061057600080fd5b5061022961061f366004612c78565b611773565b60408051808201909152600381526232303560e81b6020820152337f00000000000000000000000000000000000000000000000000000000000000006001600160a01b0316146106905760405162461bcd60e51b81526004016106879190612ac7565b60405180910390fd5b506040516391541e0560e01b81527f000000000000000000000000000000000000000000000000000000000000000060048201526000907f00000000000000000000000000000000000000000000000000000000000000006001600160a01b0316906391541e059060240161018060405180830381865afa158015610719573d6000803e3d6000fd5b505050506040513d601f19601f8201168201806040525081019061073d9190612e1a565b9050806101600151156108545760608101516040516001600160a01b037f000000000000000000000000000000000000000000000000000000000000000081166024830152604482018690528481166064830152600092169060840160408051601f198184030181529181526020820180516001600160e01b0316632940be8560e01b179052516107ce9190612ee3565b600060405180830381855af49150503d8060008114610809576040519150601f19603f3d011682016040523d82523d6000602084013e61080e565b606091505b50509050806040518060400160405280600381526020016235303360e81b8152509061084d5760405162461bcd60e51b81526004016106879190612ac7565b5050610888565b6108886001600160a01b037f000000000000000000000000000000000000000000000000000000000000000016838561186a565b6040518381527f5b6b431d4476a211bb7d41c20d1aab9ae2321deee0d20be3d9fc9b1093fa6e3d9060200160405180910390a1505050565b6060600380546108cf90612eff565b80601f01602080910402602001604051908101604052809291908181526020018280546108fb90612eff565b80156109485780601f1061091d57610100808354040283529160200191610948565b820191906000526020600020905b81548152906001019060200180831161092b57829003601f168201915b5050505050905090565b600061095f3384846118bc565b5060015b92915050565b600080610975836119e0565b60025491509150915091565b60408051808201909152600381526232303560e81b6020820152337f00000000000000000000000000000000000000000000000000000000000000006001600160a01b0316146109e45760405162461bcd60e51b81526004016106879190612ac7565b5060006109f183836119fb565b60408051808201909152600381526203331360ec1b602082015290915081610a2c5760405162461bcd60e51b81526004016106879190612ac7565b50610a378482611ad3565b60408051848152602081018490526001600160a01b038616917f4c209b5fc8ad50758f13e2e1088ba56a560dff690a1c6fef26394f4c03821c4f91015b60405180910390a250505050565b600080610a8e60025490565b905080610a9d57600091505090565b60405163dcc5cded60e01b81527f00000000000000000000000000000000000000000000000000000000000000006004820152610b50907f00000000000000000000000000000000000000000000000000000000000000006001600160a01b03169063dcc5cded90602401602060405180830381865afa158015610b25573d6000803e3d6000fd5b505050506040513d601f19601f82011682018060405250810190610b499190612f34565b8290611bf6565b91505090565b6000610963826119e0565b600080610b6d60025490565b6040516391541e0560e01b81527f000000000000000000000000000000000000000000000000000000000000000060048201529091506000906001600160a01b037f000000000000000000000000000000000000000000000000000000000000000016906391541e059060240161018060405180830381865afa158015610bf8573d6000803e3d6000fd5b505050506040513d601f19601f82011682018060405250810190610c1c9190612e1a565b608001516001600160801b03169050610c358282611bf6565b9250505090565b6000610c49848484611cb2565b6001600160a01b038416600090815260016020908152604080832033845290915290205482811015610cce5760405162461bcd60e51b815260206004820152602860248201527f45524332303a207472616e7366657220616d6f756e74206578636565647320616044820152676c6c6f77616e636560c01b6064820152608401610687565b610cdb85338584036118bc565b60019150505b9392505050565b6000610cf2611f9b565b905090565b3360008181526001602090815260408083206001600160a01b0387168452909152812054909161095f918590610d2e908690612f63565b6118bc565b610d3d338261208e565b50565b60405163dcc5cded60e01b81527f0000000000000000000000000000000000000000000000000000000000000000600482015260009081906001600160a01b037f0000000000000000000000000000000000000000000000000000000000000000169063dcc5cded90602401602060405180830381865afa158015610dc9573d6000803e3d6000fd5b505050506040513d601f19601f82011682018060405250810190610ded9190612f34565b9050610ce181610dfc856119e0565b90611bf6565b6000610e0e83336105d9565b905081811015610e6c5760405162461bcd60e51b8152602060048201526024808201527f45524332303a206275726e20616d6f756e74206578636565647320616c6c6f77604482015263616e636560e01b6064820152608401610687565b610e7983338484036118bc565b610e83838361208e565b505050565b60408051808201909152600381526232303560e81b6020820152337f00000000000000000000000000000000000000000000000000000000000000006001600160a01b031614610eeb5760405162461bcd60e51b81526004016106879190612ac7565b5081610ef5575050565b610f0f610f006120b2565b610f0a84846119fb565b611ad3565b7f095a1e7fd552d6bba4d4bcc1c4127215dafdd5a52103be432762e64f2e13250a610f386120b2565b8383604051610f4993929190612f7b565b60405180910390a15b5050565b6001600160a01b038116600090815260056020526040812054610963565b6060600480546108cf90612eff565b60408051808201909152600381526232303560e81b6020820152337f00000000000000000000000000000000000000000000000000000000000000006001600160a01b031614610fe65760405162461bcd60e51b81526004016106879190612ac7565b506040516391541e0560e01b81527f000000000000000000000000000000000000000000000000000000000000000060048201526000907f00000000000000000000000000000000000000000000000000000000000000006001600160a01b0316906391541e059060240161018060405180830381865afa15801561106f573d6000803e3d6000fd5b505050506040513d601f19601f820116820180604052508101906110939190612e1a565b606081015160405163244a775d60e11b81526001600160a01b037f000000000000000000000000000000000000000000000000000000000000000081166004830152929350911690634894eeba90602401602060405180830381865afa158015611101573d6000803e3d6000fd5b505050506040513d601f19601f820116820180604052508101906111259190612f9c565b6001600160a01b0316826001600160a01b03161415801561117857507f00000000000000000000000000000000000000000000000000000000000000006001600160a01b0316826001600160a01b031614155b6040518060400160405280600381526020016233303560e81b815250906111b25760405162461bcd60e51b81526004016106879190612ac7565b50610f526111be6120b2565b6040516370a0823160e01b81523060048201526001600160a01b038516906370a0823190602401602060405180830381865afa158015611202573d6000803e3d6000fd5b505050506040513d601f19601f820116820180604052508101906112269190612f34565b6001600160a01b038516919061186a565b3360009081526001602090815260408083206001600160a01b0386168452909152812054828110156112b95760405162461bcd60e51b815260206004820152602560248201527f45524332303a2064656372656173656420616c6c6f77616e63652062656c6f77604482015264207a65726f60d81b6064820152608401610687565b6112c633858584036118bc565b5060019392505050565b600061095f338484611cb2565b6000610cf260025490565b60408051808201909152600381526232303560e81b6020820152337f00000000000000000000000000000000000000000000000000000000000000006001600160a01b03161461134b5760405162461bcd60e51b81526004016106879190612ac7565b506040516391541e0560e01b81527f000000000000000000000000000000000000000000000000000000000000000060048201526000907f00000000000000000000000000000000000000000000000000000000000000006001600160a01b0316906391541e059060240161018060405180830381865afa1580156113d4573d6000803e3d6000fd5b505050506040513d601f19601f820116820180604052508101906113f89190612e1a565b9050806101600151156115035760608101516040516001600160a01b037f00000000000000000000000000000000000000000000000000000000000000008116602483015260448201859052600092169060640160408051601f198184030181529181526020820180516001600160e01b03166301d5326d60e21b179052516114819190612ee3565b600060405180830381855af49150503d80600081146114bc576040519150601f19603f3d011682016040523d82523d6000602084013e6114c1565b606091505b50509050806040518060400160405280600381526020016235303360e81b815250906115005760405162461bcd60e51b81526004016106879190612ac7565b50505b6040518281527f4d6ce1e535dbade1c23defba91e23b8f791ce5edc0cc320257a2b364e4e3842690602001610f49565b60008061153f836119e0565b6040516391541e0560e01b81527f000000000000000000000000000000000000000000000000000000000000000060048201529091506000906001600160a01b037f000000000000000000000000000000000000000000000000000000000000000016906391541e059060240161018060405180830381865afa1580156115ca573d6000803e3d6000fd5b505050506040513d601f19601f820116820180604052508101906115ee9190612e1a565b608001516001600160801b031690506116078282611bf6565b949350505050565b8342111561165f5760405162461bcd60e51b815260206004820152601d60248201527f45524332305065726d69743a206578706972656420646561646c696e650000006044820152606401610687565b60007f000000000000000000000000000000000000000000000000000000000000000088888861168e8c612136565b6040805160208101969096526001600160a01b0394851690860152929091166060840152608083015260a082015260c0810186905260e00160405160208183030381529060405280519060200120905060006116e98261215e565b905060006116f9828787876121ac565b9050896001600160a01b0316816001600160a01b03161461175c5760405162461bcd60e51b815260206004820152601e60248201527f45524332305065726d69743a20696e76616c6964207369676e617475726500006044820152606401610687565b6117678a8a8a6118bc565b50505050505050505050565b60408051808201909152600381526232303560e81b6020820152337f00000000000000000000000000000000000000000000000000000000000000006001600160a01b0316146117d65760405162461bcd60e51b81526004016106879190612ac7565b5060006117e383836119fb565b60408051808201909152600381526203331360ec1b60208201529091508161181e5760405162461bcd60e51b81526004016106879190612ac7565b50611829848261208e565b60408051848152602081018490526001600160a01b038616917f49995e5dd6158cf69ad3e9777c46755a1a826a446c6416992167462dad033b2a9101610a74565b604080516001600160a01b038416602482015260448082018490528251808303909101815260649091019091526020810180516001600160e01b031663a9059cbb60e01b179052610e839084906121d4565b6001600160a01b03831661191e5760405162461bcd60e51b8152602060048201526024808201527f45524332303a20617070726f76652066726f6d20746865207a65726f206164646044820152637265737360e01b6064820152608401610687565b6001600160a01b03821661197f5760405162461bcd60e51b815260206004820152602260248201527f45524332303a20617070726f766520746f20746865207a65726f206164647265604482015261737360f01b6064820152608401610687565b6001600160a01b0383811660008181526001602090815260408083209487168084529482529182902085905590518481527f8c5be1e5ebec7d5bd14f71427d1e84f3dd0314c0f7b2291e5b200ac8c7c3b925910160405180910390a3505050565b6001600160a01b031660009081526020819052604090205490565b60408051808201909152600381526218981960e91b602082015260009082611a365760405162461bcd60e51b81526004016106879190612ac7565b506000611a44600284612fb9565b90506b033b2e3c9fd0803ce8000000611a5f82600019612fdb565b611a699190612fb9565b8411156040518060400160405280600381526020016203130360ec1b81525090611aa65760405162461bcd60e51b81526004016106879190612ac7565b508281611abf6b033b2e3c9fd0803ce800000087612ff2565b611ac99190612f63565b6116079190612fb9565b6000611ade836119e0565b90506000611aeb60025490565b9050611af784846122a6565b60007f00000000000000000000000000000000000000000000000000000000000000006001600160a01b0316636d6a723c6040518163ffffffff1660e01b8152600401602060405180830381865afa158015611b57573d6000803e3d6000fd5b505050506040513d601f19601f82011682018060405250810190611b7b9190612f9c565b90506001600160a01b03811615611bef576040516318c39f1760e11b81526001600160a01b038216906331873e2e90611bbc90889087908790600401612f7b565b600060405180830381600087803b158015611bd657600080fd5b505af1158015611bea573d6000803e3d6000fd5b505050505b5050505050565b6000821580611c03575081155b15611c1057506000610963565b81611c2860026b033b2e3c9fd0803ce8000000612fb9565b611c3490600019612fdb565b611c3e9190612fb9565b8311156040518060400160405280600381526020016203130360ec1b81525090611c7b5760405162461bcd60e51b81526004016106879190612ac7565b506b033b2e3c9fd0803ce8000000611c94600282612fb9565b611c9e8486612ff2565b611ca89190612f63565b610ce19190612fb9565b60405163dcc5cded60e01b81527f000000000000000000000000000000000000000000000000000000000000000060048201526000907f00000000000000000000000000000000000000000000000000000000000000006001600160a01b03169063dcc5cded90602401602060405180830381865afa158015611d39573d6000803e3d6000fd5b505050506040513d601f19601f82011682018060405250810190611d5d9190612f34565b90506000611d6b83836119fb565b60408051808201909152600381526203331360ec1b602082015290915081611da65760405162461bcd60e51b81526004016106879190612ac7565b5060408051808201909152600381526233313160e81b60208201526001600160801b03821115611de95760405162461bcd60e51b81526004016106879190612ac7565b506000611df5866119e0565b90506000611e02866119e0565b9050611e0f878785612385565b60007f00000000000000000000000000000000000000000000000000000000000000006001600160a01b0316636d6a723c6040518163ffffffff1660e01b8152600401602060405180830381865afa158015611e6f573d6000803e3d6000fd5b505050506040513d601f19601f82011682018060405250810190611e939190612f9c565b90506001600160a01b03811615611f91576000611eaf60025490565b6040516318c39f1760e11b81529091506001600160a01b038316906331873e2e90611ee2908c9088908690600401612f7b565b600060405180830381600087803b158015611efc57600080fd5b505af1158015611f10573d6000803e3d6000fd5b50505050876001600160a01b0316896001600160a01b031614611bea576040516318c39f1760e11b81526001600160a01b038316906331873e2e90611f5d908b9087908690600401612f7b565b600060405180830381600087803b158015611f7757600080fd5b505af1158015611f8b573d6000803e3d6000fd5b50505050505b5050505050505050565b60007f0000000000000000000000000000000000000000000000000000000000000000461415611fea57507f000000000000000000000000000000000000000000000000000000000000000090565b50604080517f00000000000000000000000000000000000000000000000000000000000000006020808301919091527f0000000000000000000000000000000000000000000000000000000000000000828401527f000000000000000000000000000000000000000000000000000000000000000060608301524660808301523060a0808401919091528351808403909101815260c0909201909252805191012090565b6000612099836119e0565b905060006120a660025490565b9050611af78484612555565b60007f00000000000000000000000000000000000000000000000000000000000000006001600160a01b0316633d6a38446040518163ffffffff1660e01b8152600401602060405180830381865afa158015612112573d6000803e3d6000fd5b505050506040513d601f19601f82011682018060405250810190610cf29190612f9c565b6001600160a01b03811660009081526005602052604090208054600181018255905b50919050565b600061096361216b611f9b565b8360405161190160f01b6020820152602281018390526042810182905260009060620160405160208183030381529060405280519060200120905092915050565b60008060006121bd878787876126a3565b915091506121ca81612790565b5095945050505050565b6000612229826040518060400160405280602081526020017f5361666545524332303a206c6f772d6c6576656c2063616c6c206661696c6564815250856001600160a01b031661294b9092919063ffffffff16565b805190915015610e8357808060200190518101906122479190613011565b610e835760405162461bcd60e51b815260206004820152602a60248201527f5361666545524332303a204552433230206f7065726174696f6e20646964206e6044820152691bdd081cdd58d8d9595960b21b6064820152608401610687565b6001600160a01b0382166122fc5760405162461bcd60e51b815260206004820152601f60248201527f45524332303a206d696e7420746f20746865207a65726f2061646472657373006044820152606401610687565b806002600082825461230e9190612f63565b90915550506001600160a01b0382166000908152602081905260408120805483929061233b908490612f63565b90915550506040518181526001600160a01b038316906000907fddf252ad1be2c89b69c2b068fc378daa952ba7f163c4a11628f55a4df523b3ef9060200160405180910390a35050565b6001600160a01b0383166123e95760405162461bcd60e51b815260206004820152602560248201527f45524332303a207472616e736665722066726f6d20746865207a65726f206164604482015264647265737360d81b6064820152608401610687565b6001600160a01b03821661244b5760405162461bcd60e51b815260206004820152602360248201527f45524332303a207472616e7366657220746f20746865207a65726f206164647260448201526265737360e81b6064820152608401610687565b6001600160a01b038316600090815260208190526040902054818110156124c35760405162461bcd60e51b815260206004820152602660248201527f45524332303a207472616e7366657220616d6f756e7420657863656564732062604482015265616c616e636560d01b6064820152608401610687565b6001600160a01b038085166000908152602081905260408082208585039055918516815290812080548492906124fa908490612f63565b92505081905550826001600160a01b0316846001600160a01b03167fddf252ad1be2c89b69c2b068fc378daa952ba7f163c4a11628f55a4df523b3ef8460405161254691815260200190565b60405180910390a35b50505050565b6001600160a01b0382166125b55760405162461bcd60e51b815260206004820152602160248201527f45524332303a206275726e2066726f6d20746865207a65726f206164647265736044820152607360f81b6064820152608401610687565b6001600160a01b038216600090815260208190526040902054818110156126295760405162461bcd60e51b815260206004820152602260248201527f45524332303a206275726e20616d6f756e7420657863656564732062616c616e604482015261636560f01b6064820152608401610687565b6001600160a01b0383166000908152602081905260408120838303905560028054849290612658908490612fdb565b90915550506040518281526000906001600160a01b038516907fddf252ad1be2c89b69c2b068fc378daa952ba7f163c4a11628f55a4df523b3ef9060200160405180910390a3505050565b6000807f7fffffffffffffffffffffffffffffff5d576e7357a4501ddfe92f46681b20a08311156126da5750600090506003612787565b8460ff16601b141580156126f257508460ff16601c14155b156127035750600090506004612787565b6040805160008082526020820180845289905260ff881692820192909252606081018690526080810185905260019060a0016020604051602081039080840390855afa158015612757573d6000803e3d6000fd5b5050604051601f1901519150506001600160a01b03811661278057600060019250925050612787565b9150600090505b94509492505050565b60008160048111156127a4576127a461302c565b14156127ad5750565b60018160048111156127c1576127c161302c565b141561280f5760405162461bcd60e51b815260206004820152601860248201527f45434453413a20696e76616c6964207369676e617475726500000000000000006044820152606401610687565b60028160048111156128235761282361302c565b14156128715760405162461bcd60e51b815260206004820152601f60248201527f45434453413a20696e76616c6964207369676e6174757265206c656e677468006044820152606401610687565b60038160048111156128855761288561302c565b14156128de5760405162461bcd60e51b815260206004820152602260248201527f45434453413a20696e76616c6964207369676e6174757265202773272076616c604482015261756560f01b6064820152608401610687565b60048160048111156128f2576128f261302c565b1415610d3d5760405162461bcd60e51b815260206004820152602260248201527f45434453413a20696e76616c6964207369676e6174757265202776272076616c604482015261756560f01b6064820152608401610687565b6060611607848460008585843b6129a45760405162461bcd60e51b815260206004820152601d60248201527f416464726573733a2063616c6c20746f206e6f6e2d636f6e74726163740000006044820152606401610687565b600080866001600160a01b031685876040516129c09190612ee3565b60006040518083038185875af1925050503d80600081146129fd576040519150601f19603f3d011682016040523d82523d6000602084013e612a02565b606091505b5091509150612a12828286612a1d565b979650505050505050565b60608315612a2c575081610ce1565b825115612a3c5782518084602001fd5b8160405162461bcd60e51b81526004016106879190612ac7565b6001600160a01b0381168114610d3d57600080fd5b60008060408385031215612a7e57600080fd5b823591506020830135612a9081612a56565b809150509250929050565b60005b83811015612ab6578181015183820152602001612a9e565b8381111561254f5750506000910152565b6020815260008251806020840152612ae6816040850160208701612a9b565b601f01601f19169190910160400192915050565b60008060408385031215612b0d57600080fd5b8235612b1881612a56565b946020939093013593505050565b600060208284031215612b3857600080fd5b8135610ce181612a56565b634e487b7160e01b600052604160045260246000fd5b604051610180810167ffffffffffffffff81118282101715612b7d57612b7d612b43565b60405290565b604051601f8201601f1916810167ffffffffffffffff81118282101715612bac57612bac612b43565b604052919050565b60008060008060808587031215612bca57600080fd5b8435612bd581612a56565b9350602085810135612be681612a56565b935060408601359250606086013567ffffffffffffffff80821115612c0a57600080fd5b818801915088601f830112612c1e57600080fd5b813581811115612c3057612c30612b43565b612c42601f8201601f19168501612b83565b91508082528984828501011115612c5857600080fd5b808484018584013760008482840101525080935050505092959194509250565b600080600060608486031215612c8d57600080fd5b8335612c9881612a56565b95602085013595506040909401359392505050565b600080600060608486031215612cc257600080fd5b8335612ccd81612a56565b92506020840135612cdd81612a56565b929592945050506040919091013590565b600060208284031215612d0057600080fd5b5035919050565b60008060408385031215612d1a57600080fd5b50508035926020909101359150565b600080600080600080600060e0888a031215612d4457600080fd5b8735612d4f81612a56565b96506020880135612d5f81612a56565b95506040880135945060608801359350608088013560ff81168114612d8357600080fd5b9699959850939692959460a0840135945060c09093013592915050565b60008060408385031215612db357600080fd5b8235612dbe81612a56565b91506020830135612a9081612a56565b8051612dd981612a56565b919050565b80516001600160801b0381168114612dd957600080fd5b805164ffffffffff81168114612dd957600080fd5b80518015158114612dd957600080fd5b60006101808284031215612e2d57600080fd5b612e35612b59565b82518152612e4560208401612dce565b6020820152612e5660408401612dce565b6040820152612e6760608401612dce565b6060820152612e7860808401612dde565b608082015260a083015160a082015260c083015160c0820152612e9d60e08401612df5565b60e08201526101008381015190820152610120612ebb818501612dce565b908201526101408381015190820152610160612ed8818501612e0a565b908201529392505050565b60008251612ef5818460208701612a9b565b9190910192915050565b600181811c90821680612f1357607f821691505b6020821081141561215857634e487b7160e01b600052602260045260246000fd5b600060208284031215612f4657600080fd5b5051919050565b634e487b7160e01b600052601160045260246000fd5b60008219821115612f7657612f76612f4d565b500190565b6001600160a01b039390931683526020830191909152604082015260600190565b600060208284031215612fae57600080fd5b8151610ce181612a56565b600082612fd657634e487b7160e01b600052601260045260246000fd5b500490565b600082821015612fed57612fed612f4d565b500390565b600081600019048311821515161561300c5761300c612f4d565b500290565b60006020828403121561302357600080fd5b610ce182612e0a565b634e487b7160e01b600052602160045260246000fdfea26469706673582212207ac7ef88b95acf1c4f9558301fa6ea6fcc331c36a7bc673651482143973d85e264736f6c634300080a0033a26469706673582212206b7c181e1ea49a1591bc4416d0d65e96f29846b5a3fb09c37a2436d339efb5bf64736f6c634300080a0033",
  "libraries": {},
  "devdoc": {
    "kind": "dev",
    "methods": {},
    "version": 1
  },
  "userdoc": {
    "kind": "user",
    "methods": {},
    "version": 1
  },
  "storageLayout": {
    "storage": [],
    "types": null
  }
}