{
  "address": "0xa3DBE89106f053542dc77548F0e285Ebdd9e0587",
  "abi": [
    {
      "inputs": [
        {
          "internalType": "uint256",
          "name": "optimalUtilizationRate",
          "type": "uint256"
        },
        {
          "internalType": "uint256",
          "name": "rateSlope1_",
          "type": "uint256"
        },
        {
          "internalType": "uint256",
          "name": "rateSlope2_",
          "type": "uint256"
        },
        {
          "internalType": "uint256",
          "name": "baseBorrowRate",
          "type": "uint256"
        }
      ],
      "stateMutability": "nonpayable",
      "type": "constructor"
    },
    {
      "anonymous": false,
      "inputs": [
        {
          "indexed": true,
          "internalType": "address",
          "name": "previousOwner",
          "type": "address"
        },
        {
          "indexed": true,
          "internalType": "address",
          "name": "newOwner",
          "type": "address"
        }
      ],
      "name": "OwnershipTransferred",
      "type": "event"
    },
    {
      "anonymous": false,
      "inputs": [
        {
          "indexed": true,
          "internalType": "uint256",
          "name": "reserveId",
          "type": "uint256"
        },
        {
          "indexed": true,
          "internalType": "uint256",
          "name": "baseRate",
          "type": "uint256"
        }
      ],
      "name": "SetBaseBorrowRate",
      "type": "event"
    },
    {
      "inputs": [],
      "name": "EXCESS_UTILIZATION_RATE",
      "outputs": [
        {
          "internalType": "uint256",
          "name": "",
          "type": "uint256"
        }
      ],
      "stateMutability": "view",
      "type": "function"
    },
    {
      "inputs": [],
      "name": "OPTIMAL_UTILIZATION_RATE",
      "outputs": [
        {
          "internalType": "uint256",
          "name": "",
          "type": "uint256"
        }
      ],
      "stateMutability": "view",
      "type": "function"
    },
    {
      "inputs": [
        {
          "internalType": "uint256",
          "name": "reserveId",
          "type": "uint256"
        }
      ],
      "name": "getBaseBorrowRate",
      "outputs": [
        {
          "internalType": "uint256",
          "name": "",
          "type": "uint256"
        }
      ],
      "stateMutability": "view",
      "type": "function"
    },
    {
      "inputs": [
        {
          "internalType": "uint256",
          "name": "reserveId",
          "type": "uint256"
        },
        {
          "internalType": "uint256",
          "name": "totalDeposits",
          "type": "uint256"
        },
        {
          "internalType": "uint256",
          "name": "totalBorrows",
          "type": "uint256"
        }
      ],
      "name": "getBorrowRate",
      "outputs": [
        {
          "internalType": "uint256",
          "name": "",
          "type": "uint256"
        }
      ],
      "stateMutability": "view",
      "type": "function"
    },
    {
      "inputs": [],
      "name": "owner",
      "outputs": [
        {
          "internalType": "address",
          "name": "",
          "type": "address"
        }
      ],
      "stateMutability": "view",
      "type": "function"
    },
    {
      "inputs": [],
      "name": "rateSlope1",
      "outputs": [
        {
          "internalType": "uint256",
          "name": "",
          "type": "uint256"
        }
      ],
      "stateMutability": "view",
      "type": "function"
    },
    {
      "inputs": [],
      "name": "rateSlope2",
      "outputs": [
        {
          "internalType": "uint256",
          "name": "",
          "type": "uint256"
        }
      ],
      "stateMutability": "view",
      "type": "function"
    },
    {
      "inputs": [],
      "name": "renounceOwnership",
      "outputs": [],
      "stateMutability": "nonpayable",
      "type": "function"
    },
    {
      "inputs": [
        {
          "internalType": "uint256",
          "name": "reserveId",
          "type": "uint256"
        },
        {
          "internalType": "uint256",
          "name": "rate",
          "type": "uint256"
        }
      ],
      "name": "setBaseBorrowRate",
      "outputs": [],
      "stateMutability": "nonpayable",
      "type": "function"
    },
    {
      "inputs": [
        {
          "internalType": "address",
          "name": "newOwner",
          "type": "address"
        }
      ],
      "name": "transferOwnership",
      "outputs": [],
      "stateMutability": "nonpayable",
      "type": "function"
    }
  ],
  "transactionHash": "0x978bc9cf8bbbebfcfbf2c9a17f8c1ff659f90fa4628bec1aa26b9b64aaa82349",
  "args": [
    "800000000000000000000000000",
    "80000000000000000000000000",
    "1000000000000000000000000000",
    "40000000000000000000000000"
  ],
  "solcInputHash": "fb80df0c083f4166f8e17cc8f4ebb48d",
  "bytecode": "0x61012060405234801561001157600080fd5b50604051610a44380380610a44833981016040819052610030916100d4565b61003933610074565b8360808181525050836100546100c460201b6104c91760201c565b61005e919061010a565b60a05260c09290925260e052610100525061012f565b600080546001600160a01b038381166001600160a01b0319831681178455604051919092169283917f8be0079c531659141344cd1fd0a4f28419497f9722a3daafe3b4186f6b6457e09190a35050565b6b033b2e3c9fd0803ce800000090565b600080600080608085870312156100ea57600080fd5b505082516020840151604085015160609095015191969095509092509050565b60008282101561012a57634e487b7160e01b600052601160045260246000fd5b500390565b60805160a05160c05160e051610100516108a26101a2600039600061034c01526000818160f2015261027101526000818161012b0152818161029b01526102fb01526000818160ce015261021b01526000818161018c015281816101ee0152818161023f01526102d701526108a26000f3fe608060405234801561001057600080fd5b506004361061009e5760003560e01c80635a049f75116100665780635a049f751461014f578063715018a6146101645780638da5cb5b1461016c578063a15f30ac14610187578063f2fde38b146101ae57600080fd5b806315f24053146100a357806317319873146100c95780631eedf5c7146100f057806331f7266e146101165780635454a4b614610129575b600080fd5b6100b66100b13660046106cc565b6101c1565b6040519081526020015b60405180910390f35b6100b67f000000000000000000000000000000000000000000000000000000000000000081565b7f00000000000000000000000000000000000000000000000000000000000000006100b6565b6100b66101243660046106f8565b610337565b7f00000000000000000000000000000000000000000000000000000000000000006100b6565b61016261015d366004610711565b610386565b005b6101626103f8565b6000546040516001600160a01b0390911681526020016100c0565b6100b67f000000000000000000000000000000000000000000000000000000000000000081565b6101626101bc366004610733565b61042e565b60008082156101d9576101d483856104d9565b6101dc565b60005b90506000806101ea87610337565b90507f00000000000000000000000000000000000000000000000000000000000000008311156102d257600061026a7f00000000000000000000000000000000000000000000000000000000000000006102647f000000000000000000000000000000000000000000000000000000000000000087610772565b906104d9565b90506102967f0000000000000000000000000000000000000000000000000000000000000000826105b9565b6102c07f000000000000000000000000000000000000000000000000000000000000000084610789565b6102ca9190610789565b92505061032d565b6103207f00000000000000000000000000000000000000000000000000000000000000006102647f0000000000000000000000000000000000000000000000000000000000000000866105b9565b61032a9082610789565b91505b5095945050505050565b600081815260016020526040812054610370577f0000000000000000000000000000000000000000000000000000000000000000610380565b6000828152600160205260409020545b92915050565b6000546001600160a01b031633146103b95760405162461bcd60e51b81526004016103b0906107a1565b60405180910390fd5b60008281526001602052604080822083905551829184917fb480dd30c13dbdecac56fd16523f3ad0317da81f9e3b63ce3a041b007c38b5069190a35050565b6000546001600160a01b031633146104225760405162461bcd60e51b81526004016103b0906107a1565b61042c600061067c565b565b6000546001600160a01b031633146104585760405162461bcd60e51b81526004016103b0906107a1565b6001600160a01b0381166104bd5760405162461bcd60e51b815260206004820152602660248201527f4f776e61626c653a206e6577206f776e657220697320746865207a65726f206160448201526564647265737360d01b60648201526084016103b0565b6104c68161067c565b50565b6b033b2e3c9fd0803ce800000090565b60408051808201909152600381526218981960e91b6020820152600090826105145760405162461bcd60e51b81526004016103b091906107d6565b50600061052260028461082b565b90506b033b2e3c9fd0803ce800000061053d82600019610772565b610547919061082b565b8411156040518060400160405280600381526020016203130360ec1b815250906105845760405162461bcd60e51b81526004016103b091906107d6565b50828161059d6b033b2e3c9fd0803ce80000008761084d565b6105a79190610789565b6105b1919061082b565b949350505050565b60008215806105c6575081155b156105d357506000610380565b816105eb60026b033b2e3c9fd0803ce800000061082b565b6105f790600019610772565b610601919061082b565b8311156040518060400160405280600381526020016203130360ec1b8152509061063e5760405162461bcd60e51b81526004016103b091906107d6565b506b033b2e3c9fd0803ce800000061065760028261082b565b610661848661084d565b61066b9190610789565b610675919061082b565b9392505050565b600080546001600160a01b038381166001600160a01b0319831681178455604051919092169283917f8be0079c531659141344cd1fd0a4f28419497f9722a3daafe3b4186f6b6457e09190a35050565b6000806000606084860312156106e157600080fd5b505081359360208301359350604090920135919050565b60006020828403121561070a57600080fd5b5035919050565b6000806040838503121561072457600080fd5b50508035926020909101359150565b60006020828403121561074557600080fd5b81356001600160a01b038116811461067557600080fd5b634e487b7160e01b600052601160045260246000fd5b6000828210156107845761078461075c565b500390565b6000821982111561079c5761079c61075c565b500190565b6020808252818101527f4f776e61626c653a2063616c6c6572206973206e6f7420746865206f776e6572604082015260600190565b600060208083528351808285015260005b81811015610803578581018301518582016040015282016107e7565b81811115610815576000604083870101525b50601f01601f1916929092016040019392505050565b60008261084857634e487b7160e01b600052601260045260246000fd5b500490565b60008160001904831182151516156108675761086761075c565b50029056fea26469706673582212205a0389a4255d570d05632a7edf4414bc5c461ddd58e85952d7f0acdf86bf0b8c64736f6c634300080a0033",
  "libraries": {
    "PercentageMath": "0x9Ac06e13c5f1521B9f2D4cb66Bca18dF7665d88b"
  },
  "devdoc": {
    "author": "OpenSky Labs",
    "details": "The model of interest rate is based on 2 slopes, one before the `OPTIMAL_UTILIZATION_RATE` point of usage and another from that one to 100%.*",
    "kind": "dev",
    "methods": {
      "getBaseBorrowRate(uint256)": {
        "params": {
          "reserveId": "The id of the reserve"
        },
        "returns": {
          "_0": "The borrow rate, expressed in ray*"
        }
      },
      "getBorrowRate(uint256,uint256,uint256)": {
        "params": {
          "reserveId": "The id of the reserve",
          "totalBorrows": "The total borrows amount of the reserve",
          "totalDeposits": "The total deposits amount of the reserve"
        },
        "returns": {
          "_0": "The borrow rate, expressed in ray*"
        }
      },
      "owner()": {
        "details": "Returns the address of the current owner."
      },
      "renounceOwnership()": {
        "details": "Leaves the contract without owner. It will not be possible to call `onlyOwner` functions anymore. Can only be called by the current owner. NOTE: Renouncing ownership will leave the contract without an owner, thereby removing any functionality that is only available to the owner."
      },
      "setBaseBorrowRate(uint256,uint256)": {
        "params": {
          "rate": "The rate to be set*",
          "reserveId": "The id of the reserve"
        }
      },
      "transferOwnership(address)": {
        "details": "Transfers ownership of the contract to a new account (`newOwner`). Can only be called by the current owner."
      }
    },
    "title": "OpenSkyInterestRateStrategy contract",
    "version": 1
  },
  "userdoc": {
    "kind": "user",
    "methods": {
      "getBaseBorrowRate(uint256)": {
        "notice": "Returns the base borrow rate of a reserve"
      },
      "getBorrowRate(uint256,uint256,uint256)": {
        "notice": "Returns the borrow rate of a reserve"
      },
      "setBaseBorrowRate(uint256,uint256)": {
        "notice": "Sets the base borrow rate of a reserve"
      }
    },
    "notice": "Implements the calculation of the interest rates depending on the reserve state",
    "version": 1
  },
  "storageLayout": {
    "storage": [
      {
        "astId": 387,
        "contract": "contracts/OpenSkyInterestRateStrategy.sol:OpenSkyInterestRateStrategy",
        "label": "_owner",
        "offset": 0,
        "slot": "0",
        "type": "t_address"
      },
      {
        "astId": 8538,
        "contract": "contracts/OpenSkyInterestRateStrategy.sol:OpenSkyInterestRateStrategy",
        "label": "_baseBorrowRates",
        "offset": 0,
        "slot": "1",
        "type": "t_mapping(t_uint256,t_uint256)"
      }
    ],
    "types": {
      "t_address": {
        "encoding": "inplace",
        "label": "address",
        "numberOfBytes": "20"
      },
      "t_mapping(t_uint256,t_uint256)": {
        "encoding": "mapping",
        "key": "t_uint256",
        "label": "mapping(uint256 => uint256)",
        "numberOfBytes": "32",
        "value": "t_uint256"
      },
      "t_uint256": {
        "encoding": "inplace",
        "label": "uint256",
        "numberOfBytes": "32"
      }
    }
  }
}