{
  "address": "0xf3Bc6651EFb2EdA164282804939D4ca16311ca87",
  "abi": [
    {
      "inputs": [
        {
          "internalType": "address",
          "name": "SETTINGS_",
          "type": "address"
        }
      ],
      "stateMutability": "nonpayable",
      "type": "constructor"
    },
    {
      "anonymous": false,
      "inputs": [
        {
          "indexed": true,
          "internalType": "uint256",
          "name": "reserveId",
          "type": "uint256"
        },
        {
          "indexed": false,
          "internalType": "address",
          "name": "user",
          "type": "address"
        },
        {
          "indexed": true,
          "internalType": "address",
          "name": "onBehalfOf",
          "type": "address"
        },
        {
          "indexed": true,
          "internalType": "uint256",
          "name": "loanId",
          "type": "uint256"
        }
      ],
      "name": "Borrow",
      "type": "event"
    },
    {
      "anonymous": false,
      "inputs": [
        {
          "indexed": false,
          "internalType": "uint256",
          "name": "reserveId",
          "type": "uint256"
        }
      ],
      "name": "CloseMoneyMarket",
      "type": "event"
    },
    {
      "anonymous": false,
      "inputs": [
        {
          "indexed": true,
          "internalType": "uint256",
          "name": "reserveId",
          "type": "uint256"
        },
        {
          "indexed": true,
          "internalType": "address",
          "name": "underlyingAsset",
          "type": "address"
        },
        {
          "indexed": true,
          "internalType": "address",
          "name": "oTokenAddress",
          "type": "address"
        },
        {
          "indexed": false,
          "internalType": "string",
          "name": "name",
          "type": "string"
        },
        {
          "indexed": false,
          "internalType": "string",
          "name": "symbol",
          "type": "string"
        }
      ],
      "name": "Create",
      "type": "event"
    },
    {
      "anonymous": false,
      "inputs": [
        {
          "indexed": true,
          "internalType": "uint256",
          "name": "reserveId",
          "type": "uint256"
        },
        {
          "indexed": true,
          "internalType": "address",
          "name": "user",
          "type": "address"
        },
        {
          "indexed": false,
          "internalType": "uint256",
          "name": "amount",
          "type": "uint256"
        },
        {
          "indexed": true,
          "internalType": "uint256",
          "name": "referralCode",
          "type": "uint256"
        }
      ],
      "name": "Deposit",
      "type": "event"
    },
    {
      "anonymous": false,
      "inputs": [
        {
          "indexed": true,
          "internalType": "uint256",
          "name": "reserveId",
          "type": "uint256"
        },
        {
          "indexed": true,
          "internalType": "uint256",
          "name": "loanId",
          "type": "uint256"
        },
        {
          "indexed": true,
          "internalType": "address",
          "name": "nftAddress",
          "type": "address"
        },
        {
          "indexed": false,
          "internalType": "uint256",
          "name": "tokenId",
          "type": "uint256"
        },
        {
          "indexed": false,
          "internalType": "address",
          "name": "operator",
          "type": "address"
        },
        {
          "indexed": false,
          "internalType": "uint256",
          "name": "repayAmount",
          "type": "uint256"
        },
        {
          "indexed": false,
          "internalType": "uint256",
          "name": "borrowBalance",
          "type": "uint256"
        }
      ],
      "name": "EndLiquidation",
      "type": "event"
    },
    {
      "anonymous": false,
      "inputs": [
        {
          "indexed": true,
          "internalType": "uint256",
          "name": "reserveId",
          "type": "uint256"
        },
        {
          "indexed": true,
          "internalType": "address",
          "name": "user",
          "type": "address"
        },
        {
          "indexed": true,
          "internalType": "uint256",
          "name": "oldLoanId",
          "type": "uint256"
        },
        {
          "indexed": false,
          "internalType": "uint256",
          "name": "newLoanId",
          "type": "uint256"
        }
      ],
      "name": "Extend",
      "type": "event"
    },
    {
      "anonymous": false,
      "inputs": [
        {
          "indexed": false,
          "internalType": "uint256",
          "name": "reserveId",
          "type": "uint256"
        }
      ],
      "name": "OpenMoneyMarket",
      "type": "event"
    },
    {
      "anonymous": false,
      "inputs": [
        {
          "indexed": false,
          "internalType": "address",
          "name": "account",
          "type": "address"
        }
      ],
      "name": "Paused",
      "type": "event"
    },
    {
      "anonymous": false,
      "inputs": [
        {
          "indexed": true,
          "internalType": "uint256",
          "name": "reserveId",
          "type": "uint256"
        },
        {
          "indexed": false,
          "internalType": "address",
          "name": "repayer",
          "type": "address"
        },
        {
          "indexed": true,
          "internalType": "address",
          "name": "onBehalfOf",
          "type": "address"
        },
        {
          "indexed": true,
          "internalType": "uint256",
          "name": "loanId",
          "type": "uint256"
        },
        {
          "indexed": false,
          "internalType": "uint256",
          "name": "repayAmount",
          "type": "uint256"
        },
        {
          "indexed": false,
          "internalType": "uint256",
          "name": "penalty",
          "type": "uint256"
        }
      ],
      "name": "Repay",
      "type": "event"
    },
    {
      "anonymous": false,
      "inputs": [
        {
          "indexed": true,
          "internalType": "uint256",
          "name": "reserveId",
          "type": "uint256"
        },
        {
          "indexed": false,
          "internalType": "address",
          "name": "interestModelAddress",
          "type": "address"
        }
      ],
      "name": "SetInterestModelAddress",
      "type": "event"
    },
    {
      "anonymous": false,
      "inputs": [
        {
          "indexed": true,
          "internalType": "uint256",
          "name": "reserveId",
          "type": "uint256"
        },
        {
          "indexed": false,
          "internalType": "uint256",
          "name": "factor",
          "type": "uint256"
        }
      ],
      "name": "SetTreasuryFactor",
      "type": "event"
    },
    {
      "anonymous": false,
      "inputs": [
        {
          "indexed": true,
          "internalType": "uint256",
          "name": "reserveId",
          "type": "uint256"
        },
        {
          "indexed": true,
          "internalType": "uint256",
          "name": "loanId",
          "type": "uint256"
        },
        {
          "indexed": true,
          "internalType": "address",
          "name": "nftAddress",
          "type": "address"
        },
        {
          "indexed": false,
          "internalType": "uint256",
          "name": "tokenId",
          "type": "uint256"
        },
        {
          "indexed": false,
          "internalType": "address",
          "name": "operator",
          "type": "address"
        }
      ],
      "name": "StartLiquidation",
      "type": "event"
    },
    {
      "anonymous": false,
      "inputs": [
        {
          "indexed": false,
          "internalType": "address",
          "name": "account",
          "type": "address"
        }
      ],
      "name": "Unpaused",
      "type": "event"
    },
    {
      "anonymous": false,
      "inputs": [
        {
          "indexed": true,
          "internalType": "uint256",
          "name": "reserveId",
          "type": "uint256"
        },
        {
          "indexed": true,
          "internalType": "address",
          "name": "user",
          "type": "address"
        },
        {
          "indexed": false,
          "internalType": "uint256",
          "name": "amount",
          "type": "uint256"
        }
      ],
      "name": "Withdraw",
      "type": "event"
    },
    {
      "stateMutability": "payable",
      "type": "fallback"
    },
    {
      "inputs": [],
      "name": "SETTINGS",
      "outputs": [
        {
          "internalType": "contract IOpenSkySettings",
          "name": "",
          "type": "address"
        }
      ],
      "stateMutability": "view",
      "type": "function"
    },
    {
      "inputs": [
        {
          "internalType": "uint256",
          "name": "reserveId",
          "type": "uint256"
        },
        {
          "internalType": "uint256",
          "name": "amount",
          "type": "uint256"
        },
        {
          "internalType": "uint256",
          "name": "duration",
          "type": "uint256"
        },
        {
          "internalType": "address",
          "name": "nftAddress",
          "type": "address"
        },
        {
          "internalType": "uint256",
          "name": "tokenId",
          "type": "uint256"
        },
        {
          "internalType": "address",
          "name": "onBehalfOf",
          "type": "address"
        }
      ],
      "name": "borrow",
      "outputs": [
        {
          "internalType": "uint256",
          "name": "",
          "type": "uint256"
        }
      ],
      "stateMutability": "nonpayable",
      "type": "function"
    },
    {
      "inputs": [
        {
          "internalType": "uint256",
          "name": "reserveId",
          "type": "uint256"
        }
      ],
      "name": "closeMoneyMarket",
      "outputs": [],
      "stateMutability": "nonpayable",
      "type": "function"
    },
    {
      "inputs": [
        {
          "internalType": "address",
          "name": "underlyingAsset",
          "type": "address"
        },
        {
          "internalType": "string",
          "name": "name",
          "type": "string"
        },
        {
          "internalType": "string",
          "name": "symbol",
          "type": "string"
        }
      ],
      "name": "create",
      "outputs": [],
      "stateMutability": "nonpayable",
      "type": "function"
    },
    {
      "inputs": [
        {
          "internalType": "uint256",
          "name": "reserveId",
          "type": "uint256"
        },
        {
          "internalType": "uint256",
          "name": "amount",
          "type": "uint256"
        },
        {
          "internalType": "address",
          "name": "onBehalfOf",
          "type": "address"
        },
        {
          "internalType": "uint256",
          "name": "referralCode",
          "type": "uint256"
        }
      ],
      "name": "deposit",
      "outputs": [],
      "stateMutability": "nonpayable",
      "type": "function"
    },
    {
      "inputs": [
        {
          "internalType": "uint256",
          "name": "loanId",
          "type": "uint256"
        },
        {
          "internalType": "uint256",
          "name": "amount",
          "type": "uint256"
        }
      ],
      "name": "endLiquidation",
      "outputs": [],
      "stateMutability": "nonpayable",
      "type": "function"
    },
    {
      "inputs": [
        {
          "internalType": "uint256",
          "name": "oldLoanId",
          "type": "uint256"
        },
        {
          "internalType": "uint256",
          "name": "amount",
          "type": "uint256"
        },
        {
          "internalType": "uint256",
          "name": "duration",
          "type": "uint256"
        },
        {
          "internalType": "address",
          "name": "onBehalfOf",
          "type": "address"
        }
      ],
      "name": "extend",
      "outputs": [
        {
          "internalType": "uint256",
          "name": "",
          "type": "uint256"
        },
        {
          "internalType": "uint256",
          "name": "",
          "type": "uint256"
        }
      ],
      "stateMutability": "nonpayable",
      "type": "function"
    },
    {
      "inputs": [
        {
          "internalType": "uint256",
          "name": "reserveId",
          "type": "uint256"
        }
      ],
      "name": "getAvailableLiquidity",
      "outputs": [
        {
          "internalType": "uint256",
          "name": "",
          "type": "uint256"
        }
      ],
      "stateMutability": "view",
      "type": "function"
    },
    {
      "inputs": [
        {
          "internalType": "uint256",
          "name": "reserveId",
          "type": "uint256"
        },
        {
          "internalType": "address",
          "name": "nftAddress",
          "type": "address"
        },
        {
          "internalType": "uint256",
          "name": "tokenId",
          "type": "uint256"
        }
      ],
      "name": "getBorrowLimitByOracle",
      "outputs": [
        {
          "internalType": "uint256",
          "name": "",
          "type": "uint256"
        }
      ],
      "stateMutability": "view",
      "type": "function"
    },
    {
      "inputs": [
        {
          "internalType": "uint256",
          "name": "reserveId",
          "type": "uint256"
        }
      ],
      "name": "getReserveData",
      "outputs": [
        {
          "components": [
            {
              "internalType": "uint256",
              "name": "reserveId",
              "type": "uint256"
            },
            {
              "internalType": "address",
              "name": "underlyingAsset",
              "type": "address"
            },
            {
              "internalType": "address",
              "name": "oTokenAddress",
              "type": "address"
            },
            {
              "internalType": "address",
              "name": "moneyMarketAddress",
              "type": "address"
            },
            {
              "internalType": "uint128",
              "name": "lastSupplyIndex",
              "type": "uint128"
            },
            {
              "internalType": "uint256",
              "name": "borrowingInterestPerSecond",
              "type": "uint256"
            },
            {
              "internalType": "uint256",
              "name": "lastMoneyMarketBalance",
              "type": "uint256"
            },
            {
              "internalType": "uint40",
              "name": "lastUpdateTimestamp",
              "type": "uint40"
            },
            {
              "internalType": "uint256",
              "name": "totalBorrows",
              "type": "uint256"
            },
            {
              "internalType": "address",
              "name": "interestModelAddress",
              "type": "address"
            },
            {
              "internalType": "uint256",
              "name": "treasuryFactor",
              "type": "uint256"
            },
            {
              "internalType": "bool",
              "name": "isMoneyMarketOn",
              "type": "bool"
            }
          ],
          "internalType": "struct DataTypes.ReserveData",
          "name": "",
          "type": "tuple"
        }
      ],
      "stateMutability": "view",
      "type": "function"
    },
    {
      "inputs": [
        {
          "internalType": "uint256",
          "name": "reserveId",
          "type": "uint256"
        }
      ],
      "name": "getReserveNormalizedIncome",
      "outputs": [
        {
          "internalType": "uint256",
          "name": "",
          "type": "uint256"
        }
      ],
      "stateMutability": "view",
      "type": "function"
    },
    {
      "inputs": [
        {
          "internalType": "uint256",
          "name": "reserveId",
          "type": "uint256"
        }
      ],
      "name": "getTVL",
      "outputs": [
        {
          "internalType": "uint256",
          "name": "",
          "type": "uint256"
        }
      ],
      "stateMutability": "view",
      "type": "function"
    },
    {
      "inputs": [
        {
          "internalType": "uint256",
          "name": "reserveId",
          "type": "uint256"
        }
      ],
      "name": "getTotalBorrowBalance",
      "outputs": [
        {
          "internalType": "uint256",
          "name": "",
          "type": "uint256"
        }
      ],
      "stateMutability": "view",
      "type": "function"
    },
    {
      "inputs": [
        {
          "internalType": "uint256",
          "name": "reserveId",
          "type": "uint256"
        }
      ],
      "name": "openMoneyMarket",
      "outputs": [],
      "stateMutability": "nonpayable",
      "type": "function"
    },
    {
      "inputs": [],
      "name": "pause",
      "outputs": [],
      "stateMutability": "nonpayable",
      "type": "function"
    },
    {
      "inputs": [],
      "name": "paused",
      "outputs": [
        {
          "internalType": "bool",
          "name": "",
          "type": "bool"
        }
      ],
      "stateMutability": "view",
      "type": "function"
    },
    {
      "inputs": [
        {
          "internalType": "uint256",
          "name": "loanId",
          "type": "uint256"
        }
      ],
      "name": "repay",
      "outputs": [
        {
          "internalType": "uint256",
          "name": "repayAmount",
          "type": "uint256"
        }
      ],
      "stateMutability": "nonpayable",
      "type": "function"
    },
    {
      "inputs": [
        {
          "internalType": "uint256",
          "name": "",
          "type": "uint256"
        }
      ],
      "name": "reserves",
      "outputs": [
        {
          "internalType": "uint256",
          "name": "reserveId",
          "type": "uint256"
        },
        {
          "internalType": "address",
          "name": "underlyingAsset",
          "type": "address"
        },
        {
          "internalType": "address",
          "name": "oTokenAddress",
          "type": "address"
        },
        {
          "internalType": "address",
          "name": "moneyMarketAddress",
          "type": "address"
        },
        {
          "internalType": "uint128",
          "name": "lastSupplyIndex",
          "type": "uint128"
        },
        {
          "internalType": "uint256",
          "name": "borrowingInterestPerSecond",
          "type": "uint256"
        },
        {
          "internalType": "uint256",
          "name": "lastMoneyMarketBalance",
          "type": "uint256"
        },
        {
          "internalType": "uint40",
          "name": "lastUpdateTimestamp",
          "type": "uint40"
        },
        {
          "internalType": "uint256",
          "name": "totalBorrows",
          "type": "uint256"
        },
        {
          "internalType": "address",
          "name": "interestModelAddress",
          "type": "address"
        },
        {
          "internalType": "uint256",
          "name": "treasuryFactor",
          "type": "uint256"
        },
        {
          "internalType": "bool",
          "name": "isMoneyMarketOn",
          "type": "bool"
        }
      ],
      "stateMutability": "view",
      "type": "function"
    },
    {
      "inputs": [
        {
          "internalType": "uint256",
          "name": "reserveId",
          "type": "uint256"
        },
        {
          "internalType": "address",
          "name": "interestModelAddress",
          "type": "address"
        }
      ],
      "name": "setInterestModelAddress",
      "outputs": [],
      "stateMutability": "nonpayable",
      "type": "function"
    },
    {
      "inputs": [
        {
          "internalType": "uint256",
          "name": "reserveId",
          "type": "uint256"
        },
        {
          "internalType": "uint256",
          "name": "factor",
          "type": "uint256"
        }
      ],
      "name": "setTreasuryFactor",
      "outputs": [],
      "stateMutability": "nonpayable",
      "type": "function"
    },
    {
      "inputs": [
        {
          "internalType": "uint256",
          "name": "loanId",
          "type": "uint256"
        }
      ],
      "name": "startLiquidation",
      "outputs": [],
      "stateMutability": "nonpayable",
      "type": "function"
    },
    {
      "inputs": [],
      "name": "unpause",
      "outputs": [],
      "stateMutability": "nonpayable",
      "type": "function"
    },
    {
      "inputs": [
        {
          "internalType": "uint256",
          "name": "reserveId",
          "type": "uint256"
        },
        {
          "internalType": "uint256",
          "name": "amount",
          "type": "uint256"
        },
        {
          "internalType": "address",
          "name": "onBehalfOf",
          "type": "address"
        }
      ],
      "name": "withdraw",
      "outputs": [],
      "stateMutability": "nonpayable",
      "type": "function"
    },
    {
      "stateMutability": "payable",
      "type": "receive"
    }
  ],
  "transactionHash": "0xc5ef6098d6d744b6940dcea2bc52cdadeffa931ad07a12540026f251931700ba",
  "args": [
    "0x57528D98c3a8762c78f4D02a89CBc0Eaf77FD322"
  ],
  "solcInputHash": "903b6e0b7a82abf3fd1d087256b904a8",
  "bytecode": "0x60a06040523480156200001157600080fd5b50604051620055e0380380620055e0833981016040819052620000349162000054565b6000805460ff19169055600180556001600160a01b031660805262000086565b6000602082840312156200006757600080fd5b81516001600160a01b03811681146200007f57600080fd5b9392505050565b60805161547a62000166600039600081816104ea01528181610b2601528181610f67015281816110e6015281816112810152818161130501528181611700015281816117e901528181611f1301528181611fe00152818161232b0152818161247f015281816125a70152818161267501528181612705015281816128ee01528181612a5801528181612acd01528181612d7001528181612e3d015281816131480152818161336f015281816137f10152818161392801528181613b3a01528181613dce01528181613e9a01528181613f3d01526140fe015261547a6000f3fe6080604052600436106101445760003560e01c80638b14f10c116100b6578063dcc5cded1161006f578063dcc5cded14610524578063e78f094914610544578063ea3b863514610564578063ee4cc84c14610584578063f277f90b146105a4578063f668a9c5146105c457610183565b80638b14f10c1461042b57806391541e051461044b578063980a8bd914610478578063a28a533614610498578063a7b6eb5a146104b8578063ade97ab5146104d857610183565b80635c975abb116101085780635c975abb1461025e57806367113ef61461028157806376999aeb146102b6578063796d5836146102d65780638334278d146102f65780638456cb591461041657610183565b80630aad628b146101b45780630ad58d2f146101e75780632235ae0f14610209578063371fd8e6146102295780633f4ba83a1461024957610183565b3661018357604080518082018252600381526231313160e81b6020820152905162461bcd60e51b815261017a9190600401614942565b60405180910390fd5b604080518082018252600381526218989960e91b6020820152905162461bcd60e51b815261017a9190600401614942565b3480156101c057600080fd5b506101d46101cf366004614955565b6105e4565b6040519081526020015b60405180910390f35b3480156101f357600080fd5b50610207610202366004614983565b6106fc565b005b34801561021557600080fd5b506101d4610224366004614955565b6109a4565b34801561023557600080fd5b506101d4610244366004614955565b610ad3565b34801561025557600080fd5b506102076110e2565b34801561026a57600080fd5b5060005460ff1660405190151581526020016101de565b34801561028d57600080fd5b506102a161029c3660046149bc565b611226565b604080519283526020830191909152016101de565b3480156102c257600080fd5b506102076102d13660046149fd565b611ee6565b3480156102e257600080fd5b506102076102f1366004614b32565b612327565b34801561030257600080fd5b50610397610311366004614955565b600260208190526000918252604090912080546001820154928201546003830154600484015460058501546006860154600787015460088801546009890154600a8a0154600b909a0154989a6001600160a01b039081169a98811699978116986001600160801b03909716979596949564ffffffffff9094169492939116919060ff168c565b604080519c8d526001600160a01b039b8c1660208e0152998b16998c019990995296891660608b01526001600160801b0390951660808a015260a089019390935260c088019190915264ffffffffff1660e0870152610100860152929092166101208401526101408301919091521515610160820152610180016101de565b34801561042257600080fd5b506102076128ea565b34801561043757600080fd5b506101d4610446366004614ba8565b612a2b565b34801561045757600080fd5b5061046b610466366004614955565b612bd5565b6040516101de9190614cba565b34801561048457600080fd5b50610207610493366004614955565b612d43565b3480156104a457600080fd5b506102076104b3366004614955565b613144565b3480156104c457600080fd5b506102076104d3366004614cc9565b61331d565b3480156104e457600080fd5b5061050c7f000000000000000000000000000000000000000000000000000000000000000081565b6040516001600160a01b0390911681526020016101de565b34801561053057600080fd5b506101d461053f366004614955565b61350e565b34801561055057600080fd5b5061020761055f366004614cf9565b6135e1565b34801561057057600080fd5b5061020761057f3660046149fd565b61379f565b34801561059057600080fd5b506101d461059f366004614955565b6139fc565b3480156105b057600080fd5b506102076105bf366004614955565b613b36565b3480156105d057600080fd5b506101d46105df366004614d38565b613d08565b600081815260026020526040812054829015156040518060400160405280600381526020016203330360ec1b815250906106315760405162461bcd60e51b815260040161017a9190614942565b506000838152600260208181526040928390208351610180810185528154815260018201546001600160a01b03908116938201939093529281015482169383019390935260038301548116606083015260048301546001600160801b03166080830152600583015460a0830152600683015460c0830152600783015464ffffffffff1660e08301526008830154610100830152600983015416610120820152600a820154610140820152600b9091015460ff1615156101608201526106f5906144aa565b9392505050565b60005460ff161561071f5760405162461bcd60e51b815260040161017a90614d96565b600260015414156107425760405162461bcd60e51b815260040161017a90614dc0565b60026001558261076081600090815260026020526040902054151590565b6040518060400160405280600381526020016203330360ec1b8152509061079a5760405162461bcd60e51b815260040161017a9190614942565b5060008481526002602081905260408083209091015490516370a0823160e01b81523360048201526001600160a01b03909116919082906370a0823190602401602060405180830381865afa1580156107f7573d6000803e3d6000fd5b505050506040513d601f19601f8201168201806040525081019061081b9190614df7565b90508460001981141561082b5750805b60008111801561083b5750818111155b6040518060400160405280600381526020016233323160e81b815250906108755760405162461bcd60e51b815260040161017a9190614942565b5080610880886105e4565b10156040518060400160405280600381526020016219991960e91b815250906108bc5760405162461bcd60e51b815260040161017a9190614942565b50600087815260026020526040808220815163395e905560e01b81526004810191909152336024820152604481018490526001600160a01b0388166064820152905173f13a69F5611049fE39842c5F0b46c9B327FC12D89263395e90559260848082019391829003018186803b15801561093557600080fd5b505af4158015610949573d6000803e3d6000fd5b505050506109543390565b6001600160a01b0316877f9da6493a92039daf47d1f2d7a782299c5994c6323eb1e972f69c432089ec52bf8360405161098f91815260200190565b60405180910390a35050600180555050505050565b60008181526002602081815260408084208151610180810183528154815260018201546001600160a01b0390811694820194909452938101548316848301526003810154831660608501526004808201546001600160801b03166080860152600582015460a0860152600682015460c0860152600782015464ffffffffff1660e086015260088201546101008601526009820154909316610120850152600a810154610140850152600b015460ff1615156101608401525163328eb49160e01b815273f13a69F5611049fE39842c5F0b46c9B327FC12D89263328eb49192610a8c9201614cba565b602060405180830381865af4158015610aa9573d6000803e3d6000fd5b505050506040513d601f19601f82011682018060405250810190610acd9190614df7565b92915050565b6000805460ff1615610af75760405162461bcd60e51b815260040161017a90614d96565b60026001541415610b1a5760405162461bcd60e51b815260040161017a90614dc0565b600260018190555060007f00000000000000000000000000000000000000000000000000000000000000006001600160a01b03166335bc868a6040518163ffffffff1660e01b8152600401602060405180830381865afa158015610b82573d6000803e3d6000fd5b505050506040513d601f19601f82011682018060405250810190610ba69190614e1b565b6040516331a9108f60e11b8152600481018590529091506000906001600160a01b03831690636352211e90602401602060405180830381865afa158015610bf1573d6000803e3d6000fd5b505050506040513d601f19601f82011682018060405250810190610c159190614e1b565b60405163622fe39f60e01b81526004810186905290915082906000906001600160a01b0383169063622fe39f906024016101c060405180830381865afa158015610c63573d6000803e3d6000fd5b505050506040513d601f19601f82011682018060405250810190610c879190614f6f565b90506001816101a001516005811115610ca257610ca2614f8c565b1480610cc457506002816101a001516005811115610cc257610cc2614f8c565b145b80610ce557506003816101a001516005811115610ce357610ce3614f8c565b145b6040518060400160405280600381526020016233333360e81b81525090610d1f5760405162461bcd60e51b815260040161017a9190614942565b50604051634b72cb4160e11b8152600481018790526000906001600160a01b038416906396e5968290602401602060405180830381865afa158015610d68573d6000803e3d6000fd5b505050506040513d601f19601f82011682018060405250810190610d8c9190614df7565b604051636b52b36560e01b8152600481018990529091506000906001600160a01b03851690636b52b36590602401602060405180830381865afa158015610dd7573d6000803e3d6000fd5b505050506040513d601f19601f82011682018060405250810190610dfb9190614df7565b9050610e078183614552565b83516000818152600260205260409020549198509015156040518060400160405280600381526020016203330360ec1b81525090610e585760405162461bcd60e51b815260040161017a9190614942565b506000818152600260205260409081902090516395705c5f60e01b815273f13a69F5611049fE39842c5F0b46c9B327FC12D8916395705c5f91610ea4919088908d9088906004016150c0565b60006040518083038186803b158015610ebc57600080fd5b505af4158015610ed0573d6000803e3d6000fd5b50505050846001600160a01b031663563086128a88610eec3390565b6040516001600160e01b031960e086901b16815260048101939093526001600160a01b039182166024840152166044820152606401600060405180830381600087803b158015610f3b57600080fd5b505af1158015610f4f573d6000803e3d6000fd5b505050506000610f5c3390565b6001600160a01b03167f00000000000000000000000000000000000000000000000000000000000000006001600160a01b0316635fee67086040518163ffffffff1660e01b8152600401602060405180830381865afa158015610fc3573d6000803e3d6000fd5b505050506040513d601f19601f82011682018060405250810190610fe79190614e1b565b6001600160a01b031614610ffb5786610ffd565b335b60208601516040808801519051632142170760e11b81526001600160a01b038a811660048301528085166024830152604482019290925292935016906342842e0e90606401600060405180830381600087803b15801561105c57600080fd5b505af1158015611070573d6000803e3d6000fd5b5050505089876001600160a01b0316837fb26072383248d9c24b411a4bbd7216134067da189b28216744569be98bfe9b7f6110a83390565b604080516001600160a01b039092168252602082018f9052810189905260600160405180910390a450506001805550949695505050505050565b60007f00000000000000000000000000000000000000000000000000000000000000006001600160a01b0316639a9dbb996040518163ffffffff1660e01b8152600401602060405180830381865afa158015611142573d6000803e3d6000fd5b505050506040513d601f19601f820116820180604052508101906111669190614e1b565b90506001600160a01b038116632500f2b6336040516001600160e01b031960e084901b1681526001600160a01b039091166004820152602401602060405180830381865afa1580156111bc573d6000803e3d6000fd5b505050506040513d601f19601f820116820180604052508101906111e091906150f9565b6040518060400160405280600381526020016232303160e81b8152509061121a5760405162461bcd60e51b815260040161017a9190614942565b5061122361455e565b50565b60008061123560005460ff1690565b156112525760405162461bcd60e51b815260040161017a90614d96565b600260015414156112755760405162461bcd60e51b815260040161017a90614dc0565b600260018190555060007f00000000000000000000000000000000000000000000000000000000000000006001600160a01b03166335bc868a6040518163ffffffff1660e01b8152600401602060405180830381865afa1580156112dd573d6000803e3d6000fd5b505050506040513d601f19601f820116820180604052508101906113019190614e1b565b90507f00000000000000000000000000000000000000000000000000000000000000006001600160a01b031663d633590a6040518163ffffffff1660e01b8152600401602060405180830381865afa158015611361573d6000803e3d6000fd5b505050506040513d601f19601f820116820180604052508101906113859190614e1b565b6001600160a01b0316336001600160a01b03161415611456576040516331a9108f60e11b8152600481018890526001600160a01b038086169190831690636352211e90602401602060405180830381865afa1580156113e8573d6000803e3d6000fd5b505050506040513d601f19601f8201168201806040525081019061140c9190614e1b565b6001600160a01b031614604051806040016040528060038152602001620d0c0d60ea1b815250906114505760405162461bcd60e51b815260040161017a9190614942565b5061150d565b336040516331a9108f60e11b8152600481018990526001600160a01b0391821691831690636352211e90602401602060405180830381865afa1580156114a0573d6000803e3d6000fd5b505050506040513d601f19601f820116820180604052508101906114c49190614e1b565b6001600160a01b031614604051806040016040528060038152602001620d0c0d60ea1b815250906115085760405162461bcd60e51b815260040161017a9190614942565b503393505b60006040518061014001604052806000815260200160008152602001600081526020016000815260200160008152602001600081526020016000815260200160008152602001836001600160a01b031663622fe39f8b6040518263ffffffff1660e01b815260040161158191815260200190565b6101c060405180830381865afa15801561159f573d6000803e3d6000fd5b505050506040513d601f19601f820116820180604052508101906115c39190614f6f565b815260200160019052604051632e31150760e11b8152600481018a90529091506001600160a01b03831690635c622a0e90602401602060405180830381865afa158015611614573d6000803e3d6000fd5b505050506040513d601f19601f820116820180604052508101906116389190615114565b816101200190600581111561164f5761164f614f8c565b9081600581111561166257611662614f8c565b9052506002816101200151600581111561167e5761167e614f8c565b14806116a057506003816101200151600581111561169e5761169e614f8c565b145b6040518060400160405280600381526020016233333560e81b815250906116da5760405162461bcd60e51b815260040161017a9190614942565b5061010081015180516020909101516040516346296c6960e01b81526001600160a01b037f000000000000000000000000000000000000000000000000000000000000000016926346296c6992611745926004019182526001600160a01b0316602082015260400190565b602060405180830381865afa158015611762573d6000803e3d6000fd5b505050506040513d601f19601f8201168201806040525081019061178691906150f9565b6040518060400160405280600381526020016219999960e91b815250906117c05760405162461bcd60e51b815260040161017a9190614942565b506101008101518051602090910151604051639dce429960e01b81526000926001600160a01b037f00000000000000000000000000000000000000000000000000000000000000001692639dce4299926118309291906004019182526001600160a01b0316602082015260400190565b600060405180830381865afa15801561184d573d6000803e3d6000fd5b505050506040513d6000823e601f3d908101601f191682016040526118759190810190615174565b90508060800151871015801561188f57508060a001518711155b6040518060400160405280600381526020016203333360ec1b815250906118c95760405162461bcd60e51b815260040161017a9190614942565b50610100820151805160208201516040909201516118e79290612a2b565b608083015260c0820188905260001988141561190857608082015160c08301525b8160c00151826080015110156040518060400160405280600381526020016233333160e81b8152509061194e5760405162461bcd60e51b815260040161017a9190614942565b50604051631c18749560e01b8152600481018a90526001600160a01b03841690631c18749590602401602060405180830381865afa158015611994573d6000803e3d6000fd5b505050506040513d601f19601f820116820180604052508101906119b89190614df7565b8252604051634b72cb4160e11b8152600481018a90526001600160a01b038416906396e5968290602401602060405180830381865afa1580156119ff573d6000803e3d6000fd5b505050506040513d601f19601f82011682018060405250810190611a239190614df7565b606083015260c08201516101008301516080015111611ac1576000611a5e836101000151608001518460c001516145f190919063ffffffff16565b60608401518451919250611a7191615262565b811015611a9e5760608301518351611a94918391611a8e91614552565b906145f1565b6020840152611abb565b60608301518351611ab59190611a8e9084906145f1565b60408401525b50611af9565b60608201518251611af391611ad591615262565b60c084015161010085015160800151611aed916145f1565b90614552565b60208301525b604082015115611b5b5761010082015151611b13906105e4565b60a083018190526040808401518151808301909252600382526233303160e81b602083015290911015611b595760405162461bcd60e51b815260040161017a9190614942565b505b604051632b18430960e11b8152600481018a90526001600160a01b03878116602483018190526044830152841690635630861290606401600060405180830381600087803b158015611bac57600080fd5b505af1158015611bc0573d6000803e3d6000fd5b50505061010080840180515160009081526002602081815260408084208151610180810183528154815260018201546001600160a01b0390811694820194909452938101548316918401919091526003810154821660608085019190915260048201546001600160801b0316608080860191909152600583015460a0860152600683015460c080870191909152600784015464ffffffffff1660e08701526008840154988601989098526009830154909316610120850152600a820154610140850152600b9091015460ff16151561016084015288015194880151885194519091015173f13a69F5611049fE39842c5F0b46c9B327FC12D8965063dfdafca3959294929392611ccf9190614552565b6040518663ffffffff1660e01b8152600401611cef95949392919061527a565b602060405180830381865af4158015611d0c573d6000803e3d6000fd5b505050506040513d601f19601f82011682018060405250810190611d309190614df7565b8260e0018181525050600080846001600160a01b03166370b4ebeb856101000151600001518a87610100015160200151886101000151604001518960c001518f8b60e001516040518863ffffffff1660e01b8152600401611d9797969594939291906152af565b6101e0604051808303816000875af1158015611db7573d6000803e3d6000fd5b505050506040513d601f19601f82011682018060405250810190611ddb91906152eb565b610100860180515160009081526002602090815260409182902092518951918a0151838b015160608c015194516303eed27160e21b815297995095975073f13a69F5611049fE39842c5F0b46c9B327FC12D896630fbb49c496611e48969593948a94909392600401615319565b60006040518083038186803b158015611e6057600080fd5b505af4158015611e74573d6000803e3d6000fd5b505050508a886001600160a01b0316856101000151600001517fbbd12926def8e41e5f1c7a10d219e405292d14f53bfdba19eebab2e3faa6c74a85604051611ebe91815260200190565b60405180910390a4505050602081015160409091015160018055909890975095505050505050565b60005460ff1615611f095760405162461bcd60e51b815260040161017a90614d96565b6001600160a01b037f00000000000000000000000000000000000000000000000000000000000000001663529a356f336040516001600160e01b031960e084901b1681526001600160a01b039091166004820152602401602060405180830381865afa158015611f7d573d6000803e3d6000fd5b505050506040513d601f19601f82011682018060405250810190611fa191906150f9565b6040518060400160405280600381526020016232303360e81b81525090611fdb5760405162461bcd60e51b815260040161017a9190614942565b5060007f00000000000000000000000000000000000000000000000000000000000000006001600160a01b03166335bc868a6040518163ffffffff1660e01b8152600401602060405180830381865afa15801561203c573d6000803e3d6000fd5b505050506040513d601f19601f820116820180604052508101906120609190614e1b565b60405163622fe39f60e01b8152600481018590529091506000906001600160a01b0383169063622fe39f906024016101c060405180830381865afa1580156120ac573d6000803e3d6000fd5b505050506040513d601f19601f820116820180604052508101906120d09190614f6f565b90506005816101a0015160058111156120eb576120eb614f8c565b146040518060400160405280600381526020016233363160e81b815250906121265760405162461bcd60e51b815260040161017a9190614942565b50604051636b52b36560e01b8152600481018590526000906001600160a01b03841690636b52b36590602401602060405180830381865afa15801561216f573d6000803e3d6000fd5b505050506040513d601f19601f820116820180604052508101906121939190614df7565b90508084101560405180604001604052806003815260200162199b1960e91b815250906121d35760405162461bcd60e51b815260040161017a9190614942565b5081516000908152600260205260409081902090516339c5132760e11b81526004810191909152602481018590526044810182905273f13a69F5611049fE39842c5F0b46c9B327FC12D89063738a264e9060640160006040518083038186803b15801561223f57600080fd5b505af4158015612253573d6000803e3d6000fd5b505060405163ed213bbf60e01b8152600481018890526001600160a01b038616925063ed213bbf9150602401600060405180830381600087803b15801561229957600080fd5b505af11580156122ad573d6000803e3d6000fd5b5050505081602001516001600160a01b03168583600001517fcde0dc431e6f088cbd9c8b1768aff225467e33d4ac1d3356494ef79600a8680585604001516122f23390565b604080519283526001600160a01b03909116602083015281018990526060810186905260800160405180910390a45050505050565b60007f00000000000000000000000000000000000000000000000000000000000000006001600160a01b0316639a9dbb996040518163ffffffff1660e01b8152600401602060405180830381865afa158015612387573d6000803e3d6000fd5b505050506040513d601f19601f820116820180604052508101906123ab9190614e1b565b90506001600160a01b038116637be53ca1336040516001600160e01b031960e084901b1681526001600160a01b039091166004820152602401602060405180830381865afa158015612401573d6000803e3d6000fd5b505050506040513d601f19601f8201168201806040525081019061242591906150f9565b6040518060400160405280600381526020016219181960e91b8152509061245f5760405162461bcd60e51b815260040161017a9190614942565b5061246e600380546001019055565b600061247960035490565b905060007f00000000000000000000000000000000000000000000000000000000000000006001600160a01b031663420897916040518163ffffffff1660e01b8152600401602060405180830381865afa1580156124db573d6000803e3d6000fd5b505050506040513d601f19601f820116820180604052508101906124ff9190614e1b565b6001600160a01b0316635e08f3378387878a6040518563ffffffff1660e01b81526004016125309493929190615364565b6020604051808303816000875af115801561254f573d6000803e3d6000fd5b505050506040513d601f19601f820116820180604052508101906125739190614e1b565b9050604051806101800160405280838152602001876001600160a01b03168152602001826001600160a01b031681526020017f00000000000000000000000000000000000000000000000000000000000000006001600160a01b031663efe3e3e36040518163ffffffff1660e01b8152600401602060405180830381865afa158015612603573d6000803e3d6000fd5b505050506040513d601f19601f820116820180604052508101906126279190614e1b565b6001600160a01b031681526020016b033b2e3c9fd0803ce80000006001600160801b031681526020016000815260200160008152602001600064ffffffffff168152602001600081526020017f00000000000000000000000000000000000000000000000000000000000000006001600160a01b03166390839e3f6040518163ffffffff1660e01b8152600401602060405180830381865afa1580156126d1573d6000803e3d6000fd5b505050506040513d601f19601f820116820180604052508101906126f59190614e1b565b6001600160a01b031681526020017f00000000000000000000000000000000000000000000000000000000000000006001600160a01b0316634322b7146040518163ffffffff1660e01b8152600401602060405180830381865afa158015612761573d6000803e3d6000fd5b505050506040513d601f19601f820116820180604052508101906127859190614df7565b81526001602091820181905260008581526002808452604091829020855181559385015192840180546001600160a01b03199081166001600160a01b03958616179091558583015191850180548216928516929092179091556060850151600385018054831691851691909117905560808501516004850180546fffffffffffffffffffffffffffffffff19166001600160801b0390921691909117905560a0850151600585015560c0850151600685015560e085015160078501805464ffffffffff191664ffffffffff9092169190911790556101008501516008850155610120850151600985018054909216908416179055610140840151600a84015561016090930151600b909201805460ff19169215159290921790915590518282169188169084907f4e9124cfa456690cd56bf3d36fe58f11cafd4e3faf6b2748e8eabe68e08a3370906128da908a908a906153a9565b60405180910390a4505050505050565b60007f00000000000000000000000000000000000000000000000000000000000000006001600160a01b0316639a9dbb996040518163ffffffff1660e01b8152600401602060405180830381865afa15801561294a573d6000803e3d6000fd5b505050506040513d601f19601f8201168201806040525081019061296e9190614e1b565b90506001600160a01b038116632500f2b6336040516001600160e01b031960e084901b1681526001600160a01b039091166004820152602401602060405180830381865afa1580156129c4573d6000803e3d6000fd5b505050506040513d601f19601f820116820180604052508101906129e891906150f9565b6040518060400160405280600381526020016232303160e81b81525090612a225760405162461bcd60e51b815260040161017a9190614942565b506112236145fd565b604051639dce429960e01b8152600481018490526001600160a01b038381166024830152600091612bcd917f00000000000000000000000000000000000000000000000000000000000000001690639dce429990604401600060405180830381865afa158015612a9f573d6000803e3d6000fd5b505050506040513d6000823e601f3d908101601f19168201604052612ac79190810190615174565b606001517f00000000000000000000000000000000000000000000000000000000000000006001600160a01b031663970f4c3a6040518163ffffffff1660e01b8152600401602060405180830381865afa158015612b29573d6000803e3d6000fd5b505050506040513d601f19601f82011682018060405250810190612b4d9190614e1b565b6040516350d16d9f60e01b8152600481018890526001600160a01b0387811660248301526044820187905291909116906350d16d9f90606401602060405180830381865afa158015612ba3573d6000803e3d6000fd5b505050506040513d601f19601f82011682018060405250810190612bc79190614df7565b90614655565b949350505050565b6040805161018081018252600080825260208201819052918101829052606081018290526080810182905260a0810182905260c0810182905260e08101829052610100810182905261012081018290526101408101829052610160810191909152600082815260026020526040902054829015156040518060400160405280600381526020016203330360ec1b81525090612c835760405162461bcd60e51b815260040161017a9190614942565b5050506000908152600260208181526040928390208351610180810185528154815260018201546001600160a01b03908116938201939093529281015482169383019390935260038301548116606083015260048301546001600160801b03166080830152600583015460a0830152600683015460c0830152600783015464ffffffffff1660e08301526008830154610100830152600983015416610120820152600a820154610140820152600b9091015460ff16151561016082015290565b60005460ff1615612d665760405162461bcd60e51b815260040161017a90614d96565b6001600160a01b037f00000000000000000000000000000000000000000000000000000000000000001663529a356f336040516001600160e01b031960e084901b1681526001600160a01b039091166004820152602401602060405180830381865afa158015612dda573d6000803e3d6000fd5b505050506040513d601f19601f82011682018060405250810190612dfe91906150f9565b6040518060400160405280600381526020016232303360e81b81525090612e385760405162461bcd60e51b815260040161017a9190614942565b5060007f00000000000000000000000000000000000000000000000000000000000000006001600160a01b03166335bc868a6040518163ffffffff1660e01b8152600401602060405180830381865afa158015612e99573d6000803e3d6000fd5b505050506040513d601f19601f82011682018060405250810190612ebd9190614e1b565b60405163622fe39f60e01b8152600481018490529091506000906001600160a01b0383169063622fe39f906024016101c060405180830381865afa158015612f09573d6000803e3d6000fd5b505050506040513d601f19601f82011682018060405250810190612f2d9190614f6f565b90506004816101a001516005811115612f4857612f48614f8c565b146040518060400160405280600381526020016203336360ec1b81525090612f835760405162461bcd60e51b815260040161017a9190614942565b508051600090815260026020526040908190209051632a1ed55f60e11b815273f13a69F5611049fE39842c5F0b46c9B327FC12D89163543daabe91612fcd919085906004016153d7565b60006040518083038186803b158015612fe557600080fd5b505af4158015612ff9573d6000803e3d6000fd5b5050505080602001516001600160a01b03166342842e0e836130183390565b60408086015190516001600160e01b031960e086901b1681526001600160a01b0393841660048201529290911660248301526044820152606401600060405180830381600087803b15801561306c57600080fd5b505af1158015613080573d6000803e3d6000fd5b505060405163980a8bd960e01b8152600481018690526001600160a01b038516925063980a8bd99150602401600060405180830381600087803b1580156130c657600080fd5b505af11580156130da573d6000803e3d6000fd5b5050505080602001516001600160a01b03168382600001517f338bea6971e9221d0ae5f105c79da18c6614a11556e217e0aaa361424fe654d2846040015161311f3390565b604080519283526001600160a01b0390911660208301520160405180910390a4505050565b60007f00000000000000000000000000000000000000000000000000000000000000006001600160a01b0316639a9dbb996040518163ffffffff1660e01b8152600401602060405180830381865afa1580156131a4573d6000803e3d6000fd5b505050506040513d601f19601f820116820180604052508101906131c89190614e1b565b90506001600160a01b038116632500f2b6336040516001600160e01b031960e084901b1681526001600160a01b039091166004820152602401602060405180830381865afa15801561321e573d6000803e3d6000fd5b505050506040513d601f19601f8201168201806040525081019061324291906150f9565b6040518060400160405280600381526020016232303160e81b8152509061327c5760405162461bcd60e51b815260040161017a9190614942565b50600082815260026020908152604091829020600b01548251808401909352600383526233303360e81b9183019190915260ff166132cd5760405162461bcd60e51b815260040161017a9190614942565b5060008281526002602052604090206132e5906146fd565b6040518281527ffa52d8cf59b61f2698ee5e988b488cc589a524be112b15acf937dab59bf36120906020015b60405180910390a15050565b600082815260026020526040902054829015156040518060400160405280600381526020016203330360ec1b8152509061336a5760405162461bcd60e51b815260040161017a9190614942565b5060007f00000000000000000000000000000000000000000000000000000000000000006001600160a01b0316639a9dbb996040518163ffffffff1660e01b8152600401602060405180830381865afa1580156133cb573d6000803e3d6000fd5b505050506040513d601f19601f820116820180604052508101906133ef9190614e1b565b90506001600160a01b038116637be53ca1336040516001600160e01b031960e084901b1681526001600160a01b039091166004820152602401602060405180830381865afa158015613445573d6000803e3d6000fd5b505050506040513d601f19601f8201168201806040525081019061346991906150f9565b6040518060400160405280600381526020016219181960e91b815250906134a35760405162461bcd60e51b815260040161017a9190614942565b5060008481526002602090815260409182902060090180546001600160a01b0319166001600160a01b038716908117909155915191825285917f2a510455968cb9bf56ecbeeab12f13ed51a86ebdb3cdcec2f502f78c9f2a454191015b60405180910390a250505050565b600081815260026020526040812054829015156040518060400160405280600381526020016203330360ec1b8152509061355b5760405162461bcd60e51b815260040161017a9190614942565b5060008381526002602052604090819020905163564f0dfb60e01b8152600481019190915273f13a69F5611049fE39842c5F0b46c9B327FC12D89063564f0dfb906024015b602060405180830381865af41580156135bd573d6000803e3d6000fd5b505050506040513d601f19601f820116820180604052508101906106f59190614df7565b60005460ff16156136045760405162461bcd60e51b815260040161017a90614d96565b600260015414156136275760405162461bcd60e51b815260040161017a90614dc0565b60026001558361364581600090815260026020526040902054151590565b6040518060400160405280600381526020016203330360ec1b8152509061367f5760405162461bcd60e51b815260040161017a9190614942565b5060408051808201909152600381526203332360ec1b6020820152846136b85760405162461bcd60e51b815260040161017a9190614942565b50600085815260026020526040808220815163fe981a4f60e01b81526004810191909152336024820152604481018790526001600160a01b0386166064820152905173f13a69F5611049fE39842c5F0b46c9B327FC12D89263fe981a4f9260848082019391829003018186803b15801561373157600080fd5b505af4158015613745573d6000803e3d6000fd5b50505050816137513390565b6001600160a01b0316867fd36a2f67d06d285786f61a32b052b9ace6b0b7abef5177b54358abdc83a0b69b8760405161378c91815260200190565b60405180910390a4505060018055505050565b600082815260026020526040902054829015156040518060400160405280600381526020016203330360ec1b815250906137ec5760405162461bcd60e51b815260040161017a9190614942565b5060007f00000000000000000000000000000000000000000000000000000000000000006001600160a01b0316639a9dbb996040518163ffffffff1660e01b8152600401602060405180830381865afa15801561384d573d6000803e3d6000fd5b505050506040513d601f19601f820116820180604052508101906138719190614e1b565b90506001600160a01b038116637be53ca1336040516001600160e01b031960e084901b1681526001600160a01b039091166004820152602401602060405180830381865afa1580156138c7573d6000803e3d6000fd5b505050506040513d601f19601f820116820180604052508101906138eb91906150f9565b6040518060400160405280600381526020016219181960e91b815250906139255760405162461bcd60e51b815260040161017a9190614942565b507f00000000000000000000000000000000000000000000000000000000000000006001600160a01b031663d23a65cf6040518163ffffffff1660e01b8152600401602060405180830381865afa158015613984573d6000803e3d6000fd5b505050506040513d601f19601f820116820180604052508101906139a89190614df7565b8311156139b457600080fd5b60008481526002602052604090819020600a018490555184907fa42eaeef2868aa910fcded03fb023a51209c7304b595991cb71ff2968b266087906135009086815260200190565b600081815260026020526040812054829015156040518060400160405280600381526020016203330360ec1b81525090613a495760405162461bcd60e51b815260040161017a9190614942565b506000838152600260208181526040928390208351610180810185528154815260018201546001600160a01b0390811693820193909352928101548216838501526003810154821660608401526004808201546001600160801b03166080850152600582015460a0850152600682015460c0850152600782015464ffffffffff1660e085015260088201546101008501526009820154909216610120840152600a810154610140840152600b015460ff161515610160830152915163640d9a7760e11b815273f13a69F5611049fE39842c5F0b46c9B327FC12D89263c81b34ee926135a092909101614cba565b60007f00000000000000000000000000000000000000000000000000000000000000006001600160a01b0316639a9dbb996040518163ffffffff1660e01b8152600401602060405180830381865afa158015613b96573d6000803e3d6000fd5b505050506040513d601f19601f82011682018060405250810190613bba9190614e1b565b90506001600160a01b038116632500f2b6336040516001600160e01b031960e084901b1681526001600160a01b039091166004820152602401602060405180830381865afa158015613c10573d6000803e3d6000fd5b505050506040513d601f19601f82011682018060405250810190613c3491906150f9565b6040518060400160405280600381526020016232303160e81b81525090613c6e5760405162461bcd60e51b815260040161017a9190614942565b50600082815260026020908152604091829020600b01548251808401909352600383526233303360e81b9183019190915260ff1615613cc05760405162461bcd60e51b815260040161017a9190614942565b506000828152600260205260409020613cd8906147f8565b6040518281527f7d112c7767bf19c038f01732f5928c582a8f0de6fce5f2b0c70e9e4a91d3d39c90602001613311565b6000805460ff1615613d2c5760405162461bcd60e51b815260040161017a90614d96565b60026001541415613d4f5760405162461bcd60e51b815260040161017a90614dc0565b600260015586613d6d81600090815260026020526040902054151590565b6040518060400160405280600381526020016203330360ec1b81525090613da75760405162461bcd60e51b815260040161017a9190614942565b506040516346296c6960e01b8152600481018990526001600160a01b0386811660248301527f000000000000000000000000000000000000000000000000000000000000000016906346296c6990604401602060405180830381865afa158015613e15573d6000803e3d6000fd5b505050506040513d601f19601f82011682018060405250810190613e3991906150f9565b6040518060400160405280600381526020016219999960e91b81525090613e735760405162461bcd60e51b815260040161017a9190614942565b50604051639dce429960e01b8152600481018990526001600160a01b0386811660248301527f00000000000000000000000000000000000000000000000000000000000000001690639dce429990604401600060405180830381865afa158015613ee1573d6000803e3d6000fd5b505050506040513d6000823e601f3d908101601f19168201604052613f099190810190615174565b608001518610158015613fb45750604051639dce429960e01b8152600481018990526001600160a01b0386811660248301527f00000000000000000000000000000000000000000000000000000000000000001690639dce429990604401600060405180830381865afa158015613f84573d6000803e3d6000fd5b505050506040513d6000823e601f3d908101601f19168201604052613fac9190810190615174565b60a001518611155b6040518060400160405280600381526020016203333360ec1b81525090613fee5760405162461bcd60e51b815260040161017a9190614942565b5061402a6040518060a001604052806000815260200160008152602001600081526020016000815260200160006001600160a01b031681525090565b614035898787612a2b565b8152614040896105e4565b60208201526040810188905260001988141561407557602081015181511061406c57806020015161406f565b80515b60408201525b60408082015182518251808401909352600383526233333160e81b602084015210156140b45760405162461bcd60e51b815260040161017a9190614942565b508060400151816020015110156040518060400160405280600381526020016233303160e81b815250906140fb5760405162461bcd60e51b815260040161017a9190614942565b507f00000000000000000000000000000000000000000000000000000000000000006001600160a01b03166335bc868a6040518163ffffffff1660e01b8152600401602060405180830381865afa15801561415a573d6000803e3d6000fd5b505050506040513d601f19601f8201168201806040525081019061417e9190614e1b565b6001600160a01b03908116608083015286166342842e0e3360808401516040516001600160e01b031960e085901b1681526001600160a01b0392831660048201529116602482015260448101889052606401600060405180830381600087803b1580156141ea57600080fd5b505af11580156141fe573d6000803e3d6000fd5b50505060008a81526002602081815260408084208151610180810183528154815260018201546001600160a01b0390811694820194909452938101548316848301526003810154831660608501526004808201546001600160801b03166080860152600582015460a0860152600682015460c0860152600782015464ffffffffff1660e086015260088201546101008601526009820154909316610120850152600a810154610140850152600b015460ff16151561016084015285810151905163dfdafca360e01b815273f13a69F5611049fE39842c5F0b46c9B327FC12D8955063dfdafca3946142f8949390928392909183910161527a565b602060405180830381865af4158015614315573d6000803e3d6000fd5b505050506040513d601f19601f820116820180604052508101906143399190614df7565b81606001818152505060008082608001516001600160a01b03166370b4ebeb8c888b8b88604001518f8a606001516040518863ffffffff1660e01b815260040161438997969594939291906152af565b6101e0604051808303816000875af11580156143a9573d6000803e3d6000fd5b505050506040513d601f19601f820116820180604052508101906143cd91906152eb565b60008d81526002602052604090819020905163030b159d60e31b815292945090925073f13a69F5611049fE39842c5F0b46c9B327FC12D891631858ace8916144199185906004016153d7565b60006040518083038186803b15801561443157600080fd5b505af4158015614445573d6000803e3d6000fd5b5050505081866001600160a01b03168c7ff9a33434428db5f0416c03e38307599ad0b9b9965d6c070eb08e87cc1f0ca50e61447d3390565b6040516001600160a01b03909116815260200160405180910390a450600180559998505050505050505050565b6000816101600151156145155760608201516020830151604080850151905163d4fac45d60e01b81526001600160a01b039283166004820152908216602482015291169063d4fac45d906044015b602060405180830381865afa158015610aa9573d6000803e3d6000fd5b602082015160408084015190516370a0823160e01b81526001600160a01b0391821660048201529116906370a08231906024016144f8565b919050565b60006106f58284615262565b60005460ff166145a75760405162461bcd60e51b815260206004820152601460248201527314185d5cd8589b194e881b9bdd081c185d5cd95960621b604482015260640161017a565b6000805460ff191690557f5db9ee0a495bf2e6ff9c91a7834c1ba4fdd244a5e8aa4e537bd38aeae4b073aa335b6040516001600160a01b03909116815260200160405180910390a1565b60006106f582846153ec565b60005460ff16156146205760405162461bcd60e51b815260040161017a90614d96565b6000805460ff191660011790557f62e78cea01bee320cd4e420270b5ea74000d11b0c9f74754ebdbfc544b05a2586145d43390565b6000821580614662575081155b1561466f57506000610acd565b8161467d6002612710615403565b614689906000196153ec565b6146939190615403565b8311156040518060400160405280600381526020016203130360ec1b815250906146d05760405162461bcd60e51b815260040161017a9190614942565b506127106146df600282615403565b6146e98486615425565b6146f39190615262565b6106f59190615403565b60028101546003820154600183015460405163d4fac45d60e01b81526001600160a01b0391821660048201529281166024840181905292600092919091169063d4fac45d90604401602060405180830381865afa158015614762573d6000803e3d6000fd5b505050506040513d601f19601f820116820180604052508101906147869190614df7565b604051627b8a6760e11b8152600481018290526001600160a01b0384166024820181905291925062f714ce90604401600060405180830381600087803b1580156147cf57600080fd5b505af11580156147e3573d6000803e3d6000fd5b505050600b909301805460ff19169055505050565b600b8101805460ff1916600190811790915581015460028201546040516370a0823160e01b81526001600160a01b03918216600482015260009291909116906370a0823190602401602060405180830381865afa15801561485d573d6000803e3d6000fd5b505050506040513d601f19601f820116820180604052508101906148819190614df7565b600283015460405163b6b55f2560e01b8152600481018390529192506001600160a01b03169063b6b55f2590602401600060405180830381600087803b1580156148ca57600080fd5b505af11580156148de573d6000803e3d6000fd5b505050505050565b60005b838110156149015781810151838201526020016148e9565b83811115614910576000848401525b50505050565b6000815180845261492e8160208601602086016148e6565b601f01601f19169290920160200192915050565b6020815260006106f56020830184614916565b60006020828403121561496757600080fd5b5035919050565b6001600160a01b038116811461122357600080fd5b60008060006060848603121561499857600080fd5b833592506020840135915060408401356149b18161496e565b809150509250925092565b600080600080608085870312156149d257600080fd5b84359350602085013592506040850135915060608501356149f28161496e565b939692955090935050565b60008060408385031215614a1057600080fd5b50508035926020909101359150565b634e487b7160e01b600052604160045260246000fd5b6040516101c0810167ffffffffffffffff81118282101715614a5957614a59614a1f565b60405290565b604051610100810167ffffffffffffffff81118282101715614a5957614a59614a1f565b604051601f8201601f1916810167ffffffffffffffff81118282101715614aac57614aac614a1f565b604052919050565b600067ffffffffffffffff821115614ace57614ace614a1f565b50601f01601f191660200190565b600082601f830112614aed57600080fd5b8135614b00614afb82614ab4565b614a83565b818152846020838601011115614b1557600080fd5b816020850160208301376000918101602001919091529392505050565b600080600060608486031215614b4757600080fd5b8335614b528161496e565b9250602084013567ffffffffffffffff80821115614b6f57600080fd5b614b7b87838801614adc565b93506040860135915080821115614b9157600080fd5b50614b9e86828701614adc565b9150509250925092565b600080600060608486031215614bbd57600080fd5b833592506020840135614bcf8161496e565b929592945050506040919091013590565b805182526020810151614bfe60208401826001600160a01b03169052565b506040810151614c1960408401826001600160a01b03169052565b506060810151614c3460608401826001600160a01b03169052565b506080810151614c4f60808401826001600160801b03169052565b5060a081015160a083015260c081015160c083015260e0810151614c7c60e084018264ffffffffff169052565b506101008181015190830152610120808201516001600160a01b03169083015261014080820151908301526101608082015180151582850152614910565b6101808101610acd8284614be0565b60008060408385031215614cdc57600080fd5b823591506020830135614cee8161496e565b809150509250929050565b60008060008060808587031215614d0f57600080fd5b84359350602085013592506040850135614d288161496e565b9396929550929360600135925050565b60008060008060008060c08789031215614d5157600080fd5b8635955060208701359450604087013593506060870135614d718161496e565b92506080870135915060a0870135614d888161496e565b809150509295509295509295565b60208082526010908201526f14185d5cd8589b194e881c185d5cd95960821b604082015260600190565b6020808252601f908201527f5265656e7472616e637947756172643a207265656e7472616e742063616c6c00604082015260600190565b600060208284031215614e0957600080fd5b5051919050565b805161454d8161496e565b600060208284031215614e2d57600080fd5b81516106f58161496e565b80516001600160801b038116811461454d57600080fd5b805164ffffffffff8116811461454d57600080fd5b80516006811061454d57600080fd5b60006101c08284031215614e8657600080fd5b614e8e614a35565b905081518152614ea060208301614e10565b602082015260408201516040820152614ebb60608301614e10565b606082015260808201516080820152614ed660a08301614e38565b60a0820152614ee760c08301614e38565b60c0820152614ef860e08301614e4f565b60e0820152610100614f0b818401614e4f565b90820152610120614f1d838201614e4f565b90820152610140614f2f838201614e4f565b90820152610160614f41838201614e4f565b90820152610180614f53838201614e4f565b908201526101a0614f65838201614e64565b9082015292915050565b60006101c08284031215614f8257600080fd5b6106f58383614e73565b634e487b7160e01b600052602160045260246000fd5b60068110614fc057634e487b7160e01b600052602160045260246000fd5b9052565b805182526020810151614fe260208401826001600160a01b03169052565b5060408101516040830152606081015161500760608401826001600160a01b03169052565b506080810151608083015260a081015161502c60a08401826001600160801b03169052565b5060c081015161504760c08401826001600160801b03169052565b5060e081015161506060e084018264ffffffffff169052565b506101008181015164ffffffffff9081169184019190915261012080830151821690840152610140808301518216908401526101608083015182169084015261018080830151909116908301526101a08082015161491082850182614fa2565b84815261022081016150d56020830186614fc4565b6101e0820193909352610200015292915050565b8051801515811461454d57600080fd5b60006020828403121561510b57600080fd5b6106f5826150e9565b60006020828403121561512657600080fd5b6106f582614e64565b600082601f83011261514057600080fd5b815161514e614afb82614ab4565b81815284602083860101111561516357600080fd5b612bcd8260208301602087016148e6565b60006020828403121561518657600080fd5b815167ffffffffffffffff8082111561519e57600080fd5b9083019061010082860312156151b357600080fd5b6151bb614a5f565b6151c4836150e9565b81526020830151828111156151d857600080fd5b6151e48782860161512f565b6020830152506040830151828111156151fc57600080fd5b6152088782860161512f565b604083015250606083015160608201526080830151608082015260a083015160a082015260c083015160c082015260e083015160e082015280935050505092915050565b634e487b7160e01b600052601160045260246000fd5b600082198211156152755761527561524c565b500190565b61020081016152898288614be0565b85610180830152846101a0830152836101c0830152826101e08301529695505050505050565b9687526001600160a01b0395861660208801529390941660408601526060850191909152608084015260a083019190915260c082015260e00190565b6000806101e083850312156152ff57600080fd5b825191506153108460208501614e73565b90509250929050565b878152610420810161532e6020830189614fc4565b61533c6101e0830188614fc4565b856103a0830152846103c0830152836103e08301528261040083015298975050505050505050565b84815260806020820152600061537d6080830186614916565b828103604084015261538f8186614916565b91505060018060a01b038316606083015295945050505050565b6040815260006153bc6040830185614916565b82810360208401526153ce8185614916565b95945050505050565b8281526101e081016106f56020830184614fc4565b6000828210156153fe576153fe61524c565b500390565b60008261542057634e487b7160e01b600052601260045260246000fd5b500490565b600081600019048311821515161561543f5761543f61524c565b50029056fea264697066735822122086933ce25c2671003896b0147f01630ab679307ab3e4c45b7f34bcca30fcb72764736f6c634300080a0033",
  "deployedBytecode": "0x6080604052600436106101445760003560e01c80638b14f10c116100b6578063dcc5cded1161006f578063dcc5cded14610524578063e78f094914610544578063ea3b863514610564578063ee4cc84c14610584578063f277f90b146105a4578063f668a9c5146105c457610183565b80638b14f10c1461042b57806391541e051461044b578063980a8bd914610478578063a28a533614610498578063a7b6eb5a146104b8578063ade97ab5146104d857610183565b80635c975abb116101085780635c975abb1461025e57806367113ef61461028157806376999aeb146102b6578063796d5836146102d65780638334278d146102f65780638456cb591461041657610183565b80630aad628b146101b45780630ad58d2f146101e75780632235ae0f14610209578063371fd8e6146102295780633f4ba83a1461024957610183565b3661018357604080518082018252600381526231313160e81b6020820152905162461bcd60e51b815261017a9190600401614942565b60405180910390fd5b604080518082018252600381526218989960e91b6020820152905162461bcd60e51b815261017a9190600401614942565b3480156101c057600080fd5b506101d46101cf366004614955565b6105e4565b6040519081526020015b60405180910390f35b3480156101f357600080fd5b50610207610202366004614983565b6106fc565b005b34801561021557600080fd5b506101d4610224366004614955565b6109a4565b34801561023557600080fd5b506101d4610244366004614955565b610ad3565b34801561025557600080fd5b506102076110e2565b34801561026a57600080fd5b5060005460ff1660405190151581526020016101de565b34801561028d57600080fd5b506102a161029c3660046149bc565b611226565b604080519283526020830191909152016101de565b3480156102c257600080fd5b506102076102d13660046149fd565b611ee6565b3480156102e257600080fd5b506102076102f1366004614b32565b612327565b34801561030257600080fd5b50610397610311366004614955565b600260208190526000918252604090912080546001820154928201546003830154600484015460058501546006860154600787015460088801546009890154600a8a0154600b909a0154989a6001600160a01b039081169a98811699978116986001600160801b03909716979596949564ffffffffff9094169492939116919060ff168c565b604080519c8d526001600160a01b039b8c1660208e0152998b16998c019990995296891660608b01526001600160801b0390951660808a015260a089019390935260c088019190915264ffffffffff1660e0870152610100860152929092166101208401526101408301919091521515610160820152610180016101de565b34801561042257600080fd5b506102076128ea565b34801561043757600080fd5b506101d4610446366004614ba8565b612a2b565b34801561045757600080fd5b5061046b610466366004614955565b612bd5565b6040516101de9190614cba565b34801561048457600080fd5b50610207610493366004614955565b612d43565b3480156104a457600080fd5b506102076104b3366004614955565b613144565b3480156104c457600080fd5b506102076104d3366004614cc9565b61331d565b3480156104e457600080fd5b5061050c7f000000000000000000000000000000000000000000000000000000000000000081565b6040516001600160a01b0390911681526020016101de565b34801561053057600080fd5b506101d461053f366004614955565b61350e565b34801561055057600080fd5b5061020761055f366004614cf9565b6135e1565b34801561057057600080fd5b5061020761057f3660046149fd565b61379f565b34801561059057600080fd5b506101d461059f366004614955565b6139fc565b3480156105b057600080fd5b506102076105bf366004614955565b613b36565b3480156105d057600080fd5b506101d46105df366004614d38565b613d08565b600081815260026020526040812054829015156040518060400160405280600381526020016203330360ec1b815250906106315760405162461bcd60e51b815260040161017a9190614942565b506000838152600260208181526040928390208351610180810185528154815260018201546001600160a01b03908116938201939093529281015482169383019390935260038301548116606083015260048301546001600160801b03166080830152600583015460a0830152600683015460c0830152600783015464ffffffffff1660e08301526008830154610100830152600983015416610120820152600a820154610140820152600b9091015460ff1615156101608201526106f5906144aa565b9392505050565b60005460ff161561071f5760405162461bcd60e51b815260040161017a90614d96565b600260015414156107425760405162461bcd60e51b815260040161017a90614dc0565b60026001558261076081600090815260026020526040902054151590565b6040518060400160405280600381526020016203330360ec1b8152509061079a5760405162461bcd60e51b815260040161017a9190614942565b5060008481526002602081905260408083209091015490516370a0823160e01b81523360048201526001600160a01b03909116919082906370a0823190602401602060405180830381865afa1580156107f7573d6000803e3d6000fd5b505050506040513d601f19601f8201168201806040525081019061081b9190614df7565b90508460001981141561082b5750805b60008111801561083b5750818111155b6040518060400160405280600381526020016233323160e81b815250906108755760405162461bcd60e51b815260040161017a9190614942565b5080610880886105e4565b10156040518060400160405280600381526020016219991960e91b815250906108bc5760405162461bcd60e51b815260040161017a9190614942565b50600087815260026020526040808220815163395e905560e01b81526004810191909152336024820152604481018490526001600160a01b0388166064820152905173__$5e6137a1b5a0a366e2874209b5abf71c10$__9263395e90559260848082019391829003018186803b15801561093557600080fd5b505af4158015610949573d6000803e3d6000fd5b505050506109543390565b6001600160a01b0316877f9da6493a92039daf47d1f2d7a782299c5994c6323eb1e972f69c432089ec52bf8360405161098f91815260200190565b60405180910390a35050600180555050505050565b60008181526002602081815260408084208151610180810183528154815260018201546001600160a01b0390811694820194909452938101548316848301526003810154831660608501526004808201546001600160801b03166080860152600582015460a0860152600682015460c0860152600782015464ffffffffff1660e086015260088201546101008601526009820154909316610120850152600a810154610140850152600b015460ff1615156101608401525163328eb49160e01b815273__$5e6137a1b5a0a366e2874209b5abf71c10$__9263328eb49192610a8c9201614cba565b602060405180830381865af4158015610aa9573d6000803e3d6000fd5b505050506040513d601f19601f82011682018060405250810190610acd9190614df7565b92915050565b6000805460ff1615610af75760405162461bcd60e51b815260040161017a90614d96565b60026001541415610b1a5760405162461bcd60e51b815260040161017a90614dc0565b600260018190555060007f00000000000000000000000000000000000000000000000000000000000000006001600160a01b03166335bc868a6040518163ffffffff1660e01b8152600401602060405180830381865afa158015610b82573d6000803e3d6000fd5b505050506040513d601f19601f82011682018060405250810190610ba69190614e1b565b6040516331a9108f60e11b8152600481018590529091506000906001600160a01b03831690636352211e90602401602060405180830381865afa158015610bf1573d6000803e3d6000fd5b505050506040513d601f19601f82011682018060405250810190610c159190614e1b565b60405163622fe39f60e01b81526004810186905290915082906000906001600160a01b0383169063622fe39f906024016101c060405180830381865afa158015610c63573d6000803e3d6000fd5b505050506040513d601f19601f82011682018060405250810190610c879190614f6f565b90506001816101a001516005811115610ca257610ca2614f8c565b1480610cc457506002816101a001516005811115610cc257610cc2614f8c565b145b80610ce557506003816101a001516005811115610ce357610ce3614f8c565b145b6040518060400160405280600381526020016233333360e81b81525090610d1f5760405162461bcd60e51b815260040161017a9190614942565b50604051634b72cb4160e11b8152600481018790526000906001600160a01b038416906396e5968290602401602060405180830381865afa158015610d68573d6000803e3d6000fd5b505050506040513d601f19601f82011682018060405250810190610d8c9190614df7565b604051636b52b36560e01b8152600481018990529091506000906001600160a01b03851690636b52b36590602401602060405180830381865afa158015610dd7573d6000803e3d6000fd5b505050506040513d601f19601f82011682018060405250810190610dfb9190614df7565b9050610e078183614552565b83516000818152600260205260409020549198509015156040518060400160405280600381526020016203330360ec1b81525090610e585760405162461bcd60e51b815260040161017a9190614942565b506000818152600260205260409081902090516395705c5f60e01b815273__$5e6137a1b5a0a366e2874209b5abf71c10$__916395705c5f91610ea4919088908d9088906004016150c0565b60006040518083038186803b158015610ebc57600080fd5b505af4158015610ed0573d6000803e3d6000fd5b50505050846001600160a01b031663563086128a88610eec3390565b6040516001600160e01b031960e086901b16815260048101939093526001600160a01b039182166024840152166044820152606401600060405180830381600087803b158015610f3b57600080fd5b505af1158015610f4f573d6000803e3d6000fd5b505050506000610f5c3390565b6001600160a01b03167f00000000000000000000000000000000000000000000000000000000000000006001600160a01b0316635fee67086040518163ffffffff1660e01b8152600401602060405180830381865afa158015610fc3573d6000803e3d6000fd5b505050506040513d601f19601f82011682018060405250810190610fe79190614e1b565b6001600160a01b031614610ffb5786610ffd565b335b60208601516040808801519051632142170760e11b81526001600160a01b038a811660048301528085166024830152604482019290925292935016906342842e0e90606401600060405180830381600087803b15801561105c57600080fd5b505af1158015611070573d6000803e3d6000fd5b5050505089876001600160a01b0316837fb26072383248d9c24b411a4bbd7216134067da189b28216744569be98bfe9b7f6110a83390565b604080516001600160a01b039092168252602082018f9052810189905260600160405180910390a450506001805550949695505050505050565b60007f00000000000000000000000000000000000000000000000000000000000000006001600160a01b0316639a9dbb996040518163ffffffff1660e01b8152600401602060405180830381865afa158015611142573d6000803e3d6000fd5b505050506040513d601f19601f820116820180604052508101906111669190614e1b565b90506001600160a01b038116632500f2b6336040516001600160e01b031960e084901b1681526001600160a01b039091166004820152602401602060405180830381865afa1580156111bc573d6000803e3d6000fd5b505050506040513d601f19601f820116820180604052508101906111e091906150f9565b6040518060400160405280600381526020016232303160e81b8152509061121a5760405162461bcd60e51b815260040161017a9190614942565b5061122361455e565b50565b60008061123560005460ff1690565b156112525760405162461bcd60e51b815260040161017a90614d96565b600260015414156112755760405162461bcd60e51b815260040161017a90614dc0565b600260018190555060007f00000000000000000000000000000000000000000000000000000000000000006001600160a01b03166335bc868a6040518163ffffffff1660e01b8152600401602060405180830381865afa1580156112dd573d6000803e3d6000fd5b505050506040513d601f19601f820116820180604052508101906113019190614e1b565b90507f00000000000000000000000000000000000000000000000000000000000000006001600160a01b031663d633590a6040518163ffffffff1660e01b8152600401602060405180830381865afa158015611361573d6000803e3d6000fd5b505050506040513d601f19601f820116820180604052508101906113859190614e1b565b6001600160a01b0316336001600160a01b03161415611456576040516331a9108f60e11b8152600481018890526001600160a01b038086169190831690636352211e90602401602060405180830381865afa1580156113e8573d6000803e3d6000fd5b505050506040513d601f19601f8201168201806040525081019061140c9190614e1b565b6001600160a01b031614604051806040016040528060038152602001620d0c0d60ea1b815250906114505760405162461bcd60e51b815260040161017a9190614942565b5061150d565b336040516331a9108f60e11b8152600481018990526001600160a01b0391821691831690636352211e90602401602060405180830381865afa1580156114a0573d6000803e3d6000fd5b505050506040513d601f19601f820116820180604052508101906114c49190614e1b565b6001600160a01b031614604051806040016040528060038152602001620d0c0d60ea1b815250906115085760405162461bcd60e51b815260040161017a9190614942565b503393505b60006040518061014001604052806000815260200160008152602001600081526020016000815260200160008152602001600081526020016000815260200160008152602001836001600160a01b031663622fe39f8b6040518263ffffffff1660e01b815260040161158191815260200190565b6101c060405180830381865afa15801561159f573d6000803e3d6000fd5b505050506040513d601f19601f820116820180604052508101906115c39190614f6f565b815260200160019052604051632e31150760e11b8152600481018a90529091506001600160a01b03831690635c622a0e90602401602060405180830381865afa158015611614573d6000803e3d6000fd5b505050506040513d601f19601f820116820180604052508101906116389190615114565b816101200190600581111561164f5761164f614f8c565b9081600581111561166257611662614f8c565b9052506002816101200151600581111561167e5761167e614f8c565b14806116a057506003816101200151600581111561169e5761169e614f8c565b145b6040518060400160405280600381526020016233333560e81b815250906116da5760405162461bcd60e51b815260040161017a9190614942565b5061010081015180516020909101516040516346296c6960e01b81526001600160a01b037f000000000000000000000000000000000000000000000000000000000000000016926346296c6992611745926004019182526001600160a01b0316602082015260400190565b602060405180830381865afa158015611762573d6000803e3d6000fd5b505050506040513d601f19601f8201168201806040525081019061178691906150f9565b6040518060400160405280600381526020016219999960e91b815250906117c05760405162461bcd60e51b815260040161017a9190614942565b506101008101518051602090910151604051639dce429960e01b81526000926001600160a01b037f00000000000000000000000000000000000000000000000000000000000000001692639dce4299926118309291906004019182526001600160a01b0316602082015260400190565b600060405180830381865afa15801561184d573d6000803e3d6000fd5b505050506040513d6000823e601f3d908101601f191682016040526118759190810190615174565b90508060800151871015801561188f57508060a001518711155b6040518060400160405280600381526020016203333360ec1b815250906118c95760405162461bcd60e51b815260040161017a9190614942565b50610100820151805160208201516040909201516118e79290612a2b565b608083015260c0820188905260001988141561190857608082015160c08301525b8160c00151826080015110156040518060400160405280600381526020016233333160e81b8152509061194e5760405162461bcd60e51b815260040161017a9190614942565b50604051631c18749560e01b8152600481018a90526001600160a01b03841690631c18749590602401602060405180830381865afa158015611994573d6000803e3d6000fd5b505050506040513d601f19601f820116820180604052508101906119b89190614df7565b8252604051634b72cb4160e11b8152600481018a90526001600160a01b038416906396e5968290602401602060405180830381865afa1580156119ff573d6000803e3d6000fd5b505050506040513d601f19601f82011682018060405250810190611a239190614df7565b606083015260c08201516101008301516080015111611ac1576000611a5e836101000151608001518460c001516145f190919063ffffffff16565b60608401518451919250611a7191615262565b811015611a9e5760608301518351611a94918391611a8e91614552565b906145f1565b6020840152611abb565b60608301518351611ab59190611a8e9084906145f1565b60408401525b50611af9565b60608201518251611af391611ad591615262565b60c084015161010085015160800151611aed916145f1565b90614552565b60208301525b604082015115611b5b5761010082015151611b13906105e4565b60a083018190526040808401518151808301909252600382526233303160e81b602083015290911015611b595760405162461bcd60e51b815260040161017a9190614942565b505b604051632b18430960e11b8152600481018a90526001600160a01b03878116602483018190526044830152841690635630861290606401600060405180830381600087803b158015611bac57600080fd5b505af1158015611bc0573d6000803e3d6000fd5b50505061010080840180515160009081526002602081815260408084208151610180810183528154815260018201546001600160a01b0390811694820194909452938101548316918401919091526003810154821660608085019190915260048201546001600160801b0316608080860191909152600583015460a0860152600683015460c080870191909152600784015464ffffffffff1660e08701526008840154988601989098526009830154909316610120850152600a820154610140850152600b9091015460ff16151561016084015288015194880151885194519091015173__$5e6137a1b5a0a366e2874209b5abf71c10$__965063dfdafca3959294929392611ccf9190614552565b6040518663ffffffff1660e01b8152600401611cef95949392919061527a565b602060405180830381865af4158015611d0c573d6000803e3d6000fd5b505050506040513d601f19601f82011682018060405250810190611d309190614df7565b8260e0018181525050600080846001600160a01b03166370b4ebeb856101000151600001518a87610100015160200151886101000151604001518960c001518f8b60e001516040518863ffffffff1660e01b8152600401611d9797969594939291906152af565b6101e0604051808303816000875af1158015611db7573d6000803e3d6000fd5b505050506040513d601f19601f82011682018060405250810190611ddb91906152eb565b610100860180515160009081526002602090815260409182902092518951918a0151838b015160608c015194516303eed27160e21b815297995095975073__$5e6137a1b5a0a366e2874209b5abf71c10$__96630fbb49c496611e48969593948a94909392600401615319565b60006040518083038186803b158015611e6057600080fd5b505af4158015611e74573d6000803e3d6000fd5b505050508a886001600160a01b0316856101000151600001517fbbd12926def8e41e5f1c7a10d219e405292d14f53bfdba19eebab2e3faa6c74a85604051611ebe91815260200190565b60405180910390a4505050602081015160409091015160018055909890975095505050505050565b60005460ff1615611f095760405162461bcd60e51b815260040161017a90614d96565b6001600160a01b037f00000000000000000000000000000000000000000000000000000000000000001663529a356f336040516001600160e01b031960e084901b1681526001600160a01b039091166004820152602401602060405180830381865afa158015611f7d573d6000803e3d6000fd5b505050506040513d601f19601f82011682018060405250810190611fa191906150f9565b6040518060400160405280600381526020016232303360e81b81525090611fdb5760405162461bcd60e51b815260040161017a9190614942565b5060007f00000000000000000000000000000000000000000000000000000000000000006001600160a01b03166335bc868a6040518163ffffffff1660e01b8152600401602060405180830381865afa15801561203c573d6000803e3d6000fd5b505050506040513d601f19601f820116820180604052508101906120609190614e1b565b60405163622fe39f60e01b8152600481018590529091506000906001600160a01b0383169063622fe39f906024016101c060405180830381865afa1580156120ac573d6000803e3d6000fd5b505050506040513d601f19601f820116820180604052508101906120d09190614f6f565b90506005816101a0015160058111156120eb576120eb614f8c565b146040518060400160405280600381526020016233363160e81b815250906121265760405162461bcd60e51b815260040161017a9190614942565b50604051636b52b36560e01b8152600481018590526000906001600160a01b03841690636b52b36590602401602060405180830381865afa15801561216f573d6000803e3d6000fd5b505050506040513d601f19601f820116820180604052508101906121939190614df7565b90508084101560405180604001604052806003815260200162199b1960e91b815250906121d35760405162461bcd60e51b815260040161017a9190614942565b5081516000908152600260205260409081902090516339c5132760e11b81526004810191909152602481018590526044810182905273__$5e6137a1b5a0a366e2874209b5abf71c10$__9063738a264e9060640160006040518083038186803b15801561223f57600080fd5b505af4158015612253573d6000803e3d6000fd5b505060405163ed213bbf60e01b8152600481018890526001600160a01b038616925063ed213bbf9150602401600060405180830381600087803b15801561229957600080fd5b505af11580156122ad573d6000803e3d6000fd5b5050505081602001516001600160a01b03168583600001517fcde0dc431e6f088cbd9c8b1768aff225467e33d4ac1d3356494ef79600a8680585604001516122f23390565b604080519283526001600160a01b03909116602083015281018990526060810186905260800160405180910390a45050505050565b60007f00000000000000000000000000000000000000000000000000000000000000006001600160a01b0316639a9dbb996040518163ffffffff1660e01b8152600401602060405180830381865afa158015612387573d6000803e3d6000fd5b505050506040513d601f19601f820116820180604052508101906123ab9190614e1b565b90506001600160a01b038116637be53ca1336040516001600160e01b031960e084901b1681526001600160a01b039091166004820152602401602060405180830381865afa158015612401573d6000803e3d6000fd5b505050506040513d601f19601f8201168201806040525081019061242591906150f9565b6040518060400160405280600381526020016219181960e91b8152509061245f5760405162461bcd60e51b815260040161017a9190614942565b5061246e600380546001019055565b600061247960035490565b905060007f00000000000000000000000000000000000000000000000000000000000000006001600160a01b031663420897916040518163ffffffff1660e01b8152600401602060405180830381865afa1580156124db573d6000803e3d6000fd5b505050506040513d601f19601f820116820180604052508101906124ff9190614e1b565b6001600160a01b0316635e08f3378387878a6040518563ffffffff1660e01b81526004016125309493929190615364565b6020604051808303816000875af115801561254f573d6000803e3d6000fd5b505050506040513d601f19601f820116820180604052508101906125739190614e1b565b9050604051806101800160405280838152602001876001600160a01b03168152602001826001600160a01b031681526020017f00000000000000000000000000000000000000000000000000000000000000006001600160a01b031663efe3e3e36040518163ffffffff1660e01b8152600401602060405180830381865afa158015612603573d6000803e3d6000fd5b505050506040513d601f19601f820116820180604052508101906126279190614e1b565b6001600160a01b031681526020016b033b2e3c9fd0803ce80000006001600160801b031681526020016000815260200160008152602001600064ffffffffff168152602001600081526020017f00000000000000000000000000000000000000000000000000000000000000006001600160a01b03166390839e3f6040518163ffffffff1660e01b8152600401602060405180830381865afa1580156126d1573d6000803e3d6000fd5b505050506040513d601f19601f820116820180604052508101906126f59190614e1b565b6001600160a01b031681526020017f00000000000000000000000000000000000000000000000000000000000000006001600160a01b0316634322b7146040518163ffffffff1660e01b8152600401602060405180830381865afa158015612761573d6000803e3d6000fd5b505050506040513d601f19601f820116820180604052508101906127859190614df7565b81526001602091820181905260008581526002808452604091829020855181559385015192840180546001600160a01b03199081166001600160a01b03958616179091558583015191850180548216928516929092179091556060850151600385018054831691851691909117905560808501516004850180546fffffffffffffffffffffffffffffffff19166001600160801b0390921691909117905560a0850151600585015560c0850151600685015560e085015160078501805464ffffffffff191664ffffffffff9092169190911790556101008501516008850155610120850151600985018054909216908416179055610140840151600a84015561016090930151600b909201805460ff19169215159290921790915590518282169188169084907f4e9124cfa456690cd56bf3d36fe58f11cafd4e3faf6b2748e8eabe68e08a3370906128da908a908a906153a9565b60405180910390a4505050505050565b60007f00000000000000000000000000000000000000000000000000000000000000006001600160a01b0316639a9dbb996040518163ffffffff1660e01b8152600401602060405180830381865afa15801561294a573d6000803e3d6000fd5b505050506040513d601f19601f8201168201806040525081019061296e9190614e1b565b90506001600160a01b038116632500f2b6336040516001600160e01b031960e084901b1681526001600160a01b039091166004820152602401602060405180830381865afa1580156129c4573d6000803e3d6000fd5b505050506040513d601f19601f820116820180604052508101906129e891906150f9565b6040518060400160405280600381526020016232303160e81b81525090612a225760405162461bcd60e51b815260040161017a9190614942565b506112236145fd565b604051639dce429960e01b8152600481018490526001600160a01b038381166024830152600091612bcd917f00000000000000000000000000000000000000000000000000000000000000001690639dce429990604401600060405180830381865afa158015612a9f573d6000803e3d6000fd5b505050506040513d6000823e601f3d908101601f19168201604052612ac79190810190615174565b606001517f00000000000000000000000000000000000000000000000000000000000000006001600160a01b031663970f4c3a6040518163ffffffff1660e01b8152600401602060405180830381865afa158015612b29573d6000803e3d6000fd5b505050506040513d601f19601f82011682018060405250810190612b4d9190614e1b565b6040516350d16d9f60e01b8152600481018890526001600160a01b0387811660248301526044820187905291909116906350d16d9f90606401602060405180830381865afa158015612ba3573d6000803e3d6000fd5b505050506040513d601f19601f82011682018060405250810190612bc79190614df7565b90614655565b949350505050565b6040805161018081018252600080825260208201819052918101829052606081018290526080810182905260a0810182905260c0810182905260e08101829052610100810182905261012081018290526101408101829052610160810191909152600082815260026020526040902054829015156040518060400160405280600381526020016203330360ec1b81525090612c835760405162461bcd60e51b815260040161017a9190614942565b5050506000908152600260208181526040928390208351610180810185528154815260018201546001600160a01b03908116938201939093529281015482169383019390935260038301548116606083015260048301546001600160801b03166080830152600583015460a0830152600683015460c0830152600783015464ffffffffff1660e08301526008830154610100830152600983015416610120820152600a820154610140820152600b9091015460ff16151561016082015290565b60005460ff1615612d665760405162461bcd60e51b815260040161017a90614d96565b6001600160a01b037f00000000000000000000000000000000000000000000000000000000000000001663529a356f336040516001600160e01b031960e084901b1681526001600160a01b039091166004820152602401602060405180830381865afa158015612dda573d6000803e3d6000fd5b505050506040513d601f19601f82011682018060405250810190612dfe91906150f9565b6040518060400160405280600381526020016232303360e81b81525090612e385760405162461bcd60e51b815260040161017a9190614942565b5060007f00000000000000000000000000000000000000000000000000000000000000006001600160a01b03166335bc868a6040518163ffffffff1660e01b8152600401602060405180830381865afa158015612e99573d6000803e3d6000fd5b505050506040513d601f19601f82011682018060405250810190612ebd9190614e1b565b60405163622fe39f60e01b8152600481018490529091506000906001600160a01b0383169063622fe39f906024016101c060405180830381865afa158015612f09573d6000803e3d6000fd5b505050506040513d601f19601f82011682018060405250810190612f2d9190614f6f565b90506004816101a001516005811115612f4857612f48614f8c565b146040518060400160405280600381526020016203336360ec1b81525090612f835760405162461bcd60e51b815260040161017a9190614942565b508051600090815260026020526040908190209051632a1ed55f60e11b815273__$5e6137a1b5a0a366e2874209b5abf71c10$__9163543daabe91612fcd919085906004016153d7565b60006040518083038186803b158015612fe557600080fd5b505af4158015612ff9573d6000803e3d6000fd5b5050505080602001516001600160a01b03166342842e0e836130183390565b60408086015190516001600160e01b031960e086901b1681526001600160a01b0393841660048201529290911660248301526044820152606401600060405180830381600087803b15801561306c57600080fd5b505af1158015613080573d6000803e3d6000fd5b505060405163980a8bd960e01b8152600481018690526001600160a01b038516925063980a8bd99150602401600060405180830381600087803b1580156130c657600080fd5b505af11580156130da573d6000803e3d6000fd5b5050505080602001516001600160a01b03168382600001517f338bea6971e9221d0ae5f105c79da18c6614a11556e217e0aaa361424fe654d2846040015161311f3390565b604080519283526001600160a01b0390911660208301520160405180910390a4505050565b60007f00000000000000000000000000000000000000000000000000000000000000006001600160a01b0316639a9dbb996040518163ffffffff1660e01b8152600401602060405180830381865afa1580156131a4573d6000803e3d6000fd5b505050506040513d601f19601f820116820180604052508101906131c89190614e1b565b90506001600160a01b038116632500f2b6336040516001600160e01b031960e084901b1681526001600160a01b039091166004820152602401602060405180830381865afa15801561321e573d6000803e3d6000fd5b505050506040513d601f19601f8201168201806040525081019061324291906150f9565b6040518060400160405280600381526020016232303160e81b8152509061327c5760405162461bcd60e51b815260040161017a9190614942565b50600082815260026020908152604091829020600b01548251808401909352600383526233303360e81b9183019190915260ff166132cd5760405162461bcd60e51b815260040161017a9190614942565b5060008281526002602052604090206132e5906146fd565b6040518281527ffa52d8cf59b61f2698ee5e988b488cc589a524be112b15acf937dab59bf36120906020015b60405180910390a15050565b600082815260026020526040902054829015156040518060400160405280600381526020016203330360ec1b8152509061336a5760405162461bcd60e51b815260040161017a9190614942565b5060007f00000000000000000000000000000000000000000000000000000000000000006001600160a01b0316639a9dbb996040518163ffffffff1660e01b8152600401602060405180830381865afa1580156133cb573d6000803e3d6000fd5b505050506040513d601f19601f820116820180604052508101906133ef9190614e1b565b90506001600160a01b038116637be53ca1336040516001600160e01b031960e084901b1681526001600160a01b039091166004820152602401602060405180830381865afa158015613445573d6000803e3d6000fd5b505050506040513d601f19601f8201168201806040525081019061346991906150f9565b6040518060400160405280600381526020016219181960e91b815250906134a35760405162461bcd60e51b815260040161017a9190614942565b5060008481526002602090815260409182902060090180546001600160a01b0319166001600160a01b038716908117909155915191825285917f2a510455968cb9bf56ecbeeab12f13ed51a86ebdb3cdcec2f502f78c9f2a454191015b60405180910390a250505050565b600081815260026020526040812054829015156040518060400160405280600381526020016203330360ec1b8152509061355b5760405162461bcd60e51b815260040161017a9190614942565b5060008381526002602052604090819020905163564f0dfb60e01b8152600481019190915273__$5e6137a1b5a0a366e2874209b5abf71c10$__9063564f0dfb906024015b602060405180830381865af41580156135bd573d6000803e3d6000fd5b505050506040513d601f19601f820116820180604052508101906106f59190614df7565b60005460ff16156136045760405162461bcd60e51b815260040161017a90614d96565b600260015414156136275760405162461bcd60e51b815260040161017a90614dc0565b60026001558361364581600090815260026020526040902054151590565b6040518060400160405280600381526020016203330360ec1b8152509061367f5760405162461bcd60e51b815260040161017a9190614942565b5060408051808201909152600381526203332360ec1b6020820152846136b85760405162461bcd60e51b815260040161017a9190614942565b50600085815260026020526040808220815163fe981a4f60e01b81526004810191909152336024820152604481018790526001600160a01b0386166064820152905173__$5e6137a1b5a0a366e2874209b5abf71c10$__9263fe981a4f9260848082019391829003018186803b15801561373157600080fd5b505af4158015613745573d6000803e3d6000fd5b50505050816137513390565b6001600160a01b0316867fd36a2f67d06d285786f61a32b052b9ace6b0b7abef5177b54358abdc83a0b69b8760405161378c91815260200190565b60405180910390a4505060018055505050565b600082815260026020526040902054829015156040518060400160405280600381526020016203330360ec1b815250906137ec5760405162461bcd60e51b815260040161017a9190614942565b5060007f00000000000000000000000000000000000000000000000000000000000000006001600160a01b0316639a9dbb996040518163ffffffff1660e01b8152600401602060405180830381865afa15801561384d573d6000803e3d6000fd5b505050506040513d601f19601f820116820180604052508101906138719190614e1b565b90506001600160a01b038116637be53ca1336040516001600160e01b031960e084901b1681526001600160a01b039091166004820152602401602060405180830381865afa1580156138c7573d6000803e3d6000fd5b505050506040513d601f19601f820116820180604052508101906138eb91906150f9565b6040518060400160405280600381526020016219181960e91b815250906139255760405162461bcd60e51b815260040161017a9190614942565b507f00000000000000000000000000000000000000000000000000000000000000006001600160a01b031663d23a65cf6040518163ffffffff1660e01b8152600401602060405180830381865afa158015613984573d6000803e3d6000fd5b505050506040513d601f19601f820116820180604052508101906139a89190614df7565b8311156139b457600080fd5b60008481526002602052604090819020600a018490555184907fa42eaeef2868aa910fcded03fb023a51209c7304b595991cb71ff2968b266087906135009086815260200190565b600081815260026020526040812054829015156040518060400160405280600381526020016203330360ec1b81525090613a495760405162461bcd60e51b815260040161017a9190614942565b506000838152600260208181526040928390208351610180810185528154815260018201546001600160a01b0390811693820193909352928101548216838501526003810154821660608401526004808201546001600160801b03166080850152600582015460a0850152600682015460c0850152600782015464ffffffffff1660e085015260088201546101008501526009820154909216610120840152600a810154610140840152600b015460ff161515610160830152915163640d9a7760e11b815273__$5e6137a1b5a0a366e2874209b5abf71c10$__9263c81b34ee926135a092909101614cba565b60007f00000000000000000000000000000000000000000000000000000000000000006001600160a01b0316639a9dbb996040518163ffffffff1660e01b8152600401602060405180830381865afa158015613b96573d6000803e3d6000fd5b505050506040513d601f19601f82011682018060405250810190613bba9190614e1b565b90506001600160a01b038116632500f2b6336040516001600160e01b031960e084901b1681526001600160a01b039091166004820152602401602060405180830381865afa158015613c10573d6000803e3d6000fd5b505050506040513d601f19601f82011682018060405250810190613c3491906150f9565b6040518060400160405280600381526020016232303160e81b81525090613c6e5760405162461bcd60e51b815260040161017a9190614942565b50600082815260026020908152604091829020600b01548251808401909352600383526233303360e81b9183019190915260ff1615613cc05760405162461bcd60e51b815260040161017a9190614942565b506000828152600260205260409020613cd8906147f8565b6040518281527f7d112c7767bf19c038f01732f5928c582a8f0de6fce5f2b0c70e9e4a91d3d39c90602001613311565b6000805460ff1615613d2c5760405162461bcd60e51b815260040161017a90614d96565b60026001541415613d4f5760405162461bcd60e51b815260040161017a90614dc0565b600260015586613d6d81600090815260026020526040902054151590565b6040518060400160405280600381526020016203330360ec1b81525090613da75760405162461bcd60e51b815260040161017a9190614942565b506040516346296c6960e01b8152600481018990526001600160a01b0386811660248301527f000000000000000000000000000000000000000000000000000000000000000016906346296c6990604401602060405180830381865afa158015613e15573d6000803e3d6000fd5b505050506040513d601f19601f82011682018060405250810190613e3991906150f9565b6040518060400160405280600381526020016219999960e91b81525090613e735760405162461bcd60e51b815260040161017a9190614942565b50604051639dce429960e01b8152600481018990526001600160a01b0386811660248301527f00000000000000000000000000000000000000000000000000000000000000001690639dce429990604401600060405180830381865afa158015613ee1573d6000803e3d6000fd5b505050506040513d6000823e601f3d908101601f19168201604052613f099190810190615174565b608001518610158015613fb45750604051639dce429960e01b8152600481018990526001600160a01b0386811660248301527f00000000000000000000000000000000000000000000000000000000000000001690639dce429990604401600060405180830381865afa158015613f84573d6000803e3d6000fd5b505050506040513d6000823e601f3d908101601f19168201604052613fac9190810190615174565b60a001518611155b6040518060400160405280600381526020016203333360ec1b81525090613fee5760405162461bcd60e51b815260040161017a9190614942565b5061402a6040518060a001604052806000815260200160008152602001600081526020016000815260200160006001600160a01b031681525090565b614035898787612a2b565b8152614040896105e4565b60208201526040810188905260001988141561407557602081015181511061406c57806020015161406f565b80515b60408201525b60408082015182518251808401909352600383526233333160e81b602084015210156140b45760405162461bcd60e51b815260040161017a9190614942565b508060400151816020015110156040518060400160405280600381526020016233303160e81b815250906140fb5760405162461bcd60e51b815260040161017a9190614942565b507f00000000000000000000000000000000000000000000000000000000000000006001600160a01b03166335bc868a6040518163ffffffff1660e01b8152600401602060405180830381865afa15801561415a573d6000803e3d6000fd5b505050506040513d601f19601f8201168201806040525081019061417e9190614e1b565b6001600160a01b03908116608083015286166342842e0e3360808401516040516001600160e01b031960e085901b1681526001600160a01b0392831660048201529116602482015260448101889052606401600060405180830381600087803b1580156141ea57600080fd5b505af11580156141fe573d6000803e3d6000fd5b50505060008a81526002602081815260408084208151610180810183528154815260018201546001600160a01b0390811694820194909452938101548316848301526003810154831660608501526004808201546001600160801b03166080860152600582015460a0860152600682015460c0860152600782015464ffffffffff1660e086015260088201546101008601526009820154909316610120850152600a810154610140850152600b015460ff16151561016084015285810151905163dfdafca360e01b815273__$5e6137a1b5a0a366e2874209b5abf71c10$__955063dfdafca3946142f8949390928392909183910161527a565b602060405180830381865af4158015614315573d6000803e3d6000fd5b505050506040513d601f19601f820116820180604052508101906143399190614df7565b81606001818152505060008082608001516001600160a01b03166370b4ebeb8c888b8b88604001518f8a606001516040518863ffffffff1660e01b815260040161438997969594939291906152af565b6101e0604051808303816000875af11580156143a9573d6000803e3d6000fd5b505050506040513d601f19601f820116820180604052508101906143cd91906152eb565b60008d81526002602052604090819020905163030b159d60e31b815292945090925073__$5e6137a1b5a0a366e2874209b5abf71c10$__91631858ace8916144199185906004016153d7565b60006040518083038186803b15801561443157600080fd5b505af4158015614445573d6000803e3d6000fd5b5050505081866001600160a01b03168c7ff9a33434428db5f0416c03e38307599ad0b9b9965d6c070eb08e87cc1f0ca50e61447d3390565b6040516001600160a01b03909116815260200160405180910390a450600180559998505050505050505050565b6000816101600151156145155760608201516020830151604080850151905163d4fac45d60e01b81526001600160a01b039283166004820152908216602482015291169063d4fac45d906044015b602060405180830381865afa158015610aa9573d6000803e3d6000fd5b602082015160408084015190516370a0823160e01b81526001600160a01b0391821660048201529116906370a08231906024016144f8565b919050565b60006106f58284615262565b60005460ff166145a75760405162461bcd60e51b815260206004820152601460248201527314185d5cd8589b194e881b9bdd081c185d5cd95960621b604482015260640161017a565b6000805460ff191690557f5db9ee0a495bf2e6ff9c91a7834c1ba4fdd244a5e8aa4e537bd38aeae4b073aa335b6040516001600160a01b03909116815260200160405180910390a1565b60006106f582846153ec565b60005460ff16156146205760405162461bcd60e51b815260040161017a90614d96565b6000805460ff191660011790557f62e78cea01bee320cd4e420270b5ea74000d11b0c9f74754ebdbfc544b05a2586145d43390565b6000821580614662575081155b1561466f57506000610acd565b8161467d6002612710615403565b614689906000196153ec565b6146939190615403565b8311156040518060400160405280600381526020016203130360ec1b815250906146d05760405162461bcd60e51b815260040161017a9190614942565b506127106146df600282615403565b6146e98486615425565b6146f39190615262565b6106f59190615403565b60028101546003820154600183015460405163d4fac45d60e01b81526001600160a01b0391821660048201529281166024840181905292600092919091169063d4fac45d90604401602060405180830381865afa158015614762573d6000803e3d6000fd5b505050506040513d601f19601f820116820180604052508101906147869190614df7565b604051627b8a6760e11b8152600481018290526001600160a01b0384166024820181905291925062f714ce90604401600060405180830381600087803b1580156147cf57600080fd5b505af11580156147e3573d6000803e3d6000fd5b505050600b909301805460ff19169055505050565b600b8101805460ff1916600190811790915581015460028201546040516370a0823160e01b81526001600160a01b03918216600482015260009291909116906370a0823190602401602060405180830381865afa15801561485d573d6000803e3d6000fd5b505050506040513d601f19601f820116820180604052508101906148819190614df7565b600283015460405163b6b55f2560e01b8152600481018390529192506001600160a01b03169063b6b55f2590602401600060405180830381600087803b1580156148ca57600080fd5b505af11580156148de573d6000803e3d6000fd5b505050505050565b60005b838110156149015781810151838201526020016148e9565b83811115614910576000848401525b50505050565b6000815180845261492e8160208601602086016148e6565b601f01601f19169290920160200192915050565b6020815260006106f56020830184614916565b60006020828403121561496757600080fd5b5035919050565b6001600160a01b038116811461122357600080fd5b60008060006060848603121561499857600080fd5b833592506020840135915060408401356149b18161496e565b809150509250925092565b600080600080608085870312156149d257600080fd5b84359350602085013592506040850135915060608501356149f28161496e565b939692955090935050565b60008060408385031215614a1057600080fd5b50508035926020909101359150565b634e487b7160e01b600052604160045260246000fd5b6040516101c0810167ffffffffffffffff81118282101715614a5957614a59614a1f565b60405290565b604051610100810167ffffffffffffffff81118282101715614a5957614a59614a1f565b604051601f8201601f1916810167ffffffffffffffff81118282101715614aac57614aac614a1f565b604052919050565b600067ffffffffffffffff821115614ace57614ace614a1f565b50601f01601f191660200190565b600082601f830112614aed57600080fd5b8135614b00614afb82614ab4565b614a83565b818152846020838601011115614b1557600080fd5b816020850160208301376000918101602001919091529392505050565b600080600060608486031215614b4757600080fd5b8335614b528161496e565b9250602084013567ffffffffffffffff80821115614b6f57600080fd5b614b7b87838801614adc565b93506040860135915080821115614b9157600080fd5b50614b9e86828701614adc565b9150509250925092565b600080600060608486031215614bbd57600080fd5b833592506020840135614bcf8161496e565b929592945050506040919091013590565b805182526020810151614bfe60208401826001600160a01b03169052565b506040810151614c1960408401826001600160a01b03169052565b506060810151614c3460608401826001600160a01b03169052565b506080810151614c4f60808401826001600160801b03169052565b5060a081015160a083015260c081015160c083015260e0810151614c7c60e084018264ffffffffff169052565b506101008181015190830152610120808201516001600160a01b03169083015261014080820151908301526101608082015180151582850152614910565b6101808101610acd8284614be0565b60008060408385031215614cdc57600080fd5b823591506020830135614cee8161496e565b809150509250929050565b60008060008060808587031215614d0f57600080fd5b84359350602085013592506040850135614d288161496e565b9396929550929360600135925050565b60008060008060008060c08789031215614d5157600080fd5b8635955060208701359450604087013593506060870135614d718161496e565b92506080870135915060a0870135614d888161496e565b809150509295509295509295565b60208082526010908201526f14185d5cd8589b194e881c185d5cd95960821b604082015260600190565b6020808252601f908201527f5265656e7472616e637947756172643a207265656e7472616e742063616c6c00604082015260600190565b600060208284031215614e0957600080fd5b5051919050565b805161454d8161496e565b600060208284031215614e2d57600080fd5b81516106f58161496e565b80516001600160801b038116811461454d57600080fd5b805164ffffffffff8116811461454d57600080fd5b80516006811061454d57600080fd5b60006101c08284031215614e8657600080fd5b614e8e614a35565b905081518152614ea060208301614e10565b602082015260408201516040820152614ebb60608301614e10565b606082015260808201516080820152614ed660a08301614e38565b60a0820152614ee760c08301614e38565b60c0820152614ef860e08301614e4f565b60e0820152610100614f0b818401614e4f565b90820152610120614f1d838201614e4f565b90820152610140614f2f838201614e4f565b90820152610160614f41838201614e4f565b90820152610180614f53838201614e4f565b908201526101a0614f65838201614e64565b9082015292915050565b60006101c08284031215614f8257600080fd5b6106f58383614e73565b634e487b7160e01b600052602160045260246000fd5b60068110614fc057634e487b7160e01b600052602160045260246000fd5b9052565b805182526020810151614fe260208401826001600160a01b03169052565b5060408101516040830152606081015161500760608401826001600160a01b03169052565b506080810151608083015260a081015161502c60a08401826001600160801b03169052565b5060c081015161504760c08401826001600160801b03169052565b5060e081015161506060e084018264ffffffffff169052565b506101008181015164ffffffffff9081169184019190915261012080830151821690840152610140808301518216908401526101608083015182169084015261018080830151909116908301526101a08082015161491082850182614fa2565b84815261022081016150d56020830186614fc4565b6101e0820193909352610200015292915050565b8051801515811461454d57600080fd5b60006020828403121561510b57600080fd5b6106f5826150e9565b60006020828403121561512657600080fd5b6106f582614e64565b600082601f83011261514057600080fd5b815161514e614afb82614ab4565b81815284602083860101111561516357600080fd5b612bcd8260208301602087016148e6565b60006020828403121561518657600080fd5b815167ffffffffffffffff8082111561519e57600080fd5b9083019061010082860312156151b357600080fd5b6151bb614a5f565b6151c4836150e9565b81526020830151828111156151d857600080fd5b6151e48782860161512f565b6020830152506040830151828111156151fc57600080fd5b6152088782860161512f565b604083015250606083015160608201526080830151608082015260a083015160a082015260c083015160c082015260e083015160e082015280935050505092915050565b634e487b7160e01b600052601160045260246000fd5b600082198211156152755761527561524c565b500190565b61020081016152898288614be0565b85610180830152846101a0830152836101c0830152826101e08301529695505050505050565b9687526001600160a01b0395861660208801529390941660408601526060850191909152608084015260a083019190915260c082015260e00190565b6000806101e083850312156152ff57600080fd5b825191506153108460208501614e73565b90509250929050565b878152610420810161532e6020830189614fc4565b61533c6101e0830188614fc4565b856103a0830152846103c0830152836103e08301528261040083015298975050505050505050565b84815260806020820152600061537d6080830186614916565b828103604084015261538f8186614916565b91505060018060a01b038316606083015295945050505050565b6040815260006153bc6040830185614916565b82810360208401526153ce8185614916565b95945050505050565b8281526101e081016106f56020830184614fc4565b6000828210156153fe576153fe61524c565b500390565b60008261542057634e487b7160e01b600052601260045260246000fd5b500490565b600081600019048311821515161561543f5761543f61524c565b50029056fea264697066735822122086933ce25c2671003896b0147f01630ab679307ab3e4c45b7f34bcca30fcb72764736f6c634300080a0033",
  "libraries": {
    "Errors": "0xb50AB0f5Ebe00cB99F9843FE6AcA79477aa264fc",
    "MathUtils": "0x4648bb80A8d14C8777321F1b4cbb1B016696102d",
    "PercentageMath": "0xa22eF7fA838086378C1bae4aB77915407a126D9d",
    "DataTypes": "0x9397220974f87949543b079A022A88B9b41a8380",
    "ReserveLogic": "0xf13a69F5611049fE39842c5F0b46c9B327FC12D8"
  },
  "devdoc": {
    "author": "OpenSky Labs",
    "kind": "dev",
    "methods": {
      "borrow(uint256,uint256,uint256,address,uint256,address)": {
        "details": "Borrows ETH from reserve using an NFT as collateral and will receive a loan NFT as receipt.",
        "params": {
          "amount": "amount of ETH user will borrow",
          "duration": "The desired duration of the loan",
          "nftAddress": "The collateral NFT address",
          "onBehalfOf": "address of the user who will receive ETH and loan NFT.*",
          "reserveId": "The ID of the reserve",
          "tokenId": "The ID of the NFT"
        }
      },
      "closeMoneyMarket(uint256)": {
        "details": "Only callable by the emergency admin role",
        "params": {
          "reserveId": "The ID of the reserve*"
        }
      },
      "create(address,string,string)": {
        "details": "Only callable by the pool admin role",
        "params": {
          "name": "The name of the oToken",
          "symbol": "The symbol for the oToken*",
          "underlyingAsset": "The address of the underlying asset"
        }
      },
      "deposit(uint256,uint256,address,uint256)": {
        "details": "Deposits ETH into the reserve.",
        "params": {
          "referralCode": "integrators are assigned a referral code and can potentially receive rewards*",
          "reserveId": "The ID of the reserve"
        }
      },
      "endLiquidation(uint256,uint256)": {
        "details": "Completes liquidation for a loan which will be repaid.",
        "params": {
          "amount": "The amount of the token that will be repaid.",
          "loanId": "The ID of the liquidated loan that will be repaid."
        }
      },
      "extend(uint256,uint256,uint256,address)": {
        "details": "Extends creates a new loan and terminates the old loan.",
        "params": {
          "amount": "The amount of ERC20 token the user will borrow in the new loan",
          "duration": "The selected duration the user will borrow in the new loan",
          "loanId": "The loan ID to extend",
          "onBehalfOf": "The address will borrow in the new loan*"
        }
      },
      "getAvailableLiquidity(uint256)": {
        "details": "Returns the remaining liquidity of the reserve",
        "params": {
          "reserveId": "The ID of the reserve"
        },
        "returns": {
          "_0": "The reserve's withdrawable balance"
        }
      },
      "getBorrowLimitByOracle(uint256,address,uint256)": {
        "details": "Returns the instantaneous borrow limit value of a special NFT",
        "params": {
          "nftAddress": "The address of the NFT",
          "tokenId": "The ID of the NFT"
        },
        "returns": {
          "_0": "The NFT's borrow limit"
        }
      },
      "getReserveData(uint256)": {
        "details": "Returns the state of the reserve",
        "params": {
          "reserveId": "The ID of the reserve"
        },
        "returns": {
          "_0": "The state of the reserve*"
        }
      },
      "getReserveNormalizedIncome(uint256)": {
        "details": "Returns the normalized income of the reserve",
        "params": {
          "reserveId": "The ID of the reserve"
        },
        "returns": {
          "_0": "The reserve's normalized income"
        }
      },
      "getTVL(uint256)": {
        "details": "Returns TVL (total value locked) of the reserve.",
        "params": {
          "reserveId": "The ID of the reserve"
        },
        "returns": {
          "_0": "The reserve's TVL"
        }
      },
      "getTotalBorrowBalance(uint256)": {
        "details": "Returns the sum of all users borrow balances include borrow interest accrued",
        "params": {
          "reserveId": "The ID of the reserve"
        },
        "returns": {
          "_0": "The total borrow balance of the reserve"
        }
      },
      "openMoneyMarket(uint256)": {
        "details": "Only callable by the emergency admin role",
        "params": {
          "reserveId": "The ID of the reserve*"
        }
      },
      "pause()": {
        "details": "Pause pool for emergency case, can only be called by emergency admin.*"
      },
      "paused()": {
        "details": "Returns true if the contract is paused, and false otherwise."
      },
      "repay(uint256)": {
        "details": "Repays a loan, as a result the corresponding loan NFT owner will receive the collateralized NFT.",
        "params": {
          "loanId": "The ID of the loan the user will repay"
        }
      },
      "setInterestModelAddress(uint256,address)": {
        "details": "Only callable by the pool admin role",
        "params": {
          "interestModelAddress": "The new address of the interest model contract*",
          "reserveId": "The ID of the reserve"
        }
      },
      "setTreasuryFactor(uint256,uint256)": {
        "details": "Only callable by the pool admin role",
        "params": {
          "factor": "The new treasury factor of the reserve*",
          "reserveId": "The ID of the reserve"
        }
      },
      "startLiquidation(uint256)": {
        "details": "Starts liquidation for a loan when it's in LIQUIDATABLE status",
        "params": {
          "loanId": "The ID of the loan which will be liquidated"
        }
      },
      "unpause()": {
        "details": "Unpause pool for emergency case, can only be called by emergency admin.*"
      },
      "withdraw(uint256,uint256,address)": {
        "details": "withdraws the ETH from reserve.",
        "params": {
          "amount": "amount of oETH to withdraw and receive native ETH*",
          "reserveId": "The ID of the reserve"
        }
      }
    },
    "title": "OpenSkyPool contract",
    "version": 1
  },
  "userdoc": {
    "kind": "user",
    "methods": {
      "closeMoneyMarket(uint256)": {
        "notice": "Close the money market"
      },
      "create(address,string,string)": {
        "notice": "Creates a reserve"
      },
      "openMoneyMarket(uint256)": {
        "notice": "Open the money market"
      },
      "setInterestModelAddress(uint256,address)": {
        "notice": "Updates the interest model address of a reserve"
      },
      "setTreasuryFactor(uint256,uint256)": {
        "notice": "Updates the treasury factor of a reserve"
      }
    },
    "notice": "Main point of interaction with OpenSky protocol's pool - Users can:   # Deposit   # Withdraw*",
    "version": 1
  },
  "storageLayout": {
    "storage": [
      {
        "astId": 1294,
        "contract": "contracts/OpenSkyPool.sol:OpenSkyPool",
        "label": "_paused",
        "offset": 0,
        "slot": "0",
        "type": "t_bool"
      },
      {
        "astId": 1379,
        "contract": "contracts/OpenSkyPool.sol:OpenSkyPool",
        "label": "_status",
        "offset": 0,
        "slot": "1",
        "type": "t_uint256"
      },
      {
        "astId": 10927,
        "contract": "contracts/OpenSkyPool.sol:OpenSkyPool",
        "label": "reserves",
        "offset": 0,
        "slot": "2",
        "type": "t_mapping(t_uint256,t_struct(ReserveData)21282_storage)"
      },
      {
        "astId": 10933,
        "contract": "contracts/OpenSkyPool.sol:OpenSkyPool",
        "label": "_reserveIdTracker",
        "offset": 0,
        "slot": "3",
        "type": "t_struct(Counter)6236_storage"
      }
    ],
    "types": {
      "t_address": {
        "encoding": "inplace",
        "label": "address",
        "numberOfBytes": "20"
      },
      "t_bool": {
        "encoding": "inplace",
        "label": "bool",
        "numberOfBytes": "1"
      },
      "t_mapping(t_uint256,t_struct(ReserveData)21282_storage)": {
        "encoding": "mapping",
        "key": "t_uint256",
        "label": "mapping(uint256 => struct DataTypes.ReserveData)",
        "numberOfBytes": "32",
        "value": "t_struct(ReserveData)21282_storage"
      },
      "t_struct(Counter)6236_storage": {
        "encoding": "inplace",
        "label": "struct Counters.Counter",
        "members": [
          {
            "astId": 6235,
            "contract": "contracts/OpenSkyPool.sol:OpenSkyPool",
            "label": "_value",
            "offset": 0,
            "slot": "0",
            "type": "t_uint256"
          }
        ],
        "numberOfBytes": "32"
      },
      "t_struct(ReserveData)21282_storage": {
        "encoding": "inplace",
        "label": "struct DataTypes.ReserveData",
        "members": [
          {
            "astId": 21259,
            "contract": "contracts/OpenSkyPool.sol:OpenSkyPool",
            "label": "reserveId",
            "offset": 0,
            "slot": "0",
            "type": "t_uint256"
          },
          {
            "astId": 21261,
            "contract": "contracts/OpenSkyPool.sol:OpenSkyPool",
            "label": "underlyingAsset",
            "offset": 0,
            "slot": "1",
            "type": "t_address"
          },
          {
            "astId": 21263,
            "contract": "contracts/OpenSkyPool.sol:OpenSkyPool",
            "label": "oTokenAddress",
            "offset": 0,
            "slot": "2",
            "type": "t_address"
          },
          {
            "astId": 21265,
            "contract": "contracts/OpenSkyPool.sol:OpenSkyPool",
            "label": "moneyMarketAddress",
            "offset": 0,
            "slot": "3",
            "type": "t_address"
          },
          {
            "astId": 21267,
            "contract": "contracts/OpenSkyPool.sol:OpenSkyPool",
            "label": "lastSupplyIndex",
            "offset": 0,
            "slot": "4",
            "type": "t_uint128"
          },
          {
            "astId": 21269,
            "contract": "contracts/OpenSkyPool.sol:OpenSkyPool",
            "label": "borrowingInterestPerSecond",
            "offset": 0,
            "slot": "5",
            "type": "t_uint256"
          },
          {
            "astId": 21271,
            "contract": "contracts/OpenSkyPool.sol:OpenSkyPool",
            "label": "lastMoneyMarketBalance",
            "offset": 0,
            "slot": "6",
            "type": "t_uint256"
          },
          {
            "astId": 21273,
            "contract": "contracts/OpenSkyPool.sol:OpenSkyPool",
            "label": "lastUpdateTimestamp",
            "offset": 0,
            "slot": "7",
            "type": "t_uint40"
          },
          {
            "astId": 21275,
            "contract": "contracts/OpenSkyPool.sol:OpenSkyPool",
            "label": "totalBorrows",
            "offset": 0,
            "slot": "8",
            "type": "t_uint256"
          },
          {
            "astId": 21277,
            "contract": "contracts/OpenSkyPool.sol:OpenSkyPool",
            "label": "interestModelAddress",
            "offset": 0,
            "slot": "9",
            "type": "t_address"
          },
          {
            "astId": 21279,
            "contract": "contracts/OpenSkyPool.sol:OpenSkyPool",
            "label": "treasuryFactor",
            "offset": 0,
            "slot": "10",
            "type": "t_uint256"
          },
          {
            "astId": 21281,
            "contract": "contracts/OpenSkyPool.sol:OpenSkyPool",
            "label": "isMoneyMarketOn",
            "offset": 0,
            "slot": "11",
            "type": "t_bool"
          }
        ],
        "numberOfBytes": "384"
      },
      "t_uint128": {
        "encoding": "inplace",
        "label": "uint128",
        "numberOfBytes": "16"
      },
      "t_uint256": {
        "encoding": "inplace",
        "label": "uint256",
        "numberOfBytes": "32"
      },
      "t_uint40": {
        "encoding": "inplace",
        "label": "uint40",
        "numberOfBytes": "5"
      }
    }
  }
}