{
  "address": "0x4e520BDA73aB18f666716C8288621cB1848F857a",
  "abi": [
    {
      "inputs": [
        {
          "internalType": "uint256",
          "name": "optimalUtilizationRate",
          "type": "uint256"
        },
        {
          "internalType": "uint256",
          "name": "rateSlope1_",
          "type": "uint256"
        },
        {
          "internalType": "uint256",
          "name": "rateSlope2_",
          "type": "uint256"
        },
        {
          "internalType": "uint256",
          "name": "baseBorrowRate",
          "type": "uint256"
        }
      ],
      "stateMutability": "nonpayable",
      "type": "constructor"
    },
    {
      "anonymous": false,
      "inputs": [
        {
          "indexed": true,
          "internalType": "address",
          "name": "previousOwner",
          "type": "address"
        },
        {
          "indexed": true,
          "internalType": "address",
          "name": "newOwner",
          "type": "address"
        }
      ],
      "name": "OwnershipTransferred",
      "type": "event"
    },
    {
      "anonymous": false,
      "inputs": [
        {
          "indexed": true,
          "internalType": "uint256",
          "name": "reserveId",
          "type": "uint256"
        },
        {
          "indexed": true,
          "internalType": "uint256",
          "name": "baseRate",
          "type": "uint256"
        }
      ],
      "name": "SetBaseBorrowRate",
      "type": "event"
    },
    {
      "inputs": [],
      "name": "EXCESS_UTILIZATION_RATE",
      "outputs": [
        {
          "internalType": "uint256",
          "name": "",
          "type": "uint256"
        }
      ],
      "stateMutability": "view",
      "type": "function"
    },
    {
      "inputs": [],
      "name": "OPTIMAL_UTILIZATION_RATE",
      "outputs": [
        {
          "internalType": "uint256",
          "name": "",
          "type": "uint256"
        }
      ],
      "stateMutability": "view",
      "type": "function"
    },
    {
      "inputs": [
        {
          "internalType": "uint256",
          "name": "reserveId",
          "type": "uint256"
        }
      ],
      "name": "getBaseBorrowRate",
      "outputs": [
        {
          "internalType": "uint256",
          "name": "",
          "type": "uint256"
        }
      ],
      "stateMutability": "view",
      "type": "function"
    },
    {
      "inputs": [
        {
          "internalType": "uint256",
          "name": "reserveId",
          "type": "uint256"
        },
        {
          "internalType": "uint256",
          "name": "totalDeposits",
          "type": "uint256"
        },
        {
          "internalType": "uint256",
          "name": "totalBorrows",
          "type": "uint256"
        }
      ],
      "name": "getBorrowRate",
      "outputs": [
        {
          "internalType": "uint256",
          "name": "",
          "type": "uint256"
        }
      ],
      "stateMutability": "view",
      "type": "function"
    },
    {
      "inputs": [],
      "name": "owner",
      "outputs": [
        {
          "internalType": "address",
          "name": "",
          "type": "address"
        }
      ],
      "stateMutability": "view",
      "type": "function"
    },
    {
      "inputs": [],
      "name": "rateSlope1",
      "outputs": [
        {
          "internalType": "uint256",
          "name": "",
          "type": "uint256"
        }
      ],
      "stateMutability": "view",
      "type": "function"
    },
    {
      "inputs": [],
      "name": "rateSlope2",
      "outputs": [
        {
          "internalType": "uint256",
          "name": "",
          "type": "uint256"
        }
      ],
      "stateMutability": "view",
      "type": "function"
    },
    {
      "inputs": [],
      "name": "renounceOwnership",
      "outputs": [],
      "stateMutability": "nonpayable",
      "type": "function"
    },
    {
      "inputs": [
        {
          "internalType": "uint256",
          "name": "reserveId",
          "type": "uint256"
        },
        {
          "internalType": "uint256",
          "name": "rate",
          "type": "uint256"
        }
      ],
      "name": "setBaseBorrowRate",
      "outputs": [],
      "stateMutability": "nonpayable",
      "type": "function"
    },
    {
      "inputs": [
        {
          "internalType": "address",
          "name": "newOwner",
          "type": "address"
        }
      ],
      "name": "transferOwnership",
      "outputs": [],
      "stateMutability": "nonpayable",
      "type": "function"
    }
  ],
  "transactionHash": "0x4b948e4c548d075cc169c44c536bee3519baa77e39aef2d018e9dd9bc0d293f6",
  "args": [
    "800000000000000000000000000",
    "80000000000000000000000000",
    "1000000000000000000000000000",
    "40000000000000000000000000"
  ],
  "solcInputHash": "903b6e0b7a82abf3fd1d087256b904a8",
  "bytecode": "0x61012060405234801561001157600080fd5b50604051610a79380380610a79833981016040819052610030916100f2565b6100393361007f565b8360808181525050610069846100576100cf60201b6104c81760201c565b6100df60201b6104d81790919060201c565b60a05260c09290925260e052610100525061014d565b600080546001600160a01b038381166001600160a01b0319831681178455604051919092169283917f8be0079c531659141344cd1fd0a4f28419497f9722a3daafe3b4186f6b6457e09190a35050565b6b033b2e3c9fd0803ce800000090565b60006100eb8284610128565b9392505050565b6000806000806080858703121561010857600080fd5b505082516020840151604085015160609095015191969095509092509050565b60008282101561014857634e487b7160e01b600052601160045260246000fd5b500390565b60805160a05160c05160e051610100516108b96101c0600039600061034b01526000818160f2015261027401526000818161012b0152818161029f01526102fd01526000818160ce015261021b01526000818161018c015281816101ee0152818161024001526102d901526108b96000f3fe608060405234801561001057600080fd5b506004361061009e5760003560e01c80635a049f75116100665780635a049f751461014f578063715018a6146101645780638da5cb5b1461016c578063a15f30ac14610187578063f2fde38b146101ae57600080fd5b806315f24053146100a357806317319873146100c95780631eedf5c7146100f057806331f7266e146101165780635454a4b614610129575b600080fd5b6100b66100b13660046106e3565b6101c1565b6040519081526020015b60405180910390f35b6100b67f000000000000000000000000000000000000000000000000000000000000000081565b7f00000000000000000000000000000000000000000000000000000000000000006100b6565b6100b661012436600461070f565b610336565b7f00000000000000000000000000000000000000000000000000000000000000006100b6565b61016261015d366004610728565b610385565b005b6101626103f7565b6000546040516001600160a01b0390911681526020016100c0565b6100b67f000000000000000000000000000000000000000000000000000000000000000081565b6101626101bc36600461074a565b61042d565b60008082156101d9576101d483856104eb565b6101dc565b60005b90506000806101ea87610336565b90507f00000000000000000000000000000000000000000000000000000000000000008311156102d157600061026a7f0000000000000000000000000000000000000000000000000000000000000000610264867f00000000000000000000000000000000000000000000000000000000000000006104d8565b906104eb565b90506102c96102997f0000000000000000000000000000000000000000000000000000000000000000836105cb565b6102c3847f0000000000000000000000000000000000000000000000000000000000000000610687565b90610687565b92505061032c565b6103296103227f00000000000000000000000000000000000000000000000000000000000000006102647f0000000000000000000000000000000000000000000000000000000000000000876105cb565b8290610687565b91505b5095945050505050565b60008181526001602052604081205461036f577f000000000000000000000000000000000000000000000000000000000000000061037f565b6000828152600160205260409020545b92915050565b6000546001600160a01b031633146103b85760405162461bcd60e51b81526004016103af90610773565b60405180910390fd5b60008281526001602052604080822083905551829184917fb480dd30c13dbdecac56fd16523f3ad0317da81f9e3b63ce3a041b007c38b5069190a35050565b6000546001600160a01b031633146104215760405162461bcd60e51b81526004016103af90610773565b61042b6000610693565b565b6000546001600160a01b031633146104575760405162461bcd60e51b81526004016103af90610773565b6001600160a01b0381166104bc5760405162461bcd60e51b815260206004820152602660248201527f4f776e61626c653a206e6577206f776e657220697320746865207a65726f206160448201526564647265737360d01b60648201526084016103af565b6104c581610693565b50565b6b033b2e3c9fd0803ce800000090565b60006104e482846107be565b9392505050565b60408051808201909152600381526218981960e91b6020820152600090826105265760405162461bcd60e51b81526004016103af91906107d5565b50600061053460028461082a565b90506b033b2e3c9fd0803ce800000061054f826000196107be565b610559919061082a565b8411156040518060400160405280600381526020016203130360ec1b815250906105965760405162461bcd60e51b81526004016103af91906107d5565b5082816105af6b033b2e3c9fd0803ce80000008761084c565b6105b9919061086b565b6105c3919061082a565b949350505050565b60008215806105d8575081155b156105e55750600061037f565b816105fd60026b033b2e3c9fd0803ce800000061082a565b610609906000196107be565b610613919061082a565b8311156040518060400160405280600381526020016203130360ec1b815250906106505760405162461bcd60e51b81526004016103af91906107d5565b506b033b2e3c9fd0803ce800000061066960028261082a565b610673848661084c565b61067d919061086b565b6104e4919061082a565b60006104e4828461086b565b600080546001600160a01b038381166001600160a01b0319831681178455604051919092169283917f8be0079c531659141344cd1fd0a4f28419497f9722a3daafe3b4186f6b6457e09190a35050565b6000806000606084860312156106f857600080fd5b505081359360208301359350604090920135919050565b60006020828403121561072157600080fd5b5035919050565b6000806040838503121561073b57600080fd5b50508035926020909101359150565b60006020828403121561075c57600080fd5b81356001600160a01b03811681146104e457600080fd5b6020808252818101527f4f776e61626c653a2063616c6c6572206973206e6f7420746865206f776e6572604082015260600190565b634e487b7160e01b600052601160045260246000fd5b6000828210156107d0576107d06107a8565b500390565b600060208083528351808285015260005b81811015610802578581018301518582016040015282016107e6565b81811115610814576000604083870101525b50601f01601f1916929092016040019392505050565b60008261084757634e487b7160e01b600052601260045260246000fd5b500490565b6000816000190483118215151615610866576108666107a8565b500290565b6000821982111561087e5761087e6107a8565b50019056fea2646970667358221220c4211a7fa73d822d9debfce9bf4b9f5c53b9313ac95a277cc03f46f87a96c05c64736f6c634300080a0033",
  "libraries": {
    "PercentageMath": "0xa22eF7fA838086378C1bae4aB77915407a126D9d"
  },
  "devdoc": {
    "author": "OpenSky Labs",
    "details": "The model of interest rate is based on 2 slopes, one before the `OPTIMAL_USAGE_RATIO` point of usage and another from that one to 100%.*",
    "kind": "dev",
    "methods": {
      "getBaseBorrowRate(uint256)": {
        "params": {
          "reserveId": "The id of the reserve"
        },
        "returns": {
          "_0": "The borrow rate, expressed in ray*"
        }
      },
      "getBorrowRate(uint256,uint256,uint256)": {
        "params": {
          "reserveId": "The id of the reserve",
          "totalBorrows": "The total borrows amount of the reserve",
          "totalDeposits": "The total deposits amount of the reserve"
        },
        "returns": {
          "_0": "The borrow rate, expressed in ray*"
        }
      },
      "owner()": {
        "details": "Returns the address of the current owner."
      },
      "renounceOwnership()": {
        "details": "Leaves the contract without owner. It will not be possible to call `onlyOwner` functions anymore. Can only be called by the current owner. NOTE: Renouncing ownership will leave the contract without an owner, thereby removing any functionality that is only available to the owner."
      },
      "setBaseBorrowRate(uint256,uint256)": {
        "params": {
          "rate": "The rate will be set*",
          "reserveId": "The id of the reserve"
        }
      },
      "transferOwnership(address)": {
        "details": "Transfers ownership of the contract to a new account (`newOwner`). Can only be called by the current owner."
      }
    },
    "title": "OpenSkyInterestRateStrategy contract",
    "version": 1
  },
  "userdoc": {
    "kind": "user",
    "methods": {
      "getBaseBorrowRate(uint256)": {
        "notice": "Returns the base borrow rate of a reserve"
      },
      "getBorrowRate(uint256,uint256,uint256)": {
        "notice": "Returns the borrow rate of a reserve"
      },
      "setBaseBorrowRate(uint256,uint256)": {
        "notice": "Sets the base borrow rate of a reserve"
      }
    },
    "notice": "Implements the calculation of the interest rates depending on the reserve state",
    "version": 1
  },
  "storageLayout": {
    "storage": [
      {
        "astId": 387,
        "contract": "contracts/OpenSkyInterestRateStrategy.sol:OpenSkyInterestRateStrategy",
        "label": "_owner",
        "offset": 0,
        "slot": "0",
        "type": "t_address"
      },
      {
        "astId": 8476,
        "contract": "contracts/OpenSkyInterestRateStrategy.sol:OpenSkyInterestRateStrategy",
        "label": "_baseBorrowRates",
        "offset": 0,
        "slot": "1",
        "type": "t_mapping(t_uint256,t_uint256)"
      }
    ],
    "types": {
      "t_address": {
        "encoding": "inplace",
        "label": "address",
        "numberOfBytes": "20"
      },
      "t_mapping(t_uint256,t_uint256)": {
        "encoding": "mapping",
        "key": "t_uint256",
        "label": "mapping(uint256 => uint256)",
        "numberOfBytes": "32",
        "value": "t_uint256"
      },
      "t_uint256": {
        "encoding": "inplace",
        "label": "uint256",
        "numberOfBytes": "32"
      }
    }
  }
}