{
  "address": "0xF2346F9987fc8B74341963b87D6b2250f2ee8125",
  "abi": [
    {
      "inputs": [
        {
          "internalType": "address",
          "name": "SETTINGS_",
          "type": "address"
        },
        {
          "internalType": "address",
          "name": "WETH_",
          "type": "address"
        }
      ],
      "stateMutability": "nonpayable",
      "type": "constructor"
    },
    {
      "anonymous": false,
      "inputs": [
        {
          "indexed": false,
          "internalType": "address",
          "name": "token",
          "type": "address"
        },
        {
          "indexed": false,
          "internalType": "address",
          "name": "spender",
          "type": "address"
        },
        {
          "indexed": false,
          "internalType": "bool",
          "name": "approved",
          "type": "bool"
        }
      ],
      "name": "ApproveERC1155ForAll",
      "type": "event"
    },
    {
      "anonymous": false,
      "inputs": [
        {
          "indexed": false,
          "internalType": "address",
          "name": "token",
          "type": "address"
        },
        {
          "indexed": false,
          "internalType": "address",
          "name": "spender",
          "type": "address"
        },
        {
          "indexed": false,
          "internalType": "uint256",
          "name": "amount",
          "type": "uint256"
        }
      ],
      "name": "ApproveERC20",
      "type": "event"
    },
    {
      "anonymous": false,
      "inputs": [
        {
          "indexed": false,
          "internalType": "address",
          "name": "token",
          "type": "address"
        },
        {
          "indexed": false,
          "internalType": "address",
          "name": "spender",
          "type": "address"
        },
        {
          "indexed": false,
          "internalType": "uint256",
          "name": "tokenId",
          "type": "uint256"
        }
      ],
      "name": "ApproveERC721",
      "type": "event"
    },
    {
      "anonymous": false,
      "inputs": [
        {
          "indexed": false,
          "internalType": "address",
          "name": "token",
          "type": "address"
        },
        {
          "indexed": false,
          "internalType": "address",
          "name": "spender",
          "type": "address"
        },
        {
          "indexed": false,
          "internalType": "bool",
          "name": "approved",
          "type": "bool"
        }
      ],
      "name": "ApproveERC721ForAll",
      "type": "event"
    },
    {
      "anonymous": false,
      "inputs": [
        {
          "indexed": false,
          "internalType": "uint256",
          "name": "amount",
          "type": "uint256"
        }
      ],
      "name": "ConvertETHToWETH",
      "type": "event"
    },
    {
      "anonymous": false,
      "inputs": [
        {
          "indexed": true,
          "internalType": "address",
          "name": "token",
          "type": "address"
        },
        {
          "indexed": false,
          "internalType": "uint256",
          "name": "tokenId",
          "type": "uint256"
        },
        {
          "indexed": false,
          "internalType": "uint256",
          "name": "amount",
          "type": "uint256"
        },
        {
          "indexed": true,
          "internalType": "address",
          "name": "from",
          "type": "address"
        }
      ],
      "name": "DepositERC1155",
      "type": "event"
    },
    {
      "anonymous": false,
      "inputs": [
        {
          "indexed": true,
          "internalType": "address",
          "name": "token",
          "type": "address"
        },
        {
          "indexed": false,
          "internalType": "uint256[]",
          "name": "tokenId",
          "type": "uint256[]"
        },
        {
          "indexed": false,
          "internalType": "uint256[]",
          "name": "amount",
          "type": "uint256[]"
        },
        {
          "indexed": true,
          "internalType": "address",
          "name": "from",
          "type": "address"
        }
      ],
      "name": "DepositERC1155Bulk",
      "type": "event"
    },
    {
      "anonymous": false,
      "inputs": [
        {
          "indexed": true,
          "internalType": "address",
          "name": "token",
          "type": "address"
        },
        {
          "indexed": false,
          "internalType": "uint256",
          "name": "tokenId",
          "type": "uint256"
        },
        {
          "indexed": true,
          "internalType": "address",
          "name": "from",
          "type": "address"
        }
      ],
      "name": "DepositERC721",
      "type": "event"
    },
    {
      "anonymous": false,
      "inputs": [
        {
          "indexed": false,
          "internalType": "uint256",
          "name": "amount",
          "type": "uint256"
        },
        {
          "indexed": true,
          "internalType": "address",
          "name": "from",
          "type": "address"
        }
      ],
      "name": "DepositETH",
      "type": "event"
    },
    {
      "anonymous": false,
      "inputs": [
        {
          "indexed": true,
          "internalType": "address",
          "name": "receiver",
          "type": "address"
        },
        {
          "indexed": false,
          "internalType": "address",
          "name": "sender",
          "type": "address"
        },
        {
          "indexed": true,
          "internalType": "address",
          "name": "nftAddress",
          "type": "address"
        },
        {
          "indexed": true,
          "internalType": "uint256",
          "name": "tokenId",
          "type": "uint256"
        }
      ],
      "name": "FlashClaim",
      "type": "event"
    },
    {
      "anonymous": false,
      "inputs": [
        {
          "indexed": true,
          "internalType": "address",
          "name": "token",
          "type": "address"
        },
        {
          "indexed": false,
          "internalType": "uint256",
          "name": "tokenId",
          "type": "uint256"
        },
        {
          "indexed": false,
          "internalType": "uint256",
          "name": "amount",
          "type": "uint256"
        },
        {
          "indexed": true,
          "internalType": "address",
          "name": "from",
          "type": "address"
        }
      ],
      "name": "WithdrawERC1155",
      "type": "event"
    },
    {
      "anonymous": false,
      "inputs": [
        {
          "indexed": true,
          "internalType": "address",
          "name": "token",
          "type": "address"
        },
        {
          "indexed": false,
          "internalType": "uint256",
          "name": "amount",
          "type": "uint256"
        },
        {
          "indexed": false,
          "internalType": "address",
          "name": "to",
          "type": "address"
        }
      ],
      "name": "WithdrawERC20",
      "type": "event"
    },
    {
      "anonymous": false,
      "inputs": [
        {
          "indexed": true,
          "internalType": "address",
          "name": "token",
          "type": "address"
        },
        {
          "indexed": false,
          "internalType": "uint256",
          "name": "tokenId",
          "type": "uint256"
        },
        {
          "indexed": true,
          "internalType": "address",
          "name": "to",
          "type": "address"
        }
      ],
      "name": "WithdrawERC721",
      "type": "event"
    },
    {
      "anonymous": false,
      "inputs": [
        {
          "indexed": false,
          "internalType": "uint256",
          "name": "amount",
          "type": "uint256"
        },
        {
          "indexed": false,
          "internalType": "address",
          "name": "to",
          "type": "address"
        }
      ],
      "name": "WithdrawETH",
      "type": "event"
    },
    {
      "inputs": [],
      "name": "SETTINGS",
      "outputs": [
        {
          "internalType": "contract IOpenSkySettings",
          "name": "",
          "type": "address"
        }
      ],
      "stateMutability": "view",
      "type": "function"
    },
    {
      "inputs": [],
      "name": "WETH",
      "outputs": [
        {
          "internalType": "contract IWETH",
          "name": "",
          "type": "address"
        }
      ],
      "stateMutability": "view",
      "type": "function"
    },
    {
      "inputs": [
        {
          "internalType": "address",
          "name": "token",
          "type": "address"
        },
        {
          "internalType": "address",
          "name": "spender",
          "type": "address"
        },
        {
          "internalType": "bool",
          "name": "approved",
          "type": "bool"
        }
      ],
      "name": "approveERC1155ForAll",
      "outputs": [],
      "stateMutability": "nonpayable",
      "type": "function"
    },
    {
      "inputs": [
        {
          "internalType": "address",
          "name": "token",
          "type": "address"
        },
        {
          "internalType": "address",
          "name": "spender",
          "type": "address"
        },
        {
          "internalType": "uint256",
          "name": "amount",
          "type": "uint256"
        }
      ],
      "name": "approveERC20",
      "outputs": [],
      "stateMutability": "nonpayable",
      "type": "function"
    },
    {
      "inputs": [
        {
          "internalType": "address",
          "name": "token",
          "type": "address"
        },
        {
          "internalType": "address",
          "name": "spender",
          "type": "address"
        },
        {
          "internalType": "uint256",
          "name": "tokenId",
          "type": "uint256"
        }
      ],
      "name": "approveERC721",
      "outputs": [],
      "stateMutability": "nonpayable",
      "type": "function"
    },
    {
      "inputs": [
        {
          "internalType": "address",
          "name": "token",
          "type": "address"
        },
        {
          "internalType": "address",
          "name": "spender",
          "type": "address"
        },
        {
          "internalType": "bool",
          "name": "approved",
          "type": "bool"
        }
      ],
      "name": "approveERC721ForAll",
      "outputs": [],
      "stateMutability": "nonpayable",
      "type": "function"
    },
    {
      "inputs": [
        {
          "internalType": "uint256",
          "name": "amount",
          "type": "uint256"
        }
      ],
      "name": "convertETHToWETH",
      "outputs": [],
      "stateMutability": "nonpayable",
      "type": "function"
    },
    {
      "inputs": [
        {
          "internalType": "address",
          "name": "receiverAddress",
          "type": "address"
        },
        {
          "internalType": "address[]",
          "name": "tokens",
          "type": "address[]"
        },
        {
          "internalType": "uint256[]",
          "name": "tokenIds",
          "type": "uint256[]"
        },
        {
          "internalType": "bytes",
          "name": "params",
          "type": "bytes"
        }
      ],
      "name": "flashClaim",
      "outputs": [],
      "stateMutability": "nonpayable",
      "type": "function"
    },
    {
      "inputs": [
        {
          "internalType": "address",
          "name": "",
          "type": "address"
        },
        {
          "internalType": "address",
          "name": "from",
          "type": "address"
        },
        {
          "internalType": "uint256[]",
          "name": "ids",
          "type": "uint256[]"
        },
        {
          "internalType": "uint256[]",
          "name": "amounts",
          "type": "uint256[]"
        },
        {
          "internalType": "bytes",
          "name": "",
          "type": "bytes"
        }
      ],
      "name": "onERC1155BatchReceived",
      "outputs": [
        {
          "internalType": "bytes4",
          "name": "",
          "type": "bytes4"
        }
      ],
      "stateMutability": "nonpayable",
      "type": "function"
    },
    {
      "inputs": [
        {
          "internalType": "address",
          "name": "",
          "type": "address"
        },
        {
          "internalType": "address",
          "name": "from",
          "type": "address"
        },
        {
          "internalType": "uint256",
          "name": "id",
          "type": "uint256"
        },
        {
          "internalType": "uint256",
          "name": "amount",
          "type": "uint256"
        },
        {
          "internalType": "bytes",
          "name": "",
          "type": "bytes"
        }
      ],
      "name": "onERC1155Received",
      "outputs": [
        {
          "internalType": "bytes4",
          "name": "",
          "type": "bytes4"
        }
      ],
      "stateMutability": "nonpayable",
      "type": "function"
    },
    {
      "inputs": [
        {
          "internalType": "address",
          "name": "",
          "type": "address"
        },
        {
          "internalType": "address",
          "name": "from",
          "type": "address"
        },
        {
          "internalType": "uint256",
          "name": "id",
          "type": "uint256"
        },
        {
          "internalType": "bytes",
          "name": "",
          "type": "bytes"
        }
      ],
      "name": "onERC721Received",
      "outputs": [
        {
          "internalType": "bytes4",
          "name": "",
          "type": "bytes4"
        }
      ],
      "stateMutability": "nonpayable",
      "type": "function"
    },
    {
      "inputs": [
        {
          "internalType": "bytes4",
          "name": "interfaceId",
          "type": "bytes4"
        }
      ],
      "name": "supportsInterface",
      "outputs": [
        {
          "internalType": "bool",
          "name": "",
          "type": "bool"
        }
      ],
      "stateMutability": "view",
      "type": "function"
    },
    {
      "inputs": [
        {
          "internalType": "address",
          "name": "to",
          "type": "address"
        },
        {
          "internalType": "address",
          "name": "token",
          "type": "address"
        },
        {
          "internalType": "uint256",
          "name": "tokenId",
          "type": "uint256"
        },
        {
          "internalType": "uint256",
          "name": "amount",
          "type": "uint256"
        }
      ],
      "name": "withdrawERC1155",
      "outputs": [],
      "stateMutability": "nonpayable",
      "type": "function"
    },
    {
      "inputs": [
        {
          "internalType": "address",
          "name": "token",
          "type": "address"
        },
        {
          "internalType": "uint256",
          "name": "amount",
          "type": "uint256"
        },
        {
          "internalType": "address",
          "name": "to",
          "type": "address"
        }
      ],
      "name": "withdrawERC20",
      "outputs": [],
      "stateMutability": "nonpayable",
      "type": "function"
    },
    {
      "inputs": [
        {
          "internalType": "address",
          "name": "token",
          "type": "address"
        },
        {
          "internalType": "uint256",
          "name": "tokenId",
          "type": "uint256"
        },
        {
          "internalType": "address",
          "name": "to",
          "type": "address"
        }
      ],
      "name": "withdrawERC721",
      "outputs": [],
      "stateMutability": "nonpayable",
      "type": "function"
    },
    {
      "inputs": [
        {
          "internalType": "uint256",
          "name": "amount",
          "type": "uint256"
        },
        {
          "internalType": "address",
          "name": "to",
          "type": "address"
        }
      ],
      "name": "withdrawETH",
      "outputs": [],
      "stateMutability": "nonpayable",
      "type": "function"
    },
    {
      "stateMutability": "payable",
      "type": "receive"
    }
  ],
  "transactionHash": "0x021e925bf97a6ed083588dc9a07911116147d3dc22cacdb3b9287b87653d52b2",
  "args": [
    "0x12D182BE71BF456353FBc3aeFdae4C98465D9ef5",
    "0x0d500b1d8e8ef31e21c99d1db9a6444d3adf1270"
  ],
  "solcInputHash": "597fe0c822de038e67f456c392a88115",
  "bytecode": "0x60c06040523480156200001157600080fd5b50604051620027353803806200273583398101604081905262000034916200006e565b60016000556001600160a01b039182166080521660a052620000a6565b80516001600160a01b03811681146200006957600080fd5b919050565b600080604083850312156200008257600080fd5b6200008d8362000051565b91506200009d6020840162000051565b90509250929050565b60805160a05161262362000112600039600081816102d90152611827015260008181610325015281816103ab01528181610623015281816107ea01528181610e4b01528181610fc40152818161118e0152818161135d0152818161154d015261170f01526126236000f3fe6080604052600436106100f65760003560e01c80637b9f76b51161008a578063ade97ab511610059578063ade97ab514610313578063bc197c8114610347578063c1365ffb14610367578063f23a6e611461038757600080fd5b80637b9f76b514610267578063a0edb48b14610287578063a8e5e4aa146102a7578063ad5c4648146102c757600080fd5b8063453b609c116100c6578063453b609c146101e75780635df27f68146102075780635fc3ea0b146102275780636e0bc3ec1461024757600080fd5b8062a7230a1461013757806301ffc9a714610159578063150b7a021461018e57806336118b52146101c757600080fd5b366101325760405134815233907f120444be79b9fdf050e0985e12e289e693dc30ecfd79179bd6f8893be5476c669060200160405180910390a2005b600080fd5b34801561014357600080fd5b50610157610152366004611dab565b6103a7565b005b34801561016557600080fd5b50610179610174366004611dec565b61056d565b60405190151581526020015b60405180910390f35b34801561019a57600080fd5b506101ae6101a9366004611ecd565b6105bf565b6040516001600160e01b03199091168152602001610185565b3480156101d357600080fd5b506101576101e2366004611f39565b61061f565b3480156101f357600080fd5b50610157610202366004611f77565b6107e6565b34801561021357600080fd5b5061015761022236600461200e565b6109b0565b34801561023357600080fd5b506101576102423660046120e8565b610e47565b34801561025357600080fd5b50610157610262366004611f77565b610fc0565b34801561027357600080fd5b506101576102823660046120e8565b61118a565b34801561029357600080fd5b506101576102a236600461211f565b611359565b3480156102b357600080fd5b506101576102c2366004611dab565b611549565b3480156102d357600080fd5b506102fb7f000000000000000000000000000000000000000000000000000000000000000081565b6040516001600160a01b039091168152602001610185565b34801561031f57600080fd5b506102fb7f000000000000000000000000000000000000000000000000000000000000000081565b34801561035357600080fd5b506101ae6103623660046121da565b6116aa565b34801561037357600080fd5b50610157610382366004612288565b61170b565b34801561039357600080fd5b506101ae6103a23660046122a1565b6118d6565b60007f00000000000000000000000000000000000000000000000000000000000000006001600160a01b0316639a9dbb996040518163ffffffff1660e01b8152600401602060405180830381865afa158015610407573d6000803e3d6000fd5b505050506040513d601f19601f8201168201806040525081019061042b919061230a565b90506001600160a01b03811663dee1f0e4336040516001600160e01b031960e084901b1681526001600160a01b039091166004820152602401602060405180830381865afa158015610481573d6000803e3d6000fd5b505050506040513d601f19601f820116820180604052508101906104a59190612327565b6104ca5760405162461bcd60e51b81526004016104c190612344565b60405180910390fd5b60405163095ea7b360e01b81526001600160a01b0384811660048301526024820184905285169063095ea7b390604401600060405180830381600087803b15801561051457600080fd5b505af1158015610528573d6000803e3d6000fd5b505050507f5b8739d7145ecc145409bcf673430fedd638893918572926b1049b554757e90484848460405161055f9392919061237b565b60405180910390a150505050565b60006001600160e01b03198216630a85bd0160e11b148061059e57506001600160e01b03198216630271189760e51b145b806105b957506301ffc9a760e01b6001600160e01b03198316145b92915050565b6000836001600160a01b0316336001600160a01b03167fb6219d009b79f4e4fc9b2f61614df0c5340f2ae5a531b74cc33ddc09df5de8a88560405161060691815260200190565b60405180910390a350630a85bd0160e11b949350505050565b60007f00000000000000000000000000000000000000000000000000000000000000006001600160a01b0316639a9dbb996040518163ffffffff1660e01b8152600401602060405180830381865afa15801561067f573d6000803e3d6000fd5b505050506040513d601f19601f820116820180604052508101906106a3919061230a565b90506001600160a01b03811663dee1f0e4336040516001600160e01b031960e084901b1681526001600160a01b039091166004820152602401602060405180830381865afa1580156106f9573d6000803e3d6000fd5b505050506040513d601f19601f8201168201806040525081019061071d9190612327565b6107395760405162461bcd60e51b81526004016104c190612344565b600083116107895760405162461bcd60e51b815260206004820152601b60248201527f57495448445241575f414d4f554e545f4e4f545f414c4c4f574544000000000060448201526064016104c1565b8247101561079657600080fd5b6107a08284611931565b604080518481526001600160a01b03841660208201527fba0408b66a1c4035a8e68eca95042e5619e9cc3a1811ebac1661eb4aa358667e910160405180910390a1505050565b60007f00000000000000000000000000000000000000000000000000000000000000006001600160a01b0316639a9dbb996040518163ffffffff1660e01b8152600401602060405180830381865afa158015610846573d6000803e3d6000fd5b505050506040513d601f19601f8201168201806040525081019061086a919061230a565b90506001600160a01b03811663dee1f0e4336040516001600160e01b031960e084901b1681526001600160a01b039091166004820152602401602060405180830381865afa1580156108c0573d6000803e3d6000fd5b505050506040513d601f19601f820116820180604052508101906108e49190612327565b6109005760405162461bcd60e51b81526004016104c190612344565b60405163a22cb46560e01b81526001600160a01b038481166004830152831515602483015285169063a22cb46590604401600060405180830381600087803b15801561094b57600080fd5b505af115801561095f573d6000803e3d6000fd5b5050604080516001600160a01b03808916825287166020820152851515918101919091527f84e97615a8997b4bab46d3bb9b033e196f87c998b9ef16257b78515809e921fe9250606001905061055f565b60026000541415610a035760405162461bcd60e51b815260206004820152601f60248201527f5265656e7472616e637947756172643a207265656e7472616e742063616c6c0060448201526064016104c1565b6002600055848314610a575760405162461bcd60e51b815260206004820152601b60248201527f44565f464c4153485f434c41494d5f504152414d535f4552524f52000000000060448201526064016104c1565b6000875b84821015610c1a5730888884818110610a7657610a7661239f565b9050602002016020810190610a8b91906123b5565b6001600160a01b0316636352211e888886818110610aab57610aab61239f565b905060200201356040518263ffffffff1660e01b8152600401610ad091815260200190565b602060405180830381865afa158015610aed573d6000803e3d6000fd5b505050506040513d601f19601f82011682018060405250810190610b11919061230a565b6001600160a01b031614610b675760405162461bcd60e51b815260206004820152601760248201527f44565f444f45535f4e4f545f4f574e5f5448455f4e465400000000000000000060448201526064016104c1565b878783818110610b7957610b7961239f565b9050602002016020810190610b8e91906123b5565b6001600160a01b03166342842e0e308b898987818110610bb057610bb061239f565b905060200201356040518463ffffffff1660e01b8152600401610bd59392919061237b565b600060405180830381600087803b158015610bef57600080fd5b505af1158015610c03573d6000803e3d6000fd5b505050508180610c12906123d2565b925050610a5b565b604051628e896f60e41b81526001600160a01b038216906308e896f090610c53908b908b908b908b90309081908d908d90600401612424565b6020604051808303816000875af1158015610c72573d6000803e3d6000fd5b505050506040513d601f19601f82011682018060405250810190610c969190612327565b610ce25760405162461bcd60e51b815260206004820152601c60248201527f44565f464c415348434c41494d5f4558454355544f525f4552524f520000000060448201526064016104c1565b600091505b84821015610e3757878783818110610d0157610d0161239f565b9050602002016020810190610d1691906123b5565b6001600160a01b03166342842e0e8a30898987818110610d3857610d3861239f565b905060200201356040518463ffffffff1660e01b8152600401610d5d9392919061237b565b600060405180830381600087803b158015610d7757600080fd5b505af1158015610d8b573d6000803e3d6000fd5b50505050858583818110610da157610da161239f565b90506020020135888884818110610dba57610dba61239f565b9050602002016020810190610dcf91906123b5565b6001600160a01b03168a6001600160a01b03167f6bac1c66016500cd7b62d69e86268760baac6cd34a70003af66ffa8a97983216610e0a3390565b6040516001600160a01b03909116815260200160405180910390a481610e2f816123d2565b925050610ce7565b5050600160005550505050505050565b60007f00000000000000000000000000000000000000000000000000000000000000006001600160a01b0316639a9dbb996040518163ffffffff1660e01b8152600401602060405180830381865afa158015610ea7573d6000803e3d6000fd5b505050506040513d601f19601f82011682018060405250810190610ecb919061230a565b90506001600160a01b03811663dee1f0e4336040516001600160e01b031960e084901b1681526001600160a01b039091166004820152602401602060405180830381865afa158015610f21573d6000803e3d6000fd5b505050506040513d601f19601f82011682018060405250810190610f459190612327565b610f615760405162461bcd60e51b81526004016104c190612344565b610f756001600160a01b03851683856119cf565b604080518481526001600160a01b0384811660208301528616917f15e848750ab66cd66f07bebaf8dab757d6d4af0895afc4ff867f35baf163ee2d910160405180910390a250505050565b60007f00000000000000000000000000000000000000000000000000000000000000006001600160a01b0316639a9dbb996040518163ffffffff1660e01b8152600401602060405180830381865afa158015611020573d6000803e3d6000fd5b505050506040513d601f19601f82011682018060405250810190611044919061230a565b90506001600160a01b03811663dee1f0e4336040516001600160e01b031960e084901b1681526001600160a01b039091166004820152602401602060405180830381865afa15801561109a573d6000803e3d6000fd5b505050506040513d601f19601f820116820180604052508101906110be9190612327565b6110da5760405162461bcd60e51b81526004016104c190612344565b60405163a22cb46560e01b81526001600160a01b038481166004830152831515602483015285169063a22cb46590604401600060405180830381600087803b15801561112557600080fd5b505af1158015611139573d6000803e3d6000fd5b5050604080516001600160a01b03808916825287166020820152851515918101919091527f4975f9c82e7a9ff1787f1914e94d3fdd87ec1c062d5be3da53eeefa2eea06f739250606001905061055f565b60007f00000000000000000000000000000000000000000000000000000000000000006001600160a01b0316639a9dbb996040518163ffffffff1660e01b8152600401602060405180830381865afa1580156111ea573d6000803e3d6000fd5b505050506040513d601f19601f8201168201806040525081019061120e919061230a565b90506001600160a01b03811663dee1f0e4336040516001600160e01b031960e084901b1681526001600160a01b039091166004820152602401602060405180830381865afa158015611264573d6000803e3d6000fd5b505050506040513d601f19601f820116820180604052508101906112889190612327565b6112a45760405162461bcd60e51b81526004016104c190612344565b604051632142170760e11b81526001600160a01b038516906342842e0e906112d49030908690889060040161237b565b600060405180830381600087803b1580156112ee57600080fd5b505af1158015611302573d6000803e3d6000fd5b50505050816001600160a01b0316846001600160a01b03167f7d7d06fee8f280e47a7b6a0548f6dffbe5df52f1c1eb012a0d6a41f4a0f350c98560405161134b91815260200190565b60405180910390a350505050565b60007f00000000000000000000000000000000000000000000000000000000000000006001600160a01b0316639a9dbb996040518163ffffffff1660e01b8152600401602060405180830381865afa1580156113b9573d6000803e3d6000fd5b505050506040513d601f19601f820116820180604052508101906113dd919061230a565b90506001600160a01b03811663dee1f0e4336040516001600160e01b031960e084901b1681526001600160a01b039091166004820152602401602060405180830381865afa158015611433573d6000803e3d6000fd5b505050506040513d601f19601f820116820180604052508101906114579190612327565b6114735760405162461bcd60e51b81526004016104c190612344565b604051637921219560e11b81523060048201526001600160a01b038681166024830152604482018590526064820184905260a06084830152600160a4830152600360fc1b60c483015285169063f242432a9060e401600060405180830381600087803b1580156114e257600080fd5b505af11580156114f6573d6000803e3d6000fd5b505060408051868152602081018690526001600160a01b03808a169450881692507ffb5471fdf60f5b676c3aab864f67d0be1f974c75f74cff7675295cfb339f9940910160405180910390a35050505050565b60007f00000000000000000000000000000000000000000000000000000000000000006001600160a01b0316639a9dbb996040518163ffffffff1660e01b8152600401602060405180830381865afa1580156115a9573d6000803e3d6000fd5b505050506040513d601f19601f820116820180604052508101906115cd919061230a565b90506001600160a01b03811663dee1f0e4336040516001600160e01b031960e084901b1681526001600160a01b039091166004820152602401602060405180830381865afa158015611623573d6000803e3d6000fd5b505050506040513d601f19601f820116820180604052508101906116479190612327565b6116635760405162461bcd60e51b81526004016104c190612344565b6116776001600160a01b0385168484611a32565b7f310e19bf1a884e11fd3bc62d238aadd7a5ba195e15a27b0888ec93407af3e39984848460405161055f9392919061237b565b6000846001600160a01b0316336001600160a01b03167f0d6928670f3243a6a17ef2c8e072419b0240bb3867270781e7a392cfb48cfd0686866040516116f1929190612527565b60405180910390a35063bc197c8160e01b95945050505050565b60007f00000000000000000000000000000000000000000000000000000000000000006001600160a01b0316639a9dbb996040518163ffffffff1660e01b8152600401602060405180830381865afa15801561176b573d6000803e3d6000fd5b505050506040513d601f19601f8201168201806040525081019061178f919061230a565b90506001600160a01b03811663dee1f0e4336040516001600160e01b031960e084901b1681526001600160a01b039091166004820152602401602060405180830381865afa1580156117e5573d6000803e3d6000fd5b505050506040513d601f19601f820116820180604052508101906118099190612327565b6118255760405162461bcd60e51b81526004016104c190612344565b7f00000000000000000000000000000000000000000000000000000000000000006001600160a01b031663d0e30db0836040518263ffffffff1660e01b81526004016000604051808303818588803b15801561188057600080fd5b505af1158015611894573d6000803e3d6000fd5b50505050507fd89c7e59a2afe2827218536e72fef5c8925cce451ae58f27fb8394f9b267cb18826040516118ca91815260200190565b60405180910390a15050565b60408051848152602081018490526000916001600160a01b0387169133917fbbbe3754d41a9a88a068bdc1983426fa46ac272e729253f77bdb30956c951e4a910160405180910390a35063f23a6e6160e01b95945050505050565b6000826001600160a01b03168260405160006040518083038185875af1925050503d806000811461197e576040519150601f19603f3d011682016040523d82523d6000602084013e611983565b606091505b50509050806119ca5760405162461bcd60e51b815260206004820152601360248201527211551217d514905394d1915497d19052531151606a1b60448201526064016104c1565b505050565b6040516001600160a01b0383166024820152604481018290526119ca90849063a9059cbb60e01b906064015b60408051601f198184030181529190526020810180516001600160e01b03166001600160e01b031990931692909217909152611b47565b801580611aac5750604051636eb1769f60e11b81523060048201526001600160a01b03838116602483015284169063dd62ed3e90604401602060405180830381865afa158015611a86573d6000803e3d6000fd5b505050506040513d601f19601f82011682018060405250810190611aaa9190612555565b155b611b175760405162461bcd60e51b815260206004820152603660248201527f5361666545524332303a20617070726f76652066726f6d206e6f6e2d7a65726f60448201527520746f206e6f6e2d7a65726f20616c6c6f77616e636560501b60648201526084016104c1565b6040516001600160a01b0383166024820152604481018290526119ca90849063095ea7b360e01b906064016119fb565b6000611b9c826040518060400160405280602081526020017f5361666545524332303a206c6f772d6c6576656c2063616c6c206661696c6564815250856001600160a01b0316611c199092919063ffffffff16565b8051909150156119ca5780806020019051810190611bba9190612327565b6119ca5760405162461bcd60e51b815260206004820152602a60248201527f5361666545524332303a204552433230206f7065726174696f6e20646964206e6044820152691bdd081cdd58d8d9595960b21b60648201526084016104c1565b6060611c288484600085611c32565b90505b9392505050565b606082471015611c935760405162461bcd60e51b815260206004820152602660248201527f416464726573733a20696e73756666696369656e742062616c616e636520666f6044820152651c8818d85b1b60d21b60648201526084016104c1565b843b611ce15760405162461bcd60e51b815260206004820152601d60248201527f416464726573733a2063616c6c20746f206e6f6e2d636f6e747261637400000060448201526064016104c1565b600080866001600160a01b03168587604051611cfd919061259e565b60006040518083038185875af1925050503d8060008114611d3a576040519150601f19603f3d011682016040523d82523d6000602084013e611d3f565b606091505b5091509150611d4f828286611d5a565b979650505050505050565b60608315611d69575081611c2b565b825115611d795782518084602001fd5b8160405162461bcd60e51b81526004016104c191906125ba565b6001600160a01b0381168114611da857600080fd5b50565b600080600060608486031215611dc057600080fd5b8335611dcb81611d93565b92506020840135611ddb81611d93565b929592945050506040919091013590565b600060208284031215611dfe57600080fd5b81356001600160e01b031981168114611c2b57600080fd5b634e487b7160e01b600052604160045260246000fd5b604051601f8201601f1916810167ffffffffffffffff81118282101715611e5557611e55611e16565b604052919050565b600082601f830112611e6e57600080fd5b813567ffffffffffffffff811115611e8857611e88611e16565b611e9b601f8201601f1916602001611e2c565b818152846020838601011115611eb057600080fd5b816020850160208301376000918101602001919091529392505050565b60008060008060808587031215611ee357600080fd5b8435611eee81611d93565b93506020850135611efe81611d93565b925060408501359150606085013567ffffffffffffffff811115611f2157600080fd5b611f2d87828801611e5d565b91505092959194509250565b60008060408385031215611f4c57600080fd5b823591506020830135611f5e81611d93565b809150509250929050565b8015158114611da857600080fd5b600080600060608486031215611f8c57600080fd5b8335611f9781611d93565b92506020840135611fa781611d93565b91506040840135611fb781611f69565b809150509250925092565b60008083601f840112611fd457600080fd5b50813567ffffffffffffffff811115611fec57600080fd5b6020830191508360208260051b850101111561200757600080fd5b9250929050565b60008060008060008060006080888a03121561202957600080fd5b873561203481611d93565b9650602088013567ffffffffffffffff8082111561205157600080fd5b61205d8b838c01611fc2565b909850965060408a013591508082111561207657600080fd5b6120828b838c01611fc2565b909650945060608a013591508082111561209b57600080fd5b818a0191508a601f8301126120af57600080fd5b8135818111156120be57600080fd5b8b60208285010111156120d057600080fd5b60208301945080935050505092959891949750929550565b6000806000606084860312156120fd57600080fd5b833561210881611d93565b9250602084013591506040840135611fb781611d93565b6000806000806080858703121561213557600080fd5b843561214081611d93565b9350602085013561215081611d93565b93969395505050506040820135916060013590565b600082601f83011261217657600080fd5b8135602067ffffffffffffffff82111561219257612192611e16565b8160051b6121a1828201611e2c565b92835284810182019282810190878511156121bb57600080fd5b83870192505b84831015611d4f578235825291830191908301906121c1565b600080600080600060a086880312156121f257600080fd5b85356121fd81611d93565b9450602086013561220d81611d93565b9350604086013567ffffffffffffffff8082111561222a57600080fd5b61223689838a01612165565b9450606088013591508082111561224c57600080fd5b61225889838a01612165565b9350608088013591508082111561226e57600080fd5b5061227b88828901611e5d565b9150509295509295909350565b60006020828403121561229a57600080fd5b5035919050565b600080600080600060a086880312156122b957600080fd5b85356122c481611d93565b945060208601356122d481611d93565b93506040860135925060608601359150608086013567ffffffffffffffff8111156122fe57600080fd5b61227b88828901611e5d565b60006020828403121561231c57600080fd5b8151611c2b81611d93565b60006020828403121561233957600080fd5b8151611c2b81611f69565b6020808252601c908201527f41434c5f4f4e4c595f474f5645524e414e43455f43414e5f43414c4c00000000604082015260600190565b6001600160a01b039384168152919092166020820152604081019190915260600190565b634e487b7160e01b600052603260045260246000fd5b6000602082840312156123c757600080fd5b8135611c2b81611d93565b60006000198214156123f457634e487b7160e01b600052601160045260246000fd5b5060010190565b81835281816020850137506000828201602090810191909152601f909101601f19169091010190565b60a0808252810188905260008960c08301825b8b81101561246757823561244a81611d93565b6001600160a01b0316825260209283019290910190600101612437565b5083810360208501528881526001600160fb1b0389111561248757600080fd5b8860051b9150818a602083013781810191505060208101600081526124b760408501896001600160a01b03169052565b6001600160a01b038716606085015260208483030160808501526124dc8186886123fb565b9c9b505050505050505050505050565b600081518084526020808501945080840160005b8381101561251c57815187529582019590820190600101612500565b509495945050505050565b60408152600061253a60408301856124ec565b828103602084015261254c81856124ec565b95945050505050565b60006020828403121561256757600080fd5b5051919050565b60005b83811015612589578181015183820152602001612571565b83811115612598576000848401525b50505050565b600082516125b081846020870161256e565b9190910192915050565b60208152600082518060208401526125d981604085016020870161256e565b601f01601f1916919091016040019291505056fea264697066735822122085ac0a7d4762b4d5e20b6bd30269f922288624b7dd207cbfe96052935e39698564736f6c634300080a0033",
  "devdoc": {
    "author": "OpenSky Labs",
    "kind": "dev",
    "methods": {},
    "title": "OpenSkyDaoVault contract",
    "version": 1
  },
  "userdoc": {
    "kind": "user",
    "methods": {},
    "notice": "Implementation of vault for OpenSky Dao*",
    "version": 1
  },
  "storageLayout": {
    "storage": [
      {
        "astId": 1379,
        "contract": "contracts/vault/OpenSkyDaoVault.sol:OpenSkyDaoVault",
        "label": "_status",
        "offset": 0,
        "slot": "0",
        "type": "t_uint256"
      }
    ],
    "types": {
      "t_uint256": {
        "encoding": "inplace",
        "label": "uint256",
        "numberOfBytes": "32"
      }
    }
  }
}