{
  "address": "0xd2408585126eA2D61556F98ab14893D8B4B58242",
  "abi": [
    {
      "inputs": [
        {
          "internalType": "contract IWETH",
          "name": "weth",
          "type": "address"
        },
        {
          "internalType": "contract IOpenSkySettings",
          "name": "settings",
          "type": "address"
        }
      ],
      "stateMutability": "nonpayable",
      "type": "constructor"
    },
    {
      "anonymous": false,
      "inputs": [
        {
          "indexed": true,
          "internalType": "address",
          "name": "sender",
          "type": "address"
        },
        {
          "indexed": true,
          "internalType": "address",
          "name": "nftAddress",
          "type": "address"
        },
        {
          "indexed": true,
          "internalType": "uint256",
          "name": "tokenId",
          "type": "uint256"
        }
      ],
      "name": "ClaimNFT",
      "type": "event"
    },
    {
      "anonymous": false,
      "inputs": [
        {
          "indexed": true,
          "internalType": "address",
          "name": "sender",
          "type": "address"
        },
        {
          "indexed": true,
          "internalType": "address",
          "name": "delegator",
          "type": "address"
        },
        {
          "indexed": true,
          "internalType": "uint256",
          "name": "loanId",
          "type": "uint256"
        }
      ],
      "name": "Delegate",
      "type": "event"
    },
    {
      "anonymous": false,
      "inputs": [
        {
          "indexed": true,
          "internalType": "address",
          "name": "sender",
          "type": "address"
        },
        {
          "indexed": true,
          "internalType": "uint256",
          "name": "loanId",
          "type": "uint256"
        },
        {
          "indexed": true,
          "internalType": "address",
          "name": "underlyingAsset",
          "type": "address"
        },
        {
          "indexed": false,
          "internalType": "uint256",
          "name": "amount",
          "type": "uint256"
        },
        {
          "indexed": false,
          "internalType": "uint256",
          "name": "duration",
          "type": "uint256"
        }
      ],
      "name": "Extend",
      "type": "event"
    },
    {
      "anonymous": false,
      "inputs": [
        {
          "indexed": true,
          "internalType": "address",
          "name": "sender",
          "type": "address"
        },
        {
          "indexed": true,
          "internalType": "uint256",
          "name": "loanId",
          "type": "uint256"
        },
        {
          "indexed": false,
          "internalType": "uint256",
          "name": "amount",
          "type": "uint256"
        },
        {
          "indexed": false,
          "internalType": "uint256",
          "name": "duration",
          "type": "uint256"
        }
      ],
      "name": "ExtendETH",
      "type": "event"
    },
    {
      "anonymous": false,
      "inputs": [
        {
          "indexed": true,
          "internalType": "address",
          "name": "sender",
          "type": "address"
        },
        {
          "indexed": false,
          "internalType": "uint256",
          "name": "amount",
          "type": "uint256"
        }
      ],
      "name": "Received",
      "type": "event"
    },
    {
      "anonymous": false,
      "inputs": [
        {
          "indexed": true,
          "internalType": "address",
          "name": "sender",
          "type": "address"
        },
        {
          "indexed": true,
          "internalType": "uint256",
          "name": "loanId",
          "type": "uint256"
        },
        {
          "indexed": true,
          "internalType": "address",
          "name": "underlyingAsset",
          "type": "address"
        },
        {
          "indexed": false,
          "internalType": "uint256",
          "name": "amount",
          "type": "uint256"
        }
      ],
      "name": "Repay",
      "type": "event"
    },
    {
      "anonymous": false,
      "inputs": [
        {
          "indexed": true,
          "internalType": "address",
          "name": "sender",
          "type": "address"
        },
        {
          "indexed": true,
          "internalType": "uint256",
          "name": "loanId",
          "type": "uint256"
        },
        {
          "indexed": false,
          "internalType": "uint256",
          "name": "amount",
          "type": "uint256"
        }
      ],
      "name": "RepayETH",
      "type": "event"
    },
    {
      "anonymous": false,
      "inputs": [
        {
          "indexed": true,
          "internalType": "address",
          "name": "sender",
          "type": "address"
        },
        {
          "indexed": true,
          "internalType": "address",
          "name": "delegator",
          "type": "address"
        },
        {
          "indexed": false,
          "internalType": "bool",
          "name": "isDelegated",
          "type": "bool"
        }
      ],
      "name": "SetDelegatorForAll",
      "type": "event"
    },
    {
      "inputs": [],
      "name": "SETTINGS",
      "outputs": [
        {
          "internalType": "contract IOpenSkySettings",
          "name": "",
          "type": "address"
        }
      ],
      "stateMutability": "view",
      "type": "function"
    },
    {
      "inputs": [],
      "name": "WETH",
      "outputs": [
        {
          "internalType": "contract IWETH",
          "name": "",
          "type": "address"
        }
      ],
      "stateMutability": "view",
      "type": "function"
    },
    {
      "inputs": [
        {
          "internalType": "address",
          "name": "nftAddress",
          "type": "address"
        },
        {
          "internalType": "uint256",
          "name": "tokenId",
          "type": "uint256"
        }
      ],
      "name": "claimNFT",
      "outputs": [],
      "stateMutability": "nonpayable",
      "type": "function"
    },
    {
      "inputs": [
        {
          "internalType": "address",
          "name": "delegator",
          "type": "address"
        },
        {
          "internalType": "uint256",
          "name": "loanId",
          "type": "uint256"
        }
      ],
      "name": "delegate",
      "outputs": [],
      "stateMutability": "nonpayable",
      "type": "function"
    },
    {
      "inputs": [
        {
          "internalType": "address",
          "name": "",
          "type": "address"
        },
        {
          "internalType": "address",
          "name": "",
          "type": "address"
        },
        {
          "internalType": "uint256",
          "name": "",
          "type": "uint256"
        }
      ],
      "name": "delegators",
      "outputs": [
        {
          "internalType": "address",
          "name": "",
          "type": "address"
        }
      ],
      "stateMutability": "view",
      "type": "function"
    },
    {
      "inputs": [
        {
          "internalType": "uint256",
          "name": "loanId",
          "type": "uint256"
        },
        {
          "internalType": "uint256",
          "name": "extendAmount",
          "type": "uint256"
        },
        {
          "internalType": "uint256",
          "name": "duration",
          "type": "uint256"
        },
        {
          "internalType": "uint256",
          "name": "amount",
          "type": "uint256"
        }
      ],
      "name": "extend",
      "outputs": [],
      "stateMutability": "nonpayable",
      "type": "function"
    },
    {
      "inputs": [
        {
          "internalType": "uint256",
          "name": "loanId",
          "type": "uint256"
        },
        {
          "internalType": "uint256",
          "name": "amount",
          "type": "uint256"
        },
        {
          "internalType": "uint256",
          "name": "duration",
          "type": "uint256"
        }
      ],
      "name": "extendETH",
      "outputs": [],
      "stateMutability": "payable",
      "type": "function"
    },
    {
      "inputs": [
        {
          "internalType": "address",
          "name": "owner",
          "type": "address"
        },
        {
          "internalType": "address",
          "name": "nftAddress",
          "type": "address"
        },
        {
          "internalType": "uint256",
          "name": "tokenId",
          "type": "uint256"
        }
      ],
      "name": "getDelegator",
      "outputs": [
        {
          "internalType": "address",
          "name": "",
          "type": "address"
        }
      ],
      "stateMutability": "view",
      "type": "function"
    },
    {
      "inputs": [
        {
          "internalType": "address",
          "name": "nftAddress",
          "type": "address"
        },
        {
          "internalType": "uint256",
          "name": "tokenId",
          "type": "uint256"
        }
      ],
      "name": "getLoanOwner",
      "outputs": [
        {
          "internalType": "address",
          "name": "",
          "type": "address"
        }
      ],
      "stateMutability": "view",
      "type": "function"
    },
    {
      "inputs": [
        {
          "internalType": "address",
          "name": "owner",
          "type": "address"
        },
        {
          "internalType": "address",
          "name": "delegator",
          "type": "address"
        }
      ],
      "name": "isDelegatorForAll",
      "outputs": [
        {
          "internalType": "bool",
          "name": "",
          "type": "bool"
        }
      ],
      "stateMutability": "view",
      "type": "function"
    },
    {
      "inputs": [
        {
          "internalType": "address",
          "name": "",
          "type": "address"
        },
        {
          "internalType": "uint256",
          "name": "",
          "type": "uint256"
        }
      ],
      "name": "loanOwners",
      "outputs": [
        {
          "internalType": "address",
          "name": "",
          "type": "address"
        }
      ],
      "stateMutability": "view",
      "type": "function"
    },
    {
      "inputs": [
        {
          "internalType": "address",
          "name": "",
          "type": "address"
        },
        {
          "internalType": "address",
          "name": "",
          "type": "address"
        },
        {
          "internalType": "uint256",
          "name": "",
          "type": "uint256"
        },
        {
          "internalType": "bytes",
          "name": "",
          "type": "bytes"
        }
      ],
      "name": "onERC721Received",
      "outputs": [
        {
          "internalType": "bytes4",
          "name": "",
          "type": "bytes4"
        }
      ],
      "stateMutability": "nonpayable",
      "type": "function"
    },
    {
      "inputs": [
        {
          "internalType": "address",
          "name": "",
          "type": "address"
        },
        {
          "internalType": "address",
          "name": "",
          "type": "address"
        }
      ],
      "name": "ownerDelegators",
      "outputs": [
        {
          "internalType": "bool",
          "name": "",
          "type": "bool"
        }
      ],
      "stateMutability": "view",
      "type": "function"
    },
    {
      "inputs": [
        {
          "internalType": "uint256",
          "name": "loanId",
          "type": "uint256"
        },
        {
          "internalType": "uint256",
          "name": "amount",
          "type": "uint256"
        }
      ],
      "name": "repay",
      "outputs": [],
      "stateMutability": "nonpayable",
      "type": "function"
    },
    {
      "inputs": [
        {
          "internalType": "uint256",
          "name": "loanId",
          "type": "uint256"
        }
      ],
      "name": "repayETH",
      "outputs": [],
      "stateMutability": "payable",
      "type": "function"
    },
    {
      "inputs": [
        {
          "internalType": "address",
          "name": "delegator",
          "type": "address"
        },
        {
          "internalType": "bool",
          "name": "isDelegated",
          "type": "bool"
        }
      ],
      "name": "setDelegatorForAll",
      "outputs": [],
      "stateMutability": "nonpayable",
      "type": "function"
    },
    {
      "stateMutability": "payable",
      "type": "receive"
    }
  ],
  "transactionHash": "0xce486fecf07bc6095b21a44c29e0d710023579eff77bed48e3966d59fe76b9f2",
  "args": [
    "0x0d500b1d8e8ef31e21c99d1db9a6444d3adf1270",
    "0x3278e9b9E69C15ee013C0a0ad56845F9Dff68878"
  ],
  "solcInputHash": "9995a8907bcd55f7779c3cbaaa50834c",
  "bytecode": "0x60806040523480156200001157600080fd5b5060405162002c1d38038062002c1d83398101604081905262000034916200007f565b600080546001600160a01b039384166001600160a01b03199182161790915560018054929093169116179055620000be565b6001600160a01b03811681146200007c57600080fd5b50565b600080604083850312156200009357600080fd5b8251620000a08162000066565b6020840151909250620000b38162000066565b809150509250929050565b612b4f80620000ce6000396000f3fe6080604052600436106100f75760003560e01c806371b5458f1161008a578063bfe6fe6911610059578063bfe6fe691461038a578063d88b2f49146103d1578063d8aed14514610412578063dc0b560e1461043257600080fd5b806371b5458f146102ff57806374c289d614610312578063ad5c46481461034a578063ade97ab51461036a57600080fd5b80632247463e116100c65780632247463e1461023857806333a10cc11461024b5780635ea83ac21461026b57806361c42b53146102b657600080fd5b8063026e402b1461018d5780630801ad26146101af57806312ce1ced146101cf578063150b7a02146101ef57600080fd5b36610188576000546001600160a01b031633146101515760405162461bcd60e51b8152602060048201526013602482015272149150d152559157d393d517d0531313d5d151606a1b60448201526064015b60405180910390fd5b60405134815233907f88a5966d370b9919b20f3e2c13ff65706f196a4e32cc2c12bf57088f885258749060200160405180910390a2005b600080fd5b34801561019957600080fd5b506101ad6101a83660046124bb565b610452565b005b3480156101bb57600080fd5b506101ad6101ca3660046124e7565b6104b5565b3480156101db57600080fd5b506101ad6101ea366004612527565b610914565b3480156101fb57600080fd5b5061021a61020a3660046125f5565b630a85bd0160e11b949350505050565b6040516001600160e01b031990911681526020015b60405180910390f35b6101ad6102463660046126b9565b6109ce565b34801561025757600080fd5b506101ad6102663660046124bb565b610f24565b34801561027757600080fd5b506102a66102863660046126d2565b600460209081526000928352604080842090915290825290205460ff1681565b604051901515815260200161022f565b3480156102c257600080fd5b506102a66102d13660046126d2565b6001600160a01b03918216600090815260046020908152604080832093909416825291909152205460ff1690565b6101ad61030d366004612700565b611045565b34801561031e57600080fd5b5061033261032d36600461272c565b611538565b6040516001600160a01b03909116815260200161022f565b34801561035657600080fd5b50600054610332906001600160a01b031681565b34801561037657600080fd5b50600154610332906001600160a01b031681565b34801561039657600080fd5b506103326103a536600461272c565b60026020908152600093845260408085208252928452828420905282529020546001600160a01b031681565b3480156103dd57600080fd5b506103326103ec3660046124bb565b60036020908152600092835260408084209091529082529020546001600160a01b031681565b34801561041e57600080fd5b506101ad61042d36600461276d565b611570565b34801561043e57600080fd5b5061033261044d3660046124bb565b611ab6565b6001600160a01b038216156104705761046b8282611ade565b610479565b61047981611e3e565b60405181906001600160a01b0384169033907f510b11bb3f3c799b11307c01ab7db0d335683ef5b2da98f7697de744f465eacc90600090a45050565b60015460408051631ade434560e11b815290516000926001600160a01b0316916335bc868a9160048083019260209291908290030181865afa1580156104ff573d6000803e3d6000fd5b505050506040513d601f19601f82011682018060405250810190610523919061279f565b60405163622fe39f60e01b8152600481018790529091506000906001600160a01b0383169063622fe39f906024016101c060405180830381865afa15801561056f573d6000803e3d6000fd5b505050506040513d601f19601f820116820180604052508101906105939190612800565b90506105a83382602001518360400151612048565b6105c45760405162461bcd60e51b8152600401610148906128fb565b60015460408051631755ff2160e01b815290516000926001600160a01b031691631755ff219160048083019260209291908290030181865afa15801561060e573d6000803e3d6000fd5b505050506040513d601f19601f82011682018060405250810190610632919061279f565b82516040516391541e0560e01b815260048101919091529091506000906001600160a01b038316906391541e059060240161018060405180830381865afa158015610681573d6000803e3d6000fd5b505050506040513d601f19601f820116820180604052508101906106a5919061293d565b905084156107c45760208101516106c7906001600160a01b03163330886120cb565b80602001516001600160a01b031663095ea7b3600160009054906101000a90046001600160a01b03166001600160a01b0316631755ff216040518163ffffffff1660e01b8152600401602060405180830381865afa15801561072d573d6000803e3d6000fd5b505050506040513d601f19601f82011682018060405250810190610751919061279f565b6040516001600160e01b031960e084901b1681526001600160a01b039091166004820152602481018890526044016020604051808303816000875af115801561079e573d6000803e3d6000fd5b505050506040513d601f19601f820116820180604052508101906107c291906129fb565b505b6040516333889f7b60e11b815260048101899052602481018890526044810187905230606482015260009081906001600160a01b038516906367113ef69060840160408051808303816000875af1158015610823573d6000803e3d6000fd5b505050506040513d601f19601f820116820180604052508101906108479190612a18565b915091508187111561087d57600061085f8389612a3c565b602085015190915061087b906001600160a01b03163383612129565b505b80156108ad576108ad61089886602001518760400151611ab6565b60208501516001600160a01b03169083612129565b82602001516001600160a01b03168a336001600160a01b03167f37124af7165421ab05693953cb6648e87ed0941a9f90f1e4c6df248e57ea605d8a8c604051610900929190918252602082015260400190565b60405180910390a450505050505050505050565b6001600160a01b0382163314156109625760405162461bcd60e51b81526020600482015260126024820152712222a622a3a0aa22afaa27afa1a0a62622a960711b6044820152606401610148565b3360008181526004602090815260408083206001600160a01b03871680855290835292819020805460ff191686151590811790915590519081529192917f9eeac096f7ed24d90ef1cf4c980695aca0f75a5fee0e5785f65ac8eeddb31a52910160405180910390a35050565b60015460408051631ade434560e11b815290516000926001600160a01b0316916335bc868a9160048083019260209291908290030181865afa158015610a18573d6000803e3d6000fd5b505050506040513d601f19601f82011682018060405250810190610a3c919061279f565b6001600160a01b031663622fe39f836040518263ffffffff1660e01b8152600401610a6991815260200190565b6101c060405180830381865afa158015610a87573d6000803e3d6000fd5b505050506040513d601f19601f82011682018060405250810190610aab9190612800565b9050610abf8160200151826040015161215e565b610afa5760405162461bcd60e51b815260206004820152600c60248201526b2727afa222a622a3a0aa27a960a11b6044820152606401610148565b60008054906101000a90046001600160a01b03166001600160a01b031663d0e30db0346040518263ffffffff1660e01b81526004016000604051808303818588803b158015610b4857600080fd5b505af1158015610b5c573d6000803e3d6000fd5b50505050506000600160009054906101000a90046001600160a01b03166001600160a01b0316631755ff216040518163ffffffff1660e01b8152600401602060405180830381865afa158015610bb6573d6000803e3d6000fd5b505050506040513d601f19601f82011682018060405250810190610bda919061279f565b60005460015460408051631755ff2160e01b815290519394506001600160a01b039283169363095ea7b39390921691631755ff21916004808201926020929091908290030181865afa158015610c34573d6000803e3d6000fd5b505050506040513d601f19601f82011682018060405250810190610c58919061279f565b6040516001600160e01b031960e084901b1681526001600160a01b0390911660048201523460248201526044016020604051808303816000875af1158015610ca4573d6000803e3d6000fd5b505050506040513d601f19601f82011682018060405250810190610cc891906129fb565b50604051631b8fec7360e11b8152600481018490526000906001600160a01b0383169063371fd8e6906024016020604051808303816000875af1158015610d13573d6000803e3d6000fd5b505050506040513d601f19601f82011682018060405250810190610d379190612a61565b905080341015610d815760405162461bcd60e51b81526020600482015260156024820152742922a820acafa6a9a3afab20a62aa2afa2a92927a960591b6044820152606401610148565b6000610d9584602001518560400151611ab6565b905083602001516001600160a01b03166342842e0e308387604001516040518463ffffffff1660e01b8152600401610dcf93929190612a7a565b600060405180830381600087803b158015610de957600080fd5b505af1158015610dfd573d6000803e3d6000fd5b5050505081341115610e80576000610e158334612a3c565b600054604051632e1a7d4d60e01b8152600481018390529192506001600160a01b031690632e1a7d4d90602401600060405180830381600087803b158015610e5c57600080fd5b505af1158015610e70573d6000803e3d6000fd5b50505050610e7e33826121a6565b505b6001600160a01b0381811660009081526002602090815260408083208883018051861685529083528184208983018051865290845282852080546001600160a01b031990811690915591519095168452600383528184209451845293825291829020805490931690925551838152869133917f8a3b4b3512c2c0435b92830e2568c046bdea43bc1a41308cf9728fac0e1bcd54910160405180910390a35050505050565b610f2f338383612048565b610f4b5760405162461bcd60e51b8152600401610148906128fb565b6000610f578383611ab6565b604051632142170760e11b81529091506001600160a01b038416906342842e0e90610f8a90309085908790600401612a7a565b600060405180830381600087803b158015610fa457600080fd5b505af1158015610fb8573d6000803e3d6000fd5b5050506001600160a01b038083166000908152600260209081526040808320938816808452938252808320878452825280832080546001600160a01b03199081169091558484526003835281842088855290925280832080549092169091555185935033917f040389a73767c5f67f650d528d0035127f2e7464d82519881f3af541d2f5ce5c91a4505050565b60015460408051631ade434560e11b815290516000926001600160a01b0316916335bc868a9160048083019260209291908290030181865afa15801561108f573d6000803e3d6000fd5b505050506040513d601f19601f820116820180604052508101906110b3919061279f565b60405163622fe39f60e01b8152600481018690529091506000906001600160a01b0383169063622fe39f906024016101c060405180830381865afa1580156110ff573d6000803e3d6000fd5b505050506040513d601f19601f820116820180604052508101906111239190612800565b90506111383382602001518360400151612048565b6111545760405162461bcd60e51b8152600401610148906128fb565b60008054906101000a90046001600160a01b03166001600160a01b031663d0e30db0346040518263ffffffff1660e01b81526004016000604051808303818588803b1580156111a257600080fd5b505af11580156111b6573d6000803e3d6000fd5b50505050506000600160009054906101000a90046001600160a01b03166001600160a01b0316631755ff216040518163ffffffff1660e01b8152600401602060405180830381865afa158015611210573d6000803e3d6000fd5b505050506040513d601f19601f82011682018060405250810190611234919061279f565b60005460015460408051631755ff2160e01b815290519394506001600160a01b039283169363095ea7b39390921691631755ff21916004808201926020929091908290030181865afa15801561128e573d6000803e3d6000fd5b505050506040513d601f19601f820116820180604052508101906112b2919061279f565b6040516001600160e01b031960e084901b1681526001600160a01b0390911660048201523460248201526044016020604051808303816000875af11580156112fe573d6000803e3d6000fd5b505050506040513d601f19601f8201168201806040525081019061132291906129fb565b506040516333889f7b60e11b815260048101879052602481018690526044810185905230606482015260009081906001600160a01b038416906367113ef69060840160408051808303816000875af1158015611382573d6000803e3d6000fd5b505050506040513d601f19601f820116820180604052508101906113a69190612a18565b91509150813410156113f35760405162461bcd60e51b815260206004820152601660248201527522ac2a22a7222fa6a9a3afab20a62aa2afa2a92927a960511b6044820152606401610148565b813411156114725760006114078334612a3c565b600054604051632e1a7d4d60e01b8152600481018390529192506001600160a01b031690632e1a7d4d90602401600060405180830381600087803b15801561144e57600080fd5b505af1158015611462573d6000803e3d6000fd5b5050505061147033826121a6565b505b80156114f157600054604051632e1a7d4d60e01b8152600481018390526001600160a01b0390911690632e1a7d4d90602401600060405180830381600087803b1580156114be57600080fd5b505af11580156114d2573d6000803e3d6000fd5b505050506114f16114eb85602001518660400151611ab6565b826121a6565b6040805188815260208101889052899133917f1f3058b483041d4b752f855afd407c12c68dc9b910fbd9937836e3e3791204ea910160405180910390a35050505050505050565b6001600160a01b03808416600090815260026020908152604080832086851684528252808320858452909152902054165b9392505050565b60015460408051631ade434560e11b815290516000926001600160a01b0316916335bc868a9160048083019260209291908290030181865afa1580156115ba573d6000803e3d6000fd5b505050506040513d601f19601f820116820180604052508101906115de919061279f565b60405163622fe39f60e01b8152600481018590529091506000906001600160a01b0383169063622fe39f906024016101c060405180830381865afa15801561162a573d6000803e3d6000fd5b505050506040513d601f19601f8201168201806040525081019061164e9190612800565b90506116628160200151826040015161215e565b61169d5760405162461bcd60e51b815260206004820152600c60248201526b2727afa222a622a3a0aa27a960a11b6044820152606401610148565b60015460408051631755ff2160e01b815290516000926001600160a01b031691631755ff219160048083019260209291908290030181865afa1580156116e7573d6000803e3d6000fd5b505050506040513d601f19601f8201168201806040525081019061170b919061279f565b82516040516391541e0560e01b815260048101919091529091506000906001600160a01b038316906391541e059060240161018060405180830381865afa15801561175a573d6000803e3d6000fd5b505050506040513d601f19601f8201168201806040525081019061177e919061293d565b602081015190915061179b906001600160a01b03163330886120cb565b80602001516001600160a01b031663095ea7b3600160009054906101000a90046001600160a01b03166001600160a01b0316631755ff216040518163ffffffff1660e01b8152600401602060405180830381865afa158015611801573d6000803e3d6000fd5b505050506040513d601f19601f82011682018060405250810190611825919061279f565b6040516001600160e01b031960e084901b1681526001600160a01b039091166004820152602481018890526044016020604051808303816000875af1158015611872573d6000803e3d6000fd5b505050506040513d601f19601f8201168201806040525081019061189691906129fb565b50604051631b8fec7360e11b8152600481018790526000906001600160a01b0384169063371fd8e6906024016020604051808303816000875af11580156118e1573d6000803e3d6000fd5b505050506040513d601f19601f820116820180604052508101906119059190612a61565b90508086101561194f5760405162461bcd60e51b81526020600482015260156024820152742922a820acafa6a9a3afab20a62aa2afa2a92927a960591b6044820152606401610148565b600061196385602001518660400151611ab6565b905084602001516001600160a01b03166342842e0e308388604001516040518463ffffffff1660e01b815260040161199d93929190612a7a565b600060405180830381600087803b1580156119b757600080fd5b505af11580156119cb573d6000803e3d6000fd5b5050505081871115611a015760006119e38389612a3c565b60208501519091506119ff906001600160a01b03163383612129565b505b6001600160a01b0380821660009081526002602090815260408083208983018051861685529083528184208a83018051865290845282852080546001600160a01b0319908116909155915186168552600384528285209051855283529281902080549093169092558501519051911690899033907fd7aefa450d0471f7802f5602587523a1c9eb42f752cf525eab3ace085597e47590611aa49087815260200190565b60405180910390a45050505050505050565b6001600160a01b03918216600090815260036020908152604080832093835292905220541690565b60015460408051631ade434560e11b815290516000926001600160a01b0316916335bc868a9160048083019260209291908290030181865afa158015611b28573d6000803e3d6000fd5b505050506040513d601f19601f82011682018060405250810190611b4c919061279f565b60405163622fe39f60e01b8152600481018490529091506000906001600160a01b0383169063622fe39f906024016101c060405180830381865afa158015611b98573d6000803e3d6000fd5b505050506040513d601f19601f82011682018060405250810190611bbc9190612800565b6040516331a9108f60e11b81526004810185905290915033906001600160a01b03841690636352211e90602401602060405180830381865afa158015611c06573d6000803e3d6000fd5b505050506040513d601f19601f82011682018060405250810190611c2a919061279f565b6001600160a01b03161480611c615750336001600160a01b0316611c5682602001518360400151611ab6565b6001600160a01b0316145b611c9a5760405162461bcd60e51b815260206004820152600a60248201526927a7262cafa7aba722a960b11b6044820152606401610148565b6020808201516001600160a01b03908116600090815260038352604080822081860151835290935291909120543391168114611d12576020828101516001600160a01b0390811660009081526003835260408082208187015183529093529190912080546001600160a01b0319169183169190911790555b6040516331a9108f60e11b81526004810185905230906001600160a01b03851690636352211e90602401602060405180830381865afa158015611d59573d6000803e3d6000fd5b505050506040513d601f19601f82011682018060405250810190611d7d919061279f565b6001600160a01b031614611dee57604051632142170760e11b81526001600160a01b038416906342842e0e90611dbb90849030908990600401612a7a565b600060405180830381600087803b158015611dd557600080fd5b505af1158015611de9573d6000803e3d6000fd5b505050505b6001600160a01b03908116600090815260026020908152604080832085830151851684528252808320948101518352939052919091208054919094166001600160a01b0319909116179092555050565b60015460408051631ade434560e11b815290516000926001600160a01b0316916335bc868a9160048083019260209291908290030181865afa158015611e88573d6000803e3d6000fd5b505050506040513d601f19601f82011682018060405250810190611eac919061279f565b60405163622fe39f60e01b8152600481018490529091506000906001600160a01b0383169063622fe39f906024016101c060405180830381865afa158015611ef8573d6000803e3d6000fd5b505050506040513d601f19601f82011682018060405250810190611f1c9190612800565b90506000611f3282602001518360400151611ab6565b90506001600160a01b0381163314611f795760405162461bcd60e51b815260206004820152600a60248201526927a7262cafa7aba722a960b11b6044820152606401610148565b604051632142170760e11b81526001600160a01b038416906342842e0e90611fa990309085908990600401612a7a565b600060405180830381600087803b158015611fc357600080fd5b505af1158015611fd7573d6000803e3d6000fd5b5050506001600160a01b0391821660009081526002602090815260408083208683018051871685529083528184209682018051855296835281842080546001600160a01b03199081169091559051909516835260038252808320955183529490529290922080549091169055505050565b6000806120558484611ab6565b9050846001600160a01b0316816001600160a01b031614806120925750846001600160a01b0316612087828686611538565b6001600160a01b0316145b806120c257506001600160a01b0380821660009081526004602090815260408083209389168352929052205460ff165b95945050505050565b612123846323b872dd60e01b8585856040516024016120ec93929190612a7a565b60408051601f198184030181529190526020810180516001600160e01b03166001600160e01b031990931692909217909152612259565b50505050565b6040516001600160a01b03831660248201526044810182905261215990849063a9059cbb60e01b906064016120ec565b505050565b60008061216b8484611ab6565b6001600160a01b0390811660009081526002602090815260408083208885168452825280832087845290915290205416151591505092915050565b604080516000808252602082019092526001600160a01b0384169083906040516121d09190612aca565b60006040518083038185875af1925050503d806000811461220d576040519150601f19603f3d011682016040523d82523d6000602084013e612212565b606091505b50509050806121595760405162461bcd60e51b815260206004820152601360248201527211551217d514905394d1915497d19052531151606a1b6044820152606401610148565b60006122ae826040518060400160405280602081526020017f5361666545524332303a206c6f772d6c6576656c2063616c6c206661696c6564815250856001600160a01b031661232b9092919063ffffffff16565b80519091501561215957808060200190518101906122cc91906129fb565b6121595760405162461bcd60e51b815260206004820152602a60248201527f5361666545524332303a204552433230206f7065726174696f6e20646964206e6044820152691bdd081cdd58d8d9595960b21b6064820152608401610148565b606061233a8484600085612342565b949350505050565b6060824710156123a35760405162461bcd60e51b815260206004820152602660248201527f416464726573733a20696e73756666696369656e742062616c616e636520666f6044820152651c8818d85b1b60d21b6064820152608401610148565b843b6123f15760405162461bcd60e51b815260206004820152601d60248201527f416464726573733a2063616c6c20746f206e6f6e2d636f6e74726163740000006044820152606401610148565b600080866001600160a01b0316858760405161240d9190612aca565b60006040518083038185875af1925050503d806000811461244a576040519150601f19603f3d011682016040523d82523d6000602084013e61244f565b606091505b509150915061245f82828661246a565b979650505050505050565b60608315612479575081611569565b8251156124895782518084602001fd5b8160405162461bcd60e51b81526004016101489190612ae6565b6001600160a01b03811681146124b857600080fd5b50565b600080604083850312156124ce57600080fd5b82356124d9816124a3565b946020939093013593505050565b600080600080608085870312156124fd57600080fd5b5050823594602084013594506040840135936060013592509050565b80151581146124b857600080fd5b6000806040838503121561253a57600080fd5b8235612545816124a3565b9150602083013561255581612519565b809150509250929050565b634e487b7160e01b600052604160045260246000fd5b6040516101c0810167ffffffffffffffff8111828210171561259a5761259a612560565b60405290565b604051610180810167ffffffffffffffff8111828210171561259a5761259a612560565b604051601f8201601f1916810167ffffffffffffffff811182821017156125ed576125ed612560565b604052919050565b6000806000806080858703121561260b57600080fd5b8435612616816124a3565b9350602085810135612627816124a3565b935060408601359250606086013567ffffffffffffffff8082111561264b57600080fd5b818801915088601f83011261265f57600080fd5b81358181111561267157612671612560565b612683601f8201601f191685016125c4565b9150808252898482850101111561269957600080fd5b808484018584013760008482840101525080935050505092959194509250565b6000602082840312156126cb57600080fd5b5035919050565b600080604083850312156126e557600080fd5b82356126f0816124a3565b91506020830135612555816124a3565b60008060006060848603121561271557600080fd5b505081359360208301359350604090920135919050565b60008060006060848603121561274157600080fd5b833561274c816124a3565b9250602084013561275c816124a3565b929592945050506040919091013590565b6000806040838503121561278057600080fd5b50508035926020909101359150565b805161279a816124a3565b919050565b6000602082840312156127b157600080fd5b8151611569816124a3565b80516fffffffffffffffffffffffffffffffff8116811461279a57600080fd5b805164ffffffffff8116811461279a57600080fd5b80516006811061279a57600080fd5b60006101c0828403121561281357600080fd5b61281b612576565b8251815261282b6020840161278f565b6020820152604083015160408201526128466060840161278f565b60608201526080830151608082015261286160a084016127bc565b60a082015261287260c084016127bc565b60c082015261288360e084016127dc565b60e08201526101006128968185016127dc565b908201526101206128a88482016127dc565b908201526101406128ba8482016127dc565b908201526101606128cc8482016127dc565b908201526101806128de8482016127dc565b908201526101a06128f08482016127f1565b908201529392505050565b60208082526017908201527f4f4e4c595f4f574e45525f4f525f44454c454741544f52000000000000000000604082015260600190565b805161279a81612519565b6000610180828403121561295057600080fd5b6129586125a0565b825181526129686020840161278f565b60208201526129796040840161278f565b604082015261298a6060840161278f565b606082015261299b608084016127bc565b608082015260a083015160a082015260c083015160c08201526129c060e084016127dc565b60e082015261010083810151908201526101206129de81850161278f565b9082015261014083810151908201526101606128f0818501612932565b600060208284031215612a0d57600080fd5b815161156981612519565b60008060408385031215612a2b57600080fd5b505080516020909101519092909150565b600082821015612a5c57634e487b7160e01b600052601160045260246000fd5b500390565b600060208284031215612a7357600080fd5b5051919050565b6001600160a01b039384168152919092166020820152604081019190915260600190565b60005b83811015612ab9578181015183820152602001612aa1565b838111156121235750506000910152565b60008251612adc818460208701612a9e565b9190910192915050565b6020815260008251806020840152612b05816040850160208701612a9e565b601f01601f1916919091016040019291505056fea26469706673582212203a8d528280044d6287ff7b3454d5f31bfe214be9ced99307099af44992dd6b9264736f6c634300080a0033",
  "devdoc": {
    "kind": "dev",
    "methods": {
      "onERC721Received(address,address,uint256,bytes)": {
        "details": "See {IERC721Receiver-onERC721Received}. Always returns `IERC721Receiver.onERC721Received.selector`."
      }
    },
    "version": 1
  },
  "userdoc": {
    "kind": "user",
    "methods": {},
    "version": 1
  },
  "storageLayout": {
    "storage": [
      {
        "astId": 22655,
        "contract": "contracts/misc/OpenSkyLoanDelegator.sol:OpenSkyLoanDelegator",
        "label": "WETH",
        "offset": 0,
        "slot": "0",
        "type": "t_contract(IWETH)18150"
      },
      {
        "astId": 22658,
        "contract": "contracts/misc/OpenSkyLoanDelegator.sol:OpenSkyLoanDelegator",
        "label": "SETTINGS",
        "offset": 0,
        "slot": "1",
        "type": "t_contract(IOpenSkySettings)19868"
      },
      {
        "astId": 22666,
        "contract": "contracts/misc/OpenSkyLoanDelegator.sol:OpenSkyLoanDelegator",
        "label": "delegators",
        "offset": 0,
        "slot": "2",
        "type": "t_mapping(t_address,t_mapping(t_address,t_mapping(t_uint256,t_address)))"
      },
      {
        "astId": 22672,
        "contract": "contracts/misc/OpenSkyLoanDelegator.sol:OpenSkyLoanDelegator",
        "label": "loanOwners",
        "offset": 0,
        "slot": "3",
        "type": "t_mapping(t_address,t_mapping(t_uint256,t_address))"
      },
      {
        "astId": 22678,
        "contract": "contracts/misc/OpenSkyLoanDelegator.sol:OpenSkyLoanDelegator",
        "label": "ownerDelegators",
        "offset": 0,
        "slot": "4",
        "type": "t_mapping(t_address,t_mapping(t_address,t_bool))"
      }
    ],
    "types": {
      "t_address": {
        "encoding": "inplace",
        "label": "address",
        "numberOfBytes": "20"
      },
      "t_bool": {
        "encoding": "inplace",
        "label": "bool",
        "numberOfBytes": "1"
      },
      "t_contract(IOpenSkySettings)19868": {
        "encoding": "inplace",
        "label": "contract IOpenSkySettings",
        "numberOfBytes": "20"
      },
      "t_contract(IWETH)18150": {
        "encoding": "inplace",
        "label": "contract IWETH",
        "numberOfBytes": "20"
      },
      "t_mapping(t_address,t_bool)": {
        "encoding": "mapping",
        "key": "t_address",
        "label": "mapping(address => bool)",
        "numberOfBytes": "32",
        "value": "t_bool"
      },
      "t_mapping(t_address,t_mapping(t_address,t_bool))": {
        "encoding": "mapping",
        "key": "t_address",
        "label": "mapping(address => mapping(address => bool))",
        "numberOfBytes": "32",
        "value": "t_mapping(t_address,t_bool)"
      },
      "t_mapping(t_address,t_mapping(t_address,t_mapping(t_uint256,t_address)))": {
        "encoding": "mapping",
        "key": "t_address",
        "label": "mapping(address => mapping(address => mapping(uint256 => address)))",
        "numberOfBytes": "32",
        "value": "t_mapping(t_address,t_mapping(t_uint256,t_address))"
      },
      "t_mapping(t_address,t_mapping(t_uint256,t_address))": {
        "encoding": "mapping",
        "key": "t_address",
        "label": "mapping(address => mapping(uint256 => address))",
        "numberOfBytes": "32",
        "value": "t_mapping(t_uint256,t_address)"
      },
      "t_mapping(t_uint256,t_address)": {
        "encoding": "mapping",
        "key": "t_uint256",
        "label": "mapping(uint256 => address)",
        "numberOfBytes": "32",
        "value": "t_address"
      },
      "t_uint256": {
        "encoding": "inplace",
        "label": "uint256",
        "numberOfBytes": "32"
      }
    }
  }
}