{
  "address": "0x08ef5BAAD41Dccf6b8f5bF742bD882a34634492b",
  "abi": [
    {
      "inputs": [
        {
          "internalType": "contract IOpenSkySettings",
          "name": "settings",
          "type": "address"
        }
      ],
      "stateMutability": "nonpayable",
      "type": "constructor"
    },
    {
      "inputs": [],
      "name": "SETTINGS",
      "outputs": [
        {
          "internalType": "contract IOpenSkySettings",
          "name": "",
          "type": "address"
        }
      ],
      "stateMutability": "view",
      "type": "function"
    },
    {
      "inputs": [
        {
          "internalType": "uint256",
          "name": "reserveId",
          "type": "uint256"
        }
      ],
      "name": "getAvailableLiquidity",
      "outputs": [
        {
          "internalType": "uint256",
          "name": "",
          "type": "uint256"
        }
      ],
      "stateMutability": "view",
      "type": "function"
    },
    {
      "inputs": [
        {
          "internalType": "uint256",
          "name": "reserveId",
          "type": "uint256"
        },
        {
          "internalType": "uint256",
          "name": "liquidityAmountToAdd",
          "type": "uint256"
        },
        {
          "internalType": "uint256",
          "name": "liquidityAmountToRemove",
          "type": "uint256"
        },
        {
          "internalType": "uint256",
          "name": "borrowAmountToAdd",
          "type": "uint256"
        },
        {
          "internalType": "uint256",
          "name": "borrowAmountToRemove",
          "type": "uint256"
        }
      ],
      "name": "getBorrowRate",
      "outputs": [
        {
          "internalType": "uint256",
          "name": "",
          "type": "uint256"
        }
      ],
      "stateMutability": "view",
      "type": "function"
    },
    {
      "inputs": [
        {
          "internalType": "uint256",
          "name": "loanId",
          "type": "uint256"
        }
      ],
      "name": "getLoanData",
      "outputs": [
        {
          "components": [
            {
              "internalType": "uint256",
              "name": "loanId",
              "type": "uint256"
            },
            {
              "internalType": "uint256",
              "name": "totalBorrows",
              "type": "uint256"
            },
            {
              "internalType": "uint256",
              "name": "borrowBalance",
              "type": "uint256"
            },
            {
              "internalType": "uint40",
              "name": "borrowBegin",
              "type": "uint40"
            },
            {
              "internalType": "uint40",
              "name": "borrowDuration",
              "type": "uint40"
            },
            {
              "internalType": "uint40",
              "name": "borrowOverdueTime",
              "type": "uint40"
            },
            {
              "internalType": "uint128",
              "name": "borrowRate",
              "type": "uint128"
            },
            {
              "internalType": "uint128",
              "name": "interestPerSecond",
              "type": "uint128"
            },
            {
              "internalType": "uint256",
              "name": "penalty",
              "type": "uint256"
            },
            {
              "internalType": "enum DataTypes.LoanStatus",
              "name": "status",
              "type": "uint8"
            }
          ],
          "internalType": "struct IOpenSkyDataProvider.LoanData",
          "name": "",
          "type": "tuple"
        }
      ],
      "stateMutability": "view",
      "type": "function"
    },
    {
      "inputs": [
        {
          "internalType": "uint256",
          "name": "reserveId",
          "type": "uint256"
        }
      ],
      "name": "getLoanSupplyRate",
      "outputs": [
        {
          "internalType": "uint256",
          "name": "",
          "type": "uint256"
        }
      ],
      "stateMutability": "view",
      "type": "function"
    },
    {
      "inputs": [
        {
          "internalType": "address",
          "name": "account",
          "type": "address"
        }
      ],
      "name": "getLoansByUser",
      "outputs": [
        {
          "internalType": "uint256[]",
          "name": "",
          "type": "uint256[]"
        }
      ],
      "stateMutability": "view",
      "type": "function"
    },
    {
      "inputs": [
        {
          "internalType": "uint256",
          "name": "reserveId",
          "type": "uint256"
        }
      ],
      "name": "getMoneyMarketSupplyRateInstant",
      "outputs": [
        {
          "internalType": "uint256",
          "name": "",
          "type": "uint256"
        }
      ],
      "stateMutability": "view",
      "type": "function"
    },
    {
      "inputs": [
        {
          "internalType": "uint256",
          "name": "reserveId",
          "type": "uint256"
        }
      ],
      "name": "getReserveData",
      "outputs": [
        {
          "components": [
            {
              "internalType": "uint256",
              "name": "reserveId",
              "type": "uint256"
            },
            {
              "internalType": "address",
              "name": "underlyingAsset",
              "type": "address"
            },
            {
              "internalType": "address",
              "name": "oTokenAddress",
              "type": "address"
            },
            {
              "internalType": "uint256",
              "name": "TVL",
              "type": "uint256"
            },
            {
              "internalType": "uint256",
              "name": "totalDeposits",
              "type": "uint256"
            },
            {
              "internalType": "uint256",
              "name": "totalBorrowsBalance",
              "type": "uint256"
            },
            {
              "internalType": "uint256",
              "name": "supplyRate",
              "type": "uint256"
            },
            {
              "internalType": "uint256",
              "name": "borrowRate",
              "type": "uint256"
            },
            {
              "internalType": "uint256",
              "name": "availableLiquidity",
              "type": "uint256"
            }
          ],
          "internalType": "struct IOpenSkyDataProvider.ReserveData",
          "name": "",
          "type": "tuple"
        }
      ],
      "stateMutability": "view",
      "type": "function"
    },
    {
      "inputs": [
        {
          "internalType": "uint256",
          "name": "reserveId",
          "type": "uint256"
        },
        {
          "internalType": "address",
          "name": "account",
          "type": "address"
        }
      ],
      "name": "getSupplyBalance",
      "outputs": [
        {
          "internalType": "uint256",
          "name": "",
          "type": "uint256"
        }
      ],
      "stateMutability": "view",
      "type": "function"
    },
    {
      "inputs": [
        {
          "internalType": "uint256",
          "name": "reserveId",
          "type": "uint256"
        }
      ],
      "name": "getSupplyRate",
      "outputs": [
        {
          "internalType": "uint256",
          "name": "",
          "type": "uint256"
        }
      ],
      "stateMutability": "view",
      "type": "function"
    },
    {
      "inputs": [
        {
          "internalType": "uint256",
          "name": "reserveId",
          "type": "uint256"
        }
      ],
      "name": "getTVL",
      "outputs": [
        {
          "internalType": "uint256",
          "name": "",
          "type": "uint256"
        }
      ],
      "stateMutability": "view",
      "type": "function"
    },
    {
      "inputs": [
        {
          "internalType": "uint256",
          "name": "reserveId",
          "type": "uint256"
        }
      ],
      "name": "getTotalBorrowBalance",
      "outputs": [
        {
          "internalType": "uint256",
          "name": "",
          "type": "uint256"
        }
      ],
      "stateMutability": "view",
      "type": "function"
    }
  ],
  "transactionHash": "0xc7aa8fd6c528afcb4516c03015e5c6e17e73b74594fc325a3c586081f917bc77",
  "args": [
    "0x57528D98c3a8762c78f4D02a89CBc0Eaf77FD322"
  ],
  "solcInputHash": "903b6e0b7a82abf3fd1d087256b904a8",
  "bytecode": "0x60a060405234801561001057600080fd5b50604051611e49380380611e4983398101604081905261002f91610040565b6001600160a01b0316608052610070565b60006020828403121561005257600080fd5b81516001600160a01b038116811461006957600080fd5b9392505050565b608051611d716100d86000396000818161020b0152818161026f015281816103670152818161041a015281816106200152818161083901528181610a1201528181610ce90152818161100c015281816111720152818161137a01526115ba0152611d716000f3fe608060405234801561001057600080fd5b50600436106100b45760003560e01c806391541e051161007157806391541e051461015857806395f76652146101e0578063a08a09d3146101f3578063ade97ab514610206578063d955759d14610245578063ee4cc84c1461025857600080fd5b80630aad628b146100b95780632235ae0f146100df5780633e842090146100f2578063423989e4146101125780635bdf347714610125578063622fe39f14610138575b600080fd5b6100cc6100c7366004611744565b61026b565b6040519081526020015b60405180910390f35b6100cc6100ed366004611744565b610363565b610105610100366004611775565b610414565b6040516100d69190611792565b6100cc6101203660046117d6565b61061b565b6100cc610133366004611744565b610834565b61014b610146366004611744565b6109b9565b6040516100d69190611849565b61016b610166366004611744565b610c84565b60408051825181526020808401516001600160a01b0390811691830191909152838301511691810191909152606080830151908201526080808301519082015260a0808301519082015260c0808301519082015260e080830151908201526101009182015191810191909152610120016100d6565b6100cc6101ee366004611911565b611007565b6100cc610201366004611744565b61116d565b61022d7f000000000000000000000000000000000000000000000000000000000000000081565b6040516001600160a01b0390911681526020016100d6565b6100cc610253366004611744565b611375565b6100cc610266366004611744565b6115b6565b60007f00000000000000000000000000000000000000000000000000000000000000006001600160a01b0316631755ff216040518163ffffffff1660e01b8152600401602060405180830381865afa1580156102cb573d6000803e3d6000fd5b505050506040513d601f19601f820116820180604052508101906102ef9190611951565b6001600160a01b0316630aad628b836040518263ffffffff1660e01b815260040161031c91815260200190565b602060405180830381865afa158015610339573d6000803e3d6000fd5b505050506040513d601f19601f8201168201806040525081019061035d919061196e565b92915050565b60007f00000000000000000000000000000000000000000000000000000000000000006001600160a01b0316631755ff216040518163ffffffff1660e01b8152600401602060405180830381865afa1580156103c3573d6000803e3d6000fd5b505050506040513d601f19601f820116820180604052508101906103e79190611951565b6001600160a01b0316632235ae0f836040518263ffffffff1660e01b815260040161031c91815260200190565b606060007f00000000000000000000000000000000000000000000000000000000000000006001600160a01b03166335bc868a6040518163ffffffff1660e01b8152600401602060405180830381865afa158015610476573d6000803e3d6000fd5b505050506040513d601f19601f8201168201806040525081019061049a9190611951565b6040516370a0823160e01b81526001600160a01b0385811660048301529192506000918316906370a0823190602401602060405180830381865afa1580156104e6573d6000803e3d6000fd5b505050506040513d601f19601f8201168201806040525081019061050a919061196e565b9050600080821161051c57600061051e565b815b67ffffffffffffffff81111561053657610536611987565b60405190808252806020026020018201604052801561055f578160200160208202803683370190505b50905081156106135760005b8281101561061157604051632f745c5960e01b81526001600160a01b03878116600483015260248201839052851690632f745c5990604401602060405180830381865afa1580156105c0573d6000803e3d6000fd5b505050506040513d601f19601f820116820180604052508101906105e4919061196e565b8282815181106105f6576105f661199d565b602090810291909101015261060a816119c9565b905061056b565b505b949350505050565b6000807f00000000000000000000000000000000000000000000000000000000000000006001600160a01b0316631755ff216040518163ffffffff1660e01b8152600401602060405180830381865afa15801561067c573d6000803e3d6000fd5b505050506040513d601f19601f820116820180604052508101906106a09190611951565b6001600160a01b03166391541e05886040518263ffffffff1660e01b81526004016106cd91815260200190565b61018060405180830381865afa1580156106eb573d6000803e3d6000fd5b505050506040513d601f19601f8201168201806040525081019061070f9190611a8a565b90508061012001516001600160a01b03166315f24053886107a08861079a8b87604001516001600160a01b03166318160ddd6040518163ffffffff1660e01b8152600401602060405180830381865afa158015610770573d6000803e3d6000fd5b505050506040513d601f19601f82011682018060405250810190610794919061196e565b90611667565b90611673565b6107bc8761079a8a88610100015161166790919063ffffffff16565b6040516001600160e01b031960e086901b168152600481019390935260248301919091526044820152606401602060405180830381865afa158015610805573d6000803e3d6000fd5b505050506040513d601f19601f82011682018060405250810190610829919061196e565b979650505050505050565b6000807f00000000000000000000000000000000000000000000000000000000000000006001600160a01b0316631755ff216040518163ffffffff1660e01b8152600401602060405180830381865afa158015610895573d6000803e3d6000fd5b505050506040513d601f19601f820116820180604052508101906108b99190611951565b6001600160a01b03166391541e05846040518263ffffffff1660e01b81526004016108e691815260200190565b61018060405180830381865afa158015610904573d6000803e3d6000fd5b505050506040513d601f19601f820116820180604052508101906109289190611a8a565b9050806101600151156109b05760608101516020820151604051636b5441a960e01b81526001600160a01b039182166004820152911690636b5441a990602401602060405180830381865afa158015610985573d6000803e3d6000fd5b505050506040513d601f19601f820116820180604052508101906109a9919061196e565b9392505050565b50600092915050565b610a0e6040805161014081018252600080825260208201819052918101829052606081018290526080810182905260a0810182905260c0810182905260e0810182905261010081018290529061012082015290565b60007f00000000000000000000000000000000000000000000000000000000000000006001600160a01b03166335bc868a6040518163ffffffff1660e01b8152600401602060405180830381865afa158015610a6e573d6000803e3d6000fd5b505050506040513d601f19601f82011682018060405250810190610a929190611951565b60405163622fe39f60e01b8152600481018590529091506000906001600160a01b0383169063622fe39f906024016101c060405180830381865afa158015610ade573d6000803e3d6000fd5b505050506040513d601f19601f82011682018060405250810190610b029190611b62565b905060405180610140016040528085815260200182608001518152602001836001600160a01b0316636b52b365876040518263ffffffff1660e01b8152600401610b4e91815260200190565b602060405180830381865afa158015610b6b573d6000803e3d6000fd5b505050506040513d601f19601f82011682018060405250810190610b8f919061196e565b81526020018260e0015164ffffffffff16815260200182610100015164ffffffffff16815260200182610120015164ffffffffff1681526020018260a001516001600160801b031681526020018260c001516001600160801b03168152602001836001600160a01b03166396e59682876040518263ffffffff1660e01b8152600401610c1d91815260200190565b602060405180830381865afa158015610c3a573d6000803e3d6000fd5b505050506040513d601f19601f82011682018060405250810190610c5e919061196e565b8152602001826101a001516005811115610c7a57610c7a611811565b9052949350505050565b610ce56040518061012001604052806000815260200160006001600160a01b0316815260200160006001600160a01b031681526020016000815260200160008152602001600081526020016000815260200160008152602001600081525090565b60007f00000000000000000000000000000000000000000000000000000000000000006001600160a01b0316631755ff216040518163ffffffff1660e01b8152600401602060405180830381865afa158015610d45573d6000803e3d6000fd5b505050506040513d601f19601f82011682018060405250810190610d699190611951565b6040516391541e0560e01b8152600481018590529091506000906001600160a01b038316906391541e059060240161018060405180830381865afa158015610db5573d6000803e3d6000fd5b505050506040513d601f19601f82011682018060405250810190610dd99190611a8a565b905060008160400151905060405180610120016040528086815260200183602001516001600160a01b0316815260200183604001516001600160a01b03168152602001846001600160a01b031663ee4cc84c886040518263ffffffff1660e01b8152600401610e4a91815260200190565b602060405180830381865afa158015610e67573d6000803e3d6000fd5b505050506040513d601f19601f82011682018060405250810190610e8b919061196e565b8152602001826001600160a01b03166318160ddd6040518163ffffffff1660e01b8152600401602060405180830381865afa158015610ece573d6000803e3d6000fd5b505050506040513d601f19601f82011682018060405250810190610ef2919061196e565b8152602001846001600160a01b0316632235ae0f886040518263ffffffff1660e01b8152600401610f2591815260200190565b602060405180830381865afa158015610f42573d6000803e3d6000fd5b505050506040513d601f19601f82011682018060405250810190610f66919061196e565b8152602001610f7487611375565b8152602001610f888760008060008061061b565b8152602001846001600160a01b0316630aad628b886040518263ffffffff1660e01b8152600401610fbb91815260200190565b602060405180830381865afa158015610fd8573d6000803e3d6000fd5b505050506040513d601f19601f82011682018060405250810190610ffc919061196e565b905295945050505050565b6000807f00000000000000000000000000000000000000000000000000000000000000006001600160a01b0316631755ff216040518163ffffffff1660e01b8152600401602060405180830381865afa158015611068573d6000803e3d6000fd5b505050506040513d601f19601f8201168201806040525081019061108c9190611951565b6001600160a01b03166391541e05856040518263ffffffff1660e01b81526004016110b991815260200190565b61018060405180830381865afa1580156110d7573d6000803e3d6000fd5b505050506040513d601f19601f820116820180604052508101906110fb9190611a8a565b60408082015190516370a0823160e01b81526001600160a01b0386811660048301529293509116906370a0823190602401602060405180830381865afa158015611149573d6000803e3d6000fd5b505050506040513d601f19601f82011682018060405250810190610613919061196e565b6000807f00000000000000000000000000000000000000000000000000000000000000006001600160a01b0316631755ff216040518163ffffffff1660e01b8152600401602060405180830381865afa1580156111ce573d6000803e3d6000fd5b505050506040513d601f19601f820116820180604052508101906111f29190611951565b6001600160a01b03166391541e05846040518263ffffffff1660e01b815260040161121f91815260200190565b61018060405180830381865afa15801561123d573d6000803e3d6000fd5b505050506040513d601f19601f820116820180604052508101906112619190611a8a565b9050600081604001516001600160a01b0316631f07e4df6040518163ffffffff1660e01b8152600401602060405180830381865afa1580156112a7573d6000803e3d6000fd5b505050506040513d601f19601f820116820180604052508101906112cb919061196e565b90506000734648bb80A8d14C8777321F1b4cbb1B016696102d63db53f388838561010001516112ff8960008060008061061b565b6040516001600160e01b031960e086901b1681526004810193909352602483019190915260448201526064016040805180830381865af4158015611347573d6000803e3d6000fd5b505050506040513d601f19601f8201168201806040525081019061136b9190611c52565b5095945050505050565b6000807f00000000000000000000000000000000000000000000000000000000000000006001600160a01b0316631755ff216040518163ffffffff1660e01b8152600401602060405180830381865afa1580156113d6573d6000803e3d6000fd5b505050506040513d601f19601f820116820180604052508101906113fa9190611951565b6001600160a01b03166391541e05846040518263ffffffff1660e01b815260040161142791815260200190565b61018060405180830381865afa158015611445573d6000803e3d6000fd5b505050506040513d601f19601f820116820180604052508101906114699190611a8a565b9050600081604001516001600160a01b0316631f07e4df6040518163ffffffff1660e01b8152600401602060405180830381865afa1580156114af573d6000803e3d6000fd5b505050506040513d601f19601f820116820180604052508101906114d3919061196e565b9050600080734648bb80A8d14C8777321F1b4cbb1B016696102d63db53f388848661010001516115088a60008060008061061b565b6040516001600160e01b031960e086901b1681526004810193909352602483019190915260448201526064016040805180830381865af4158015611550573d6000803e3d6000fd5b505050506040513d601f19601f820116820180604052508101906115749190611c52565b915091506115ac6115a361158788610834565b61159d846b033b2e3c9fd0803ce800000061079a565b9061167f565b6107948861116d565b9695505050505050565b60007f00000000000000000000000000000000000000000000000000000000000000006001600160a01b0316631755ff216040518163ffffffff1660e01b8152600401602060405180830381865afa158015611616573d6000803e3d6000fd5b505050506040513d601f19601f8201168201806040525081019061163a9190611951565b6001600160a01b031663ee4cc84c836040518263ffffffff1660e01b815260040161031c91815260200190565b60006109a98284611c76565b60006109a98284611c8e565b600082158061168c575081155b156116995750600061035d565b816116b160026b033b2e3c9fd0803ce8000000611ca5565b6116bd90600019611c8e565b6116c79190611ca5565b8311156040518060400160405280600381526020016203130360ec1b8152509061170d5760405162461bcd60e51b81526004016117049190611cc7565b60405180910390fd5b506b033b2e3c9fd0803ce8000000611726600282611ca5565b6117308486611d1c565b61173a9190611c76565b6109a99190611ca5565b60006020828403121561175657600080fd5b5035919050565b6001600160a01b038116811461177257600080fd5b50565b60006020828403121561178757600080fd5b81356109a98161175d565b6020808252825182820181905260009190848201906040850190845b818110156117ca578351835292840192918401916001016117ae565b50909695505050505050565b600080600080600060a086880312156117ee57600080fd5b505083359560208501359550604085013594606081013594506080013592509050565b634e487b7160e01b600052602160045260246000fd5b6006811061184557634e487b7160e01b600052602160045260246000fd5b9052565b6000610140820190508251825260208301516020830152604083015160408301526060830151611882606084018264ffffffffff169052565b50608083015161189b608084018264ffffffffff169052565b5060a08301516118b460a084018264ffffffffff169052565b5060c08301516118cf60c08401826001600160801b03169052565b5060e08301516118ea60e08401826001600160801b03169052565b5061010083810151908301526101208084015161190982850182611827565b505092915050565b6000806040838503121561192457600080fd5b8235915060208301356119368161175d565b809150509250929050565b805161194c8161175d565b919050565b60006020828403121561196357600080fd5b81516109a98161175d565b60006020828403121561198057600080fd5b5051919050565b634e487b7160e01b600052604160045260246000fd5b634e487b7160e01b600052603260045260246000fd5b634e487b7160e01b600052601160045260246000fd5b60006000198214156119dd576119dd6119b3565b5060010190565b604051610180810167ffffffffffffffff81118282101715611a1657634e487b7160e01b600052604160045260246000fd5b60405290565b6040516101c0810167ffffffffffffffff81118282101715611a1657634e487b7160e01b600052604160045260246000fd5b80516001600160801b038116811461194c57600080fd5b805164ffffffffff8116811461194c57600080fd5b8051801515811461194c57600080fd5b60006101808284031215611a9d57600080fd5b611aa56119e4565b82518152611ab560208401611941565b6020820152611ac660408401611941565b6040820152611ad760608401611941565b6060820152611ae860808401611a4e565b608082015260a083015160a082015260c083015160c0820152611b0d60e08401611a65565b60e08201526101008381015190820152610120611b2b818501611941565b908201526101408381015190820152610160611b48818501611a7a565b908201529392505050565b80516006811061194c57600080fd5b60006101c08284031215611b7557600080fd5b611b7d611a1c565b82518152611b8d60208401611941565b602082015260408301516040820152611ba860608401611941565b606082015260808301516080820152611bc360a08401611a4e565b60a0820152611bd460c08401611a4e565b60c0820152611be560e08401611a65565b60e0820152610100611bf8818501611a65565b90820152610120611c0a848201611a65565b90820152610140611c1c848201611a65565b90820152610160611c2e848201611a65565b90820152610180611c40848201611a65565b908201526101a0611b48848201611b53565b60008060408385031215611c6557600080fd5b505080516020909101519092909150565b60008219821115611c8957611c896119b3565b500190565b600082821015611ca057611ca06119b3565b500390565b600082611cc257634e487b7160e01b600052601260045260246000fd5b500490565b600060208083528351808285015260005b81811015611cf457858101830151858201604001528201611cd8565b81811115611d06576000604083870101525b50601f01601f1916929092016040019392505050565b6000816000190483118215151615611d3657611d366119b3565b50029056fea2646970667358221220b50ef7d3f11ae8d16e1c06bc4649d36aaf786b9faa7186eb237e2f290bc1313a64736f6c634300080a0033",
  "deployedBytecode": "0x608060405234801561001057600080fd5b50600436106100b45760003560e01c806391541e051161007157806391541e051461015857806395f76652146101e0578063a08a09d3146101f3578063ade97ab514610206578063d955759d14610245578063ee4cc84c1461025857600080fd5b80630aad628b146100b95780632235ae0f146100df5780633e842090146100f2578063423989e4146101125780635bdf347714610125578063622fe39f14610138575b600080fd5b6100cc6100c7366004611744565b61026b565b6040519081526020015b60405180910390f35b6100cc6100ed366004611744565b610363565b610105610100366004611775565b610414565b6040516100d69190611792565b6100cc6101203660046117d6565b61061b565b6100cc610133366004611744565b610834565b61014b610146366004611744565b6109b9565b6040516100d69190611849565b61016b610166366004611744565b610c84565b60408051825181526020808401516001600160a01b0390811691830191909152838301511691810191909152606080830151908201526080808301519082015260a0808301519082015260c0808301519082015260e080830151908201526101009182015191810191909152610120016100d6565b6100cc6101ee366004611911565b611007565b6100cc610201366004611744565b61116d565b61022d7f000000000000000000000000000000000000000000000000000000000000000081565b6040516001600160a01b0390911681526020016100d6565b6100cc610253366004611744565b611375565b6100cc610266366004611744565b6115b6565b60007f00000000000000000000000000000000000000000000000000000000000000006001600160a01b0316631755ff216040518163ffffffff1660e01b8152600401602060405180830381865afa1580156102cb573d6000803e3d6000fd5b505050506040513d601f19601f820116820180604052508101906102ef9190611951565b6001600160a01b0316630aad628b836040518263ffffffff1660e01b815260040161031c91815260200190565b602060405180830381865afa158015610339573d6000803e3d6000fd5b505050506040513d601f19601f8201168201806040525081019061035d919061196e565b92915050565b60007f00000000000000000000000000000000000000000000000000000000000000006001600160a01b0316631755ff216040518163ffffffff1660e01b8152600401602060405180830381865afa1580156103c3573d6000803e3d6000fd5b505050506040513d601f19601f820116820180604052508101906103e79190611951565b6001600160a01b0316632235ae0f836040518263ffffffff1660e01b815260040161031c91815260200190565b606060007f00000000000000000000000000000000000000000000000000000000000000006001600160a01b03166335bc868a6040518163ffffffff1660e01b8152600401602060405180830381865afa158015610476573d6000803e3d6000fd5b505050506040513d601f19601f8201168201806040525081019061049a9190611951565b6040516370a0823160e01b81526001600160a01b0385811660048301529192506000918316906370a0823190602401602060405180830381865afa1580156104e6573d6000803e3d6000fd5b505050506040513d601f19601f8201168201806040525081019061050a919061196e565b9050600080821161051c57600061051e565b815b67ffffffffffffffff81111561053657610536611987565b60405190808252806020026020018201604052801561055f578160200160208202803683370190505b50905081156106135760005b8281101561061157604051632f745c5960e01b81526001600160a01b03878116600483015260248201839052851690632f745c5990604401602060405180830381865afa1580156105c0573d6000803e3d6000fd5b505050506040513d601f19601f820116820180604052508101906105e4919061196e565b8282815181106105f6576105f661199d565b602090810291909101015261060a816119c9565b905061056b565b505b949350505050565b6000807f00000000000000000000000000000000000000000000000000000000000000006001600160a01b0316631755ff216040518163ffffffff1660e01b8152600401602060405180830381865afa15801561067c573d6000803e3d6000fd5b505050506040513d601f19601f820116820180604052508101906106a09190611951565b6001600160a01b03166391541e05886040518263ffffffff1660e01b81526004016106cd91815260200190565b61018060405180830381865afa1580156106eb573d6000803e3d6000fd5b505050506040513d601f19601f8201168201806040525081019061070f9190611a8a565b90508061012001516001600160a01b03166315f24053886107a08861079a8b87604001516001600160a01b03166318160ddd6040518163ffffffff1660e01b8152600401602060405180830381865afa158015610770573d6000803e3d6000fd5b505050506040513d601f19601f82011682018060405250810190610794919061196e565b90611667565b90611673565b6107bc8761079a8a88610100015161166790919063ffffffff16565b6040516001600160e01b031960e086901b168152600481019390935260248301919091526044820152606401602060405180830381865afa158015610805573d6000803e3d6000fd5b505050506040513d601f19601f82011682018060405250810190610829919061196e565b979650505050505050565b6000807f00000000000000000000000000000000000000000000000000000000000000006001600160a01b0316631755ff216040518163ffffffff1660e01b8152600401602060405180830381865afa158015610895573d6000803e3d6000fd5b505050506040513d601f19601f820116820180604052508101906108b99190611951565b6001600160a01b03166391541e05846040518263ffffffff1660e01b81526004016108e691815260200190565b61018060405180830381865afa158015610904573d6000803e3d6000fd5b505050506040513d601f19601f820116820180604052508101906109289190611a8a565b9050806101600151156109b05760608101516020820151604051636b5441a960e01b81526001600160a01b039182166004820152911690636b5441a990602401602060405180830381865afa158015610985573d6000803e3d6000fd5b505050506040513d601f19601f820116820180604052508101906109a9919061196e565b9392505050565b50600092915050565b610a0e6040805161014081018252600080825260208201819052918101829052606081018290526080810182905260a0810182905260c0810182905260e0810182905261010081018290529061012082015290565b60007f00000000000000000000000000000000000000000000000000000000000000006001600160a01b03166335bc868a6040518163ffffffff1660e01b8152600401602060405180830381865afa158015610a6e573d6000803e3d6000fd5b505050506040513d601f19601f82011682018060405250810190610a929190611951565b60405163622fe39f60e01b8152600481018590529091506000906001600160a01b0383169063622fe39f906024016101c060405180830381865afa158015610ade573d6000803e3d6000fd5b505050506040513d601f19601f82011682018060405250810190610b029190611b62565b905060405180610140016040528085815260200182608001518152602001836001600160a01b0316636b52b365876040518263ffffffff1660e01b8152600401610b4e91815260200190565b602060405180830381865afa158015610b6b573d6000803e3d6000fd5b505050506040513d601f19601f82011682018060405250810190610b8f919061196e565b81526020018260e0015164ffffffffff16815260200182610100015164ffffffffff16815260200182610120015164ffffffffff1681526020018260a001516001600160801b031681526020018260c001516001600160801b03168152602001836001600160a01b03166396e59682876040518263ffffffff1660e01b8152600401610c1d91815260200190565b602060405180830381865afa158015610c3a573d6000803e3d6000fd5b505050506040513d601f19601f82011682018060405250810190610c5e919061196e565b8152602001826101a001516005811115610c7a57610c7a611811565b9052949350505050565b610ce56040518061012001604052806000815260200160006001600160a01b0316815260200160006001600160a01b031681526020016000815260200160008152602001600081526020016000815260200160008152602001600081525090565b60007f00000000000000000000000000000000000000000000000000000000000000006001600160a01b0316631755ff216040518163ffffffff1660e01b8152600401602060405180830381865afa158015610d45573d6000803e3d6000fd5b505050506040513d601f19601f82011682018060405250810190610d699190611951565b6040516391541e0560e01b8152600481018590529091506000906001600160a01b038316906391541e059060240161018060405180830381865afa158015610db5573d6000803e3d6000fd5b505050506040513d601f19601f82011682018060405250810190610dd99190611a8a565b905060008160400151905060405180610120016040528086815260200183602001516001600160a01b0316815260200183604001516001600160a01b03168152602001846001600160a01b031663ee4cc84c886040518263ffffffff1660e01b8152600401610e4a91815260200190565b602060405180830381865afa158015610e67573d6000803e3d6000fd5b505050506040513d601f19601f82011682018060405250810190610e8b919061196e565b8152602001826001600160a01b03166318160ddd6040518163ffffffff1660e01b8152600401602060405180830381865afa158015610ece573d6000803e3d6000fd5b505050506040513d601f19601f82011682018060405250810190610ef2919061196e565b8152602001846001600160a01b0316632235ae0f886040518263ffffffff1660e01b8152600401610f2591815260200190565b602060405180830381865afa158015610f42573d6000803e3d6000fd5b505050506040513d601f19601f82011682018060405250810190610f66919061196e565b8152602001610f7487611375565b8152602001610f888760008060008061061b565b8152602001846001600160a01b0316630aad628b886040518263ffffffff1660e01b8152600401610fbb91815260200190565b602060405180830381865afa158015610fd8573d6000803e3d6000fd5b505050506040513d601f19601f82011682018060405250810190610ffc919061196e565b905295945050505050565b6000807f00000000000000000000000000000000000000000000000000000000000000006001600160a01b0316631755ff216040518163ffffffff1660e01b8152600401602060405180830381865afa158015611068573d6000803e3d6000fd5b505050506040513d601f19601f8201168201806040525081019061108c9190611951565b6001600160a01b03166391541e05856040518263ffffffff1660e01b81526004016110b991815260200190565b61018060405180830381865afa1580156110d7573d6000803e3d6000fd5b505050506040513d601f19601f820116820180604052508101906110fb9190611a8a565b60408082015190516370a0823160e01b81526001600160a01b0386811660048301529293509116906370a0823190602401602060405180830381865afa158015611149573d6000803e3d6000fd5b505050506040513d601f19601f82011682018060405250810190610613919061196e565b6000807f00000000000000000000000000000000000000000000000000000000000000006001600160a01b0316631755ff216040518163ffffffff1660e01b8152600401602060405180830381865afa1580156111ce573d6000803e3d6000fd5b505050506040513d601f19601f820116820180604052508101906111f29190611951565b6001600160a01b03166391541e05846040518263ffffffff1660e01b815260040161121f91815260200190565b61018060405180830381865afa15801561123d573d6000803e3d6000fd5b505050506040513d601f19601f820116820180604052508101906112619190611a8a565b9050600081604001516001600160a01b0316631f07e4df6040518163ffffffff1660e01b8152600401602060405180830381865afa1580156112a7573d6000803e3d6000fd5b505050506040513d601f19601f820116820180604052508101906112cb919061196e565b9050600073__$f742c272e27921345744ab659e4a493fb5$__63db53f388838561010001516112ff8960008060008061061b565b6040516001600160e01b031960e086901b1681526004810193909352602483019190915260448201526064016040805180830381865af4158015611347573d6000803e3d6000fd5b505050506040513d601f19601f8201168201806040525081019061136b9190611c52565b5095945050505050565b6000807f00000000000000000000000000000000000000000000000000000000000000006001600160a01b0316631755ff216040518163ffffffff1660e01b8152600401602060405180830381865afa1580156113d6573d6000803e3d6000fd5b505050506040513d601f19601f820116820180604052508101906113fa9190611951565b6001600160a01b03166391541e05846040518263ffffffff1660e01b815260040161142791815260200190565b61018060405180830381865afa158015611445573d6000803e3d6000fd5b505050506040513d601f19601f820116820180604052508101906114699190611a8a565b9050600081604001516001600160a01b0316631f07e4df6040518163ffffffff1660e01b8152600401602060405180830381865afa1580156114af573d6000803e3d6000fd5b505050506040513d601f19601f820116820180604052508101906114d3919061196e565b905060008073__$f742c272e27921345744ab659e4a493fb5$__63db53f388848661010001516115088a60008060008061061b565b6040516001600160e01b031960e086901b1681526004810193909352602483019190915260448201526064016040805180830381865af4158015611550573d6000803e3d6000fd5b505050506040513d601f19601f820116820180604052508101906115749190611c52565b915091506115ac6115a361158788610834565b61159d846b033b2e3c9fd0803ce800000061079a565b9061167f565b6107948861116d565b9695505050505050565b60007f00000000000000000000000000000000000000000000000000000000000000006001600160a01b0316631755ff216040518163ffffffff1660e01b8152600401602060405180830381865afa158015611616573d6000803e3d6000fd5b505050506040513d601f19601f8201168201806040525081019061163a9190611951565b6001600160a01b031663ee4cc84c836040518263ffffffff1660e01b815260040161031c91815260200190565b60006109a98284611c76565b60006109a98284611c8e565b600082158061168c575081155b156116995750600061035d565b816116b160026b033b2e3c9fd0803ce8000000611ca5565b6116bd90600019611c8e565b6116c79190611ca5565b8311156040518060400160405280600381526020016203130360ec1b8152509061170d5760405162461bcd60e51b81526004016117049190611cc7565b60405180910390fd5b506b033b2e3c9fd0803ce8000000611726600282611ca5565b6117308486611d1c565b61173a9190611c76565b6109a99190611ca5565b60006020828403121561175657600080fd5b5035919050565b6001600160a01b038116811461177257600080fd5b50565b60006020828403121561178757600080fd5b81356109a98161175d565b6020808252825182820181905260009190848201906040850190845b818110156117ca578351835292840192918401916001016117ae565b50909695505050505050565b600080600080600060a086880312156117ee57600080fd5b505083359560208501359550604085013594606081013594506080013592509050565b634e487b7160e01b600052602160045260246000fd5b6006811061184557634e487b7160e01b600052602160045260246000fd5b9052565b6000610140820190508251825260208301516020830152604083015160408301526060830151611882606084018264ffffffffff169052565b50608083015161189b608084018264ffffffffff169052565b5060a08301516118b460a084018264ffffffffff169052565b5060c08301516118cf60c08401826001600160801b03169052565b5060e08301516118ea60e08401826001600160801b03169052565b5061010083810151908301526101208084015161190982850182611827565b505092915050565b6000806040838503121561192457600080fd5b8235915060208301356119368161175d565b809150509250929050565b805161194c8161175d565b919050565b60006020828403121561196357600080fd5b81516109a98161175d565b60006020828403121561198057600080fd5b5051919050565b634e487b7160e01b600052604160045260246000fd5b634e487b7160e01b600052603260045260246000fd5b634e487b7160e01b600052601160045260246000fd5b60006000198214156119dd576119dd6119b3565b5060010190565b604051610180810167ffffffffffffffff81118282101715611a1657634e487b7160e01b600052604160045260246000fd5b60405290565b6040516101c0810167ffffffffffffffff81118282101715611a1657634e487b7160e01b600052604160045260246000fd5b80516001600160801b038116811461194c57600080fd5b805164ffffffffff8116811461194c57600080fd5b8051801515811461194c57600080fd5b60006101808284031215611a9d57600080fd5b611aa56119e4565b82518152611ab560208401611941565b6020820152611ac660408401611941565b6040820152611ad760608401611941565b6060820152611ae860808401611a4e565b608082015260a083015160a082015260c083015160c0820152611b0d60e08401611a65565b60e08201526101008381015190820152610120611b2b818501611941565b908201526101408381015190820152610160611b48818501611a7a565b908201529392505050565b80516006811061194c57600080fd5b60006101c08284031215611b7557600080fd5b611b7d611a1c565b82518152611b8d60208401611941565b602082015260408301516040820152611ba860608401611941565b606082015260808301516080820152611bc360a08401611a4e565b60a0820152611bd460c08401611a4e565b60c0820152611be560e08401611a65565b60e0820152610100611bf8818501611a65565b90820152610120611c0a848201611a65565b90820152610140611c1c848201611a65565b90820152610160611c2e848201611a65565b90820152610180611c40848201611a65565b908201526101a0611b48848201611b53565b60008060408385031215611c6557600080fd5b505080516020909101519092909150565b60008219821115611c8957611c896119b3565b500190565b600082821015611ca057611ca06119b3565b500390565b600082611cc257634e487b7160e01b600052601260045260246000fd5b500490565b600060208083528351808285015260005b81811015611cf457858101830151858201604001528201611cd8565b81811115611d06576000604083870101525b50601f01601f1916929092016040019392505050565b6000816000190483118215151615611d3657611d366119b3565b50029056fea2646970667358221220b50ef7d3f11ae8d16e1c06bc4649d36aaf786b9faa7186eb237e2f290bc1313a64736f6c634300080a0033",
  "libraries": {
    "DataTypes": "0x9397220974f87949543b079A022A88B9b41a8380",
    "MathUtils": "0x4648bb80A8d14C8777321F1b4cbb1B016696102d"
  },
  "devdoc": {
    "kind": "dev",
    "methods": {},
    "version": 1
  },
  "userdoc": {
    "kind": "user",
    "methods": {},
    "version": 1
  },
  "storageLayout": {
    "storage": [],
    "types": null
  }
}