{
  "address": "0x2796600A4eb652DA8570046A5F2107e09F008d96",
  "abi": [
    {
      "inputs": [
        {
          "internalType": "contract IWETH",
          "name": "weth",
          "type": "address"
        },
        {
          "internalType": "contract IOpenSkySettings",
          "name": "settings",
          "type": "address"
        }
      ],
      "stateMutability": "nonpayable",
      "type": "constructor"
    },
    {
      "anonymous": false,
      "inputs": [
        {
          "indexed": true,
          "internalType": "address",
          "name": "previousOwner",
          "type": "address"
        },
        {
          "indexed": true,
          "internalType": "address",
          "name": "newOwner",
          "type": "address"
        }
      ],
      "name": "OwnershipTransferred",
      "type": "event"
    },
    {
      "stateMutability": "payable",
      "type": "fallback"
    },
    {
      "inputs": [],
      "name": "SETTINGS",
      "outputs": [
        {
          "internalType": "contract IOpenSkySettings",
          "name": "",
          "type": "address"
        }
      ],
      "stateMutability": "view",
      "type": "function"
    },
    {
      "inputs": [],
      "name": "WETH",
      "outputs": [
        {
          "internalType": "contract IWETH",
          "name": "",
          "type": "address"
        }
      ],
      "stateMutability": "view",
      "type": "function"
    },
    {
      "inputs": [
        {
          "internalType": "address[]",
          "name": "nftAssets",
          "type": "address[]"
        }
      ],
      "name": "authorizeLendPoolNFT",
      "outputs": [],
      "stateMutability": "nonpayable",
      "type": "function"
    },
    {
      "inputs": [],
      "name": "authorizeLendingPool",
      "outputs": [],
      "stateMutability": "nonpayable",
      "type": "function"
    },
    {
      "inputs": [
        {
          "internalType": "uint256",
          "name": "reserveId",
          "type": "uint256"
        },
        {
          "internalType": "uint256",
          "name": "amount",
          "type": "uint256"
        },
        {
          "internalType": "uint256",
          "name": "duration",
          "type": "uint256"
        },
        {
          "internalType": "address",
          "name": "nftAddress",
          "type": "address"
        },
        {
          "internalType": "uint256",
          "name": "tokenId",
          "type": "uint256"
        },
        {
          "internalType": "address",
          "name": "onBehalfOf",
          "type": "address"
        }
      ],
      "name": "borrow",
      "outputs": [],
      "stateMutability": "nonpayable",
      "type": "function"
    },
    {
      "inputs": [
        {
          "internalType": "uint256",
          "name": "reserveId",
          "type": "uint256"
        },
        {
          "internalType": "address",
          "name": "onBehalfOf",
          "type": "address"
        },
        {
          "internalType": "uint16",
          "name": "referralCode",
          "type": "uint16"
        }
      ],
      "name": "deposit",
      "outputs": [],
      "stateMutability": "payable",
      "type": "function"
    },
    {
      "inputs": [
        {
          "internalType": "address",
          "name": "to",
          "type": "address"
        },
        {
          "internalType": "uint256",
          "name": "amount",
          "type": "uint256"
        }
      ],
      "name": "emergencyEtherTransfer",
      "outputs": [],
      "stateMutability": "nonpayable",
      "type": "function"
    },
    {
      "inputs": [
        {
          "internalType": "address",
          "name": "token",
          "type": "address"
        },
        {
          "internalType": "address",
          "name": "to",
          "type": "address"
        },
        {
          "internalType": "uint256",
          "name": "amount",
          "type": "uint256"
        }
      ],
      "name": "emergencyTokenTransfer",
      "outputs": [],
      "stateMutability": "nonpayable",
      "type": "function"
    },
    {
      "inputs": [
        {
          "internalType": "uint256",
          "name": "loanId",
          "type": "uint256"
        },
        {
          "internalType": "uint256",
          "name": "amount",
          "type": "uint256"
        },
        {
          "internalType": "uint256",
          "name": "duration",
          "type": "uint256"
        }
      ],
      "name": "extend",
      "outputs": [],
      "stateMutability": "payable",
      "type": "function"
    },
    {
      "inputs": [
        {
          "internalType": "address",
          "name": "",
          "type": "address"
        },
        {
          "internalType": "address",
          "name": "",
          "type": "address"
        },
        {
          "internalType": "uint256",
          "name": "",
          "type": "uint256"
        },
        {
          "internalType": "bytes",
          "name": "",
          "type": "bytes"
        }
      ],
      "name": "onERC721Received",
      "outputs": [
        {
          "internalType": "bytes4",
          "name": "",
          "type": "bytes4"
        }
      ],
      "stateMutability": "nonpayable",
      "type": "function"
    },
    {
      "inputs": [],
      "name": "owner",
      "outputs": [
        {
          "internalType": "address",
          "name": "",
          "type": "address"
        }
      ],
      "stateMutability": "view",
      "type": "function"
    },
    {
      "inputs": [],
      "name": "renounceOwnership",
      "outputs": [],
      "stateMutability": "nonpayable",
      "type": "function"
    },
    {
      "inputs": [
        {
          "internalType": "uint256",
          "name": "loanId",
          "type": "uint256"
        }
      ],
      "name": "repay",
      "outputs": [],
      "stateMutability": "payable",
      "type": "function"
    },
    {
      "inputs": [
        {
          "internalType": "address",
          "name": "newOwner",
          "type": "address"
        }
      ],
      "name": "transferOwnership",
      "outputs": [],
      "stateMutability": "nonpayable",
      "type": "function"
    },
    {
      "inputs": [
        {
          "internalType": "uint256",
          "name": "reserveId",
          "type": "uint256"
        },
        {
          "internalType": "uint256",
          "name": "amount",
          "type": "uint256"
        },
        {
          "internalType": "address",
          "name": "onBehalfOf",
          "type": "address"
        }
      ],
      "name": "withdraw",
      "outputs": [],
      "stateMutability": "nonpayable",
      "type": "function"
    },
    {
      "stateMutability": "payable",
      "type": "receive"
    }
  ],
  "transactionHash": "0xcda9dcca77d73edf0e46fd241bed96df679518384048b1384b8c385d3e5d4edf",
  "args": [
    "0x0d500b1d8e8ef31e21c99d1db9a6444d3adf1270",
    "0x57528D98c3a8762c78f4D02a89CBc0Eaf77FD322"
  ],
  "solcInputHash": "903b6e0b7a82abf3fd1d087256b904a8",
  "bytecode": "0x60c06040523480156200001157600080fd5b5060405162001da638038062001da68339810160408190526200003491620000c0565b6200003f3362000057565b6001600160a01b039182166080521660a052620000ff565b600080546001600160a01b038381166001600160a01b0319831681178455604051919092169283917f8be0079c531659141344cd1fd0a4f28419497f9722a3daafe3b4186f6b6457e09190a35050565b6001600160a01b0381168114620000bd57600080fd5b50565b60008060408385031215620000d457600080fd5b8251620000e181620000a7565b6020840151909250620000f481620000a7565b809150509250929050565b60805160a051611c126200019460003960008181610301015281816103af015281816106a30152818161086601528181610a3d01528181610be301528181610e1f015261103d01526000818160fc015281816102cd015281816105b20152818161062d015281816107c3015281816109c901528181610b6d01528181610d4b01528181610ec901526111680152611c126000f3fe6080604052600436106100ec5760003560e01c8063a3d5b2551161008a578063eed88b8d11610059578063eed88b8d14610336578063f0e236d514610356578063f2fde38b1461036b578063f668a9c51461038b57610166565b8063a3d5b2551461029b578063ad5c4648146102bb578063ade97ab5146102ef578063ddddca111461032357610166565b806348287667116100c65780634828766714610221578063715018a6146102415780638da5cb5b146102565780639b8d6d381461028857610166565b80630ad58d2f146101a5578063150b7a02146101c5578063371fd8e61461020e57610166565b3661016657336001600160a01b037f000000000000000000000000000000000000000000000000000000000000000016146101645760405162461bcd60e51b8152602060048201526013602482015272149958d95a5d99481b9bdd08185b1b1bddd959606a1b60448201526064015b60405180910390fd5b005b60405162461bcd60e51b815260206004820152601460248201527311985b1b189858dac81b9bdd08185b1b1bddd95960621b604482015260640161015b565b3480156101b157600080fd5b506101646101c03660046115d5565b6103ab565b3480156101d157600080fd5b506101f06101e036600461167f565b630a85bd0160e11b949350505050565b6040516001600160e01b031990911681526020015b60405180910390f35b61016461021c366004611743565b61062b565b34801561022d57600080fd5b5061016461023c36600461175c565b610838565b34801561024d57600080fd5b50610164610991565b34801561026257600080fd5b506000546001600160a01b03165b6040516001600160a01b039091168152602001610205565b6101646102963660046117d1565b6109c7565b3480156102a757600080fd5b506101646102b636600461180f565b610b2d565b3480156102c757600080fd5b506102707f000000000000000000000000000000000000000000000000000000000000000081565b3480156102fb57600080fd5b506102707f000000000000000000000000000000000000000000000000000000000000000081565b610164610331366004611850565b610b6b565b34801561034257600080fd5b5061016461035136600461187c565b610db9565b34801561036257600080fd5b50610164610df1565b34801561037757600080fd5b506101646103863660046118a8565b610f38565b34801561039757600080fd5b506101646103a63660046118c5565b610fd3565b60007f00000000000000000000000000000000000000000000000000000000000000006001600160a01b0316631755ff216040518163ffffffff1660e01b8152600401602060405180830381865afa15801561040b573d6000803e3d6000fd5b505050506040513d601f19601f8201168201806040525081019061042f9190611933565b6040516391541e0560e01b8152600481018690529091506000906001600160a01b038316906391541e059060240161018060405180830381865afa15801561047b573d6000803e3d6000fd5b505050506040513d601f19601f8201168201806040525081019061049f9190611995565b60409081015190516370a0823160e01b81523360048201529091506000906001600160a01b038316906370a0823190602401602060405180830381865afa1580156104ee573d6000803e3d6000fd5b505050506040513d601f19601f820116820180604052508101906105129190611a5e565b9050846000198114156105225750805b6105376001600160a01b0384163330846111d6565b604051630ad58d2f60e01b815260048101889052602481018290523060448201526001600160a01b03851690630ad58d2f90606401600060405180830381600087803b15801561058657600080fd5b505af115801561059a573d6000803e3d6000fd5b5050604051632e1a7d4d60e01b8152600481018490527f00000000000000000000000000000000000000000000000000000000000000006001600160a01b03169250632e1a7d4d9150602401600060405180830381600087803b15801561060057600080fd5b505af1158015610614573d6000803e3d6000fd5b505050506106228582611241565b50505050505050565b7f00000000000000000000000000000000000000000000000000000000000000006001600160a01b031663d0e30db0346040518263ffffffff1660e01b81526004016000604051808303818588803b15801561068657600080fd5b505af115801561069a573d6000803e3d6000fd5b505050505060007f00000000000000000000000000000000000000000000000000000000000000006001600160a01b0316631755ff216040518163ffffffff1660e01b8152600401602060405180830381865afa1580156106ff573d6000803e3d6000fd5b505050506040513d601f19601f820116820180604052508101906107239190611933565b604051631b8fec7360e11b8152600481018490529091506000906001600160a01b0383169063371fd8e6906024016020604051808303816000875af1158015610770573d6000803e3d6000fd5b505050506040513d601f19601f820116820180604052508101906107949190611a5e565b9050803411156108335760006107aa8234611a8d565b604051632e1a7d4d60e01b8152600481018290529091507f00000000000000000000000000000000000000000000000000000000000000006001600160a01b031690632e1a7d4d90602401600060405180830381600087803b15801561080f57600080fd5b505af1158015610823573d6000803e3d6000fd5b505050506108313382611241565b505b505050565b6000546001600160a01b031633146108625760405162461bcd60e51b815260040161015b90611aa4565b60007f00000000000000000000000000000000000000000000000000000000000000006001600160a01b0316631755ff216040518163ffffffff1660e01b8152600401602060405180830381865afa1580156108c2573d6000803e3d6000fd5b505050506040513d601f19601f820116820180604052508101906108e69190611933565b905060005b828110156108315783838281811061090557610905611ad9565b905060200201602081019061091a91906118a8565b60405163a22cb46560e01b81526001600160a01b03848116600483015260016024830152919091169063a22cb46590604401600060405180830381600087803b15801561096657600080fd5b505af115801561097a573d6000803e3d6000fd5b50505050808061098990611aef565b9150506108eb565b6000546001600160a01b031633146109bb5760405162461bcd60e51b815260040161015b90611aa4565b6109c560006112f4565b565b7f00000000000000000000000000000000000000000000000000000000000000006001600160a01b031663d0e30db0346040518263ffffffff1660e01b81526004016000604051808303818588803b158015610a2257600080fd5b505af1158015610a36573d6000803e3d6000fd5b50505050507f00000000000000000000000000000000000000000000000000000000000000006001600160a01b0316631755ff216040518163ffffffff1660e01b8152600401602060405180830381865afa158015610a99573d6000803e3d6000fd5b505050506040513d601f19601f82011682018060405250810190610abd9190611933565b60405163e78f094960e01b8152600481018590523460248201526001600160a01b03848116604483015261ffff84166064830152919091169063e78f094990608401600060405180830381600087803b158015610b1957600080fd5b505af1158015610622573d6000803e3d6000fd5b6000546001600160a01b03163314610b575760405162461bcd60e51b815260040161015b90611aa4565b6108336001600160a01b0384168383611344565b7f00000000000000000000000000000000000000000000000000000000000000006001600160a01b031663d0e30db0346040518263ffffffff1660e01b81526004016000604051808303818588803b158015610bc657600080fd5b505af1158015610bda573d6000803e3d6000fd5b505050505060007f00000000000000000000000000000000000000000000000000000000000000006001600160a01b0316631755ff216040518163ffffffff1660e01b8152600401602060405180830381865afa158015610c3f573d6000803e3d6000fd5b505050506040513d601f19601f82011682018060405250810190610c639190611933565b90506000806001600160a01b0383166367113ef6878787336040516001600160e01b031960e087901b1681526004810194909452602484019290925260448301526001600160a01b0316606482015260840160408051808303816000875af1158015610cd3573d6000803e3d6000fd5b505050506040513d601f19601f82011682018060405250810190610cf79190611b0a565b91509150600082341115610d1c57610d0f8334611a8d565b610d199082611b2e565b90505b8115610d2f57610d2c8282611b2e565b90505b801561062257604051632e1a7d4d60e01b8152600481018290527f00000000000000000000000000000000000000000000000000000000000000006001600160a01b031690632e1a7d4d90602401600060405180830381600087803b158015610d9757600080fd5b505af1158015610dab573d6000803e3d6000fd5b505050506106223382611241565b6000546001600160a01b03163314610de35760405162461bcd60e51b815260040161015b90611aa4565b610ded8282611241565b5050565b6000546001600160a01b03163314610e1b5760405162461bcd60e51b815260040161015b90611aa4565b60007f00000000000000000000000000000000000000000000000000000000000000006001600160a01b0316631755ff216040518163ffffffff1660e01b8152600401602060405180830381865afa158015610e7b573d6000803e3d6000fd5b505050506040513d601f19601f82011682018060405250810190610e9f9190611933565b60405163095ea7b360e01b81526001600160a01b03808316600483015260001960248301529192507f00000000000000000000000000000000000000000000000000000000000000009091169063095ea7b3906044016020604051808303816000875af1158015610f14573d6000803e3d6000fd5b505050506040513d601f19601f82011682018060405250810190610ded9190611b46565b6000546001600160a01b03163314610f625760405162461bcd60e51b815260040161015b90611aa4565b6001600160a01b038116610fc75760405162461bcd60e51b815260206004820152602660248201527f4f776e61626c653a206e6577206f776e657220697320746865207a65726f206160448201526564647265737360d01b606482015260840161015b565b610fd0816112f4565b50565b604051632142170760e11b8152336004820152306024820152604481018390526001600160a01b038416906342842e0e90606401600060405180830381600087803b15801561102157600080fd5b505af1158015611035573d6000803e3d6000fd5b5050505060007f00000000000000000000000000000000000000000000000000000000000000006001600160a01b0316631755ff216040518163ffffffff1660e01b8152600401602060405180830381865afa158015611099573d6000803e3d6000fd5b505050506040513d601f19601f820116820180604052508101906110bd9190611933565b60405163f668a9c560e01b81526004810189905260248101889052604481018790526001600160a01b0386811660648301526084820186905284811660a48301529192509082169063f668a9c59060c4016020604051808303816000875af115801561112d573d6000803e3d6000fd5b505050506040513d601f19601f820116820180604052508101906111519190611a5e565b50604051632e1a7d4d60e01b8152600481018790527f00000000000000000000000000000000000000000000000000000000000000006001600160a01b031690632e1a7d4d90602401600060405180830381600087803b1580156111b457600080fd5b505af11580156111c8573d6000803e3d6000fd5b505050506106228287611241565b6040516001600160a01b03808516602483015283166044820152606481018290526108319085906323b872dd60e01b906084015b60408051601f198184030181529190526020810180516001600160e01b03166001600160e01b031990931692909217909152611374565b604080516000808252602082019092526001600160a01b03841690839060405161126b9190611b8d565b60006040518083038185875af1925050503d80600081146112a8576040519150601f19603f3d011682016040523d82523d6000602084013e6112ad565b606091505b50509050806108335760405162461bcd60e51b815260206004820152601360248201527211551217d514905394d1915497d19052531151606a1b604482015260640161015b565b600080546001600160a01b038381166001600160a01b0319831681178455604051919092169283917f8be0079c531659141344cd1fd0a4f28419497f9722a3daafe3b4186f6b6457e09190a35050565b6040516001600160a01b03831660248201526044810182905261083390849063a9059cbb60e01b9060640161120a565b60006113c9826040518060400160405280602081526020017f5361666545524332303a206c6f772d6c6576656c2063616c6c206661696c6564815250856001600160a01b03166114469092919063ffffffff16565b80519091501561083357808060200190518101906113e79190611b46565b6108335760405162461bcd60e51b815260206004820152602a60248201527f5361666545524332303a204552433230206f7065726174696f6e20646964206e6044820152691bdd081cdd58d8d9595960b21b606482015260840161015b565b6060611455848460008561145f565b90505b9392505050565b6060824710156114c05760405162461bcd60e51b815260206004820152602660248201527f416464726573733a20696e73756666696369656e742062616c616e636520666f6044820152651c8818d85b1b60d21b606482015260840161015b565b843b61150e5760405162461bcd60e51b815260206004820152601d60248201527f416464726573733a2063616c6c20746f206e6f6e2d636f6e7472616374000000604482015260640161015b565b600080866001600160a01b0316858760405161152a9190611b8d565b60006040518083038185875af1925050503d8060008114611567576040519150601f19603f3d011682016040523d82523d6000602084013e61156c565b606091505b509150915061157c828286611587565b979650505050505050565b60608315611596575081611458565b8251156115a65782518084602001fd5b8160405162461bcd60e51b815260040161015b9190611ba9565b6001600160a01b0381168114610fd057600080fd5b6000806000606084860312156115ea57600080fd5b83359250602084013591506040840135611603816115c0565b809150509250925092565b634e487b7160e01b600052604160045260246000fd5b604051610180810167ffffffffffffffff811182821017156116485761164861160e565b60405290565b604051601f8201601f1916810167ffffffffffffffff811182821017156116775761167761160e565b604052919050565b6000806000806080858703121561169557600080fd5b84356116a0816115c0565b93506020858101356116b1816115c0565b935060408601359250606086013567ffffffffffffffff808211156116d557600080fd5b818801915088601f8301126116e957600080fd5b8135818111156116fb576116fb61160e565b61170d601f8201601f1916850161164e565b9150808252898482850101111561172357600080fd5b808484018584013760008482840101525080935050505092959194509250565b60006020828403121561175557600080fd5b5035919050565b6000806020838503121561176f57600080fd5b823567ffffffffffffffff8082111561178757600080fd5b818501915085601f83011261179b57600080fd5b8135818111156117aa57600080fd5b8660208260051b85010111156117bf57600080fd5b60209290920196919550909350505050565b6000806000606084860312156117e657600080fd5b8335925060208401356117f8816115c0565b9150604084013561ffff8116811461160357600080fd5b60008060006060848603121561182457600080fd5b833561182f816115c0565b9250602084013561183f816115c0565b929592945050506040919091013590565b60008060006060848603121561186557600080fd5b505081359360208301359350604090920135919050565b6000806040838503121561188f57600080fd5b823561189a816115c0565b946020939093013593505050565b6000602082840312156118ba57600080fd5b8135611458816115c0565b60008060008060008060c087890312156118de57600080fd5b86359550602087013594506040870135935060608701356118fe816115c0565b92506080870135915060a0870135611915816115c0565b809150509295509295509295565b805161192e816115c0565b919050565b60006020828403121561194557600080fd5b8151611458816115c0565b80516fffffffffffffffffffffffffffffffff8116811461192e57600080fd5b805164ffffffffff8116811461192e57600080fd5b8051801515811461192e57600080fd5b600061018082840312156119a857600080fd5b6119b0611624565b825181526119c060208401611923565b60208201526119d160408401611923565b60408201526119e260608401611923565b60608201526119f360808401611950565b608082015260a083015160a082015260c083015160c0820152611a1860e08401611970565b60e08201526101008381015190820152610120611a36818501611923565b908201526101408381015190820152610160611a53818501611985565b908201529392505050565b600060208284031215611a7057600080fd5b5051919050565b634e487b7160e01b600052601160045260246000fd5b600082821015611a9f57611a9f611a77565b500390565b6020808252818101527f4f776e61626c653a2063616c6c6572206973206e6f7420746865206f776e6572604082015260600190565b634e487b7160e01b600052603260045260246000fd5b6000600019821415611b0357611b03611a77565b5060010190565b60008060408385031215611b1d57600080fd5b505080516020909101519092909150565b60008219821115611b4157611b41611a77565b500190565b600060208284031215611b5857600080fd5b61145882611985565b60005b83811015611b7c578181015183820152602001611b64565b838111156108315750506000910152565b60008251611b9f818460208701611b61565b9190910192915050565b6020815260008251806020840152611bc8816040850160208701611b61565b601f01601f1916919091016040019291505056fea26469706673582212209822b0de2fa660ff644a85cf66b5414eec72cbf0e6b8f2f7c3c9585abed12f1b64736f6c634300080a0033",
  "devdoc": {
    "kind": "dev",
    "methods": {
      "borrow(uint256,uint256,uint256,address,uint256,address)": {
        "details": "Borrows ETH from reserve using an NFT as collateral and will receive a loan NFT as receipt.",
        "params": {
          "amount": "amount of ETH user will borrow",
          "duration": "The desired duration of the loan",
          "nftAddress": "The collateral NFT address",
          "onBehalfOf": "address of the user who will receive ETH and loan NFT.",
          "reserveId": "The ID of the reserve",
          "tokenId": "The ID of the NFT"
        }
      },
      "constructor": {
        "details": "Sets the WETH address and the OpenSkySettings address. Infinite approves OpenSky pool.",
        "params": {
          "weth": "Address of the Wrapped Ether contract*"
        }
      },
      "deposit(uint256,address,uint16)": {
        "details": "deposits WETH into the reserve, using native ETH. A corresponding amount of the overlying asset (aTokens) is minted.",
        "params": {
          "onBehalfOf": "address of the user who will receive the aTokens representing the deposit",
          "referralCode": "integrators are assigned a referral code and can potentially receive rewards.*",
          "reserveId": "address of the targeted underlying lending pool"
        }
      },
      "emergencyEtherTransfer(address,uint256)": {
        "details": "transfer native Ether from the utility contract, for native Ether recovery in case of stuck Ether due selfdestructs or transfer ether to pre-computated contract address before deployment.",
        "params": {
          "amount": "amount to send",
          "to": "recipient of the transfer"
        }
      },
      "emergencyTokenTransfer(address,address,uint256)": {
        "details": "transfer ERC20 from the utility contract, for ERC20 recovery in case of stuck tokens due direct transfers to the contract address.",
        "params": {
          "amount": "amount to send",
          "to": "recipient of the transfer",
          "token": "token to transfer"
        }
      },
      "onERC721Received(address,address,uint256,bytes)": {
        "details": "See {IERC721Receiver-onERC721Received}. Always returns `IERC721Receiver.onERC721Received.selector`."
      },
      "owner()": {
        "details": "Returns the address of the current owner."
      },
      "renounceOwnership()": {
        "details": "Leaves the contract without owner. It will not be possible to call `onlyOwner` functions anymore. Can only be called by the current owner. NOTE: Renouncing ownership will leave the contract without an owner, thereby removing any functionality that is only available to the owner."
      },
      "repay(uint256)": {
        "details": "repays a borrow on the WETH reserve, for the specified amount (or for the whole amount, if uint256(-1) is specified).",
        "params": {
          "loanId": "the id of reserve"
        }
      },
      "transferOwnership(address)": {
        "details": "Transfers ownership of the contract to a new account (`newOwner`). Can only be called by the current owner."
      },
      "withdraw(uint256,uint256,address)": {
        "details": "withdraws the WETH _reserves of msg.sender.",
        "params": {
          "amount": "amount of aWETH to withdraw and receive native ETH",
          "onBehalfOf": "address of the user who will receive native ETH",
          "reserveId": "address of the targeted underlying lending pool"
        }
      }
    },
    "version": 1
  },
  "userdoc": {
    "kind": "user",
    "methods": {},
    "version": 1
  },
  "storageLayout": {
    "storage": [
      {
        "astId": 387,
        "contract": "contracts/misc/OpenSkyWETHGateway.sol:OpenSkyWETHGateway",
        "label": "_owner",
        "offset": 0,
        "slot": "0",
        "type": "t_address"
      }
    ],
    "types": {
      "t_address": {
        "encoding": "inplace",
        "label": "address",
        "numberOfBytes": "20"
      }
    }
  }
}