{
  "address": "0x12D182BE71BF456353FBc3aeFdae4C98465D9ef5",
  "abi": [
    {
      "inputs": [
        {
          "internalType": "address",
          "name": "_ACLManagerAddress",
          "type": "address"
        }
      ],
      "stateMutability": "nonpayable",
      "type": "constructor"
    },
    {
      "anonymous": false,
      "inputs": [
        {
          "indexed": false,
          "internalType": "address",
          "name": "operator",
          "type": "address"
        },
        {
          "indexed": false,
          "internalType": "address",
          "name": "address_",
          "type": "address"
        }
      ],
      "name": "AddLiquidator",
      "type": "event"
    },
    {
      "anonymous": false,
      "inputs": [
        {
          "indexed": false,
          "internalType": "address",
          "name": "operator",
          "type": "address"
        },
        {
          "indexed": false,
          "internalType": "uint256",
          "name": "reserveId",
          "type": "uint256"
        },
        {
          "indexed": false,
          "internalType": "address",
          "name": "nft",
          "type": "address"
        }
      ],
      "name": "AddToWhitelist",
      "type": "event"
    },
    {
      "anonymous": false,
      "inputs": [
        {
          "indexed": false,
          "internalType": "address",
          "name": "operator",
          "type": "address"
        },
        {
          "indexed": false,
          "internalType": "address",
          "name": "address_",
          "type": "address"
        }
      ],
      "name": "InitDaoVaultAddress",
      "type": "event"
    },
    {
      "anonymous": false,
      "inputs": [
        {
          "indexed": false,
          "internalType": "address",
          "name": "operator",
          "type": "address"
        },
        {
          "indexed": false,
          "internalType": "address",
          "name": "address_",
          "type": "address"
        }
      ],
      "name": "InitIncentiveControllerAddress",
      "type": "event"
    },
    {
      "anonymous": false,
      "inputs": [
        {
          "indexed": false,
          "internalType": "address",
          "name": "operator",
          "type": "address"
        },
        {
          "indexed": false,
          "internalType": "address",
          "name": "address_",
          "type": "address"
        }
      ],
      "name": "InitLoanAddress",
      "type": "event"
    },
    {
      "anonymous": false,
      "inputs": [
        {
          "indexed": false,
          "internalType": "address",
          "name": "operator",
          "type": "address"
        },
        {
          "indexed": false,
          "internalType": "address",
          "name": "address_",
          "type": "address"
        }
      ],
      "name": "InitPoolAddress",
      "type": "event"
    },
    {
      "anonymous": false,
      "inputs": [
        {
          "indexed": false,
          "internalType": "address",
          "name": "operator",
          "type": "address"
        },
        {
          "indexed": false,
          "internalType": "address",
          "name": "address_",
          "type": "address"
        }
      ],
      "name": "InitPunkGatewayAddress",
      "type": "event"
    },
    {
      "anonymous": false,
      "inputs": [
        {
          "indexed": false,
          "internalType": "address",
          "name": "operator",
          "type": "address"
        },
        {
          "indexed": false,
          "internalType": "address",
          "name": "address_",
          "type": "address"
        }
      ],
      "name": "InitVaultFactoryAddress",
      "type": "event"
    },
    {
      "anonymous": false,
      "inputs": [
        {
          "indexed": false,
          "internalType": "address",
          "name": "operator",
          "type": "address"
        },
        {
          "indexed": false,
          "internalType": "address",
          "name": "address_",
          "type": "address"
        }
      ],
      "name": "InitWETHGatewayAddress",
      "type": "event"
    },
    {
      "anonymous": false,
      "inputs": [
        {
          "indexed": true,
          "internalType": "address",
          "name": "previousOwner",
          "type": "address"
        },
        {
          "indexed": true,
          "internalType": "address",
          "name": "newOwner",
          "type": "address"
        }
      ],
      "name": "OwnershipTransferred",
      "type": "event"
    },
    {
      "anonymous": false,
      "inputs": [
        {
          "indexed": false,
          "internalType": "address",
          "name": "operator",
          "type": "address"
        },
        {
          "indexed": false,
          "internalType": "uint256",
          "name": "reserveId",
          "type": "uint256"
        },
        {
          "indexed": false,
          "internalType": "address",
          "name": "nft",
          "type": "address"
        }
      ],
      "name": "RemoveFromWhitelist",
      "type": "event"
    },
    {
      "anonymous": false,
      "inputs": [
        {
          "indexed": false,
          "internalType": "address",
          "name": "operator",
          "type": "address"
        },
        {
          "indexed": false,
          "internalType": "address",
          "name": "address_",
          "type": "address"
        }
      ],
      "name": "RemoveLiquidator",
      "type": "event"
    },
    {
      "anonymous": false,
      "inputs": [
        {
          "indexed": false,
          "internalType": "address",
          "name": "operator",
          "type": "address"
        },
        {
          "indexed": false,
          "internalType": "address",
          "name": "address_",
          "type": "address"
        }
      ],
      "name": "SetACLManagerAddress",
      "type": "event"
    },
    {
      "anonymous": false,
      "inputs": [
        {
          "indexed": false,
          "internalType": "address",
          "name": "operator",
          "type": "address"
        },
        {
          "indexed": false,
          "internalType": "address",
          "name": "address_",
          "type": "address"
        }
      ],
      "name": "SetInterestRateStrategyAddress",
      "type": "event"
    },
    {
      "anonymous": false,
      "inputs": [
        {
          "indexed": false,
          "internalType": "address",
          "name": "operator",
          "type": "address"
        },
        {
          "indexed": false,
          "internalType": "address",
          "name": "address_",
          "type": "address"
        }
      ],
      "name": "SetLoanDescriptorAddress",
      "type": "event"
    },
    {
      "anonymous": false,
      "inputs": [
        {
          "indexed": false,
          "internalType": "address",
          "name": "operator",
          "type": "address"
        },
        {
          "indexed": false,
          "internalType": "address",
          "name": "address_",
          "type": "address"
        }
      ],
      "name": "SetMoneyMarketAddress",
      "type": "event"
    },
    {
      "anonymous": false,
      "inputs": [
        {
          "indexed": false,
          "internalType": "address",
          "name": "operator",
          "type": "address"
        },
        {
          "indexed": false,
          "internalType": "address",
          "name": "address_",
          "type": "address"
        }
      ],
      "name": "SetNftPriceOracleAddress",
      "type": "event"
    },
    {
      "anonymous": false,
      "inputs": [
        {
          "indexed": false,
          "internalType": "address",
          "name": "operator",
          "type": "address"
        },
        {
          "indexed": false,
          "internalType": "uint256",
          "name": "factor",
          "type": "uint256"
        }
      ],
      "name": "SetOverdueLoanFeeFactor",
      "type": "event"
    },
    {
      "anonymous": false,
      "inputs": [
        {
          "indexed": false,
          "internalType": "address",
          "name": "operator",
          "type": "address"
        },
        {
          "indexed": false,
          "internalType": "uint256",
          "name": "factor",
          "type": "uint256"
        }
      ],
      "name": "SetPrepaymentFeeFactor",
      "type": "event"
    },
    {
      "anonymous": false,
      "inputs": [
        {
          "indexed": false,
          "internalType": "address",
          "name": "operator",
          "type": "address"
        },
        {
          "indexed": false,
          "internalType": "uint256",
          "name": "factor",
          "type": "uint256"
        }
      ],
      "name": "SetReserveFactor",
      "type": "event"
    },
    {
      "anonymous": false,
      "inputs": [
        {
          "indexed": false,
          "internalType": "address",
          "name": "operator",
          "type": "address"
        },
        {
          "indexed": false,
          "internalType": "address",
          "name": "address_",
          "type": "address"
        }
      ],
      "name": "SetTreasuryAddress",
      "type": "event"
    },
    {
      "inputs": [],
      "name": "ACLManagerAddress",
      "outputs": [
        {
          "internalType": "address",
          "name": "",
          "type": "address"
        }
      ],
      "stateMutability": "view",
      "type": "function"
    },
    {
      "inputs": [],
      "name": "MAX_RESERVE_FACTOR",
      "outputs": [
        {
          "internalType": "uint256",
          "name": "",
          "type": "uint256"
        }
      ],
      "stateMutability": "view",
      "type": "function"
    },
    {
      "inputs": [
        {
          "internalType": "address",
          "name": "address_",
          "type": "address"
        }
      ],
      "name": "addLiquidator",
      "outputs": [],
      "stateMutability": "nonpayable",
      "type": "function"
    },
    {
      "inputs": [
        {
          "internalType": "uint256",
          "name": "reserveId",
          "type": "uint256"
        },
        {
          "internalType": "address",
          "name": "nft",
          "type": "address"
        },
        {
          "internalType": "string",
          "name": "name",
          "type": "string"
        },
        {
          "internalType": "string",
          "name": "symbol",
          "type": "string"
        },
        {
          "internalType": "uint256",
          "name": "LTV",
          "type": "uint256"
        },
        {
          "internalType": "uint256",
          "name": "minBorrowDuration",
          "type": "uint256"
        },
        {
          "internalType": "uint256",
          "name": "maxBorrowDuration",
          "type": "uint256"
        },
        {
          "internalType": "uint256",
          "name": "extendableDuration",
          "type": "uint256"
        },
        {
          "internalType": "uint256",
          "name": "overdueDuration",
          "type": "uint256"
        }
      ],
      "name": "addToWhitelist",
      "outputs": [],
      "stateMutability": "nonpayable",
      "type": "function"
    },
    {
      "inputs": [],
      "name": "daoVaultAddress",
      "outputs": [
        {
          "internalType": "address",
          "name": "",
          "type": "address"
        }
      ],
      "stateMutability": "view",
      "type": "function"
    },
    {
      "inputs": [
        {
          "internalType": "uint256",
          "name": "reserveId",
          "type": "uint256"
        },
        {
          "internalType": "address",
          "name": "nft",
          "type": "address"
        }
      ],
      "name": "getWhitelistDetail",
      "outputs": [
        {
          "components": [
            {
              "internalType": "bool",
              "name": "enabled",
              "type": "bool"
            },
            {
              "internalType": "string",
              "name": "name",
              "type": "string"
            },
            {
              "internalType": "string",
              "name": "symbol",
              "type": "string"
            },
            {
              "internalType": "uint256",
              "name": "LTV",
              "type": "uint256"
            },
            {
              "internalType": "uint256",
              "name": "minBorrowDuration",
              "type": "uint256"
            },
            {
              "internalType": "uint256",
              "name": "maxBorrowDuration",
              "type": "uint256"
            },
            {
              "internalType": "uint256",
              "name": "extendableDuration",
              "type": "uint256"
            },
            {
              "internalType": "uint256",
              "name": "overdueDuration",
              "type": "uint256"
            }
          ],
          "internalType": "struct DataTypes.WhitelistInfo",
          "name": "",
          "type": "tuple"
        }
      ],
      "stateMutability": "view",
      "type": "function"
    },
    {
      "inputs": [
        {
          "internalType": "uint256",
          "name": "reserveId",
          "type": "uint256"
        },
        {
          "internalType": "address",
          "name": "nft",
          "type": "address"
        }
      ],
      "name": "inWhitelist",
      "outputs": [
        {
          "internalType": "bool",
          "name": "",
          "type": "bool"
        }
      ],
      "stateMutability": "view",
      "type": "function"
    },
    {
      "inputs": [],
      "name": "incentiveControllerAddress",
      "outputs": [
        {
          "internalType": "address",
          "name": "",
          "type": "address"
        }
      ],
      "stateMutability": "view",
      "type": "function"
    },
    {
      "inputs": [
        {
          "internalType": "address",
          "name": "address_",
          "type": "address"
        }
      ],
      "name": "initDaoVaultAddress",
      "outputs": [],
      "stateMutability": "nonpayable",
      "type": "function"
    },
    {
      "inputs": [
        {
          "internalType": "address",
          "name": "address_",
          "type": "address"
        }
      ],
      "name": "initIncentiveControllerAddress",
      "outputs": [],
      "stateMutability": "nonpayable",
      "type": "function"
    },
    {
      "inputs": [
        {
          "internalType": "address",
          "name": "address_",
          "type": "address"
        }
      ],
      "name": "initLoanAddress",
      "outputs": [],
      "stateMutability": "nonpayable",
      "type": "function"
    },
    {
      "inputs": [
        {
          "internalType": "address",
          "name": "address_",
          "type": "address"
        }
      ],
      "name": "initPoolAddress",
      "outputs": [],
      "stateMutability": "nonpayable",
      "type": "function"
    },
    {
      "inputs": [
        {
          "internalType": "address",
          "name": "address_",
          "type": "address"
        }
      ],
      "name": "initPunkGatewayAddress",
      "outputs": [],
      "stateMutability": "nonpayable",
      "type": "function"
    },
    {
      "inputs": [
        {
          "internalType": "address",
          "name": "address_",
          "type": "address"
        }
      ],
      "name": "initVaultFactoryAddress",
      "outputs": [],
      "stateMutability": "nonpayable",
      "type": "function"
    },
    {
      "inputs": [
        {
          "internalType": "address",
          "name": "address_",
          "type": "address"
        }
      ],
      "name": "initWETHGatewayAddress",
      "outputs": [],
      "stateMutability": "nonpayable",
      "type": "function"
    },
    {
      "inputs": [],
      "name": "interestRateStrategyAddress",
      "outputs": [
        {
          "internalType": "address",
          "name": "",
          "type": "address"
        }
      ],
      "stateMutability": "view",
      "type": "function"
    },
    {
      "inputs": [
        {
          "internalType": "address",
          "name": "address_",
          "type": "address"
        }
      ],
      "name": "isLiquidator",
      "outputs": [
        {
          "internalType": "bool",
          "name": "",
          "type": "bool"
        }
      ],
      "stateMutability": "view",
      "type": "function"
    },
    {
      "inputs": [],
      "name": "loanAddress",
      "outputs": [
        {
          "internalType": "address",
          "name": "",
          "type": "address"
        }
      ],
      "stateMutability": "view",
      "type": "function"
    },
    {
      "inputs": [],
      "name": "loanDescriptorAddress",
      "outputs": [
        {
          "internalType": "address",
          "name": "",
          "type": "address"
        }
      ],
      "stateMutability": "view",
      "type": "function"
    },
    {
      "inputs": [],
      "name": "moneyMarketAddress",
      "outputs": [
        {
          "internalType": "address",
          "name": "",
          "type": "address"
        }
      ],
      "stateMutability": "view",
      "type": "function"
    },
    {
      "inputs": [],
      "name": "nftPriceOracleAddress",
      "outputs": [
        {
          "internalType": "address",
          "name": "",
          "type": "address"
        }
      ],
      "stateMutability": "view",
      "type": "function"
    },
    {
      "inputs": [],
      "name": "overdueLoanFeeFactor",
      "outputs": [
        {
          "internalType": "uint256",
          "name": "",
          "type": "uint256"
        }
      ],
      "stateMutability": "view",
      "type": "function"
    },
    {
      "inputs": [],
      "name": "owner",
      "outputs": [
        {
          "internalType": "address",
          "name": "",
          "type": "address"
        }
      ],
      "stateMutability": "view",
      "type": "function"
    },
    {
      "inputs": [],
      "name": "poolAddress",
      "outputs": [
        {
          "internalType": "address",
          "name": "",
          "type": "address"
        }
      ],
      "stateMutability": "view",
      "type": "function"
    },
    {
      "inputs": [],
      "name": "prepaymentFeeFactor",
      "outputs": [
        {
          "internalType": "uint256",
          "name": "",
          "type": "uint256"
        }
      ],
      "stateMutability": "view",
      "type": "function"
    },
    {
      "inputs": [],
      "name": "punkGatewayAddress",
      "outputs": [
        {
          "internalType": "address",
          "name": "",
          "type": "address"
        }
      ],
      "stateMutability": "view",
      "type": "function"
    },
    {
      "inputs": [
        {
          "internalType": "uint256",
          "name": "reserveId",
          "type": "uint256"
        },
        {
          "internalType": "address",
          "name": "nft",
          "type": "address"
        }
      ],
      "name": "removeFromWhitelist",
      "outputs": [],
      "stateMutability": "nonpayable",
      "type": "function"
    },
    {
      "inputs": [
        {
          "internalType": "address",
          "name": "address_",
          "type": "address"
        }
      ],
      "name": "removeLiquidator",
      "outputs": [],
      "stateMutability": "nonpayable",
      "type": "function"
    },
    {
      "inputs": [],
      "name": "renounceOwnership",
      "outputs": [],
      "stateMutability": "nonpayable",
      "type": "function"
    },
    {
      "inputs": [],
      "name": "reserveFactor",
      "outputs": [
        {
          "internalType": "uint256",
          "name": "",
          "type": "uint256"
        }
      ],
      "stateMutability": "view",
      "type": "function"
    },
    {
      "inputs": [
        {
          "internalType": "address",
          "name": "address_",
          "type": "address"
        }
      ],
      "name": "setInterestRateStrategyAddress",
      "outputs": [],
      "stateMutability": "nonpayable",
      "type": "function"
    },
    {
      "inputs": [
        {
          "internalType": "address",
          "name": "address_",
          "type": "address"
        }
      ],
      "name": "setLoanDescriptorAddress",
      "outputs": [],
      "stateMutability": "nonpayable",
      "type": "function"
    },
    {
      "inputs": [
        {
          "internalType": "address",
          "name": "address_",
          "type": "address"
        }
      ],
      "name": "setMoneyMarketAddress",
      "outputs": [],
      "stateMutability": "nonpayable",
      "type": "function"
    },
    {
      "inputs": [
        {
          "internalType": "address",
          "name": "address_",
          "type": "address"
        }
      ],
      "name": "setNftPriceOracleAddress",
      "outputs": [],
      "stateMutability": "nonpayable",
      "type": "function"
    },
    {
      "inputs": [
        {
          "internalType": "uint256",
          "name": "factor",
          "type": "uint256"
        }
      ],
      "name": "setOverdueLoanFeeFactor",
      "outputs": [],
      "stateMutability": "nonpayable",
      "type": "function"
    },
    {
      "inputs": [
        {
          "internalType": "uint256",
          "name": "factor",
          "type": "uint256"
        }
      ],
      "name": "setPrepaymentFeeFactor",
      "outputs": [],
      "stateMutability": "nonpayable",
      "type": "function"
    },
    {
      "inputs": [
        {
          "internalType": "uint256",
          "name": "factor",
          "type": "uint256"
        }
      ],
      "name": "setReserveFactor",
      "outputs": [],
      "stateMutability": "nonpayable",
      "type": "function"
    },
    {
      "inputs": [
        {
          "internalType": "address",
          "name": "address_",
          "type": "address"
        }
      ],
      "name": "setTreasuryAddress",
      "outputs": [],
      "stateMutability": "nonpayable",
      "type": "function"
    },
    {
      "inputs": [
        {
          "internalType": "address",
          "name": "newOwner",
          "type": "address"
        }
      ],
      "name": "transferOwnership",
      "outputs": [],
      "stateMutability": "nonpayable",
      "type": "function"
    },
    {
      "inputs": [],
      "name": "treasuryAddress",
      "outputs": [
        {
          "internalType": "address",
          "name": "",
          "type": "address"
        }
      ],
      "stateMutability": "view",
      "type": "function"
    },
    {
      "inputs": [],
      "name": "vaultFactoryAddress",
      "outputs": [
        {
          "internalType": "address",
          "name": "",
          "type": "address"
        }
      ],
      "stateMutability": "view",
      "type": "function"
    },
    {
      "inputs": [],
      "name": "wethGatewayAddress",
      "outputs": [
        {
          "internalType": "address",
          "name": "",
          "type": "address"
        }
      ],
      "stateMutability": "view",
      "type": "function"
    }
  ],
  "transactionHash": "0x8d4a051ca9ec6da1fcf6e62f5f6da019a7d7b2455d6b4a684578cf722db5b852",
  "args": [
    "0x90969Db57beb3510E6200bC35dDEb0fC766e2DA3"
  ],
  "solcInputHash": "597fe0c822de038e67f456c392a88115",
  "bytecode": "0x60a06040526107d0600f55600060105560646011553480156200002157600080fd5b506040516200229f3803806200229f8339810160408190526200004491620000b1565b6200004f3362000061565b6001600160a01b0316608052620000e3565b600080546001600160a01b038381166001600160a01b0319831681178455604051919092169283917f8be0079c531659141344cd1fd0a4f28419497f9722a3daafe3b4186f6b6457e09190a35050565b600060208284031215620000c457600080fd5b81516001600160a01b0381168114620000dc57600080fd5b9392505050565b60805161214c62000153600039600081816104bb015281816105eb015281816107bb0152818161091b01528181610af001528181610c2401528181610e2f01528181610f63015281816111af015281816115e001528181611714015281816119650152611b5a015261214c6000f3fe608060405234801561001057600080fd5b506004361061025e5760003560e01c80638da5cb5b11610146578063ce87179f116100c3578063e17b740411610087578063e17b740414610577578063e8c3400b1461058a578063efb744001461059d578063efe3e3e3146105b0578063f2fde38b146105c3578063fea3e613146105d657600080fd5b8063ce87179f14610536578063d0cf1f781461053f578063d23a65cf14610552578063d633590a1461055b578063d7a5a9d31461056e57600080fd5b80639a9dbb991161010a5780639a9dbb99146104b65780639dce4299146104dd578063ab9b6da5146104fd578063bad2e60c14610510578063c5f956af1461052357600080fd5b80638da5cb5b146104595780638dcf86c71461046a57806390839e3f1461047d578063970f4c3a1461049057806397dfa0d1146104a357600080fd5b8063529a356f116101df5780636d6a723c116101a35780636d6a723c146103f25780636e3a05ff14610405578063715018a61461041857806379380038146104205780637fd6e95e1461043357806389cdd47d1461044657600080fd5b8063529a356f1461037a5780635fee6708146103a6578063616132af146103b957806361f1ce63146103cc5780636605bfda146103df57600080fd5b8063420897911161022657806342089791146102e15780634322b714146102f457806346296c691461030b5780634c4e7f6f146103545780634d5d78531461036757600080fd5b80631755ff21146102635780631c446983146102935780631c966987146102a857806335bc868a146102bb5780633d6a3844146102ce575b600080fd5b600354610276906001600160a01b031681565b6040516001600160a01b0390911681526020015b60405180910390f35b6102a66102a1366004611db1565b6105e9565b005b6102a66102b6366004611de6565b610718565b600454610276906001600160a01b031681565b600954610276906001600160a01b031681565b600554610276906001600160a01b031681565b6102fd600f5481565b60405190815260200161028a565b610344610319366004611e08565b60009182526001602090815260408084206001600160a01b0393909316845291905290205460ff1690565b604051901515815260200161028a565b6102a6610362366004611de6565b6107b9565b6102a6610375366004611de6565b610919565b610344610388366004611de6565b6001600160a01b031660009081526002602052604090205460ff1690565b600854610276906001600160a01b031681565b6102a66103c7366004611de6565b610a4d565b6102a66103da366004611de6565b610aee565b6102a66103ed366004611de6565b610c22565b600654610276906001600160a01b031681565b6102a6610413366004611de6565b610d56565b6102a6610df7565b6102a661042e366004611de6565b610e2d565b6102a6610441366004611ed7565b610f61565b6102a6610454366004611db1565b6111ad565b6000546001600160a01b0316610276565b6102a6610478366004611de6565b6112bc565b600e54610276906001600160a01b031681565b600d54610276906001600160a01b031681565b600c54610276906001600160a01b031681565b6102767f000000000000000000000000000000000000000000000000000000000000000081565b6104f06104eb366004611e08565b61135d565b60405161028a9190611fd0565b6102a661050b366004611de6565b61153d565b6102a661051e366004611de6565b6115de565b600b54610276906001600160a01b031681565b6102fd60105481565b6102a661054d366004611db1565b611712565b6102fd610bb881565b600754610276906001600160a01b031681565b6102fd60115481565b6102a6610585366004611de6565b611821565b6102a6610598366004611de6565b6118c2565b6102a66105ab366004611de6565b611963565b600a54610276906001600160a01b031681565b6102a66105d1366004611de6565b611abd565b6102a66105e4366004611e08565b611b58565b7f00000000000000000000000000000000000000000000000000000000000000006001600160a01b03811663dee1f0e4336040516001600160e01b031960e084901b1681526001600160a01b039091166004820152602401602060405180830381865afa15801561065e573d6000803e3d6000fd5b505050506040513d601f19601f820116820180604052508101906106829190612057565b6040518060400160405280600381526020016203230360ec1b815250906106c55760405162461bcd60e51b81526004016106bc9190612079565b60405180910390fd5b50610bb88211156106d557600080fd5b600f82905560408051338152602081018490527faec3b0dfb932ebcf519716c413557fafef520bf9d7a371d8ef50799927c70ff391015b60405180910390a15050565b6000546001600160a01b031633146107425760405162461bcd60e51b81526004016106bc9061208c565b6008546001600160a01b0316801561075957600080fd5b6001600160a01b03821661076c57600080fd5b600880546001600160a01b0319166001600160a01b0384161790556040517f0b7a3bfb39d270493197f76528d22ee7fec7a8f6641a345ded3b823d43b321099061070c90339085906120c1565b7f00000000000000000000000000000000000000000000000000000000000000006001600160a01b03811663dee1f0e4336040516001600160e01b031960e084901b1681526001600160a01b039091166004820152602401602060405180830381865afa15801561082e573d6000803e3d6000fd5b505050506040513d601f19601f820116820180604052508101906108529190612057565b6040518060400160405280600381526020016203230360ec1b8152509061088c5760405162461bcd60e51b81526004016106bc9190612079565b506001600160a01b0382166108a057600080fd5b6001600160a01b03821660009081526002602052604090205460ff16610915576001600160a01b03821660009081526002602052604090819020805460ff19166001179055517f3760e7da06f31ff5603c2d535353085d2065acd17d3d319263a9ada4c8012bcc9061070c90339085906120c1565b5050565b7f00000000000000000000000000000000000000000000000000000000000000006001600160a01b03811663dee1f0e4336040516001600160e01b031960e084901b1681526001600160a01b039091166004820152602401602060405180830381865afa15801561098e573d6000803e3d6000fd5b505050506040513d601f19601f820116820180604052508101906109b29190612057565b6040518060400160405280600381526020016203230360ec1b815250906109ec5760405162461bcd60e51b81526004016106bc9190612079565b506001600160a01b038216610a0057600080fd5b600a80546001600160a01b0319166001600160a01b0384161790556040517fade84c64161ab179b31f6347f1f6c2370b0b9e35205cd360fff7b0e9c88320959061070c90339085906120c1565b6000546001600160a01b03163314610a775760405162461bcd60e51b81526004016106bc9061208c565b6006546001600160a01b03168015610a8e57600080fd5b6001600160a01b038216610aa157600080fd5b600680546001600160a01b0319166001600160a01b0384161790556040517f11f20b92db6744078eb0c18672364cff6fdf227dbc6cc5918c30dd2ba538bf809061070c90339085906120c1565b7f00000000000000000000000000000000000000000000000000000000000000006001600160a01b03811663dee1f0e4336040516001600160e01b031960e084901b1681526001600160a01b039091166004820152602401602060405180830381865afa158015610b63573d6000803e3d6000fd5b505050506040513d601f19601f82011682018060405250810190610b879190612057565b6040518060400160405280600381526020016203230360ec1b81525090610bc15760405162461bcd60e51b81526004016106bc9190612079565b506001600160a01b038216610bd557600080fd5b600e80546001600160a01b0319166001600160a01b0384161790556040517f8ae2fc9d7793180dcc54372828b79d8d347e11a6204bddba90ffe2fefbf3a45b9061070c90339085906120c1565b7f00000000000000000000000000000000000000000000000000000000000000006001600160a01b03811663dee1f0e4336040516001600160e01b031960e084901b1681526001600160a01b039091166004820152602401602060405180830381865afa158015610c97573d6000803e3d6000fd5b505050506040513d601f19601f82011682018060405250810190610cbb9190612057565b6040518060400160405280600381526020016203230360ec1b81525090610cf55760405162461bcd60e51b81526004016106bc9190612079565b506001600160a01b038216610d0957600080fd5b600b80546001600160a01b0319166001600160a01b0384161790556040517f61885cdba916be748ff3e3f6f15e4206153b8ea3b7acabade9d04b4063a835109061070c90339085906120c1565b6000546001600160a01b03163314610d805760405162461bcd60e51b81526004016106bc9061208c565b6005546001600160a01b03168015610d9757600080fd5b6001600160a01b038216610daa57600080fd5b600580546001600160a01b0319166001600160a01b0384161790556040517f9ab3c5760425674448f5fc907a4011002c9478cb26b31ae268a0400bb603c67b9061070c90339085906120c1565b6000546001600160a01b03163314610e215760405162461bcd60e51b81526004016106bc9061208c565b610e2b6000611cc8565b565b7f00000000000000000000000000000000000000000000000000000000000000006001600160a01b03811663dee1f0e4336040516001600160e01b031960e084901b1681526001600160a01b039091166004820152602401602060405180830381865afa158015610ea2573d6000803e3d6000fd5b505050506040513d601f19601f82011682018060405250810190610ec69190612057565b6040518060400160405280600381526020016203230360ec1b81525090610f005760405162461bcd60e51b81526004016106bc9190612079565b506001600160a01b038216610f1457600080fd5b600c80546001600160a01b0319166001600160a01b0384161790556040517fc5c2d52985d8e0e38d9eb84f6886aca79638c04d053ff66a35cbcedc58dfa55d9061070c90339085906120c1565b7f00000000000000000000000000000000000000000000000000000000000000006001600160a01b03811663dee1f0e4336040516001600160e01b031960e084901b1681526001600160a01b039091166004820152602401602060405180830381865afa158015610fd6573d6000803e3d6000fd5b505050506040513d601f19601f82011682018060405250810190610ffa9190612057565b6040518060400160405280600381526020016203230360ec1b815250906110345760405162461bcd60e51b81526004016106bc9190612079565b5060008a11801561104d57506001600160a01b03891615155b61105657600080fd5b60405180610100016040528060011515815260200189815260200188815260200187815260200186815260200185815260200184815260200183815250600160008c815260200190815260200160002060008b6001600160a01b03166001600160a01b0316815260200190815260200160002060008201518160000160006101000a81548160ff0219169083151502179055506020820151816001019080519060200190611105929190611d18565b5060408201518051611121916002840191602090910190611d18565b5060608281015160038301556080830151600483015560a0830151600583015560c0830151600683015560e09092015160079091015560408051338152602081018d90526001600160a01b038c16918101919091527f32e7bdd0caf2ffa7433b24abeaa8da765ccac460b1c584c9b718c59b0ec56b9d910160405180910390a150505050505050505050565b7f00000000000000000000000000000000000000000000000000000000000000006001600160a01b03811663dee1f0e4336040516001600160e01b031960e084901b1681526001600160a01b039091166004820152602401602060405180830381865afa158015611222573d6000803e3d6000fd5b505050506040513d601f19601f820116820180604052508101906112469190612057565b6040518060400160405280600381526020016203230360ec1b815250906112805760405162461bcd60e51b81526004016106bc9190612079565b50601182905560408051338152602081018490527f7c711ee19f0c912a57665c93f4d4e5c0eadfe3547c2a7674d27e359ddcc0126e910161070c565b6000546001600160a01b031633146112e65760405162461bcd60e51b81526004016106bc9061208c565b6007546001600160a01b031680156112fd57600080fd5b6001600160a01b03821661131057600080fd5b600780546001600160a01b0319166001600160a01b0384161790556040517f7467a52675bb450a8aac4c82155c4a2068217cc3ed5cb94ec5de88b099bde1cc9061070c90339085906120c1565b6113a7604051806101000160405280600015158152602001606081526020016060815260200160008152602001600081526020016000815260200160008152602001600081525090565b60008381526001602081815260408084206001600160a01b038716855282529283902083516101008101909452805460ff16151584529182018054918401916113ef906120db565b80601f016020809104026020016040519081016040528092919081815260200182805461141b906120db565b80156114685780601f1061143d57610100808354040283529160200191611468565b820191906000526020600020905b81548152906001019060200180831161144b57829003601f168201915b50505050508152602001600282018054611481906120db565b80601f01602080910402602001604051908101604052809291908181526020018280546114ad906120db565b80156114fa5780601f106114cf576101008083540402835291602001916114fa565b820191906000526020600020905b8154815290600101906020018083116114dd57829003601f168201915b5050505050815260200160038201548152602001600482015481526020016005820154815260200160068201548152602001600782015481525050905092915050565b6000546001600160a01b031633146115675760405162461bcd60e51b81526004016106bc9061208c565b6003546001600160a01b0316801561157e57600080fd5b6001600160a01b03821661159157600080fd5b600380546001600160a01b0319166001600160a01b0384161790556040517f8d1ad6da1aa2e761965c5c3ff39a053a2182097a70a72f2d6e289fdc97eb55759061070c90339085906120c1565b7f00000000000000000000000000000000000000000000000000000000000000006001600160a01b03811663dee1f0e4336040516001600160e01b031960e084901b1681526001600160a01b039091166004820152602401602060405180830381865afa158015611653573d6000803e3d6000fd5b505050506040513d601f19601f820116820180604052508101906116779190612057565b6040518060400160405280600381526020016203230360ec1b815250906116b15760405162461bcd60e51b81526004016106bc9190612079565b506001600160a01b0382166116c557600080fd5b600d80546001600160a01b0319166001600160a01b0384161790556040517fb6b2ebc8274df9ba5f06827eaf0f57cd989858c0a9d8ada796c997713783b8a39061070c90339085906120c1565b7f00000000000000000000000000000000000000000000000000000000000000006001600160a01b03811663dee1f0e4336040516001600160e01b031960e084901b1681526001600160a01b039091166004820152602401602060405180830381865afa158015611787573d6000803e3d6000fd5b505050506040513d601f19601f820116820180604052508101906117ab9190612057565b6040518060400160405280600381526020016203230360ec1b815250906117e55760405162461bcd60e51b81526004016106bc9190612079565b50601082905560408051338152602081018490527fe24a3096e9789345a0c4af40c35735f55e9d4658eb8146d31a97ff7b5de963c0910161070c565b6000546001600160a01b0316331461184b5760405162461bcd60e51b81526004016106bc9061208c565b6009546001600160a01b0316801561186257600080fd5b6001600160a01b03821661187557600080fd5b600980546001600160a01b0319166001600160a01b0384161790556040517f47f677ce3d261a95b89ad560a9a8987dfa002e575bc1891a26ee46dc822c379b9061070c90339085906120c1565b6000546001600160a01b031633146118ec5760405162461bcd60e51b81526004016106bc9061208c565b6004546001600160a01b0316801561190357600080fd5b6001600160a01b03821661191657600080fd5b600480546001600160a01b0319166001600160a01b0384161790556040517f9604823ca2a8462263e820f8d51b7c6657d28dbe05e8772f2a5f7e910ca82abe9061070c90339085906120c1565b7f00000000000000000000000000000000000000000000000000000000000000006001600160a01b03811663dee1f0e4336040516001600160e01b031960e084901b1681526001600160a01b039091166004820152602401602060405180830381865afa1580156119d8573d6000803e3d6000fd5b505050506040513d601f19601f820116820180604052508101906119fc9190612057565b6040518060400160405280600381526020016203230360ec1b81525090611a365760405162461bcd60e51b81526004016106bc9190612079565b506001600160a01b038216611a4a57600080fd5b6001600160a01b03821660009081526002602052604090205460ff1615610915576001600160a01b03821660009081526002602052604090819020805460ff19169055517f8a89f839e075df5120850499917e87744c78036ca455ee0fe16c3d5ce0a4b5e09061070c90339085906120c1565b6000546001600160a01b03163314611ae75760405162461bcd60e51b81526004016106bc9061208c565b6001600160a01b038116611b4c5760405162461bcd60e51b815260206004820152602660248201527f4f776e61626c653a206e6577206f776e657220697320746865207a65726f206160448201526564647265737360d01b60648201526084016106bc565b611b5581611cc8565b50565b7f00000000000000000000000000000000000000000000000000000000000000006001600160a01b03811663dee1f0e4336040516001600160e01b031960e084901b1681526001600160a01b039091166004820152602401602060405180830381865afa158015611bcd573d6000803e3d6000fd5b505050506040513d601f19601f82011682018060405250810190611bf19190612057565b6040518060400160405280600381526020016203230360ec1b81525090611c2b5760405162461bcd60e51b81526004016106bc9190612079565b5060008381526001602090815260408083206001600160a01b038616845290915290205460ff1615611cc35760008381526001602090815260408083206001600160a01b03861680855290835292819020805460ff1916905580513381529182018690528101919091527f2d76bfcbbc75c3b84be47268af9150df9dd855d146070aed72f041c784371e7a9060600160405180910390a15b505050565b600080546001600160a01b038381166001600160a01b0319831681178455604051919092169283917f8be0079c531659141344cd1fd0a4f28419497f9722a3daafe3b4186f6b6457e09190a35050565b828054611d24906120db565b90600052602060002090601f016020900481019282611d465760008555611d8c565b82601f10611d5f57805160ff1916838001178555611d8c565b82800160010185558215611d8c579182015b82811115611d8c578251825591602001919060010190611d71565b50611d98929150611d9c565b5090565b5b80821115611d985760008155600101611d9d565b600060208284031215611dc357600080fd5b5035919050565b80356001600160a01b0381168114611de157600080fd5b919050565b600060208284031215611df857600080fd5b611e0182611dca565b9392505050565b60008060408385031215611e1b57600080fd5b82359150611e2b60208401611dca565b90509250929050565b634e487b7160e01b600052604160045260246000fd5b600082601f830112611e5b57600080fd5b813567ffffffffffffffff80821115611e7657611e76611e34565b604051601f8301601f19908116603f01168101908282118183101715611e9e57611e9e611e34565b81604052838152866020858801011115611eb757600080fd5b836020870160208301376000602085830101528094505050505092915050565b60008060008060008060008060006101208a8c031215611ef657600080fd5b89359850611f0660208b01611dca565b975060408a013567ffffffffffffffff80821115611f2357600080fd5b611f2f8d838e01611e4a565b985060608c0135915080821115611f4557600080fd5b50611f528c828d01611e4a565b999c989b50969960808101359860a0820135985060c0820135975060e0820135965061010090910135945092505050565b6000815180845260005b81811015611fa957602081850181015186830182015201611f8d565b81811115611fbb576000602083870101525b50601f01601f19169290920160200192915050565b6020815281511515602082015260006020830151610100806040850152611ffb610120850183611f83565b91506040850151601f198584030160608601526120188382611f83565b92505060608501516080850152608085015160a085015260a085015160c085015260c085015160e085015260e085015181850152508091505092915050565b60006020828403121561206957600080fd5b81518015158114611e0157600080fd5b602081526000611e016020830184611f83565b6020808252818101527f4f776e61626c653a2063616c6c6572206973206e6f7420746865206f776e6572604082015260600190565b6001600160a01b0392831681529116602082015260400190565b600181811c908216806120ef57607f821691505b6020821081141561211057634e487b7160e01b600052602260045260246000fd5b5091905056fea2646970667358221220c876259308e7a4968b7e481b1e42bfef10e7b0af5a128b0be8347524a141716d64736f6c634300080a0033",
  "devdoc": {
    "kind": "dev",
    "methods": {
      "owner()": {
        "details": "Returns the address of the current owner."
      },
      "renounceOwnership()": {
        "details": "Leaves the contract without owner. It will not be possible to call `onlyOwner` functions anymore. Can only be called by the current owner. NOTE: Renouncing ownership will leave the contract without an owner, thereby removing any functionality that is only available to the owner."
      },
      "transferOwnership(address)": {
        "details": "Transfers ownership of the contract to a new account (`newOwner`). Can only be called by the current owner."
      }
    },
    "version": 1
  },
  "userdoc": {
    "kind": "user",
    "methods": {},
    "version": 1
  },
  "storageLayout": {
    "storage": [
      {
        "astId": 387,
        "contract": "contracts/configuration/OpenSkySettings.sol:OpenSkySettings",
        "label": "_owner",
        "offset": 0,
        "slot": "0",
        "type": "t_address"
      },
      {
        "astId": 17003,
        "contract": "contracts/configuration/OpenSkySettings.sol:OpenSkySettings",
        "label": "_whitelist",
        "offset": 0,
        "slot": "1",
        "type": "t_mapping(t_uint256,t_mapping(t_address,t_struct(WhitelistInfo)21590_storage))"
      },
      {
        "astId": 17007,
        "contract": "contracts/configuration/OpenSkySettings.sol:OpenSkySettings",
        "label": "_liquidators",
        "offset": 0,
        "slot": "2",
        "type": "t_mapping(t_address,t_bool)"
      },
      {
        "astId": 17010,
        "contract": "contracts/configuration/OpenSkySettings.sol:OpenSkySettings",
        "label": "poolAddress",
        "offset": 0,
        "slot": "3",
        "type": "t_address"
      },
      {
        "astId": 17013,
        "contract": "contracts/configuration/OpenSkySettings.sol:OpenSkySettings",
        "label": "loanAddress",
        "offset": 0,
        "slot": "4",
        "type": "t_address"
      },
      {
        "astId": 17016,
        "contract": "contracts/configuration/OpenSkySettings.sol:OpenSkySettings",
        "label": "vaultFactoryAddress",
        "offset": 0,
        "slot": "5",
        "type": "t_address"
      },
      {
        "astId": 17019,
        "contract": "contracts/configuration/OpenSkySettings.sol:OpenSkySettings",
        "label": "incentiveControllerAddress",
        "offset": 0,
        "slot": "6",
        "type": "t_address"
      },
      {
        "astId": 17022,
        "contract": "contracts/configuration/OpenSkySettings.sol:OpenSkySettings",
        "label": "wethGatewayAddress",
        "offset": 0,
        "slot": "7",
        "type": "t_address"
      },
      {
        "astId": 17025,
        "contract": "contracts/configuration/OpenSkySettings.sol:OpenSkySettings",
        "label": "punkGatewayAddress",
        "offset": 0,
        "slot": "8",
        "type": "t_address"
      },
      {
        "astId": 17028,
        "contract": "contracts/configuration/OpenSkySettings.sol:OpenSkySettings",
        "label": "daoVaultAddress",
        "offset": 0,
        "slot": "9",
        "type": "t_address"
      },
      {
        "astId": 17031,
        "contract": "contracts/configuration/OpenSkySettings.sol:OpenSkySettings",
        "label": "moneyMarketAddress",
        "offset": 0,
        "slot": "10",
        "type": "t_address"
      },
      {
        "astId": 17034,
        "contract": "contracts/configuration/OpenSkySettings.sol:OpenSkySettings",
        "label": "treasuryAddress",
        "offset": 0,
        "slot": "11",
        "type": "t_address"
      },
      {
        "astId": 17037,
        "contract": "contracts/configuration/OpenSkySettings.sol:OpenSkySettings",
        "label": "loanDescriptorAddress",
        "offset": 0,
        "slot": "12",
        "type": "t_address"
      },
      {
        "astId": 17040,
        "contract": "contracts/configuration/OpenSkySettings.sol:OpenSkySettings",
        "label": "nftPriceOracleAddress",
        "offset": 0,
        "slot": "13",
        "type": "t_address"
      },
      {
        "astId": 17043,
        "contract": "contracts/configuration/OpenSkySettings.sol:OpenSkySettings",
        "label": "interestRateStrategyAddress",
        "offset": 0,
        "slot": "14",
        "type": "t_address"
      },
      {
        "astId": 17047,
        "contract": "contracts/configuration/OpenSkySettings.sol:OpenSkySettings",
        "label": "reserveFactor",
        "offset": 0,
        "slot": "15",
        "type": "t_uint256"
      },
      {
        "astId": 17051,
        "contract": "contracts/configuration/OpenSkySettings.sol:OpenSkySettings",
        "label": "prepaymentFeeFactor",
        "offset": 0,
        "slot": "16",
        "type": "t_uint256"
      },
      {
        "astId": 17055,
        "contract": "contracts/configuration/OpenSkySettings.sol:OpenSkySettings",
        "label": "overdueLoanFeeFactor",
        "offset": 0,
        "slot": "17",
        "type": "t_uint256"
      }
    ],
    "types": {
      "t_address": {
        "encoding": "inplace",
        "label": "address",
        "numberOfBytes": "20"
      },
      "t_bool": {
        "encoding": "inplace",
        "label": "bool",
        "numberOfBytes": "1"
      },
      "t_mapping(t_address,t_bool)": {
        "encoding": "mapping",
        "key": "t_address",
        "label": "mapping(address => bool)",
        "numberOfBytes": "32",
        "value": "t_bool"
      },
      "t_mapping(t_address,t_struct(WhitelistInfo)21590_storage)": {
        "encoding": "mapping",
        "key": "t_address",
        "label": "mapping(address => struct DataTypes.WhitelistInfo)",
        "numberOfBytes": "32",
        "value": "t_struct(WhitelistInfo)21590_storage"
      },
      "t_mapping(t_uint256,t_mapping(t_address,t_struct(WhitelistInfo)21590_storage))": {
        "encoding": "mapping",
        "key": "t_uint256",
        "label": "mapping(uint256 => mapping(address => struct DataTypes.WhitelistInfo))",
        "numberOfBytes": "32",
        "value": "t_mapping(t_address,t_struct(WhitelistInfo)21590_storage)"
      },
      "t_string_storage": {
        "encoding": "bytes",
        "label": "string",
        "numberOfBytes": "32"
      },
      "t_struct(WhitelistInfo)21590_storage": {
        "encoding": "inplace",
        "label": "struct DataTypes.WhitelistInfo",
        "members": [
          {
            "astId": 21575,
            "contract": "contracts/configuration/OpenSkySettings.sol:OpenSkySettings",
            "label": "enabled",
            "offset": 0,
            "slot": "0",
            "type": "t_bool"
          },
          {
            "astId": 21577,
            "contract": "contracts/configuration/OpenSkySettings.sol:OpenSkySettings",
            "label": "name",
            "offset": 0,
            "slot": "1",
            "type": "t_string_storage"
          },
          {
            "astId": 21579,
            "contract": "contracts/configuration/OpenSkySettings.sol:OpenSkySettings",
            "label": "symbol",
            "offset": 0,
            "slot": "2",
            "type": "t_string_storage"
          },
          {
            "astId": 21581,
            "contract": "contracts/configuration/OpenSkySettings.sol:OpenSkySettings",
            "label": "LTV",
            "offset": 0,
            "slot": "3",
            "type": "t_uint256"
          },
          {
            "astId": 21583,
            "contract": "contracts/configuration/OpenSkySettings.sol:OpenSkySettings",
            "label": "minBorrowDuration",
            "offset": 0,
            "slot": "4",
            "type": "t_uint256"
          },
          {
            "astId": 21585,
            "contract": "contracts/configuration/OpenSkySettings.sol:OpenSkySettings",
            "label": "maxBorrowDuration",
            "offset": 0,
            "slot": "5",
            "type": "t_uint256"
          },
          {
            "astId": 21587,
            "contract": "contracts/configuration/OpenSkySettings.sol:OpenSkySettings",
            "label": "extendableDuration",
            "offset": 0,
            "slot": "6",
            "type": "t_uint256"
          },
          {
            "astId": 21589,
            "contract": "contracts/configuration/OpenSkySettings.sol:OpenSkySettings",
            "label": "overdueDuration",
            "offset": 0,
            "slot": "7",
            "type": "t_uint256"
          }
        ],
        "numberOfBytes": "256"
      },
      "t_uint256": {
        "encoding": "inplace",
        "label": "uint256",
        "numberOfBytes": "32"
      }
    }
  }
}