{
  "address": "0xa0dC8232d98A04617Fd6153d8c366672472d31A7",
  "abi": [
    {
      "inputs": [
        {
          "internalType": "contract IWETH",
          "name": "weth",
          "type": "address"
        },
        {
          "internalType": "contract IOpenSkySettings",
          "name": "settings",
          "type": "address"
        }
      ],
      "stateMutability": "nonpayable",
      "type": "constructor"
    },
    {
      "anonymous": false,
      "inputs": [
        {
          "indexed": true,
          "internalType": "address",
          "name": "operator",
          "type": "address"
        },
        {
          "indexed": false,
          "internalType": "address[]",
          "name": "nftAssets",
          "type": "address[]"
        }
      ],
      "name": "AuthorizeLendingPoolNFT",
      "type": "event"
    },
    {
      "anonymous": false,
      "inputs": [
        {
          "indexed": true,
          "internalType": "address",
          "name": "operator",
          "type": "address"
        }
      ],
      "name": "AuthorizeLendingPoolWETH",
      "type": "event"
    },
    {
      "anonymous": false,
      "inputs": [
        {
          "indexed": true,
          "internalType": "uint256",
          "name": "reserveId",
          "type": "uint256"
        },
        {
          "indexed": true,
          "internalType": "address",
          "name": "onBehalfOf",
          "type": "address"
        },
        {
          "indexed": true,
          "internalType": "uint256",
          "name": "loanId",
          "type": "uint256"
        }
      ],
      "name": "Borrow",
      "type": "event"
    },
    {
      "anonymous": false,
      "inputs": [
        {
          "indexed": true,
          "internalType": "uint256",
          "name": "reserveId",
          "type": "uint256"
        },
        {
          "indexed": true,
          "internalType": "address",
          "name": "onBehalfOf",
          "type": "address"
        },
        {
          "indexed": false,
          "internalType": "uint256",
          "name": "amount",
          "type": "uint256"
        }
      ],
      "name": "Deposit",
      "type": "event"
    },
    {
      "anonymous": false,
      "inputs": [
        {
          "indexed": true,
          "internalType": "address",
          "name": "operator",
          "type": "address"
        },
        {
          "indexed": true,
          "internalType": "address",
          "name": "to",
          "type": "address"
        },
        {
          "indexed": false,
          "internalType": "uint256",
          "name": "amount",
          "type": "uint256"
        }
      ],
      "name": "EmergencyEtherTransfer",
      "type": "event"
    },
    {
      "anonymous": false,
      "inputs": [
        {
          "indexed": true,
          "internalType": "address",
          "name": "operator",
          "type": "address"
        },
        {
          "indexed": true,
          "internalType": "address",
          "name": "token",
          "type": "address"
        },
        {
          "indexed": true,
          "internalType": "address",
          "name": "to",
          "type": "address"
        },
        {
          "indexed": false,
          "internalType": "uint256",
          "name": "amount",
          "type": "uint256"
        }
      ],
      "name": "EmergencyTokenTransfer",
      "type": "event"
    },
    {
      "anonymous": false,
      "inputs": [
        {
          "indexed": true,
          "internalType": "uint256",
          "name": "loanId",
          "type": "uint256"
        }
      ],
      "name": "Extend",
      "type": "event"
    },
    {
      "anonymous": false,
      "inputs": [
        {
          "indexed": true,
          "internalType": "address",
          "name": "previousOwner",
          "type": "address"
        },
        {
          "indexed": true,
          "internalType": "address",
          "name": "newOwner",
          "type": "address"
        }
      ],
      "name": "OwnershipTransferred",
      "type": "event"
    },
    {
      "anonymous": false,
      "inputs": [
        {
          "indexed": false,
          "internalType": "address",
          "name": "",
          "type": "address"
        },
        {
          "indexed": false,
          "internalType": "uint256",
          "name": "",
          "type": "uint256"
        }
      ],
      "name": "Received",
      "type": "event"
    },
    {
      "anonymous": false,
      "inputs": [
        {
          "indexed": true,
          "internalType": "uint256",
          "name": "loanId",
          "type": "uint256"
        }
      ],
      "name": "Repay",
      "type": "event"
    },
    {
      "anonymous": false,
      "inputs": [
        {
          "indexed": true,
          "internalType": "uint256",
          "name": "reserveId",
          "type": "uint256"
        },
        {
          "indexed": true,
          "internalType": "address",
          "name": "onBehalfOf",
          "type": "address"
        },
        {
          "indexed": false,
          "internalType": "uint256",
          "name": "amount",
          "type": "uint256"
        }
      ],
      "name": "Withdraw",
      "type": "event"
    },
    {
      "stateMutability": "payable",
      "type": "fallback"
    },
    {
      "inputs": [],
      "name": "SETTINGS",
      "outputs": [
        {
          "internalType": "contract IOpenSkySettings",
          "name": "",
          "type": "address"
        }
      ],
      "stateMutability": "view",
      "type": "function"
    },
    {
      "inputs": [],
      "name": "WETH",
      "outputs": [
        {
          "internalType": "contract IWETH",
          "name": "",
          "type": "address"
        }
      ],
      "stateMutability": "view",
      "type": "function"
    },
    {
      "inputs": [
        {
          "internalType": "address[]",
          "name": "nftAssets",
          "type": "address[]"
        }
      ],
      "name": "authorizeLendingPoolNFT",
      "outputs": [],
      "stateMutability": "nonpayable",
      "type": "function"
    },
    {
      "inputs": [],
      "name": "authorizeLendingPoolWETH",
      "outputs": [],
      "stateMutability": "nonpayable",
      "type": "function"
    },
    {
      "inputs": [
        {
          "internalType": "uint256",
          "name": "reserveId",
          "type": "uint256"
        },
        {
          "internalType": "uint256",
          "name": "amount",
          "type": "uint256"
        },
        {
          "internalType": "uint256",
          "name": "duration",
          "type": "uint256"
        },
        {
          "internalType": "address",
          "name": "nftAddress",
          "type": "address"
        },
        {
          "internalType": "uint256",
          "name": "tokenId",
          "type": "uint256"
        },
        {
          "internalType": "address",
          "name": "onBehalfOf",
          "type": "address"
        }
      ],
      "name": "borrow",
      "outputs": [],
      "stateMutability": "nonpayable",
      "type": "function"
    },
    {
      "inputs": [
        {
          "internalType": "uint256",
          "name": "reserveId",
          "type": "uint256"
        },
        {
          "internalType": "address",
          "name": "onBehalfOf",
          "type": "address"
        },
        {
          "internalType": "uint16",
          "name": "referralCode",
          "type": "uint16"
        }
      ],
      "name": "deposit",
      "outputs": [],
      "stateMutability": "payable",
      "type": "function"
    },
    {
      "inputs": [
        {
          "internalType": "address",
          "name": "to",
          "type": "address"
        },
        {
          "internalType": "uint256",
          "name": "amount",
          "type": "uint256"
        }
      ],
      "name": "emergencyEtherTransfer",
      "outputs": [],
      "stateMutability": "nonpayable",
      "type": "function"
    },
    {
      "inputs": [
        {
          "internalType": "address",
          "name": "token",
          "type": "address"
        },
        {
          "internalType": "address",
          "name": "to",
          "type": "address"
        },
        {
          "internalType": "uint256",
          "name": "amount",
          "type": "uint256"
        }
      ],
      "name": "emergencyTokenTransfer",
      "outputs": [],
      "stateMutability": "nonpayable",
      "type": "function"
    },
    {
      "inputs": [
        {
          "internalType": "uint256",
          "name": "loanId",
          "type": "uint256"
        },
        {
          "internalType": "uint256",
          "name": "amount",
          "type": "uint256"
        },
        {
          "internalType": "uint256",
          "name": "duration",
          "type": "uint256"
        }
      ],
      "name": "extend",
      "outputs": [],
      "stateMutability": "payable",
      "type": "function"
    },
    {
      "inputs": [
        {
          "internalType": "address",
          "name": "",
          "type": "address"
        },
        {
          "internalType": "address",
          "name": "",
          "type": "address"
        },
        {
          "internalType": "uint256",
          "name": "",
          "type": "uint256"
        },
        {
          "internalType": "bytes",
          "name": "",
          "type": "bytes"
        }
      ],
      "name": "onERC721Received",
      "outputs": [
        {
          "internalType": "bytes4",
          "name": "",
          "type": "bytes4"
        }
      ],
      "stateMutability": "nonpayable",
      "type": "function"
    },
    {
      "inputs": [],
      "name": "owner",
      "outputs": [
        {
          "internalType": "address",
          "name": "",
          "type": "address"
        }
      ],
      "stateMutability": "view",
      "type": "function"
    },
    {
      "inputs": [],
      "name": "renounceOwnership",
      "outputs": [],
      "stateMutability": "nonpayable",
      "type": "function"
    },
    {
      "inputs": [
        {
          "internalType": "uint256",
          "name": "loanId",
          "type": "uint256"
        }
      ],
      "name": "repay",
      "outputs": [],
      "stateMutability": "payable",
      "type": "function"
    },
    {
      "inputs": [
        {
          "internalType": "address",
          "name": "newOwner",
          "type": "address"
        }
      ],
      "name": "transferOwnership",
      "outputs": [],
      "stateMutability": "nonpayable",
      "type": "function"
    },
    {
      "inputs": [
        {
          "internalType": "uint256",
          "name": "reserveId",
          "type": "uint256"
        },
        {
          "internalType": "uint256",
          "name": "amount",
          "type": "uint256"
        },
        {
          "internalType": "address",
          "name": "onBehalfOf",
          "type": "address"
        }
      ],
      "name": "withdraw",
      "outputs": [],
      "stateMutability": "nonpayable",
      "type": "function"
    },
    {
      "stateMutability": "payable",
      "type": "receive"
    }
  ],
  "transactionHash": "0x91db65d323e85a413238128b77c57211ddf0aaca9ab6aad18cdc7696e4ec00c8",
  "args": [
    "0x0d500b1d8e8ef31e21c99d1db9a6444d3adf1270",
    "0x3278e9b9E69C15ee013C0a0ad56845F9Dff68878"
  ],
  "solcInputHash": "0ca3f66e9bd5de21ebb7765f6cea382a",
  "bytecode": "0x60c06040523480156200001157600080fd5b5060405162002126380380620021268339810160408190526200003491620000c0565b6200003f3362000057565b6001600160a01b039182166080521660a052620000ff565b600080546001600160a01b038381166001600160a01b0319831681178455604051919092169283917f8be0079c531659141344cd1fd0a4f28419497f9722a3daafe3b4186f6b6457e09190a35050565b6001600160a01b0381168114620000bd57600080fd5b50565b60008060408385031215620000d457600080fd5b8251620000e181620000a7565b6020840151909250620000f481620000a7565b809150509250929050565b60805160a051611f916200019560003960008181610327015281816103d50152818161070d0152818161093a01528181610b5a01528181610d6501528181610f5f0152611325015260008181610116015281816102f3015281816105d8015281816106970152818161086c01528181610ae601528181610e0f01528181610ee90152818161110601526114540152611f916000f3fe6080604052600436106100ec5760003560e01c8063a3d5b2551161008a578063ddddca1111610059578063ddddca111461035e578063eed88b8d14610371578063f2fde38b14610391578063f668a9c5146103b157610198565b8063a3d5b255146102c1578063ad5c4648146102e1578063ade97ab514610315578063af1d2de51461034957610198565b806343eeec51116100c657806343eeec5114610247578063715018a6146102675780638da5cb5b1461027c5780639b8d6d38146102ae57610198565b80630ad58d2f146101c9578063150b7a02146101eb578063371fd8e61461023457610198565b366101985760408051808201909152600381526231313160e81b6020820152336001600160a01b037f0000000000000000000000000000000000000000000000000000000000000000161461015d5760405162461bcd60e51b8152600401610154919061191d565b60405180910390fd5b50604080513381523460208201527f88a5966d370b9919b20f3e2c13ff65706f196a4e32cc2c12bf57088f88525874910160405180910390a1005b604080518082018252600381526218989960e91b6020820152905162461bcd60e51b8152610154919060040161191d565b3480156101d557600080fd5b506101e96101e4366004611965565b6103d1565b005b3480156101f757600080fd5b50610216610206366004611a0f565b630a85bd0160e11b949350505050565b6040516001600160e01b031990911681526020015b60405180910390f35b6101e9610242366004611ad3565b610695565b34801561025357600080fd5b506101e9610262366004611aec565b61090c565b34801561027357600080fd5b506101e9610aae565b34801561028857600080fd5b506000546001600160a01b03165b6040516001600160a01b03909116815260200161022b565b6101e96102bc366004611b61565b610ae4565b3480156102cd57600080fd5b506101e96102dc366004611b9f565b610c97565b3480156102ed57600080fd5b506102967f000000000000000000000000000000000000000000000000000000000000000081565b34801561032157600080fd5b506102967f000000000000000000000000000000000000000000000000000000000000000081565b34801561035557600080fd5b506101e9610d37565b6101e961036c366004611be0565b610ee7565b34801561037d57600080fd5b506101e961038c366004611c0c565b6111a8565b34801561039d57600080fd5b506101e96103ac366004611c38565b611220565b3480156103bd57600080fd5b506101e96103cc366004611c55565b6112bb565b60007f00000000000000000000000000000000000000000000000000000000000000006001600160a01b0316631755ff216040518163ffffffff1660e01b8152600401602060405180830381865afa158015610431573d6000803e3d6000fd5b505050506040513d601f19601f820116820180604052508101906104559190611cc3565b6040516391541e0560e01b8152600481018690529091506000906001600160a01b038316906391541e059060240161018060405180830381865afa1580156104a1573d6000803e3d6000fd5b505050506040513d601f19601f820116820180604052508101906104c59190611d25565b60409081015190516370a0823160e01b81523360048201529091506000906001600160a01b038316906370a0823190602401602060405180830381865afa158015610514573d6000803e3d6000fd5b505050506040513d601f19601f820116820180604052508101906105389190611dee565b9050846000198114156105485750805b61055d6001600160a01b038416333084611504565b604051630ad58d2f60e01b815260048101889052602481018290523060448201526001600160a01b03851690630ad58d2f90606401600060405180830381600087803b1580156105ac57600080fd5b505af11580156105c0573d6000803e3d6000fd5b5050604051632e1a7d4d60e01b8152600481018490527f00000000000000000000000000000000000000000000000000000000000000006001600160a01b03169250632e1a7d4d9150602401600060405180830381600087803b15801561062657600080fd5b505af115801561063a573d6000803e3d6000fd5b505050506106488582611575565b846001600160a01b0316877f9da6493a92039daf47d1f2d7a782299c5994c6323eb1e972f69c432089ec52bf8360405161068491815260200190565b60405180910390a350505050505050565b7f00000000000000000000000000000000000000000000000000000000000000006001600160a01b031663d0e30db0346040518263ffffffff1660e01b81526004016000604051808303818588803b1580156106f057600080fd5b505af1158015610704573d6000803e3d6000fd5b505050505060007f00000000000000000000000000000000000000000000000000000000000000006001600160a01b0316631755ff216040518163ffffffff1660e01b8152600401602060405180830381865afa158015610769573d6000803e3d6000fd5b505050506040513d601f19601f8201168201806040525081019061078d9190611cc3565b604051631b8fec7360e11b8152600481018490529091506000906001600160a01b0383169063371fd8e6906024016020604051808303816000875af11580156107da573d6000803e3d6000fd5b505050506040513d601f19601f820116820180604052508101906107fe9190611dee565b905080341015604051806040016040528060038152602001620ccccd60ea1b8152509061083e5760405162461bcd60e51b8152600401610154919061191d565b50803411156108dc5760006108538234611e1d565b604051632e1a7d4d60e01b8152600481018290529091507f00000000000000000000000000000000000000000000000000000000000000006001600160a01b031690632e1a7d4d90602401600060405180830381600087803b1580156108b857600080fd5b505af11580156108cc573d6000803e3d6000fd5b505050506108da3382611575565b505b60405183907fa6ffc78a660e4971a47a0f916a0abae483804e6f42c9292ed06aa64f8fe4623090600090a2505050565b6000546001600160a01b031633146109365760405162461bcd60e51b815260040161015490611e34565b60007f00000000000000000000000000000000000000000000000000000000000000006001600160a01b0316631755ff216040518163ffffffff1660e01b8152600401602060405180830381865afa158015610996573d6000803e3d6000fd5b505050506040513d601f19601f820116820180604052508101906109ba9190611cc3565b905060005b82811015610a65578383828181106109d9576109d9611e69565b90506020020160208101906109ee9190611c38565b60405163a22cb46560e01b81526001600160a01b03848116600483015260016024830152919091169063a22cb46590604401600060405180830381600087803b158015610a3a57600080fd5b505af1158015610a4e573d6000803e3d6000fd5b505050508080610a5d90611e7f565b9150506109bf565b50336001600160a01b03167f9601e9115d2b459c8cf208260877706f12d22762ad481af8cc80b6d1c9dc35988484604051610aa1929190611e9a565b60405180910390a2505050565b6000546001600160a01b03163314610ad85760405162461bcd60e51b815260040161015490611e34565b610ae26000611620565b565b7f00000000000000000000000000000000000000000000000000000000000000006001600160a01b031663d0e30db0346040518263ffffffff1660e01b81526004016000604051808303818588803b158015610b3f57600080fd5b505af1158015610b53573d6000803e3d6000fd5b50505050507f00000000000000000000000000000000000000000000000000000000000000006001600160a01b0316631755ff216040518163ffffffff1660e01b8152600401602060405180830381865afa158015610bb6573d6000803e3d6000fd5b505050506040513d601f19601f82011682018060405250810190610bda9190611cc3565b60405163e78f094960e01b8152600481018590523460248201526001600160a01b03848116604483015261ffff84166064830152919091169063e78f094990608401600060405180830381600087803b158015610c3657600080fd5b505af1158015610c4a573d6000803e3d6000fd5b50505050816001600160a01b0316837feaa18152488ce5959073c9c79c88ca90b3d96c00de1f118cfaad664c3dab06b934604051610c8a91815260200190565b60405180910390a3505050565b6000546001600160a01b03163314610cc15760405162461bcd60e51b815260040161015490611e34565b610cd56001600160a01b0384168383611670565b816001600160a01b0316836001600160a01b0316610cf03390565b6001600160a01b03167febf245a42443912c1b50c6c3a1d4854194a5dc5fa3190d920936da8fa00d9c7a84604051610d2a91815260200190565b60405180910390a4505050565b6000546001600160a01b03163314610d615760405162461bcd60e51b815260040161015490611e34565b60007f00000000000000000000000000000000000000000000000000000000000000006001600160a01b0316631755ff216040518163ffffffff1660e01b8152600401602060405180830381865afa158015610dc1573d6000803e3d6000fd5b505050506040513d601f19601f82011682018060405250810190610de59190611cc3565b60405163095ea7b360e01b81526001600160a01b03808316600483015260001960248301529192507f00000000000000000000000000000000000000000000000000000000000000009091169063095ea7b3906044016020604051808303816000875af1158015610e5a573d6000803e3d6000fd5b505050506040513d601f19601f82011682018060405250810190610e7e9190611ee8565b6040518060400160405280600381526020016231313360e81b81525090610eb85760405162461bcd60e51b8152600401610154919061191d565b5060405133907fb0248d5f215823f945d172ec973adae9bd207cc9886af962a16f6507c4c8604790600090a250565b7f00000000000000000000000000000000000000000000000000000000000000006001600160a01b031663d0e30db0346040518263ffffffff1660e01b81526004016000604051808303818588803b158015610f4257600080fd5b505af1158015610f56573d6000803e3d6000fd5b505050505060007f00000000000000000000000000000000000000000000000000000000000000006001600160a01b0316631755ff216040518163ffffffff1660e01b8152600401602060405180830381865afa158015610fbb573d6000803e3d6000fd5b505050506040513d601f19601f82011682018060405250810190610fdf9190611cc3565b90506000806001600160a01b0383166367113ef6878787336040516001600160e01b031960e087901b1681526004810194909452602484019290925260448301526001600160a01b0316606482015260840160408051808303816000875af115801561104f573d6000803e3d6000fd5b505050506040513d601f19601f820116820180604052508101906110739190611f03565b91509150813410156040518060400160405280600381526020016219999b60e91b815250906110b55760405162461bcd60e51b8152600401610154919061191d565b506000823411156110d7576110ca8334611e1d565b6110d49082611f27565b90505b81156110ea576110e78282611f27565b90505b801561117457604051632e1a7d4d60e01b8152600481018290527f00000000000000000000000000000000000000000000000000000000000000006001600160a01b031690632e1a7d4d90602401600060405180830381600087803b15801561115257600080fd5b505af1158015611166573d6000803e3d6000fd5b505050506111743382611575565b60405187907f02ef6561d311451dadc920679eb21192a61d96ee8ead94241b8ff073029ca6e890600090a250505050505050565b6000546001600160a01b031633146111d25760405162461bcd60e51b815260040161015490611e34565b6111dc8282611575565b6040518181526001600160a01b0383169033907f65e7b5fc027a987097ea9153a20964a3aa8152d2d0d88b8e6ba7637fd7329c6c9060200160405180910390a35050565b6000546001600160a01b0316331461124a5760405162461bcd60e51b815260040161015490611e34565b6001600160a01b0381166112af5760405162461bcd60e51b815260206004820152602660248201527f4f776e61626c653a206e6577206f776e657220697320746865207a65726f206160448201526564647265737360d01b6064820152608401610154565b6112b881611620565b50565b604051632142170760e11b8152336004820152306024820152604481018390526001600160a01b038416906342842e0e90606401600060405180830381600087803b15801561130957600080fd5b505af115801561131d573d6000803e3d6000fd5b5050505060007f00000000000000000000000000000000000000000000000000000000000000006001600160a01b0316631755ff216040518163ffffffff1660e01b8152600401602060405180830381865afa158015611381573d6000803e3d6000fd5b505050506040513d601f19601f820116820180604052508101906113a59190611cc3565b60405163f668a9c560e01b81526004810189905260248101889052604481018790526001600160a01b0386811660648301526084820186905284811660a483015291925060009183169063f668a9c59060c4016020604051808303816000875af1158015611417573d6000803e3d6000fd5b505050506040513d601f19601f8201168201806040525081019061143b9190611dee565b604051632e1a7d4d60e01b8152600481018990529091507f00000000000000000000000000000000000000000000000000000000000000006001600160a01b031690632e1a7d4d90602401600060405180830381600087803b1580156114a057600080fd5b505af11580156114b4573d6000803e3d6000fd5b505050506114c28388611575565b80836001600160a01b0316897fe6cfa82d3ec969b90a4b9829a1257566d7092f05f0f878651326ae1a44e02fdc60405160405180910390a45050505050505050565b6040516001600160a01b038085166024830152831660448201526064810182905261156f9085906323b872dd60e01b906084015b60408051601f198184030181529190526020810180516001600160e01b03166001600160e01b0319909316929092179091526116a5565b50505050565b604080516000808252602082019092526001600160a01b03841690839060405161159f9190611f3f565b60006040518083038185875af1925050503d80600081146115dc576040519150601f19603f3d011682016040523d82523d6000602084013e6115e1565b606091505b50509050806040518060400160405280600381526020016203131360ec1b8152509061156f5760405162461bcd60e51b8152600401610154919061191d565b600080546001600160a01b038381166001600160a01b0319831681178455604051919092169283917f8be0079c531659141344cd1fd0a4f28419497f9722a3daafe3b4186f6b6457e09190a35050565b6040516001600160a01b0383166024820152604481018290526116a090849063a9059cbb60e01b90606401611538565b505050565b60006116fa826040518060400160405280602081526020017f5361666545524332303a206c6f772d6c6576656c2063616c6c206661696c6564815250856001600160a01b03166117779092919063ffffffff16565b8051909150156116a057808060200190518101906117189190611ee8565b6116a05760405162461bcd60e51b815260206004820152602a60248201527f5361666545524332303a204552433230206f7065726174696f6e20646964206e6044820152691bdd081cdd58d8d9595960b21b6064820152608401610154565b60606117868484600085611790565b90505b9392505050565b6060824710156117f15760405162461bcd60e51b815260206004820152602660248201527f416464726573733a20696e73756666696369656e742062616c616e636520666f6044820152651c8818d85b1b60d21b6064820152608401610154565b843b61183f5760405162461bcd60e51b815260206004820152601d60248201527f416464726573733a2063616c6c20746f206e6f6e2d636f6e74726163740000006044820152606401610154565b600080866001600160a01b0316858760405161185b9190611f3f565b60006040518083038185875af1925050503d8060008114611898576040519150601f19603f3d011682016040523d82523d6000602084013e61189d565b606091505b50915091506118ad8282866118b8565b979650505050505050565b606083156118c7575081611789565b8251156118d75782518084602001fd5b8160405162461bcd60e51b8152600401610154919061191d565b60005b8381101561190c5781810151838201526020016118f4565b8381111561156f5750506000910152565b602081526000825180602084015261193c8160408501602087016118f1565b601f01601f19169190910160400192915050565b6001600160a01b03811681146112b857600080fd5b60008060006060848603121561197a57600080fd5b8335925060208401359150604084013561199381611950565b809150509250925092565b634e487b7160e01b600052604160045260246000fd5b604051610180810167ffffffffffffffff811182821017156119d8576119d861199e565b60405290565b604051601f8201601f1916810167ffffffffffffffff81118282101715611a0757611a0761199e565b604052919050565b60008060008060808587031215611a2557600080fd5b8435611a3081611950565b9350602085810135611a4181611950565b935060408601359250606086013567ffffffffffffffff80821115611a6557600080fd5b818801915088601f830112611a7957600080fd5b813581811115611a8b57611a8b61199e565b611a9d601f8201601f191685016119de565b91508082528984828501011115611ab357600080fd5b808484018584013760008482840101525080935050505092959194509250565b600060208284031215611ae557600080fd5b5035919050565b60008060208385031215611aff57600080fd5b823567ffffffffffffffff80821115611b1757600080fd5b818501915085601f830112611b2b57600080fd5b813581811115611b3a57600080fd5b8660208260051b8501011115611b4f57600080fd5b60209290920196919550909350505050565b600080600060608486031215611b7657600080fd5b833592506020840135611b8881611950565b9150604084013561ffff8116811461199357600080fd5b600080600060608486031215611bb457600080fd5b8335611bbf81611950565b92506020840135611bcf81611950565b929592945050506040919091013590565b600080600060608486031215611bf557600080fd5b505081359360208301359350604090920135919050565b60008060408385031215611c1f57600080fd5b8235611c2a81611950565b946020939093013593505050565b600060208284031215611c4a57600080fd5b813561178981611950565b60008060008060008060c08789031215611c6e57600080fd5b8635955060208701359450604087013593506060870135611c8e81611950565b92506080870135915060a0870135611ca581611950565b809150509295509295509295565b8051611cbe81611950565b919050565b600060208284031215611cd557600080fd5b815161178981611950565b80516fffffffffffffffffffffffffffffffff81168114611cbe57600080fd5b805164ffffffffff81168114611cbe57600080fd5b80518015158114611cbe57600080fd5b60006101808284031215611d3857600080fd5b611d406119b4565b82518152611d5060208401611cb3565b6020820152611d6160408401611cb3565b6040820152611d7260608401611cb3565b6060820152611d8360808401611ce0565b608082015260a083015160a082015260c083015160c0820152611da860e08401611d00565b60e08201526101008381015190820152610120611dc6818501611cb3565b908201526101408381015190820152610160611de3818501611d15565b908201529392505050565b600060208284031215611e0057600080fd5b5051919050565b634e487b7160e01b600052601160045260246000fd5b600082821015611e2f57611e2f611e07565b500390565b6020808252818101527f4f776e61626c653a2063616c6c6572206973206e6f7420746865206f776e6572604082015260600190565b634e487b7160e01b600052603260045260246000fd5b6000600019821415611e9357611e93611e07565b5060010190565b60208082528181018390526000908460408401835b86811015611edd578235611ec281611950565b6001600160a01b031682529183019190830190600101611eaf565b509695505050505050565b600060208284031215611efa57600080fd5b61178982611d15565b60008060408385031215611f1657600080fd5b505080516020909101519092909150565b60008219821115611f3a57611f3a611e07565b500190565b60008251611f518184602087016118f1565b919091019291505056fea2646970667358221220373f4cb9ef915d056f667347b3f2297f1a26fc4db66fb536526c1ad00ca6f67a64736f6c634300080a0033",
  "devdoc": {
    "kind": "dev",
    "methods": {
      "authorizeLendingPoolNFT(address[])": {
        "details": "Only callable by the owner",
        "params": {
          "nftAssets": "addresses of nft assets*"
        }
      },
      "authorizeLendingPoolWETH()": {
        "details": "Only callable by the owner*"
      },
      "borrow(uint256,uint256,uint256,address,uint256,address)": {
        "details": "Borrows ETH from reserve using an NFT as collateral and will receive a loan NFT as receipt.",
        "params": {
          "amount": "amount of ETH user will borrow",
          "duration": "The desired duration of the loan",
          "nftAddress": "The collateral NFT address",
          "onBehalfOf": "address of the user who will receive ETH and loan NFT.",
          "reserveId": "The ID of the reserve",
          "tokenId": "The ID of the NFT"
        }
      },
      "constructor": {
        "details": "Sets the WETH address and the OpenSkySettings address.",
        "params": {
          "weth": "Address of the Wrapped Ether contract*"
        }
      },
      "deposit(uint256,address,uint16)": {
        "details": "deposits WETH into the reserve, using native ETH. A corresponding amount of the overlying asset (aTokens) is minted.",
        "params": {
          "onBehalfOf": "address of the user who will receive the aTokens representing the deposit",
          "referralCode": "integrators are assigned a referral code and can potentially receive rewards.*",
          "reserveId": "address of the targeted underlying lending pool"
        }
      },
      "emergencyEtherTransfer(address,uint256)": {
        "details": "transfer native Ether from the utility contract, for native Ether recovery in case of stuck Ether due selfdestructs or transfer ether to pre-computed contract address before deployment.",
        "params": {
          "amount": "amount to send",
          "to": "recipient of the transfer"
        }
      },
      "emergencyTokenTransfer(address,address,uint256)": {
        "details": "transfer ERC20 from the utility contract, for ERC20 recovery in case of stuck tokens due direct transfers to the contract address.",
        "params": {
          "amount": "amount to send",
          "to": "recipient of the transfer",
          "token": "token to transfer"
        }
      },
      "onERC721Received(address,address,uint256,bytes)": {
        "details": "See {IERC721Receiver-onERC721Received}. Always returns `IERC721Receiver.onERC721Received.selector`."
      },
      "owner()": {
        "details": "Returns the address of the current owner."
      },
      "renounceOwnership()": {
        "details": "Leaves the contract without owner. It will not be possible to call `onlyOwner` functions anymore. Can only be called by the current owner. NOTE: Renouncing ownership will leave the contract without an owner, thereby removing any functionality that is only available to the owner."
      },
      "repay(uint256)": {
        "details": "repays a borrow on the WETH reserve, for the specified amount (or for the whole amount, if uint256(-1) is specified).",
        "params": {
          "loanId": "the id of reserve"
        }
      },
      "transferOwnership(address)": {
        "details": "Transfers ownership of the contract to a new account (`newOwner`). Can only be called by the current owner."
      },
      "withdraw(uint256,uint256,address)": {
        "details": "withdraws the WETH _reserves of msg.sender.",
        "params": {
          "amount": "amount of aWETH to withdraw and receive native ETH",
          "onBehalfOf": "address of the user who will receive native ETH",
          "reserveId": "address of the targeted underlying lending pool"
        }
      }
    },
    "version": 1
  },
  "userdoc": {
    "kind": "user",
    "methods": {
      "authorizeLendingPoolNFT(address[])": {
        "notice": "Infinite NFT approves OpenSkyPool contract."
      },
      "authorizeLendingPoolWETH()": {
        "notice": "Infinite weth approves OpenSkyPool contract."
      }
    },
    "version": 1
  },
  "storageLayout": {
    "storage": [
      {
        "astId": 387,
        "contract": "contracts/misc/OpenSkyWETHGateway.sol:OpenSkyWETHGateway",
        "label": "_owner",
        "offset": 0,
        "slot": "0",
        "type": "t_address"
      }
    ],
    "types": {
      "t_address": {
        "encoding": "inplace",
        "label": "address",
        "numberOfBytes": "20"
      }
    }
  }
}