{
  "address": "0x6061374E458D75EB807cAD044D08756A1aF84656",
  "abi": [
    {
      "inputs": [
        {
          "internalType": "contract IAaveLendPoolAddressesProvider",
          "name": "provider",
          "type": "address"
        }
      ],
      "stateMutability": "nonpayable",
      "type": "constructor"
    },
    {
      "inputs": [],
      "name": "AAVE2_ADDRESSES_PROVIDER",
      "outputs": [
        {
          "internalType": "contract IAaveLendPoolAddressesProvider",
          "name": "",
          "type": "address"
        }
      ],
      "stateMutability": "view",
      "type": "function"
    },
    {
      "inputs": [],
      "name": "aavePool",
      "outputs": [
        {
          "internalType": "contract IAaveLendPool",
          "name": "",
          "type": "address"
        }
      ],
      "stateMutability": "view",
      "type": "function"
    },
    {
      "inputs": [
        {
          "internalType": "address",
          "name": "adapter",
          "type": "address"
        },
        {
          "internalType": "address",
          "name": "flashBorrowAssetAddress",
          "type": "address"
        },
        {
          "internalType": "uint256",
          "name": "flashBorrowAmount",
          "type": "uint256"
        },
        {
          "internalType": "bytes",
          "name": "data",
          "type": "bytes"
        }
      ],
      "name": "refinance",
      "outputs": [],
      "stateMutability": "nonpayable",
      "type": "function"
    }
  ],
  "transactionHash": "0xb0ee5ff79c105b0c246600d72d7b2d859d23fcd4a9aff5495c997bf2e50eb960",
  "args": [
    "0xd05e3E715d945B59290df0ae8eF85c1BdB684744"
  ],
  "solcInputHash": "e69850385af8196781c724d9be9002bd",
  "bytecode": "0x60a060405234801561001057600080fd5b506040516105e93803806105e983398101604081905261002f91610040565b6001600160a01b0316608052610070565b60006020828403121561005257600080fd5b81516001600160a01b038116811461006957600080fd5b9392505050565b60805161055861009160003960008181604b015261022701526105586000f3fe608060405234801561001057600080fd5b50600436106100415760003560e01c806311ea536e1461004657806367960bf814610089578063a03e4bc31461009e575b600080fd5b61006d7f000000000000000000000000000000000000000000000000000000000000000081565b6040516001600160a01b03909116815260200160405180910390f35b61009c6100973660046102c4565b6100a6565b005b61006d610223565b6040805160018082528183019092526000916020808301908036833701905050905084816000815181106100dc576100dc610363565b6001600160a01b039290921660209283029190910190910152604080516001808252818301909252600091816020016020820280368337019050509050848160008151811061012d5761012d610363565b602090810291909101015260408051600180825281830190925260009181602001602082028036833701905050905060008160008151811061017157610171610363565b602002602001018181525050600085853360405160200161019493929190610379565b60405160208183030381529060405290506101ad610223565b6001600160a01b031663ab9c4b5d8a86868660008760006040518863ffffffff1660e01b81526004016101e69796959493929190610442565b600060405180830381600087803b15801561020057600080fd5b505af1158015610214573d6000803e3d6000fd5b50505050505050505050505050565b60007f00000000000000000000000000000000000000000000000000000000000000006001600160a01b0316630261bf8b6040518163ffffffff1660e01b8152600401602060405180830381865afa158015610283573d6000803e3d6000fd5b505050506040513d601f19601f820116820180604052508101906102a791906104fe565b905090565b6001600160a01b03811681146102c157600080fd5b50565b6000806000806000608086880312156102dc57600080fd5b85356102e7816102ac565b945060208601356102f7816102ac565b935060408601359250606086013567ffffffffffffffff8082111561031b57600080fd5b818801915088601f83011261032f57600080fd5b81358181111561033e57600080fd5b89602082850101111561035057600080fd5b9699959850939650602001949392505050565b634e487b7160e01b600052603260045260246000fd5b6040815282604082015282846060830137600060608483018101919091526001600160a01b03929092166020820152601f909201601f191690910101919050565b600081518084526020808501945080840160005b838110156103ea578151875295820195908201906001016103ce565b509495945050505050565b6000815180845260005b8181101561041b576020818501810151868301820152016103ff565b8181111561042d576000602083870101525b50601f01601f19169290920160200192915050565b6001600160a01b03888116825260e0602080840182905289519184018290526000928a820192909190610100860190855b81811015610491578551851683529483019491830191600101610473565b505085810360408701526104a5818c6103ba565b935050505082810360608401526104bc81886103ba565b6001600160a01b0387166080850152905082810360a08401526104df81866103f5565b9150506104f260c083018461ffff169052565b98975050505050505050565b60006020828403121561051057600080fd5b815161051b816102ac565b939250505056fea2646970667358221220ff160aecbb23fe06b012f74cd4a9c765de0f5d15659e689642f082406af8aa1864736f6c634300080a0033",
  "libraries": {},
  "devdoc": {
    "kind": "dev",
    "methods": {},
    "version": 1
  },
  "userdoc": {
    "kind": "user",
    "methods": {},
    "version": 1
  },
  "storageLayout": {
    "storage": [],
    "types": null
  }
}