{
  "address": "0x4Be1A297531665a0AdafdF004453C0f4b7eBBc1A",
  "abi": [
    {
      "inputs": [
        {
          "internalType": "address",
          "name": "SETTINGS_",
          "type": "address"
        }
      ],
      "stateMutability": "nonpayable",
      "type": "constructor"
    },
    {
      "anonymous": false,
      "inputs": [
        {
          "indexed": true,
          "internalType": "uint256",
          "name": "reserveId",
          "type": "uint256"
        },
        {
          "indexed": false,
          "internalType": "address",
          "name": "user",
          "type": "address"
        },
        {
          "indexed": true,
          "internalType": "address",
          "name": "onBehalfOf",
          "type": "address"
        },
        {
          "indexed": true,
          "internalType": "uint256",
          "name": "loanId",
          "type": "uint256"
        }
      ],
      "name": "Borrow",
      "type": "event"
    },
    {
      "anonymous": false,
      "inputs": [
        {
          "indexed": false,
          "internalType": "uint256",
          "name": "reserveId",
          "type": "uint256"
        }
      ],
      "name": "CloseMoneyMarket",
      "type": "event"
    },
    {
      "anonymous": false,
      "inputs": [
        {
          "indexed": true,
          "internalType": "uint256",
          "name": "reserveId",
          "type": "uint256"
        },
        {
          "indexed": true,
          "internalType": "address",
          "name": "underlyingAsset",
          "type": "address"
        },
        {
          "indexed": true,
          "internalType": "address",
          "name": "oTokenAddress",
          "type": "address"
        },
        {
          "indexed": false,
          "internalType": "string",
          "name": "name",
          "type": "string"
        },
        {
          "indexed": false,
          "internalType": "string",
          "name": "symbol",
          "type": "string"
        }
      ],
      "name": "Create",
      "type": "event"
    },
    {
      "anonymous": false,
      "inputs": [
        {
          "indexed": true,
          "internalType": "uint256",
          "name": "reserveId",
          "type": "uint256"
        },
        {
          "indexed": true,
          "internalType": "address",
          "name": "user",
          "type": "address"
        },
        {
          "indexed": false,
          "internalType": "uint256",
          "name": "amount",
          "type": "uint256"
        },
        {
          "indexed": true,
          "internalType": "uint256",
          "name": "referralCode",
          "type": "uint256"
        }
      ],
      "name": "Deposit",
      "type": "event"
    },
    {
      "anonymous": false,
      "inputs": [
        {
          "indexed": true,
          "internalType": "uint256",
          "name": "reserveId",
          "type": "uint256"
        },
        {
          "indexed": true,
          "internalType": "uint256",
          "name": "loanId",
          "type": "uint256"
        },
        {
          "indexed": true,
          "internalType": "address",
          "name": "nftAddress",
          "type": "address"
        },
        {
          "indexed": false,
          "internalType": "uint256",
          "name": "tokenId",
          "type": "uint256"
        },
        {
          "indexed": false,
          "internalType": "address",
          "name": "operator",
          "type": "address"
        },
        {
          "indexed": false,
          "internalType": "uint256",
          "name": "repayAmount",
          "type": "uint256"
        },
        {
          "indexed": false,
          "internalType": "uint256",
          "name": "borrowBalance",
          "type": "uint256"
        }
      ],
      "name": "EndLiquidation",
      "type": "event"
    },
    {
      "anonymous": false,
      "inputs": [
        {
          "indexed": true,
          "internalType": "uint256",
          "name": "reserveId",
          "type": "uint256"
        },
        {
          "indexed": true,
          "internalType": "address",
          "name": "user",
          "type": "address"
        },
        {
          "indexed": true,
          "internalType": "uint256",
          "name": "oldLoanId",
          "type": "uint256"
        },
        {
          "indexed": false,
          "internalType": "uint256",
          "name": "newLoanId",
          "type": "uint256"
        }
      ],
      "name": "Extend",
      "type": "event"
    },
    {
      "anonymous": false,
      "inputs": [
        {
          "indexed": false,
          "internalType": "uint256",
          "name": "reserveId",
          "type": "uint256"
        }
      ],
      "name": "OpenMoneyMarket",
      "type": "event"
    },
    {
      "anonymous": false,
      "inputs": [
        {
          "indexed": false,
          "internalType": "address",
          "name": "account",
          "type": "address"
        }
      ],
      "name": "Paused",
      "type": "event"
    },
    {
      "anonymous": false,
      "inputs": [
        {
          "indexed": true,
          "internalType": "uint256",
          "name": "reserveId",
          "type": "uint256"
        },
        {
          "indexed": false,
          "internalType": "address",
          "name": "repayer",
          "type": "address"
        },
        {
          "indexed": true,
          "internalType": "address",
          "name": "onBehalfOf",
          "type": "address"
        },
        {
          "indexed": true,
          "internalType": "uint256",
          "name": "loanId",
          "type": "uint256"
        },
        {
          "indexed": false,
          "internalType": "uint256",
          "name": "repayAmount",
          "type": "uint256"
        },
        {
          "indexed": false,
          "internalType": "uint256",
          "name": "penalty",
          "type": "uint256"
        }
      ],
      "name": "Repay",
      "type": "event"
    },
    {
      "anonymous": false,
      "inputs": [
        {
          "indexed": true,
          "internalType": "uint256",
          "name": "reserveId",
          "type": "uint256"
        },
        {
          "indexed": false,
          "internalType": "address",
          "name": "interestModelAddress",
          "type": "address"
        }
      ],
      "name": "SetInterestModelAddress",
      "type": "event"
    },
    {
      "anonymous": false,
      "inputs": [
        {
          "indexed": true,
          "internalType": "uint256",
          "name": "reserveId",
          "type": "uint256"
        },
        {
          "indexed": false,
          "internalType": "uint256",
          "name": "factor",
          "type": "uint256"
        }
      ],
      "name": "SetTreasuryFactor",
      "type": "event"
    },
    {
      "anonymous": false,
      "inputs": [
        {
          "indexed": true,
          "internalType": "uint256",
          "name": "reserveId",
          "type": "uint256"
        },
        {
          "indexed": true,
          "internalType": "uint256",
          "name": "loanId",
          "type": "uint256"
        },
        {
          "indexed": true,
          "internalType": "address",
          "name": "nftAddress",
          "type": "address"
        },
        {
          "indexed": false,
          "internalType": "uint256",
          "name": "tokenId",
          "type": "uint256"
        },
        {
          "indexed": false,
          "internalType": "address",
          "name": "operator",
          "type": "address"
        }
      ],
      "name": "StartLiquidation",
      "type": "event"
    },
    {
      "anonymous": false,
      "inputs": [
        {
          "indexed": false,
          "internalType": "address",
          "name": "account",
          "type": "address"
        }
      ],
      "name": "Unpaused",
      "type": "event"
    },
    {
      "anonymous": false,
      "inputs": [
        {
          "indexed": true,
          "internalType": "uint256",
          "name": "reserveId",
          "type": "uint256"
        },
        {
          "indexed": true,
          "internalType": "address",
          "name": "user",
          "type": "address"
        },
        {
          "indexed": false,
          "internalType": "uint256",
          "name": "amount",
          "type": "uint256"
        }
      ],
      "name": "Withdraw",
      "type": "event"
    },
    {
      "stateMutability": "payable",
      "type": "fallback"
    },
    {
      "inputs": [],
      "name": "SETTINGS",
      "outputs": [
        {
          "internalType": "contract IOpenSkySettings",
          "name": "",
          "type": "address"
        }
      ],
      "stateMutability": "view",
      "type": "function"
    },
    {
      "inputs": [
        {
          "internalType": "uint256",
          "name": "reserveId",
          "type": "uint256"
        },
        {
          "internalType": "uint256",
          "name": "amount",
          "type": "uint256"
        },
        {
          "internalType": "uint256",
          "name": "duration",
          "type": "uint256"
        },
        {
          "internalType": "address",
          "name": "nftAddress",
          "type": "address"
        },
        {
          "internalType": "uint256",
          "name": "tokenId",
          "type": "uint256"
        },
        {
          "internalType": "address",
          "name": "onBehalfOf",
          "type": "address"
        }
      ],
      "name": "borrow",
      "outputs": [
        {
          "internalType": "uint256",
          "name": "",
          "type": "uint256"
        }
      ],
      "stateMutability": "nonpayable",
      "type": "function"
    },
    {
      "inputs": [
        {
          "internalType": "uint256",
          "name": "reserveId",
          "type": "uint256"
        },
        {
          "internalType": "address",
          "name": "token",
          "type": "address"
        }
      ],
      "name": "claimERC20Rewards",
      "outputs": [],
      "stateMutability": "nonpayable",
      "type": "function"
    },
    {
      "inputs": [
        {
          "internalType": "uint256",
          "name": "reserveId",
          "type": "uint256"
        }
      ],
      "name": "closeMoneyMarket",
      "outputs": [],
      "stateMutability": "nonpayable",
      "type": "function"
    },
    {
      "inputs": [
        {
          "internalType": "address",
          "name": "underlyingAsset",
          "type": "address"
        },
        {
          "internalType": "string",
          "name": "name",
          "type": "string"
        },
        {
          "internalType": "string",
          "name": "symbol",
          "type": "string"
        }
      ],
      "name": "create",
      "outputs": [],
      "stateMutability": "nonpayable",
      "type": "function"
    },
    {
      "inputs": [
        {
          "internalType": "uint256",
          "name": "reserveId",
          "type": "uint256"
        },
        {
          "internalType": "uint256",
          "name": "amount",
          "type": "uint256"
        },
        {
          "internalType": "address",
          "name": "onBehalfOf",
          "type": "address"
        },
        {
          "internalType": "uint256",
          "name": "referralCode",
          "type": "uint256"
        }
      ],
      "name": "deposit",
      "outputs": [],
      "stateMutability": "nonpayable",
      "type": "function"
    },
    {
      "inputs": [
        {
          "internalType": "uint256",
          "name": "loanId",
          "type": "uint256"
        },
        {
          "internalType": "uint256",
          "name": "amount",
          "type": "uint256"
        }
      ],
      "name": "endLiquidation",
      "outputs": [],
      "stateMutability": "nonpayable",
      "type": "function"
    },
    {
      "inputs": [
        {
          "internalType": "uint256",
          "name": "oldLoanId",
          "type": "uint256"
        },
        {
          "internalType": "uint256",
          "name": "amount",
          "type": "uint256"
        },
        {
          "internalType": "uint256",
          "name": "duration",
          "type": "uint256"
        },
        {
          "internalType": "address",
          "name": "onBehalfOf",
          "type": "address"
        }
      ],
      "name": "extend",
      "outputs": [
        {
          "internalType": "uint256",
          "name": "",
          "type": "uint256"
        },
        {
          "internalType": "uint256",
          "name": "",
          "type": "uint256"
        }
      ],
      "stateMutability": "nonpayable",
      "type": "function"
    },
    {
      "inputs": [
        {
          "internalType": "uint256",
          "name": "reserveId",
          "type": "uint256"
        }
      ],
      "name": "getAvailableLiquidity",
      "outputs": [
        {
          "internalType": "uint256",
          "name": "",
          "type": "uint256"
        }
      ],
      "stateMutability": "view",
      "type": "function"
    },
    {
      "inputs": [
        {
          "internalType": "uint256",
          "name": "reserveId",
          "type": "uint256"
        },
        {
          "internalType": "address",
          "name": "nftAddress",
          "type": "address"
        },
        {
          "internalType": "uint256",
          "name": "tokenId",
          "type": "uint256"
        }
      ],
      "name": "getBorrowLimitByOracle",
      "outputs": [
        {
          "internalType": "uint256",
          "name": "",
          "type": "uint256"
        }
      ],
      "stateMutability": "view",
      "type": "function"
    },
    {
      "inputs": [
        {
          "internalType": "uint256",
          "name": "reserveId",
          "type": "uint256"
        }
      ],
      "name": "getReserveData",
      "outputs": [
        {
          "components": [
            {
              "internalType": "uint256",
              "name": "reserveId",
              "type": "uint256"
            },
            {
              "internalType": "address",
              "name": "underlyingAsset",
              "type": "address"
            },
            {
              "internalType": "address",
              "name": "oTokenAddress",
              "type": "address"
            },
            {
              "internalType": "address",
              "name": "moneyMarketAddress",
              "type": "address"
            },
            {
              "internalType": "uint128",
              "name": "lastSupplyIndex",
              "type": "uint128"
            },
            {
              "internalType": "uint256",
              "name": "borrowingInterestPerSecond",
              "type": "uint256"
            },
            {
              "internalType": "uint256",
              "name": "lastMoneyMarketBalance",
              "type": "uint256"
            },
            {
              "internalType": "uint40",
              "name": "lastUpdateTimestamp",
              "type": "uint40"
            },
            {
              "internalType": "uint256",
              "name": "totalBorrows",
              "type": "uint256"
            },
            {
              "internalType": "address",
              "name": "interestModelAddress",
              "type": "address"
            },
            {
              "internalType": "uint256",
              "name": "treasuryFactor",
              "type": "uint256"
            },
            {
              "internalType": "bool",
              "name": "isMoneyMarketOn",
              "type": "bool"
            }
          ],
          "internalType": "struct DataTypes.ReserveData",
          "name": "",
          "type": "tuple"
        }
      ],
      "stateMutability": "view",
      "type": "function"
    },
    {
      "inputs": [
        {
          "internalType": "uint256",
          "name": "reserveId",
          "type": "uint256"
        }
      ],
      "name": "getReserveNormalizedIncome",
      "outputs": [
        {
          "internalType": "uint256",
          "name": "",
          "type": "uint256"
        }
      ],
      "stateMutability": "view",
      "type": "function"
    },
    {
      "inputs": [
        {
          "internalType": "uint256",
          "name": "reserveId",
          "type": "uint256"
        }
      ],
      "name": "getTVL",
      "outputs": [
        {
          "internalType": "uint256",
          "name": "",
          "type": "uint256"
        }
      ],
      "stateMutability": "view",
      "type": "function"
    },
    {
      "inputs": [
        {
          "internalType": "uint256",
          "name": "reserveId",
          "type": "uint256"
        }
      ],
      "name": "getTotalBorrowBalance",
      "outputs": [
        {
          "internalType": "uint256",
          "name": "",
          "type": "uint256"
        }
      ],
      "stateMutability": "view",
      "type": "function"
    },
    {
      "inputs": [
        {
          "internalType": "uint256",
          "name": "reserveId",
          "type": "uint256"
        }
      ],
      "name": "openMoneyMarket",
      "outputs": [],
      "stateMutability": "nonpayable",
      "type": "function"
    },
    {
      "inputs": [],
      "name": "pause",
      "outputs": [],
      "stateMutability": "nonpayable",
      "type": "function"
    },
    {
      "inputs": [],
      "name": "paused",
      "outputs": [
        {
          "internalType": "bool",
          "name": "",
          "type": "bool"
        }
      ],
      "stateMutability": "view",
      "type": "function"
    },
    {
      "inputs": [
        {
          "internalType": "uint256",
          "name": "loanId",
          "type": "uint256"
        }
      ],
      "name": "repay",
      "outputs": [
        {
          "internalType": "uint256",
          "name": "repayAmount",
          "type": "uint256"
        }
      ],
      "stateMutability": "nonpayable",
      "type": "function"
    },
    {
      "inputs": [
        {
          "internalType": "uint256",
          "name": "",
          "type": "uint256"
        }
      ],
      "name": "reserves",
      "outputs": [
        {
          "internalType": "uint256",
          "name": "reserveId",
          "type": "uint256"
        },
        {
          "internalType": "address",
          "name": "underlyingAsset",
          "type": "address"
        },
        {
          "internalType": "address",
          "name": "oTokenAddress",
          "type": "address"
        },
        {
          "internalType": "address",
          "name": "moneyMarketAddress",
          "type": "address"
        },
        {
          "internalType": "uint128",
          "name": "lastSupplyIndex",
          "type": "uint128"
        },
        {
          "internalType": "uint256",
          "name": "borrowingInterestPerSecond",
          "type": "uint256"
        },
        {
          "internalType": "uint256",
          "name": "lastMoneyMarketBalance",
          "type": "uint256"
        },
        {
          "internalType": "uint40",
          "name": "lastUpdateTimestamp",
          "type": "uint40"
        },
        {
          "internalType": "uint256",
          "name": "totalBorrows",
          "type": "uint256"
        },
        {
          "internalType": "address",
          "name": "interestModelAddress",
          "type": "address"
        },
        {
          "internalType": "uint256",
          "name": "treasuryFactor",
          "type": "uint256"
        },
        {
          "internalType": "bool",
          "name": "isMoneyMarketOn",
          "type": "bool"
        }
      ],
      "stateMutability": "view",
      "type": "function"
    },
    {
      "inputs": [
        {
          "internalType": "uint256",
          "name": "reserveId",
          "type": "uint256"
        },
        {
          "internalType": "address",
          "name": "interestModelAddress",
          "type": "address"
        }
      ],
      "name": "setInterestModelAddress",
      "outputs": [],
      "stateMutability": "nonpayable",
      "type": "function"
    },
    {
      "inputs": [
        {
          "internalType": "uint256",
          "name": "reserveId",
          "type": "uint256"
        },
        {
          "internalType": "uint256",
          "name": "factor",
          "type": "uint256"
        }
      ],
      "name": "setTreasuryFactor",
      "outputs": [],
      "stateMutability": "nonpayable",
      "type": "function"
    },
    {
      "inputs": [
        {
          "internalType": "uint256",
          "name": "loanId",
          "type": "uint256"
        }
      ],
      "name": "startLiquidation",
      "outputs": [],
      "stateMutability": "nonpayable",
      "type": "function"
    },
    {
      "inputs": [],
      "name": "unpause",
      "outputs": [],
      "stateMutability": "nonpayable",
      "type": "function"
    },
    {
      "inputs": [
        {
          "internalType": "uint256",
          "name": "reserveId",
          "type": "uint256"
        },
        {
          "internalType": "uint256",
          "name": "amount",
          "type": "uint256"
        },
        {
          "internalType": "address",
          "name": "onBehalfOf",
          "type": "address"
        }
      ],
      "name": "withdraw",
      "outputs": [],
      "stateMutability": "nonpayable",
      "type": "function"
    },
    {
      "stateMutability": "payable",
      "type": "receive"
    }
  ],
  "transactionHash": "0x6734d6e1837690fe4174209a61ee8ffca225604124021d1d30f7f11dd1a2ec49",
  "args": [
    "0x12D182BE71BF456353FBc3aeFdae4C98465D9ef5"
  ],
  "solcInputHash": "597fe0c822de038e67f456c392a88115",
  "bytecode": "0x60a06040523480156200001157600080fd5b50604051620055d3380380620055d3833981016040819052620000349162000054565b6000805460ff19169055600180556001600160a01b031660805262000086565b6000602082840312156200006757600080fd5b81516001600160a01b03811681146200007f57600080fd5b9392505050565b60805161547b62000158600039600081816104f501528181610b5c01528181610f9d0152818161111c015281816112b70152818161133b01528181611c8101528181611d4e01528181612099015281816121ed01528181612315015281816123e3015281816124730152818161265c015281816127c60152818161283b01528181612ade01528181612bab01528181612f040152818161312c015281816132cf0152818161375b0152818161389201528181613b2401528181613eac015281816143b90152614488015261547b6000f3fe60806040526004361061014f5760003560e01c806391541e05116100b6578063dcc5cded1161006f578063dcc5cded1461054f578063e78f09491461056f578063ea3b86351461058f578063ee4cc84c146105af578063f277f90b146105cf578063f668a9c5146105ef5761018e565b806391541e0514610456578063980a8bd914610483578063a28a5336146104a3578063a7b6eb5a146104c3578063ade97ab5146104e3578063d10193cf1461052f5761018e565b806367113ef61161010857806367113ef61461028c57806376999aeb146102c1578063796d5836146102e15780638334278d146103015780638456cb59146104215780638b14f10c146104365761018e565b80630aad628b146101bf5780630ad58d2f146101f25780632235ae0f14610214578063371fd8e6146102345780633f4ba83a146102545780635c975abb146102695761018e565b3661018e57604080518082018252600381526231313160e81b6020820152905162461bcd60e51b8152610185919060040161495e565b60405180910390fd5b604080518082018252600381526218989960e91b6020820152905162461bcd60e51b8152610185919060040161495e565b3480156101cb57600080fd5b506101df6101da366004614971565b61060f565b6040519081526020015b60405180910390f35b3480156101fe57600080fd5b5061021261020d36600461499f565b610727565b005b34801561022057600080fd5b506101df61022f366004614971565b6109da565b34801561024057600080fd5b506101df61024f366004614971565b610b09565b34801561026057600080fd5b50610212611118565b34801561027557600080fd5b5060005460ff1660405190151581526020016101e9565b34801561029857600080fd5b506102ac6102a73660046149d8565b61125c565b604080519283526020830191909152016101e9565b3480156102cd57600080fd5b506102126102dc366004614a19565b611c54565b3480156102ed57600080fd5b506102126102fc366004614b4e565b612095565b34801561030d57600080fd5b506103a261031c366004614971565b600260208190526000918252604090912080546001820154928201546003830154600484015460058501546006860154600787015460088801546009890154600a8a0154600b909a0154989a6001600160a01b039081169a98811699978116986001600160801b03909716979596949564ffffffffff9094169492939116919060ff168c565b604080519c8d526001600160a01b039b8c1660208e0152998b16998c019990995296891660608b01526001600160801b0390951660808a015260a089019390935260c088019190915264ffffffffff1660e0870152610100860152929092166101208401526101408301919091521515610160820152610180016101e9565b34801561042d57600080fd5b50610212612658565b34801561044257600080fd5b506101df610451366004614bc4565b612799565b34801561046257600080fd5b50610476610471366004614971565b612943565b6040516101e99190614cd6565b34801561048f57600080fd5b5061021261049e366004614971565b612ab1565b3480156104af57600080fd5b506102126104be366004614971565b612eb2565b3480156104cf57600080fd5b506102126104de366004614ce5565b6130da565b3480156104ef57600080fd5b506105177f000000000000000000000000000000000000000000000000000000000000000081565b6040516001600160a01b0390911681526020016101e9565b34801561053b57600080fd5b5061021261054a366004614ce5565b6132cb565b34801561055b57600080fd5b506101df61056a366004614971565b613478565b34801561057b57600080fd5b5061021261058a366004614d15565b61354b565b34801561059b57600080fd5b506102126105aa366004614a19565b613709565b3480156105bb57600080fd5b506101df6105ca366004614971565b613998565b3480156105db57600080fd5b506102126105ea366004614971565b613ad2565b3480156105fb57600080fd5b506101df61060a366004614d54565b613cf2565b600081815260026020526040812054829015156040518060400160405280600381526020016203330360ec1b8152509061065c5760405162461bcd60e51b8152600401610185919061495e565b506000838152600260208181526040928390208351610180810185528154815260018201546001600160a01b03908116938201939093529281015482169383019390935260038301548116606083015260048301546001600160801b03166080830152600583015460a0830152600683015460c0830152600783015464ffffffffff1660e08301526008830154610100830152600983015416610120820152600a820154610140820152600b9091015460ff16151561016082015261072090614258565b9392505050565b60005460ff161561074a5760405162461bcd60e51b815260040161018590614db2565b6002600154141561076d5760405162461bcd60e51b815260040161018590614ddc565b60026001558261078b81600090815260026020526040902054151590565b6040518060400160405280600381526020016203330360ec1b815250906107c55760405162461bcd60e51b8152600401610185919061495e565b506000848152600260208190526040822001546001600160a01b031690816370a08231336040516001600160e01b031960e084901b1681526001600160a01b039091166004820152602401602060405180830381865afa15801561082d573d6000803e3d6000fd5b505050506040513d601f19601f820116820180604052508101906108519190614e13565b9050846000198114156108615750805b6000811180156108715750818111155b6040518060400160405280600381526020016233323160e81b815250906108ab5760405162461bcd60e51b8152600401610185919061495e565b50806108b68861060f565b10156040518060400160405280600381526020016219991960e91b815250906108f25760405162461bcd60e51b8152600401610185919061495e565b50600087815260026020526040808220815163395e905560e01b81526004810191909152336024820152604481018490526001600160a01b0388166064820152905173467C55A43d45B9A455b406D3AEbc22305C0c75599263395e90559260848082019391829003018186803b15801561096b57600080fd5b505af415801561097f573d6000803e3d6000fd5b5050505061098a3390565b6001600160a01b0316877f9da6493a92039daf47d1f2d7a782299c5994c6323eb1e972f69c432089ec52bf836040516109c591815260200190565b60405180910390a35050600180555050505050565b60008181526002602081815260408084208151610180810183528154815260018201546001600160a01b0390811694820194909452938101548316848301526003810154831660608501526004808201546001600160801b03166080860152600582015460a0860152600682015460c0860152600782015464ffffffffff1660e086015260088201546101008601526009820154909316610120850152600a810154610140850152600b015460ff1615156101608401525163328eb49160e01b815273467C55A43d45B9A455b406D3AEbc22305C0c75599263328eb49192610ac29201614cd6565b602060405180830381865af4158015610adf573d6000803e3d6000fd5b505050506040513d601f19601f82011682018060405250810190610b039190614e13565b92915050565b6000805460ff1615610b2d5760405162461bcd60e51b815260040161018590614db2565b60026001541415610b505760405162461bcd60e51b815260040161018590614ddc565b600260018190555060007f00000000000000000000000000000000000000000000000000000000000000006001600160a01b03166335bc868a6040518163ffffffff1660e01b8152600401602060405180830381865afa158015610bb8573d6000803e3d6000fd5b505050506040513d601f19601f82011682018060405250810190610bdc9190614e37565b6040516331a9108f60e11b8152600481018590529091506000906001600160a01b03831690636352211e90602401602060405180830381865afa158015610c27573d6000803e3d6000fd5b505050506040513d601f19601f82011682018060405250810190610c4b9190614e37565b60405163622fe39f60e01b81526004810186905290915082906000906001600160a01b0383169063622fe39f906024016101c060405180830381865afa158015610c99573d6000803e3d6000fd5b505050506040513d601f19601f82011682018060405250810190610cbd9190614f8b565b90506001816101a001516005811115610cd857610cd8614fa8565b1480610cfa57506002816101a001516005811115610cf857610cf8614fa8565b145b80610d1b57506003816101a001516005811115610d1957610d19614fa8565b145b6040518060400160405280600381526020016233333360e81b81525090610d555760405162461bcd60e51b8152600401610185919061495e565b50604051634b72cb4160e11b8152600481018790526000906001600160a01b038416906396e5968290602401602060405180830381865afa158015610d9e573d6000803e3d6000fd5b505050506040513d601f19601f82011682018060405250810190610dc29190614e13565b604051636b52b36560e01b8152600481018990529091506000906001600160a01b03851690636b52b36590602401602060405180830381865afa158015610e0d573d6000803e3d6000fd5b505050506040513d601f19601f82011682018060405250810190610e319190614e13565b9050610e3d8282614fd4565b83516000818152600260205260409020549198509015156040518060400160405280600381526020016203330360ec1b81525090610e8e5760405162461bcd60e51b8152600401610185919061495e565b506000818152600260205260409081902090516395705c5f60e01b815273467C55A43d45B9A455b406D3AEbc22305C0c7559916395705c5f91610eda919088908d90889060040161510a565b60006040518083038186803b158015610ef257600080fd5b505af4158015610f06573d6000803e3d6000fd5b50505050846001600160a01b031663563086128a88610f223390565b6040516001600160e01b031960e086901b16815260048101939093526001600160a01b039182166024840152166044820152606401600060405180830381600087803b158015610f7157600080fd5b505af1158015610f85573d6000803e3d6000fd5b505050506000610f923390565b6001600160a01b03167f00000000000000000000000000000000000000000000000000000000000000006001600160a01b0316635fee67086040518163ffffffff1660e01b8152600401602060405180830381865afa158015610ff9573d6000803e3d6000fd5b505050506040513d601f19601f8201168201806040525081019061101d9190614e37565b6001600160a01b0316146110315786611033565b335b60208601516040808801519051632142170760e11b81526001600160a01b038a811660048301528085166024830152604482019290925292935016906342842e0e90606401600060405180830381600087803b15801561109257600080fd5b505af11580156110a6573d6000803e3d6000fd5b5050505089816001600160a01b0316837fb26072383248d9c24b411a4bbd7216134067da189b28216744569be98bfe9b7f6110de3390565b604080516001600160a01b039092168252602082018f9052810189905260600160405180910390a450506001805550949695505050505050565b60007f00000000000000000000000000000000000000000000000000000000000000006001600160a01b0316639a9dbb996040518163ffffffff1660e01b8152600401602060405180830381865afa158015611178573d6000803e3d6000fd5b505050506040513d601f19601f8201168201806040525081019061119c9190614e37565b90506001600160a01b038116632500f2b6336040516001600160e01b031960e084901b1681526001600160a01b039091166004820152602401602060405180830381865afa1580156111f2573d6000803e3d6000fd5b505050506040513d601f19601f820116820180604052508101906112169190615143565b6040518060400160405280600381526020016232303160e81b815250906112505760405162461bcd60e51b8152600401610185919061495e565b50611259614300565b50565b60008061126b60005460ff1690565b156112885760405162461bcd60e51b815260040161018590614db2565b600260015414156112ab5760405162461bcd60e51b815260040161018590614ddc565b600260018190555060007f00000000000000000000000000000000000000000000000000000000000000006001600160a01b03166335bc868a6040518163ffffffff1660e01b8152600401602060405180830381865afa158015611313573d6000803e3d6000fd5b505050506040513d601f19601f820116820180604052508101906113379190614e37565b90507f00000000000000000000000000000000000000000000000000000000000000006001600160a01b031663d633590a6040518163ffffffff1660e01b8152600401602060405180830381865afa158015611397573d6000803e3d6000fd5b505050506040513d601f19601f820116820180604052508101906113bb9190614e37565b6001600160a01b0316336001600160a01b0316141561148c576040516331a9108f60e11b8152600481018890526001600160a01b038086169190831690636352211e90602401602060405180830381865afa15801561141e573d6000803e3d6000fd5b505050506040513d601f19601f820116820180604052508101906114429190614e37565b6001600160a01b031614604051806040016040528060038152602001620d0c0d60ea1b815250906114865760405162461bcd60e51b8152600401610185919061495e565b50611543565b336040516331a9108f60e11b8152600481018990526001600160a01b0391821691831690636352211e90602401602060405180830381865afa1580156114d6573d6000803e3d6000fd5b505050506040513d601f19601f820116820180604052508101906114fa9190614e37565b6001600160a01b031614604051806040016040528060038152602001620d0c0d60ea1b8152509061153e5760405162461bcd60e51b8152600401610185919061495e565b503393505b61154b61483d565b60405163622fe39f60e01b8152600481018990526001600160a01b0383169063622fe39f906024016101c060405180830381865afa158015611591573d6000803e3d6000fd5b505050506040513d601f19601f820116820180604052508101906115b59190614f8b565b61012082018190526101a0015160029060058111156115d6576115d6614fa8565b14806115fd575060038161012001516101a0015160058111156115fb576115fb614fa8565b145b6040518060400160405280600381526020016233333560e81b815250906116375760405162461bcd60e51b8152600401610185919061495e565b506101208101518051602090910151611651919088614393565b6101208101518051602082015160409092015161166e9290612799565b60a082015260e0810187905260001987141561168f5760a081015160e08201525b8060e001518160a0015110156040518060400160405280600381526020016233333160e81b815250906116d55760405162461bcd60e51b8152600401610185919061495e565b50604051631c18749560e01b8152600481018990526001600160a01b03831690631c18749590602401602060405180830381865afa15801561171b573d6000803e3d6000fd5b505050506040513d601f19601f8201168201806040525081019061173f9190614e13565b8152604051634b72cb4160e11b8152600481018990526001600160a01b038316906396e5968290602401602060405180830381865afa158015611786573d6000803e3d6000fd5b505050506040513d601f19601f820116820180604052508101906117aa9190614e13565b6060820181905281516117bd9190614fd4565b8160800181815250508060e001518161012001516080015111611838576000816101200151608001518260e001516117f5919061515e565b9050816080015181101561181d57808260800151611813919061515e565b6020830152611832565b608082015161182c908261515e565b60408301525b50611866565b80608001518160e0015182610120015160800151611856919061515e565b6118609190614fd4565b60208201525b6040810151156118c857610120810151516118809061060f565b60c082018190526040808301518151808301909252600382526233303160e81b6020830152909110156118c65760405162461bcd60e51b8152600401610185919061495e565b505b604051632b18430960e11b8152600481018990526001600160a01b03868116602483018190526044830152831690635630861290606401600060405180830381600087803b15801561191957600080fd5b505af115801561192d573d6000803e3d6000fd5b50505061012080830180515160009081526002602081815260408084208151610180810183528154815260018201546001600160a01b0390811694820194909452938101548316918401919091526003810154821660608085019190915260048201546001600160801b0316608080860191909152600583015460a0860152600683015460c0860152600783015464ffffffffff1660e0808701919091526008840154610100870152600984015490941697850197909752600a820154610140850152600b9091015460ff16151561016084015287015190870151875194519095015173467C55A43d45B9A455b406D3AEbc22305C0c7559965063dfdafca395929491939291611a3c91614fd4565b6040518663ffffffff1660e01b8152600401611a5c959493929190615175565b602060405180830381865af4158015611a79573d6000803e3d6000fd5b505050506040513d601f19601f82011682018060405250810190611a9d9190614e13565b81610100018181525050600080836001600160a01b03166370b4ebeb846101200151600001518986610120015160200151876101200151604001518860e001518e8a61010001516040518863ffffffff1660e01b8152600401611b0697969594939291906151aa565b6101e0604051808303816000875af1158015611b26573d6000803e3d6000fd5b505050506040513d601f19601f82011682018060405250810190611b4a91906151e6565b61012085018051516000908152600260209081526040918290209251885191890151838a015160608b015194516303eed27160e21b815297995095975073467C55A43d45B9A455b406D3AEbc22305C0c755996630fbb49c496611bb7969593948a94909392600401615214565b60006040518083038186803b158015611bcf57600080fd5b505af4158015611be3573d6000803e3d6000fd5b5050505089876001600160a01b0316846101200151600001517fbbd12926def8e41e5f1c7a10d219e405292d14f53bfdba19eebab2e3faa6c74a85604051611c2d91815260200190565b60405180910390a45050602081015160409091015160018055909890975095505050505050565b60005460ff1615611c775760405162461bcd60e51b815260040161018590614db2565b6001600160a01b037f00000000000000000000000000000000000000000000000000000000000000001663529a356f336040516001600160e01b031960e084901b1681526001600160a01b039091166004820152602401602060405180830381865afa158015611ceb573d6000803e3d6000fd5b505050506040513d601f19601f82011682018060405250810190611d0f9190615143565b6040518060400160405280600381526020016232303360e81b81525090611d495760405162461bcd60e51b8152600401610185919061495e565b5060007f00000000000000000000000000000000000000000000000000000000000000006001600160a01b03166335bc868a6040518163ffffffff1660e01b8152600401602060405180830381865afa158015611daa573d6000803e3d6000fd5b505050506040513d601f19601f82011682018060405250810190611dce9190614e37565b60405163622fe39f60e01b8152600481018590529091506000906001600160a01b0383169063622fe39f906024016101c060405180830381865afa158015611e1a573d6000803e3d6000fd5b505050506040513d601f19601f82011682018060405250810190611e3e9190614f8b565b90506005816101a001516005811115611e5957611e59614fa8565b146040518060400160405280600381526020016233363160e81b81525090611e945760405162461bcd60e51b8152600401610185919061495e565b50604051636b52b36560e01b8152600481018590526000906001600160a01b03841690636b52b36590602401602060405180830381865afa158015611edd573d6000803e3d6000fd5b505050506040513d601f19601f82011682018060405250810190611f019190614e13565b90508084101560405180604001604052806003815260200162199b1960e91b81525090611f415760405162461bcd60e51b8152600401610185919061495e565b5081516000908152600260205260409081902090516339c5132760e11b81526004810191909152602481018590526044810182905273467C55A43d45B9A455b406D3AEbc22305C0c75599063738a264e9060640160006040518083038186803b158015611fad57600080fd5b505af4158015611fc1573d6000803e3d6000fd5b505060405163ed213bbf60e01b8152600481018890526001600160a01b038616925063ed213bbf9150602401600060405180830381600087803b15801561200757600080fd5b505af115801561201b573d6000803e3d6000fd5b5050505081602001516001600160a01b03168583600001517fcde0dc431e6f088cbd9c8b1768aff225467e33d4ac1d3356494ef79600a8680585604001516120603390565b604080519283526001600160a01b03909116602083015281018990526060810186905260800160405180910390a45050505050565b60007f00000000000000000000000000000000000000000000000000000000000000006001600160a01b0316639a9dbb996040518163ffffffff1660e01b8152600401602060405180830381865afa1580156120f5573d6000803e3d6000fd5b505050506040513d601f19601f820116820180604052508101906121199190614e37565b90506001600160a01b038116637be53ca1336040516001600160e01b031960e084901b1681526001600160a01b039091166004820152602401602060405180830381865afa15801561216f573d6000803e3d6000fd5b505050506040513d601f19601f820116820180604052508101906121939190615143565b6040518060400160405280600381526020016219181960e91b815250906121cd5760405162461bcd60e51b8152600401610185919061495e565b506121dc600380546001019055565b60006121e760035490565b905060007f00000000000000000000000000000000000000000000000000000000000000006001600160a01b031663420897916040518163ffffffff1660e01b8152600401602060405180830381865afa158015612249573d6000803e3d6000fd5b505050506040513d601f19601f8201168201806040525081019061226d9190614e37565b6001600160a01b0316635e08f3378387878a6040518563ffffffff1660e01b815260040161229e949392919061525f565b6020604051808303816000875af11580156122bd573d6000803e3d6000fd5b505050506040513d601f19601f820116820180604052508101906122e19190614e37565b9050604051806101800160405280838152602001876001600160a01b03168152602001826001600160a01b031681526020017f00000000000000000000000000000000000000000000000000000000000000006001600160a01b031663efe3e3e36040518163ffffffff1660e01b8152600401602060405180830381865afa158015612371573d6000803e3d6000fd5b505050506040513d601f19601f820116820180604052508101906123959190614e37565b6001600160a01b031681526020016b033b2e3c9fd0803ce80000006001600160801b031681526020016000815260200160008152602001600064ffffffffff168152602001600081526020017f00000000000000000000000000000000000000000000000000000000000000006001600160a01b03166390839e3f6040518163ffffffff1660e01b8152600401602060405180830381865afa15801561243f573d6000803e3d6000fd5b505050506040513d601f19601f820116820180604052508101906124639190614e37565b6001600160a01b031681526020017f00000000000000000000000000000000000000000000000000000000000000006001600160a01b0316634322b7146040518163ffffffff1660e01b8152600401602060405180830381865afa1580156124cf573d6000803e3d6000fd5b505050506040513d601f19601f820116820180604052508101906124f39190614e13565b81526001602091820181905260008581526002808452604091829020855181559385015192840180546001600160a01b03199081166001600160a01b03958616179091558583015191850180548216928516929092179091556060850151600385018054831691851691909117905560808501516004850180546fffffffffffffffffffffffffffffffff19166001600160801b0390921691909117905560a0850151600585015560c0850151600685015560e085015160078501805464ffffffffff191664ffffffffff9092169190911790556101008501516008850155610120850151600985018054909216908416179055610140840151600a84015561016090930151600b909201805460ff19169215159290921790915590518282169188169084907f4e9124cfa456690cd56bf3d36fe58f11cafd4e3faf6b2748e8eabe68e08a337090612648908a908a906152a4565b60405180910390a4505050505050565b60007f00000000000000000000000000000000000000000000000000000000000000006001600160a01b0316639a9dbb996040518163ffffffff1660e01b8152600401602060405180830381865afa1580156126b8573d6000803e3d6000fd5b505050506040513d601f19601f820116820180604052508101906126dc9190614e37565b90506001600160a01b038116632500f2b6336040516001600160e01b031960e084901b1681526001600160a01b039091166004820152602401602060405180830381865afa158015612732573d6000803e3d6000fd5b505050506040513d601f19601f820116820180604052508101906127569190615143565b6040518060400160405280600381526020016232303160e81b815250906127905760405162461bcd60e51b8152600401610185919061495e565b50611259614554565b604051639dce429960e01b8152600481018490526001600160a01b03838116602483015260009161293b917f00000000000000000000000000000000000000000000000000000000000000001690639dce429990604401600060405180830381865afa15801561280d573d6000803e3d6000fd5b505050506040513d6000823e601f3d908101601f191682016040526128359190810190615317565b606001517f00000000000000000000000000000000000000000000000000000000000000006001600160a01b031663970f4c3a6040518163ffffffff1660e01b8152600401602060405180830381865afa158015612897573d6000803e3d6000fd5b505050506040513d601f19601f820116820180604052508101906128bb9190614e37565b6040516350d16d9f60e01b8152600481018890526001600160a01b0387811660248301526044820187905291909116906350d16d9f90606401602060405180830381865afa158015612911573d6000803e3d6000fd5b505050506040513d601f19601f820116820180604052508101906129359190614e13565b906145ac565b949350505050565b6040805161018081018252600080825260208201819052918101829052606081018290526080810182905260a0810182905260c0810182905260e08101829052610100810182905261012081018290526101408101829052610160810191909152600082815260026020526040902054829015156040518060400160405280600381526020016203330360ec1b815250906129f15760405162461bcd60e51b8152600401610185919061495e565b5050506000908152600260208181526040928390208351610180810185528154815260018201546001600160a01b03908116938201939093529281015482169383019390935260038301548116606083015260048301546001600160801b03166080830152600583015460a0830152600683015460c0830152600783015464ffffffffff1660e08301526008830154610100830152600983015416610120820152600a820154610140820152600b9091015460ff16151561016082015290565b60005460ff1615612ad45760405162461bcd60e51b815260040161018590614db2565b6001600160a01b037f00000000000000000000000000000000000000000000000000000000000000001663529a356f336040516001600160e01b031960e084901b1681526001600160a01b039091166004820152602401602060405180830381865afa158015612b48573d6000803e3d6000fd5b505050506040513d601f19601f82011682018060405250810190612b6c9190615143565b6040518060400160405280600381526020016232303360e81b81525090612ba65760405162461bcd60e51b8152600401610185919061495e565b5060007f00000000000000000000000000000000000000000000000000000000000000006001600160a01b03166335bc868a6040518163ffffffff1660e01b8152600401602060405180830381865afa158015612c07573d6000803e3d6000fd5b505050506040513d601f19601f82011682018060405250810190612c2b9190614e37565b60405163622fe39f60e01b8152600481018490529091506000906001600160a01b0383169063622fe39f906024016101c060405180830381865afa158015612c77573d6000803e3d6000fd5b505050506040513d601f19601f82011682018060405250810190612c9b9190614f8b565b90506004816101a001516005811115612cb657612cb6614fa8565b146040518060400160405280600381526020016203336360ec1b81525090612cf15760405162461bcd60e51b8152600401610185919061495e565b508051600090815260026020526040908190209051632a1ed55f60e11b815273467C55A43d45B9A455b406D3AEbc22305C0c75599163543daabe91612d3b919085906004016153ef565b60006040518083038186803b158015612d5357600080fd5b505af4158015612d67573d6000803e3d6000fd5b5050505080602001516001600160a01b03166342842e0e83612d863390565b60408086015190516001600160e01b031960e086901b1681526001600160a01b0393841660048201529290911660248301526044820152606401600060405180830381600087803b158015612dda57600080fd5b505af1158015612dee573d6000803e3d6000fd5b505060405163980a8bd960e01b8152600481018690526001600160a01b038516925063980a8bd99150602401600060405180830381600087803b158015612e3457600080fd5b505af1158015612e48573d6000803e3d6000fd5b5050505080602001516001600160a01b03168382600001517f338bea6971e9221d0ae5f105c79da18c6614a11556e217e0aaa361424fe654d28460400151612e8d3390565b604080519283526001600160a01b0390911660208301520160405180910390a4505050565b600081815260026020526040902054819015156040518060400160405280600381526020016203330360ec1b81525090612eff5760405162461bcd60e51b8152600401610185919061495e565b5060007f00000000000000000000000000000000000000000000000000000000000000006001600160a01b0316639a9dbb996040518163ffffffff1660e01b8152600401602060405180830381865afa158015612f60573d6000803e3d6000fd5b505050506040513d601f19601f82011682018060405250810190612f849190614e37565b90506001600160a01b038116632500f2b6336040516001600160e01b031960e084901b1681526001600160a01b039091166004820152602401602060405180830381865afa158015612fda573d6000803e3d6000fd5b505050506040513d601f19601f82011682018060405250810190612ffe9190615143565b6040518060400160405280600381526020016232303160e81b815250906130385760405162461bcd60e51b8152600401610185919061495e565b50600083815260026020908152604091829020600b01548251808401909352600383526233303360e81b9183019190915260ff166130895760405162461bcd60e51b8152600401610185919061495e565b5060008381526002602052604090206130a190614654565b6040518381527ffa52d8cf59b61f2698ee5e988b488cc589a524be112b15acf937dab59bf36120906020015b60405180910390a1505050565b600082815260026020526040902054829015156040518060400160405280600381526020016203330360ec1b815250906131275760405162461bcd60e51b8152600401610185919061495e565b5060007f00000000000000000000000000000000000000000000000000000000000000006001600160a01b0316639a9dbb996040518163ffffffff1660e01b8152600401602060405180830381865afa158015613188573d6000803e3d6000fd5b505050506040513d601f19601f820116820180604052508101906131ac9190614e37565b90506001600160a01b038116637be53ca1336040516001600160e01b031960e084901b1681526001600160a01b039091166004820152602401602060405180830381865afa158015613202573d6000803e3d6000fd5b505050506040513d601f19601f820116820180604052508101906132269190615143565b6040518060400160405280600381526020016219181960e91b815250906132605760405162461bcd60e51b8152600401610185919061495e565b5060008481526002602090815260409182902060090180546001600160a01b0319166001600160a01b038716908117909155915191825285917f2a510455968cb9bf56ecbeeab12f13ed51a86ebdb3cdcec2f502f78c9f2a454191015b60405180910390a250505050565b60007f00000000000000000000000000000000000000000000000000000000000000006001600160a01b0316639a9dbb996040518163ffffffff1660e01b8152600401602060405180830381865afa15801561332b573d6000803e3d6000fd5b505050506040513d601f19601f8201168201806040525081019061334f9190614e37565b90506001600160a01b038116637be53ca1336040516001600160e01b031960e084901b1681526001600160a01b039091166004820152602401602060405180830381865afa1580156133a5573d6000803e3d6000fd5b505050506040513d601f19601f820116820180604052508101906133c99190615143565b6040518060400160405280600381526020016219181960e91b815250906134035760405162461bcd60e51b8152600401610185919061495e565b5060008381526002602081905260409182902001549051634c20618560e11b81526001600160a01b03848116600483015290911690639840c30a90602401600060405180830381600087803b15801561345b57600080fd5b505af115801561346f573d6000803e3d6000fd5b50505050505050565b600081815260026020526040812054829015156040518060400160405280600381526020016203330360ec1b815250906134c55760405162461bcd60e51b8152600401610185919061495e565b5060008381526002602052604090819020905163564f0dfb60e01b8152600481019190915273467C55A43d45B9A455b406D3AEbc22305C0c75599063564f0dfb906024015b602060405180830381865af4158015613527573d6000803e3d6000fd5b505050506040513d601f19601f820116820180604052508101906107209190614e13565b60005460ff161561356e5760405162461bcd60e51b815260040161018590614db2565b600260015414156135915760405162461bcd60e51b815260040161018590614ddc565b6002600155836135af81600090815260026020526040902054151590565b6040518060400160405280600381526020016203330360ec1b815250906135e95760405162461bcd60e51b8152600401610185919061495e565b5060408051808201909152600381526203332360ec1b6020820152846136225760405162461bcd60e51b8152600401610185919061495e565b50600085815260026020526040808220815163fe981a4f60e01b81526004810191909152336024820152604481018790526001600160a01b0386166064820152905173467C55A43d45B9A455b406D3AEbc22305C0c75599263fe981a4f9260848082019391829003018186803b15801561369b57600080fd5b505af41580156136af573d6000803e3d6000fd5b50505050816136bb3390565b6001600160a01b0316867fd36a2f67d06d285786f61a32b052b9ace6b0b7abef5177b54358abdc83a0b69b876040516136f691815260200190565b60405180910390a4505060018055505050565b600082815260026020526040902054829015156040518060400160405280600381526020016203330360ec1b815250906137565760405162461bcd60e51b8152600401610185919061495e565b5060007f00000000000000000000000000000000000000000000000000000000000000006001600160a01b0316639a9dbb996040518163ffffffff1660e01b8152600401602060405180830381865afa1580156137b7573d6000803e3d6000fd5b505050506040513d601f19601f820116820180604052508101906137db9190614e37565b90506001600160a01b038116637be53ca1336040516001600160e01b031960e084901b1681526001600160a01b039091166004820152602401602060405180830381865afa158015613831573d6000803e3d6000fd5b505050506040513d601f19601f820116820180604052508101906138559190615143565b6040518060400160405280600381526020016219181960e91b8152509061388f5760405162461bcd60e51b8152600401610185919061495e565b507f00000000000000000000000000000000000000000000000000000000000000006001600160a01b031663d23a65cf6040518163ffffffff1660e01b8152600401602060405180830381865afa1580156138ee573d6000803e3d6000fd5b505050506040513d601f19601f820116820180604052508101906139129190614e13565b831115604051806040016040528060038152602001620ccc0d60ea1b8152509061394f5760405162461bcd60e51b8152600401610185919061495e565b5060008481526002602052604090819020600a018490555184907fa42eaeef2868aa910fcded03fb023a51209c7304b595991cb71ff2968b266087906132bd9086815260200190565b600081815260026020526040812054829015156040518060400160405280600381526020016203330360ec1b815250906139e55760405162461bcd60e51b8152600401610185919061495e565b506000838152600260208181526040928390208351610180810185528154815260018201546001600160a01b0390811693820193909352928101548216838501526003810154821660608401526004808201546001600160801b03166080850152600582015460a0850152600682015460c0850152600782015464ffffffffff1660e085015260088201546101008501526009820154909216610120840152600a810154610140840152600b015460ff161515610160830152915163640d9a7760e11b815273467C55A43d45B9A455b406D3AEbc22305C0c75599263c81b34ee9261350a92909101614cd6565b600081815260026020526040902054819015156040518060400160405280600381526020016203330360ec1b81525090613b1f5760405162461bcd60e51b8152600401610185919061495e565b5060007f00000000000000000000000000000000000000000000000000000000000000006001600160a01b0316639a9dbb996040518163ffffffff1660e01b8152600401602060405180830381865afa158015613b80573d6000803e3d6000fd5b505050506040513d601f19601f82011682018060405250810190613ba49190614e37565b90506001600160a01b038116632500f2b6336040516001600160e01b031960e084901b1681526001600160a01b039091166004820152602401602060405180830381865afa158015613bfa573d6000803e3d6000fd5b505050506040513d601f19601f82011682018060405250810190613c1e9190615143565b6040518060400160405280600381526020016232303160e81b81525090613c585760405162461bcd60e51b8152600401610185919061495e565b50600083815260026020908152604091829020600b01548251808401909352600383526233303360e81b9183019190915260ff1615613caa5760405162461bcd60e51b8152600401610185919061495e565b506000838152600260205260409020613cc29061474f565b6040518381527f7d112c7767bf19c038f01732f5928c582a8f0de6fce5f2b0c70e9e4a91d3d39c906020016130cd565b6000805460ff1615613d165760405162461bcd60e51b815260040161018590614db2565b60026001541415613d395760405162461bcd60e51b815260040161018590614ddc565b600260015586613d5781600090815260026020526040902054151590565b6040518060400160405280600381526020016203330360ec1b81525090613d915760405162461bcd60e51b8152600401610185919061495e565b50613d9d888688614393565b613dd86040518060a001604052806000815260200160008152602001600081526020016000815260200160006001600160a01b031681525090565b613de3898787612799565b8152613dee8961060f565b602082015260408101889052600019881415613e23576020810151815110613e1a578060200151613e1d565b80515b60408201525b60408082015182518251808401909352600383526233333160e81b60208401521015613e625760405162461bcd60e51b8152600401610185919061495e565b508060400151816020015110156040518060400160405280600381526020016233303160e81b81525090613ea95760405162461bcd60e51b8152600401610185919061495e565b507f00000000000000000000000000000000000000000000000000000000000000006001600160a01b03166335bc868a6040518163ffffffff1660e01b8152600401602060405180830381865afa158015613f08573d6000803e3d6000fd5b505050506040513d601f19601f82011682018060405250810190613f2c9190614e37565b6001600160a01b03908116608083015286166342842e0e3360808401516040516001600160e01b031960e085901b1681526001600160a01b0392831660048201529116602482015260448101889052606401600060405180830381600087803b158015613f9857600080fd5b505af1158015613fac573d6000803e3d6000fd5b50505060008a81526002602081815260408084208151610180810183528154815260018201546001600160a01b0390811694820194909452938101548316848301526003810154831660608501526004808201546001600160801b03166080860152600582015460a0860152600682015460c0860152600782015464ffffffffff1660e086015260088201546101008601526009820154909316610120850152600a810154610140850152600b015460ff16151561016084015285810151905163dfdafca360e01b815273467C55A43d45B9A455b406D3AEbc22305C0c7559955063dfdafca3946140a69493909283929091839101615175565b602060405180830381865af41580156140c3573d6000803e3d6000fd5b505050506040513d601f19601f820116820180604052508101906140e79190614e13565b81606001818152505060008082608001516001600160a01b03166370b4ebeb8c888b8b88604001518f8a606001516040518863ffffffff1660e01b815260040161413797969594939291906151aa565b6101e0604051808303816000875af1158015614157573d6000803e3d6000fd5b505050506040513d601f19601f8201168201806040525081019061417b91906151e6565b60008d81526002602052604090819020905163030b159d60e31b815292945090925073467C55A43d45B9A455b406D3AEbc22305C0c755991631858ace8916141c79185906004016153ef565b60006040518083038186803b1580156141df57600080fd5b505af41580156141f3573d6000803e3d6000fd5b5050505081866001600160a01b03168c7ff9a33434428db5f0416c03e38307599ad0b9b9965d6c070eb08e87cc1f0ca50e61422b3390565b6040516001600160a01b03909116815260200160405180910390a450600180559998505050505050505050565b6000816101600151156142c35760608201516020830151604080850151905163d4fac45d60e01b81526001600160a01b039283166004820152908216602482015291169063d4fac45d906044015b602060405180830381865afa158015610adf573d6000803e3d6000fd5b602082015160408084015190516370a0823160e01b81526001600160a01b0391821660048201529116906370a08231906024016142a6565b919050565b60005460ff166143495760405162461bcd60e51b815260206004820152601460248201527314185d5cd8589b194e881b9bdd081c185d5cd95960621b6044820152606401610185565b6000805460ff191690557f5db9ee0a495bf2e6ff9c91a7834c1ba4fdd244a5e8aa4e537bd38aeae4b073aa335b6040516001600160a01b03909116815260200160405180910390a1565b6040516346296c6960e01b8152600481018490526001600160a01b0383811660248301527f000000000000000000000000000000000000000000000000000000000000000016906346296c6990604401602060405180830381865afa158015614400573d6000803e3d6000fd5b505050506040513d601f19601f820116820180604052508101906144249190615143565b6040518060400160405280600381526020016219999960e91b8152509061445e5760405162461bcd60e51b8152600401610185919061495e565b50604051639dce429960e01b8152600481018490526001600160a01b0383811660248301526000917f000000000000000000000000000000000000000000000000000000000000000090911690639dce429990604401600060405180830381865afa1580156144d1573d6000803e3d6000fd5b505050506040513d6000823e601f3d908101601f191682016040526144f99190810190615317565b90508060800151821015801561451357508060a001518211155b6040518060400160405280600381526020016203333360ec1b8152509061454d5760405162461bcd60e51b8152600401610185919061495e565b5050505050565b60005460ff16156145775760405162461bcd60e51b815260040161018590614db2565b6000805460ff191660011790557f62e78cea01bee320cd4e420270b5ea74000d11b0c9f74754ebdbfc544b05a2586143763390565b60008215806145b9575081155b156145c657506000610b03565b816145d46002612710615404565b6145e09060001961515e565b6145ea9190615404565b8311156040518060400160405280600381526020016203130360ec1b815250906146275760405162461bcd60e51b8152600401610185919061495e565b50612710614636600282615404565b6146408486615426565b61464a9190614fd4565b6107209190615404565b60028101546003820154600183015460405163d4fac45d60e01b81526001600160a01b0391821660048201529281166024840181905292600092919091169063d4fac45d90604401602060405180830381865afa1580156146b9573d6000803e3d6000fd5b505050506040513d601f19601f820116820180604052508101906146dd9190614e13565b604051627b8a6760e11b8152600481018290526001600160a01b0384166024820181905291925062f714ce90604401600060405180830381600087803b15801561472657600080fd5b505af115801561473a573d6000803e3d6000fd5b505050600b909301805460ff19169055505050565b600b8101805460ff1916600190811790915581015460028201546040516370a0823160e01b81526001600160a01b03918216600482015260009291909116906370a0823190602401602060405180830381865afa1580156147b4573d6000803e3d6000fd5b505050506040513d601f19601f820116820180604052508101906147d89190614e13565b600283015460405163b6b55f2560e01b8152600481018390529192506001600160a01b03169063b6b55f2590602401600060405180830381600087803b15801561482157600080fd5b505af1158015614835573d6000803e3d6000fd5b505050505050565b6040518061014001604052806000815260200160008152602001600081526020016000815260200160008152602001600081526020016000815260200160008152602001600081526020016148fd604080516101c081018252600080825260208201819052918101829052606081018290526080810182905260a0810182905260c0810182905260e0810182905261010081018290526101208101829052610140810182905261016081018290526101808101829052906101a082015290565b905290565b60005b8381101561491d578181015183820152602001614905565b8381111561492c576000848401525b50505050565b6000815180845261494a816020860160208601614902565b601f01601f19169290920160200192915050565b6020815260006107206020830184614932565b60006020828403121561498357600080fd5b5035919050565b6001600160a01b038116811461125957600080fd5b6000806000606084860312156149b457600080fd5b833592506020840135915060408401356149cd8161498a565b809150509250925092565b600080600080608085870312156149ee57600080fd5b8435935060208501359250604085013591506060850135614a0e8161498a565b939692955090935050565b60008060408385031215614a2c57600080fd5b50508035926020909101359150565b634e487b7160e01b600052604160045260246000fd5b6040516101c0810167ffffffffffffffff81118282101715614a7557614a75614a3b565b60405290565b604051610100810167ffffffffffffffff81118282101715614a7557614a75614a3b565b604051601f8201601f1916810167ffffffffffffffff81118282101715614ac857614ac8614a3b565b604052919050565b600067ffffffffffffffff821115614aea57614aea614a3b565b50601f01601f191660200190565b600082601f830112614b0957600080fd5b8135614b1c614b1782614ad0565b614a9f565b818152846020838601011115614b3157600080fd5b816020850160208301376000918101602001919091529392505050565b600080600060608486031215614b6357600080fd5b8335614b6e8161498a565b9250602084013567ffffffffffffffff80821115614b8b57600080fd5b614b9787838801614af8565b93506040860135915080821115614bad57600080fd5b50614bba86828701614af8565b9150509250925092565b600080600060608486031215614bd957600080fd5b833592506020840135614beb8161498a565b929592945050506040919091013590565b805182526020810151614c1a60208401826001600160a01b03169052565b506040810151614c3560408401826001600160a01b03169052565b506060810151614c5060608401826001600160a01b03169052565b506080810151614c6b60808401826001600160801b03169052565b5060a081015160a083015260c081015160c083015260e0810151614c9860e084018264ffffffffff169052565b506101008181015190830152610120808201516001600160a01b0316908301526101408082015190830152610160808201518015158285015261492c565b6101808101610b038284614bfc565b60008060408385031215614cf857600080fd5b823591506020830135614d0a8161498a565b809150509250929050565b60008060008060808587031215614d2b57600080fd5b84359350602085013592506040850135614d448161498a565b9396929550929360600135925050565b60008060008060008060c08789031215614d6d57600080fd5b8635955060208701359450604087013593506060870135614d8d8161498a565b92506080870135915060a0870135614da48161498a565b809150509295509295509295565b60208082526010908201526f14185d5cd8589b194e881c185d5cd95960821b604082015260600190565b6020808252601f908201527f5265656e7472616e637947756172643a207265656e7472616e742063616c6c00604082015260600190565b600060208284031215614e2557600080fd5b5051919050565b80516142fb8161498a565b600060208284031215614e4957600080fd5b81516107208161498a565b80516001600160801b03811681146142fb57600080fd5b805164ffffffffff811681146142fb57600080fd5b8051600681106142fb57600080fd5b60006101c08284031215614ea257600080fd5b614eaa614a51565b905081518152614ebc60208301614e2c565b602082015260408201516040820152614ed760608301614e2c565b606082015260808201516080820152614ef260a08301614e54565b60a0820152614f0360c08301614e54565b60c0820152614f1460e08301614e6b565b60e0820152610100614f27818401614e6b565b90820152610120614f39838201614e6b565b90820152610140614f4b838201614e6b565b90820152610160614f5d838201614e6b565b90820152610180614f6f838201614e6b565b908201526101a0614f81838201614e80565b9082015292915050565b60006101c08284031215614f9e57600080fd5b6107208383614e8f565b634e487b7160e01b600052602160045260246000fd5b634e487b7160e01b600052601160045260246000fd5b60008219821115614fe757614fe7614fbe565b500190565b6006811061500a57634e487b7160e01b600052602160045260246000fd5b9052565b80518252602081015161502c60208401826001600160a01b03169052565b5060408101516040830152606081015161505160608401826001600160a01b03169052565b506080810151608083015260a081015161507660a08401826001600160801b03169052565b5060c081015161509160c08401826001600160801b03169052565b5060e08101516150aa60e084018264ffffffffff169052565b506101008181015164ffffffffff9081169184019190915261012080830151821690840152610140808301518216908401526101608083015182169084015261018080830151909116908301526101a08082015161492c82850182614fec565b848152610220810161511f602083018661500e565b6101e0820193909352610200015292915050565b805180151581146142fb57600080fd5b60006020828403121561515557600080fd5b61072082615133565b60008282101561517057615170614fbe565b500390565b61020081016151848288614bfc565b85610180830152846101a0830152836101c0830152826101e08301529695505050505050565b9687526001600160a01b0395861660208801529390941660408601526060850191909152608084015260a083019190915260c082015260e00190565b6000806101e083850312156151fa57600080fd5b8251915061520b8460208501614e8f565b90509250929050565b8781526104208101615229602083018961500e565b6152376101e083018861500e565b856103a0830152846103c0830152836103e08301528261040083015298975050505050505050565b8481526080602082015260006152786080830186614932565b828103604084015261528a8186614932565b91505060018060a01b038316606083015295945050505050565b6040815260006152b76040830185614932565b82810360208401526152c98185614932565b95945050505050565b600082601f8301126152e357600080fd5b81516152f1614b1782614ad0565b81815284602083860101111561530657600080fd5b61293b826020830160208701614902565b60006020828403121561532957600080fd5b815167ffffffffffffffff8082111561534157600080fd5b90830190610100828603121561535657600080fd5b61535e614a7b565b61536783615133565b815260208301518281111561537b57600080fd5b615387878286016152d2565b60208301525060408301518281111561539f57600080fd5b6153ab878286016152d2565b604083015250606083015160608201526080830151608082015260a083015160a082015260c083015160c082015260e083015160e082015280935050505092915050565b8281526101e08101610720602083018461500e565b60008261542157634e487b7160e01b600052601260045260246000fd5b500490565b600081600019048311821515161561544057615440614fbe565b50029056fea2646970667358221220c6e0e685d61c34187ae9b70f89011a86e4ab62827d38d041031bba07f99a36b864736f6c634300080a0033",
  "deployedBytecode": "0x60806040526004361061014f5760003560e01c806391541e05116100b6578063dcc5cded1161006f578063dcc5cded1461054f578063e78f09491461056f578063ea3b86351461058f578063ee4cc84c146105af578063f277f90b146105cf578063f668a9c5146105ef5761018e565b806391541e0514610456578063980a8bd914610483578063a28a5336146104a3578063a7b6eb5a146104c3578063ade97ab5146104e3578063d10193cf1461052f5761018e565b806367113ef61161010857806367113ef61461028c57806376999aeb146102c1578063796d5836146102e15780638334278d146103015780638456cb59146104215780638b14f10c146104365761018e565b80630aad628b146101bf5780630ad58d2f146101f25780632235ae0f14610214578063371fd8e6146102345780633f4ba83a146102545780635c975abb146102695761018e565b3661018e57604080518082018252600381526231313160e81b6020820152905162461bcd60e51b8152610185919060040161495e565b60405180910390fd5b604080518082018252600381526218989960e91b6020820152905162461bcd60e51b8152610185919060040161495e565b3480156101cb57600080fd5b506101df6101da366004614971565b61060f565b6040519081526020015b60405180910390f35b3480156101fe57600080fd5b5061021261020d36600461499f565b610727565b005b34801561022057600080fd5b506101df61022f366004614971565b6109da565b34801561024057600080fd5b506101df61024f366004614971565b610b09565b34801561026057600080fd5b50610212611118565b34801561027557600080fd5b5060005460ff1660405190151581526020016101e9565b34801561029857600080fd5b506102ac6102a73660046149d8565b61125c565b604080519283526020830191909152016101e9565b3480156102cd57600080fd5b506102126102dc366004614a19565b611c54565b3480156102ed57600080fd5b506102126102fc366004614b4e565b612095565b34801561030d57600080fd5b506103a261031c366004614971565b600260208190526000918252604090912080546001820154928201546003830154600484015460058501546006860154600787015460088801546009890154600a8a0154600b909a0154989a6001600160a01b039081169a98811699978116986001600160801b03909716979596949564ffffffffff9094169492939116919060ff168c565b604080519c8d526001600160a01b039b8c1660208e0152998b16998c019990995296891660608b01526001600160801b0390951660808a015260a089019390935260c088019190915264ffffffffff1660e0870152610100860152929092166101208401526101408301919091521515610160820152610180016101e9565b34801561042d57600080fd5b50610212612658565b34801561044257600080fd5b506101df610451366004614bc4565b612799565b34801561046257600080fd5b50610476610471366004614971565b612943565b6040516101e99190614cd6565b34801561048f57600080fd5b5061021261049e366004614971565b612ab1565b3480156104af57600080fd5b506102126104be366004614971565b612eb2565b3480156104cf57600080fd5b506102126104de366004614ce5565b6130da565b3480156104ef57600080fd5b506105177f000000000000000000000000000000000000000000000000000000000000000081565b6040516001600160a01b0390911681526020016101e9565b34801561053b57600080fd5b5061021261054a366004614ce5565b6132cb565b34801561055b57600080fd5b506101df61056a366004614971565b613478565b34801561057b57600080fd5b5061021261058a366004614d15565b61354b565b34801561059b57600080fd5b506102126105aa366004614a19565b613709565b3480156105bb57600080fd5b506101df6105ca366004614971565b613998565b3480156105db57600080fd5b506102126105ea366004614971565b613ad2565b3480156105fb57600080fd5b506101df61060a366004614d54565b613cf2565b600081815260026020526040812054829015156040518060400160405280600381526020016203330360ec1b8152509061065c5760405162461bcd60e51b8152600401610185919061495e565b506000838152600260208181526040928390208351610180810185528154815260018201546001600160a01b03908116938201939093529281015482169383019390935260038301548116606083015260048301546001600160801b03166080830152600583015460a0830152600683015460c0830152600783015464ffffffffff1660e08301526008830154610100830152600983015416610120820152600a820154610140820152600b9091015460ff16151561016082015261072090614258565b9392505050565b60005460ff161561074a5760405162461bcd60e51b815260040161018590614db2565b6002600154141561076d5760405162461bcd60e51b815260040161018590614ddc565b60026001558261078b81600090815260026020526040902054151590565b6040518060400160405280600381526020016203330360ec1b815250906107c55760405162461bcd60e51b8152600401610185919061495e565b506000848152600260208190526040822001546001600160a01b031690816370a08231336040516001600160e01b031960e084901b1681526001600160a01b039091166004820152602401602060405180830381865afa15801561082d573d6000803e3d6000fd5b505050506040513d601f19601f820116820180604052508101906108519190614e13565b9050846000198114156108615750805b6000811180156108715750818111155b6040518060400160405280600381526020016233323160e81b815250906108ab5760405162461bcd60e51b8152600401610185919061495e565b50806108b68861060f565b10156040518060400160405280600381526020016219991960e91b815250906108f25760405162461bcd60e51b8152600401610185919061495e565b50600087815260026020526040808220815163395e905560e01b81526004810191909152336024820152604481018490526001600160a01b0388166064820152905173__$5e6137a1b5a0a366e2874209b5abf71c10$__9263395e90559260848082019391829003018186803b15801561096b57600080fd5b505af415801561097f573d6000803e3d6000fd5b5050505061098a3390565b6001600160a01b0316877f9da6493a92039daf47d1f2d7a782299c5994c6323eb1e972f69c432089ec52bf836040516109c591815260200190565b60405180910390a35050600180555050505050565b60008181526002602081815260408084208151610180810183528154815260018201546001600160a01b0390811694820194909452938101548316848301526003810154831660608501526004808201546001600160801b03166080860152600582015460a0860152600682015460c0860152600782015464ffffffffff1660e086015260088201546101008601526009820154909316610120850152600a810154610140850152600b015460ff1615156101608401525163328eb49160e01b815273__$5e6137a1b5a0a366e2874209b5abf71c10$__9263328eb49192610ac29201614cd6565b602060405180830381865af4158015610adf573d6000803e3d6000fd5b505050506040513d601f19601f82011682018060405250810190610b039190614e13565b92915050565b6000805460ff1615610b2d5760405162461bcd60e51b815260040161018590614db2565b60026001541415610b505760405162461bcd60e51b815260040161018590614ddc565b600260018190555060007f00000000000000000000000000000000000000000000000000000000000000006001600160a01b03166335bc868a6040518163ffffffff1660e01b8152600401602060405180830381865afa158015610bb8573d6000803e3d6000fd5b505050506040513d601f19601f82011682018060405250810190610bdc9190614e37565b6040516331a9108f60e11b8152600481018590529091506000906001600160a01b03831690636352211e90602401602060405180830381865afa158015610c27573d6000803e3d6000fd5b505050506040513d601f19601f82011682018060405250810190610c4b9190614e37565b60405163622fe39f60e01b81526004810186905290915082906000906001600160a01b0383169063622fe39f906024016101c060405180830381865afa158015610c99573d6000803e3d6000fd5b505050506040513d601f19601f82011682018060405250810190610cbd9190614f8b565b90506001816101a001516005811115610cd857610cd8614fa8565b1480610cfa57506002816101a001516005811115610cf857610cf8614fa8565b145b80610d1b57506003816101a001516005811115610d1957610d19614fa8565b145b6040518060400160405280600381526020016233333360e81b81525090610d555760405162461bcd60e51b8152600401610185919061495e565b50604051634b72cb4160e11b8152600481018790526000906001600160a01b038416906396e5968290602401602060405180830381865afa158015610d9e573d6000803e3d6000fd5b505050506040513d601f19601f82011682018060405250810190610dc29190614e13565b604051636b52b36560e01b8152600481018990529091506000906001600160a01b03851690636b52b36590602401602060405180830381865afa158015610e0d573d6000803e3d6000fd5b505050506040513d601f19601f82011682018060405250810190610e319190614e13565b9050610e3d8282614fd4565b83516000818152600260205260409020549198509015156040518060400160405280600381526020016203330360ec1b81525090610e8e5760405162461bcd60e51b8152600401610185919061495e565b506000818152600260205260409081902090516395705c5f60e01b815273__$5e6137a1b5a0a366e2874209b5abf71c10$__916395705c5f91610eda919088908d90889060040161510a565b60006040518083038186803b158015610ef257600080fd5b505af4158015610f06573d6000803e3d6000fd5b50505050846001600160a01b031663563086128a88610f223390565b6040516001600160e01b031960e086901b16815260048101939093526001600160a01b039182166024840152166044820152606401600060405180830381600087803b158015610f7157600080fd5b505af1158015610f85573d6000803e3d6000fd5b505050506000610f923390565b6001600160a01b03167f00000000000000000000000000000000000000000000000000000000000000006001600160a01b0316635fee67086040518163ffffffff1660e01b8152600401602060405180830381865afa158015610ff9573d6000803e3d6000fd5b505050506040513d601f19601f8201168201806040525081019061101d9190614e37565b6001600160a01b0316146110315786611033565b335b60208601516040808801519051632142170760e11b81526001600160a01b038a811660048301528085166024830152604482019290925292935016906342842e0e90606401600060405180830381600087803b15801561109257600080fd5b505af11580156110a6573d6000803e3d6000fd5b5050505089816001600160a01b0316837fb26072383248d9c24b411a4bbd7216134067da189b28216744569be98bfe9b7f6110de3390565b604080516001600160a01b039092168252602082018f9052810189905260600160405180910390a450506001805550949695505050505050565b60007f00000000000000000000000000000000000000000000000000000000000000006001600160a01b0316639a9dbb996040518163ffffffff1660e01b8152600401602060405180830381865afa158015611178573d6000803e3d6000fd5b505050506040513d601f19601f8201168201806040525081019061119c9190614e37565b90506001600160a01b038116632500f2b6336040516001600160e01b031960e084901b1681526001600160a01b039091166004820152602401602060405180830381865afa1580156111f2573d6000803e3d6000fd5b505050506040513d601f19601f820116820180604052508101906112169190615143565b6040518060400160405280600381526020016232303160e81b815250906112505760405162461bcd60e51b8152600401610185919061495e565b50611259614300565b50565b60008061126b60005460ff1690565b156112885760405162461bcd60e51b815260040161018590614db2565b600260015414156112ab5760405162461bcd60e51b815260040161018590614ddc565b600260018190555060007f00000000000000000000000000000000000000000000000000000000000000006001600160a01b03166335bc868a6040518163ffffffff1660e01b8152600401602060405180830381865afa158015611313573d6000803e3d6000fd5b505050506040513d601f19601f820116820180604052508101906113379190614e37565b90507f00000000000000000000000000000000000000000000000000000000000000006001600160a01b031663d633590a6040518163ffffffff1660e01b8152600401602060405180830381865afa158015611397573d6000803e3d6000fd5b505050506040513d601f19601f820116820180604052508101906113bb9190614e37565b6001600160a01b0316336001600160a01b0316141561148c576040516331a9108f60e11b8152600481018890526001600160a01b038086169190831690636352211e90602401602060405180830381865afa15801561141e573d6000803e3d6000fd5b505050506040513d601f19601f820116820180604052508101906114429190614e37565b6001600160a01b031614604051806040016040528060038152602001620d0c0d60ea1b815250906114865760405162461bcd60e51b8152600401610185919061495e565b50611543565b336040516331a9108f60e11b8152600481018990526001600160a01b0391821691831690636352211e90602401602060405180830381865afa1580156114d6573d6000803e3d6000fd5b505050506040513d601f19601f820116820180604052508101906114fa9190614e37565b6001600160a01b031614604051806040016040528060038152602001620d0c0d60ea1b8152509061153e5760405162461bcd60e51b8152600401610185919061495e565b503393505b61154b61483d565b60405163622fe39f60e01b8152600481018990526001600160a01b0383169063622fe39f906024016101c060405180830381865afa158015611591573d6000803e3d6000fd5b505050506040513d601f19601f820116820180604052508101906115b59190614f8b565b61012082018190526101a0015160029060058111156115d6576115d6614fa8565b14806115fd575060038161012001516101a0015160058111156115fb576115fb614fa8565b145b6040518060400160405280600381526020016233333560e81b815250906116375760405162461bcd60e51b8152600401610185919061495e565b506101208101518051602090910151611651919088614393565b6101208101518051602082015160409092015161166e9290612799565b60a082015260e0810187905260001987141561168f5760a081015160e08201525b8060e001518160a0015110156040518060400160405280600381526020016233333160e81b815250906116d55760405162461bcd60e51b8152600401610185919061495e565b50604051631c18749560e01b8152600481018990526001600160a01b03831690631c18749590602401602060405180830381865afa15801561171b573d6000803e3d6000fd5b505050506040513d601f19601f8201168201806040525081019061173f9190614e13565b8152604051634b72cb4160e11b8152600481018990526001600160a01b038316906396e5968290602401602060405180830381865afa158015611786573d6000803e3d6000fd5b505050506040513d601f19601f820116820180604052508101906117aa9190614e13565b6060820181905281516117bd9190614fd4565b8160800181815250508060e001518161012001516080015111611838576000816101200151608001518260e001516117f5919061515e565b9050816080015181101561181d57808260800151611813919061515e565b6020830152611832565b608082015161182c908261515e565b60408301525b50611866565b80608001518160e0015182610120015160800151611856919061515e565b6118609190614fd4565b60208201525b6040810151156118c857610120810151516118809061060f565b60c082018190526040808301518151808301909252600382526233303160e81b6020830152909110156118c65760405162461bcd60e51b8152600401610185919061495e565b505b604051632b18430960e11b8152600481018990526001600160a01b03868116602483018190526044830152831690635630861290606401600060405180830381600087803b15801561191957600080fd5b505af115801561192d573d6000803e3d6000fd5b50505061012080830180515160009081526002602081815260408084208151610180810183528154815260018201546001600160a01b0390811694820194909452938101548316918401919091526003810154821660608085019190915260048201546001600160801b0316608080860191909152600583015460a0860152600683015460c0860152600783015464ffffffffff1660e0808701919091526008840154610100870152600984015490941697850197909752600a820154610140850152600b9091015460ff16151561016084015287015190870151875194519095015173__$5e6137a1b5a0a366e2874209b5abf71c10$__965063dfdafca395929491939291611a3c91614fd4565b6040518663ffffffff1660e01b8152600401611a5c959493929190615175565b602060405180830381865af4158015611a79573d6000803e3d6000fd5b505050506040513d601f19601f82011682018060405250810190611a9d9190614e13565b81610100018181525050600080836001600160a01b03166370b4ebeb846101200151600001518986610120015160200151876101200151604001518860e001518e8a61010001516040518863ffffffff1660e01b8152600401611b0697969594939291906151aa565b6101e0604051808303816000875af1158015611b26573d6000803e3d6000fd5b505050506040513d601f19601f82011682018060405250810190611b4a91906151e6565b61012085018051516000908152600260209081526040918290209251885191890151838a015160608b015194516303eed27160e21b815297995095975073__$5e6137a1b5a0a366e2874209b5abf71c10$__96630fbb49c496611bb7969593948a94909392600401615214565b60006040518083038186803b158015611bcf57600080fd5b505af4158015611be3573d6000803e3d6000fd5b5050505089876001600160a01b0316846101200151600001517fbbd12926def8e41e5f1c7a10d219e405292d14f53bfdba19eebab2e3faa6c74a85604051611c2d91815260200190565b60405180910390a45050602081015160409091015160018055909890975095505050505050565b60005460ff1615611c775760405162461bcd60e51b815260040161018590614db2565b6001600160a01b037f00000000000000000000000000000000000000000000000000000000000000001663529a356f336040516001600160e01b031960e084901b1681526001600160a01b039091166004820152602401602060405180830381865afa158015611ceb573d6000803e3d6000fd5b505050506040513d601f19601f82011682018060405250810190611d0f9190615143565b6040518060400160405280600381526020016232303360e81b81525090611d495760405162461bcd60e51b8152600401610185919061495e565b5060007f00000000000000000000000000000000000000000000000000000000000000006001600160a01b03166335bc868a6040518163ffffffff1660e01b8152600401602060405180830381865afa158015611daa573d6000803e3d6000fd5b505050506040513d601f19601f82011682018060405250810190611dce9190614e37565b60405163622fe39f60e01b8152600481018590529091506000906001600160a01b0383169063622fe39f906024016101c060405180830381865afa158015611e1a573d6000803e3d6000fd5b505050506040513d601f19601f82011682018060405250810190611e3e9190614f8b565b90506005816101a001516005811115611e5957611e59614fa8565b146040518060400160405280600381526020016233363160e81b81525090611e945760405162461bcd60e51b8152600401610185919061495e565b50604051636b52b36560e01b8152600481018590526000906001600160a01b03841690636b52b36590602401602060405180830381865afa158015611edd573d6000803e3d6000fd5b505050506040513d601f19601f82011682018060405250810190611f019190614e13565b90508084101560405180604001604052806003815260200162199b1960e91b81525090611f415760405162461bcd60e51b8152600401610185919061495e565b5081516000908152600260205260409081902090516339c5132760e11b81526004810191909152602481018590526044810182905273__$5e6137a1b5a0a366e2874209b5abf71c10$__9063738a264e9060640160006040518083038186803b158015611fad57600080fd5b505af4158015611fc1573d6000803e3d6000fd5b505060405163ed213bbf60e01b8152600481018890526001600160a01b038616925063ed213bbf9150602401600060405180830381600087803b15801561200757600080fd5b505af115801561201b573d6000803e3d6000fd5b5050505081602001516001600160a01b03168583600001517fcde0dc431e6f088cbd9c8b1768aff225467e33d4ac1d3356494ef79600a8680585604001516120603390565b604080519283526001600160a01b03909116602083015281018990526060810186905260800160405180910390a45050505050565b60007f00000000000000000000000000000000000000000000000000000000000000006001600160a01b0316639a9dbb996040518163ffffffff1660e01b8152600401602060405180830381865afa1580156120f5573d6000803e3d6000fd5b505050506040513d601f19601f820116820180604052508101906121199190614e37565b90506001600160a01b038116637be53ca1336040516001600160e01b031960e084901b1681526001600160a01b039091166004820152602401602060405180830381865afa15801561216f573d6000803e3d6000fd5b505050506040513d601f19601f820116820180604052508101906121939190615143565b6040518060400160405280600381526020016219181960e91b815250906121cd5760405162461bcd60e51b8152600401610185919061495e565b506121dc600380546001019055565b60006121e760035490565b905060007f00000000000000000000000000000000000000000000000000000000000000006001600160a01b031663420897916040518163ffffffff1660e01b8152600401602060405180830381865afa158015612249573d6000803e3d6000fd5b505050506040513d601f19601f8201168201806040525081019061226d9190614e37565b6001600160a01b0316635e08f3378387878a6040518563ffffffff1660e01b815260040161229e949392919061525f565b6020604051808303816000875af11580156122bd573d6000803e3d6000fd5b505050506040513d601f19601f820116820180604052508101906122e19190614e37565b9050604051806101800160405280838152602001876001600160a01b03168152602001826001600160a01b031681526020017f00000000000000000000000000000000000000000000000000000000000000006001600160a01b031663efe3e3e36040518163ffffffff1660e01b8152600401602060405180830381865afa158015612371573d6000803e3d6000fd5b505050506040513d601f19601f820116820180604052508101906123959190614e37565b6001600160a01b031681526020016b033b2e3c9fd0803ce80000006001600160801b031681526020016000815260200160008152602001600064ffffffffff168152602001600081526020017f00000000000000000000000000000000000000000000000000000000000000006001600160a01b03166390839e3f6040518163ffffffff1660e01b8152600401602060405180830381865afa15801561243f573d6000803e3d6000fd5b505050506040513d601f19601f820116820180604052508101906124639190614e37565b6001600160a01b031681526020017f00000000000000000000000000000000000000000000000000000000000000006001600160a01b0316634322b7146040518163ffffffff1660e01b8152600401602060405180830381865afa1580156124cf573d6000803e3d6000fd5b505050506040513d601f19601f820116820180604052508101906124f39190614e13565b81526001602091820181905260008581526002808452604091829020855181559385015192840180546001600160a01b03199081166001600160a01b03958616179091558583015191850180548216928516929092179091556060850151600385018054831691851691909117905560808501516004850180546fffffffffffffffffffffffffffffffff19166001600160801b0390921691909117905560a0850151600585015560c0850151600685015560e085015160078501805464ffffffffff191664ffffffffff9092169190911790556101008501516008850155610120850151600985018054909216908416179055610140840151600a84015561016090930151600b909201805460ff19169215159290921790915590518282169188169084907f4e9124cfa456690cd56bf3d36fe58f11cafd4e3faf6b2748e8eabe68e08a337090612648908a908a906152a4565b60405180910390a4505050505050565b60007f00000000000000000000000000000000000000000000000000000000000000006001600160a01b0316639a9dbb996040518163ffffffff1660e01b8152600401602060405180830381865afa1580156126b8573d6000803e3d6000fd5b505050506040513d601f19601f820116820180604052508101906126dc9190614e37565b90506001600160a01b038116632500f2b6336040516001600160e01b031960e084901b1681526001600160a01b039091166004820152602401602060405180830381865afa158015612732573d6000803e3d6000fd5b505050506040513d601f19601f820116820180604052508101906127569190615143565b6040518060400160405280600381526020016232303160e81b815250906127905760405162461bcd60e51b8152600401610185919061495e565b50611259614554565b604051639dce429960e01b8152600481018490526001600160a01b03838116602483015260009161293b917f00000000000000000000000000000000000000000000000000000000000000001690639dce429990604401600060405180830381865afa15801561280d573d6000803e3d6000fd5b505050506040513d6000823e601f3d908101601f191682016040526128359190810190615317565b606001517f00000000000000000000000000000000000000000000000000000000000000006001600160a01b031663970f4c3a6040518163ffffffff1660e01b8152600401602060405180830381865afa158015612897573d6000803e3d6000fd5b505050506040513d601f19601f820116820180604052508101906128bb9190614e37565b6040516350d16d9f60e01b8152600481018890526001600160a01b0387811660248301526044820187905291909116906350d16d9f90606401602060405180830381865afa158015612911573d6000803e3d6000fd5b505050506040513d601f19601f820116820180604052508101906129359190614e13565b906145ac565b949350505050565b6040805161018081018252600080825260208201819052918101829052606081018290526080810182905260a0810182905260c0810182905260e08101829052610100810182905261012081018290526101408101829052610160810191909152600082815260026020526040902054829015156040518060400160405280600381526020016203330360ec1b815250906129f15760405162461bcd60e51b8152600401610185919061495e565b5050506000908152600260208181526040928390208351610180810185528154815260018201546001600160a01b03908116938201939093529281015482169383019390935260038301548116606083015260048301546001600160801b03166080830152600583015460a0830152600683015460c0830152600783015464ffffffffff1660e08301526008830154610100830152600983015416610120820152600a820154610140820152600b9091015460ff16151561016082015290565b60005460ff1615612ad45760405162461bcd60e51b815260040161018590614db2565b6001600160a01b037f00000000000000000000000000000000000000000000000000000000000000001663529a356f336040516001600160e01b031960e084901b1681526001600160a01b039091166004820152602401602060405180830381865afa158015612b48573d6000803e3d6000fd5b505050506040513d601f19601f82011682018060405250810190612b6c9190615143565b6040518060400160405280600381526020016232303360e81b81525090612ba65760405162461bcd60e51b8152600401610185919061495e565b5060007f00000000000000000000000000000000000000000000000000000000000000006001600160a01b03166335bc868a6040518163ffffffff1660e01b8152600401602060405180830381865afa158015612c07573d6000803e3d6000fd5b505050506040513d601f19601f82011682018060405250810190612c2b9190614e37565b60405163622fe39f60e01b8152600481018490529091506000906001600160a01b0383169063622fe39f906024016101c060405180830381865afa158015612c77573d6000803e3d6000fd5b505050506040513d601f19601f82011682018060405250810190612c9b9190614f8b565b90506004816101a001516005811115612cb657612cb6614fa8565b146040518060400160405280600381526020016203336360ec1b81525090612cf15760405162461bcd60e51b8152600401610185919061495e565b508051600090815260026020526040908190209051632a1ed55f60e11b815273__$5e6137a1b5a0a366e2874209b5abf71c10$__9163543daabe91612d3b919085906004016153ef565b60006040518083038186803b158015612d5357600080fd5b505af4158015612d67573d6000803e3d6000fd5b5050505080602001516001600160a01b03166342842e0e83612d863390565b60408086015190516001600160e01b031960e086901b1681526001600160a01b0393841660048201529290911660248301526044820152606401600060405180830381600087803b158015612dda57600080fd5b505af1158015612dee573d6000803e3d6000fd5b505060405163980a8bd960e01b8152600481018690526001600160a01b038516925063980a8bd99150602401600060405180830381600087803b158015612e3457600080fd5b505af1158015612e48573d6000803e3d6000fd5b5050505080602001516001600160a01b03168382600001517f338bea6971e9221d0ae5f105c79da18c6614a11556e217e0aaa361424fe654d28460400151612e8d3390565b604080519283526001600160a01b0390911660208301520160405180910390a4505050565b600081815260026020526040902054819015156040518060400160405280600381526020016203330360ec1b81525090612eff5760405162461bcd60e51b8152600401610185919061495e565b5060007f00000000000000000000000000000000000000000000000000000000000000006001600160a01b0316639a9dbb996040518163ffffffff1660e01b8152600401602060405180830381865afa158015612f60573d6000803e3d6000fd5b505050506040513d601f19601f82011682018060405250810190612f849190614e37565b90506001600160a01b038116632500f2b6336040516001600160e01b031960e084901b1681526001600160a01b039091166004820152602401602060405180830381865afa158015612fda573d6000803e3d6000fd5b505050506040513d601f19601f82011682018060405250810190612ffe9190615143565b6040518060400160405280600381526020016232303160e81b815250906130385760405162461bcd60e51b8152600401610185919061495e565b50600083815260026020908152604091829020600b01548251808401909352600383526233303360e81b9183019190915260ff166130895760405162461bcd60e51b8152600401610185919061495e565b5060008381526002602052604090206130a190614654565b6040518381527ffa52d8cf59b61f2698ee5e988b488cc589a524be112b15acf937dab59bf36120906020015b60405180910390a1505050565b600082815260026020526040902054829015156040518060400160405280600381526020016203330360ec1b815250906131275760405162461bcd60e51b8152600401610185919061495e565b5060007f00000000000000000000000000000000000000000000000000000000000000006001600160a01b0316639a9dbb996040518163ffffffff1660e01b8152600401602060405180830381865afa158015613188573d6000803e3d6000fd5b505050506040513d601f19601f820116820180604052508101906131ac9190614e37565b90506001600160a01b038116637be53ca1336040516001600160e01b031960e084901b1681526001600160a01b039091166004820152602401602060405180830381865afa158015613202573d6000803e3d6000fd5b505050506040513d601f19601f820116820180604052508101906132269190615143565b6040518060400160405280600381526020016219181960e91b815250906132605760405162461bcd60e51b8152600401610185919061495e565b5060008481526002602090815260409182902060090180546001600160a01b0319166001600160a01b038716908117909155915191825285917f2a510455968cb9bf56ecbeeab12f13ed51a86ebdb3cdcec2f502f78c9f2a454191015b60405180910390a250505050565b60007f00000000000000000000000000000000000000000000000000000000000000006001600160a01b0316639a9dbb996040518163ffffffff1660e01b8152600401602060405180830381865afa15801561332b573d6000803e3d6000fd5b505050506040513d601f19601f8201168201806040525081019061334f9190614e37565b90506001600160a01b038116637be53ca1336040516001600160e01b031960e084901b1681526001600160a01b039091166004820152602401602060405180830381865afa1580156133a5573d6000803e3d6000fd5b505050506040513d601f19601f820116820180604052508101906133c99190615143565b6040518060400160405280600381526020016219181960e91b815250906134035760405162461bcd60e51b8152600401610185919061495e565b5060008381526002602081905260409182902001549051634c20618560e11b81526001600160a01b03848116600483015290911690639840c30a90602401600060405180830381600087803b15801561345b57600080fd5b505af115801561346f573d6000803e3d6000fd5b50505050505050565b600081815260026020526040812054829015156040518060400160405280600381526020016203330360ec1b815250906134c55760405162461bcd60e51b8152600401610185919061495e565b5060008381526002602052604090819020905163564f0dfb60e01b8152600481019190915273__$5e6137a1b5a0a366e2874209b5abf71c10$__9063564f0dfb906024015b602060405180830381865af4158015613527573d6000803e3d6000fd5b505050506040513d601f19601f820116820180604052508101906107209190614e13565b60005460ff161561356e5760405162461bcd60e51b815260040161018590614db2565b600260015414156135915760405162461bcd60e51b815260040161018590614ddc565b6002600155836135af81600090815260026020526040902054151590565b6040518060400160405280600381526020016203330360ec1b815250906135e95760405162461bcd60e51b8152600401610185919061495e565b5060408051808201909152600381526203332360ec1b6020820152846136225760405162461bcd60e51b8152600401610185919061495e565b50600085815260026020526040808220815163fe981a4f60e01b81526004810191909152336024820152604481018790526001600160a01b0386166064820152905173__$5e6137a1b5a0a366e2874209b5abf71c10$__9263fe981a4f9260848082019391829003018186803b15801561369b57600080fd5b505af41580156136af573d6000803e3d6000fd5b50505050816136bb3390565b6001600160a01b0316867fd36a2f67d06d285786f61a32b052b9ace6b0b7abef5177b54358abdc83a0b69b876040516136f691815260200190565b60405180910390a4505060018055505050565b600082815260026020526040902054829015156040518060400160405280600381526020016203330360ec1b815250906137565760405162461bcd60e51b8152600401610185919061495e565b5060007f00000000000000000000000000000000000000000000000000000000000000006001600160a01b0316639a9dbb996040518163ffffffff1660e01b8152600401602060405180830381865afa1580156137b7573d6000803e3d6000fd5b505050506040513d601f19601f820116820180604052508101906137db9190614e37565b90506001600160a01b038116637be53ca1336040516001600160e01b031960e084901b1681526001600160a01b039091166004820152602401602060405180830381865afa158015613831573d6000803e3d6000fd5b505050506040513d601f19601f820116820180604052508101906138559190615143565b6040518060400160405280600381526020016219181960e91b8152509061388f5760405162461bcd60e51b8152600401610185919061495e565b507f00000000000000000000000000000000000000000000000000000000000000006001600160a01b031663d23a65cf6040518163ffffffff1660e01b8152600401602060405180830381865afa1580156138ee573d6000803e3d6000fd5b505050506040513d601f19601f820116820180604052508101906139129190614e13565b831115604051806040016040528060038152602001620ccc0d60ea1b8152509061394f5760405162461bcd60e51b8152600401610185919061495e565b5060008481526002602052604090819020600a018490555184907fa42eaeef2868aa910fcded03fb023a51209c7304b595991cb71ff2968b266087906132bd9086815260200190565b600081815260026020526040812054829015156040518060400160405280600381526020016203330360ec1b815250906139e55760405162461bcd60e51b8152600401610185919061495e565b506000838152600260208181526040928390208351610180810185528154815260018201546001600160a01b0390811693820193909352928101548216838501526003810154821660608401526004808201546001600160801b03166080850152600582015460a0850152600682015460c0850152600782015464ffffffffff1660e085015260088201546101008501526009820154909216610120840152600a810154610140840152600b015460ff161515610160830152915163640d9a7760e11b815273__$5e6137a1b5a0a366e2874209b5abf71c10$__9263c81b34ee9261350a92909101614cd6565b600081815260026020526040902054819015156040518060400160405280600381526020016203330360ec1b81525090613b1f5760405162461bcd60e51b8152600401610185919061495e565b5060007f00000000000000000000000000000000000000000000000000000000000000006001600160a01b0316639a9dbb996040518163ffffffff1660e01b8152600401602060405180830381865afa158015613b80573d6000803e3d6000fd5b505050506040513d601f19601f82011682018060405250810190613ba49190614e37565b90506001600160a01b038116632500f2b6336040516001600160e01b031960e084901b1681526001600160a01b039091166004820152602401602060405180830381865afa158015613bfa573d6000803e3d6000fd5b505050506040513d601f19601f82011682018060405250810190613c1e9190615143565b6040518060400160405280600381526020016232303160e81b81525090613c585760405162461bcd60e51b8152600401610185919061495e565b50600083815260026020908152604091829020600b01548251808401909352600383526233303360e81b9183019190915260ff1615613caa5760405162461bcd60e51b8152600401610185919061495e565b506000838152600260205260409020613cc29061474f565b6040518381527f7d112c7767bf19c038f01732f5928c582a8f0de6fce5f2b0c70e9e4a91d3d39c906020016130cd565b6000805460ff1615613d165760405162461bcd60e51b815260040161018590614db2565b60026001541415613d395760405162461bcd60e51b815260040161018590614ddc565b600260015586613d5781600090815260026020526040902054151590565b6040518060400160405280600381526020016203330360ec1b81525090613d915760405162461bcd60e51b8152600401610185919061495e565b50613d9d888688614393565b613dd86040518060a001604052806000815260200160008152602001600081526020016000815260200160006001600160a01b031681525090565b613de3898787612799565b8152613dee8961060f565b602082015260408101889052600019881415613e23576020810151815110613e1a578060200151613e1d565b80515b60408201525b60408082015182518251808401909352600383526233333160e81b60208401521015613e625760405162461bcd60e51b8152600401610185919061495e565b508060400151816020015110156040518060400160405280600381526020016233303160e81b81525090613ea95760405162461bcd60e51b8152600401610185919061495e565b507f00000000000000000000000000000000000000000000000000000000000000006001600160a01b03166335bc868a6040518163ffffffff1660e01b8152600401602060405180830381865afa158015613f08573d6000803e3d6000fd5b505050506040513d601f19601f82011682018060405250810190613f2c9190614e37565b6001600160a01b03908116608083015286166342842e0e3360808401516040516001600160e01b031960e085901b1681526001600160a01b0392831660048201529116602482015260448101889052606401600060405180830381600087803b158015613f9857600080fd5b505af1158015613fac573d6000803e3d6000fd5b50505060008a81526002602081815260408084208151610180810183528154815260018201546001600160a01b0390811694820194909452938101548316848301526003810154831660608501526004808201546001600160801b03166080860152600582015460a0860152600682015460c0860152600782015464ffffffffff1660e086015260088201546101008601526009820154909316610120850152600a810154610140850152600b015460ff16151561016084015285810151905163dfdafca360e01b815273__$5e6137a1b5a0a366e2874209b5abf71c10$__955063dfdafca3946140a69493909283929091839101615175565b602060405180830381865af41580156140c3573d6000803e3d6000fd5b505050506040513d601f19601f820116820180604052508101906140e79190614e13565b81606001818152505060008082608001516001600160a01b03166370b4ebeb8c888b8b88604001518f8a606001516040518863ffffffff1660e01b815260040161413797969594939291906151aa565b6101e0604051808303816000875af1158015614157573d6000803e3d6000fd5b505050506040513d601f19601f8201168201806040525081019061417b91906151e6565b60008d81526002602052604090819020905163030b159d60e31b815292945090925073__$5e6137a1b5a0a366e2874209b5abf71c10$__91631858ace8916141c79185906004016153ef565b60006040518083038186803b1580156141df57600080fd5b505af41580156141f3573d6000803e3d6000fd5b5050505081866001600160a01b03168c7ff9a33434428db5f0416c03e38307599ad0b9b9965d6c070eb08e87cc1f0ca50e61422b3390565b6040516001600160a01b03909116815260200160405180910390a450600180559998505050505050505050565b6000816101600151156142c35760608201516020830151604080850151905163d4fac45d60e01b81526001600160a01b039283166004820152908216602482015291169063d4fac45d906044015b602060405180830381865afa158015610adf573d6000803e3d6000fd5b602082015160408084015190516370a0823160e01b81526001600160a01b0391821660048201529116906370a08231906024016142a6565b919050565b60005460ff166143495760405162461bcd60e51b815260206004820152601460248201527314185d5cd8589b194e881b9bdd081c185d5cd95960621b6044820152606401610185565b6000805460ff191690557f5db9ee0a495bf2e6ff9c91a7834c1ba4fdd244a5e8aa4e537bd38aeae4b073aa335b6040516001600160a01b03909116815260200160405180910390a1565b6040516346296c6960e01b8152600481018490526001600160a01b0383811660248301527f000000000000000000000000000000000000000000000000000000000000000016906346296c6990604401602060405180830381865afa158015614400573d6000803e3d6000fd5b505050506040513d601f19601f820116820180604052508101906144249190615143565b6040518060400160405280600381526020016219999960e91b8152509061445e5760405162461bcd60e51b8152600401610185919061495e565b50604051639dce429960e01b8152600481018490526001600160a01b0383811660248301526000917f000000000000000000000000000000000000000000000000000000000000000090911690639dce429990604401600060405180830381865afa1580156144d1573d6000803e3d6000fd5b505050506040513d6000823e601f3d908101601f191682016040526144f99190810190615317565b90508060800151821015801561451357508060a001518211155b6040518060400160405280600381526020016203333360ec1b8152509061454d5760405162461bcd60e51b8152600401610185919061495e565b5050505050565b60005460ff16156145775760405162461bcd60e51b815260040161018590614db2565b6000805460ff191660011790557f62e78cea01bee320cd4e420270b5ea74000d11b0c9f74754ebdbfc544b05a2586143763390565b60008215806145b9575081155b156145c657506000610b03565b816145d46002612710615404565b6145e09060001961515e565b6145ea9190615404565b8311156040518060400160405280600381526020016203130360ec1b815250906146275760405162461bcd60e51b8152600401610185919061495e565b50612710614636600282615404565b6146408486615426565b61464a9190614fd4565b6107209190615404565b60028101546003820154600183015460405163d4fac45d60e01b81526001600160a01b0391821660048201529281166024840181905292600092919091169063d4fac45d90604401602060405180830381865afa1580156146b9573d6000803e3d6000fd5b505050506040513d601f19601f820116820180604052508101906146dd9190614e13565b604051627b8a6760e11b8152600481018290526001600160a01b0384166024820181905291925062f714ce90604401600060405180830381600087803b15801561472657600080fd5b505af115801561473a573d6000803e3d6000fd5b505050600b909301805460ff19169055505050565b600b8101805460ff1916600190811790915581015460028201546040516370a0823160e01b81526001600160a01b03918216600482015260009291909116906370a0823190602401602060405180830381865afa1580156147b4573d6000803e3d6000fd5b505050506040513d601f19601f820116820180604052508101906147d89190614e13565b600283015460405163b6b55f2560e01b8152600481018390529192506001600160a01b03169063b6b55f2590602401600060405180830381600087803b15801561482157600080fd5b505af1158015614835573d6000803e3d6000fd5b505050505050565b6040518061014001604052806000815260200160008152602001600081526020016000815260200160008152602001600081526020016000815260200160008152602001600081526020016148fd604080516101c081018252600080825260208201819052918101829052606081018290526080810182905260a0810182905260c0810182905260e0810182905261010081018290526101208101829052610140810182905261016081018290526101808101829052906101a082015290565b905290565b60005b8381101561491d578181015183820152602001614905565b8381111561492c576000848401525b50505050565b6000815180845261494a816020860160208601614902565b601f01601f19169290920160200192915050565b6020815260006107206020830184614932565b60006020828403121561498357600080fd5b5035919050565b6001600160a01b038116811461125957600080fd5b6000806000606084860312156149b457600080fd5b833592506020840135915060408401356149cd8161498a565b809150509250925092565b600080600080608085870312156149ee57600080fd5b8435935060208501359250604085013591506060850135614a0e8161498a565b939692955090935050565b60008060408385031215614a2c57600080fd5b50508035926020909101359150565b634e487b7160e01b600052604160045260246000fd5b6040516101c0810167ffffffffffffffff81118282101715614a7557614a75614a3b565b60405290565b604051610100810167ffffffffffffffff81118282101715614a7557614a75614a3b565b604051601f8201601f1916810167ffffffffffffffff81118282101715614ac857614ac8614a3b565b604052919050565b600067ffffffffffffffff821115614aea57614aea614a3b565b50601f01601f191660200190565b600082601f830112614b0957600080fd5b8135614b1c614b1782614ad0565b614a9f565b818152846020838601011115614b3157600080fd5b816020850160208301376000918101602001919091529392505050565b600080600060608486031215614b6357600080fd5b8335614b6e8161498a565b9250602084013567ffffffffffffffff80821115614b8b57600080fd5b614b9787838801614af8565b93506040860135915080821115614bad57600080fd5b50614bba86828701614af8565b9150509250925092565b600080600060608486031215614bd957600080fd5b833592506020840135614beb8161498a565b929592945050506040919091013590565b805182526020810151614c1a60208401826001600160a01b03169052565b506040810151614c3560408401826001600160a01b03169052565b506060810151614c5060608401826001600160a01b03169052565b506080810151614c6b60808401826001600160801b03169052565b5060a081015160a083015260c081015160c083015260e0810151614c9860e084018264ffffffffff169052565b506101008181015190830152610120808201516001600160a01b0316908301526101408082015190830152610160808201518015158285015261492c565b6101808101610b038284614bfc565b60008060408385031215614cf857600080fd5b823591506020830135614d0a8161498a565b809150509250929050565b60008060008060808587031215614d2b57600080fd5b84359350602085013592506040850135614d448161498a565b9396929550929360600135925050565b60008060008060008060c08789031215614d6d57600080fd5b8635955060208701359450604087013593506060870135614d8d8161498a565b92506080870135915060a0870135614da48161498a565b809150509295509295509295565b60208082526010908201526f14185d5cd8589b194e881c185d5cd95960821b604082015260600190565b6020808252601f908201527f5265656e7472616e637947756172643a207265656e7472616e742063616c6c00604082015260600190565b600060208284031215614e2557600080fd5b5051919050565b80516142fb8161498a565b600060208284031215614e4957600080fd5b81516107208161498a565b80516001600160801b03811681146142fb57600080fd5b805164ffffffffff811681146142fb57600080fd5b8051600681106142fb57600080fd5b60006101c08284031215614ea257600080fd5b614eaa614a51565b905081518152614ebc60208301614e2c565b602082015260408201516040820152614ed760608301614e2c565b606082015260808201516080820152614ef260a08301614e54565b60a0820152614f0360c08301614e54565b60c0820152614f1460e08301614e6b565b60e0820152610100614f27818401614e6b565b90820152610120614f39838201614e6b565b90820152610140614f4b838201614e6b565b90820152610160614f5d838201614e6b565b90820152610180614f6f838201614e6b565b908201526101a0614f81838201614e80565b9082015292915050565b60006101c08284031215614f9e57600080fd5b6107208383614e8f565b634e487b7160e01b600052602160045260246000fd5b634e487b7160e01b600052601160045260246000fd5b60008219821115614fe757614fe7614fbe565b500190565b6006811061500a57634e487b7160e01b600052602160045260246000fd5b9052565b80518252602081015161502c60208401826001600160a01b03169052565b5060408101516040830152606081015161505160608401826001600160a01b03169052565b506080810151608083015260a081015161507660a08401826001600160801b03169052565b5060c081015161509160c08401826001600160801b03169052565b5060e08101516150aa60e084018264ffffffffff169052565b506101008181015164ffffffffff9081169184019190915261012080830151821690840152610140808301518216908401526101608083015182169084015261018080830151909116908301526101a08082015161492c82850182614fec565b848152610220810161511f602083018661500e565b6101e0820193909352610200015292915050565b805180151581146142fb57600080fd5b60006020828403121561515557600080fd5b61072082615133565b60008282101561517057615170614fbe565b500390565b61020081016151848288614bfc565b85610180830152846101a0830152836101c0830152826101e08301529695505050505050565b9687526001600160a01b0395861660208801529390941660408601526060850191909152608084015260a083019190915260c082015260e00190565b6000806101e083850312156151fa57600080fd5b8251915061520b8460208501614e8f565b90509250929050565b8781526104208101615229602083018961500e565b6152376101e083018861500e565b856103a0830152846103c0830152836103e08301528261040083015298975050505050505050565b8481526080602082015260006152786080830186614932565b828103604084015261528a8186614932565b91505060018060a01b038316606083015295945050505050565b6040815260006152b76040830185614932565b82810360208401526152c98185614932565b95945050505050565b600082601f8301126152e357600080fd5b81516152f1614b1782614ad0565b81815284602083860101111561530657600080fd5b61293b826020830160208701614902565b60006020828403121561532957600080fd5b815167ffffffffffffffff8082111561534157600080fd5b90830190610100828603121561535657600080fd5b61535e614a7b565b61536783615133565b815260208301518281111561537b57600080fd5b615387878286016152d2565b60208301525060408301518281111561539f57600080fd5b6153ab878286016152d2565b604083015250606083015160608201526080830151608082015260a083015160a082015260c083015160c082015260e083015160e082015280935050505092915050565b8281526101e08101610720602083018461500e565b60008261542157634e487b7160e01b600052601260045260246000fd5b500490565b600081600019048311821515161561544057615440614fbe565b50029056fea2646970667358221220c6e0e685d61c34187ae9b70f89011a86e4ab62827d38d041031bba07f99a36b864736f6c634300080a0033",
  "libraries": {
    "Errors": "0x354882d0b07c31429620498169bde9471876F23E",
    "MathUtils": "0x703EeF551575F5A57b49CEfBb958Fc9614206F33",
    "PercentageMath": "0xb2338aEAB020304270Ec44b82794CD31c6Cf4C93",
    "DataTypes": "0x4D025283d9a1394a278209dA8Ce15d486Ab060aE",
    "ReserveLogic": "0x467C55A43d45B9A455b406D3AEbc22305C0c7559"
  },
  "devdoc": {
    "author": "OpenSky Labs",
    "kind": "dev",
    "methods": {
      "borrow(uint256,uint256,uint256,address,uint256,address)": {
        "details": "Borrows ETH from reserve using an NFT as collateral and will receive a loan NFT as receipt.",
        "params": {
          "amount": "amount of ETH user will borrow",
          "duration": "The desired duration of the loan",
          "nftAddress": "The collateral NFT address",
          "onBehalfOf": "address of the user who will receive ETH and loan NFT.*",
          "reserveId": "The ID of the reserve",
          "tokenId": "The ID of the NFT"
        }
      },
      "closeMoneyMarket(uint256)": {
        "details": "Only callable by the emergency admin role",
        "params": {
          "reserveId": "The ID of the reserve*"
        }
      },
      "create(address,string,string)": {
        "details": "Only callable by the pool admin role",
        "params": {
          "name": "The name of the oToken",
          "symbol": "The symbol for the oToken*",
          "underlyingAsset": "The address of the underlying asset"
        }
      },
      "deposit(uint256,uint256,address,uint256)": {
        "details": "Deposits ETH into the reserve.",
        "params": {
          "referralCode": "integrators are assigned a referral code and can potentially receive rewards*",
          "reserveId": "The ID of the reserve"
        }
      },
      "endLiquidation(uint256,uint256)": {
        "details": "Completes liquidation for a loan which will be repaid.",
        "params": {
          "amount": "The amount of the token that will be repaid.",
          "loanId": "The ID of the liquidated loan that will be repaid."
        }
      },
      "extend(uint256,uint256,uint256,address)": {
        "details": "Extends creates a new loan and terminates the old loan.",
        "params": {
          "amount": "The amount of ERC20 token the user will borrow in the new loan",
          "duration": "The selected duration the user will borrow in the new loan",
          "loanId": "The loan ID to extend",
          "onBehalfOf": "The address will borrow in the new loan*"
        }
      },
      "getAvailableLiquidity(uint256)": {
        "details": "Returns the remaining liquidity of the reserve",
        "params": {
          "reserveId": "The ID of the reserve"
        },
        "returns": {
          "_0": "The reserve's withdrawable balance"
        }
      },
      "getBorrowLimitByOracle(uint256,address,uint256)": {
        "details": "Returns the instantaneous borrow limit value of a special NFT",
        "params": {
          "nftAddress": "The address of the NFT",
          "tokenId": "The ID of the NFT"
        },
        "returns": {
          "_0": "The NFT's borrow limit"
        }
      },
      "getReserveData(uint256)": {
        "details": "Returns the state of the reserve",
        "params": {
          "reserveId": "The ID of the reserve"
        },
        "returns": {
          "_0": "The state of the reserve*"
        }
      },
      "getReserveNormalizedIncome(uint256)": {
        "details": "Returns the normalized income of the reserve",
        "params": {
          "reserveId": "The ID of the reserve"
        },
        "returns": {
          "_0": "The reserve's normalized income"
        }
      },
      "getTVL(uint256)": {
        "details": "Returns TVL (total value locked) of the reserve.",
        "params": {
          "reserveId": "The ID of the reserve"
        },
        "returns": {
          "_0": "The reserve's TVL"
        }
      },
      "getTotalBorrowBalance(uint256)": {
        "details": "Returns the sum of all users borrow balances include borrow interest accrued",
        "params": {
          "reserveId": "The ID of the reserve"
        },
        "returns": {
          "_0": "The total borrow balance of the reserve"
        }
      },
      "openMoneyMarket(uint256)": {
        "details": "Only callable by the emergency admin role",
        "params": {
          "reserveId": "The ID of the reserve*"
        }
      },
      "pause()": {
        "details": "Pause pool for emergency case, can only be called by emergency admin.*"
      },
      "paused()": {
        "details": "Returns true if the contract is paused, and false otherwise."
      },
      "repay(uint256)": {
        "details": "Repays a loan, as a result the corresponding loan NFT owner will receive the collateralized NFT.",
        "params": {
          "loanId": "The ID of the loan the user will repay"
        }
      },
      "setInterestModelAddress(uint256,address)": {
        "details": "Only callable by the pool admin role",
        "params": {
          "interestModelAddress": "The new address of the interest model contract*",
          "reserveId": "The ID of the reserve"
        }
      },
      "setTreasuryFactor(uint256,uint256)": {
        "details": "Only callable by the pool admin role",
        "params": {
          "factor": "The new treasury factor of the reserve*",
          "reserveId": "The ID of the reserve"
        }
      },
      "startLiquidation(uint256)": {
        "details": "Starts liquidation for a loan when it's in LIQUIDATABLE status",
        "params": {
          "loanId": "The ID of the loan which will be liquidated"
        }
      },
      "unpause()": {
        "details": "Unpause pool for emergency case, can only be called by emergency admin.*"
      },
      "withdraw(uint256,uint256,address)": {
        "details": "withdraws the ETH from reserve.",
        "params": {
          "amount": "amount of oETH to withdraw and receive native ETH*",
          "reserveId": "The ID of the reserve"
        }
      }
    },
    "title": "OpenSkyPool contract",
    "version": 1
  },
  "userdoc": {
    "kind": "user",
    "methods": {
      "closeMoneyMarket(uint256)": {
        "notice": "Close the money market"
      },
      "create(address,string,string)": {
        "notice": "Creates a reserve"
      },
      "openMoneyMarket(uint256)": {
        "notice": "Open the money market"
      },
      "setInterestModelAddress(uint256,address)": {
        "notice": "Updates the interest model address of a reserve"
      },
      "setTreasuryFactor(uint256,uint256)": {
        "notice": "Updates the treasury factor of a reserve"
      }
    },
    "notice": "Main point of interaction with OpenSky protocol's pool - Users can:   # Deposit   # Withdraw*",
    "version": 1
  },
  "storageLayout": {
    "storage": [
      {
        "astId": 1294,
        "contract": "contracts/OpenSkyPool.sol:OpenSkyPool",
        "label": "_paused",
        "offset": 0,
        "slot": "0",
        "type": "t_bool"
      },
      {
        "astId": 1379,
        "contract": "contracts/OpenSkyPool.sol:OpenSkyPool",
        "label": "_status",
        "offset": 0,
        "slot": "1",
        "type": "t_uint256"
      },
      {
        "astId": 10987,
        "contract": "contracts/OpenSkyPool.sol:OpenSkyPool",
        "label": "reserves",
        "offset": 0,
        "slot": "2",
        "type": "t_mapping(t_uint256,t_struct(ReserveData)21536_storage)"
      },
      {
        "astId": 10993,
        "contract": "contracts/OpenSkyPool.sol:OpenSkyPool",
        "label": "_reserveIdTracker",
        "offset": 0,
        "slot": "3",
        "type": "t_struct(Counter)6236_storage"
      }
    ],
    "types": {
      "t_address": {
        "encoding": "inplace",
        "label": "address",
        "numberOfBytes": "20"
      },
      "t_bool": {
        "encoding": "inplace",
        "label": "bool",
        "numberOfBytes": "1"
      },
      "t_mapping(t_uint256,t_struct(ReserveData)21536_storage)": {
        "encoding": "mapping",
        "key": "t_uint256",
        "label": "mapping(uint256 => struct DataTypes.ReserveData)",
        "numberOfBytes": "32",
        "value": "t_struct(ReserveData)21536_storage"
      },
      "t_struct(Counter)6236_storage": {
        "encoding": "inplace",
        "label": "struct Counters.Counter",
        "members": [
          {
            "astId": 6235,
            "contract": "contracts/OpenSkyPool.sol:OpenSkyPool",
            "label": "_value",
            "offset": 0,
            "slot": "0",
            "type": "t_uint256"
          }
        ],
        "numberOfBytes": "32"
      },
      "t_struct(ReserveData)21536_storage": {
        "encoding": "inplace",
        "label": "struct DataTypes.ReserveData",
        "members": [
          {
            "astId": 21513,
            "contract": "contracts/OpenSkyPool.sol:OpenSkyPool",
            "label": "reserveId",
            "offset": 0,
            "slot": "0",
            "type": "t_uint256"
          },
          {
            "astId": 21515,
            "contract": "contracts/OpenSkyPool.sol:OpenSkyPool",
            "label": "underlyingAsset",
            "offset": 0,
            "slot": "1",
            "type": "t_address"
          },
          {
            "astId": 21517,
            "contract": "contracts/OpenSkyPool.sol:OpenSkyPool",
            "label": "oTokenAddress",
            "offset": 0,
            "slot": "2",
            "type": "t_address"
          },
          {
            "astId": 21519,
            "contract": "contracts/OpenSkyPool.sol:OpenSkyPool",
            "label": "moneyMarketAddress",
            "offset": 0,
            "slot": "3",
            "type": "t_address"
          },
          {
            "astId": 21521,
            "contract": "contracts/OpenSkyPool.sol:OpenSkyPool",
            "label": "lastSupplyIndex",
            "offset": 0,
            "slot": "4",
            "type": "t_uint128"
          },
          {
            "astId": 21523,
            "contract": "contracts/OpenSkyPool.sol:OpenSkyPool",
            "label": "borrowingInterestPerSecond",
            "offset": 0,
            "slot": "5",
            "type": "t_uint256"
          },
          {
            "astId": 21525,
            "contract": "contracts/OpenSkyPool.sol:OpenSkyPool",
            "label": "lastMoneyMarketBalance",
            "offset": 0,
            "slot": "6",
            "type": "t_uint256"
          },
          {
            "astId": 21527,
            "contract": "contracts/OpenSkyPool.sol:OpenSkyPool",
            "label": "lastUpdateTimestamp",
            "offset": 0,
            "slot": "7",
            "type": "t_uint40"
          },
          {
            "astId": 21529,
            "contract": "contracts/OpenSkyPool.sol:OpenSkyPool",
            "label": "totalBorrows",
            "offset": 0,
            "slot": "8",
            "type": "t_uint256"
          },
          {
            "astId": 21531,
            "contract": "contracts/OpenSkyPool.sol:OpenSkyPool",
            "label": "interestModelAddress",
            "offset": 0,
            "slot": "9",
            "type": "t_address"
          },
          {
            "astId": 21533,
            "contract": "contracts/OpenSkyPool.sol:OpenSkyPool",
            "label": "treasuryFactor",
            "offset": 0,
            "slot": "10",
            "type": "t_uint256"
          },
          {
            "astId": 21535,
            "contract": "contracts/OpenSkyPool.sol:OpenSkyPool",
            "label": "isMoneyMarketOn",
            "offset": 0,
            "slot": "11",
            "type": "t_bool"
          }
        ],
        "numberOfBytes": "384"
      },
      "t_uint128": {
        "encoding": "inplace",
        "label": "uint128",
        "numberOfBytes": "16"
      },
      "t_uint256": {
        "encoding": "inplace",
        "label": "uint256",
        "numberOfBytes": "32"
      },
      "t_uint40": {
        "encoding": "inplace",
        "label": "uint40",
        "numberOfBytes": "5"
      }
    }
  }
}