{
  "address": "0x9126e205F378125Fdf171b8fC8160A4610340fB0",
  "abi": [
    {
      "inputs": [
        {
          "internalType": "contract IAaveLendPoolAddressesProvider",
          "name": "provider",
          "type": "address"
        },
        {
          "internalType": "contract IOpenSkyBespokeSettings",
          "name": "bespokeSettings",
          "type": "address"
        },
        {
          "internalType": "contract IOpenSkySettings",
          "name": "poolSettings",
          "type": "address"
        }
      ],
      "stateMutability": "nonpayable",
      "type": "constructor"
    },
    {
      "anonymous": false,
      "inputs": [
        {
          "indexed": true,
          "internalType": "address",
          "name": "asset",
          "type": "address"
        },
        {
          "indexed": true,
          "internalType": "address",
          "name": "borrower",
          "type": "address"
        },
        {
          "indexed": false,
          "internalType": "uint256",
          "name": "oldLoanId",
          "type": "uint256"
        },
        {
          "indexed": false,
          "internalType": "uint256",
          "name": "newLoanId",
          "type": "uint256"
        }
      ],
      "name": "RefinancePoolToBespoke",
      "type": "event"
    },
    {
      "inputs": [],
      "name": "AAVE2_ADDRESSES_PROVIDER",
      "outputs": [
        {
          "internalType": "contract IAaveLendPoolAddressesProvider",
          "name": "",
          "type": "address"
        }
      ],
      "stateMutability": "view",
      "type": "function"
    },
    {
      "inputs": [],
      "name": "BESPOKE_SETTINGS",
      "outputs": [
        {
          "internalType": "contract IOpenSkyBespokeSettings",
          "name": "",
          "type": "address"
        }
      ],
      "stateMutability": "view",
      "type": "function"
    },
    {
      "inputs": [],
      "name": "SETTINGS",
      "outputs": [
        {
          "internalType": "contract IOpenSkySettings",
          "name": "",
          "type": "address"
        }
      ],
      "stateMutability": "view",
      "type": "function"
    },
    {
      "inputs": [],
      "name": "aavePool",
      "outputs": [
        {
          "internalType": "contract IAaveLendPool",
          "name": "",
          "type": "address"
        }
      ],
      "stateMutability": "view",
      "type": "function"
    },
    {
      "inputs": [
        {
          "internalType": "address[]",
          "name": "assets",
          "type": "address[]"
        },
        {
          "internalType": "uint256[]",
          "name": "amounts",
          "type": "uint256[]"
        },
        {
          "internalType": "uint256[]",
          "name": "premiums",
          "type": "uint256[]"
        },
        {
          "internalType": "address",
          "name": "initiator",
          "type": "address"
        },
        {
          "internalType": "bytes",
          "name": "params",
          "type": "bytes"
        }
      ],
      "name": "executeOperation",
      "outputs": [
        {
          "internalType": "bool",
          "name": "",
          "type": "bool"
        }
      ],
      "stateMutability": "nonpayable",
      "type": "function"
    },
    {
      "inputs": [
        {
          "internalType": "address",
          "name": "",
          "type": "address"
        },
        {
          "internalType": "address",
          "name": "",
          "type": "address"
        },
        {
          "internalType": "uint256",
          "name": "",
          "type": "uint256"
        },
        {
          "internalType": "bytes",
          "name": "",
          "type": "bytes"
        }
      ],
      "name": "onERC721Received",
      "outputs": [
        {
          "internalType": "bytes4",
          "name": "",
          "type": "bytes4"
        }
      ],
      "stateMutability": "nonpayable",
      "type": "function"
    }
  ],
  "transactionHash": "0x951d06c677bd1de9e6441fdef71e576d7318aef013cb323e8ed7b709571de2d6",
  "args": [
    "0xd05e3E715d945B59290df0ae8eF85c1BdB684744",
    "0xD8672EC52c7FD5CF186Bd5441419E63062898F13",
    "0x3278e9b9E69C15ee013C0a0ad56845F9Dff68878"
  ],
  "solcInputHash": "e69850385af8196781c724d9be9002bd",
  "bytecode": "0x60e06040523480156200001157600080fd5b5060405162001f3238038062001f3283398101604081905262000034916200006b565b6001600160a01b0392831660805290821660c0521660a052620000bf565b6001600160a01b03811681146200006857600080fd5b50565b6000806000606084860312156200008157600080fd5b83516200008e8162000052565b6020850151909350620000a18162000052565b6040850151909250620000b48162000052565b809150509250925092565b60805160a05160c051611dff620001336000396000818160e70152818161096401528181610a360152610c3d015260008181610139015281816102b5015281816103a90152818161051d015281816106120152818161074a0152610841015260008181606c0152610ebd0152611dff6000f3fe608060405234801561001057600080fd5b50600436106100625760003560e01c806311ea536e14610067578063150b7a02146100ab57806329c55f06146100e2578063920f5c8414610109578063a03e4bc31461012c578063ade97ab514610134575b600080fd5b61008e7f000000000000000000000000000000000000000000000000000000000000000081565b6040516001600160a01b0390911681526020015b60405180910390f35b6100c96100b936600461147e565b630a85bd0160e11b949350505050565b6040516001600160e01b031990911681526020016100a2565b61008e7f000000000000000000000000000000000000000000000000000000000000000081565b61011c610117366004611536565b61015b565b60405190151581526020016100a2565b61008e610eb9565b61008e7f000000000000000000000000000000000000000000000000000000000000000081565b600060018914801561016d5750600187145b80156101795750600185145b6101de5760405162461bcd60e51b815260206004820152602b60248201527f424d5f464c4153485f4c4f414e5f4d554c5449504c455f4153534554535f4e4f60448201526a1517d4d5541413d495115160aa1b60648201526084015b60405180910390fd5b336101e7610eb9565b6001600160a01b03161461023d5760405162461bcd60e51b815260206004820152601c60248201527f424d5f464c4153485f4c4f414e5f494e56414c49445f43414c4c45520000000060448201526064016101d5565b610245611234565b6102518385018561163b565b6001600160a01b031660a083015260e08201819052805161027a91602091810182019101611706565b61010085018190526080850191909152606084019190915290825280516102aa91908101602090810191016117c0565b8161012001819052507f00000000000000000000000000000000000000000000000000000000000000006001600160a01b03166335bc868a6040518163ffffffff1660e01b8152600401602060405180830381865afa158015610311573d6000803e3d6000fd5b505050506040513d601f19601f82011682018060405250810190610335919061196a565b60a08201518251604051632142170760e11b81526001600160a01b03928316600482015230602482015260448101919091529116906342842e0e90606401600060405180830381600087803b15801561038d57600080fd5b505af11580156103a1573d6000803e3d6000fd5b5050505060007f00000000000000000000000000000000000000000000000000000000000000006001600160a01b03166335bc868a6040518163ffffffff1660e01b8152600401602060405180830381865afa158015610405573d6000803e3d6000fd5b505050506040513d601f19601f82011682018060405250810190610429919061196a565b825160405163622fe39f60e01b81526001600160a01b03929092169163622fe39f9161045b9160040190815260200190565b6101c060405180830381865afa158015610479573d6000803e3d6000fd5b505050506040513d601f19601f8201168201806040525081019061049d9190611996565b9050816101200151606001516001600160a01b031681602001516001600160a01b03161461051b5760405162461bcd60e51b815260206004820152602560248201527f424d5f464c4153485f4c4f414e5f544f4b454e5f414444524553535f4e4f545f60448201526409a82a886960db1b60648201526084016101d5565b7f00000000000000000000000000000000000000000000000000000000000000006001600160a01b03166335bc868a6040518163ffffffff1660e01b8152600401602060405180830381865afa158015610579573d6000803e3d6000fd5b505050506040513d601f19601f8201168201806040525081019061059d919061196a565b8251604051636b52b36560e01b81526001600160a01b039290921691636b52b365916105cf9160040190815260200190565b602060405180830381865afa1580156105ec573d6000803e3d6000fd5b505050506040513d601f19601f820116820180604052508101906106109190611a91565b7f00000000000000000000000000000000000000000000000000000000000000006001600160a01b03166335bc868a6040518163ffffffff1660e01b8152600401602060405180830381865afa15801561066e573d6000803e3d6000fd5b505050506040513d601f19601f82011682018060405250810190610692919061196a565b8351604051634b72cb4160e11b81526001600160a01b0392909216916396e59682916106c49160040190815260200190565b602060405180830381865afa1580156106e1573d6000803e3d6000fd5b505050506040513d601f19601f820116820180604052508101906107059190611a91565b61070f9190611ac0565b60208301528b8b60008161072557610725611ad8565b905060200201602081019061073a9190611aee565b6001600160a01b031663095ea7b37f00000000000000000000000000000000000000000000000000000000000000006001600160a01b0316631755ff216040518163ffffffff1660e01b8152600401602060405180830381865afa1580156107a6573d6000803e3d6000fd5b505050506040513d601f19601f820116820180604052508101906107ca919061196a565b60208501516040516001600160e01b031960e085901b1681526001600160a01b03909216600483015260248201526044016020604051808303816000875af115801561081a573d6000803e3d6000fd5b505050506040513d601f19601f8201168201806040525081019061083e9190611b0b565b507f00000000000000000000000000000000000000000000000000000000000000006001600160a01b0316631755ff216040518163ffffffff1660e01b8152600401602060405180830381865afa15801561089d573d6000803e3d6000fd5b505050506040513d601f19601f820116820180604052508101906108c1919061196a565b8251604051631b8fec7360e11b81526001600160a01b03929092169163371fd8e6916108f39160040190815260200190565b6020604051808303816000875af1158015610912573d6000803e3d6000fd5b505050506040513d601f19601f820116820180604052508101906109369190611a91565b5060208101516040516398460c5f60e01b81526001600160a01b03918216600482018190529163095ea7b3917f0000000000000000000000000000000000000000000000000000000000000000909116906398460c5f90602401602060405180830381865afa1580156109ad573d6000803e3d6000fd5b505050506040513d601f19601f820116820180604052508101906109d1919061196a565b60408085015190516001600160e01b031960e085901b1681526001600160a01b0390921660048301526024820152604401600060405180830381600087803b158015610a1c57600080fd5b505af1158015610a30573d6000803e3d6000fd5b505050507f00000000000000000000000000000000000000000000000000000000000000006001600160a01b031663956236416040518163ffffffff1660e01b8152600401602060405180830381865afa158015610a92573d6000803e3d6000fd5b505050506040513d601f19601f82011682018060405250810190610ab6919061196a565b6001600160a01b031663a2b8fe87836101200151836040015185606001518660800151306040518663ffffffff1660e01b8152600401610afa959493929190611b74565b6020604051808303816000875af1158015610b19573d6000803e3d6000fd5b505050506040513d601f19601f82011682018060405250810190610b3d9190611a91565b6101408301528787600081610b5457610b54611ad8565b905060200201358260200151610b6a9190611ac0565b60c0830181905260608301511115610bd557610bd08260a001518360c001518460600151610b989190611d83565b8e8e6000818110610bab57610bab611ad8565b9050602002016020810190610bc09190611aee565b6001600160a01b03169190610f42565b610c3b565b8160c0015182606001511015610c3b57610c3b8260a001513084606001518560c00151610c029190611d83565b8f8f6000818110610c1557610c15611ad8565b9050602002016020810190610c2a9190611aee565b6001600160a01b0316929190610faa565b7f00000000000000000000000000000000000000000000000000000000000000006001600160a01b031663bb322a836040518163ffffffff1660e01b8152600401602060405180830381865afa158015610c99573d6000803e3d6000fd5b505050506040513d601f19601f82011682018060405250810190610cbd919061196a565b60a0830151610140840151604051632142170760e11b81523060048201526001600160a01b03928316602482015260448101919091529116906342842e0e90606401600060405180830381600087803b158015610d1957600080fd5b505af1158015610d2d573d6000803e3d6000fd5b505050508b8b6000818110610d4457610d44611ad8565b9050602002016020810190610d599190611aee565b6001600160a01b031663095ea7b3610d6f610eb9565b8a8a6000818110610d8257610d82611ad8565b905060200201358d8d6000818110610d9c57610d9c611ad8565b90506020020135610dad9190611ac0565b6040516001600160e01b031960e085901b1681526001600160a01b03909216600483015260248201526044016020604051808303816000875af1158015610df8573d6000803e3d6000fd5b505050506040513d601f19601f82011682018060405250810190610e1c9190611b0b565b508160a001516001600160a01b03168c8c6000818110610e3e57610e3e611ad8565b9050602002016020810190610e539190611aee565b6001600160a01b03167fc08bdfd2db9318050aeb2489356bedefbfa18d5566f0a8af91c58d272cccd21a8460000151856101400151604051610e9f929190918252602082015260400190565b60405180910390a35060019b9a5050505050505050505050565b60007f00000000000000000000000000000000000000000000000000000000000000006001600160a01b0316630261bf8b6040518163ffffffff1660e01b8152600401602060405180830381865afa158015610f19573d6000803e3d6000fd5b505050506040513d601f19601f82011682018060405250810190610f3d919061196a565b905090565b6040516001600160a01b038316602482015260448101829052610fa590849063a9059cbb60e01b906064015b60408051601f198184030181529190526020810180516001600160e01b03166001600160e01b031990931692909217909152610fe8565b505050565b6040516001600160a01b0380851660248301528316604482015260648101829052610fe29085906323b872dd60e01b90608401610f6e565b50505050565b600061103d826040518060400160405280602081526020017f5361666545524332303a206c6f772d6c6576656c2063616c6c206661696c6564815250856001600160a01b03166110ba9092919063ffffffff16565b805190915015610fa5578080602001905181019061105b9190611b0b565b610fa55760405162461bcd60e51b815260206004820152602a60248201527f5361666545524332303a204552433230206f7065726174696f6e20646964206e6044820152691bdd081cdd58d8d9595960b21b60648201526084016101d5565b60606110c984846000856110d3565b90505b9392505050565b6060824710156111345760405162461bcd60e51b815260206004820152602660248201527f416464726573733a20696e73756666696369656e742062616c616e636520666f6044820152651c8818d85b1b60d21b60648201526084016101d5565b843b6111825760405162461bcd60e51b815260206004820152601d60248201527f416464726573733a2063616c6c20746f206e6f6e2d636f6e747261637400000060448201526064016101d5565b600080866001600160a01b0316858760405161119e9190611d9a565b60006040518083038185875af1925050503d80600081146111db576040519150601f19603f3d011682016040523d82523d6000602084013e6111e0565b606091505b50915091506111f08282866111fb565b979650505050505050565b6060831561120a5750816110cc565b82511561121a5782518084602001fd5b8160405162461bcd60e51b81526004016101d59190611db6565b604051806101600160405280600081526020016000815260200160006001600160a01b03168152602001600081526020016000815260200160006001600160a01b03168152602001600081526020016060815260200160608152602001611346604080516102c081018252600080825260208201819052909182019081526000602082018190526040820181905260608083018290526080830182905260a0830182905260c0830182905260e08301829052610100830182905261012083018290526101408301829052610160830182905261018083018290526101a083018290526101c083018290526101e08301829052610200830152610220820181905261024082018190526102609091015290565b8152602001600081525090565b6001600160a01b038116811461136857600080fd5b50565b634e487b7160e01b600052604160045260246000fd5b6040516102c0810167ffffffffffffffff811182821017156113a5576113a561136b565b60405290565b6040516101c0810167ffffffffffffffff811182821017156113a5576113a561136b565b604051601f8201601f1916810167ffffffffffffffff811182821017156113f8576113f861136b565b604052919050565b600067ffffffffffffffff82111561141a5761141a61136b565b50601f01601f191660200190565b600082601f83011261143957600080fd5b813561144c61144782611400565b6113cf565b81815284602083860101111561146157600080fd5b816020850160208301376000918101602001919091529392505050565b6000806000806080858703121561149457600080fd5b843561149f81611353565b935060208501356114af81611353565b925060408501359150606085013567ffffffffffffffff8111156114d257600080fd5b6114de87828801611428565b91505092959194509250565b60008083601f8401126114fc57600080fd5b50813567ffffffffffffffff81111561151457600080fd5b6020830191508360208260051b850101111561152f57600080fd5b9250929050565b600080600080600080600080600060a08a8c03121561155457600080fd5b893567ffffffffffffffff8082111561156c57600080fd5b6115788d838e016114ea565b909b50995060208c013591508082111561159157600080fd5b61159d8d838e016114ea565b909950975060408c01359150808211156115b657600080fd5b6115c28d838e016114ea565b909750955060608c013591506115d782611353565b90935060808b013590808211156115ed57600080fd5b818c0191508c601f83011261160157600080fd5b81358181111561161057600080fd5b8d602082850101111561162257600080fd5b6020830194508093505050509295985092959850929598565b6000806040838503121561164e57600080fd5b823567ffffffffffffffff81111561166557600080fd5b61167185828601611428565b925050602083013561168281611353565b809150509250929050565b60005b838110156116a8578181015183820152602001611690565b83811115610fe25750506000910152565b600082601f8301126116ca57600080fd5b81516116d861144782611400565b8181528460208386010111156116ed57600080fd5b6116fe82602083016020870161168d565b949350505050565b6000806000806080858703121561171c57600080fd5b845193506020850151925060408501519150606085015167ffffffffffffffff81111561174857600080fd5b6114de878288016116b9565b8051801515811461176457600080fd5b919050565b80516002811061176457600080fd5b805161176481611353565b805164ffffffffff8116811461176457600080fd5b80516001600160801b038116811461176457600080fd5b805160ff8116811461176457600080fd5b6000602082840312156117d257600080fd5b815167ffffffffffffffff808211156117ea57600080fd5b908301906102c082860312156117ff57600080fd5b611807611381565b61181083611754565b815261181e60208401611754565b602082015261182f60408401611769565b604082015261184060608401611778565b60608201526080830151608082015260a083015160a082015261186560c08401611778565b60c082015260e083015160e082015261010080840151818301525061012061188e818501611783565b908201526101406118a0848201611783565b908201526101606118b2848201611798565b908201526101806118c4848201611778565b908201526101a06118d6848201611778565b908201526101c083810151908201526101e080840151908201526102008084015190820152610220611909818501611778565b90820152610240838101518381111561192157600080fd5b61192d888287016116b9565b82840152505061026091506119438284016117af565b9181019190915261028082810151908201526102a091820151918101919091529392505050565b60006020828403121561197c57600080fd5b81516110cc81611353565b80516006811061176457600080fd5b60006101c082840312156119a957600080fd5b6119b16113ab565b825181526119c160208401611778565b6020820152604083015160408201526119dc60608401611778565b6060820152608083015160808201526119f760a08401611798565b60a0820152611a0860c08401611798565b60c0820152611a1960e08401611783565b60e0820152610100611a2c818501611783565b90820152610120611a3e848201611783565b90820152610140611a50848201611783565b90820152610160611a62848201611783565b90820152610180611a74848201611783565b908201526101a0611a86848201611987565b908201529392505050565b600060208284031215611aa357600080fd5b5051919050565b634e487b7160e01b600052601160045260246000fd5b60008219821115611ad357611ad3611aaa565b500190565b634e487b7160e01b600052603260045260246000fd5b600060208284031215611b0057600080fd5b81356110cc81611353565b600060208284031215611b1d57600080fd5b6110cc82611754565b60028110611b4457634e487b7160e01b600052602160045260246000fd5b9052565b60008151808452611b6081602086016020860161168d565b601f01601f19169290920160200192915050565b60c08152611b8760c08201875115159052565b60006020870151611b9c60e084018215159052565b506040870151610100611bb181850183611b26565b60608901519150610120611bcf818601846001600160a01b03169052565b60808a01519250610140838187015260a08b01519350610160848188015260c08c01519450610180611c0b818901876001600160a01b03169052565b60e08d015195506101a086818a0152858e015196506101c0955086868a0152848e015196506101e09450611c47858a018864ffffffffff169052565b928d0151955061020092611c638985018864ffffffffff169052565b918d0151955061022091611c81898401886001600160801b03169052565b908d0151955061024090611c9f898301886001600160a01b03169052565b8d01519550610260611cbb898201886001600160a01b03169052565b948d015161028089810191909152938d01516102a0808a0191909152928d01516102c0808a0191909152828e01516001600160a01b03166102e08a0152818e01516103008a0182905296509394929392611d196103808a0188611b48565b9650808e01519350505050611d3461032087018260ff169052565b5090890151610340850152979097015161036083015250602080820195909552604081019390935260608301919091526001600160a01b0316608082015280830360a090910152600082520190565b600082821015611d9557611d95611aaa565b500390565b60008251611dac81846020870161168d565b9190910192915050565b6020815260006110cc6020830184611b4856fea2646970667358221220b09308cf52d251af8c0ad34d15cbd9a7eddbbbabe676adb563a384dcce46509164736f6c634300080a0033",
  "libraries": {
    "BespokeTypes": "0x6727E0713F266168074e3dB6AF329a7670c94339"
  },
  "devdoc": {
    "kind": "dev",
    "methods": {
      "onERC721Received(address,address,uint256,bytes)": {
        "details": "See {IERC721Receiver-onERC721Received}. Always returns `IERC721Receiver.onERC721Received.selector`."
      }
    },
    "version": 1
  },
  "userdoc": {
    "kind": "user",
    "methods": {},
    "version": 1
  },
  "storageLayout": {
    "storage": [],
    "types": null
  }
}