{
  "address": "0x6880CE3F56D510F7DE026E8eE8E4489c6Af4416f",
  "abi": [
    {
      "inputs": [
        {
          "internalType": "address",
          "name": "bespokeSettings_",
          "type": "address"
        }
      ],
      "stateMutability": "nonpayable",
      "type": "constructor"
    },
    {
      "inputs": [],
      "name": "BESPOKE_SETTINGS",
      "outputs": [
        {
          "internalType": "contract IOpenSkyBespokeSettings",
          "name": "",
          "type": "address"
        }
      ],
      "stateMutability": "view",
      "type": "function"
    },
    {
      "inputs": [
        {
          "internalType": "address",
          "name": "asset",
          "type": "address"
        },
        {
          "internalType": "address",
          "name": "from",
          "type": "address"
        },
        {
          "internalType": "address",
          "name": "to",
          "type": "address"
        },
        {
          "internalType": "uint256",
          "name": "amount",
          "type": "uint256"
        },
        {
          "components": [
            {
              "internalType": "bool",
              "name": "isProrated",
              "type": "bool"
            },
            {
              "internalType": "bool",
              "name": "autoConvertWhenRepay",
              "type": "bool"
            },
            {
              "internalType": "enum BespokeTypes.OfferType",
              "name": "offerType",
              "type": "uint8"
            },
            {
              "internalType": "address",
              "name": "tokenAddress",
              "type": "address"
            },
            {
              "internalType": "uint256",
              "name": "tokenId",
              "type": "uint256"
            },
            {
              "internalType": "uint256",
              "name": "tokenAmount",
              "type": "uint256"
            },
            {
              "internalType": "address",
              "name": "signer",
              "type": "address"
            },
            {
              "internalType": "uint256",
              "name": "borrowAmountMin",
              "type": "uint256"
            },
            {
              "internalType": "uint256",
              "name": "borrowAmountMax",
              "type": "uint256"
            },
            {
              "internalType": "uint40",
              "name": "borrowDurationMin",
              "type": "uint40"
            },
            {
              "internalType": "uint40",
              "name": "borrowDurationMax",
              "type": "uint40"
            },
            {
              "internalType": "uint128",
              "name": "borrowRate",
              "type": "uint128"
            },
            {
              "internalType": "address",
              "name": "currency",
              "type": "address"
            },
            {
              "internalType": "address",
              "name": "lendAsset",
              "type": "address"
            },
            {
              "internalType": "uint256",
              "name": "nonce",
              "type": "uint256"
            },
            {
              "internalType": "uint256",
              "name": "nonceMaxTimes",
              "type": "uint256"
            },
            {
              "internalType": "uint256",
              "name": "deadline",
              "type": "uint256"
            },
            {
              "internalType": "address",
              "name": "strategy",
              "type": "address"
            },
            {
              "internalType": "bytes",
              "name": "params",
              "type": "bytes"
            },
            {
              "internalType": "uint8",
              "name": "v",
              "type": "uint8"
            },
            {
              "internalType": "bytes32",
              "name": "r",
              "type": "bytes32"
            },
            {
              "internalType": "bytes32",
              "name": "s",
              "type": "bytes32"
            }
          ],
          "internalType": "struct BespokeTypes.Offer",
          "name": "offerData",
          "type": "tuple"
        }
      ],
      "name": "transferOnLend",
      "outputs": [],
      "stateMutability": "nonpayable",
      "type": "function"
    },
    {
      "inputs": [
        {
          "internalType": "address",
          "name": "asset",
          "type": "address"
        },
        {
          "internalType": "address",
          "name": "from",
          "type": "address"
        },
        {
          "internalType": "address",
          "name": "to",
          "type": "address"
        },
        {
          "internalType": "uint256",
          "name": "amount",
          "type": "uint256"
        },
        {
          "components": [
            {
              "internalType": "address",
              "name": "tokenAddress",
              "type": "address"
            },
            {
              "internalType": "uint256",
              "name": "tokenId",
              "type": "uint256"
            },
            {
              "internalType": "uint256",
              "name": "tokenAmount",
              "type": "uint256"
            },
            {
              "internalType": "address",
              "name": "nftManager",
              "type": "address"
            },
            {
              "internalType": "address",
              "name": "borrower",
              "type": "address"
            },
            {
              "internalType": "address",
              "name": "lender",
              "type": "address"
            },
            {
              "internalType": "uint256",
              "name": "amount",
              "type": "uint256"
            },
            {
              "internalType": "uint128",
              "name": "borrowRate",
              "type": "uint128"
            },
            {
              "internalType": "uint128",
              "name": "interestPerSecond",
              "type": "uint128"
            },
            {
              "internalType": "address",
              "name": "currency",
              "type": "address"
            },
            {
              "internalType": "address",
              "name": "lendAsset",
              "type": "address"
            },
            {
              "internalType": "uint256",
              "name": "reserveFactor",
              "type": "uint256"
            },
            {
              "internalType": "uint256",
              "name": "overdueLoanFeeFactor",
              "type": "uint256"
            },
            {
              "internalType": "uint40",
              "name": "borrowDuration",
              "type": "uint40"
            },
            {
              "internalType": "uint40",
              "name": "borrowBegin",
              "type": "uint40"
            },
            {
              "internalType": "uint40",
              "name": "borrowOverdueTime",
              "type": "uint40"
            },
            {
              "internalType": "uint40",
              "name": "liquidatableTime",
              "type": "uint40"
            },
            {
              "internalType": "bool",
              "name": "isProrated",
              "type": "bool"
            },
            {
              "internalType": "bool",
              "name": "autoConvertWhenRepay",
              "type": "bool"
            },
            {
              "internalType": "enum BespokeTypes.LoanStatus",
              "name": "status",
              "type": "uint8"
            }
          ],
          "internalType": "struct BespokeTypes.LoanData",
          "name": "loanData",
          "type": "tuple"
        }
      ],
      "name": "transferOnRepay",
      "outputs": [],
      "stateMutability": "nonpayable",
      "type": "function"
    }
  ],
  "transactionHash": "0x05bc9a6d5523bbaf6bcaf6900db4f919924077e0c2cc7ff4e7c19b6d71efcf7c",
  "args": [
    "0xD8672EC52c7FD5CF186Bd5441419E63062898F13"
  ],
  "solcInputHash": "e69850385af8196781c724d9be9002bd",
  "bytecode": "0x60a060405234801561001057600080fd5b50604051610dd5380380610dd583398101604081905261002f91610040565b6001600160a01b0316608052610070565b60006020828403121561005257600080fd5b81516001600160a01b038116811461006957600080fd5b9392505050565b608051610d3e6100976000396000818160730152818160b301526102760152610d3e6000f3fe608060405234801561001057600080fd5b50600436106100415760003560e01c806307e32860146100465780631f1017d51461005b57806329c55f061461006e575b600080fd5b6100596100543660046107ac565b6100b1565b005b610059610069366004610a22565b610274565b6100957f000000000000000000000000000000000000000000000000000000000000000081565b6040516001600160a01b03909116815260200160405180910390f35b7f00000000000000000000000000000000000000000000000000000000000000006001600160a01b031663956236416040518163ffffffff1660e01b8152600401602060405180830381865afa15801561010f573d6000803e3d6000fd5b505050506040513d601f19601f820116820180604052508101906101339190610c10565b6001600160a01b0316336001600160a01b03161461016c5760405162461bcd60e51b815260040161016390610c2d565b60405180910390fd5b846001600160a01b03168161014001516001600160a01b0316146101de5760405162461bcd60e51b815260206004820152602360248201527f424d5f5452414e534645525f414441505445525f41535345545f4e4f545f4d416044820152620a886960eb1b6064820152608401610163565b8061014001516001600160a01b03168161012001516001600160a01b0316146102585760405162461bcd60e51b815260206004820152602660248201527f424d5f5452414e534645525f414441505445525f504149525f4e4f545f5355506044820152651413d495115160d21b6064820152608401610163565b61026d6001600160a01b038616858585610412565b5050505050565b7f00000000000000000000000000000000000000000000000000000000000000006001600160a01b031663956236416040518163ffffffff1660e01b8152600401602060405180830381865afa1580156102d2573d6000803e3d6000fd5b505050506040513d601f19601f820116820180604052508101906102f69190610c10565b6001600160a01b0316336001600160a01b0316146103265760405162461bcd60e51b815260040161016390610c2d565b846001600160a01b0316816101a001516001600160a01b0316146103985760405162461bcd60e51b815260206004820152602360248201527f424d5f5452414e534645525f4f4e5f4c454e445f41535345545f4e4f545f4d416044820152620a886960eb1b6064820152608401610163565b806101a001516001600160a01b03168161018001516001600160a01b0316146102585760405162461bcd60e51b815260206004820152602660248201527f424d5f5452414e534645525f4f4e5f4c454e445f504149525f4e4f545f5355506044820152651413d495115160d21b6064820152608401610163565b604080516001600160a01b0385811660248301528416604482015260648082018490528251808303909101815260849091019091526020810180516001600160e01b03166323b872dd60e01b17905261046c908590610472565b50505050565b60006104c7826040518060400160405280602081526020017f5361666545524332303a206c6f772d6c6576656c2063616c6c206661696c6564815250856001600160a01b03166105499092919063ffffffff16565b80519091501561054457808060200190518101906104e59190610c70565b6105445760405162461bcd60e51b815260206004820152602a60248201527f5361666545524332303a204552433230206f7065726174696f6e20646964206e6044820152691bdd081cdd58d8d9595960b21b6064820152608401610163565b505050565b60606105588484600085610562565b90505b9392505050565b6060824710156105c35760405162461bcd60e51b815260206004820152602660248201527f416464726573733a20696e73756666696369656e742062616c616e636520666f6044820152651c8818d85b1b60d21b6064820152608401610163565b843b6106115760405162461bcd60e51b815260206004820152601d60248201527f416464726573733a2063616c6c20746f206e6f6e2d636f6e74726163740000006044820152606401610163565b600080866001600160a01b0316858760405161062d9190610cb9565b60006040518083038185875af1925050503d806000811461066a576040519150601f19603f3d011682016040523d82523d6000602084013e61066f565b606091505b509150915061067f82828661068a565b979650505050505050565b6060831561069957508161055b565b8251156106a95782518084602001fd5b8160405162461bcd60e51b81526004016101639190610cd5565b6001600160a01b03811681146106d857600080fd5b50565b80356106e6816106c3565b919050565b634e487b7160e01b600052604160045260246000fd5b604051610280810167ffffffffffffffff81118282101715610725576107256106eb565b60405290565b6040516102c0810167ffffffffffffffff81118282101715610725576107256106eb565b80356fffffffffffffffffffffffffffffffff811681146106e657600080fd5b803564ffffffffff811681146106e657600080fd5b80151581146106d857600080fd5b80356106e681610784565b8035600481106106e657600080fd5b60008060008060008587036103008112156107c657600080fd5b86356107d1816106c3565b955060208701356107e1816106c3565b945060408701356107f1816106c3565b935060608701359250610280607f19820181131561080e57600080fd5b610816610701565b9150610824608089016106db565b825260a0880135602083015260c0880135604083015261084660e089016106db565b6060830152610100610859818a016106db565b608084015261012061086c818b016106db565b60a0850152610140808b013560c086015261016061088b818d0161074f565b60e087015261018061089e818e0161074f565b858801526101a094506108b2858e016106db565b848801526101c093506108c6848e016106db565b838801526101e09250828d0135828801526102009150818d013581880152506102206108f3818e0161076f565b858801526102409450610907858e0161076f565b84880152610260935061091b848e0161076f565b8388015261092a868e0161076f565b8288015261093b6102a08e01610792565b8188015250505061094f6102c08b01610792565b828501526109606102e08b0161079d565b81850152505050809150509295509295909350565b8035600281106106e657600080fd5b600082601f83011261099557600080fd5b813567ffffffffffffffff808211156109b0576109b06106eb565b604051601f8301601f19908116603f011681019082821181831017156109d8576109d86106eb565b816040528381528660208588010111156109f157600080fd5b836020870160208301376000602085830101528094505050505092915050565b803560ff811681146106e657600080fd5b600080600080600060a08688031215610a3a57600080fd5b8535610a45816106c3565b94506020860135610a55816106c3565b93506040860135610a65816106c3565b925060608601359150608086013567ffffffffffffffff80821115610a8957600080fd5b908701906102c0828a031215610a9e57600080fd5b610aa661072b565b610aaf83610792565b8152610abd60208401610792565b6020820152610ace60408401610975565b6040820152610adf606084016106db565b60608201526080830135608082015260a083013560a0820152610b0460c084016106db565b60c082015260e083013560e0820152610100808401358183015250610120610b2d81850161076f565b90820152610140610b3f84820161076f565b90820152610160610b5184820161074f565b90820152610180610b638482016106db565b908201526101a0610b758482016106db565b908201526101c083810135908201526101e080840135908201526102008084013590820152610220610ba88185016106db565b908201526102408381013583811115610bc057600080fd5b610bcc8c828701610984565b8284015250506102609150610be2828401610a11565b82820152610280915081830135828201526102a0915081830135828201528093505050509295509295909350565b600060208284031215610c2257600080fd5b815161055b816106c3565b60208082526023908201527f424d5f41434c5f4f4e4c595f424553504f4b525f4d41524b45545f43414e5f4360408201526210531360ea1b606082015260800190565b600060208284031215610c8257600080fd5b815161055b81610784565b60005b83811015610ca8578181015183820152602001610c90565b8381111561046c5750506000910152565b60008251610ccb818460208701610c8d565b9190910192915050565b6020815260008251806020840152610cf4816040850160208701610c8d565b601f01601f1916919091016040019291505056fea26469706673582212200d6076cd3e08f09f922e44f6a95cd6518e48b12c0a944c66dae7b22e2dd9f0a964736f6c634300080a0033",
  "libraries": {},
  "devdoc": {
    "kind": "dev",
    "methods": {},
    "version": 1
  },
  "userdoc": {
    "kind": "user",
    "methods": {},
    "version": 1
  },
  "storageLayout": {
    "storage": [],
    "types": null
  }
}