{
  "address": "0x81e27Ea86ecAbdF6C8e9d32a2ef465F0A5247Dff",
  "abi": [
    {
      "inputs": [
        {
          "internalType": "address",
          "name": "settingsAddress_",
          "type": "address"
        },
        {
          "internalType": "address",
          "name": "bespokeSettings_",
          "type": "address"
        }
      ],
      "stateMutability": "nonpayable",
      "type": "constructor"
    },
    {
      "anonymous": false,
      "inputs": [
        {
          "indexed": true,
          "internalType": "address",
          "name": "previousOwner",
          "type": "address"
        },
        {
          "indexed": true,
          "internalType": "address",
          "name": "newOwner",
          "type": "address"
        }
      ],
      "name": "OwnershipTransferred",
      "type": "event"
    },
    {
      "anonymous": false,
      "inputs": [
        {
          "indexed": false,
          "internalType": "address",
          "name": "oToken",
          "type": "address"
        },
        {
          "indexed": false,
          "internalType": "uint256",
          "name": "reserveId",
          "type": "uint256"
        }
      ],
      "name": "SetOTokenToReserveIdMap",
      "type": "event"
    },
    {
      "anonymous": false,
      "inputs": [
        {
          "indexed": false,
          "internalType": "address",
          "name": "oToken",
          "type": "address"
        }
      ],
      "name": "UnsetOTokenToReserveIdMap",
      "type": "event"
    },
    {
      "inputs": [],
      "name": "BESPOKE_SETTINGS",
      "outputs": [
        {
          "internalType": "contract IOpenSkyBespokeSettings",
          "name": "",
          "type": "address"
        }
      ],
      "stateMutability": "view",
      "type": "function"
    },
    {
      "inputs": [],
      "name": "SETTINGS",
      "outputs": [
        {
          "internalType": "contract IOpenSkySettings",
          "name": "",
          "type": "address"
        }
      ],
      "stateMutability": "view",
      "type": "function"
    },
    {
      "inputs": [
        {
          "internalType": "address",
          "name": "",
          "type": "address"
        }
      ],
      "name": "getReserveId",
      "outputs": [
        {
          "internalType": "uint256",
          "name": "",
          "type": "uint256"
        }
      ],
      "stateMutability": "view",
      "type": "function"
    },
    {
      "inputs": [],
      "name": "owner",
      "outputs": [
        {
          "internalType": "address",
          "name": "",
          "type": "address"
        }
      ],
      "stateMutability": "view",
      "type": "function"
    },
    {
      "inputs": [],
      "name": "renounceOwnership",
      "outputs": [],
      "stateMutability": "nonpayable",
      "type": "function"
    },
    {
      "inputs": [
        {
          "internalType": "address",
          "name": "oToken",
          "type": "address"
        },
        {
          "internalType": "uint256",
          "name": "reserveId",
          "type": "uint256"
        }
      ],
      "name": "setOTokenToReserveIdMap",
      "outputs": [],
      "stateMutability": "nonpayable",
      "type": "function"
    },
    {
      "inputs": [
        {
          "internalType": "address",
          "name": "asset",
          "type": "address"
        },
        {
          "internalType": "address",
          "name": "from",
          "type": "address"
        },
        {
          "internalType": "address",
          "name": "to",
          "type": "address"
        },
        {
          "internalType": "uint256",
          "name": "amount",
          "type": "uint256"
        },
        {
          "components": [
            {
              "internalType": "bool",
              "name": "isProrated",
              "type": "bool"
            },
            {
              "internalType": "bool",
              "name": "autoConvertWhenRepay",
              "type": "bool"
            },
            {
              "internalType": "enum BespokeTypes.OfferType",
              "name": "offerType",
              "type": "uint8"
            },
            {
              "internalType": "address",
              "name": "tokenAddress",
              "type": "address"
            },
            {
              "internalType": "uint256",
              "name": "tokenId",
              "type": "uint256"
            },
            {
              "internalType": "uint256",
              "name": "tokenAmount",
              "type": "uint256"
            },
            {
              "internalType": "address",
              "name": "signer",
              "type": "address"
            },
            {
              "internalType": "uint256",
              "name": "borrowAmountMin",
              "type": "uint256"
            },
            {
              "internalType": "uint256",
              "name": "borrowAmountMax",
              "type": "uint256"
            },
            {
              "internalType": "uint40",
              "name": "borrowDurationMin",
              "type": "uint40"
            },
            {
              "internalType": "uint40",
              "name": "borrowDurationMax",
              "type": "uint40"
            },
            {
              "internalType": "uint128",
              "name": "borrowRate",
              "type": "uint128"
            },
            {
              "internalType": "address",
              "name": "currency",
              "type": "address"
            },
            {
              "internalType": "address",
              "name": "lendAsset",
              "type": "address"
            },
            {
              "internalType": "uint256",
              "name": "nonce",
              "type": "uint256"
            },
            {
              "internalType": "uint256",
              "name": "nonceMaxTimes",
              "type": "uint256"
            },
            {
              "internalType": "uint256",
              "name": "deadline",
              "type": "uint256"
            },
            {
              "internalType": "address",
              "name": "strategy",
              "type": "address"
            },
            {
              "internalType": "bytes",
              "name": "params",
              "type": "bytes"
            },
            {
              "internalType": "uint8",
              "name": "v",
              "type": "uint8"
            },
            {
              "internalType": "bytes32",
              "name": "r",
              "type": "bytes32"
            },
            {
              "internalType": "bytes32",
              "name": "s",
              "type": "bytes32"
            }
          ],
          "internalType": "struct BespokeTypes.Offer",
          "name": "offerData",
          "type": "tuple"
        }
      ],
      "name": "transferOnLend",
      "outputs": [],
      "stateMutability": "nonpayable",
      "type": "function"
    },
    {
      "inputs": [
        {
          "internalType": "address",
          "name": "asset",
          "type": "address"
        },
        {
          "internalType": "address",
          "name": "from",
          "type": "address"
        },
        {
          "internalType": "address",
          "name": "to",
          "type": "address"
        },
        {
          "internalType": "uint256",
          "name": "amount",
          "type": "uint256"
        },
        {
          "components": [
            {
              "internalType": "address",
              "name": "tokenAddress",
              "type": "address"
            },
            {
              "internalType": "uint256",
              "name": "tokenId",
              "type": "uint256"
            },
            {
              "internalType": "uint256",
              "name": "tokenAmount",
              "type": "uint256"
            },
            {
              "internalType": "address",
              "name": "nftManager",
              "type": "address"
            },
            {
              "internalType": "address",
              "name": "borrower",
              "type": "address"
            },
            {
              "internalType": "address",
              "name": "lender",
              "type": "address"
            },
            {
              "internalType": "uint256",
              "name": "amount",
              "type": "uint256"
            },
            {
              "internalType": "uint128",
              "name": "borrowRate",
              "type": "uint128"
            },
            {
              "internalType": "uint128",
              "name": "interestPerSecond",
              "type": "uint128"
            },
            {
              "internalType": "address",
              "name": "currency",
              "type": "address"
            },
            {
              "internalType": "address",
              "name": "lendAsset",
              "type": "address"
            },
            {
              "internalType": "uint256",
              "name": "reserveFactor",
              "type": "uint256"
            },
            {
              "internalType": "uint256",
              "name": "overdueLoanFeeFactor",
              "type": "uint256"
            },
            {
              "internalType": "uint40",
              "name": "borrowDuration",
              "type": "uint40"
            },
            {
              "internalType": "uint40",
              "name": "borrowBegin",
              "type": "uint40"
            },
            {
              "internalType": "uint40",
              "name": "borrowOverdueTime",
              "type": "uint40"
            },
            {
              "internalType": "uint40",
              "name": "liquidatableTime",
              "type": "uint40"
            },
            {
              "internalType": "bool",
              "name": "isProrated",
              "type": "bool"
            },
            {
              "internalType": "bool",
              "name": "autoConvertWhenRepay",
              "type": "bool"
            },
            {
              "internalType": "enum BespokeTypes.LoanStatus",
              "name": "status",
              "type": "uint8"
            }
          ],
          "internalType": "struct BespokeTypes.LoanData",
          "name": "loanData",
          "type": "tuple"
        }
      ],
      "name": "transferOnRepay",
      "outputs": [],
      "stateMutability": "nonpayable",
      "type": "function"
    },
    {
      "inputs": [
        {
          "internalType": "address",
          "name": "newOwner",
          "type": "address"
        }
      ],
      "name": "transferOwnership",
      "outputs": [],
      "stateMutability": "nonpayable",
      "type": "function"
    },
    {
      "inputs": [
        {
          "internalType": "address",
          "name": "oToken",
          "type": "address"
        }
      ],
      "name": "unsetOTokenToReserveIdMap",
      "outputs": [],
      "stateMutability": "nonpayable",
      "type": "function"
    }
  ],
  "transactionHash": "0x59ecbcfe13bcf4ead9bf2555d489f292c15474ab8c53ab20686f1f870fcdee8c",
  "args": [
    "0x3278e9b9E69C15ee013C0a0ad56845F9Dff68878",
    "0xD8672EC52c7FD5CF186Bd5441419E63062898F13"
  ],
  "solcInputHash": "e69850385af8196781c724d9be9002bd",
  "bytecode": "0x60c06040523480156200001157600080fd5b5060405162001d5b38038062001d5b8339810160408190526200003491620000c4565b6200003f3362000057565b6001600160a01b039182166080521660a052620000fc565b600080546001600160a01b038381166001600160a01b0319831681178455604051919092169283917f8be0079c531659141344cd1fd0a4f28419497f9722a3daafe3b4186f6b6457e09190a35050565b80516001600160a01b0381168114620000bf57600080fd5b919050565b60008060408385031215620000d857600080fd5b620000e383620000a7565b9150620000f360208401620000a7565b90509250929050565b60805160a051611bfa6200016160003960008181610103015281816101b8015261068b015260008181610181015281816102e10152818161047b0152818161056f015281816107ab015281816109c901528181610ba00152610ccc0152611bfa6000f3fe608060405234801561001057600080fd5b506004361061009e5760003560e01c80635727e126116100665780635727e12614610150578063715018a6146101635780638da5cb5b1461016b578063ade97ab51461017c578063f2fde38b146101a357600080fd5b806307e32860146100a3578063106e9a4b146100b85780631f1017d5146100eb57806329c55f06146100fe57806354e2c5471461013d575b600080fd5b6100b66100b13660046113f0565b6101b6565b005b6100d86100c63660046115b9565b60016020526000908152604090205481565b6040519081526020015b60405180910390f35b6100b66100f9366004611683565b610689565b6101257f000000000000000000000000000000000000000000000000000000000000000081565b6040516001600160a01b0390911681526020016100e2565b6100b661014b366004611871565b610c96565b6100b661015e3660046115b9565b610e86565b6100b6610f02565b6000546001600160a01b0316610125565b6101257f000000000000000000000000000000000000000000000000000000000000000081565b6100b66101b13660046115b9565b610f38565b7f00000000000000000000000000000000000000000000000000000000000000006001600160a01b031663956236416040518163ffffffff1660e01b8152600401602060405180830381865afa158015610214573d6000803e3d6000fd5b505050506040513d601f19601f8201168201806040525081019061023891906118a8565b6001600160a01b0316336001600160a01b0316146102715760405162461bcd60e51b8152600401610268906118c5565b60405180910390fd5b846001600160a01b03168161014001516001600160a01b0316146102a75760405162461bcd60e51b815260040161026890611908565b6001600160a01b038516600090815260016020526040902054806102dd5760405162461bcd60e51b815260040161026890611952565b60007f00000000000000000000000000000000000000000000000000000000000000006001600160a01b0316631755ff216040518163ffffffff1660e01b8152600401602060405180830381865afa15801561033d573d6000803e3d6000fd5b505050506040513d601f19601f8201168201806040525081019061036191906118a8565b6001600160a01b03166391541e05836040518263ffffffff1660e01b815260040161038e91815260200190565b61018060405180830381865afa1580156103ac573d6000803e3d6000fd5b505050506040513d601f19601f820116820180604052508101906103d091906119c6565b905080604001516001600160a01b0316876001600160a01b0316146104075760405162461bcd60e51b815260040161026890611908565b80602001516001600160a01b03168361012001516001600160a01b0316146104415760405162461bcd60e51b815260040161026890611a8f565b82610240015115610666576020810151610466906001600160a01b0316873087610fd3565b80602001516001600160a01b031663095ea7b37f00000000000000000000000000000000000000000000000000000000000000006001600160a01b0316631755ff216040518163ffffffff1660e01b8152600401602060405180830381865afa1580156104d7573d6000803e3d6000fd5b505050506040513d601f19601f820116820180604052508101906104fb91906118a8565b6040516001600160e01b031960e084901b1681526001600160a01b039091166004820152602481018790526044016020604051808303816000875af1158015610548573d6000803e3d6000fd5b505050506040513d601f19601f8201168201806040525081019061056c9190611ade565b507f00000000000000000000000000000000000000000000000000000000000000006001600160a01b0316631755ff216040518163ffffffff1660e01b8152600401602060405180830381865afa1580156105cb573d6000803e3d6000fd5b505050506040513d601f19601f820116820180604052508101906105ef91906118a8565b60405163e78f094960e01b815260048101849052602481018690526001600160a01b03878116604483015260006064830152919091169063e78f094990608401600060405180830381600087803b15801561064957600080fd5b505af115801561065d573d6000803e3d6000fd5b50505050610680565b6020810151610680906001600160a01b0316878787610fd3565b50505050505050565b7f00000000000000000000000000000000000000000000000000000000000000006001600160a01b031663956236416040518163ffffffff1660e01b8152600401602060405180830381865afa1580156106e7573d6000803e3d6000fd5b505050506040513d601f19601f8201168201806040525081019061070b91906118a8565b6001600160a01b0316336001600160a01b03161461073b5760405162461bcd60e51b8152600401610268906118c5565b846001600160a01b0316816101a001516001600160a01b0316146107715760405162461bcd60e51b815260040161026890611908565b6001600160a01b038516600090815260016020526040902054806107a75760405162461bcd60e51b815260040161026890611952565b60007f00000000000000000000000000000000000000000000000000000000000000006001600160a01b0316631755ff216040518163ffffffff1660e01b8152600401602060405180830381865afa158015610807573d6000803e3d6000fd5b505050506040513d601f19601f8201168201806040525081019061082b91906118a8565b6001600160a01b03166391541e05836040518263ffffffff1660e01b815260040161085891815260200190565b61018060405180830381865afa158015610876573d6000803e3d6000fd5b505050506040513d601f19601f8201168201806040525081019061089a91906119c6565b905080604001516001600160a01b0316876001600160a01b03161461091b5760405162461bcd60e51b815260206004820152603160248201527f424d5f5452414e534645525f414441505445525f4f544f4b454e5f4f544f4b4560448201527009cbe82a6a68aa8be9c9ea8be9a82a8869607b1b6064820152608401610268565b80602001516001600160a01b03168361018001516001600160a01b0316146109555760405162461bcd60e51b815260040161026890611a8f565b6040516370a0823160e01b81526001600160a01b038781166004830152600091908916906370a0823190602401602060405180830381865afa15801561099f573d6000803e3d6000fd5b505050506040513d601f19601f820116820180604052508101906109c39190611afb565b905060007f00000000000000000000000000000000000000000000000000000000000000006001600160a01b0316631755ff216040518163ffffffff1660e01b8152600401602060405180830381865afa158015610a25573d6000803e3d6000fd5b505050506040513d601f19601f82011682018060405250810190610a4991906118a8565b6001600160a01b0316630aad628b856040518263ffffffff1660e01b8152600401610a7691815260200190565b602060405180830381865afa158015610a93573d6000803e3d6000fd5b505050506040513d601f19601f82011682018060405250810190610ab79190611afb565b905085821015610b175760405162461bcd60e51b815260206004820152602560248201527f424d5f5452414e534645525f414441505445525f4f544f4b454e5f4e4f545f4560448201526409c9eaa8e960db1b6064820152608401610268565b85811015610b845760405162461bcd60e51b815260206004820152603460248201527f424d5f5452414e534645525f414441505445525f4f544f4b454e5f504f4f4c5f60448201527309892a2aa928892a8b2be9c9ea8be8a9c9eaa8e960631b6064820152608401610268565b6040830151610b9e906001600160a01b0316893089610fd3565b7f00000000000000000000000000000000000000000000000000000000000000006001600160a01b0316631755ff216040518163ffffffff1660e01b8152600401602060405180830381865afa158015610bfc573d6000803e3d6000fd5b505050506040513d601f19601f82011682018060405250810190610c2091906118a8565b604051630ad58d2f60e01b815260048101869052602481018890526001600160a01b0389811660448301529190911690630ad58d2f90606401600060405180830381600087803b158015610c7357600080fd5b505af1158015610c87573d6000803e3d6000fd5b50505050505050505050505050565b6000546001600160a01b03163314610cc05760405162461bcd60e51b815260040161026890611b14565b816001600160a01b03167f00000000000000000000000000000000000000000000000000000000000000006001600160a01b0316631755ff216040518163ffffffff1660e01b8152600401602060405180830381865afa158015610d28573d6000803e3d6000fd5b505050506040513d601f19601f82011682018060405250810190610d4c91906118a8565b6001600160a01b03166391541e05836040518263ffffffff1660e01b8152600401610d7991815260200190565b61018060405180830381865afa158015610d97573d6000803e3d6000fd5b505050506040513d601f19601f82011682018060405250810190610dbb91906119c6565b604001516001600160a01b031614610e2e5760405162461bcd60e51b815260206004820152603060248201527f424d5f5452414e534645525f414441505445525f4f544f4b454e5f5345545f5260448201526f08aa68aa4ac8abe9c9ea8be9a82a886960831b6064820152608401610268565b6001600160a01b038216600081815260016020908152604091829020849055815192835282018390527f8d5eecec80658b06a2f65d86d34362853c3a58264d3a69e6eb36c997968c93fe910160405180910390a15050565b6000546001600160a01b03163314610eb05760405162461bcd60e51b815260040161026890611b14565b6001600160a01b03811660008181526001602090815260408083209290925590519182527f4a4f0e3e9caf4b67af9345ebce2679c54dca554135c8d26240d3692b2f688bab910160405180910390a150565b6000546001600160a01b03163314610f2c5760405162461bcd60e51b815260040161026890611b14565b610f366000611033565b565b6000546001600160a01b03163314610f625760405162461bcd60e51b815260040161026890611b14565b6001600160a01b038116610fc75760405162461bcd60e51b815260206004820152602660248201527f4f776e61626c653a206e6577206f776e657220697320746865207a65726f206160448201526564647265737360d01b6064820152608401610268565b610fd081611033565b50565b604080516001600160a01b0385811660248301528416604482015260648082018490528251808303909101815260849091019091526020810180516001600160e01b03166323b872dd60e01b17905261102d908590611083565b50505050565b600080546001600160a01b038381166001600160a01b0319831681178455604051919092169283917f8be0079c531659141344cd1fd0a4f28419497f9722a3daafe3b4186f6b6457e09190a35050565b60006110d8826040518060400160405280602081526020017f5361666545524332303a206c6f772d6c6576656c2063616c6c206661696c6564815250856001600160a01b031661115a9092919063ffffffff16565b80519091501561115557808060200190518101906110f69190611ade565b6111555760405162461bcd60e51b815260206004820152602a60248201527f5361666545524332303a204552433230206f7065726174696f6e20646964206e6044820152691bdd081cdd58d8d9595960b21b6064820152608401610268565b505050565b60606111698484600085611173565b90505b9392505050565b6060824710156111d45760405162461bcd60e51b815260206004820152602660248201527f416464726573733a20696e73756666696369656e742062616c616e636520666f6044820152651c8818d85b1b60d21b6064820152608401610268565b843b6112225760405162461bcd60e51b815260206004820152601d60248201527f416464726573733a2063616c6c20746f206e6f6e2d636f6e74726163740000006044820152606401610268565b600080866001600160a01b0316858760405161123e9190611b75565b60006040518083038185875af1925050503d806000811461127b576040519150601f19603f3d011682016040523d82523d6000602084013e611280565b606091505b509150915061129082828661129b565b979650505050505050565b606083156112aa57508161116c565b8251156112ba5782518084602001fd5b8160405162461bcd60e51b81526004016102689190611b91565b6001600160a01b0381168114610fd057600080fd5b80356112f4816112d4565b919050565b634e487b7160e01b600052604160045260246000fd5b604051610280810167ffffffffffffffff81118282101715611333576113336112f9565b60405290565b6040516102c0810167ffffffffffffffff81118282101715611333576113336112f9565b604051610180810167ffffffffffffffff81118282101715611333576113336112f9565b6fffffffffffffffffffffffffffffffff81168114610fd057600080fd5b80356112f481611381565b64ffffffffff81168114610fd057600080fd5b80356112f4816113aa565b8015158114610fd057600080fd5b80356112f4816113c8565b8035600481106112f457600080fd5b600080600080600085870361030081121561140a57600080fd5b8635611415816112d4565b95506020870135611425816112d4565b94506040870135611435816112d4565b935060608701359250610280607f19820181131561145257600080fd5b61145a61130f565b9150611468608089016112e9565b825260a0880135602083015260c0880135604083015261148a60e089016112e9565b606083015261010061149d818a016112e9565b60808401526101206114b0818b016112e9565b60a0850152610140808b013560c08601526101606114cf818d0161139f565b60e08701526101806114e2818e0161139f565b858801526101a094506114f6858e016112e9565b848801526101c0935061150a848e016112e9565b838801526101e09250828d0135828801526102009150818d01358188015250610220611537818e016113bd565b85880152610240945061154b858e016113bd565b84880152610260935061155f848e016113bd565b8388015261156e868e016113bd565b8288015261157f6102a08e016113d6565b818801525050506115936102c08b016113d6565b828501526115a46102e08b016113e1565b81850152505050809150509295509295909350565b6000602082840312156115cb57600080fd5b813561116c816112d4565b8035600281106112f457600080fd5b600082601f8301126115f657600080fd5b813567ffffffffffffffff80821115611611576116116112f9565b604051601f8301601f19908116603f01168101908282118183101715611639576116396112f9565b8160405283815286602085880101111561165257600080fd5b836020870160208301376000602085830101528094505050505092915050565b803560ff811681146112f457600080fd5b600080600080600060a0868803121561169b57600080fd5b85356116a6816112d4565b945060208601356116b6816112d4565b935060408601356116c6816112d4565b925060608601359150608086013567ffffffffffffffff808211156116ea57600080fd5b908701906102c0828a0312156116ff57600080fd5b611707611339565b611710836113d6565b815261171e602084016113d6565b602082015261172f604084016115d6565b6040820152611740606084016112e9565b60608201526080830135608082015260a083013560a082015261176560c084016112e9565b60c082015260e083013560e082015261010080840135818301525061012061178e8185016113bd565b908201526101406117a08482016113bd565b908201526101606117b284820161139f565b908201526101806117c48482016112e9565b908201526101a06117d68482016112e9565b908201526101c083810135908201526101e0808401359082015261020080840135908201526102206118098185016112e9565b90820152610240838101358381111561182157600080fd5b61182d8c8287016115e5565b8284015250506102609150611843828401611672565b82820152610280915081830135828201526102a0915081830135828201528093505050509295509295909350565b6000806040838503121561188457600080fd5b823561188f816112d4565b946020939093013593505050565b80516112f4816112d4565b6000602082840312156118ba57600080fd5b815161116c816112d4565b60208082526023908201527f424d5f41434c5f4f4e4c595f424553504f4b525f4d41524b45545f43414e5f4360408201526210531360ea1b606082015260800190565b6020808252602a908201527f424d5f5452414e534645525f414441505445525f4f544f4b454e5f41535345546040820152690be9c9ea8be9a82a886960b31b606082015260800190565b60208082526033908201527f424d5f5452414e534645525f414441505445525f4f544f4b454e5f52455345526040820152721591525117d393d517d0d3d3919251d5549151606a1b606082015260800190565b80516112f481611381565b80516112f4816113aa565b80516112f4816113c8565b600061018082840312156119d957600080fd5b6119e161135d565b825181526119f16020840161189d565b6020820152611a026040840161189d565b6040820152611a136060840161189d565b6060820152611a24608084016119a5565b608082015260a083015160a082015260c083015160c0820152611a4960e084016119b0565b60e08201526101008381015190820152610120611a6781850161189d565b908201526101408381015190820152610160611a848185016119bb565b908201529392505050565b6020808252602f908201527f424d5f5452414e534645525f414441505445525f4f544f4b454e5f554e44455260408201526e098b2929c8ebe9c9ea8be9a82a8869608b1b606082015260800190565b600060208284031215611af057600080fd5b815161116c816113c8565b600060208284031215611b0d57600080fd5b5051919050565b6020808252818101527f4f776e61626c653a2063616c6c6572206973206e6f7420746865206f776e6572604082015260600190565b60005b83811015611b64578181015183820152602001611b4c565b8381111561102d5750506000910152565b60008251611b87818460208701611b49565b9190910192915050565b6020815260008251806020840152611bb0816040850160208701611b49565b601f01601f1916919091016040019291505056fea2646970667358221220fc84bc7cbf7939ae91aa0c6fd2a5f08a0578c9d4ab151fe88c5ab7a61075125564736f6c634300080a0033",
  "libraries": {},
  "devdoc": {
    "kind": "dev",
    "methods": {
      "owner()": {
        "details": "Returns the address of the current owner."
      },
      "renounceOwnership()": {
        "details": "Leaves the contract without owner. It will not be possible to call `onlyOwner` functions anymore. Can only be called by the current owner. NOTE: Renouncing ownership will leave the contract without an owner, thereby removing any functionality that is only available to the owner."
      },
      "transferOwnership(address)": {
        "details": "Transfers ownership of the contract to a new account (`newOwner`). Can only be called by the current owner."
      }
    },
    "version": 1
  },
  "userdoc": {
    "kind": "user",
    "methods": {},
    "version": 1
  },
  "storageLayout": {
    "storage": [
      {
        "astId": 387,
        "contract": "contracts/bespokemarket/transferAdaptersCurrency/TransferAdapterOToken.sol:TransferAdapterOToken",
        "label": "_owner",
        "offset": 0,
        "slot": "0",
        "type": "t_address"
      },
      {
        "astId": 18986,
        "contract": "contracts/bespokemarket/transferAdaptersCurrency/TransferAdapterOToken.sol:TransferAdapterOToken",
        "label": "getReserveId",
        "offset": 0,
        "slot": "1",
        "type": "t_mapping(t_address,t_uint256)"
      }
    ],
    "types": {
      "t_address": {
        "encoding": "inplace",
        "label": "address",
        "numberOfBytes": "20"
      },
      "t_mapping(t_address,t_uint256)": {
        "encoding": "mapping",
        "key": "t_address",
        "label": "mapping(address => uint256)",
        "numberOfBytes": "32",
        "value": "t_uint256"
      },
      "t_uint256": {
        "encoding": "inplace",
        "label": "uint256",
        "numberOfBytes": "32"
      }
    }
  }
}