{
  "address": "0x86BF2E962563C4c0e4f6F921c382A72D617d1473",
  "abi": [
    {
      "inputs": [
        {
          "internalType": "contract IApeCoinStaking",
          "name": "apeCoinStaking_",
          "type": "address"
        }
      ],
      "stateMutability": "nonpayable",
      "type": "constructor"
    },
    {
      "stateMutability": "payable",
      "type": "fallback"
    },
    {
      "inputs": [],
      "name": "apeCoinStaking",
      "outputs": [
        {
          "internalType": "contract IApeCoinStaking",
          "name": "",
          "type": "address"
        }
      ],
      "stateMutability": "view",
      "type": "function"
    },
    {
      "inputs": [
        {
          "internalType": "address",
          "name": "asset",
          "type": "address"
        },
        {
          "internalType": "uint256",
          "name": "amount",
          "type": "uint256"
        }
      ],
      "name": "depositCall",
      "outputs": [],
      "stateMutability": "nonpayable",
      "type": "function"
    },
    {
      "inputs": [
        {
          "internalType": "address",
          "name": "asset",
          "type": "address"
        },
        {
          "internalType": "address",
          "name": "account",
          "type": "address"
        }
      ],
      "name": "getBalance",
      "outputs": [
        {
          "internalType": "uint256",
          "name": "",
          "type": "uint256"
        }
      ],
      "stateMutability": "view",
      "type": "function"
    },
    {
      "inputs": [
        {
          "internalType": "address",
          "name": "asset",
          "type": "address"
        }
      ],
      "name": "getMoneyMarketToken",
      "outputs": [
        {
          "internalType": "address",
          "name": "",
          "type": "address"
        }
      ],
      "stateMutability": "view",
      "type": "function"
    },
    {
      "inputs": [
        {
          "internalType": "address",
          "name": "asset",
          "type": "address"
        }
      ],
      "name": "getSupplyRate",
      "outputs": [
        {
          "internalType": "uint256",
          "name": "",
          "type": "uint256"
        }
      ],
      "stateMutability": "view",
      "type": "function"
    },
    {
      "inputs": [
        {
          "internalType": "address",
          "name": "asset",
          "type": "address"
        },
        {
          "internalType": "uint256",
          "name": "amount",
          "type": "uint256"
        },
        {
          "internalType": "address",
          "name": "to",
          "type": "address"
        }
      ],
      "name": "withdrawCall",
      "outputs": [],
      "stateMutability": "nonpayable",
      "type": "function"
    },
    {
      "stateMutability": "payable",
      "type": "receive"
    }
  ],
  "transactionHash": "0x6c48969634091c337f2e0714612d302a57350a166ddab5252a4844d9bdd824e8",
  "args": [
    "0x5954aB967Bc958940b7EB73ee84797Dc8a2AFbb9"
  ],
  "solcInputHash": "320d587b79b26d1ac7bb4083e2a54418",
  "bytecode": "0x60c060405234801561001057600080fd5b506040516111a83803806111a883398101604081905261002f91610044565b6001600160a01b031660a05230608052610074565b60006020828403121561005657600080fd5b81516001600160a01b038116811461006d57600080fd5b9392505050565b60805160a0516110d06100d8600039600081816101a00152818161023b015281816102dd015281816103d501528181610498015281816105300152818161063d015281816106c3015281816107a301526108aa0152600061085101526110d06000f3fe6080604052600436106100595760003560e01c80630754c9b4146100e05780632940be85146101025780634894eeba146101225780636b5441a914610160578063c9112a771461018e578063d4fac45d146101c2576100a1565b366100a15760405162461bcd60e51b8152602060048201526013602482015272149150d152559157d393d517d0531313d5d151606a1b60448201526064015b60405180910390fd5b60405162461bcd60e51b815260206004820152601460248201527311905313109050d2d7d393d517d0531313d5d15160621b6044820152606401610098565b3480156100ec57600080fd5b506101006100fb366004610c88565b6101e2565b005b34801561010e57600080fd5b5061010061011d366004610cb2565b61043f565b34801561012e57600080fd5b5061014361013d366004610cee565b50600090565b6040516001600160a01b0390911681526020015b60405180910390f35b34801561016c57600080fd5b5061018061017b366004610cee565b6106be565b604051908152602001610157565b34801561019a57600080fd5b506101437f000000000000000000000000000000000000000000000000000000000000000081565b3480156101ce57600080fd5b506101806101dd366004610d09565b61077f565b6101ea61082c565b60408051808201909152600381526203530360ec1b6020820152816102225760405162461bcd60e51b81526004016100989190610d6c565b50604051636cf88fd960e11b81523060048201526000907f00000000000000000000000000000000000000000000000000000000000000006001600160a01b03169063d9f11fb29060240160e060405180830381865afa15801561028a573d6000803e3d6000fd5b505050506040513d601f19601f820116820180604052508101906102ae9190610e38565b60408101519091501561034257604081810151905163e4e8184760e01b815260048101919091523060248201527f00000000000000000000000000000000000000000000000000000000000000006001600160a01b03169063e4e8184790604401600060405180830381600087803b15801561032957600080fd5b505af115801561033d573d6000803e3d6000fd5b505050505b6040516370a0823160e01b81523060048201526000906001600160a01b038516906370a0823190602401602060405180830381865afa158015610389573d6000803e3d6000fd5b505050506040513d601f19601f820116820180604052508101906103ad9190610ebb565b90506103b98482610893565b60405163bd5023a960e01b8152600481018290523060248201527f00000000000000000000000000000000000000000000000000000000000000006001600160a01b03169063bd5023a990604401600060405180830381600087803b15801561042157600080fd5b505af1158015610435573d6000803e3d6000fd5b5050505050505050565b61044761082c565b60408051808201909152600381526235303160e81b60208201528261047f5760405162461bcd60e51b81526004016100989190610d6c565b50604051636cf88fd960e11b81523060048201526000907f00000000000000000000000000000000000000000000000000000000000000006001600160a01b03169063d9f11fb29060240160e060405180830381865afa1580156104e7573d6000803e3d6000fd5b505050506040513d601f19601f8201168201806040525081019061050b9190610e38565b604081810151905163e4e8184760e01b815260048101919091523060248201529091507f00000000000000000000000000000000000000000000000000000000000000006001600160a01b03169063e4e8184790604401600060405180830381600087803b15801561057c57600080fd5b505af1158015610590573d6000803e3d6000fd5b50506040516370a0823160e01b8152306004820152600092506001600160a01b03871691506370a0823190602401602060405180830381865afa1580156105db573d6000803e3d6000fd5b505050506040513d601f19601f820116820180604052508101906105ff9190610ebb565b9050838111156106a35760006106158583610eea565b90506106218682610893565b60405163bd5023a960e01b8152600481018290523060248201527f00000000000000000000000000000000000000000000000000000000000000006001600160a01b03169063bd5023a990604401600060405180830381600087803b15801561068957600080fd5b505af115801561069d573d6000803e3d6000fd5b50505050505b6106b76001600160a01b0386168486610965565b5050505050565b6000807f00000000000000000000000000000000000000000000000000000000000000006001600160a01b031663770dade56040518163ffffffff1660e01b815260040161030060405180830381865afa158015610720573d6000803e3d6000fd5b505050506040513d601f19601f820116820180604052508101906107449190610fa8565b5050509050610778816020015182604001516040015160186107669190611003565b6107729061016d611003565b906109b7565b9392505050565b604051636cf88fd960e11b81526001600160a01b03828116600483015260009182917f0000000000000000000000000000000000000000000000000000000000000000169063d9f11fb29060240160e060405180830381865afa1580156107ea573d6000803e3d6000fd5b505050506040513d601f19601f8201168201806040525081019061080e9190610e38565b9050806060015181604001516108249190611022565b949350505050565b6040805180820190915260038152620d4c0d60ea1b6020820152306001600160a01b037f00000000000000000000000000000000000000000000000000000000000000001614156108905760405162461bcd60e51b81526004016100989190610d6c565b50565b60405163095ea7b360e01b81526001600160a01b037f0000000000000000000000000000000000000000000000000000000000000000811660048301526024820183905283169063095ea7b3906044016020604051808303816000875af1158015610902573d6000803e3d6000fd5b505050506040513d601f19601f82011682018060405250810190610926919061103a565b604051806040016040528060038152602001621a981960e91b815250906109605760405162461bcd60e51b81526004016100989190610d6c565b505050565b604080516001600160a01b038416602482015260448082018490528251808303909101815260649091019091526020810180516001600160e01b031663a9059cbb60e01b179052610960908490610a8f565b60408051808201909152600381526218981960e91b6020820152600090826109f25760405162461bcd60e51b81526004016100989190610d6c565b506000610a0060028461105c565b90506b033b2e3c9fd0803ce8000000610a1b82600019610eea565b610a25919061105c565b8411156040518060400160405280600381526020016203130360ec1b81525090610a625760405162461bcd60e51b81526004016100989190610d6c565b508281610a7b6b033b2e3c9fd0803ce800000087611003565b610a859190611022565b610824919061105c565b6000610ae4826040518060400160405280602081526020017f5361666545524332303a206c6f772d6c6576656c2063616c6c206661696c6564815250856001600160a01b0316610b619092919063ffffffff16565b8051909150156109605780806020019051810190610b02919061103a565b6109605760405162461bcd60e51b815260206004820152602a60248201527f5361666545524332303a204552433230206f7065726174696f6e20646964206e6044820152691bdd081cdd58d8d9595960b21b6064820152608401610098565b6060610824848460008585843b610bba5760405162461bcd60e51b815260206004820152601d60248201527f416464726573733a2063616c6c20746f206e6f6e2d636f6e74726163740000006044820152606401610098565b600080866001600160a01b03168587604051610bd6919061107e565b60006040518083038185875af1925050503d8060008114610c13576040519150601f19603f3d011682016040523d82523d6000602084013e610c18565b606091505b5091509150610c28828286610c33565b979650505050505050565b60608315610c42575081610778565b825115610c525782518084602001fd5b8160405162461bcd60e51b81526004016100989190610d6c565b80356001600160a01b0381168114610c8357600080fd5b919050565b60008060408385031215610c9b57600080fd5b610ca483610c6c565b946020939093013593505050565b600080600060608486031215610cc757600080fd5b610cd084610c6c565b925060208401359150610ce560408501610c6c565b90509250925092565b600060208284031215610d0057600080fd5b61077882610c6c565b60008060408385031215610d1c57600080fd5b610d2583610c6c565b9150610d3360208401610c6c565b90509250929050565b60005b83811015610d57578181015183820152602001610d3f565b83811115610d66576000848401525b50505050565b6020815260008251806020840152610d8b816040850160208701610d3c565b601f01601f19169190910160400192915050565b60405160c0810167ffffffffffffffff81118282101715610dd057634e487b7160e01b600052604160045260246000fd5b60405290565b6040805190810167ffffffffffffffff81118282101715610dd057634e487b7160e01b600052604160045260246000fd5b6040516080810167ffffffffffffffff81118282101715610dd057634e487b7160e01b600052604160045260246000fd5b600081830360e0811215610e4b57600080fd5b610e53610d9f565b83518152602084015160208201526040840151604082015260608401516060820152608084015160808201526040609f1983011215610e9157600080fd5b610e99610dd6565b60a085810151825260c090950151602082015293810193909352509092915050565b600060208284031215610ecd57600080fd5b5051919050565b634e487b7160e01b600052601160045260246000fd5b600082821015610efc57610efc610ed4565b500390565b600081830360c0811215610f1457600080fd5b6040516060810181811067ffffffffffffffff82111715610f4557634e487b7160e01b600052604160045260246000fd5b60405283518152602080850151908201529150816080603f1983011215610f6b57600080fd5b610f73610e07565b915060408401518252606084015160208301526080840151604083015260a08401516060830152816040820152505092915050565b6000806000806103008587031215610fbf57600080fd5b610fc98686610f01565b9350610fd88660c08701610f01565b9250610fe8866101808701610f01565b9150610ff8866102408701610f01565b905092959194509250565b600081600019048311821515161561101d5761101d610ed4565b500290565b6000821982111561103557611035610ed4565b500190565b60006020828403121561104c57600080fd5b8151801515811461077857600080fd5b60008261107957634e487b7160e01b600052601260045260246000fd5b500490565b60008251611090818460208701610d3c565b919091019291505056fea2646970667358221220a73feec4edcd7a41f3b4521ae1a62a1a3fe17e5669508cdd75066117e82a81ad64736f6c634300080a0033",
  "devdoc": {
    "kind": "dev",
    "methods": {},
    "version": 1
  },
  "userdoc": {
    "kind": "user",
    "methods": {},
    "version": 1
  },
  "storageLayout": {
    "storage": [],
    "types": null
  }
}