{
  "address": "0x6545eAd7D84B5C1c191EFE4A2A3DA7AE724c9a8b",
  "abi": [
    {
      "inputs": [
        {
          "internalType": "uint256",
          "name": "startPrice",
          "type": "uint256"
        },
        {
          "internalType": "uint256",
          "name": "endPrice",
          "type": "uint256"
        },
        {
          "internalType": "uint256",
          "name": "startTime",
          "type": "uint256"
        },
        {
          "internalType": "uint256",
          "name": "endTime",
          "type": "uint256"
        },
        {
          "internalType": "uint256",
          "name": "priceTime",
          "type": "uint256"
        }
      ],
      "name": "calculatePrice",
      "outputs": [
        {
          "internalType": "uint256",
          "name": "",
          "type": "uint256"
        }
      ],
      "stateMutability": "pure",
      "type": "function"
    },
    {
      "inputs": [
        {
          "internalType": "uint256",
          "name": "reservePrice",
          "type": "uint256"
        },
        {
          "internalType": "uint256",
          "name": "startTime",
          "type": "uint256"
        }
      ],
      "name": "getPrice",
      "outputs": [
        {
          "internalType": "uint256",
          "name": "",
          "type": "uint256"
        }
      ],
      "stateMutability": "view",
      "type": "function"
    }
  ],
  "transactionHash": "0x7487de34efec706e1576e19d6a5d5a96c4f4c40d8c91504b99b7dd0b3a95f01d",
  "args": [],
  "solcInputHash": "f5dc045faa5109fc2d38e7d967614557",
  "bytecode": "0x608060405234801561001057600080fd5b5061029c806100206000396000f3fe608060405234801561001057600080fd5b50600436106100365760003560e01c8063207ad9ce1461003b5780635cf4ee9114610060575b600080fd5b61004e610049366004610183565b610073565b60405190815260200160405180910390f35b61004e61006e3660046101be565b6100e7565b60008061012c61008386866101f6565b61008d919061020d565b905060008161009c888a6101f6565b6100a6919061020d565b9050600061012c6100b788876101f6565b6100c1919061020d565b905060006100cf838361022f565b6100d9908b6101f6565b9a9950505050505050505050565b6000806100f584600261022f565b9050600061271061010886612ee061022f565b610112919061020d565b90508460006101236154608761024e565b905060006101336154608361024e565b905082428810610144575084610177565b82421161015f5761015886868a8642610073565b9050610177565b81421015610174576101588585858542610073565b50825b98975050505050505050565b600080600080600060a0868803121561019b57600080fd5b505083359560208501359550604085013594606081013594506080013592509050565b600080604083850312156101d157600080fd5b50508035926020909101359150565b634e487b7160e01b600052601160045260246000fd5b600082821015610208576102086101e0565b500390565b60008261022a57634e487b7160e01b600052601260045260246000fd5b500490565b6000816000190483118215151615610249576102496101e0565b500290565b60008219821115610261576102616101e0565b50019056fea2646970667358221220887387e28456db7c23fe8518e57b86b92e21320af07a5def7e0758548a37532c64736f6c634300080a0033",
  "devdoc": {
    "kind": "dev",
    "methods": {},
    "version": 1
  },
  "userdoc": {
    "kind": "user",
    "methods": {},
    "version": 1
  },
  "storageLayout": {
    "storage": [],
    "types": null
  }
}