{
  "address": "0x2E238625fe62161099c90F060628a9716cE83842",
  "abi": [
    {
      "inputs": [
        {
          "internalType": "contract IWETH",
          "name": "weth",
          "type": "address"
        },
        {
          "internalType": "contract IOpenSkySettings",
          "name": "settings",
          "type": "address"
        }
      ],
      "stateMutability": "nonpayable",
      "type": "constructor"
    },
    {
      "anonymous": false,
      "inputs": [
        {
          "indexed": true,
          "internalType": "address",
          "name": "sender",
          "type": "address"
        },
        {
          "indexed": false,
          "internalType": "uint256",
          "name": "amount",
          "type": "uint256"
        }
      ],
      "name": "Received",
      "type": "event"
    },
    {
      "inputs": [],
      "name": "SETTINGS",
      "outputs": [
        {
          "internalType": "contract IOpenSkySettings",
          "name": "",
          "type": "address"
        }
      ],
      "stateMutability": "view",
      "type": "function"
    },
    {
      "inputs": [],
      "name": "WETH",
      "outputs": [
        {
          "internalType": "contract IWETH",
          "name": "",
          "type": "address"
        }
      ],
      "stateMutability": "view",
      "type": "function"
    },
    {
      "inputs": [
        {
          "internalType": "address",
          "name": "",
          "type": "address"
        },
        {
          "internalType": "address",
          "name": "",
          "type": "address"
        },
        {
          "internalType": "uint256",
          "name": "",
          "type": "uint256"
        },
        {
          "internalType": "bytes",
          "name": "",
          "type": "bytes"
        }
      ],
      "name": "onERC721Received",
      "outputs": [
        {
          "internalType": "bytes4",
          "name": "",
          "type": "bytes4"
        }
      ],
      "stateMutability": "nonpayable",
      "type": "function"
    },
    {
      "inputs": [
        {
          "internalType": "uint256",
          "name": "loanId",
          "type": "uint256"
        }
      ],
      "name": "repay",
      "outputs": [],
      "stateMutability": "payable",
      "type": "function"
    },
    {
      "stateMutability": "payable",
      "type": "receive"
    }
  ],
  "transactionHash": "0x3f06d2a2b19acd3373f4ec5319e7ddfae6a0c961a369fc7d79a3bddb775ed8d1",
  "args": [
    "0xC02aaA39b223FE8D0A0e5C4F27eAD9083C756Cc2",
    "0x72A780B33915D6D229E7b31A729AE42963A57c73"
  ],
  "solcInputHash": "1aedf85b3a0ea07304d085ddb031b890",
  "bytecode": "0x60c060405234801561001057600080fd5b50604051610fd4380380610fd483398101604081905261002f9161005e565b6001600160a01b039182166080521660a052610098565b6001600160a01b038116811461005b57600080fd5b50565b6000806040838503121561007157600080fd5b825161007c81610046565b602084015190925061008d81610046565b809150509250929050565b60805160a051610ed96100fb600039600081816101b3015281816101d9015281816103670152818161045c0152610570015260008181605301528181610167015281816102c40152818161033801528181610789015261081a0152610ed96000f3fe6080604052600436106100435760003560e01c8063150b7a02146100f7578063371fd8e614610140578063ad5c464814610155578063ade97ab5146101a157600080fd5b366100f257336001600160a01b037f000000000000000000000000000000000000000000000000000000000000000016146100bb5760405162461bcd60e51b8152602060048201526013602482015272149150d152559157d393d517d0531313d5d151606a1b60448201526064015b60405180910390fd5b60405134815233907f88a5966d370b9919b20f3e2c13ff65706f196a4e32cc2c12bf57088f885258749060200160405180910390a2005b600080fd5b34801561010357600080fd5b50610122610112366004610a8f565b630a85bd0160e11b949350505050565b6040516001600160e01b031990911681526020015b60405180910390f35b61015361014e366004610b3e565b6101d5565b005b34801561016157600080fd5b506101897f000000000000000000000000000000000000000000000000000000000000000081565b6040516001600160a01b039091168152602001610137565b3480156101ad57600080fd5b506101897f000000000000000000000000000000000000000000000000000000000000000081565b60007f00000000000000000000000000000000000000000000000000000000000000006001600160a01b03166335bc868a6040518163ffffffff1660e01b8152600401602060405180830381865afa158015610235573d6000803e3d6000fd5b505050506040513d601f19601f820116820180604052508101906102599190610b67565b604051632142170760e11b8152336004820152306024820152604481018490529091506001600160a01b038216906342842e0e90606401600060405180830381600087803b1580156102aa57600080fd5b505af11580156102be573d6000803e3d6000fd5b505050507f00000000000000000000000000000000000000000000000000000000000000006001600160a01b031663d0e30db0346040518263ffffffff1660e01b81526004016000604051808303818588803b15801561031d57600080fd5b505af1158015610331573d6000803e3d6000fd5b50505050507f00000000000000000000000000000000000000000000000000000000000000006001600160a01b031663095ea7b37f00000000000000000000000000000000000000000000000000000000000000006001600160a01b0316631755ff216040518163ffffffff1660e01b8152600401602060405180830381865afa1580156103c3573d6000803e3d6000fd5b505050506040513d601f19601f820116820180604052508101906103e79190610b67565b6040516001600160e01b031960e084901b1681526001600160a01b0390911660048201523460248201526044016020604051808303816000875af1158015610433573d6000803e3d6000fd5b505050506040513d601f19601f820116820180604052508101906104579190610b9b565b5060007f00000000000000000000000000000000000000000000000000000000000000006001600160a01b0316631755ff216040518163ffffffff1660e01b8152600401602060405180830381865afa1580156104b8573d6000803e3d6000fd5b505050506040513d601f19601f820116820180604052508101906104dc9190610b67565b60405163622fe39f60e01b8152600481018590529091506000906001600160a01b0384169063622fe39f906024016101c060405180830381865afa158015610528573d6000803e3d6000fd5b505050506040513d601f19601f8201168201806040525081019061054c9190610bfa565b80516020820151604051639dce429960e01b81529293506000926001600160a01b037f00000000000000000000000000000000000000000000000000000000000000001692639dce4299926105b5926004019182526001600160a01b0316602082015260400190565b600060405180830381865afa1580156105d2573d6000803e3d6000fd5b505050506040513d6000823e601f3d908101601f191682016040526105fa9190810190610d72565b60808101516040516333889f7b60e11b815260048101889052655af3107a4000602482015260448101919091523060648201529091506001600160a01b038416906367113ef69060840160408051808303816000875af1158015610662573d6000803e3d6000fd5b505050506040513d601f19601f820116820180604052508101906106869190610e4a565b50506020820151604080840151905163011615d360e41b81526001600160a01b03928316600482015260248101919091528185169163371fd8e691908716906311615d3090604401602060405180830381865afa1580156106eb573d6000803e3d6000fd5b505050506040513d601f19601f8201168201806040525081019061070f9190610e6e565b6040518263ffffffff1660e01b815260040161072d91815260200190565b6020604051808303816000875af115801561074c573d6000803e3d6000fd5b505050506040513d601f19601f820116820180604052508101906107709190610e6e565b506040516370a0823160e01b81523060048201526000907f00000000000000000000000000000000000000000000000000000000000000006001600160a01b0316906370a0823190602401602060405180830381865afa1580156107d8573d6000803e3d6000fd5b505050506040513d601f19601f820116820180604052508101906107fc9190610e6e565b9050801561088857604051632e1a7d4d60e01b8152600481018290527f00000000000000000000000000000000000000000000000000000000000000006001600160a01b031690632e1a7d4d90602401600060405180830381600087803b15801561086657600080fd5b505af115801561087a573d6000803e3d6000fd5b505050506108883382610902565b60208301516040808501519051632142170760e11b815230600482015233602482015260448101919091526001600160a01b03909116906342842e0e90606401600060405180830381600087803b1580156108e257600080fd5b505af11580156108f6573d6000803e3d6000fd5b50505050505050505050565b604080516000808252602082019092526001600160a01b03841690839060405161092c9190610e87565b60006040518083038185875af1925050503d8060008114610969576040519150601f19603f3d011682016040523d82523d6000602084013e61096e565b606091505b50509050806109b55760405162461bcd60e51b815260206004820152601360248201527211551217d514905394d1915497d19052531151606a1b60448201526064016100b2565b505050565b6001600160a01b03811681146109cf57600080fd5b50565b634e487b7160e01b600052604160045260246000fd5b6040516101c0810167ffffffffffffffff81118282101715610a0c57610a0c6109d2565b60405290565b604051610100810167ffffffffffffffff81118282101715610a0c57610a0c6109d2565b604051601f8201601f1916810167ffffffffffffffff81118282101715610a5f57610a5f6109d2565b604052919050565b600067ffffffffffffffff821115610a8157610a816109d2565b50601f01601f191660200190565b60008060008060808587031215610aa557600080fd5b8435610ab0816109ba565b93506020850135610ac0816109ba565b925060408501359150606085013567ffffffffffffffff811115610ae357600080fd5b8501601f81018713610af457600080fd5b8035610b07610b0282610a67565b610a36565b818152886020838501011115610b1c57600080fd5b8160208401602083013760006020838301015280935050505092959194509250565b600060208284031215610b5057600080fd5b5035919050565b8051610b62816109ba565b919050565b600060208284031215610b7957600080fd5b8151610b84816109ba565b9392505050565b80518015158114610b6257600080fd5b600060208284031215610bad57600080fd5b610b8482610b8b565b80516fffffffffffffffffffffffffffffffff81168114610b6257600080fd5b805164ffffffffff81168114610b6257600080fd5b805160068110610b6257600080fd5b60006101c08284031215610c0d57600080fd5b610c156109e8565b82518152610c2560208401610b57565b602082015260408301516040820152610c4060608401610b57565b606082015260808301516080820152610c5b60a08401610bb6565b60a0820152610c6c60c08401610bb6565b60c0820152610c7d60e08401610bd6565b60e0820152610100610c90818501610bd6565b90820152610120610ca2848201610bd6565b90820152610140610cb4848201610bd6565b90820152610160610cc6848201610bd6565b90820152610180610cd8848201610bd6565b908201526101a0610cea848201610beb565b908201529392505050565b60005b83811015610d10578181015183820152602001610cf8565b83811115610d1f576000848401525b50505050565b600082601f830112610d3657600080fd5b8151610d44610b0282610a67565b818152846020838601011115610d5957600080fd5b610d6a826020830160208701610cf5565b949350505050565b600060208284031215610d8457600080fd5b815167ffffffffffffffff80821115610d9c57600080fd5b908301906101008286031215610db157600080fd5b610db9610a12565b610dc283610b8b565b8152602083015182811115610dd657600080fd5b610de287828601610d25565b602083015250604083015182811115610dfa57600080fd5b610e0687828601610d25565b604083015250606083015160608201526080830151608082015260a083015160a082015260c083015160c082015260e083015160e082015280935050505092915050565b60008060408385031215610e5d57600080fd5b505080516020909101519092909150565b600060208284031215610e8057600080fd5b5051919050565b60008251610e99818460208701610cf5565b919091019291505056fea26469706673582212205ff484965113d52c3b7d0f77ff4c4a41a2a748b8b73c9217a1880644b747262e64736f6c634300080a0033",
  "devdoc": {
    "kind": "dev",
    "methods": {
      "onERC721Received(address,address,uint256,bytes)": {
        "details": "See {IERC721Receiver-onERC721Received}. Always returns `IERC721Receiver.onERC721Received.selector`."
      }
    },
    "version": 1
  },
  "userdoc": {
    "kind": "user",
    "methods": {},
    "version": 1
  },
  "storageLayout": {
    "storage": [],
    "types": null
  }
}