{
  "address": "0xdaE29A91f663faf7657594f908e183e3b826d437",
  "abi": [
    {
      "inputs": [
        {
          "internalType": "address",
          "name": "SETTINGS_",
          "type": "address"
        }
      ],
      "stateMutability": "nonpayable",
      "type": "constructor"
    },
    {
      "anonymous": false,
      "inputs": [
        {
          "indexed": true,
          "internalType": "uint256",
          "name": "reserveId",
          "type": "uint256"
        },
        {
          "indexed": false,
          "internalType": "address",
          "name": "user",
          "type": "address"
        },
        {
          "indexed": true,
          "internalType": "address",
          "name": "onBehalfOf",
          "type": "address"
        },
        {
          "indexed": true,
          "internalType": "uint256",
          "name": "loanId",
          "type": "uint256"
        }
      ],
      "name": "Borrow",
      "type": "event"
    },
    {
      "anonymous": false,
      "inputs": [
        {
          "indexed": false,
          "internalType": "uint256",
          "name": "reserveId",
          "type": "uint256"
        }
      ],
      "name": "CloseMoneyMarket",
      "type": "event"
    },
    {
      "anonymous": false,
      "inputs": [
        {
          "indexed": true,
          "internalType": "uint256",
          "name": "reserveId",
          "type": "uint256"
        },
        {
          "indexed": true,
          "internalType": "address",
          "name": "underlyingAsset",
          "type": "address"
        },
        {
          "indexed": true,
          "internalType": "address",
          "name": "oTokenAddress",
          "type": "address"
        },
        {
          "indexed": false,
          "internalType": "string",
          "name": "name",
          "type": "string"
        },
        {
          "indexed": false,
          "internalType": "string",
          "name": "symbol",
          "type": "string"
        },
        {
          "indexed": false,
          "internalType": "uint8",
          "name": "decimals",
          "type": "uint8"
        }
      ],
      "name": "Create",
      "type": "event"
    },
    {
      "anonymous": false,
      "inputs": [
        {
          "indexed": true,
          "internalType": "uint256",
          "name": "reserveId",
          "type": "uint256"
        },
        {
          "indexed": true,
          "internalType": "address",
          "name": "onBehalfOf",
          "type": "address"
        },
        {
          "indexed": false,
          "internalType": "uint256",
          "name": "amount",
          "type": "uint256"
        },
        {
          "indexed": false,
          "internalType": "uint256",
          "name": "referralCode",
          "type": "uint256"
        }
      ],
      "name": "Deposit",
      "type": "event"
    },
    {
      "anonymous": false,
      "inputs": [
        {
          "indexed": true,
          "internalType": "uint256",
          "name": "reserveId",
          "type": "uint256"
        },
        {
          "indexed": true,
          "internalType": "uint256",
          "name": "loanId",
          "type": "uint256"
        },
        {
          "indexed": true,
          "internalType": "address",
          "name": "nftAddress",
          "type": "address"
        },
        {
          "indexed": false,
          "internalType": "uint256",
          "name": "tokenId",
          "type": "uint256"
        },
        {
          "indexed": false,
          "internalType": "address",
          "name": "operator",
          "type": "address"
        },
        {
          "indexed": false,
          "internalType": "uint256",
          "name": "repayAmount",
          "type": "uint256"
        },
        {
          "indexed": false,
          "internalType": "uint256",
          "name": "borrowBalance",
          "type": "uint256"
        }
      ],
      "name": "EndLiquidation",
      "type": "event"
    },
    {
      "anonymous": false,
      "inputs": [
        {
          "indexed": true,
          "internalType": "uint256",
          "name": "reserveId",
          "type": "uint256"
        },
        {
          "indexed": true,
          "internalType": "address",
          "name": "onBehalfOf",
          "type": "address"
        },
        {
          "indexed": false,
          "internalType": "uint256",
          "name": "oldLoanId",
          "type": "uint256"
        },
        {
          "indexed": false,
          "internalType": "uint256",
          "name": "newLoanId",
          "type": "uint256"
        }
      ],
      "name": "Extend",
      "type": "event"
    },
    {
      "anonymous": false,
      "inputs": [
        {
          "indexed": false,
          "internalType": "uint256",
          "name": "reserveId",
          "type": "uint256"
        }
      ],
      "name": "OpenMoneyMarket",
      "type": "event"
    },
    {
      "anonymous": false,
      "inputs": [
        {
          "indexed": false,
          "internalType": "address",
          "name": "account",
          "type": "address"
        }
      ],
      "name": "Paused",
      "type": "event"
    },
    {
      "anonymous": false,
      "inputs": [
        {
          "indexed": true,
          "internalType": "uint256",
          "name": "reserveId",
          "type": "uint256"
        },
        {
          "indexed": false,
          "internalType": "address",
          "name": "repayer",
          "type": "address"
        },
        {
          "indexed": true,
          "internalType": "address",
          "name": "onBehalfOf",
          "type": "address"
        },
        {
          "indexed": true,
          "internalType": "uint256",
          "name": "loanId",
          "type": "uint256"
        },
        {
          "indexed": false,
          "internalType": "uint256",
          "name": "repayAmount",
          "type": "uint256"
        },
        {
          "indexed": false,
          "internalType": "uint256",
          "name": "penalty",
          "type": "uint256"
        }
      ],
      "name": "Repay",
      "type": "event"
    },
    {
      "anonymous": false,
      "inputs": [
        {
          "indexed": true,
          "internalType": "uint256",
          "name": "reserveId",
          "type": "uint256"
        },
        {
          "indexed": false,
          "internalType": "address",
          "name": "interestModelAddress",
          "type": "address"
        }
      ],
      "name": "SetInterestModelAddress",
      "type": "event"
    },
    {
      "anonymous": false,
      "inputs": [
        {
          "indexed": true,
          "internalType": "uint256",
          "name": "reserveId",
          "type": "uint256"
        },
        {
          "indexed": false,
          "internalType": "uint256",
          "name": "factor",
          "type": "uint256"
        }
      ],
      "name": "SetTreasuryFactor",
      "type": "event"
    },
    {
      "anonymous": false,
      "inputs": [
        {
          "indexed": true,
          "internalType": "uint256",
          "name": "reserveId",
          "type": "uint256"
        },
        {
          "indexed": true,
          "internalType": "uint256",
          "name": "loanId",
          "type": "uint256"
        },
        {
          "indexed": true,
          "internalType": "address",
          "name": "nftAddress",
          "type": "address"
        },
        {
          "indexed": false,
          "internalType": "uint256",
          "name": "tokenId",
          "type": "uint256"
        },
        {
          "indexed": false,
          "internalType": "address",
          "name": "operator",
          "type": "address"
        }
      ],
      "name": "StartLiquidation",
      "type": "event"
    },
    {
      "anonymous": false,
      "inputs": [
        {
          "indexed": false,
          "internalType": "address",
          "name": "account",
          "type": "address"
        }
      ],
      "name": "Unpaused",
      "type": "event"
    },
    {
      "anonymous": false,
      "inputs": [
        {
          "indexed": true,
          "internalType": "uint256",
          "name": "reserveId",
          "type": "uint256"
        },
        {
          "indexed": true,
          "internalType": "address",
          "name": "onBehalfOf",
          "type": "address"
        },
        {
          "indexed": false,
          "internalType": "uint256",
          "name": "amount",
          "type": "uint256"
        }
      ],
      "name": "Withdraw",
      "type": "event"
    },
    {
      "stateMutability": "payable",
      "type": "fallback"
    },
    {
      "inputs": [],
      "name": "SETTINGS",
      "outputs": [
        {
          "internalType": "contract IOpenSkySettings",
          "name": "",
          "type": "address"
        }
      ],
      "stateMutability": "view",
      "type": "function"
    },
    {
      "inputs": [
        {
          "internalType": "uint256",
          "name": "reserveId",
          "type": "uint256"
        },
        {
          "internalType": "uint256",
          "name": "amount",
          "type": "uint256"
        },
        {
          "internalType": "uint256",
          "name": "duration",
          "type": "uint256"
        },
        {
          "internalType": "address",
          "name": "nftAddress",
          "type": "address"
        },
        {
          "internalType": "uint256",
          "name": "tokenId",
          "type": "uint256"
        },
        {
          "internalType": "address",
          "name": "onBehalfOf",
          "type": "address"
        }
      ],
      "name": "borrow",
      "outputs": [
        {
          "internalType": "uint256",
          "name": "",
          "type": "uint256"
        }
      ],
      "stateMutability": "nonpayable",
      "type": "function"
    },
    {
      "inputs": [
        {
          "internalType": "uint256",
          "name": "reserveId",
          "type": "uint256"
        },
        {
          "internalType": "address",
          "name": "token",
          "type": "address"
        }
      ],
      "name": "claimERC20Rewards",
      "outputs": [],
      "stateMutability": "nonpayable",
      "type": "function"
    },
    {
      "inputs": [
        {
          "internalType": "uint256",
          "name": "reserveId",
          "type": "uint256"
        }
      ],
      "name": "closeMoneyMarket",
      "outputs": [],
      "stateMutability": "nonpayable",
      "type": "function"
    },
    {
      "inputs": [
        {
          "internalType": "address",
          "name": "underlyingAsset",
          "type": "address"
        },
        {
          "internalType": "string",
          "name": "name",
          "type": "string"
        },
        {
          "internalType": "string",
          "name": "symbol",
          "type": "string"
        },
        {
          "internalType": "uint8",
          "name": "decimals",
          "type": "uint8"
        }
      ],
      "name": "create",
      "outputs": [],
      "stateMutability": "nonpayable",
      "type": "function"
    },
    {
      "inputs": [
        {
          "internalType": "uint256",
          "name": "reserveId",
          "type": "uint256"
        },
        {
          "internalType": "uint256",
          "name": "amount",
          "type": "uint256"
        },
        {
          "internalType": "address",
          "name": "onBehalfOf",
          "type": "address"
        },
        {
          "internalType": "uint256",
          "name": "referralCode",
          "type": "uint256"
        }
      ],
      "name": "deposit",
      "outputs": [],
      "stateMutability": "nonpayable",
      "type": "function"
    },
    {
      "inputs": [
        {
          "internalType": "uint256",
          "name": "loanId",
          "type": "uint256"
        },
        {
          "internalType": "uint256",
          "name": "amount",
          "type": "uint256"
        }
      ],
      "name": "endLiquidation",
      "outputs": [],
      "stateMutability": "nonpayable",
      "type": "function"
    },
    {
      "inputs": [
        {
          "internalType": "uint256",
          "name": "oldLoanId",
          "type": "uint256"
        },
        {
          "internalType": "uint256",
          "name": "amount",
          "type": "uint256"
        },
        {
          "internalType": "uint256",
          "name": "duration",
          "type": "uint256"
        },
        {
          "internalType": "address",
          "name": "onBehalfOf",
          "type": "address"
        }
      ],
      "name": "extend",
      "outputs": [
        {
          "internalType": "uint256",
          "name": "",
          "type": "uint256"
        },
        {
          "internalType": "uint256",
          "name": "",
          "type": "uint256"
        }
      ],
      "stateMutability": "nonpayable",
      "type": "function"
    },
    {
      "inputs": [
        {
          "internalType": "uint256",
          "name": "reserveId",
          "type": "uint256"
        }
      ],
      "name": "getAvailableLiquidity",
      "outputs": [
        {
          "internalType": "uint256",
          "name": "",
          "type": "uint256"
        }
      ],
      "stateMutability": "view",
      "type": "function"
    },
    {
      "inputs": [
        {
          "internalType": "uint256",
          "name": "reserveId",
          "type": "uint256"
        },
        {
          "internalType": "address",
          "name": "nftAddress",
          "type": "address"
        },
        {
          "internalType": "uint256",
          "name": "tokenId",
          "type": "uint256"
        }
      ],
      "name": "getBorrowLimitByOracle",
      "outputs": [
        {
          "internalType": "uint256",
          "name": "",
          "type": "uint256"
        }
      ],
      "stateMutability": "view",
      "type": "function"
    },
    {
      "inputs": [
        {
          "internalType": "uint256",
          "name": "reserveId",
          "type": "uint256"
        }
      ],
      "name": "getReserveData",
      "outputs": [
        {
          "components": [
            {
              "internalType": "uint256",
              "name": "reserveId",
              "type": "uint256"
            },
            {
              "internalType": "address",
              "name": "underlyingAsset",
              "type": "address"
            },
            {
              "internalType": "address",
              "name": "oTokenAddress",
              "type": "address"
            },
            {
              "internalType": "address",
              "name": "moneyMarketAddress",
              "type": "address"
            },
            {
              "internalType": "uint128",
              "name": "lastSupplyIndex",
              "type": "uint128"
            },
            {
              "internalType": "uint256",
              "name": "borrowingInterestPerSecond",
              "type": "uint256"
            },
            {
              "internalType": "uint256",
              "name": "lastMoneyMarketBalance",
              "type": "uint256"
            },
            {
              "internalType": "uint40",
              "name": "lastUpdateTimestamp",
              "type": "uint40"
            },
            {
              "internalType": "uint256",
              "name": "totalBorrows",
              "type": "uint256"
            },
            {
              "internalType": "address",
              "name": "interestModelAddress",
              "type": "address"
            },
            {
              "internalType": "uint256",
              "name": "treasuryFactor",
              "type": "uint256"
            },
            {
              "internalType": "bool",
              "name": "isMoneyMarketOn",
              "type": "bool"
            }
          ],
          "internalType": "struct DataTypes.ReserveData",
          "name": "",
          "type": "tuple"
        }
      ],
      "stateMutability": "view",
      "type": "function"
    },
    {
      "inputs": [
        {
          "internalType": "uint256",
          "name": "reserveId",
          "type": "uint256"
        }
      ],
      "name": "getReserveNormalizedIncome",
      "outputs": [
        {
          "internalType": "uint256",
          "name": "",
          "type": "uint256"
        }
      ],
      "stateMutability": "view",
      "type": "function"
    },
    {
      "inputs": [
        {
          "internalType": "uint256",
          "name": "reserveId",
          "type": "uint256"
        }
      ],
      "name": "getTVL",
      "outputs": [
        {
          "internalType": "uint256",
          "name": "",
          "type": "uint256"
        }
      ],
      "stateMutability": "view",
      "type": "function"
    },
    {
      "inputs": [
        {
          "internalType": "uint256",
          "name": "reserveId",
          "type": "uint256"
        }
      ],
      "name": "getTotalBorrowBalance",
      "outputs": [
        {
          "internalType": "uint256",
          "name": "",
          "type": "uint256"
        }
      ],
      "stateMutability": "view",
      "type": "function"
    },
    {
      "inputs": [
        {
          "internalType": "uint256",
          "name": "reserveId",
          "type": "uint256"
        }
      ],
      "name": "openMoneyMarket",
      "outputs": [],
      "stateMutability": "nonpayable",
      "type": "function"
    },
    {
      "inputs": [],
      "name": "pause",
      "outputs": [],
      "stateMutability": "nonpayable",
      "type": "function"
    },
    {
      "inputs": [],
      "name": "paused",
      "outputs": [
        {
          "internalType": "bool",
          "name": "",
          "type": "bool"
        }
      ],
      "stateMutability": "view",
      "type": "function"
    },
    {
      "inputs": [
        {
          "internalType": "uint256",
          "name": "loanId",
          "type": "uint256"
        }
      ],
      "name": "repay",
      "outputs": [
        {
          "internalType": "uint256",
          "name": "repayAmount",
          "type": "uint256"
        }
      ],
      "stateMutability": "nonpayable",
      "type": "function"
    },
    {
      "inputs": [
        {
          "internalType": "uint256",
          "name": "",
          "type": "uint256"
        }
      ],
      "name": "reserves",
      "outputs": [
        {
          "internalType": "uint256",
          "name": "reserveId",
          "type": "uint256"
        },
        {
          "internalType": "address",
          "name": "underlyingAsset",
          "type": "address"
        },
        {
          "internalType": "address",
          "name": "oTokenAddress",
          "type": "address"
        },
        {
          "internalType": "address",
          "name": "moneyMarketAddress",
          "type": "address"
        },
        {
          "internalType": "uint128",
          "name": "lastSupplyIndex",
          "type": "uint128"
        },
        {
          "internalType": "uint256",
          "name": "borrowingInterestPerSecond",
          "type": "uint256"
        },
        {
          "internalType": "uint256",
          "name": "lastMoneyMarketBalance",
          "type": "uint256"
        },
        {
          "internalType": "uint40",
          "name": "lastUpdateTimestamp",
          "type": "uint40"
        },
        {
          "internalType": "uint256",
          "name": "totalBorrows",
          "type": "uint256"
        },
        {
          "internalType": "address",
          "name": "interestModelAddress",
          "type": "address"
        },
        {
          "internalType": "uint256",
          "name": "treasuryFactor",
          "type": "uint256"
        },
        {
          "internalType": "bool",
          "name": "isMoneyMarketOn",
          "type": "bool"
        }
      ],
      "stateMutability": "view",
      "type": "function"
    },
    {
      "inputs": [
        {
          "internalType": "uint256",
          "name": "reserveId",
          "type": "uint256"
        },
        {
          "internalType": "address",
          "name": "interestModelAddress",
          "type": "address"
        }
      ],
      "name": "setInterestModelAddress",
      "outputs": [],
      "stateMutability": "nonpayable",
      "type": "function"
    },
    {
      "inputs": [
        {
          "internalType": "uint256",
          "name": "reserveId",
          "type": "uint256"
        },
        {
          "internalType": "uint256",
          "name": "factor",
          "type": "uint256"
        }
      ],
      "name": "setTreasuryFactor",
      "outputs": [],
      "stateMutability": "nonpayable",
      "type": "function"
    },
    {
      "inputs": [
        {
          "internalType": "uint256",
          "name": "loanId",
          "type": "uint256"
        }
      ],
      "name": "startLiquidation",
      "outputs": [],
      "stateMutability": "nonpayable",
      "type": "function"
    },
    {
      "inputs": [],
      "name": "unpause",
      "outputs": [],
      "stateMutability": "nonpayable",
      "type": "function"
    },
    {
      "inputs": [
        {
          "internalType": "uint256",
          "name": "reserveId",
          "type": "uint256"
        },
        {
          "internalType": "uint256",
          "name": "amount",
          "type": "uint256"
        },
        {
          "internalType": "address",
          "name": "onBehalfOf",
          "type": "address"
        }
      ],
      "name": "withdraw",
      "outputs": [],
      "stateMutability": "nonpayable",
      "type": "function"
    },
    {
      "stateMutability": "payable",
      "type": "receive"
    }
  ],
  "transactionHash": "0x9fa1e9c2c6636d93513c15e5a68c7bd3f08015c9683e457c127c7b6d9874e4ba",
  "args": [
    "0x72A780B33915D6D229E7b31A729AE42963A57c73"
  ],
  "solcInputHash": "0ca3f66e9bd5de21ebb7765f6cea382a",
  "bytecode": "0x60a06040523480156200001157600080fd5b50604051620055ef380380620055ef833981016040819052620000349162000054565b6000805460ff19169055600180556001600160a01b031660805262000086565b6000602082840312156200006757600080fd5b81516001600160a01b03811681146200007f57600080fd5b9392505050565b60805161549762000158600039600081816104d501528181610b5601528181610f9701528181611116015281816112b10152818161133501528181611c7801528181611d4501528181612090015281816121fa0152818161226f01528181612512015281816125df0152818161293801528181612b6001528181612d030152818161318a015281816132c1015281816133cb0152818161351f0152818161364901528181613717015281816137a701528181613b1b01528181613ea3015281816143b0015261447f01526154976000f3fe60806040526004361061014f5760003560e01c8063980a8bd9116100b6578063e78f09491161006f578063e78f09491461054f578063ea3b86351461056f578063ecbfd4b61461058f578063ee4cc84c146105af578063f277f90b146105cf578063f668a9c5146105ef5761018e565b8063980a8bd914610463578063a28a533614610483578063a7b6eb5a146104a3578063ade97ab5146104c3578063d10193cf1461050f578063dcc5cded1461052f5761018e565b806367113ef61161010857806367113ef61461028c57806376999aeb146102c15780638334278d146102e15780638456cb59146104015780638b14f10c1461041657806391541e05146104365761018e565b80630aad628b146101bf5780630ad58d2f146101f25780632235ae0f14610214578063371fd8e6146102345780633f4ba83a146102545780635c975abb146102695761018e565b3661018e57604080518082018252600381526231313160e81b6020820152905162461bcd60e51b81526101859190600401614955565b60405180910390fd5b604080518082018252600381526218989960e91b6020820152905162461bcd60e51b81526101859190600401614955565b3480156101cb57600080fd5b506101df6101da366004614968565b61060f565b6040519081526020015b60405180910390f35b3480156101fe57600080fd5b5061021261020d366004614996565b610727565b005b34801561022057600080fd5b506101df61022f366004614968565b6109d4565b34801561024057600080fd5b506101df61024f366004614968565b610b03565b34801561026057600080fd5b50610212611112565b34801561027557600080fd5b5060005460ff1660405190151581526020016101e9565b34801561029857600080fd5b506102ac6102a73660046149cf565b611256565b604080519283526020830191909152016101e9565b3480156102cd57600080fd5b506102126102dc366004614a10565b611c4b565b3480156102ed57600080fd5b506103826102fc366004614968565b600260208190526000918252604090912080546001820154928201546003830154600484015460058501546006860154600787015460088801546009890154600a8a0154600b909a0154989a6001600160a01b039081169a98811699978116986001600160801b03909716979596949564ffffffffff9094169492939116919060ff168c565b604080519c8d526001600160a01b039b8c1660208e0152998b16998c019990995296891660608b01526001600160801b0390951660808a015260a089019390935260c088019190915264ffffffffff1660e0870152610100860152929092166101208401526101408301919091521515610160820152610180016101e9565b34801561040d57600080fd5b5061021261208c565b34801561042257600080fd5b506101df610431366004614a32565b6121cd565b34801561044257600080fd5b50610456610451366004614968565b612377565b6040516101e99190614b44565b34801561046f57600080fd5b5061021261047e366004614968565b6124e5565b34801561048f57600080fd5b5061021261049e366004614968565b6128e6565b3480156104af57600080fd5b506102126104be366004614b53565b612b0e565b3480156104cf57600080fd5b506104f77f000000000000000000000000000000000000000000000000000000000000000081565b6040516001600160a01b0390911681526020016101e9565b34801561051b57600080fd5b5061021261052a366004614b53565b612cff565b34801561053b57600080fd5b506101df61054a366004614968565b612eac565b34801561055b57600080fd5b5061021261056a366004614b83565b612f7f565b34801561057b57600080fd5b5061021261058a366004614a10565b613138565b34801561059b57600080fd5b506102126105aa366004614cd5565b6133c7565b3480156105bb57600080fd5b506101df6105ca366004614968565b61398f565b3480156105db57600080fd5b506102126105ea366004614968565b613ac9565b3480156105fb57600080fd5b506101df61060a366004614d59565b613ce9565b600081815260026020526040812054829015156040518060400160405280600381526020016203330360ec1b8152509061065c5760405162461bcd60e51b81526004016101859190614955565b506000838152600260208181526040928390208351610180810185528154815260018201546001600160a01b03908116938201939093529281015482169383019390935260038301548116606083015260048301546001600160801b03166080830152600583015460a0830152600683015460c0830152600783015464ffffffffff1660e08301526008830154610100830152600983015416610120820152600a820154610140820152600b9091015460ff1615156101608201526107209061424f565b9392505050565b60005460ff161561074a5760405162461bcd60e51b815260040161018590614db7565b6002600154141561076d5760405162461bcd60e51b815260040161018590614de1565b60026001558261078b81600090815260026020526040902054151590565b6040518060400160405280600381526020016203330360ec1b815250906107c55760405162461bcd60e51b81526004016101859190614955565b506000848152600260208190526040822001546001600160a01b031690816370a08231336040516001600160e01b031960e084901b1681526001600160a01b039091166004820152602401602060405180830381865afa15801561082d573d6000803e3d6000fd5b505050506040513d601f19601f820116820180604052508101906108519190614e18565b9050846000198114156108615750805b6000811180156108715750818111155b6040518060400160405280600381526020016233323160e81b815250906108ab5760405162461bcd60e51b81526004016101859190614955565b50806108b68861060f565b10156040518060400160405280600381526020016219991960e91b815250906108f25760405162461bcd60e51b81526004016101859190614955565b50600087815260026020526040808220815163395e905560e01b81526004810191909152336024820152604481018490526001600160a01b0388166064820152905173B3ae5d02644CBb53937fa3dff85C1e26bf5753EF9263395e90559260848082019391829003018186803b15801561096b57600080fd5b505af415801561097f573d6000803e3d6000fd5b50505050846001600160a01b0316877f9da6493a92039daf47d1f2d7a782299c5994c6323eb1e972f69c432089ec52bf836040516109bf91815260200190565b60405180910390a35050600180555050505050565b60008181526002602081815260408084208151610180810183528154815260018201546001600160a01b0390811694820194909452938101548316848301526003810154831660608501526004808201546001600160801b03166080860152600582015460a0860152600682015460c0860152600782015464ffffffffff1660e086015260088201546101008601526009820154909316610120850152600a810154610140850152600b015460ff1615156101608401525163328eb49160e01b815273B3ae5d02644CBb53937fa3dff85C1e26bf5753EF9263328eb49192610abc9201614b44565b602060405180830381865af4158015610ad9573d6000803e3d6000fd5b505050506040513d601f19601f82011682018060405250810190610afd9190614e18565b92915050565b6000805460ff1615610b275760405162461bcd60e51b815260040161018590614db7565b60026001541415610b4a5760405162461bcd60e51b815260040161018590614de1565b600260018190555060007f00000000000000000000000000000000000000000000000000000000000000006001600160a01b03166335bc868a6040518163ffffffff1660e01b8152600401602060405180830381865afa158015610bb2573d6000803e3d6000fd5b505050506040513d601f19601f82011682018060405250810190610bd69190614e3c565b6040516331a9108f60e11b8152600481018590529091506000906001600160a01b03831690636352211e90602401602060405180830381865afa158015610c21573d6000803e3d6000fd5b505050506040513d601f19601f82011682018060405250810190610c459190614e3c565b60405163622fe39f60e01b81526004810186905290915082906000906001600160a01b0383169063622fe39f906024016101c060405180830381865afa158015610c93573d6000803e3d6000fd5b505050506040513d601f19601f82011682018060405250810190610cb79190614f90565b90506001816101a001516005811115610cd257610cd2614fad565b1480610cf457506002816101a001516005811115610cf257610cf2614fad565b145b80610d1557506003816101a001516005811115610d1357610d13614fad565b145b6040518060400160405280600381526020016233333360e81b81525090610d4f5760405162461bcd60e51b81526004016101859190614955565b50604051634b72cb4160e11b8152600481018790526000906001600160a01b038416906396e5968290602401602060405180830381865afa158015610d98573d6000803e3d6000fd5b505050506040513d601f19601f82011682018060405250810190610dbc9190614e18565b604051636b52b36560e01b8152600481018990529091506000906001600160a01b03851690636b52b36590602401602060405180830381865afa158015610e07573d6000803e3d6000fd5b505050506040513d601f19601f82011682018060405250810190610e2b9190614e18565b9050610e378282614fd9565b83516000818152600260205260409020549198509015156040518060400160405280600381526020016203330360ec1b81525090610e885760405162461bcd60e51b81526004016101859190614955565b506000818152600260205260409081902090516395705c5f60e01b815273B3ae5d02644CBb53937fa3dff85C1e26bf5753EF916395705c5f91610ed4919088908d90889060040161510f565b60006040518083038186803b158015610eec57600080fd5b505af4158015610f00573d6000803e3d6000fd5b50505050846001600160a01b031663563086128a88610f1c3390565b6040516001600160e01b031960e086901b16815260048101939093526001600160a01b039182166024840152166044820152606401600060405180830381600087803b158015610f6b57600080fd5b505af1158015610f7f573d6000803e3d6000fd5b505050506000610f8c3390565b6001600160a01b03167f00000000000000000000000000000000000000000000000000000000000000006001600160a01b0316635fee67086040518163ffffffff1660e01b8152600401602060405180830381865afa158015610ff3573d6000803e3d6000fd5b505050506040513d601f19601f820116820180604052508101906110179190614e3c565b6001600160a01b03161461102b578661102d565b335b60208601516040808801519051632142170760e11b81526001600160a01b038a811660048301528085166024830152604482019290925292935016906342842e0e90606401600060405180830381600087803b15801561108c57600080fd5b505af11580156110a0573d6000803e3d6000fd5b5050505089816001600160a01b0316837fb26072383248d9c24b411a4bbd7216134067da189b28216744569be98bfe9b7f6110d83390565b604080516001600160a01b039092168252602082018f9052810189905260600160405180910390a450506001805550949695505050505050565b60007f00000000000000000000000000000000000000000000000000000000000000006001600160a01b0316639a9dbb996040518163ffffffff1660e01b8152600401602060405180830381865afa158015611172573d6000803e3d6000fd5b505050506040513d601f19601f820116820180604052508101906111969190614e3c565b90506001600160a01b038116632500f2b6336040516001600160e01b031960e084901b1681526001600160a01b039091166004820152602401602060405180830381865afa1580156111ec573d6000803e3d6000fd5b505050506040513d601f19601f820116820180604052508101906112109190615148565b6040518060400160405280600381526020016232303160e81b8152509061124a5760405162461bcd60e51b81526004016101859190614955565b506112536142f7565b50565b60008061126560005460ff1690565b156112825760405162461bcd60e51b815260040161018590614db7565b600260015414156112a55760405162461bcd60e51b815260040161018590614de1565b600260018190555060007f00000000000000000000000000000000000000000000000000000000000000006001600160a01b03166335bc868a6040518163ffffffff1660e01b8152600401602060405180830381865afa15801561130d573d6000803e3d6000fd5b505050506040513d601f19601f820116820180604052508101906113319190614e3c565b90507f00000000000000000000000000000000000000000000000000000000000000006001600160a01b031663d633590a6040518163ffffffff1660e01b8152600401602060405180830381865afa158015611391573d6000803e3d6000fd5b505050506040513d601f19601f820116820180604052508101906113b59190614e3c565b6001600160a01b0316336001600160a01b03161415611486576040516331a9108f60e11b8152600481018890526001600160a01b038086169190831690636352211e90602401602060405180830381865afa158015611418573d6000803e3d6000fd5b505050506040513d601f19601f8201168201806040525081019061143c9190614e3c565b6001600160a01b031614604051806040016040528060038152602001620d0c0d60ea1b815250906114805760405162461bcd60e51b81526004016101859190614955565b5061153d565b336040516331a9108f60e11b8152600481018990526001600160a01b0391821691831690636352211e90602401602060405180830381865afa1580156114d0573d6000803e3d6000fd5b505050506040513d601f19601f820116820180604052508101906114f49190614e3c565b6001600160a01b031614604051806040016040528060038152602001620d0c0d60ea1b815250906115385760405162461bcd60e51b81526004016101859190614955565b503393505b611545614834565b60405163622fe39f60e01b8152600481018990526001600160a01b0383169063622fe39f906024016101c060405180830381865afa15801561158b573d6000803e3d6000fd5b505050506040513d601f19601f820116820180604052508101906115af9190614f90565b61012082018190526101a0015160029060058111156115d0576115d0614fad565b14806115f7575060038161012001516101a0015160058111156115f5576115f5614fad565b145b6040518060400160405280600381526020016233333560e81b815250906116315760405162461bcd60e51b81526004016101859190614955565b50610120810151805160209091015161164b91908861438a565b6101208101518051602082015160409092015161166892906121cd565b60a082015260e081018790526000198714156116895760a081015160e08201525b8060e001518160a0015110156040518060400160405280600381526020016233333160e81b815250906116cf5760405162461bcd60e51b81526004016101859190614955565b50604051631c18749560e01b8152600481018990526001600160a01b03831690631c18749590602401602060405180830381865afa158015611715573d6000803e3d6000fd5b505050506040513d601f19601f820116820180604052508101906117399190614e18565b8152604051634b72cb4160e11b8152600481018990526001600160a01b038316906396e5968290602401602060405180830381865afa158015611780573d6000803e3d6000fd5b505050506040513d601f19601f820116820180604052508101906117a49190614e18565b6060820181905281516117b79190614fd9565b8160800181815250508060e001518161012001516080015111611832576000816101200151608001518260e001516117ef9190615163565b905081608001518110156118175780826080015161180d9190615163565b602083015261182c565b60808201516118269082615163565b60408301525b50611860565b80608001518160e00151826101200151608001516118509190615163565b61185a9190614fd9565b60208201525b6040810151156118c2576101208101515161187a9061060f565b60c082018190526040808301518151808301909252600382526233303160e81b6020830152909110156118c05760405162461bcd60e51b81526004016101859190614955565b505b604051632b18430960e11b8152600481018990526001600160a01b03868116602483018190526044830152831690635630861290606401600060405180830381600087803b15801561191357600080fd5b505af1158015611927573d6000803e3d6000fd5b50505061012080830180515160009081526002602081815260408084208151610180810183528154815260018201546001600160a01b0390811694820194909452938101548316918401919091526003810154821660608085019190915260048201546001600160801b0316608080860191909152600583015460a0860152600683015460c0860152600783015464ffffffffff1660e0808701919091526008840154610100870152600984015490941697850197909752600a820154610140850152600b9091015460ff16151561016084015287015190870151875194519095015173B3ae5d02644CBb53937fa3dff85C1e26bf5753EF965063dfdafca395929491939291611a3691614fd9565b6040518663ffffffff1660e01b8152600401611a5695949392919061517a565b602060405180830381865af4158015611a73573d6000803e3d6000fd5b505050506040513d601f19601f82011682018060405250810190611a979190614e18565b81610100018181525050600080836001600160a01b03166370b4ebeb846101200151600001518986610120015160200151876101200151604001518860e001518e8a61010001516040518863ffffffff1660e01b8152600401611b0097969594939291906151af565b6101e0604051808303816000875af1158015611b20573d6000803e3d6000fd5b505050506040513d601f19601f82011682018060405250810190611b4491906151eb565b61012085018051516000908152600260209081526040918290209251885191890151838a015160608b015194516303eed27160e21b815297995095975073B3ae5d02644CBb53937fa3dff85C1e26bf5753EF96630fbb49c496611bb1969593948a94909392600401615219565b60006040518083038186803b158015611bc957600080fd5b505af4158015611bdd573d6000803e3d6000fd5b50505061012084015151604080518d8152602081018690526001600160a01b038b1693507fbbd12926def8e41e5f1c7a10d219e405292d14f53bfdba19eebab2e3faa6c74a910160405180910390a35050602081015160409091015160018055909890975095505050505050565b60005460ff1615611c6e5760405162461bcd60e51b815260040161018590614db7565b6001600160a01b037f00000000000000000000000000000000000000000000000000000000000000001663529a356f336040516001600160e01b031960e084901b1681526001600160a01b039091166004820152602401602060405180830381865afa158015611ce2573d6000803e3d6000fd5b505050506040513d601f19601f82011682018060405250810190611d069190615148565b6040518060400160405280600381526020016232303360e81b81525090611d405760405162461bcd60e51b81526004016101859190614955565b5060007f00000000000000000000000000000000000000000000000000000000000000006001600160a01b03166335bc868a6040518163ffffffff1660e01b8152600401602060405180830381865afa158015611da1573d6000803e3d6000fd5b505050506040513d601f19601f82011682018060405250810190611dc59190614e3c565b60405163622fe39f60e01b8152600481018590529091506000906001600160a01b0383169063622fe39f906024016101c060405180830381865afa158015611e11573d6000803e3d6000fd5b505050506040513d601f19601f82011682018060405250810190611e359190614f90565b90506005816101a001516005811115611e5057611e50614fad565b146040518060400160405280600381526020016233363160e81b81525090611e8b5760405162461bcd60e51b81526004016101859190614955565b50604051636b52b36560e01b8152600481018590526000906001600160a01b03841690636b52b36590602401602060405180830381865afa158015611ed4573d6000803e3d6000fd5b505050506040513d601f19601f82011682018060405250810190611ef89190614e18565b90508084101560405180604001604052806003815260200162199b1960e91b81525090611f385760405162461bcd60e51b81526004016101859190614955565b5081516000908152600260205260409081902090516339c5132760e11b81526004810191909152602481018590526044810182905273B3ae5d02644CBb53937fa3dff85C1e26bf5753EF9063738a264e9060640160006040518083038186803b158015611fa457600080fd5b505af4158015611fb8573d6000803e3d6000fd5b505060405163ed213bbf60e01b8152600481018890526001600160a01b038616925063ed213bbf9150602401600060405180830381600087803b158015611ffe57600080fd5b505af1158015612012573d6000803e3d6000fd5b5050505081602001516001600160a01b03168583600001517fcde0dc431e6f088cbd9c8b1768aff225467e33d4ac1d3356494ef79600a8680585604001516120573390565b604080519283526001600160a01b03909116602083015281018990526060810186905260800160405180910390a45050505050565b60007f00000000000000000000000000000000000000000000000000000000000000006001600160a01b0316639a9dbb996040518163ffffffff1660e01b8152600401602060405180830381865afa1580156120ec573d6000803e3d6000fd5b505050506040513d601f19601f820116820180604052508101906121109190614e3c565b90506001600160a01b038116632500f2b6336040516001600160e01b031960e084901b1681526001600160a01b039091166004820152602401602060405180830381865afa158015612166573d6000803e3d6000fd5b505050506040513d601f19601f8201168201806040525081019061218a9190615148565b6040518060400160405280600381526020016232303160e81b815250906121c45760405162461bcd60e51b81526004016101859190614955565b5061125361454b565b604051639dce429960e01b8152600481018490526001600160a01b03838116602483015260009161236f917f00000000000000000000000000000000000000000000000000000000000000001690639dce429990604401600060405180830381865afa158015612241573d6000803e3d6000fd5b505050506040513d6000823e601f3d908101601f1916820160405261226991908101906152a9565b606001517f00000000000000000000000000000000000000000000000000000000000000006001600160a01b031663970f4c3a6040518163ffffffff1660e01b8152600401602060405180830381865afa1580156122cb573d6000803e3d6000fd5b505050506040513d601f19601f820116820180604052508101906122ef9190614e3c565b6040516350d16d9f60e01b8152600481018890526001600160a01b0387811660248301526044820187905291909116906350d16d9f90606401602060405180830381865afa158015612345573d6000803e3d6000fd5b505050506040513d601f19601f820116820180604052508101906123699190614e18565b906145a3565b949350505050565b6040805161018081018252600080825260208201819052918101829052606081018290526080810182905260a0810182905260c0810182905260e08101829052610100810182905261012081018290526101408101829052610160810191909152600082815260026020526040902054829015156040518060400160405280600381526020016203330360ec1b815250906124255760405162461bcd60e51b81526004016101859190614955565b5050506000908152600260208181526040928390208351610180810185528154815260018201546001600160a01b03908116938201939093529281015482169383019390935260038301548116606083015260048301546001600160801b03166080830152600583015460a0830152600683015460c0830152600783015464ffffffffff1660e08301526008830154610100830152600983015416610120820152600a820154610140820152600b9091015460ff16151561016082015290565b60005460ff16156125085760405162461bcd60e51b815260040161018590614db7565b6001600160a01b037f00000000000000000000000000000000000000000000000000000000000000001663529a356f336040516001600160e01b031960e084901b1681526001600160a01b039091166004820152602401602060405180830381865afa15801561257c573d6000803e3d6000fd5b505050506040513d601f19601f820116820180604052508101906125a09190615148565b6040518060400160405280600381526020016232303360e81b815250906125da5760405162461bcd60e51b81526004016101859190614955565b5060007f00000000000000000000000000000000000000000000000000000000000000006001600160a01b03166335bc868a6040518163ffffffff1660e01b8152600401602060405180830381865afa15801561263b573d6000803e3d6000fd5b505050506040513d601f19601f8201168201806040525081019061265f9190614e3c565b60405163622fe39f60e01b8152600481018490529091506000906001600160a01b0383169063622fe39f906024016101c060405180830381865afa1580156126ab573d6000803e3d6000fd5b505050506040513d601f19601f820116820180604052508101906126cf9190614f90565b90506004816101a0015160058111156126ea576126ea614fad565b146040518060400160405280600381526020016203336360ec1b815250906127255760405162461bcd60e51b81526004016101859190614955565b508051600090815260026020526040908190209051632a1ed55f60e11b815273B3ae5d02644CBb53937fa3dff85C1e26bf5753EF9163543daabe9161276f91908590600401615381565b60006040518083038186803b15801561278757600080fd5b505af415801561279b573d6000803e3d6000fd5b5050505080602001516001600160a01b03166342842e0e836127ba3390565b60408086015190516001600160e01b031960e086901b1681526001600160a01b0393841660048201529290911660248301526044820152606401600060405180830381600087803b15801561280e57600080fd5b505af1158015612822573d6000803e3d6000fd5b505060405163980a8bd960e01b8152600481018690526001600160a01b038516925063980a8bd99150602401600060405180830381600087803b15801561286857600080fd5b505af115801561287c573d6000803e3d6000fd5b5050505080602001516001600160a01b03168382600001517f338bea6971e9221d0ae5f105c79da18c6614a11556e217e0aaa361424fe654d284604001516128c13390565b604080519283526001600160a01b0390911660208301520160405180910390a4505050565b600081815260026020526040902054819015156040518060400160405280600381526020016203330360ec1b815250906129335760405162461bcd60e51b81526004016101859190614955565b5060007f00000000000000000000000000000000000000000000000000000000000000006001600160a01b0316639a9dbb996040518163ffffffff1660e01b8152600401602060405180830381865afa158015612994573d6000803e3d6000fd5b505050506040513d601f19601f820116820180604052508101906129b89190614e3c565b90506001600160a01b038116632500f2b6336040516001600160e01b031960e084901b1681526001600160a01b039091166004820152602401602060405180830381865afa158015612a0e573d6000803e3d6000fd5b505050506040513d601f19601f82011682018060405250810190612a329190615148565b6040518060400160405280600381526020016232303160e81b81525090612a6c5760405162461bcd60e51b81526004016101859190614955565b50600083815260026020908152604091829020600b01548251808401909352600383526233303360e81b9183019190915260ff16612abd5760405162461bcd60e51b81526004016101859190614955565b506000838152600260205260409020612ad59061464b565b6040518381527ffa52d8cf59b61f2698ee5e988b488cc589a524be112b15acf937dab59bf36120906020015b60405180910390a1505050565b600082815260026020526040902054829015156040518060400160405280600381526020016203330360ec1b81525090612b5b5760405162461bcd60e51b81526004016101859190614955565b5060007f00000000000000000000000000000000000000000000000000000000000000006001600160a01b0316639a9dbb996040518163ffffffff1660e01b8152600401602060405180830381865afa158015612bbc573d6000803e3d6000fd5b505050506040513d601f19601f82011682018060405250810190612be09190614e3c565b90506001600160a01b038116637be53ca1336040516001600160e01b031960e084901b1681526001600160a01b039091166004820152602401602060405180830381865afa158015612c36573d6000803e3d6000fd5b505050506040513d601f19601f82011682018060405250810190612c5a9190615148565b6040518060400160405280600381526020016219181960e91b81525090612c945760405162461bcd60e51b81526004016101859190614955565b5060008481526002602090815260409182902060090180546001600160a01b0319166001600160a01b038716908117909155915191825285917f2a510455968cb9bf56ecbeeab12f13ed51a86ebdb3cdcec2f502f78c9f2a454191015b60405180910390a250505050565b60007f00000000000000000000000000000000000000000000000000000000000000006001600160a01b0316639a9dbb996040518163ffffffff1660e01b8152600401602060405180830381865afa158015612d5f573d6000803e3d6000fd5b505050506040513d601f19601f82011682018060405250810190612d839190614e3c565b90506001600160a01b038116637be53ca1336040516001600160e01b031960e084901b1681526001600160a01b039091166004820152602401602060405180830381865afa158015612dd9573d6000803e3d6000fd5b505050506040513d601f19601f82011682018060405250810190612dfd9190615148565b6040518060400160405280600381526020016219181960e91b81525090612e375760405162461bcd60e51b81526004016101859190614955565b5060008381526002602081905260409182902001549051634c20618560e11b81526001600160a01b03848116600483015290911690639840c30a90602401600060405180830381600087803b158015612e8f57600080fd5b505af1158015612ea3573d6000803e3d6000fd5b50505050505050565b600081815260026020526040812054829015156040518060400160405280600381526020016203330360ec1b81525090612ef95760405162461bcd60e51b81526004016101859190614955565b5060008381526002602052604090819020905163564f0dfb60e01b8152600481019190915273B3ae5d02644CBb53937fa3dff85C1e26bf5753EF9063564f0dfb906024015b602060405180830381865af4158015612f5b573d6000803e3d6000fd5b505050506040513d601f19601f820116820180604052508101906107209190614e18565b60005460ff1615612fa25760405162461bcd60e51b815260040161018590614db7565b60026001541415612fc55760405162461bcd60e51b815260040161018590614de1565b600260015583612fe381600090815260026020526040902054151590565b6040518060400160405280600381526020016203330360ec1b8152509061301d5760405162461bcd60e51b81526004016101859190614955565b5060408051808201909152600381526203332360ec1b6020820152846130565760405162461bcd60e51b81526004016101859190614955565b50600085815260026020526040808220815163fe981a4f60e01b81526004810191909152336024820152604481018790526001600160a01b0386166064820152905173B3ae5d02644CBb53937fa3dff85C1e26bf5753EF9263fe981a4f9260848082019391829003018186803b1580156130cf57600080fd5b505af41580156130e3573d6000803e3d6000fd5b505060408051878152602081018690526001600160a01b03871693508892507fd36a2f67d06d285786f61a32b052b9ace6b0b7abef5177b54358abdc83a0b69b910160405180910390a3505060018055505050565b600082815260026020526040902054829015156040518060400160405280600381526020016203330360ec1b815250906131855760405162461bcd60e51b81526004016101859190614955565b5060007f00000000000000000000000000000000000000000000000000000000000000006001600160a01b0316639a9dbb996040518163ffffffff1660e01b8152600401602060405180830381865afa1580156131e6573d6000803e3d6000fd5b505050506040513d601f19601f8201168201806040525081019061320a9190614e3c565b90506001600160a01b038116637be53ca1336040516001600160e01b031960e084901b1681526001600160a01b039091166004820152602401602060405180830381865afa158015613260573d6000803e3d6000fd5b505050506040513d601f19601f820116820180604052508101906132849190615148565b6040518060400160405280600381526020016219181960e91b815250906132be5760405162461bcd60e51b81526004016101859190614955565b507f00000000000000000000000000000000000000000000000000000000000000006001600160a01b031663d23a65cf6040518163ffffffff1660e01b8152600401602060405180830381865afa15801561331d573d6000803e3d6000fd5b505050506040513d601f19601f820116820180604052508101906133419190614e18565b831115604051806040016040528060038152602001620ccc0d60ea1b8152509061337e5760405162461bcd60e51b81526004016101859190614955565b5060008481526002602052604090819020600a018490555184907fa42eaeef2868aa910fcded03fb023a51209c7304b595991cb71ff2968b26608790612cf19086815260200190565b60007f00000000000000000000000000000000000000000000000000000000000000006001600160a01b0316639a9dbb996040518163ffffffff1660e01b8152600401602060405180830381865afa158015613427573d6000803e3d6000fd5b505050506040513d601f19601f8201168201806040525081019061344b9190614e3c565b90506001600160a01b038116637be53ca1336040516001600160e01b031960e084901b1681526001600160a01b039091166004820152602401602060405180830381865afa1580156134a1573d6000803e3d6000fd5b505050506040513d601f19601f820116820180604052508101906134c59190615148565b6040518060400160405280600381526020016219181960e91b815250906134ff5760405162461bcd60e51b81526004016101859190614955565b5061350e600380546001019055565b600061351960035490565b905060007f00000000000000000000000000000000000000000000000000000000000000006001600160a01b031663420897916040518163ffffffff1660e01b8152600401602060405180830381865afa15801561357b573d6000803e3d6000fd5b505050506040513d601f19601f8201168201806040525081019061359f9190614e3c565b6001600160a01b031663904ec6e5838888888c6040518663ffffffff1660e01b81526004016135d2959493929190615396565b6020604051808303816000875af11580156135f1573d6000803e3d6000fd5b505050506040513d601f19601f820116820180604052508101906136159190614e3c565b9050604051806101800160405280838152602001886001600160a01b03168152602001826001600160a01b031681526020017f00000000000000000000000000000000000000000000000000000000000000006001600160a01b031663efe3e3e36040518163ffffffff1660e01b8152600401602060405180830381865afa1580156136a5573d6000803e3d6000fd5b505050506040513d601f19601f820116820180604052508101906136c99190614e3c565b6001600160a01b031681526020016b033b2e3c9fd0803ce80000006001600160801b031681526020016000815260200160008152602001600064ffffffffff168152602001600081526020017f00000000000000000000000000000000000000000000000000000000000000006001600160a01b03166390839e3f6040518163ffffffff1660e01b8152600401602060405180830381865afa158015613773573d6000803e3d6000fd5b505050506040513d601f19601f820116820180604052508101906137979190614e3c565b6001600160a01b031681526020017f00000000000000000000000000000000000000000000000000000000000000006001600160a01b0316634322b7146040518163ffffffff1660e01b8152600401602060405180830381865afa158015613803573d6000803e3d6000fd5b505050506040513d601f19601f820116820180604052508101906138279190614e18565b81526001602091820181905260008581526002808452604091829020855181559385015192840180546001600160a01b03199081166001600160a01b03958616179091558583015191850180548216928516929092179091556060850151600385018054831691851691909117905560808501516004850180546fffffffffffffffffffffffffffffffff19166001600160801b0390921691909117905560a0850151600585015560c0850151600685015560e085015160078501805464ffffffffff191664ffffffffff9092169190911790556101008501516008850155610120850151600985018054909216908416179055610140840151600a84015561016090930151600b909201805460ff19169215159290921790915590518282169189169084907fa974e5e75ec9215fd423fc8e00fbfed574e4e36bfa650d4c54ffc9b12224d1059061397e908b908b908b906153e7565b60405180910390a450505050505050565b600081815260026020526040812054829015156040518060400160405280600381526020016203330360ec1b815250906139dc5760405162461bcd60e51b81526004016101859190614955565b506000838152600260208181526040928390208351610180810185528154815260018201546001600160a01b0390811693820193909352928101548216838501526003810154821660608401526004808201546001600160801b03166080850152600582015460a0850152600682015460c0850152600782015464ffffffffff1660e085015260088201546101008501526009820154909216610120840152600a810154610140840152600b015460ff161515610160830152915163640d9a7760e11b815273B3ae5d02644CBb53937fa3dff85C1e26bf5753EF9263c81b34ee92612f3e92909101614b44565b600081815260026020526040902054819015156040518060400160405280600381526020016203330360ec1b81525090613b165760405162461bcd60e51b81526004016101859190614955565b5060007f00000000000000000000000000000000000000000000000000000000000000006001600160a01b0316639a9dbb996040518163ffffffff1660e01b8152600401602060405180830381865afa158015613b77573d6000803e3d6000fd5b505050506040513d601f19601f82011682018060405250810190613b9b9190614e3c565b90506001600160a01b038116632500f2b6336040516001600160e01b031960e084901b1681526001600160a01b039091166004820152602401602060405180830381865afa158015613bf1573d6000803e3d6000fd5b505050506040513d601f19601f82011682018060405250810190613c159190615148565b6040518060400160405280600381526020016232303160e81b81525090613c4f5760405162461bcd60e51b81526004016101859190614955565b50600083815260026020908152604091829020600b01548251808401909352600383526233303360e81b9183019190915260ff1615613ca15760405162461bcd60e51b81526004016101859190614955565b506000838152600260205260409020613cb990614746565b6040518381527f7d112c7767bf19c038f01732f5928c582a8f0de6fce5f2b0c70e9e4a91d3d39c90602001612b01565b6000805460ff1615613d0d5760405162461bcd60e51b815260040161018590614db7565b60026001541415613d305760405162461bcd60e51b815260040161018590614de1565b600260015586613d4e81600090815260026020526040902054151590565b6040518060400160405280600381526020016203330360ec1b81525090613d885760405162461bcd60e51b81526004016101859190614955565b50613d9488868861438a565b613dcf6040518060a001604052806000815260200160008152602001600081526020016000815260200160006001600160a01b031681525090565b613dda8987876121cd565b8152613de58961060f565b602082015260408101889052600019881415613e1a576020810151815110613e11578060200151613e14565b80515b60408201525b60408082015182518251808401909352600383526233333160e81b60208401521015613e595760405162461bcd60e51b81526004016101859190614955565b508060400151816020015110156040518060400160405280600381526020016233303160e81b81525090613ea05760405162461bcd60e51b81526004016101859190614955565b507f00000000000000000000000000000000000000000000000000000000000000006001600160a01b03166335bc868a6040518163ffffffff1660e01b8152600401602060405180830381865afa158015613eff573d6000803e3d6000fd5b505050506040513d601f19601f82011682018060405250810190613f239190614e3c565b6001600160a01b03908116608083015286166342842e0e3360808401516040516001600160e01b031960e085901b1681526001600160a01b0392831660048201529116602482015260448101889052606401600060405180830381600087803b158015613f8f57600080fd5b505af1158015613fa3573d6000803e3d6000fd5b50505060008a81526002602081815260408084208151610180810183528154815260018201546001600160a01b0390811694820194909452938101548316848301526003810154831660608501526004808201546001600160801b03166080860152600582015460a0860152600682015460c0860152600782015464ffffffffff1660e086015260088201546101008601526009820154909316610120850152600a810154610140850152600b015460ff16151561016084015285810151905163dfdafca360e01b815273B3ae5d02644CBb53937fa3dff85C1e26bf5753EF955063dfdafca39461409d949390928392909183910161517a565b602060405180830381865af41580156140ba573d6000803e3d6000fd5b505050506040513d601f19601f820116820180604052508101906140de9190614e18565b81606001818152505060008082608001516001600160a01b03166370b4ebeb8c888b8b88604001518f8a606001516040518863ffffffff1660e01b815260040161412e97969594939291906151af565b6101e0604051808303816000875af115801561414e573d6000803e3d6000fd5b505050506040513d601f19601f8201168201806040525081019061417291906151eb565b60008d81526002602052604090819020905163030b159d60e31b815292945090925073B3ae5d02644CBb53937fa3dff85C1e26bf5753EF91631858ace8916141be918590600401615381565b60006040518083038186803b1580156141d657600080fd5b505af41580156141ea573d6000803e3d6000fd5b5050505081866001600160a01b03168c7ff9a33434428db5f0416c03e38307599ad0b9b9965d6c070eb08e87cc1f0ca50e6142223390565b6040516001600160a01b03909116815260200160405180910390a450600180559998505050505050505050565b6000816101600151156142ba5760608201516020830151604080850151905163d4fac45d60e01b81526001600160a01b039283166004820152908216602482015291169063d4fac45d906044015b602060405180830381865afa158015610ad9573d6000803e3d6000fd5b602082015160408084015190516370a0823160e01b81526001600160a01b0391821660048201529116906370a082319060240161429d565b919050565b60005460ff166143405760405162461bcd60e51b815260206004820152601460248201527314185d5cd8589b194e881b9bdd081c185d5cd95960621b6044820152606401610185565b6000805460ff191690557f5db9ee0a495bf2e6ff9c91a7834c1ba4fdd244a5e8aa4e537bd38aeae4b073aa335b6040516001600160a01b03909116815260200160405180910390a1565b6040516346296c6960e01b8152600481018490526001600160a01b0383811660248301527f000000000000000000000000000000000000000000000000000000000000000016906346296c6990604401602060405180830381865afa1580156143f7573d6000803e3d6000fd5b505050506040513d601f19601f8201168201806040525081019061441b9190615148565b6040518060400160405280600381526020016219999960e91b815250906144555760405162461bcd60e51b81526004016101859190614955565b50604051639dce429960e01b8152600481018490526001600160a01b0383811660248301526000917f000000000000000000000000000000000000000000000000000000000000000090911690639dce429990604401600060405180830381865afa1580156144c8573d6000803e3d6000fd5b505050506040513d6000823e601f3d908101601f191682016040526144f091908101906152a9565b90508060800151821015801561450a57508060a001518211155b6040518060400160405280600381526020016203333360ec1b815250906145445760405162461bcd60e51b81526004016101859190614955565b5050505050565b60005460ff161561456e5760405162461bcd60e51b815260040161018590614db7565b6000805460ff191660011790557f62e78cea01bee320cd4e420270b5ea74000d11b0c9f74754ebdbfc544b05a25861436d3390565b60008215806145b0575081155b156145bd57506000610afd565b816145cb6002612710615420565b6145d790600019615163565b6145e19190615420565b8311156040518060400160405280600381526020016203130360ec1b8152509061461e5760405162461bcd60e51b81526004016101859190614955565b5061271061462d600282615420565b6146378486615442565b6146419190614fd9565b6107209190615420565b60028101546003820154600183015460405163d4fac45d60e01b81526001600160a01b0391821660048201529281166024840181905292600092919091169063d4fac45d90604401602060405180830381865afa1580156146b0573d6000803e3d6000fd5b505050506040513d601f19601f820116820180604052508101906146d49190614e18565b604051627b8a6760e11b8152600481018290526001600160a01b0384166024820181905291925062f714ce90604401600060405180830381600087803b15801561471d57600080fd5b505af1158015614731573d6000803e3d6000fd5b505050600b909301805460ff19169055505050565b600b8101805460ff1916600190811790915581015460028201546040516370a0823160e01b81526001600160a01b03918216600482015260009291909116906370a0823190602401602060405180830381865afa1580156147ab573d6000803e3d6000fd5b505050506040513d601f19601f820116820180604052508101906147cf9190614e18565b600283015460405163b6b55f2560e01b8152600481018390529192506001600160a01b03169063b6b55f2590602401600060405180830381600087803b15801561481857600080fd5b505af115801561482c573d6000803e3d6000fd5b505050505050565b6040518061014001604052806000815260200160008152602001600081526020016000815260200160008152602001600081526020016000815260200160008152602001600081526020016148f4604080516101c081018252600080825260208201819052918101829052606081018290526080810182905260a0810182905260c0810182905260e0810182905261010081018290526101208101829052610140810182905261016081018290526101808101829052906101a082015290565b905290565b60005b838110156149145781810151838201526020016148fc565b83811115614923576000848401525b50505050565b600081518084526149418160208601602086016148f9565b601f01601f19169290920160200192915050565b6020815260006107206020830184614929565b60006020828403121561497a57600080fd5b5035919050565b6001600160a01b038116811461125357600080fd5b6000806000606084860312156149ab57600080fd5b833592506020840135915060408401356149c481614981565b809150509250925092565b600080600080608085870312156149e557600080fd5b8435935060208501359250604085013591506060850135614a0581614981565b939692955090935050565b60008060408385031215614a2357600080fd5b50508035926020909101359150565b600080600060608486031215614a4757600080fd5b833592506020840135614a5981614981565b929592945050506040919091013590565b805182526020810151614a8860208401826001600160a01b03169052565b506040810151614aa360408401826001600160a01b03169052565b506060810151614abe60608401826001600160a01b03169052565b506080810151614ad960808401826001600160801b03169052565b5060a081015160a083015260c081015160c083015260e0810151614b0660e084018264ffffffffff169052565b506101008181015190830152610120808201516001600160a01b03169083015261014080820151908301526101608082015180151582850152614923565b6101808101610afd8284614a6a565b60008060408385031215614b6657600080fd5b823591506020830135614b7881614981565b809150509250929050565b60008060008060808587031215614b9957600080fd5b84359350602085013592506040850135614bb281614981565b9396929550929360600135925050565b634e487b7160e01b600052604160045260246000fd5b6040516101c0810167ffffffffffffffff81118282101715614bfc57614bfc614bc2565b60405290565b604051610100810167ffffffffffffffff81118282101715614bfc57614bfc614bc2565b604051601f8201601f1916810167ffffffffffffffff81118282101715614c4f57614c4f614bc2565b604052919050565b600067ffffffffffffffff821115614c7157614c71614bc2565b50601f01601f191660200190565b600082601f830112614c9057600080fd5b8135614ca3614c9e82614c57565b614c26565b818152846020838601011115614cb857600080fd5b816020850160208301376000918101602001919091529392505050565b60008060008060808587031215614ceb57600080fd5b8435614cf681614981565b9350602085013567ffffffffffffffff80821115614d1357600080fd5b614d1f88838901614c7f565b94506040870135915080821115614d3557600080fd5b50614d4287828801614c7f565b925050606085013560ff81168114614a0557600080fd5b60008060008060008060c08789031215614d7257600080fd5b8635955060208701359450604087013593506060870135614d9281614981565b92506080870135915060a0870135614da981614981565b809150509295509295509295565b60208082526010908201526f14185d5cd8589b194e881c185d5cd95960821b604082015260600190565b6020808252601f908201527f5265656e7472616e637947756172643a207265656e7472616e742063616c6c00604082015260600190565b600060208284031215614e2a57600080fd5b5051919050565b80516142f281614981565b600060208284031215614e4e57600080fd5b815161072081614981565b80516001600160801b03811681146142f257600080fd5b805164ffffffffff811681146142f257600080fd5b8051600681106142f257600080fd5b60006101c08284031215614ea757600080fd5b614eaf614bd8565b905081518152614ec160208301614e31565b602082015260408201516040820152614edc60608301614e31565b606082015260808201516080820152614ef760a08301614e59565b60a0820152614f0860c08301614e59565b60c0820152614f1960e08301614e70565b60e0820152610100614f2c818401614e70565b90820152610120614f3e838201614e70565b90820152610140614f50838201614e70565b90820152610160614f62838201614e70565b90820152610180614f74838201614e70565b908201526101a0614f86838201614e85565b9082015292915050565b60006101c08284031215614fa357600080fd5b6107208383614e94565b634e487b7160e01b600052602160045260246000fd5b634e487b7160e01b600052601160045260246000fd5b60008219821115614fec57614fec614fc3565b500190565b6006811061500f57634e487b7160e01b600052602160045260246000fd5b9052565b80518252602081015161503160208401826001600160a01b03169052565b5060408101516040830152606081015161505660608401826001600160a01b03169052565b506080810151608083015260a081015161507b60a08401826001600160801b03169052565b5060c081015161509660c08401826001600160801b03169052565b5060e08101516150af60e084018264ffffffffff169052565b506101008181015164ffffffffff9081169184019190915261012080830151821690840152610140808301518216908401526101608083015182169084015261018080830151909116908301526101a08082015161492382850182614ff1565b84815261022081016151246020830186615013565b6101e0820193909352610200015292915050565b805180151581146142f257600080fd5b60006020828403121561515a57600080fd5b61072082615138565b60008282101561517557615175614fc3565b500390565b61020081016151898288614a6a565b85610180830152846101a0830152836101c0830152826101e08301529695505050505050565b9687526001600160a01b0395861660208801529390941660408601526060850191909152608084015260a083019190915260c082015260e00190565b6000806101e083850312156151ff57600080fd5b825191506152108460208501614e94565b90509250929050565b878152610420810161522e6020830189615013565b61523c6101e0830188615013565b856103a0830152846103c0830152836103e08301528261040083015298975050505050505050565b600082601f83011261527557600080fd5b8151615283614c9e82614c57565b81815284602083860101111561529857600080fd5b61236f8260208301602087016148f9565b6000602082840312156152bb57600080fd5b815167ffffffffffffffff808211156152d357600080fd5b9083019061010082860312156152e857600080fd5b6152f0614c02565b6152f983615138565b815260208301518281111561530d57600080fd5b61531987828601615264565b60208301525060408301518281111561533157600080fd5b61533d87828601615264565b604083015250606083015160608201526080830151608082015260a083015160a082015260c083015160c082015260e083015160e082015280935050505092915050565b8281526101e081016107206020830184615013565b85815260a0602082015260006153af60a0830187614929565b82810360408401526153c18187614929565b60ff95909516606084015250506001600160a01b03919091166080909101529392505050565b6060815260006153fa6060830186614929565b828103602084015261540c8186614929565b91505060ff83166040830152949350505050565b60008261543d57634e487b7160e01b600052601260045260246000fd5b500490565b600081600019048311821515161561545c5761545c614fc3565b50029056fea2646970667358221220c6a083080d4efbc0c6f67b2d585219a638d1d7260f6ead4863610743dadbb98464736f6c634300080a0033",
  "deployedBytecode": "0x60806040526004361061014f5760003560e01c8063980a8bd9116100b6578063e78f09491161006f578063e78f09491461054f578063ea3b86351461056f578063ecbfd4b61461058f578063ee4cc84c146105af578063f277f90b146105cf578063f668a9c5146105ef5761018e565b8063980a8bd914610463578063a28a533614610483578063a7b6eb5a146104a3578063ade97ab5146104c3578063d10193cf1461050f578063dcc5cded1461052f5761018e565b806367113ef61161010857806367113ef61461028c57806376999aeb146102c15780638334278d146102e15780638456cb59146104015780638b14f10c1461041657806391541e05146104365761018e565b80630aad628b146101bf5780630ad58d2f146101f25780632235ae0f14610214578063371fd8e6146102345780633f4ba83a146102545780635c975abb146102695761018e565b3661018e57604080518082018252600381526231313160e81b6020820152905162461bcd60e51b81526101859190600401614955565b60405180910390fd5b604080518082018252600381526218989960e91b6020820152905162461bcd60e51b81526101859190600401614955565b3480156101cb57600080fd5b506101df6101da366004614968565b61060f565b6040519081526020015b60405180910390f35b3480156101fe57600080fd5b5061021261020d366004614996565b610727565b005b34801561022057600080fd5b506101df61022f366004614968565b6109d4565b34801561024057600080fd5b506101df61024f366004614968565b610b03565b34801561026057600080fd5b50610212611112565b34801561027557600080fd5b5060005460ff1660405190151581526020016101e9565b34801561029857600080fd5b506102ac6102a73660046149cf565b611256565b604080519283526020830191909152016101e9565b3480156102cd57600080fd5b506102126102dc366004614a10565b611c4b565b3480156102ed57600080fd5b506103826102fc366004614968565b600260208190526000918252604090912080546001820154928201546003830154600484015460058501546006860154600787015460088801546009890154600a8a0154600b909a0154989a6001600160a01b039081169a98811699978116986001600160801b03909716979596949564ffffffffff9094169492939116919060ff168c565b604080519c8d526001600160a01b039b8c1660208e0152998b16998c019990995296891660608b01526001600160801b0390951660808a015260a089019390935260c088019190915264ffffffffff1660e0870152610100860152929092166101208401526101408301919091521515610160820152610180016101e9565b34801561040d57600080fd5b5061021261208c565b34801561042257600080fd5b506101df610431366004614a32565b6121cd565b34801561044257600080fd5b50610456610451366004614968565b612377565b6040516101e99190614b44565b34801561046f57600080fd5b5061021261047e366004614968565b6124e5565b34801561048f57600080fd5b5061021261049e366004614968565b6128e6565b3480156104af57600080fd5b506102126104be366004614b53565b612b0e565b3480156104cf57600080fd5b506104f77f000000000000000000000000000000000000000000000000000000000000000081565b6040516001600160a01b0390911681526020016101e9565b34801561051b57600080fd5b5061021261052a366004614b53565b612cff565b34801561053b57600080fd5b506101df61054a366004614968565b612eac565b34801561055b57600080fd5b5061021261056a366004614b83565b612f7f565b34801561057b57600080fd5b5061021261058a366004614a10565b613138565b34801561059b57600080fd5b506102126105aa366004614cd5565b6133c7565b3480156105bb57600080fd5b506101df6105ca366004614968565b61398f565b3480156105db57600080fd5b506102126105ea366004614968565b613ac9565b3480156105fb57600080fd5b506101df61060a366004614d59565b613ce9565b600081815260026020526040812054829015156040518060400160405280600381526020016203330360ec1b8152509061065c5760405162461bcd60e51b81526004016101859190614955565b506000838152600260208181526040928390208351610180810185528154815260018201546001600160a01b03908116938201939093529281015482169383019390935260038301548116606083015260048301546001600160801b03166080830152600583015460a0830152600683015460c0830152600783015464ffffffffff1660e08301526008830154610100830152600983015416610120820152600a820154610140820152600b9091015460ff1615156101608201526107209061424f565b9392505050565b60005460ff161561074a5760405162461bcd60e51b815260040161018590614db7565b6002600154141561076d5760405162461bcd60e51b815260040161018590614de1565b60026001558261078b81600090815260026020526040902054151590565b6040518060400160405280600381526020016203330360ec1b815250906107c55760405162461bcd60e51b81526004016101859190614955565b506000848152600260208190526040822001546001600160a01b031690816370a08231336040516001600160e01b031960e084901b1681526001600160a01b039091166004820152602401602060405180830381865afa15801561082d573d6000803e3d6000fd5b505050506040513d601f19601f820116820180604052508101906108519190614e18565b9050846000198114156108615750805b6000811180156108715750818111155b6040518060400160405280600381526020016233323160e81b815250906108ab5760405162461bcd60e51b81526004016101859190614955565b50806108b68861060f565b10156040518060400160405280600381526020016219991960e91b815250906108f25760405162461bcd60e51b81526004016101859190614955565b50600087815260026020526040808220815163395e905560e01b81526004810191909152336024820152604481018490526001600160a01b0388166064820152905173__$5e6137a1b5a0a366e2874209b5abf71c10$__9263395e90559260848082019391829003018186803b15801561096b57600080fd5b505af415801561097f573d6000803e3d6000fd5b50505050846001600160a01b0316877f9da6493a92039daf47d1f2d7a782299c5994c6323eb1e972f69c432089ec52bf836040516109bf91815260200190565b60405180910390a35050600180555050505050565b60008181526002602081815260408084208151610180810183528154815260018201546001600160a01b0390811694820194909452938101548316848301526003810154831660608501526004808201546001600160801b03166080860152600582015460a0860152600682015460c0860152600782015464ffffffffff1660e086015260088201546101008601526009820154909316610120850152600a810154610140850152600b015460ff1615156101608401525163328eb49160e01b815273__$5e6137a1b5a0a366e2874209b5abf71c10$__9263328eb49192610abc9201614b44565b602060405180830381865af4158015610ad9573d6000803e3d6000fd5b505050506040513d601f19601f82011682018060405250810190610afd9190614e18565b92915050565b6000805460ff1615610b275760405162461bcd60e51b815260040161018590614db7565b60026001541415610b4a5760405162461bcd60e51b815260040161018590614de1565b600260018190555060007f00000000000000000000000000000000000000000000000000000000000000006001600160a01b03166335bc868a6040518163ffffffff1660e01b8152600401602060405180830381865afa158015610bb2573d6000803e3d6000fd5b505050506040513d601f19601f82011682018060405250810190610bd69190614e3c565b6040516331a9108f60e11b8152600481018590529091506000906001600160a01b03831690636352211e90602401602060405180830381865afa158015610c21573d6000803e3d6000fd5b505050506040513d601f19601f82011682018060405250810190610c459190614e3c565b60405163622fe39f60e01b81526004810186905290915082906000906001600160a01b0383169063622fe39f906024016101c060405180830381865afa158015610c93573d6000803e3d6000fd5b505050506040513d601f19601f82011682018060405250810190610cb79190614f90565b90506001816101a001516005811115610cd257610cd2614fad565b1480610cf457506002816101a001516005811115610cf257610cf2614fad565b145b80610d1557506003816101a001516005811115610d1357610d13614fad565b145b6040518060400160405280600381526020016233333360e81b81525090610d4f5760405162461bcd60e51b81526004016101859190614955565b50604051634b72cb4160e11b8152600481018790526000906001600160a01b038416906396e5968290602401602060405180830381865afa158015610d98573d6000803e3d6000fd5b505050506040513d601f19601f82011682018060405250810190610dbc9190614e18565b604051636b52b36560e01b8152600481018990529091506000906001600160a01b03851690636b52b36590602401602060405180830381865afa158015610e07573d6000803e3d6000fd5b505050506040513d601f19601f82011682018060405250810190610e2b9190614e18565b9050610e378282614fd9565b83516000818152600260205260409020549198509015156040518060400160405280600381526020016203330360ec1b81525090610e885760405162461bcd60e51b81526004016101859190614955565b506000818152600260205260409081902090516395705c5f60e01b815273__$5e6137a1b5a0a366e2874209b5abf71c10$__916395705c5f91610ed4919088908d90889060040161510f565b60006040518083038186803b158015610eec57600080fd5b505af4158015610f00573d6000803e3d6000fd5b50505050846001600160a01b031663563086128a88610f1c3390565b6040516001600160e01b031960e086901b16815260048101939093526001600160a01b039182166024840152166044820152606401600060405180830381600087803b158015610f6b57600080fd5b505af1158015610f7f573d6000803e3d6000fd5b505050506000610f8c3390565b6001600160a01b03167f00000000000000000000000000000000000000000000000000000000000000006001600160a01b0316635fee67086040518163ffffffff1660e01b8152600401602060405180830381865afa158015610ff3573d6000803e3d6000fd5b505050506040513d601f19601f820116820180604052508101906110179190614e3c565b6001600160a01b03161461102b578661102d565b335b60208601516040808801519051632142170760e11b81526001600160a01b038a811660048301528085166024830152604482019290925292935016906342842e0e90606401600060405180830381600087803b15801561108c57600080fd5b505af11580156110a0573d6000803e3d6000fd5b5050505089816001600160a01b0316837fb26072383248d9c24b411a4bbd7216134067da189b28216744569be98bfe9b7f6110d83390565b604080516001600160a01b039092168252602082018f9052810189905260600160405180910390a450506001805550949695505050505050565b60007f00000000000000000000000000000000000000000000000000000000000000006001600160a01b0316639a9dbb996040518163ffffffff1660e01b8152600401602060405180830381865afa158015611172573d6000803e3d6000fd5b505050506040513d601f19601f820116820180604052508101906111969190614e3c565b90506001600160a01b038116632500f2b6336040516001600160e01b031960e084901b1681526001600160a01b039091166004820152602401602060405180830381865afa1580156111ec573d6000803e3d6000fd5b505050506040513d601f19601f820116820180604052508101906112109190615148565b6040518060400160405280600381526020016232303160e81b8152509061124a5760405162461bcd60e51b81526004016101859190614955565b506112536142f7565b50565b60008061126560005460ff1690565b156112825760405162461bcd60e51b815260040161018590614db7565b600260015414156112a55760405162461bcd60e51b815260040161018590614de1565b600260018190555060007f00000000000000000000000000000000000000000000000000000000000000006001600160a01b03166335bc868a6040518163ffffffff1660e01b8152600401602060405180830381865afa15801561130d573d6000803e3d6000fd5b505050506040513d601f19601f820116820180604052508101906113319190614e3c565b90507f00000000000000000000000000000000000000000000000000000000000000006001600160a01b031663d633590a6040518163ffffffff1660e01b8152600401602060405180830381865afa158015611391573d6000803e3d6000fd5b505050506040513d601f19601f820116820180604052508101906113b59190614e3c565b6001600160a01b0316336001600160a01b03161415611486576040516331a9108f60e11b8152600481018890526001600160a01b038086169190831690636352211e90602401602060405180830381865afa158015611418573d6000803e3d6000fd5b505050506040513d601f19601f8201168201806040525081019061143c9190614e3c565b6001600160a01b031614604051806040016040528060038152602001620d0c0d60ea1b815250906114805760405162461bcd60e51b81526004016101859190614955565b5061153d565b336040516331a9108f60e11b8152600481018990526001600160a01b0391821691831690636352211e90602401602060405180830381865afa1580156114d0573d6000803e3d6000fd5b505050506040513d601f19601f820116820180604052508101906114f49190614e3c565b6001600160a01b031614604051806040016040528060038152602001620d0c0d60ea1b815250906115385760405162461bcd60e51b81526004016101859190614955565b503393505b611545614834565b60405163622fe39f60e01b8152600481018990526001600160a01b0383169063622fe39f906024016101c060405180830381865afa15801561158b573d6000803e3d6000fd5b505050506040513d601f19601f820116820180604052508101906115af9190614f90565b61012082018190526101a0015160029060058111156115d0576115d0614fad565b14806115f7575060038161012001516101a0015160058111156115f5576115f5614fad565b145b6040518060400160405280600381526020016233333560e81b815250906116315760405162461bcd60e51b81526004016101859190614955565b50610120810151805160209091015161164b91908861438a565b6101208101518051602082015160409092015161166892906121cd565b60a082015260e081018790526000198714156116895760a081015160e08201525b8060e001518160a0015110156040518060400160405280600381526020016233333160e81b815250906116cf5760405162461bcd60e51b81526004016101859190614955565b50604051631c18749560e01b8152600481018990526001600160a01b03831690631c18749590602401602060405180830381865afa158015611715573d6000803e3d6000fd5b505050506040513d601f19601f820116820180604052508101906117399190614e18565b8152604051634b72cb4160e11b8152600481018990526001600160a01b038316906396e5968290602401602060405180830381865afa158015611780573d6000803e3d6000fd5b505050506040513d601f19601f820116820180604052508101906117a49190614e18565b6060820181905281516117b79190614fd9565b8160800181815250508060e001518161012001516080015111611832576000816101200151608001518260e001516117ef9190615163565b905081608001518110156118175780826080015161180d9190615163565b602083015261182c565b60808201516118269082615163565b60408301525b50611860565b80608001518160e00151826101200151608001516118509190615163565b61185a9190614fd9565b60208201525b6040810151156118c2576101208101515161187a9061060f565b60c082018190526040808301518151808301909252600382526233303160e81b6020830152909110156118c05760405162461bcd60e51b81526004016101859190614955565b505b604051632b18430960e11b8152600481018990526001600160a01b03868116602483018190526044830152831690635630861290606401600060405180830381600087803b15801561191357600080fd5b505af1158015611927573d6000803e3d6000fd5b50505061012080830180515160009081526002602081815260408084208151610180810183528154815260018201546001600160a01b0390811694820194909452938101548316918401919091526003810154821660608085019190915260048201546001600160801b0316608080860191909152600583015460a0860152600683015460c0860152600783015464ffffffffff1660e0808701919091526008840154610100870152600984015490941697850197909752600a820154610140850152600b9091015460ff16151561016084015287015190870151875194519095015173__$5e6137a1b5a0a366e2874209b5abf71c10$__965063dfdafca395929491939291611a3691614fd9565b6040518663ffffffff1660e01b8152600401611a5695949392919061517a565b602060405180830381865af4158015611a73573d6000803e3d6000fd5b505050506040513d601f19601f82011682018060405250810190611a979190614e18565b81610100018181525050600080836001600160a01b03166370b4ebeb846101200151600001518986610120015160200151876101200151604001518860e001518e8a61010001516040518863ffffffff1660e01b8152600401611b0097969594939291906151af565b6101e0604051808303816000875af1158015611b20573d6000803e3d6000fd5b505050506040513d601f19601f82011682018060405250810190611b4491906151eb565b61012085018051516000908152600260209081526040918290209251885191890151838a015160608b015194516303eed27160e21b815297995095975073__$5e6137a1b5a0a366e2874209b5abf71c10$__96630fbb49c496611bb1969593948a94909392600401615219565b60006040518083038186803b158015611bc957600080fd5b505af4158015611bdd573d6000803e3d6000fd5b50505061012084015151604080518d8152602081018690526001600160a01b038b1693507fbbd12926def8e41e5f1c7a10d219e405292d14f53bfdba19eebab2e3faa6c74a910160405180910390a35050602081015160409091015160018055909890975095505050505050565b60005460ff1615611c6e5760405162461bcd60e51b815260040161018590614db7565b6001600160a01b037f00000000000000000000000000000000000000000000000000000000000000001663529a356f336040516001600160e01b031960e084901b1681526001600160a01b039091166004820152602401602060405180830381865afa158015611ce2573d6000803e3d6000fd5b505050506040513d601f19601f82011682018060405250810190611d069190615148565b6040518060400160405280600381526020016232303360e81b81525090611d405760405162461bcd60e51b81526004016101859190614955565b5060007f00000000000000000000000000000000000000000000000000000000000000006001600160a01b03166335bc868a6040518163ffffffff1660e01b8152600401602060405180830381865afa158015611da1573d6000803e3d6000fd5b505050506040513d601f19601f82011682018060405250810190611dc59190614e3c565b60405163622fe39f60e01b8152600481018590529091506000906001600160a01b0383169063622fe39f906024016101c060405180830381865afa158015611e11573d6000803e3d6000fd5b505050506040513d601f19601f82011682018060405250810190611e359190614f90565b90506005816101a001516005811115611e5057611e50614fad565b146040518060400160405280600381526020016233363160e81b81525090611e8b5760405162461bcd60e51b81526004016101859190614955565b50604051636b52b36560e01b8152600481018590526000906001600160a01b03841690636b52b36590602401602060405180830381865afa158015611ed4573d6000803e3d6000fd5b505050506040513d601f19601f82011682018060405250810190611ef89190614e18565b90508084101560405180604001604052806003815260200162199b1960e91b81525090611f385760405162461bcd60e51b81526004016101859190614955565b5081516000908152600260205260409081902090516339c5132760e11b81526004810191909152602481018590526044810182905273__$5e6137a1b5a0a366e2874209b5abf71c10$__9063738a264e9060640160006040518083038186803b158015611fa457600080fd5b505af4158015611fb8573d6000803e3d6000fd5b505060405163ed213bbf60e01b8152600481018890526001600160a01b038616925063ed213bbf9150602401600060405180830381600087803b158015611ffe57600080fd5b505af1158015612012573d6000803e3d6000fd5b5050505081602001516001600160a01b03168583600001517fcde0dc431e6f088cbd9c8b1768aff225467e33d4ac1d3356494ef79600a8680585604001516120573390565b604080519283526001600160a01b03909116602083015281018990526060810186905260800160405180910390a45050505050565b60007f00000000000000000000000000000000000000000000000000000000000000006001600160a01b0316639a9dbb996040518163ffffffff1660e01b8152600401602060405180830381865afa1580156120ec573d6000803e3d6000fd5b505050506040513d601f19601f820116820180604052508101906121109190614e3c565b90506001600160a01b038116632500f2b6336040516001600160e01b031960e084901b1681526001600160a01b039091166004820152602401602060405180830381865afa158015612166573d6000803e3d6000fd5b505050506040513d601f19601f8201168201806040525081019061218a9190615148565b6040518060400160405280600381526020016232303160e81b815250906121c45760405162461bcd60e51b81526004016101859190614955565b5061125361454b565b604051639dce429960e01b8152600481018490526001600160a01b03838116602483015260009161236f917f00000000000000000000000000000000000000000000000000000000000000001690639dce429990604401600060405180830381865afa158015612241573d6000803e3d6000fd5b505050506040513d6000823e601f3d908101601f1916820160405261226991908101906152a9565b606001517f00000000000000000000000000000000000000000000000000000000000000006001600160a01b031663970f4c3a6040518163ffffffff1660e01b8152600401602060405180830381865afa1580156122cb573d6000803e3d6000fd5b505050506040513d601f19601f820116820180604052508101906122ef9190614e3c565b6040516350d16d9f60e01b8152600481018890526001600160a01b0387811660248301526044820187905291909116906350d16d9f90606401602060405180830381865afa158015612345573d6000803e3d6000fd5b505050506040513d601f19601f820116820180604052508101906123699190614e18565b906145a3565b949350505050565b6040805161018081018252600080825260208201819052918101829052606081018290526080810182905260a0810182905260c0810182905260e08101829052610100810182905261012081018290526101408101829052610160810191909152600082815260026020526040902054829015156040518060400160405280600381526020016203330360ec1b815250906124255760405162461bcd60e51b81526004016101859190614955565b5050506000908152600260208181526040928390208351610180810185528154815260018201546001600160a01b03908116938201939093529281015482169383019390935260038301548116606083015260048301546001600160801b03166080830152600583015460a0830152600683015460c0830152600783015464ffffffffff1660e08301526008830154610100830152600983015416610120820152600a820154610140820152600b9091015460ff16151561016082015290565b60005460ff16156125085760405162461bcd60e51b815260040161018590614db7565b6001600160a01b037f00000000000000000000000000000000000000000000000000000000000000001663529a356f336040516001600160e01b031960e084901b1681526001600160a01b039091166004820152602401602060405180830381865afa15801561257c573d6000803e3d6000fd5b505050506040513d601f19601f820116820180604052508101906125a09190615148565b6040518060400160405280600381526020016232303360e81b815250906125da5760405162461bcd60e51b81526004016101859190614955565b5060007f00000000000000000000000000000000000000000000000000000000000000006001600160a01b03166335bc868a6040518163ffffffff1660e01b8152600401602060405180830381865afa15801561263b573d6000803e3d6000fd5b505050506040513d601f19601f8201168201806040525081019061265f9190614e3c565b60405163622fe39f60e01b8152600481018490529091506000906001600160a01b0383169063622fe39f906024016101c060405180830381865afa1580156126ab573d6000803e3d6000fd5b505050506040513d601f19601f820116820180604052508101906126cf9190614f90565b90506004816101a0015160058111156126ea576126ea614fad565b146040518060400160405280600381526020016203336360ec1b815250906127255760405162461bcd60e51b81526004016101859190614955565b508051600090815260026020526040908190209051632a1ed55f60e11b815273__$5e6137a1b5a0a366e2874209b5abf71c10$__9163543daabe9161276f91908590600401615381565b60006040518083038186803b15801561278757600080fd5b505af415801561279b573d6000803e3d6000fd5b5050505080602001516001600160a01b03166342842e0e836127ba3390565b60408086015190516001600160e01b031960e086901b1681526001600160a01b0393841660048201529290911660248301526044820152606401600060405180830381600087803b15801561280e57600080fd5b505af1158015612822573d6000803e3d6000fd5b505060405163980a8bd960e01b8152600481018690526001600160a01b038516925063980a8bd99150602401600060405180830381600087803b15801561286857600080fd5b505af115801561287c573d6000803e3d6000fd5b5050505080602001516001600160a01b03168382600001517f338bea6971e9221d0ae5f105c79da18c6614a11556e217e0aaa361424fe654d284604001516128c13390565b604080519283526001600160a01b0390911660208301520160405180910390a4505050565b600081815260026020526040902054819015156040518060400160405280600381526020016203330360ec1b815250906129335760405162461bcd60e51b81526004016101859190614955565b5060007f00000000000000000000000000000000000000000000000000000000000000006001600160a01b0316639a9dbb996040518163ffffffff1660e01b8152600401602060405180830381865afa158015612994573d6000803e3d6000fd5b505050506040513d601f19601f820116820180604052508101906129b89190614e3c565b90506001600160a01b038116632500f2b6336040516001600160e01b031960e084901b1681526001600160a01b039091166004820152602401602060405180830381865afa158015612a0e573d6000803e3d6000fd5b505050506040513d601f19601f82011682018060405250810190612a329190615148565b6040518060400160405280600381526020016232303160e81b81525090612a6c5760405162461bcd60e51b81526004016101859190614955565b50600083815260026020908152604091829020600b01548251808401909352600383526233303360e81b9183019190915260ff16612abd5760405162461bcd60e51b81526004016101859190614955565b506000838152600260205260409020612ad59061464b565b6040518381527ffa52d8cf59b61f2698ee5e988b488cc589a524be112b15acf937dab59bf36120906020015b60405180910390a1505050565b600082815260026020526040902054829015156040518060400160405280600381526020016203330360ec1b81525090612b5b5760405162461bcd60e51b81526004016101859190614955565b5060007f00000000000000000000000000000000000000000000000000000000000000006001600160a01b0316639a9dbb996040518163ffffffff1660e01b8152600401602060405180830381865afa158015612bbc573d6000803e3d6000fd5b505050506040513d601f19601f82011682018060405250810190612be09190614e3c565b90506001600160a01b038116637be53ca1336040516001600160e01b031960e084901b1681526001600160a01b039091166004820152602401602060405180830381865afa158015612c36573d6000803e3d6000fd5b505050506040513d601f19601f82011682018060405250810190612c5a9190615148565b6040518060400160405280600381526020016219181960e91b81525090612c945760405162461bcd60e51b81526004016101859190614955565b5060008481526002602090815260409182902060090180546001600160a01b0319166001600160a01b038716908117909155915191825285917f2a510455968cb9bf56ecbeeab12f13ed51a86ebdb3cdcec2f502f78c9f2a454191015b60405180910390a250505050565b60007f00000000000000000000000000000000000000000000000000000000000000006001600160a01b0316639a9dbb996040518163ffffffff1660e01b8152600401602060405180830381865afa158015612d5f573d6000803e3d6000fd5b505050506040513d601f19601f82011682018060405250810190612d839190614e3c565b90506001600160a01b038116637be53ca1336040516001600160e01b031960e084901b1681526001600160a01b039091166004820152602401602060405180830381865afa158015612dd9573d6000803e3d6000fd5b505050506040513d601f19601f82011682018060405250810190612dfd9190615148565b6040518060400160405280600381526020016219181960e91b81525090612e375760405162461bcd60e51b81526004016101859190614955565b5060008381526002602081905260409182902001549051634c20618560e11b81526001600160a01b03848116600483015290911690639840c30a90602401600060405180830381600087803b158015612e8f57600080fd5b505af1158015612ea3573d6000803e3d6000fd5b50505050505050565b600081815260026020526040812054829015156040518060400160405280600381526020016203330360ec1b81525090612ef95760405162461bcd60e51b81526004016101859190614955565b5060008381526002602052604090819020905163564f0dfb60e01b8152600481019190915273__$5e6137a1b5a0a366e2874209b5abf71c10$__9063564f0dfb906024015b602060405180830381865af4158015612f5b573d6000803e3d6000fd5b505050506040513d601f19601f820116820180604052508101906107209190614e18565b60005460ff1615612fa25760405162461bcd60e51b815260040161018590614db7565b60026001541415612fc55760405162461bcd60e51b815260040161018590614de1565b600260015583612fe381600090815260026020526040902054151590565b6040518060400160405280600381526020016203330360ec1b8152509061301d5760405162461bcd60e51b81526004016101859190614955565b5060408051808201909152600381526203332360ec1b6020820152846130565760405162461bcd60e51b81526004016101859190614955565b50600085815260026020526040808220815163fe981a4f60e01b81526004810191909152336024820152604481018790526001600160a01b0386166064820152905173__$5e6137a1b5a0a366e2874209b5abf71c10$__9263fe981a4f9260848082019391829003018186803b1580156130cf57600080fd5b505af41580156130e3573d6000803e3d6000fd5b505060408051878152602081018690526001600160a01b03871693508892507fd36a2f67d06d285786f61a32b052b9ace6b0b7abef5177b54358abdc83a0b69b910160405180910390a3505060018055505050565b600082815260026020526040902054829015156040518060400160405280600381526020016203330360ec1b815250906131855760405162461bcd60e51b81526004016101859190614955565b5060007f00000000000000000000000000000000000000000000000000000000000000006001600160a01b0316639a9dbb996040518163ffffffff1660e01b8152600401602060405180830381865afa1580156131e6573d6000803e3d6000fd5b505050506040513d601f19601f8201168201806040525081019061320a9190614e3c565b90506001600160a01b038116637be53ca1336040516001600160e01b031960e084901b1681526001600160a01b039091166004820152602401602060405180830381865afa158015613260573d6000803e3d6000fd5b505050506040513d601f19601f820116820180604052508101906132849190615148565b6040518060400160405280600381526020016219181960e91b815250906132be5760405162461bcd60e51b81526004016101859190614955565b507f00000000000000000000000000000000000000000000000000000000000000006001600160a01b031663d23a65cf6040518163ffffffff1660e01b8152600401602060405180830381865afa15801561331d573d6000803e3d6000fd5b505050506040513d601f19601f820116820180604052508101906133419190614e18565b831115604051806040016040528060038152602001620ccc0d60ea1b8152509061337e5760405162461bcd60e51b81526004016101859190614955565b5060008481526002602052604090819020600a018490555184907fa42eaeef2868aa910fcded03fb023a51209c7304b595991cb71ff2968b26608790612cf19086815260200190565b60007f00000000000000000000000000000000000000000000000000000000000000006001600160a01b0316639a9dbb996040518163ffffffff1660e01b8152600401602060405180830381865afa158015613427573d6000803e3d6000fd5b505050506040513d601f19601f8201168201806040525081019061344b9190614e3c565b90506001600160a01b038116637be53ca1336040516001600160e01b031960e084901b1681526001600160a01b039091166004820152602401602060405180830381865afa1580156134a1573d6000803e3d6000fd5b505050506040513d601f19601f820116820180604052508101906134c59190615148565b6040518060400160405280600381526020016219181960e91b815250906134ff5760405162461bcd60e51b81526004016101859190614955565b5061350e600380546001019055565b600061351960035490565b905060007f00000000000000000000000000000000000000000000000000000000000000006001600160a01b031663420897916040518163ffffffff1660e01b8152600401602060405180830381865afa15801561357b573d6000803e3d6000fd5b505050506040513d601f19601f8201168201806040525081019061359f9190614e3c565b6001600160a01b031663904ec6e5838888888c6040518663ffffffff1660e01b81526004016135d2959493929190615396565b6020604051808303816000875af11580156135f1573d6000803e3d6000fd5b505050506040513d601f19601f820116820180604052508101906136159190614e3c565b9050604051806101800160405280838152602001886001600160a01b03168152602001826001600160a01b031681526020017f00000000000000000000000000000000000000000000000000000000000000006001600160a01b031663efe3e3e36040518163ffffffff1660e01b8152600401602060405180830381865afa1580156136a5573d6000803e3d6000fd5b505050506040513d601f19601f820116820180604052508101906136c99190614e3c565b6001600160a01b031681526020016b033b2e3c9fd0803ce80000006001600160801b031681526020016000815260200160008152602001600064ffffffffff168152602001600081526020017f00000000000000000000000000000000000000000000000000000000000000006001600160a01b03166390839e3f6040518163ffffffff1660e01b8152600401602060405180830381865afa158015613773573d6000803e3d6000fd5b505050506040513d601f19601f820116820180604052508101906137979190614e3c565b6001600160a01b031681526020017f00000000000000000000000000000000000000000000000000000000000000006001600160a01b0316634322b7146040518163ffffffff1660e01b8152600401602060405180830381865afa158015613803573d6000803e3d6000fd5b505050506040513d601f19601f820116820180604052508101906138279190614e18565b81526001602091820181905260008581526002808452604091829020855181559385015192840180546001600160a01b03199081166001600160a01b03958616179091558583015191850180548216928516929092179091556060850151600385018054831691851691909117905560808501516004850180546fffffffffffffffffffffffffffffffff19166001600160801b0390921691909117905560a0850151600585015560c0850151600685015560e085015160078501805464ffffffffff191664ffffffffff9092169190911790556101008501516008850155610120850151600985018054909216908416179055610140840151600a84015561016090930151600b909201805460ff19169215159290921790915590518282169189169084907fa974e5e75ec9215fd423fc8e00fbfed574e4e36bfa650d4c54ffc9b12224d1059061397e908b908b908b906153e7565b60405180910390a450505050505050565b600081815260026020526040812054829015156040518060400160405280600381526020016203330360ec1b815250906139dc5760405162461bcd60e51b81526004016101859190614955565b506000838152600260208181526040928390208351610180810185528154815260018201546001600160a01b0390811693820193909352928101548216838501526003810154821660608401526004808201546001600160801b03166080850152600582015460a0850152600682015460c0850152600782015464ffffffffff1660e085015260088201546101008501526009820154909216610120840152600a810154610140840152600b015460ff161515610160830152915163640d9a7760e11b815273__$5e6137a1b5a0a366e2874209b5abf71c10$__9263c81b34ee92612f3e92909101614b44565b600081815260026020526040902054819015156040518060400160405280600381526020016203330360ec1b81525090613b165760405162461bcd60e51b81526004016101859190614955565b5060007f00000000000000000000000000000000000000000000000000000000000000006001600160a01b0316639a9dbb996040518163ffffffff1660e01b8152600401602060405180830381865afa158015613b77573d6000803e3d6000fd5b505050506040513d601f19601f82011682018060405250810190613b9b9190614e3c565b90506001600160a01b038116632500f2b6336040516001600160e01b031960e084901b1681526001600160a01b039091166004820152602401602060405180830381865afa158015613bf1573d6000803e3d6000fd5b505050506040513d601f19601f82011682018060405250810190613c159190615148565b6040518060400160405280600381526020016232303160e81b81525090613c4f5760405162461bcd60e51b81526004016101859190614955565b50600083815260026020908152604091829020600b01548251808401909352600383526233303360e81b9183019190915260ff1615613ca15760405162461bcd60e51b81526004016101859190614955565b506000838152600260205260409020613cb990614746565b6040518381527f7d112c7767bf19c038f01732f5928c582a8f0de6fce5f2b0c70e9e4a91d3d39c90602001612b01565b6000805460ff1615613d0d5760405162461bcd60e51b815260040161018590614db7565b60026001541415613d305760405162461bcd60e51b815260040161018590614de1565b600260015586613d4e81600090815260026020526040902054151590565b6040518060400160405280600381526020016203330360ec1b81525090613d885760405162461bcd60e51b81526004016101859190614955565b50613d9488868861438a565b613dcf6040518060a001604052806000815260200160008152602001600081526020016000815260200160006001600160a01b031681525090565b613dda8987876121cd565b8152613de58961060f565b602082015260408101889052600019881415613e1a576020810151815110613e11578060200151613e14565b80515b60408201525b60408082015182518251808401909352600383526233333160e81b60208401521015613e595760405162461bcd60e51b81526004016101859190614955565b508060400151816020015110156040518060400160405280600381526020016233303160e81b81525090613ea05760405162461bcd60e51b81526004016101859190614955565b507f00000000000000000000000000000000000000000000000000000000000000006001600160a01b03166335bc868a6040518163ffffffff1660e01b8152600401602060405180830381865afa158015613eff573d6000803e3d6000fd5b505050506040513d601f19601f82011682018060405250810190613f239190614e3c565b6001600160a01b03908116608083015286166342842e0e3360808401516040516001600160e01b031960e085901b1681526001600160a01b0392831660048201529116602482015260448101889052606401600060405180830381600087803b158015613f8f57600080fd5b505af1158015613fa3573d6000803e3d6000fd5b50505060008a81526002602081815260408084208151610180810183528154815260018201546001600160a01b0390811694820194909452938101548316848301526003810154831660608501526004808201546001600160801b03166080860152600582015460a0860152600682015460c0860152600782015464ffffffffff1660e086015260088201546101008601526009820154909316610120850152600a810154610140850152600b015460ff16151561016084015285810151905163dfdafca360e01b815273__$5e6137a1b5a0a366e2874209b5abf71c10$__955063dfdafca39461409d949390928392909183910161517a565b602060405180830381865af41580156140ba573d6000803e3d6000fd5b505050506040513d601f19601f820116820180604052508101906140de9190614e18565b81606001818152505060008082608001516001600160a01b03166370b4ebeb8c888b8b88604001518f8a606001516040518863ffffffff1660e01b815260040161412e97969594939291906151af565b6101e0604051808303816000875af115801561414e573d6000803e3d6000fd5b505050506040513d601f19601f8201168201806040525081019061417291906151eb565b60008d81526002602052604090819020905163030b159d60e31b815292945090925073__$5e6137a1b5a0a366e2874209b5abf71c10$__91631858ace8916141be918590600401615381565b60006040518083038186803b1580156141d657600080fd5b505af41580156141ea573d6000803e3d6000fd5b5050505081866001600160a01b03168c7ff9a33434428db5f0416c03e38307599ad0b9b9965d6c070eb08e87cc1f0ca50e6142223390565b6040516001600160a01b03909116815260200160405180910390a450600180559998505050505050505050565b6000816101600151156142ba5760608201516020830151604080850151905163d4fac45d60e01b81526001600160a01b039283166004820152908216602482015291169063d4fac45d906044015b602060405180830381865afa158015610ad9573d6000803e3d6000fd5b602082015160408084015190516370a0823160e01b81526001600160a01b0391821660048201529116906370a082319060240161429d565b919050565b60005460ff166143405760405162461bcd60e51b815260206004820152601460248201527314185d5cd8589b194e881b9bdd081c185d5cd95960621b6044820152606401610185565b6000805460ff191690557f5db9ee0a495bf2e6ff9c91a7834c1ba4fdd244a5e8aa4e537bd38aeae4b073aa335b6040516001600160a01b03909116815260200160405180910390a1565b6040516346296c6960e01b8152600481018490526001600160a01b0383811660248301527f000000000000000000000000000000000000000000000000000000000000000016906346296c6990604401602060405180830381865afa1580156143f7573d6000803e3d6000fd5b505050506040513d601f19601f8201168201806040525081019061441b9190615148565b6040518060400160405280600381526020016219999960e91b815250906144555760405162461bcd60e51b81526004016101859190614955565b50604051639dce429960e01b8152600481018490526001600160a01b0383811660248301526000917f000000000000000000000000000000000000000000000000000000000000000090911690639dce429990604401600060405180830381865afa1580156144c8573d6000803e3d6000fd5b505050506040513d6000823e601f3d908101601f191682016040526144f091908101906152a9565b90508060800151821015801561450a57508060a001518211155b6040518060400160405280600381526020016203333360ec1b815250906145445760405162461bcd60e51b81526004016101859190614955565b5050505050565b60005460ff161561456e5760405162461bcd60e51b815260040161018590614db7565b6000805460ff191660011790557f62e78cea01bee320cd4e420270b5ea74000d11b0c9f74754ebdbfc544b05a25861436d3390565b60008215806145b0575081155b156145bd57506000610afd565b816145cb6002612710615420565b6145d790600019615163565b6145e19190615420565b8311156040518060400160405280600381526020016203130360ec1b8152509061461e5760405162461bcd60e51b81526004016101859190614955565b5061271061462d600282615420565b6146378486615442565b6146419190614fd9565b6107209190615420565b60028101546003820154600183015460405163d4fac45d60e01b81526001600160a01b0391821660048201529281166024840181905292600092919091169063d4fac45d90604401602060405180830381865afa1580156146b0573d6000803e3d6000fd5b505050506040513d601f19601f820116820180604052508101906146d49190614e18565b604051627b8a6760e11b8152600481018290526001600160a01b0384166024820181905291925062f714ce90604401600060405180830381600087803b15801561471d57600080fd5b505af1158015614731573d6000803e3d6000fd5b505050600b909301805460ff19169055505050565b600b8101805460ff1916600190811790915581015460028201546040516370a0823160e01b81526001600160a01b03918216600482015260009291909116906370a0823190602401602060405180830381865afa1580156147ab573d6000803e3d6000fd5b505050506040513d601f19601f820116820180604052508101906147cf9190614e18565b600283015460405163b6b55f2560e01b8152600481018390529192506001600160a01b03169063b6b55f2590602401600060405180830381600087803b15801561481857600080fd5b505af115801561482c573d6000803e3d6000fd5b505050505050565b6040518061014001604052806000815260200160008152602001600081526020016000815260200160008152602001600081526020016000815260200160008152602001600081526020016148f4604080516101c081018252600080825260208201819052918101829052606081018290526080810182905260a0810182905260c0810182905260e0810182905261010081018290526101208101829052610140810182905261016081018290526101808101829052906101a082015290565b905290565b60005b838110156149145781810151838201526020016148fc565b83811115614923576000848401525b50505050565b600081518084526149418160208601602086016148f9565b601f01601f19169290920160200192915050565b6020815260006107206020830184614929565b60006020828403121561497a57600080fd5b5035919050565b6001600160a01b038116811461125357600080fd5b6000806000606084860312156149ab57600080fd5b833592506020840135915060408401356149c481614981565b809150509250925092565b600080600080608085870312156149e557600080fd5b8435935060208501359250604085013591506060850135614a0581614981565b939692955090935050565b60008060408385031215614a2357600080fd5b50508035926020909101359150565b600080600060608486031215614a4757600080fd5b833592506020840135614a5981614981565b929592945050506040919091013590565b805182526020810151614a8860208401826001600160a01b03169052565b506040810151614aa360408401826001600160a01b03169052565b506060810151614abe60608401826001600160a01b03169052565b506080810151614ad960808401826001600160801b03169052565b5060a081015160a083015260c081015160c083015260e0810151614b0660e084018264ffffffffff169052565b506101008181015190830152610120808201516001600160a01b03169083015261014080820151908301526101608082015180151582850152614923565b6101808101610afd8284614a6a565b60008060408385031215614b6657600080fd5b823591506020830135614b7881614981565b809150509250929050565b60008060008060808587031215614b9957600080fd5b84359350602085013592506040850135614bb281614981565b9396929550929360600135925050565b634e487b7160e01b600052604160045260246000fd5b6040516101c0810167ffffffffffffffff81118282101715614bfc57614bfc614bc2565b60405290565b604051610100810167ffffffffffffffff81118282101715614bfc57614bfc614bc2565b604051601f8201601f1916810167ffffffffffffffff81118282101715614c4f57614c4f614bc2565b604052919050565b600067ffffffffffffffff821115614c7157614c71614bc2565b50601f01601f191660200190565b600082601f830112614c9057600080fd5b8135614ca3614c9e82614c57565b614c26565b818152846020838601011115614cb857600080fd5b816020850160208301376000918101602001919091529392505050565b60008060008060808587031215614ceb57600080fd5b8435614cf681614981565b9350602085013567ffffffffffffffff80821115614d1357600080fd5b614d1f88838901614c7f565b94506040870135915080821115614d3557600080fd5b50614d4287828801614c7f565b925050606085013560ff81168114614a0557600080fd5b60008060008060008060c08789031215614d7257600080fd5b8635955060208701359450604087013593506060870135614d9281614981565b92506080870135915060a0870135614da981614981565b809150509295509295509295565b60208082526010908201526f14185d5cd8589b194e881c185d5cd95960821b604082015260600190565b6020808252601f908201527f5265656e7472616e637947756172643a207265656e7472616e742063616c6c00604082015260600190565b600060208284031215614e2a57600080fd5b5051919050565b80516142f281614981565b600060208284031215614e4e57600080fd5b815161072081614981565b80516001600160801b03811681146142f257600080fd5b805164ffffffffff811681146142f257600080fd5b8051600681106142f257600080fd5b60006101c08284031215614ea757600080fd5b614eaf614bd8565b905081518152614ec160208301614e31565b602082015260408201516040820152614edc60608301614e31565b606082015260808201516080820152614ef760a08301614e59565b60a0820152614f0860c08301614e59565b60c0820152614f1960e08301614e70565b60e0820152610100614f2c818401614e70565b90820152610120614f3e838201614e70565b90820152610140614f50838201614e70565b90820152610160614f62838201614e70565b90820152610180614f74838201614e70565b908201526101a0614f86838201614e85565b9082015292915050565b60006101c08284031215614fa357600080fd5b6107208383614e94565b634e487b7160e01b600052602160045260246000fd5b634e487b7160e01b600052601160045260246000fd5b60008219821115614fec57614fec614fc3565b500190565b6006811061500f57634e487b7160e01b600052602160045260246000fd5b9052565b80518252602081015161503160208401826001600160a01b03169052565b5060408101516040830152606081015161505660608401826001600160a01b03169052565b506080810151608083015260a081015161507b60a08401826001600160801b03169052565b5060c081015161509660c08401826001600160801b03169052565b5060e08101516150af60e084018264ffffffffff169052565b506101008181015164ffffffffff9081169184019190915261012080830151821690840152610140808301518216908401526101608083015182169084015261018080830151909116908301526101a08082015161492382850182614ff1565b84815261022081016151246020830186615013565b6101e0820193909352610200015292915050565b805180151581146142f257600080fd5b60006020828403121561515a57600080fd5b61072082615138565b60008282101561517557615175614fc3565b500390565b61020081016151898288614a6a565b85610180830152846101a0830152836101c0830152826101e08301529695505050505050565b9687526001600160a01b0395861660208801529390941660408601526060850191909152608084015260a083019190915260c082015260e00190565b6000806101e083850312156151ff57600080fd5b825191506152108460208501614e94565b90509250929050565b878152610420810161522e6020830189615013565b61523c6101e0830188615013565b856103a0830152846103c0830152836103e08301528261040083015298975050505050505050565b600082601f83011261527557600080fd5b8151615283614c9e82614c57565b81815284602083860101111561529857600080fd5b61236f8260208301602087016148f9565b6000602082840312156152bb57600080fd5b815167ffffffffffffffff808211156152d357600080fd5b9083019061010082860312156152e857600080fd5b6152f0614c02565b6152f983615138565b815260208301518281111561530d57600080fd5b61531987828601615264565b60208301525060408301518281111561533157600080fd5b61533d87828601615264565b604083015250606083015160608201526080830151608082015260a083015160a082015260c083015160c082015260e083015160e082015280935050505092915050565b8281526101e081016107206020830184615013565b85815260a0602082015260006153af60a0830187614929565b82810360408401526153c18187614929565b60ff95909516606084015250506001600160a01b03919091166080909101529392505050565b6060815260006153fa6060830186614929565b828103602084015261540c8186614929565b91505060ff83166040830152949350505050565b60008261543d57634e487b7160e01b600052601260045260246000fd5b500490565b600081600019048311821515161561545c5761545c614fc3565b50029056fea2646970667358221220c6a083080d4efbc0c6f67b2d585219a638d1d7260f6ead4863610743dadbb98464736f6c634300080a0033",
  "libraries": {
    "Errors": "0x6013C249197Ea88260B24A1549249c9B876814AB",
    "MathUtils": "0x76aFbdb519C270961D20ce58CEDa6D8DF10a5dC7",
    "PercentageMath": "0xeb2C7909293DAa402Ea85760f47350Fb5324FE13",
    "DataTypes": "0xc2BC820114508fA4B10486223E932b27f5D17f4e",
    "ReserveLogic": "0xB3ae5d02644CBb53937fa3dff85C1e26bf5753EF"
  },
  "devdoc": {
    "author": "OpenSky Labs",
    "kind": "dev",
    "methods": {
      "borrow(uint256,uint256,uint256,address,uint256,address)": {
        "details": "Borrows ETH from reserve using an NFT as collateral and will receive a loan NFT as receipt.",
        "params": {
          "amount": "amount of ETH user will borrow",
          "duration": "The desired duration of the loan",
          "nftAddress": "The collateral NFT address",
          "onBehalfOf": "address of the user who will receive ETH and loan NFT.*",
          "reserveId": "The ID of the reserve",
          "tokenId": "The ID of the NFT"
        }
      },
      "closeMoneyMarket(uint256)": {
        "details": "Only callable by the emergency admin role",
        "params": {
          "reserveId": "The ID of the reserve*"
        }
      },
      "create(address,string,string,uint8)": {
        "details": "Only callable by the pool admin role",
        "params": {
          "decimals": "The decimals of the oToken*",
          "name": "The name of the oToken",
          "symbol": "The symbol for the oToken",
          "underlyingAsset": "The address of the underlying asset"
        }
      },
      "deposit(uint256,uint256,address,uint256)": {
        "details": "Deposits ETH into the reserve.",
        "params": {
          "referralCode": "integrators are assigned a referral code and can potentially receive rewards*",
          "reserveId": "The ID of the reserve"
        }
      },
      "endLiquidation(uint256,uint256)": {
        "details": "Completes liquidation for a loan which will be repaid.",
        "params": {
          "amount": "The amount of the token that will be repaid.",
          "loanId": "The ID of the liquidated loan that will be repaid."
        }
      },
      "extend(uint256,uint256,uint256,address)": {
        "details": "Extends creates a new loan and terminates the old loan.",
        "params": {
          "amount": "The amount of ERC20 token the user will borrow in the new loan",
          "duration": "The selected duration the user will borrow in the new loan",
          "loanId": "The loan ID to extend",
          "onBehalfOf": "The address will borrow in the new loan*"
        }
      },
      "getAvailableLiquidity(uint256)": {
        "details": "Returns the remaining liquidity of the reserve",
        "params": {
          "reserveId": "The ID of the reserve"
        },
        "returns": {
          "_0": "The reserve's withdrawable balance"
        }
      },
      "getBorrowLimitByOracle(uint256,address,uint256)": {
        "details": "Returns the instantaneous borrow limit value of a special NFT",
        "params": {
          "nftAddress": "The address of the NFT",
          "tokenId": "The ID of the NFT"
        },
        "returns": {
          "_0": "The NFT's borrow limit"
        }
      },
      "getReserveData(uint256)": {
        "details": "Returns the state of the reserve",
        "params": {
          "reserveId": "The ID of the reserve"
        },
        "returns": {
          "_0": "The state of the reserve*"
        }
      },
      "getReserveNormalizedIncome(uint256)": {
        "details": "Returns the normalized income of the reserve",
        "params": {
          "reserveId": "The ID of the reserve"
        },
        "returns": {
          "_0": "The reserve's normalized income"
        }
      },
      "getTVL(uint256)": {
        "details": "Returns TVL (total value locked) of the reserve.",
        "params": {
          "reserveId": "The ID of the reserve"
        },
        "returns": {
          "_0": "The reserve's TVL"
        }
      },
      "getTotalBorrowBalance(uint256)": {
        "details": "Returns the sum of all users borrow balances include borrow interest accrued",
        "params": {
          "reserveId": "The ID of the reserve"
        },
        "returns": {
          "_0": "The total borrow balance of the reserve"
        }
      },
      "openMoneyMarket(uint256)": {
        "details": "Only callable by the emergency admin role",
        "params": {
          "reserveId": "The ID of the reserve*"
        }
      },
      "pause()": {
        "details": "Pause pool for emergency case, can only be called by emergency admin.*"
      },
      "paused()": {
        "details": "Returns true if the contract is paused, and false otherwise."
      },
      "repay(uint256)": {
        "details": "Repays a loan, as a result the corresponding loan NFT owner will receive the collateralized NFT.",
        "params": {
          "loanId": "The ID of the loan the user will repay"
        }
      },
      "setInterestModelAddress(uint256,address)": {
        "details": "Only callable by the pool admin role",
        "params": {
          "interestModelAddress": "The new address of the interest model contract*",
          "reserveId": "The ID of the reserve"
        }
      },
      "setTreasuryFactor(uint256,uint256)": {
        "details": "Only callable by the pool admin role",
        "params": {
          "factor": "The new treasury factor of the reserve*",
          "reserveId": "The ID of the reserve"
        }
      },
      "startLiquidation(uint256)": {
        "details": "Starts liquidation for a loan when it's in LIQUIDATABLE status",
        "params": {
          "loanId": "The ID of the loan which will be liquidated"
        }
      },
      "unpause()": {
        "details": "Unpause pool for emergency case, can only be called by emergency admin.*"
      },
      "withdraw(uint256,uint256,address)": {
        "details": "withdraws the ETH from reserve.",
        "params": {
          "amount": "amount of oETH to withdraw and receive native ETH*",
          "reserveId": "The ID of the reserve"
        }
      }
    },
    "title": "OpenSkyPool contract",
    "version": 1
  },
  "userdoc": {
    "kind": "user",
    "methods": {
      "closeMoneyMarket(uint256)": {
        "notice": "Close the money market"
      },
      "create(address,string,string,uint8)": {
        "notice": "Creates a reserve"
      },
      "openMoneyMarket(uint256)": {
        "notice": "Open the money market"
      },
      "setInterestModelAddress(uint256,address)": {
        "notice": "Updates the interest model address of a reserve"
      },
      "setTreasuryFactor(uint256,uint256)": {
        "notice": "Updates the treasury factor of a reserve"
      }
    },
    "notice": "Main point of interaction with OpenSky protocol's pool - Users can:   # Deposit   # Withdraw*",
    "version": 1
  },
  "storageLayout": {
    "storage": [
      {
        "astId": 1294,
        "contract": "contracts/OpenSkyPool.sol:OpenSkyPool",
        "label": "_paused",
        "offset": 0,
        "slot": "0",
        "type": "t_bool"
      },
      {
        "astId": 1379,
        "contract": "contracts/OpenSkyPool.sol:OpenSkyPool",
        "label": "_status",
        "offset": 0,
        "slot": "1",
        "type": "t_uint256"
      },
      {
        "astId": 11037,
        "contract": "contracts/OpenSkyPool.sol:OpenSkyPool",
        "label": "reserves",
        "offset": 0,
        "slot": "2",
        "type": "t_mapping(t_uint256,t_struct(ReserveData)21842_storage)"
      },
      {
        "astId": 11043,
        "contract": "contracts/OpenSkyPool.sol:OpenSkyPool",
        "label": "_reserveIdTracker",
        "offset": 0,
        "slot": "3",
        "type": "t_struct(Counter)6236_storage"
      }
    ],
    "types": {
      "t_address": {
        "encoding": "inplace",
        "label": "address",
        "numberOfBytes": "20"
      },
      "t_bool": {
        "encoding": "inplace",
        "label": "bool",
        "numberOfBytes": "1"
      },
      "t_mapping(t_uint256,t_struct(ReserveData)21842_storage)": {
        "encoding": "mapping",
        "key": "t_uint256",
        "label": "mapping(uint256 => struct DataTypes.ReserveData)",
        "numberOfBytes": "32",
        "value": "t_struct(ReserveData)21842_storage"
      },
      "t_struct(Counter)6236_storage": {
        "encoding": "inplace",
        "label": "struct Counters.Counter",
        "members": [
          {
            "astId": 6235,
            "contract": "contracts/OpenSkyPool.sol:OpenSkyPool",
            "label": "_value",
            "offset": 0,
            "slot": "0",
            "type": "t_uint256"
          }
        ],
        "numberOfBytes": "32"
      },
      "t_struct(ReserveData)21842_storage": {
        "encoding": "inplace",
        "label": "struct DataTypes.ReserveData",
        "members": [
          {
            "astId": 21819,
            "contract": "contracts/OpenSkyPool.sol:OpenSkyPool",
            "label": "reserveId",
            "offset": 0,
            "slot": "0",
            "type": "t_uint256"
          },
          {
            "astId": 21821,
            "contract": "contracts/OpenSkyPool.sol:OpenSkyPool",
            "label": "underlyingAsset",
            "offset": 0,
            "slot": "1",
            "type": "t_address"
          },
          {
            "astId": 21823,
            "contract": "contracts/OpenSkyPool.sol:OpenSkyPool",
            "label": "oTokenAddress",
            "offset": 0,
            "slot": "2",
            "type": "t_address"
          },
          {
            "astId": 21825,
            "contract": "contracts/OpenSkyPool.sol:OpenSkyPool",
            "label": "moneyMarketAddress",
            "offset": 0,
            "slot": "3",
            "type": "t_address"
          },
          {
            "astId": 21827,
            "contract": "contracts/OpenSkyPool.sol:OpenSkyPool",
            "label": "lastSupplyIndex",
            "offset": 0,
            "slot": "4",
            "type": "t_uint128"
          },
          {
            "astId": 21829,
            "contract": "contracts/OpenSkyPool.sol:OpenSkyPool",
            "label": "borrowingInterestPerSecond",
            "offset": 0,
            "slot": "5",
            "type": "t_uint256"
          },
          {
            "astId": 21831,
            "contract": "contracts/OpenSkyPool.sol:OpenSkyPool",
            "label": "lastMoneyMarketBalance",
            "offset": 0,
            "slot": "6",
            "type": "t_uint256"
          },
          {
            "astId": 21833,
            "contract": "contracts/OpenSkyPool.sol:OpenSkyPool",
            "label": "lastUpdateTimestamp",
            "offset": 0,
            "slot": "7",
            "type": "t_uint40"
          },
          {
            "astId": 21835,
            "contract": "contracts/OpenSkyPool.sol:OpenSkyPool",
            "label": "totalBorrows",
            "offset": 0,
            "slot": "8",
            "type": "t_uint256"
          },
          {
            "astId": 21837,
            "contract": "contracts/OpenSkyPool.sol:OpenSkyPool",
            "label": "interestModelAddress",
            "offset": 0,
            "slot": "9",
            "type": "t_address"
          },
          {
            "astId": 21839,
            "contract": "contracts/OpenSkyPool.sol:OpenSkyPool",
            "label": "treasuryFactor",
            "offset": 0,
            "slot": "10",
            "type": "t_uint256"
          },
          {
            "astId": 21841,
            "contract": "contracts/OpenSkyPool.sol:OpenSkyPool",
            "label": "isMoneyMarketOn",
            "offset": 0,
            "slot": "11",
            "type": "t_bool"
          }
        ],
        "numberOfBytes": "384"
      },
      "t_uint128": {
        "encoding": "inplace",
        "label": "uint128",
        "numberOfBytes": "16"
      },
      "t_uint256": {
        "encoding": "inplace",
        "label": "uint256",
        "numberOfBytes": "32"
      },
      "t_uint40": {
        "encoding": "inplace",
        "label": "uint40",
        "numberOfBytes": "5"
      }
    }
  }
}