{
  "address": "0xCEe3355f5478D1b102aefeD9Fd8cF81560F87607",
  "abi": [
    {
      "inputs": [
        {
          "internalType": "address",
          "name": "SETTINGS_",
          "type": "address"
        },
        {
          "internalType": "address",
          "name": "BESPOKE_SETTINGS_",
          "type": "address"
        },
        {
          "internalType": "address",
          "name": "WETH_",
          "type": "address"
        }
      ],
      "stateMutability": "nonpayable",
      "type": "constructor"
    },
    {
      "anonymous": false,
      "inputs": [
        {
          "indexed": true,
          "internalType": "address",
          "name": "sender",
          "type": "address"
        },
        {
          "indexed": false,
          "internalType": "uint256",
          "name": "nonce",
          "type": "uint256"
        }
      ],
      "name": "CancelAllOffers",
      "type": "event"
    },
    {
      "anonymous": false,
      "inputs": [
        {
          "indexed": true,
          "internalType": "address",
          "name": "sender",
          "type": "address"
        },
        {
          "indexed": false,
          "internalType": "uint256[]",
          "name": "nonces",
          "type": "uint256[]"
        }
      ],
      "name": "CancelMultipleOffers",
      "type": "event"
    },
    {
      "anonymous": false,
      "inputs": [
        {
          "indexed": true,
          "internalType": "address",
          "name": "token",
          "type": "address"
        },
        {
          "indexed": true,
          "internalType": "address",
          "name": "to",
          "type": "address"
        },
        {
          "indexed": false,
          "internalType": "uint256[]",
          "name": "ids",
          "type": "uint256[]"
        },
        {
          "indexed": false,
          "internalType": "uint256[]",
          "name": "amounts",
          "type": "uint256[]"
        },
        {
          "indexed": false,
          "internalType": "bytes",
          "name": "data",
          "type": "bytes"
        }
      ],
      "name": "ClaimERC1155Airdrop",
      "type": "event"
    },
    {
      "anonymous": false,
      "inputs": [
        {
          "indexed": true,
          "internalType": "address",
          "name": "token",
          "type": "address"
        },
        {
          "indexed": true,
          "internalType": "address",
          "name": "to",
          "type": "address"
        },
        {
          "indexed": false,
          "internalType": "uint256",
          "name": "amount",
          "type": "uint256"
        }
      ],
      "name": "ClaimERC20Airdrop",
      "type": "event"
    },
    {
      "anonymous": false,
      "inputs": [
        {
          "indexed": true,
          "internalType": "address",
          "name": "token",
          "type": "address"
        },
        {
          "indexed": true,
          "internalType": "address",
          "name": "to",
          "type": "address"
        },
        {
          "indexed": false,
          "internalType": "uint256[]",
          "name": "ids",
          "type": "uint256[]"
        }
      ],
      "name": "ClaimERC721Airdrop",
      "type": "event"
    },
    {
      "anonymous": false,
      "inputs": [
        {
          "indexed": true,
          "internalType": "address",
          "name": "receiver",
          "type": "address"
        },
        {
          "indexed": false,
          "internalType": "address",
          "name": "sender",
          "type": "address"
        },
        {
          "indexed": true,
          "internalType": "address",
          "name": "nftAddress",
          "type": "address"
        },
        {
          "indexed": true,
          "internalType": "uint256",
          "name": "tokenId",
          "type": "uint256"
        }
      ],
      "name": "FlashClaim",
      "type": "event"
    },
    {
      "anonymous": false,
      "inputs": [
        {
          "indexed": true,
          "internalType": "uint256",
          "name": "loanId",
          "type": "uint256"
        },
        {
          "indexed": true,
          "internalType": "address",
          "name": "lender",
          "type": "address"
        }
      ],
      "name": "Foreclose",
      "type": "event"
    },
    {
      "anonymous": false,
      "inputs": [
        {
          "indexed": true,
          "internalType": "address",
          "name": "previousOwner",
          "type": "address"
        },
        {
          "indexed": true,
          "internalType": "address",
          "name": "newOwner",
          "type": "address"
        }
      ],
      "name": "OwnershipTransferred",
      "type": "event"
    },
    {
      "anonymous": false,
      "inputs": [
        {
          "indexed": false,
          "internalType": "address",
          "name": "account",
          "type": "address"
        }
      ],
      "name": "Paused",
      "type": "event"
    },
    {
      "anonymous": false,
      "inputs": [
        {
          "indexed": true,
          "internalType": "uint256",
          "name": "loanId",
          "type": "uint256"
        },
        {
          "indexed": true,
          "internalType": "address",
          "name": "borrower",
          "type": "address"
        }
      ],
      "name": "Repay",
      "type": "event"
    },
    {
      "anonymous": false,
      "inputs": [
        {
          "indexed": true,
          "internalType": "uint256",
          "name": "loanId",
          "type": "uint256"
        },
        {
          "indexed": true,
          "internalType": "address",
          "name": "borrower",
          "type": "address"
        }
      ],
      "name": "RepayETH",
      "type": "event"
    },
    {
      "anonymous": false,
      "inputs": [
        {
          "indexed": false,
          "internalType": "bytes32",
          "name": "offerHash",
          "type": "bytes32"
        },
        {
          "indexed": true,
          "internalType": "uint256",
          "name": "loanId",
          "type": "uint256"
        },
        {
          "indexed": true,
          "internalType": "address",
          "name": "lender",
          "type": "address"
        },
        {
          "indexed": true,
          "internalType": "address",
          "name": "borrower",
          "type": "address"
        },
        {
          "indexed": false,
          "internalType": "uint256",
          "name": "nonce",
          "type": "uint256"
        }
      ],
      "name": "TakeBorrowOffer",
      "type": "event"
    },
    {
      "anonymous": false,
      "inputs": [
        {
          "indexed": false,
          "internalType": "bytes32",
          "name": "offerHash",
          "type": "bytes32"
        },
        {
          "indexed": true,
          "internalType": "uint256",
          "name": "loanId",
          "type": "uint256"
        },
        {
          "indexed": true,
          "internalType": "address",
          "name": "lender",
          "type": "address"
        },
        {
          "indexed": true,
          "internalType": "address",
          "name": "borrower",
          "type": "address"
        },
        {
          "indexed": false,
          "internalType": "uint256",
          "name": "nonce",
          "type": "uint256"
        }
      ],
      "name": "TakeBorrowOfferETH",
      "type": "event"
    },
    {
      "anonymous": false,
      "inputs": [
        {
          "indexed": false,
          "internalType": "address",
          "name": "account",
          "type": "address"
        }
      ],
      "name": "Unpaused",
      "type": "event"
    },
    {
      "stateMutability": "payable",
      "type": "fallback"
    },
    {
      "inputs": [],
      "name": "BESPOKE_SETTINGS",
      "outputs": [
        {
          "internalType": "contract IOpenSkyBespokeSettings",
          "name": "",
          "type": "address"
        }
      ],
      "stateMutability": "view",
      "type": "function"
    },
    {
      "inputs": [],
      "name": "INTERFACE_ID_ERC1155",
      "outputs": [
        {
          "internalType": "bytes4",
          "name": "",
          "type": "bytes4"
        }
      ],
      "stateMutability": "view",
      "type": "function"
    },
    {
      "inputs": [],
      "name": "INTERFACE_ID_ERC721",
      "outputs": [
        {
          "internalType": "bytes4",
          "name": "",
          "type": "bytes4"
        }
      ],
      "stateMutability": "view",
      "type": "function"
    },
    {
      "inputs": [],
      "name": "SETTINGS",
      "outputs": [
        {
          "internalType": "contract IOpenSkySettings",
          "name": "",
          "type": "address"
        }
      ],
      "stateMutability": "view",
      "type": "function"
    },
    {
      "inputs": [],
      "name": "WETH",
      "outputs": [
        {
          "internalType": "contract IWETH",
          "name": "",
          "type": "address"
        }
      ],
      "stateMutability": "view",
      "type": "function"
    },
    {
      "inputs": [
        {
          "internalType": "uint256",
          "name": "minNonce_",
          "type": "uint256"
        }
      ],
      "name": "cancelAllBorrowOffersForSender",
      "outputs": [],
      "stateMutability": "nonpayable",
      "type": "function"
    },
    {
      "inputs": [
        {
          "internalType": "uint256[]",
          "name": "offerNonces",
          "type": "uint256[]"
        }
      ],
      "name": "cancelMultipleBorrowOffers",
      "outputs": [],
      "stateMutability": "nonpayable",
      "type": "function"
    },
    {
      "inputs": [
        {
          "internalType": "address",
          "name": "token",
          "type": "address"
        },
        {
          "internalType": "address",
          "name": "to",
          "type": "address"
        },
        {
          "internalType": "uint256[]",
          "name": "ids",
          "type": "uint256[]"
        },
        {
          "internalType": "uint256[]",
          "name": "amounts",
          "type": "uint256[]"
        },
        {
          "internalType": "bytes",
          "name": "data",
          "type": "bytes"
        }
      ],
      "name": "claimERC1155Airdrop",
      "outputs": [],
      "stateMutability": "nonpayable",
      "type": "function"
    },
    {
      "inputs": [
        {
          "internalType": "address",
          "name": "token",
          "type": "address"
        },
        {
          "internalType": "address",
          "name": "to",
          "type": "address"
        },
        {
          "internalType": "uint256",
          "name": "amount",
          "type": "uint256"
        }
      ],
      "name": "claimERC20Airdrop",
      "outputs": [],
      "stateMutability": "nonpayable",
      "type": "function"
    },
    {
      "inputs": [
        {
          "internalType": "address",
          "name": "token",
          "type": "address"
        },
        {
          "internalType": "address",
          "name": "to",
          "type": "address"
        },
        {
          "internalType": "uint256[]",
          "name": "ids",
          "type": "uint256[]"
        }
      ],
      "name": "claimERC721Airdrop",
      "outputs": [],
      "stateMutability": "nonpayable",
      "type": "function"
    },
    {
      "inputs": [
        {
          "internalType": "address",
          "name": "token",
          "type": "address"
        },
        {
          "internalType": "address",
          "name": "to",
          "type": "address"
        },
        {
          "internalType": "uint256",
          "name": "amount",
          "type": "uint256"
        }
      ],
      "name": "emergencyTokenTransfer",
      "outputs": [],
      "stateMutability": "nonpayable",
      "type": "function"
    },
    {
      "inputs": [
        {
          "internalType": "address",
          "name": "receiverAddress",
          "type": "address"
        },
        {
          "internalType": "uint256[]",
          "name": "loanIds",
          "type": "uint256[]"
        },
        {
          "internalType": "bytes",
          "name": "params",
          "type": "bytes"
        }
      ],
      "name": "flashClaim",
      "outputs": [],
      "stateMutability": "nonpayable",
      "type": "function"
    },
    {
      "inputs": [
        {
          "internalType": "uint256",
          "name": "loanId",
          "type": "uint256"
        }
      ],
      "name": "foreclose",
      "outputs": [],
      "stateMutability": "nonpayable",
      "type": "function"
    },
    {
      "inputs": [
        {
          "internalType": "uint256",
          "name": "loanId",
          "type": "uint256"
        }
      ],
      "name": "getBorrowBalance",
      "outputs": [
        {
          "internalType": "uint256",
          "name": "",
          "type": "uint256"
        }
      ],
      "stateMutability": "view",
      "type": "function"
    },
    {
      "inputs": [
        {
          "internalType": "uint256",
          "name": "loanId",
          "type": "uint256"
        }
      ],
      "name": "getBorrowInterest",
      "outputs": [
        {
          "internalType": "uint256",
          "name": "",
          "type": "uint256"
        }
      ],
      "stateMutability": "view",
      "type": "function"
    },
    {
      "inputs": [
        {
          "internalType": "uint256",
          "name": "loanId",
          "type": "uint256"
        }
      ],
      "name": "getLoanData",
      "outputs": [
        {
          "components": [
            {
              "internalType": "uint256",
              "name": "reserveId",
              "type": "uint256"
            },
            {
              "internalType": "address",
              "name": "nftAddress",
              "type": "address"
            },
            {
              "internalType": "uint256",
              "name": "tokenId",
              "type": "uint256"
            },
            {
              "internalType": "uint256",
              "name": "tokenAmount",
              "type": "uint256"
            },
            {
              "internalType": "address",
              "name": "borrower",
              "type": "address"
            },
            {
              "internalType": "uint256",
              "name": "amount",
              "type": "uint256"
            },
            {
              "internalType": "uint128",
              "name": "borrowRate",
              "type": "uint128"
            },
            {
              "internalType": "uint128",
              "name": "interestPerSecond",
              "type": "uint128"
            },
            {
              "internalType": "address",
              "name": "currency",
              "type": "address"
            },
            {
              "internalType": "uint40",
              "name": "borrowDuration",
              "type": "uint40"
            },
            {
              "internalType": "uint40",
              "name": "borrowBegin",
              "type": "uint40"
            },
            {
              "internalType": "uint40",
              "name": "borrowOverdueTime",
              "type": "uint40"
            },
            {
              "internalType": "uint40",
              "name": "liquidatableTime",
              "type": "uint40"
            },
            {
              "internalType": "address",
              "name": "lender",
              "type": "address"
            },
            {
              "internalType": "enum BespokeTypes.LoanStatus",
              "name": "status",
              "type": "uint8"
            }
          ],
          "internalType": "struct BespokeTypes.LoanData",
          "name": "",
          "type": "tuple"
        }
      ],
      "stateMutability": "view",
      "type": "function"
    },
    {
      "inputs": [
        {
          "internalType": "uint256",
          "name": "loanId",
          "type": "uint256"
        }
      ],
      "name": "getPenalty",
      "outputs": [
        {
          "internalType": "uint256",
          "name": "",
          "type": "uint256"
        }
      ],
      "stateMutability": "view",
      "type": "function"
    },
    {
      "inputs": [
        {
          "internalType": "uint256",
          "name": "loanId",
          "type": "uint256"
        }
      ],
      "name": "getStatus",
      "outputs": [
        {
          "internalType": "enum BespokeTypes.LoanStatus",
          "name": "",
          "type": "uint8"
        }
      ],
      "stateMutability": "view",
      "type": "function"
    },
    {
      "inputs": [
        {
          "internalType": "address",
          "name": "account",
          "type": "address"
        },
        {
          "internalType": "uint256",
          "name": "nonce",
          "type": "uint256"
        }
      ],
      "name": "isValidNonce",
      "outputs": [
        {
          "internalType": "bool",
          "name": "",
          "type": "bool"
        }
      ],
      "stateMutability": "view",
      "type": "function"
    },
    {
      "inputs": [
        {
          "internalType": "address",
          "name": "",
          "type": "address"
        }
      ],
      "name": "minNonce",
      "outputs": [
        {
          "internalType": "uint256",
          "name": "",
          "type": "uint256"
        }
      ],
      "stateMutability": "view",
      "type": "function"
    },
    {
      "inputs": [
        {
          "internalType": "address",
          "name": "",
          "type": "address"
        }
      ],
      "name": "nftBorrowStat",
      "outputs": [
        {
          "internalType": "uint256",
          "name": "",
          "type": "uint256"
        }
      ],
      "stateMutability": "view",
      "type": "function"
    },
    {
      "inputs": [
        {
          "internalType": "address",
          "name": "",
          "type": "address"
        },
        {
          "internalType": "address",
          "name": "",
          "type": "address"
        },
        {
          "internalType": "uint256[]",
          "name": "",
          "type": "uint256[]"
        },
        {
          "internalType": "uint256[]",
          "name": "",
          "type": "uint256[]"
        },
        {
          "internalType": "bytes",
          "name": "",
          "type": "bytes"
        }
      ],
      "name": "onERC1155BatchReceived",
      "outputs": [
        {
          "internalType": "bytes4",
          "name": "",
          "type": "bytes4"
        }
      ],
      "stateMutability": "nonpayable",
      "type": "function"
    },
    {
      "inputs": [
        {
          "internalType": "address",
          "name": "",
          "type": "address"
        },
        {
          "internalType": "address",
          "name": "",
          "type": "address"
        },
        {
          "internalType": "uint256",
          "name": "",
          "type": "uint256"
        },
        {
          "internalType": "uint256",
          "name": "",
          "type": "uint256"
        },
        {
          "internalType": "bytes",
          "name": "",
          "type": "bytes"
        }
      ],
      "name": "onERC1155Received",
      "outputs": [
        {
          "internalType": "bytes4",
          "name": "",
          "type": "bytes4"
        }
      ],
      "stateMutability": "nonpayable",
      "type": "function"
    },
    {
      "inputs": [
        {
          "internalType": "address",
          "name": "",
          "type": "address"
        },
        {
          "internalType": "address",
          "name": "",
          "type": "address"
        },
        {
          "internalType": "uint256",
          "name": "",
          "type": "uint256"
        },
        {
          "internalType": "bytes",
          "name": "",
          "type": "bytes"
        }
      ],
      "name": "onERC721Received",
      "outputs": [
        {
          "internalType": "bytes4",
          "name": "",
          "type": "bytes4"
        }
      ],
      "stateMutability": "nonpayable",
      "type": "function"
    },
    {
      "inputs": [],
      "name": "owner",
      "outputs": [
        {
          "internalType": "address",
          "name": "",
          "type": "address"
        }
      ],
      "stateMutability": "view",
      "type": "function"
    },
    {
      "inputs": [],
      "name": "pause",
      "outputs": [],
      "stateMutability": "nonpayable",
      "type": "function"
    },
    {
      "inputs": [],
      "name": "paused",
      "outputs": [
        {
          "internalType": "bool",
          "name": "",
          "type": "bool"
        }
      ],
      "stateMutability": "view",
      "type": "function"
    },
    {
      "inputs": [],
      "name": "renounceOwnership",
      "outputs": [],
      "stateMutability": "nonpayable",
      "type": "function"
    },
    {
      "inputs": [
        {
          "internalType": "uint256",
          "name": "loanId",
          "type": "uint256"
        }
      ],
      "name": "repay",
      "outputs": [],
      "stateMutability": "nonpayable",
      "type": "function"
    },
    {
      "inputs": [
        {
          "internalType": "uint256",
          "name": "loanId",
          "type": "uint256"
        }
      ],
      "name": "repayETH",
      "outputs": [],
      "stateMutability": "payable",
      "type": "function"
    },
    {
      "inputs": [
        {
          "internalType": "bytes4",
          "name": "interfaceId",
          "type": "bytes4"
        }
      ],
      "name": "supportsInterface",
      "outputs": [
        {
          "internalType": "bool",
          "name": "",
          "type": "bool"
        }
      ],
      "stateMutability": "view",
      "type": "function"
    },
    {
      "inputs": [
        {
          "components": [
            {
              "internalType": "uint256",
              "name": "reserveId",
              "type": "uint256"
            },
            {
              "internalType": "address",
              "name": "nftAddress",
              "type": "address"
            },
            {
              "internalType": "uint256",
              "name": "tokenId",
              "type": "uint256"
            },
            {
              "internalType": "uint256",
              "name": "tokenAmount",
              "type": "uint256"
            },
            {
              "internalType": "address",
              "name": "borrower",
              "type": "address"
            },
            {
              "internalType": "uint256",
              "name": "borrowAmountMin",
              "type": "uint256"
            },
            {
              "internalType": "uint256",
              "name": "borrowAmountMax",
              "type": "uint256"
            },
            {
              "internalType": "uint40",
              "name": "borrowDurationMin",
              "type": "uint40"
            },
            {
              "internalType": "uint40",
              "name": "borrowDurationMax",
              "type": "uint40"
            },
            {
              "internalType": "uint128",
              "name": "borrowRate",
              "type": "uint128"
            },
            {
              "internalType": "address",
              "name": "currency",
              "type": "address"
            },
            {
              "internalType": "uint256",
              "name": "nonce",
              "type": "uint256"
            },
            {
              "internalType": "uint256",
              "name": "deadline",
              "type": "uint256"
            },
            {
              "internalType": "uint8",
              "name": "v",
              "type": "uint8"
            },
            {
              "internalType": "bytes32",
              "name": "r",
              "type": "bytes32"
            },
            {
              "internalType": "bytes32",
              "name": "s",
              "type": "bytes32"
            }
          ],
          "internalType": "struct BespokeTypes.BorrowOffer",
          "name": "offerData",
          "type": "tuple"
        },
        {
          "internalType": "uint256",
          "name": "supplyAmount",
          "type": "uint256"
        },
        {
          "internalType": "uint256",
          "name": "supplyDuration",
          "type": "uint256"
        }
      ],
      "name": "takeBorrowOffer",
      "outputs": [],
      "stateMutability": "nonpayable",
      "type": "function"
    },
    {
      "inputs": [
        {
          "components": [
            {
              "internalType": "uint256",
              "name": "reserveId",
              "type": "uint256"
            },
            {
              "internalType": "address",
              "name": "nftAddress",
              "type": "address"
            },
            {
              "internalType": "uint256",
              "name": "tokenId",
              "type": "uint256"
            },
            {
              "internalType": "uint256",
              "name": "tokenAmount",
              "type": "uint256"
            },
            {
              "internalType": "address",
              "name": "borrower",
              "type": "address"
            },
            {
              "internalType": "uint256",
              "name": "borrowAmountMin",
              "type": "uint256"
            },
            {
              "internalType": "uint256",
              "name": "borrowAmountMax",
              "type": "uint256"
            },
            {
              "internalType": "uint40",
              "name": "borrowDurationMin",
              "type": "uint40"
            },
            {
              "internalType": "uint40",
              "name": "borrowDurationMax",
              "type": "uint40"
            },
            {
              "internalType": "uint128",
              "name": "borrowRate",
              "type": "uint128"
            },
            {
              "internalType": "address",
              "name": "currency",
              "type": "address"
            },
            {
              "internalType": "uint256",
              "name": "nonce",
              "type": "uint256"
            },
            {
              "internalType": "uint256",
              "name": "deadline",
              "type": "uint256"
            },
            {
              "internalType": "uint8",
              "name": "v",
              "type": "uint8"
            },
            {
              "internalType": "bytes32",
              "name": "r",
              "type": "bytes32"
            },
            {
              "internalType": "bytes32",
              "name": "s",
              "type": "bytes32"
            }
          ],
          "internalType": "struct BespokeTypes.BorrowOffer",
          "name": "offerData",
          "type": "tuple"
        },
        {
          "internalType": "uint256",
          "name": "supplyAmount",
          "type": "uint256"
        },
        {
          "internalType": "uint256",
          "name": "supplyDuration",
          "type": "uint256"
        }
      ],
      "name": "takeBorrowOfferETH",
      "outputs": [],
      "stateMutability": "payable",
      "type": "function"
    },
    {
      "inputs": [
        {
          "internalType": "address",
          "name": "newOwner",
          "type": "address"
        }
      ],
      "name": "transferOwnership",
      "outputs": [],
      "stateMutability": "nonpayable",
      "type": "function"
    },
    {
      "inputs": [],
      "name": "unpause",
      "outputs": [],
      "stateMutability": "nonpayable",
      "type": "function"
    },
    {
      "stateMutability": "payable",
      "type": "receive"
    }
  ],
  "transactionHash": "0x8e130433a8f7a6e945037aba893e676fbd2de3e94eda49889bccedc4a62e0bc1",
  "args": [
    "0x72A780B33915D6D229E7b31A729AE42963A57c73",
    "0x453359aCa6D52A3A104A65741F80918f96aD81D4",
    "0xC02aaA39b223FE8D0A0e5C4F27eAD9083C756Cc2"
  ],
  "solcInputHash": "0ca3f66e9bd5de21ebb7765f6cea382a",
  "bytecode": "0x60e06040523480156200001157600080fd5b506040516200610f3803806200610f8339810160408190526200003491620000db565b6200003f336200006e565b6000805460ff60a01b19169055600180556001600160a01b0392831660805290821660a0521660c05262000125565b600080546001600160a01b038381166001600160a01b0319831681178455604051919092169283917f8be0079c531659141344cd1fd0a4f28419497f9722a3daafe3b4186f6b6457e09190a35050565b80516001600160a01b0381168114620000d657600080fd5b919050565b600080600060608486031215620000f157600080fd5b620000fc84620000be565b92506200010c60208501620000be565b91506200011c60408501620000be565b90509250925092565b60805160a05160c051615e9b6200027460003960008181610673015281816110db015281816112b60152818161209a0152818161243d015281816124c701526125b80152600081816103a90152818161087a015281816120c50152818161268b01528181612f0c015281816131c70152818161364801528181613d6901528181613e5b01528181613f7b0152818161427501528181614356015281816148b601526149890152600081816106a701528181610fdf015281816113390152818161142d01528181611530015281816118f901528181611a1901528181611b0d01528181611c1001528181611d0801528181611e2d015281816120e6015281816121b1015281816122e601528181612b7501528181612f9b015281816131e8015281816132b3015281816133cf015281816134e0015281816137020152818161397d015261474f0152615e9b6000f3fe6080604052600436106102085760003560e01c8063715018a611610118578063aa99fa98116100a0578063bc6bc0cd1161006f578063bc6bc0cd146106f5578063cae5955314610710578063e3185e1214610730578063f23a6e6114610750578063f2fde38b1461077c57610253565b8063aa99fa9814610634578063ad5c464814610661578063ade97ab514610695578063bc197c81146106c957610253565b80638bf1badd116100e75780638bf1badd146105965780638da5cb5b146105b657806396e59682146105d4578063a3d5b255146105f4578063a63487391461061457610253565b8063715018a61461051f5780638456cb591461053457806384e5cec5146105495780638a1818331461056957610253565b806333bf61561161019b5780635b3ce3241161016a5780635b3ce324146104735780635c622a0e146104865780635c975abb146104b3578063622fe39f146104d25780636b52b365146104ff57610253565b806333bf615614610403578063371fd8e61461041e5780633f4ba83a1461043e5780634f0709161461045357610253565b80631c187495116101d75780631c187495146103565780632247463e1461038457806329c55f06146103975780632f844ea8146103e357610253565b806301ffc9a71461029b57806303282d6e146102d05780630647ee20146102f2578063150b7a021461031257610253565b366102535760405162461bcd60e51b8152602060048201526016602482015275109357d49150d152559157d393d517d0531313d5d15160521b60448201526064015b60405180910390fd5b60405162461bcd60e51b815260206004820152601760248201527f424d5f46414c4c4241434b5f4e4f545f414c4c4f574544000000000000000000604482015260640161024a565b3480156102a757600080fd5b506102bb6102b6366004614dcc565b61079c565b60405190151581526020015b60405180910390f35b3480156102dc57600080fd5b506102f06102eb366004614ea7565b6107d3565b005b3480156102fe57600080fd5b506102bb61030d366004614f29565b610d98565b34801561031e57600080fd5b5061033d61032d366004615056565b630a85bd0160e11b949350505050565b6040516001600160e01b031990911681526020016102c7565b34801561036257600080fd5b506103766103713660046150c1565b610deb565b6040519081526020016102c7565b6102f06103923660046150c1565b610f79565b3480156103a357600080fd5b506103cb7f000000000000000000000000000000000000000000000000000000000000000081565b6040516001600160a01b0390911681526020016102c7565b3480156103ef57600080fd5b506102f06103fe3660046150da565b61163f565b34801561040f57600080fd5b5061033d636cdb3d1360e11b81565b34801561042a57600080fd5b506102f06104393660046150c1565b611789565b34801561044a57600080fd5b506102f0611d04565b34801561045f57600080fd5b506102f061046e36600461511b565b611e29565b6102f06104813660046151ab565b611faa565b34801561049257600080fd5b506104a66104a13660046150c1565b612773565b6040516102c791906152fd565b3480156104bf57600080fd5b50600054600160a01b900460ff166102bb565b3480156104de57600080fd5b506104f26104ed3660046150c1565b612908565b6040516102c7919061530b565b34801561050b57600080fd5b5061037661051a3660046150c1565b612ae4565b34801561052b57600080fd5b506102f0612b0b565b34801561054057600080fd5b506102f0612b71565b34801561055557600080fd5b506102f06105643660046150c1565b612c93565b34801561057557600080fd5b50610376610584366004615420565b60066020526000908152604090205481565b3480156105a257600080fd5b506102f06105b13660046150c1565b612d7b565b3480156105c257600080fd5b506000546001600160a01b03166103cb565b3480156105e057600080fd5b506103766105ef3660046150c1565b612ed8565b34801561060057600080fd5b506102f061060f36600461511b565b612f97565b34801561062057600080fd5b506102f061062f3660046151ab565b6130cb565b34801561064057600080fd5b5061037661064f366004615420565b60026020526000908152604090205481565b34801561066d57600080fd5b506103cb7f000000000000000000000000000000000000000000000000000000000000000081565b3480156106a157600080fd5b506103cb7f000000000000000000000000000000000000000000000000000000000000000081565b3480156106d557600080fd5b5061033d6106e43660046154b1565b63bc197c8160e01b95945050505050565b34801561070157600080fd5b5061033d6380ac58cd60e01b81565b34801561071c57600080fd5b506102f061072b36600461555e565b6136fe565b34801561073c57600080fd5b506102f061074b3660046155c2565b613979565b34801561075c57600080fd5b5061033d61076b366004615680565b63f23a6e6160e01b95945050505050565b34801561078857600080fd5b506102f0610797366004615420565b613bd4565b60006001600160e01b03198216630271189760e51b14806107cd57506301ffc9a760e01b6001600160e01b03198316145b92915050565b60008581856001600160401b038111156107ef576107ef614f55565b604051908082528060200260200182016040528015610818578160200160208202803683370190505b5090506000866001600160401b0381111561083557610835614f55565b60405190808252806020026020018201604052801561085e578160200160208202803683370190505b509050600093505b86841015610ad857336001600160a01b03167f00000000000000000000000000000000000000000000000000000000000000006001600160a01b031663bb322a836040518163ffffffff1660e01b8152600401602060405180830381865afa1580156108d6573d6000803e3d6000fd5b505050506040513d601f19601f820116820180604052508101906108fa91906156f3565b6001600160a01b0316636352211e8a8a8881811061091a5761091a615710565b905060200201356040518263ffffffff1660e01b815260040161093f91815260200190565b602060405180830381865afa15801561095c573d6000803e3d6000fd5b505050506040513d601f19601f8201168201806040525081019061098091906156f3565b6001600160a01b0316146109e05760405162461bcd60e51b815260206004820152602160248201527f424d5f464c415348434c41494d5f43414c4c45525f49535f4e4f545f4f574e456044820152602960f91b606482015260840161024a565b6000610a038989878181106109f7576109f7615710565b90506020020135612908565b90506003816101c001516003811115610a1e57610a1e6152c5565b1415610a6c5760405162461bcd60e51b815260206004820152601a60248201527f424d5f464c415348434c41494d5f5354415455535f4552524f52000000000000604482015260640161024a565b8060200151838681518110610a8357610a83615710565b60200260200101906001600160a01b031690816001600160a01b0316815250508060400151828681518110610aba57610aba615710565b60209081029190910101525083610ad08161573c565b945050610866565b600093505b86841015610b8c57818481518110610af757610af7615710565b60200260200101516001600160a01b03166342842e0e308b848881518110610b2157610b21615710565b60200260200101516040518463ffffffff1660e01b8152600401610b4793929190615757565b600060405180830381600087803b158015610b6157600080fd5b505af1158015610b75573d6000803e3d6000fd5b505050508380610b849061573c565b945050610add565b604051628e896f60e41b81526001600160a01b038416906308e896f090610bc19085908590339030908d908d906004016157a4565b6020604051808303816000875af1158015610be0573d6000803e3d6000fd5b505050506040513d601f19601f82011682018060405250810190610c04919061586d565b610c505760405162461bcd60e51b815260206004820152601c60248201527f424d5f464c415348434c41494d5f4558454355544f525f4552524f5200000000604482015260640161024a565b600093505b86841015610d8d57818481518110610c6f57610c6f615710565b60200260200101516001600160a01b03166342842e0e8a30848881518110610c9957610c99615710565b60200260200101516040518463ffffffff1660e01b8152600401610cbf93929190615757565b600060405180830381600087803b158015610cd957600080fd5b505af1158015610ced573d6000803e3d6000fd5b50505050808481518110610d0357610d03615710565b6020026020010151828581518110610d1d57610d1d615710565b60200260200101516001600160a01b03168a6001600160a01b03167f6bac1c66016500cd7b62d69e86268760baac6cd34a70003af66ffa8a97983216610d603390565b6040516001600160a01b03909116815260200160405180910390a483610d858161573c565b945050610c55565b505050505050505050565b6001600160a01b038216600090815260036020908152604080832084845290915281205460ff16158015610de457506001600160a01b0383166000908152600260205260409020548210155b9392505050565b600081815260056020818152604080842081516101e0810183528154815260018201546001600160a01b039081169482019490945260028201549281019290925260038082015460608401526004820154841660808401529381015460a083015260068101546001600160801b0380821660c0850152600160801b9091041660e0830152600781015480841661010084015264ffffffffff600160a01b82048116610120850152600160c81b90910481166101408401526008820154808216610160850152650100000000008104909116610180840152600160501b81049093166101a08301528493919290916101c084019160ff600160f01b9091041690811115610ef957610ef96152c5565b6003811115610f0a57610f0a6152c5565b815250509050600081610160015164ffffffffff164210610f2b5742610f39565b81610160015164ffffffffff165b9050610f71610f5d83610140015164ffffffffff1683613c9c90919063ffffffff16565b60e08401516001600160801b031690613ca8565b949350505050565b60026001541415610f9c5760405162461bcd60e51b815260040161024a90615888565b60026001556000818152600560205260409020548190610fce5760405162461bcd60e51b815260040161024a906158bf565b6000610fd983612908565b905060007f00000000000000000000000000000000000000000000000000000000000000006001600160a01b0316631755ff216040518163ffffffff1660e01b8152600401602060405180830381865afa15801561103b573d6000803e3d6000fd5b505050506040513d601f19601f8201168201806040525081019061105f91906156f3565b82516040516391541e0560e01b81526001600160a01b0392909216916391541e05916110919160040190815260200190565b61018060405180830381865afa1580156110af573d6000803e3d6000fd5b505050506040513d601f19601f820116820180604052508101906110d3919061590c565b6020015190507f00000000000000000000000000000000000000000000000000000000000000006001600160a01b0316816001600160a01b03161461115a5760405162461bcd60e51b815260206004820152601c60248201527f424d5f52455041595f4554485f41535345545f4e4f545f4d4154434800000000604482015260640161024a565b6001826101c001516003811115611173576111736152c5565b148061119557506002826101c001516003811115611193576111936152c5565b145b6111d95760405162461bcd60e51b81526020600482015260156024820152742126afa922a820acafa9aa20aa2aa9afa2a92927a960591b604482015260640161024a565b6000806111e586613d64565b91509150816001600160a01b03166111fa3390565b6001600160a01b0316146112505760405162461bcd60e51b815260206004820152601d60248201527f424d5f52455041595f4e4f545f424f52524f575f4e46545f4f574e4552000000604482015260640161024a565b600080600061125e89613f50565b925092509250823410156112b45760405162461bcd60e51b815260206004820152601d60248201527f424d5f52455041595f4554485f494e5055545f4e4f545f454e4f554748000000604482015260640161024a565b7f00000000000000000000000000000000000000000000000000000000000000006001600160a01b031663d0e30db0846040518263ffffffff1660e01b81526004016000604051808303818588803b15801561130f57600080fd5b505af1158015611323573d6000803e3d6000fd5b5050505050856001600160a01b031663095ea7b37f00000000000000000000000000000000000000000000000000000000000000006001600160a01b0316631755ff216040518163ffffffff1660e01b8152600401602060405180830381865afa158015611395573d6000803e3d6000fd5b505050506040513d601f19601f820116820180604052508101906113b991906156f3565b6040516001600160e01b031960e084901b1681526001600160a01b039091166004820152602481018590526044016020604051808303816000875af1158015611406573d6000803e3d6000fd5b505050506040513d601f19601f8201168201806040525081019061142a919061586d565b507f00000000000000000000000000000000000000000000000000000000000000006001600160a01b0316631755ff216040518163ffffffff1660e01b8152600401602060405180830381865afa158015611489573d6000803e3d6000fd5b505050506040513d601f19601f820116820180604052508101906114ad91906156f3565b875160405163e78f094960e01b81526004810191909152602481018490526001600160a01b03868116604483015260006064830152919091169063e78f094990608401600060405180830381600087803b15801561150a57600080fd5b505af115801561151e573d6000803e3d6000fd5b5050505060008111156115c1576115c17f00000000000000000000000000000000000000000000000000000000000000006001600160a01b0316633d6a38446040518163ffffffff1660e01b8152600401602060405180830381865afa15801561158c573d6000803e3d6000fd5b505050506040513d601f19601f820116820180604052508101906115b091906156f3565b6001600160a01b0388169083614024565b6115da876020015130878a604001518b6060015161408c565b6115e8898860200151614273565b8234111561160357611603336115fe85346159d5565b6144d8565b60405133908a907f82569af5d9f2daff073ff0831c749b4d63b0b482446f46f2cf79d7df8f0720b190600090a350506001805550505050505050565b8061168c5760405162461bcd60e51b815260206004820152601960248201527f424d5f43414e43454c5f43414e4e4f545f42455f454d50545900000000000000604482015260640161024a565b60005b8181101561174157336000908152600260205260409020548383838181106116b9576116b9615710565b9050602002013510156116de5760405162461bcd60e51b815260040161024a906159ec565b33600090815260036020526040812060019185858581811061170257611702615710565b90506020020135815260200190815260200160002060006101000a81548160ff02191690831515021790555080806117399061573c565b91505061168f565b50336001600160a01b03167fac0004ba1a2ea62c1d6de00ade33246fa25432a7148f9e20cce8d9fea7493aa1838360405161177d929190615a64565b60405180910390a25050565b600260015414156117ac5760405162461bcd60e51b815260040161024a90615888565b600260015560008181526005602052604090205481906117de5760405162461bcd60e51b815260040161024a906158bf565b60006117e983612908565b90506001816101c001516003811115611804576118046152c5565b148061182657506002816101c001516003811115611824576118246152c5565b145b61186a5760405162461bcd60e51b81526020600482015260156024820152742126afa922a820acafa9aa20aa2aa9afa2a92927a960591b604482015260640161024a565b60008061187685613d64565b91509150816001600160a01b031661188b3390565b6001600160a01b0316146118e15760405162461bcd60e51b815260206004820152601d60248201527f424d5f52455041595f4e4f545f424f52524f575f4e46545f4f574e4552000000604482015260640161024a565b60008060006118ef88613f50565b92509250925060007f00000000000000000000000000000000000000000000000000000000000000006001600160a01b0316631755ff216040518163ffffffff1660e01b8152600401602060405180830381865afa158015611955573d6000803e3d6000fd5b505050506040513d601f19601f8201168201806040525081019061197991906156f3565b87516040516391541e0560e01b81526001600160a01b0392909216916391541e05916119ab9160040190815260200190565b61018060405180830381865afa1580156119c9573d6000803e3d6000fd5b505050506040513d601f19601f820116820180604052508101906119ed919061590c565b602001519050611a086001600160a01b038216333087614574565b806001600160a01b031663095ea7b37f00000000000000000000000000000000000000000000000000000000000000006001600160a01b0316631755ff216040518163ffffffff1660e01b8152600401602060405180830381865afa158015611a75573d6000803e3d6000fd5b505050506040513d601f19601f82011682018060405250810190611a9991906156f3565b6040516001600160e01b031960e084901b1681526001600160a01b039091166004820152602481018690526044016020604051808303816000875af1158015611ae6573d6000803e3d6000fd5b505050506040513d601f19601f82011682018060405250810190611b0a919061586d565b507f00000000000000000000000000000000000000000000000000000000000000006001600160a01b0316631755ff216040518163ffffffff1660e01b8152600401602060405180830381865afa158015611b69573d6000803e3d6000fd5b505050506040513d601f19601f82011682018060405250810190611b8d91906156f3565b875160405163e78f094960e01b81526004810191909152602481018590526001600160a01b03878116604483015260006064830152919091169063e78f094990608401600060405180830381600087803b158015611bea57600080fd5b505af1158015611bfe573d6000803e3d6000fd5b505050506000821115611ca157611ca17f00000000000000000000000000000000000000000000000000000000000000006001600160a01b0316633d6a38446040518163ffffffff1660e01b8152600401602060405180830381865afa158015611c6c573d6000803e3d6000fd5b505050506040513d601f19601f82011682018060405250810190611c9091906156f3565b6001600160a01b0383169084614024565b611cba876020015130888a604001518b6060015161408c565b611cc8898860200151614273565b60405133908a907f2469cc9e12e74c63438d5b1117b318cd3a4cdaf9d659d9eac6d975d14d96325490600090a350506001805550505050505050565b60007f00000000000000000000000000000000000000000000000000000000000000006001600160a01b0316639a9dbb996040518163ffffffff1660e01b8152600401602060405180830381865afa158015611d64573d6000803e3d6000fd5b505050506040513d601f19601f82011682018060405250810190611d8891906156f3565b90506001600160a01b038116632500f2b6336040516001600160e01b031960e084901b1681526001600160a01b039091166004820152602401602060405180830381865afa158015611dde573d6000803e3d6000fd5b505050506040513d601f19601f82011682018060405250810190611e02919061586d565b611e1e5760405162461bcd60e51b815260040161024a90615a78565b611e26614595565b50565b60007f00000000000000000000000000000000000000000000000000000000000000006001600160a01b0316639a9dbb996040518163ffffffff1660e01b8152600401602060405180830381865afa158015611e89573d6000803e3d6000fd5b505050506040513d601f19601f82011682018060405250810190611ead91906156f3565b90506001600160a01b038116639078c85a336040516001600160e01b031960e084901b1681526001600160a01b039091166004820152602401602060405180830381865afa158015611f03573d6000803e3d6000fd5b505050506040513d601f19601f82011682018060405250810190611f27919061586d565b611f435760405162461bcd60e51b815260040161024a90615abc565b611f576001600160a01b0385168484614024565b826001600160a01b0316846001600160a01b03167f81275949a17d84915b61eeb24587a501cc8863011afba1ed12f3f6c5bdfd6a2184604051611f9c91815260200190565b60405180910390a350505050565b600054600160a01b900460ff1615611fd45760405162461bcd60e51b815260040161024a90615b01565b60026001541415611ff75760405162461bcd60e51b815260040161024a90615888565b6002600155604051629a9c4360e61b815260009073d809e473C4Dd543E1Ae4D635aAb6D139E6bf89Ae906326a710c090612035908790600401615c1b565b602060405180830381865af4158015612052573d6000803e3d6000fd5b505050506040513d601f19601f820116820180604052508101906120769190615c2a565b905073d809e473C4Dd543E1Ae4D635aAb6D139E6bf89Ae63f1085dec6003600287857f000000000000000000000000000000000000000000000000000000000000000089896120c3614632565b7f00000000000000000000000000000000000000000000000000000000000000007f00000000000000000000000000000000000000000000000000000000000000006040518b63ffffffff1660e01b815260040161212a9a99989796959493929190615c43565b60006040518083038186803b15801561214257600080fd5b505af4158015612156573d6000803e3d6000fd5b5050506080850180516001600160a01b031660009081526003602090815260408083206101608a01518452825291829020805460ff1916600117905587015191519087015160608801516121ad945030919061408c565b60007f00000000000000000000000000000000000000000000000000000000000000006001600160a01b0316631755ff216040518163ffffffff1660e01b8152600401602060405180830381865afa15801561220d573d6000803e3d6000fd5b505050506040513d601f19601f8201168201806040525081019061223191906156f3565b85516040516391541e0560e01b81526001600160a01b0392909216916391541e05916122639160040190815260200190565b61018060405180830381865afa158015612281573d6000803e3d6000fd5b505050506040513d601f19601f820116820180604052508101906122a5919061590c565b6040015190506000806122c48760000151846122be3390565b896146d7565b909250905081156123d3576122e46001600160a01b038416333085614574565b7f00000000000000000000000000000000000000000000000000000000000000006001600160a01b0316631755ff216040518163ffffffff1660e01b8152600401602060405180830381865afa158015612342573d6000803e3d6000fd5b505050506040513d601f19601f8201168201806040525081019061236691906156f3565b8751604051630ad58d2f60e01b81526004810191909152602481018490523060448201526001600160a01b039190911690630ad58d2f90606401600060405180830381600087803b1580156123ba57600080fd5b505af11580156123ce573d6000803e3d6000fd5b505050505b80156124b0578034101561243b5760405162461bcd60e51b815260206004820152602960248201527f424d5f54414b455f424f52524f575f4f464645525f4554485f494e5055545f4e60448201526809ea8be8a9c9eaa8e960bb1b606482015260840161024a565b7f00000000000000000000000000000000000000000000000000000000000000006001600160a01b031663d0e30db0826040518263ffffffff1660e01b81526004016000604051808303818588803b15801561249657600080fd5b505af11580156124aa573d6000803e3d6000fd5b50505050505b6040516370a0823160e01b815230600482015286907f00000000000000000000000000000000000000000000000000000000000000006001600160a01b0316906370a0823190602401602060405180830381865afa158015612516573d6000803e3d6000fd5b505050506040513d601f19601f8201168201806040525081019061253a9190615c2a565b101561259c5760405162461bcd60e51b815260206004820152602b60248201527f424d5f54414b455f424f52524f575f4f464645525f4554485f42414c414e434560448201526a0be9c9ea8be8a9c9eaa8e960ab1b606482015260840161024a565b60808701516040516323b872dd60e01b81526001600160a01b037f000000000000000000000000000000000000000000000000000000000000000016916323b872dd916125ef9130918b90600401615757565b6020604051808303816000875af115801561260e573d6000803e3d6000fd5b505050506040513d601f19601f82011682018060405250810190612632919061586d565b50600061264e88608001516126443390565b8a60200151614886565b6040516354df411f60e11b815290915073d809e473C4Dd543E1Ae4D635aAb6D139E6bf89Ae9063a9be823e906126b3906005908c9086908d908d907f000000000000000000000000000000000000000000000000000000000000000090600401615cad565b60006040518083038186803b1580156126cb57600080fd5b505af41580156126df573d6000803e3d6000fd5b50505050813411156127055760006126f783346159d5565b905061270333826144d8565b505b60808801516001600160a01b0316336001600160a01b0316827f1298f52246b94f327bb70ed663bf430fd6572492014c2556c7295f586049352c888c610160015160405161275d929190918252602082015260400190565b60405180910390a4505060018055505050505050565b600081815260056020818152604080842081516101e0810183528154815260018201546001600160a01b039081169482019490945260028201549281019290925260038082015460608401526004820154841660808401529381015460a083015260068101546001600160801b0380821660c0850152600160801b9091041660e0830152600781015480841661010084015264ffffffffff600160a01b82048116610120850152600160c81b90910481166101408401526008820154808216610160850152650100000000008104909116610180840152600160501b81049093166101a08301528493919290916101c084019160ff600160f01b9091041690811115612881576128816152c5565b6003811115612892576128926152c5565b905250600084815260056020526040902060080154909150600160f01b900460ff1660018160038111156128c8576128c86152c5565b1415610de4574282610180015164ffffffffff1610156128ea57506003610de4565b4282610160015164ffffffffff161015610de4575060029392505050565b612985604080516101e081018252600080825260208201819052918101829052606081018290526080810182905260a0810182905260c0810182905260e08101829052610100810182905261012081018290526101408101829052610160810182905261018081018290526101a08101829052906101c082015290565b600082815260056020818152604080842081516101e0810183528154815260018201546001600160a01b039081169482019490945260028201549281019290925260038082015460608401526004820154841660808401529381015460a083015260068101546001600160801b0380821660c0850152600160801b9091041660e08301526007810154808416610100840152600160a01b810464ffffffffff908116610120850152600160c81b90910481166101408401526008820154808216610160850152650100000000008104909116610180840152600160501b81049093166101a0830152909290916101c0840191600160f01b90910460ff1690811115612a9257612a926152c5565b6003811115612aa357612aa36152c5565b9052509050612ab183612773565b816101c001906003811115612ac857612ac86152c5565b90816003811115612adb57612adb6152c5565b90525092915050565b60006107cd612af283610deb565b6000848152600560208190526040909120015490614aa4565b6000546001600160a01b03163314612b655760405162461bcd60e51b815260206004820181905260248201527f4f776e61626c653a2063616c6c6572206973206e6f7420746865206f776e6572604482015260640161024a565b612b6f6000614ab0565b565b60007f00000000000000000000000000000000000000000000000000000000000000006001600160a01b0316639a9dbb996040518163ffffffff1660e01b8152600401602060405180830381865afa158015612bd1573d6000803e3d6000fd5b505050506040513d601f19601f82011682018060405250810190612bf591906156f3565b90506001600160a01b038116632500f2b6336040516001600160e01b031960e084901b1681526001600160a01b039091166004820152602401602060405180830381865afa158015612c4b573d6000803e3d6000fd5b505050506040513d601f19601f82011682018060405250810190612c6f919061586d565b612c8b5760405162461bcd60e51b815260040161024a90615a78565b611e26614b00565b336000908152600260205260409020548111612cc15760405162461bcd60e51b815260040161024a906159ec565b33600090815260026020526040902054612cde906207a120615cf3565b8110612d2c5760405162461bcd60e51b815260206004820152601c60248201527f424d5f43414e43454c5f43414e4e4f545f43414e43454c5f4d4f524500000000604482015260640161024a565b3360008181526002602052604090819020839055517f3472ca53ce86826d0cf2457fc20b0aadb9ff559e29da4c38e37e98fb8edd966d90612d709084815260200190565b60405180910390a250565b600054600160a01b900460ff1615612da55760405162461bcd60e51b815260040161024a90615b01565b60026001541415612dc85760405162461bcd60e51b815260040161024a90615888565b60026001556000818152600560205260409020548190612dfa5760405162461bcd60e51b815260040161024a906158bf565b6000612e0583612908565b90506003816101c001516003811115612e2057612e206152c5565b14612e6d5760405162461bcd60e51b815260206004820152601960248201527f424d5f464f5245434c4f53455f5354415455535f4552524f5200000000000000604482015260640161024a565b6000612e7884613d64565b915050612e94826020015130838560400151866060015161408c565b612ea2848360200151614273565b604051339085907ee238c49f37203eb7f8f1b247198f719d692924475beb17ffb2791f4a02599190600090a35050600180555050565b600080612ee483612908565b905060006002826101c001516003811115612f0157612f016152c5565b1415610de457610f717f00000000000000000000000000000000000000000000000000000000000000006001600160a01b031663d7a5a9d36040518163ffffffff1660e01b8152600401602060405180830381865afa158015612f68573d6000803e3d6000fd5b505050506040513d601f19601f82011682018060405250810190612f8c9190615c2a565b60a084015190614b65565b60007f00000000000000000000000000000000000000000000000000000000000000006001600160a01b0316639a9dbb996040518163ffffffff1660e01b8152600401602060405180830381865afa158015612ff7573d6000803e3d6000fd5b505050506040513d601f19601f8201168201806040525081019061301b91906156f3565b90506001600160a01b038116632500f2b6336040516001600160e01b031960e084901b1681526001600160a01b039091166004820152602401602060405180830381865afa158015613071573d6000803e3d6000fd5b505050506040513d601f19601f82011682018060405250810190613095919061586d565b6130b15760405162461bcd60e51b815260040161024a90615a78565b6130c56001600160a01b0385168484614024565b50505050565b600054600160a01b900460ff16156130f55760405162461bcd60e51b815260040161024a90615b01565b600260015414156131185760405162461bcd60e51b815260040161024a90615888565b6002600155604051629a9c4360e61b815260009073d809e473C4Dd543E1Ae4D635aAb6D139E6bf89Ae906326a710c090613156908790600401615c1b565b602060405180830381865af4158015613173573d6000803e3d6000fd5b505050506040513d601f19601f820116820180604052508101906131979190615c2a565b905073d809e473C4Dd543E1Ae4D635aAb6D139E6bf89Ae63f1085dec600360028785600089896131c5614632565b7f00000000000000000000000000000000000000000000000000000000000000007f00000000000000000000000000000000000000000000000000000000000000006040518b63ffffffff1660e01b815260040161322c9a99989796959493929190615c43565b60006040518083038186803b15801561324457600080fd5b505af4158015613258573d6000803e3d6000fd5b5050506080850180516001600160a01b031660009081526003602090815260408083206101608a01518452825291829020805460ff1916600117905587015191519087015160608801516132af945030919061408c565b60007f00000000000000000000000000000000000000000000000000000000000000006001600160a01b0316631755ff216040518163ffffffff1660e01b8152600401602060405180830381865afa15801561330f573d6000803e3d6000fd5b505050506040513d601f19601f8201168201806040525081019061333391906156f3565b85516040516391541e0560e01b81526001600160a01b0392909216916391541e05916133659160040190815260200190565b61018060405180830381865afa158015613383573d6000803e3d6000fd5b505050506040513d601f19601f820116820180604052508101906133a7919061590c565b90506000806133c0876000015184604001516122be3390565b909250905081156135d55760007f00000000000000000000000000000000000000000000000000000000000000006001600160a01b0316631755ff216040518163ffffffff1660e01b8152600401602060405180830381865afa15801561342b573d6000803e3d6000fd5b505050506040513d601f19601f8201168201806040525081019061344f91906156f3565b88516040516391541e0560e01b81526001600160a01b0392909216916391541e05916134819160040190815260200190565b61018060405180830381865afa15801561349f573d6000803e3d6000fd5b505050506040513d601f19601f820116820180604052508101906134c3919061590c565b6040015190506134de6001600160a01b038216333086614574565b7f00000000000000000000000000000000000000000000000000000000000000006001600160a01b0316631755ff216040518163ffffffff1660e01b8152600401602060405180830381865afa15801561353c573d6000803e3d6000fd5b505050506040513d601f19601f8201168201806040525081019061356091906156f3565b885160808a0151604051630ad58d2f60e01b81526004810192909252602482018690526001600160a01b0390811660448301529190911690630ad58d2f90606401600060405180830381600087803b1580156135bb57600080fd5b505af11580156135cf573d6000803e3d6000fd5b50505050505b80156135fa576135fa33608089015160208601516001600160a01b0316919084614574565b600061360b88608001516126443390565b6040516354df411f60e11b815290915073d809e473C4Dd543E1Ae4D635aAb6D139E6bf89Ae9063a9be823e90613670906005908c9086908d908d907f000000000000000000000000000000000000000000000000000000000000000090600401615cad565b60006040518083038186803b15801561368857600080fd5b505af415801561369c573d6000803e3d6000fd5b5050505087608001516001600160a01b03166136b53390565b6001600160a01b0316827f07864953112d55762e87691309f2d6b84b5ea1771fbcd70b8a0b6b4474c685bd888c610160015160405161275d929190918252602082015260400190565b60007f00000000000000000000000000000000000000000000000000000000000000006001600160a01b0316639a9dbb996040518163ffffffff1660e01b8152600401602060405180830381865afa15801561375e573d6000803e3d6000fd5b505050506040513d601f19601f8201168201806040525081019061378291906156f3565b90506001600160a01b038116639078c85a336040516001600160e01b031960e084901b1681526001600160a01b039091166004820152602401602060405180830381865afa1580156137d8573d6000803e3d6000fd5b505050506040513d601f19601f820116820180604052508101906137fc919061586d565b6138185760405162461bcd60e51b815260040161024a90615abc565b6001600160a01b0385166000908152600660205260409020541561388c5760405162461bcd60e51b815260206004820152602560248201527f424d5f434c41494d5f4552433732315f41495244524f505f4e4f545f5355505060448201526413d495115160da1b606482015260840161024a565b60005b8281101561392457856001600160a01b03166342842e0e30878787868181106138ba576138ba615710565b905060200201356040518463ffffffff1660e01b81526004016138df93929190615757565b600060405180830381600087803b1580156138f957600080fd5b505af115801561390d573d6000803e3d6000fd5b50505050808061391c9061573c565b91505061388f565b50836001600160a01b0316856001600160a01b03167f6c6b18e67b757c02ba92ef0f54038fc2135767acf9bef174b8780835ff455822858560405161396a929190615a64565b60405180910390a35050505050565b60007f00000000000000000000000000000000000000000000000000000000000000006001600160a01b0316639a9dbb996040518163ffffffff1660e01b8152600401602060405180830381865afa1580156139d9573d6000803e3d6000fd5b505050506040513d601f19601f820116820180604052508101906139fd91906156f3565b90506001600160a01b038116639078c85a336040516001600160e01b031960e084901b1681526001600160a01b039091166004820152602401602060405180830381865afa158015613a53573d6000803e3d6000fd5b505050506040513d601f19601f82011682018060405250810190613a77919061586d565b613a935760405162461bcd60e51b815260040161024a90615abc565b6001600160a01b03891660009081526006602052604090205415613b085760405162461bcd60e51b815260206004820152602660248201527f424d5f434c41494d5f455243313135355f41495244524f505f4e4f545f5355506044820152651413d495115160d21b606482015260840161024a565b604051631759616b60e11b81526001600160a01b038a1690632eb2c2d690613b429030908c908c908c908c908c908c908c90600401615d0b565b600060405180830381600087803b158015613b5c57600080fd5b505af1158015613b70573d6000803e3d6000fd5b50505050876001600160a01b0316896001600160a01b03167fc8144f7a11a69e58de79275b3e7420b4942b4e8318a0e0aa9ccb457c60387b02898989898989604051613bc196959493929190615d60565b60405180910390a3505050505050505050565b6000546001600160a01b03163314613c2e5760405162461bcd60e51b815260206004820181905260248201527f4f776e61626c653a2063616c6c6572206973206e6f7420746865206f776e6572604482015260640161024a565b6001600160a01b038116613c935760405162461bcd60e51b815260206004820152602660248201527f4f776e61626c653a206e6577206f776e657220697320746865207a65726f206160448201526564647265737360d01b606482015260840161024a565b611e2681614ab0565b6000610de482846159d5565b6000821580613cb5575081155b15613cc2575060006107cd565b81613cda60026b033b2e3c9fd0803ce8000000615da9565b613ce6906000196159d5565b613cf09190615da9565b8311156040518060400160405280600381526020016203130360ec1b81525090613d2d5760405162461bcd60e51b815260040161024a9190615df7565b506b033b2e3c9fd0803ce8000000613d46600282615da9565b613d508486615e2a565b613d5a9190615cf3565b610de49190615da9565b6000807f00000000000000000000000000000000000000000000000000000000000000006001600160a01b031663b39348386040518163ffffffff1660e01b8152600401602060405180830381865afa158015613dc5573d6000803e3d6000fd5b505050506040513d601f19601f82011682018060405250810190613de991906156f3565b6001600160a01b0316636352211e846040518263ffffffff1660e01b8152600401613e1691815260200190565b602060405180830381865afa158015613e33573d6000803e3d6000fd5b505050506040513d601f19601f82011682018060405250810190613e5791906156f3565b90507f00000000000000000000000000000000000000000000000000000000000000006001600160a01b031663bb322a836040518163ffffffff1660e01b8152600401602060405180830381865afa158015613eb7573d6000803e3d6000fd5b505050506040513d601f19601f82011682018060405250810190613edb91906156f3565b6001600160a01b0316636352211e846040518263ffffffff1660e01b8152600401613f0891815260200190565b602060405180830381865afa158015613f25573d6000803e3d6000fd5b505050506040513d601f19601f82011682018060405250810190613f4991906156f3565b9150915091565b600080600080613f5f85612ed8565b9050613f7481613f6e87612ae4565b90614aa4565b935061400e7f00000000000000000000000000000000000000000000000000000000000000006001600160a01b0316634322b7146040518163ffffffff1660e01b8152600401602060405180830381865afa158015613fd7573d6000803e3d6000fd5b505050506040513d601f19601f82011682018060405250810190613ffb9190615c2a565b61400883613f6e89610deb565b90614b65565b915061401a8483613c9c565b9250509193909250565b6040516001600160a01b03831660248201526044810182905261408790849063a9059cbb60e01b906064015b60408051601f198184030181529190526020810180516001600160e01b03166001600160e01b031990931692909217909152614bef565b505050565b6040516301ffc9a760e01b81526380ac58cd60e01b60048201526001600160a01b038616906301ffc9a790602401602060405180830381865afa1580156140d7573d6000803e3d6000fd5b505050506040513d601f19601f820116820180604052508101906140fb919061586d565b1561416757604051632142170760e11b81526001600160a01b038616906342842e0e9061413090879087908790600401615757565b600060405180830381600087803b15801561414a57600080fd5b505af115801561415e573d6000803e3d6000fd5b5050505061426c565b6040516301ffc9a760e01b8152636cdb3d1360e11b60048201526001600160a01b038616906301ffc9a790602401602060405180830381865afa1580156141b2573d6000803e3d6000fd5b505050506040513d601f19601f820116820180604052508101906141d6919061586d565b1561422d57604051637921219560e11b81526001600160a01b0385811660048301528481166024830152604482018490526064820183905260a06084830152600060a483015286169063f242432a9060c401614130565b60405162461bcd60e51b8152602060048201526014602482015273109357d3919517d393d517d4d5541413d495115160621b604482015260640161024a565b5050505050565b7f00000000000000000000000000000000000000000000000000000000000000006001600160a01b031663bb322a836040518163ffffffff1660e01b8152600401602060405180830381865afa1580156142d1573d6000803e3d6000fd5b505050506040513d601f19601f820116820180604052508101906142f591906156f3565b6001600160a01b03166342966c68836040518263ffffffff1660e01b815260040161432291815260200190565b600060405180830381600087803b15801561433c57600080fd5b505af1158015614350573d6000803e3d6000fd5b505050507f00000000000000000000000000000000000000000000000000000000000000006001600160a01b031663b39348386040518163ffffffff1660e01b8152600401602060405180830381865afa1580156143b2573d6000803e3d6000fd5b505050506040513d601f19601f820116820180604052508101906143d691906156f3565b6001600160a01b03166342966c68836040518263ffffffff1660e01b815260040161440391815260200190565b600060405180830381600087803b15801561441d57600080fd5b505af1158015614431573d6000803e3d6000fd5b505050506001600160a01b038116600090815260066020526040812080546001929061445e9084906159d5565b909155505050600090815260056020819052604082208281556001810180546001600160a01b03199081169091556002820184905560038201849055600482018054909116905590810182905560068101919091556007810180546001600160f01b031916905560080180546001600160f81b0319169055565b6000826001600160a01b03168260405160006040518083038185875af1925050503d8060008114614525576040519150601f19603f3d011682016040523d82523d6000602084013e61452a565b606091505b50509050806140875760405162461bcd60e51b8152602060048201526016602482015275109357d1551217d514905394d1915497d1905253115160521b604482015260640161024a565b6130c5846323b872dd60e01b85858560405160240161405093929190615757565b600054600160a01b900460ff166145e55760405162461bcd60e51b815260206004820152601460248201527314185d5cd8589b194e881b9bdd081c185d5cd95960621b604482015260640161024a565b6000805460ff60a01b191690557f5db9ee0a495bf2e6ff9c91a7834c1ba4fdd244a5e8aa4e537bd38aeae4b073aa335b6040516001600160a01b03909116815260200160405180910390a1565b604080517f8b73c3c69bb8fe3d512ecc4cf759cc79239f7b179b0ffacaa9a75d522b39400f60208201527ff0cf7ce475272740cae17eb3cadd6d254800be81c53f84a2f273b99036471c62918101919091527fc89efdaa54c0f20c7adf612882df0950f5a951637e0307cdcb4c672f298b8bc660608201524660808201523060a082015260009060c00160405160208183030381529060405280519060200120905090565b6040516370a0823160e01b81526001600160a01b03838116600483015260009182918291908716906370a0823190602401602060405180830381865afa158015614725573d6000803e3d6000fd5b505050506040513d601f19601f820116820180604052508101906147499190615c2a565b905060007f00000000000000000000000000000000000000000000000000000000000000006001600160a01b0316631755ff216040518163ffffffff1660e01b8152600401602060405180830381865afa1580156147ab573d6000803e3d6000fd5b505050506040513d601f19601f820116820180604052508101906147cf91906156f3565b6001600160a01b0316630aad628b896040518263ffffffff1660e01b81526004016147fc91815260200190565b602060405180830381865afa158015614819573d6000803e3d6000fd5b505050506040513d601f19601f8201168201806040525081019061483d9190615c2a565b905081811161484c578061484e565b815b915084821061485d578461485f565b815b935084821061486f576000614879565b6148798583613c9c565b9250505094509492505050565b600060045460016148979190615cf3565b60048181556040805163bb322a8360e01b815290516001600160a01b037f0000000000000000000000000000000000000000000000000000000000000000169263bb322a83928082019260209290918290030181865afa1580156148ff573d6000803e3d6000fd5b505050506040513d601f19601f8201168201806040525081019061492391906156f3565b6040516394bf804d60e01b8152600481018390526001600160a01b03878116602483015291909116906394bf804d90604401600060405180830381600087803b15801561496f57600080fd5b505af1158015614983573d6000803e3d6000fd5b505050507f00000000000000000000000000000000000000000000000000000000000000006001600160a01b031663b39348386040518163ffffffff1660e01b8152600401602060405180830381865afa1580156149e5573d6000803e3d6000fd5b505050506040513d601f19601f82011682018060405250810190614a0991906156f3565b6040516394bf804d60e01b8152600481018390526001600160a01b03868116602483015291909116906394bf804d90604401600060405180830381600087803b158015614a5557600080fd5b505af1158015614a69573d6000803e3d6000fd5b505050506001600160a01b0383166000908152600660205260408120805460019290614a96908490615cf3565b909155509095945050505050565b6000610de48284615cf3565b600080546001600160a01b038381166001600160a01b0319831681178455604051919092169283917f8be0079c531659141344cd1fd0a4f28419497f9722a3daafe3b4186f6b6457e09190a35050565b600054600160a01b900460ff1615614b2a5760405162461bcd60e51b815260040161024a90615b01565b6000805460ff60a01b1916600160a01b1790557f62e78cea01bee320cd4e420270b5ea74000d11b0c9f74754ebdbfc544b05a2586146153390565b6000821580614b72575081155b15614b7f575060006107cd565b81614b8d6002612710615da9565b614b99906000196159d5565b614ba39190615da9565b8311156040518060400160405280600381526020016203130360ec1b81525090614be05760405162461bcd60e51b815260040161024a9190615df7565b50612710613d46600282615da9565b6000614c44826040518060400160405280602081526020017f5361666545524332303a206c6f772d6c6576656c2063616c6c206661696c6564815250856001600160a01b0316614cc19092919063ffffffff16565b8051909150156140875780806020019051810190614c62919061586d565b6140875760405162461bcd60e51b815260206004820152602a60248201527f5361666545524332303a204552433230206f7065726174696f6e20646964206e6044820152691bdd081cdd58d8d9595960b21b606482015260840161024a565b6060610f71848460008585843b614d1a5760405162461bcd60e51b815260206004820152601d60248201527f416464726573733a2063616c6c20746f206e6f6e2d636f6e7472616374000000604482015260640161024a565b600080866001600160a01b03168587604051614d369190615e49565b60006040518083038185875af1925050503d8060008114614d73576040519150601f19603f3d011682016040523d82523d6000602084013e614d78565b606091505b5091509150614d88828286614d93565b979650505050505050565b60608315614da2575081610de4565b825115614db25782518084602001fd5b8160405162461bcd60e51b815260040161024a9190615df7565b600060208284031215614dde57600080fd5b81356001600160e01b031981168114610de457600080fd5b6001600160a01b0381168114611e2657600080fd5b8035614e1681614df6565b919050565b60008083601f840112614e2d57600080fd5b5081356001600160401b03811115614e4457600080fd5b6020830191508360208260051b8501011115614e5f57600080fd5b9250929050565b60008083601f840112614e7857600080fd5b5081356001600160401b03811115614e8f57600080fd5b602083019150836020828501011115614e5f57600080fd5b600080600080600060608688031215614ebf57600080fd5b8535614eca81614df6565b945060208601356001600160401b0380821115614ee657600080fd5b614ef289838a01614e1b565b90965094506040880135915080821115614f0b57600080fd5b50614f1888828901614e66565b969995985093965092949392505050565b60008060408385031215614f3c57600080fd5b8235614f4781614df6565b946020939093013593505050565b634e487b7160e01b600052604160045260246000fd5b60405161020081016001600160401b0381118282101715614f8e57614f8e614f55565b60405290565b60405161018081016001600160401b0381118282101715614f8e57614f8e614f55565b604051601f8201601f191681016001600160401b0381118282101715614fdf57614fdf614f55565b604052919050565b600082601f830112614ff857600080fd5b81356001600160401b0381111561501157615011614f55565b615024601f8201601f1916602001614fb7565b81815284602083860101111561503957600080fd5b816020850160208301376000918101602001919091529392505050565b6000806000806080858703121561506c57600080fd5b843561507781614df6565b9350602085013561508781614df6565b92506040850135915060608501356001600160401b038111156150a957600080fd5b6150b587828801614fe7565b91505092959194509250565b6000602082840312156150d357600080fd5b5035919050565b600080602083850312156150ed57600080fd5b82356001600160401b0381111561510357600080fd5b61510f85828601614e1b565b90969095509350505050565b60008060006060848603121561513057600080fd5b833561513b81614df6565b9250602084013561514b81614df6565b929592945050506040919091013590565b64ffffffffff81168114611e2657600080fd5b8035614e168161515c565b6001600160801b0381168114611e2657600080fd5b8035614e168161517a565b803560ff81168114614e1657600080fd5b60008060008385036102408112156151c257600080fd5b610200808212156151d257600080fd5b6151da614f6b565b9150853582526151ec60208701614e0b565b6020830152604086013560408301526060860135606083015261521160808701614e0b565b608083015260a086013560a083015260c086013560c083015261523660e0870161516f565b60e083015261010061524981880161516f565b9083015261012061525b87820161518f565b9083015261014061526d878201614e0b565b90830152610160868101359083015261018080870135908301526101a061529581880161519a565b908301526101c086810135908301526101e080870135908301529096908501359550610220909401359392505050565b634e487b7160e01b600052602160045260246000fd5b600481106152f957634e487b7160e01b600052602160045260246000fd5b9052565b602081016107cd82846152db565b815181526020808301516101e083019161532f908401826001600160a01b03169052565b506040830151604083015260608301516060830152608083015161535e60808401826001600160a01b03169052565b5060a083015160a083015260c083015161538360c08401826001600160801b03169052565b5060e083015161539e60e08401826001600160801b03169052565b50610100838101516001600160a01b03908116918401919091526101208085015164ffffffffff90811691850191909152610140808601518216908501526101608086015182169085015261018080860151909116908401526101a080850151909116908301526101c080840151615418828501826152db565b505092915050565b60006020828403121561543257600080fd5b8135610de481614df6565b600082601f83011261544e57600080fd5b813560206001600160401b0382111561546957615469614f55565b8160051b615478828201614fb7565b928352848101820192828101908785111561549257600080fd5b83870192505b84831015614d8857823582529183019190830190615498565b600080600080600060a086880312156154c957600080fd5b85356154d481614df6565b945060208601356154e481614df6565b935060408601356001600160401b038082111561550057600080fd5b61550c89838a0161543d565b9450606088013591508082111561552257600080fd5b61552e89838a0161543d565b9350608088013591508082111561554457600080fd5b5061555188828901614fe7565b9150509295509295909350565b6000806000806060858703121561557457600080fd5b843561557f81614df6565b9350602085013561558f81614df6565b925060408501356001600160401b038111156155aa57600080fd5b6155b687828801614e1b565b95989497509550505050565b60008060008060008060008060a0898b0312156155de57600080fd5b88356155e981614df6565b975060208901356155f981614df6565b965060408901356001600160401b038082111561561557600080fd5b6156218c838d01614e1b565b909850965060608b013591508082111561563a57600080fd5b6156468c838d01614e1b565b909650945060808b013591508082111561565f57600080fd5b5061566c8b828c01614e66565b999c989b5096995094979396929594505050565b600080600080600060a0868803121561569857600080fd5b85356156a381614df6565b945060208601356156b381614df6565b9350604086013592506060860135915060808601356001600160401b038111156156dc57600080fd5b61555188828901614fe7565b8051614e1681614df6565b60006020828403121561570557600080fd5b8151610de481614df6565b634e487b7160e01b600052603260045260246000fd5b634e487b7160e01b600052601160045260246000fd5b600060001982141561575057615750615726565b5060010190565b6001600160a01b039384168152919092166020820152604081019190915260600190565b81835281816020850137506000828201602090810191909152601f909101601f19169091010190565b60a0808252875190820181905260009060209060c0840190828b01845b828110156157e65781516001600160a01b0316845292840192908401906001016157c1565b5050508381038285015288518082528983019183019060005b8181101561581b578351835292840192918401916001016157ff565b50506001600160a01b03891660408601526001600160a01b0388166060860152848103608086015261584e81878961577b565b9b9a5050505050505050505050565b80518015158114614e1657600080fd5b60006020828403121561587f57600080fd5b610de48261585d565b6020808252601f908201527f5265656e7472616e637947756172643a207265656e7472616e742063616c6c00604082015260600190565b60208082526018908201527f424d5f434845434b5f4c4f414e5f4e4f545f4558495354530000000000000000604082015260600190565b8051614e168161517a565b8051614e168161515c565b6000610180828403121561591f57600080fd5b615927614f94565b82518152615937602084016156e8565b6020820152615948604084016156e8565b6040820152615959606084016156e8565b606082015261596a608084016158f6565b608082015260a083015160a082015260c083015160c082015261598f60e08401615901565b60e082015261010083810151908201526101206159ad8185016156e8565b9082015261014083810151908201526101606159ca81850161585d565b908201529392505050565b6000828210156159e7576159e7615726565b500390565b60208082526022908201527f424d5f43414e43454c5f4e4f4e43455f4c4f5745525f5448414e5f4355525245604082015261139560f21b606082015260800190565b81835260006001600160fb1b03831115615a4757600080fd5b8260051b8083602087013760009401602001938452509192915050565b602081526000610f71602083018486615a2e565b60208082526024908201527f424d5f41434c5f4f4e4c595f454d455247454e43595f41444d494e5f43414e5f60408201526310d0531360e21b606082015260800190565b60208082526025908201527f424d5f41434c5f4f4e4c595f41495244524f505f4f50455241544f525f43414e60408201526417d0d0531360da1b606082015260800190565b60208082526010908201526f14185d5cd8589b194e881c185d5cd95960821b604082015260600190565b805182526020810151615b4960208401826001600160a01b03169052565b5060408101516040830152606081015160608301526080810151615b7860808401826001600160a01b03169052565b5060a081015160a083015260c081015160c083015260e0810151615ba560e084018264ffffffffff169052565b506101008181015164ffffffffff1690830152610120808201516001600160801b031690830152610140808201516001600160a01b031690830152610160808201519083015261018080820151908301526101a08082015160ff16908301526101c080820151908301526101e090810151910152565b61020081016107cd8284615b2b565b600060208284031215615c3c57600080fd5b5051919050565b8a8152602081018a90526103208101615c5f604083018b615b2b565b6102408201989098526001600160a01b039687166102608201526102808101959095526102a08501939093526102c084019190915283166102e0830152909116610300909101529392505050565b8681526102a08101615cc26020830188615b2b565b6102208201959095526102408101939093526102608301919091526001600160a01b03166102809091015292915050565b60008219821115615d0657615d06615726565b500190565b6001600160a01b0389811682528816602082015260a060408201819052600090615d38908301888a615a2e565b8281036060840152615d4b818789615a2e565b9050828103608084015261584e81858761577b565b606081526000615d7460608301888a615a2e565b8281036020840152615d87818789615a2e565b90508281036040840152615d9c81858761577b565b9998505050505050505050565b600082615dc657634e487b7160e01b600052601260045260246000fd5b500490565b60005b83811015615de6578181015183820152602001615dce565b838111156130c55750506000910152565b6020815260008251806020840152615e16816040850160208701615dcb565b601f01601f19169190910160400192915050565b6000816000190483118215151615615e4457615e44615726565b500290565b60008251615e5b818460208701615dcb565b919091019291505056fea26469706673582212200401b06d5ef91bdd225c88319437fd0e264b423fa4bfca9f8e56dc8f5334e93e64736f6c634300080a0033",
  "deployedBytecode": "0x6080604052600436106102085760003560e01c8063715018a611610118578063aa99fa98116100a0578063bc6bc0cd1161006f578063bc6bc0cd146106f5578063cae5955314610710578063e3185e1214610730578063f23a6e6114610750578063f2fde38b1461077c57610253565b8063aa99fa9814610634578063ad5c464814610661578063ade97ab514610695578063bc197c81146106c957610253565b80638bf1badd116100e75780638bf1badd146105965780638da5cb5b146105b657806396e59682146105d4578063a3d5b255146105f4578063a63487391461061457610253565b8063715018a61461051f5780638456cb591461053457806384e5cec5146105495780638a1818331461056957610253565b806333bf61561161019b5780635b3ce3241161016a5780635b3ce324146104735780635c622a0e146104865780635c975abb146104b3578063622fe39f146104d25780636b52b365146104ff57610253565b806333bf615614610403578063371fd8e61461041e5780633f4ba83a1461043e5780634f0709161461045357610253565b80631c187495116101d75780631c187495146103565780632247463e1461038457806329c55f06146103975780632f844ea8146103e357610253565b806301ffc9a71461029b57806303282d6e146102d05780630647ee20146102f2578063150b7a021461031257610253565b366102535760405162461bcd60e51b8152602060048201526016602482015275109357d49150d152559157d393d517d0531313d5d15160521b60448201526064015b60405180910390fd5b60405162461bcd60e51b815260206004820152601760248201527f424d5f46414c4c4241434b5f4e4f545f414c4c4f574544000000000000000000604482015260640161024a565b3480156102a757600080fd5b506102bb6102b6366004614dcc565b61079c565b60405190151581526020015b60405180910390f35b3480156102dc57600080fd5b506102f06102eb366004614ea7565b6107d3565b005b3480156102fe57600080fd5b506102bb61030d366004614f29565b610d98565b34801561031e57600080fd5b5061033d61032d366004615056565b630a85bd0160e11b949350505050565b6040516001600160e01b031990911681526020016102c7565b34801561036257600080fd5b506103766103713660046150c1565b610deb565b6040519081526020016102c7565b6102f06103923660046150c1565b610f79565b3480156103a357600080fd5b506103cb7f000000000000000000000000000000000000000000000000000000000000000081565b6040516001600160a01b0390911681526020016102c7565b3480156103ef57600080fd5b506102f06103fe3660046150da565b61163f565b34801561040f57600080fd5b5061033d636cdb3d1360e11b81565b34801561042a57600080fd5b506102f06104393660046150c1565b611789565b34801561044a57600080fd5b506102f0611d04565b34801561045f57600080fd5b506102f061046e36600461511b565b611e29565b6102f06104813660046151ab565b611faa565b34801561049257600080fd5b506104a66104a13660046150c1565b612773565b6040516102c791906152fd565b3480156104bf57600080fd5b50600054600160a01b900460ff166102bb565b3480156104de57600080fd5b506104f26104ed3660046150c1565b612908565b6040516102c7919061530b565b34801561050b57600080fd5b5061037661051a3660046150c1565b612ae4565b34801561052b57600080fd5b506102f0612b0b565b34801561054057600080fd5b506102f0612b71565b34801561055557600080fd5b506102f06105643660046150c1565b612c93565b34801561057557600080fd5b50610376610584366004615420565b60066020526000908152604090205481565b3480156105a257600080fd5b506102f06105b13660046150c1565b612d7b565b3480156105c257600080fd5b506000546001600160a01b03166103cb565b3480156105e057600080fd5b506103766105ef3660046150c1565b612ed8565b34801561060057600080fd5b506102f061060f36600461511b565b612f97565b34801561062057600080fd5b506102f061062f3660046151ab565b6130cb565b34801561064057600080fd5b5061037661064f366004615420565b60026020526000908152604090205481565b34801561066d57600080fd5b506103cb7f000000000000000000000000000000000000000000000000000000000000000081565b3480156106a157600080fd5b506103cb7f000000000000000000000000000000000000000000000000000000000000000081565b3480156106d557600080fd5b5061033d6106e43660046154b1565b63bc197c8160e01b95945050505050565b34801561070157600080fd5b5061033d6380ac58cd60e01b81565b34801561071c57600080fd5b506102f061072b36600461555e565b6136fe565b34801561073c57600080fd5b506102f061074b3660046155c2565b613979565b34801561075c57600080fd5b5061033d61076b366004615680565b63f23a6e6160e01b95945050505050565b34801561078857600080fd5b506102f0610797366004615420565b613bd4565b60006001600160e01b03198216630271189760e51b14806107cd57506301ffc9a760e01b6001600160e01b03198316145b92915050565b60008581856001600160401b038111156107ef576107ef614f55565b604051908082528060200260200182016040528015610818578160200160208202803683370190505b5090506000866001600160401b0381111561083557610835614f55565b60405190808252806020026020018201604052801561085e578160200160208202803683370190505b509050600093505b86841015610ad857336001600160a01b03167f00000000000000000000000000000000000000000000000000000000000000006001600160a01b031663bb322a836040518163ffffffff1660e01b8152600401602060405180830381865afa1580156108d6573d6000803e3d6000fd5b505050506040513d601f19601f820116820180604052508101906108fa91906156f3565b6001600160a01b0316636352211e8a8a8881811061091a5761091a615710565b905060200201356040518263ffffffff1660e01b815260040161093f91815260200190565b602060405180830381865afa15801561095c573d6000803e3d6000fd5b505050506040513d601f19601f8201168201806040525081019061098091906156f3565b6001600160a01b0316146109e05760405162461bcd60e51b815260206004820152602160248201527f424d5f464c415348434c41494d5f43414c4c45525f49535f4e4f545f4f574e456044820152602960f91b606482015260840161024a565b6000610a038989878181106109f7576109f7615710565b90506020020135612908565b90506003816101c001516003811115610a1e57610a1e6152c5565b1415610a6c5760405162461bcd60e51b815260206004820152601a60248201527f424d5f464c415348434c41494d5f5354415455535f4552524f52000000000000604482015260640161024a565b8060200151838681518110610a8357610a83615710565b60200260200101906001600160a01b031690816001600160a01b0316815250508060400151828681518110610aba57610aba615710565b60209081029190910101525083610ad08161573c565b945050610866565b600093505b86841015610b8c57818481518110610af757610af7615710565b60200260200101516001600160a01b03166342842e0e308b848881518110610b2157610b21615710565b60200260200101516040518463ffffffff1660e01b8152600401610b4793929190615757565b600060405180830381600087803b158015610b6157600080fd5b505af1158015610b75573d6000803e3d6000fd5b505050508380610b849061573c565b945050610add565b604051628e896f60e41b81526001600160a01b038416906308e896f090610bc19085908590339030908d908d906004016157a4565b6020604051808303816000875af1158015610be0573d6000803e3d6000fd5b505050506040513d601f19601f82011682018060405250810190610c04919061586d565b610c505760405162461bcd60e51b815260206004820152601c60248201527f424d5f464c415348434c41494d5f4558454355544f525f4552524f5200000000604482015260640161024a565b600093505b86841015610d8d57818481518110610c6f57610c6f615710565b60200260200101516001600160a01b03166342842e0e8a30848881518110610c9957610c99615710565b60200260200101516040518463ffffffff1660e01b8152600401610cbf93929190615757565b600060405180830381600087803b158015610cd957600080fd5b505af1158015610ced573d6000803e3d6000fd5b50505050808481518110610d0357610d03615710565b6020026020010151828581518110610d1d57610d1d615710565b60200260200101516001600160a01b03168a6001600160a01b03167f6bac1c66016500cd7b62d69e86268760baac6cd34a70003af66ffa8a97983216610d603390565b6040516001600160a01b03909116815260200160405180910390a483610d858161573c565b945050610c55565b505050505050505050565b6001600160a01b038216600090815260036020908152604080832084845290915281205460ff16158015610de457506001600160a01b0383166000908152600260205260409020548210155b9392505050565b600081815260056020818152604080842081516101e0810183528154815260018201546001600160a01b039081169482019490945260028201549281019290925260038082015460608401526004820154841660808401529381015460a083015260068101546001600160801b0380821660c0850152600160801b9091041660e0830152600781015480841661010084015264ffffffffff600160a01b82048116610120850152600160c81b90910481166101408401526008820154808216610160850152650100000000008104909116610180840152600160501b81049093166101a08301528493919290916101c084019160ff600160f01b9091041690811115610ef957610ef96152c5565b6003811115610f0a57610f0a6152c5565b815250509050600081610160015164ffffffffff164210610f2b5742610f39565b81610160015164ffffffffff165b9050610f71610f5d83610140015164ffffffffff1683613c9c90919063ffffffff16565b60e08401516001600160801b031690613ca8565b949350505050565b60026001541415610f9c5760405162461bcd60e51b815260040161024a90615888565b60026001556000818152600560205260409020548190610fce5760405162461bcd60e51b815260040161024a906158bf565b6000610fd983612908565b905060007f00000000000000000000000000000000000000000000000000000000000000006001600160a01b0316631755ff216040518163ffffffff1660e01b8152600401602060405180830381865afa15801561103b573d6000803e3d6000fd5b505050506040513d601f19601f8201168201806040525081019061105f91906156f3565b82516040516391541e0560e01b81526001600160a01b0392909216916391541e05916110919160040190815260200190565b61018060405180830381865afa1580156110af573d6000803e3d6000fd5b505050506040513d601f19601f820116820180604052508101906110d3919061590c565b6020015190507f00000000000000000000000000000000000000000000000000000000000000006001600160a01b0316816001600160a01b03161461115a5760405162461bcd60e51b815260206004820152601c60248201527f424d5f52455041595f4554485f41535345545f4e4f545f4d4154434800000000604482015260640161024a565b6001826101c001516003811115611173576111736152c5565b148061119557506002826101c001516003811115611193576111936152c5565b145b6111d95760405162461bcd60e51b81526020600482015260156024820152742126afa922a820acafa9aa20aa2aa9afa2a92927a960591b604482015260640161024a565b6000806111e586613d64565b91509150816001600160a01b03166111fa3390565b6001600160a01b0316146112505760405162461bcd60e51b815260206004820152601d60248201527f424d5f52455041595f4e4f545f424f52524f575f4e46545f4f574e4552000000604482015260640161024a565b600080600061125e89613f50565b925092509250823410156112b45760405162461bcd60e51b815260206004820152601d60248201527f424d5f52455041595f4554485f494e5055545f4e4f545f454e4f554748000000604482015260640161024a565b7f00000000000000000000000000000000000000000000000000000000000000006001600160a01b031663d0e30db0846040518263ffffffff1660e01b81526004016000604051808303818588803b15801561130f57600080fd5b505af1158015611323573d6000803e3d6000fd5b5050505050856001600160a01b031663095ea7b37f00000000000000000000000000000000000000000000000000000000000000006001600160a01b0316631755ff216040518163ffffffff1660e01b8152600401602060405180830381865afa158015611395573d6000803e3d6000fd5b505050506040513d601f19601f820116820180604052508101906113b991906156f3565b6040516001600160e01b031960e084901b1681526001600160a01b039091166004820152602481018590526044016020604051808303816000875af1158015611406573d6000803e3d6000fd5b505050506040513d601f19601f8201168201806040525081019061142a919061586d565b507f00000000000000000000000000000000000000000000000000000000000000006001600160a01b0316631755ff216040518163ffffffff1660e01b8152600401602060405180830381865afa158015611489573d6000803e3d6000fd5b505050506040513d601f19601f820116820180604052508101906114ad91906156f3565b875160405163e78f094960e01b81526004810191909152602481018490526001600160a01b03868116604483015260006064830152919091169063e78f094990608401600060405180830381600087803b15801561150a57600080fd5b505af115801561151e573d6000803e3d6000fd5b5050505060008111156115c1576115c17f00000000000000000000000000000000000000000000000000000000000000006001600160a01b0316633d6a38446040518163ffffffff1660e01b8152600401602060405180830381865afa15801561158c573d6000803e3d6000fd5b505050506040513d601f19601f820116820180604052508101906115b091906156f3565b6001600160a01b0388169083614024565b6115da876020015130878a604001518b6060015161408c565b6115e8898860200151614273565b8234111561160357611603336115fe85346159d5565b6144d8565b60405133908a907f82569af5d9f2daff073ff0831c749b4d63b0b482446f46f2cf79d7df8f0720b190600090a350506001805550505050505050565b8061168c5760405162461bcd60e51b815260206004820152601960248201527f424d5f43414e43454c5f43414e4e4f545f42455f454d50545900000000000000604482015260640161024a565b60005b8181101561174157336000908152600260205260409020548383838181106116b9576116b9615710565b9050602002013510156116de5760405162461bcd60e51b815260040161024a906159ec565b33600090815260036020526040812060019185858581811061170257611702615710565b90506020020135815260200190815260200160002060006101000a81548160ff02191690831515021790555080806117399061573c565b91505061168f565b50336001600160a01b03167fac0004ba1a2ea62c1d6de00ade33246fa25432a7148f9e20cce8d9fea7493aa1838360405161177d929190615a64565b60405180910390a25050565b600260015414156117ac5760405162461bcd60e51b815260040161024a90615888565b600260015560008181526005602052604090205481906117de5760405162461bcd60e51b815260040161024a906158bf565b60006117e983612908565b90506001816101c001516003811115611804576118046152c5565b148061182657506002816101c001516003811115611824576118246152c5565b145b61186a5760405162461bcd60e51b81526020600482015260156024820152742126afa922a820acafa9aa20aa2aa9afa2a92927a960591b604482015260640161024a565b60008061187685613d64565b91509150816001600160a01b031661188b3390565b6001600160a01b0316146118e15760405162461bcd60e51b815260206004820152601d60248201527f424d5f52455041595f4e4f545f424f52524f575f4e46545f4f574e4552000000604482015260640161024a565b60008060006118ef88613f50565b92509250925060007f00000000000000000000000000000000000000000000000000000000000000006001600160a01b0316631755ff216040518163ffffffff1660e01b8152600401602060405180830381865afa158015611955573d6000803e3d6000fd5b505050506040513d601f19601f8201168201806040525081019061197991906156f3565b87516040516391541e0560e01b81526001600160a01b0392909216916391541e05916119ab9160040190815260200190565b61018060405180830381865afa1580156119c9573d6000803e3d6000fd5b505050506040513d601f19601f820116820180604052508101906119ed919061590c565b602001519050611a086001600160a01b038216333087614574565b806001600160a01b031663095ea7b37f00000000000000000000000000000000000000000000000000000000000000006001600160a01b0316631755ff216040518163ffffffff1660e01b8152600401602060405180830381865afa158015611a75573d6000803e3d6000fd5b505050506040513d601f19601f82011682018060405250810190611a9991906156f3565b6040516001600160e01b031960e084901b1681526001600160a01b039091166004820152602481018690526044016020604051808303816000875af1158015611ae6573d6000803e3d6000fd5b505050506040513d601f19601f82011682018060405250810190611b0a919061586d565b507f00000000000000000000000000000000000000000000000000000000000000006001600160a01b0316631755ff216040518163ffffffff1660e01b8152600401602060405180830381865afa158015611b69573d6000803e3d6000fd5b505050506040513d601f19601f82011682018060405250810190611b8d91906156f3565b875160405163e78f094960e01b81526004810191909152602481018590526001600160a01b03878116604483015260006064830152919091169063e78f094990608401600060405180830381600087803b158015611bea57600080fd5b505af1158015611bfe573d6000803e3d6000fd5b505050506000821115611ca157611ca17f00000000000000000000000000000000000000000000000000000000000000006001600160a01b0316633d6a38446040518163ffffffff1660e01b8152600401602060405180830381865afa158015611c6c573d6000803e3d6000fd5b505050506040513d601f19601f82011682018060405250810190611c9091906156f3565b6001600160a01b0383169084614024565b611cba876020015130888a604001518b6060015161408c565b611cc8898860200151614273565b60405133908a907f2469cc9e12e74c63438d5b1117b318cd3a4cdaf9d659d9eac6d975d14d96325490600090a350506001805550505050505050565b60007f00000000000000000000000000000000000000000000000000000000000000006001600160a01b0316639a9dbb996040518163ffffffff1660e01b8152600401602060405180830381865afa158015611d64573d6000803e3d6000fd5b505050506040513d601f19601f82011682018060405250810190611d8891906156f3565b90506001600160a01b038116632500f2b6336040516001600160e01b031960e084901b1681526001600160a01b039091166004820152602401602060405180830381865afa158015611dde573d6000803e3d6000fd5b505050506040513d601f19601f82011682018060405250810190611e02919061586d565b611e1e5760405162461bcd60e51b815260040161024a90615a78565b611e26614595565b50565b60007f00000000000000000000000000000000000000000000000000000000000000006001600160a01b0316639a9dbb996040518163ffffffff1660e01b8152600401602060405180830381865afa158015611e89573d6000803e3d6000fd5b505050506040513d601f19601f82011682018060405250810190611ead91906156f3565b90506001600160a01b038116639078c85a336040516001600160e01b031960e084901b1681526001600160a01b039091166004820152602401602060405180830381865afa158015611f03573d6000803e3d6000fd5b505050506040513d601f19601f82011682018060405250810190611f27919061586d565b611f435760405162461bcd60e51b815260040161024a90615abc565b611f576001600160a01b0385168484614024565b826001600160a01b0316846001600160a01b03167f81275949a17d84915b61eeb24587a501cc8863011afba1ed12f3f6c5bdfd6a2184604051611f9c91815260200190565b60405180910390a350505050565b600054600160a01b900460ff1615611fd45760405162461bcd60e51b815260040161024a90615b01565b60026001541415611ff75760405162461bcd60e51b815260040161024a90615888565b6002600155604051629a9c4360e61b815260009073__$99340bd5a7874738aefb18e7cdd0ba78ce$__906326a710c090612035908790600401615c1b565b602060405180830381865af4158015612052573d6000803e3d6000fd5b505050506040513d601f19601f820116820180604052508101906120769190615c2a565b905073__$99340bd5a7874738aefb18e7cdd0ba78ce$__63f1085dec6003600287857f000000000000000000000000000000000000000000000000000000000000000089896120c3614632565b7f00000000000000000000000000000000000000000000000000000000000000007f00000000000000000000000000000000000000000000000000000000000000006040518b63ffffffff1660e01b815260040161212a9a99989796959493929190615c43565b60006040518083038186803b15801561214257600080fd5b505af4158015612156573d6000803e3d6000fd5b5050506080850180516001600160a01b031660009081526003602090815260408083206101608a01518452825291829020805460ff1916600117905587015191519087015160608801516121ad945030919061408c565b60007f00000000000000000000000000000000000000000000000000000000000000006001600160a01b0316631755ff216040518163ffffffff1660e01b8152600401602060405180830381865afa15801561220d573d6000803e3d6000fd5b505050506040513d601f19601f8201168201806040525081019061223191906156f3565b85516040516391541e0560e01b81526001600160a01b0392909216916391541e05916122639160040190815260200190565b61018060405180830381865afa158015612281573d6000803e3d6000fd5b505050506040513d601f19601f820116820180604052508101906122a5919061590c565b6040015190506000806122c48760000151846122be3390565b896146d7565b909250905081156123d3576122e46001600160a01b038416333085614574565b7f00000000000000000000000000000000000000000000000000000000000000006001600160a01b0316631755ff216040518163ffffffff1660e01b8152600401602060405180830381865afa158015612342573d6000803e3d6000fd5b505050506040513d601f19601f8201168201806040525081019061236691906156f3565b8751604051630ad58d2f60e01b81526004810191909152602481018490523060448201526001600160a01b039190911690630ad58d2f90606401600060405180830381600087803b1580156123ba57600080fd5b505af11580156123ce573d6000803e3d6000fd5b505050505b80156124b0578034101561243b5760405162461bcd60e51b815260206004820152602960248201527f424d5f54414b455f424f52524f575f4f464645525f4554485f494e5055545f4e60448201526809ea8be8a9c9eaa8e960bb1b606482015260840161024a565b7f00000000000000000000000000000000000000000000000000000000000000006001600160a01b031663d0e30db0826040518263ffffffff1660e01b81526004016000604051808303818588803b15801561249657600080fd5b505af11580156124aa573d6000803e3d6000fd5b50505050505b6040516370a0823160e01b815230600482015286907f00000000000000000000000000000000000000000000000000000000000000006001600160a01b0316906370a0823190602401602060405180830381865afa158015612516573d6000803e3d6000fd5b505050506040513d601f19601f8201168201806040525081019061253a9190615c2a565b101561259c5760405162461bcd60e51b815260206004820152602b60248201527f424d5f54414b455f424f52524f575f4f464645525f4554485f42414c414e434560448201526a0be9c9ea8be8a9c9eaa8e960ab1b606482015260840161024a565b60808701516040516323b872dd60e01b81526001600160a01b037f000000000000000000000000000000000000000000000000000000000000000016916323b872dd916125ef9130918b90600401615757565b6020604051808303816000875af115801561260e573d6000803e3d6000fd5b505050506040513d601f19601f82011682018060405250810190612632919061586d565b50600061264e88608001516126443390565b8a60200151614886565b6040516354df411f60e11b815290915073__$99340bd5a7874738aefb18e7cdd0ba78ce$__9063a9be823e906126b3906005908c9086908d908d907f000000000000000000000000000000000000000000000000000000000000000090600401615cad565b60006040518083038186803b1580156126cb57600080fd5b505af41580156126df573d6000803e3d6000fd5b50505050813411156127055760006126f783346159d5565b905061270333826144d8565b505b60808801516001600160a01b0316336001600160a01b0316827f1298f52246b94f327bb70ed663bf430fd6572492014c2556c7295f586049352c888c610160015160405161275d929190918252602082015260400190565b60405180910390a4505060018055505050505050565b600081815260056020818152604080842081516101e0810183528154815260018201546001600160a01b039081169482019490945260028201549281019290925260038082015460608401526004820154841660808401529381015460a083015260068101546001600160801b0380821660c0850152600160801b9091041660e0830152600781015480841661010084015264ffffffffff600160a01b82048116610120850152600160c81b90910481166101408401526008820154808216610160850152650100000000008104909116610180840152600160501b81049093166101a08301528493919290916101c084019160ff600160f01b9091041690811115612881576128816152c5565b6003811115612892576128926152c5565b905250600084815260056020526040902060080154909150600160f01b900460ff1660018160038111156128c8576128c86152c5565b1415610de4574282610180015164ffffffffff1610156128ea57506003610de4565b4282610160015164ffffffffff161015610de4575060029392505050565b612985604080516101e081018252600080825260208201819052918101829052606081018290526080810182905260a0810182905260c0810182905260e08101829052610100810182905261012081018290526101408101829052610160810182905261018081018290526101a08101829052906101c082015290565b600082815260056020818152604080842081516101e0810183528154815260018201546001600160a01b039081169482019490945260028201549281019290925260038082015460608401526004820154841660808401529381015460a083015260068101546001600160801b0380821660c0850152600160801b9091041660e08301526007810154808416610100840152600160a01b810464ffffffffff908116610120850152600160c81b90910481166101408401526008820154808216610160850152650100000000008104909116610180840152600160501b81049093166101a0830152909290916101c0840191600160f01b90910460ff1690811115612a9257612a926152c5565b6003811115612aa357612aa36152c5565b9052509050612ab183612773565b816101c001906003811115612ac857612ac86152c5565b90816003811115612adb57612adb6152c5565b90525092915050565b60006107cd612af283610deb565b6000848152600560208190526040909120015490614aa4565b6000546001600160a01b03163314612b655760405162461bcd60e51b815260206004820181905260248201527f4f776e61626c653a2063616c6c6572206973206e6f7420746865206f776e6572604482015260640161024a565b612b6f6000614ab0565b565b60007f00000000000000000000000000000000000000000000000000000000000000006001600160a01b0316639a9dbb996040518163ffffffff1660e01b8152600401602060405180830381865afa158015612bd1573d6000803e3d6000fd5b505050506040513d601f19601f82011682018060405250810190612bf591906156f3565b90506001600160a01b038116632500f2b6336040516001600160e01b031960e084901b1681526001600160a01b039091166004820152602401602060405180830381865afa158015612c4b573d6000803e3d6000fd5b505050506040513d601f19601f82011682018060405250810190612c6f919061586d565b612c8b5760405162461bcd60e51b815260040161024a90615a78565b611e26614b00565b336000908152600260205260409020548111612cc15760405162461bcd60e51b815260040161024a906159ec565b33600090815260026020526040902054612cde906207a120615cf3565b8110612d2c5760405162461bcd60e51b815260206004820152601c60248201527f424d5f43414e43454c5f43414e4e4f545f43414e43454c5f4d4f524500000000604482015260640161024a565b3360008181526002602052604090819020839055517f3472ca53ce86826d0cf2457fc20b0aadb9ff559e29da4c38e37e98fb8edd966d90612d709084815260200190565b60405180910390a250565b600054600160a01b900460ff1615612da55760405162461bcd60e51b815260040161024a90615b01565b60026001541415612dc85760405162461bcd60e51b815260040161024a90615888565b60026001556000818152600560205260409020548190612dfa5760405162461bcd60e51b815260040161024a906158bf565b6000612e0583612908565b90506003816101c001516003811115612e2057612e206152c5565b14612e6d5760405162461bcd60e51b815260206004820152601960248201527f424d5f464f5245434c4f53455f5354415455535f4552524f5200000000000000604482015260640161024a565b6000612e7884613d64565b915050612e94826020015130838560400151866060015161408c565b612ea2848360200151614273565b604051339085907ee238c49f37203eb7f8f1b247198f719d692924475beb17ffb2791f4a02599190600090a35050600180555050565b600080612ee483612908565b905060006002826101c001516003811115612f0157612f016152c5565b1415610de457610f717f00000000000000000000000000000000000000000000000000000000000000006001600160a01b031663d7a5a9d36040518163ffffffff1660e01b8152600401602060405180830381865afa158015612f68573d6000803e3d6000fd5b505050506040513d601f19601f82011682018060405250810190612f8c9190615c2a565b60a084015190614b65565b60007f00000000000000000000000000000000000000000000000000000000000000006001600160a01b0316639a9dbb996040518163ffffffff1660e01b8152600401602060405180830381865afa158015612ff7573d6000803e3d6000fd5b505050506040513d601f19601f8201168201806040525081019061301b91906156f3565b90506001600160a01b038116632500f2b6336040516001600160e01b031960e084901b1681526001600160a01b039091166004820152602401602060405180830381865afa158015613071573d6000803e3d6000fd5b505050506040513d601f19601f82011682018060405250810190613095919061586d565b6130b15760405162461bcd60e51b815260040161024a90615a78565b6130c56001600160a01b0385168484614024565b50505050565b600054600160a01b900460ff16156130f55760405162461bcd60e51b815260040161024a90615b01565b600260015414156131185760405162461bcd60e51b815260040161024a90615888565b6002600155604051629a9c4360e61b815260009073__$99340bd5a7874738aefb18e7cdd0ba78ce$__906326a710c090613156908790600401615c1b565b602060405180830381865af4158015613173573d6000803e3d6000fd5b505050506040513d601f19601f820116820180604052508101906131979190615c2a565b905073__$99340bd5a7874738aefb18e7cdd0ba78ce$__63f1085dec600360028785600089896131c5614632565b7f00000000000000000000000000000000000000000000000000000000000000007f00000000000000000000000000000000000000000000000000000000000000006040518b63ffffffff1660e01b815260040161322c9a99989796959493929190615c43565b60006040518083038186803b15801561324457600080fd5b505af4158015613258573d6000803e3d6000fd5b5050506080850180516001600160a01b031660009081526003602090815260408083206101608a01518452825291829020805460ff1916600117905587015191519087015160608801516132af945030919061408c565b60007f00000000000000000000000000000000000000000000000000000000000000006001600160a01b0316631755ff216040518163ffffffff1660e01b8152600401602060405180830381865afa15801561330f573d6000803e3d6000fd5b505050506040513d601f19601f8201168201806040525081019061333391906156f3565b85516040516391541e0560e01b81526001600160a01b0392909216916391541e05916133659160040190815260200190565b61018060405180830381865afa158015613383573d6000803e3d6000fd5b505050506040513d601f19601f820116820180604052508101906133a7919061590c565b90506000806133c0876000015184604001516122be3390565b909250905081156135d55760007f00000000000000000000000000000000000000000000000000000000000000006001600160a01b0316631755ff216040518163ffffffff1660e01b8152600401602060405180830381865afa15801561342b573d6000803e3d6000fd5b505050506040513d601f19601f8201168201806040525081019061344f91906156f3565b88516040516391541e0560e01b81526001600160a01b0392909216916391541e05916134819160040190815260200190565b61018060405180830381865afa15801561349f573d6000803e3d6000fd5b505050506040513d601f19601f820116820180604052508101906134c3919061590c565b6040015190506134de6001600160a01b038216333086614574565b7f00000000000000000000000000000000000000000000000000000000000000006001600160a01b0316631755ff216040518163ffffffff1660e01b8152600401602060405180830381865afa15801561353c573d6000803e3d6000fd5b505050506040513d601f19601f8201168201806040525081019061356091906156f3565b885160808a0151604051630ad58d2f60e01b81526004810192909252602482018690526001600160a01b0390811660448301529190911690630ad58d2f90606401600060405180830381600087803b1580156135bb57600080fd5b505af11580156135cf573d6000803e3d6000fd5b50505050505b80156135fa576135fa33608089015160208601516001600160a01b0316919084614574565b600061360b88608001516126443390565b6040516354df411f60e11b815290915073__$99340bd5a7874738aefb18e7cdd0ba78ce$__9063a9be823e90613670906005908c9086908d908d907f000000000000000000000000000000000000000000000000000000000000000090600401615cad565b60006040518083038186803b15801561368857600080fd5b505af415801561369c573d6000803e3d6000fd5b5050505087608001516001600160a01b03166136b53390565b6001600160a01b0316827f07864953112d55762e87691309f2d6b84b5ea1771fbcd70b8a0b6b4474c685bd888c610160015160405161275d929190918252602082015260400190565b60007f00000000000000000000000000000000000000000000000000000000000000006001600160a01b0316639a9dbb996040518163ffffffff1660e01b8152600401602060405180830381865afa15801561375e573d6000803e3d6000fd5b505050506040513d601f19601f8201168201806040525081019061378291906156f3565b90506001600160a01b038116639078c85a336040516001600160e01b031960e084901b1681526001600160a01b039091166004820152602401602060405180830381865afa1580156137d8573d6000803e3d6000fd5b505050506040513d601f19601f820116820180604052508101906137fc919061586d565b6138185760405162461bcd60e51b815260040161024a90615abc565b6001600160a01b0385166000908152600660205260409020541561388c5760405162461bcd60e51b815260206004820152602560248201527f424d5f434c41494d5f4552433732315f41495244524f505f4e4f545f5355505060448201526413d495115160da1b606482015260840161024a565b60005b8281101561392457856001600160a01b03166342842e0e30878787868181106138ba576138ba615710565b905060200201356040518463ffffffff1660e01b81526004016138df93929190615757565b600060405180830381600087803b1580156138f957600080fd5b505af115801561390d573d6000803e3d6000fd5b50505050808061391c9061573c565b91505061388f565b50836001600160a01b0316856001600160a01b03167f6c6b18e67b757c02ba92ef0f54038fc2135767acf9bef174b8780835ff455822858560405161396a929190615a64565b60405180910390a35050505050565b60007f00000000000000000000000000000000000000000000000000000000000000006001600160a01b0316639a9dbb996040518163ffffffff1660e01b8152600401602060405180830381865afa1580156139d9573d6000803e3d6000fd5b505050506040513d601f19601f820116820180604052508101906139fd91906156f3565b90506001600160a01b038116639078c85a336040516001600160e01b031960e084901b1681526001600160a01b039091166004820152602401602060405180830381865afa158015613a53573d6000803e3d6000fd5b505050506040513d601f19601f82011682018060405250810190613a77919061586d565b613a935760405162461bcd60e51b815260040161024a90615abc565b6001600160a01b03891660009081526006602052604090205415613b085760405162461bcd60e51b815260206004820152602660248201527f424d5f434c41494d5f455243313135355f41495244524f505f4e4f545f5355506044820152651413d495115160d21b606482015260840161024a565b604051631759616b60e11b81526001600160a01b038a1690632eb2c2d690613b429030908c908c908c908c908c908c908c90600401615d0b565b600060405180830381600087803b158015613b5c57600080fd5b505af1158015613b70573d6000803e3d6000fd5b50505050876001600160a01b0316896001600160a01b03167fc8144f7a11a69e58de79275b3e7420b4942b4e8318a0e0aa9ccb457c60387b02898989898989604051613bc196959493929190615d60565b60405180910390a3505050505050505050565b6000546001600160a01b03163314613c2e5760405162461bcd60e51b815260206004820181905260248201527f4f776e61626c653a2063616c6c6572206973206e6f7420746865206f776e6572604482015260640161024a565b6001600160a01b038116613c935760405162461bcd60e51b815260206004820152602660248201527f4f776e61626c653a206e6577206f776e657220697320746865207a65726f206160448201526564647265737360d01b606482015260840161024a565b611e2681614ab0565b6000610de482846159d5565b6000821580613cb5575081155b15613cc2575060006107cd565b81613cda60026b033b2e3c9fd0803ce8000000615da9565b613ce6906000196159d5565b613cf09190615da9565b8311156040518060400160405280600381526020016203130360ec1b81525090613d2d5760405162461bcd60e51b815260040161024a9190615df7565b506b033b2e3c9fd0803ce8000000613d46600282615da9565b613d508486615e2a565b613d5a9190615cf3565b610de49190615da9565b6000807f00000000000000000000000000000000000000000000000000000000000000006001600160a01b031663b39348386040518163ffffffff1660e01b8152600401602060405180830381865afa158015613dc5573d6000803e3d6000fd5b505050506040513d601f19601f82011682018060405250810190613de991906156f3565b6001600160a01b0316636352211e846040518263ffffffff1660e01b8152600401613e1691815260200190565b602060405180830381865afa158015613e33573d6000803e3d6000fd5b505050506040513d601f19601f82011682018060405250810190613e5791906156f3565b90507f00000000000000000000000000000000000000000000000000000000000000006001600160a01b031663bb322a836040518163ffffffff1660e01b8152600401602060405180830381865afa158015613eb7573d6000803e3d6000fd5b505050506040513d601f19601f82011682018060405250810190613edb91906156f3565b6001600160a01b0316636352211e846040518263ffffffff1660e01b8152600401613f0891815260200190565b602060405180830381865afa158015613f25573d6000803e3d6000fd5b505050506040513d601f19601f82011682018060405250810190613f4991906156f3565b9150915091565b600080600080613f5f85612ed8565b9050613f7481613f6e87612ae4565b90614aa4565b935061400e7f00000000000000000000000000000000000000000000000000000000000000006001600160a01b0316634322b7146040518163ffffffff1660e01b8152600401602060405180830381865afa158015613fd7573d6000803e3d6000fd5b505050506040513d601f19601f82011682018060405250810190613ffb9190615c2a565b61400883613f6e89610deb565b90614b65565b915061401a8483613c9c565b9250509193909250565b6040516001600160a01b03831660248201526044810182905261408790849063a9059cbb60e01b906064015b60408051601f198184030181529190526020810180516001600160e01b03166001600160e01b031990931692909217909152614bef565b505050565b6040516301ffc9a760e01b81526380ac58cd60e01b60048201526001600160a01b038616906301ffc9a790602401602060405180830381865afa1580156140d7573d6000803e3d6000fd5b505050506040513d601f19601f820116820180604052508101906140fb919061586d565b1561416757604051632142170760e11b81526001600160a01b038616906342842e0e9061413090879087908790600401615757565b600060405180830381600087803b15801561414a57600080fd5b505af115801561415e573d6000803e3d6000fd5b5050505061426c565b6040516301ffc9a760e01b8152636cdb3d1360e11b60048201526001600160a01b038616906301ffc9a790602401602060405180830381865afa1580156141b2573d6000803e3d6000fd5b505050506040513d601f19601f820116820180604052508101906141d6919061586d565b1561422d57604051637921219560e11b81526001600160a01b0385811660048301528481166024830152604482018490526064820183905260a06084830152600060a483015286169063f242432a9060c401614130565b60405162461bcd60e51b8152602060048201526014602482015273109357d3919517d393d517d4d5541413d495115160621b604482015260640161024a565b5050505050565b7f00000000000000000000000000000000000000000000000000000000000000006001600160a01b031663bb322a836040518163ffffffff1660e01b8152600401602060405180830381865afa1580156142d1573d6000803e3d6000fd5b505050506040513d601f19601f820116820180604052508101906142f591906156f3565b6001600160a01b03166342966c68836040518263ffffffff1660e01b815260040161432291815260200190565b600060405180830381600087803b15801561433c57600080fd5b505af1158015614350573d6000803e3d6000fd5b505050507f00000000000000000000000000000000000000000000000000000000000000006001600160a01b031663b39348386040518163ffffffff1660e01b8152600401602060405180830381865afa1580156143b2573d6000803e3d6000fd5b505050506040513d601f19601f820116820180604052508101906143d691906156f3565b6001600160a01b03166342966c68836040518263ffffffff1660e01b815260040161440391815260200190565b600060405180830381600087803b15801561441d57600080fd5b505af1158015614431573d6000803e3d6000fd5b505050506001600160a01b038116600090815260066020526040812080546001929061445e9084906159d5565b909155505050600090815260056020819052604082208281556001810180546001600160a01b03199081169091556002820184905560038201849055600482018054909116905590810182905560068101919091556007810180546001600160f01b031916905560080180546001600160f81b0319169055565b6000826001600160a01b03168260405160006040518083038185875af1925050503d8060008114614525576040519150601f19603f3d011682016040523d82523d6000602084013e61452a565b606091505b50509050806140875760405162461bcd60e51b8152602060048201526016602482015275109357d1551217d514905394d1915497d1905253115160521b604482015260640161024a565b6130c5846323b872dd60e01b85858560405160240161405093929190615757565b600054600160a01b900460ff166145e55760405162461bcd60e51b815260206004820152601460248201527314185d5cd8589b194e881b9bdd081c185d5cd95960621b604482015260640161024a565b6000805460ff60a01b191690557f5db9ee0a495bf2e6ff9c91a7834c1ba4fdd244a5e8aa4e537bd38aeae4b073aa335b6040516001600160a01b03909116815260200160405180910390a1565b604080517f8b73c3c69bb8fe3d512ecc4cf759cc79239f7b179b0ffacaa9a75d522b39400f60208201527ff0cf7ce475272740cae17eb3cadd6d254800be81c53f84a2f273b99036471c62918101919091527fc89efdaa54c0f20c7adf612882df0950f5a951637e0307cdcb4c672f298b8bc660608201524660808201523060a082015260009060c00160405160208183030381529060405280519060200120905090565b6040516370a0823160e01b81526001600160a01b03838116600483015260009182918291908716906370a0823190602401602060405180830381865afa158015614725573d6000803e3d6000fd5b505050506040513d601f19601f820116820180604052508101906147499190615c2a565b905060007f00000000000000000000000000000000000000000000000000000000000000006001600160a01b0316631755ff216040518163ffffffff1660e01b8152600401602060405180830381865afa1580156147ab573d6000803e3d6000fd5b505050506040513d601f19601f820116820180604052508101906147cf91906156f3565b6001600160a01b0316630aad628b896040518263ffffffff1660e01b81526004016147fc91815260200190565b602060405180830381865afa158015614819573d6000803e3d6000fd5b505050506040513d601f19601f8201168201806040525081019061483d9190615c2a565b905081811161484c578061484e565b815b915084821061485d578461485f565b815b935084821061486f576000614879565b6148798583613c9c565b9250505094509492505050565b600060045460016148979190615cf3565b60048181556040805163bb322a8360e01b815290516001600160a01b037f0000000000000000000000000000000000000000000000000000000000000000169263bb322a83928082019260209290918290030181865afa1580156148ff573d6000803e3d6000fd5b505050506040513d601f19601f8201168201806040525081019061492391906156f3565b6040516394bf804d60e01b8152600481018390526001600160a01b03878116602483015291909116906394bf804d90604401600060405180830381600087803b15801561496f57600080fd5b505af1158015614983573d6000803e3d6000fd5b505050507f00000000000000000000000000000000000000000000000000000000000000006001600160a01b031663b39348386040518163ffffffff1660e01b8152600401602060405180830381865afa1580156149e5573d6000803e3d6000fd5b505050506040513d601f19601f82011682018060405250810190614a0991906156f3565b6040516394bf804d60e01b8152600481018390526001600160a01b03868116602483015291909116906394bf804d90604401600060405180830381600087803b158015614a5557600080fd5b505af1158015614a69573d6000803e3d6000fd5b505050506001600160a01b0383166000908152600660205260408120805460019290614a96908490615cf3565b909155509095945050505050565b6000610de48284615cf3565b600080546001600160a01b038381166001600160a01b0319831681178455604051919092169283917f8be0079c531659141344cd1fd0a4f28419497f9722a3daafe3b4186f6b6457e09190a35050565b600054600160a01b900460ff1615614b2a5760405162461bcd60e51b815260040161024a90615b01565b6000805460ff60a01b1916600160a01b1790557f62e78cea01bee320cd4e420270b5ea74000d11b0c9f74754ebdbfc544b05a2586146153390565b6000821580614b72575081155b15614b7f575060006107cd565b81614b8d6002612710615da9565b614b99906000196159d5565b614ba39190615da9565b8311156040518060400160405280600381526020016203130360ec1b81525090614be05760405162461bcd60e51b815260040161024a9190615df7565b50612710613d46600282615da9565b6000614c44826040518060400160405280602081526020017f5361666545524332303a206c6f772d6c6576656c2063616c6c206661696c6564815250856001600160a01b0316614cc19092919063ffffffff16565b8051909150156140875780806020019051810190614c62919061586d565b6140875760405162461bcd60e51b815260206004820152602a60248201527f5361666545524332303a204552433230206f7065726174696f6e20646964206e6044820152691bdd081cdd58d8d9595960b21b606482015260840161024a565b6060610f71848460008585843b614d1a5760405162461bcd60e51b815260206004820152601d60248201527f416464726573733a2063616c6c20746f206e6f6e2d636f6e7472616374000000604482015260640161024a565b600080866001600160a01b03168587604051614d369190615e49565b60006040518083038185875af1925050503d8060008114614d73576040519150601f19603f3d011682016040523d82523d6000602084013e614d78565b606091505b5091509150614d88828286614d93565b979650505050505050565b60608315614da2575081610de4565b825115614db25782518084602001fd5b8160405162461bcd60e51b815260040161024a9190615df7565b600060208284031215614dde57600080fd5b81356001600160e01b031981168114610de457600080fd5b6001600160a01b0381168114611e2657600080fd5b8035614e1681614df6565b919050565b60008083601f840112614e2d57600080fd5b5081356001600160401b03811115614e4457600080fd5b6020830191508360208260051b8501011115614e5f57600080fd5b9250929050565b60008083601f840112614e7857600080fd5b5081356001600160401b03811115614e8f57600080fd5b602083019150836020828501011115614e5f57600080fd5b600080600080600060608688031215614ebf57600080fd5b8535614eca81614df6565b945060208601356001600160401b0380821115614ee657600080fd5b614ef289838a01614e1b565b90965094506040880135915080821115614f0b57600080fd5b50614f1888828901614e66565b969995985093965092949392505050565b60008060408385031215614f3c57600080fd5b8235614f4781614df6565b946020939093013593505050565b634e487b7160e01b600052604160045260246000fd5b60405161020081016001600160401b0381118282101715614f8e57614f8e614f55565b60405290565b60405161018081016001600160401b0381118282101715614f8e57614f8e614f55565b604051601f8201601f191681016001600160401b0381118282101715614fdf57614fdf614f55565b604052919050565b600082601f830112614ff857600080fd5b81356001600160401b0381111561501157615011614f55565b615024601f8201601f1916602001614fb7565b81815284602083860101111561503957600080fd5b816020850160208301376000918101602001919091529392505050565b6000806000806080858703121561506c57600080fd5b843561507781614df6565b9350602085013561508781614df6565b92506040850135915060608501356001600160401b038111156150a957600080fd5b6150b587828801614fe7565b91505092959194509250565b6000602082840312156150d357600080fd5b5035919050565b600080602083850312156150ed57600080fd5b82356001600160401b0381111561510357600080fd5b61510f85828601614e1b565b90969095509350505050565b60008060006060848603121561513057600080fd5b833561513b81614df6565b9250602084013561514b81614df6565b929592945050506040919091013590565b64ffffffffff81168114611e2657600080fd5b8035614e168161515c565b6001600160801b0381168114611e2657600080fd5b8035614e168161517a565b803560ff81168114614e1657600080fd5b60008060008385036102408112156151c257600080fd5b610200808212156151d257600080fd5b6151da614f6b565b9150853582526151ec60208701614e0b565b6020830152604086013560408301526060860135606083015261521160808701614e0b565b608083015260a086013560a083015260c086013560c083015261523660e0870161516f565b60e083015261010061524981880161516f565b9083015261012061525b87820161518f565b9083015261014061526d878201614e0b565b90830152610160868101359083015261018080870135908301526101a061529581880161519a565b908301526101c086810135908301526101e080870135908301529096908501359550610220909401359392505050565b634e487b7160e01b600052602160045260246000fd5b600481106152f957634e487b7160e01b600052602160045260246000fd5b9052565b602081016107cd82846152db565b815181526020808301516101e083019161532f908401826001600160a01b03169052565b506040830151604083015260608301516060830152608083015161535e60808401826001600160a01b03169052565b5060a083015160a083015260c083015161538360c08401826001600160801b03169052565b5060e083015161539e60e08401826001600160801b03169052565b50610100838101516001600160a01b03908116918401919091526101208085015164ffffffffff90811691850191909152610140808601518216908501526101608086015182169085015261018080860151909116908401526101a080850151909116908301526101c080840151615418828501826152db565b505092915050565b60006020828403121561543257600080fd5b8135610de481614df6565b600082601f83011261544e57600080fd5b813560206001600160401b0382111561546957615469614f55565b8160051b615478828201614fb7565b928352848101820192828101908785111561549257600080fd5b83870192505b84831015614d8857823582529183019190830190615498565b600080600080600060a086880312156154c957600080fd5b85356154d481614df6565b945060208601356154e481614df6565b935060408601356001600160401b038082111561550057600080fd5b61550c89838a0161543d565b9450606088013591508082111561552257600080fd5b61552e89838a0161543d565b9350608088013591508082111561554457600080fd5b5061555188828901614fe7565b9150509295509295909350565b6000806000806060858703121561557457600080fd5b843561557f81614df6565b9350602085013561558f81614df6565b925060408501356001600160401b038111156155aa57600080fd5b6155b687828801614e1b565b95989497509550505050565b60008060008060008060008060a0898b0312156155de57600080fd5b88356155e981614df6565b975060208901356155f981614df6565b965060408901356001600160401b038082111561561557600080fd5b6156218c838d01614e1b565b909850965060608b013591508082111561563a57600080fd5b6156468c838d01614e1b565b909650945060808b013591508082111561565f57600080fd5b5061566c8b828c01614e66565b999c989b5096995094979396929594505050565b600080600080600060a0868803121561569857600080fd5b85356156a381614df6565b945060208601356156b381614df6565b9350604086013592506060860135915060808601356001600160401b038111156156dc57600080fd5b61555188828901614fe7565b8051614e1681614df6565b60006020828403121561570557600080fd5b8151610de481614df6565b634e487b7160e01b600052603260045260246000fd5b634e487b7160e01b600052601160045260246000fd5b600060001982141561575057615750615726565b5060010190565b6001600160a01b039384168152919092166020820152604081019190915260600190565b81835281816020850137506000828201602090810191909152601f909101601f19169091010190565b60a0808252875190820181905260009060209060c0840190828b01845b828110156157e65781516001600160a01b0316845292840192908401906001016157c1565b5050508381038285015288518082528983019183019060005b8181101561581b578351835292840192918401916001016157ff565b50506001600160a01b03891660408601526001600160a01b0388166060860152848103608086015261584e81878961577b565b9b9a5050505050505050505050565b80518015158114614e1657600080fd5b60006020828403121561587f57600080fd5b610de48261585d565b6020808252601f908201527f5265656e7472616e637947756172643a207265656e7472616e742063616c6c00604082015260600190565b60208082526018908201527f424d5f434845434b5f4c4f414e5f4e4f545f4558495354530000000000000000604082015260600190565b8051614e168161517a565b8051614e168161515c565b6000610180828403121561591f57600080fd5b615927614f94565b82518152615937602084016156e8565b6020820152615948604084016156e8565b6040820152615959606084016156e8565b606082015261596a608084016158f6565b608082015260a083015160a082015260c083015160c082015261598f60e08401615901565b60e082015261010083810151908201526101206159ad8185016156e8565b9082015261014083810151908201526101606159ca81850161585d565b908201529392505050565b6000828210156159e7576159e7615726565b500390565b60208082526022908201527f424d5f43414e43454c5f4e4f4e43455f4c4f5745525f5448414e5f4355525245604082015261139560f21b606082015260800190565b81835260006001600160fb1b03831115615a4757600080fd5b8260051b8083602087013760009401602001938452509192915050565b602081526000610f71602083018486615a2e565b60208082526024908201527f424d5f41434c5f4f4e4c595f454d455247454e43595f41444d494e5f43414e5f60408201526310d0531360e21b606082015260800190565b60208082526025908201527f424d5f41434c5f4f4e4c595f41495244524f505f4f50455241544f525f43414e60408201526417d0d0531360da1b606082015260800190565b60208082526010908201526f14185d5cd8589b194e881c185d5cd95960821b604082015260600190565b805182526020810151615b4960208401826001600160a01b03169052565b5060408101516040830152606081015160608301526080810151615b7860808401826001600160a01b03169052565b5060a081015160a083015260c081015160c083015260e0810151615ba560e084018264ffffffffff169052565b506101008181015164ffffffffff1690830152610120808201516001600160801b031690830152610140808201516001600160a01b031690830152610160808201519083015261018080820151908301526101a08082015160ff16908301526101c080820151908301526101e090810151910152565b61020081016107cd8284615b2b565b600060208284031215615c3c57600080fd5b5051919050565b8a8152602081018a90526103208101615c5f604083018b615b2b565b6102408201989098526001600160a01b039687166102608201526102808101959095526102a08501939093526102c084019190915283166102e0830152909116610300909101529392505050565b8681526102a08101615cc26020830188615b2b565b6102208201959095526102408101939093526102608301919091526001600160a01b03166102809091015292915050565b60008219821115615d0657615d06615726565b500190565b6001600160a01b0389811682528816602082015260a060408201819052600090615d38908301888a615a2e565b8281036060840152615d4b818789615a2e565b9050828103608084015261584e81858761577b565b606081526000615d7460608301888a615a2e565b8281036020840152615d87818789615a2e565b90508281036040840152615d9c81858761577b565b9998505050505050505050565b600082615dc657634e487b7160e01b600052601260045260246000fd5b500490565b60005b83811015615de6578181015183820152602001615dce565b838111156130c55750506000910152565b6020815260008251806020840152615e16816040850160208701615dcb565b601f01601f19169190910160400192915050565b6000816000190483118215151615615e4457615e44615726565b500290565b60008251615e5b818460208701615dcb565b919091019291505056fea26469706673582212200401b06d5ef91bdd225c88319437fd0e264b423fa4bfca9f8e56dc8f5334e93e64736f6c634300080a0033",
  "libraries": {
    "BespokeTypes": "0xFF7882E12131066d80B9245BBeE23e113C815B98",
    "SignatureChecker": "0x31e4D76921E9cf5cDaa6f500477316bef80b97f5",
    "BespokeLogic": "0xd809e473C4Dd543E1Ae4D635aAb6D139E6bf89Ae",
    "MathUtils": "0x76aFbdb519C270961D20ce58CEDa6D8DF10a5dC7",
    "PercentageMath": "0xeb2C7909293DAa402Ea85760f47350Fb5324FE13",
    "WadRayMath": "0x7779d777f07FB4BBDD57940DE8a1648a7104f531"
  },
  "devdoc": {
    "kind": "dev",
    "methods": {
      "cancelAllBorrowOffersForSender(uint256)": {
        "params": {
          "minNonce_": "minimum user nonce"
        }
      },
      "cancelMultipleBorrowOffers(uint256[])": {
        "params": {
          "offerNonces": "array of borrowOffer nonces"
        }
      },
      "claimERC1155Airdrop(address,address,uint256[],uint256[],bytes)": {
        "params": {
          "amounts": "The amount of the ERC1155 tokens",
          "data": "packed params to pass to the receiver as extra information*",
          "ids": "The ID of the ERC1155 token",
          "to": "The address which will receive the ERC1155 tokens",
          "token": "The address of the airdropped token"
        }
      },
      "claimERC20Airdrop(address,address,uint256)": {
        "params": {
          "amount": "The amount of the ERC20 token*",
          "to": "The address which will receive ERC20 token",
          "token": "The address of the airdropped token"
        }
      },
      "claimERC721Airdrop(address,address,uint256[])": {
        "params": {
          "ids": "The ID of the ERC721 token*",
          "to": "The address which will receive the ERC721 token",
          "token": "The address of the airdropped token"
        }
      },
      "emergencyTokenTransfer(address,address,uint256)": {
        "details": "transfer ERC20 from the utility contract, for ERC20 recovery in case of stuck tokens due direct transfers to the contract address.",
        "params": {
          "amount": "amount to send",
          "to": "recipient of the transfer",
          "token": "token to transfer"
        }
      },
      "flashClaim(address,uint256[],bytes)": {
        "details": "IMPORTANT There are security concerns for developers of flash loan receiver contracts that must be carefully considered",
        "params": {
          "loanIds": "The ID of loan being flash-borrowed",
          "params": "packed params to pass to the receiver as extra information*",
          "receiverAddress": "The address of the contract receiving the funds, implementing IFlashClaimReceiver interface"
        }
      },
      "onERC721Received(address,address,uint256,bytes)": {
        "details": "See {IERC721Receiver-onERC721Received}. Always returns `IERC721Receiver.onERC721Received.selector`."
      },
      "owner()": {
        "details": "Returns the address of the current owner."
      },
      "pause()": {
        "details": "Pause pool for emergency case, can only be called by emergency admin."
      },
      "paused()": {
        "details": "Returns true if the contract is paused, and false otherwise."
      },
      "renounceOwnership()": {
        "details": "Leaves the contract without owner. It will not be possible to call `onlyOwner` functions anymore. Can only be called by the current owner. NOTE: Renouncing ownership will leave the contract without an owner, thereby removing any functionality that is only available to the owner."
      },
      "supportsInterface(bytes4)": {
        "details": "See {IERC165-supportsInterface}."
      },
      "transferOwnership(address)": {
        "details": "Transfers ownership of the contract to a new account (`newOwner`). Can only be called by the current owner."
      },
      "unpause()": {
        "details": "Unpause pool for emergency case, can only be called by emergency admin."
      }
    },
    "version": 1
  },
  "userdoc": {
    "kind": "user",
    "methods": {
      "cancelAllBorrowOffersForSender(uint256)": {
        "notice": "Cancel all pending offers for a sender"
      },
      "claimERC1155Airdrop(address,address,uint256[],uint256[],bytes)": {
        "notice": "Claim the ERC1155 token which has been airdropped to the loan contract"
      },
      "claimERC20Airdrop(address,address,uint256)": {
        "notice": "Claim the ERC20 token which has been airdropped to the loan contract"
      },
      "claimERC721Airdrop(address,address,uint256[])": {
        "notice": "Claim the ERC721 token which has been airdropped to the loan contract"
      },
      "flashClaim(address,uint256[],bytes)": {
        "notice": "Allows smart contracts to access the collateralized NFT within one transaction, as long as the amount taken plus a fee is returned"
      },
      "foreclose(uint256)": {
        "notice": "anyone can trigger but only OpenSkyLendNFT owner can receive collateral"
      },
      "repay(uint256)": {
        "notice": "Only OpenSkyBorrowNFT owner can repayOnly OpenSkyLendNFT owner can recieve the paymentThis function is not pausable for safety"
      },
      "repayETH(uint256)": {
        "notice": "Only OpenSkyBorrowNFT owner can repayOnly OpenSkyLendNFT owner can recieve the paymentThis function is not pausable for safety"
      },
      "takeBorrowOffer((uint256,address,uint256,uint256,address,uint256,uint256,uint40,uint40,uint128,address,uint256,uint256,uint8,bytes32,bytes32),uint256,uint256)": {
        "notice": "take an borrowing offer using ERC20 include WETH"
      },
      "takeBorrowOfferETH((uint256,address,uint256,uint256,address,uint256,uint256,uint40,uint40,uint128,address,uint256,uint256,uint8,bytes32,bytes32),uint256,uint256)": {
        "notice": "Take a borrow offer. Only for WETH reserve.Consider using taker's oWETH balance first, then ETH if oWETH is not enoughBorrower will receive WETH"
      }
    },
    "version": 1
  },
  "storageLayout": {
    "storage": [
      {
        "astId": 387,
        "contract": "contracts/bespokemarket/OpenSkyBespokeMarket.sol:OpenSkyBespokeMarket",
        "label": "_owner",
        "offset": 0,
        "slot": "0",
        "type": "t_address"
      },
      {
        "astId": 1294,
        "contract": "contracts/bespokemarket/OpenSkyBespokeMarket.sol:OpenSkyBespokeMarket",
        "label": "_paused",
        "offset": 20,
        "slot": "0",
        "type": "t_bool"
      },
      {
        "astId": 1379,
        "contract": "contracts/bespokemarket/OpenSkyBespokeMarket.sol:OpenSkyBespokeMarket",
        "label": "_status",
        "offset": 0,
        "slot": "1",
        "type": "t_uint256"
      },
      {
        "astId": 13190,
        "contract": "contracts/bespokemarket/OpenSkyBespokeMarket.sol:OpenSkyBespokeMarket",
        "label": "minNonce",
        "offset": 0,
        "slot": "2",
        "type": "t_mapping(t_address,t_uint256)"
      },
      {
        "astId": 13196,
        "contract": "contracts/bespokemarket/OpenSkyBespokeMarket.sol:OpenSkyBespokeMarket",
        "label": "_nonce",
        "offset": 0,
        "slot": "3",
        "type": "t_mapping(t_address,t_mapping(t_uint256,t_bool))"
      },
      {
        "astId": 13198,
        "contract": "contracts/bespokemarket/OpenSkyBespokeMarket.sol:OpenSkyBespokeMarket",
        "label": "_loanIdTracker",
        "offset": 0,
        "slot": "4",
        "type": "t_uint256"
      },
      {
        "astId": 13203,
        "contract": "contracts/bespokemarket/OpenSkyBespokeMarket.sol:OpenSkyBespokeMarket",
        "label": "_loans",
        "offset": 0,
        "slot": "5",
        "type": "t_mapping(t_uint256,t_struct(LoanData)16679_storage)"
      },
      {
        "astId": 13207,
        "contract": "contracts/bespokemarket/OpenSkyBespokeMarket.sol:OpenSkyBespokeMarket",
        "label": "nftBorrowStat",
        "offset": 0,
        "slot": "6",
        "type": "t_mapping(t_address,t_uint256)"
      }
    ],
    "types": {
      "t_address": {
        "encoding": "inplace",
        "label": "address",
        "numberOfBytes": "20"
      },
      "t_bool": {
        "encoding": "inplace",
        "label": "bool",
        "numberOfBytes": "1"
      },
      "t_enum(LoanStatus)16684": {
        "encoding": "inplace",
        "label": "enum BespokeTypes.LoanStatus",
        "numberOfBytes": "1"
      },
      "t_mapping(t_address,t_mapping(t_uint256,t_bool))": {
        "encoding": "mapping",
        "key": "t_address",
        "label": "mapping(address => mapping(uint256 => bool))",
        "numberOfBytes": "32",
        "value": "t_mapping(t_uint256,t_bool)"
      },
      "t_mapping(t_address,t_uint256)": {
        "encoding": "mapping",
        "key": "t_address",
        "label": "mapping(address => uint256)",
        "numberOfBytes": "32",
        "value": "t_uint256"
      },
      "t_mapping(t_uint256,t_bool)": {
        "encoding": "mapping",
        "key": "t_uint256",
        "label": "mapping(uint256 => bool)",
        "numberOfBytes": "32",
        "value": "t_bool"
      },
      "t_mapping(t_uint256,t_struct(LoanData)16679_storage)": {
        "encoding": "mapping",
        "key": "t_uint256",
        "label": "mapping(uint256 => struct BespokeTypes.LoanData)",
        "numberOfBytes": "32",
        "value": "t_struct(LoanData)16679_storage"
      },
      "t_struct(LoanData)16679_storage": {
        "encoding": "inplace",
        "label": "struct BespokeTypes.LoanData",
        "members": [
          {
            "astId": 16649,
            "contract": "contracts/bespokemarket/OpenSkyBespokeMarket.sol:OpenSkyBespokeMarket",
            "label": "reserveId",
            "offset": 0,
            "slot": "0",
            "type": "t_uint256"
          },
          {
            "astId": 16651,
            "contract": "contracts/bespokemarket/OpenSkyBespokeMarket.sol:OpenSkyBespokeMarket",
            "label": "nftAddress",
            "offset": 0,
            "slot": "1",
            "type": "t_address"
          },
          {
            "astId": 16653,
            "contract": "contracts/bespokemarket/OpenSkyBespokeMarket.sol:OpenSkyBespokeMarket",
            "label": "tokenId",
            "offset": 0,
            "slot": "2",
            "type": "t_uint256"
          },
          {
            "astId": 16655,
            "contract": "contracts/bespokemarket/OpenSkyBespokeMarket.sol:OpenSkyBespokeMarket",
            "label": "tokenAmount",
            "offset": 0,
            "slot": "3",
            "type": "t_uint256"
          },
          {
            "astId": 16657,
            "contract": "contracts/bespokemarket/OpenSkyBespokeMarket.sol:OpenSkyBespokeMarket",
            "label": "borrower",
            "offset": 0,
            "slot": "4",
            "type": "t_address"
          },
          {
            "astId": 16659,
            "contract": "contracts/bespokemarket/OpenSkyBespokeMarket.sol:OpenSkyBespokeMarket",
            "label": "amount",
            "offset": 0,
            "slot": "5",
            "type": "t_uint256"
          },
          {
            "astId": 16661,
            "contract": "contracts/bespokemarket/OpenSkyBespokeMarket.sol:OpenSkyBespokeMarket",
            "label": "borrowRate",
            "offset": 0,
            "slot": "6",
            "type": "t_uint128"
          },
          {
            "astId": 16663,
            "contract": "contracts/bespokemarket/OpenSkyBespokeMarket.sol:OpenSkyBespokeMarket",
            "label": "interestPerSecond",
            "offset": 16,
            "slot": "6",
            "type": "t_uint128"
          },
          {
            "astId": 16665,
            "contract": "contracts/bespokemarket/OpenSkyBespokeMarket.sol:OpenSkyBespokeMarket",
            "label": "currency",
            "offset": 0,
            "slot": "7",
            "type": "t_address"
          },
          {
            "astId": 16667,
            "contract": "contracts/bespokemarket/OpenSkyBespokeMarket.sol:OpenSkyBespokeMarket",
            "label": "borrowDuration",
            "offset": 20,
            "slot": "7",
            "type": "t_uint40"
          },
          {
            "astId": 16669,
            "contract": "contracts/bespokemarket/OpenSkyBespokeMarket.sol:OpenSkyBespokeMarket",
            "label": "borrowBegin",
            "offset": 25,
            "slot": "7",
            "type": "t_uint40"
          },
          {
            "astId": 16671,
            "contract": "contracts/bespokemarket/OpenSkyBespokeMarket.sol:OpenSkyBespokeMarket",
            "label": "borrowOverdueTime",
            "offset": 0,
            "slot": "8",
            "type": "t_uint40"
          },
          {
            "astId": 16673,
            "contract": "contracts/bespokemarket/OpenSkyBespokeMarket.sol:OpenSkyBespokeMarket",
            "label": "liquidatableTime",
            "offset": 5,
            "slot": "8",
            "type": "t_uint40"
          },
          {
            "astId": 16675,
            "contract": "contracts/bespokemarket/OpenSkyBespokeMarket.sol:OpenSkyBespokeMarket",
            "label": "lender",
            "offset": 10,
            "slot": "8",
            "type": "t_address"
          },
          {
            "astId": 16678,
            "contract": "contracts/bespokemarket/OpenSkyBespokeMarket.sol:OpenSkyBespokeMarket",
            "label": "status",
            "offset": 30,
            "slot": "8",
            "type": "t_enum(LoanStatus)16684"
          }
        ],
        "numberOfBytes": "288"
      },
      "t_uint128": {
        "encoding": "inplace",
        "label": "uint128",
        "numberOfBytes": "16"
      },
      "t_uint256": {
        "encoding": "inplace",
        "label": "uint256",
        "numberOfBytes": "32"
      },
      "t_uint40": {
        "encoding": "inplace",
        "label": "uint40",
        "numberOfBytes": "5"
      }
    }
  }
}