{
  "address": "0x66A9393FE577ee427770A1F35F8EB5e74190700d",
  "abi": [
    {
      "inputs": [
        {
          "internalType": "address",
          "name": "settings",
          "type": "address"
        }
      ],
      "stateMutability": "nonpayable",
      "type": "constructor"
    },
    {
      "anonymous": false,
      "inputs": [
        {
          "indexed": true,
          "internalType": "uint256",
          "name": "loanId",
          "type": "uint256"
        },
        {
          "indexed": true,
          "internalType": "address",
          "name": "nftAddress",
          "type": "address"
        },
        {
          "indexed": false,
          "internalType": "uint256",
          "name": "tokenId",
          "type": "uint256"
        },
        {
          "indexed": false,
          "internalType": "address",
          "name": "operator",
          "type": "address"
        }
      ],
      "name": "Liquidate",
      "type": "event"
    },
    {
      "anonymous": false,
      "inputs": [
        {
          "indexed": true,
          "internalType": "address",
          "name": "token",
          "type": "address"
        },
        {
          "indexed": false,
          "internalType": "uint256",
          "name": "tokenId",
          "type": "uint256"
        },
        {
          "indexed": true,
          "internalType": "address",
          "name": "to",
          "type": "address"
        }
      ],
      "name": "WithdrawERC721",
      "type": "event"
    },
    {
      "inputs": [],
      "name": "SETTINGS",
      "outputs": [
        {
          "internalType": "contract IOpenSkySettings",
          "name": "",
          "type": "address"
        }
      ],
      "stateMutability": "view",
      "type": "function"
    },
    {
      "inputs": [
        {
          "internalType": "address",
          "name": "",
          "type": "address"
        },
        {
          "internalType": "address",
          "name": "",
          "type": "address"
        },
        {
          "internalType": "uint256",
          "name": "",
          "type": "uint256"
        },
        {
          "internalType": "bytes",
          "name": "",
          "type": "bytes"
        }
      ],
      "name": "onERC721Received",
      "outputs": [
        {
          "internalType": "bytes4",
          "name": "",
          "type": "bytes4"
        }
      ],
      "stateMutability": "nonpayable",
      "type": "function"
    },
    {
      "inputs": [
        {
          "internalType": "uint256",
          "name": "loanId",
          "type": "uint256"
        }
      ],
      "name": "startLiquidate",
      "outputs": [],
      "stateMutability": "nonpayable",
      "type": "function"
    },
    {
      "inputs": [
        {
          "internalType": "address",
          "name": "token",
          "type": "address"
        },
        {
          "internalType": "uint256",
          "name": "tokenId",
          "type": "uint256"
        }
      ],
      "name": "withdrawERC721ToDaoVault",
      "outputs": [],
      "stateMutability": "nonpayable",
      "type": "function"
    },
    {
      "stateMutability": "payable",
      "type": "receive"
    }
  ],
  "transactionHash": "0xfabe018cc78bc7bfb7394517877a46437e1d3e7b3b4636b92da4e30f646a2e78",
  "args": [
    "0x72A780B33915D6D229E7b31A729AE42963A57c73"
  ],
  "solcInputHash": "b8902a279cfadfe286f7c1ee8daea2c4",
  "bytecode": "0x60a060405234801561001057600080fd5b5060405161140e38038061140e83398101604081905261002f91610040565b6001600160a01b0316608052610070565b60006020828403121561005257600080fd5b81516001600160a01b038116811461006957600080fd5b9392505050565b60805161134c6100c26000396000818160ec0152818161012a0152818161024d015281816103430152818161050a015281816106270152818161077c015281816108a4015261098d015261134c6000f3fe6080604052600436106100435760003560e01c8063150b7a021461004f57806386c0ba7d14610098578063acec1c0a146100ba578063ade97ab5146100da57600080fd5b3661004a57005b600080fd5b34801561005b57600080fd5b5061007a61006a366004610ee2565b630a85bd0160e11b949350505050565b6040516001600160e01b031990911681526020015b60405180910390f35b3480156100a457600080fd5b506100b86100b3366004610fa6565b610126565b005b3480156100c657600080fd5b506100b86100d5366004610fbf565b610778565b3480156100e657600080fd5b5061010e7f000000000000000000000000000000000000000000000000000000000000000081565b6040516001600160a01b03909116815260200161008f565b60007f00000000000000000000000000000000000000000000000000000000000000006001600160a01b0316639a9dbb996040518163ffffffff1660e01b8152600401602060405180830381865afa158015610186573d6000803e3d6000fd5b505050506040513d601f19601f820116820180604052508101906101aa9190610ffb565b90506001600160a01b0381166307e131a5336040516001600160e01b031960e084901b1681526001600160a01b039091166004820152602401602060405180830381865afa158015610200573d6000803e3d6000fd5b505050506040513d601f19601f820116820180604052508101906102249190611028565b6102495760405162461bcd60e51b815260040161024090611043565b60405180910390fd5b60007f00000000000000000000000000000000000000000000000000000000000000006001600160a01b03166335bc868a6040518163ffffffff1660e01b8152600401602060405180830381865afa1580156102a9573d6000803e3d6000fd5b505050506040513d601f19601f820116820180604052508101906102cd9190610ffb565b60405163622fe39f60e01b8152600481018590529091506000906001600160a01b0383169063622fe39f906024016101c060405180830381865afa158015610319573d6000803e3d6000fd5b505050506040513d601f19601f8201168201806040525081019061033d91906110c9565b905060007f00000000000000000000000000000000000000000000000000000000000000006001600160a01b0316631755ff216040518163ffffffff1660e01b8152600401602060405180830381865afa15801561039f573d6000803e3d6000fd5b505050506040513d601f19601f820116820180604052508101906103c39190610ffb565b60405163980a8bd960e01b8152600481018790529091506001600160a01b0382169063980a8bd990602401600060405180830381600087803b15801561040857600080fd5b505af115801561041c573d6000803e3d6000fd5b5050604051636b52b36560e01b815260048101889052600092506001600160a01b0386169150636b52b36590602401602060405180830381865afa158015610468573d6000803e3d6000fd5b505050506040513d601f19601f8201168201806040525081019061048c91906111c4565b83516040516391541e0560e01b815260048101919091529091506000906001600160a01b038416906391541e059060240161018060405180830381865afa1580156104db573d6000803e3d6000fd5b505050506040513d601f19601f820116820180604052508101906104ff91906111dd565b60200151905061059c7f00000000000000000000000000000000000000000000000000000000000000006001600160a01b0316633d6a38446040518163ffffffff1660e01b8152600401602060405180830381865afa158015610566573d6000803e3d6000fd5b505050506040513d601f19601f8201168201806040525081019061058a9190610ffb565b6001600160a01b038316903085610a5e565b6105b06001600160a01b0382168484610acf565b6040516376999aeb60e01b815260048101889052602481018390526001600160a01b038416906376999aeb90604401600060405180830381600087803b1580156105f957600080fd5b505af115801561060d573d6000803e3d6000fd5b5050505083602001516001600160a01b03166342842e0e307f00000000000000000000000000000000000000000000000000000000000000006001600160a01b0316633d6a38446040518163ffffffff1660e01b8152600401602060405180830381865afa158015610683573d6000803e3d6000fd5b505050506040513d601f19601f820116820180604052508101906106a79190610ffb565b60408089015190516001600160e01b031960e086901b1681526001600160a01b0393841660048201529290911660248301526044820152606401600060405180830381600087803b1580156106fb57600080fd5b505af115801561070f573d6000803e3d6000fd5b5050505083602001516001600160a01b0316877f2cc5ac246baf2255b46a628c76c4c8aeef5ed302815291f17ea16e9a124cab07866040015161074f3390565b604080519283526001600160a01b0390911660208301520160405180910390a350505050505050565b60007f00000000000000000000000000000000000000000000000000000000000000006001600160a01b0316639a9dbb996040518163ffffffff1660e01b8152600401602060405180830381865afa1580156107d8573d6000803e3d6000fd5b505050506040513d601f19601f820116820180604052508101906107fc9190610ffb565b90506001600160a01b0381166307e131a5336040516001600160e01b031960e084901b1681526001600160a01b039091166004820152602401602060405180830381865afa158015610852573d6000803e3d6000fd5b505050506040513d601f19601f820116820180604052508101906108769190611028565b6108925760405162461bcd60e51b815260040161024090611043565b826001600160a01b03166342842e0e307f00000000000000000000000000000000000000000000000000000000000000006001600160a01b0316633d6a38446040518163ffffffff1660e01b8152600401602060405180830381865afa158015610900573d6000803e3d6000fd5b505050506040513d601f19601f820116820180604052508101906109249190610ffb565b6040516001600160e01b031960e085901b1681526001600160a01b0392831660048201529116602482015260448101859052606401600060405180830381600087803b15801561097357600080fd5b505af1158015610987573d6000803e3d6000fd5b505050507f00000000000000000000000000000000000000000000000000000000000000006001600160a01b0316633d6a38446040518163ffffffff1660e01b8152600401602060405180830381865afa1580156109e9573d6000803e3d6000fd5b505050506040513d601f19601f82011682018060405250810190610a0d9190610ffb565b6001600160a01b0316836001600160a01b03167f7d7d06fee8f280e47a7b6a0548f6dffbe5df52f1c1eb012a0d6a41f4a0f350c984604051610a5191815260200190565b60405180910390a3505050565b6040516001600160a01b0380851660248301528316604482015260648101829052610ac99085906323b872dd60e01b906084015b60408051601f198184030181529190526020810180516001600160e01b03166001600160e01b031990931692909217909152610be9565b50505050565b801580610b495750604051636eb1769f60e11b81523060048201526001600160a01b03838116602483015284169063dd62ed3e90604401602060405180830381865afa158015610b23573d6000803e3d6000fd5b505050506040513d601f19601f82011682018060405250810190610b4791906111c4565b155b610bb45760405162461bcd60e51b815260206004820152603660248201527f5361666545524332303a20617070726f76652066726f6d206e6f6e2d7a65726f60448201527520746f206e6f6e2d7a65726f20616c6c6f77616e636560501b6064820152608401610240565b6040516001600160a01b038316602482015260448101829052610be490849063095ea7b360e01b90606401610a92565b505050565b6000610c3e826040518060400160405280602081526020017f5361666545524332303a206c6f772d6c6576656c2063616c6c206661696c6564815250856001600160a01b0316610cbb9092919063ffffffff16565b805190915015610be45780806020019051810190610c5c9190611028565b610be45760405162461bcd60e51b815260206004820152602a60248201527f5361666545524332303a204552433230206f7065726174696f6e20646964206e6044820152691bdd081cdd58d8d9595960b21b6064820152608401610240565b6060610cca8484600085610cd4565b90505b9392505050565b606082471015610d355760405162461bcd60e51b815260206004820152602660248201527f416464726573733a20696e73756666696369656e742062616c616e636520666f6044820152651c8818d85b1b60d21b6064820152608401610240565b843b610d835760405162461bcd60e51b815260206004820152601d60248201527f416464726573733a2063616c6c20746f206e6f6e2d636f6e74726163740000006044820152606401610240565b600080866001600160a01b03168587604051610d9f91906112c7565b60006040518083038185875af1925050503d8060008114610ddc576040519150601f19603f3d011682016040523d82523d6000602084013e610de1565b606091505b5091509150610df1828286610dfc565b979650505050505050565b60608315610e0b575081610ccd565b825115610e1b5782518084602001fd5b8160405162461bcd60e51b815260040161024091906112e3565b6001600160a01b0381168114610e4a57600080fd5b50565b634e487b7160e01b600052604160045260246000fd5b6040516101c0810167ffffffffffffffff81118282101715610e8757610e87610e4d565b60405290565b604051610180810167ffffffffffffffff81118282101715610e8757610e87610e4d565b604051601f8201601f1916810167ffffffffffffffff81118282101715610eda57610eda610e4d565b604052919050565b60008060008060808587031215610ef857600080fd5b8435610f0381610e35565b9350602085810135610f1481610e35565b935060408601359250606086013567ffffffffffffffff80821115610f3857600080fd5b818801915088601f830112610f4c57600080fd5b813581811115610f5e57610f5e610e4d565b610f70601f8201601f19168501610eb1565b91508082528984828501011115610f8657600080fd5b808484018584013760008482840101525080935050505092959194509250565b600060208284031215610fb857600080fd5b5035919050565b60008060408385031215610fd257600080fd5b8235610fdd81610e35565b946020939093013593505050565b8051610ff681610e35565b919050565b60006020828403121561100d57600080fd5b8151610ccd81610e35565b80518015158114610ff657600080fd5b60006020828403121561103a57600080fd5b610ccd82611018565b60208082526022908201527f4c49515549444154494f4e5f4f4e4c595f4f50455241544f525f43414e5f4341604082015261131360f21b606082015260800190565b80516fffffffffffffffffffffffffffffffff81168114610ff657600080fd5b805164ffffffffff81168114610ff657600080fd5b805160068110610ff657600080fd5b60006101c082840312156110dc57600080fd5b6110e4610e63565b825181526110f460208401610feb565b60208201526040830151604082015261110f60608401610feb565b60608201526080830151608082015261112a60a08401611085565b60a082015261113b60c08401611085565b60c082015261114c60e084016110a5565b60e082015261010061115f8185016110a5565b908201526101206111718482016110a5565b908201526101406111838482016110a5565b908201526101606111958482016110a5565b908201526101806111a78482016110a5565b908201526101a06111b98482016110ba565b908201529392505050565b6000602082840312156111d657600080fd5b5051919050565b600061018082840312156111f057600080fd5b6111f8610e8d565b8251815261120860208401610feb565b602082015261121960408401610feb565b604082015261122a60608401610feb565b606082015261123b60808401611085565b608082015260a083015160a082015260c083015160c082015261126060e084016110a5565b60e0820152610100838101519082015261012061127e818501610feb565b9082015261014083810151908201526101606111b9818501611018565b60005b838110156112b657818101518382015260200161129e565b83811115610ac95750506000910152565b600082516112d981846020870161129b565b9190910192915050565b602081526000825180602084015261130281604085016020870161129b565b601f01601f1916919091016040019291505056fea264697066735822122070c05403b7f63d770fc1ed8f55f4701786a8b9adde6f594febc830a503a8788064736f6c634300080a0033",
  "devdoc": {
    "kind": "dev",
    "methods": {
      "onERC721Received(address,address,uint256,bytes)": {
        "details": "See {IERC721Receiver-onERC721Received}. Always returns `IERC721Receiver.onERC721Received.selector`."
      }
    },
    "version": 1
  },
  "userdoc": {
    "kind": "user",
    "methods": {},
    "version": 1
  },
  "storageLayout": {
    "storage": [],
    "types": null
  }
}