{
  "address": "0x5D15033865014CE533E29887d90781E052D34202",
  "abi": [
    {
      "inputs": [
        {
          "internalType": "address",
          "name": "SETTINGS_",
          "type": "address"
        },
        {
          "internalType": "address",
          "name": "PUNK_",
          "type": "address"
        },
        {
          "internalType": "address",
          "name": "WPUNK_",
          "type": "address"
        },
        {
          "internalType": "address",
          "name": "WETH_",
          "type": "address"
        }
      ],
      "stateMutability": "nonpayable",
      "type": "constructor"
    },
    {
      "anonymous": false,
      "inputs": [
        {
          "indexed": true,
          "internalType": "uint256",
          "name": "reserveId",
          "type": "uint256"
        },
        {
          "indexed": true,
          "internalType": "address",
          "name": "user",
          "type": "address"
        },
        {
          "indexed": false,
          "internalType": "uint256",
          "name": "amount",
          "type": "uint256"
        },
        {
          "indexed": false,
          "internalType": "uint256",
          "name": "duration",
          "type": "uint256"
        },
        {
          "indexed": false,
          "internalType": "uint256",
          "name": "punkIndex",
          "type": "uint256"
        },
        {
          "indexed": false,
          "internalType": "uint256",
          "name": "loanId",
          "type": "uint256"
        }
      ],
      "name": "Borrow",
      "type": "event"
    },
    {
      "anonymous": false,
      "inputs": [
        {
          "indexed": true,
          "internalType": "uint256",
          "name": "reserveId",
          "type": "uint256"
        },
        {
          "indexed": true,
          "internalType": "address",
          "name": "user",
          "type": "address"
        },
        {
          "indexed": false,
          "internalType": "uint256",
          "name": "amount",
          "type": "uint256"
        },
        {
          "indexed": false,
          "internalType": "uint256",
          "name": "duration",
          "type": "uint256"
        },
        {
          "indexed": false,
          "internalType": "uint256",
          "name": "punkIndex",
          "type": "uint256"
        },
        {
          "indexed": false,
          "internalType": "uint256",
          "name": "loanId",
          "type": "uint256"
        }
      ],
      "name": "BorrowETH",
      "type": "event"
    },
    {
      "anonymous": false,
      "inputs": [
        {
          "indexed": false,
          "internalType": "address",
          "name": "",
          "type": "address"
        },
        {
          "indexed": false,
          "internalType": "uint256",
          "name": "",
          "type": "uint256"
        }
      ],
      "name": "Received",
      "type": "event"
    },
    {
      "anonymous": false,
      "inputs": [
        {
          "indexed": true,
          "internalType": "uint256",
          "name": "reserveId",
          "type": "uint256"
        },
        {
          "indexed": true,
          "internalType": "address",
          "name": "user",
          "type": "address"
        },
        {
          "indexed": false,
          "internalType": "uint256",
          "name": "punkIndex",
          "type": "uint256"
        },
        {
          "indexed": false,
          "internalType": "uint256",
          "name": "loanId",
          "type": "uint256"
        }
      ],
      "name": "Repay",
      "type": "event"
    },
    {
      "anonymous": false,
      "inputs": [
        {
          "indexed": true,
          "internalType": "uint256",
          "name": "reserveId",
          "type": "uint256"
        },
        {
          "indexed": true,
          "internalType": "address",
          "name": "user",
          "type": "address"
        },
        {
          "indexed": false,
          "internalType": "uint256",
          "name": "punkIndex",
          "type": "uint256"
        },
        {
          "indexed": false,
          "internalType": "uint256",
          "name": "loanId",
          "type": "uint256"
        }
      ],
      "name": "RepayETH",
      "type": "event"
    },
    {
      "inputs": [],
      "name": "PUNK",
      "outputs": [
        {
          "internalType": "contract ICryptoPunk",
          "name": "",
          "type": "address"
        }
      ],
      "stateMutability": "view",
      "type": "function"
    },
    {
      "inputs": [],
      "name": "SETTINGS",
      "outputs": [
        {
          "internalType": "contract IOpenSkySettings",
          "name": "",
          "type": "address"
        }
      ],
      "stateMutability": "view",
      "type": "function"
    },
    {
      "inputs": [],
      "name": "WETH",
      "outputs": [
        {
          "internalType": "contract IWETH",
          "name": "",
          "type": "address"
        }
      ],
      "stateMutability": "view",
      "type": "function"
    },
    {
      "inputs": [],
      "name": "WPUNK",
      "outputs": [
        {
          "internalType": "contract IWrappedPunk",
          "name": "",
          "type": "address"
        }
      ],
      "stateMutability": "view",
      "type": "function"
    },
    {
      "inputs": [],
      "name": "WPUNK_PROXY_ADDRESS",
      "outputs": [
        {
          "internalType": "address",
          "name": "",
          "type": "address"
        }
      ],
      "stateMutability": "view",
      "type": "function"
    },
    {
      "inputs": [
        {
          "internalType": "uint256",
          "name": "reserveId",
          "type": "uint256"
        },
        {
          "internalType": "uint256",
          "name": "amount",
          "type": "uint256"
        },
        {
          "internalType": "uint256",
          "name": "duration",
          "type": "uint256"
        },
        {
          "internalType": "uint256",
          "name": "punkIndex",
          "type": "uint256"
        }
      ],
      "name": "borrow",
      "outputs": [],
      "stateMutability": "nonpayable",
      "type": "function"
    },
    {
      "inputs": [
        {
          "internalType": "uint256",
          "name": "reserveId",
          "type": "uint256"
        },
        {
          "internalType": "uint256",
          "name": "amount",
          "type": "uint256"
        },
        {
          "internalType": "uint256",
          "name": "duration",
          "type": "uint256"
        },
        {
          "internalType": "uint256",
          "name": "punkIndex",
          "type": "uint256"
        }
      ],
      "name": "borrowETH",
      "outputs": [],
      "stateMutability": "nonpayable",
      "type": "function"
    },
    {
      "inputs": [
        {
          "internalType": "address",
          "name": "",
          "type": "address"
        },
        {
          "internalType": "address",
          "name": "",
          "type": "address"
        },
        {
          "internalType": "uint256",
          "name": "",
          "type": "uint256"
        },
        {
          "internalType": "bytes",
          "name": "",
          "type": "bytes"
        }
      ],
      "name": "onERC721Received",
      "outputs": [
        {
          "internalType": "bytes4",
          "name": "",
          "type": "bytes4"
        }
      ],
      "stateMutability": "nonpayable",
      "type": "function"
    },
    {
      "inputs": [
        {
          "internalType": "uint256",
          "name": "loanId",
          "type": "uint256"
        }
      ],
      "name": "repay",
      "outputs": [],
      "stateMutability": "nonpayable",
      "type": "function"
    },
    {
      "inputs": [
        {
          "internalType": "uint256",
          "name": "loanId",
          "type": "uint256"
        }
      ],
      "name": "repayETH",
      "outputs": [],
      "stateMutability": "payable",
      "type": "function"
    },
    {
      "stateMutability": "payable",
      "type": "receive"
    }
  ],
  "transactionHash": "0x78d42c1a41dd586443bfdfcf6cbe8ecb28971ebae113f022f2fd003f673f1d6a",
  "args": [
    "0x72A780B33915D6D229E7b31A729AE42963A57c73",
    "0xb47e3cd837dDF8e4c57F05d70Ab865de6e193BBB",
    "0xb7F7F6C52F2e2fdb1963Eab30438024864c313F6",
    "0xC02aaA39b223FE8D0A0e5C4F27eAD9083C756Cc2"
  ],
  "solcInputHash": "0ca3f66e9bd5de21ebb7765f6cea382a",
  "bytecode": "0x6101206040523480156200001257600080fd5b506040516200235938038062002359833981016040819052620000359162000234565b6001600160a01b0380851660805283811660a05282811660c081905290821660e05260408051636eec0fc160e11b8152905163ddd81f829160048082019260009290919082900301818387803b1580156200008f57600080fd5b505af1158015620000a4573d6000803e3d6000fd5b505060c051604051631538f65960e31b81523060048201526001600160a01b03909116925063a9c7b2c891506024016020604051808303816000875af1158015620000f3573d6000803e3d6000fd5b505050506040513d601f19601f8201168201806040525081019062000119919062000291565b6001600160a01b0316610100816001600160a01b03168152505060c0516001600160a01b031663a22cb4656080516001600160a01b0316631755ff216040518163ffffffff1660e01b8152600401602060405180830381865afa15801562000185573d6000803e3d6000fd5b505050506040513d601f19601f82011682018060405250810190620001ab919062000291565b6040516001600160e01b031960e084901b1681526001600160a01b03909116600482015260016024820152604401600060405180830381600087803b158015620001f457600080fd5b505af115801562000209573d6000803e3d6000fd5b5050505050505050620002b6565b80516001600160a01b03811681146200022f57600080fd5b919050565b600080600080608085870312156200024b57600080fd5b620002568562000217565b9350620002666020860162000217565b9250620002766040860162000217565b9150620002866060860162000217565b905092959194509250565b600060208284031215620002a457600080fd5b620002af8262000217565b9392505050565b60805160a05160c05160e05161010051611fc462000395600039600081816101730152610fec01526000818161023301528181610625015281816107e701528181610d070152610db80152600081816102670152818161108d015281816111a401526115860152600081816101bf01528181610e9801528181610f730152818161101b015261161601526000818161029b015281816102c10152818161043301528181610529015281816108d0015281816109c601528181610c10015281816110f7015281816112a60152818161139b01526114300152611fc46000f3fe6080604052600436106100955760003560e01c8063371fd8e611610059578063371fd8e6146101e1578063900f60ba14610201578063ad5c464814610221578063add9cf0314610255578063ade97ab51461028957600080fd5b8063111d9482146100e3578063150b7a02146101055780632247463e1461014e578063268b463d14610161578063296f76b3146101ad57600080fd5b366100de577f88a5966d370b9919b20f3e2c13ff65706f196a4e32cc2c12bf57088f8852587433604080516001600160a01b0390921682523460208301520160405180910390a1005b600080fd5b3480156100ef57600080fd5b506101036100fe366004611aa4565b6102bd565b005b34801561011157600080fd5b50610130610120366004611b83565b630a85bd0160e11b949350505050565b6040516001600160e01b031990911681526020015b60405180910390f35b61010361015c366004611c47565b61042f565b34801561016d57600080fd5b506101957f000000000000000000000000000000000000000000000000000000000000000081565b6040516001600160a01b039091168152602001610145565b3480156101b957600080fd5b506101957f000000000000000000000000000000000000000000000000000000000000000081565b3480156101ed57600080fd5b506101036101fc366004611c47565b6108cc565b34801561020d57600080fd5b5061010361021c366004611aa4565b610c0c565b34801561022d57600080fd5b506101957f000000000000000000000000000000000000000000000000000000000000000081565b34801561026157600080fd5b506101957f000000000000000000000000000000000000000000000000000000000000000081565b34801561029557600080fd5b506101957f000000000000000000000000000000000000000000000000000000000000000081565b60007f00000000000000000000000000000000000000000000000000000000000000006001600160a01b0316631755ff216040518163ffffffff1660e01b8152600401602060405180830381865afa15801561031d573d6000803e3d6000fd5b505050506040513d601f19601f820116820180604052508101906103419190611c70565b6001600160a01b03166391541e05866040518263ffffffff1660e01b815260040161036e91815260200190565b61018060405180830381865afa15801561038c573d6000803e3d6000fd5b505050506040513d601f19601f820116820180604052508101906103b09190611cd2565b60200151905060006103c486868686610e75565b90506103da6001600160a01b038316338761123a565b604080518681526020810186905290810184905260608101829052339087907f8022857986a1f6403c350b6ffd0f3ceef7b305fe08e1bc74b0841f4d41d3a92d906080015b60405180910390a3505050505050565b60007f00000000000000000000000000000000000000000000000000000000000000006001600160a01b03166335bc868a6040518163ffffffff1660e01b8152600401602060405180830381865afa15801561048f573d6000803e3d6000fd5b505050506040513d601f19601f820116820180604052508101906104b39190611c70565b60405163622fe39f60e01b8152600481018490529091506000906001600160a01b0383169063622fe39f906024016101c060405180830381865afa1580156104ff573d6000803e3d6000fd5b505050506040513d601f19601f820116820180604052508101906105239190611daa565b905060007f00000000000000000000000000000000000000000000000000000000000000006001600160a01b0316631755ff216040518163ffffffff1660e01b8152600401602060405180830381865afa158015610585573d6000803e3d6000fd5b505050506040513d601f19601f820116820180604052508101906105a99190611c70565b82516040516391541e0560e01b81526001600160a01b0392909216916391541e05916105db9160040190815260200190565b61018060405180830381865afa1580156105f9573d6000803e3d6000fd5b505050506040513d601f19601f8201168201806040525081019061061d9190611cd2565b6020015190507f00000000000000000000000000000000000000000000000000000000000000006001600160a01b0316816001600160a01b0316146106b35760405162461bcd60e51b815260206004820152602160248201527f52455041595f4554485f524553455256455f41535345545f4e4f545f4d4154436044820152600960fb1b60648201526084015b60405180910390fd5b604051636b52b36560e01b8152600481018590526000906001600160a01b03851690636b52b36590602401602060405180830381865afa1580156106fb573d6000803e3d6000fd5b505050506040513d601f19601f8201168201806040525081019061071f9190611e9a565b604051634b72cb4160e11b8152600481018790529091506000906001600160a01b038616906396e5968290602401602060405180830381865afa15801561076a573d6000803e3d6000fd5b505050506040513d601f19601f8201168201806040525081019061078e9190611e9a565b9050600061079c8284611ec9565b9050803410156107e55760405162461bcd60e51b81526020600482015260146024820152730a48aa082b2be8aa890be9c9ea8be8a9c9eaa8e960631b60448201526064016106aa565b7f00000000000000000000000000000000000000000000000000000000000000006001600160a01b031663d0e30db0826040518263ffffffff1660e01b81526004016000604051808303818588803b15801561084057600080fd5b505af1158015610854573d6000803e3d6000fd5b5050505050610865878686846112a2565b80341115610880576108803361087b8334611ee1565b61167c565b84516040808701518151908152602081018a90523392917f58a95140c905d05fa474061eeec893aa434dab2bc58eaa7b48056fce4996e18b91015b60405180910390a350505050505050565b60007f00000000000000000000000000000000000000000000000000000000000000006001600160a01b03166335bc868a6040518163ffffffff1660e01b8152600401602060405180830381865afa15801561092c573d6000803e3d6000fd5b505050506040513d601f19601f820116820180604052508101906109509190611c70565b60405163622fe39f60e01b8152600481018490529091506000906001600160a01b0383169063622fe39f906024016101c060405180830381865afa15801561099c573d6000803e3d6000fd5b505050506040513d601f19601f820116820180604052508101906109c09190611daa565b905060007f00000000000000000000000000000000000000000000000000000000000000006001600160a01b0316631755ff216040518163ffffffff1660e01b8152600401602060405180830381865afa158015610a22573d6000803e3d6000fd5b505050506040513d601f19601f82011682018060405250810190610a469190611c70565b82516040516391541e0560e01b81526001600160a01b0392909216916391541e0591610a789160040190815260200190565b61018060405180830381865afa158015610a96573d6000803e3d6000fd5b505050506040513d601f19601f82011682018060405250810190610aba9190611cd2565b60200151604051636b52b36560e01b8152600481018690529091506000906001600160a01b03851690636b52b36590602401602060405180830381865afa158015610b09573d6000803e3d6000fd5b505050506040513d601f19601f82011682018060405250810190610b2d9190611e9a565b604051634b72cb4160e11b8152600481018790529091506000906001600160a01b038616906396e5968290602401602060405180830381865afa158015610b78573d6000803e3d6000fd5b505050506040513d601f19601f82011682018060405250810190610b9c9190611e9a565b90506000610baa8284611ec9565b9050610bc16001600160a01b038516333084611715565b610bcd878686846112a2565b84516040808701518151908152602081018a90523392917f4e209d95368098bc8c8a8b0010964bca5d6789b67388238d3a2bad8e236e54b091016108bb565b60007f00000000000000000000000000000000000000000000000000000000000000006001600160a01b0316631755ff216040518163ffffffff1660e01b8152600401602060405180830381865afa158015610c6c573d6000803e3d6000fd5b505050506040513d601f19601f82011682018060405250810190610c909190611c70565b6001600160a01b03166391541e05866040518263ffffffff1660e01b8152600401610cbd91815260200190565b61018060405180830381865afa158015610cdb573d6000803e3d6000fd5b505050506040513d601f19601f82011682018060405250810190610cff9190611cd2565b6020015190507f00000000000000000000000000000000000000000000000000000000000000006001600160a01b0316816001600160a01b031614610d915760405162461bcd60e51b815260206004820152602260248201527f424f52524f575f4554485f524553455256455f41535345545f4e4f545f4d4154604482015261086960f31b60648201526084016106aa565b6000610d9f86868686610e75565b604051632e1a7d4d60e01b8152600481018790529091507f00000000000000000000000000000000000000000000000000000000000000006001600160a01b031690632e1a7d4d90602401600060405180830381600087803b158015610e0457600080fd5b505af1158015610e18573d6000803e3d6000fd5b50505050610e2c610e263390565b8661167c565b604080518681526020810186905290810184905260608101829052339087907fd0f65229433ec4eae01027a1d44f915a610fadee0436aad3533c78340c7dfb959060800161041f565b604051630b02f02d60e31b81526004810182905260009081906001600160a01b037f00000000000000000000000000000000000000000000000000000000000000001690635817816890602401602060405180830381865afa158015610edf573d6000803e3d6000fd5b505050506040513d601f19601f82011682018060405250810190610f039190611c70565b90506001600160a01b0381163314610f5d5760405162461bcd60e51b815260206004820152601860248201527f424f52524f575f4e4f545f4f574e45525f4f465f50554e4b000000000000000060448201526064016106aa565b60405163104c9fd360e31b8152600481018490527f00000000000000000000000000000000000000000000000000000000000000006001600160a01b031690638264fe9890602401600060405180830381600087803b158015610fbf57600080fd5b505af1158015610fd3573d6000803e3d6000fd5b50506040516322dca8bb60e21b81526001600160a01b037f000000000000000000000000000000000000000000000000000000000000000081166004830152602482018790527f0000000000000000000000000000000000000000000000000000000000000000169250638b72a2ec9150604401600060405180830381600087803b15801561106157600080fd5b505af1158015611075573d6000803e3d6000fd5b505060405163140e25ad60e31b8152600481018690527f00000000000000000000000000000000000000000000000000000000000000006001600160a01b0316925063a0712d689150602401600060405180830381600087803b1580156110db57600080fd5b505af11580156110ef573d6000803e3d6000fd5b5050505060007f00000000000000000000000000000000000000000000000000000000000000006001600160a01b0316631755ff216040518163ffffffff1660e01b8152600401602060405180830381865afa158015611153573d6000803e3d6000fd5b505050506040513d601f19601f820116820180604052508101906111779190611c70565b6040805163f668a9c560e01b8152600481018a905260248101899052604481018890526001600160a01b037f000000000000000000000000000000000000000000000000000000000000000081166064830152608482018890523360a48301529151929091169163f668a9c59160c48082019260209290919082900301816000875af115801561120b573d6000803e3d6000fd5b505050506040513d601f19601f8201168201806040525081019061122f9190611e9a565b979650505050505050565b6040516001600160a01b03831660248201526044810182905261129d90849063a9059cbb60e01b906064015b60408051601f198184030181529190526020810180516001600160e01b03166001600160e01b031990931692909217909152611753565b505050565b60007f00000000000000000000000000000000000000000000000000000000000000006001600160a01b03166335bc868a6040518163ffffffff1660e01b8152600401602060405180830381865afa158015611302573d6000803e3d6000fd5b505050506040513d601f19601f820116820180604052508101906113269190611c70565b6001600160a01b0316636352211e866040518263ffffffff1660e01b815260040161135391815260200190565b602060405180830381865afa158015611370573d6000803e3d6000fd5b505050506040513d601f19601f820116820180604052508101906113949190611c70565b905061142c7f00000000000000000000000000000000000000000000000000000000000000006001600160a01b0316631755ff216040518163ffffffff1660e01b8152600401602060405180830381865afa1580156113f7573d6000803e3d6000fd5b505050506040513d601f19601f8201168201806040525081019061141b9190611c70565b6001600160a01b0385169084611825565b60007f00000000000000000000000000000000000000000000000000000000000000006001600160a01b0316631755ff216040518163ffffffff1660e01b8152600401602060405180830381865afa15801561148c573d6000803e3d6000fd5b505050506040513d601f19601f820116820180604052508101906114b09190611c70565b6001600160a01b031663371fd8e6876040518263ffffffff1660e01b81526004016114dd91815260200190565b6020604051808303816000875af11580156114fc573d6000803e3d6000fd5b505050506040513d601f19601f820116820180604052508101906115209190611e9a565b905082811461156a5760405162461bcd60e51b81526020600482015260166024820152750a48aa082b2be829a9eaa9ca8be9c9ea8be9a82a886960531b60448201526064016106aa565b6040858101519051630852cd8d60e31b815260048101919091527f00000000000000000000000000000000000000000000000000000000000000006001600160a01b0316906342966c6890602401600060405180830381600087803b1580156115d257600080fd5b505af11580156115e6573d6000803e3d6000fd5b5050505060408581015190516322dca8bb60e21b81526001600160a01b03848116600483015260248201929092527f000000000000000000000000000000000000000000000000000000000000000090911690638b72a2ec90604401600060405180830381600087803b15801561165c57600080fd5b505af1158015611670573d6000803e3d6000fd5b50505050505050505050565b6000826001600160a01b03168260405160006040518083038185875af1925050503d80600081146116c9576040519150601f19603f3d011682016040523d82523d6000602084013e6116ce565b606091505b505090508061129d5760405162461bcd60e51b815260206004820152601360248201527211551217d514905394d1915497d19052531151606a1b60448201526064016106aa565b6040516001600160a01b038085166024830152831660448201526064810182905261174d9085906323b872dd60e01b90608401611266565b50505050565b60006117a8826040518060400160405280602081526020017f5361666545524332303a206c6f772d6c6576656c2063616c6c206661696c6564815250856001600160a01b031661193a9092919063ffffffff16565b80519091501561129d57808060200190518101906117c69190611ef8565b61129d5760405162461bcd60e51b815260206004820152602a60248201527f5361666545524332303a204552433230206f7065726174696f6e20646964206e6044820152691bdd081cdd58d8d9595960b21b60648201526084016106aa565b80158061189f5750604051636eb1769f60e11b81523060048201526001600160a01b03838116602483015284169063dd62ed3e90604401602060405180830381865afa158015611879573d6000803e3d6000fd5b505050506040513d601f19601f8201168201806040525081019061189d9190611e9a565b155b61190a5760405162461bcd60e51b815260206004820152603660248201527f5361666545524332303a20617070726f76652066726f6d206e6f6e2d7a65726f60448201527520746f206e6f6e2d7a65726f20616c6c6f77616e636560501b60648201526084016106aa565b6040516001600160a01b03831660248201526044810182905261129d90849063095ea7b360e01b90606401611266565b60606119498484600085611953565b90505b9392505050565b6060824710156119b45760405162461bcd60e51b815260206004820152602660248201527f416464726573733a20696e73756666696369656e742062616c616e636520666f6044820152651c8818d85b1b60d21b60648201526084016106aa565b843b611a025760405162461bcd60e51b815260206004820152601d60248201527f416464726573733a2063616c6c20746f206e6f6e2d636f6e747261637400000060448201526064016106aa565b600080866001600160a01b03168587604051611a1e9190611f3f565b60006040518083038185875af1925050503d8060008114611a5b576040519150601f19603f3d011682016040523d82523d6000602084013e611a60565b606091505b509150915061122f82828660608315611a7a57508161194c565b825115611a8a5782518084602001fd5b8160405162461bcd60e51b81526004016106aa9190611f5b565b60008060008060808587031215611aba57600080fd5b5050823594602084013594506040840135936060013592509050565b6001600160a01b0381168114611aeb57600080fd5b50565b634e487b7160e01b600052604160045260246000fd5b604051610180810167ffffffffffffffff81118282101715611b2857611b28611aee565b60405290565b6040516101c0810167ffffffffffffffff81118282101715611b2857611b28611aee565b604051601f8201601f1916810167ffffffffffffffff81118282101715611b7b57611b7b611aee565b604052919050565b60008060008060808587031215611b9957600080fd5b8435611ba481611ad6565b9350602085810135611bb581611ad6565b935060408601359250606086013567ffffffffffffffff80821115611bd957600080fd5b818801915088601f830112611bed57600080fd5b813581811115611bff57611bff611aee565b611c11601f8201601f19168501611b52565b91508082528984828501011115611c2757600080fd5b808484018584013760008482840101525080935050505092959194509250565b600060208284031215611c5957600080fd5b5035919050565b8051611c6b81611ad6565b919050565b600060208284031215611c8257600080fd5b815161194c81611ad6565b80516fffffffffffffffffffffffffffffffff81168114611c6b57600080fd5b805164ffffffffff81168114611c6b57600080fd5b80518015158114611c6b57600080fd5b60006101808284031215611ce557600080fd5b611ced611b04565b82518152611cfd60208401611c60565b6020820152611d0e60408401611c60565b6040820152611d1f60608401611c60565b6060820152611d3060808401611c8d565b608082015260a083015160a082015260c083015160c0820152611d5560e08401611cad565b60e08201526101008381015190820152610120611d73818501611c60565b908201526101408381015190820152610160611d90818501611cc2565b908201529392505050565b805160068110611c6b57600080fd5b60006101c08284031215611dbd57600080fd5b611dc5611b2e565b82518152611dd560208401611c60565b602082015260408301516040820152611df060608401611c60565b606082015260808301516080820152611e0b60a08401611c8d565b60a0820152611e1c60c08401611c8d565b60c0820152611e2d60e08401611cad565b60e0820152610100611e40818501611cad565b90820152610120611e52848201611cad565b90820152610140611e64848201611cad565b90820152610160611e76848201611cad565b90820152610180611e88848201611cad565b908201526101a0611d90848201611d9b565b600060208284031215611eac57600080fd5b5051919050565b634e487b7160e01b600052601160045260246000fd5b60008219821115611edc57611edc611eb3565b500190565b600082821015611ef357611ef3611eb3565b500390565b600060208284031215611f0a57600080fd5b61194c82611cc2565b60005b83811015611f2e578181015183820152602001611f16565b8381111561174d5750506000910152565b60008251611f51818460208701611f13565b9190910192915050565b6020815260008251806020840152611f7a816040850160208701611f13565b601f01601f1916919091016040019291505056fea26469706673582212208d0a395253dd80f8c4c1ac73df756ee9f89140a7b07666be99836c14ae252a6564736f6c634300080a0033",
  "devdoc": {
    "kind": "dev",
    "methods": {
      "onERC721Received(address,address,uint256,bytes)": {
        "details": "See {IERC721Receiver-onERC721Received}. Always returns `IERC721Receiver.onERC721Received.selector`."
      }
    },
    "version": 1
  },
  "userdoc": {
    "kind": "user",
    "methods": {
      "repay(uint256)": {
        "notice": "Only loan NFT owner can repay"
      }
    },
    "version": 1
  },
  "storageLayout": {
    "storage": [],
    "types": null
  }
}