{
  "address": "0x10eB78Cb44DBdf947A44657e9D616ea191f6bEb7",
  "abi": [
    {
      "inputs": [
        {
          "internalType": "contract IOpenSkyBespokeMarket",
          "name": "MARKET_",
          "type": "address"
        }
      ],
      "stateMutability": "nonpayable",
      "type": "constructor"
    },
    {
      "inputs": [],
      "name": "MARKET",
      "outputs": [
        {
          "internalType": "contract IOpenSkyBespokeMarket",
          "name": "",
          "type": "address"
        }
      ],
      "stateMutability": "view",
      "type": "function"
    },
    {
      "inputs": [
        {
          "internalType": "uint256",
          "name": "loanId",
          "type": "uint256"
        }
      ],
      "name": "getLoanData",
      "outputs": [
        {
          "components": [
            {
              "internalType": "address",
              "name": "tokenAddress",
              "type": "address"
            },
            {
              "internalType": "uint256",
              "name": "tokenId",
              "type": "uint256"
            },
            {
              "internalType": "uint256",
              "name": "tokenAmount",
              "type": "uint256"
            },
            {
              "internalType": "address",
              "name": "nftManager",
              "type": "address"
            },
            {
              "internalType": "address",
              "name": "borrower",
              "type": "address"
            },
            {
              "internalType": "address",
              "name": "lender",
              "type": "address"
            },
            {
              "internalType": "uint256",
              "name": "amount",
              "type": "uint256"
            },
            {
              "internalType": "uint128",
              "name": "borrowRate",
              "type": "uint128"
            },
            {
              "internalType": "uint128",
              "name": "interestPerSecond",
              "type": "uint128"
            },
            {
              "internalType": "address",
              "name": "currency",
              "type": "address"
            },
            {
              "internalType": "address",
              "name": "lendAsset",
              "type": "address"
            },
            {
              "internalType": "uint256",
              "name": "reserveFactor",
              "type": "uint256"
            },
            {
              "internalType": "uint256",
              "name": "overdueLoanFeeFactor",
              "type": "uint256"
            },
            {
              "internalType": "uint40",
              "name": "borrowDuration",
              "type": "uint40"
            },
            {
              "internalType": "uint40",
              "name": "borrowBegin",
              "type": "uint40"
            },
            {
              "internalType": "uint40",
              "name": "borrowOverdueTime",
              "type": "uint40"
            },
            {
              "internalType": "uint40",
              "name": "liquidatableTime",
              "type": "uint40"
            },
            {
              "internalType": "bool",
              "name": "isProrated",
              "type": "bool"
            },
            {
              "internalType": "bool",
              "name": "autoConvertWhenRepay",
              "type": "bool"
            },
            {
              "internalType": "enum BespokeTypes.LoanStatus",
              "name": "status",
              "type": "uint8"
            },
            {
              "internalType": "uint256",
              "name": "loanId",
              "type": "uint256"
            },
            {
              "internalType": "uint256",
              "name": "borrowBalance",
              "type": "uint256"
            },
            {
              "internalType": "uint256",
              "name": "penalty",
              "type": "uint256"
            },
            {
              "internalType": "uint256",
              "name": "borrowInterest",
              "type": "uint256"
            }
          ],
          "internalType": "struct IOpenSkyBespokeDataProvider.LoanDataUI",
          "name": "",
          "type": "tuple"
        }
      ],
      "stateMutability": "view",
      "type": "function"
    }
  ],
  "transactionHash": "0x3d88dac6f6a3831f5216a781c17ed03d9bce4ec326ce69fd69259f90a0eb408a",
  "args": [
    "0x658B5CE03023FF02609004F7f0E700CcE109Fd4d"
  ],
  "solcInputHash": "7ad303b286575ef411a5e37ffb20c3c3",
  "bytecode": "0x60a060405234801561001057600080fd5b50604051610b4f380380610b4f83398101604081905261002f91610040565b6001600160a01b0316608052610070565b60006020828403121561005257600080fd5b81516001600160a01b038116811461006957600080fd5b9392505050565b608051610aa96100a6600039600081816069015281816101a6015281816103ea0152818161048b015261052c0152610aa96000f3fe608060405234801561001057600080fd5b50600436106100365760003560e01c8063622fe39f1461003b578063f46f16c214610064575b600080fd5b61004e6100493660046105cf565b6100b0565b60405161005b9190610652565b60405180910390f35b61008b7f000000000000000000000000000000000000000000000000000000000000000081565b60405173ffffffffffffffffffffffffffffffffffffffff909116815260200161005b565b6101746040805161030081018252600080825260208201819052918101829052606081018290526080810182905260a0810182905260c0810182905260e08101829052610100810182905261012081018290526101408101829052610160810182905261018081018290526101a081018290526101c081018290526101e08101829052610200810182905261022081018290526102408101829052906102608201908152602001600081526020016000815260200160008152602001600081525090565b6040517f622fe39f000000000000000000000000000000000000000000000000000000008152600481018390526000907f000000000000000000000000000000000000000000000000000000000000000073ffffffffffffffffffffffffffffffffffffffff169063622fe39f9060240161028060405180830381865afa158015610203573d6000803e3d6000fd5b505050506040513d601f19601f820116820180604052508101906102279190610901565b9050604051806103000160405280826000015173ffffffffffffffffffffffffffffffffffffffff1681526020018260200151815260200182604001518152602001826060015173ffffffffffffffffffffffffffffffffffffffff168152602001826080015173ffffffffffffffffffffffffffffffffffffffff1681526020018260a0015173ffffffffffffffffffffffffffffffffffffffff1681526020018260c0015181526020018260e001516fffffffffffffffffffffffffffffffff1681526020018261010001516fffffffffffffffffffffffffffffffff16815260200182610120015173ffffffffffffffffffffffffffffffffffffffff16815260200182610140015173ffffffffffffffffffffffffffffffffffffffff16815260200182610160015181526020018261018001518152602001826101a0015164ffffffffff168152602001826101c0015164ffffffffff168152602001826101e0015164ffffffffff16815260200182610200015164ffffffffff168152602001826102200151151581526020018261024001511515815260200182610260015160038111156103dd576103dd6105e8565b81526020018481526020017f000000000000000000000000000000000000000000000000000000000000000073ffffffffffffffffffffffffffffffffffffffff16636b52b365866040518263ffffffff1660e01b815260040161044391815260200190565b602060405180830381865afa158015610460573d6000803e3d6000fd5b505050506040513d601f19601f820116820180604052508101906104849190610a5a565b81526020017f000000000000000000000000000000000000000000000000000000000000000073ffffffffffffffffffffffffffffffffffffffff166396e59682866040518263ffffffff1660e01b81526004016104e491815260200190565b602060405180830381865afa158015610501573d6000803e3d6000fd5b505050506040513d601f19601f820116820180604052508101906105259190610a5a565b81526020017f000000000000000000000000000000000000000000000000000000000000000073ffffffffffffffffffffffffffffffffffffffff16631c187495866040518263ffffffff1660e01b815260040161058591815260200190565b602060405180830381865afa1580156105a2573d6000803e3d6000fd5b505050506040513d601f19601f820116820180604052508101906105c69190610a5a565b90529392505050565b6000602082840312156105e157600080fd5b5035919050565b7f4e487b7100000000000000000000000000000000000000000000000000000000600052602160045260246000fd5b6004811061064e577f4e487b7100000000000000000000000000000000000000000000000000000000600052602160045260246000fd5b9052565b815173ffffffffffffffffffffffffffffffffffffffff1681526103008101602083015160208301526040830151604083015260608301516106ac606084018273ffffffffffffffffffffffffffffffffffffffff169052565b5060808301516106d4608084018273ffffffffffffffffffffffffffffffffffffffff169052565b5060a08301516106fc60a084018273ffffffffffffffffffffffffffffffffffffffff169052565b5060c083015160c083015260e083015161072a60e08401826fffffffffffffffffffffffffffffffff169052565b50610100838101516fffffffffffffffffffffffffffffffff16908301526101208084015173ffffffffffffffffffffffffffffffffffffffff908116918401919091526101408085015190911690830152610160808401519083015261018080840151908301526101a08084015164ffffffffff908116918401919091526101c0808501518216908401526101e08085015182169084015261020080850151909116908301526102208084015115159083015261024080840151151590830152610260808401516107fe82850182610617565b505061028083810151908301526102a080840151908301526102c080840151908301526102e092830151929091019190915290565b604051610280810167ffffffffffffffff8111828210171561087e577f4e487b7100000000000000000000000000000000000000000000000000000000600052604160045260246000fd5b60405290565b805173ffffffffffffffffffffffffffffffffffffffff811681146108a857600080fd5b919050565b80516fffffffffffffffffffffffffffffffff811681146108a857600080fd5b805164ffffffffff811681146108a857600080fd5b805180151581146108a857600080fd5b8051600481106108a857600080fd5b6000610280828403121561091457600080fd5b61091c610833565b61092583610884565b8152602083015160208201526040830151604082015261094760608401610884565b606082015261095860808401610884565b608082015261096960a08401610884565b60a082015260c083015160c082015261098460e084016108ad565b60e08201526101006109978185016108ad565b908201526101206109a9848201610884565b908201526101406109bb848201610884565b90820152610160838101519082015261018080840151908201526101a06109e38185016108cd565b908201526101c06109f58482016108cd565b908201526101e0610a078482016108cd565b90820152610200610a198482016108cd565b90820152610220610a2b8482016108e2565b90820152610240610a3d8482016108e2565b90820152610260610a4f8482016108f2565b908201529392505050565b600060208284031215610a6c57600080fd5b505191905056fea2646970667358221220901409dade1fe146cda646f1c0fd3ddfde750e5c88362c8291e98accff18bbf764736f6c634300080a0033",
  "libraries": {
    "BespokeTypes": "0xEDB6d57F6645bAce2E2DD77CCc6937FF8B2d3a86"
  },
  "devdoc": {
    "kind": "dev",
    "methods": {},
    "version": 1
  },
  "userdoc": {
    "kind": "user",
    "methods": {},
    "version": 1
  },
  "storageLayout": {
    "storage": [],
    "types": null
  }
}