{
  "address": "0x35b23a0f8afa4ae416e36f60512f514bd7e8544f",
  "abi": [
    {
      "inputs": [
        {
          "internalType": "address",
          "name": "_aclManager",
          "type": "address"
        },
        {
          "internalType": "string",
          "name": "_baseURI",
          "type": "string"
        }
      ],
      "stateMutability": "nonpayable",
      "type": "constructor"
    },
    {
      "inputs": [],
      "name": "ACLManager",
      "outputs": [
        {
          "internalType": "contract IACLManager",
          "name": "",
          "type": "address"
        }
      ],
      "stateMutability": "view",
      "type": "function"
    },
    {
      "inputs": [],
      "name": "baseURI",
      "outputs": [
        {
          "internalType": "string",
          "name": "",
          "type": "string"
        }
      ],
      "stateMutability": "view",
      "type": "function"
    },
    {
      "inputs": [
        {
          "internalType": "string",
          "name": "_baseURI",
          "type": "string"
        }
      ],
      "name": "setBaseURI",
      "outputs": [],
      "stateMutability": "nonpayable",
      "type": "function"
    },
    {
      "inputs": [
        {
          "internalType": "uint256",
          "name": "tokenId",
          "type": "uint256"
        }
      ],
      "name": "tokenURI",
      "outputs": [
        {
          "internalType": "string",
          "name": "",
          "type": "string"
        }
      ],
      "stateMutability": "view",
      "type": "function"
    }
  ],
  "transactionHash": "0x0d0c8ce4ebc5917da3475eaa568d1f5d7cadbe292be525235c7a158c875352c6",
  "args": [
    "0xc4F6A3334085EB4A27578bC0EA23bF301E9822F0",
    "https://api.opensky.finance/loan/bespoke-loans/"
  ],
  "solcInputHash": "1721f0f7cbef4e86a19ebd1acdd12aef",
  "bytecode": "0x60a06040523480156200001157600080fd5b5060405162000bad38038062000bad83398101604081905262000034916200011b565b6001600160a01b0382166080528051620000569060009060208401906200005f565b50505062000258565b8280546200006d906200021b565b90600052602060002090601f016020900481019282620000915760008555620000dc565b82601f10620000ac57805160ff1916838001178555620000dc565b82800160010185558215620000dc579182015b82811115620000dc578251825591602001919060010190620000bf565b50620000ea929150620000ee565b5090565b5b80821115620000ea5760008155600101620000ef565b634e487b7160e01b600052604160045260246000fd5b600080604083850312156200012f57600080fd5b82516001600160a01b03811681146200014757600080fd5b602084810151919350906001600160401b03808211156200016757600080fd5b818601915086601f8301126200017c57600080fd5b81518181111562000191576200019162000105565b604051601f8201601f19908116603f01168101908382118183101715620001bc57620001bc62000105565b816040528281528986848701011115620001d557600080fd5b600093505b82841015620001f95784840186015181850187015292850192620001da565b828411156200020b5760008684830101525b8096505050505050509250929050565b600181811c908216806200023057607f821691505b602082108114156200025257634e487b7160e01b600052602260045260246000fd5b50919050565b6080516109336200027a600039600081816089015261011101526109336000f3fe608060405234801561001057600080fd5b506004361061004c5760003560e01c806355f804b3146100515780636c0360eb14610066578063b0a9d7fd14610084578063c87b56dd146100d0575b600080fd5b61006461005f366004610500565b6100e3565b005b61006e610212565b60405161007b91906105ff565b60405180910390f35b6100ab7f000000000000000000000000000000000000000000000000000000000000000081565b60405173ffffffffffffffffffffffffffffffffffffffff909116815260200161007b565b61006e6100de366004610650565b6102a0565b6040517fdee1f0e40000000000000000000000000000000000000000000000000000000081523360048201527f000000000000000000000000000000000000000000000000000000000000000073ffffffffffffffffffffffffffffffffffffffff169063dee1f0e490602401602060405180830381865afa15801561016d573d6000803e3d6000fd5b505050506040513d601f19601f820116820180604052508101906101919190610669565b6101fb576040517f08c379a000000000000000000000000000000000000000000000000000000000815260206004820152601c60248201527f41434c5f4f4e4c595f474f5645524e414e43455f43414e5f43414c4c00000000604482015260640160405180910390fd5b805161020e906000906020840190610438565b5050565b6000805461021f90610692565b80601f016020809104026020016040519081016040528092919081815260200182805461024b90610692565b80156102985780601f1061026d57610100808354040283529160200191610298565b820191906000526020600020905b81548152906001019060200180831161027b57829003601f168201915b505050505081565b606060008080546102b090610692565b9050116102cc57604051806020016040528060008152506102f8565b60006102d7836102fe565b6040516020016102e8929190610702565b6040516020818303038152906040525b92915050565b60608161033e57505060408051808201909152600181527f3000000000000000000000000000000000000000000000000000000000000000602082015290565b8160005b811561036857806103528161080f565b91506103619050600a83610877565b9150610342565b60008167ffffffffffffffff811115610383576103836104d1565b6040519080825280601f01601f1916602001820160405280156103ad576020820181803683370190505b5090505b8415610430576103c260018361088b565b91506103cf600a866108a2565b6103da9060306108b6565b60f81b8183815181106103ef576103ef6108ce565b60200101907effffffffffffffffffffffffffffffffffffffffffffffffffffffffffffff1916908160001a905350610429600a86610877565b94506103b1565b949350505050565b82805461044490610692565b90600052602060002090601f01602090048101928261046657600085556104ac565b82601f1061047f57805160ff19168380011785556104ac565b828001600101855582156104ac579182015b828111156104ac578251825591602001919060010190610491565b506104b89291506104bc565b5090565b5b808211156104b857600081556001016104bd565b7f4e487b7100000000000000000000000000000000000000000000000000000000600052604160045260246000fd5b60006020828403121561051257600080fd5b813567ffffffffffffffff8082111561052a57600080fd5b818401915084601f83011261053e57600080fd5b813581811115610550576105506104d1565b604051601f82017fffffffffffffffffffffffffffffffffffffffffffffffffffffffffffffffe0908116603f01168101908382118183101715610596576105966104d1565b816040528281528760208487010111156105af57600080fd5b826020860160208301376000928101602001929092525095945050505050565b60005b838110156105ea5781810151838201526020016105d2565b838111156105f9576000848401525b50505050565b602081526000825180602084015261061e8160408501602087016105cf565b601f017fffffffffffffffffffffffffffffffffffffffffffffffffffffffffffffffe0169190910160400192915050565b60006020828403121561066257600080fd5b5035919050565b60006020828403121561067b57600080fd5b8151801515811461068b57600080fd5b9392505050565b600181811c908216806106a657607f821691505b602082108114156106e0577f4e487b7100000000000000000000000000000000000000000000000000000000600052602260045260246000fd5b50919050565b600081516106f88185602086016105cf565b9290920192915050565b600080845481600182811c91508083168061071e57607f831692505b6020808410821415610757577f4e487b710000000000000000000000000000000000000000000000000000000086526022600452602486fd5b81801561076b576001811461079a576107c7565b7fffffffffffffffffffffffffffffffffffffffffffffffffffffffffffffff008616895284890196506107c7565b60008b81526020902060005b868110156107bf5781548b8201529085019083016107a6565b505084890196505b5050505050506107d781856106e6565b95945050505050565b7f4e487b7100000000000000000000000000000000000000000000000000000000600052601160045260246000fd5b60007fffffffffffffffffffffffffffffffffffffffffffffffffffffffffffffffff821415610841576108416107e0565b5060010190565b7f4e487b7100000000000000000000000000000000000000000000000000000000600052601260045260246000fd5b60008261088657610886610848565b500490565b60008282101561089d5761089d6107e0565b500390565b6000826108b1576108b1610848565b500690565b600082198211156108c9576108c96107e0565b500190565b7f4e487b7100000000000000000000000000000000000000000000000000000000600052603260045260246000fdfea264697066735822122027855502c094bf417d3da78a96f37ecc921c1500d8d9888b02e81066cff8912b64736f6c634300080a0033",
  "devdoc": {
    "kind": "dev",
    "methods": {},
    "version": 1
  },
  "userdoc": {
    "kind": "user",
    "methods": {},
    "version": 1
  },
  "storageLayout": {
    "storage": [
      {
        "astId": 27343,
        "contract": "contracts/misc/OpenSkyNFTDescriptor.sol:OpenSkyNFTDescriptor",
        "label": "baseURI",
        "offset": 0,
        "slot": "0",
        "type": "t_string_storage"
      }
    ],
    "types": {
      "t_string_storage": {
        "encoding": "bytes",
        "label": "string",
        "numberOfBytes": "32"
      }
    }
  }
}