{
  "address": "0x94F8B07271a07D9123470a382D53b183bb2eC6bB",
  "abi": [
    {
      "inputs": [
        {
          "internalType": "address",
          "name": "settingsAddress",
          "type": "address"
        },
        {
          "internalType": "address",
          "name": "daoVaultAddress",
          "type": "address"
        },
        {
          "internalType": "address",
          "name": "uniswapRouterAddress",
          "type": "address"
        },
        {
          "internalType": "address",
          "name": "wethAddress",
          "type": "address"
        }
      ],
      "stateMutability": "nonpayable",
      "type": "constructor"
    },
    {
      "anonymous": false,
      "inputs": [
        {
          "indexed": false,
          "internalType": "address",
          "name": "fromAsset",
          "type": "address"
        },
        {
          "indexed": false,
          "internalType": "address",
          "name": "toAsset",
          "type": "address"
        },
        {
          "indexed": false,
          "internalType": "uint256",
          "name": "fromAmount",
          "type": "uint256"
        },
        {
          "indexed": false,
          "internalType": "uint256",
          "name": "receivedAmount",
          "type": "uint256"
        }
      ],
      "name": "Swapped",
      "type": "event"
    },
    {
      "inputs": [],
      "name": "DAO_VAULT_ADDRESS",
      "outputs": [
        {
          "internalType": "address",
          "name": "",
          "type": "address"
        }
      ],
      "stateMutability": "view",
      "type": "function"
    },
    {
      "inputs": [],
      "name": "SETTINGS",
      "outputs": [
        {
          "internalType": "contract IOpenSkySettings",
          "name": "",
          "type": "address"
        }
      ],
      "stateMutability": "view",
      "type": "function"
    },
    {
      "inputs": [],
      "name": "UNISWAP_ROUTER",
      "outputs": [
        {
          "internalType": "contract IUniswapV2Router02",
          "name": "",
          "type": "address"
        }
      ],
      "stateMutability": "view",
      "type": "function"
    },
    {
      "inputs": [],
      "name": "WETH_ADDRESS",
      "outputs": [
        {
          "internalType": "address",
          "name": "",
          "type": "address"
        }
      ],
      "stateMutability": "view",
      "type": "function"
    },
    {
      "inputs": [
        {
          "internalType": "address",
          "name": "token",
          "type": "address"
        },
        {
          "internalType": "uint256",
          "name": "amount",
          "type": "uint256"
        }
      ],
      "name": "pullERC20FromDaoVault",
      "outputs": [],
      "stateMutability": "nonpayable",
      "type": "function"
    },
    {
      "inputs": [
        {
          "internalType": "contract IERC20",
          "name": "token",
          "type": "address"
        }
      ],
      "name": "rescueTokens",
      "outputs": [],
      "stateMutability": "nonpayable",
      "type": "function"
    },
    {
      "inputs": [
        {
          "internalType": "address",
          "name": "assetToSwapFrom",
          "type": "address"
        },
        {
          "internalType": "address",
          "name": "assetToSwapTo",
          "type": "address"
        },
        {
          "internalType": "uint256",
          "name": "amountToSwap",
          "type": "uint256"
        },
        {
          "internalType": "uint256",
          "name": "minAmountOut",
          "type": "uint256"
        },
        {
          "internalType": "bool",
          "name": "useEthPath",
          "type": "bool"
        }
      ],
      "name": "swapExactTokensForTokens",
      "outputs": [
        {
          "internalType": "uint256",
          "name": "",
          "type": "uint256"
        }
      ],
      "stateMutability": "nonpayable",
      "type": "function"
    },
    {
      "inputs": [
        {
          "internalType": "address",
          "name": "assetToSwapFrom",
          "type": "address"
        },
        {
          "internalType": "address",
          "name": "assetToSwapTo",
          "type": "address"
        },
        {
          "internalType": "uint256",
          "name": "maxAmountToSwap",
          "type": "uint256"
        },
        {
          "internalType": "uint256",
          "name": "amountToReceive",
          "type": "uint256"
        },
        {
          "internalType": "bool",
          "name": "useEthPath",
          "type": "bool"
        }
      ],
      "name": "swapTokensForExactTokens",
      "outputs": [
        {
          "internalType": "uint256",
          "name": "",
          "type": "uint256"
        }
      ],
      "stateMutability": "nonpayable",
      "type": "function"
    }
  ],
  "transactionHash": "0xcc3fc1abd94a6f4eecb42a1dd7635f8e97710e65197342f7e3159e8ceb0f878a",
  "args": [
    "0x72A780B33915D6D229E7b31A729AE42963A57c73",
    "0xbe6Da6c8DfD712C6A2c6A104f0ab05f8927c7198",
    "0x7a250d5630B4cF539739dF2C5dAcb4c659F2488D",
    "0xC02aaA39b223FE8D0A0e5C4F27eAD9083C756Cc2"
  ],
  "solcInputHash": "b8902a279cfadfe286f7c1ee8daea2c4",
  "bytecode": "0x6101006040523480156200001257600080fd5b50604051620016cd380380620016cd833981016040819052620000359162000075565b6001600160a01b0393841660805291831660c052821660e0521660a052620000d2565b80516001600160a01b03811681146200007057600080fd5b919050565b600080600080608085870312156200008c57600080fd5b620000978562000058565b9350620000a76020860162000058565b9250620000b76040860162000058565b9150620000c76060860162000058565b905092959194509250565b60805160a05160c05160e0516115526200017b6000396000818161017f0152818161049b015281816104d00152818161068201528181610a8601528181610abb0152610c6d01526000818161011e015281816102dd015281816106b5015281816109270152610ca001526000818160a6015281816105540152610b3f015260008181610158015281816101a50152818161036c01528181610802015261095701526115526000f3fe608060405234801561001057600080fd5b50600436106100875760003560e01c806366eecc5d1161005b57806366eecc5d14610119578063820c72a814610140578063ade97ab514610153578063d82649201461017a57600080fd5b8062ae3bf81461008c578063040141e5146100a157806345b9e7a8146100e55780635b74fc6d14610106575b600080fd5b61009f61009a3660046111e1565b6101a1565b005b6100c87f000000000000000000000000000000000000000000000000000000000000000081565b6040516001600160a01b0390911681526020015b60405180910390f35b6100f86100f336600461120c565b610367565b6040519081526020016100dc565b61009f61011436600461126b565b6107fe565b6100c87f000000000000000000000000000000000000000000000000000000000000000081565b6100f861014e36600461120c565b610952565b6100c87f000000000000000000000000000000000000000000000000000000000000000081565b6100c87f000000000000000000000000000000000000000000000000000000000000000081565b60007f00000000000000000000000000000000000000000000000000000000000000006001600160a01b0316639a9dbb996040518163ffffffff1660e01b8152600401602060405180830381865afa158015610201573d6000803e3d6000fd5b505050506040513d601f19601f820116820180604052508101906102259190611297565b90506001600160a01b03811663dee1f0e4336040516001600160e01b031960e084901b1681526001600160a01b039091166004820152602401602060405180830381865afa15801561027b573d6000803e3d6000fd5b505050506040513d601f19601f8201168201806040525081019061029f91906112b4565b6102c45760405162461bcd60e51b81526004016102bb906112d1565b60405180910390fd5b6040516370a0823160e01b8152306004820152610363907f0000000000000000000000000000000000000000000000000000000000000000906001600160a01b038516906370a0823190602401602060405180830381865afa15801561032e573d6000803e3d6000fd5b505050506040513d601f19601f820116820180604052508101906103529190611308565b6001600160a01b0385169190610dc7565b5050565b6000807f00000000000000000000000000000000000000000000000000000000000000006001600160a01b0316639a9dbb996040518163ffffffff1660e01b8152600401602060405180830381865afa1580156103c8573d6000803e3d6000fd5b505050506040513d601f19601f820116820180604052508101906103ec9190611297565b90506001600160a01b03811663dee1f0e4336040516001600160e01b031960e084901b1681526001600160a01b039091166004820152602401602060405180830381865afa158015610442573d6000803e3d6000fd5b505050506040513d601f19601f8201168201806040525081019061046691906112b4565b6104825760405162461bcd60e51b81526004016102bb906112d1565b61048c87866107fe565b6104c16001600160a01b0388167f00000000000000000000000000000000000000000000000000000000000000006000610e2a565b6104f56001600160a01b0388167f000000000000000000000000000000000000000000000000000000000000000087610e2a565b606083156105df57604080516003808252608082019092529060208201606080368337019050509050878160008151811061053257610532611337565b60200260200101906001600160a01b031690816001600160a01b0316815250507f00000000000000000000000000000000000000000000000000000000000000008160018151811061058657610586611337565b60200260200101906001600160a01b031690816001600160a01b03168152505086816002815181106105ba576105ba611337565b60200260200101906001600160a01b031690816001600160a01b031681525050610668565b6040805160028082526060820183529091602083019080368337019050509050878160008151811061061357610613611337565b60200260200101906001600160a01b031690816001600160a01b031681525050868160018151811061064757610647611337565b60200260200101906001600160a01b031690816001600160a01b0316815250505b6040516338ed173960e01b81526000906001600160a01b037f000000000000000000000000000000000000000000000000000000000000000016906338ed1739906106df908a908a9087907f000000000000000000000000000000000000000000000000000000000000000090429060040161134d565b6000604051808303816000875af11580156106fe573d6000803e3d6000fd5b505050506040513d6000823e601f3d908101601f1916820160405261072691908101906113be565b90507fa078c4190abe07940190effc1846be0ccf03ad6007bc9e93f9697d0b460befbb89898360008151811061075e5761075e611337565b60200260200101518460018651610775919061147c565b8151811061078557610785611337565b60200260200101516040516107c194939291906001600160a01b0394851681529290931660208301526040820152606081019190915260800190565b60405180910390a180600182516107d8919061147c565b815181106107e8576107e8611337565b6020026020010151935050505095945050505050565b60007f00000000000000000000000000000000000000000000000000000000000000006001600160a01b0316639a9dbb996040518163ffffffff1660e01b8152600401602060405180830381865afa15801561085e573d6000803e3d6000fd5b505050506040513d601f19601f820116820180604052508101906108829190611297565b90506001600160a01b03811663dee1f0e4336040516001600160e01b031960e084901b1681526001600160a01b039091166004820152602401602060405180830381865afa1580156108d8573d6000803e3d6000fd5b505050506040513d601f19601f820116820180604052508101906108fc91906112b4565b6109185760405162461bcd60e51b81526004016102bb906112d1565b61094d6001600160a01b0384167f00000000000000000000000000000000000000000000000000000000000000003085610f3f565b505050565b6000807f00000000000000000000000000000000000000000000000000000000000000006001600160a01b0316639a9dbb996040518163ffffffff1660e01b8152600401602060405180830381865afa1580156109b3573d6000803e3d6000fd5b505050506040513d601f19601f820116820180604052508101906109d79190611297565b90506001600160a01b03811663dee1f0e4336040516001600160e01b031960e084901b1681526001600160a01b039091166004820152602401602060405180830381865afa158015610a2d573d6000803e3d6000fd5b505050506040513d601f19601f82011682018060405250810190610a5191906112b4565b610a6d5760405162461bcd60e51b81526004016102bb906112d1565b610a7787866107fe565b610aac6001600160a01b0388167f00000000000000000000000000000000000000000000000000000000000000006000610e2a565b610ae06001600160a01b0388167f000000000000000000000000000000000000000000000000000000000000000087610e2a565b60608315610bca576040805160038082526080820190925290602082016060803683370190505090508781600081518110610b1d57610b1d611337565b60200260200101906001600160a01b031690816001600160a01b0316815250507f000000000000000000000000000000000000000000000000000000000000000081600181518110610b7157610b71611337565b60200260200101906001600160a01b031690816001600160a01b0316815250508681600281518110610ba557610ba5611337565b60200260200101906001600160a01b031690816001600160a01b031681525050610c53565b60408051600280825260608201835290916020830190803683370190505090508781600081518110610bfe57610bfe611337565b60200260200101906001600160a01b031690816001600160a01b0316815250508681600181518110610c3257610c32611337565b60200260200101906001600160a01b031690816001600160a01b0316815250505b604051634401edf760e11b81526000906001600160a01b037f00000000000000000000000000000000000000000000000000000000000000001690638803dbee90610cca9089908b9087907f000000000000000000000000000000000000000000000000000000000000000090429060040161134d565b6000604051808303816000875af1158015610ce9573d6000803e3d6000fd5b505050506040513d6000823e601f3d908101601f19168201604052610d1191908101906113be565b90507fa078c4190abe07940190effc1846be0ccf03ad6007bc9e93f9697d0b460befbb898983600081518110610d4957610d49611337565b60200260200101518460018651610d60919061147c565b81518110610d7057610d70611337565b6020026020010151604051610dac94939291906001600160a01b0394851681529290931660208301526040820152606081019190915260800190565b60405180910390a1806000815181106107e8576107e8611337565b6040516001600160a01b03831660248201526044810182905261094d90849063a9059cbb60e01b906064015b60408051601f198184030181529190526020810180516001600160e01b03166001600160e01b031990931692909217909152610f7d565b801580610ea45750604051636eb1769f60e11b81523060048201526001600160a01b03838116602483015284169063dd62ed3e90604401602060405180830381865afa158015610e7e573d6000803e3d6000fd5b505050506040513d601f19601f82011682018060405250810190610ea29190611308565b155b610f0f5760405162461bcd60e51b815260206004820152603660248201527f5361666545524332303a20617070726f76652066726f6d206e6f6e2d7a65726f60448201527520746f206e6f6e2d7a65726f20616c6c6f77616e636560501b60648201526084016102bb565b6040516001600160a01b03831660248201526044810182905261094d90849063095ea7b360e01b90606401610df3565b6040516001600160a01b0380851660248301528316604482015260648101829052610f779085906323b872dd60e01b90608401610df3565b50505050565b6000610fd2826040518060400160405280602081526020017f5361666545524332303a206c6f772d6c6576656c2063616c6c206661696c6564815250856001600160a01b031661104f9092919063ffffffff16565b80519091501561094d5780806020019051810190610ff091906112b4565b61094d5760405162461bcd60e51b815260206004820152602a60248201527f5361666545524332303a204552433230206f7065726174696f6e20646964206e6044820152691bdd081cdd58d8d9595960b21b60648201526084016102bb565b606061105e8484600085611068565b90505b9392505050565b6060824710156110c95760405162461bcd60e51b815260206004820152602660248201527f416464726573733a20696e73756666696369656e742062616c616e636520666f6044820152651c8818d85b1b60d21b60648201526084016102bb565b843b6111175760405162461bcd60e51b815260206004820152601d60248201527f416464726573733a2063616c6c20746f206e6f6e2d636f6e747261637400000060448201526064016102bb565b600080866001600160a01b0316858760405161113391906114cd565b60006040518083038185875af1925050503d8060008114611170576040519150601f19603f3d011682016040523d82523d6000602084013e611175565b606091505b5091509150611185828286611190565b979650505050505050565b6060831561119f575081611061565b8251156111af5782518084602001fd5b8160405162461bcd60e51b81526004016102bb91906114e9565b6001600160a01b03811681146111de57600080fd5b50565b6000602082840312156111f357600080fd5b8135611061816111c9565b80151581146111de57600080fd5b600080600080600060a0868803121561122457600080fd5b853561122f816111c9565b9450602086013561123f816111c9565b93506040860135925060608601359150608086013561125d816111fe565b809150509295509295909350565b6000806040838503121561127e57600080fd5b8235611289816111c9565b946020939093013593505050565b6000602082840312156112a957600080fd5b8151611061816111c9565b6000602082840312156112c657600080fd5b8151611061816111fe565b6020808252601c908201527f41434c5f4f4e4c595f474f5645524e414e43455f43414e5f43414c4c00000000604082015260600190565b60006020828403121561131a57600080fd5b5051919050565b634e487b7160e01b600052604160045260246000fd5b634e487b7160e01b600052603260045260246000fd5b600060a082018783526020878185015260a0604085015281875180845260c086019150828901935060005b8181101561139d5784516001600160a01b031683529383019391830191600101611378565b50506001600160a01b03969096166060850152505050608001529392505050565b600060208083850312156113d157600080fd5b825167ffffffffffffffff808211156113e957600080fd5b818501915085601f8301126113fd57600080fd5b81518181111561140f5761140f611321565b8060051b604051601f19603f8301168101818110858211171561143457611434611321565b60405291825284820192508381018501918883111561145257600080fd5b938501935b8285101561147057845184529385019392850192611457565b98975050505050505050565b60008282101561149c57634e487b7160e01b600052601160045260246000fd5b500390565b60005b838110156114bc5781810151838201526020016114a4565b83811115610f775750506000910152565b600082516114df8184602087016114a1565b9190910192915050565b60208152600082518060208401526115088160408501602087016114a1565b601f01601f1916919091016040019291505056fea2646970667358221220f8c42588608388182504f58dbb03b207e8711eacf0750495924a17cca890e6e064736f6c634300080a0033",
  "devdoc": {
    "details": "Provide swap services for OpenSkyDaoVault contract. - OpenSkyDaoVault should approve 'amount' of 'token' to this contract first - Receiver of swap is always OpenSkyDaoVault - Only callable by governance",
    "kind": "dev",
    "methods": {
      "rescueTokens(address)": {
        "details": "Emergency rescue for token stuck on this contract, as failsafe mechanism - Funds should never remain in this contract more time than during transactions - Only callable by governance*"
      }
    },
    "version": 1
  },
  "userdoc": {
    "kind": "user",
    "methods": {},
    "version": 1
  },
  "storageLayout": {
    "storage": [],
    "types": null
  }
}