{
  "address": "0xC6580330a5108ebb67eE9E8a2b800cadf0940e40",
  "abi": [
    {
      "inputs": [
        {
          "internalType": "address",
          "name": "_ACLManagerAddress",
          "type": "address"
        }
      ],
      "stateMutability": "nonpayable",
      "type": "constructor"
    },
    {
      "anonymous": false,
      "inputs": [
        {
          "indexed": false,
          "internalType": "address",
          "name": "operator",
          "type": "address"
        },
        {
          "indexed": false,
          "internalType": "address",
          "name": "currency",
          "type": "address"
        }
      ],
      "name": "AddCurrency",
      "type": "event"
    },
    {
      "anonymous": false,
      "inputs": [
        {
          "indexed": false,
          "internalType": "address",
          "name": "operator",
          "type": "address"
        },
        {
          "indexed": false,
          "internalType": "address",
          "name": "currencyAddress",
          "type": "address"
        },
        {
          "indexed": false,
          "internalType": "address",
          "name": "adapterAddress",
          "type": "address"
        }
      ],
      "name": "AddCurrencyTransferAdapter",
      "type": "event"
    },
    {
      "anonymous": false,
      "inputs": [
        {
          "indexed": false,
          "internalType": "address",
          "name": "operator",
          "type": "address"
        },
        {
          "indexed": false,
          "internalType": "address",
          "name": "nftAddress",
          "type": "address"
        },
        {
          "indexed": false,
          "internalType": "address",
          "name": "adapterAddress",
          "type": "address"
        }
      ],
      "name": "AddNftTransferAdapter",
      "type": "event"
    },
    {
      "anonymous": false,
      "inputs": [
        {
          "indexed": false,
          "internalType": "address",
          "name": "operator",
          "type": "address"
        },
        {
          "indexed": false,
          "internalType": "address",
          "name": "address_",
          "type": "address"
        }
      ],
      "name": "AddStrategy",
      "type": "event"
    },
    {
      "anonymous": false,
      "inputs": [
        {
          "indexed": false,
          "internalType": "address",
          "name": "operator",
          "type": "address"
        },
        {
          "indexed": false,
          "internalType": "address",
          "name": "nft",
          "type": "address"
        }
      ],
      "name": "AddToWhitelist",
      "type": "event"
    },
    {
      "anonymous": false,
      "inputs": [
        {
          "indexed": false,
          "internalType": "address",
          "name": "operator",
          "type": "address"
        }
      ],
      "name": "CloseWhitelist",
      "type": "event"
    },
    {
      "anonymous": false,
      "inputs": [
        {
          "indexed": false,
          "internalType": "address",
          "name": "currencyDefaultTransferAdapter",
          "type": "address"
        }
      ],
      "name": "InitDefaultCurrencyTransferAdapter",
      "type": "event"
    },
    {
      "anonymous": false,
      "inputs": [
        {
          "indexed": false,
          "internalType": "address",
          "name": "ERC721DefaultTransferAdapter",
          "type": "address"
        },
        {
          "indexed": false,
          "internalType": "address",
          "name": "ERC1155DefaultTransferAdapter",
          "type": "address"
        }
      ],
      "name": "InitDefaultNftTransferAdapter",
      "type": "event"
    },
    {
      "anonymous": false,
      "inputs": [
        {
          "indexed": false,
          "internalType": "address",
          "name": "operator",
          "type": "address"
        },
        {
          "indexed": false,
          "internalType": "address",
          "name": "borrowLoanAddress",
          "type": "address"
        },
        {
          "indexed": false,
          "internalType": "address",
          "name": "lendLoanAddress",
          "type": "address"
        }
      ],
      "name": "InitLoanAddress",
      "type": "event"
    },
    {
      "anonymous": false,
      "inputs": [
        {
          "indexed": false,
          "internalType": "address",
          "name": "operator",
          "type": "address"
        },
        {
          "indexed": false,
          "internalType": "address",
          "name": "address_",
          "type": "address"
        }
      ],
      "name": "InitMarketAddress",
      "type": "event"
    },
    {
      "anonymous": false,
      "inputs": [
        {
          "indexed": false,
          "internalType": "address",
          "name": "operator",
          "type": "address"
        }
      ],
      "name": "OpenWhitelist",
      "type": "event"
    },
    {
      "anonymous": false,
      "inputs": [
        {
          "indexed": true,
          "internalType": "address",
          "name": "previousOwner",
          "type": "address"
        },
        {
          "indexed": true,
          "internalType": "address",
          "name": "newOwner",
          "type": "address"
        }
      ],
      "name": "OwnershipTransferred",
      "type": "event"
    },
    {
      "anonymous": false,
      "inputs": [
        {
          "indexed": false,
          "internalType": "address",
          "name": "operator",
          "type": "address"
        },
        {
          "indexed": false,
          "internalType": "address",
          "name": "currency",
          "type": "address"
        }
      ],
      "name": "RemoveCurrency",
      "type": "event"
    },
    {
      "anonymous": false,
      "inputs": [
        {
          "indexed": false,
          "internalType": "address",
          "name": "operator",
          "type": "address"
        },
        {
          "indexed": false,
          "internalType": "address",
          "name": "currencyAddress",
          "type": "address"
        }
      ],
      "name": "RemoveCurrencyTransferAdapter",
      "type": "event"
    },
    {
      "anonymous": false,
      "inputs": [
        {
          "indexed": false,
          "internalType": "address",
          "name": "operator",
          "type": "address"
        },
        {
          "indexed": false,
          "internalType": "address",
          "name": "nft",
          "type": "address"
        }
      ],
      "name": "RemoveFromWhitelist",
      "type": "event"
    },
    {
      "anonymous": false,
      "inputs": [
        {
          "indexed": false,
          "internalType": "address",
          "name": "operator",
          "type": "address"
        },
        {
          "indexed": false,
          "internalType": "address",
          "name": "nftAddress",
          "type": "address"
        }
      ],
      "name": "RemoveNftTransferAdapter",
      "type": "event"
    },
    {
      "anonymous": false,
      "inputs": [
        {
          "indexed": false,
          "internalType": "address",
          "name": "operator",
          "type": "address"
        },
        {
          "indexed": false,
          "internalType": "address",
          "name": "address_",
          "type": "address"
        }
      ],
      "name": "RemoveStrategy",
      "type": "event"
    },
    {
      "anonymous": false,
      "inputs": [
        {
          "indexed": false,
          "internalType": "address",
          "name": "operator",
          "type": "address"
        },
        {
          "indexed": false,
          "internalType": "uint256",
          "name": "factor",
          "type": "uint256"
        }
      ],
      "name": "SetMaxBorrowDuration",
      "type": "event"
    },
    {
      "anonymous": false,
      "inputs": [
        {
          "indexed": false,
          "internalType": "address",
          "name": "operator",
          "type": "address"
        },
        {
          "indexed": false,
          "internalType": "uint256",
          "name": "factor",
          "type": "uint256"
        }
      ],
      "name": "SetMinBorrowDuration",
      "type": "event"
    },
    {
      "anonymous": false,
      "inputs": [
        {
          "indexed": false,
          "internalType": "address",
          "name": "operator",
          "type": "address"
        },
        {
          "indexed": false,
          "internalType": "uint256",
          "name": "factor",
          "type": "uint256"
        }
      ],
      "name": "SetOverdueDuration",
      "type": "event"
    },
    {
      "anonymous": false,
      "inputs": [
        {
          "indexed": false,
          "internalType": "address",
          "name": "operator",
          "type": "address"
        },
        {
          "indexed": false,
          "internalType": "uint256",
          "name": "factor",
          "type": "uint256"
        }
      ],
      "name": "SetOverdueLoanFeeFactor",
      "type": "event"
    },
    {
      "anonymous": false,
      "inputs": [
        {
          "indexed": false,
          "internalType": "address",
          "name": "operator",
          "type": "address"
        },
        {
          "indexed": false,
          "internalType": "uint256",
          "name": "factor",
          "type": "uint256"
        }
      ],
      "name": "SetReserveFactor",
      "type": "event"
    },
    {
      "inputs": [],
      "name": "ACLManagerAddress",
      "outputs": [
        {
          "internalType": "address",
          "name": "",
          "type": "address"
        }
      ],
      "stateMutability": "view",
      "type": "function"
    },
    {
      "inputs": [],
      "name": "INTERFACE_ID_ERC1155",
      "outputs": [
        {
          "internalType": "bytes4",
          "name": "",
          "type": "bytes4"
        }
      ],
      "stateMutability": "view",
      "type": "function"
    },
    {
      "inputs": [],
      "name": "INTERFACE_ID_ERC721",
      "outputs": [
        {
          "internalType": "bytes4",
          "name": "",
          "type": "bytes4"
        }
      ],
      "stateMutability": "view",
      "type": "function"
    },
    {
      "inputs": [],
      "name": "MAX_RESERVE_FACTOR",
      "outputs": [
        {
          "internalType": "uint256",
          "name": "",
          "type": "uint256"
        }
      ],
      "stateMutability": "view",
      "type": "function"
    },
    {
      "inputs": [],
      "name": "TRANSFER_CURRENCY",
      "outputs": [
        {
          "internalType": "address",
          "name": "",
          "type": "address"
        }
      ],
      "stateMutability": "view",
      "type": "function"
    },
    {
      "inputs": [],
      "name": "TRANSFER_ERC1155",
      "outputs": [
        {
          "internalType": "address",
          "name": "",
          "type": "address"
        }
      ],
      "stateMutability": "view",
      "type": "function"
    },
    {
      "inputs": [],
      "name": "TRANSFER_ERC721",
      "outputs": [
        {
          "internalType": "address",
          "name": "",
          "type": "address"
        }
      ],
      "stateMutability": "view",
      "type": "function"
    },
    {
      "inputs": [
        {
          "internalType": "address",
          "name": "",
          "type": "address"
        }
      ],
      "name": "_currencyTransferAdapters",
      "outputs": [
        {
          "internalType": "address",
          "name": "",
          "type": "address"
        }
      ],
      "stateMutability": "view",
      "type": "function"
    },
    {
      "inputs": [
        {
          "internalType": "address",
          "name": "",
          "type": "address"
        }
      ],
      "name": "_currencyWhitelist",
      "outputs": [
        {
          "internalType": "bool",
          "name": "",
          "type": "bool"
        }
      ],
      "stateMutability": "view",
      "type": "function"
    },
    {
      "inputs": [
        {
          "internalType": "address",
          "name": "",
          "type": "address"
        }
      ],
      "name": "_strategyWhitelist",
      "outputs": [
        {
          "internalType": "bool",
          "name": "",
          "type": "bool"
        }
      ],
      "stateMutability": "view",
      "type": "function"
    },
    {
      "inputs": [
        {
          "internalType": "address",
          "name": "",
          "type": "address"
        }
      ],
      "name": "_transferAdapters",
      "outputs": [
        {
          "internalType": "address",
          "name": "",
          "type": "address"
        }
      ],
      "stateMutability": "view",
      "type": "function"
    },
    {
      "inputs": [
        {
          "internalType": "address",
          "name": "currency",
          "type": "address"
        }
      ],
      "name": "addCurrency",
      "outputs": [],
      "stateMutability": "nonpayable",
      "type": "function"
    },
    {
      "inputs": [
        {
          "internalType": "address",
          "name": "currency",
          "type": "address"
        },
        {
          "internalType": "address",
          "name": "adapterAddress",
          "type": "address"
        }
      ],
      "name": "addCurrencyTransferAdapter",
      "outputs": [],
      "stateMutability": "nonpayable",
      "type": "function"
    },
    {
      "inputs": [
        {
          "internalType": "address",
          "name": "nftAddress",
          "type": "address"
        },
        {
          "internalType": "address",
          "name": "adapterAddress",
          "type": "address"
        }
      ],
      "name": "addNftTransferAdapter",
      "outputs": [],
      "stateMutability": "nonpayable",
      "type": "function"
    },
    {
      "inputs": [
        {
          "internalType": "address",
          "name": "address_",
          "type": "address"
        }
      ],
      "name": "addStrategy",
      "outputs": [],
      "stateMutability": "nonpayable",
      "type": "function"
    },
    {
      "inputs": [
        {
          "internalType": "address",
          "name": "nft",
          "type": "address"
        },
        {
          "internalType": "uint256",
          "name": "minBorrowDuration",
          "type": "uint256"
        },
        {
          "internalType": "uint256",
          "name": "maxBorrowDuration",
          "type": "uint256"
        },
        {
          "internalType": "uint256",
          "name": "overdueDuration",
          "type": "uint256"
        }
      ],
      "name": "addToWhitelist",
      "outputs": [],
      "stateMutability": "nonpayable",
      "type": "function"
    },
    {
      "inputs": [],
      "name": "borrowLoanAddress",
      "outputs": [
        {
          "internalType": "address",
          "name": "",
          "type": "address"
        }
      ],
      "stateMutability": "view",
      "type": "function"
    },
    {
      "inputs": [],
      "name": "closeWhitelist",
      "outputs": [],
      "stateMutability": "nonpayable",
      "type": "function"
    },
    {
      "inputs": [
        {
          "internalType": "address",
          "name": "nftAddress",
          "type": "address"
        }
      ],
      "name": "getBorrowDurationConfig",
      "outputs": [
        {
          "internalType": "uint256",
          "name": "minBorrowDuration_",
          "type": "uint256"
        },
        {
          "internalType": "uint256",
          "name": "maxBorrowDuration_",
          "type": "uint256"
        },
        {
          "internalType": "uint256",
          "name": "overdueDuration_",
          "type": "uint256"
        }
      ],
      "stateMutability": "view",
      "type": "function"
    },
    {
      "inputs": [
        {
          "internalType": "address",
          "name": "currency",
          "type": "address"
        }
      ],
      "name": "getCurrencyTransferAdapter",
      "outputs": [
        {
          "internalType": "address",
          "name": "adapter",
          "type": "address"
        }
      ],
      "stateMutability": "view",
      "type": "function"
    },
    {
      "inputs": [
        {
          "internalType": "address",
          "name": "nftAddress",
          "type": "address"
        }
      ],
      "name": "getNftTransferAdapter",
      "outputs": [
        {
          "internalType": "address",
          "name": "adapter",
          "type": "address"
        }
      ],
      "stateMutability": "view",
      "type": "function"
    },
    {
      "inputs": [
        {
          "internalType": "address",
          "name": "nft",
          "type": "address"
        }
      ],
      "name": "getWhitelistDetail",
      "outputs": [
        {
          "components": [
            {
              "internalType": "bool",
              "name": "enabled",
              "type": "bool"
            },
            {
              "internalType": "uint256",
              "name": "minBorrowDuration",
              "type": "uint256"
            },
            {
              "internalType": "uint256",
              "name": "maxBorrowDuration",
              "type": "uint256"
            },
            {
              "internalType": "uint256",
              "name": "overdueDuration",
              "type": "uint256"
            }
          ],
          "internalType": "struct BespokeTypes.WhitelistInfo",
          "name": "",
          "type": "tuple"
        }
      ],
      "stateMutability": "view",
      "type": "function"
    },
    {
      "inputs": [
        {
          "internalType": "address",
          "name": "nft",
          "type": "address"
        }
      ],
      "name": "inWhitelist",
      "outputs": [
        {
          "internalType": "bool",
          "name": "",
          "type": "bool"
        }
      ],
      "stateMutability": "view",
      "type": "function"
    },
    {
      "inputs": [
        {
          "internalType": "address",
          "name": "currencyDefaultAdapter",
          "type": "address"
        }
      ],
      "name": "initDefaultCurrencyTransferAdapter",
      "outputs": [],
      "stateMutability": "nonpayable",
      "type": "function"
    },
    {
      "inputs": [
        {
          "internalType": "address",
          "name": "ERC721Default",
          "type": "address"
        },
        {
          "internalType": "address",
          "name": "ERC1155Default",
          "type": "address"
        }
      ],
      "name": "initDefaultNftTransferAdapters",
      "outputs": [],
      "stateMutability": "nonpayable",
      "type": "function"
    },
    {
      "inputs": [
        {
          "internalType": "address",
          "name": "borrowLoanAddress_",
          "type": "address"
        },
        {
          "internalType": "address",
          "name": "lendLoanAddress_",
          "type": "address"
        }
      ],
      "name": "initLoanAddress",
      "outputs": [],
      "stateMutability": "nonpayable",
      "type": "function"
    },
    {
      "inputs": [
        {
          "internalType": "address",
          "name": "address_",
          "type": "address"
        }
      ],
      "name": "initMarketAddress",
      "outputs": [],
      "stateMutability": "nonpayable",
      "type": "function"
    },
    {
      "inputs": [
        {
          "internalType": "address",
          "name": "currency",
          "type": "address"
        }
      ],
      "name": "isCurrencyWhitelisted",
      "outputs": [
        {
          "internalType": "bool",
          "name": "",
          "type": "bool"
        }
      ],
      "stateMutability": "view",
      "type": "function"
    },
    {
      "inputs": [
        {
          "internalType": "address",
          "name": "address_",
          "type": "address"
        }
      ],
      "name": "isStrategyWhitelisted",
      "outputs": [
        {
          "internalType": "bool",
          "name": "",
          "type": "bool"
        }
      ],
      "stateMutability": "view",
      "type": "function"
    },
    {
      "inputs": [],
      "name": "isWhitelistOn",
      "outputs": [
        {
          "internalType": "bool",
          "name": "",
          "type": "bool"
        }
      ],
      "stateMutability": "view",
      "type": "function"
    },
    {
      "inputs": [],
      "name": "lendLoanAddress",
      "outputs": [
        {
          "internalType": "address",
          "name": "",
          "type": "address"
        }
      ],
      "stateMutability": "view",
      "type": "function"
    },
    {
      "inputs": [],
      "name": "marketAddress",
      "outputs": [
        {
          "internalType": "address",
          "name": "",
          "type": "address"
        }
      ],
      "stateMutability": "view",
      "type": "function"
    },
    {
      "inputs": [],
      "name": "maxBorrowDuration",
      "outputs": [
        {
          "internalType": "uint256",
          "name": "",
          "type": "uint256"
        }
      ],
      "stateMutability": "view",
      "type": "function"
    },
    {
      "inputs": [],
      "name": "minBorrowDuration",
      "outputs": [
        {
          "internalType": "uint256",
          "name": "",
          "type": "uint256"
        }
      ],
      "stateMutability": "view",
      "type": "function"
    },
    {
      "inputs": [],
      "name": "openWhitelist",
      "outputs": [],
      "stateMutability": "nonpayable",
      "type": "function"
    },
    {
      "inputs": [],
      "name": "overdueDuration",
      "outputs": [
        {
          "internalType": "uint256",
          "name": "",
          "type": "uint256"
        }
      ],
      "stateMutability": "view",
      "type": "function"
    },
    {
      "inputs": [],
      "name": "overdueLoanFeeFactor",
      "outputs": [
        {
          "internalType": "uint256",
          "name": "",
          "type": "uint256"
        }
      ],
      "stateMutability": "view",
      "type": "function"
    },
    {
      "inputs": [],
      "name": "owner",
      "outputs": [
        {
          "internalType": "address",
          "name": "",
          "type": "address"
        }
      ],
      "stateMutability": "view",
      "type": "function"
    },
    {
      "inputs": [
        {
          "internalType": "address",
          "name": "currency",
          "type": "address"
        }
      ],
      "name": "removeCurrency",
      "outputs": [],
      "stateMutability": "nonpayable",
      "type": "function"
    },
    {
      "inputs": [
        {
          "internalType": "address",
          "name": "currency",
          "type": "address"
        }
      ],
      "name": "removeCurrencyTransferAdapter",
      "outputs": [],
      "stateMutability": "nonpayable",
      "type": "function"
    },
    {
      "inputs": [
        {
          "internalType": "address",
          "name": "nft",
          "type": "address"
        }
      ],
      "name": "removeFromWhitelist",
      "outputs": [],
      "stateMutability": "nonpayable",
      "type": "function"
    },
    {
      "inputs": [
        {
          "internalType": "address",
          "name": "nftAddress",
          "type": "address"
        }
      ],
      "name": "removeNftTransferAdapter",
      "outputs": [],
      "stateMutability": "nonpayable",
      "type": "function"
    },
    {
      "inputs": [
        {
          "internalType": "address",
          "name": "address_",
          "type": "address"
        }
      ],
      "name": "removeStrategy",
      "outputs": [],
      "stateMutability": "nonpayable",
      "type": "function"
    },
    {
      "inputs": [],
      "name": "renounceOwnership",
      "outputs": [],
      "stateMutability": "nonpayable",
      "type": "function"
    },
    {
      "inputs": [],
      "name": "reserveFactor",
      "outputs": [
        {
          "internalType": "uint256",
          "name": "",
          "type": "uint256"
        }
      ],
      "stateMutability": "view",
      "type": "function"
    },
    {
      "inputs": [
        {
          "internalType": "uint256",
          "name": "factor",
          "type": "uint256"
        }
      ],
      "name": "setMaxBorrowDuration",
      "outputs": [],
      "stateMutability": "nonpayable",
      "type": "function"
    },
    {
      "inputs": [
        {
          "internalType": "uint256",
          "name": "factor",
          "type": "uint256"
        }
      ],
      "name": "setMinBorrowDuration",
      "outputs": [],
      "stateMutability": "nonpayable",
      "type": "function"
    },
    {
      "inputs": [
        {
          "internalType": "uint256",
          "name": "factor",
          "type": "uint256"
        }
      ],
      "name": "setOverdueDuration",
      "outputs": [],
      "stateMutability": "nonpayable",
      "type": "function"
    },
    {
      "inputs": [
        {
          "internalType": "uint256",
          "name": "factor",
          "type": "uint256"
        }
      ],
      "name": "setOverdueLoanFeeFactor",
      "outputs": [],
      "stateMutability": "nonpayable",
      "type": "function"
    },
    {
      "inputs": [
        {
          "internalType": "uint256",
          "name": "factor",
          "type": "uint256"
        }
      ],
      "name": "setReserveFactor",
      "outputs": [],
      "stateMutability": "nonpayable",
      "type": "function"
    },
    {
      "inputs": [
        {
          "internalType": "address",
          "name": "newOwner",
          "type": "address"
        }
      ],
      "name": "transferOwnership",
      "outputs": [],
      "stateMutability": "nonpayable",
      "type": "function"
    }
  ],
  "transactionHash": "0xff0057a177aef65d6b4ffb8330d92108236be6be8afb606ad2078e9a5bdfa51e",
  "args": [
    "0xc4F6A3334085EB4A27578bC0EA23bF301E9822F0"
  ],
  "solcInputHash": "7115e83fb639f0ac8332020e2b911896",
  "bytecode": "0x60a06040526000805460ff60a01b191681556101f460075560c860085562093a806009556301e13380600a55600b553480156200003b57600080fd5b50604051620034f7380380620034f78339810160408190526200005e91620000cb565b62000069336200007b565b6001600160a01b0316608052620000fd565b600080546001600160a01b038381166001600160a01b0319831681178455604051919092169283917f8be0079c531659141344cd1fd0a4f28419497f9722a3daafe3b4186f6b6457e09190a35050565b600060208284031215620000de57600080fd5b81516001600160a01b0381168114620000f657600080fd5b9392505050565b60805161336762000190600039600081816106c1015281816108d801528181610a8401528181610c6001528181610ddb01528181610f56015281816114de0152818161188c015281816119f801528181611bde01528181611fcc015281816121db015281816123e101528181612796015281816129bb01528181612b8f01528181612dba0152612f3501526133676000f3fe608060405234801561001057600080fd5b50600436106103415760003560e01c806395623641116101bd578063bc6bc0cd116100f9578063d7a5a9d3116100a2578063ee08fed61161007c578063ee08fed614610871578063efc62f7a1461087a578063f2fde38b1461088d578063fea68eed146108a057600080fd5b8063d7a5a9d314610842578063e2aafa211461084b578063e9772cd31461085e57600080fd5b8063c5d3a107116100d3578063c5d3a10714610813578063d065ea9914610826578063d23a65cf1461083957600080fd5b8063bc6bc0cd146107c6578063bc98c247146107ed578063bd33deb31461080057600080fd5b8063a45a7dd611610166578063ab5407f911610140578063ab5407f914610753578063b393483814610773578063b585945f14610793578063bb322a83146107a657600080fd5b8063a45a7dd6146106ff578063a4b9672a14610712578063ab0868bc1461072557600080fd5b80639a9dbb99116101975780639a9dbb99146106bc5780639ab3d121146106e35780639ecdda21146106f657600080fd5b8063956236411461065057806398460c5f14610670578063999ba27c1461068357600080fd5b806343b938c51161028c578063777ee2e0116102355780638ab1d6811161020f5780638ab1d681146106035780638ab234b6146106165780638da5cb5b1461062957806393aa28451461064757600080fd5b8063777ee2e0146105bd578063853201bd146105dd57806389cdd47d146105f057600080fd5b8063715018a611610266578063715018a61461055a578063716f10bf14610562578063740247be1461058757600080fd5b806343b938c5146104f6578063586b9a7c1461052f578063659d4ba21461053757600080fd5b8063223e5479116102ee5780633bdd1235116102c85780633bdd12351461048457806340cb4b4d146104cc5780634322b714146104df57600080fd5b8063223e54791461040657806330aec1271461041957806333bf61561461042c57600080fd5b8063175188e81161031f578063175188e8146103cd5780631b52ba71146103e05780631c446983146103f357600080fd5b8063030efd5d14610346578063083bbe7f14610390578063165f735e1461039a575b600080fd5b600c546103669073ffffffffffffffffffffffffffffffffffffffff1681565b60405173ffffffffffffffffffffffffffffffffffffffff90911681526020015b60405180910390f35b6103986108d6565b005b6103bd6103a8366004613268565b60106020526000908152604090205460ff1681565b6040519015158152602001610387565b6103986103db366004613268565b610a82565b6103986103ee36600461328a565b610c5e565b61039861040136600461328a565b610dd9565b610398610414366004613268565b610f54565b6103986104273660046132a3565b611171565b6104537fd9b67a260000000000000000000000000000000000000000000000000000000081565b6040517fffffffff000000000000000000000000000000000000000000000000000000009091168152602001610387565b610497610492366004613268565b611318565b604051610387919081511515815260208083015190820152604080830151908201526060918201519181019190915260800190565b6103986104da366004613268565b6113a4565b6104e860075481565b604051908152602001610387565b6103bd610504366004613268565b73ffffffffffffffffffffffffffffffffffffffff1660009081526002602052604090205460ff1690565b6103986114dc565b6103bd610545366004613268565b60026020526000908152604090205460ff1681565b610398611665565b6000546103bd9074010000000000000000000000000000000000000000900460ff1681565b610366610595366004613268565b600f6020526000908152604090205473ffffffffffffffffffffffffffffffffffffffff1681565b600d546103669073ffffffffffffffffffffffffffffffffffffffff1681565b6103986105eb3660046132a3565b6116f2565b6103986105fe36600461328a565b61188a565b610398610611366004613268565b6119f6565b610398610624366004613268565b611bdc565b60005473ffffffffffffffffffffffffffffffffffffffff16610366565b6104e8600a5481565b6004546103669073ffffffffffffffffffffffffffffffffffffffff1681565b61036661067e366004613268565b611df9565b6103bd610691366004613268565b73ffffffffffffffffffffffffffffffffffffffff1660009081526010602052604090205460ff1690565b6103667f000000000000000000000000000000000000000000000000000000000000000081565b6103986106f13660046132a3565b611fca565b6104e860095481565b61039861070d3660046132a3565b6121d9565b610398610720366004613268565b6123df565b610738610733366004613268565b612593565b60408051938452602084019290925290820152606001610387565b600e546103669073ffffffffffffffffffffffffffffffffffffffff1681565b6006546103669073ffffffffffffffffffffffffffffffffffffffff1681565b6103986107a1366004613268565b61260a565b6005546103669073ffffffffffffffffffffffffffffffffffffffff1681565b6104537f80ac58cd0000000000000000000000000000000000000000000000000000000081565b6103666107fb366004613268565b612749565b61039861080e3660046132d6565b612794565b610398610821366004613268565b6129b9565b610398610834366004613268565b612b8d565b6104e8610bb881565b6104e860085481565b6103bd610859366004613268565b612d41565b61039861086c36600461328a565b612db8565b6104e8600b5481565b61039861088836600461328a565b612f33565b61039861089b366004613268565b61309f565b6103666108ae366004613268565b60036020526000908152604090205473ffffffffffffffffffffffffffffffffffffffff1681565b7f000000000000000000000000000000000000000000000000000000000000000073ffffffffffffffffffffffffffffffffffffffff811663dee1f0e4336040517fffffffff0000000000000000000000000000000000000000000000000000000060e084901b16815273ffffffffffffffffffffffffffffffffffffffff9091166004820152602401602060405180830381865afa15801561097d573d6000803e3d6000fd5b505050506040513d601f19601f820116820180604052508101906109a1919061330f565b610a0c576040517f08c379a000000000000000000000000000000000000000000000000000000000815260206004820152601f60248201527f424d5f41434c5f4f4e4c595f474f5645524e414e43455f43414e5f43414c4c0060448201526064015b60405180910390fd5b600080547fffffffffffffffffffffff00ffffffffffffffffffffffffffffffffffffffff16740100000000000000000000000000000000000000001790556040513381527f89d8e5084cb20a926de5df07f7b8263f1228ed46d85d84afa6773e5d7ce813db906020015b60405180910390a150565b7f000000000000000000000000000000000000000000000000000000000000000073ffffffffffffffffffffffffffffffffffffffff811663dee1f0e4336040517fffffffff0000000000000000000000000000000000000000000000000000000060e084901b16815273ffffffffffffffffffffffffffffffffffffffff9091166004820152602401602060405180830381865afa158015610b29573d6000803e3d6000fd5b505050506040513d601f19601f82011682018060405250810190610b4d919061330f565b610bb3576040517f08c379a000000000000000000000000000000000000000000000000000000000815260206004820152601f60248201527f424d5f41434c5f4f4e4c595f474f5645524e414e43455f43414e5f43414c4c006044820152606401610a03565b73ffffffffffffffffffffffffffffffffffffffff8216610bd357600080fd5b73ffffffffffffffffffffffffffffffffffffffff821660008181526010602090815260409182902080547fffffffffffffffffffffffffffffffffffffffffffffffffffffffffffffff001690558151338152908101929092527f51c7271314d1bc03a7cc10464206ac84412719838a3ca814570f7445f0457c4f91015b60405180910390a15050565b7f000000000000000000000000000000000000000000000000000000000000000073ffffffffffffffffffffffffffffffffffffffff811663dee1f0e4336040517fffffffff0000000000000000000000000000000000000000000000000000000060e084901b16815273ffffffffffffffffffffffffffffffffffffffff9091166004820152602401602060405180830381865afa158015610d05573d6000803e3d6000fd5b505050506040513d601f19601f82011682018060405250810190610d29919061330f565b610d8f576040517f08c379a000000000000000000000000000000000000000000000000000000000815260206004820152601f60248201527f424d5f41434c5f4f4e4c595f474f5645524e414e43455f43414e5f43414c4c006044820152606401610a03565b6000600a5411610d9e57600080fd5b600a82905560408051338152602081018490527fcccf2b6d79b744c1a827f0ad86745f230e1ef5e3aa0891d0a1a6b2e6e447b0749101610c52565b7f000000000000000000000000000000000000000000000000000000000000000073ffffffffffffffffffffffffffffffffffffffff811663dee1f0e4336040517fffffffff0000000000000000000000000000000000000000000000000000000060e084901b16815273ffffffffffffffffffffffffffffffffffffffff9091166004820152602401602060405180830381865afa158015610e80573d6000803e3d6000fd5b505050506040513d601f19601f82011682018060405250810190610ea4919061330f565b610f0a576040517f08c379a000000000000000000000000000000000000000000000000000000000815260206004820152601f60248201527f424d5f41434c5f4f4e4c595f474f5645524e414e43455f43414e5f43414c4c006044820152606401610a03565b610bb8821115610f1957600080fd5b600782905560408051338152602081018490527faec3b0dfb932ebcf519716c413557fafef520bf9d7a371d8ef50799927c70ff39101610c52565b7f000000000000000000000000000000000000000000000000000000000000000073ffffffffffffffffffffffffffffffffffffffff811663dee1f0e4336040517fffffffff0000000000000000000000000000000000000000000000000000000060e084901b16815273ffffffffffffffffffffffffffffffffffffffff9091166004820152602401602060405180830381865afa158015610ffb573d6000803e3d6000fd5b505050506040513d601f19601f8201168201806040525081019061101f919061330f565b611085576040517f08c379a000000000000000000000000000000000000000000000000000000000815260206004820152601f60248201527f424d5f41434c5f4f4e4c595f474f5645524e414e43455f43414e5f43414c4c006044820152606401610a03565b73ffffffffffffffffffffffffffffffffffffffff82166110a557600080fd5b73ffffffffffffffffffffffffffffffffffffffff821660009081526010602052604090205460ff1615156001146111265773ffffffffffffffffffffffffffffffffffffffff8216600090815260106020526040902080547fffffffffffffffffffffffffffffffffffffffffffffffffffffffffffffff001660011790555b6040805133815273ffffffffffffffffffffffffffffffffffffffff841660208201527ff5356ea32b86d53c1386eda4d869e6027a0a1d4edebb9c2f778d9f8559d236aa9101610c52565b60005473ffffffffffffffffffffffffffffffffffffffff1633146111f2576040517f08c379a000000000000000000000000000000000000000000000000000000000815260206004820181905260248201527f4f776e61626c653a2063616c6c6572206973206e6f7420746865206f776e65726044820152606401610a03565b60055473ffffffffffffffffffffffffffffffffffffffff16801561121657600080fd5b60065473ffffffffffffffffffffffffffffffffffffffff16801561123a57600080fd5b73ffffffffffffffffffffffffffffffffffffffff841615801590611274575073ffffffffffffffffffffffffffffffffffffffff831615155b61127d57600080fd5b6005805473ffffffffffffffffffffffffffffffffffffffff8681167fffffffffffffffffffffffff00000000000000000000000000000000000000009283168117909355600680549187169190921681179091556040805133815260208101939093528201527fb7ca9e57486893e0e5ce606ca83c7476f96585ff72732ee6e632c0695b72fbeb906060015b60405180910390a150505050565b61134560405180608001604052806000151581526020016000815260200160008152602001600081525090565b5073ffffffffffffffffffffffffffffffffffffffff166000908152600160208181526040928390208351608081018552815460ff16151581529281015491830191909152600281015492820192909252600390910154606082015290565b600e5473ffffffffffffffffffffffffffffffffffffffff1680156113c857600080fd5b60005473ffffffffffffffffffffffffffffffffffffffff163314611449576040517f08c379a000000000000000000000000000000000000000000000000000000000815260206004820181905260248201527f4f776e61626c653a2063616c6c6572206973206e6f7420746865206f776e65726044820152606401610a03565b73ffffffffffffffffffffffffffffffffffffffff821661146957600080fd5b600e80547fffffffffffffffffffffffff00000000000000000000000000000000000000001673ffffffffffffffffffffffffffffffffffffffff84169081179091556040519081527fe66ca1f6b1971dd7b60d9e6fb5d07be2716baf32d50c4f0f01bf1b5cddfd1ae490602001610c52565b7f000000000000000000000000000000000000000000000000000000000000000073ffffffffffffffffffffffffffffffffffffffff811663dee1f0e4336040517fffffffff0000000000000000000000000000000000000000000000000000000060e084901b16815273ffffffffffffffffffffffffffffffffffffffff9091166004820152602401602060405180830381865afa158015611583573d6000803e3d6000fd5b505050506040513d601f19601f820116820180604052508101906115a7919061330f565b61160d576040517f08c379a000000000000000000000000000000000000000000000000000000000815260206004820152601f60248201527f424d5f41434c5f4f4e4c595f474f5645524e414e43455f43414e5f43414c4c006044820152606401610a03565b600080547fffffffffffffffffffffff00ffffffffffffffffffffffffffffffffffffffff1690556040513381527f15d2336aba2921f545ef5492de5c469a1aa3b00e0816b075e36897bcd10bfe4a90602001610a77565b60005473ffffffffffffffffffffffffffffffffffffffff1633146116e6576040517f08c379a000000000000000000000000000000000000000000000000000000000815260206004820181905260248201527f4f776e61626c653a2063616c6c6572206973206e6f7420746865206f776e65726044820152606401610a03565b6116f060006131cf565b565b600c5473ffffffffffffffffffffffffffffffffffffffff16801561171657600080fd5b600d5473ffffffffffffffffffffffffffffffffffffffff16801561173a57600080fd5b60005473ffffffffffffffffffffffffffffffffffffffff1633146117bb576040517f08c379a000000000000000000000000000000000000000000000000000000000815260206004820181905260248201527f4f776e61626c653a2063616c6c6572206973206e6f7420746865206f776e65726044820152606401610a03565b73ffffffffffffffffffffffffffffffffffffffff8416158015906117f5575073ffffffffffffffffffffffffffffffffffffffff831615155b6117fe57600080fd5b600c805473ffffffffffffffffffffffffffffffffffffffff8681167fffffffffffffffffffffffff00000000000000000000000000000000000000009283168117909355600d80549187169190921681179091556040805192835260208301919091527f3b231f7f1d3750272d9d4e4d7677990f114575b1e9334d0088dbb9e74483e163910161130a565b7f000000000000000000000000000000000000000000000000000000000000000073ffffffffffffffffffffffffffffffffffffffff811663dee1f0e4336040517fffffffff0000000000000000000000000000000000000000000000000000000060e084901b16815273ffffffffffffffffffffffffffffffffffffffff9091166004820152602401602060405180830381865afa158015611931573d6000803e3d6000fd5b505050506040513d601f19601f82011682018060405250810190611955919061330f565b6119bb576040517f08c379a000000000000000000000000000000000000000000000000000000000815260206004820152601f60248201527f424d5f41434c5f4f4e4c595f474f5645524e414e43455f43414e5f43414c4c006044820152606401610a03565b600882905560408051338152602081018490527f7c711ee19f0c912a57665c93f4d4e5c0eadfe3547c2a7674d27e359ddcc0126e9101610c52565b7f000000000000000000000000000000000000000000000000000000000000000073ffffffffffffffffffffffffffffffffffffffff811663dee1f0e4336040517fffffffff0000000000000000000000000000000000000000000000000000000060e084901b16815273ffffffffffffffffffffffffffffffffffffffff9091166004820152602401602060405180830381865afa158015611a9d573d6000803e3d6000fd5b505050506040513d601f19601f82011682018060405250810190611ac1919061330f565b611b27576040517f08c379a000000000000000000000000000000000000000000000000000000000815260206004820152601f60248201527f424d5f41434c5f4f4e4c595f474f5645524e414e43455f43414e5f43414c4c006044820152606401610a03565b73ffffffffffffffffffffffffffffffffffffffff821660009081526001602052604090205460ff1615611bd85773ffffffffffffffffffffffffffffffffffffffff821660008181526001602090815260409182902080547fffffffffffffffffffffffffffffffffffffffffffffffffffffffffffffff001690558151338152908101929092527fd69d323ec27eb997f9c9466b0c1f1f37d65382a7caeee9c9cacaf093d6d0bb579101610c52565b5050565b7f000000000000000000000000000000000000000000000000000000000000000073ffffffffffffffffffffffffffffffffffffffff811663dee1f0e4336040517fffffffff0000000000000000000000000000000000000000000000000000000060e084901b16815273ffffffffffffffffffffffffffffffffffffffff9091166004820152602401602060405180830381865afa158015611c83573d6000803e3d6000fd5b505050506040513d601f19601f82011682018060405250810190611ca7919061330f565b611d0d576040517f08c379a000000000000000000000000000000000000000000000000000000000815260206004820152601f60248201527f424d5f41434c5f4f4e4c595f474f5645524e414e43455f43414e5f43414c4c006044820152606401610a03565b73ffffffffffffffffffffffffffffffffffffffff8216611d2d57600080fd5b73ffffffffffffffffffffffffffffffffffffffff821660009081526002602052604090205460ff161515600114611dae5773ffffffffffffffffffffffffffffffffffffffff8216600090815260026020526040902080547fffffffffffffffffffffffffffffffffffffffffffffffffffffffffffffff001660011790555b6040805133815273ffffffffffffffffffffffffffffffffffffffff841660208201527fbfa39708e75c2b57953423380dc6d5f9416972bae39f35b1eff332f8cc0d84199101610c52565b73ffffffffffffffffffffffffffffffffffffffff8082166000908152600f60205260409020541680611fc5576040517f01ffc9a70000000000000000000000000000000000000000000000000000000081527f80ac58cd00000000000000000000000000000000000000000000000000000000600482015273ffffffffffffffffffffffffffffffffffffffff8316906301ffc9a790602401602060405180830381865afa158015611eb0573d6000803e3d6000fd5b505050506040513d601f19601f82011682018060405250810190611ed4919061330f565b15611ef7575050600c5473ffffffffffffffffffffffffffffffffffffffff1690565b6040517f01ffc9a70000000000000000000000000000000000000000000000000000000081527fd9b67a2600000000000000000000000000000000000000000000000000000000600482015273ffffffffffffffffffffffffffffffffffffffff8316906301ffc9a790602401602060405180830381865afa158015611f81573d6000803e3d6000fd5b505050506040513d601f19601f82011682018060405250810190611fa5919061330f565b15611fc55750600d5473ffffffffffffffffffffffffffffffffffffffff165b919050565b7f000000000000000000000000000000000000000000000000000000000000000073ffffffffffffffffffffffffffffffffffffffff811663dee1f0e4336040517fffffffff0000000000000000000000000000000000000000000000000000000060e084901b16815273ffffffffffffffffffffffffffffffffffffffff9091166004820152602401602060405180830381865afa158015612071573d6000803e3d6000fd5b505050506040513d601f19601f82011682018060405250810190612095919061330f565b6120fb576040517f08c379a000000000000000000000000000000000000000000000000000000000815260206004820152601f60248201527f424d5f41434c5f4f4e4c595f474f5645524e414e43455f43414e5f43414c4c006044820152606401610a03565b73ffffffffffffffffffffffffffffffffffffffff831615801590612135575073ffffffffffffffffffffffffffffffffffffffff821615155b61213e57600080fd5b73ffffffffffffffffffffffffffffffffffffffff83811660008181526003602090815260409182902080547fffffffffffffffffffffffff00000000000000000000000000000000000000001694871694851790558151338152908101929092528101919091527fa73114b4976a26b294c6ac38aa4eac20323ac7834b8710d69a08d6f13a262d61906060015b60405180910390a1505050565b7f000000000000000000000000000000000000000000000000000000000000000073ffffffffffffffffffffffffffffffffffffffff811663dee1f0e4336040517fffffffff0000000000000000000000000000000000000000000000000000000060e084901b16815273ffffffffffffffffffffffffffffffffffffffff9091166004820152602401602060405180830381865afa158015612280573d6000803e3d6000fd5b505050506040513d601f19601f820116820180604052508101906122a4919061330f565b61230a576040517f08c379a000000000000000000000000000000000000000000000000000000000815260206004820152601f60248201527f424d5f41434c5f4f4e4c595f474f5645524e414e43455f43414e5f43414c4c006044820152606401610a03565b73ffffffffffffffffffffffffffffffffffffffff831615801590612344575073ffffffffffffffffffffffffffffffffffffffff821615155b61234d57600080fd5b73ffffffffffffffffffffffffffffffffffffffff8381166000818152600f602090815260409182902080547fffffffffffffffffffffffff00000000000000000000000000000000000000001694871694851790558151338152908101929092528101919091527f972fb0b53009a70e5374ad2e85aabd349201193cc5d85715a5b7b63137cb8ad7906060016121cc565b7f000000000000000000000000000000000000000000000000000000000000000073ffffffffffffffffffffffffffffffffffffffff811663dee1f0e4336040517fffffffff0000000000000000000000000000000000000000000000000000000060e084901b16815273ffffffffffffffffffffffffffffffffffffffff9091166004820152602401602060405180830381865afa158015612486573d6000803e3d6000fd5b505050506040513d601f19601f820116820180604052508101906124aa919061330f565b612510576040517f08c379a000000000000000000000000000000000000000000000000000000000815260206004820152601f60248201527f424d5f41434c5f4f4e4c595f474f5645524e414e43455f43414e5f43414c4c006044820152606401610a03565b73ffffffffffffffffffffffffffffffffffffffff821660008181526003602090815260409182902080547fffffffffffffffffffffffff00000000000000000000000000000000000000001690558151338152908101929092527f9d2c7870afed34a7d2926e519db06ac74b5a3a35e678aec10954d74ecfc67c819101610c52565b600080548190819074010000000000000000000000000000000000000000900460ff1680156125c657506125c684612d41565b156125f35760006125d685611318565b905080602001519350806040015192508060600151915050612603565b6009549250600a549150600b5490505b9193909250565b60005473ffffffffffffffffffffffffffffffffffffffff16331461268b576040517f08c379a000000000000000000000000000000000000000000000000000000000815260206004820181905260248201527f4f776e61626c653a2063616c6c6572206973206e6f7420746865206f776e65726044820152606401610a03565b60045473ffffffffffffffffffffffffffffffffffffffff1680156126af57600080fd5b73ffffffffffffffffffffffffffffffffffffffff82166126cf57600080fd5b600480547fffffffffffffffffffffffff00000000000000000000000000000000000000001673ffffffffffffffffffffffffffffffffffffffff84169081179091556040805133815260208101929092527fa7ebd3b8f60f1612c46fda3d490cf7627bf136da9c5d474a5bd1d1bcaa3c898d9101610c52565b73ffffffffffffffffffffffffffffffffffffffff8082166000908152600360205260409020541680611fc5575050600e5473ffffffffffffffffffffffffffffffffffffffff1690565b7f000000000000000000000000000000000000000000000000000000000000000073ffffffffffffffffffffffffffffffffffffffff811663dee1f0e4336040517fffffffff0000000000000000000000000000000000000000000000000000000060e084901b16815273ffffffffffffffffffffffffffffffffffffffff9091166004820152602401602060405180830381865afa15801561283b573d6000803e3d6000fd5b505050506040513d601f19601f8201168201806040525081019061285f919061330f565b6128c5576040517f08c379a000000000000000000000000000000000000000000000000000000000815260206004820152601f60248201527f424d5f41434c5f4f4e4c595f474f5645524e414e43455f43414e5f43414c4c006044820152606401610a03565b73ffffffffffffffffffffffffffffffffffffffff85166128e557600080fd5b828411156128f257600080fd5b60408051608081018252600180825260208083018881528385018881526060850188815273ffffffffffffffffffffffffffffffffffffffff8c166000818152868652889020965187547fffffffffffffffffffffffffffffffffffffffffffffffffffffffffffffff001690151517875592519486019490945551600285015591516003909301929092558251338152918201527f1d579ce37763c9894e144fe60df6d85b0eaa341ed20bcb7045de4a9327eb5115910160405180910390a15050505050565b7f000000000000000000000000000000000000000000000000000000000000000073ffffffffffffffffffffffffffffffffffffffff811663dee1f0e4336040517fffffffff0000000000000000000000000000000000000000000000000000000060e084901b16815273ffffffffffffffffffffffffffffffffffffffff9091166004820152602401602060405180830381865afa158015612a60573d6000803e3d6000fd5b505050506040513d601f19601f82011682018060405250810190612a84919061330f565b612aea576040517f08c379a000000000000000000000000000000000000000000000000000000000815260206004820152601f60248201527f424d5f41434c5f4f4e4c595f474f5645524e414e43455f43414e5f43414c4c006044820152606401610a03565b73ffffffffffffffffffffffffffffffffffffffff8216612b0a57600080fd5b73ffffffffffffffffffffffffffffffffffffffff821660008181526002602090815260409182902080547fffffffffffffffffffffffffffffffffffffffffffffffffffffffffffffff001690558151338152908101929092527f16142d8f56d140e51ef5a88861836c9a65b9af1bab0bbb809efa6b7a9055d9c69101610c52565b7f000000000000000000000000000000000000000000000000000000000000000073ffffffffffffffffffffffffffffffffffffffff811663dee1f0e4336040517fffffffff0000000000000000000000000000000000000000000000000000000060e084901b16815273ffffffffffffffffffffffffffffffffffffffff9091166004820152602401602060405180830381865afa158015612c34573d6000803e3d6000fd5b505050506040513d601f19601f82011682018060405250810190612c58919061330f565b612cbe576040517f08c379a000000000000000000000000000000000000000000000000000000000815260206004820152601f60248201527f424d5f41434c5f4f4e4c595f474f5645524e414e43455f43414e5f43414c4c006044820152606401610a03565b73ffffffffffffffffffffffffffffffffffffffff82166000818152600f602090815260409182902080547fffffffffffffffffffffffff00000000000000000000000000000000000000001690558151338152908101929092527f1616722fe9e1734b9f32ae9302fb74330136cecdc962e25fabc98185c5c92eb09101610c52565b600073ffffffffffffffffffffffffffffffffffffffff8216612d6357600080fd5b60005474010000000000000000000000000000000000000000900460ff161580612db2575073ffffffffffffffffffffffffffffffffffffffff821660009081526001602052604090205460ff165b92915050565b7f000000000000000000000000000000000000000000000000000000000000000073ffffffffffffffffffffffffffffffffffffffff811663dee1f0e4336040517fffffffff0000000000000000000000000000000000000000000000000000000060e084901b16815273ffffffffffffffffffffffffffffffffffffffff9091166004820152602401602060405180830381865afa158015612e5f573d6000803e3d6000fd5b505050506040513d601f19601f82011682018060405250810190612e83919061330f565b612ee9576040517f08c379a000000000000000000000000000000000000000000000000000000000815260206004820152601f60248201527f424d5f41434c5f4f4e4c595f474f5645524e414e43455f43414e5f43414c4c006044820152606401610a03565b600060095411612ef857600080fd5b600982905560408051338152602081018490527fdb02dc087b6dff9517046962b8bebc2baf0dc57c322d08fd72d6ed4197f497cc9101610c52565b7f000000000000000000000000000000000000000000000000000000000000000073ffffffffffffffffffffffffffffffffffffffff811663dee1f0e4336040517fffffffff0000000000000000000000000000000000000000000000000000000060e084901b16815273ffffffffffffffffffffffffffffffffffffffff9091166004820152602401602060405180830381865afa158015612fda573d6000803e3d6000fd5b505050506040513d601f19601f82011682018060405250810190612ffe919061330f565b613064576040517f08c379a000000000000000000000000000000000000000000000000000000000815260206004820152601f60248201527f424d5f41434c5f4f4e4c595f474f5645524e414e43455f43414e5f43414c4c006044820152606401610a03565b600b82905560408051338152602081018490527f84bb6fd7054b5db22ce3c0418c9d65f63ce3ba62f757223bde70dcfb7354dd189101610c52565b60005473ffffffffffffffffffffffffffffffffffffffff163314613120576040517f08c379a000000000000000000000000000000000000000000000000000000000815260206004820181905260248201527f4f776e61626c653a2063616c6c6572206973206e6f7420746865206f776e65726044820152606401610a03565b73ffffffffffffffffffffffffffffffffffffffff81166131c3576040517f08c379a000000000000000000000000000000000000000000000000000000000815260206004820152602660248201527f4f776e61626c653a206e6577206f776e657220697320746865207a65726f206160448201527f64647265737300000000000000000000000000000000000000000000000000006064820152608401610a03565b6131cc816131cf565b50565b6000805473ffffffffffffffffffffffffffffffffffffffff8381167fffffffffffffffffffffffff0000000000000000000000000000000000000000831681178455604051919092169283917f8be0079c531659141344cd1fd0a4f28419497f9722a3daafe3b4186f6b6457e09190a35050565b803573ffffffffffffffffffffffffffffffffffffffff81168114611fc557600080fd5b60006020828403121561327a57600080fd5b61328382613244565b9392505050565b60006020828403121561329c57600080fd5b5035919050565b600080604083850312156132b657600080fd5b6132bf83613244565b91506132cd60208401613244565b90509250929050565b600080600080608085870312156132ec57600080fd5b6132f585613244565b966020860135965060408601359560600135945092505050565b60006020828403121561332157600080fd5b8151801515811461328357600080fdfea264697066735822122065d927084d7df8f3a1785550c1aa1ebb879094748b2ed79bfa9be007e7ca794964736f6c634300080a0033",
  "libraries": {
    "BespokeTypes": "0xEDB6d57F6645bAce2E2DD77CCc6937FF8B2d3a86"
  },
  "devdoc": {
    "kind": "dev",
    "methods": {
      "owner()": {
        "details": "Returns the address of the current owner."
      },
      "renounceOwnership()": {
        "details": "Leaves the contract without owner. It will not be possible to call `onlyOwner` functions anymore. Can only be called by the current owner. NOTE: Renouncing ownership will leave the contract without an owner, thereby removing any functionality that is only available to the owner."
      },
      "transferOwnership(address)": {
        "details": "Transfers ownership of the contract to a new account (`newOwner`). Can only be called by the current owner."
      }
    },
    "version": 1
  },
  "userdoc": {
    "kind": "user",
    "methods": {},
    "version": 1
  },
  "storageLayout": {
    "storage": [
      {
        "astId": 387,
        "contract": "contracts/bespokemarket/OpenSkyBespokeSettings.sol:OpenSkyBespokeSettings",
        "label": "_owner",
        "offset": 0,
        "slot": "0",
        "type": "t_address"
      },
      {
        "astId": 13283,
        "contract": "contracts/bespokemarket/OpenSkyBespokeSettings.sol:OpenSkyBespokeSettings",
        "label": "isWhitelistOn",
        "offset": 20,
        "slot": "0",
        "type": "t_bool"
      },
      {
        "astId": 13288,
        "contract": "contracts/bespokemarket/OpenSkyBespokeSettings.sol:OpenSkyBespokeSettings",
        "label": "_whitelist",
        "offset": 0,
        "slot": "1",
        "type": "t_mapping(t_address,t_struct(WhitelistInfo)15751_storage)"
      },
      {
        "astId": 13292,
        "contract": "contracts/bespokemarket/OpenSkyBespokeSettings.sol:OpenSkyBespokeSettings",
        "label": "_currencyWhitelist",
        "offset": 0,
        "slot": "2",
        "type": "t_mapping(t_address,t_bool)"
      },
      {
        "astId": 13296,
        "contract": "contracts/bespokemarket/OpenSkyBespokeSettings.sol:OpenSkyBespokeSettings",
        "label": "_currencyTransferAdapters",
        "offset": 0,
        "slot": "3",
        "type": "t_mapping(t_address,t_address)"
      },
      {
        "astId": 13299,
        "contract": "contracts/bespokemarket/OpenSkyBespokeSettings.sol:OpenSkyBespokeSettings",
        "label": "marketAddress",
        "offset": 0,
        "slot": "4",
        "type": "t_address"
      },
      {
        "astId": 13302,
        "contract": "contracts/bespokemarket/OpenSkyBespokeSettings.sol:OpenSkyBespokeSettings",
        "label": "borrowLoanAddress",
        "offset": 0,
        "slot": "5",
        "type": "t_address"
      },
      {
        "astId": 13305,
        "contract": "contracts/bespokemarket/OpenSkyBespokeSettings.sol:OpenSkyBespokeSettings",
        "label": "lendLoanAddress",
        "offset": 0,
        "slot": "6",
        "type": "t_address"
      },
      {
        "astId": 13309,
        "contract": "contracts/bespokemarket/OpenSkyBespokeSettings.sol:OpenSkyBespokeSettings",
        "label": "reserveFactor",
        "offset": 0,
        "slot": "7",
        "type": "t_uint256"
      },
      {
        "astId": 13313,
        "contract": "contracts/bespokemarket/OpenSkyBespokeSettings.sol:OpenSkyBespokeSettings",
        "label": "overdueLoanFeeFactor",
        "offset": 0,
        "slot": "8",
        "type": "t_uint256"
      },
      {
        "astId": 13317,
        "contract": "contracts/bespokemarket/OpenSkyBespokeSettings.sol:OpenSkyBespokeSettings",
        "label": "minBorrowDuration",
        "offset": 0,
        "slot": "9",
        "type": "t_uint256"
      },
      {
        "astId": 13321,
        "contract": "contracts/bespokemarket/OpenSkyBespokeSettings.sol:OpenSkyBespokeSettings",
        "label": "maxBorrowDuration",
        "offset": 0,
        "slot": "10",
        "type": "t_uint256"
      },
      {
        "astId": 13325,
        "contract": "contracts/bespokemarket/OpenSkyBespokeSettings.sol:OpenSkyBespokeSettings",
        "label": "overdueDuration",
        "offset": 0,
        "slot": "11",
        "type": "t_uint256"
      },
      {
        "astId": 13333,
        "contract": "contracts/bespokemarket/OpenSkyBespokeSettings.sol:OpenSkyBespokeSettings",
        "label": "TRANSFER_ERC721",
        "offset": 0,
        "slot": "12",
        "type": "t_address"
      },
      {
        "astId": 13335,
        "contract": "contracts/bespokemarket/OpenSkyBespokeSettings.sol:OpenSkyBespokeSettings",
        "label": "TRANSFER_ERC1155",
        "offset": 0,
        "slot": "13",
        "type": "t_address"
      },
      {
        "astId": 13337,
        "contract": "contracts/bespokemarket/OpenSkyBespokeSettings.sol:OpenSkyBespokeSettings",
        "label": "TRANSFER_CURRENCY",
        "offset": 0,
        "slot": "14",
        "type": "t_address"
      },
      {
        "astId": 13341,
        "contract": "contracts/bespokemarket/OpenSkyBespokeSettings.sol:OpenSkyBespokeSettings",
        "label": "_transferAdapters",
        "offset": 0,
        "slot": "15",
        "type": "t_mapping(t_address,t_address)"
      },
      {
        "astId": 13345,
        "contract": "contracts/bespokemarket/OpenSkyBespokeSettings.sol:OpenSkyBespokeSettings",
        "label": "_strategyWhitelist",
        "offset": 0,
        "slot": "16",
        "type": "t_mapping(t_address,t_bool)"
      }
    ],
    "types": {
      "t_address": {
        "encoding": "inplace",
        "label": "address",
        "numberOfBytes": "20"
      },
      "t_bool": {
        "encoding": "inplace",
        "label": "bool",
        "numberOfBytes": "1"
      },
      "t_mapping(t_address,t_address)": {
        "encoding": "mapping",
        "key": "t_address",
        "label": "mapping(address => address)",
        "numberOfBytes": "32",
        "value": "t_address"
      },
      "t_mapping(t_address,t_bool)": {
        "encoding": "mapping",
        "key": "t_address",
        "label": "mapping(address => bool)",
        "numberOfBytes": "32",
        "value": "t_bool"
      },
      "t_mapping(t_address,t_struct(WhitelistInfo)15751_storage)": {
        "encoding": "mapping",
        "key": "t_address",
        "label": "mapping(address => struct BespokeTypes.WhitelistInfo)",
        "numberOfBytes": "32",
        "value": "t_struct(WhitelistInfo)15751_storage"
      },
      "t_struct(WhitelistInfo)15751_storage": {
        "encoding": "inplace",
        "label": "struct BespokeTypes.WhitelistInfo",
        "members": [
          {
            "astId": 15744,
            "contract": "contracts/bespokemarket/OpenSkyBespokeSettings.sol:OpenSkyBespokeSettings",
            "label": "enabled",
            "offset": 0,
            "slot": "0",
            "type": "t_bool"
          },
          {
            "astId": 15746,
            "contract": "contracts/bespokemarket/OpenSkyBespokeSettings.sol:OpenSkyBespokeSettings",
            "label": "minBorrowDuration",
            "offset": 0,
            "slot": "1",
            "type": "t_uint256"
          },
          {
            "astId": 15748,
            "contract": "contracts/bespokemarket/OpenSkyBespokeSettings.sol:OpenSkyBespokeSettings",
            "label": "maxBorrowDuration",
            "offset": 0,
            "slot": "2",
            "type": "t_uint256"
          },
          {
            "astId": 15750,
            "contract": "contracts/bespokemarket/OpenSkyBespokeSettings.sol:OpenSkyBespokeSettings",
            "label": "overdueDuration",
            "offset": 0,
            "slot": "3",
            "type": "t_uint256"
          }
        ],
        "numberOfBytes": "128"
      },
      "t_uint256": {
        "encoding": "inplace",
        "label": "uint256",
        "numberOfBytes": "32"
      }
    }
  }
}