{
  "address": "0x7bA31f42CF625b453FDE62F77266B92E325f16F8",
  "abi": [
    {
      "inputs": [
        {
          "internalType": "string",
          "name": "name",
          "type": "string"
        },
        {
          "internalType": "string",
          "name": "symbol",
          "type": "string"
        },
        {
          "internalType": "address",
          "name": "bespokeSettings_",
          "type": "address"
        }
      ],
      "stateMutability": "nonpayable",
      "type": "constructor"
    },
    {
      "anonymous": false,
      "inputs": [
        {
          "indexed": true,
          "internalType": "address",
          "name": "owner",
          "type": "address"
        },
        {
          "indexed": true,
          "internalType": "address",
          "name": "approved",
          "type": "address"
        },
        {
          "indexed": true,
          "internalType": "uint256",
          "name": "tokenId",
          "type": "uint256"
        }
      ],
      "name": "Approval",
      "type": "event"
    },
    {
      "anonymous": false,
      "inputs": [
        {
          "indexed": true,
          "internalType": "address",
          "name": "owner",
          "type": "address"
        },
        {
          "indexed": true,
          "internalType": "address",
          "name": "operator",
          "type": "address"
        },
        {
          "indexed": false,
          "internalType": "bool",
          "name": "approved",
          "type": "bool"
        }
      ],
      "name": "ApprovalForAll",
      "type": "event"
    },
    {
      "anonymous": false,
      "inputs": [
        {
          "indexed": false,
          "internalType": "uint256",
          "name": "tokenId",
          "type": "uint256"
        }
      ],
      "name": "Burn",
      "type": "event"
    },
    {
      "anonymous": false,
      "inputs": [
        {
          "indexed": true,
          "internalType": "uint256",
          "name": "tokenId",
          "type": "uint256"
        },
        {
          "indexed": true,
          "internalType": "address",
          "name": "recipient",
          "type": "address"
        }
      ],
      "name": "Mint",
      "type": "event"
    },
    {
      "anonymous": false,
      "inputs": [
        {
          "indexed": true,
          "internalType": "address",
          "name": "previousOwner",
          "type": "address"
        },
        {
          "indexed": true,
          "internalType": "address",
          "name": "newOwner",
          "type": "address"
        }
      ],
      "name": "OwnershipTransferred",
      "type": "event"
    },
    {
      "anonymous": false,
      "inputs": [
        {
          "indexed": false,
          "internalType": "address",
          "name": "operator",
          "type": "address"
        },
        {
          "indexed": false,
          "internalType": "address",
          "name": "descriptorAddress",
          "type": "address"
        }
      ],
      "name": "SetLoanDescriptorAddress",
      "type": "event"
    },
    {
      "anonymous": false,
      "inputs": [
        {
          "indexed": true,
          "internalType": "address",
          "name": "from",
          "type": "address"
        },
        {
          "indexed": true,
          "internalType": "address",
          "name": "to",
          "type": "address"
        },
        {
          "indexed": true,
          "internalType": "uint256",
          "name": "tokenId",
          "type": "uint256"
        }
      ],
      "name": "Transfer",
      "type": "event"
    },
    {
      "inputs": [],
      "name": "BESPOKE_SETTINGS",
      "outputs": [
        {
          "internalType": "contract IOpenSkyBespokeSettings",
          "name": "",
          "type": "address"
        }
      ],
      "stateMutability": "view",
      "type": "function"
    },
    {
      "inputs": [
        {
          "internalType": "address",
          "name": "to",
          "type": "address"
        },
        {
          "internalType": "uint256",
          "name": "tokenId",
          "type": "uint256"
        }
      ],
      "name": "approve",
      "outputs": [],
      "stateMutability": "nonpayable",
      "type": "function"
    },
    {
      "inputs": [
        {
          "internalType": "address",
          "name": "owner",
          "type": "address"
        }
      ],
      "name": "balanceOf",
      "outputs": [
        {
          "internalType": "uint256",
          "name": "",
          "type": "uint256"
        }
      ],
      "stateMutability": "view",
      "type": "function"
    },
    {
      "inputs": [
        {
          "internalType": "uint256",
          "name": "tokenId",
          "type": "uint256"
        }
      ],
      "name": "burn",
      "outputs": [],
      "stateMutability": "nonpayable",
      "type": "function"
    },
    {
      "inputs": [
        {
          "internalType": "uint256",
          "name": "tokenId",
          "type": "uint256"
        }
      ],
      "name": "getApproved",
      "outputs": [
        {
          "internalType": "address",
          "name": "",
          "type": "address"
        }
      ],
      "stateMutability": "view",
      "type": "function"
    },
    {
      "inputs": [
        {
          "internalType": "uint256",
          "name": "tokenId",
          "type": "uint256"
        }
      ],
      "name": "getLoanData",
      "outputs": [
        {
          "components": [
            {
              "internalType": "address",
              "name": "tokenAddress",
              "type": "address"
            },
            {
              "internalType": "uint256",
              "name": "tokenId",
              "type": "uint256"
            },
            {
              "internalType": "uint256",
              "name": "tokenAmount",
              "type": "uint256"
            },
            {
              "internalType": "address",
              "name": "nftManager",
              "type": "address"
            },
            {
              "internalType": "address",
              "name": "borrower",
              "type": "address"
            },
            {
              "internalType": "address",
              "name": "lender",
              "type": "address"
            },
            {
              "internalType": "uint256",
              "name": "amount",
              "type": "uint256"
            },
            {
              "internalType": "uint128",
              "name": "borrowRate",
              "type": "uint128"
            },
            {
              "internalType": "uint128",
              "name": "interestPerSecond",
              "type": "uint128"
            },
            {
              "internalType": "address",
              "name": "currency",
              "type": "address"
            },
            {
              "internalType": "address",
              "name": "lendAsset",
              "type": "address"
            },
            {
              "internalType": "uint256",
              "name": "reserveFactor",
              "type": "uint256"
            },
            {
              "internalType": "uint256",
              "name": "overdueLoanFeeFactor",
              "type": "uint256"
            },
            {
              "internalType": "uint40",
              "name": "borrowDuration",
              "type": "uint40"
            },
            {
              "internalType": "uint40",
              "name": "borrowBegin",
              "type": "uint40"
            },
            {
              "internalType": "uint40",
              "name": "borrowOverdueTime",
              "type": "uint40"
            },
            {
              "internalType": "uint40",
              "name": "liquidatableTime",
              "type": "uint40"
            },
            {
              "internalType": "bool",
              "name": "isProrated",
              "type": "bool"
            },
            {
              "internalType": "bool",
              "name": "autoConvertWhenRepay",
              "type": "bool"
            },
            {
              "internalType": "enum BespokeTypes.LoanStatus",
              "name": "status",
              "type": "uint8"
            }
          ],
          "internalType": "struct BespokeTypes.LoanData",
          "name": "",
          "type": "tuple"
        }
      ],
      "stateMutability": "nonpayable",
      "type": "function"
    },
    {
      "inputs": [
        {
          "internalType": "address",
          "name": "owner",
          "type": "address"
        },
        {
          "internalType": "address",
          "name": "operator",
          "type": "address"
        }
      ],
      "name": "isApprovedForAll",
      "outputs": [
        {
          "internalType": "bool",
          "name": "",
          "type": "bool"
        }
      ],
      "stateMutability": "view",
      "type": "function"
    },
    {
      "inputs": [],
      "name": "loanDescriptorAddress",
      "outputs": [
        {
          "internalType": "address",
          "name": "",
          "type": "address"
        }
      ],
      "stateMutability": "view",
      "type": "function"
    },
    {
      "inputs": [
        {
          "internalType": "uint256",
          "name": "tokenId",
          "type": "uint256"
        },
        {
          "internalType": "address",
          "name": "account",
          "type": "address"
        }
      ],
      "name": "mint",
      "outputs": [],
      "stateMutability": "nonpayable",
      "type": "function"
    },
    {
      "inputs": [],
      "name": "name",
      "outputs": [
        {
          "internalType": "string",
          "name": "",
          "type": "string"
        }
      ],
      "stateMutability": "view",
      "type": "function"
    },
    {
      "inputs": [],
      "name": "owner",
      "outputs": [
        {
          "internalType": "address",
          "name": "",
          "type": "address"
        }
      ],
      "stateMutability": "view",
      "type": "function"
    },
    {
      "inputs": [
        {
          "internalType": "uint256",
          "name": "tokenId",
          "type": "uint256"
        }
      ],
      "name": "ownerOf",
      "outputs": [
        {
          "internalType": "address",
          "name": "",
          "type": "address"
        }
      ],
      "stateMutability": "view",
      "type": "function"
    },
    {
      "inputs": [],
      "name": "renounceOwnership",
      "outputs": [],
      "stateMutability": "nonpayable",
      "type": "function"
    },
    {
      "inputs": [
        {
          "internalType": "address",
          "name": "from",
          "type": "address"
        },
        {
          "internalType": "address",
          "name": "to",
          "type": "address"
        },
        {
          "internalType": "uint256",
          "name": "tokenId",
          "type": "uint256"
        }
      ],
      "name": "safeTransferFrom",
      "outputs": [],
      "stateMutability": "nonpayable",
      "type": "function"
    },
    {
      "inputs": [
        {
          "internalType": "address",
          "name": "from",
          "type": "address"
        },
        {
          "internalType": "address",
          "name": "to",
          "type": "address"
        },
        {
          "internalType": "uint256",
          "name": "tokenId",
          "type": "uint256"
        },
        {
          "internalType": "bytes",
          "name": "_data",
          "type": "bytes"
        }
      ],
      "name": "safeTransferFrom",
      "outputs": [],
      "stateMutability": "nonpayable",
      "type": "function"
    },
    {
      "inputs": [
        {
          "internalType": "address",
          "name": "operator",
          "type": "address"
        },
        {
          "internalType": "bool",
          "name": "approved",
          "type": "bool"
        }
      ],
      "name": "setApprovalForAll",
      "outputs": [],
      "stateMutability": "nonpayable",
      "type": "function"
    },
    {
      "inputs": [
        {
          "internalType": "address",
          "name": "address_",
          "type": "address"
        }
      ],
      "name": "setLoanDescriptorAddress",
      "outputs": [],
      "stateMutability": "nonpayable",
      "type": "function"
    },
    {
      "inputs": [
        {
          "internalType": "bytes4",
          "name": "interfaceId",
          "type": "bytes4"
        }
      ],
      "name": "supportsInterface",
      "outputs": [
        {
          "internalType": "bool",
          "name": "",
          "type": "bool"
        }
      ],
      "stateMutability": "view",
      "type": "function"
    },
    {
      "inputs": [],
      "name": "symbol",
      "outputs": [
        {
          "internalType": "string",
          "name": "",
          "type": "string"
        }
      ],
      "stateMutability": "view",
      "type": "function"
    },
    {
      "inputs": [
        {
          "internalType": "uint256",
          "name": "tokenId",
          "type": "uint256"
        }
      ],
      "name": "tokenURI",
      "outputs": [
        {
          "internalType": "string",
          "name": "",
          "type": "string"
        }
      ],
      "stateMutability": "view",
      "type": "function"
    },
    {
      "inputs": [
        {
          "internalType": "address",
          "name": "from",
          "type": "address"
        },
        {
          "internalType": "address",
          "name": "to",
          "type": "address"
        },
        {
          "internalType": "uint256",
          "name": "tokenId",
          "type": "uint256"
        }
      ],
      "name": "transferFrom",
      "outputs": [],
      "stateMutability": "nonpayable",
      "type": "function"
    },
    {
      "inputs": [
        {
          "internalType": "address",
          "name": "newOwner",
          "type": "address"
        }
      ],
      "name": "transferOwnership",
      "outputs": [],
      "stateMutability": "nonpayable",
      "type": "function"
    }
  ],
  "transactionHash": "0x8251446719c2023522042c39ffbeeaaab8ed90169366c4be1a564487c64a1307",
  "args": [
    "OpenSky Bespoke Lend Receipt",
    "OBLR",
    "0xC6580330a5108ebb67eE9E8a2b800cadf0940e40"
  ],
  "solcInputHash": "7115e83fb639f0ac8332020e2b911896",
  "bytecode": "0x60a06040523480156200001157600080fd5b5060405162002bd538038062002bd5833981016040819052620000349162000247565b8282620000413362000084565b815162000056906001906020850190620000d4565b5080516200006c906002906020840190620000d4565b5050506001600160a01b031660805250620003119050565b600080546001600160a01b038381166001600160a01b0319831681178455604051919092169283917f8be0079c531659141344cd1fd0a4f28419497f9722a3daafe3b4186f6b6457e09190a35050565b828054620000e290620002d4565b90600052602060002090601f01602090048101928262000106576000855562000151565b82601f106200012157805160ff191683800117855562000151565b8280016001018555821562000151579182015b828111156200015157825182559160200191906001019062000134565b506200015f92915062000163565b5090565b5b808211156200015f576000815560010162000164565b634e487b7160e01b600052604160045260246000fd5b600082601f830112620001a257600080fd5b81516001600160401b0380821115620001bf57620001bf6200017a565b604051601f8301601f19908116603f01168101908282118183101715620001ea57620001ea6200017a565b816040528381526020925086838588010111156200020757600080fd5b600091505b838210156200022b57858201830151818301840152908201906200020c565b838211156200023d5760008385830101525b9695505050505050565b6000806000606084860312156200025d57600080fd5b83516001600160401b03808211156200027557600080fd5b620002838783880162000190565b945060208601519150808211156200029a57600080fd5b50620002a98682870162000190565b604086015190935090506001600160a01b0381168114620002c957600080fd5b809150509250925092565b600181811c90821680620002e957607f821691505b602082108114156200030b57634e487b7160e01b600052602260045260246000fd5b50919050565b60805161289362000342600039600081816102290152818161086f01528181610a9d0152610ee401526128936000f3fe608060405234801561001057600080fd5b50600436106101825760003560e01c8063715018a6116100d857806397dfa0d11161008c578063c87b56dd11610066578063c87b56dd1461035f578063e985e9c514610372578063f2fde38b146103bb57600080fd5b806397dfa0d114610319578063a22cb46514610339578063b88d4fde1461034c57600080fd5b80638da5cb5b116100bd5780638da5cb5b146102e057806394bf804d146102fe57806395d89b411461031157600080fd5b8063715018a6146102c557806379380038146102cd57600080fd5b806329c55f061161013a578063622fe39f11610114578063622fe39f146102715780636352211e1461029157806370a08231146102a457600080fd5b806329c55f061461022457806342842e0e1461024b57806342966c681461025e57600080fd5b8063081812fc1161016b578063081812fc146101c4578063095ea7b3146101fc57806323b872dd1461021157600080fd5b806301ffc9a71461018757806306fdde03146101af575b600080fd5b61019a610195366004611f66565b6103ce565b60405190151581526020015b60405180910390f35b6101b76104b3565b6040516101a69190612000565b6101d76101d2366004612013565b610545565b60405173ffffffffffffffffffffffffffffffffffffffff90911681526020016101a6565b61020f61020a36600461204e565b610624565b005b61020f61021f36600461207a565b6107b1565b6101d77f000000000000000000000000000000000000000000000000000000000000000081565b61020f61025936600461207a565b610852565b61020f61026c366004612013565b61086d565b61028461027f366004612013565b6109f6565b6040516101a691906120f6565b6101d761029f366004612013565b610ba6565b6102b76102b23660046122aa565b610c58565b6040519081526020016101a6565b61020f610d26565b61020f6102db3660046122aa565b610db3565b60005473ffffffffffffffffffffffffffffffffffffffff166101d7565b61020f61030c3660046122c7565b610ee2565b6101b761107c565b6007546101d79073ffffffffffffffffffffffffffffffffffffffff1681565b61020f610347366004612305565b61108b565b61020f61035a366004612421565b6111a2565b6101b761036d366004612013565b61124a565b61019a6103803660046124d0565b73ffffffffffffffffffffffffffffffffffffffff918216600090815260066020908152604080832093909416825291909152205460ff1690565b61020f6103c93660046122aa565b611339565b60007fffffffff0000000000000000000000000000000000000000000000000000000082167f80ac58cd00000000000000000000000000000000000000000000000000000000148061046157507fffffffff0000000000000000000000000000000000000000000000000000000082167f5b5e139f00000000000000000000000000000000000000000000000000000000145b806104ad57507f01ffc9a7000000000000000000000000000000000000000000000000000000007fffffffff000000000000000000000000000000000000000000000000000000008316145b92915050565b6060600180546104c2906124fe565b80601f01602080910402602001604051908101604052809291908181526020018280546104ee906124fe565b801561053b5780601f106105105761010080835404028352916020019161053b565b820191906000526020600020905b81548152906001019060200180831161051e57829003601f168201915b5050505050905090565b60008181526003602052604081205473ffffffffffffffffffffffffffffffffffffffff166105fb576040517f08c379a000000000000000000000000000000000000000000000000000000000815260206004820152602c60248201527f4552433732313a20617070726f76656420717565727920666f72206e6f6e657860448201527f697374656e7420746f6b656e000000000000000000000000000000000000000060648201526084015b60405180910390fd5b5060009081526005602052604090205473ffffffffffffffffffffffffffffffffffffffff1690565b600061062f82610ba6565b90508073ffffffffffffffffffffffffffffffffffffffff168373ffffffffffffffffffffffffffffffffffffffff1614156106ed576040517f08c379a000000000000000000000000000000000000000000000000000000000815260206004820152602160248201527f4552433732313a20617070726f76616c20746f2063757272656e74206f776e6560448201527f720000000000000000000000000000000000000000000000000000000000000060648201526084016105f2565b3373ffffffffffffffffffffffffffffffffffffffff8216148061071657506107168133610380565b6107a2576040517f08c379a000000000000000000000000000000000000000000000000000000000815260206004820152603860248201527f4552433732313a20617070726f76652063616c6c6572206973206e6f74206f7760448201527f6e6572206e6f7220617070726f76656420666f7220616c6c000000000000000060648201526084016105f2565b6107ac8383611469565b505050565b6107bb3382611509565b610847576040517f08c379a000000000000000000000000000000000000000000000000000000000815260206004820152603160248201527f4552433732313a207472616e736665722063616c6c6572206973206e6f74206f60448201527f776e6572206e6f7220617070726f76656400000000000000000000000000000060648201526084016105f2565b6107ac838383611679565b6107ac838383604051806020016040528060008152506111a2565b7f000000000000000000000000000000000000000000000000000000000000000073ffffffffffffffffffffffffffffffffffffffff1663956236416040518163ffffffff1660e01b8152600401602060405180830381865afa1580156108d8573d6000803e3d6000fd5b505050506040513d601f19601f820116820180604052508101906108fc919061255d565b73ffffffffffffffffffffffffffffffffffffffff163373ffffffffffffffffffffffffffffffffffffffff16146109b6576040517f08c379a000000000000000000000000000000000000000000000000000000000815260206004820152602360248201527f424d5f41434c5f4f4e4c595f424553504f4b525f4d41524b45545f43414e5f4360448201527f414c4c000000000000000000000000000000000000000000000000000000000060648201526084016105f2565b6109bf816118e0565b6040518181527fb90306ad06b2a6ff86ddc9327db583062895ef6540e62dc50add009db5b356eb906020015b60405180910390a150565b610a9b6040805161028081018252600080825260208201819052918101829052606081018290526080810182905260a0810182905260c0810182905260e08101829052610100810182905261012081018290526101408101829052610160810182905261018081018290526101a081018290526101c081018290526101e081018290526102008101829052610220810182905261024081018290529061026082015290565b7f000000000000000000000000000000000000000000000000000000000000000073ffffffffffffffffffffffffffffffffffffffff1663956236416040518163ffffffff1660e01b8152600401602060405180830381865afa158015610b06573d6000803e3d6000fd5b505050506040513d601f19601f82011682018060405250810190610b2a919061255d565b73ffffffffffffffffffffffffffffffffffffffff1663622fe39f836040518263ffffffff1660e01b8152600401610b6491815260200190565b61028060405180830381865afa158015610b82573d6000803e3d6000fd5b505050506040513d601f19601f820116820180604052508101906104ad91906125c9565b60008181526003602052604081205473ffffffffffffffffffffffffffffffffffffffff16806104ad576040517f08c379a000000000000000000000000000000000000000000000000000000000815260206004820152602960248201527f4552433732313a206f776e657220717565727920666f72206e6f6e657869737460448201527f656e7420746f6b656e000000000000000000000000000000000000000000000060648201526084016105f2565b600073ffffffffffffffffffffffffffffffffffffffff8216610cfd576040517f08c379a000000000000000000000000000000000000000000000000000000000815260206004820152602a60248201527f4552433732313a2062616c616e636520717565727920666f7220746865207a6560448201527f726f20616464726573730000000000000000000000000000000000000000000060648201526084016105f2565b5073ffffffffffffffffffffffffffffffffffffffff1660009081526004602052604090205490565b60005473ffffffffffffffffffffffffffffffffffffffff163314610da7576040517f08c379a000000000000000000000000000000000000000000000000000000000815260206004820181905260248201527f4f776e61626c653a2063616c6c6572206973206e6f7420746865206f776e657260448201526064016105f2565b610db160006119ad565b565b60005473ffffffffffffffffffffffffffffffffffffffff163314610e34576040517f08c379a000000000000000000000000000000000000000000000000000000000815260206004820181905260248201527f4f776e61626c653a2063616c6c6572206973206e6f7420746865206f776e657260448201526064016105f2565b73ffffffffffffffffffffffffffffffffffffffff8116610e5457600080fd5b600780547fffffffffffffffffffffffff00000000000000000000000000000000000000001673ffffffffffffffffffffffffffffffffffffffff83161790557fc5c2d52985d8e0e38d9eb84f6886aca79638c04d053ff66a35cbcedc58dfa55d336040805173ffffffffffffffffffffffffffffffffffffffff92831681529184166020830152016109eb565b7f000000000000000000000000000000000000000000000000000000000000000073ffffffffffffffffffffffffffffffffffffffff1663956236416040518163ffffffff1660e01b8152600401602060405180830381865afa158015610f4d573d6000803e3d6000fd5b505050506040513d601f19601f82011682018060405250810190610f71919061255d565b73ffffffffffffffffffffffffffffffffffffffff163373ffffffffffffffffffffffffffffffffffffffff161461102b576040517f08c379a000000000000000000000000000000000000000000000000000000000815260206004820152602360248201527f424d5f41434c5f4f4e4c595f424553504f4b525f4d41524b45545f43414e5f4360448201527f414c4c000000000000000000000000000000000000000000000000000000000060648201526084016105f2565b6110358183611a22565b60405173ffffffffffffffffffffffffffffffffffffffff82169083907ff3cea5493d790af0133817606f7350a91d7f154ea52eaa79d179d4d231e5010290600090a35050565b6060600280546104c2906124fe565b73ffffffffffffffffffffffffffffffffffffffff821633141561110b576040517f08c379a000000000000000000000000000000000000000000000000000000000815260206004820152601960248201527f4552433732313a20617070726f766520746f2063616c6c65720000000000000060448201526064016105f2565b33600081815260066020908152604080832073ffffffffffffffffffffffffffffffffffffffff87168085529083529281902080547fffffffffffffffffffffffffffffffffffffffffffffffffffffffffffffff001686151590811790915590519081529192917f17307eab39ab6107e8899845ad3d59bd9653f200f220920489ca2b5937696c31910160405180910390a35050565b6111ac3383611509565b611238576040517f08c379a000000000000000000000000000000000000000000000000000000000815260206004820152603160248201527f4552433732313a207472616e736665722063616c6c6572206973206e6f74206f60448201527f776e6572206e6f7220617070726f76656400000000000000000000000000000060648201526084016105f2565b61124484848484611a40565b50505050565b60075460609073ffffffffffffffffffffffffffffffffffffffff1615611320576007546040517fc87b56dd0000000000000000000000000000000000000000000000000000000081526004810184905273ffffffffffffffffffffffffffffffffffffffff9091169063c87b56dd90602401600060405180830381865afa1580156112da573d6000803e3d6000fd5b505050506040513d6000823e601f3d9081017fffffffffffffffffffffffffffffffffffffffffffffffffffffffffffffffe01682016040526104ad9190810190612722565b505060408051602081019091526000815290565b919050565b60005473ffffffffffffffffffffffffffffffffffffffff1633146113ba576040517f08c379a000000000000000000000000000000000000000000000000000000000815260206004820181905260248201527f4f776e61626c653a2063616c6c6572206973206e6f7420746865206f776e657260448201526064016105f2565b73ffffffffffffffffffffffffffffffffffffffff811661145d576040517f08c379a000000000000000000000000000000000000000000000000000000000815260206004820152602660248201527f4f776e61626c653a206e6577206f776e657220697320746865207a65726f206160448201527f646472657373000000000000000000000000000000000000000000000000000060648201526084016105f2565b611466816119ad565b50565b600081815260056020526040902080547fffffffffffffffffffffffff00000000000000000000000000000000000000001673ffffffffffffffffffffffffffffffffffffffff841690811790915581906114c382610ba6565b73ffffffffffffffffffffffffffffffffffffffff167f8c5be1e5ebec7d5bd14f71427d1e84f3dd0314c0f7b2291e5b200ac8c7c3b92560405160405180910390a45050565b60008181526003602052604081205473ffffffffffffffffffffffffffffffffffffffff166115ba576040517f08c379a000000000000000000000000000000000000000000000000000000000815260206004820152602c60248201527f4552433732313a206f70657261746f7220717565727920666f72206e6f6e657860448201527f697374656e7420746f6b656e000000000000000000000000000000000000000060648201526084016105f2565b60006115c583610ba6565b90508073ffffffffffffffffffffffffffffffffffffffff168473ffffffffffffffffffffffffffffffffffffffff16148061163457508373ffffffffffffffffffffffffffffffffffffffff1661161c84610545565b73ffffffffffffffffffffffffffffffffffffffff16145b80611671575073ffffffffffffffffffffffffffffffffffffffff80821660009081526006602090815260408083209388168352929052205460ff165b949350505050565b8273ffffffffffffffffffffffffffffffffffffffff1661169982610ba6565b73ffffffffffffffffffffffffffffffffffffffff161461173c576040517f08c379a000000000000000000000000000000000000000000000000000000000815260206004820152602960248201527f4552433732313a207472616e73666572206f6620746f6b656e2074686174206960448201527f73206e6f74206f776e000000000000000000000000000000000000000000000060648201526084016105f2565b73ffffffffffffffffffffffffffffffffffffffff82166117de576040517f08c379a0000000000000000000000000000000000000000000000000000000008152602060048201526024808201527f4552433732313a207472616e7366657220746f20746865207a65726f2061646460448201527f726573730000000000000000000000000000000000000000000000000000000060648201526084016105f2565b6117e9600082611469565b73ffffffffffffffffffffffffffffffffffffffff8316600090815260046020526040812080546001929061181f9084906127c8565b909155505073ffffffffffffffffffffffffffffffffffffffff8216600090815260046020526040812080546001929061185a9084906127df565b909155505060008181526003602052604080822080547fffffffffffffffffffffffff00000000000000000000000000000000000000001673ffffffffffffffffffffffffffffffffffffffff86811691821790925591518493918716917fddf252ad1be2c89b69c2b068fc378daa952ba7f163c4a11628f55a4df523b3ef91a4505050565b60006118eb82610ba6565b90506118f8600083611469565b73ffffffffffffffffffffffffffffffffffffffff8116600090815260046020526040812080546001929061192e9084906127c8565b909155505060008281526003602052604080822080547fffffffffffffffffffffffff00000000000000000000000000000000000000001690555183919073ffffffffffffffffffffffffffffffffffffffff8416907fddf252ad1be2c89b69c2b068fc378daa952ba7f163c4a11628f55a4df523b3ef908390a45050565b6000805473ffffffffffffffffffffffffffffffffffffffff8381167fffffffffffffffffffffffff0000000000000000000000000000000000000000831681178455604051919092169283917f8be0079c531659141344cd1fd0a4f28419497f9722a3daafe3b4186f6b6457e09190a35050565b611a3c828260405180602001604052806000815250611ae3565b5050565b611a4b848484611679565b611a5784848484611b86565b611244576040517f08c379a000000000000000000000000000000000000000000000000000000000815260206004820152603260248201527f4552433732313a207472616e7366657220746f206e6f6e20455243373231526560448201527f63656976657220696d706c656d656e746572000000000000000000000000000060648201526084016105f2565b611aed8383611d76565b611afa6000848484611b86565b6107ac576040517f08c379a000000000000000000000000000000000000000000000000000000000815260206004820152603260248201527f4552433732313a207472616e7366657220746f206e6f6e20455243373231526560448201527f63656976657220696d706c656d656e746572000000000000000000000000000060648201526084016105f2565b600073ffffffffffffffffffffffffffffffffffffffff84163b15611d6b576040517f150b7a0200000000000000000000000000000000000000000000000000000000815273ffffffffffffffffffffffffffffffffffffffff85169063150b7a0290611bfd9033908990889088906004016127f7565b6020604051808303816000875af1925050508015611c56575060408051601f3d9081017fffffffffffffffffffffffffffffffffffffffffffffffffffffffffffffffe0168201909252611c5391810190612840565b60015b611d20573d808015611c84576040519150601f19603f3d011682016040523d82523d6000602084013e611c89565b606091505b508051611d18576040517f08c379a000000000000000000000000000000000000000000000000000000000815260206004820152603260248201527f4552433732313a207472616e7366657220746f206e6f6e20455243373231526560448201527f63656976657220696d706c656d656e746572000000000000000000000000000060648201526084016105f2565b805181602001fd5b7fffffffff00000000000000000000000000000000000000000000000000000000167f150b7a0200000000000000000000000000000000000000000000000000000000149050611671565b506001949350505050565b73ffffffffffffffffffffffffffffffffffffffff8216611df3576040517f08c379a000000000000000000000000000000000000000000000000000000000815260206004820181905260248201527f4552433732313a206d696e7420746f20746865207a65726f206164647265737360448201526064016105f2565b60008181526003602052604090205473ffffffffffffffffffffffffffffffffffffffff1615611e7f576040517f08c379a000000000000000000000000000000000000000000000000000000000815260206004820152601c60248201527f4552433732313a20746f6b656e20616c7265616479206d696e7465640000000060448201526064016105f2565b73ffffffffffffffffffffffffffffffffffffffff82166000908152600460205260408120805460019290611eb59084906127df565b909155505060008181526003602052604080822080547fffffffffffffffffffffffff00000000000000000000000000000000000000001673ffffffffffffffffffffffffffffffffffffffff861690811790915590518392907fddf252ad1be2c89b69c2b068fc378daa952ba7f163c4a11628f55a4df523b3ef908290a45050565b7fffffffff000000000000000000000000000000000000000000000000000000008116811461146657600080fd5b600060208284031215611f7857600080fd5b8135611f8381611f38565b9392505050565b60005b83811015611fa5578181015183820152602001611f8d565b838111156112445750506000910152565b60008151808452611fce816020860160208601611f8a565b601f017fffffffffffffffffffffffffffffffffffffffffffffffffffffffffffffffe0169290920160200192915050565b602081526000611f836020830184611fb6565b60006020828403121561202557600080fd5b5035919050565b73ffffffffffffffffffffffffffffffffffffffff8116811461146657600080fd5b6000806040838503121561206157600080fd5b823561206c8161202c565b946020939093013593505050565b60008060006060848603121561208f57600080fd5b833561209a8161202c565b925060208401356120aa8161202c565b929592945050506040919091013590565b600481106120f2577f4e487b7100000000000000000000000000000000000000000000000000000000600052602160045260246000fd5b9052565b815173ffffffffffffffffffffffffffffffffffffffff168152610280810160208301516020830152604083015160408301526060830151612150606084018273ffffffffffffffffffffffffffffffffffffffff169052565b506080830151612178608084018273ffffffffffffffffffffffffffffffffffffffff169052565b5060a08301516121a060a084018273ffffffffffffffffffffffffffffffffffffffff169052565b5060c083015160c083015260e08301516121ce60e08401826fffffffffffffffffffffffffffffffff169052565b50610100838101516fffffffffffffffffffffffffffffffff16908301526101208084015173ffffffffffffffffffffffffffffffffffffffff908116918401919091526101408085015190911690830152610160808401519083015261018080840151908301526101a08084015164ffffffffff908116918401919091526101c0808501518216908401526101e08085015182169084015261020080850151909116908301526102208084015115159083015261024080840151151590830152610260808401516122a2828501826120bb565b505092915050565b6000602082840312156122bc57600080fd5b8135611f838161202c565b600080604083850312156122da57600080fd5b8235915060208301356122ec8161202c565b809150509250929050565b801515811461146657600080fd5b6000806040838503121561231857600080fd5b82356123238161202c565b915060208301356122ec816122f7565b7f4e487b7100000000000000000000000000000000000000000000000000000000600052604160045260246000fd5b604051610280810167ffffffffffffffff8111828210171561238657612386612333565b60405290565b604051601f82017fffffffffffffffffffffffffffffffffffffffffffffffffffffffffffffffe016810167ffffffffffffffff811182821017156123d3576123d3612333565b604052919050565b600067ffffffffffffffff8211156123f5576123f5612333565b50601f017fffffffffffffffffffffffffffffffffffffffffffffffffffffffffffffffe01660200190565b6000806000806080858703121561243757600080fd5b84356124428161202c565b935060208501356124528161202c565b925060408501359150606085013567ffffffffffffffff81111561247557600080fd5b8501601f8101871361248657600080fd5b8035612499612494826123db565b61238c565b8181528860208385010111156124ae57600080fd5b8160208401602083013760006020838301015280935050505092959194509250565b600080604083850312156124e357600080fd5b82356124ee8161202c565b915060208301356122ec8161202c565b600181811c9082168061251257607f821691505b6020821081141561254c577f4e487b7100000000000000000000000000000000000000000000000000000000600052602260045260246000fd5b50919050565b80516113348161202c565b60006020828403121561256f57600080fd5b8151611f838161202c565b80516fffffffffffffffffffffffffffffffff8116811461133457600080fd5b805164ffffffffff8116811461133457600080fd5b8051611334816122f7565b80516004811061133457600080fd5b600061028082840312156125dc57600080fd5b6125e4612362565b6125ed83612552565b8152602083015160208201526040830151604082015261260f60608401612552565b606082015261262060808401612552565b608082015261263160a08401612552565b60a082015260c083015160c082015261264c60e0840161257a565b60e082015261010061265f81850161257a565b90820152610120612671848201612552565b90820152610140612683848201612552565b90820152610160838101519082015261018080840151908201526101a06126ab81850161259a565b908201526101c06126bd84820161259a565b908201526101e06126cf84820161259a565b908201526102006126e184820161259a565b908201526102206126f38482016125af565b908201526102406127058482016125af565b908201526102606127178482016125ba565b908201529392505050565b60006020828403121561273457600080fd5b815167ffffffffffffffff81111561274b57600080fd5b8201601f8101841361275c57600080fd5b805161276a612494826123db565b81815285602083850101111561277f57600080fd5b612790826020830160208601611f8a565b95945050505050565b7f4e487b7100000000000000000000000000000000000000000000000000000000600052601160045260246000fd5b6000828210156127da576127da612799565b500390565b600082198211156127f2576127f2612799565b500190565b600073ffffffffffffffffffffffffffffffffffffffff8087168352808616602084015250836040830152608060608301526128366080830184611fb6565b9695505050505050565b60006020828403121561285257600080fd5b8151611f8381611f3856fea2646970667358221220cf77fab5d59ceced54696780703ee357c7cd2e412ddcf56e0f0ae6bb78d5005064736f6c634300080a0033",
  "libraries": {},
  "devdoc": {
    "author": "OpenSky Labs",
    "kind": "dev",
    "methods": {
      "approve(address,uint256)": {
        "details": "See {IERC721-approve}."
      },
      "balanceOf(address)": {
        "details": "See {IERC721-balanceOf}."
      },
      "getApproved(uint256)": {
        "details": "See {IERC721-getApproved}."
      },
      "isApprovedForAll(address,address)": {
        "details": "See {IERC721-isApprovedForAll}."
      },
      "name()": {
        "details": "See {IERC721Metadata-name}."
      },
      "owner()": {
        "details": "Returns the address of the current owner."
      },
      "ownerOf(uint256)": {
        "details": "See {IERC721-ownerOf}."
      },
      "renounceOwnership()": {
        "details": "Leaves the contract without owner. It will not be possible to call `onlyOwner` functions anymore. Can only be called by the current owner. NOTE: Renouncing ownership will leave the contract without an owner, thereby removing any functionality that is only available to the owner."
      },
      "safeTransferFrom(address,address,uint256)": {
        "details": "See {IERC721-safeTransferFrom}."
      },
      "safeTransferFrom(address,address,uint256,bytes)": {
        "details": "See {IERC721-safeTransferFrom}."
      },
      "setApprovalForAll(address,bool)": {
        "details": "See {IERC721-setApprovalForAll}."
      },
      "supportsInterface(bytes4)": {
        "details": "See {IERC165-supportsInterface}."
      },
      "symbol()": {
        "details": "See {IERC721Metadata-symbol}."
      },
      "tokenURI(uint256)": {
        "details": "See {IERC721Metadata-tokenURI}."
      },
      "transferFrom(address,address,uint256)": {
        "details": "See {IERC721-transferFrom}."
      },
      "transferOwnership(address)": {
        "details": "Transfers ownership of the contract to a new account (`newOwner`). Can only be called by the current owner."
      }
    },
    "title": "OpenSkyBespokeLoanNFT contract",
    "version": 1
  },
  "userdoc": {
    "kind": "user",
    "methods": {},
    "notice": "When a loan created, both lender and borrower will receive an NFT as receipt which represents the corresponding rights and interest*",
    "version": 1
  },
  "storageLayout": {
    "storage": [
      {
        "astId": 387,
        "contract": "contracts/bespokemarket/OpenSkyBespokeLoanNFT.sol:OpenSkyBespokeLoanNFT",
        "label": "_owner",
        "offset": 0,
        "slot": "0",
        "type": "t_address"
      },
      {
        "astId": 4564,
        "contract": "contracts/bespokemarket/OpenSkyBespokeLoanNFT.sol:OpenSkyBespokeLoanNFT",
        "label": "_name",
        "offset": 0,
        "slot": "1",
        "type": "t_string_storage"
      },
      {
        "astId": 4566,
        "contract": "contracts/bespokemarket/OpenSkyBespokeLoanNFT.sol:OpenSkyBespokeLoanNFT",
        "label": "_symbol",
        "offset": 0,
        "slot": "2",
        "type": "t_string_storage"
      },
      {
        "astId": 4570,
        "contract": "contracts/bespokemarket/OpenSkyBespokeLoanNFT.sol:OpenSkyBespokeLoanNFT",
        "label": "_owners",
        "offset": 0,
        "slot": "3",
        "type": "t_mapping(t_uint256,t_address)"
      },
      {
        "astId": 4574,
        "contract": "contracts/bespokemarket/OpenSkyBespokeLoanNFT.sol:OpenSkyBespokeLoanNFT",
        "label": "_balances",
        "offset": 0,
        "slot": "4",
        "type": "t_mapping(t_address,t_uint256)"
      },
      {
        "astId": 4578,
        "contract": "contracts/bespokemarket/OpenSkyBespokeLoanNFT.sol:OpenSkyBespokeLoanNFT",
        "label": "_tokenApprovals",
        "offset": 0,
        "slot": "5",
        "type": "t_mapping(t_uint256,t_address)"
      },
      {
        "astId": 4584,
        "contract": "contracts/bespokemarket/OpenSkyBespokeLoanNFT.sol:OpenSkyBespokeLoanNFT",
        "label": "_operatorApprovals",
        "offset": 0,
        "slot": "6",
        "type": "t_mapping(t_address,t_mapping(t_address,t_bool))"
      },
      {
        "astId": 12572,
        "contract": "contracts/bespokemarket/OpenSkyBespokeLoanNFT.sol:OpenSkyBespokeLoanNFT",
        "label": "loanDescriptorAddress",
        "offset": 0,
        "slot": "7",
        "type": "t_address"
      }
    ],
    "types": {
      "t_address": {
        "encoding": "inplace",
        "label": "address",
        "numberOfBytes": "20"
      },
      "t_bool": {
        "encoding": "inplace",
        "label": "bool",
        "numberOfBytes": "1"
      },
      "t_mapping(t_address,t_bool)": {
        "encoding": "mapping",
        "key": "t_address",
        "label": "mapping(address => bool)",
        "numberOfBytes": "32",
        "value": "t_bool"
      },
      "t_mapping(t_address,t_mapping(t_address,t_bool))": {
        "encoding": "mapping",
        "key": "t_address",
        "label": "mapping(address => mapping(address => bool))",
        "numberOfBytes": "32",
        "value": "t_mapping(t_address,t_bool)"
      },
      "t_mapping(t_address,t_uint256)": {
        "encoding": "mapping",
        "key": "t_address",
        "label": "mapping(address => uint256)",
        "numberOfBytes": "32",
        "value": "t_uint256"
      },
      "t_mapping(t_uint256,t_address)": {
        "encoding": "mapping",
        "key": "t_uint256",
        "label": "mapping(uint256 => address)",
        "numberOfBytes": "32",
        "value": "t_address"
      },
      "t_string_storage": {
        "encoding": "bytes",
        "label": "string",
        "numberOfBytes": "32"
      },
      "t_uint256": {
        "encoding": "inplace",
        "label": "uint256",
        "numberOfBytes": "32"
      }
    }
  }
}