{
  "address": "0x303099D3A997451b6afD5dE90CF5eBEF0bA429C3",
  "abi": [
    {
      "inputs": [
        {
          "components": [
            {
              "internalType": "bool",
              "name": "isProrated",
              "type": "bool"
            },
            {
              "internalType": "bool",
              "name": "autoConvertWhenRepay",
              "type": "bool"
            },
            {
              "internalType": "enum BespokeTypes.OfferType",
              "name": "offerType",
              "type": "uint8"
            },
            {
              "internalType": "address",
              "name": "tokenAddress",
              "type": "address"
            },
            {
              "internalType": "uint256",
              "name": "tokenId",
              "type": "uint256"
            },
            {
              "internalType": "uint256",
              "name": "tokenAmount",
              "type": "uint256"
            },
            {
              "internalType": "address",
              "name": "signer",
              "type": "address"
            },
            {
              "internalType": "uint256",
              "name": "borrowAmountMin",
              "type": "uint256"
            },
            {
              "internalType": "uint256",
              "name": "borrowAmountMax",
              "type": "uint256"
            },
            {
              "internalType": "uint40",
              "name": "borrowDurationMin",
              "type": "uint40"
            },
            {
              "internalType": "uint40",
              "name": "borrowDurationMax",
              "type": "uint40"
            },
            {
              "internalType": "uint128",
              "name": "borrowRate",
              "type": "uint128"
            },
            {
              "internalType": "address",
              "name": "currency",
              "type": "address"
            },
            {
              "internalType": "address",
              "name": "lendAsset",
              "type": "address"
            },
            {
              "internalType": "uint256",
              "name": "nonce",
              "type": "uint256"
            },
            {
              "internalType": "uint256",
              "name": "nonceMaxTimes",
              "type": "uint256"
            },
            {
              "internalType": "uint256",
              "name": "deadline",
              "type": "uint256"
            },
            {
              "internalType": "address",
              "name": "strategy",
              "type": "address"
            },
            {
              "internalType": "bytes",
              "name": "params",
              "type": "bytes"
            },
            {
              "internalType": "uint8",
              "name": "v",
              "type": "uint8"
            },
            {
              "internalType": "bytes32",
              "name": "r",
              "type": "bytes32"
            },
            {
              "internalType": "bytes32",
              "name": "s",
              "type": "bytes32"
            }
          ],
          "internalType": "struct BespokeTypes.Offer",
          "name": "offerData",
          "type": "tuple"
        },
        {
          "components": [
            {
              "internalType": "address",
              "name": "taker",
              "type": "address"
            },
            {
              "internalType": "uint256",
              "name": "tokenId",
              "type": "uint256"
            },
            {
              "internalType": "bytes",
              "name": "params",
              "type": "bytes"
            }
          ],
          "internalType": "struct BespokeTypes.TakeLendInfoForStrategy",
          "name": "takeInfo",
          "type": "tuple"
        }
      ],
      "name": "validate",
      "outputs": [],
      "stateMutability": "view",
      "type": "function"
    }
  ],
  "transactionHash": "0x1224dc253cf349db5c32505a1fbe1aaa7259cc31237a13dc6b599599ffc523a2",
  "args": [],
  "solcInputHash": "7115e83fb639f0ac8332020e2b911896",
  "bytecode": "0x608060405234801561001057600080fd5b50610568806100206000396000f3fe608060405234801561001057600080fd5b506004361061002b5760003560e01c8063169b8d6714610030575b600080fd5b61004361003e366004610366565b610045565b005b816101e001516001146100df576040517f08c379a000000000000000000000000000000000000000000000000000000000815260206004820152602b60248201527f424d5f53545241544547595f544f4b454e5f49445f4e4f4e43455f4d4158544960448201527f4d45535f494e56414c494400000000000000000000000000000000000000000060648201526084015b60405180910390fd5b8060200151826080015114610150576040517f08c379a000000000000000000000000000000000000000000000000000000000815260206004820152601e60248201527f424d5f53545241544547595f544f4b454e5f49445f4e4f545f4d41544348000060448201526064016100d6565b5050565b7f4e487b7100000000000000000000000000000000000000000000000000000000600052604160045260246000fd5b6040516102c0810167ffffffffffffffff811182821017156101a7576101a7610154565b60405290565b803580151581146101bd57600080fd5b919050565b8035600281106101bd57600080fd5b803573ffffffffffffffffffffffffffffffffffffffff811681146101bd57600080fd5b803564ffffffffff811681146101bd57600080fd5b80356fffffffffffffffffffffffffffffffff811681146101bd57600080fd5b600082601f83011261023b57600080fd5b813567ffffffffffffffff8082111561025657610256610154565b604051601f83017fffffffffffffffffffffffffffffffffffffffffffffffffffffffffffffffe0908116603f0116810190828211818310171561029c5761029c610154565b816040528381528660208588010111156102b557600080fd5b836020870160208301376000602085830101528094505050505092915050565b803560ff811681146101bd57600080fd5b6000606082840312156102f857600080fd5b6040516060810167ffffffffffffffff828210818311171561031c5761031c610154565b8160405282935061032c856101d1565b835260208501356020840152604085013591508082111561034c57600080fd5b506103598582860161022a565b6040830152505092915050565b6000806040838503121561037957600080fd5b823567ffffffffffffffff8082111561039157600080fd5b908401906102c082870312156103a657600080fd5b6103ae610183565b6103b7836101ad565b81526103c5602084016101ad565b60208201526103d6604084016101c2565b60408201526103e7606084016101d1565b60608201526080830135608082015260a083013560a082015261040c60c084016101d1565b60c082015260e083013560e08201526101008084013581830152506101206104358185016101f5565b908201526101406104478482016101f5565b9082015261016061045984820161020a565b9082015261018061046b8482016101d1565b908201526101a061047d8482016101d1565b908201526101c083810135908201526101e0808401359082015261020080840135908201526102206104b08185016101d1565b9082015261024083810135838111156104c857600080fd5b6104d48982870161022a565b8284015250506102606104e88185016102d5565b9082015261028083810135908201526102a092830135928101929092529092506020840135908082111561051b57600080fd5b50610528858286016102e6565b915050925092905056fea2646970667358221220035a5b7e0995d325fc9ec8065cc62deeb858b5ec79022de653ccbe51d205aeef64736f6c634300080a0033",
  "libraries": {
    "BespokeTypes": "0xEDB6d57F6645bAce2E2DD77CCc6937FF8B2d3a86"
  },
  "devdoc": {
    "kind": "dev",
    "methods": {},
    "version": 1
  },
  "userdoc": {
    "kind": "user",
    "methods": {},
    "version": 1
  },
  "storageLayout": {
    "storage": [],
    "types": null
  }
}