{
  "address": "0x85f263E8066457b2e9F43B2Ca82f73D364fF140B",
  "abi": [
    {
      "inputs": [
        {
          "internalType": "address",
          "name": "settingsAddress_",
          "type": "address"
        },
        {
          "internalType": "address",
          "name": "bespokeSettings_",
          "type": "address"
        }
      ],
      "stateMutability": "nonpayable",
      "type": "constructor"
    },
    {
      "anonymous": false,
      "inputs": [
        {
          "indexed": true,
          "internalType": "address",
          "name": "previousOwner",
          "type": "address"
        },
        {
          "indexed": true,
          "internalType": "address",
          "name": "newOwner",
          "type": "address"
        }
      ],
      "name": "OwnershipTransferred",
      "type": "event"
    },
    {
      "anonymous": false,
      "inputs": [
        {
          "indexed": false,
          "internalType": "address",
          "name": "oToken",
          "type": "address"
        },
        {
          "indexed": false,
          "internalType": "uint256",
          "name": "reserveId",
          "type": "uint256"
        }
      ],
      "name": "SetOTokenToReserveIdMap",
      "type": "event"
    },
    {
      "anonymous": false,
      "inputs": [
        {
          "indexed": false,
          "internalType": "address",
          "name": "oToken",
          "type": "address"
        }
      ],
      "name": "UnsetOTokenToReserveIdMap",
      "type": "event"
    },
    {
      "inputs": [],
      "name": "BESPOKE_SETTINGS",
      "outputs": [
        {
          "internalType": "contract IOpenSkyBespokeSettings",
          "name": "",
          "type": "address"
        }
      ],
      "stateMutability": "view",
      "type": "function"
    },
    {
      "inputs": [],
      "name": "SETTINGS",
      "outputs": [
        {
          "internalType": "contract IOpenSkySettings",
          "name": "",
          "type": "address"
        }
      ],
      "stateMutability": "view",
      "type": "function"
    },
    {
      "inputs": [
        {
          "internalType": "address",
          "name": "",
          "type": "address"
        }
      ],
      "name": "getReserveId",
      "outputs": [
        {
          "internalType": "uint256",
          "name": "",
          "type": "uint256"
        }
      ],
      "stateMutability": "view",
      "type": "function"
    },
    {
      "inputs": [],
      "name": "owner",
      "outputs": [
        {
          "internalType": "address",
          "name": "",
          "type": "address"
        }
      ],
      "stateMutability": "view",
      "type": "function"
    },
    {
      "inputs": [],
      "name": "renounceOwnership",
      "outputs": [],
      "stateMutability": "nonpayable",
      "type": "function"
    },
    {
      "inputs": [
        {
          "internalType": "address",
          "name": "oToken",
          "type": "address"
        },
        {
          "internalType": "uint256",
          "name": "reserveId",
          "type": "uint256"
        }
      ],
      "name": "setOTokenToReserveIdMap",
      "outputs": [],
      "stateMutability": "nonpayable",
      "type": "function"
    },
    {
      "inputs": [
        {
          "internalType": "address",
          "name": "asset",
          "type": "address"
        },
        {
          "internalType": "address",
          "name": "from",
          "type": "address"
        },
        {
          "internalType": "address",
          "name": "to",
          "type": "address"
        },
        {
          "internalType": "uint256",
          "name": "amount",
          "type": "uint256"
        },
        {
          "components": [
            {
              "internalType": "bool",
              "name": "isProrated",
              "type": "bool"
            },
            {
              "internalType": "bool",
              "name": "autoConvertWhenRepay",
              "type": "bool"
            },
            {
              "internalType": "enum BespokeTypes.OfferType",
              "name": "offerType",
              "type": "uint8"
            },
            {
              "internalType": "address",
              "name": "tokenAddress",
              "type": "address"
            },
            {
              "internalType": "uint256",
              "name": "tokenId",
              "type": "uint256"
            },
            {
              "internalType": "uint256",
              "name": "tokenAmount",
              "type": "uint256"
            },
            {
              "internalType": "address",
              "name": "signer",
              "type": "address"
            },
            {
              "internalType": "uint256",
              "name": "borrowAmountMin",
              "type": "uint256"
            },
            {
              "internalType": "uint256",
              "name": "borrowAmountMax",
              "type": "uint256"
            },
            {
              "internalType": "uint40",
              "name": "borrowDurationMin",
              "type": "uint40"
            },
            {
              "internalType": "uint40",
              "name": "borrowDurationMax",
              "type": "uint40"
            },
            {
              "internalType": "uint128",
              "name": "borrowRate",
              "type": "uint128"
            },
            {
              "internalType": "address",
              "name": "currency",
              "type": "address"
            },
            {
              "internalType": "address",
              "name": "lendAsset",
              "type": "address"
            },
            {
              "internalType": "uint256",
              "name": "nonce",
              "type": "uint256"
            },
            {
              "internalType": "uint256",
              "name": "nonceMaxTimes",
              "type": "uint256"
            },
            {
              "internalType": "uint256",
              "name": "deadline",
              "type": "uint256"
            },
            {
              "internalType": "address",
              "name": "strategy",
              "type": "address"
            },
            {
              "internalType": "bytes",
              "name": "params",
              "type": "bytes"
            },
            {
              "internalType": "uint8",
              "name": "v",
              "type": "uint8"
            },
            {
              "internalType": "bytes32",
              "name": "r",
              "type": "bytes32"
            },
            {
              "internalType": "bytes32",
              "name": "s",
              "type": "bytes32"
            }
          ],
          "internalType": "struct BespokeTypes.Offer",
          "name": "offerData",
          "type": "tuple"
        }
      ],
      "name": "transferOnLend",
      "outputs": [],
      "stateMutability": "nonpayable",
      "type": "function"
    },
    {
      "inputs": [
        {
          "internalType": "address",
          "name": "asset",
          "type": "address"
        },
        {
          "internalType": "address",
          "name": "from",
          "type": "address"
        },
        {
          "internalType": "address",
          "name": "to",
          "type": "address"
        },
        {
          "internalType": "uint256",
          "name": "amount",
          "type": "uint256"
        },
        {
          "components": [
            {
              "internalType": "address",
              "name": "tokenAddress",
              "type": "address"
            },
            {
              "internalType": "uint256",
              "name": "tokenId",
              "type": "uint256"
            },
            {
              "internalType": "uint256",
              "name": "tokenAmount",
              "type": "uint256"
            },
            {
              "internalType": "address",
              "name": "nftManager",
              "type": "address"
            },
            {
              "internalType": "address",
              "name": "borrower",
              "type": "address"
            },
            {
              "internalType": "address",
              "name": "lender",
              "type": "address"
            },
            {
              "internalType": "uint256",
              "name": "amount",
              "type": "uint256"
            },
            {
              "internalType": "uint128",
              "name": "borrowRate",
              "type": "uint128"
            },
            {
              "internalType": "uint128",
              "name": "interestPerSecond",
              "type": "uint128"
            },
            {
              "internalType": "address",
              "name": "currency",
              "type": "address"
            },
            {
              "internalType": "address",
              "name": "lendAsset",
              "type": "address"
            },
            {
              "internalType": "uint256",
              "name": "reserveFactor",
              "type": "uint256"
            },
            {
              "internalType": "uint256",
              "name": "overdueLoanFeeFactor",
              "type": "uint256"
            },
            {
              "internalType": "uint40",
              "name": "borrowDuration",
              "type": "uint40"
            },
            {
              "internalType": "uint40",
              "name": "borrowBegin",
              "type": "uint40"
            },
            {
              "internalType": "uint40",
              "name": "borrowOverdueTime",
              "type": "uint40"
            },
            {
              "internalType": "uint40",
              "name": "liquidatableTime",
              "type": "uint40"
            },
            {
              "internalType": "bool",
              "name": "isProrated",
              "type": "bool"
            },
            {
              "internalType": "bool",
              "name": "autoConvertWhenRepay",
              "type": "bool"
            },
            {
              "internalType": "enum BespokeTypes.LoanStatus",
              "name": "status",
              "type": "uint8"
            }
          ],
          "internalType": "struct BespokeTypes.LoanData",
          "name": "loanData",
          "type": "tuple"
        }
      ],
      "name": "transferOnRepay",
      "outputs": [],
      "stateMutability": "nonpayable",
      "type": "function"
    },
    {
      "inputs": [
        {
          "internalType": "address",
          "name": "newOwner",
          "type": "address"
        }
      ],
      "name": "transferOwnership",
      "outputs": [],
      "stateMutability": "nonpayable",
      "type": "function"
    },
    {
      "inputs": [
        {
          "internalType": "address",
          "name": "oToken",
          "type": "address"
        }
      ],
      "name": "unsetOTokenToReserveIdMap",
      "outputs": [],
      "stateMutability": "nonpayable",
      "type": "function"
    }
  ],
  "transactionHash": "0x85df7bdc2b844f93ed909a017907ad136773c43a9bdacea39f81f718362caf3f",
  "args": [
    "0x72A780B33915D6D229E7b31A729AE42963A57c73",
    "0xC6580330a5108ebb67eE9E8a2b800cadf0940e40"
  ],
  "solcInputHash": "7115e83fb639f0ac8332020e2b911896",
  "bytecode": "0x60c06040523480156200001157600080fd5b5060405162002677380380620026778339810160408190526200003491620000c4565b6200003f3362000057565b6001600160a01b039182166080521660a052620000fc565b600080546001600160a01b038381166001600160a01b0319831681178455604051919092169283917f8be0079c531659141344cd1fd0a4f28419497f9722a3daafe3b4186f6b6457e09190a35050565b80516001600160a01b0381168114620000bf57600080fd5b919050565b60008060408385031215620000d857600080fd5b620000e383620000a7565b9150620000f360208401620000a7565b90509250929050565b60805160a0516125166200016160003960008181610123015281816101f20152610a190152600081816101bb015281816104b501528181610797015281816108bd01528181610cd701528181610fff01528181611252015261141501526125166000f3fe608060405234801561001057600080fd5b50600436106100be5760003560e01c80635727e126116100765780638da5cb5b1161005b5780638da5cb5b14610198578063ade97ab5146101b6578063f2fde38b146101dd57600080fd5b80635727e1261461017d578063715018a61461019057600080fd5b80631f1017d5116100a75780631f1017d51461010b57806329c55f061461011e57806354e2c5471461016a57600080fd5b806307e32860146100c3578063106e9a4b146100d8575b600080fd5b6100d66100d1366004611e16565b6101f0565b005b6100f86100e6366004611ffd565b60016020526000908152604090205481565b6040519081526020015b60405180910390f35b6100d66101193660046120e5565b610a17565b6101457f000000000000000000000000000000000000000000000000000000000000000081565b60405173ffffffffffffffffffffffffffffffffffffffff9091168152602001610102565b6100d66101783660046122d3565b61137b565b6100d661018b366004611ffd565b61162a565b6100d661170a565b60005473ffffffffffffffffffffffffffffffffffffffff16610145565b6101457f000000000000000000000000000000000000000000000000000000000000000081565b6100d66101eb366004611ffd565b611797565b7f000000000000000000000000000000000000000000000000000000000000000073ffffffffffffffffffffffffffffffffffffffff1663956236416040518163ffffffff1660e01b8152600401602060405180830381865afa15801561025b573d6000803e3d6000fd5b505050506040513d601f19601f8201168201806040525081019061027f919061230a565b73ffffffffffffffffffffffffffffffffffffffff163373ffffffffffffffffffffffffffffffffffffffff161461033e576040517f08c379a000000000000000000000000000000000000000000000000000000000815260206004820152602360248201527f424d5f41434c5f4f4e4c595f424553504f4b525f4d41524b45545f43414e5f4360448201527f414c4c000000000000000000000000000000000000000000000000000000000060648201526084015b60405180910390fd5b8473ffffffffffffffffffffffffffffffffffffffff1681610140015173ffffffffffffffffffffffffffffffffffffffff16146103fe576040517f08c379a000000000000000000000000000000000000000000000000000000000815260206004820152602a60248201527f424d5f5452414e534645525f414441505445525f4f544f4b454e5f415353455460448201527f5f4e4f545f4d41544348000000000000000000000000000000000000000000006064820152608401610335565b73ffffffffffffffffffffffffffffffffffffffff8516600090815260016020526040902054806104b1576040517f08c379a000000000000000000000000000000000000000000000000000000000815260206004820152603360248201527f424d5f5452414e534645525f414441505445525f4f544f4b454e5f524553455260448201527f564549445f4e4f545f434f4e46494755524544000000000000000000000000006064820152608401610335565b60007f000000000000000000000000000000000000000000000000000000000000000073ffffffffffffffffffffffffffffffffffffffff16631755ff216040518163ffffffff1660e01b8152600401602060405180830381865afa15801561051e573d6000803e3d6000fd5b505050506040513d601f19601f82011682018060405250810190610542919061230a565b73ffffffffffffffffffffffffffffffffffffffff166391541e05836040518263ffffffff1660e01b815260040161057c91815260200190565b61018060405180830381865afa15801561059a573d6000803e3d6000fd5b505050506040513d601f19601f820116820180604052508101906105be9190612348565b9050806040015173ffffffffffffffffffffffffffffffffffffffff168773ffffffffffffffffffffffffffffffffffffffff161461067f576040517f08c379a000000000000000000000000000000000000000000000000000000000815260206004820152602a60248201527f424d5f5452414e534645525f414441505445525f4f544f4b454e5f415353455460448201527f5f4e4f545f4d41544348000000000000000000000000000000000000000000006064820152608401610335565b806020015173ffffffffffffffffffffffffffffffffffffffff1683610120015173ffffffffffffffffffffffffffffffffffffffff1614610743576040517f08c379a000000000000000000000000000000000000000000000000000000000815260206004820152602f60248201527f424d5f5452414e534645525f414441505445525f4f544f4b454e5f554e44455260448201527f4c59494e475f4e4f545f4d4154434800000000000000000000000000000000006064820152608401610335565b826102400151156109e75760208101516107759073ffffffffffffffffffffffffffffffffffffffff168730876118c7565b806020015173ffffffffffffffffffffffffffffffffffffffff1663095ea7b37f000000000000000000000000000000000000000000000000000000000000000073ffffffffffffffffffffffffffffffffffffffff16631755ff216040518163ffffffff1660e01b8152600401602060405180830381865afa158015610800573d6000803e3d6000fd5b505050506040513d601f19601f82011682018060405250810190610824919061230a565b6040517fffffffff0000000000000000000000000000000000000000000000000000000060e084901b16815273ffffffffffffffffffffffffffffffffffffffff9091166004820152602481018790526044016020604051808303816000875af1158015610896573d6000803e3d6000fd5b505050506040513d601f19601f820116820180604052508101906108ba9190612411565b507f000000000000000000000000000000000000000000000000000000000000000073ffffffffffffffffffffffffffffffffffffffff16631755ff216040518163ffffffff1660e01b8152600401602060405180830381865afa158015610926573d6000803e3d6000fd5b505050506040513d601f19601f8201168201806040525081019061094a919061230a565b6040517fe78f0949000000000000000000000000000000000000000000000000000000008152600481018490526024810186905273ffffffffffffffffffffffffffffffffffffffff878116604483015260006064830152919091169063e78f094990608401600060405180830381600087803b1580156109ca57600080fd5b505af11580156109de573d6000803e3d6000fd5b50505050610a0e565b6020810151610a0e9073ffffffffffffffffffffffffffffffffffffffff168787876118c7565b50505050505050565b7f000000000000000000000000000000000000000000000000000000000000000073ffffffffffffffffffffffffffffffffffffffff1663956236416040518163ffffffff1660e01b8152600401602060405180830381865afa158015610a82573d6000803e3d6000fd5b505050506040513d601f19601f82011682018060405250810190610aa6919061230a565b73ffffffffffffffffffffffffffffffffffffffff163373ffffffffffffffffffffffffffffffffffffffff1614610b60576040517f08c379a000000000000000000000000000000000000000000000000000000000815260206004820152602360248201527f424d5f41434c5f4f4e4c595f424553504f4b525f4d41524b45545f43414e5f4360448201527f414c4c00000000000000000000000000000000000000000000000000000000006064820152608401610335565b8473ffffffffffffffffffffffffffffffffffffffff16816101a0015173ffffffffffffffffffffffffffffffffffffffff1614610c20576040517f08c379a000000000000000000000000000000000000000000000000000000000815260206004820152602a60248201527f424d5f5452414e534645525f414441505445525f4f544f4b454e5f415353455460448201527f5f4e4f545f4d41544348000000000000000000000000000000000000000000006064820152608401610335565b73ffffffffffffffffffffffffffffffffffffffff851660009081526001602052604090205480610cd3576040517f08c379a000000000000000000000000000000000000000000000000000000000815260206004820152603360248201527f424d5f5452414e534645525f414441505445525f4f544f4b454e5f524553455260448201527f564549445f4e4f545f434f4e46494755524544000000000000000000000000006064820152608401610335565b60007f000000000000000000000000000000000000000000000000000000000000000073ffffffffffffffffffffffffffffffffffffffff16631755ff216040518163ffffffff1660e01b8152600401602060405180830381865afa158015610d40573d6000803e3d6000fd5b505050506040513d601f19601f82011682018060405250810190610d64919061230a565b73ffffffffffffffffffffffffffffffffffffffff166391541e05836040518263ffffffff1660e01b8152600401610d9e91815260200190565b61018060405180830381865afa158015610dbc573d6000803e3d6000fd5b505050506040513d601f19601f82011682018060405250810190610de09190612348565b9050806040015173ffffffffffffffffffffffffffffffffffffffff168773ffffffffffffffffffffffffffffffffffffffff1614610ea1576040517f08c379a000000000000000000000000000000000000000000000000000000000815260206004820152603160248201527f424d5f5452414e534645525f414441505445525f4f544f4b454e5f4f544f4b4560448201527f4e5f41535345545f4e4f545f4d415443480000000000000000000000000000006064820152608401610335565b806020015173ffffffffffffffffffffffffffffffffffffffff1683610180015173ffffffffffffffffffffffffffffffffffffffff1614610f65576040517f08c379a000000000000000000000000000000000000000000000000000000000815260206004820152602f60248201527f424d5f5452414e534645525f414441505445525f4f544f4b454e5f554e44455260448201527f4c59494e475f4e4f545f4d4154434800000000000000000000000000000000006064820152608401610335565b6040517f70a0823100000000000000000000000000000000000000000000000000000000815273ffffffffffffffffffffffffffffffffffffffff8781166004830152600091908916906370a0823190602401602060405180830381865afa158015610fd5573d6000803e3d6000fd5b505050506040513d601f19601f82011682018060405250810190610ff9919061242e565b905060007f000000000000000000000000000000000000000000000000000000000000000073ffffffffffffffffffffffffffffffffffffffff16631755ff216040518163ffffffff1660e01b8152600401602060405180830381865afa158015611068573d6000803e3d6000fd5b505050506040513d601f19601f8201168201806040525081019061108c919061230a565b73ffffffffffffffffffffffffffffffffffffffff16630aad628b856040518263ffffffff1660e01b81526004016110c691815260200190565b602060405180830381865afa1580156110e3573d6000803e3d6000fd5b505050506040513d601f19601f82011682018060405250810190611107919061242e565b905085821015611199576040517f08c379a000000000000000000000000000000000000000000000000000000000815260206004820152602560248201527f424d5f5452414e534645525f414441505445525f4f544f4b454e5f4e4f545f4560448201527f4e4f5547480000000000000000000000000000000000000000000000000000006064820152608401610335565b85811015611229576040517f08c379a000000000000000000000000000000000000000000000000000000000815260206004820152603460248201527f424d5f5452414e534645525f414441505445525f4f544f4b454e5f504f4f4c5f60448201527f4c49515549444954595f4e4f545f454e4f5547480000000000000000000000006064820152608401610335565b60408301516112509073ffffffffffffffffffffffffffffffffffffffff168930896118c7565b7f000000000000000000000000000000000000000000000000000000000000000073ffffffffffffffffffffffffffffffffffffffff16631755ff216040518163ffffffff1660e01b8152600401602060405180830381865afa1580156112bb573d6000803e3d6000fd5b505050506040513d601f19601f820116820180604052508101906112df919061230a565b6040517f0ad58d2f000000000000000000000000000000000000000000000000000000008152600481018690526024810188905273ffffffffffffffffffffffffffffffffffffffff89811660448301529190911690630ad58d2f90606401600060405180830381600087803b15801561135857600080fd5b505af115801561136c573d6000803e3d6000fd5b50505050505050505050505050565b60005473ffffffffffffffffffffffffffffffffffffffff1633146113fc576040517f08c379a000000000000000000000000000000000000000000000000000000000815260206004820181905260248201527f4f776e61626c653a2063616c6c6572206973206e6f7420746865206f776e65726044820152606401610335565b8173ffffffffffffffffffffffffffffffffffffffff167f000000000000000000000000000000000000000000000000000000000000000073ffffffffffffffffffffffffffffffffffffffff16631755ff216040518163ffffffff1660e01b8152600401602060405180830381865afa15801561147e573d6000803e3d6000fd5b505050506040513d601f19601f820116820180604052508101906114a2919061230a565b73ffffffffffffffffffffffffffffffffffffffff166391541e05836040518263ffffffff1660e01b81526004016114dc91815260200190565b61018060405180830381865afa1580156114fa573d6000803e3d6000fd5b505050506040513d601f19601f8201168201806040525081019061151e9190612348565b6040015173ffffffffffffffffffffffffffffffffffffffff16146115c5576040517f08c379a000000000000000000000000000000000000000000000000000000000815260206004820152603060248201527f424d5f5452414e534645525f414441505445525f4f544f4b454e5f5345545f5260448201527f4553455256455f4e4f545f4d41544348000000000000000000000000000000006064820152608401610335565b73ffffffffffffffffffffffffffffffffffffffff8216600081815260016020908152604091829020849055815192835282018390527f8d5eecec80658b06a2f65d86d34362853c3a58264d3a69e6eb36c997968c93fe910160405180910390a15050565b60005473ffffffffffffffffffffffffffffffffffffffff1633146116ab576040517f08c379a000000000000000000000000000000000000000000000000000000000815260206004820181905260248201527f4f776e61626c653a2063616c6c6572206973206e6f7420746865206f776e65726044820152606401610335565b73ffffffffffffffffffffffffffffffffffffffff811660008181526001602090815260408083209290925590519182527f4a4f0e3e9caf4b67af9345ebce2679c54dca554135c8d26240d3692b2f688bab910160405180910390a150565b60005473ffffffffffffffffffffffffffffffffffffffff16331461178b576040517f08c379a000000000000000000000000000000000000000000000000000000000815260206004820181905260248201527f4f776e61626c653a2063616c6c6572206973206e6f7420746865206f776e65726044820152606401610335565b6117956000611962565b565b60005473ffffffffffffffffffffffffffffffffffffffff163314611818576040517f08c379a000000000000000000000000000000000000000000000000000000000815260206004820181905260248201527f4f776e61626c653a2063616c6c6572206973206e6f7420746865206f776e65726044820152606401610335565b73ffffffffffffffffffffffffffffffffffffffff81166118bb576040517f08c379a000000000000000000000000000000000000000000000000000000000815260206004820152602660248201527f4f776e61626c653a206e6577206f776e657220697320746865207a65726f206160448201527f64647265737300000000000000000000000000000000000000000000000000006064820152608401610335565b6118c481611962565b50565b6040805173ffffffffffffffffffffffffffffffffffffffff85811660248301528416604482015260648082018490528251808303909101815260849091019091526020810180517bffffffffffffffffffffffffffffffffffffffffffffffffffffffff167f23b872dd0000000000000000000000000000000000000000000000000000000017905261195c9085906119d7565b50505050565b6000805473ffffffffffffffffffffffffffffffffffffffff8381167fffffffffffffffffffffffff0000000000000000000000000000000000000000831681178455604051919092169283917f8be0079c531659141344cd1fd0a4f28419497f9722a3daafe3b4186f6b6457e09190a35050565b6000611a39826040518060400160405280602081526020017f5361666545524332303a206c6f772d6c6576656c2063616c6c206661696c65648152508573ffffffffffffffffffffffffffffffffffffffff16611ae89092919063ffffffff16565b805190915015611ae35780806020019051810190611a579190612411565b611ae3576040517f08c379a000000000000000000000000000000000000000000000000000000000815260206004820152602a60248201527f5361666545524332303a204552433230206f7065726174696f6e20646964206e60448201527f6f742073756363656564000000000000000000000000000000000000000000006064820152608401610335565b505050565b6060611af78484600085611b01565b90505b9392505050565b606082471015611b93576040517f08c379a000000000000000000000000000000000000000000000000000000000815260206004820152602660248201527f416464726573733a20696e73756666696369656e742062616c616e636520666f60448201527f722063616c6c00000000000000000000000000000000000000000000000000006064820152608401610335565b843b611bfb576040517f08c379a000000000000000000000000000000000000000000000000000000000815260206004820152601d60248201527f416464726573733a2063616c6c20746f206e6f6e2d636f6e74726163740000006044820152606401610335565b6000808673ffffffffffffffffffffffffffffffffffffffff168587604051611c249190612473565b60006040518083038185875af1925050503d8060008114611c61576040519150601f19603f3d011682016040523d82523d6000602084013e611c66565b606091505b5091509150611c76828286611c81565b979650505050505050565b60608315611c90575081611afa565b825115611ca05782518084602001fd5b816040517f08c379a0000000000000000000000000000000000000000000000000000000008152600401610335919061248f565b73ffffffffffffffffffffffffffffffffffffffff811681146118c457600080fd5b8035611d0181611cd4565b919050565b7f4e487b7100000000000000000000000000000000000000000000000000000000600052604160045260246000fd5b604051610280810167ffffffffffffffff81118282101715611d5957611d59611d06565b60405290565b6040516102c0810167ffffffffffffffff81118282101715611d5957611d59611d06565b604051610180810167ffffffffffffffff81118282101715611d5957611d59611d06565b6fffffffffffffffffffffffffffffffff811681146118c457600080fd5b8035611d0181611da7565b64ffffffffff811681146118c457600080fd5b8035611d0181611dd0565b80151581146118c457600080fd5b8035611d0181611dee565b803560048110611d0157600080fd5b6000806000806000858703610300811215611e3057600080fd5b8635611e3b81611cd4565b95506020870135611e4b81611cd4565b94506040870135611e5b81611cd4565b9350606087013592506102807fffffffffffffffffffffffffffffffffffffffffffffffffffffffffffffff808201811315611e9657600080fd5b611e9e611d35565b9150611eac60808901611cf6565b825260a0880135602083015260c08801356040830152611ece60e08901611cf6565b6060830152610100611ee1818a01611cf6565b6080840152610120611ef4818b01611cf6565b60a0850152610140808b013560c0860152610160611f13818d01611dc5565b60e0870152610180611f26818e01611dc5565b858801526101a09450611f3a858e01611cf6565b848801526101c09350611f4e848e01611cf6565b838801526101e09250828d0135828801526102009150818d01358188015250610220611f7b818e01611de3565b858801526102409450611f8f858e01611de3565b848801526102609350611fa3848e01611de3565b83880152611fb2868e01611de3565b82880152611fc36102a08e01611dfc565b81880152505050611fd76102c08b01611dfc565b82850152611fe86102e08b01611e07565b81850152505050809150509295509295909350565b60006020828403121561200f57600080fd5b8135611afa81611cd4565b803560028110611d0157600080fd5b600082601f83011261203a57600080fd5b813567ffffffffffffffff8082111561205557612055611d06565b604051601f83017fffffffffffffffffffffffffffffffffffffffffffffffffffffffffffffffe0908116603f0116810190828211818310171561209b5761209b611d06565b816040528381528660208588010111156120b457600080fd5b836020870160208301376000602085830101528094505050505092915050565b803560ff81168114611d0157600080fd5b600080600080600060a086880312156120fd57600080fd5b853561210881611cd4565b9450602086013561211881611cd4565b9350604086013561212881611cd4565b925060608601359150608086013567ffffffffffffffff8082111561214c57600080fd5b908701906102c0828a03121561216157600080fd5b612169611d5f565b61217283611dfc565b815261218060208401611dfc565b60208201526121916040840161201a565b60408201526121a260608401611cf6565b60608201526080830135608082015260a083013560a08201526121c760c08401611cf6565b60c082015260e083013560e08201526101008084013581830152506101206121f0818501611de3565b90820152610140612202848201611de3565b90820152610160612214848201611dc5565b90820152610180612226848201611cf6565b908201526101a0612238848201611cf6565b908201526101c083810135908201526101e08084013590820152610200808401359082015261022061226b818501611cf6565b90820152610240838101358381111561228357600080fd5b61228f8c828701612029565b82840152505061026091506122a58284016120d4565b82820152610280915081830135828201526102a0915081830135828201528093505050509295509295909350565b600080604083850312156122e657600080fd5b82356122f181611cd4565b946020939093013593505050565b8051611d0181611cd4565b60006020828403121561231c57600080fd5b8151611afa81611cd4565b8051611d0181611da7565b8051611d0181611dd0565b8051611d0181611dee565b6000610180828403121561235b57600080fd5b612363611d83565b82518152612373602084016122ff565b6020820152612384604084016122ff565b6040820152612395606084016122ff565b60608201526123a660808401612327565b608082015260a083015160a082015260c083015160c08201526123cb60e08401612332565b60e082015261010083810151908201526101206123e98185016122ff565b90820152610140838101519082015261016061240681850161233d565b908201529392505050565b60006020828403121561242357600080fd5b8151611afa81611dee565b60006020828403121561244057600080fd5b5051919050565b60005b8381101561246257818101518382015260200161244a565b8381111561195c5750506000910152565b60008251612485818460208701612447565b9190910192915050565b60208152600082518060208401526124ae816040850160208701612447565b601f017fffffffffffffffffffffffffffffffffffffffffffffffffffffffffffffffe016919091016040019291505056fea2646970667358221220bfaa38f7395e530bf124ac1ac34d3955a86e5af6675bc89517306edcacdc244b64736f6c634300080a0033",
  "libraries": {},
  "devdoc": {
    "kind": "dev",
    "methods": {
      "owner()": {
        "details": "Returns the address of the current owner."
      },
      "renounceOwnership()": {
        "details": "Leaves the contract without owner. It will not be possible to call `onlyOwner` functions anymore. Can only be called by the current owner. NOTE: Renouncing ownership will leave the contract without an owner, thereby removing any functionality that is only available to the owner."
      },
      "transferOwnership(address)": {
        "details": "Transfers ownership of the contract to a new account (`newOwner`). Can only be called by the current owner."
      }
    },
    "version": 1
  },
  "userdoc": {
    "kind": "user",
    "methods": {},
    "version": 1
  },
  "storageLayout": {
    "storage": [
      {
        "astId": 387,
        "contract": "contracts/bespokemarket/transferAdaptersCurrency/TransferAdapterOToken.sol:TransferAdapterOToken",
        "label": "_owner",
        "offset": 0,
        "slot": "0",
        "type": "t_address"
      },
      {
        "astId": 17853,
        "contract": "contracts/bespokemarket/transferAdaptersCurrency/TransferAdapterOToken.sol:TransferAdapterOToken",
        "label": "getReserveId",
        "offset": 0,
        "slot": "1",
        "type": "t_mapping(t_address,t_uint256)"
      }
    ],
    "types": {
      "t_address": {
        "encoding": "inplace",
        "label": "address",
        "numberOfBytes": "20"
      },
      "t_mapping(t_address,t_uint256)": {
        "encoding": "mapping",
        "key": "t_address",
        "label": "mapping(address => uint256)",
        "numberOfBytes": "32",
        "value": "t_uint256"
      },
      "t_uint256": {
        "encoding": "inplace",
        "label": "uint256",
        "numberOfBytes": "32"
      }
    }
  }
}