{
  "address": "0xa3F6Dee0948243017Db70B503bF28663Fb0F5683",
  "abi": [
    {
      "inputs": [
        {
          "internalType": "address",
          "name": "bespokeSettings_",
          "type": "address"
        }
      ],
      "stateMutability": "nonpayable",
      "type": "constructor"
    },
    {
      "inputs": [],
      "name": "BESPOKE_SETTINGS",
      "outputs": [
        {
          "internalType": "contract IOpenSkyBespokeSettings",
          "name": "",
          "type": "address"
        }
      ],
      "stateMutability": "view",
      "type": "function"
    },
    {
      "inputs": [
        {
          "internalType": "address",
          "name": "asset",
          "type": "address"
        },
        {
          "internalType": "address",
          "name": "from",
          "type": "address"
        },
        {
          "internalType": "address",
          "name": "to",
          "type": "address"
        },
        {
          "internalType": "uint256",
          "name": "amount",
          "type": "uint256"
        },
        {
          "components": [
            {
              "internalType": "bool",
              "name": "isProrated",
              "type": "bool"
            },
            {
              "internalType": "bool",
              "name": "autoConvertWhenRepay",
              "type": "bool"
            },
            {
              "internalType": "enum BespokeTypes.OfferType",
              "name": "offerType",
              "type": "uint8"
            },
            {
              "internalType": "address",
              "name": "tokenAddress",
              "type": "address"
            },
            {
              "internalType": "uint256",
              "name": "tokenId",
              "type": "uint256"
            },
            {
              "internalType": "uint256",
              "name": "tokenAmount",
              "type": "uint256"
            },
            {
              "internalType": "address",
              "name": "signer",
              "type": "address"
            },
            {
              "internalType": "uint256",
              "name": "borrowAmountMin",
              "type": "uint256"
            },
            {
              "internalType": "uint256",
              "name": "borrowAmountMax",
              "type": "uint256"
            },
            {
              "internalType": "uint40",
              "name": "borrowDurationMin",
              "type": "uint40"
            },
            {
              "internalType": "uint40",
              "name": "borrowDurationMax",
              "type": "uint40"
            },
            {
              "internalType": "uint128",
              "name": "borrowRate",
              "type": "uint128"
            },
            {
              "internalType": "address",
              "name": "currency",
              "type": "address"
            },
            {
              "internalType": "address",
              "name": "lendAsset",
              "type": "address"
            },
            {
              "internalType": "uint256",
              "name": "nonce",
              "type": "uint256"
            },
            {
              "internalType": "uint256",
              "name": "nonceMaxTimes",
              "type": "uint256"
            },
            {
              "internalType": "uint256",
              "name": "deadline",
              "type": "uint256"
            },
            {
              "internalType": "address",
              "name": "strategy",
              "type": "address"
            },
            {
              "internalType": "bytes",
              "name": "params",
              "type": "bytes"
            },
            {
              "internalType": "uint8",
              "name": "v",
              "type": "uint8"
            },
            {
              "internalType": "bytes32",
              "name": "r",
              "type": "bytes32"
            },
            {
              "internalType": "bytes32",
              "name": "s",
              "type": "bytes32"
            }
          ],
          "internalType": "struct BespokeTypes.Offer",
          "name": "offerData",
          "type": "tuple"
        }
      ],
      "name": "transferOnLend",
      "outputs": [],
      "stateMutability": "nonpayable",
      "type": "function"
    },
    {
      "inputs": [
        {
          "internalType": "address",
          "name": "asset",
          "type": "address"
        },
        {
          "internalType": "address",
          "name": "from",
          "type": "address"
        },
        {
          "internalType": "address",
          "name": "to",
          "type": "address"
        },
        {
          "internalType": "uint256",
          "name": "amount",
          "type": "uint256"
        },
        {
          "components": [
            {
              "internalType": "address",
              "name": "tokenAddress",
              "type": "address"
            },
            {
              "internalType": "uint256",
              "name": "tokenId",
              "type": "uint256"
            },
            {
              "internalType": "uint256",
              "name": "tokenAmount",
              "type": "uint256"
            },
            {
              "internalType": "address",
              "name": "nftManager",
              "type": "address"
            },
            {
              "internalType": "address",
              "name": "borrower",
              "type": "address"
            },
            {
              "internalType": "address",
              "name": "lender",
              "type": "address"
            },
            {
              "internalType": "uint256",
              "name": "amount",
              "type": "uint256"
            },
            {
              "internalType": "uint128",
              "name": "borrowRate",
              "type": "uint128"
            },
            {
              "internalType": "uint128",
              "name": "interestPerSecond",
              "type": "uint128"
            },
            {
              "internalType": "address",
              "name": "currency",
              "type": "address"
            },
            {
              "internalType": "address",
              "name": "lendAsset",
              "type": "address"
            },
            {
              "internalType": "uint256",
              "name": "reserveFactor",
              "type": "uint256"
            },
            {
              "internalType": "uint256",
              "name": "overdueLoanFeeFactor",
              "type": "uint256"
            },
            {
              "internalType": "uint40",
              "name": "borrowDuration",
              "type": "uint40"
            },
            {
              "internalType": "uint40",
              "name": "borrowBegin",
              "type": "uint40"
            },
            {
              "internalType": "uint40",
              "name": "borrowOverdueTime",
              "type": "uint40"
            },
            {
              "internalType": "uint40",
              "name": "liquidatableTime",
              "type": "uint40"
            },
            {
              "internalType": "bool",
              "name": "isProrated",
              "type": "bool"
            },
            {
              "internalType": "bool",
              "name": "autoConvertWhenRepay",
              "type": "bool"
            },
            {
              "internalType": "enum BespokeTypes.LoanStatus",
              "name": "status",
              "type": "uint8"
            }
          ],
          "internalType": "struct BespokeTypes.LoanData",
          "name": "loanData",
          "type": "tuple"
        }
      ],
      "name": "transferOnRepay",
      "outputs": [],
      "stateMutability": "nonpayable",
      "type": "function"
    }
  ],
  "transactionHash": "0x6a8d58cc5d86d8aeb2921a07534f92a3604a63eb4dd40cdcb3d58ab7f5394557",
  "args": [
    "0xC6580330a5108ebb67eE9E8a2b800cadf0940e40"
  ],
  "solcInputHash": "7115e83fb639f0ac8332020e2b911896",
  "bytecode": "0x60a060405234801561001057600080fd5b5060405161116f38038061116f83398101604081905261002f91610040565b6001600160a01b0316608052610070565b60006020828403121561005257600080fd5b81516001600160a01b038116811461006957600080fd5b9392505050565b6080516110d86100976000396000818160730152818160c001526103bc01526110d86000f3fe608060405234801561001057600080fd5b50600436106100415760003560e01c806307e32860146100465780631f1017d51461005b57806329c55f061461006e575b600080fd5b610059610054366004610b2f565b6100be565b005b610059610069366004610de1565b6103ba565b6100957f000000000000000000000000000000000000000000000000000000000000000081565b60405173ffffffffffffffffffffffffffffffffffffffff909116815260200160405180910390f35b7f000000000000000000000000000000000000000000000000000000000000000073ffffffffffffffffffffffffffffffffffffffff1663956236416040518163ffffffff1660e01b8152600401602060405180830381865afa158015610129573d6000803e3d6000fd5b505050506040513d601f19601f8201168201806040525081019061014d9190610fcf565b73ffffffffffffffffffffffffffffffffffffffff163373ffffffffffffffffffffffffffffffffffffffff161461020c576040517f08c379a000000000000000000000000000000000000000000000000000000000815260206004820152602360248201527f424d5f41434c5f4f4e4c595f424553504f4b525f4d41524b45545f43414e5f4360448201527f414c4c000000000000000000000000000000000000000000000000000000000060648201526084015b60405180910390fd5b8473ffffffffffffffffffffffffffffffffffffffff1681610140015173ffffffffffffffffffffffffffffffffffffffff16146102cc576040517f08c379a000000000000000000000000000000000000000000000000000000000815260206004820152602360248201527f424d5f5452414e534645525f414441505445525f41535345545f4e4f545f4d4160448201527f54434800000000000000000000000000000000000000000000000000000000006064820152608401610203565b80610140015173ffffffffffffffffffffffffffffffffffffffff1681610120015173ffffffffffffffffffffffffffffffffffffffff1614610391576040517f08c379a000000000000000000000000000000000000000000000000000000000815260206004820152602660248201527f424d5f5452414e534645525f414441505445525f504149525f4e4f545f53555060448201527f504f5254454400000000000000000000000000000000000000000000000000006064820152608401610203565b6103b373ffffffffffffffffffffffffffffffffffffffff8616858585610688565b5050505050565b7f000000000000000000000000000000000000000000000000000000000000000073ffffffffffffffffffffffffffffffffffffffff1663956236416040518163ffffffff1660e01b8152600401602060405180830381865afa158015610425573d6000803e3d6000fd5b505050506040513d601f19601f820116820180604052508101906104499190610fcf565b73ffffffffffffffffffffffffffffffffffffffff163373ffffffffffffffffffffffffffffffffffffffff1614610503576040517f08c379a000000000000000000000000000000000000000000000000000000000815260206004820152602360248201527f424d5f41434c5f4f4e4c595f424553504f4b525f4d41524b45545f43414e5f4360448201527f414c4c00000000000000000000000000000000000000000000000000000000006064820152608401610203565b8473ffffffffffffffffffffffffffffffffffffffff16816101a0015173ffffffffffffffffffffffffffffffffffffffff16146105c3576040517f08c379a000000000000000000000000000000000000000000000000000000000815260206004820152602360248201527f424d5f5452414e534645525f4f4e5f4c454e445f41535345545f4e4f545f4d4160448201527f54434800000000000000000000000000000000000000000000000000000000006064820152608401610203565b806101a0015173ffffffffffffffffffffffffffffffffffffffff1681610180015173ffffffffffffffffffffffffffffffffffffffff1614610391576040517f08c379a000000000000000000000000000000000000000000000000000000000815260206004820152602660248201527f424d5f5452414e534645525f4f4e5f4c454e445f504149525f4e4f545f53555060448201527f504f5254454400000000000000000000000000000000000000000000000000006064820152608401610203565b6040805173ffffffffffffffffffffffffffffffffffffffff85811660248301528416604482015260648082018490528251808303909101815260849091019091526020810180517bffffffffffffffffffffffffffffffffffffffffffffffffffffffff167f23b872dd0000000000000000000000000000000000000000000000000000000017905261071d908590610723565b50505050565b6000610785826040518060400160405280602081526020017f5361666545524332303a206c6f772d6c6576656c2063616c6c206661696c65648152508573ffffffffffffffffffffffffffffffffffffffff166108349092919063ffffffff16565b80519091501561082f57808060200190518101906107a39190610fec565b61082f576040517f08c379a000000000000000000000000000000000000000000000000000000000815260206004820152602a60248201527f5361666545524332303a204552433230206f7065726174696f6e20646964206e60448201527f6f742073756363656564000000000000000000000000000000000000000000006064820152608401610203565b505050565b6060610843848460008561084d565b90505b9392505050565b6060824710156108df576040517f08c379a000000000000000000000000000000000000000000000000000000000815260206004820152602660248201527f416464726573733a20696e73756666696369656e742062616c616e636520666f60448201527f722063616c6c00000000000000000000000000000000000000000000000000006064820152608401610203565b843b610947576040517f08c379a000000000000000000000000000000000000000000000000000000000815260206004820152601d60248201527f416464726573733a2063616c6c20746f206e6f6e2d636f6e74726163740000006044820152606401610203565b6000808673ffffffffffffffffffffffffffffffffffffffff1685876040516109709190611035565b60006040518083038185875af1925050503d80600081146109ad576040519150601f19603f3d011682016040523d82523d6000602084013e6109b2565b606091505b50915091506109c28282866109cd565b979650505050505050565b606083156109dc575081610846565b8251156109ec5782518084602001fd5b816040517f08c379a00000000000000000000000000000000000000000000000000000000081526004016102039190611051565b73ffffffffffffffffffffffffffffffffffffffff81168114610a4257600080fd5b50565b8035610a5081610a20565b919050565b7f4e487b7100000000000000000000000000000000000000000000000000000000600052604160045260246000fd5b604051610280810167ffffffffffffffff81118282101715610aa857610aa8610a55565b60405290565b6040516102c0810167ffffffffffffffff81118282101715610aa857610aa8610a55565b80356fffffffffffffffffffffffffffffffff81168114610a5057600080fd5b803564ffffffffff81168114610a5057600080fd5b8015158114610a4257600080fd5b8035610a5081610b07565b803560048110610a5057600080fd5b6000806000806000858703610300811215610b4957600080fd5b8635610b5481610a20565b95506020870135610b6481610a20565b94506040870135610b7481610a20565b9350606087013592506102807fffffffffffffffffffffffffffffffffffffffffffffffffffffffffffffff808201811315610baf57600080fd5b610bb7610a84565b9150610bc560808901610a45565b825260a0880135602083015260c08801356040830152610be760e08901610a45565b6060830152610100610bfa818a01610a45565b6080840152610120610c0d818b01610a45565b60a0850152610140808b013560c0860152610160610c2c818d01610ad2565b60e0870152610180610c3f818e01610ad2565b858801526101a09450610c53858e01610a45565b848801526101c09350610c67848e01610a45565b838801526101e09250828d0135828801526102009150818d01358188015250610220610c94818e01610af2565b858801526102409450610ca8858e01610af2565b848801526102609350610cbc848e01610af2565b83880152610ccb868e01610af2565b82880152610cdc6102a08e01610b15565b81880152505050610cf06102c08b01610b15565b82850152610d016102e08b01610b20565b81850152505050809150509295509295909350565b803560028110610a5057600080fd5b600082601f830112610d3657600080fd5b813567ffffffffffffffff80821115610d5157610d51610a55565b604051601f83017fffffffffffffffffffffffffffffffffffffffffffffffffffffffffffffffe0908116603f01168101908282118183101715610d9757610d97610a55565b81604052838152866020858801011115610db057600080fd5b836020870160208301376000602085830101528094505050505092915050565b803560ff81168114610a5057600080fd5b600080600080600060a08688031215610df957600080fd5b8535610e0481610a20565b94506020860135610e1481610a20565b93506040860135610e2481610a20565b925060608601359150608086013567ffffffffffffffff80821115610e4857600080fd5b908701906102c0828a031215610e5d57600080fd5b610e65610aae565b610e6e83610b15565b8152610e7c60208401610b15565b6020820152610e8d60408401610d16565b6040820152610e9e60608401610a45565b60608201526080830135608082015260a083013560a0820152610ec360c08401610a45565b60c082015260e083013560e0820152610100808401358183015250610120610eec818501610af2565b90820152610140610efe848201610af2565b90820152610160610f10848201610ad2565b90820152610180610f22848201610a45565b908201526101a0610f34848201610a45565b908201526101c083810135908201526101e080840135908201526102008084013590820152610220610f67818501610a45565b908201526102408381013583811115610f7f57600080fd5b610f8b8c828701610d25565b8284015250506102609150610fa1828401610dd0565b82820152610280915081830135828201526102a0915081830135828201528093505050509295509295909350565b600060208284031215610fe157600080fd5b815161084681610a20565b600060208284031215610ffe57600080fd5b815161084681610b07565b60005b8381101561102457818101518382015260200161100c565b8381111561071d5750506000910152565b60008251611047818460208701611009565b9190910192915050565b6020815260008251806020840152611070816040850160208701611009565b601f017fffffffffffffffffffffffffffffffffffffffffffffffffffffffffffffffe016919091016040019291505056fea26469706673582212207ec857ea1b108e3dec559a7c318bdda061459af6550e175dc7d33d65ac2f663c64736f6c634300080a0033",
  "libraries": {},
  "devdoc": {
    "kind": "dev",
    "methods": {},
    "version": 1
  },
  "userdoc": {
    "kind": "user",
    "methods": {},
    "version": 1
  },
  "storageLayout": {
    "storage": [],
    "types": null
  }
}