{
  "address": "0xc8e4027fA7FB34416A76704b56b0a3Ad78E7f454",
  "abi": [
    {
      "inputs": [],
      "stateMutability": "nonpayable",
      "type": "constructor"
    },
    {
      "anonymous": false,
      "inputs": [
        {
          "indexed": true,
          "internalType": "address",
          "name": "target",
          "type": "address"
        },
        {
          "indexed": true,
          "internalType": "address",
          "name": "initiator",
          "type": "address"
        },
        {
          "indexed": true,
          "internalType": "address",
          "name": "asset",
          "type": "address"
        },
        {
          "indexed": false,
          "internalType": "uint256",
          "name": "amount",
          "type": "uint256"
        },
        {
          "indexed": false,
          "internalType": "uint256",
          "name": "premium",
          "type": "uint256"
        },
        {
          "indexed": false,
          "internalType": "uint16",
          "name": "referralCode",
          "type": "uint16"
        }
      ],
      "name": "FlashLoan",
      "type": "event"
    },
    {
      "inputs": [
        {
          "internalType": "address",
          "name": "underlyingAsset",
          "type": "address"
        },
        {
          "internalType": "address",
          "name": "aToken",
          "type": "address"
        }
      ],
      "name": "addReserve",
      "outputs": [],
      "stateMutability": "nonpayable",
      "type": "function"
    },
    {
      "inputs": [
        {
          "internalType": "address",
          "name": "underlyingAsset",
          "type": "address"
        },
        {
          "internalType": "uint256",
          "name": "amount",
          "type": "uint256"
        },
        {
          "internalType": "address",
          "name": "onBehalfOf",
          "type": "address"
        },
        {
          "internalType": "uint16",
          "name": "referralCode",
          "type": "uint16"
        }
      ],
      "name": "deposit",
      "outputs": [],
      "stateMutability": "nonpayable",
      "type": "function"
    },
    {
      "inputs": [
        {
          "internalType": "address",
          "name": "receiverAddress",
          "type": "address"
        },
        {
          "internalType": "address[]",
          "name": "assets",
          "type": "address[]"
        },
        {
          "internalType": "uint256[]",
          "name": "amounts",
          "type": "uint256[]"
        },
        {
          "internalType": "uint256[]",
          "name": "",
          "type": "uint256[]"
        },
        {
          "internalType": "address",
          "name": "",
          "type": "address"
        },
        {
          "internalType": "bytes",
          "name": "params",
          "type": "bytes"
        },
        {
          "internalType": "uint16",
          "name": "referralCode",
          "type": "uint16"
        }
      ],
      "name": "flashLoan",
      "outputs": [],
      "stateMutability": "nonpayable",
      "type": "function"
    },
    {
      "inputs": [
        {
          "internalType": "address",
          "name": "underlyingAsset",
          "type": "address"
        }
      ],
      "name": "getReserveData",
      "outputs": [
        {
          "components": [
            {
              "components": [
                {
                  "internalType": "uint256",
                  "name": "data",
                  "type": "uint256"
                }
              ],
              "internalType": "struct ILendingPool.ReserveConfigurationMap",
              "name": "configuration",
              "type": "tuple"
            },
            {
              "internalType": "uint128",
              "name": "liquidityIndex",
              "type": "uint128"
            },
            {
              "internalType": "uint128",
              "name": "variableBorrowIndex",
              "type": "uint128"
            },
            {
              "internalType": "uint128",
              "name": "currentLiquidityRate",
              "type": "uint128"
            },
            {
              "internalType": "uint128",
              "name": "currentVariableBorrowRate",
              "type": "uint128"
            },
            {
              "internalType": "uint128",
              "name": "currentStableBorrowRate",
              "type": "uint128"
            },
            {
              "internalType": "uint40",
              "name": "lastUpdateTimestamp",
              "type": "uint40"
            },
            {
              "internalType": "address",
              "name": "aTokenAddress",
              "type": "address"
            },
            {
              "internalType": "address",
              "name": "stableDebtTokenAddress",
              "type": "address"
            },
            {
              "internalType": "address",
              "name": "variableDebtTokenAddress",
              "type": "address"
            },
            {
              "internalType": "address",
              "name": "interestRateStrategyAddress",
              "type": "address"
            },
            {
              "internalType": "uint8",
              "name": "id",
              "type": "uint8"
            }
          ],
          "internalType": "struct ILendingPool.ReserveData",
          "name": "",
          "type": "tuple"
        }
      ],
      "stateMutability": "view",
      "type": "function"
    },
    {
      "inputs": [
        {
          "internalType": "address",
          "name": "underlyingAsset",
          "type": "address"
        },
        {
          "internalType": "address",
          "name": "onBehalfOf",
          "type": "address"
        },
        {
          "internalType": "uint256",
          "name": "amount",
          "type": "uint256"
        }
      ],
      "name": "simulateInterestIncrease",
      "outputs": [],
      "stateMutability": "nonpayable",
      "type": "function"
    },
    {
      "inputs": [
        {
          "internalType": "address",
          "name": "underlyingAsset",
          "type": "address"
        },
        {
          "internalType": "uint256",
          "name": "amount",
          "type": "uint256"
        },
        {
          "internalType": "address",
          "name": "to",
          "type": "address"
        }
      ],
      "name": "withdraw",
      "outputs": [
        {
          "internalType": "uint256",
          "name": "",
          "type": "uint256"
        }
      ],
      "stateMutability": "nonpayable",
      "type": "function"
    }
  ],
  "transactionHash": "0x9733138b21d8dec196b722628c5e3769080b78a6eefbc650d22574e5c08efea2",
  "args": [],
  "solcInputHash": "0263a2ff8d45e66a3ad12d16cf29493e",
  "bytecode": "0x608060405234801561001057600080fd5b506111d2806100206000396000f3fe608060405234801561001057600080fd5b50600436106100725760003560e01c8063ab9c4b5d11610050578063ab9c4b5d146100d5578063e8eda9df146100e8578063ef587a84146100fb57610072565b8063197326211461007757806335ea6a751461008c57806369328dec146100b5575b600080fd5b61008a610085366004610c45565b61010e565b005b61009f61009a366004610c2b565b61014c565b6040516100ac9190611036565b60405180910390f35b6100c86100c3366004610da7565b610242565b6040516100ac9190611129565b61008a6100e3366004610cb2565b6102cb565b61008a6100f6366004610de2565b61065e565b61008a610109366004610c77565b610713565b6001600160a01b039182166000908152602081905260409020600401805473ffffffffffffffffffffffffffffffffffffffff191691909216179055565b610154610afb565b506001600160a01b038181166000908152602081815260409182902082516101a08101845281546101808201908152815260018201546fffffffffffffffffffffffffffffffff80821694830194909452700100000000000000000000000000000000908190048416948201949094526002820154808416606083015284900483166080820152600382015492831660a08201529290910464ffffffffff1660c08301526004810154831660e0830152600581015483166101008301526006810154831661012083015260070154918216610140820152600160a01b90910460ff166101608201525b919050565b6001600160a01b038084166000908152602081905260408082206004908101549151633dae446f60e21b815292938693921691829163f6b911bc9161028d9133918991889101610eec565b600060405180830381600087803b1580156102a757600080fd5b505af11580156102bb573d6000803e3d6000fd5b50939450505050505b9392505050565b60008967ffffffffffffffff811180156102e457600080fd5b5060405190808252806020026020018201604052801561030e578160200160208202803683370190505b50905060005b8a81101561040d576127108a8a8381811061032b57fe5b905060200201356009028161033c57fe5b0482828151811061034957fe5b6020026020010181815250506000808d8d8481811061036457fe5b90506020020160208101906103799190610c2b565b6001600160a01b03908116825260208201929092526040016000206004015416634efecaa58e8c8c858181106103ab57fe5b905060200201356040518363ffffffff1660e01b81526004016103cf929190610f10565b600060405180830381600087803b1580156103e957600080fd5b505af11580156103fd573d6000803e3d6000fd5b5050600190920191506103149050565b50604051632483d72160e21b81526001600160a01b038d169063920f5c8490610448908e908e908e908e90889033908d908d90600401610f29565b602060405180830381600087803b15801561046257600080fd5b505af1158015610476573d6000803e3d6000fd5b505050506040513d601f19601f8201168201806040525081019061049a9190610e2e565b6104bf5760405162461bcd60e51b81526004016104b690610fff565b60405180910390fd5b60005b8a81101561064f576127108a8a838181106104d957fe5b90506020020135600902816104ea57fe5b048282815181106104f757fe5b6020026020010181815250506105a98d6000808f8f8681811061051657fe5b905060200201602081019061052b9190610c2b565b6001600160a01b039081168252602082019290925260400160002060040154855191169085908590811061055b57fe5b60200260200101518d8d8681811061056f57fe5b90506020020135018f8f8681811061058357fe5b90506020020160208101906105989190610c2b565b6001600160a01b03169291906107b4565b8b8b828181106105b557fe5b90506020020160208101906105ca9190610c2b565b6001600160a01b0316336001600160a01b03168e6001600160a01b03167f631042c832b07452973831137f2d73e395028b44b250dedc5abb0ee766e168ac8d8d8681811061061457fe5b9050602002013586868151811061062757fe5b60200260200101518860405161063f93929190611132565b60405180910390a46001016104c2565b50505050505050505050505050565b6001600160a01b038085166000818152602081905260409020600401549091169061068b903383876107b4565b6040516340c10f1960e01b81526001600160a01b038216906340c10f19906106b99086908890600401610f10565b602060405180830381600087803b1580156106d357600080fd5b505af11580156106e7573d6000803e3d6000fd5b505050506040513d601f19601f8201168201806040525081019061070b9190610e2e565b505050505050565b6001600160a01b038084166000908152602081905260409081902060049081015491516340c10f1960e01b8152919092169182916340c10f199161075b918791879101610f10565b602060405180830381600087803b15801561077557600080fd5b505af1158015610789573d6000803e3d6000fd5b505050506040513d601f19601f820116820180604052508101906107ad9190610e2e565b5050505050565b604080516001600160a01b0380861660248301528416604482015260648082018490528251808303909101815260849091019091526020810180517bffffffffffffffffffffffffffffffffffffffffffffffffffffffff166323b872dd60e01b179052610823908590610829565b50505050565b600061087e826040518060400160405280602081526020017f5361666545524332303a206c6f772d6c6576656c2063616c6c206661696c6564815250856001600160a01b03166108df9092919063ffffffff16565b8051909150156108da5780806020019051602081101561089d57600080fd5b50516108da5760405162461bcd60e51b815260040180806020018281038252602a815260200180611173602a913960400191505060405180910390fd5b505050565b60606108ee84846000856108f6565b949350505050565b6060824710156109375760405162461bcd60e51b815260040180806020018281038252602681526020018061114d6026913960400191505060405180910390fd5b61094085610a51565b610991576040805162461bcd60e51b815260206004820152601d60248201527f416464726573733a2063616c6c20746f206e6f6e2d636f6e7472616374000000604482015290519081900360640190fd5b600080866001600160a01b031685876040518082805190602001908083835b602083106109cf5780518252601f1990920191602091820191016109b0565b6001836020036101000a03801982511681845116808217855250505050505090500191505060006040518083038185875af1925050503d8060008114610a31576040519150601f19603f3d011682016040523d82523d6000602084013e610a36565b606091505b5091509150610a46828286610a57565b979650505050505050565b3b151590565b60608315610a665750816102c4565b825115610a765782518084602001fd5b8160405162461bcd60e51b81526004018080602001828103825283818151815260200191508051906020019080838360005b83811015610ac0578181015183820152602001610aa8565b50505050905090810190601f168015610aed5780820380516001836020036101000a031916815260200191505b509250505060405180910390fd5b604051806101800160405280610b0f610b66565b815260006020820181905260408201819052606082018190526080820181905260a0820181905260c0820181905260e082018190526101008201819052610120820181905261014082018190526101609091015290565b6040518060200160405280600081525090565b80356001600160a01b038116811461023d57600080fd5b60008083601f840112610ba1578182fd5b50813567ffffffffffffffff811115610bb8578182fd5b6020830191508360208083028501011115610bd257600080fd5b9250929050565b60008083601f840112610bea578182fd5b50813567ffffffffffffffff811115610c01578182fd5b602083019150836020828501011115610bd257600080fd5b803561ffff8116811461023d57600080fd5b600060208284031215610c3c578081fd5b6102c482610b79565b60008060408385031215610c57578081fd5b610c6083610b79565b9150610c6e60208401610b79565b90509250929050565b600080600060608486031215610c8b578081fd5b610c9484610b79565b9250610ca260208501610b79565b9150604084013590509250925092565b600080600080600080600080600080600060e08c8e031215610cd2578687fd5b610cdb8c610b79565b9a5067ffffffffffffffff8060208e01351115610cf6578788fd5b610d068e60208f01358f01610b90565b909b50995060408d0135811015610d1b578788fd5b610d2b8e60408f01358f01610b90565b909950975060608d0135811015610d40578687fd5b610d508e60608f01358f01610b90565b9097509550610d6160808e01610b79565b94508060a08e01351115610d73578384fd5b50610d848d60a08e01358e01610bd9565b9093509150610d9560c08d01610c19565b90509295989b509295989b9093969950565b600080600060608486031215610dbb578283fd5b610dc484610b79565b925060208401359150610dd960408501610b79565b90509250925092565b60008060008060808587031215610df7578384fd5b610e0085610b79565b935060208501359250610e1560408601610b79565b9150610e2360608601610c19565b905092959194509250565b600060208284031215610e3f578081fd5b815180151581146102c4578182fd5b6001600160a01b03169052565b6000815180845260208085019450808401835b83811015610e8a57815187529582019590820190600101610e6e565b509495945050505050565b60008284528282602086013780602084860101526020601f19601f85011685010190509392505050565b519052565b6fffffffffffffffffffffffffffffffff169052565b64ffffffffff169052565b60ff169052565b6001600160a01b039384168152919092166020820152604081019190915260600190565b6001600160a01b03929092168252602082015260400190565b60a0808252810188905260008960c08301825b8b811015610f6a576001600160a01b03610f5584610b79565b16825260209283019290910190600101610f3c565b5083810360208501528881527f07ffffffffffffffffffffffffffffffffffffffffffffffffffffffffffffff891115610fa2578283fd5b602089029150818a60208301370160208181018381528483039091016040850152610fcd8189610e5b565b915050610fdd6060840187610e4e565b8281036080840152610ff0818587610e95565b9b9a5050505050505050505050565b6020808252601f908201527f414156455f464c4153485f4c4f414e5f4558454355544f525f4641494c454400604082015260600190565b60006101808201905061104a828451610ebf565b602083015161105c6020840182610ec4565b50604083015161106f6040840182610ec4565b5060608301516110826060840182610ec4565b5060808301516110956080840182610ec4565b5060a08301516110a860a0840182610ec4565b5060c08301516110bb60c0840182610eda565b5060e08301516110ce60e0840182610e4e565b50610100808401516110e282850182610e4e565b5050610120808401516110f782850182610e4e565b50506101408084015161110c82850182610e4e565b50506101608084015161112182850182610ee5565b505092915050565b90815260200190565b928352602083019190915261ffff1660408201526060019056fe416464726573733a20696e73756666696369656e742062616c616e636520666f722063616c6c5361666545524332303a204552433230206f7065726174696f6e20646964206e6f742073756363656564a264697066735822122090752f2f9d8e9094e88e95d7446e695b4cd798330a1f950af1355902e835665b64736f6c63430007060033",
  "devdoc": {
    "kind": "dev",
    "methods": {},
    "version": 1
  },
  "userdoc": {
    "kind": "user",
    "methods": {},
    "version": 1
  },
  "storageLayout": {
    "storage": [
      {
        "astId": 18,
        "contract": "contracts/mocks/aave/AAVELendingPool.sol:AAVELendingPool",
        "label": "_reserves",
        "offset": 0,
        "slot": "0",
        "type": "t_mapping(t_address,t_struct(ReserveData)3064_storage)"
      }
    ],
    "types": {
      "t_address": {
        "encoding": "inplace",
        "label": "address",
        "numberOfBytes": "20"
      },
      "t_mapping(t_address,t_struct(ReserveData)3064_storage)": {
        "encoding": "mapping",
        "key": "t_address",
        "label": "mapping(address => struct ILendingPool.ReserveData)",
        "numberOfBytes": "32",
        "value": "t_struct(ReserveData)3064_storage"
      },
      "t_struct(ReserveConfigurationMap)3039_storage": {
        "encoding": "inplace",
        "label": "struct ILendingPool.ReserveConfigurationMap",
        "members": [
          {
            "astId": 3038,
            "contract": "contracts/mocks/aave/AAVELendingPool.sol:AAVELendingPool",
            "label": "data",
            "offset": 0,
            "slot": "0",
            "type": "t_uint256"
          }
        ],
        "numberOfBytes": "32"
      },
      "t_struct(ReserveData)3064_storage": {
        "encoding": "inplace",
        "label": "struct ILendingPool.ReserveData",
        "members": [
          {
            "astId": 3041,
            "contract": "contracts/mocks/aave/AAVELendingPool.sol:AAVELendingPool",
            "label": "configuration",
            "offset": 0,
            "slot": "0",
            "type": "t_struct(ReserveConfigurationMap)3039_storage"
          },
          {
            "astId": 3043,
            "contract": "contracts/mocks/aave/AAVELendingPool.sol:AAVELendingPool",
            "label": "liquidityIndex",
            "offset": 0,
            "slot": "1",
            "type": "t_uint128"
          },
          {
            "astId": 3045,
            "contract": "contracts/mocks/aave/AAVELendingPool.sol:AAVELendingPool",
            "label": "variableBorrowIndex",
            "offset": 16,
            "slot": "1",
            "type": "t_uint128"
          },
          {
            "astId": 3047,
            "contract": "contracts/mocks/aave/AAVELendingPool.sol:AAVELendingPool",
            "label": "currentLiquidityRate",
            "offset": 0,
            "slot": "2",
            "type": "t_uint128"
          },
          {
            "astId": 3049,
            "contract": "contracts/mocks/aave/AAVELendingPool.sol:AAVELendingPool",
            "label": "currentVariableBorrowRate",
            "offset": 16,
            "slot": "2",
            "type": "t_uint128"
          },
          {
            "astId": 3051,
            "contract": "contracts/mocks/aave/AAVELendingPool.sol:AAVELendingPool",
            "label": "currentStableBorrowRate",
            "offset": 0,
            "slot": "3",
            "type": "t_uint128"
          },
          {
            "astId": 3053,
            "contract": "contracts/mocks/aave/AAVELendingPool.sol:AAVELendingPool",
            "label": "lastUpdateTimestamp",
            "offset": 16,
            "slot": "3",
            "type": "t_uint40"
          },
          {
            "astId": 3055,
            "contract": "contracts/mocks/aave/AAVELendingPool.sol:AAVELendingPool",
            "label": "aTokenAddress",
            "offset": 0,
            "slot": "4",
            "type": "t_address"
          },
          {
            "astId": 3057,
            "contract": "contracts/mocks/aave/AAVELendingPool.sol:AAVELendingPool",
            "label": "stableDebtTokenAddress",
            "offset": 0,
            "slot": "5",
            "type": "t_address"
          },
          {
            "astId": 3059,
            "contract": "contracts/mocks/aave/AAVELendingPool.sol:AAVELendingPool",
            "label": "variableDebtTokenAddress",
            "offset": 0,
            "slot": "6",
            "type": "t_address"
          },
          {
            "astId": 3061,
            "contract": "contracts/mocks/aave/AAVELendingPool.sol:AAVELendingPool",
            "label": "interestRateStrategyAddress",
            "offset": 0,
            "slot": "7",
            "type": "t_address"
          },
          {
            "astId": 3063,
            "contract": "contracts/mocks/aave/AAVELendingPool.sol:AAVELendingPool",
            "label": "id",
            "offset": 20,
            "slot": "7",
            "type": "t_uint8"
          }
        ],
        "numberOfBytes": "256"
      },
      "t_uint128": {
        "encoding": "inplace",
        "label": "uint128",
        "numberOfBytes": "16"
      },
      "t_uint256": {
        "encoding": "inplace",
        "label": "uint256",
        "numberOfBytes": "32"
      },
      "t_uint40": {
        "encoding": "inplace",
        "label": "uint40",
        "numberOfBytes": "5"
      },
      "t_uint8": {
        "encoding": "inplace",
        "label": "uint8",
        "numberOfBytes": "1"
      }
    }
  }
}