{
  "address": "0x9C3106e111a3317d3662F4a3f9622B6d17EC79fE",
  "abi": [
    {
      "inputs": [
        {
          "internalType": "bytes32",
          "name": "id",
          "type": "bytes32"
        }
      ],
      "name": "getAddress",
      "outputs": [
        {
          "internalType": "address",
          "name": "",
          "type": "address"
        }
      ],
      "stateMutability": "view",
      "type": "function"
    },
    {
      "inputs": [],
      "name": "getLendingPool",
      "outputs": [
        {
          "internalType": "address",
          "name": "",
          "type": "address"
        }
      ],
      "stateMutability": "view",
      "type": "function"
    },
    {
      "inputs": [
        {
          "internalType": "address",
          "name": "pool",
          "type": "address"
        }
      ],
      "name": "setLendingPool",
      "outputs": [],
      "stateMutability": "nonpayable",
      "type": "function"
    }
  ],
  "transactionHash": "0x60c71a7fbb838c9be107f55b9db83562d955976b2098f3b43e2515430c55939e",
  "args": [],
  "solcInputHash": "e33bc92dec463f78c10363b5fa76cccf",
  "bytecode": "0x608060405234801561001057600080fd5b506101bc806100206000396000f3fe608060405234801561001057600080fd5b50600436106100415760003560e01c80630261bf8b14610046578063113aa8b11461006457806321f8a72114610079575b600080fd5b61004e61008c565b60405161005b9190610172565b60405180910390f35b61007761007236600461012c565b6100ab565b005b61004e61008736600461015a565b610111565b60006100a66b13115391125391d7d413d3d360a21b610111565b905090565b6b13115391125391d7d413d3d360a21b60009081526020527f361037610d41e9e91694acae44756927f18da6b058d6570756f34a6c84422d54805473ffffffffffffffffffffffffffffffffffffffff19166001600160a01b0392909216919091179055565b6000908152602081905260409020546001600160a01b031690565b60006020828403121561013d578081fd5b81356001600160a01b0381168114610153578182fd5b9392505050565b60006020828403121561016b578081fd5b5035919050565b6001600160a01b039190911681526020019056fea2646970667358221220271f6a6a90963933edd8818ea1094191a354e405b2fd65dd1e9b5775c107674c64736f6c63430007060033",
  "devdoc": {
    "kind": "dev",
    "methods": {},
    "version": 1
  },
  "userdoc": {
    "kind": "user",
    "methods": {},
    "version": 1
  },
  "storageLayout": {
    "storage": [
      {
        "astId": 6,
        "contract": "contracts/mocks/aave/AAVELendingPoolAddressesProvider.sol:AAVELendingPoolAddressesProvider",
        "label": "_addresses",
        "offset": 0,
        "slot": "0",
        "type": "t_mapping(t_bytes32,t_address)"
      }
    ],
    "types": {
      "t_address": {
        "encoding": "inplace",
        "label": "address",
        "numberOfBytes": "20"
      },
      "t_bytes32": {
        "encoding": "inplace",
        "label": "bytes32",
        "numberOfBytes": "32"
      },
      "t_mapping(t_bytes32,t_address)": {
        "encoding": "mapping",
        "key": "t_bytes32",
        "label": "mapping(bytes32 => address)",
        "numberOfBytes": "32",
        "value": "t_address"
      }
    }
  }
}