{
  "address": "0xa57B0DCAFAE3B6afe27785F1D7e38E8525D4b0ED",
  "abi": [
    {
      "inputs": [
        {
          "internalType": "address",
          "name": "_apeCoinContractAddress",
          "type": "address"
        },
        {
          "internalType": "address",
          "name": "_baycContractAddress",
          "type": "address"
        },
        {
          "internalType": "address",
          "name": "_maycContractAddress",
          "type": "address"
        },
        {
          "internalType": "address",
          "name": "_bakcContractAddress",
          "type": "address"
        }
      ],
      "stateMutability": "nonpayable",
      "type": "constructor"
    },
    {
      "inputs": [],
      "name": "BAKCAlreadyPaired",
      "type": "error"
    },
    {
      "inputs": [],
      "name": "BAKCNotOwnedOrPaired",
      "type": "error"
    },
    {
      "inputs": [],
      "name": "CallerNotOwner",
      "type": "error"
    },
    {
      "inputs": [],
      "name": "DepositMoreThanOneAPE",
      "type": "error"
    },
    {
      "inputs": [],
      "name": "EndNotWholeHour",
      "type": "error"
    },
    {
      "inputs": [],
      "name": "ExceededCapAmount",
      "type": "error"
    },
    {
      "inputs": [],
      "name": "ExceededStakedAmount",
      "type": "error"
    },
    {
      "inputs": [],
      "name": "InvalidPoolId",
      "type": "error"
    },
    {
      "inputs": [],
      "name": "MainTokenNotOwnedOrPaired",
      "type": "error"
    },
    {
      "inputs": [],
      "name": "NeitherTokenInPairOwnedByCaller",
      "type": "error"
    },
    {
      "inputs": [],
      "name": "NotOwnerOfBAKC",
      "type": "error"
    },
    {
      "inputs": [],
      "name": "NotOwnerOfMain",
      "type": "error"
    },
    {
      "inputs": [],
      "name": "ProvidedTokensNotPaired",
      "type": "error"
    },
    {
      "inputs": [],
      "name": "SplitPairCantPartiallyWithdraw",
      "type": "error"
    },
    {
      "inputs": [],
      "name": "StartMustBeGreaterThanEnd",
      "type": "error"
    },
    {
      "inputs": [],
      "name": "StartMustEqualLastEnd",
      "type": "error"
    },
    {
      "inputs": [],
      "name": "StartNotWholeHour",
      "type": "error"
    },
    {
      "inputs": [],
      "name": "UncommitWrongParameters",
      "type": "error"
    },
    {
      "anonymous": false,
      "inputs": [
        {
          "indexed": true,
          "internalType": "address",
          "name": "user",
          "type": "address"
        },
        {
          "indexed": false,
          "internalType": "uint256",
          "name": "amount",
          "type": "uint256"
        },
        {
          "indexed": false,
          "internalType": "address",
          "name": "recipient",
          "type": "address"
        }
      ],
      "name": "ClaimRewards",
      "type": "event"
    },
    {
      "anonymous": false,
      "inputs": [
        {
          "indexed": true,
          "internalType": "address",
          "name": "user",
          "type": "address"
        },
        {
          "indexed": true,
          "internalType": "uint256",
          "name": "poolId",
          "type": "uint256"
        },
        {
          "indexed": false,
          "internalType": "uint256",
          "name": "amount",
          "type": "uint256"
        },
        {
          "indexed": false,
          "internalType": "uint256",
          "name": "tokenId",
          "type": "uint256"
        }
      ],
      "name": "ClaimRewardsNft",
      "type": "event"
    },
    {
      "anonymous": false,
      "inputs": [
        {
          "indexed": true,
          "internalType": "address",
          "name": "user",
          "type": "address"
        },
        {
          "indexed": false,
          "internalType": "uint256",
          "name": "amount",
          "type": "uint256"
        },
        {
          "indexed": false,
          "internalType": "uint256",
          "name": "mainTypePoolId",
          "type": "uint256"
        },
        {
          "indexed": false,
          "internalType": "uint256",
          "name": "mainTokenId",
          "type": "uint256"
        },
        {
          "indexed": false,
          "internalType": "uint256",
          "name": "bakcTokenId",
          "type": "uint256"
        }
      ],
      "name": "ClaimRewardsPairNft",
      "type": "event"
    },
    {
      "anonymous": false,
      "inputs": [
        {
          "indexed": true,
          "internalType": "address",
          "name": "user",
          "type": "address"
        },
        {
          "indexed": false,
          "internalType": "uint256",
          "name": "amount",
          "type": "uint256"
        },
        {
          "indexed": false,
          "internalType": "address",
          "name": "recipient",
          "type": "address"
        }
      ],
      "name": "Deposit",
      "type": "event"
    },
    {
      "anonymous": false,
      "inputs": [
        {
          "indexed": true,
          "internalType": "address",
          "name": "user",
          "type": "address"
        },
        {
          "indexed": true,
          "internalType": "uint256",
          "name": "poolId",
          "type": "uint256"
        },
        {
          "indexed": false,
          "internalType": "uint256",
          "name": "amount",
          "type": "uint256"
        },
        {
          "indexed": false,
          "internalType": "uint256",
          "name": "tokenId",
          "type": "uint256"
        }
      ],
      "name": "DepositNft",
      "type": "event"
    },
    {
      "anonymous": false,
      "inputs": [
        {
          "indexed": true,
          "internalType": "address",
          "name": "user",
          "type": "address"
        },
        {
          "indexed": false,
          "internalType": "uint256",
          "name": "amount",
          "type": "uint256"
        },
        {
          "indexed": false,
          "internalType": "uint256",
          "name": "mainTypePoolId",
          "type": "uint256"
        },
        {
          "indexed": false,
          "internalType": "uint256",
          "name": "mainTokenId",
          "type": "uint256"
        },
        {
          "indexed": false,
          "internalType": "uint256",
          "name": "bakcTokenId",
          "type": "uint256"
        }
      ],
      "name": "DepositPairNft",
      "type": "event"
    },
    {
      "anonymous": false,
      "inputs": [
        {
          "indexed": true,
          "internalType": "address",
          "name": "previousOwner",
          "type": "address"
        },
        {
          "indexed": true,
          "internalType": "address",
          "name": "newOwner",
          "type": "address"
        }
      ],
      "name": "OwnershipTransferred",
      "type": "event"
    },
    {
      "anonymous": false,
      "inputs": [
        {
          "indexed": true,
          "internalType": "uint256",
          "name": "poolId",
          "type": "uint256"
        },
        {
          "indexed": false,
          "internalType": "uint256",
          "name": "lastRewardedBlock",
          "type": "uint256"
        },
        {
          "indexed": false,
          "internalType": "uint256",
          "name": "stakedAmount",
          "type": "uint256"
        },
        {
          "indexed": false,
          "internalType": "uint256",
          "name": "accumulatedRewardsPerShare",
          "type": "uint256"
        }
      ],
      "name": "UpdatePool",
      "type": "event"
    },
    {
      "anonymous": false,
      "inputs": [
        {
          "indexed": true,
          "internalType": "address",
          "name": "user",
          "type": "address"
        },
        {
          "indexed": false,
          "internalType": "uint256",
          "name": "amount",
          "type": "uint256"
        },
        {
          "indexed": false,
          "internalType": "address",
          "name": "recipient",
          "type": "address"
        }
      ],
      "name": "Withdraw",
      "type": "event"
    },
    {
      "anonymous": false,
      "inputs": [
        {
          "indexed": true,
          "internalType": "address",
          "name": "user",
          "type": "address"
        },
        {
          "indexed": true,
          "internalType": "uint256",
          "name": "poolId",
          "type": "uint256"
        },
        {
          "indexed": false,
          "internalType": "uint256",
          "name": "amount",
          "type": "uint256"
        },
        {
          "indexed": false,
          "internalType": "address",
          "name": "recipient",
          "type": "address"
        },
        {
          "indexed": false,
          "internalType": "uint256",
          "name": "tokenId",
          "type": "uint256"
        }
      ],
      "name": "WithdrawNft",
      "type": "event"
    },
    {
      "anonymous": false,
      "inputs": [
        {
          "indexed": true,
          "internalType": "address",
          "name": "user",
          "type": "address"
        },
        {
          "indexed": false,
          "internalType": "uint256",
          "name": "amount",
          "type": "uint256"
        },
        {
          "indexed": false,
          "internalType": "uint256",
          "name": "mainTypePoolId",
          "type": "uint256"
        },
        {
          "indexed": false,
          "internalType": "uint256",
          "name": "mainTokenId",
          "type": "uint256"
        },
        {
          "indexed": false,
          "internalType": "uint256",
          "name": "bakcTokenId",
          "type": "uint256"
        }
      ],
      "name": "WithdrawPairNft",
      "type": "event"
    },
    {
      "inputs": [
        {
          "internalType": "uint256",
          "name": "_poolId",
          "type": "uint256"
        },
        {
          "internalType": "uint256",
          "name": "_amount",
          "type": "uint256"
        },
        {
          "internalType": "uint256",
          "name": "_startTimestamp",
          "type": "uint256"
        },
        {
          "internalType": "uint256",
          "name": "_endTimeStamp",
          "type": "uint256"
        },
        {
          "internalType": "uint256",
          "name": "_capPerPosition",
          "type": "uint256"
        }
      ],
      "name": "addTimeRange",
      "outputs": [],
      "stateMutability": "nonpayable",
      "type": "function"
    },
    {
      "inputs": [
        {
          "internalType": "address",
          "name": "",
          "type": "address"
        }
      ],
      "name": "addressPosition",
      "outputs": [
        {
          "internalType": "uint256",
          "name": "stakedAmount",
          "type": "uint256"
        },
        {
          "internalType": "int256",
          "name": "rewardsDebt",
          "type": "int256"
        }
      ],
      "stateMutability": "view",
      "type": "function"
    },
    {
      "inputs": [],
      "name": "apeCoin",
      "outputs": [
        {
          "internalType": "contract IERC20",
          "name": "",
          "type": "address"
        }
      ],
      "stateMutability": "view",
      "type": "function"
    },
    {
      "inputs": [
        {
          "internalType": "uint256",
          "name": "",
          "type": "uint256"
        },
        {
          "internalType": "uint256",
          "name": "",
          "type": "uint256"
        }
      ],
      "name": "bakcToMain",
      "outputs": [
        {
          "internalType": "uint248",
          "name": "tokenId",
          "type": "uint248"
        },
        {
          "internalType": "bool",
          "name": "isPaired",
          "type": "bool"
        }
      ],
      "stateMutability": "view",
      "type": "function"
    },
    {
      "inputs": [
        {
          "internalType": "address",
          "name": "_recipient",
          "type": "address"
        }
      ],
      "name": "claimApeCoin",
      "outputs": [],
      "stateMutability": "nonpayable",
      "type": "function"
    },
    {
      "inputs": [
        {
          "components": [
            {
              "internalType": "uint128",
              "name": "mainTokenId",
              "type": "uint128"
            },
            {
              "internalType": "uint128",
              "name": "bakcTokenId",
              "type": "uint128"
            }
          ],
          "internalType": "struct ApeCoinStaking.PairNft[]",
          "name": "_baycPairs",
          "type": "tuple[]"
        },
        {
          "components": [
            {
              "internalType": "uint128",
              "name": "mainTokenId",
              "type": "uint128"
            },
            {
              "internalType": "uint128",
              "name": "bakcTokenId",
              "type": "uint128"
            }
          ],
          "internalType": "struct ApeCoinStaking.PairNft[]",
          "name": "_maycPairs",
          "type": "tuple[]"
        },
        {
          "internalType": "address",
          "name": "_recipient",
          "type": "address"
        }
      ],
      "name": "claimBAKC",
      "outputs": [],
      "stateMutability": "nonpayable",
      "type": "function"
    },
    {
      "inputs": [
        {
          "internalType": "uint256[]",
          "name": "_nfts",
          "type": "uint256[]"
        },
        {
          "internalType": "address",
          "name": "_recipient",
          "type": "address"
        }
      ],
      "name": "claimBAYC",
      "outputs": [],
      "stateMutability": "nonpayable",
      "type": "function"
    },
    {
      "inputs": [
        {
          "internalType": "uint256[]",
          "name": "_nfts",
          "type": "uint256[]"
        },
        {
          "internalType": "address",
          "name": "_recipient",
          "type": "address"
        }
      ],
      "name": "claimMAYC",
      "outputs": [],
      "stateMutability": "nonpayable",
      "type": "function"
    },
    {
      "inputs": [],
      "name": "claimSelfApeCoin",
      "outputs": [],
      "stateMutability": "nonpayable",
      "type": "function"
    },
    {
      "inputs": [
        {
          "components": [
            {
              "internalType": "uint128",
              "name": "mainTokenId",
              "type": "uint128"
            },
            {
              "internalType": "uint128",
              "name": "bakcTokenId",
              "type": "uint128"
            }
          ],
          "internalType": "struct ApeCoinStaking.PairNft[]",
          "name": "_baycPairs",
          "type": "tuple[]"
        },
        {
          "components": [
            {
              "internalType": "uint128",
              "name": "mainTokenId",
              "type": "uint128"
            },
            {
              "internalType": "uint128",
              "name": "bakcTokenId",
              "type": "uint128"
            }
          ],
          "internalType": "struct ApeCoinStaking.PairNft[]",
          "name": "_maycPairs",
          "type": "tuple[]"
        }
      ],
      "name": "claimSelfBAKC",
      "outputs": [],
      "stateMutability": "nonpayable",
      "type": "function"
    },
    {
      "inputs": [
        {
          "internalType": "uint256[]",
          "name": "_nfts",
          "type": "uint256[]"
        }
      ],
      "name": "claimSelfBAYC",
      "outputs": [],
      "stateMutability": "nonpayable",
      "type": "function"
    },
    {
      "inputs": [
        {
          "internalType": "uint256[]",
          "name": "_nfts",
          "type": "uint256[]"
        }
      ],
      "name": "claimSelfMAYC",
      "outputs": [],
      "stateMutability": "nonpayable",
      "type": "function"
    },
    {
      "inputs": [
        {
          "internalType": "uint256",
          "name": "_amount",
          "type": "uint256"
        },
        {
          "internalType": "address",
          "name": "_recipient",
          "type": "address"
        }
      ],
      "name": "depositApeCoin",
      "outputs": [],
      "stateMutability": "nonpayable",
      "type": "function"
    },
    {
      "inputs": [
        {
          "components": [
            {
              "internalType": "uint32",
              "name": "mainTokenId",
              "type": "uint32"
            },
            {
              "internalType": "uint32",
              "name": "bakcTokenId",
              "type": "uint32"
            },
            {
              "internalType": "uint184",
              "name": "amount",
              "type": "uint184"
            }
          ],
          "internalType": "struct ApeCoinStaking.PairNftDepositWithAmount[]",
          "name": "_baycPairs",
          "type": "tuple[]"
        },
        {
          "components": [
            {
              "internalType": "uint32",
              "name": "mainTokenId",
              "type": "uint32"
            },
            {
              "internalType": "uint32",
              "name": "bakcTokenId",
              "type": "uint32"
            },
            {
              "internalType": "uint184",
              "name": "amount",
              "type": "uint184"
            }
          ],
          "internalType": "struct ApeCoinStaking.PairNftDepositWithAmount[]",
          "name": "_maycPairs",
          "type": "tuple[]"
        }
      ],
      "name": "depositBAKC",
      "outputs": [],
      "stateMutability": "nonpayable",
      "type": "function"
    },
    {
      "inputs": [
        {
          "components": [
            {
              "internalType": "uint32",
              "name": "tokenId",
              "type": "uint32"
            },
            {
              "internalType": "uint224",
              "name": "amount",
              "type": "uint224"
            }
          ],
          "internalType": "struct ApeCoinStaking.SingleNft[]",
          "name": "_nfts",
          "type": "tuple[]"
        }
      ],
      "name": "depositBAYC",
      "outputs": [],
      "stateMutability": "nonpayable",
      "type": "function"
    },
    {
      "inputs": [
        {
          "components": [
            {
              "internalType": "uint32",
              "name": "tokenId",
              "type": "uint32"
            },
            {
              "internalType": "uint224",
              "name": "amount",
              "type": "uint224"
            }
          ],
          "internalType": "struct ApeCoinStaking.SingleNft[]",
          "name": "_nfts",
          "type": "tuple[]"
        }
      ],
      "name": "depositMAYC",
      "outputs": [],
      "stateMutability": "nonpayable",
      "type": "function"
    },
    {
      "inputs": [
        {
          "internalType": "uint256",
          "name": "_amount",
          "type": "uint256"
        }
      ],
      "name": "depositSelfApeCoin",
      "outputs": [],
      "stateMutability": "nonpayable",
      "type": "function"
    },
    {
      "inputs": [
        {
          "internalType": "address",
          "name": "_address",
          "type": "address"
        }
      ],
      "name": "getAllStakes",
      "outputs": [
        {
          "components": [
            {
              "internalType": "uint256",
              "name": "poolId",
              "type": "uint256"
            },
            {
              "internalType": "uint256",
              "name": "tokenId",
              "type": "uint256"
            },
            {
              "internalType": "uint256",
              "name": "deposited",
              "type": "uint256"
            },
            {
              "internalType": "uint256",
              "name": "unclaimed",
              "type": "uint256"
            },
            {
              "internalType": "uint256",
              "name": "rewards24hr",
              "type": "uint256"
            },
            {
              "components": [
                {
                  "internalType": "uint256",
                  "name": "mainTokenId",
                  "type": "uint256"
                },
                {
                  "internalType": "uint256",
                  "name": "mainTypePoolId",
                  "type": "uint256"
                }
              ],
              "internalType": "struct ApeCoinStaking.DashboardPair",
              "name": "pair",
              "type": "tuple"
            }
          ],
          "internalType": "struct ApeCoinStaking.DashboardStake[]",
          "name": "",
          "type": "tuple[]"
        }
      ],
      "stateMutability": "view",
      "type": "function"
    },
    {
      "inputs": [
        {
          "internalType": "address",
          "name": "_address",
          "type": "address"
        }
      ],
      "name": "getApeCoinStake",
      "outputs": [
        {
          "components": [
            {
              "internalType": "uint256",
              "name": "poolId",
              "type": "uint256"
            },
            {
              "internalType": "uint256",
              "name": "tokenId",
              "type": "uint256"
            },
            {
              "internalType": "uint256",
              "name": "deposited",
              "type": "uint256"
            },
            {
              "internalType": "uint256",
              "name": "unclaimed",
              "type": "uint256"
            },
            {
              "internalType": "uint256",
              "name": "rewards24hr",
              "type": "uint256"
            },
            {
              "components": [
                {
                  "internalType": "uint256",
                  "name": "mainTokenId",
                  "type": "uint256"
                },
                {
                  "internalType": "uint256",
                  "name": "mainTypePoolId",
                  "type": "uint256"
                }
              ],
              "internalType": "struct ApeCoinStaking.DashboardPair",
              "name": "pair",
              "type": "tuple"
            }
          ],
          "internalType": "struct ApeCoinStaking.DashboardStake",
          "name": "",
          "type": "tuple"
        }
      ],
      "stateMutability": "view",
      "type": "function"
    },
    {
      "inputs": [
        {
          "internalType": "address",
          "name": "_address",
          "type": "address"
        }
      ],
      "name": "getBakcStakes",
      "outputs": [
        {
          "components": [
            {
              "internalType": "uint256",
              "name": "poolId",
              "type": "uint256"
            },
            {
              "internalType": "uint256",
              "name": "tokenId",
              "type": "uint256"
            },
            {
              "internalType": "uint256",
              "name": "deposited",
              "type": "uint256"
            },
            {
              "internalType": "uint256",
              "name": "unclaimed",
              "type": "uint256"
            },
            {
              "internalType": "uint256",
              "name": "rewards24hr",
              "type": "uint256"
            },
            {
              "components": [
                {
                  "internalType": "uint256",
                  "name": "mainTokenId",
                  "type": "uint256"
                },
                {
                  "internalType": "uint256",
                  "name": "mainTypePoolId",
                  "type": "uint256"
                }
              ],
              "internalType": "struct ApeCoinStaking.DashboardPair",
              "name": "pair",
              "type": "tuple"
            }
          ],
          "internalType": "struct ApeCoinStaking.DashboardStake[]",
          "name": "",
          "type": "tuple[]"
        }
      ],
      "stateMutability": "view",
      "type": "function"
    },
    {
      "inputs": [
        {
          "internalType": "address",
          "name": "_address",
          "type": "address"
        }
      ],
      "name": "getBaycStakes",
      "outputs": [
        {
          "components": [
            {
              "internalType": "uint256",
              "name": "poolId",
              "type": "uint256"
            },
            {
              "internalType": "uint256",
              "name": "tokenId",
              "type": "uint256"
            },
            {
              "internalType": "uint256",
              "name": "deposited",
              "type": "uint256"
            },
            {
              "internalType": "uint256",
              "name": "unclaimed",
              "type": "uint256"
            },
            {
              "internalType": "uint256",
              "name": "rewards24hr",
              "type": "uint256"
            },
            {
              "components": [
                {
                  "internalType": "uint256",
                  "name": "mainTokenId",
                  "type": "uint256"
                },
                {
                  "internalType": "uint256",
                  "name": "mainTypePoolId",
                  "type": "uint256"
                }
              ],
              "internalType": "struct ApeCoinStaking.DashboardPair",
              "name": "pair",
              "type": "tuple"
            }
          ],
          "internalType": "struct ApeCoinStaking.DashboardStake[]",
          "name": "",
          "type": "tuple[]"
        }
      ],
      "stateMutability": "view",
      "type": "function"
    },
    {
      "inputs": [
        {
          "internalType": "address",
          "name": "_address",
          "type": "address"
        }
      ],
      "name": "getMaycStakes",
      "outputs": [
        {
          "components": [
            {
              "internalType": "uint256",
              "name": "poolId",
              "type": "uint256"
            },
            {
              "internalType": "uint256",
              "name": "tokenId",
              "type": "uint256"
            },
            {
              "internalType": "uint256",
              "name": "deposited",
              "type": "uint256"
            },
            {
              "internalType": "uint256",
              "name": "unclaimed",
              "type": "uint256"
            },
            {
              "internalType": "uint256",
              "name": "rewards24hr",
              "type": "uint256"
            },
            {
              "components": [
                {
                  "internalType": "uint256",
                  "name": "mainTokenId",
                  "type": "uint256"
                },
                {
                  "internalType": "uint256",
                  "name": "mainTypePoolId",
                  "type": "uint256"
                }
              ],
              "internalType": "struct ApeCoinStaking.DashboardPair",
              "name": "pair",
              "type": "tuple"
            }
          ],
          "internalType": "struct ApeCoinStaking.DashboardStake[]",
          "name": "",
          "type": "tuple[]"
        }
      ],
      "stateMutability": "view",
      "type": "function"
    },
    {
      "inputs": [],
      "name": "getPoolsUI",
      "outputs": [
        {
          "components": [
            {
              "internalType": "uint256",
              "name": "poolId",
              "type": "uint256"
            },
            {
              "internalType": "uint256",
              "name": "stakedAmount",
              "type": "uint256"
            },
            {
              "components": [
                {
                  "internalType": "uint48",
                  "name": "startTimestampHour",
                  "type": "uint48"
                },
                {
                  "internalType": "uint48",
                  "name": "endTimestampHour",
                  "type": "uint48"
                },
                {
                  "internalType": "uint96",
                  "name": "rewardsPerHour",
                  "type": "uint96"
                },
                {
                  "internalType": "uint96",
                  "name": "capPerPosition",
                  "type": "uint96"
                }
              ],
              "internalType": "struct ApeCoinStaking.TimeRange",
              "name": "currentTimeRange",
              "type": "tuple"
            }
          ],
          "internalType": "struct ApeCoinStaking.PoolUI",
          "name": "",
          "type": "tuple"
        },
        {
          "components": [
            {
              "internalType": "uint256",
              "name": "poolId",
              "type": "uint256"
            },
            {
              "internalType": "uint256",
              "name": "stakedAmount",
              "type": "uint256"
            },
            {
              "components": [
                {
                  "internalType": "uint48",
                  "name": "startTimestampHour",
                  "type": "uint48"
                },
                {
                  "internalType": "uint48",
                  "name": "endTimestampHour",
                  "type": "uint48"
                },
                {
                  "internalType": "uint96",
                  "name": "rewardsPerHour",
                  "type": "uint96"
                },
                {
                  "internalType": "uint96",
                  "name": "capPerPosition",
                  "type": "uint96"
                }
              ],
              "internalType": "struct ApeCoinStaking.TimeRange",
              "name": "currentTimeRange",
              "type": "tuple"
            }
          ],
          "internalType": "struct ApeCoinStaking.PoolUI",
          "name": "",
          "type": "tuple"
        },
        {
          "components": [
            {
              "internalType": "uint256",
              "name": "poolId",
              "type": "uint256"
            },
            {
              "internalType": "uint256",
              "name": "stakedAmount",
              "type": "uint256"
            },
            {
              "components": [
                {
                  "internalType": "uint48",
                  "name": "startTimestampHour",
                  "type": "uint48"
                },
                {
                  "internalType": "uint48",
                  "name": "endTimestampHour",
                  "type": "uint48"
                },
                {
                  "internalType": "uint96",
                  "name": "rewardsPerHour",
                  "type": "uint96"
                },
                {
                  "internalType": "uint96",
                  "name": "capPerPosition",
                  "type": "uint96"
                }
              ],
              "internalType": "struct ApeCoinStaking.TimeRange",
              "name": "currentTimeRange",
              "type": "tuple"
            }
          ],
          "internalType": "struct ApeCoinStaking.PoolUI",
          "name": "",
          "type": "tuple"
        },
        {
          "components": [
            {
              "internalType": "uint256",
              "name": "poolId",
              "type": "uint256"
            },
            {
              "internalType": "uint256",
              "name": "stakedAmount",
              "type": "uint256"
            },
            {
              "components": [
                {
                  "internalType": "uint48",
                  "name": "startTimestampHour",
                  "type": "uint48"
                },
                {
                  "internalType": "uint48",
                  "name": "endTimestampHour",
                  "type": "uint48"
                },
                {
                  "internalType": "uint96",
                  "name": "rewardsPerHour",
                  "type": "uint96"
                },
                {
                  "internalType": "uint96",
                  "name": "capPerPosition",
                  "type": "uint96"
                }
              ],
              "internalType": "struct ApeCoinStaking.TimeRange",
              "name": "currentTimeRange",
              "type": "tuple"
            }
          ],
          "internalType": "struct ApeCoinStaking.PoolUI",
          "name": "",
          "type": "tuple"
        }
      ],
      "stateMutability": "view",
      "type": "function"
    },
    {
      "inputs": [
        {
          "internalType": "address",
          "name": "_address",
          "type": "address"
        }
      ],
      "name": "getSplitStakes",
      "outputs": [
        {
          "components": [
            {
              "internalType": "uint256",
              "name": "poolId",
              "type": "uint256"
            },
            {
              "internalType": "uint256",
              "name": "tokenId",
              "type": "uint256"
            },
            {
              "internalType": "uint256",
              "name": "deposited",
              "type": "uint256"
            },
            {
              "internalType": "uint256",
              "name": "unclaimed",
              "type": "uint256"
            },
            {
              "internalType": "uint256",
              "name": "rewards24hr",
              "type": "uint256"
            },
            {
              "components": [
                {
                  "internalType": "uint256",
                  "name": "mainTokenId",
                  "type": "uint256"
                },
                {
                  "internalType": "uint256",
                  "name": "mainTypePoolId",
                  "type": "uint256"
                }
              ],
              "internalType": "struct ApeCoinStaking.DashboardPair",
              "name": "pair",
              "type": "tuple"
            }
          ],
          "internalType": "struct ApeCoinStaking.DashboardStake[]",
          "name": "",
          "type": "tuple[]"
        }
      ],
      "stateMutability": "view",
      "type": "function"
    },
    {
      "inputs": [
        {
          "internalType": "uint256",
          "name": "_poolId",
          "type": "uint256"
        },
        {
          "internalType": "uint256",
          "name": "_index",
          "type": "uint256"
        }
      ],
      "name": "getTimeRangeBy",
      "outputs": [
        {
          "components": [
            {
              "internalType": "uint48",
              "name": "startTimestampHour",
              "type": "uint48"
            },
            {
              "internalType": "uint48",
              "name": "endTimestampHour",
              "type": "uint48"
            },
            {
              "internalType": "uint96",
              "name": "rewardsPerHour",
              "type": "uint96"
            },
            {
              "internalType": "uint96",
              "name": "capPerPosition",
              "type": "uint96"
            }
          ],
          "internalType": "struct ApeCoinStaking.TimeRange",
          "name": "",
          "type": "tuple"
        }
      ],
      "stateMutability": "view",
      "type": "function"
    },
    {
      "inputs": [
        {
          "internalType": "uint256",
          "name": "",
          "type": "uint256"
        },
        {
          "internalType": "uint256",
          "name": "",
          "type": "uint256"
        }
      ],
      "name": "mainToBakc",
      "outputs": [
        {
          "internalType": "uint248",
          "name": "tokenId",
          "type": "uint248"
        },
        {
          "internalType": "bool",
          "name": "isPaired",
          "type": "bool"
        }
      ],
      "stateMutability": "view",
      "type": "function"
    },
    {
      "inputs": [
        {
          "internalType": "uint256",
          "name": "",
          "type": "uint256"
        }
      ],
      "name": "nftContracts",
      "outputs": [
        {
          "internalType": "contract ERC721Enumerable",
          "name": "",
          "type": "address"
        }
      ],
      "stateMutability": "view",
      "type": "function"
    },
    {
      "inputs": [
        {
          "internalType": "uint256",
          "name": "",
          "type": "uint256"
        },
        {
          "internalType": "uint256",
          "name": "",
          "type": "uint256"
        }
      ],
      "name": "nftPosition",
      "outputs": [
        {
          "internalType": "uint256",
          "name": "stakedAmount",
          "type": "uint256"
        },
        {
          "internalType": "int256",
          "name": "rewardsDebt",
          "type": "int256"
        }
      ],
      "stateMutability": "view",
      "type": "function"
    },
    {
      "inputs": [],
      "name": "owner",
      "outputs": [
        {
          "internalType": "address",
          "name": "",
          "type": "address"
        }
      ],
      "stateMutability": "view",
      "type": "function"
    },
    {
      "inputs": [
        {
          "internalType": "uint256",
          "name": "_poolId",
          "type": "uint256"
        },
        {
          "internalType": "address",
          "name": "_address",
          "type": "address"
        },
        {
          "internalType": "uint256",
          "name": "_tokenId",
          "type": "uint256"
        }
      ],
      "name": "pendingRewards",
      "outputs": [
        {
          "internalType": "uint256",
          "name": "",
          "type": "uint256"
        }
      ],
      "stateMutability": "view",
      "type": "function"
    },
    {
      "inputs": [
        {
          "internalType": "uint256",
          "name": "",
          "type": "uint256"
        }
      ],
      "name": "pools",
      "outputs": [
        {
          "internalType": "uint48",
          "name": "lastRewardedTimestampHour",
          "type": "uint48"
        },
        {
          "internalType": "uint16",
          "name": "lastRewardsRangeIndex",
          "type": "uint16"
        },
        {
          "internalType": "uint96",
          "name": "stakedAmount",
          "type": "uint96"
        },
        {
          "internalType": "uint96",
          "name": "accumulatedRewardsPerShare",
          "type": "uint96"
        }
      ],
      "stateMutability": "view",
      "type": "function"
    },
    {
      "inputs": [
        {
          "internalType": "uint256",
          "name": "_poolId",
          "type": "uint256"
        }
      ],
      "name": "removeLastTimeRange",
      "outputs": [],
      "stateMutability": "nonpayable",
      "type": "function"
    },
    {
      "inputs": [],
      "name": "renounceOwnership",
      "outputs": [],
      "stateMutability": "nonpayable",
      "type": "function"
    },
    {
      "inputs": [
        {
          "internalType": "uint256",
          "name": "_poolId",
          "type": "uint256"
        },
        {
          "internalType": "uint256",
          "name": "_from",
          "type": "uint256"
        },
        {
          "internalType": "uint256",
          "name": "_to",
          "type": "uint256"
        }
      ],
      "name": "rewardsBy",
      "outputs": [
        {
          "internalType": "uint256",
          "name": "",
          "type": "uint256"
        },
        {
          "internalType": "uint256",
          "name": "",
          "type": "uint256"
        }
      ],
      "stateMutability": "view",
      "type": "function"
    },
    {
      "inputs": [
        {
          "internalType": "address",
          "name": "_address",
          "type": "address"
        }
      ],
      "name": "stakedTotal",
      "outputs": [
        {
          "internalType": "uint256",
          "name": "",
          "type": "uint256"
        }
      ],
      "stateMutability": "view",
      "type": "function"
    },
    {
      "inputs": [
        {
          "internalType": "address",
          "name": "newOwner",
          "type": "address"
        }
      ],
      "name": "transferOwnership",
      "outputs": [],
      "stateMutability": "nonpayable",
      "type": "function"
    },
    {
      "inputs": [
        {
          "internalType": "uint256",
          "name": "_poolId",
          "type": "uint256"
        }
      ],
      "name": "updatePool",
      "outputs": [],
      "stateMutability": "nonpayable",
      "type": "function"
    },
    {
      "inputs": [
        {
          "internalType": "uint256",
          "name": "_amount",
          "type": "uint256"
        },
        {
          "internalType": "address",
          "name": "_recipient",
          "type": "address"
        }
      ],
      "name": "withdrawApeCoin",
      "outputs": [],
      "stateMutability": "nonpayable",
      "type": "function"
    },
    {
      "inputs": [
        {
          "components": [
            {
              "internalType": "uint32",
              "name": "mainTokenId",
              "type": "uint32"
            },
            {
              "internalType": "uint32",
              "name": "bakcTokenId",
              "type": "uint32"
            },
            {
              "internalType": "uint184",
              "name": "amount",
              "type": "uint184"
            },
            {
              "internalType": "bool",
              "name": "isUncommit",
              "type": "bool"
            }
          ],
          "internalType": "struct ApeCoinStaking.PairNftWithdrawWithAmount[]",
          "name": "_baycPairs",
          "type": "tuple[]"
        },
        {
          "components": [
            {
              "internalType": "uint32",
              "name": "mainTokenId",
              "type": "uint32"
            },
            {
              "internalType": "uint32",
              "name": "bakcTokenId",
              "type": "uint32"
            },
            {
              "internalType": "uint184",
              "name": "amount",
              "type": "uint184"
            },
            {
              "internalType": "bool",
              "name": "isUncommit",
              "type": "bool"
            }
          ],
          "internalType": "struct ApeCoinStaking.PairNftWithdrawWithAmount[]",
          "name": "_maycPairs",
          "type": "tuple[]"
        }
      ],
      "name": "withdrawBAKC",
      "outputs": [],
      "stateMutability": "nonpayable",
      "type": "function"
    },
    {
      "inputs": [
        {
          "components": [
            {
              "internalType": "uint32",
              "name": "tokenId",
              "type": "uint32"
            },
            {
              "internalType": "uint224",
              "name": "amount",
              "type": "uint224"
            }
          ],
          "internalType": "struct ApeCoinStaking.SingleNft[]",
          "name": "_nfts",
          "type": "tuple[]"
        },
        {
          "internalType": "address",
          "name": "_recipient",
          "type": "address"
        }
      ],
      "name": "withdrawBAYC",
      "outputs": [],
      "stateMutability": "nonpayable",
      "type": "function"
    },
    {
      "inputs": [
        {
          "components": [
            {
              "internalType": "uint32",
              "name": "tokenId",
              "type": "uint32"
            },
            {
              "internalType": "uint224",
              "name": "amount",
              "type": "uint224"
            }
          ],
          "internalType": "struct ApeCoinStaking.SingleNft[]",
          "name": "_nfts",
          "type": "tuple[]"
        },
        {
          "internalType": "address",
          "name": "_recipient",
          "type": "address"
        }
      ],
      "name": "withdrawMAYC",
      "outputs": [],
      "stateMutability": "nonpayable",
      "type": "function"
    },
    {
      "inputs": [
        {
          "internalType": "uint256",
          "name": "_amount",
          "type": "uint256"
        }
      ],
      "name": "withdrawSelfApeCoin",
      "outputs": [],
      "stateMutability": "nonpayable",
      "type": "function"
    },
    {
      "inputs": [
        {
          "components": [
            {
              "internalType": "uint32",
              "name": "tokenId",
              "type": "uint32"
            },
            {
              "internalType": "uint224",
              "name": "amount",
              "type": "uint224"
            }
          ],
          "internalType": "struct ApeCoinStaking.SingleNft[]",
          "name": "_nfts",
          "type": "tuple[]"
        }
      ],
      "name": "withdrawSelfBAYC",
      "outputs": [],
      "stateMutability": "nonpayable",
      "type": "function"
    },
    {
      "inputs": [
        {
          "components": [
            {
              "internalType": "uint32",
              "name": "tokenId",
              "type": "uint32"
            },
            {
              "internalType": "uint224",
              "name": "amount",
              "type": "uint224"
            }
          ],
          "internalType": "struct ApeCoinStaking.SingleNft[]",
          "name": "_nfts",
          "type": "tuple[]"
        }
      ],
      "name": "withdrawSelfMAYC",
      "outputs": [],
      "stateMutability": "nonpayable",
      "type": "function"
    }
  ],
  "transactionHash": "0x9d00658fe0fc783f6479ce7158db92f2d563c00a72e282eb1cea5ba7e921144c",
  "args": [
    "0x328507DC29C95c170B56a1b3A758eB7a9E73455c",
    "0xF40299b626ef6E197F5d9DE9315076CAB788B6Ef",
    "0x3f228cBceC3aD130c45D21664f2C7f5b23130d23",
    "0xd60d682764Ee04e54707Bee7B564DC65b31884D0"
  ],
  "solcInputHash": "9e1e6dee5aeb57ae73c5c9721affdabd",
  "bytecode": "0x60e0604052600060a081905260c081905260028190556003553480156200002557600080fd5b5060405162005df438038062005df483398101604081905262000048916200016f565b620000533362000102565b6001600160a01b03938416608052600c6020527fd421a5181c571bba3f01190c922c3b2a896fc1d84e86c9f17ac10e67ebef8b5c80549385166001600160a01b03199485161790557f5d6016397a73f5e079297ac5a36fef17b4d9c3831618e63ab105738020ddd72080549285169284169290921790915560036000527fc0da782485e77ae272268ae0a3ff44c1552ecb60b3743924de17a815e0a3cfd78054919093169116179055620001cc565b600080546001600160a01b038381166001600160a01b0319831681178455604051919092169283917f8be0079c531659141344cd1fd0a4f28419497f9722a3daafe3b4186f6b6457e09190a35050565b80516001600160a01b03811681146200016a57600080fd5b919050565b600080600080608085870312156200018657600080fd5b620001918562000152565b9350620001a16020860162000152565b9250620001b16040860162000152565b9150620001c16060860162000152565b905092959194509250565b608051615bdb620002196000396000818161058801528181611c63015281816122890152818161377a015281816139f501528181613c450152818161416d015261471d0152615bdb6000f3fe608060405234801561001057600080fd5b50600436106102735760003560e01c80639860037e11610151578063d346cbd9116100c3578063e4e8184711610087578063e4e81847146106b5578063ed23c906146106c8578063f2fde38b146106db578063f4c6f602146106ee578063f567918914610701578063fe31446c1461071457600080fd5b8063d346cbd914610649578063d363dc171461065c578063d7464ee91461066f578063d9f11fb214610682578063e0347e4f146106a257600080fd5b8063aceb362911610115578063aceb3629146105aa578063b4f95752146105bd578063b682e859146105fd578063bb628f2014610610578063bd5023a914610623578063c63389c31461063657600080fd5b80639860037e146104dd57806398ada4a2146104f05780639dcaafb414610522578063ac4afa3814610535578063ac7ad9ba1461058357600080fd5b8063304f88c0116101ea578063715018a6116101ae578063715018a61461047e578063770dade5146104865780637f60d3381461049e5780638279e760146104b15780638da5cb5b146104b95780638ecbffa7146104ca57600080fd5b8063304f88c0146103d3578063381b46821461043257806346583a051461044557806351eb05a61461045857806357a263001461046b57600080fd5b80630bb4d82a1161023c5780630bb4d82a146103255780630ed368f11461036657806320a325d01461037957806326fb22491461038c5780632c018f911461039f5780632ee2de66146103c057600080fd5b8062191b441461027857806304238994146102a157806305ece226146102b457806307f5fa4a146102f057806309e833c614610305575b600080fd5b61028b610286366004615102565b610727565b6040516102989190615166565b60405180910390f35b61028b6102af366004615102565b61073a565b6102db6102c2366004615102565b6001602081905260009182526040909120805491015482565b60408051928352602083019190915201610298565b6103036102fe3660046151ff565b6109c2565b005b610318610313366004615282565b6109ed565b60405161029891906152e5565b61034e6103333660046152f3565b600c602052600090815260409020546001600160a01b031681565b6040516001600160a01b039091168152602001610298565b61028b610374366004615102565b610aa3565b610303610387366004615350565b610d88565b61030361039a3660046153d5565b610d99565b6103b26103ad366004615440565b610dc1565b604051908152602001610298565b6103036103ce366004615102565b611018565b6104136103e1366004615282565b600e6020908152600092835260408084209091529082529020546001600160f81b03811690600160f81b900460ff1682565b604080516001600160f81b039093168352901515602083015201610298565b610303610440366004615350565b611089565b610303610453366004615478565b611096565b6103036104663660046152f3565b6110a2565b6103036104793660046154ad565b611333565b610303611345565b61048e611384565b6040516102989493929190615523565b6103036104ac3660046152f3565b6118a7565b6103036118b4565b6000546001600160a01b031661034e565b6103036104d8366004615478565b6118bd565b61028b6104eb366004615102565b6118c9565b6102db6104fe366004615282565b600d6020908152600092835260408084209091529082529020805460019091015482565b6103036105303660046152f3565b6118d6565b6105486105433660046152f3565b6118e0565b6040805165ffffffffffff909516855261ffff90931660208501526001600160601b0391821692840192909252166060820152608001610298565b61034e7f000000000000000000000000000000000000000000000000000000000000000081565b6103036105b8366004615564565b611929565b6104136105cb366004615282565b600f6020908152600092835260408084209091529082529020546001600160f81b03811690600160f81b900460ff1682565b61030361060b3660046154ad565b611936565b61030361061e36600461559b565b611943565b6103036106313660046155d6565b611be1565b610303610644366004615478565b611d19565b61030361065736600461564a565b611d26565b61030361066a3660046152f3565b611d48565b6102db61067d3660046156a9565b611dd9565b610695610690366004615102565b6120cd565b60405161029891906156d5565b6103036106b03660046156e3565b6121e1565b6103036106c33660046155d6565b6121ee565b6103036106d6366004615564565b612344565b6103036106e9366004615102565b612351565b61028b6106fc366004615102565b6123e9565b6103b261070f366004615102565b6123f6565b610303610722366004615478565b612459565b6060610734826003612466565b92915050565b60606000610747836120cd565b90506000610754846118c9565b90506000610761856123e9565b9050600061076e86610727565b9050600061077b87610aa3565b9050600081518351855187516107919190615758565b61079b9190615758565b6107a59190615758565b6107b0906001615758565b90506000816001600160401b038111156107cc576107cc615770565b60405190808252806020026020018201604052801561080557816020015b6107f261505a565b8152602001906001900390816107ea5790505b50905060008782828151811061081d5761081d615786565b6020026020010181905250806108329061579c565b905060005b87518110156108935787818151811061085257610852615786565b602002602001015183838151811061086c5761086c615786565b6020026020010181905250816108819061579c565b915061088c8161579c565b9050610837565b5060005b86518110156108f3578681815181106108b2576108b2615786565b60200260200101518383815181106108cc576108cc615786565b6020026020010181905250816108e19061579c565b91506108ec8161579c565b9050610897565b5060005b85518110156109535785818151811061091257610912615786565b602002602001015183838151811061092c5761092c615786565b6020026020010181905250816109419061579c565b915061094c8161579c565b90506108f7565b5060005b84518110156109b35784818151811061097257610972615786565b602002602001015183838151811061098c5761098c615786565b6020026020010181905250816109a19061579c565b91506109ac8161579c565b9050610957565b50909998505050505050505050565b6109cc60036110a2565b6109d96001868684612827565b6109e66002848484612827565b5050505050565b60408051608081018252600080825260208201819052918101829052606081019190915260048360048110610a2457610a24615786565b600202016001018281548110610a3c57610a3c615786565b6000918252602091829020604080516080810182526002909302909101805465ffffffffffff8082168552600160301b820416948401949094526001600160601b03600160601b909404841691830191909152600101549091166060820152905092915050565b60016000908152600c6020527fd421a5181c571bba3f01190c922c3b2a896fc1d84e86c9f17ac10e67ebef8b5c546040516370a0823160e01b81526001600160a01b03848116600483015260609392610b4b929116906370a0823190602401602060405180830381865afa158015610b1f573d6000803e3d6000fd5b505050506040513d601f19601f82011682018060405250810190610b4391906157b7565b846001612b1c565b60026000908152600c6020527f5d6016397a73f5e079297ac5a36fef17b4d9c3831618e63ab105738020ddd720546040516370a0823160e01b81526001600160a01b0387811660048301529394509192610bf4929116906370a0823190602401602060405180830381865afa158015610bc8573d6000803e3d6000fd5b505050506040513d601f19601f82011682018060405250810190610bec91906157b7565b856002612b1c565b90506000610c028284615758565b905080610c44576040805160008082526020820190925290610c3a565b610c2761505a565b815260200190600190039081610c1f5790505b5095945050505050565b6000610c5284876001612cb9565b90506000610c6284886002612cb9565b90506000836001600160401b03811115610c7e57610c7e615770565b604051908082528060200260200182016040528015610cb757816020015b610ca461505a565b815260200190600190039081610c9c5790505b5090506000805b8451811015610d1a57848181518110610cd957610cd9615786565b6020026020010151838381518110610cf357610cf3615786565b602002602001018190525081610d089061579c565b9150610d138161579c565b9050610cbe565b5060005b8351811015610d7a57838181518110610d3957610d39615786565b6020026020010151838381518110610d5357610d53615786565b602002602001018190525081610d689061579c565b9150610d738161579c565b9050610d1e565b509098975050505050505050565b610d9560018383336130d9565b5050565b610da360036110a2565b610daf60018585613226565b610dbb60028383613226565b50505050565b60008060048560048110610dd757610dd7615786565b6040805160a08101825260029290920292909201805465ffffffffffff8116835261ffff600160301b8204166020808501919091526001600160601b03600160401b8304811685870152600160a01b90920490911660608401526001820180548551818402810184019096528086529394929360808601939260009084015b82821015610ec85760008481526020908190206040805160808101825260028602909201805465ffffffffffff8082168552600160301b820416848601526001600160601b03600160601b90910481169284019290925260019081015490911660608301529083529092019101610e56565b50505050815250509050600085600014610efa576000868152600d602090815260408083208784529091529020610f13565b6001600160a01b03851660009081526001602052604090205b604080518082019091528154815260019091015460208201528251909150600090610f4a90889065ffffffffffff1661067d61386c565b50606084015184519192506001600160601b031690610f7490610e109065ffffffffffff16615758565b42118015610f8e575060408401516001600160601b031615155b15610fca5760408401516001600160601b0316610fb3670de0b6b3a7640000846157d0565b610fbd9190615805565b610fc79082615758565b90505b670de0b6b3a76400006110028460200151610ff3848760000151610fee91906157d0565b6138a4565b610ffd9190615819565b613912565b61100c9190615805565b98975050505050505050565b61102260006110a2565b3360009081526001602052604081209061103d818385613964565b604080518281526001600160a01b038616602082015291925033917f030f754a3e747235920c21afeca14e881b260d41c7e657ada6c0b049f7eebca991015b60405180910390a2505050565b610d9560028383336130d9565b610d9560018383613a7a565b6000600482600481106110b7576110b7615786565b600202019050806001016000815481106110d3576110d3615786565b600091825260209091206002909102015465ffffffffffff164210156110f7575050565b805461110e90610e109065ffffffffffff16615758565b4211611118575050565b6001808201805460009261112b91615858565b8154811061113b5761113b615786565b6000918252602082206002909102015465ffffffffffff600160301b90910416915061116d61116861386c565b613cc5565b8354909150600160401b90046001600160601b03166111c4578165ffffffffffff168165ffffffffffff16116111a357806111a5565b815b835465ffffffffffff191665ffffffffffff9190911617909255505050565b825460009081906111e390879065ffffffffffff908116908616611dd9565b86549193509150600160301b900461ffff1681146112245761120481613d2c565b855461ffff91909116600160301b0267ffff000000000000199091161785555b845461127790600160401b90046001600160601b031661124c670de0b6b3a7640000856157d0565b6112569190615805565b86546112729190600160a01b90046001600160601b0316615758565b613d8f565b85546001600160601b0391909116600160a01b026001600160a01b0390911617855565ffffffffffff808516908416116112b157826112b3565b835b855465ffffffffffff191665ffffffffffff9190911690811780875560408051928352600160401b82046001600160601b039081166020850152600160a01b9092049091169082015286907f3be3541fc42237d611b30329040bfa4569541d156560acdbbae57640d20b8f469060600160405180910390a2505050505050565b61134060028484846130d9565b505050565b6000546001600160a01b031633146113785760405162461bcd60e51b815260040161136f9061586f565b60405180910390fd5b6113826000613df7565b565b61138c6150aa565b6113946150aa565b61139c6150aa565b6113a46150aa565b6040805160a0810182526004805465ffffffffffff8116835261ffff600160301b8204166020808501919091526001600160601b03600160401b8304811685870152600160a01b909204909116606084015260058054855181840281018401909652808652600095608086019390929190879084015b8282101561148c5760008481526020908190206040805160808101825260028602909201805465ffffffffffff8082168552600160301b820416848601526001600160601b03600160601b9091048116928401929092526001908101549091166060830152908352909201910161141a565b505050915250506040805160a0810182526006805465ffffffffffff8116835261ffff600160301b8204166020808501919091526001600160601b03600160401b8304811685870152600160a01b90920490911660608401526007805485518184028101840190965280865295965060009593949293608086019392879084015b8282101561157f5760008481526020908190206040805160808101825260028602909201805465ffffffffffff8082168552600160301b820416848601526001600160601b03600160601b9091048116928401929092526001908101549091166060830152908352909201910161150d565b505050915250506040805160a0810182526008805465ffffffffffff8116835261ffff600160301b8204166020808501919091526001600160601b03600160401b8304811685870152600160a01b90920490911660608401526009805485518184028101840190965280865295965060009593949293608086019392879084015b828210156116725760008481526020908190206040805160808101825260028602909201805465ffffffffffff8082168552600160301b820416848601526001600160601b03600160601b90910481169284019290925260019081015490911660608301529083529092019101611600565b505050915250506040805160a081018252600a805465ffffffffffff8116835261ffff600160301b8204166020808501919091526001600160601b03600160401b8304811685870152600160a01b9092049091166060840152600b805485518184028101840190965280865295965060009593949293608086019392879084015b828210156117655760008481526020908190206040805160808101825260028602909201805465ffffffffffff8082168552600160301b820416848601526001600160601b03600160601b909104811692840192909252600190810154909116606083015290835290920191016116f3565b50505050815250509050600061177a85613e47565b905060405180606001604052806000815260200186604001516001600160601b03168152602001866080015183815181106117b7576117b7615786565b602002602001015181525060405180606001604052806001815260200186604001516001600160601b03168152602001866080015184815181106117fd576117fd615786565b602002602001015181525060405180606001604052806002815260200186604001516001600160601b031681526020018660800151858151811061184357611843615786565b602002602001015181525060405180606001604052806003815260200186604001516001600160601b031681526020018660800151868151811061188957611889615786565b60200260200101518152509850985098509850505050505090919293565b6118b181336121ee565b50565b61138233611018565b610d9560028383613a7a565b6060610734826001612466565b6118b18133611be1565b600481600481106118f057600080fd5b600202015465ffffffffffff8116915061ffff600160301b820416906001600160601b03600160401b8204811691600160a01b90041684565b6113406001848484613f48565b61134060018484846130d9565b6000546001600160a01b0316331461196d5760405162461bcd60e51b815260040161136f9061586f565b600385111561198f5760405163015f4fdd60e31b815260040160405180910390fd5b8183106119af5760405163d67e310960e01b815260040160405180910390fd5b60006119ba846141f3565b11806119ce575060006119cc8461420f565b115b156119ec5760405163f7985df160e01b815260040160405180910390fd5b60006119f7836141f3565b1180611a0b57506000611a098361420f565b115b15611a2957604051638b853e2560e01b815260040160405180910390fd5b600060048660048110611a3e57611a3e615786565b6002020190506000816001018054905090506000811115611ab95781600101600182611a6a9190615858565b81548110611a7a57611a7a615786565b6000918252602090912060029091020154600160301b900465ffffffffffff168514611ab957604051639424dcd960e01b815260040160405180910390fd5b6000611ac58686615858565b9050600081611ad6610e108a6157d0565b611ae09190615805565b905060006040518060800160405280611af88a613cc5565b65ffffffffffff168152602001611b0e89613cc5565b65ffffffffffff168152602001611b2484613d8f565b6001600160601b03168152602001611b3b88613d8f565b6001600160601b0390811690915260019687018054808901825560009182526020918290208451600290920201805492850151604086015165ffffffffffff9384166bffffffffffffffffffffffff1995861617600160301b9490921693909302176bffffffffffffffffffffffff60601b1916600160601b92851692909202919091178155606090930151929097018054909716911617909455505050505050505050565b611bf4670de0b6b3a764000060016157d0565b821015611c135760405162a1ceb560e71b815260040160405180910390fd5b611c1d60006110a2565b6001600160a01b038116600090815260016020526040812090611c4190828561421c565b6040516323b872dd60e01b8152336004820152306024820152604481018490527f00000000000000000000000000000000000000000000000000000000000000006001600160a01b0316906323b872dd906064016020604051808303816000875af1158015611cb4573d6000803e3d6000fd5b505050506040513d601f19601f82011682018060405250810190611cd891906158b2565b50604080518481526001600160a01b038416602082015233917fe31c7b8d08ee7db0afa68782e1028ef92305caeea8626633ad44d413e30f6b2f910161107c565b610d956002838333613f48565b611d3060036110a2565b611d3c600185856142d4565b610dbb600283836142d4565b6000546001600160a01b03163314611d725760405162461bcd60e51b815260040161136f9061586f565b60048160048110611d8557611d85615786565b60020201600101805480611d9b57611d9b6158cf565b60008281526020902060026000199092019182020180546001600160c01b031916815560010180546bffffffffffffffffffffffff19169055905550565b600080600060048660048110611df157611df1615786565b6040805160a08101825260029290920292909201805465ffffffffffff8116835261ffff600160301b8204166020808501919091526001600160601b03600160401b8304811685870152600160a01b90920490911660608401526001820180548551818402810184019096528086529394929360808601939260009084015b82821015611ee25760008481526020908190206040805160808101825260028602909201805465ffffffffffff8082168552600160301b820416848601526001600160601b03600160601b90910481169284019290925260019081015490911660608301529083529092019101611e70565b505050508152505090506000816020015161ffff1690508160800151600081518110611f1057611f10615786565b60200260200101516000015165ffffffffffff16851015611f38576000935091506120c59050565b81608001518181518110611f4e57611f4e615786565b60200260200101516020015165ffffffffffff1686118015611f98575081608001518181518110611f8157611f81615786565b60200260200101516020015165ffffffffffff1685115b15611fa557600101611f38565b60408051608081018252600080825260208201819052918101829052606081018290526080840151516000908190855b818110156120ac5787608001518181518110611ff357611ff3615786565b60200260200101519450846000015165ffffffffffff168c1115612017578b612022565b845165ffffffffffff165b9350846020015165ffffffffffff168b111561204a57846020015165ffffffffffff1661204c565b8a5b9250610e1085604001516001600160601b0316858561206b9190615858565b61207591906157d0565b61207f9190615805565b6120899087615758565b9550828b116120a4579498509396506120c595505050505050565b600101611fd5565b50846120b9600183615858565b98509850505050505050505b935093915050565b6120d561505a565b6001600160a01b03821660009081526001602052604081205481816120fb576000612171565b604051632c018f9160e01b8152600060048201526001600160a01b0386166024820152604481018490523090632c018f9190606401602060405180830381865afa15801561214d573d6000803e3d6000fd5b505050506040513d601f19601f8201168201806040525081019061217191906157b7565b90506000808311612183576000612190565b612190600087600061479b565b6040805160c08101825260008152602080820197909752808201959095526060850193909352608084015250805180820190915260025481526003549281019290925260a081019190915292915050565b610dbb84848484336109c2565b6121f860006110a2565b336000908152600160205260409020805483141561226657600061221e60008385613964565b604080518281526001600160a01b038616602082015291925033917f030f754a3e747235920c21afeca14e881b260d41c7e657ada6c0b049f7eebca9910160405180910390a2505b6122726000828561496f565b60405163a9059cbb60e01b81526001600160a01b037f0000000000000000000000000000000000000000000000000000000000000000169063a9059cbb906122c090859087906004016158e5565b6020604051808303816000875af11580156122df573d6000803e3d6000fd5b505050506040513d601f19601f8201168201806040525081019061230391906158b2565b50604080518481526001600160a01b038416602082015233917f56c54ba9bd38d8fd62012e42c7ee564519b09763c426d331b3661b537ead19b2910161107c565b6113406002848484613f48565b6000546001600160a01b0316331461237b5760405162461bcd60e51b815260040161136f9061586f565b6001600160a01b0381166123e05760405162461bcd60e51b815260206004820152602660248201527f4f776e61626c653a206e6577206f776e657220697320746865207a65726f206160448201526564647265737360d01b606482015260840161136f565b6118b181613df7565b6060610734826002612466565b6001600160a01b03811660009081526001602081905260408220549061241c9084614a3e565b6124269082615758565b9050612433600284614a3e565b61243d9082615758565b905061244883614b8c565b6124529082615758565b9392505050565b610d956001838333613f48565b6000818152600c60205260408082205490516370a0823160e01b81526001600160a01b0385811660048301526060939216906370a0823190602401602060405180830381865afa1580156124be573d6000803e3d6000fd5b505050506040513d601f19601f820116820180604052508101906124e291906157b7565b9050600080821161252457604080516000808252602082019092529061251e565b61250b61505a565b8152602001906001900390816125035790505b50612577565b816001600160401b0381111561253c5761253c615770565b60405190808252806020026020018201604052801561257557816020015b61256261505a565b81526020019060019003908161255a5790505b505b9050816125875791506107349050565b60005b8281101561281e576000858152600c6020526040808220549051632f745c5960e01b81526001600160a01b0390911690632f745c59906125d0908a9086906004016158e5565b602060405180830381865afa1580156125ed573d6000803e3d6000fd5b505050506040513d601f19601f8201168201806040525081019061261191906157b7565b6000878152600d602090815260408083208484529091528120549192508161263a5760006126b0565b604051632c018f9160e01b8152600481018990526001600160a01b038a166024820152604481018490523090632c018f9190606401602060405180830381865afa15801561268c573d6000803e3d6000fd5b505050506040513d601f19601f820116820180604052508101906126b091906157b7565b905060008083116126c25760006126cd565b6126cd898b8661479b565b604080518082019091526002548152600380546020830152919250908a14156127b8576000858152600f6020908152604080832060018452909152902054600160f81b900460ff161561275657506040805180820182526000868152600f6020908152838220600180845290825293909120546001600160f81b031682528101919091526127b8565b6000858152600f6020908152604080832060028452909152902054600160f81b900460ff16156127b857506040805180820182526000868152600f6020908152838220600280845290825293909120546001600160f81b031682528101919091525b60006040518060c001604052808c8152602001878152602001868152602001858152602001848152602001838152509050808888815181106127fc576127fc615786565b6020026020010181905250505050505050806128179061579c565b905061258a565b50949350505050565b81600080808080805b86811015612b0f5789898281811061284a5761284a615786565b61286092602060409092020190810191506158fe565b60008c8152600c6020526040908190205490516331a9108f60e11b81526001600160801b039290921660048301819052975033916001600160a01b0390911690636352211e90602401602060405180830381865afa1580156128c6573d6000803e3d6000fd5b505050506040513d601f19601f820116820180604052508101906128ea9190615927565b6001600160a01b03161461291157604051632b19ae7560e01b815260040160405180910390fd5b89898281811061292357612923615786565b905060400201602001602081019061293b91906158fe565b6003600052600c602052600080516020615b86833981519152546040516331a9108f60e11b81526001600160801b039290921660048301819052965033916001600160a01b0390911690636352211e90602401602060405180830381865afa1580156129ab573d6000803e3d6000fd5b505050506040513d601f19601f820116820180604052508101906129cf9190615927565b6001600160a01b0316146129f657604051632c8348bb60e01b815260040160405180910390fd5b60008b8152600e602090815260408083208984528252808320888452600f83528184208f8552909252909120815491945092506001600160f81b031685141580612a4957508254600160f81b900460ff16155b80612a5e575081546001600160f81b03168614155b80612a7257508154600160f81b900460ff16155b15612a90576040516366640ced60e11b815260040160405180910390fd5b6000858152600080516020615b66833981519152602052604081209450612ab96003868b613964565b60408051828152602081018f90529081018990526060810188905290915033907f89d57e873af45054d40b801ca64ca06a1627c5682ab9be494a9f2846ef157d8a9060800160405180910390a250600101612830565b5050505050505050505050565b60008060005b8581101561281e576000848152600c6020526040808220549051632f745c5960e01b81526001600160a01b0390911690632f745c5990612b6890899086906004016158e5565b602060405180830381865afa158015612b85573d6000803e3d6000fd5b505050506040513d601f19601f82011682018060405250810190612ba991906157b7565b6000868152600e60209081526040808320848452909152902054909150600160f81b900460ff1615612ca8576000858152600e6020908152604080832084845282528083205460038452600c909252600080516020615b868339815191525490516331a9108f60e11b81526001600160f81b039092166004830181905292916001600160a01b0390911690636352211e90602401602060405180830381865afa158015612c5a573d6000803e3d6000fd5b505050506040513d601f19601f82011682018060405250810190612c7e9190615927565b9050876001600160a01b0316816001600160a01b031614612ca557612ca28561579c565b94505b50505b50612cb28161579c565b9050612b22565b60606000846001600160401b03811115612cd557612cd5615770565b604051908082528060200260200182016040528015612d0e57816020015b612cfb61505a565b815260200190600190039081612cf35790505b5090506000805b6000858152600c6020526040908190205490516370a0823160e01b81526001600160a01b038881166004830152909116906370a0823190602401602060405180830381865afa158015612d6c573d6000803e3d6000fd5b505050506040513d601f19601f82011682018060405250810190612d9091906157b7565b8110156130ce576000858152600c6020526040808220549051632f745c5960e01b81526001600160a01b0390911690632f745c5990612dd5908a9086906004016158e5565b602060405180830381865afa158015612df2573d6000803e3d6000fd5b505050506040513d601f19601f82011682018060405250810190612e1691906157b7565b6000878152600e60209081526040808320848452909152902054909150600160f81b900460ff16156130bd576000868152600e6020908152604080832084845282528083205460038452600c909252600080516020615b868339815191525490516331a9108f60e11b81526001600160f81b039092166004830181905292916001600160a01b0390911690636352211e90602401602060405180830381865afa158015612ec7573d6000803e3d6000fd5b505050506040513d601f19601f82011682018060405250810190612eeb9190615927565b9050886001600160a01b0316816001600160a01b0316146130ba576000828152600080516020615b6683398151915260205260408120549081612f2f576000612fa5565b604051632c018f9160e01b8152600360048201526001600160a01b0384166024820152604481018590523090632c018f9190606401602060405180830381865afa158015612f81573d6000803e3d6000fd5b505050506040513d601f19601f82011682018060405250810190612fa591906157b7565b90506000808311612fb7576000612fc3565b612fc36003858761479b565b905060006002604051806040016040529081600082015481526020016001820154815250509050600f600087815260200190815260200160002060008d8152602001908152602001600020600001601f9054906101000a900460ff161561305857506040805180820182526000878152600f60209081528382208f83528152929020546001600160f81b031681529081018c90525b60006040518060c0016040528060038152602001888152602001868152602001858152602001848152602001838152509050808b8b8151811061309d5761309d615786565b6020026020010181905250896130b29061579c565b995050505050505b50505b506130c78161579c565b9050612d15565b509095945050505050565b6130e2846110a2565b60008083815b8181101561321c5786868281811061310257613102615786565b60008b8152600c60209081526040918290205491516331a9108f60e11b81529202939093013560048201819052965033926001600160a01b03169150636352211e90602401602060405180830381865afa158015613164573d6000803e3d6000fd5b505050506040513d601f19601f820116820180604052508101906131889190615927565b6001600160a01b0316146131af57604051632e6c18c960e11b815260040160405180910390fd5b6000888152600d6020908152604080832087845290915290206131d3898288613964565b60408051828152602081018890529195508a9133917fd334b3114fc25cbd72389ff9c361d5f8b0924e35fa237c65ac209a2cdcf4ba13910160405180910390a3506001016130e8565b5050505050505050565b604080516080810182526000808252602082018190529181018290526060810182905281906000808086815b81811015612b0f5789898281811061326c5761326c615786565b9050608002018036038101906132829190615974565b60008c8152600c60205260409081902054825191516331a9108f60e11b815263ffffffff90921660048301529197506001600160a01b0390911690636352211e90602401602060405180830381865afa1580156132e3573d6000803e3d6000fd5b505050506040513d601f19601f820116820180604052508101906133079190615927565b6003600052600c6020908152600080516020615b8683398151915254908801516040516331a9108f60e11b815263ffffffff90911660048201529199506001600160a01b031690636352211e90602401602060405180830381865afa158015613374573d6000803e3d6000fd5b505050506040513d601f19601f820116820180604052508101906133989190615927565b96506001600160a01b03881633146133d3576001600160a01b03871633146133d357604051634a2f386560e01b815260040160405180910390fd5b600e60008c81526020019081526020016000206000876000015163ffffffff1681526020019081526020016000209450600f6000876020015163ffffffff16815260200190815260200160002060008c81526020019081526020016000209350856020015163ffffffff168560000160009054906101000a90046001600160f81b03166001600160f81b031614158061347557508454600160f81b900460ff16155b806134935750855184546001600160f81b031663ffffffff90911614155b806134a757508354600160f81b900460ff16155b156134c5576040516366640ced60e11b815260040160405180910390fd5b60036000908152600d60209081528781015163ffffffff168252600080516020615b66833981519152905260409020606087015190935061352f57825460408701516001600160b81b0316141561352f5760405163230a658160e11b815260040160405180910390fd5b866001600160a01b0316886001600160a01b03161461356a57856060015161356a5760405163e373a08560e01b815260040160405180910390fd5b8560600151156137345760006135826003858a613964565b9050604051806040016040528060006001600160f81b0316815260200160001515815250600e60008e81526020019081526020016000206000896000015163ffffffff16815260200190815260200160002060008201518160000160006101000a8154816001600160f81b0302191690836001600160f81b03160217905550602082015181600001601f6101000a81548160ff021916908315150217905550905050604051806040016040528060006001600160f81b0316815260200160001515815250600f6000896020015163ffffffff16815260200190815260200160002060008e815260200190815260200160002060008201518160000160006101000a8154816001600160f81b0302191690836001600160f81b03160217905550602082015181600001601f6101000a81548160ff021916908315150217905550905050336001600160a01b03167f89d57e873af45054d40b801ca64ca06a1627c5682ab9be494a9f2846ef157d8a828e8a600001518b6020015160405161372a9493929190938452602084019290925263ffffffff908116604084015216606082015260800190565b60405180910390a2505b600086606001516137525786604001516001600160b81b0316613755565b83545b90506137636003858361496f565b60405163a9059cbb60e01b81526001600160a01b037f0000000000000000000000000000000000000000000000000000000000000000169063a9059cbb906137b1908c9085906004016158e5565b6020604051808303816000875af11580156137d0573d6000803e3d6000fd5b505050506040513d601f19601f820116820180604052508101906137f491906158b2565b50336001600160a01b03167f63a13470c4507d4f2c9d1bad1b7d603229456f8ebe7d3048d5cd8a02cf8d1ee6828e8a600001518b6020015160405161385b9493929190938452602084019290925263ffffffff908116604084015216606082015260800190565b60405180910390a250600101613252565b60006138774261420f565b613880426141f3565b61388b90603c6157d0565b6138959190615758565b61389f9042615858565b905090565b60006001600160ff1b0382111561390e5760405162461bcd60e51b815260206004820152602860248201527f53616665436173743a2076616c756520646f65736e27742066697420696e2061604482015267371034b73a191a9b60c11b606482015260840161136f565b5090565b60008082121561390e5760405162461bcd60e51b815260206004820181905260248201527f53616665436173743a2076616c7565206d75737420626520706f736974697665604482015260640161136f565b6000806004856004811061397a5761397a615786565b60020201805485549192506000916139a791610fee91600160a01b9091046001600160601b0316906157d0565b9050670de0b6b3a76400006139c5866001015483610ffd9190615819565b6139cf9190615805565b6001860182905592508215613a715760405163a9059cbb60e01b81526001600160a01b037f0000000000000000000000000000000000000000000000000000000000000000169063a9059cbb90613a2c90879087906004016158e5565b6020604051808303816000875af1158015613a4b573d6000803e3d6000fd5b505050506040513d601f19601f82011682018060405250810190613a6f91906158b2565b505b50509392505050565b613a83836110a2565b600080808381805b82811015613c1c57878782818110613aa557613aa5615786565b613abb9260206040909202019081019150615a00565b60008a8152600d6020908152604080832063ffffffff9490941680845293909152902080549197509450613b8a576000898152600c6020526040908190205490516331a9108f60e11b81526004810188905233916001600160a01b031690636352211e90602401602060405180830381865afa158015613b3f573d6000803e3d6000fd5b505050506040513d601f19601f82011682018060405250810190613b639190615927565b6001600160a01b031614613b8a57604051632e6c18c960e11b815260040160405180910390fd5b878782818110613b9c57613b9c615786565b9050604002016020016020810190613bb49190615a1b565b6001600160e01b03169450613bca898587614f83565b613bd48583615758565b60408051878152602081018990529193508a9133917f8863bdbe28273fa04cbc67c9e51785cff607a419b43ee367e4c3c01edb1d7b56910160405180910390a3600101613a8b565b50801561321c576040516323b872dd60e01b8152336004820152306024820152604481018290527f00000000000000000000000000000000000000000000000000000000000000006001600160a01b0316906323b872dd906064016020604051808303816000875af1158015613c96573d6000803e3d6000fd5b505050506040513d601f19601f82011682018060405250810190613cba91906158b2565b505050505050505050565b600065ffffffffffff82111561390e5760405162461bcd60e51b815260206004820152602660248201527f53616665436173743a2076616c756520646f65736e27742066697420696e203460448201526538206269747360d01b606482015260840161136f565b600061ffff82111561390e5760405162461bcd60e51b815260206004820152602660248201527f53616665436173743a2076616c756520646f65736e27742066697420696e203160448201526536206269747360d01b606482015260840161136f565b60006001600160601b0382111561390e5760405162461bcd60e51b815260206004820152602660248201527f53616665436173743a2076616c756520646f65736e27742066697420696e203960448201526536206269747360d01b606482015260840161136f565b600080546001600160a01b038381166001600160a01b0319831681178455604051919092169283917f8be0079c531659141344cd1fd0a4f28419497f9722a3daafe3b4186f6b6457e09190a35050565b600080826020015161ffff16905082608001518181518110613e6b57613e6b615786565b60200260200101516000015165ffffffffffff16421015613e8c5792915050565b50602082015161ffff165b826080015151811015613f0b57600083608001518281518110613ebc57613ebc615786565b6020026020010151905042816000015165ffffffffffff1611158015613eee5750806020015165ffffffffffff164211155b15613efa575092915050565b50613f048161579c565b9050613e97565b60405162461bcd60e51b8152602060048201526012602482015271191a5cdd1c9a589d5d1a5bdb88195b99195960721b604482015260640161136f565b613f51846110a2565b600080838180805b8381101561414f57888882818110613f7357613f73615786565b613f899260206040909202019081019150615a00565b60008b8152600c6020526040908190205490516331a9108f60e11b815263ffffffff9290921660048301819052975033916001600160a01b0390911690636352211e90602401602060405180830381865afa158015613fec573d6000803e3d6000fd5b505050506040513d601f19601f820116820180604052508101906140109190615927565b6001600160a01b03161461403757604051632e6c18c960e11b815260040160405180910390fd5b88888281811061404957614049615786565b90506040020160200160208101906140619190615a1b565b60008b8152600d602090815260408083208a8452909152902080546001600160e01b0392909216965092508514156140e25760006140a08b848a613964565b60408051828152602081018a90529192508c9133917fd334b3114fc25cbd72389ff9c361d5f8b0924e35fa237c65ac209a2cdcf4ba13910160405180910390a3505b6140ed8a838761496f565b6140f78584615758565b604080518781526001600160a01b038a1660208201529081018890529093508a9033907f46916533b23d6665275e4143ec7eeb4b6b4ae92178ebbfe99f112564d2c7b1aa9060600160405180910390a3600101613f59565b508115613cba5760405163a9059cbb60e01b81526001600160a01b037f0000000000000000000000000000000000000000000000000000000000000000169063a9059cbb906141a490899086906004016158e5565b6020604051808303816000875af11580156141c3573d6000803e3d6000fd5b505050506040513d601f19601f820116820180604052508101906141e791906158b2565b50505050505050505050565b600080614202610e1084615a44565b9050612452603c82615805565b6000610734603c83615a44565b60006004846004811061423157614231615786565b6002020190508183600001600082825461424b9190615758565b9091555061425a905082613d8f565b8154829060089061427c908490600160401b90046001600160601b0316615a58565b82546101009290920a6001600160601b0381810219909316918316021790915582546142b69250610fee91600160a01b90910416846157d0565b8360010160008282546142c99190615a83565b909155505050505050565b604080516060810182526000808252602082018190529181018290528291906000805b848110156146f45786868281811061431157614311615786565b9050606002018036038101906143279190615ac4565b60036000908152600d60209081528083015163ffffffff168252600080516020615b66833981519152905260409020805491945092506145c2576000888152600c60205260409081902054845191516331a9108f60e11b815263ffffffff909216600483015233916001600160a01b0390911690636352211e90602401602060405180830381865afa1580156143c1573d6000803e3d6000fd5b505050506040513d601f19601f820116820180604052508101906143e59190615927565b6001600160a01b031614158061442257506000888152600e60209081526040808320865163ffffffff168452909152902054600160f81b900460ff165b15614440576040516351fedda960e11b815260040160405180910390fd5b6003600052600c6020908152600080516020615b8683398151915254908401516040516331a9108f60e11b815263ffffffff909116600482015233916001600160a01b031690636352211e90602401602060405180830381865afa1580156144ac573d6000803e3d6000fd5b505050506040513d601f19601f820116820180604052508101906144d09190615927565b6001600160a01b031614158061450e575060208381015163ffffffff166000908152600f825260408082208b83529092522054600160f81b900460ff165b1561452c57604051636f395b0f60e11b815260040160405180910390fd5b6040805180820182526020808601805163ffffffff9081168452600183850181815260008f8152600e86528781208b51851682528652878120965191511515600160f81b9081026001600160f81b0393841617909755875180890189528b518516815280870193845294519093168352600f85528683208f84529094529490209051935115159092029216919091179055614655565b60208381015163ffffffff9081166000908152600f835260408082208c8352909352919091205484516001600160f81b03909116911614158061463757506000888152600e60209081526040808320865163ffffffff9081168552908352922054908501516001600160f81b03909116911614155b156146555760405163ba52c1b560e01b815260040160405180910390fd5b61466e60038385604001516001600160b81b0316614f83565b6040830151614686906001600160b81b031685615758565b604084810151855160208088015184516001600160b81b0390941684529083018d905263ffffffff91821683850152166060820152905191955033917fb3f27c1805319c01731f5717816fcfc579c3452c5ff4ffadc41284a7288f24ef9181900360800190a26001016142f7565b508215614792576040516323b872dd60e01b8152336004820152306024820152604481018490527f00000000000000000000000000000000000000000000000000000000000000006001600160a01b0316906323b872dd906064016020604051808303816000875af115801561476e573d6000803e3d6000fd5b505050506040513d601f19601f8201168201806040525081019061321c91906158b2565b50505050505050565b600080600485600481106147b1576147b1615786565b6040805160a08101825260029290920292909201805465ffffffffffff8116835261ffff600160301b8204166020808501919091526001600160601b03600160401b8304811685870152600160a01b90920490911660608401526001820180548551818402810184019096528086529394929360808601939260009084015b828210156148a25760008481526020908190206040805160808101825260028602909201805465ffffffffffff8082168552600160301b820416848601526001600160601b03600160601b90910481169284019290925260019081015490911660608301529083529092019101614830565b505050508152505090506000856000146148d4576000868152600d6020908152604080832087845290915290206148ed565b6001600160a01b03851660009081526001602052604090205b604051806040016040529081600082015481526020016001820154815250509050600061492287846020015161ffff166109ed565b905082604001516001600160601b031681604001516001600160601b0316836000015161494f91906157d0565b61495a9060186157d0565b6149649190615805565b979650505050505050565b815481111561499157604051639acaefc760e01b815260040160405180910390fd5b6000600484600481106149a6576149a6615786565b600202019050818360000160008282546149c09190615858565b909155506149cf905082613d8f565b815482906008906149f1908490600160401b90046001600160601b0316615b3d565b82546101009290920a6001600160601b038181021990931691831602179091558254614a2b9250610fee91600160a01b90910416846157d0565b8360010160008282546142c99190615819565b6000828152600c60205260408082205490516370a0823160e01b81526001600160a01b038481166004830152839283929116906370a0823190602401602060405180830381865afa158015614a97573d6000803e3d6000fd5b505050506040513d601f19601f82011682018060405250810190614abb91906157b7565b905060005b81811015614b82576000868152600c6020526040808220549051632f745c5960e01b81526001600160a01b0390911690632f745c5990614b0690899086906004016158e5565b602060405180830381865afa158015614b23573d6000803e3d6000fd5b505050506040513d601f19601f82011682018060405250810190614b4791906157b7565b6000888152600d60209081526040808320848452909152902054909150614b6e9085615758565b93505080614b7b9061579c565b9050614ac0565b5090949350505050565b60016000908152600c6020527fd421a5181c571bba3f01190c922c3b2a896fc1d84e86c9f17ac10e67ebef8b5c546040516370a0823160e01b81526001600160a01b038481166004830152839283929116906370a0823190602401602060405180830381865afa158015614c04573d6000803e3d6000fd5b505050506040513d601f19601f82011682018060405250810190614c2891906157b7565b905060005b81811015614d855760016000908152600c6020527fd421a5181c571bba3f01190c922c3b2a896fc1d84e86c9f17ac10e67ebef8b5c54604051632f745c5960e01b81526001600160a01b0390911690632f745c5990614c9290899086906004016158e5565b602060405180830381865afa158015614caf573d6000803e3d6000fd5b505050506040513d601f19601f82011682018060405250810190614cd391906157b7565b60008181527fa7c5ba7114a813b50159add3a36832908dc83db71d0b9a24c2ad0f83be9582076020526040902054909150600160f81b900460ff1615614d745760008181527fa7c5ba7114a813b50159add3a36832908dc83db71d0b9a24c2ad0f83be95820760209081526040808320546001600160f81b0316808452600080516020615b6683398151915290925290912054614d709086615758565b9450505b50614d7e8161579c565b9050614c2d565b506002600052600c6020527f5d6016397a73f5e079297ac5a36fef17b4d9c3831618e63ab105738020ddd720546040516370a0823160e01b81526001600160a01b038681166004830152909116906370a0823190602401602060405180830381865afa158015614df9573d6000803e3d6000fd5b505050506040513d601f19601f82011682018060405250810190614e1d91906157b7565b905060005b81811015614f7a5760026000908152600c6020527f5d6016397a73f5e079297ac5a36fef17b4d9c3831618e63ab105738020ddd72054604051632f745c5960e01b81526001600160a01b0390911690632f745c5990614e8790899086906004016158e5565b602060405180830381865afa158015614ea4573d6000803e3d6000fd5b505050506040513d601f19601f82011682018060405250810190614ec891906157b7565b60008181527f9adb202b1492743bc00c81d33cdc6423fa8c79109027eb6a845391e8fc1f04816020526040902054909150600160f81b900460ff1615614f695760008181527f9adb202b1492743bc00c81d33cdc6423fa8c79109027eb6a845391e8fc1f048160209081526040808320546001600160f81b0316808452600080516020615b6683398151915290925290912054614f659086615758565b9450505b50614f738161579c565b9050614e22565b50909392505050565b614f96670de0b6b3a764000060016157d0565b811015614fb55760405162a1ceb560e71b815260040160405180910390fd5b60048360048110614fc857614fc8615786565b6002020160010160048460048110614fe257614fe2615786565b60020201548154600160301b90910461ffff1690811061500457615004615786565b600091825260209091206001600290920201015482546001600160601b03909116906150309083615758565b111561504f57604051633c0eb0dd60e21b815260040160405180910390fd5b61134083838361421c565b6040518060c0016040528060008152602001600081526020016000815260200160008152602001600081526020016150a5604051806040016040528060008152602001600081525090565b905290565b604051806060016040528060008152602001600081526020016150a560408051608081018252600080825260208201819052918101829052606081019190915290565b6001600160a01b03811681146118b157600080fd5b60006020828403121561511457600080fd5b8135612452816150ed565b805182526020810151602083015260408101516040830152606081015160608301526080810151608083015260a0810151805160a0840152602081015160c0840152505050565b6020808252825182820181905260009190848201906040850190845b818110156151a85761519583855161511f565b9284019260e09290920191600101615182565b50909695505050505050565b60008083601f8401126151c657600080fd5b5081356001600160401b038111156151dd57600080fd5b6020830191508360208260061b85010111156151f857600080fd5b9250929050565b60008060008060006060868803121561521757600080fd5b85356001600160401b038082111561522e57600080fd5b61523a89838a016151b4565b9097509550602088013591508082111561525357600080fd5b50615260888289016151b4565b9094509250506040860135615274816150ed565b809150509295509295909350565b6000806040838503121561529557600080fd5b50508035926020909101359150565b65ffffffffffff8082511683528060208301511660208401525060408101516001600160601b03808216604085015280606084015116606085015250505050565b6080810161073482846152a4565b60006020828403121561530557600080fd5b5035919050565b60008083601f84011261531e57600080fd5b5081356001600160401b0381111561533557600080fd5b6020830191508360208260051b85010111156151f857600080fd5b6000806020838503121561536357600080fd5b82356001600160401b0381111561537957600080fd5b6153858582860161530c565b90969095509350505050565b60008083601f8401126153a357600080fd5b5081356001600160401b038111156153ba57600080fd5b6020830191508360208260071b85010111156151f857600080fd5b600080600080604085870312156153eb57600080fd5b84356001600160401b038082111561540257600080fd5b61540e88838901615391565b9096509450602087013591508082111561542757600080fd5b5061543487828801615391565b95989497509550505050565b60008060006060848603121561545557600080fd5b833592506020840135615467816150ed565b929592945050506040919091013590565b6000806020838503121561548b57600080fd5b82356001600160401b038111156154a157600080fd5b615385858286016151b4565b6000806000604084860312156154c257600080fd5b83356001600160401b038111156154d857600080fd5b6154e48682870161530c565b90945092505060208401356154f8816150ed565b809150509250925092565b8051825260208101516020830152604081015161134060408401826152a4565b61030081016155328287615503565b61553f60c0830186615503565b61554d610180830185615503565b61555b610240830184615503565b95945050505050565b60008060006040848603121561557957600080fd5b83356001600160401b0381111561558f57600080fd5b6154e4868287016151b4565b600080600080600060a086880312156155b357600080fd5b505083359560208501359550604085013594606081013594506080013592509050565b600080604083850312156155e957600080fd5b8235915060208301356155fb816150ed565b809150509250929050565b60008083601f84011261561857600080fd5b5081356001600160401b0381111561562f57600080fd5b6020830191508360206060830285010111156151f857600080fd5b6000806000806040858703121561566057600080fd5b84356001600160401b038082111561567757600080fd5b61568388838901615606565b9096509450602087013591508082111561569c57600080fd5b5061543487828801615606565b6000806000606084860312156156be57600080fd5b505081359360208301359350604090920135919050565b60e08101610734828461511f565b600080600080604085870312156156f957600080fd5b84356001600160401b038082111561571057600080fd5b61571c888389016151b4565b9096509450602087013591508082111561573557600080fd5b50615434878288016151b4565b634e487b7160e01b600052601160045260246000fd5b6000821982111561576b5761576b615742565b500190565b634e487b7160e01b600052604160045260246000fd5b634e487b7160e01b600052603260045260246000fd5b60006000198214156157b0576157b0615742565b5060010190565b6000602082840312156157c957600080fd5b5051919050565b60008160001904831182151516156157ea576157ea615742565b500290565b634e487b7160e01b600052601260045260246000fd5b600082615814576158146157ef565b500490565b60008083128015600160ff1b85018412161561583757615837615742565b6001600160ff1b038401831381161561585257615852615742565b50500390565b60008282101561586a5761586a615742565b500390565b6020808252818101527f4f776e61626c653a2063616c6c6572206973206e6f7420746865206f776e6572604082015260600190565b80151581146118b157600080fd5b6000602082840312156158c457600080fd5b8151612452816158a4565b634e487b7160e01b600052603160045260246000fd5b6001600160a01b03929092168252602082015260400190565b60006020828403121561591057600080fd5b81356001600160801b038116811461245257600080fd5b60006020828403121561593957600080fd5b8151612452816150ed565b803563ffffffff8116811461595857600080fd5b919050565b80356001600160b81b038116811461595857600080fd5b60006080828403121561598657600080fd5b604051608081018181106001600160401b03821117156159b657634e487b7160e01b600052604160045260246000fd5b6040526159c283615944565b81526159d060208401615944565b60208201526159e16040840161595d565b604082015260608301356159f4816158a4565b60608201529392505050565b600060208284031215615a1257600080fd5b61245282615944565b600060208284031215615a2d57600080fd5b81356001600160e01b038116811461245257600080fd5b600082615a5357615a536157ef565b500690565b60006001600160601b03808316818516808303821115615a7a57615a7a615742565b01949350505050565b600080821280156001600160ff1b0384900385131615615aa557615aa5615742565b600160ff1b8390038412811615615abe57615abe615742565b50500190565b600060608284031215615ad657600080fd5b604051606081018181106001600160401b0382111715615b0657634e487b7160e01b600052604160045260246000fd5b604052615b1283615944565b8152615b2060208401615944565b6020820152615b316040840161595d565b60408201529392505050565b60006001600160601b0383811690831681811015615b5d57615b5d615742565b03939250505056fe26b4a10d0f0b04925c23bd4480ee147c916e5e87a7d68206a533dad160ac81e2c0da782485e77ae272268ae0a3ff44c1552ecb60b3743924de17a815e0a3cfd7a26469706673582212209426b716e633e033ce81dbe216940110c893a5a95b602fbb42fd0928fce30f4b64736f6c634300080a0033",
  "devdoc": {
    "author": "HorizenLabs",
    "kind": "dev",
    "methods": {
      "addTimeRange(uint256,uint256,uint256,uint256,uint256)": {
        "details": "In practice one Time Range will represent one quarter (defined by `_startTimestamp`and `_endTimeStamp` as whole hours) where the rewards per hour is constant for a given pool.",
        "params": {
          "_amount": "Total amount of ApeCoin to be distributed over the range",
          "_capPerPosition": "Per position cap amount determined by poolId",
          "_endTimeStamp": "Whole hour timestamp representation",
          "_poolId": "Available pool values 0-3",
          "_startTimestamp": "Whole hour timestamp representation"
        }
      },
      "claimApeCoin(address)": {
        "params": {
          "_recipient": "Address to send claim reward to"
        }
      },
      "claimBAKC((uint128,uint128)[],(uint128,uint128)[],address)": {
        "params": {
          "_baycPairs": "Array of Paired BAYC NFTs owned and committed by the msg.sender",
          "_maycPairs": "Array of Paired MAYC NFTs owned and committed by the msg.sender",
          "_recipient": "Address to send claim reward to"
        }
      },
      "claimBAYC(uint256[],address)": {
        "params": {
          "_nfts": "Array of NFTs owned and committed by the msg.sender",
          "_recipient": "Address to send claim reward to"
        }
      },
      "claimMAYC(uint256[],address)": {
        "params": {
          "_nfts": "Array of NFTs owned and committed by the msg.sender",
          "_recipient": "Address to send claim reward to"
        }
      },
      "claimSelfBAKC((uint128,uint128)[],(uint128,uint128)[])": {
        "params": {
          "_baycPairs": "Array of Paired BAYC NFTs owned and committed by the msg.sender",
          "_maycPairs": "Array of Paired MAYC NFTs owned and committed by the msg.sender"
        }
      },
      "claimSelfBAYC(uint256[])": {
        "params": {
          "_nfts": "Array of NFTs owned and committed by the msg.sender"
        }
      },
      "claimSelfMAYC(uint256[])": {
        "params": {
          "_nfts": "Array of NFTs owned and committed by the msg.sender"
        }
      },
      "constructor": {
        "params": {
          "_apeCoinContractAddress": "The ApeCoin ERC20 contract address",
          "_bakcContractAddress": "The BAKC NFT contract address",
          "_baycContractAddress": "The BAYC NFT contract address",
          "_maycContractAddress": "The MAYC NFT contract address"
        }
      },
      "depositApeCoin(uint256,address)": {
        "details": "ApeCoin deposit must be >= 1 ApeCoin",
        "params": {
          "_amount": "Amount in ApeCoin",
          "_recipient": "Address the deposit it stored to"
        }
      },
      "depositBAKC((uint32,uint32,uint184)[],(uint32,uint32,uint184)[])": {
        "details": "Commits 1 or more Pairs, each with an ApeCoin amount to the Pair pool.\\ Each BAKC committed must attach an ApeCoin amount >= 1 ApeCoin and <= the Pair pool cap amount.\\ Example 1: BAYC + BAKC + 1 ApeCoin:  [[0, 0, \"1000000000000000000\"],[]]\\ Example 2: MAYC + BAKC + 1 ApeCoin:  [[], [0, 0, \"1000000000000000000\"]]\\ Example 3: (BAYC + BAKC + 1 ApeCoin) and (MAYC + BAKC + 1 ApeCoin): [[0, 0, \"1000000000000000000\"], [0, 1, \"1000000000000000000\"]]",
        "params": {
          "_baycPairs": "Array of PairNftDepositWithAmount structs",
          "_maycPairs": "Array of PairNftDepositWithAmount structs"
        }
      },
      "depositBAYC((uint32,uint224)[])": {
        "details": "Commits 1 or more BAYC NFTs, each with an ApeCoin amount to the BAYC pool.\\ Each BAYC committed must attach an ApeCoin amount >= 1 ApeCoin and <= the BAYC pool cap amount.",
        "params": {
          "_nfts": "Array of SingleNft structs"
        }
      },
      "depositMAYC((uint32,uint224)[])": {
        "details": "Commits 1 or more MAYC NFTs, each with an ApeCoin amount to the MAYC pool.\\ Each MAYC committed must attach an ApeCoin amount >= 1 ApeCoin and <= the MAYC pool cap amount.",
        "params": {
          "_nfts": "Array of SingleNft structs"
        }
      },
      "depositSelfApeCoin(uint256)": {
        "details": "Deposit on behalf of msg.sender. ApeCoin deposit must be >= 1 ApeCoin",
        "params": {
          "_amount": "Amount in ApeCoin"
        }
      },
      "getAllStakes(address)": {
        "params": {
          "_address": "An Ethereum address"
        },
        "returns": {
          "_0": "dashboardStakes An array of DashboardStake structs"
        }
      },
      "getApeCoinStake(address)": {
        "params": {
          "_address": "An Ethereum address"
        },
        "returns": {
          "_0": "dashboardStake A dashboardStake struct"
        }
      },
      "getBakcStakes(address)": {
        "returns": {
          "_0": "dashboardStakes An array of DashboardStake structs"
        }
      },
      "getBaycStakes(address)": {
        "returns": {
          "_0": "dashboardStakes An array of DashboardStake structs"
        }
      },
      "getMaycStakes(address)": {
        "returns": {
          "_0": "dashboardStakes An array of DashboardStake structs"
        }
      },
      "getPoolsUI()": {
        "returns": {
          "_0": "PoolUI for ApeCoin.",
          "_1": "PoolUI for BAYC.",
          "_2": "PoolUI for MAYC.",
          "_3": "PoolUI for BAKC."
        }
      },
      "getSplitStakes(address)": {
        "params": {
          "_address": "An Ethereum address"
        },
        "returns": {
          "_0": "dashboardStakes An array of DashboardStake structs"
        }
      },
      "getTimeRangeBy(uint256,uint256)": {
        "params": {
          "_index": "Target index in a Pool's timeRanges array",
          "_poolId": "Available pool values 0-3"
        },
        "returns": {
          "_0": "TimeRange A Pool's timeRanges struct by index."
        }
      },
      "owner()": {
        "details": "Returns the address of the current owner."
      },
      "pendingRewards(uint256,address,uint256)": {
        "params": {
          "_address": "Address to lookup Position for",
          "_poolId": "Available pool values 0-3",
          "_tokenId": "An NFT id"
        },
        "returns": {
          "_0": "uint256 value of pending rewards"
        }
      },
      "removeLastTimeRange(uint256)": {
        "params": {
          "_poolId": "Available pool values 0-3"
        }
      },
      "renounceOwnership()": {
        "details": "Leaves the contract without owner. It will not be possible to call `onlyOwner` functions anymore. Can only be called by the current owner. NOTE: Renouncing ownership will leave the contract without an owner, thereby removing any functionality that is only available to the owner."
      },
      "rewardsBy(uint256,uint256,uint256)": {
        "params": {
          "_from": "Whole hour timestamp representation",
          "_poolId": "Available pool values 0-3",
          "_to": "Whole hour timestamp representation"
        },
        "returns": {
          "_0": "uint256 The amount of ApeCoin rewards to be distributed by pool for a given time range",
          "_1": "uint256 The amount of time ranges"
        }
      },
      "stakedTotal(address)": {
        "params": {
          "_address": "An Ethereum address"
        },
        "returns": {
          "_0": "amount uint256 staked amount for all pools."
        }
      },
      "transferOwnership(address)": {
        "details": "Transfers ownership of the contract to a new account (`newOwner`). Can only be called by the current owner."
      },
      "updatePool(uint256)": {
        "params": {
          "_poolId": "Available pool values 0-3"
        }
      },
      "withdrawApeCoin(uint256,address)": {
        "params": {
          "_amount": "Amount of ApeCoin",
          "_recipient": "Address to send withdraw amount and claim to"
        }
      },
      "withdrawBAKC((uint32,uint32,uint184,bool)[],(uint32,uint32,uint184,bool)[])": {
        "details": "if pairs have split ownership and BAKC is attempting a withdraw, the withdraw must be for the total staked amount",
        "params": {
          "_baycPairs": "Array of Paired BAYC NFT's with staked amounts and isUncommit boolean",
          "_maycPairs": "Array of Paired MAYC NFT's with staked amounts and isUncommit boolean"
        }
      },
      "withdrawBAYC((uint32,uint224)[],address)": {
        "params": {
          "_nfts": "Array of BAYC NFT's with staked amounts",
          "_recipient": "Address to send withdraw amount and claim to"
        }
      },
      "withdrawMAYC((uint32,uint224)[],address)": {
        "params": {
          "_nfts": "Array of MAYC NFT's with staked amounts",
          "_recipient": "Address to send withdraw amount and claim to"
        }
      },
      "withdrawSelfApeCoin(uint256)": {
        "params": {
          "_amount": "Amount of ApeCoin"
        }
      },
      "withdrawSelfBAYC((uint32,uint224)[])": {
        "params": {
          "_nfts": "Array of BAYC NFT's with staked amounts"
        }
      },
      "withdrawSelfMAYC((uint32,uint224)[])": {
        "params": {
          "_nfts": "Array of MAYC NFT's with staked amounts"
        }
      }
    },
    "stateVariables": {
      "NULL_PAIR": {
        "details": "Placeholder for pair status, used by ApeCoin Pool"
      },
      "bakcToMain": {
        "details": "bakc Token ID => main type pool ID: 1: BAYC 2: MAYC => main token ID"
      },
      "mainToBakc": {
        "details": "main type pool ID: 1: BAYC 2: MAYC => main token ID => bakc token ID"
      },
      "nftContracts": {
        "details": "NFT contract mapping per pool"
      },
      "nftPosition": {
        "details": "poolId => tokenId => nft position"
      }
    },
    "title": "ApeCoin Staking Contract",
    "version": 1
  },
  "userdoc": {
    "events": {
      "UpdatePool(uint256,uint256,uint256,uint256)": {
        "notice": "Custom Events "
      }
    },
    "kind": "user",
    "methods": {
      "addTimeRange(uint256,uint256,uint256,uint256,uint256)": {
        "notice": "Add single time range with a given rewards per hour for a given pool"
      },
      "apeCoin()": {
        "notice": "Internal ApeCoin amount for distributing staking reward claims"
      },
      "claimApeCoin(address)": {
        "notice": "Claim rewards for msg.sender and send to recipient"
      },
      "claimBAKC((uint128,uint128)[],(uint128,uint128)[],address)": {
        "notice": "Claim rewards for array of Paired NFTs and send to recipient"
      },
      "claimBAYC(uint256[],address)": {
        "notice": "Claim rewards for array of BAYC NFTs and send to recipient"
      },
      "claimMAYC(uint256[],address)": {
        "notice": "Claim rewards for array of MAYC NFTs and send to recipient"
      },
      "claimSelfApeCoin()": {
        "notice": "Claim and send rewards"
      },
      "claimSelfBAKC((uint128,uint128)[],(uint128,uint128)[])": {
        "notice": "Claim rewards for array of Paired NFTs"
      },
      "claimSelfBAYC(uint256[])": {
        "notice": "Claim rewards for array of BAYC NFTs"
      },
      "claimSelfMAYC(uint256[])": {
        "notice": "Claim rewards for array of MAYC NFTs"
      },
      "constructor": {
        "notice": "Construct a new ApeCoinStaking instance"
      },
      "depositApeCoin(uint256,address)": {
        "notice": "Deposit ApeCoin to the ApeCoin Pool"
      },
      "depositBAKC((uint32,uint32,uint184)[],(uint32,uint32,uint184)[])": {
        "notice": "Deposit ApeCoin to the Pair Pool, where Pair = (BAYC + BAKC) or (MAYC + BAKC)"
      },
      "depositBAYC((uint32,uint224)[])": {
        "notice": "Deposit ApeCoin to the BAYC Pool"
      },
      "depositMAYC((uint32,uint224)[])": {
        "notice": "Deposit ApeCoin to the MAYC Pool"
      },
      "depositSelfApeCoin(uint256)": {
        "notice": "Deposit ApeCoin to the ApeCoin Pool"
      },
      "getAllStakes(address)": {
        "notice": "Fetches a DashboardStake = [poolId, tokenId, deposited, unclaimed, rewards24Hrs, paired] \\ for each pool, for an Ethereum address"
      },
      "getApeCoinStake(address)": {
        "notice": "Fetches a DashboardStake for the ApeCoin pool"
      },
      "getBakcStakes(address)": {
        "notice": "Fetches an array of DashboardStakes for the BAKC pool"
      },
      "getBaycStakes(address)": {
        "notice": "Fetches an array of DashboardStakes for the BAYC pool"
      },
      "getMaycStakes(address)": {
        "notice": "Fetches an array of DashboardStakes for the MAYC pool"
      },
      "getPoolsUI()": {
        "notice": "Fetches a PoolUI struct (poolId, stakedAmount, currentTimeRange) for each reward pool"
      },
      "getSplitStakes(address)": {
        "notice": "Fetches an array of DashboardStakes for the Pair Pool when ownership is split \\ ie (BAYC/MAYC) and BAKC in pair pool have different owners."
      },
      "getTimeRangeBy(uint256,uint256)": {
        "notice": "Lookup method for a TimeRange struct"
      },
      "pendingRewards(uint256,address,uint256)": {
        "notice": "Fetches the current amount of claimable ApeCoin rewards for a given position from a given pool."
      },
      "removeLastTimeRange(uint256)": {
        "notice": "Removes the last Time Range for a given pool."
      },
      "rewardsBy(uint256,uint256,uint256)": {
        "notice": "Lookup available rewards for a pool over a given time range"
      },
      "stakedTotal(address)": {
        "notice": "Fetches an address total staked amount, used by voting contract"
      },
      "updatePool(uint256)": {
        "notice": "Updates reward variables `lastRewardedTimestampHour`, `accumulatedRewardsPerShare` and `lastRewardsRangeIndex` for a given pool."
      },
      "withdrawApeCoin(uint256,address)": {
        "notice": "Withdraw staked ApeCoin from the ApeCoin pool.  Performs an automatic claim as part of the withdraw process."
      },
      "withdrawBAKC((uint32,uint32,uint184,bool)[],(uint32,uint32,uint184,bool)[])": {
        "notice": "Withdraw staked ApeCoin from the Pair pool.  If withdraw is total staked amount, performs an automatic claim."
      },
      "withdrawBAYC((uint32,uint224)[],address)": {
        "notice": "Withdraw staked ApeCoin from the BAYC pool.  If withdraw is total staked amount, performs an automatic claim."
      },
      "withdrawMAYC((uint32,uint224)[],address)": {
        "notice": "Withdraw staked ApeCoin from the MAYC pool.  If withdraw is total staked amount, performs an automatic claim."
      },
      "withdrawSelfApeCoin(uint256)": {
        "notice": "Withdraw staked ApeCoin from the ApeCoin pool.  If withdraw is total staked amount, performs an automatic claim."
      },
      "withdrawSelfBAYC((uint32,uint224)[])": {
        "notice": "Withdraw staked ApeCoin from the BAYC pool.  If withdraw is total staked amount, performs an automatic claim."
      },
      "withdrawSelfMAYC((uint32,uint224)[])": {
        "notice": "Withdraw staked ApeCoin from the MAYC pool.  If withdraw is total staked amount, performs an automatic claim."
      }
    },
    "notice": "Stake ApeCoin across four different pools that release hourly rewards",
    "version": 1
  },
  "storageLayout": {
    "storage": [
      {
        "astId": 387,
        "contract": "contracts/mocks/ape-stake/ApeCoinStaking.sol:ApeCoinStaking",
        "label": "_owner",
        "offset": 0,
        "slot": "0",
        "type": "t_address"
      },
      {
        "astId": 31120,
        "contract": "contracts/mocks/ape-stake/ApeCoinStaking.sol:ApeCoinStaking",
        "label": "addressPosition",
        "offset": 0,
        "slot": "1",
        "type": "t_mapping(t_address,t_struct(Position)31115_storage)"
      },
      {
        "astId": 31178,
        "contract": "contracts/mocks/ape-stake/ApeCoinStaking.sol:ApeCoinStaking",
        "label": "NULL_PAIR",
        "offset": 0,
        "slot": "2",
        "type": "t_struct(DashboardPair)31170_storage"
      },
      {
        "astId": 31213,
        "contract": "contracts/mocks/ape-stake/ApeCoinStaking.sol:ApeCoinStaking",
        "label": "pools",
        "offset": 0,
        "slot": "4",
        "type": "t_array(t_struct(Pool)31093_storage)4_storage"
      },
      {
        "astId": 31219,
        "contract": "contracts/mocks/ape-stake/ApeCoinStaking.sol:ApeCoinStaking",
        "label": "nftContracts",
        "offset": 0,
        "slot": "12",
        "type": "t_mapping(t_uint256,t_contract(ERC721Enumerable)5826)"
      },
      {
        "astId": 31227,
        "contract": "contracts/mocks/ape-stake/ApeCoinStaking.sol:ApeCoinStaking",
        "label": "nftPosition",
        "offset": 0,
        "slot": "13",
        "type": "t_mapping(t_uint256,t_mapping(t_uint256,t_struct(Position)31115_storage))"
      },
      {
        "astId": 31235,
        "contract": "contracts/mocks/ape-stake/ApeCoinStaking.sol:ApeCoinStaking",
        "label": "mainToBakc",
        "offset": 0,
        "slot": "14",
        "type": "t_mapping(t_uint256,t_mapping(t_uint256,t_struct(PairingStatus)31151_storage))"
      },
      {
        "astId": 31243,
        "contract": "contracts/mocks/ape-stake/ApeCoinStaking.sol:ApeCoinStaking",
        "label": "bakcToMain",
        "offset": 0,
        "slot": "15",
        "type": "t_mapping(t_uint256,t_mapping(t_uint256,t_struct(PairingStatus)31151_storage))"
      }
    ],
    "types": {
      "t_address": {
        "encoding": "inplace",
        "label": "address",
        "numberOfBytes": "20"
      },
      "t_array(t_struct(Pool)31093_storage)4_storage": {
        "base": "t_struct(Pool)31093_storage",
        "encoding": "inplace",
        "label": "struct ApeCoinStaking.Pool[4]",
        "numberOfBytes": "256"
      },
      "t_array(t_struct(TimeRange)31102_storage)dyn_storage": {
        "base": "t_struct(TimeRange)31102_storage",
        "encoding": "dynamic_array",
        "label": "struct ApeCoinStaking.TimeRange[]",
        "numberOfBytes": "32"
      },
      "t_bool": {
        "encoding": "inplace",
        "label": "bool",
        "numberOfBytes": "1"
      },
      "t_contract(ERC721Enumerable)5826": {
        "encoding": "inplace",
        "label": "contract ERC721Enumerable",
        "numberOfBytes": "20"
      },
      "t_int256": {
        "encoding": "inplace",
        "label": "int256",
        "numberOfBytes": "32"
      },
      "t_mapping(t_address,t_struct(Position)31115_storage)": {
        "encoding": "mapping",
        "key": "t_address",
        "label": "mapping(address => struct ApeCoinStaking.Position)",
        "numberOfBytes": "32",
        "value": "t_struct(Position)31115_storage"
      },
      "t_mapping(t_uint256,t_contract(ERC721Enumerable)5826)": {
        "encoding": "mapping",
        "key": "t_uint256",
        "label": "mapping(uint256 => contract ERC721Enumerable)",
        "numberOfBytes": "32",
        "value": "t_contract(ERC721Enumerable)5826"
      },
      "t_mapping(t_uint256,t_mapping(t_uint256,t_struct(PairingStatus)31151_storage))": {
        "encoding": "mapping",
        "key": "t_uint256",
        "label": "mapping(uint256 => mapping(uint256 => struct ApeCoinStaking.PairingStatus))",
        "numberOfBytes": "32",
        "value": "t_mapping(t_uint256,t_struct(PairingStatus)31151_storage)"
      },
      "t_mapping(t_uint256,t_mapping(t_uint256,t_struct(Position)31115_storage))": {
        "encoding": "mapping",
        "key": "t_uint256",
        "label": "mapping(uint256 => mapping(uint256 => struct ApeCoinStaking.Position))",
        "numberOfBytes": "32",
        "value": "t_mapping(t_uint256,t_struct(Position)31115_storage)"
      },
      "t_mapping(t_uint256,t_struct(PairingStatus)31151_storage)": {
        "encoding": "mapping",
        "key": "t_uint256",
        "label": "mapping(uint256 => struct ApeCoinStaking.PairingStatus)",
        "numberOfBytes": "32",
        "value": "t_struct(PairingStatus)31151_storage"
      },
      "t_mapping(t_uint256,t_struct(Position)31115_storage)": {
        "encoding": "mapping",
        "key": "t_uint256",
        "label": "mapping(uint256 => struct ApeCoinStaking.Position)",
        "numberOfBytes": "32",
        "value": "t_struct(Position)31115_storage"
      },
      "t_struct(DashboardPair)31170_storage": {
        "encoding": "inplace",
        "label": "struct ApeCoinStaking.DashboardPair",
        "members": [
          {
            "astId": 31167,
            "contract": "contracts/mocks/ape-stake/ApeCoinStaking.sol:ApeCoinStaking",
            "label": "mainTokenId",
            "offset": 0,
            "slot": "0",
            "type": "t_uint256"
          },
          {
            "astId": 31169,
            "contract": "contracts/mocks/ape-stake/ApeCoinStaking.sol:ApeCoinStaking",
            "label": "mainTypePoolId",
            "offset": 0,
            "slot": "1",
            "type": "t_uint256"
          }
        ],
        "numberOfBytes": "64"
      },
      "t_struct(PairingStatus)31151_storage": {
        "encoding": "inplace",
        "label": "struct ApeCoinStaking.PairingStatus",
        "members": [
          {
            "astId": 31148,
            "contract": "contracts/mocks/ape-stake/ApeCoinStaking.sol:ApeCoinStaking",
            "label": "tokenId",
            "offset": 0,
            "slot": "0",
            "type": "t_uint248"
          },
          {
            "astId": 31150,
            "contract": "contracts/mocks/ape-stake/ApeCoinStaking.sol:ApeCoinStaking",
            "label": "isPaired",
            "offset": 31,
            "slot": "0",
            "type": "t_bool"
          }
        ],
        "numberOfBytes": "32"
      },
      "t_struct(Pool)31093_storage": {
        "encoding": "inplace",
        "label": "struct ApeCoinStaking.Pool",
        "members": [
          {
            "astId": 31082,
            "contract": "contracts/mocks/ape-stake/ApeCoinStaking.sol:ApeCoinStaking",
            "label": "lastRewardedTimestampHour",
            "offset": 0,
            "slot": "0",
            "type": "t_uint48"
          },
          {
            "astId": 31084,
            "contract": "contracts/mocks/ape-stake/ApeCoinStaking.sol:ApeCoinStaking",
            "label": "lastRewardsRangeIndex",
            "offset": 6,
            "slot": "0",
            "type": "t_uint16"
          },
          {
            "astId": 31086,
            "contract": "contracts/mocks/ape-stake/ApeCoinStaking.sol:ApeCoinStaking",
            "label": "stakedAmount",
            "offset": 8,
            "slot": "0",
            "type": "t_uint96"
          },
          {
            "astId": 31088,
            "contract": "contracts/mocks/ape-stake/ApeCoinStaking.sol:ApeCoinStaking",
            "label": "accumulatedRewardsPerShare",
            "offset": 20,
            "slot": "0",
            "type": "t_uint96"
          },
          {
            "astId": 31092,
            "contract": "contracts/mocks/ape-stake/ApeCoinStaking.sol:ApeCoinStaking",
            "label": "timeRanges",
            "offset": 0,
            "slot": "1",
            "type": "t_array(t_struct(TimeRange)31102_storage)dyn_storage"
          }
        ],
        "numberOfBytes": "64"
      },
      "t_struct(Position)31115_storage": {
        "encoding": "inplace",
        "label": "struct ApeCoinStaking.Position",
        "members": [
          {
            "astId": 31112,
            "contract": "contracts/mocks/ape-stake/ApeCoinStaking.sol:ApeCoinStaking",
            "label": "stakedAmount",
            "offset": 0,
            "slot": "0",
            "type": "t_uint256"
          },
          {
            "astId": 31114,
            "contract": "contracts/mocks/ape-stake/ApeCoinStaking.sol:ApeCoinStaking",
            "label": "rewardsDebt",
            "offset": 0,
            "slot": "1",
            "type": "t_int256"
          }
        ],
        "numberOfBytes": "64"
      },
      "t_struct(TimeRange)31102_storage": {
        "encoding": "inplace",
        "label": "struct ApeCoinStaking.TimeRange",
        "members": [
          {
            "astId": 31095,
            "contract": "contracts/mocks/ape-stake/ApeCoinStaking.sol:ApeCoinStaking",
            "label": "startTimestampHour",
            "offset": 0,
            "slot": "0",
            "type": "t_uint48"
          },
          {
            "astId": 31097,
            "contract": "contracts/mocks/ape-stake/ApeCoinStaking.sol:ApeCoinStaking",
            "label": "endTimestampHour",
            "offset": 6,
            "slot": "0",
            "type": "t_uint48"
          },
          {
            "astId": 31099,
            "contract": "contracts/mocks/ape-stake/ApeCoinStaking.sol:ApeCoinStaking",
            "label": "rewardsPerHour",
            "offset": 12,
            "slot": "0",
            "type": "t_uint96"
          },
          {
            "astId": 31101,
            "contract": "contracts/mocks/ape-stake/ApeCoinStaking.sol:ApeCoinStaking",
            "label": "capPerPosition",
            "offset": 0,
            "slot": "1",
            "type": "t_uint96"
          }
        ],
        "numberOfBytes": "64"
      },
      "t_uint16": {
        "encoding": "inplace",
        "label": "uint16",
        "numberOfBytes": "2"
      },
      "t_uint248": {
        "encoding": "inplace",
        "label": "uint248",
        "numberOfBytes": "31"
      },
      "t_uint256": {
        "encoding": "inplace",
        "label": "uint256",
        "numberOfBytes": "32"
      },
      "t_uint48": {
        "encoding": "inplace",
        "label": "uint48",
        "numberOfBytes": "6"
      },
      "t_uint96": {
        "encoding": "inplace",
        "label": "uint96",
        "numberOfBytes": "12"
      }
    }
  }
}