{
  "address": "0xe923B9AEe380DF4F46ff01b72680b73E1c6d93f8",
  "abi": [
    {
      "inputs": [
        {
          "internalType": "contract IApeCoinStaking",
          "name": "apeCoinStaking_",
          "type": "address"
        }
      ],
      "stateMutability": "nonpayable",
      "type": "constructor"
    },
    {
      "stateMutability": "payable",
      "type": "fallback"
    },
    {
      "inputs": [],
      "name": "apeCoinStaking",
      "outputs": [
        {
          "internalType": "contract IApeCoinStaking",
          "name": "",
          "type": "address"
        }
      ],
      "stateMutability": "view",
      "type": "function"
    },
    {
      "inputs": [
        {
          "internalType": "address",
          "name": "asset",
          "type": "address"
        },
        {
          "internalType": "uint256",
          "name": "amount",
          "type": "uint256"
        }
      ],
      "name": "depositCall",
      "outputs": [],
      "stateMutability": "nonpayable",
      "type": "function"
    },
    {
      "inputs": [
        {
          "internalType": "address",
          "name": "asset",
          "type": "address"
        },
        {
          "internalType": "address",
          "name": "account",
          "type": "address"
        }
      ],
      "name": "getBalance",
      "outputs": [
        {
          "internalType": "uint256",
          "name": "",
          "type": "uint256"
        }
      ],
      "stateMutability": "view",
      "type": "function"
    },
    {
      "inputs": [
        {
          "internalType": "address",
          "name": "asset",
          "type": "address"
        }
      ],
      "name": "getMoneyMarketToken",
      "outputs": [
        {
          "internalType": "address",
          "name": "",
          "type": "address"
        }
      ],
      "stateMutability": "view",
      "type": "function"
    },
    {
      "inputs": [
        {
          "internalType": "address",
          "name": "asset",
          "type": "address"
        }
      ],
      "name": "getSupplyRate",
      "outputs": [
        {
          "internalType": "uint256",
          "name": "",
          "type": "uint256"
        }
      ],
      "stateMutability": "view",
      "type": "function"
    },
    {
      "inputs": [
        {
          "internalType": "address",
          "name": "asset",
          "type": "address"
        },
        {
          "internalType": "uint256",
          "name": "amount",
          "type": "uint256"
        },
        {
          "internalType": "address",
          "name": "to",
          "type": "address"
        }
      ],
      "name": "withdrawCall",
      "outputs": [],
      "stateMutability": "nonpayable",
      "type": "function"
    },
    {
      "stateMutability": "payable",
      "type": "receive"
    }
  ],
  "transactionHash": "0x59ba3f6ee9a29e30799c9d43c301894372d06a244157c6e18cac0634af786b68",
  "args": [
    "0x831e0c7A89Dbc52a1911b78ebf4ab905354C96Ce"
  ],
  "solcInputHash": "03ba93787b183e8ad72b494cf7054101",
  "bytecode": "0x60c060405234801561001057600080fd5b5060405161113838038061113883398101604081905261002f91610044565b6001600160a01b031660a05230608052610074565b60006020828403121561005657600080fd5b81516001600160a01b038116811461006d57600080fd5b9392505050565b60805160a05161106e6100ca600039600081816101a00152818161027001528181610331015281816103c9015281816104d20152818161058601528181610666015261076d01526000610714015261106e6000f3fe6080604052600436106100595760003560e01c80630754c9b4146100e05780632940be85146101025780634894eeba146101225780636b5441a914610160578063c9112a771461018e578063d4fac45d146101c2576100a1565b366100a15760405162461bcd60e51b8152602060048201526013602482015272149150d152559157d393d517d0531313d5d151606a1b60448201526064015b60405180910390fd5b60405162461bcd60e51b815260206004820152601460248201527311905313109050d2d7d393d517d0531313d5d15160621b6044820152606401610098565b3480156100ec57600080fd5b506101006100fb366004610bf8565b6101e2565b005b34801561010e57600080fd5b5061010061011d366004610c22565b6102d8565b34801561012e57600080fd5b5061014361013d366004610c5e565b50600090565b6040516001600160a01b0390911681526020015b60405180910390f35b34801561016c57600080fd5b5061018061017b366004610c5e565b610581565b604051908152602001610157565b34801561019a57600080fd5b506101437f000000000000000000000000000000000000000000000000000000000000000081565b3480156101ce57600080fd5b506101806101dd366004610c79565b610642565b6101ea6106ef565b60408051808201909152600381526203530360ec1b6020820152816102225760405162461bcd60e51b81526004016100989190610d08565b5061022d8282610756565b610254604051806040016040528060068152602001652d2d2d2d2d2d60d01b815250610828565b60405163bd5023a960e01b8152600481018290523060248201527f00000000000000000000000000000000000000000000000000000000000000006001600160a01b03169063bd5023a990604401600060405180830381600087803b1580156102bc57600080fd5b505af11580156102d0573d6000803e3d6000fd5b505050505050565b6102e06106ef565b60408051808201909152600381526235303160e81b6020820152826103185760405162461bcd60e51b81526004016100989190610d08565b50604051636cf88fd960e11b81523060048201526000907f00000000000000000000000000000000000000000000000000000000000000006001600160a01b03169063d9f11fb29060240160e060405180830381865afa158015610380573d6000803e3d6000fd5b505050506040513d601f19601f820116820180604052508101906103a49190610db4565b604081810151905163e4e8184760e01b815260048101919091523060248201529091507f00000000000000000000000000000000000000000000000000000000000000006001600160a01b03169063e4e8184790604401600060405180830381600087803b15801561041557600080fd5b505af1158015610429573d6000803e3d6000fd5b50506040516370a0823160e01b8152306004820152600092508591506001600160a01b038716906370a0823190602401602060405180830381865afa158015610476573d6000803e3d6000fd5b505050506040513d601f19601f8201168201806040525081019061049a9190610e37565b6104a49190610e66565b90508015610537576104b68582610756565b60405163bd5023a960e01b8152600481018290523060248201527f00000000000000000000000000000000000000000000000000000000000000006001600160a01b03169063bd5023a990604401600060405180830381600087803b15801561051e57600080fd5b505af1158015610532573d6000803e3d6000fd5b505050505b6105666040518060400160405280600d81526020016c19195c1bdcda5d105b5bdd5b9d609a1b8152508261086b565b61057a6001600160a01b03861684866108b4565b5050505050565b6000807f00000000000000000000000000000000000000000000000000000000000000006001600160a01b031663770dade56040518163ffffffff1660e01b815260040161030060405180830381865afa1580156105e3573d6000803e3d6000fd5b505050506040513d601f19601f820116820180604052508101906106079190610f24565b505050905061063b816020015182604001516040015160186106299190610f7f565b6106359061016d610f7f565b90610906565b9392505050565b604051636cf88fd960e11b81526001600160a01b03828116600483015260009182917f0000000000000000000000000000000000000000000000000000000000000000169063d9f11fb29060240160e060405180830381865afa1580156106ad573d6000803e3d6000fd5b505050506040513d601f19601f820116820180604052508101906106d19190610db4565b9050806060015181604001516106e79190610f9e565b949350505050565b6040805180820190915260038152620d4c0d60ea1b6020820152306001600160a01b037f00000000000000000000000000000000000000000000000000000000000000001614156107535760405162461bcd60e51b81526004016100989190610d08565b50565b60405163095ea7b360e01b81526001600160a01b037f0000000000000000000000000000000000000000000000000000000000000000811660048301526024820183905283169063095ea7b3906044016020604051808303816000875af11580156107c5573d6000803e3d6000fd5b505050506040513d601f19601f820116820180604052508101906107e99190610fb6565b604051806040016040528060038152602001621a981960e91b815250906108235760405162461bcd60e51b81526004016100989190610d08565b505050565b6107538160405160240161083c9190610d08565b60408051601f198184030181529190526020810180516001600160e01b031663104c13eb60e21b1790526109de565b6108b08282604051602401610881929190610fd8565b60408051601f198184030181529190526020810180516001600160e01b03166309710a9d60e41b1790526109de565b5050565b604080516001600160a01b038416602482015260448082018490528251808303909101815260649091019091526020810180516001600160e01b031663a9059cbb60e01b1790526108239084906109ff565b60408051808201909152600381526218981960e91b6020820152600090826109415760405162461bcd60e51b81526004016100989190610d08565b50600061094f600284610ffa565b90506b033b2e3c9fd0803ce800000061096a82600019610e66565b6109749190610ffa565b8411156040518060400160405280600381526020016203130360ec1b815250906109b15760405162461bcd60e51b81526004016100989190610d08565b5082816109ca6b033b2e3c9fd0803ce800000087610f7f565b6109d49190610f9e565b6106e79190610ffa565b80516a636f6e736f6c652e6c6f67602083016000808483855afa5050505050565b6000610a54826040518060400160405280602081526020017f5361666545524332303a206c6f772d6c6576656c2063616c6c206661696c6564815250856001600160a01b0316610ad19092919063ffffffff16565b8051909150156108235780806020019051810190610a729190610fb6565b6108235760405162461bcd60e51b815260206004820152602a60248201527f5361666545524332303a204552433230206f7065726174696f6e20646964206e6044820152691bdd081cdd58d8d9595960b21b6064820152608401610098565b60606106e7848460008585843b610b2a5760405162461bcd60e51b815260206004820152601d60248201527f416464726573733a2063616c6c20746f206e6f6e2d636f6e74726163740000006044820152606401610098565b600080866001600160a01b03168587604051610b46919061101c565b60006040518083038185875af1925050503d8060008114610b83576040519150601f19603f3d011682016040523d82523d6000602084013e610b88565b606091505b5091509150610b98828286610ba3565b979650505050505050565b60608315610bb257508161063b565b825115610bc25782518084602001fd5b8160405162461bcd60e51b81526004016100989190610d08565b80356001600160a01b0381168114610bf357600080fd5b919050565b60008060408385031215610c0b57600080fd5b610c1483610bdc565b946020939093013593505050565b600080600060608486031215610c3757600080fd5b610c4084610bdc565b925060208401359150610c5560408501610bdc565b90509250925092565b600060208284031215610c7057600080fd5b61063b82610bdc565b60008060408385031215610c8c57600080fd5b610c9583610bdc565b9150610ca360208401610bdc565b90509250929050565b60005b83811015610cc7578181015183820152602001610caf565b83811115610cd6576000848401525b50505050565b60008151808452610cf4816020860160208601610cac565b601f01601f19169290920160200192915050565b60208152600061063b6020830184610cdc565b60405160c0810167ffffffffffffffff81118282101715610d4c57634e487b7160e01b600052604160045260246000fd5b60405290565b6040805190810167ffffffffffffffff81118282101715610d4c57634e487b7160e01b600052604160045260246000fd5b6040516080810167ffffffffffffffff81118282101715610d4c57634e487b7160e01b600052604160045260246000fd5b600081830360e0811215610dc757600080fd5b610dcf610d1b565b83518152602084015160208201526040840151604082015260608401516060820152608084015160808201526040609f1983011215610e0d57600080fd5b610e15610d52565b60a085810151825260c090950151602082015293810193909352509092915050565b600060208284031215610e4957600080fd5b5051919050565b634e487b7160e01b600052601160045260246000fd5b600082821015610e7857610e78610e50565b500390565b600081830360c0811215610e9057600080fd5b6040516060810181811067ffffffffffffffff82111715610ec157634e487b7160e01b600052604160045260246000fd5b60405283518152602080850151908201529150816080603f1983011215610ee757600080fd5b610eef610d83565b915060408401518252606084015160208301526080840151604083015260a08401516060830152816040820152505092915050565b6000806000806103008587031215610f3b57600080fd5b610f458686610e7d565b9350610f548660c08701610e7d565b9250610f64866101808701610e7d565b9150610f74866102408701610e7d565b905092959194509250565b6000816000190483118215151615610f9957610f99610e50565b500290565b60008219821115610fb157610fb1610e50565b500190565b600060208284031215610fc857600080fd5b8151801515811461063b57600080fd5b604081526000610feb6040830185610cdc565b90508260208301529392505050565b60008261101757634e487b7160e01b600052601260045260246000fd5b500490565b6000825161102e818460208701610cac565b919091019291505056fea2646970667358221220510fc1462c3bb472f06ad26815db1ce0d82b951251996ff168fc86e143f471c864736f6c634300080a0033",
  "devdoc": {
    "kind": "dev",
    "methods": {},
    "version": 1
  },
  "userdoc": {
    "kind": "user",
    "methods": {},
    "version": 1
  },
  "storageLayout": {
    "storage": [],
    "types": null
  }
}