{
  "address": "0x07b9203b70427cdB15d752a6A8E9C028e595aF0f",
  "abi": [
    {
      "inputs": [
        {
          "internalType": "contract IAaveLendPoolAddressesProvider",
          "name": "provider",
          "type": "address"
        },
        {
          "internalType": "contract IOpenSkyBespokeSettings",
          "name": "bespokeSettings",
          "type": "address"
        }
      ],
      "stateMutability": "nonpayable",
      "type": "constructor"
    },
    {
      "anonymous": false,
      "inputs": [
        {
          "indexed": true,
          "internalType": "address",
          "name": "asset",
          "type": "address"
        },
        {
          "indexed": true,
          "internalType": "address",
          "name": "borrower",
          "type": "address"
        },
        {
          "indexed": false,
          "internalType": "uint256",
          "name": "oldLoanId",
          "type": "uint256"
        },
        {
          "indexed": false,
          "internalType": "uint256",
          "name": "newLoanId",
          "type": "uint256"
        }
      ],
      "name": "RefinanceBespokeToBespoke",
      "type": "event"
    },
    {
      "inputs": [],
      "name": "AAVE2_ADDRESSES_PROVIDER",
      "outputs": [
        {
          "internalType": "contract IAaveLendPoolAddressesProvider",
          "name": "",
          "type": "address"
        }
      ],
      "stateMutability": "view",
      "type": "function"
    },
    {
      "inputs": [],
      "name": "BESPOKE_SETTINGS",
      "outputs": [
        {
          "internalType": "contract IOpenSkyBespokeSettings",
          "name": "",
          "type": "address"
        }
      ],
      "stateMutability": "view",
      "type": "function"
    },
    {
      "inputs": [],
      "name": "aavePool",
      "outputs": [
        {
          "internalType": "contract IAaveLendPool",
          "name": "",
          "type": "address"
        }
      ],
      "stateMutability": "view",
      "type": "function"
    },
    {
      "inputs": [
        {
          "internalType": "address[]",
          "name": "assets",
          "type": "address[]"
        },
        {
          "internalType": "uint256[]",
          "name": "amounts",
          "type": "uint256[]"
        },
        {
          "internalType": "uint256[]",
          "name": "premiums",
          "type": "uint256[]"
        },
        {
          "internalType": "address",
          "name": "initiator",
          "type": "address"
        },
        {
          "internalType": "bytes",
          "name": "params",
          "type": "bytes"
        }
      ],
      "name": "executeOperation",
      "outputs": [
        {
          "internalType": "bool",
          "name": "",
          "type": "bool"
        }
      ],
      "stateMutability": "nonpayable",
      "type": "function"
    },
    {
      "inputs": [
        {
          "internalType": "address",
          "name": "",
          "type": "address"
        },
        {
          "internalType": "address",
          "name": "",
          "type": "address"
        },
        {
          "internalType": "uint256[]",
          "name": "",
          "type": "uint256[]"
        },
        {
          "internalType": "uint256[]",
          "name": "",
          "type": "uint256[]"
        },
        {
          "internalType": "bytes",
          "name": "",
          "type": "bytes"
        }
      ],
      "name": "onERC1155BatchReceived",
      "outputs": [
        {
          "internalType": "bytes4",
          "name": "",
          "type": "bytes4"
        }
      ],
      "stateMutability": "nonpayable",
      "type": "function"
    },
    {
      "inputs": [
        {
          "internalType": "address",
          "name": "",
          "type": "address"
        },
        {
          "internalType": "address",
          "name": "",
          "type": "address"
        },
        {
          "internalType": "uint256",
          "name": "",
          "type": "uint256"
        },
        {
          "internalType": "uint256",
          "name": "",
          "type": "uint256"
        },
        {
          "internalType": "bytes",
          "name": "",
          "type": "bytes"
        }
      ],
      "name": "onERC1155Received",
      "outputs": [
        {
          "internalType": "bytes4",
          "name": "",
          "type": "bytes4"
        }
      ],
      "stateMutability": "nonpayable",
      "type": "function"
    },
    {
      "inputs": [
        {
          "internalType": "address",
          "name": "",
          "type": "address"
        },
        {
          "internalType": "address",
          "name": "",
          "type": "address"
        },
        {
          "internalType": "uint256",
          "name": "",
          "type": "uint256"
        },
        {
          "internalType": "bytes",
          "name": "",
          "type": "bytes"
        }
      ],
      "name": "onERC721Received",
      "outputs": [
        {
          "internalType": "bytes4",
          "name": "",
          "type": "bytes4"
        }
      ],
      "stateMutability": "nonpayable",
      "type": "function"
    },
    {
      "inputs": [
        {
          "internalType": "bytes4",
          "name": "interfaceId",
          "type": "bytes4"
        }
      ],
      "name": "supportsInterface",
      "outputs": [
        {
          "internalType": "bool",
          "name": "",
          "type": "bool"
        }
      ],
      "stateMutability": "view",
      "type": "function"
    }
  ],
  "transactionHash": "0x9b7358e8a0ed3687cc656df96341e47209e344f59391409208bbaec66439af3d",
  "args": [
    "0x9C3106e111a3317d3662F4a3f9622B6d17EC79fE",
    "0xf7fB2278991a44b1a3E9fC8D448ec5b9C3449D84"
  ],
  "solcInputHash": "bf686a93d2639096ee93f612756cfd09",
  "bytecode": "0x60c06040523480156200001157600080fd5b506040516200226f3803806200226f833981016040819052620000349162000065565b6001600160a01b039182166080521660a052620000a4565b6001600160a01b03811681146200006257600080fd5b50565b600080604083850312156200007957600080fd5b825162000086816200004c565b602084015190925062000099816200004c565b809150509250929050565b60805160a0516121606200010f600039600081816101300152818161033e0152818161051e0152818161061001528181610705015281816108b9015281816109b001528181610abe01528181610b900152610d9701526000818160ba015261101701526121606000f3fe608060405234801561001057600080fd5b50600436106100885760003560e01c8063920f5c841161005b578063920f5c8414610152578063a03e4bc314610165578063bc197c811461016d578063f23a6e611461018c57600080fd5b806301ffc9a71461008d57806311ea536e146100b5578063150b7a02146100f457806329c55f061461012b575b600080fd5b6100a061009b3660046114ad565b6101ab565b60405190151581526020015b60405180910390f35b6100dc7f000000000000000000000000000000000000000000000000000000000000000081565b6040516001600160a01b0390911681526020016100ac565b6101126101023660046115fe565b630a85bd0160e11b949350505050565b6040516001600160e01b031990911681526020016100ac565b6100dc7f000000000000000000000000000000000000000000000000000000000000000081565b6100a06101603660046116b4565b6101e2565b6100dc611013565b61011261017b36600461182c565b63bc197c8160e01b95945050505050565b61011261019a3660046118d9565b63f23a6e6160e01b95945050505050565b60006001600160e01b03198216630271189760e51b14806101dc57506301ffc9a760e01b6001600160e01b03198316145b92915050565b60006001891480156101f45750600187145b80156102005750600185145b6102655760405162461bcd60e51b815260206004820152602b60248201527f424d5f464c4153485f4c4f414e5f4d554c5449504c455f4153534554535f4e4f60448201526a1517d4d5541413d495115160aa1b60648201526084015b60405180910390fd5b3361026e611013565b6001600160a01b0316146102c45760405162461bcd60e51b815260206004820152601c60248201527f424d5f464c4153485f4c4f414e5f494e56414c49445f43414c4c455200000000604482015260640161025c565b6102cc61138e565b6102d883850185611941565b6001600160a01b031660a083015260e08201819052805161030191602091810182019101611a0b565b61010085018190526080850191909152606084019190915290825280516103319190810160209081019101611ac4565b81610120018190525060007f00000000000000000000000000000000000000000000000000000000000000006001600160a01b031663956236416040518163ffffffff1660e01b8152600401602060405180830381865afa15801561039a573d6000803e3d6000fd5b505050506040513d601f19601f820116820180604052508101906103be9190611c6d565b825160405163622fe39f60e01b81526001600160a01b03929092169163622fe39f916103f09160040190815260200190565b61028060405180830381865afa15801561040e573d6000803e3d6000fd5b505050506040513d601f19601f820116820180604052508101906104329190611c99565b905081610120015161018001516001600160a01b03168161012001516001600160a01b0316146104a45760405162461bcd60e51b815260206004820181905260248201527f424d5f464c4153485f4c4f414e5f43555252454e43595f4e4f545f4d41544348604482015260640161025c565b816101200151606001516001600160a01b031681600001516001600160a01b03161461051c5760405162461bcd60e51b815260206004820152602160248201527f424d5f464c4153485f4c4f414e5f544f4b454e5f414444524553535f4d4154436044820152600960fb1b606482015260840161025c565b7f00000000000000000000000000000000000000000000000000000000000000006001600160a01b031663bb322a836040518163ffffffff1660e01b8152600401602060405180830381865afa15801561057a573d6000803e3d6000fd5b505050506040513d601f19601f8201168201806040525081019061059e9190611c6d565b60a08301518351604051632142170760e11b81526001600160a01b03928316600482015230602482015260448101919091529116906342842e0e90606401600060405180830381600087803b1580156105f657600080fd5b505af115801561060a573d6000803e3d6000fd5b505050507f00000000000000000000000000000000000000000000000000000000000000006001600160a01b031663956236416040518163ffffffff1660e01b8152600401602060405180830381865afa15801561066c573d6000803e3d6000fd5b505050506040513d601f19601f820116820180604052508101906106909190611c6d565b8251604051636b52b36560e01b81526001600160a01b039290921691636b52b365916106c29160040190815260200190565b602060405180830381865afa1580156106df573d6000803e3d6000fd5b505050506040513d601f19601f820116820180604052508101906107039190611df2565b7f00000000000000000000000000000000000000000000000000000000000000006001600160a01b031663956236416040518163ffffffff1660e01b8152600401602060405180830381865afa158015610761573d6000803e3d6000fd5b505050506040513d601f19601f820116820180604052508101906107859190611c6d565b8351604051634b72cb4160e11b81526001600160a01b0392909216916396e59682916107b79160040190815260200190565b602060405180830381865afa1580156107d4573d6000803e3d6000fd5b505050506040513d601f19601f820116820180604052508101906107f89190611df2565b6108029190611e21565b6020830152898960008161081857610818611e39565b90506020020135826020015111156108815760405162461bcd60e51b815260206004820152602660248201527f42505f464c4153485f4c4f414e5f524543454956455f4d4f4e45595f4e4f545f60448201526508a9c9eaa8e960d31b606482015260840161025c565b8b8b600081811061089457610894611e39565b90506020020160208101906108a99190611e4f565b6001600160a01b031663095ea7b37f00000000000000000000000000000000000000000000000000000000000000006001600160a01b031663956236416040518163ffffffff1660e01b8152600401602060405180830381865afa158015610915573d6000803e3d6000fd5b505050506040513d601f19601f820116820180604052508101906109399190611c6d565b60208501516040516001600160e01b031960e085901b1681526001600160a01b03909216600483015260248201526044016020604051808303816000875af1158015610989573d6000803e3d6000fd5b505050506040513d601f19601f820116820180604052508101906109ad9190611e6c565b507f00000000000000000000000000000000000000000000000000000000000000006001600160a01b031663956236416040518163ffffffff1660e01b8152600401602060405180830381865afa158015610a0c573d6000803e3d6000fd5b505050506040513d601f19601f82011682018060405250810190610a309190611c6d565b8251604051631b8fec7360e11b81526001600160a01b03929092169163371fd8e691610a629160040190815260200190565b600060405180830381600087803b158015610a7c57600080fd5b505af1158015610a90573d6000803e3d6000fd5b505082516040516398460c5f60e01b81526001600160a01b0391821660048201819052935063095ea7b392507f0000000000000000000000000000000000000000000000000000000000000000909116906398460c5f90602401602060405180830381865afa158015610b07573d6000803e3d6000fd5b505050506040513d601f19601f82011682018060405250810190610b2b9190611c6d565b60208401516040516001600160e01b031960e085901b1681526001600160a01b0390921660048301526024820152604401600060405180830381600087803b158015610b7657600080fd5b505af1158015610b8a573d6000803e3d6000fd5b505050507f00000000000000000000000000000000000000000000000000000000000000006001600160a01b031663956236416040518163ffffffff1660e01b8152600401602060405180830381865afa158015610bec573d6000803e3d6000fd5b505050506040513d601f19601f82011682018060405250810190610c109190611c6d565b6001600160a01b031663a2b8fe87836101200151836020015185606001518660800151306040518663ffffffff1660e01b8152600401610c54959493929190611ed5565b6020604051808303816000875af1158015610c73573d6000803e3d6000fd5b505050506040513d601f19601f82011682018060405250810190610c979190611df2565b6101408301528787600081610cae57610cae611e39565b905060200201358260200151610cc49190611e21565b60c0830181905260608301511115610d2f57610d2a8260a001518360c001518460600151610cf291906120e4565b8e8e6000818110610d0557610d05611e39565b9050602002016020810190610d1a9190611e4f565b6001600160a01b0316919061109c565b610d95565b8160c0015182606001511015610d9557610d958260a001513084606001518560c00151610d5c91906120e4565b8f8f6000818110610d6f57610d6f611e39565b9050602002016020810190610d849190611e4f565b6001600160a01b0316929190611104565b7f00000000000000000000000000000000000000000000000000000000000000006001600160a01b031663bb322a836040518163ffffffff1660e01b8152600401602060405180830381865afa158015610df3573d6000803e3d6000fd5b505050506040513d601f19601f82011682018060405250810190610e179190611c6d565b60a0830151610140840151604051632142170760e11b81523060048201526001600160a01b03928316602482015260448101919091529116906342842e0e90606401600060405180830381600087803b158015610e7357600080fd5b505af1158015610e87573d6000803e3d6000fd5b505050508b8b6000818110610e9e57610e9e611e39565b9050602002016020810190610eb39190611e4f565b6001600160a01b031663095ea7b3610ec9611013565b8a8a6000818110610edc57610edc611e39565b905060200201358d8d6000818110610ef657610ef6611e39565b90506020020135610f079190611e21565b6040516001600160e01b031960e085901b1681526001600160a01b03909216600483015260248201526044016020604051808303816000875af1158015610f52573d6000803e3d6000fd5b505050506040513d601f19601f82011682018060405250810190610f769190611e6c565b508160a001516001600160a01b03168c8c6000818110610f9857610f98611e39565b9050602002016020810190610fad9190611e4f565b6001600160a01b03167f537ec0d414de558d408ed2e0cb05ceee24cd9fc300600b10bf70398497d481088460000151856101400151604051610ff9929190918252602082015260400190565b60405180910390a35060019b9a5050505050505050505050565b60007f00000000000000000000000000000000000000000000000000000000000000006001600160a01b0316630261bf8b6040518163ffffffff1660e01b8152600401602060405180830381865afa158015611073573d6000803e3d6000fd5b505050506040513d601f19601f820116820180604052508101906110979190611c6d565b905090565b6040516001600160a01b0383166024820152604481018290526110ff90849063a9059cbb60e01b906064015b60408051601f198184030181529190526020810180516001600160e01b03166001600160e01b031990931692909217909152611142565b505050565b6040516001600160a01b038085166024830152831660448201526064810182905261113c9085906323b872dd60e01b906084016110c8565b50505050565b6000611197826040518060400160405280602081526020017f5361666545524332303a206c6f772d6c6576656c2063616c6c206661696c6564815250856001600160a01b03166112149092919063ffffffff16565b8051909150156110ff57808060200190518101906111b59190611e6c565b6110ff5760405162461bcd60e51b815260206004820152602a60248201527f5361666545524332303a204552433230206f7065726174696f6e20646964206e6044820152691bdd081cdd58d8d9595960b21b606482015260840161025c565b6060611223848460008561122d565b90505b9392505050565b60608247101561128e5760405162461bcd60e51b815260206004820152602660248201527f416464726573733a20696e73756666696369656e742062616c616e636520666f6044820152651c8818d85b1b60d21b606482015260840161025c565b843b6112dc5760405162461bcd60e51b815260206004820152601d60248201527f416464726573733a2063616c6c20746f206e6f6e2d636f6e7472616374000000604482015260640161025c565b600080866001600160a01b031685876040516112f891906120fb565b60006040518083038185875af1925050503d8060008114611335576040519150601f19603f3d011682016040523d82523d6000602084013e61133a565b606091505b509150915061134a828286611355565b979650505050505050565b60608315611364575081611226565b8251156113745782518084602001fd5b8160405162461bcd60e51b815260040161025c9190612117565b604051806101600160405280600081526020016000815260200160006001600160a01b03168152602001600081526020016000815260200160006001600160a01b031681526020016000815260200160608152602001606081526020016114a0604080516102c081018252600080825260208201819052909182019081526000602082018190526040820181905260608083018290526080830182905260a0830182905260c0830182905260e08301829052610100830182905261012083018290526101408301829052610160830182905261018083018290526101a083018290526101c083018290526101e08301829052610200830152610220820181905261024082018190526102609091015290565b8152602001600081525090565b6000602082840312156114bf57600080fd5b81356001600160e01b03198116811461122657600080fd5b6001600160a01b03811681146114ec57600080fd5b50565b634e487b7160e01b600052604160045260246000fd5b6040516102c081016001600160401b0381118282101715611528576115286114ef565b60405290565b60405161028081016001600160401b0381118282101715611528576115286114ef565b604051601f8201601f191681016001600160401b0381118282101715611579576115796114ef565b604052919050565b60006001600160401b0382111561159a5761159a6114ef565b50601f01601f191660200190565b600082601f8301126115b957600080fd5b81356115cc6115c782611581565b611551565b8181528460208386010111156115e157600080fd5b816020850160208301376000918101602001919091529392505050565b6000806000806080858703121561161457600080fd5b843561161f816114d7565b9350602085013561162f816114d7565b92506040850135915060608501356001600160401b0381111561165157600080fd5b61165d878288016115a8565b91505092959194509250565b60008083601f84011261167b57600080fd5b5081356001600160401b0381111561169257600080fd5b6020830191508360208260051b85010111156116ad57600080fd5b9250929050565b600080600080600080600080600060a08a8c0312156116d257600080fd5b89356001600160401b03808211156116e957600080fd5b6116f58d838e01611669565b909b50995060208c013591508082111561170e57600080fd5b61171a8d838e01611669565b909950975060408c013591508082111561173357600080fd5b61173f8d838e01611669565b909750955060608c01359150611754826114d7565b90935060808b0135908082111561176a57600080fd5b818c0191508c601f83011261177e57600080fd5b81358181111561178d57600080fd5b8d602082850101111561179f57600080fd5b6020830194508093505050509295985092959850929598565b600082601f8301126117c957600080fd5b813560206001600160401b038211156117e4576117e46114ef565b8160051b6117f3828201611551565b928352848101820192828101908785111561180d57600080fd5b83870192505b8483101561134a57823582529183019190830190611813565b600080600080600060a0868803121561184457600080fd5b853561184f816114d7565b9450602086013561185f816114d7565b935060408601356001600160401b038082111561187b57600080fd5b61188789838a016117b8565b9450606088013591508082111561189d57600080fd5b6118a989838a016117b8565b935060808801359150808211156118bf57600080fd5b506118cc888289016115a8565b9150509295509295909350565b600080600080600060a086880312156118f157600080fd5b85356118fc816114d7565b9450602086013561190c816114d7565b9350604086013592506060860135915060808601356001600160401b0381111561193557600080fd5b6118cc888289016115a8565b6000806040838503121561195457600080fd5b82356001600160401b0381111561196a57600080fd5b611976858286016115a8565b9250506020830135611987816114d7565b809150509250929050565b60005b838110156119ad578181015183820152602001611995565b8381111561113c5750506000910152565b600082601f8301126119cf57600080fd5b81516119dd6115c782611581565b8181528460208386010111156119f257600080fd5b611a03826020830160208701611992565b949350505050565b60008060008060808587031215611a2157600080fd5b84519350602085015192506040850151915060608501516001600160401b03811115611a4c57600080fd5b61165d878288016119be565b80518015158114611a6857600080fd5b919050565b805160028110611a6857600080fd5b8051611a68816114d7565b805164ffffffffff81168114611a6857600080fd5b80516001600160801b0381168114611a6857600080fd5b805160ff81168114611a6857600080fd5b600060208284031215611ad657600080fd5b81516001600160401b0380821115611aed57600080fd5b908301906102c08286031215611b0257600080fd5b611b0a611505565b611b1383611a58565b8152611b2160208401611a58565b6020820152611b3260408401611a6d565b6040820152611b4360608401611a7c565b60608201526080830151608082015260a083015160a0820152611b6860c08401611a7c565b60c082015260e083015160e0820152610100808401518183015250610120611b91818501611a87565b90820152610140611ba3848201611a87565b90820152610160611bb5848201611a9c565b90820152610180611bc7848201611a7c565b908201526101a0611bd9848201611a7c565b908201526101c083810151908201526101e080840151908201526102008084015190820152610220611c0c818501611a7c565b908201526102408381015183811115611c2457600080fd5b611c30888287016119be565b8284015250506102609150611c46828401611ab3565b9181019190915261028082810151908201526102a091820151918101919091529392505050565b600060208284031215611c7f57600080fd5b8151611226816114d7565b805160048110611a6857600080fd5b60006102808284031215611cac57600080fd5b611cb461152e565b611cbd83611a7c565b81526020830151602082015260408301516040820152611cdf60608401611a7c565b6060820152611cf060808401611a7c565b6080820152611d0160a08401611a7c565b60a082015260c083015160c0820152611d1c60e08401611a9c565b60e0820152610100611d2f818501611a9c565b90820152610120611d41848201611a7c565b90820152610140611d53848201611a7c565b90820152610160838101519082015261018080840151908201526101a0611d7b818501611a87565b908201526101c0611d8d848201611a87565b908201526101e0611d9f848201611a87565b90820152610200611db1848201611a87565b90820152610220611dc3848201611a58565b90820152610240611dd5848201611a58565b90820152610260611de7848201611c8a565b908201529392505050565b600060208284031215611e0457600080fd5b5051919050565b634e487b7160e01b600052601160045260246000fd5b60008219821115611e3457611e34611e0b565b500190565b634e487b7160e01b600052603260045260246000fd5b600060208284031215611e6157600080fd5b8135611226816114d7565b600060208284031215611e7e57600080fd5b61122682611a58565b60028110611ea557634e487b7160e01b600052602160045260246000fd5b9052565b60008151808452611ec1816020860160208601611992565b601f01601f19169290920160200192915050565b60c08152611ee860c08201875115159052565b60006020870151611efd60e084018215159052565b506040870151610100611f1281850183611e87565b60608901519150610120611f30818601846001600160a01b03169052565b60808a01519250610140838187015260a08b01519350610160848188015260c08c01519450610180611f6c818901876001600160a01b03169052565b60e08d015195506101a086818a0152858e015196506101c0955086868a0152848e015196506101e09450611fa8858a018864ffffffffff169052565b928d0151955061020092611fc48985018864ffffffffff169052565b918d0151955061022091611fe2898401886001600160801b03169052565b908d0151955061024090612000898301886001600160a01b03169052565b8d0151955061026061201c898201886001600160a01b03169052565b948d015161028089810191909152938d01516102a0808a0191909152928d01516102c0808a0191909152828e01516001600160a01b03166102e08a0152818e01516103008a018290529650939492939261207a6103808a0188611ea9565b9650808e0151935050505061209561032087018260ff169052565b5090890151610340850152979097015161036083015250602080820195909552604081019390935260608301919091526001600160a01b0316608082015280830360a090910152600082520190565b6000828210156120f6576120f6611e0b565b500390565b6000825161210d818460208701611992565b9190910192915050565b6020815260006112266020830184611ea956fea2646970667358221220dd52b43a81f33dc986b864c915b08766acd79626ef4ca4b6c3eecbf8f1b450c064736f6c634300080a0033",
  "libraries": {
    "BespokeTypes": "0x057AEc26BA4EdD466A8A61A08804eA931BBD8C58"
  },
  "devdoc": {
    "kind": "dev",
    "methods": {
      "onERC721Received(address,address,uint256,bytes)": {
        "details": "See {IERC721Receiver-onERC721Received}. Always returns `IERC721Receiver.onERC721Received.selector`."
      },
      "supportsInterface(bytes4)": {
        "details": "See {IERC165-supportsInterface}."
      }
    },
    "version": 1
  },
  "userdoc": {
    "kind": "user",
    "methods": {},
    "version": 1
  },
  "storageLayout": {
    "storage": [],
    "types": null
  }
}