{
  "address": "0xD787162405A70645c2fF1eFae34b46101eFA372C",
  "abi": [
    {
      "inputs": [
        {
          "internalType": "contract IAaveLendPoolAddressesProvider",
          "name": "provider",
          "type": "address"
        },
        {
          "internalType": "contract IOpenSkyBespokeMarket",
          "name": "bespokeMarket",
          "type": "address"
        },
        {
          "internalType": "contract IOpenSkyPool",
          "name": "pool",
          "type": "address"
        }
      ],
      "stateMutability": "nonpayable",
      "type": "constructor"
    },
    {
      "inputs": [],
      "name": "AAVE2_ADDRESSES_PROVIDER",
      "outputs": [
        {
          "internalType": "contract IAaveLendPoolAddressesProvider",
          "name": "",
          "type": "address"
        }
      ],
      "stateMutability": "view",
      "type": "function"
    },
    {
      "inputs": [],
      "name": "OpenSkyBespokeMarket",
      "outputs": [
        {
          "internalType": "contract IOpenSkyBespokeMarket",
          "name": "",
          "type": "address"
        }
      ],
      "stateMutability": "view",
      "type": "function"
    },
    {
      "inputs": [],
      "name": "OpenSkyPool",
      "outputs": [
        {
          "internalType": "contract IOpenSkyPool",
          "name": "",
          "type": "address"
        }
      ],
      "stateMutability": "view",
      "type": "function"
    },
    {
      "inputs": [],
      "name": "aavePool",
      "outputs": [
        {
          "internalType": "contract IAaveLendPool",
          "name": "",
          "type": "address"
        }
      ],
      "stateMutability": "nonpayable",
      "type": "function"
    },
    {
      "inputs": [
        {
          "internalType": "address",
          "name": "adapter",
          "type": "address"
        },
        {
          "internalType": "address",
          "name": "flashBorrowAssetAddress",
          "type": "address"
        },
        {
          "internalType": "uint256",
          "name": "flashBorrowAmount",
          "type": "uint256"
        },
        {
          "internalType": "bytes",
          "name": "data",
          "type": "bytes"
        }
      ],
      "name": "refinance",
      "outputs": [],
      "stateMutability": "nonpayable",
      "type": "function"
    }
  ],
  "transactionHash": "0xe1f894564e10b883eca8c0c090f85544cbe554116e86db00f11986b8cc3f26af",
  "args": [
    "0x9C3106e111a3317d3662F4a3f9622B6d17EC79fE",
    "0x9486A58939Ca99A5A7077F4a4e46f9eb9cEEe689",
    "0xC061Dd1673170169bB98F9172ceb4f0B44DcDbcC"
  ],
  "solcInputHash": "10f59c690702e999a672788cf48201bb",
  "bytecode": "0x60e060405234801561001057600080fd5b506040516106a03803806106a083398101604081905261002f91610064565b6001600160a01b0392831660805290821660a0521660c0526100b1565b6001600160a01b038116811461006157600080fd5b50565b60008060006060848603121561007957600080fd5b83516100848161004c565b60208501519093506100958161004c565b60408501519092506100a68161004c565b809150509250925092565b60805160a05160c0516105bc6100e4600039600060c10152600060e80152600081816061015261028b01526105bc6000f3fe608060405234801561001057600080fd5b50600436106100575760003560e01c806311ea536e1461005c57806367960bf81461009f578063a03e4bc3146100b4578063aedd7bf5146100bc578063c5d33c9d146100e3575b600080fd5b6100837f000000000000000000000000000000000000000000000000000000000000000081565b6040516001600160a01b03909116815260200160405180910390f35b6100b26100ad366004610328565b61010a565b005b610083610287565b6100837f000000000000000000000000000000000000000000000000000000000000000081565b6100837f000000000000000000000000000000000000000000000000000000000000000081565b604080516001808252818301909252600091602080830190803683370190505090508481600081518110610140576101406103c7565b6001600160a01b0392909216602092830291909101909101526040805160018082528183019092526000918160200160208202803683370190505090508481600081518110610191576101916103c7565b60209081029190910101526040805160018082528183019092526000918160200160208202803683370190505090506000816000815181106101d5576101d56103c7565b60200260200101818152505060008585336040516020016101f8939291906103dd565b6040516020818303038152906040529050610211610287565b6001600160a01b031663ab9c4b5d8a86868660008760006040518863ffffffff1660e01b815260040161024a97969594939291906104a6565b600060405180830381600087803b15801561026457600080fd5b505af1158015610278573d6000803e3d6000fd5b50505050505050505050505050565b60007f00000000000000000000000000000000000000000000000000000000000000006001600160a01b0316630261bf8b6040518163ffffffff1660e01b8152600401602060405180830381865afa1580156102e7573d6000803e3d6000fd5b505050506040513d601f19601f8201168201806040525081019061030b9190610562565b905090565b6001600160a01b038116811461032557600080fd5b50565b60008060008060006080868803121561034057600080fd5b853561034b81610310565b9450602086013561035b81610310565b935060408601359250606086013567ffffffffffffffff8082111561037f57600080fd5b818801915088601f83011261039357600080fd5b8135818111156103a257600080fd5b8960208285010111156103b457600080fd5b9699959850939650602001949392505050565b634e487b7160e01b600052603260045260246000fd5b6040815282604082015282846060830137600060608483018101919091526001600160a01b03929092166020820152601f909201601f191690910101919050565b600081518084526020808501945080840160005b8381101561044e57815187529582019590820190600101610432565b509495945050505050565b6000815180845260005b8181101561047f57602081850181015186830182015201610463565b81811115610491576000602083870101525b50601f01601f19169290920160200192915050565b6001600160a01b03888116825260e0602080840182905289519184018290526000928a820192909190610100860190855b818110156104f55785518516835294830194918301916001016104d7565b50508581036040870152610509818c61041e565b93505050508281036060840152610520818861041e565b6001600160a01b0387166080850152905082810360a08401526105438186610459565b91505061055660c083018461ffff169052565b98975050505050505050565b60006020828403121561057457600080fd5b815161057f81610310565b939250505056fea2646970667358221220811b2d7e9a05e7afaef345fc0c9777a77decd40af404846c329a50d1ee927d8264736f6c634300080a0033",
  "libraries": {
    "BespokeTypes": "0xA3f72EFE184A58706Ef2DeC6C6fbd6c58e8FDA20"
  },
  "devdoc": {
    "kind": "dev",
    "methods": {},
    "version": 1
  },
  "userdoc": {
    "kind": "user",
    "methods": {},
    "version": 1
  },
  "storageLayout": {
    "storage": [],
    "types": null
  }
}