{
  "address": "0x6722AD2dcb411bC122C320368232A474E95a6501",
  "abi": [
    {
      "inputs": [
        {
          "internalType": "address",
          "name": "SETTINGS_",
          "type": "address"
        },
        {
          "internalType": "address",
          "name": "BESPOKE_SETTINGS_",
          "type": "address"
        },
        {
          "internalType": "address",
          "name": "WETH_",
          "type": "address"
        }
      ],
      "stateMutability": "nonpayable",
      "type": "constructor"
    },
    {
      "anonymous": false,
      "inputs": [
        {
          "indexed": true,
          "internalType": "address",
          "name": "sender",
          "type": "address"
        },
        {
          "indexed": false,
          "internalType": "uint256",
          "name": "nonce",
          "type": "uint256"
        }
      ],
      "name": "CancelAllOffers",
      "type": "event"
    },
    {
      "anonymous": false,
      "inputs": [
        {
          "indexed": true,
          "internalType": "address",
          "name": "sender",
          "type": "address"
        },
        {
          "indexed": false,
          "internalType": "uint256[]",
          "name": "nonces",
          "type": "uint256[]"
        }
      ],
      "name": "CancelMultipleOffers",
      "type": "event"
    },
    {
      "anonymous": false,
      "inputs": [
        {
          "indexed": true,
          "internalType": "address",
          "name": "token",
          "type": "address"
        },
        {
          "indexed": true,
          "internalType": "address",
          "name": "to",
          "type": "address"
        },
        {
          "indexed": false,
          "internalType": "uint256[]",
          "name": "ids",
          "type": "uint256[]"
        },
        {
          "indexed": false,
          "internalType": "uint256[]",
          "name": "amounts",
          "type": "uint256[]"
        },
        {
          "indexed": false,
          "internalType": "bytes",
          "name": "data",
          "type": "bytes"
        }
      ],
      "name": "ClaimERC1155Airdrop",
      "type": "event"
    },
    {
      "anonymous": false,
      "inputs": [
        {
          "indexed": true,
          "internalType": "address",
          "name": "token",
          "type": "address"
        },
        {
          "indexed": true,
          "internalType": "address",
          "name": "to",
          "type": "address"
        },
        {
          "indexed": false,
          "internalType": "uint256",
          "name": "amount",
          "type": "uint256"
        }
      ],
      "name": "ClaimERC20Airdrop",
      "type": "event"
    },
    {
      "anonymous": false,
      "inputs": [
        {
          "indexed": true,
          "internalType": "address",
          "name": "token",
          "type": "address"
        },
        {
          "indexed": true,
          "internalType": "address",
          "name": "to",
          "type": "address"
        },
        {
          "indexed": false,
          "internalType": "uint256[]",
          "name": "ids",
          "type": "uint256[]"
        }
      ],
      "name": "ClaimERC721Airdrop",
      "type": "event"
    },
    {
      "anonymous": false,
      "inputs": [
        {
          "indexed": true,
          "internalType": "address",
          "name": "receiver",
          "type": "address"
        },
        {
          "indexed": false,
          "internalType": "address",
          "name": "sender",
          "type": "address"
        },
        {
          "indexed": true,
          "internalType": "address",
          "name": "nftAddress",
          "type": "address"
        },
        {
          "indexed": true,
          "internalType": "uint256",
          "name": "tokenId",
          "type": "uint256"
        }
      ],
      "name": "FlashClaim",
      "type": "event"
    },
    {
      "anonymous": false,
      "inputs": [
        {
          "indexed": true,
          "internalType": "uint256",
          "name": "loanId",
          "type": "uint256"
        },
        {
          "indexed": true,
          "internalType": "address",
          "name": "lender",
          "type": "address"
        }
      ],
      "name": "Foreclose",
      "type": "event"
    },
    {
      "anonymous": false,
      "inputs": [
        {
          "indexed": true,
          "internalType": "address",
          "name": "previousOwner",
          "type": "address"
        },
        {
          "indexed": true,
          "internalType": "address",
          "name": "newOwner",
          "type": "address"
        }
      ],
      "name": "OwnershipTransferred",
      "type": "event"
    },
    {
      "anonymous": false,
      "inputs": [
        {
          "indexed": false,
          "internalType": "address",
          "name": "account",
          "type": "address"
        }
      ],
      "name": "Paused",
      "type": "event"
    },
    {
      "anonymous": false,
      "inputs": [
        {
          "indexed": true,
          "internalType": "uint256",
          "name": "loanId",
          "type": "uint256"
        },
        {
          "indexed": true,
          "internalType": "address",
          "name": "borrower",
          "type": "address"
        }
      ],
      "name": "Repay",
      "type": "event"
    },
    {
      "anonymous": false,
      "inputs": [
        {
          "indexed": true,
          "internalType": "uint256",
          "name": "loanId",
          "type": "uint256"
        },
        {
          "indexed": true,
          "internalType": "address",
          "name": "borrower",
          "type": "address"
        }
      ],
      "name": "RepayETH",
      "type": "event"
    },
    {
      "anonymous": false,
      "inputs": [
        {
          "indexed": false,
          "internalType": "bytes32",
          "name": "offerHash",
          "type": "bytes32"
        },
        {
          "indexed": false,
          "internalType": "uint256",
          "name": "oldLoanId",
          "type": "uint256"
        },
        {
          "indexed": true,
          "internalType": "uint256",
          "name": "loanId",
          "type": "uint256"
        },
        {
          "indexed": true,
          "internalType": "address",
          "name": "lender",
          "type": "address"
        },
        {
          "indexed": true,
          "internalType": "address",
          "name": "borrower",
          "type": "address"
        },
        {
          "indexed": false,
          "internalType": "uint256",
          "name": "nonce",
          "type": "uint256"
        }
      ],
      "name": "Rollover",
      "type": "event"
    },
    {
      "anonymous": false,
      "inputs": [
        {
          "indexed": false,
          "internalType": "bytes32",
          "name": "offerHash",
          "type": "bytes32"
        },
        {
          "indexed": true,
          "internalType": "uint256",
          "name": "loanId",
          "type": "uint256"
        },
        {
          "indexed": true,
          "internalType": "address",
          "name": "lender",
          "type": "address"
        },
        {
          "indexed": true,
          "internalType": "address",
          "name": "borrower",
          "type": "address"
        },
        {
          "indexed": false,
          "internalType": "uint256",
          "name": "nonce",
          "type": "uint256"
        }
      ],
      "name": "TakeBorrowOffer",
      "type": "event"
    },
    {
      "anonymous": false,
      "inputs": [
        {
          "indexed": false,
          "internalType": "bytes32",
          "name": "offerHash",
          "type": "bytes32"
        },
        {
          "indexed": true,
          "internalType": "uint256",
          "name": "loanId",
          "type": "uint256"
        },
        {
          "indexed": true,
          "internalType": "address",
          "name": "lender",
          "type": "address"
        },
        {
          "indexed": true,
          "internalType": "address",
          "name": "borrower",
          "type": "address"
        },
        {
          "indexed": false,
          "internalType": "uint256",
          "name": "nonce",
          "type": "uint256"
        }
      ],
      "name": "TakeBorrowOfferETH",
      "type": "event"
    },
    {
      "anonymous": false,
      "inputs": [
        {
          "indexed": false,
          "internalType": "bytes32",
          "name": "offerHash",
          "type": "bytes32"
        },
        {
          "indexed": true,
          "internalType": "uint256",
          "name": "loanId",
          "type": "uint256"
        },
        {
          "indexed": true,
          "internalType": "address",
          "name": "lender",
          "type": "address"
        },
        {
          "indexed": true,
          "internalType": "address",
          "name": "borrower",
          "type": "address"
        },
        {
          "indexed": false,
          "internalType": "uint256",
          "name": "nonce",
          "type": "uint256"
        }
      ],
      "name": "TakeLendOffer",
      "type": "event"
    },
    {
      "anonymous": false,
      "inputs": [
        {
          "indexed": false,
          "internalType": "address",
          "name": "account",
          "type": "address"
        }
      ],
      "name": "Unpaused",
      "type": "event"
    },
    {
      "stateMutability": "payable",
      "type": "fallback"
    },
    {
      "inputs": [],
      "name": "BESPOKE_SETTINGS",
      "outputs": [
        {
          "internalType": "contract IOpenSkyBespokeSettings",
          "name": "",
          "type": "address"
        }
      ],
      "stateMutability": "view",
      "type": "function"
    },
    {
      "inputs": [],
      "name": "INTERFACE_ID_ERC1155",
      "outputs": [
        {
          "internalType": "bytes4",
          "name": "",
          "type": "bytes4"
        }
      ],
      "stateMutability": "view",
      "type": "function"
    },
    {
      "inputs": [],
      "name": "INTERFACE_ID_ERC721",
      "outputs": [
        {
          "internalType": "bytes4",
          "name": "",
          "type": "bytes4"
        }
      ],
      "stateMutability": "view",
      "type": "function"
    },
    {
      "inputs": [],
      "name": "SETTINGS",
      "outputs": [
        {
          "internalType": "contract IOpenSkySettings",
          "name": "",
          "type": "address"
        }
      ],
      "stateMutability": "view",
      "type": "function"
    },
    {
      "inputs": [],
      "name": "WETH",
      "outputs": [
        {
          "internalType": "contract IWETH",
          "name": "",
          "type": "address"
        }
      ],
      "stateMutability": "view",
      "type": "function"
    },
    {
      "inputs": [
        {
          "internalType": "uint256",
          "name": "minNonce_",
          "type": "uint256"
        }
      ],
      "name": "cancelAllBorrowOffersForSender",
      "outputs": [],
      "stateMutability": "nonpayable",
      "type": "function"
    },
    {
      "inputs": [
        {
          "internalType": "uint256[]",
          "name": "offerNonces",
          "type": "uint256[]"
        }
      ],
      "name": "cancelMultipleBorrowOffers",
      "outputs": [],
      "stateMutability": "nonpayable",
      "type": "function"
    },
    {
      "inputs": [
        {
          "internalType": "address",
          "name": "token",
          "type": "address"
        },
        {
          "internalType": "address",
          "name": "to",
          "type": "address"
        },
        {
          "internalType": "uint256[]",
          "name": "ids",
          "type": "uint256[]"
        },
        {
          "internalType": "uint256[]",
          "name": "amounts",
          "type": "uint256[]"
        },
        {
          "internalType": "bytes",
          "name": "data",
          "type": "bytes"
        }
      ],
      "name": "claimERC1155Airdrop",
      "outputs": [],
      "stateMutability": "nonpayable",
      "type": "function"
    },
    {
      "inputs": [
        {
          "internalType": "address",
          "name": "token",
          "type": "address"
        },
        {
          "internalType": "address",
          "name": "to",
          "type": "address"
        },
        {
          "internalType": "uint256",
          "name": "amount",
          "type": "uint256"
        }
      ],
      "name": "claimERC20Airdrop",
      "outputs": [],
      "stateMutability": "nonpayable",
      "type": "function"
    },
    {
      "inputs": [
        {
          "internalType": "address",
          "name": "token",
          "type": "address"
        },
        {
          "internalType": "address",
          "name": "to",
          "type": "address"
        },
        {
          "internalType": "uint256[]",
          "name": "ids",
          "type": "uint256[]"
        }
      ],
      "name": "claimERC721Airdrop",
      "outputs": [],
      "stateMutability": "nonpayable",
      "type": "function"
    },
    {
      "inputs": [
        {
          "internalType": "address",
          "name": "token",
          "type": "address"
        },
        {
          "internalType": "address",
          "name": "to",
          "type": "address"
        },
        {
          "internalType": "uint256",
          "name": "amount",
          "type": "uint256"
        }
      ],
      "name": "emergencyTokenTransfer",
      "outputs": [],
      "stateMutability": "nonpayable",
      "type": "function"
    },
    {
      "inputs": [
        {
          "internalType": "address",
          "name": "receiverAddress",
          "type": "address"
        },
        {
          "internalType": "uint256[]",
          "name": "loanIds",
          "type": "uint256[]"
        },
        {
          "internalType": "bytes",
          "name": "params",
          "type": "bytes"
        }
      ],
      "name": "flashClaim",
      "outputs": [],
      "stateMutability": "nonpayable",
      "type": "function"
    },
    {
      "inputs": [
        {
          "internalType": "uint256",
          "name": "loanId",
          "type": "uint256"
        }
      ],
      "name": "foreclose",
      "outputs": [],
      "stateMutability": "nonpayable",
      "type": "function"
    },
    {
      "inputs": [
        {
          "internalType": "uint256",
          "name": "loanId",
          "type": "uint256"
        }
      ],
      "name": "getBorrowBalance",
      "outputs": [
        {
          "internalType": "uint256",
          "name": "",
          "type": "uint256"
        }
      ],
      "stateMutability": "view",
      "type": "function"
    },
    {
      "inputs": [
        {
          "internalType": "uint256",
          "name": "loanId",
          "type": "uint256"
        }
      ],
      "name": "getBorrowInterest",
      "outputs": [
        {
          "internalType": "uint256",
          "name": "",
          "type": "uint256"
        }
      ],
      "stateMutability": "view",
      "type": "function"
    },
    {
      "inputs": [
        {
          "internalType": "uint256",
          "name": "loanId",
          "type": "uint256"
        }
      ],
      "name": "getLoanData",
      "outputs": [
        {
          "components": [
            {
              "internalType": "uint256",
              "name": "reserveId",
              "type": "uint256"
            },
            {
              "internalType": "address",
              "name": "nftAddress",
              "type": "address"
            },
            {
              "internalType": "uint256",
              "name": "tokenId",
              "type": "uint256"
            },
            {
              "internalType": "uint256",
              "name": "tokenAmount",
              "type": "uint256"
            },
            {
              "internalType": "address",
              "name": "borrower",
              "type": "address"
            },
            {
              "internalType": "uint256",
              "name": "amount",
              "type": "uint256"
            },
            {
              "internalType": "uint128",
              "name": "borrowRate",
              "type": "uint128"
            },
            {
              "internalType": "uint128",
              "name": "interestPerSecond",
              "type": "uint128"
            },
            {
              "internalType": "address",
              "name": "currency",
              "type": "address"
            },
            {
              "internalType": "uint40",
              "name": "borrowDuration",
              "type": "uint40"
            },
            {
              "internalType": "uint40",
              "name": "borrowBegin",
              "type": "uint40"
            },
            {
              "internalType": "uint40",
              "name": "borrowOverdueTime",
              "type": "uint40"
            },
            {
              "internalType": "uint40",
              "name": "liquidatableTime",
              "type": "uint40"
            },
            {
              "internalType": "address",
              "name": "lender",
              "type": "address"
            },
            {
              "internalType": "enum BespokeTypes.LoanStatus",
              "name": "status",
              "type": "uint8"
            }
          ],
          "internalType": "struct BespokeTypes.LoanData",
          "name": "",
          "type": "tuple"
        }
      ],
      "stateMutability": "view",
      "type": "function"
    },
    {
      "inputs": [
        {
          "internalType": "uint256",
          "name": "loanId",
          "type": "uint256"
        }
      ],
      "name": "getPenalty",
      "outputs": [
        {
          "internalType": "uint256",
          "name": "",
          "type": "uint256"
        }
      ],
      "stateMutability": "view",
      "type": "function"
    },
    {
      "inputs": [
        {
          "internalType": "uint256",
          "name": "loanId",
          "type": "uint256"
        }
      ],
      "name": "getStatus",
      "outputs": [
        {
          "internalType": "enum BespokeTypes.LoanStatus",
          "name": "",
          "type": "uint8"
        }
      ],
      "stateMutability": "view",
      "type": "function"
    },
    {
      "inputs": [
        {
          "internalType": "address",
          "name": "account",
          "type": "address"
        },
        {
          "internalType": "uint256",
          "name": "nonce",
          "type": "uint256"
        }
      ],
      "name": "isValidNonce",
      "outputs": [
        {
          "internalType": "bool",
          "name": "",
          "type": "bool"
        }
      ],
      "stateMutability": "view",
      "type": "function"
    },
    {
      "inputs": [
        {
          "internalType": "address",
          "name": "",
          "type": "address"
        }
      ],
      "name": "minNonce",
      "outputs": [
        {
          "internalType": "uint256",
          "name": "",
          "type": "uint256"
        }
      ],
      "stateMutability": "view",
      "type": "function"
    },
    {
      "inputs": [
        {
          "internalType": "address",
          "name": "",
          "type": "address"
        },
        {
          "internalType": "address",
          "name": "",
          "type": "address"
        },
        {
          "internalType": "uint256[]",
          "name": "",
          "type": "uint256[]"
        },
        {
          "internalType": "uint256[]",
          "name": "",
          "type": "uint256[]"
        },
        {
          "internalType": "bytes",
          "name": "",
          "type": "bytes"
        }
      ],
      "name": "onERC1155BatchReceived",
      "outputs": [
        {
          "internalType": "bytes4",
          "name": "",
          "type": "bytes4"
        }
      ],
      "stateMutability": "nonpayable",
      "type": "function"
    },
    {
      "inputs": [
        {
          "internalType": "address",
          "name": "",
          "type": "address"
        },
        {
          "internalType": "address",
          "name": "",
          "type": "address"
        },
        {
          "internalType": "uint256",
          "name": "",
          "type": "uint256"
        },
        {
          "internalType": "uint256",
          "name": "",
          "type": "uint256"
        },
        {
          "internalType": "bytes",
          "name": "",
          "type": "bytes"
        }
      ],
      "name": "onERC1155Received",
      "outputs": [
        {
          "internalType": "bytes4",
          "name": "",
          "type": "bytes4"
        }
      ],
      "stateMutability": "nonpayable",
      "type": "function"
    },
    {
      "inputs": [
        {
          "internalType": "address",
          "name": "",
          "type": "address"
        },
        {
          "internalType": "address",
          "name": "",
          "type": "address"
        },
        {
          "internalType": "uint256",
          "name": "",
          "type": "uint256"
        },
        {
          "internalType": "bytes",
          "name": "",
          "type": "bytes"
        }
      ],
      "name": "onERC721Received",
      "outputs": [
        {
          "internalType": "bytes4",
          "name": "",
          "type": "bytes4"
        }
      ],
      "stateMutability": "nonpayable",
      "type": "function"
    },
    {
      "inputs": [],
      "name": "owner",
      "outputs": [
        {
          "internalType": "address",
          "name": "",
          "type": "address"
        }
      ],
      "stateMutability": "view",
      "type": "function"
    },
    {
      "inputs": [],
      "name": "pause",
      "outputs": [],
      "stateMutability": "nonpayable",
      "type": "function"
    },
    {
      "inputs": [],
      "name": "paused",
      "outputs": [
        {
          "internalType": "bool",
          "name": "",
          "type": "bool"
        }
      ],
      "stateMutability": "view",
      "type": "function"
    },
    {
      "inputs": [],
      "name": "renounceOwnership",
      "outputs": [],
      "stateMutability": "nonpayable",
      "type": "function"
    },
    {
      "inputs": [
        {
          "internalType": "uint256",
          "name": "loanId",
          "type": "uint256"
        }
      ],
      "name": "repay",
      "outputs": [],
      "stateMutability": "nonpayable",
      "type": "function"
    },
    {
      "inputs": [
        {
          "internalType": "uint256",
          "name": "loanId",
          "type": "uint256"
        }
      ],
      "name": "repayETH",
      "outputs": [],
      "stateMutability": "payable",
      "type": "function"
    },
    {
      "inputs": [
        {
          "internalType": "bytes4",
          "name": "interfaceId",
          "type": "bytes4"
        }
      ],
      "name": "supportsInterface",
      "outputs": [
        {
          "internalType": "bool",
          "name": "",
          "type": "bool"
        }
      ],
      "stateMutability": "view",
      "type": "function"
    },
    {
      "inputs": [
        {
          "components": [
            {
              "internalType": "enum BespokeTypes.OfferType",
              "name": "offerType",
              "type": "uint8"
            },
            {
              "internalType": "bool",
              "name": "isProrated",
              "type": "bool"
            },
            {
              "internalType": "uint256",
              "name": "reserveId",
              "type": "uint256"
            },
            {
              "internalType": "address",
              "name": "nftAddress",
              "type": "address"
            },
            {
              "internalType": "uint256",
              "name": "tokenId",
              "type": "uint256"
            },
            {
              "internalType": "uint256",
              "name": "tokenAmount",
              "type": "uint256"
            },
            {
              "internalType": "address",
              "name": "signer",
              "type": "address"
            },
            {
              "internalType": "uint256",
              "name": "borrowAmountMin",
              "type": "uint256"
            },
            {
              "internalType": "uint256",
              "name": "borrowAmountMax",
              "type": "uint256"
            },
            {
              "internalType": "uint40",
              "name": "borrowDurationMin",
              "type": "uint40"
            },
            {
              "internalType": "uint40",
              "name": "borrowDurationMax",
              "type": "uint40"
            },
            {
              "internalType": "uint128",
              "name": "borrowRate",
              "type": "uint128"
            },
            {
              "internalType": "address",
              "name": "currency",
              "type": "address"
            },
            {
              "internalType": "uint256",
              "name": "nonce",
              "type": "uint256"
            },
            {
              "internalType": "uint256",
              "name": "deadline",
              "type": "uint256"
            },
            {
              "internalType": "address",
              "name": "strategy",
              "type": "address"
            },
            {
              "internalType": "bytes",
              "name": "params",
              "type": "bytes"
            },
            {
              "internalType": "uint8",
              "name": "v",
              "type": "uint8"
            },
            {
              "internalType": "bytes32",
              "name": "r",
              "type": "bytes32"
            },
            {
              "internalType": "bytes32",
              "name": "s",
              "type": "bytes32"
            }
          ],
          "internalType": "struct BespokeTypes.Offer",
          "name": "offerData",
          "type": "tuple"
        },
        {
          "internalType": "uint256",
          "name": "supplyAmount",
          "type": "uint256"
        },
        {
          "internalType": "uint256",
          "name": "supplyDuration",
          "type": "uint256"
        }
      ],
      "name": "takeBorrowOffer",
      "outputs": [],
      "stateMutability": "nonpayable",
      "type": "function"
    },
    {
      "inputs": [
        {
          "components": [
            {
              "internalType": "enum BespokeTypes.OfferType",
              "name": "offerType",
              "type": "uint8"
            },
            {
              "internalType": "bool",
              "name": "isProrated",
              "type": "bool"
            },
            {
              "internalType": "uint256",
              "name": "reserveId",
              "type": "uint256"
            },
            {
              "internalType": "address",
              "name": "nftAddress",
              "type": "address"
            },
            {
              "internalType": "uint256",
              "name": "tokenId",
              "type": "uint256"
            },
            {
              "internalType": "uint256",
              "name": "tokenAmount",
              "type": "uint256"
            },
            {
              "internalType": "address",
              "name": "signer",
              "type": "address"
            },
            {
              "internalType": "uint256",
              "name": "borrowAmountMin",
              "type": "uint256"
            },
            {
              "internalType": "uint256",
              "name": "borrowAmountMax",
              "type": "uint256"
            },
            {
              "internalType": "uint40",
              "name": "borrowDurationMin",
              "type": "uint40"
            },
            {
              "internalType": "uint40",
              "name": "borrowDurationMax",
              "type": "uint40"
            },
            {
              "internalType": "uint128",
              "name": "borrowRate",
              "type": "uint128"
            },
            {
              "internalType": "address",
              "name": "currency",
              "type": "address"
            },
            {
              "internalType": "uint256",
              "name": "nonce",
              "type": "uint256"
            },
            {
              "internalType": "uint256",
              "name": "deadline",
              "type": "uint256"
            },
            {
              "internalType": "address",
              "name": "strategy",
              "type": "address"
            },
            {
              "internalType": "bytes",
              "name": "params",
              "type": "bytes"
            },
            {
              "internalType": "uint8",
              "name": "v",
              "type": "uint8"
            },
            {
              "internalType": "bytes32",
              "name": "r",
              "type": "bytes32"
            },
            {
              "internalType": "bytes32",
              "name": "s",
              "type": "bytes32"
            }
          ],
          "internalType": "struct BespokeTypes.Offer",
          "name": "offerData",
          "type": "tuple"
        },
        {
          "internalType": "uint256",
          "name": "supplyAmount",
          "type": "uint256"
        },
        {
          "internalType": "uint256",
          "name": "supplyDuration",
          "type": "uint256"
        }
      ],
      "name": "takeBorrowOfferETH",
      "outputs": [],
      "stateMutability": "payable",
      "type": "function"
    },
    {
      "inputs": [
        {
          "components": [
            {
              "internalType": "enum BespokeTypes.OfferType",
              "name": "offerType",
              "type": "uint8"
            },
            {
              "internalType": "bool",
              "name": "isProrated",
              "type": "bool"
            },
            {
              "internalType": "uint256",
              "name": "reserveId",
              "type": "uint256"
            },
            {
              "internalType": "address",
              "name": "nftAddress",
              "type": "address"
            },
            {
              "internalType": "uint256",
              "name": "tokenId",
              "type": "uint256"
            },
            {
              "internalType": "uint256",
              "name": "tokenAmount",
              "type": "uint256"
            },
            {
              "internalType": "address",
              "name": "signer",
              "type": "address"
            },
            {
              "internalType": "uint256",
              "name": "borrowAmountMin",
              "type": "uint256"
            },
            {
              "internalType": "uint256",
              "name": "borrowAmountMax",
              "type": "uint256"
            },
            {
              "internalType": "uint40",
              "name": "borrowDurationMin",
              "type": "uint40"
            },
            {
              "internalType": "uint40",
              "name": "borrowDurationMax",
              "type": "uint40"
            },
            {
              "internalType": "uint128",
              "name": "borrowRate",
              "type": "uint128"
            },
            {
              "internalType": "address",
              "name": "currency",
              "type": "address"
            },
            {
              "internalType": "uint256",
              "name": "nonce",
              "type": "uint256"
            },
            {
              "internalType": "uint256",
              "name": "deadline",
              "type": "uint256"
            },
            {
              "internalType": "address",
              "name": "strategy",
              "type": "address"
            },
            {
              "internalType": "bytes",
              "name": "params",
              "type": "bytes"
            },
            {
              "internalType": "uint8",
              "name": "v",
              "type": "uint8"
            },
            {
              "internalType": "bytes32",
              "name": "r",
              "type": "bytes32"
            },
            {
              "internalType": "bytes32",
              "name": "s",
              "type": "bytes32"
            }
          ],
          "internalType": "struct BespokeTypes.Offer",
          "name": "offerData",
          "type": "tuple"
        },
        {
          "internalType": "uint256",
          "name": "tokenId",
          "type": "uint256"
        },
        {
          "internalType": "uint256",
          "name": "borrowAmount",
          "type": "uint256"
        },
        {
          "internalType": "uint256",
          "name": "borrowDuration",
          "type": "uint256"
        },
        {
          "internalType": "bytes",
          "name": "params",
          "type": "bytes"
        }
      ],
      "name": "takeLendOffer",
      "outputs": [],
      "stateMutability": "nonpayable",
      "type": "function"
    },
    {
      "inputs": [
        {
          "internalType": "address",
          "name": "newOwner",
          "type": "address"
        }
      ],
      "name": "transferOwnership",
      "outputs": [],
      "stateMutability": "nonpayable",
      "type": "function"
    },
    {
      "inputs": [],
      "name": "unpause",
      "outputs": [],
      "stateMutability": "nonpayable",
      "type": "function"
    },
    {
      "stateMutability": "payable",
      "type": "receive"
    }
  ],
  "transactionHash": "0x398d5604dc6960d17a3149befafc0bc17f57763eb97a62c3e333f6147c8c0fa6",
  "args": [
    "0x90499A6848275e03E8De6608980F4e7d32fbaF6F",
    "0x904FBC1bE06f46f1b31B4f64D16a0E2fa3eaD215",
    "0x2b4393A035BC4144bE02953d6C8bcF010aBe1cA0"
  ],
  "solcInputHash": "5caf662bc955a4ee3750eea04101df77",
  "bytecode": "0x60e06040523480156200001157600080fd5b5060405162004227380380620042278339810160408190526200003491620000db565b6200003f336200006e565b6000805460ff60a01b19169055600180556001600160a01b0392831660805290821660a0521660c05262000125565b600080546001600160a01b038381166001600160a01b0319831681178455604051919092169283917f8be0079c531659141344cd1fd0a4f28419497f9722a3daafe3b4186f6b6457e09190a35050565b80516001600160a01b0381168114620000d657600080fd5b919050565b600080600060608486031215620000f157600080fd5b620000fc84620000be565b92506200010c60208501620000be565b91506200011c60408501620000be565b90509250925092565b60805160a05160c05161403f620001e86000396000818161065301528181611416015261289a0152600081816103e90152818161086d01528181610eaa01528181611081015281816113c6015281816116570152818161201a0152818161209701526127b401526000818161068701528181610ed9015281816110b0015281816113ee0152818161167f015281816116cc015281816117f101528181611d70015281816121260152818161225a0152818161247901526127e3015261403f6000f3fe6080604052600436106102085760003560e01c80636b52b36511610118578063ad5c4648116100a0578063cae595531161006f578063cae59553146106f0578063e3185e1214610710578063f23a6e6114610730578063f2fde38b1461075c578063f7a494c31461077c57610253565b8063ad5c464814610641578063ade97ab514610675578063bc197c81146106a9578063bc6bc0cd146106d557610253565b80638bf1badd116100e75780638bf1badd146105965780638da5cb5b146105b657806396e59682146105d4578063a3d5b255146105f4578063aa99fa981461061457610253565b80636b52b3651461052c578063715018a61461054c5780638456cb591461056157806384e5cec51461057657610253565b806329c55f061161019b5780633f4ba83a1161016a5780633f4ba83a1461047e5780634f070916146104935780635c622a0e146104b35780635c975abb146104e0578063622fe39f146104ff57610253565b806329c55f06146103d75780632f844ea81461042357806333bf615614610443578063371fd8e61461045e57610253565b80630fef19d8116101d75780630fef19d814610332578063150b7a02146103525780631c187495146103965780632247463e146103c457610253565b806301ffc9a71461029b57806303282d6e146102d05780630647ee20146102f25780630795debe1461031257610253565b366102535760405162461bcd60e51b8152602060048201526016602482015275109357d49150d152559157d393d517d0531313d5d15160521b60448201526064015b60405180910390fd5b60405162461bcd60e51b815260206004820152601760248201527f424d5f46414c4c4241434b5f4e4f545f414c4c4f574544000000000000000000604482015260640161024a565b3480156102a757600080fd5b506102bb6102b6366004612e64565b61078f565b60405190151581526020015b60405180910390f35b3480156102dc57600080fd5b506102f06102eb366004612f3f565b6107c6565b005b3480156102fe57600080fd5b506102bb61030d366004612fc1565b610dbf565b34801561031e57600080fd5b506102f061032d36600461328c565b610e12565b34801561033e57600080fd5b506102f061034d36600461330c565b610ff0565b34801561035e57600080fd5b5061037d61036d366004613359565b630a85bd0160e11b949350505050565b6040516001600160e01b031990911681526020016102c7565b3480156103a257600080fd5b506103b66103b13660046133c4565b6111bf565b6040519081526020016102c7565b6102f06103d23660046133c4565b61134d565b3480156103e357600080fd5b5061040b7f000000000000000000000000000000000000000000000000000000000000000081565b6040516001600160a01b0390911681526020016102c7565b34801561042f57600080fd5b506102f061043e3660046133dd565b611493565b34801561044f57600080fd5b5061037d636cdb3d1360e11b81565b34801561046a57600080fd5b506102f06104793660046133c4565b6115dd565b34801561048a57600080fd5b506102f06116c8565b34801561049f57600080fd5b506102f06104ae36600461341e565b6117ed565b3480156104bf57600080fd5b506104d36104ce3660046133c4565b61196e565b6040516102c79190613489565b3480156104ec57600080fd5b50600054600160a01b900460ff166102bb565b34801561050b57600080fd5b5061051f61051a3660046133c4565b611b03565b6040516102c79190613497565b34801561053857600080fd5b506103b66105473660046133c4565b611cdf565b34801561055857600080fd5b506102f0611d06565b34801561056d57600080fd5b506102f0611d6c565b34801561058257600080fd5b506102f06105913660046133c4565b611e8e565b3480156105a257600080fd5b506102f06105b13660046133c4565b611f76565b3480156105c257600080fd5b506000546001600160a01b031661040b565b3480156105e057600080fd5b506103b66105ef3660046133c4565b612063565b34801561060057600080fd5b506102f061060f36600461341e565b612122565b34801561062057600080fd5b506103b661062f3660046135ac565b60026020526000908152604090205481565b34801561064d57600080fd5b5061040b7f000000000000000000000000000000000000000000000000000000000000000081565b34801561068157600080fd5b5061040b7f000000000000000000000000000000000000000000000000000000000000000081565b3480156106b557600080fd5b5061037d6106c436600461363d565b63bc197c8160e01b95945050505050565b3480156106e157600080fd5b5061037d6380ac58cd60e01b81565b3480156106fc57600080fd5b506102f061070b3660046136d0565b612256565b34801561071c57600080fd5b506102f061072b366004613734565b612475565b34801561073c57600080fd5b5061037d61074b3660046137f2565b63f23a6e6160e01b95945050505050565b34801561076857600080fd5b506102f06107773660046135ac565b61265b565b6102f061078a36600461330c565b612723565b60006001600160e01b03198216630271189760e51b14806107c057506301ffc9a760e01b6001600160e01b03198316145b92915050565b60008581856001600160401b038111156107e2576107e2612fed565b60405190808252806020026020018201604052801561080b578160200160208202803683370190505b5090506000866001600160401b0381111561082857610828612fed565b604051908082528060200260200182016040528015610851578160200160208202803683370190505b509050600093505b86841015610acb57336001600160a01b03167f00000000000000000000000000000000000000000000000000000000000000006001600160a01b031663bb322a836040518163ffffffff1660e01b8152600401602060405180830381865afa1580156108c9573d6000803e3d6000fd5b505050506040513d601f19601f820116820180604052508101906108ed919061385a565b6001600160a01b0316636352211e8a8a8881811061090d5761090d613877565b905060200201356040518263ffffffff1660e01b815260040161093291815260200190565b602060405180830381865afa15801561094f573d6000803e3d6000fd5b505050506040513d601f19601f82011682018060405250810190610973919061385a565b6001600160a01b0316146109d35760405162461bcd60e51b815260206004820152602160248201527f424d5f464c415348434c41494d5f43414c4c45525f49535f4e4f545f4f574e456044820152602960f91b606482015260840161024a565b60006109f68989878181106109ea576109ea613877565b90506020020135611b03565b90506003816101c001516003811115610a1157610a1161345f565b1415610a5f5760405162461bcd60e51b815260206004820152601a60248201527f424d5f464c415348434c41494d5f5354415455535f4552524f52000000000000604482015260640161024a565b8060200151838681518110610a7657610a76613877565b60200260200101906001600160a01b031690816001600160a01b0316815250508060400151828681518110610aad57610aad613877565b60209081029190910101525083610ac3816138a3565b945050610859565b600093505b86841015610b9957818481518110610aea57610aea613877565b60200260200101516001600160a01b03166342842e0e308b848881518110610b1457610b14613877565b60209081029190910101516040516001600160e01b031960e086901b1681526001600160a01b0393841660048201529290911660248301526044820152606401600060405180830381600087803b158015610b6e57600080fd5b505af1158015610b82573d6000803e3d6000fd5b505050508380610b91906138a3565b945050610ad0565b604051628e896f60e41b81526001600160a01b038416906308e896f090610bce9085908590339030908d908d906004016138e7565b6020604051808303816000875af1158015610bed573d6000803e3d6000fd5b505050506040513d601f19601f82011682018060405250810190610c1191906139a0565b610c5d5760405162461bcd60e51b815260206004820152601c60248201527f424d5f464c415348434c41494d5f4558454355544f525f4552524f5200000000604482015260640161024a565b600093505b86841015610db457818481518110610c7c57610c7c613877565b60200260200101516001600160a01b03166342842e0e8a30848881518110610ca657610ca6613877565b60209081029190910101516040516001600160e01b031960e086901b1681526001600160a01b0393841660048201529290911660248301526044820152606401600060405180830381600087803b158015610d0057600080fd5b505af1158015610d14573d6000803e3d6000fd5b50505050808481518110610d2a57610d2a613877565b6020026020010151828581518110610d4457610d44613877565b60200260200101516001600160a01b03168a6001600160a01b03167f6bac1c66016500cd7b62d69e86268760baac6cd34a70003af66ffa8a97983216610d873390565b6040516001600160a01b03909116815260200160405180910390a483610dac816138a3565b945050610c62565b505050505050505050565b6001600160a01b038216600090815260036020908152604080832084845290915281205460ff16158015610e0b57506001600160a01b0383166000908152600260205260409020548210155b9392505050565b600054600160a01b900460ff1615610e3c5760405162461bcd60e51b815260040161024a906139bd565b60026001541415610e5f5760405162461bcd60e51b815260040161024a906139e7565b600260018190555073975F102A77DfCEdCdf511b21d01561FA88F7a2ff63ff2300f460036002600560048a6040518061010001604052808c81526020018b81526020018a81526020017f00000000000000000000000000000000000000000000000000000000000000006001600160a01b031681526020017f00000000000000000000000000000000000000000000000000000000000000006001600160a01b03168152602001610f0e6128db565b8152602001738EDf2dc4A22AcFB3aF927c2985170866D9D1Bc926304432eed8f6040518263ffffffff1660e01b8152600401610f4a9190613bdb565b602060405180830381865af4158015610f67573d6000803e3d6000fd5b505050506040513d601f19601f82011682018060405250810190610f8b9190613bee565b8152602001898152506040518763ffffffff1660e01b8152600401610fb596959493929190613c07565b60006040518083038186803b158015610fcd57600080fd5b505af4158015610fe1573d6000803e3d6000fd5b50506001805550505050505050565b600054600160a01b900460ff161561101a5760405162461bcd60e51b815260040161024a906139bd565b6002600154141561103d5760405162461bcd60e51b815260040161024a906139e7565b60026001819055507396b961a5643743536FCBE924dBA478056a438eA763c5cbf0dc6003600260056004886040518060c001604052808a81526020018981526020017f00000000000000000000000000000000000000000000000000000000000000006001600160a01b031681526020017f00000000000000000000000000000000000000000000000000000000000000006001600160a01b031681526020016110e56128db565b8152602001738EDf2dc4A22AcFB3aF927c2985170866D9D1Bc926304432eed8d6040518263ffffffff1660e01b81526004016111219190613bdb565b602060405180830381865af415801561113e573d6000803e3d6000fd5b505050506040513d601f19601f820116820180604052508101906111629190613bee565b8152506040518763ffffffff1660e01b815260040161118696959493929190613cea565b60006040518083038186803b15801561119e57600080fd5b505af41580156111b2573d6000803e3d6000fd5b5050600180555050505050565b600081815260056020818152604080842081516101e0810183528154815260018201546001600160a01b039081169482019490945260028201549281019290925260038082015460608401526004820154841660808401529381015460a083015260068101546001600160801b0380821660c0850152600160801b9091041660e0830152600781015480841661010084015264ffffffffff600160a01b82048116610120850152600160c81b90910481166101408401526008820154808216610160850152650100000000008104909116610180840152600160501b81049093166101a08301528493919290916101c084019160ff600160f01b90910416908111156112cd576112cd61345f565b60038111156112de576112de61345f565b815250509050600081610160015164ffffffffff1642106112ff574261130d565b81610160015164ffffffffff165b905061134561133183610140015164ffffffffff168361298090919063ffffffff16565b60e08401516001600160801b03169061298c565b949350505050565b600260015414156113705760405162461bcd60e51b815260040161024a906139e7565b600260015560008181526005602052604090205481906113a25760405162461bcd60e51b815260040161024a90613d26565b60405162c1340760e51b815260056004820152602481018390526001600160a01b037f0000000000000000000000000000000000000000000000000000000000000000811660448301527f0000000000000000000000000000000000000000000000000000000000000000811660648301527f0000000000000000000000000000000000000000000000000000000000000000166084820152737115e9815A49cDF76a8aa30C9ee9656660Eed0b39063182680e09060a4015b60006040518083038186803b15801561147357600080fd5b505af4158015611487573d6000803e3d6000fd5b50506001805550505050565b806114e05760405162461bcd60e51b815260206004820152601960248201527f424d5f43414e43454c5f43414e4e4f545f42455f454d50545900000000000000604482015260640161024a565b60005b81811015611595573360009081526002602052604090205483838381811061150d5761150d613877565b9050602002013510156115325760405162461bcd60e51b815260040161024a90613d5d565b33600090815260036020526040812060019185858581811061155657611556613877565b90506020020135815260200190815260200160002060006101000a81548160ff021916908315150217905550808061158d906138a3565b9150506114e3565b50336001600160a01b03167fac0004ba1a2ea62c1d6de00ade33246fa25432a7148f9e20cce8d9fea7493aa183836040516115d1929190613dd5565b60405180910390a25050565b600260015414156116005760405162461bcd60e51b815260040161024a906139e7565b600260015560008181526005602052604090205481906116325760405162461bcd60e51b815260040161024a90613d26565b6040516306d8c6df60e01b815260056004820152602481018390526001600160a01b037f0000000000000000000000000000000000000000000000000000000000000000811660448301527f0000000000000000000000000000000000000000000000000000000000000000166064820152737115e9815A49cDF76a8aa30C9ee9656660Eed0b3906306d8c6df9060840161145b565b60007f00000000000000000000000000000000000000000000000000000000000000006001600160a01b0316639a9dbb996040518163ffffffff1660e01b8152600401602060405180830381865afa158015611728573d6000803e3d6000fd5b505050506040513d601f19601f8201168201806040525081019061174c919061385a565b90506001600160a01b038116632500f2b6336040516001600160e01b031960e084901b1681526001600160a01b039091166004820152602401602060405180830381865afa1580156117a2573d6000803e3d6000fd5b505050506040513d601f19601f820116820180604052508101906117c691906139a0565b6117e25760405162461bcd60e51b815260040161024a90613de9565b6117ea612a48565b50565b60007f00000000000000000000000000000000000000000000000000000000000000006001600160a01b0316639a9dbb996040518163ffffffff1660e01b8152600401602060405180830381865afa15801561184d573d6000803e3d6000fd5b505050506040513d601f19601f82011682018060405250810190611871919061385a565b90506001600160a01b038116639078c85a336040516001600160e01b031960e084901b1681526001600160a01b039091166004820152602401602060405180830381865afa1580156118c7573d6000803e3d6000fd5b505050506040513d601f19601f820116820180604052508101906118eb91906139a0565b6119075760405162461bcd60e51b815260040161024a90613e2d565b61191b6001600160a01b0385168484612ae5565b826001600160a01b0316846001600160a01b03167f81275949a17d84915b61eeb24587a501cc8863011afba1ed12f3f6c5bdfd6a218460405161196091815260200190565b60405180910390a350505050565b600081815260056020818152604080842081516101e0810183528154815260018201546001600160a01b039081169482019490945260028201549281019290925260038082015460608401526004820154841660808401529381015460a083015260068101546001600160801b0380821660c0850152600160801b9091041660e0830152600781015480841661010084015264ffffffffff600160a01b82048116610120850152600160c81b90910481166101408401526008820154808216610160850152650100000000008104909116610180840152600160501b81049093166101a08301528493919290916101c084019160ff600160f01b9091041690811115611a7c57611a7c61345f565b6003811115611a8d57611a8d61345f565b905250600084815260056020526040902060080154909150600160f01b900460ff166001816003811115611ac357611ac361345f565b1415610e0b574282610180015164ffffffffff161015611ae557506003610e0b565b4282610160015164ffffffffff161015610e0b575060029392505050565b611b80604080516101e081018252600080825260208201819052918101829052606081018290526080810182905260a0810182905260c0810182905260e08101829052610100810182905261012081018290526101408101829052610160810182905261018081018290526101a08101829052906101c082015290565b600082815260056020818152604080842081516101e0810183528154815260018201546001600160a01b039081169482019490945260028201549281019290925260038082015460608401526004820154841660808401529381015460a083015260068101546001600160801b0380821660c0850152600160801b9091041660e08301526007810154808416610100840152600160a01b810464ffffffffff908116610120850152600160c81b90910481166101408401526008820154808216610160850152650100000000008104909116610180840152600160501b81049093166101a0830152909290916101c0840191600160f01b90910460ff1690811115611c8d57611c8d61345f565b6003811115611c9e57611c9e61345f565b9052509050611cac8361196e565b816101c001906003811115611cc357611cc361345f565b90816003811115611cd657611cd661345f565b90525092915050565b60006107c0611ced836111bf565b6000848152600560208190526040909120015490612b3c565b6000546001600160a01b03163314611d605760405162461bcd60e51b815260206004820181905260248201527f4f776e61626c653a2063616c6c6572206973206e6f7420746865206f776e6572604482015260640161024a565b611d6a6000612b48565b565b60007f00000000000000000000000000000000000000000000000000000000000000006001600160a01b0316639a9dbb996040518163ffffffff1660e01b8152600401602060405180830381865afa158015611dcc573d6000803e3d6000fd5b505050506040513d601f19601f82011682018060405250810190611df0919061385a565b90506001600160a01b038116632500f2b6336040516001600160e01b031960e084901b1681526001600160a01b039091166004820152602401602060405180830381865afa158015611e46573d6000803e3d6000fd5b505050506040513d601f19601f82011682018060405250810190611e6a91906139a0565b611e865760405162461bcd60e51b815260040161024a90613de9565b6117ea612b98565b336000908152600260205260409020548111611ebc5760405162461bcd60e51b815260040161024a90613d5d565b33600090815260026020526040902054611ed9906207a120613e72565b8110611f275760405162461bcd60e51b815260206004820152601c60248201527f424d5f43414e43454c5f43414e4e4f545f43414e43454c5f4d4f524500000000604482015260640161024a565b3360008181526002602052604090819020839055517f3472ca53ce86826d0cf2457fc20b0aadb9ff559e29da4c38e37e98fb8edd966d90611f6b9084815260200190565b60405180910390a250565b600054600160a01b900460ff1615611fa05760405162461bcd60e51b815260040161024a906139bd565b60026001541415611fc35760405162461bcd60e51b815260040161024a906139e7565b60026001556000818152600560205260409020548190611ff55760405162461bcd60e51b815260040161024a90613d26565b604051635430170f60e11b815260056004820152602481018390526001600160a01b037f00000000000000000000000000000000000000000000000000000000000000001660448201527370683cA418e02E8336Ce0E46E532b663Dbb960939063a8602e1e9060640161145b565b60008061206f83611b03565b905060006002826101c00151600381111561208c5761208c61345f565b1415610e0b576113457f00000000000000000000000000000000000000000000000000000000000000006001600160a01b031663d7a5a9d36040518163ffffffff1660e01b8152600401602060405180830381865afa1580156120f3573d6000803e3d6000fd5b505050506040513d601f19601f820116820180604052508101906121179190613bee565b60a084015190612bfd565b60007f00000000000000000000000000000000000000000000000000000000000000006001600160a01b0316639a9dbb996040518163ffffffff1660e01b8152600401602060405180830381865afa158015612182573d6000803e3d6000fd5b505050506040513d601f19601f820116820180604052508101906121a6919061385a565b90506001600160a01b038116632500f2b6336040516001600160e01b031960e084901b1681526001600160a01b039091166004820152602401602060405180830381865afa1580156121fc573d6000803e3d6000fd5b505050506040513d601f19601f8201168201806040525081019061222091906139a0565b61223c5760405162461bcd60e51b815260040161024a90613de9565b6122506001600160a01b0385168484612ae5565b50505050565b60007f00000000000000000000000000000000000000000000000000000000000000006001600160a01b0316639a9dbb996040518163ffffffff1660e01b8152600401602060405180830381865afa1580156122b6573d6000803e3d6000fd5b505050506040513d601f19601f820116820180604052508101906122da919061385a565b90506001600160a01b038116639078c85a336040516001600160e01b031960e084901b1681526001600160a01b039091166004820152602401602060405180830381865afa158015612330573d6000803e3d6000fd5b505050506040513d601f19601f8201168201806040525081019061235491906139a0565b6123705760405162461bcd60e51b815260040161024a90613e2d565b60005b8281101561242057856001600160a01b03166342842e0e308787878681811061239e5761239e613877565b6040516001600160e01b031960e088901b1681526001600160a01b03958616600482015294909316602485015250602090910201356044820152606401600060405180830381600087803b1580156123f557600080fd5b505af1158015612409573d6000803e3d6000fd5b505050508080612418906138a3565b915050612373565b50836001600160a01b0316856001600160a01b03167f6c6b18e67b757c02ba92ef0f54038fc2135767acf9bef174b8780835ff4558228585604051612466929190613dd5565b60405180910390a35050505050565b60007f00000000000000000000000000000000000000000000000000000000000000006001600160a01b0316639a9dbb996040518163ffffffff1660e01b8152600401602060405180830381865afa1580156124d5573d6000803e3d6000fd5b505050506040513d601f19601f820116820180604052508101906124f9919061385a565b90506001600160a01b038116639078c85a336040516001600160e01b031960e084901b1681526001600160a01b039091166004820152602401602060405180830381865afa15801561254f573d6000803e3d6000fd5b505050506040513d601f19601f8201168201806040525081019061257391906139a0565b61258f5760405162461bcd60e51b815260040161024a90613e2d565b604051631759616b60e11b81526001600160a01b038a1690632eb2c2d6906125c99030908c908c908c908c908c908c908c90600401613e8a565b600060405180830381600087803b1580156125e357600080fd5b505af11580156125f7573d6000803e3d6000fd5b50505050876001600160a01b0316896001600160a01b03167fc8144f7a11a69e58de79275b3e7420b4942b4e8318a0e0aa9ccb457c60387b0289898989898960405161264896959493929190613edf565b60405180910390a3505050505050505050565b6000546001600160a01b031633146126b55760405162461bcd60e51b815260206004820181905260248201527f4f776e61626c653a2063616c6c6572206973206e6f7420746865206f776e6572604482015260640161024a565b6001600160a01b03811661271a5760405162461bcd60e51b815260206004820152602660248201527f4f776e61626c653a206e6577206f776e657220697320746865207a65726f206160448201526564647265737360d01b606482015260840161024a565b6117ea81612b48565b600054600160a01b900460ff161561274d5760405162461bcd60e51b815260040161024a906139bd565b600260015414156127705760405162461bcd60e51b815260040161024a906139e7565b60026001819055507396b961a5643743536FCBE924dBA478056a438eA763d90ab2606003600260056004886040518060c001604052808a81526020018981526020017f00000000000000000000000000000000000000000000000000000000000000006001600160a01b031681526020017f00000000000000000000000000000000000000000000000000000000000000006001600160a01b031681526020016128186128db565b8152602001738EDf2dc4A22AcFB3aF927c2985170866D9D1Bc926304432eed8d6040518263ffffffff1660e01b81526004016128549190613bdb565b602060405180830381865af4158015612871573d6000803e3d6000fd5b505050506040513d601f19601f820116820180604052508101906128959190613bee565b8152507f00000000000000000000000000000000000000000000000000000000000000006040518863ffffffff1660e01b81526004016111869796959493929190613f28565b604080517f8b73c3c69bb8fe3d512ecc4cf759cc79239f7b179b0ffacaa9a75d522b39400f60208201527ff0cf7ce475272740cae17eb3cadd6d254800be81c53f84a2f273b99036471c62918101919091527fc89efdaa54c0f20c7adf612882df0950f5a951637e0307cdcb4c672f298b8bc660608201524660808201523060a082015260009060c00160405160208183030381529060405280519060200120905090565b6000610e0b8284613f82565b6000821580612999575081155b156129a6575060006107c0565b816129be60026b033b2e3c9fd0803ce8000000613f99565b6129ca90600019613f82565b6129d49190613f99565b8311156040518060400160405280600381526020016203130360ec1b81525090612a115760405162461bcd60e51b815260040161024a9190613fbb565b506b033b2e3c9fd0803ce8000000612a2a600282613f99565b612a348486613fce565b612a3e9190613e72565b610e0b9190613f99565b600054600160a01b900460ff16612a985760405162461bcd60e51b815260206004820152601460248201527314185d5cd8589b194e881b9bdd081c185d5cd95960621b604482015260640161024a565b6000805460ff60a01b191690557f5db9ee0a495bf2e6ff9c91a7834c1ba4fdd244a5e8aa4e537bd38aeae4b073aa335b6040516001600160a01b03909116815260200160405180910390a1565b604080516001600160a01b038416602482015260448082018490528251808303909101815260649091019091526020810180516001600160e01b031663a9059cbb60e01b179052612b37908490612c87565b505050565b6000610e0b8284613e72565b600080546001600160a01b038381166001600160a01b0319831681178455604051919092169283917f8be0079c531659141344cd1fd0a4f28419497f9722a3daafe3b4186f6b6457e09190a35050565b600054600160a01b900460ff1615612bc25760405162461bcd60e51b815260040161024a906139bd565b6000805460ff60a01b1916600160a01b1790557f62e78cea01bee320cd4e420270b5ea74000d11b0c9f74754ebdbfc544b05a258612ac83390565b6000821580612c0a575081155b15612c17575060006107c0565b81612c256002612710613f99565b612c3190600019613f82565b612c3b9190613f99565b8311156040518060400160405280600381526020016203130360ec1b81525090612c785760405162461bcd60e51b815260040161024a9190613fbb565b50612710612a2a600282613f99565b6000612cdc826040518060400160405280602081526020017f5361666545524332303a206c6f772d6c6576656c2063616c6c206661696c6564815250856001600160a01b0316612d599092919063ffffffff16565b805190915015612b375780806020019051810190612cfa91906139a0565b612b375760405162461bcd60e51b815260206004820152602a60248201527f5361666545524332303a204552433230206f7065726174696f6e20646964206e6044820152691bdd081cdd58d8d9595960b21b606482015260840161024a565b6060611345848460008585843b612db25760405162461bcd60e51b815260206004820152601d60248201527f416464726573733a2063616c6c20746f206e6f6e2d636f6e7472616374000000604482015260640161024a565b600080866001600160a01b03168587604051612dce9190613fed565b60006040518083038185875af1925050503d8060008114612e0b576040519150601f19603f3d011682016040523d82523d6000602084013e612e10565b606091505b5091509150612e20828286612e2b565b979650505050505050565b60608315612e3a575081610e0b565b825115612e4a5782518084602001fd5b8160405162461bcd60e51b815260040161024a9190613fbb565b600060208284031215612e7657600080fd5b81356001600160e01b031981168114610e0b57600080fd5b6001600160a01b03811681146117ea57600080fd5b8035612eae81612e8e565b919050565b60008083601f840112612ec557600080fd5b5081356001600160401b03811115612edc57600080fd5b6020830191508360208260051b8501011115612ef757600080fd5b9250929050565b60008083601f840112612f1057600080fd5b5081356001600160401b03811115612f2757600080fd5b602083019150836020828501011115612ef757600080fd5b600080600080600060608688031215612f5757600080fd5b8535612f6281612e8e565b945060208601356001600160401b0380821115612f7e57600080fd5b612f8a89838a01612eb3565b90965094506040880135915080821115612fa357600080fd5b50612fb088828901612efe565b969995985093965092949392505050565b60008060408385031215612fd457600080fd5b8235612fdf81612e8e565b946020939093013593505050565b634e487b7160e01b600052604160045260246000fd5b60405161028081016001600160401b038111828210171561302657613026612fed565b60405290565b604051601f8201601f191681016001600160401b038111828210171561305457613054612fed565b604052919050565b803560068110612eae57600080fd5b80151581146117ea57600080fd5b8035612eae8161306b565b803564ffffffffff81168114612eae57600080fd5b80356001600160801b0381168114612eae57600080fd5b600082601f8301126130c157600080fd5b81356001600160401b038111156130da576130da612fed565b6130ed601f8201601f191660200161302c565b81815284602083860101111561310257600080fd5b816020850160208301376000918101602001919091529392505050565b803560ff81168114612eae57600080fd5b6000610280828403121561314357600080fd5b61314b613003565b90506131568261305c565b815261316460208301613079565b60208201526040820135604082015261317f60608301612ea3565b60608201526080820135608082015260a082013560a08201526131a460c08301612ea3565b60c082015260e082013560e08201526101008083013581830152506101206131cd818401613084565b908201526101406131df838201613084565b908201526101606131f1838201613099565b90820152610180613203838201612ea3565b908201526101a082810135908201526101c080830135908201526101e061322b818401612ea3565b90820152610200828101356001600160401b0381111561324a57600080fd5b613256858286016130b0565b82840152505061022061326a81840161311f565b9082015261024082810135908201526102609182013591810191909152919050565b600080600080600060a086880312156132a457600080fd5b85356001600160401b03808211156132bb57600080fd5b6132c789838a01613130565b965060208801359550604088013594506060880135935060808801359150808211156132f257600080fd5b506132ff888289016130b0565b9150509295509295909350565b60008060006060848603121561332157600080fd5b83356001600160401b0381111561333757600080fd5b61334386828701613130565b9660208601359650604090950135949350505050565b6000806000806080858703121561336f57600080fd5b843561337a81612e8e565b9350602085013561338a81612e8e565b92506040850135915060608501356001600160401b038111156133ac57600080fd5b6133b8878288016130b0565b91505092959194509250565b6000602082840312156133d657600080fd5b5035919050565b600080602083850312156133f057600080fd5b82356001600160401b0381111561340657600080fd5b61341285828601612eb3565b90969095509350505050565b60008060006060848603121561343357600080fd5b833561343e81612e8e565b9250602084013561344e81612e8e565b929592945050506040919091013590565b634e487b7160e01b600052602160045260246000fd5b600481106134855761348561345f565b9052565b602081016107c08284613475565b815181526020808301516101e08301916134bb908401826001600160a01b03169052565b50604083015160408301526060830151606083015260808301516134ea60808401826001600160a01b03169052565b5060a083015160a083015260c083015161350f60c08401826001600160801b03169052565b5060e083015161352a60e08401826001600160801b03169052565b50610100838101516001600160a01b03908116918401919091526101208085015164ffffffffff90811691850191909152610140808601518216908501526101608086015182169085015261018080860151909116908401526101a080850151909116908301526101c0808401516135a482850182613475565b505092915050565b6000602082840312156135be57600080fd5b8135610e0b81612e8e565b600082601f8301126135da57600080fd5b813560206001600160401b038211156135f5576135f5612fed565b8160051b61360482820161302c565b928352848101820192828101908785111561361e57600080fd5b83870192505b84831015612e2057823582529183019190830190613624565b600080600080600060a0868803121561365557600080fd5b853561366081612e8e565b9450602086013561367081612e8e565b935060408601356001600160401b038082111561368c57600080fd5b61369889838a016135c9565b945060608801359150808211156136ae57600080fd5b6136ba89838a016135c9565b935060808801359150808211156132f257600080fd5b600080600080606085870312156136e657600080fd5b84356136f181612e8e565b9350602085013561370181612e8e565b925060408501356001600160401b0381111561371c57600080fd5b61372887828801612eb3565b95989497509550505050565b60008060008060008060008060a0898b03121561375057600080fd5b883561375b81612e8e565b9750602089013561376b81612e8e565b965060408901356001600160401b038082111561378757600080fd5b6137938c838d01612eb3565b909850965060608b01359150808211156137ac57600080fd5b6137b88c838d01612eb3565b909650945060808b01359150808211156137d157600080fd5b506137de8b828c01612efe565b999c989b5096995094979396929594505050565b600080600080600060a0868803121561380a57600080fd5b853561381581612e8e565b9450602086013561382581612e8e565b9350604086013592506060860135915060808601356001600160401b0381111561384e57600080fd5b6132ff888289016130b0565b60006020828403121561386c57600080fd5b8151610e0b81612e8e565b634e487b7160e01b600052603260045260246000fd5b634e487b7160e01b600052601160045260246000fd5b60006000198214156138b7576138b761388d565b5060010190565b81835281816020850137506000828201602090810191909152601f909101601f19169091010190565b60a0808252875190820181905260009060209060c0840190828b01845b828110156139295781516001600160a01b031684529284019290840190600101613904565b5050508381038285015288518082528983019183019060005b8181101561395e57835183529284019291840191600101613942565b50506001600160a01b03891660408601526001600160a01b038816606086015284810360808601526139918187896138be565b9b9a5050505050505050505050565b6000602082840312156139b257600080fd5b8151610e0b8161306b565b60208082526010908201526f14185d5cd8589b194e881c185d5cd95960821b604082015260600190565b6020808252601f908201527f5265656e7472616e637947756172643a207265656e7472616e742063616c6c00604082015260600190565b600681106134855761348561345f565b60005b83811015613a49578181015183820152602001613a31565b838111156122505750506000910152565b60008151808452613a72816020860160208601613a2e565b601f01601f19169290920160200192915050565b6000610280613a96848451613a1e565b6020830151613aa9602086018215159052565b50604083015160408501526060830151613ace60608601826001600160a01b03169052565b506080830151608085015260a083015160a085015260c0830151613afd60c08601826001600160a01b03169052565b5060e0838101519085015261010080840151908501526101208084015164ffffffffff908116918601919091526101408085015190911690850152610160808401516001600160801b031690850152610180808401516001600160a01b03908116918601919091526101a080850151908601526101c080850151908601526101e0808501519091169085015261020080840151818601839052613ba283870182613a5a565b9250505061022080840151613bbb8287018260ff169052565b505061024083810151908501526102609283015192909301919091525090565b602081526000610e0b6020830184613a86565b600060208284031215613c0057600080fd5b5051919050565b86815285602082015284604082015283606082015260c060808201526000613c3260c0830185613a86565b82810360a0840152610100845182526020850151602083015260408501516040830152606085015160018060a01b038082166060850152806080880151166080850152505060a085015160a083015260c085015160c083015260e08501518160e084015261399182840182613a5a565b8051825260208101516020830152604081015160018060a01b03808216604085015280606084015116606085015250506080810151608083015260a081015160a08301525050565b6000610160888352876020840152866040840152856060840152806080840152613d1681840186613a86565b915050612e2060a0830184613ca2565b60208082526018908201527f424d5f434845434b5f4c4f414e5f4e4f545f4558495354530000000000000000604082015260600190565b60208082526022908201527f424d5f43414e43454c5f4e4f4e43455f4c4f5745525f5448414e5f4355525245604082015261139560f21b606082015260800190565b81835260006001600160fb1b03831115613db857600080fd5b8260051b8083602087013760009401602001938452509192915050565b602081526000611345602083018486613d9f565b60208082526024908201527f424d5f41434c5f4f4e4c595f454d455247454e43595f41444d494e5f43414e5f60408201526310d0531360e21b606082015260800190565b60208082526025908201527f424d5f41434c5f4f4e4c595f41495244524f505f4f50455241544f525f43414e60408201526417d0d0531360da1b606082015260800190565b60008219821115613e8557613e8561388d565b500190565b6001600160a01b0389811682528816602082015260a060408201819052600090613eb7908301888a613d9f565b8281036060840152613eca818789613d9f565b905082810360808401526139918185876138be565b606081526000613ef360608301888a613d9f565b8281036020840152613f06818789613d9f565b90508281036040840152613f1b8185876138be565b9998505050505050505050565b6000610180898352886020840152876040840152866060840152806080840152613f5481840187613a86565b915050613f6460a0830185613ca2565b6001600160a01b039290921661016091909101529695505050505050565b600082821015613f9457613f9461388d565b500390565b600082613fb657634e487b7160e01b600052601260045260246000fd5b500490565b602081526000610e0b6020830184613a5a565b6000816000190483118215151615613fe857613fe861388d565b500290565b60008251613fff818460208701613a2e565b919091019291505056fea2646970667358221220622ab75db4d2378436f167395e77dca7eed6ba8dc4551734cbb448dd2557ec2264736f6c634300080a0033",
  "deployedBytecode": "0x6080604052600436106102085760003560e01c80636b52b36511610118578063ad5c4648116100a0578063cae595531161006f578063cae59553146106f0578063e3185e1214610710578063f23a6e6114610730578063f2fde38b1461075c578063f7a494c31461077c57610253565b8063ad5c464814610641578063ade97ab514610675578063bc197c81146106a9578063bc6bc0cd146106d557610253565b80638bf1badd116100e75780638bf1badd146105965780638da5cb5b146105b657806396e59682146105d4578063a3d5b255146105f4578063aa99fa981461061457610253565b80636b52b3651461052c578063715018a61461054c5780638456cb591461056157806384e5cec51461057657610253565b806329c55f061161019b5780633f4ba83a1161016a5780633f4ba83a1461047e5780634f070916146104935780635c622a0e146104b35780635c975abb146104e0578063622fe39f146104ff57610253565b806329c55f06146103d75780632f844ea81461042357806333bf615614610443578063371fd8e61461045e57610253565b80630fef19d8116101d75780630fef19d814610332578063150b7a02146103525780631c187495146103965780632247463e146103c457610253565b806301ffc9a71461029b57806303282d6e146102d05780630647ee20146102f25780630795debe1461031257610253565b366102535760405162461bcd60e51b8152602060048201526016602482015275109357d49150d152559157d393d517d0531313d5d15160521b60448201526064015b60405180910390fd5b60405162461bcd60e51b815260206004820152601760248201527f424d5f46414c4c4241434b5f4e4f545f414c4c4f574544000000000000000000604482015260640161024a565b3480156102a757600080fd5b506102bb6102b6366004612e64565b61078f565b60405190151581526020015b60405180910390f35b3480156102dc57600080fd5b506102f06102eb366004612f3f565b6107c6565b005b3480156102fe57600080fd5b506102bb61030d366004612fc1565b610dbf565b34801561031e57600080fd5b506102f061032d36600461328c565b610e12565b34801561033e57600080fd5b506102f061034d36600461330c565b610ff0565b34801561035e57600080fd5b5061037d61036d366004613359565b630a85bd0160e11b949350505050565b6040516001600160e01b031990911681526020016102c7565b3480156103a257600080fd5b506103b66103b13660046133c4565b6111bf565b6040519081526020016102c7565b6102f06103d23660046133c4565b61134d565b3480156103e357600080fd5b5061040b7f000000000000000000000000000000000000000000000000000000000000000081565b6040516001600160a01b0390911681526020016102c7565b34801561042f57600080fd5b506102f061043e3660046133dd565b611493565b34801561044f57600080fd5b5061037d636cdb3d1360e11b81565b34801561046a57600080fd5b506102f06104793660046133c4565b6115dd565b34801561048a57600080fd5b506102f06116c8565b34801561049f57600080fd5b506102f06104ae36600461341e565b6117ed565b3480156104bf57600080fd5b506104d36104ce3660046133c4565b61196e565b6040516102c79190613489565b3480156104ec57600080fd5b50600054600160a01b900460ff166102bb565b34801561050b57600080fd5b5061051f61051a3660046133c4565b611b03565b6040516102c79190613497565b34801561053857600080fd5b506103b66105473660046133c4565b611cdf565b34801561055857600080fd5b506102f0611d06565b34801561056d57600080fd5b506102f0611d6c565b34801561058257600080fd5b506102f06105913660046133c4565b611e8e565b3480156105a257600080fd5b506102f06105b13660046133c4565b611f76565b3480156105c257600080fd5b506000546001600160a01b031661040b565b3480156105e057600080fd5b506103b66105ef3660046133c4565b612063565b34801561060057600080fd5b506102f061060f36600461341e565b612122565b34801561062057600080fd5b506103b661062f3660046135ac565b60026020526000908152604090205481565b34801561064d57600080fd5b5061040b7f000000000000000000000000000000000000000000000000000000000000000081565b34801561068157600080fd5b5061040b7f000000000000000000000000000000000000000000000000000000000000000081565b3480156106b557600080fd5b5061037d6106c436600461363d565b63bc197c8160e01b95945050505050565b3480156106e157600080fd5b5061037d6380ac58cd60e01b81565b3480156106fc57600080fd5b506102f061070b3660046136d0565b612256565b34801561071c57600080fd5b506102f061072b366004613734565b612475565b34801561073c57600080fd5b5061037d61074b3660046137f2565b63f23a6e6160e01b95945050505050565b34801561076857600080fd5b506102f06107773660046135ac565b61265b565b6102f061078a36600461330c565b612723565b60006001600160e01b03198216630271189760e51b14806107c057506301ffc9a760e01b6001600160e01b03198316145b92915050565b60008581856001600160401b038111156107e2576107e2612fed565b60405190808252806020026020018201604052801561080b578160200160208202803683370190505b5090506000866001600160401b0381111561082857610828612fed565b604051908082528060200260200182016040528015610851578160200160208202803683370190505b509050600093505b86841015610acb57336001600160a01b03167f00000000000000000000000000000000000000000000000000000000000000006001600160a01b031663bb322a836040518163ffffffff1660e01b8152600401602060405180830381865afa1580156108c9573d6000803e3d6000fd5b505050506040513d601f19601f820116820180604052508101906108ed919061385a565b6001600160a01b0316636352211e8a8a8881811061090d5761090d613877565b905060200201356040518263ffffffff1660e01b815260040161093291815260200190565b602060405180830381865afa15801561094f573d6000803e3d6000fd5b505050506040513d601f19601f82011682018060405250810190610973919061385a565b6001600160a01b0316146109d35760405162461bcd60e51b815260206004820152602160248201527f424d5f464c415348434c41494d5f43414c4c45525f49535f4e4f545f4f574e456044820152602960f91b606482015260840161024a565b60006109f68989878181106109ea576109ea613877565b90506020020135611b03565b90506003816101c001516003811115610a1157610a1161345f565b1415610a5f5760405162461bcd60e51b815260206004820152601a60248201527f424d5f464c415348434c41494d5f5354415455535f4552524f52000000000000604482015260640161024a565b8060200151838681518110610a7657610a76613877565b60200260200101906001600160a01b031690816001600160a01b0316815250508060400151828681518110610aad57610aad613877565b60209081029190910101525083610ac3816138a3565b945050610859565b600093505b86841015610b9957818481518110610aea57610aea613877565b60200260200101516001600160a01b03166342842e0e308b848881518110610b1457610b14613877565b60209081029190910101516040516001600160e01b031960e086901b1681526001600160a01b0393841660048201529290911660248301526044820152606401600060405180830381600087803b158015610b6e57600080fd5b505af1158015610b82573d6000803e3d6000fd5b505050508380610b91906138a3565b945050610ad0565b604051628e896f60e41b81526001600160a01b038416906308e896f090610bce9085908590339030908d908d906004016138e7565b6020604051808303816000875af1158015610bed573d6000803e3d6000fd5b505050506040513d601f19601f82011682018060405250810190610c1191906139a0565b610c5d5760405162461bcd60e51b815260206004820152601c60248201527f424d5f464c415348434c41494d5f4558454355544f525f4552524f5200000000604482015260640161024a565b600093505b86841015610db457818481518110610c7c57610c7c613877565b60200260200101516001600160a01b03166342842e0e8a30848881518110610ca657610ca6613877565b60209081029190910101516040516001600160e01b031960e086901b1681526001600160a01b0393841660048201529290911660248301526044820152606401600060405180830381600087803b158015610d0057600080fd5b505af1158015610d14573d6000803e3d6000fd5b50505050808481518110610d2a57610d2a613877565b6020026020010151828581518110610d4457610d44613877565b60200260200101516001600160a01b03168a6001600160a01b03167f6bac1c66016500cd7b62d69e86268760baac6cd34a70003af66ffa8a97983216610d873390565b6040516001600160a01b03909116815260200160405180910390a483610dac816138a3565b945050610c62565b505050505050505050565b6001600160a01b038216600090815260036020908152604080832084845290915281205460ff16158015610e0b57506001600160a01b0383166000908152600260205260409020548210155b9392505050565b600054600160a01b900460ff1615610e3c5760405162461bcd60e51b815260040161024a906139bd565b60026001541415610e5f5760405162461bcd60e51b815260040161024a906139e7565b600260018190555073__$f2bbf53d856d978c1f5e4330933069481a$__63ff2300f460036002600560048a6040518061010001604052808c81526020018b81526020018a81526020017f00000000000000000000000000000000000000000000000000000000000000006001600160a01b031681526020017f00000000000000000000000000000000000000000000000000000000000000006001600160a01b03168152602001610f0e6128db565b815260200173__$99340bd5a7874738aefb18e7cdd0ba78ce$__6304432eed8f6040518263ffffffff1660e01b8152600401610f4a9190613bdb565b602060405180830381865af4158015610f67573d6000803e3d6000fd5b505050506040513d601f19601f82011682018060405250810190610f8b9190613bee565b8152602001898152506040518763ffffffff1660e01b8152600401610fb596959493929190613c07565b60006040518083038186803b158015610fcd57600080fd5b505af4158015610fe1573d6000803e3d6000fd5b50506001805550505050505050565b600054600160a01b900460ff161561101a5760405162461bcd60e51b815260040161024a906139bd565b6002600154141561103d5760405162461bcd60e51b815260040161024a906139e7565b600260018190555073__$d034307112fbb42c17024cd888eeadb556$__63c5cbf0dc6003600260056004886040518060c001604052808a81526020018981526020017f00000000000000000000000000000000000000000000000000000000000000006001600160a01b031681526020017f00000000000000000000000000000000000000000000000000000000000000006001600160a01b031681526020016110e56128db565b815260200173__$99340bd5a7874738aefb18e7cdd0ba78ce$__6304432eed8d6040518263ffffffff1660e01b81526004016111219190613bdb565b602060405180830381865af415801561113e573d6000803e3d6000fd5b505050506040513d601f19601f820116820180604052508101906111629190613bee565b8152506040518763ffffffff1660e01b815260040161118696959493929190613cea565b60006040518083038186803b15801561119e57600080fd5b505af41580156111b2573d6000803e3d6000fd5b5050600180555050505050565b600081815260056020818152604080842081516101e0810183528154815260018201546001600160a01b039081169482019490945260028201549281019290925260038082015460608401526004820154841660808401529381015460a083015260068101546001600160801b0380821660c0850152600160801b9091041660e0830152600781015480841661010084015264ffffffffff600160a01b82048116610120850152600160c81b90910481166101408401526008820154808216610160850152650100000000008104909116610180840152600160501b81049093166101a08301528493919290916101c084019160ff600160f01b90910416908111156112cd576112cd61345f565b60038111156112de576112de61345f565b815250509050600081610160015164ffffffffff1642106112ff574261130d565b81610160015164ffffffffff165b905061134561133183610140015164ffffffffff168361298090919063ffffffff16565b60e08401516001600160801b03169061298c565b949350505050565b600260015414156113705760405162461bcd60e51b815260040161024a906139e7565b600260015560008181526005602052604090205481906113a25760405162461bcd60e51b815260040161024a90613d26565b60405162c1340760e51b815260056004820152602481018390526001600160a01b037f0000000000000000000000000000000000000000000000000000000000000000811660448301527f0000000000000000000000000000000000000000000000000000000000000000811660648301527f000000000000000000000000000000000000000000000000000000000000000016608482015273__$cb2d98c3e8fdb912f01fe366012ef33d45$__9063182680e09060a4015b60006040518083038186803b15801561147357600080fd5b505af4158015611487573d6000803e3d6000fd5b50506001805550505050565b806114e05760405162461bcd60e51b815260206004820152601960248201527f424d5f43414e43454c5f43414e4e4f545f42455f454d50545900000000000000604482015260640161024a565b60005b81811015611595573360009081526002602052604090205483838381811061150d5761150d613877565b9050602002013510156115325760405162461bcd60e51b815260040161024a90613d5d565b33600090815260036020526040812060019185858581811061155657611556613877565b90506020020135815260200190815260200160002060006101000a81548160ff021916908315150217905550808061158d906138a3565b9150506114e3565b50336001600160a01b03167fac0004ba1a2ea62c1d6de00ade33246fa25432a7148f9e20cce8d9fea7493aa183836040516115d1929190613dd5565b60405180910390a25050565b600260015414156116005760405162461bcd60e51b815260040161024a906139e7565b600260015560008181526005602052604090205481906116325760405162461bcd60e51b815260040161024a90613d26565b6040516306d8c6df60e01b815260056004820152602481018390526001600160a01b037f0000000000000000000000000000000000000000000000000000000000000000811660448301527f000000000000000000000000000000000000000000000000000000000000000016606482015273__$cb2d98c3e8fdb912f01fe366012ef33d45$__906306d8c6df9060840161145b565b60007f00000000000000000000000000000000000000000000000000000000000000006001600160a01b0316639a9dbb996040518163ffffffff1660e01b8152600401602060405180830381865afa158015611728573d6000803e3d6000fd5b505050506040513d601f19601f8201168201806040525081019061174c919061385a565b90506001600160a01b038116632500f2b6336040516001600160e01b031960e084901b1681526001600160a01b039091166004820152602401602060405180830381865afa1580156117a2573d6000803e3d6000fd5b505050506040513d601f19601f820116820180604052508101906117c691906139a0565b6117e25760405162461bcd60e51b815260040161024a90613de9565b6117ea612a48565b50565b60007f00000000000000000000000000000000000000000000000000000000000000006001600160a01b0316639a9dbb996040518163ffffffff1660e01b8152600401602060405180830381865afa15801561184d573d6000803e3d6000fd5b505050506040513d601f19601f82011682018060405250810190611871919061385a565b90506001600160a01b038116639078c85a336040516001600160e01b031960e084901b1681526001600160a01b039091166004820152602401602060405180830381865afa1580156118c7573d6000803e3d6000fd5b505050506040513d601f19601f820116820180604052508101906118eb91906139a0565b6119075760405162461bcd60e51b815260040161024a90613e2d565b61191b6001600160a01b0385168484612ae5565b826001600160a01b0316846001600160a01b03167f81275949a17d84915b61eeb24587a501cc8863011afba1ed12f3f6c5bdfd6a218460405161196091815260200190565b60405180910390a350505050565b600081815260056020818152604080842081516101e0810183528154815260018201546001600160a01b039081169482019490945260028201549281019290925260038082015460608401526004820154841660808401529381015460a083015260068101546001600160801b0380821660c0850152600160801b9091041660e0830152600781015480841661010084015264ffffffffff600160a01b82048116610120850152600160c81b90910481166101408401526008820154808216610160850152650100000000008104909116610180840152600160501b81049093166101a08301528493919290916101c084019160ff600160f01b9091041690811115611a7c57611a7c61345f565b6003811115611a8d57611a8d61345f565b905250600084815260056020526040902060080154909150600160f01b900460ff166001816003811115611ac357611ac361345f565b1415610e0b574282610180015164ffffffffff161015611ae557506003610e0b565b4282610160015164ffffffffff161015610e0b575060029392505050565b611b80604080516101e081018252600080825260208201819052918101829052606081018290526080810182905260a0810182905260c0810182905260e08101829052610100810182905261012081018290526101408101829052610160810182905261018081018290526101a08101829052906101c082015290565b600082815260056020818152604080842081516101e0810183528154815260018201546001600160a01b039081169482019490945260028201549281019290925260038082015460608401526004820154841660808401529381015460a083015260068101546001600160801b0380821660c0850152600160801b9091041660e08301526007810154808416610100840152600160a01b810464ffffffffff908116610120850152600160c81b90910481166101408401526008820154808216610160850152650100000000008104909116610180840152600160501b81049093166101a0830152909290916101c0840191600160f01b90910460ff1690811115611c8d57611c8d61345f565b6003811115611c9e57611c9e61345f565b9052509050611cac8361196e565b816101c001906003811115611cc357611cc361345f565b90816003811115611cd657611cd661345f565b90525092915050565b60006107c0611ced836111bf565b6000848152600560208190526040909120015490612b3c565b6000546001600160a01b03163314611d605760405162461bcd60e51b815260206004820181905260248201527f4f776e61626c653a2063616c6c6572206973206e6f7420746865206f776e6572604482015260640161024a565b611d6a6000612b48565b565b60007f00000000000000000000000000000000000000000000000000000000000000006001600160a01b0316639a9dbb996040518163ffffffff1660e01b8152600401602060405180830381865afa158015611dcc573d6000803e3d6000fd5b505050506040513d601f19601f82011682018060405250810190611df0919061385a565b90506001600160a01b038116632500f2b6336040516001600160e01b031960e084901b1681526001600160a01b039091166004820152602401602060405180830381865afa158015611e46573d6000803e3d6000fd5b505050506040513d601f19601f82011682018060405250810190611e6a91906139a0565b611e865760405162461bcd60e51b815260040161024a90613de9565b6117ea612b98565b336000908152600260205260409020548111611ebc5760405162461bcd60e51b815260040161024a90613d5d565b33600090815260026020526040902054611ed9906207a120613e72565b8110611f275760405162461bcd60e51b815260206004820152601c60248201527f424d5f43414e43454c5f43414e4e4f545f43414e43454c5f4d4f524500000000604482015260640161024a565b3360008181526002602052604090819020839055517f3472ca53ce86826d0cf2457fc20b0aadb9ff559e29da4c38e37e98fb8edd966d90611f6b9084815260200190565b60405180910390a250565b600054600160a01b900460ff1615611fa05760405162461bcd60e51b815260040161024a906139bd565b60026001541415611fc35760405162461bcd60e51b815260040161024a906139e7565b60026001556000818152600560205260409020548190611ff55760405162461bcd60e51b815260040161024a90613d26565b604051635430170f60e11b815260056004820152602481018390526001600160a01b037f000000000000000000000000000000000000000000000000000000000000000016604482015273__$6adc9fc567591ef512536f539e32424d55$__9063a8602e1e9060640161145b565b60008061206f83611b03565b905060006002826101c00151600381111561208c5761208c61345f565b1415610e0b576113457f00000000000000000000000000000000000000000000000000000000000000006001600160a01b031663d7a5a9d36040518163ffffffff1660e01b8152600401602060405180830381865afa1580156120f3573d6000803e3d6000fd5b505050506040513d601f19601f820116820180604052508101906121179190613bee565b60a084015190612bfd565b60007f00000000000000000000000000000000000000000000000000000000000000006001600160a01b0316639a9dbb996040518163ffffffff1660e01b8152600401602060405180830381865afa158015612182573d6000803e3d6000fd5b505050506040513d601f19601f820116820180604052508101906121a6919061385a565b90506001600160a01b038116632500f2b6336040516001600160e01b031960e084901b1681526001600160a01b039091166004820152602401602060405180830381865afa1580156121fc573d6000803e3d6000fd5b505050506040513d601f19601f8201168201806040525081019061222091906139a0565b61223c5760405162461bcd60e51b815260040161024a90613de9565b6122506001600160a01b0385168484612ae5565b50505050565b60007f00000000000000000000000000000000000000000000000000000000000000006001600160a01b0316639a9dbb996040518163ffffffff1660e01b8152600401602060405180830381865afa1580156122b6573d6000803e3d6000fd5b505050506040513d601f19601f820116820180604052508101906122da919061385a565b90506001600160a01b038116639078c85a336040516001600160e01b031960e084901b1681526001600160a01b039091166004820152602401602060405180830381865afa158015612330573d6000803e3d6000fd5b505050506040513d601f19601f8201168201806040525081019061235491906139a0565b6123705760405162461bcd60e51b815260040161024a90613e2d565b60005b8281101561242057856001600160a01b03166342842e0e308787878681811061239e5761239e613877565b6040516001600160e01b031960e088901b1681526001600160a01b03958616600482015294909316602485015250602090910201356044820152606401600060405180830381600087803b1580156123f557600080fd5b505af1158015612409573d6000803e3d6000fd5b505050508080612418906138a3565b915050612373565b50836001600160a01b0316856001600160a01b03167f6c6b18e67b757c02ba92ef0f54038fc2135767acf9bef174b8780835ff4558228585604051612466929190613dd5565b60405180910390a35050505050565b60007f00000000000000000000000000000000000000000000000000000000000000006001600160a01b0316639a9dbb996040518163ffffffff1660e01b8152600401602060405180830381865afa1580156124d5573d6000803e3d6000fd5b505050506040513d601f19601f820116820180604052508101906124f9919061385a565b90506001600160a01b038116639078c85a336040516001600160e01b031960e084901b1681526001600160a01b039091166004820152602401602060405180830381865afa15801561254f573d6000803e3d6000fd5b505050506040513d601f19601f8201168201806040525081019061257391906139a0565b61258f5760405162461bcd60e51b815260040161024a90613e2d565b604051631759616b60e11b81526001600160a01b038a1690632eb2c2d6906125c99030908c908c908c908c908c908c908c90600401613e8a565b600060405180830381600087803b1580156125e357600080fd5b505af11580156125f7573d6000803e3d6000fd5b50505050876001600160a01b0316896001600160a01b03167fc8144f7a11a69e58de79275b3e7420b4942b4e8318a0e0aa9ccb457c60387b0289898989898960405161264896959493929190613edf565b60405180910390a3505050505050505050565b6000546001600160a01b031633146126b55760405162461bcd60e51b815260206004820181905260248201527f4f776e61626c653a2063616c6c6572206973206e6f7420746865206f776e6572604482015260640161024a565b6001600160a01b03811661271a5760405162461bcd60e51b815260206004820152602660248201527f4f776e61626c653a206e6577206f776e657220697320746865207a65726f206160448201526564647265737360d01b606482015260840161024a565b6117ea81612b48565b600054600160a01b900460ff161561274d5760405162461bcd60e51b815260040161024a906139bd565b600260015414156127705760405162461bcd60e51b815260040161024a906139e7565b600260018190555073__$d034307112fbb42c17024cd888eeadb556$__63d90ab2606003600260056004886040518060c001604052808a81526020018981526020017f00000000000000000000000000000000000000000000000000000000000000006001600160a01b031681526020017f00000000000000000000000000000000000000000000000000000000000000006001600160a01b031681526020016128186128db565b815260200173__$99340bd5a7874738aefb18e7cdd0ba78ce$__6304432eed8d6040518263ffffffff1660e01b81526004016128549190613bdb565b602060405180830381865af4158015612871573d6000803e3d6000fd5b505050506040513d601f19601f820116820180604052508101906128959190613bee565b8152507f00000000000000000000000000000000000000000000000000000000000000006040518863ffffffff1660e01b81526004016111869796959493929190613f28565b604080517f8b73c3c69bb8fe3d512ecc4cf759cc79239f7b179b0ffacaa9a75d522b39400f60208201527ff0cf7ce475272740cae17eb3cadd6d254800be81c53f84a2f273b99036471c62918101919091527fc89efdaa54c0f20c7adf612882df0950f5a951637e0307cdcb4c672f298b8bc660608201524660808201523060a082015260009060c00160405160208183030381529060405280519060200120905090565b6000610e0b8284613f82565b6000821580612999575081155b156129a6575060006107c0565b816129be60026b033b2e3c9fd0803ce8000000613f99565b6129ca90600019613f82565b6129d49190613f99565b8311156040518060400160405280600381526020016203130360ec1b81525090612a115760405162461bcd60e51b815260040161024a9190613fbb565b506b033b2e3c9fd0803ce8000000612a2a600282613f99565b612a348486613fce565b612a3e9190613e72565b610e0b9190613f99565b600054600160a01b900460ff16612a985760405162461bcd60e51b815260206004820152601460248201527314185d5cd8589b194e881b9bdd081c185d5cd95960621b604482015260640161024a565b6000805460ff60a01b191690557f5db9ee0a495bf2e6ff9c91a7834c1ba4fdd244a5e8aa4e537bd38aeae4b073aa335b6040516001600160a01b03909116815260200160405180910390a1565b604080516001600160a01b038416602482015260448082018490528251808303909101815260649091019091526020810180516001600160e01b031663a9059cbb60e01b179052612b37908490612c87565b505050565b6000610e0b8284613e72565b600080546001600160a01b038381166001600160a01b0319831681178455604051919092169283917f8be0079c531659141344cd1fd0a4f28419497f9722a3daafe3b4186f6b6457e09190a35050565b600054600160a01b900460ff1615612bc25760405162461bcd60e51b815260040161024a906139bd565b6000805460ff60a01b1916600160a01b1790557f62e78cea01bee320cd4e420270b5ea74000d11b0c9f74754ebdbfc544b05a258612ac83390565b6000821580612c0a575081155b15612c17575060006107c0565b81612c256002612710613f99565b612c3190600019613f82565b612c3b9190613f99565b8311156040518060400160405280600381526020016203130360ec1b81525090612c785760405162461bcd60e51b815260040161024a9190613fbb565b50612710612a2a600282613f99565b6000612cdc826040518060400160405280602081526020017f5361666545524332303a206c6f772d6c6576656c2063616c6c206661696c6564815250856001600160a01b0316612d599092919063ffffffff16565b805190915015612b375780806020019051810190612cfa91906139a0565b612b375760405162461bcd60e51b815260206004820152602a60248201527f5361666545524332303a204552433230206f7065726174696f6e20646964206e6044820152691bdd081cdd58d8d9595960b21b606482015260840161024a565b6060611345848460008585843b612db25760405162461bcd60e51b815260206004820152601d60248201527f416464726573733a2063616c6c20746f206e6f6e2d636f6e7472616374000000604482015260640161024a565b600080866001600160a01b03168587604051612dce9190613fed565b60006040518083038185875af1925050503d8060008114612e0b576040519150601f19603f3d011682016040523d82523d6000602084013e612e10565b606091505b5091509150612e20828286612e2b565b979650505050505050565b60608315612e3a575081610e0b565b825115612e4a5782518084602001fd5b8160405162461bcd60e51b815260040161024a9190613fbb565b600060208284031215612e7657600080fd5b81356001600160e01b031981168114610e0b57600080fd5b6001600160a01b03811681146117ea57600080fd5b8035612eae81612e8e565b919050565b60008083601f840112612ec557600080fd5b5081356001600160401b03811115612edc57600080fd5b6020830191508360208260051b8501011115612ef757600080fd5b9250929050565b60008083601f840112612f1057600080fd5b5081356001600160401b03811115612f2757600080fd5b602083019150836020828501011115612ef757600080fd5b600080600080600060608688031215612f5757600080fd5b8535612f6281612e8e565b945060208601356001600160401b0380821115612f7e57600080fd5b612f8a89838a01612eb3565b90965094506040880135915080821115612fa357600080fd5b50612fb088828901612efe565b969995985093965092949392505050565b60008060408385031215612fd457600080fd5b8235612fdf81612e8e565b946020939093013593505050565b634e487b7160e01b600052604160045260246000fd5b60405161028081016001600160401b038111828210171561302657613026612fed565b60405290565b604051601f8201601f191681016001600160401b038111828210171561305457613054612fed565b604052919050565b803560068110612eae57600080fd5b80151581146117ea57600080fd5b8035612eae8161306b565b803564ffffffffff81168114612eae57600080fd5b80356001600160801b0381168114612eae57600080fd5b600082601f8301126130c157600080fd5b81356001600160401b038111156130da576130da612fed565b6130ed601f8201601f191660200161302c565b81815284602083860101111561310257600080fd5b816020850160208301376000918101602001919091529392505050565b803560ff81168114612eae57600080fd5b6000610280828403121561314357600080fd5b61314b613003565b90506131568261305c565b815261316460208301613079565b60208201526040820135604082015261317f60608301612ea3565b60608201526080820135608082015260a082013560a08201526131a460c08301612ea3565b60c082015260e082013560e08201526101008083013581830152506101206131cd818401613084565b908201526101406131df838201613084565b908201526101606131f1838201613099565b90820152610180613203838201612ea3565b908201526101a082810135908201526101c080830135908201526101e061322b818401612ea3565b90820152610200828101356001600160401b0381111561324a57600080fd5b613256858286016130b0565b82840152505061022061326a81840161311f565b9082015261024082810135908201526102609182013591810191909152919050565b600080600080600060a086880312156132a457600080fd5b85356001600160401b03808211156132bb57600080fd5b6132c789838a01613130565b965060208801359550604088013594506060880135935060808801359150808211156132f257600080fd5b506132ff888289016130b0565b9150509295509295909350565b60008060006060848603121561332157600080fd5b83356001600160401b0381111561333757600080fd5b61334386828701613130565b9660208601359650604090950135949350505050565b6000806000806080858703121561336f57600080fd5b843561337a81612e8e565b9350602085013561338a81612e8e565b92506040850135915060608501356001600160401b038111156133ac57600080fd5b6133b8878288016130b0565b91505092959194509250565b6000602082840312156133d657600080fd5b5035919050565b600080602083850312156133f057600080fd5b82356001600160401b0381111561340657600080fd5b61341285828601612eb3565b90969095509350505050565b60008060006060848603121561343357600080fd5b833561343e81612e8e565b9250602084013561344e81612e8e565b929592945050506040919091013590565b634e487b7160e01b600052602160045260246000fd5b600481106134855761348561345f565b9052565b602081016107c08284613475565b815181526020808301516101e08301916134bb908401826001600160a01b03169052565b50604083015160408301526060830151606083015260808301516134ea60808401826001600160a01b03169052565b5060a083015160a083015260c083015161350f60c08401826001600160801b03169052565b5060e083015161352a60e08401826001600160801b03169052565b50610100838101516001600160a01b03908116918401919091526101208085015164ffffffffff90811691850191909152610140808601518216908501526101608086015182169085015261018080860151909116908401526101a080850151909116908301526101c0808401516135a482850182613475565b505092915050565b6000602082840312156135be57600080fd5b8135610e0b81612e8e565b600082601f8301126135da57600080fd5b813560206001600160401b038211156135f5576135f5612fed565b8160051b61360482820161302c565b928352848101820192828101908785111561361e57600080fd5b83870192505b84831015612e2057823582529183019190830190613624565b600080600080600060a0868803121561365557600080fd5b853561366081612e8e565b9450602086013561367081612e8e565b935060408601356001600160401b038082111561368c57600080fd5b61369889838a016135c9565b945060608801359150808211156136ae57600080fd5b6136ba89838a016135c9565b935060808801359150808211156132f257600080fd5b600080600080606085870312156136e657600080fd5b84356136f181612e8e565b9350602085013561370181612e8e565b925060408501356001600160401b0381111561371c57600080fd5b61372887828801612eb3565b95989497509550505050565b60008060008060008060008060a0898b03121561375057600080fd5b883561375b81612e8e565b9750602089013561376b81612e8e565b965060408901356001600160401b038082111561378757600080fd5b6137938c838d01612eb3565b909850965060608b01359150808211156137ac57600080fd5b6137b88c838d01612eb3565b909650945060808b01359150808211156137d157600080fd5b506137de8b828c01612efe565b999c989b5096995094979396929594505050565b600080600080600060a0868803121561380a57600080fd5b853561381581612e8e565b9450602086013561382581612e8e565b9350604086013592506060860135915060808601356001600160401b0381111561384e57600080fd5b6132ff888289016130b0565b60006020828403121561386c57600080fd5b8151610e0b81612e8e565b634e487b7160e01b600052603260045260246000fd5b634e487b7160e01b600052601160045260246000fd5b60006000198214156138b7576138b761388d565b5060010190565b81835281816020850137506000828201602090810191909152601f909101601f19169091010190565b60a0808252875190820181905260009060209060c0840190828b01845b828110156139295781516001600160a01b031684529284019290840190600101613904565b5050508381038285015288518082528983019183019060005b8181101561395e57835183529284019291840191600101613942565b50506001600160a01b03891660408601526001600160a01b038816606086015284810360808601526139918187896138be565b9b9a5050505050505050505050565b6000602082840312156139b257600080fd5b8151610e0b8161306b565b60208082526010908201526f14185d5cd8589b194e881c185d5cd95960821b604082015260600190565b6020808252601f908201527f5265656e7472616e637947756172643a207265656e7472616e742063616c6c00604082015260600190565b600681106134855761348561345f565b60005b83811015613a49578181015183820152602001613a31565b838111156122505750506000910152565b60008151808452613a72816020860160208601613a2e565b601f01601f19169290920160200192915050565b6000610280613a96848451613a1e565b6020830151613aa9602086018215159052565b50604083015160408501526060830151613ace60608601826001600160a01b03169052565b506080830151608085015260a083015160a085015260c0830151613afd60c08601826001600160a01b03169052565b5060e0838101519085015261010080840151908501526101208084015164ffffffffff908116918601919091526101408085015190911690850152610160808401516001600160801b031690850152610180808401516001600160a01b03908116918601919091526101a080850151908601526101c080850151908601526101e0808501519091169085015261020080840151818601839052613ba283870182613a5a565b9250505061022080840151613bbb8287018260ff169052565b505061024083810151908501526102609283015192909301919091525090565b602081526000610e0b6020830184613a86565b600060208284031215613c0057600080fd5b5051919050565b86815285602082015284604082015283606082015260c060808201526000613c3260c0830185613a86565b82810360a0840152610100845182526020850151602083015260408501516040830152606085015160018060a01b038082166060850152806080880151166080850152505060a085015160a083015260c085015160c083015260e08501518160e084015261399182840182613a5a565b8051825260208101516020830152604081015160018060a01b03808216604085015280606084015116606085015250506080810151608083015260a081015160a08301525050565b6000610160888352876020840152866040840152856060840152806080840152613d1681840186613a86565b915050612e2060a0830184613ca2565b60208082526018908201527f424d5f434845434b5f4c4f414e5f4e4f545f4558495354530000000000000000604082015260600190565b60208082526022908201527f424d5f43414e43454c5f4e4f4e43455f4c4f5745525f5448414e5f4355525245604082015261139560f21b606082015260800190565b81835260006001600160fb1b03831115613db857600080fd5b8260051b8083602087013760009401602001938452509192915050565b602081526000611345602083018486613d9f565b60208082526024908201527f424d5f41434c5f4f4e4c595f454d455247454e43595f41444d494e5f43414e5f60408201526310d0531360e21b606082015260800190565b60208082526025908201527f424d5f41434c5f4f4e4c595f41495244524f505f4f50455241544f525f43414e60408201526417d0d0531360da1b606082015260800190565b60008219821115613e8557613e8561388d565b500190565b6001600160a01b0389811682528816602082015260a060408201819052600090613eb7908301888a613d9f565b8281036060840152613eca818789613d9f565b905082810360808401526139918185876138be565b606081526000613ef360608301888a613d9f565b8281036020840152613f06818789613d9f565b90508281036040840152613f1b8185876138be565b9998505050505050505050565b6000610180898352886020840152876040840152866060840152806080840152613f5481840187613a86565b915050613f6460a0830185613ca2565b6001600160a01b039290921661016091909101529695505050505050565b600082821015613f9457613f9461388d565b500390565b600082613fb657634e487b7160e01b600052601260045260246000fd5b500490565b602081526000610e0b6020830184613a5a565b6000816000190483118215151615613fe857613fe861388d565b500290565b60008251613fff818460208701613a2e565b919091019291505056fea2646970667358221220622ab75db4d2378436f167395e77dca7eed6ba8dc4551734cbb448dd2557ec2264736f6c634300080a0033",
  "libraries": {
    "BespokeTypes": "0x18DBb065e137198b4eE32F212d8442918143FaDF",
    "SignatureChecker": "0x36A273dc8d65393FCC5B392Ca437D19d05aC4724",
    "BespokeLogic": "0x8EDf2dc4A22AcFB3aF927c2985170866D9D1Bc92",
    "TakeLendOfferLogic": "0x975F102A77DfCEdCdf511b21d01561FA88F7a2ff",
    "TakeBorrowOfferLogic": "0x96b961a5643743536FCBE924dBA478056a438eA7",
    "ForecloseLogic": "0x70683cA418e02E8336Ce0E46E532b663Dbb96093",
    "RepayLogic": "0x7115e9815A49cDF76a8aa30C9ee9656660Eed0b3",
    "MathUtils": "0x6E79f2994Ad1a8eF022da72Cf9E2ae9D29710830",
    "PercentageMath": "0x76e304782A1773E8d693c8d36484CAc602C489E1",
    "WadRayMath": "0x8D04A88F02e5b79F1105297297B12661AD3CEF70"
  },
  "devdoc": {
    "kind": "dev",
    "methods": {
      "cancelAllBorrowOffersForSender(uint256)": {
        "params": {
          "minNonce_": "minimum user nonce"
        }
      },
      "cancelMultipleBorrowOffers(uint256[])": {
        "params": {
          "offerNonces": "array of borrowOffer nonces"
        }
      },
      "claimERC1155Airdrop(address,address,uint256[],uint256[],bytes)": {
        "params": {
          "amounts": "The amount of the ERC1155 tokens",
          "data": "packed params to pass to the receiver as extra information*",
          "ids": "The ID of the ERC1155 token",
          "to": "The address which will receive the ERC1155 tokens",
          "token": "The address of the airdropped token"
        }
      },
      "claimERC20Airdrop(address,address,uint256)": {
        "params": {
          "amount": "The amount of the ERC20 token*",
          "to": "The address which will receive ERC20 token",
          "token": "The address of the airdropped token"
        }
      },
      "claimERC721Airdrop(address,address,uint256[])": {
        "params": {
          "ids": "The ID of the ERC721 token*",
          "to": "The address which will receive the ERC721 token",
          "token": "The address of the airdropped token"
        }
      },
      "emergencyTokenTransfer(address,address,uint256)": {
        "details": "transfer ERC20 from the utility contract, for ERC20 recovery in case of stuck tokens due direct transfers to the contract address.",
        "params": {
          "amount": "amount to send",
          "to": "recipient of the transfer",
          "token": "token to transfer"
        }
      },
      "flashClaim(address,uint256[],bytes)": {
        "details": "IMPORTANT There are security concerns for developers of flash loan receiver contracts that must be carefully considered",
        "params": {
          "loanIds": "The ID of loan being flash-borrowed",
          "params": "packed params to pass to the receiver as extra information*",
          "receiverAddress": "The address of the contract receiving the funds, implementing IFlashClaimReceiver interface"
        }
      },
      "onERC721Received(address,address,uint256,bytes)": {
        "details": "See {IERC721Receiver-onERC721Received}. Always returns `IERC721Receiver.onERC721Received.selector`."
      },
      "owner()": {
        "details": "Returns the address of the current owner."
      },
      "pause()": {
        "details": "Pause pool for emergency case, can only be called by emergency admin."
      },
      "paused()": {
        "details": "Returns true if the contract is paused, and false otherwise."
      },
      "renounceOwnership()": {
        "details": "Leaves the contract without owner. It will not be possible to call `onlyOwner` functions anymore. Can only be called by the current owner. NOTE: Renouncing ownership will leave the contract without an owner, thereby removing any functionality that is only available to the owner."
      },
      "supportsInterface(bytes4)": {
        "details": "See {IERC165-supportsInterface}."
      },
      "transferOwnership(address)": {
        "details": "Transfers ownership of the contract to a new account (`newOwner`). Can only be called by the current owner."
      },
      "unpause()": {
        "details": "Unpause pool for emergency case, can only be called by emergency admin."
      }
    },
    "version": 1
  },
  "userdoc": {
    "kind": "user",
    "methods": {
      "cancelAllBorrowOffersForSender(uint256)": {
        "notice": "Cancel all pending offers for a sender"
      },
      "claimERC1155Airdrop(address,address,uint256[],uint256[],bytes)": {
        "notice": "Claim the ERC1155 token which has been airdropped to the loan contract"
      },
      "claimERC20Airdrop(address,address,uint256)": {
        "notice": "Claim the ERC20 token which has been airdropped to the loan contract"
      },
      "claimERC721Airdrop(address,address,uint256[])": {
        "notice": "Claim the ERC721 token which has been airdropped to the loan contract"
      },
      "flashClaim(address,uint256[],bytes)": {
        "notice": "Allows smart contracts to access the collateralized NFT within one transaction, as long as the amount taken plus a fee is returned"
      },
      "foreclose(uint256)": {
        "notice": "anyone can trigger but only OpenSkyLendNFT owner can receive collateral"
      },
      "repay(uint256)": {
        "notice": "Only OpenSkyBorrowNFT owner can repayOnly OpenSkyLendNFT owner can recieve the paymentThis function is not pausable for safety"
      },
      "repayETH(uint256)": {
        "notice": "Only OpenSkyBorrowNFT owner can repayOnly OpenSkyLendNFT owner can recieve the paymentThis function is not pausable for safety"
      },
      "takeBorrowOffer((uint8,bool,uint256,address,uint256,uint256,address,uint256,uint256,uint40,uint40,uint128,address,uint256,uint256,address,bytes,uint8,bytes32,bytes32),uint256,uint256)": {
        "notice": "take an borrowing offer using ERC20 include WETH"
      },
      "takeBorrowOfferETH((uint8,bool,uint256,address,uint256,uint256,address,uint256,uint256,uint40,uint40,uint128,address,uint256,uint256,address,bytes,uint8,bytes32,bytes32),uint256,uint256)": {
        "notice": "Take a borrow offer. Only for WETH reserve.Consider using taker's oWETH balance first, then ETH if oWETH is not enoughBorrower will receive WETH"
      }
    },
    "version": 1
  },
  "storageLayout": {
    "storage": [
      {
        "astId": 387,
        "contract": "contracts/bespokemarket/OpenSkyBespokeMarket.sol:OpenSkyBespokeMarket",
        "label": "_owner",
        "offset": 0,
        "slot": "0",
        "type": "t_address"
      },
      {
        "astId": 1294,
        "contract": "contracts/bespokemarket/OpenSkyBespokeMarket.sol:OpenSkyBespokeMarket",
        "label": "_paused",
        "offset": 20,
        "slot": "0",
        "type": "t_bool"
      },
      {
        "astId": 1379,
        "contract": "contracts/bespokemarket/OpenSkyBespokeMarket.sol:OpenSkyBespokeMarket",
        "label": "_status",
        "offset": 0,
        "slot": "1",
        "type": "t_uint256"
      },
      {
        "astId": 13267,
        "contract": "contracts/bespokemarket/OpenSkyBespokeMarket.sol:OpenSkyBespokeMarket",
        "label": "minNonce",
        "offset": 0,
        "slot": "2",
        "type": "t_mapping(t_address,t_uint256)"
      },
      {
        "astId": 13273,
        "contract": "contracts/bespokemarket/OpenSkyBespokeMarket.sol:OpenSkyBespokeMarket",
        "label": "_nonce",
        "offset": 0,
        "slot": "3",
        "type": "t_mapping(t_address,t_mapping(t_uint256,t_bool))"
      },
      {
        "astId": 13276,
        "contract": "contracts/bespokemarket/OpenSkyBespokeMarket.sol:OpenSkyBespokeMarket",
        "label": "_loanIdTracker",
        "offset": 0,
        "slot": "4",
        "type": "t_struct(Counter)17166_storage"
      },
      {
        "astId": 13281,
        "contract": "contracts/bespokemarket/OpenSkyBespokeMarket.sol:OpenSkyBespokeMarket",
        "label": "_loans",
        "offset": 0,
        "slot": "5",
        "type": "t_mapping(t_uint256,t_struct(LoanData)17134_storage)"
      }
    ],
    "types": {
      "t_address": {
        "encoding": "inplace",
        "label": "address",
        "numberOfBytes": "20"
      },
      "t_bool": {
        "encoding": "inplace",
        "label": "bool",
        "numberOfBytes": "1"
      },
      "t_enum(LoanStatus)17139": {
        "encoding": "inplace",
        "label": "enum BespokeTypes.LoanStatus",
        "numberOfBytes": "1"
      },
      "t_mapping(t_address,t_mapping(t_uint256,t_bool))": {
        "encoding": "mapping",
        "key": "t_address",
        "label": "mapping(address => mapping(uint256 => bool))",
        "numberOfBytes": "32",
        "value": "t_mapping(t_uint256,t_bool)"
      },
      "t_mapping(t_address,t_uint256)": {
        "encoding": "mapping",
        "key": "t_address",
        "label": "mapping(address => uint256)",
        "numberOfBytes": "32",
        "value": "t_uint256"
      },
      "t_mapping(t_uint256,t_bool)": {
        "encoding": "mapping",
        "key": "t_uint256",
        "label": "mapping(uint256 => bool)",
        "numberOfBytes": "32",
        "value": "t_bool"
      },
      "t_mapping(t_uint256,t_struct(LoanData)17134_storage)": {
        "encoding": "mapping",
        "key": "t_uint256",
        "label": "mapping(uint256 => struct BespokeTypes.LoanData)",
        "numberOfBytes": "32",
        "value": "t_struct(LoanData)17134_storage"
      },
      "t_struct(Counter)17166_storage": {
        "encoding": "inplace",
        "label": "struct BespokeTypes.Counter",
        "members": [
          {
            "astId": 17165,
            "contract": "contracts/bespokemarket/OpenSkyBespokeMarket.sol:OpenSkyBespokeMarket",
            "label": "_value",
            "offset": 0,
            "slot": "0",
            "type": "t_uint256"
          }
        ],
        "numberOfBytes": "32"
      },
      "t_struct(LoanData)17134_storage": {
        "encoding": "inplace",
        "label": "struct BespokeTypes.LoanData",
        "members": [
          {
            "astId": 17104,
            "contract": "contracts/bespokemarket/OpenSkyBespokeMarket.sol:OpenSkyBespokeMarket",
            "label": "reserveId",
            "offset": 0,
            "slot": "0",
            "type": "t_uint256"
          },
          {
            "astId": 17106,
            "contract": "contracts/bespokemarket/OpenSkyBespokeMarket.sol:OpenSkyBespokeMarket",
            "label": "nftAddress",
            "offset": 0,
            "slot": "1",
            "type": "t_address"
          },
          {
            "astId": 17108,
            "contract": "contracts/bespokemarket/OpenSkyBespokeMarket.sol:OpenSkyBespokeMarket",
            "label": "tokenId",
            "offset": 0,
            "slot": "2",
            "type": "t_uint256"
          },
          {
            "astId": 17110,
            "contract": "contracts/bespokemarket/OpenSkyBespokeMarket.sol:OpenSkyBespokeMarket",
            "label": "tokenAmount",
            "offset": 0,
            "slot": "3",
            "type": "t_uint256"
          },
          {
            "astId": 17112,
            "contract": "contracts/bespokemarket/OpenSkyBespokeMarket.sol:OpenSkyBespokeMarket",
            "label": "borrower",
            "offset": 0,
            "slot": "4",
            "type": "t_address"
          },
          {
            "astId": 17114,
            "contract": "contracts/bespokemarket/OpenSkyBespokeMarket.sol:OpenSkyBespokeMarket",
            "label": "amount",
            "offset": 0,
            "slot": "5",
            "type": "t_uint256"
          },
          {
            "astId": 17116,
            "contract": "contracts/bespokemarket/OpenSkyBespokeMarket.sol:OpenSkyBespokeMarket",
            "label": "borrowRate",
            "offset": 0,
            "slot": "6",
            "type": "t_uint128"
          },
          {
            "astId": 17118,
            "contract": "contracts/bespokemarket/OpenSkyBespokeMarket.sol:OpenSkyBespokeMarket",
            "label": "interestPerSecond",
            "offset": 16,
            "slot": "6",
            "type": "t_uint128"
          },
          {
            "astId": 17120,
            "contract": "contracts/bespokemarket/OpenSkyBespokeMarket.sol:OpenSkyBespokeMarket",
            "label": "currency",
            "offset": 0,
            "slot": "7",
            "type": "t_address"
          },
          {
            "astId": 17122,
            "contract": "contracts/bespokemarket/OpenSkyBespokeMarket.sol:OpenSkyBespokeMarket",
            "label": "borrowDuration",
            "offset": 20,
            "slot": "7",
            "type": "t_uint40"
          },
          {
            "astId": 17124,
            "contract": "contracts/bespokemarket/OpenSkyBespokeMarket.sol:OpenSkyBespokeMarket",
            "label": "borrowBegin",
            "offset": 25,
            "slot": "7",
            "type": "t_uint40"
          },
          {
            "astId": 17126,
            "contract": "contracts/bespokemarket/OpenSkyBespokeMarket.sol:OpenSkyBespokeMarket",
            "label": "borrowOverdueTime",
            "offset": 0,
            "slot": "8",
            "type": "t_uint40"
          },
          {
            "astId": 17128,
            "contract": "contracts/bespokemarket/OpenSkyBespokeMarket.sol:OpenSkyBespokeMarket",
            "label": "liquidatableTime",
            "offset": 5,
            "slot": "8",
            "type": "t_uint40"
          },
          {
            "astId": 17130,
            "contract": "contracts/bespokemarket/OpenSkyBespokeMarket.sol:OpenSkyBespokeMarket",
            "label": "lender",
            "offset": 10,
            "slot": "8",
            "type": "t_address"
          },
          {
            "astId": 17133,
            "contract": "contracts/bespokemarket/OpenSkyBespokeMarket.sol:OpenSkyBespokeMarket",
            "label": "status",
            "offset": 30,
            "slot": "8",
            "type": "t_enum(LoanStatus)17139"
          }
        ],
        "numberOfBytes": "288"
      },
      "t_uint128": {
        "encoding": "inplace",
        "label": "uint128",
        "numberOfBytes": "16"
      },
      "t_uint256": {
        "encoding": "inplace",
        "label": "uint256",
        "numberOfBytes": "32"
      },
      "t_uint40": {
        "encoding": "inplace",
        "label": "uint40",
        "numberOfBytes": "5"
      }
    }
  }
}