{
  "address": "0x9486A58939Ca99A5A7077F4a4e46f9eb9cEEe689",
  "abi": [
    {
      "inputs": [
        {
          "internalType": "address",
          "name": "SETTINGS_",
          "type": "address"
        },
        {
          "internalType": "address",
          "name": "BESPOKE_SETTINGS_",
          "type": "address"
        },
        {
          "internalType": "address",
          "name": "WETH_",
          "type": "address"
        }
      ],
      "stateMutability": "nonpayable",
      "type": "constructor"
    },
    {
      "anonymous": false,
      "inputs": [
        {
          "indexed": true,
          "internalType": "address",
          "name": "sender",
          "type": "address"
        },
        {
          "indexed": false,
          "internalType": "uint256",
          "name": "nonce",
          "type": "uint256"
        }
      ],
      "name": "CancelAllOffers",
      "type": "event"
    },
    {
      "anonymous": false,
      "inputs": [
        {
          "indexed": true,
          "internalType": "address",
          "name": "sender",
          "type": "address"
        },
        {
          "indexed": false,
          "internalType": "uint256[]",
          "name": "nonces",
          "type": "uint256[]"
        }
      ],
      "name": "CancelMultipleOffers",
      "type": "event"
    },
    {
      "anonymous": false,
      "inputs": [
        {
          "indexed": true,
          "internalType": "address",
          "name": "token",
          "type": "address"
        },
        {
          "indexed": true,
          "internalType": "address",
          "name": "to",
          "type": "address"
        },
        {
          "indexed": false,
          "internalType": "uint256[]",
          "name": "ids",
          "type": "uint256[]"
        },
        {
          "indexed": false,
          "internalType": "uint256[]",
          "name": "amounts",
          "type": "uint256[]"
        },
        {
          "indexed": false,
          "internalType": "bytes",
          "name": "data",
          "type": "bytes"
        }
      ],
      "name": "ClaimERC1155Airdrop",
      "type": "event"
    },
    {
      "anonymous": false,
      "inputs": [
        {
          "indexed": true,
          "internalType": "address",
          "name": "token",
          "type": "address"
        },
        {
          "indexed": true,
          "internalType": "address",
          "name": "to",
          "type": "address"
        },
        {
          "indexed": false,
          "internalType": "uint256",
          "name": "amount",
          "type": "uint256"
        }
      ],
      "name": "ClaimERC20Airdrop",
      "type": "event"
    },
    {
      "anonymous": false,
      "inputs": [
        {
          "indexed": true,
          "internalType": "address",
          "name": "token",
          "type": "address"
        },
        {
          "indexed": true,
          "internalType": "address",
          "name": "to",
          "type": "address"
        },
        {
          "indexed": false,
          "internalType": "uint256[]",
          "name": "ids",
          "type": "uint256[]"
        }
      ],
      "name": "ClaimERC721Airdrop",
      "type": "event"
    },
    {
      "anonymous": false,
      "inputs": [
        {
          "indexed": true,
          "internalType": "address",
          "name": "receiver",
          "type": "address"
        },
        {
          "indexed": false,
          "internalType": "address",
          "name": "sender",
          "type": "address"
        },
        {
          "indexed": true,
          "internalType": "address",
          "name": "nftAddress",
          "type": "address"
        },
        {
          "indexed": true,
          "internalType": "uint256",
          "name": "tokenId",
          "type": "uint256"
        }
      ],
      "name": "FlashClaim",
      "type": "event"
    },
    {
      "anonymous": false,
      "inputs": [
        {
          "indexed": true,
          "internalType": "uint256",
          "name": "loanId",
          "type": "uint256"
        },
        {
          "indexed": true,
          "internalType": "address",
          "name": "lender",
          "type": "address"
        }
      ],
      "name": "Foreclose",
      "type": "event"
    },
    {
      "anonymous": false,
      "inputs": [
        {
          "indexed": true,
          "internalType": "address",
          "name": "previousOwner",
          "type": "address"
        },
        {
          "indexed": true,
          "internalType": "address",
          "name": "newOwner",
          "type": "address"
        }
      ],
      "name": "OwnershipTransferred",
      "type": "event"
    },
    {
      "anonymous": false,
      "inputs": [
        {
          "indexed": false,
          "internalType": "address",
          "name": "account",
          "type": "address"
        }
      ],
      "name": "Paused",
      "type": "event"
    },
    {
      "anonymous": false,
      "inputs": [
        {
          "indexed": true,
          "internalType": "uint256",
          "name": "loanId",
          "type": "uint256"
        },
        {
          "indexed": true,
          "internalType": "address",
          "name": "borrower",
          "type": "address"
        }
      ],
      "name": "Repay",
      "type": "event"
    },
    {
      "anonymous": false,
      "inputs": [
        {
          "indexed": true,
          "internalType": "uint256",
          "name": "loanId",
          "type": "uint256"
        },
        {
          "indexed": true,
          "internalType": "address",
          "name": "borrower",
          "type": "address"
        }
      ],
      "name": "RepayETH",
      "type": "event"
    },
    {
      "anonymous": false,
      "inputs": [
        {
          "indexed": false,
          "internalType": "bytes32",
          "name": "offerHash",
          "type": "bytes32"
        },
        {
          "indexed": false,
          "internalType": "uint256",
          "name": "oldLoanId",
          "type": "uint256"
        },
        {
          "indexed": true,
          "internalType": "uint256",
          "name": "loanId",
          "type": "uint256"
        },
        {
          "indexed": true,
          "internalType": "address",
          "name": "lender",
          "type": "address"
        },
        {
          "indexed": true,
          "internalType": "address",
          "name": "borrower",
          "type": "address"
        },
        {
          "indexed": false,
          "internalType": "uint256",
          "name": "nonce",
          "type": "uint256"
        }
      ],
      "name": "Rollover",
      "type": "event"
    },
    {
      "anonymous": false,
      "inputs": [
        {
          "indexed": false,
          "internalType": "bytes32",
          "name": "offerHash",
          "type": "bytes32"
        },
        {
          "indexed": true,
          "internalType": "uint256",
          "name": "loanId",
          "type": "uint256"
        },
        {
          "indexed": true,
          "internalType": "address",
          "name": "lender",
          "type": "address"
        },
        {
          "indexed": true,
          "internalType": "address",
          "name": "borrower",
          "type": "address"
        },
        {
          "indexed": false,
          "internalType": "uint256",
          "name": "nonce",
          "type": "uint256"
        }
      ],
      "name": "TakeBorrowOffer",
      "type": "event"
    },
    {
      "anonymous": false,
      "inputs": [
        {
          "indexed": false,
          "internalType": "bytes32",
          "name": "offerHash",
          "type": "bytes32"
        },
        {
          "indexed": true,
          "internalType": "uint256",
          "name": "loanId",
          "type": "uint256"
        },
        {
          "indexed": true,
          "internalType": "address",
          "name": "lender",
          "type": "address"
        },
        {
          "indexed": true,
          "internalType": "address",
          "name": "borrower",
          "type": "address"
        },
        {
          "indexed": false,
          "internalType": "uint256",
          "name": "nonce",
          "type": "uint256"
        }
      ],
      "name": "TakeBorrowOfferETH",
      "type": "event"
    },
    {
      "anonymous": false,
      "inputs": [
        {
          "indexed": false,
          "internalType": "bytes32",
          "name": "offerHash",
          "type": "bytes32"
        },
        {
          "indexed": true,
          "internalType": "uint256",
          "name": "loanId",
          "type": "uint256"
        },
        {
          "indexed": true,
          "internalType": "address",
          "name": "lender",
          "type": "address"
        },
        {
          "indexed": true,
          "internalType": "address",
          "name": "borrower",
          "type": "address"
        },
        {
          "indexed": false,
          "internalType": "uint256",
          "name": "nonce",
          "type": "uint256"
        }
      ],
      "name": "TakeLendOffer",
      "type": "event"
    },
    {
      "anonymous": false,
      "inputs": [
        {
          "indexed": false,
          "internalType": "address",
          "name": "account",
          "type": "address"
        }
      ],
      "name": "Unpaused",
      "type": "event"
    },
    {
      "stateMutability": "payable",
      "type": "fallback"
    },
    {
      "inputs": [],
      "name": "BESPOKE_SETTINGS",
      "outputs": [
        {
          "internalType": "contract IOpenSkyBespokeSettings",
          "name": "",
          "type": "address"
        }
      ],
      "stateMutability": "view",
      "type": "function"
    },
    {
      "inputs": [],
      "name": "INTERFACE_ID_ERC1155",
      "outputs": [
        {
          "internalType": "bytes4",
          "name": "",
          "type": "bytes4"
        }
      ],
      "stateMutability": "view",
      "type": "function"
    },
    {
      "inputs": [],
      "name": "INTERFACE_ID_ERC721",
      "outputs": [
        {
          "internalType": "bytes4",
          "name": "",
          "type": "bytes4"
        }
      ],
      "stateMutability": "view",
      "type": "function"
    },
    {
      "inputs": [],
      "name": "SETTINGS",
      "outputs": [
        {
          "internalType": "contract IOpenSkySettings",
          "name": "",
          "type": "address"
        }
      ],
      "stateMutability": "view",
      "type": "function"
    },
    {
      "inputs": [],
      "name": "WETH",
      "outputs": [
        {
          "internalType": "contract IWETH",
          "name": "",
          "type": "address"
        }
      ],
      "stateMutability": "view",
      "type": "function"
    },
    {
      "inputs": [
        {
          "internalType": "uint256",
          "name": "minNonce_",
          "type": "uint256"
        }
      ],
      "name": "cancelAllBorrowOffersForSender",
      "outputs": [],
      "stateMutability": "nonpayable",
      "type": "function"
    },
    {
      "inputs": [
        {
          "internalType": "uint256[]",
          "name": "offerNonces",
          "type": "uint256[]"
        }
      ],
      "name": "cancelMultipleBorrowOffers",
      "outputs": [],
      "stateMutability": "nonpayable",
      "type": "function"
    },
    {
      "inputs": [
        {
          "internalType": "address",
          "name": "token",
          "type": "address"
        },
        {
          "internalType": "address",
          "name": "to",
          "type": "address"
        },
        {
          "internalType": "uint256[]",
          "name": "ids",
          "type": "uint256[]"
        },
        {
          "internalType": "uint256[]",
          "name": "amounts",
          "type": "uint256[]"
        },
        {
          "internalType": "bytes",
          "name": "data",
          "type": "bytes"
        }
      ],
      "name": "claimERC1155Airdrop",
      "outputs": [],
      "stateMutability": "nonpayable",
      "type": "function"
    },
    {
      "inputs": [
        {
          "internalType": "address",
          "name": "token",
          "type": "address"
        },
        {
          "internalType": "address",
          "name": "to",
          "type": "address"
        },
        {
          "internalType": "uint256",
          "name": "amount",
          "type": "uint256"
        }
      ],
      "name": "claimERC20Airdrop",
      "outputs": [],
      "stateMutability": "nonpayable",
      "type": "function"
    },
    {
      "inputs": [
        {
          "internalType": "address",
          "name": "token",
          "type": "address"
        },
        {
          "internalType": "address",
          "name": "to",
          "type": "address"
        },
        {
          "internalType": "uint256[]",
          "name": "ids",
          "type": "uint256[]"
        }
      ],
      "name": "claimERC721Airdrop",
      "outputs": [],
      "stateMutability": "nonpayable",
      "type": "function"
    },
    {
      "inputs": [
        {
          "internalType": "address",
          "name": "token",
          "type": "address"
        },
        {
          "internalType": "address",
          "name": "to",
          "type": "address"
        },
        {
          "internalType": "uint256",
          "name": "amount",
          "type": "uint256"
        }
      ],
      "name": "emergencyTokenTransfer",
      "outputs": [],
      "stateMutability": "nonpayable",
      "type": "function"
    },
    {
      "inputs": [
        {
          "internalType": "address",
          "name": "receiverAddress",
          "type": "address"
        },
        {
          "internalType": "uint256[]",
          "name": "loanIds",
          "type": "uint256[]"
        },
        {
          "internalType": "bytes",
          "name": "params",
          "type": "bytes"
        }
      ],
      "name": "flashClaim",
      "outputs": [],
      "stateMutability": "nonpayable",
      "type": "function"
    },
    {
      "inputs": [
        {
          "internalType": "uint256",
          "name": "loanId",
          "type": "uint256"
        }
      ],
      "name": "foreclose",
      "outputs": [],
      "stateMutability": "nonpayable",
      "type": "function"
    },
    {
      "inputs": [
        {
          "internalType": "uint256",
          "name": "loanId",
          "type": "uint256"
        }
      ],
      "name": "getBorrowBalance",
      "outputs": [
        {
          "internalType": "uint256",
          "name": "",
          "type": "uint256"
        }
      ],
      "stateMutability": "view",
      "type": "function"
    },
    {
      "inputs": [
        {
          "internalType": "uint256",
          "name": "loanId",
          "type": "uint256"
        }
      ],
      "name": "getBorrowInterest",
      "outputs": [
        {
          "internalType": "uint256",
          "name": "",
          "type": "uint256"
        }
      ],
      "stateMutability": "view",
      "type": "function"
    },
    {
      "inputs": [
        {
          "internalType": "uint256",
          "name": "loanId",
          "type": "uint256"
        }
      ],
      "name": "getLoanData",
      "outputs": [
        {
          "components": [
            {
              "internalType": "uint256",
              "name": "reserveId",
              "type": "uint256"
            },
            {
              "internalType": "address",
              "name": "nftAddress",
              "type": "address"
            },
            {
              "internalType": "uint256",
              "name": "tokenId",
              "type": "uint256"
            },
            {
              "internalType": "uint256",
              "name": "tokenAmount",
              "type": "uint256"
            },
            {
              "internalType": "address",
              "name": "nftManager",
              "type": "address"
            },
            {
              "internalType": "address",
              "name": "borrower",
              "type": "address"
            },
            {
              "internalType": "address",
              "name": "lender",
              "type": "address"
            },
            {
              "internalType": "uint256",
              "name": "amount",
              "type": "uint256"
            },
            {
              "internalType": "uint128",
              "name": "borrowRate",
              "type": "uint128"
            },
            {
              "internalType": "uint128",
              "name": "interestPerSecond",
              "type": "uint128"
            },
            {
              "internalType": "address",
              "name": "currency",
              "type": "address"
            },
            {
              "internalType": "uint40",
              "name": "borrowDuration",
              "type": "uint40"
            },
            {
              "internalType": "uint40",
              "name": "borrowBegin",
              "type": "uint40"
            },
            {
              "internalType": "uint40",
              "name": "borrowOverdueTime",
              "type": "uint40"
            },
            {
              "internalType": "uint40",
              "name": "liquidatableTime",
              "type": "uint40"
            },
            {
              "internalType": "bool",
              "name": "isProrated",
              "type": "bool"
            },
            {
              "internalType": "enum BespokeTypes.LoanStatus",
              "name": "status",
              "type": "uint8"
            }
          ],
          "internalType": "struct BespokeTypes.LoanData",
          "name": "",
          "type": "tuple"
        }
      ],
      "stateMutability": "view",
      "type": "function"
    },
    {
      "inputs": [
        {
          "internalType": "uint256",
          "name": "loanId",
          "type": "uint256"
        }
      ],
      "name": "getPenalty",
      "outputs": [
        {
          "internalType": "uint256",
          "name": "",
          "type": "uint256"
        }
      ],
      "stateMutability": "view",
      "type": "function"
    },
    {
      "inputs": [
        {
          "internalType": "uint256",
          "name": "loanId",
          "type": "uint256"
        }
      ],
      "name": "getStatus",
      "outputs": [
        {
          "internalType": "enum BespokeTypes.LoanStatus",
          "name": "",
          "type": "uint8"
        }
      ],
      "stateMutability": "view",
      "type": "function"
    },
    {
      "inputs": [
        {
          "internalType": "address",
          "name": "account",
          "type": "address"
        },
        {
          "internalType": "uint256",
          "name": "nonce",
          "type": "uint256"
        }
      ],
      "name": "isValidNonce",
      "outputs": [
        {
          "internalType": "bool",
          "name": "",
          "type": "bool"
        }
      ],
      "stateMutability": "view",
      "type": "function"
    },
    {
      "inputs": [
        {
          "internalType": "address",
          "name": "",
          "type": "address"
        }
      ],
      "name": "minNonce",
      "outputs": [
        {
          "internalType": "uint256",
          "name": "",
          "type": "uint256"
        }
      ],
      "stateMutability": "view",
      "type": "function"
    },
    {
      "inputs": [
        {
          "internalType": "address",
          "name": "",
          "type": "address"
        },
        {
          "internalType": "address",
          "name": "",
          "type": "address"
        },
        {
          "internalType": "uint256[]",
          "name": "",
          "type": "uint256[]"
        },
        {
          "internalType": "uint256[]",
          "name": "",
          "type": "uint256[]"
        },
        {
          "internalType": "bytes",
          "name": "",
          "type": "bytes"
        }
      ],
      "name": "onERC1155BatchReceived",
      "outputs": [
        {
          "internalType": "bytes4",
          "name": "",
          "type": "bytes4"
        }
      ],
      "stateMutability": "nonpayable",
      "type": "function"
    },
    {
      "inputs": [
        {
          "internalType": "address",
          "name": "",
          "type": "address"
        },
        {
          "internalType": "address",
          "name": "",
          "type": "address"
        },
        {
          "internalType": "uint256",
          "name": "",
          "type": "uint256"
        },
        {
          "internalType": "uint256",
          "name": "",
          "type": "uint256"
        },
        {
          "internalType": "bytes",
          "name": "",
          "type": "bytes"
        }
      ],
      "name": "onERC1155Received",
      "outputs": [
        {
          "internalType": "bytes4",
          "name": "",
          "type": "bytes4"
        }
      ],
      "stateMutability": "nonpayable",
      "type": "function"
    },
    {
      "inputs": [
        {
          "internalType": "address",
          "name": "",
          "type": "address"
        },
        {
          "internalType": "address",
          "name": "",
          "type": "address"
        },
        {
          "internalType": "uint256",
          "name": "",
          "type": "uint256"
        },
        {
          "internalType": "bytes",
          "name": "",
          "type": "bytes"
        }
      ],
      "name": "onERC721Received",
      "outputs": [
        {
          "internalType": "bytes4",
          "name": "",
          "type": "bytes4"
        }
      ],
      "stateMutability": "nonpayable",
      "type": "function"
    },
    {
      "inputs": [],
      "name": "owner",
      "outputs": [
        {
          "internalType": "address",
          "name": "",
          "type": "address"
        }
      ],
      "stateMutability": "view",
      "type": "function"
    },
    {
      "inputs": [],
      "name": "pause",
      "outputs": [],
      "stateMutability": "nonpayable",
      "type": "function"
    },
    {
      "inputs": [],
      "name": "paused",
      "outputs": [
        {
          "internalType": "bool",
          "name": "",
          "type": "bool"
        }
      ],
      "stateMutability": "view",
      "type": "function"
    },
    {
      "inputs": [],
      "name": "renounceOwnership",
      "outputs": [],
      "stateMutability": "nonpayable",
      "type": "function"
    },
    {
      "inputs": [
        {
          "internalType": "uint256",
          "name": "loanId",
          "type": "uint256"
        }
      ],
      "name": "repay",
      "outputs": [],
      "stateMutability": "nonpayable",
      "type": "function"
    },
    {
      "inputs": [
        {
          "internalType": "uint256",
          "name": "loanId",
          "type": "uint256"
        }
      ],
      "name": "repayETH",
      "outputs": [],
      "stateMutability": "payable",
      "type": "function"
    },
    {
      "inputs": [
        {
          "internalType": "bytes4",
          "name": "interfaceId",
          "type": "bytes4"
        }
      ],
      "name": "supportsInterface",
      "outputs": [
        {
          "internalType": "bool",
          "name": "",
          "type": "bool"
        }
      ],
      "stateMutability": "view",
      "type": "function"
    },
    {
      "inputs": [
        {
          "components": [
            {
              "internalType": "bool",
              "name": "isProrated",
              "type": "bool"
            },
            {
              "internalType": "uint256",
              "name": "reserveId",
              "type": "uint256"
            },
            {
              "internalType": "enum BespokeTypes.OfferType",
              "name": "offerType",
              "type": "uint8"
            },
            {
              "internalType": "address",
              "name": "nftAddress",
              "type": "address"
            },
            {
              "internalType": "uint256",
              "name": "tokenId",
              "type": "uint256"
            },
            {
              "internalType": "uint256",
              "name": "tokenAmount",
              "type": "uint256"
            },
            {
              "internalType": "address",
              "name": "signer",
              "type": "address"
            },
            {
              "internalType": "uint256",
              "name": "borrowAmountMin",
              "type": "uint256"
            },
            {
              "internalType": "uint256",
              "name": "borrowAmountMax",
              "type": "uint256"
            },
            {
              "internalType": "uint40",
              "name": "borrowDurationMin",
              "type": "uint40"
            },
            {
              "internalType": "uint40",
              "name": "borrowDurationMax",
              "type": "uint40"
            },
            {
              "internalType": "uint128",
              "name": "borrowRate",
              "type": "uint128"
            },
            {
              "internalType": "address",
              "name": "currency",
              "type": "address"
            },
            {
              "internalType": "uint256",
              "name": "nonce",
              "type": "uint256"
            },
            {
              "internalType": "uint256",
              "name": "deadline",
              "type": "uint256"
            },
            {
              "internalType": "address",
              "name": "strategy",
              "type": "address"
            },
            {
              "internalType": "bytes",
              "name": "params",
              "type": "bytes"
            },
            {
              "internalType": "uint8",
              "name": "v",
              "type": "uint8"
            },
            {
              "internalType": "bytes32",
              "name": "r",
              "type": "bytes32"
            },
            {
              "internalType": "bytes32",
              "name": "s",
              "type": "bytes32"
            }
          ],
          "internalType": "struct BespokeTypes.Offer",
          "name": "offerData",
          "type": "tuple"
        },
        {
          "internalType": "uint256",
          "name": "supplyAmount",
          "type": "uint256"
        },
        {
          "internalType": "uint256",
          "name": "supplyDuration",
          "type": "uint256"
        }
      ],
      "name": "takeBorrowOffer",
      "outputs": [
        {
          "internalType": "uint256",
          "name": "",
          "type": "uint256"
        }
      ],
      "stateMutability": "nonpayable",
      "type": "function"
    },
    {
      "inputs": [
        {
          "components": [
            {
              "internalType": "bool",
              "name": "isProrated",
              "type": "bool"
            },
            {
              "internalType": "uint256",
              "name": "reserveId",
              "type": "uint256"
            },
            {
              "internalType": "enum BespokeTypes.OfferType",
              "name": "offerType",
              "type": "uint8"
            },
            {
              "internalType": "address",
              "name": "nftAddress",
              "type": "address"
            },
            {
              "internalType": "uint256",
              "name": "tokenId",
              "type": "uint256"
            },
            {
              "internalType": "uint256",
              "name": "tokenAmount",
              "type": "uint256"
            },
            {
              "internalType": "address",
              "name": "signer",
              "type": "address"
            },
            {
              "internalType": "uint256",
              "name": "borrowAmountMin",
              "type": "uint256"
            },
            {
              "internalType": "uint256",
              "name": "borrowAmountMax",
              "type": "uint256"
            },
            {
              "internalType": "uint40",
              "name": "borrowDurationMin",
              "type": "uint40"
            },
            {
              "internalType": "uint40",
              "name": "borrowDurationMax",
              "type": "uint40"
            },
            {
              "internalType": "uint128",
              "name": "borrowRate",
              "type": "uint128"
            },
            {
              "internalType": "address",
              "name": "currency",
              "type": "address"
            },
            {
              "internalType": "uint256",
              "name": "nonce",
              "type": "uint256"
            },
            {
              "internalType": "uint256",
              "name": "deadline",
              "type": "uint256"
            },
            {
              "internalType": "address",
              "name": "strategy",
              "type": "address"
            },
            {
              "internalType": "bytes",
              "name": "params",
              "type": "bytes"
            },
            {
              "internalType": "uint8",
              "name": "v",
              "type": "uint8"
            },
            {
              "internalType": "bytes32",
              "name": "r",
              "type": "bytes32"
            },
            {
              "internalType": "bytes32",
              "name": "s",
              "type": "bytes32"
            }
          ],
          "internalType": "struct BespokeTypes.Offer",
          "name": "offerData",
          "type": "tuple"
        },
        {
          "internalType": "uint256",
          "name": "supplyAmount",
          "type": "uint256"
        },
        {
          "internalType": "uint256",
          "name": "supplyDuration",
          "type": "uint256"
        }
      ],
      "name": "takeBorrowOfferETH",
      "outputs": [
        {
          "internalType": "uint256",
          "name": "",
          "type": "uint256"
        }
      ],
      "stateMutability": "payable",
      "type": "function"
    },
    {
      "inputs": [
        {
          "components": [
            {
              "internalType": "bool",
              "name": "isProrated",
              "type": "bool"
            },
            {
              "internalType": "uint256",
              "name": "reserveId",
              "type": "uint256"
            },
            {
              "internalType": "enum BespokeTypes.OfferType",
              "name": "offerType",
              "type": "uint8"
            },
            {
              "internalType": "address",
              "name": "nftAddress",
              "type": "address"
            },
            {
              "internalType": "uint256",
              "name": "tokenId",
              "type": "uint256"
            },
            {
              "internalType": "uint256",
              "name": "tokenAmount",
              "type": "uint256"
            },
            {
              "internalType": "address",
              "name": "signer",
              "type": "address"
            },
            {
              "internalType": "uint256",
              "name": "borrowAmountMin",
              "type": "uint256"
            },
            {
              "internalType": "uint256",
              "name": "borrowAmountMax",
              "type": "uint256"
            },
            {
              "internalType": "uint40",
              "name": "borrowDurationMin",
              "type": "uint40"
            },
            {
              "internalType": "uint40",
              "name": "borrowDurationMax",
              "type": "uint40"
            },
            {
              "internalType": "uint128",
              "name": "borrowRate",
              "type": "uint128"
            },
            {
              "internalType": "address",
              "name": "currency",
              "type": "address"
            },
            {
              "internalType": "uint256",
              "name": "nonce",
              "type": "uint256"
            },
            {
              "internalType": "uint256",
              "name": "deadline",
              "type": "uint256"
            },
            {
              "internalType": "address",
              "name": "strategy",
              "type": "address"
            },
            {
              "internalType": "bytes",
              "name": "params",
              "type": "bytes"
            },
            {
              "internalType": "uint8",
              "name": "v",
              "type": "uint8"
            },
            {
              "internalType": "bytes32",
              "name": "r",
              "type": "bytes32"
            },
            {
              "internalType": "bytes32",
              "name": "s",
              "type": "bytes32"
            }
          ],
          "internalType": "struct BespokeTypes.Offer",
          "name": "offerData",
          "type": "tuple"
        },
        {
          "internalType": "uint256",
          "name": "tokenId",
          "type": "uint256"
        },
        {
          "internalType": "uint256",
          "name": "borrowAmount",
          "type": "uint256"
        },
        {
          "internalType": "uint256",
          "name": "borrowDuration",
          "type": "uint256"
        },
        {
          "internalType": "bytes",
          "name": "params",
          "type": "bytes"
        }
      ],
      "name": "takeLendOffer",
      "outputs": [
        {
          "internalType": "uint256",
          "name": "",
          "type": "uint256"
        }
      ],
      "stateMutability": "nonpayable",
      "type": "function"
    },
    {
      "inputs": [
        {
          "internalType": "address",
          "name": "newOwner",
          "type": "address"
        }
      ],
      "name": "transferOwnership",
      "outputs": [],
      "stateMutability": "nonpayable",
      "type": "function"
    },
    {
      "inputs": [],
      "name": "unpause",
      "outputs": [],
      "stateMutability": "nonpayable",
      "type": "function"
    },
    {
      "stateMutability": "payable",
      "type": "receive"
    }
  ],
  "transactionHash": "0xc510163b854e7ed81207b293b77a522e979c4db6d319b787cee9015eadd4bd55",
  "args": [
    "0x90499A6848275e03E8De6608980F4e7d32fbaF6F",
    "0xb349d9e0a18C00e7edC0Ef5ea4CcB297BB85B812",
    "0x2b4393A035BC4144bE02953d6C8bcF010aBe1cA0"
  ],
  "solcInputHash": "245fbbbe680be7356564bc242efbf093",
  "bytecode": "0x60e06040523480156200001157600080fd5b5060405162004140380380620041408339810160408190526200003491620000db565b6200003f336200006e565b6000805460ff60a01b19169055600180556001600160a01b0392831660805290821660a0521660c05262000125565b600080546001600160a01b038381166001600160a01b0319831681178455604051919092169283917f8be0079c531659141344cd1fd0a4f28419497f9722a3daafe3b4186f6b6457e09190a35050565b80516001600160a01b0381168114620000d657600080fd5b919050565b600080600060608486031215620000f157600080fd5b620000fc84620000be565b92506200010c60208501620000be565b91506200011c60408501620000be565b90509250925092565b60805160a05160c051613f58620001e86000396000818161066601528181610f8a01526112db0152600081816103dc0152818161086d01528181610ea4015281816111350152818161128b0152818161151c0152818161174401528181611ebb0152611f3801526000818161069a01528181610ed301528181611164015281816112b30152818161154401528181611591015281816117730152818161184d01528181611c1101528181611fcf0152818161210301526123220152613f586000f3fe6080604052600436106102085760003560e01c8063622fe39f11610118578063aa99fa98116100a0578063bc6bc0cd1161006f578063bc6bc0cd146106e8578063cae5955314610703578063e3185e1214610723578063f23a6e6114610743578063f2fde38b1461076f57610253565b8063aa99fa9814610627578063ad5c464814610654578063ade97ab514610688578063bc197c81146106bc57610253565b806384e5cec5116100e757806384e5cec5146105895780638bf1badd146105a95780638da5cb5b146105c957806396e59682146105e7578063a3d5b2551461060757610253565b8063622fe39f146105125780636b52b3651461053f578063715018a61461055f5780638456cb591461057457610253565b806329c55f061161019b5780633f4ba83a1161016a5780633f4ba83a146104715780634d5d2eff146104865780634f070916146104a65780635c622a0e146104c65780635c975abb146104f357610253565b806329c55f06146103ca5780632f844ea81461041657806333bf615614610436578063371fd8e61461045157610253565b8063150b7a02116101d7578063150b7a02146103335780631c187495146103775780631cfb41b8146103975780632247463e146103b757610253565b806301ffc9a71461029b57806303282d6e146102d05780630647ee20146102f25780630d540f0d1461031257610253565b366102535760405162461bcd60e51b8152602060048201526016602482015275109357d49150d152559157d393d517d0531313d5d15160521b60448201526064015b60405180910390fd5b60405162461bcd60e51b815260206004820152601760248201527f424d5f46414c4c4241434b5f4e4f545f414c4c4f574544000000000000000000604482015260640161024a565b3480156102a757600080fd5b506102bb6102b6366004612a9f565b61078f565b60405190151581526020015b60405180910390f35b3480156102dc57600080fd5b506102f06102eb366004612b7a565b6107c6565b005b3480156102fe57600080fd5b506102bb61030d366004612bfc565b610dbf565b610325610320366004612efc565b610e12565b6040519081526020016102c7565b34801561033f57600080fd5b5061035e61034e366004612f49565b630a85bd0160e11b949350505050565b6040516001600160e01b031990911681526020016102c7565b34801561038357600080fd5b50610325610392366004612fb4565b611018565b3480156103a357600080fd5b506103256103b2366004612fcd565b61109d565b6102f06103c5366004612fb4565b611212565b3480156103d657600080fd5b506103fe7f000000000000000000000000000000000000000000000000000000000000000081565b6040516001600160a01b0390911681526020016102c7565b34801561042257600080fd5b506102f061043136600461304d565b611358565b34801561044257600080fd5b5061035e636cdb3d1360e11b81565b34801561045d57600080fd5b506102f061046c366004612fb4565b6114a2565b34801561047d57600080fd5b506102f061158d565b34801561049257600080fd5b506103256104a1366004612efc565b6116b2565b3480156104b257600080fd5b506102f06104c136600461308e565b611849565b3480156104d257600080fd5b506104e66104e1366004612fb4565b6119ca565b6040516102c791906130f9565b3480156104ff57600080fd5b50600054600160a01b900460ff166102bb565b34801561051e57600080fd5b5061053261052d366004612fb4565b611a4f565b6040516102c79190613107565b34801561054b57600080fd5b5061032561055a366004612fb4565b611b63565b34801561056b57600080fd5b506102f0611ba7565b34801561058057600080fd5b506102f0611c0d565b34801561059557600080fd5b506102f06105a4366004612fb4565b611d2f565b3480156105b557600080fd5b506102f06105c4366004612fb4565b611e17565b3480156105d557600080fd5b506000546001600160a01b03166103fe565b3480156105f357600080fd5b50610325610602366004612fb4565b611f04565b34801561061357600080fd5b506102f061062236600461308e565b611fcb565b34801561063357600080fd5b50610325610642366004613247565b60026020526000908152604090205481565b34801561066057600080fd5b506103fe7f000000000000000000000000000000000000000000000000000000000000000081565b34801561069457600080fd5b506103fe7f000000000000000000000000000000000000000000000000000000000000000081565b3480156106c857600080fd5b5061035e6106d73660046132d8565b63bc197c8160e01b95945050505050565b3480156106f457600080fd5b5061035e6380ac58cd60e01b81565b34801561070f57600080fd5b506102f061071e36600461336b565b6120ff565b34801561072f57600080fd5b506102f061073e3660046133cf565b61231e565b34801561074f57600080fd5b5061035e61075e36600461348d565b63f23a6e6160e01b95945050505050565b34801561077b57600080fd5b506102f061078a366004613247565b612504565b60006001600160e01b03198216630271189760e51b14806107c057506301ffc9a760e01b6001600160e01b03198316145b92915050565b60008581856001600160401b038111156107e2576107e2612c28565b60405190808252806020026020018201604052801561080b578160200160208202803683370190505b5090506000866001600160401b0381111561082857610828612c28565b604051908082528060200260200182016040528015610851578160200160208202803683370190505b509050600093505b86841015610acb57336001600160a01b03167f00000000000000000000000000000000000000000000000000000000000000006001600160a01b031663bb322a836040518163ffffffff1660e01b8152600401602060405180830381865afa1580156108c9573d6000803e3d6000fd5b505050506040513d601f19601f820116820180604052508101906108ed9190613500565b6001600160a01b0316636352211e8a8a8881811061090d5761090d61351d565b905060200201356040518263ffffffff1660e01b815260040161093291815260200190565b602060405180830381865afa15801561094f573d6000803e3d6000fd5b505050506040513d601f19601f820116820180604052508101906109739190613500565b6001600160a01b0316146109d35760405162461bcd60e51b815260206004820152602160248201527f424d5f464c415348434c41494d5f43414c4c45525f49535f4e4f545f4f574e456044820152602960f91b606482015260840161024a565b60006109f68989878181106109ea576109ea61351d565b90506020020135611a4f565b905060038161020001516003811115610a1157610a116130cf565b1415610a5f5760405162461bcd60e51b815260206004820152601a60248201527f424d5f464c415348434c41494d5f5354415455535f4552524f52000000000000604482015260640161024a565b8060200151838681518110610a7657610a7661351d565b60200260200101906001600160a01b031690816001600160a01b0316815250508060400151828681518110610aad57610aad61351d565b60209081029190910101525083610ac381613549565b945050610859565b600093505b86841015610b9957818481518110610aea57610aea61351d565b60200260200101516001600160a01b03166342842e0e308b848881518110610b1457610b1461351d565b60209081029190910101516040516001600160e01b031960e086901b1681526001600160a01b0393841660048201529290911660248301526044820152606401600060405180830381600087803b158015610b6e57600080fd5b505af1158015610b82573d6000803e3d6000fd5b505050508380610b9190613549565b945050610ad0565b604051628e896f60e41b81526001600160a01b038416906308e896f090610bce9085908590339030908d908d9060040161358d565b6020604051808303816000875af1158015610bed573d6000803e3d6000fd5b505050506040513d601f19601f82011682018060405250810190610c119190613651565b610c5d5760405162461bcd60e51b815260206004820152601c60248201527f424d5f464c415348434c41494d5f4558454355544f525f4552524f5200000000604482015260640161024a565b600093505b86841015610db457818481518110610c7c57610c7c61351d565b60200260200101516001600160a01b03166342842e0e8a30848881518110610ca657610ca661351d565b60209081029190910101516040516001600160e01b031960e086901b1681526001600160a01b0393841660048201529290911660248301526044820152606401600060405180830381600087803b158015610d0057600080fd5b505af1158015610d14573d6000803e3d6000fd5b50505050808481518110610d2a57610d2a61351d565b6020026020010151828581518110610d4457610d4461351d565b60200260200101516001600160a01b03168a6001600160a01b03167f6bac1c66016500cd7b62d69e86268760baac6cd34a70003af66ffa8a97983216610d873390565b6040516001600160a01b03909116815260200160405180910390a483610dac81613549565b945050610c62565b505050505050505050565b6001600160a01b038216600090815260036020908152604080832084845290915281205460ff16158015610e0b57506001600160a01b0383166000908152600260205260409020548210155b9392505050565b60008054600160a01b900460ff1615610e3d5760405162461bcd60e51b815260040161024a9061366e565b60026001541415610e605760405162461bcd60e51b815260040161024a90613698565b600260018190555073f7724E2C72693CbAf374fDcDAE7f902DB387C8E763d90ab2606003600260056004896040518060c001604052808b81526020018a81526020017f00000000000000000000000000000000000000000000000000000000000000006001600160a01b031681526020017f00000000000000000000000000000000000000000000000000000000000000006001600160a01b03168152602001610f086125cc565b81526020017351DccDE44cb066CC7c7B223baBaf43fF4bD97D326304432eed8e6040518263ffffffff1660e01b8152600401610f449190613886565b602060405180830381865af4158015610f61573d6000803e3d6000fd5b505050506040513d601f19601f82011682018060405250810190610f859190613899565b8152507f00000000000000000000000000000000000000000000000000000000000000006040518863ffffffff1660e01b8152600401610fcb97969594939291906138fa565b602060405180830381865af4158015610fe8573d6000803e3d6000fd5b505050506040513d601f19601f8201168201806040525081019061100c9190613899565b60018055949350505050565b600081815260056020526040808220905163b504989b60e01b81527351DccDE44cb066CC7c7B223baBaf43fF4bD97D329163b504989b9161105c9190600401613954565b602060405180830381865af4158015611079573d6000803e3d6000fd5b505050506040513d601f19601f820116820180604052508101906107c09190613899565b60008054600160a01b900460ff16156110c85760405162461bcd60e51b815260040161024a9061366e565b600260015414156110eb5760405162461bcd60e51b815260040161024a90613698565b6002600181905550735B6638BD72DDACE3904589f7c9730e59eA06472263ff2300f460036002600560048b6040518060e001604052808d81526020018c81526020018b81526020017f00000000000000000000000000000000000000000000000000000000000000006001600160a01b031681526020017f00000000000000000000000000000000000000000000000000000000000000006001600160a01b031681526020016111996125cc565b81526020018a8152506040518763ffffffff1660e01b81526004016111c396959493929190613a55565b602060405180830381865af41580156111e0573d6000803e3d6000fd5b505050506040513d601f19601f820116820180604052508101906112049190613899565b600180559695505050505050565b600260015414156112355760405162461bcd60e51b815260040161024a90613698565b600260015560008181526005602052604090205481906112675760405162461bcd60e51b815260040161024a90613af3565b60405162c1340760e51b815260056004820152602481018390526001600160a01b037f0000000000000000000000000000000000000000000000000000000000000000811660448301527f0000000000000000000000000000000000000000000000000000000000000000811660648301527f0000000000000000000000000000000000000000000000000000000000000000166084820152731877346C665CcF423253F87f0d7587ae13D902919063182680e09060a4015b60006040518083038186803b15801561133857600080fd5b505af415801561134c573d6000803e3d6000fd5b50506001805550505050565b806113a55760405162461bcd60e51b815260206004820152601960248201527f424d5f43414e43454c5f43414e4e4f545f42455f454d50545900000000000000604482015260640161024a565b60005b8181101561145a57336000908152600260205260409020548383838181106113d2576113d261351d565b9050602002013510156113f75760405162461bcd60e51b815260040161024a90613b2a565b33600090815260036020526040812060019185858581811061141b5761141b61351d565b90506020020135815260200190815260200160002060006101000a81548160ff021916908315150217905550808061145290613549565b9150506113a8565b50336001600160a01b03167fac0004ba1a2ea62c1d6de00ade33246fa25432a7148f9e20cce8d9fea7493aa18383604051611496929190613ba2565b60405180910390a25050565b600260015414156114c55760405162461bcd60e51b815260040161024a90613698565b600260015560008181526005602052604090205481906114f75760405162461bcd60e51b815260040161024a90613af3565b6040516306d8c6df60e01b815260056004820152602481018390526001600160a01b037f0000000000000000000000000000000000000000000000000000000000000000811660448301527f0000000000000000000000000000000000000000000000000000000000000000166064820152731877346C665CcF423253F87f0d7587ae13D90291906306d8c6df90608401611320565b60007f00000000000000000000000000000000000000000000000000000000000000006001600160a01b0316639a9dbb996040518163ffffffff1660e01b8152600401602060405180830381865afa1580156115ed573d6000803e3d6000fd5b505050506040513d601f19601f820116820180604052508101906116119190613500565b90506001600160a01b038116632500f2b6336040516001600160e01b031960e084901b1681526001600160a01b039091166004820152602401602060405180830381865afa158015611667573d6000803e3d6000fd5b505050506040513d601f19601f8201168201806040525081019061168b9190613651565b6116a75760405162461bcd60e51b815260040161024a90613bb6565b6116af612671565b50565b60008054600160a01b900460ff16156116dd5760405162461bcd60e51b815260040161024a9061366e565b600260015414156117005760405162461bcd60e51b815260040161024a90613698565b600260018190555073f7724E2C72693CbAf374fDcDAE7f902DB387C8E763c5cbf0dc6003600260056004896040518060c001604052808b81526020018a81526020017f00000000000000000000000000000000000000000000000000000000000000006001600160a01b031681526020017f00000000000000000000000000000000000000000000000000000000000000006001600160a01b031681526020016117a86125cc565b81526020017351DccDE44cb066CC7c7B223baBaf43fF4bD97D326304432eed8e6040518263ffffffff1660e01b81526004016117e49190613886565b602060405180830381865af4158015611801573d6000803e3d6000fd5b505050506040513d601f19601f820116820180604052508101906118259190613899565b8152506040518763ffffffff1660e01b8152600401610fcb96959493929190613bfa565b60007f00000000000000000000000000000000000000000000000000000000000000006001600160a01b0316639a9dbb996040518163ffffffff1660e01b8152600401602060405180830381865afa1580156118a9573d6000803e3d6000fd5b505050506040513d601f19601f820116820180604052508101906118cd9190613500565b90506001600160a01b038116639078c85a336040516001600160e01b031960e084901b1681526001600160a01b039091166004820152602401602060405180830381865afa158015611923573d6000803e3d6000fd5b505050506040513d601f19601f820116820180604052508101906119479190613651565b6119635760405162461bcd60e51b815260040161024a90613c36565b6119776001600160a01b038516848461270e565b826001600160a01b0316846001600160a01b03167f81275949a17d84915b61eeb24587a501cc8863011afba1ed12f3f6c5bdfd6a21846040516119bc91815260200190565b60405180910390a350505050565b6000818152600560205260408082209051631057df9160e21b81527351DccDE44cb066CC7c7B223baBaf43fF4bD97D329163415f7e4491611a0e9190600401613954565b602060405180830381865af4158015611a2b573d6000803e3d6000fd5b505050506040513d601f19601f820116820180604052508101906107c09190613c8a565b611adc6040805161022081018252600080825260208201819052918101829052606081018290526080810182905260a0810182905260c0810182905260e08101829052610100810182905261012081018290526101408101829052610160810182905261018081018290526101a081018290526101c081018290526101e081018290529061020082015290565b6000828152600560205260409081902090516319e28c3360e21b81527351DccDE44cb066CC7c7B223baBaf43fF4bD97D329163678a30cc91611b219190600401613954565b61022060405180830381865af4158015611b3f573d6000803e3d6000fd5b505050506040513d601f19601f820116820180604052508101906107c09190613cbb565b600081815260056020526040808220905163ab51865d60e01b81527351DccDE44cb066CC7c7B223baBaf43fF4bD97D329163ab51865d9161105c9190600401613954565b6000546001600160a01b03163314611c015760405162461bcd60e51b815260206004820181905260248201527f4f776e61626c653a2063616c6c6572206973206e6f7420746865206f776e6572604482015260640161024a565b611c0b6000612765565b565b60007f00000000000000000000000000000000000000000000000000000000000000006001600160a01b0316639a9dbb996040518163ffffffff1660e01b8152600401602060405180830381865afa158015611c6d573d6000803e3d6000fd5b505050506040513d601f19601f82011682018060405250810190611c919190613500565b90506001600160a01b038116632500f2b6336040516001600160e01b031960e084901b1681526001600160a01b039091166004820152602401602060405180830381865afa158015611ce7573d6000803e3d6000fd5b505050506040513d601f19601f82011682018060405250810190611d0b9190613651565b611d275760405162461bcd60e51b815260040161024a90613bb6565b6116af6127b5565b336000908152600260205260409020548111611d5d5760405162461bcd60e51b815260040161024a90613b2a565b33600090815260026020526040902054611d7a906207a120613de5565b8110611dc85760405162461bcd60e51b815260206004820152601c60248201527f424d5f43414e43454c5f43414e4e4f545f43414e43454c5f4d4f524500000000604482015260640161024a565b3360008181526002602052604090819020839055517f3472ca53ce86826d0cf2457fc20b0aadb9ff559e29da4c38e37e98fb8edd966d90611e0c9084815260200190565b60405180910390a250565b600054600160a01b900460ff1615611e415760405162461bcd60e51b815260040161024a9061366e565b60026001541415611e645760405162461bcd60e51b815260040161024a90613698565b60026001556000818152600560205260409020548190611e965760405162461bcd60e51b815260040161024a90613af3565b604051635430170f60e11b815260056004820152602481018390526001600160a01b037f00000000000000000000000000000000000000000000000000000000000000001660448201527359AeafBcFF6c2D6917dab249152D89C0dd97b0Fd9063a8602e1e90606401611320565b600080611f1083611a4f565b9050600060028261020001516003811115611f2d57611f2d6130cf565b1415610e0b57611fc37f00000000000000000000000000000000000000000000000000000000000000006001600160a01b031663d7a5a9d36040518163ffffffff1660e01b8152600401602060405180830381865afa158015611f94573d6000803e3d6000fd5b505050506040513d601f19601f82011682018060405250810190611fb89190613899565b60e08401519061281a565b949350505050565b60007f00000000000000000000000000000000000000000000000000000000000000006001600160a01b0316639a9dbb996040518163ffffffff1660e01b8152600401602060405180830381865afa15801561202b573d6000803e3d6000fd5b505050506040513d601f19601f8201168201806040525081019061204f9190613500565b90506001600160a01b038116632500f2b6336040516001600160e01b031960e084901b1681526001600160a01b039091166004820152602401602060405180830381865afa1580156120a5573d6000803e3d6000fd5b505050506040513d601f19601f820116820180604052508101906120c99190613651565b6120e55760405162461bcd60e51b815260040161024a90613bb6565b6120f96001600160a01b038516848461270e565b50505050565b60007f00000000000000000000000000000000000000000000000000000000000000006001600160a01b0316639a9dbb996040518163ffffffff1660e01b8152600401602060405180830381865afa15801561215f573d6000803e3d6000fd5b505050506040513d601f19601f820116820180604052508101906121839190613500565b90506001600160a01b038116639078c85a336040516001600160e01b031960e084901b1681526001600160a01b039091166004820152602401602060405180830381865afa1580156121d9573d6000803e3d6000fd5b505050506040513d601f19601f820116820180604052508101906121fd9190613651565b6122195760405162461bcd60e51b815260040161024a90613c36565b60005b828110156122c957856001600160a01b03166342842e0e30878787868181106122475761224761351d565b6040516001600160e01b031960e088901b1681526001600160a01b03958616600482015294909316602485015250602090910201356044820152606401600060405180830381600087803b15801561229e57600080fd5b505af11580156122b2573d6000803e3d6000fd5b5050505080806122c190613549565b91505061221c565b50836001600160a01b0316856001600160a01b03167f6c6b18e67b757c02ba92ef0f54038fc2135767acf9bef174b8780835ff455822858560405161230f929190613ba2565b60405180910390a35050505050565b60007f00000000000000000000000000000000000000000000000000000000000000006001600160a01b0316639a9dbb996040518163ffffffff1660e01b8152600401602060405180830381865afa15801561237e573d6000803e3d6000fd5b505050506040513d601f19601f820116820180604052508101906123a29190613500565b90506001600160a01b038116639078c85a336040516001600160e01b031960e084901b1681526001600160a01b039091166004820152602401602060405180830381865afa1580156123f8573d6000803e3d6000fd5b505050506040513d601f19601f8201168201806040525081019061241c9190613651565b6124385760405162461bcd60e51b815260040161024a90613c36565b604051631759616b60e11b81526001600160a01b038a1690632eb2c2d6906124729030908c908c908c908c908c908c908c90600401613dfd565b600060405180830381600087803b15801561248c57600080fd5b505af11580156124a0573d6000803e3d6000fd5b50505050876001600160a01b0316896001600160a01b03167fc8144f7a11a69e58de79275b3e7420b4942b4e8318a0e0aa9ccb457c60387b028989898989896040516124f196959493929190613e52565b60405180910390a3505050505050505050565b6000546001600160a01b0316331461255e5760405162461bcd60e51b815260206004820181905260248201527f4f776e61626c653a2063616c6c6572206973206e6f7420746865206f776e6572604482015260640161024a565b6001600160a01b0381166125c35760405162461bcd60e51b815260206004820152602660248201527f4f776e61626c653a206e6577206f776e657220697320746865207a65726f206160448201526564647265737360d01b606482015260840161024a565b6116af81612765565b604080517f8b73c3c69bb8fe3d512ecc4cf759cc79239f7b179b0ffacaa9a75d522b39400f60208201527ff0cf7ce475272740cae17eb3cadd6d254800be81c53f84a2f273b99036471c62918101919091527fc89efdaa54c0f20c7adf612882df0950f5a951637e0307cdcb4c672f298b8bc660608201524660808201523060a082015260009060c00160405160208183030381529060405280519060200120905090565b600054600160a01b900460ff166126c15760405162461bcd60e51b815260206004820152601460248201527314185d5cd8589b194e881b9bdd081c185d5cd95960621b604482015260640161024a565b6000805460ff60a01b191690557f5db9ee0a495bf2e6ff9c91a7834c1ba4fdd244a5e8aa4e537bd38aeae4b073aa335b6040516001600160a01b03909116815260200160405180910390a1565b604080516001600160a01b038416602482015260448082018490528251808303909101815260649091019091526020810180516001600160e01b031663a9059cbb60e01b1790526127609084906128c2565b505050565b600080546001600160a01b038381166001600160a01b0319831681178455604051919092169283917f8be0079c531659141344cd1fd0a4f28419497f9722a3daafe3b4186f6b6457e09190a35050565b600054600160a01b900460ff16156127df5760405162461bcd60e51b815260040161024a9061366e565b6000805460ff60a01b1916600160a01b1790557f62e78cea01bee320cd4e420270b5ea74000d11b0c9f74754ebdbfc544b05a2586126f13390565b6000821580612827575081155b15612834575060006107c0565b816128426002612710613e9b565b61284e90600019613ebd565b6128589190613e9b565b8311156040518060400160405280600381526020016203130360ec1b815250906128955760405162461bcd60e51b815260040161024a9190613ed4565b506127106128a4600282613e9b565b6128ae8486613ee7565b6128b89190613de5565b610e0b9190613e9b565b6000612917826040518060400160405280602081526020017f5361666545524332303a206c6f772d6c6576656c2063616c6c206661696c6564815250856001600160a01b03166129949092919063ffffffff16565b80519091501561276057808060200190518101906129359190613651565b6127605760405162461bcd60e51b815260206004820152602a60248201527f5361666545524332303a204552433230206f7065726174696f6e20646964206e6044820152691bdd081cdd58d8d9595960b21b606482015260840161024a565b6060611fc3848460008585843b6129ed5760405162461bcd60e51b815260206004820152601d60248201527f416464726573733a2063616c6c20746f206e6f6e2d636f6e7472616374000000604482015260640161024a565b600080866001600160a01b03168587604051612a099190613f06565b60006040518083038185875af1925050503d8060008114612a46576040519150601f19603f3d011682016040523d82523d6000602084013e612a4b565b606091505b5091509150612a5b828286612a66565b979650505050505050565b60608315612a75575081610e0b565b825115612a855782518084602001fd5b8160405162461bcd60e51b815260040161024a9190613ed4565b600060208284031215612ab157600080fd5b81356001600160e01b031981168114610e0b57600080fd5b6001600160a01b03811681146116af57600080fd5b8035612ae981612ac9565b919050565b60008083601f840112612b0057600080fd5b5081356001600160401b03811115612b1757600080fd5b6020830191508360208260051b8501011115612b3257600080fd5b9250929050565b60008083601f840112612b4b57600080fd5b5081356001600160401b03811115612b6257600080fd5b602083019150836020828501011115612b3257600080fd5b600080600080600060608688031215612b9257600080fd5b8535612b9d81612ac9565b945060208601356001600160401b0380821115612bb957600080fd5b612bc589838a01612aee565b90965094506040880135915080821115612bde57600080fd5b50612beb88828901612b39565b969995985093965092949392505050565b60008060408385031215612c0f57600080fd5b8235612c1a81612ac9565b946020939093013593505050565b634e487b7160e01b600052604160045260246000fd5b60405161028081016001600160401b0381118282101715612c6157612c61612c28565b60405290565b60405161022081016001600160401b0381118282101715612c6157612c61612c28565b604051601f8201601f191681016001600160401b0381118282101715612cb257612cb2612c28565b604052919050565b80151581146116af57600080fd5b8035612ae981612cba565b803560068110612ae957600080fd5b64ffffffffff811681146116af57600080fd5b8035612ae981612ce2565b6001600160801b03811681146116af57600080fd5b8035612ae981612d00565b600082601f830112612d3157600080fd5b81356001600160401b03811115612d4a57612d4a612c28565b612d5d601f8201601f1916602001612c8a565b818152846020838601011115612d7257600080fd5b816020850160208301376000918101602001919091529392505050565b803560ff81168114612ae957600080fd5b60006102808284031215612db357600080fd5b612dbb612c3e565b9050612dc682612cc8565b815260208201356020820152612dde60408301612cd3565b6040820152612def60608301612ade565b60608201526080820135608082015260a082013560a0820152612e1460c08301612ade565b60c082015260e082013560e0820152610100808301358183015250610120612e3d818401612cf5565b90820152610140612e4f838201612cf5565b90820152610160612e61838201612d15565b90820152610180612e73838201612ade565b908201526101a082810135908201526101c080830135908201526101e0612e9b818401612ade565b90820152610200828101356001600160401b03811115612eba57600080fd5b612ec685828601612d20565b828401525050610220612eda818401612d8f565b9082015261024082810135908201526102609182013591810191909152919050565b600080600060608486031215612f1157600080fd5b83356001600160401b03811115612f2757600080fd5b612f3386828701612da0565b9660208601359650604090950135949350505050565b60008060008060808587031215612f5f57600080fd5b8435612f6a81612ac9565b93506020850135612f7a81612ac9565b92506040850135915060608501356001600160401b03811115612f9c57600080fd5b612fa887828801612d20565b91505092959194509250565b600060208284031215612fc657600080fd5b5035919050565b600080600080600060a08688031215612fe557600080fd5b85356001600160401b0380821115612ffc57600080fd5b61300889838a01612da0565b9650602088013595506040880135945060608801359350608088013591508082111561303357600080fd5b5061304088828901612d20565b9150509295509295909350565b6000806020838503121561306057600080fd5b82356001600160401b0381111561307657600080fd5b61308285828601612aee565b90969095509350505050565b6000806000606084860312156130a357600080fd5b83356130ae81612ac9565b925060208401356130be81612ac9565b929592945050506040919091013590565b634e487b7160e01b600052602160045260246000fd5b600481106130f5576130f56130cf565b9052565b602081016107c082846130e5565b8151815260208083015161022083019161312b908401826001600160a01b03169052565b506040830151604083015260608301516060830152608083015161315a60808401826001600160a01b03169052565b5060a083015161317560a08401826001600160a01b03169052565b5060c083015161319060c08401826001600160a01b03169052565b5060e083015160e0830152610100808401516131b6828501826001600160801b03169052565b5050610120838101516001600160801b031690830152610140808401516001600160a01b0316908301526101608084015164ffffffffff90811691840191909152610180808501518216908401526101a0808501518216908401526101c080850151909116908301526101e0808401511515908301526102008084015161323f828501826130e5565b505092915050565b60006020828403121561325957600080fd5b8135610e0b81612ac9565b600082601f83011261327557600080fd5b813560206001600160401b0382111561329057613290612c28565b8160051b61329f828201612c8a565b92835284810182019282810190878511156132b957600080fd5b83870192505b84831015612a5b578235825291830191908301906132bf565b600080600080600060a086880312156132f057600080fd5b85356132fb81612ac9565b9450602086013561330b81612ac9565b935060408601356001600160401b038082111561332757600080fd5b61333389838a01613264565b9450606088013591508082111561334957600080fd5b61335589838a01613264565b9350608088013591508082111561303357600080fd5b6000806000806060858703121561338157600080fd5b843561338c81612ac9565b9350602085013561339c81612ac9565b925060408501356001600160401b038111156133b757600080fd5b6133c387828801612aee565b95989497509550505050565b60008060008060008060008060a0898b0312156133eb57600080fd5b88356133f681612ac9565b9750602089013561340681612ac9565b965060408901356001600160401b038082111561342257600080fd5b61342e8c838d01612aee565b909850965060608b013591508082111561344757600080fd5b6134538c838d01612aee565b909650945060808b013591508082111561346c57600080fd5b506134798b828c01612b39565b999c989b5096995094979396929594505050565b600080600080600060a086880312156134a557600080fd5b85356134b081612ac9565b945060208601356134c081612ac9565b9350604086013592506060860135915060808601356001600160401b038111156134e957600080fd5b61304088828901612d20565b8051612ae981612ac9565b60006020828403121561351257600080fd5b8151610e0b81612ac9565b634e487b7160e01b600052603260045260246000fd5b634e487b7160e01b600052601160045260246000fd5b600060001982141561355d5761355d613533565b5060010190565b81835281816020850137506000828201602090810191909152601f909101601f19169091010190565b60a0808252875190820181905260009060209060c0840190828b01845b828110156135cf5781516001600160a01b0316845292840192908401906001016135aa565b5050508381038285015288518082528983019183019060005b81811015613604578351835292840192918401916001016135e8565b50506001600160a01b03891660408601526001600160a01b03881660608601528481036080860152613637818789613564565b9b9a5050505050505050505050565b8051612ae981612cba565b60006020828403121561366357600080fd5b8151610e0b81612cba565b60208082526010908201526f14185d5cd8589b194e881c185d5cd95960821b604082015260600190565b6020808252601f908201527f5265656e7472616e637947756172643a207265656e7472616e742063616c6c00604082015260600190565b600681106130f5576130f56130cf565b60005b838110156136fa5781810151838201526020016136e2565b838111156120f95750506000910152565b600081518084526137238160208601602086016136df565b601f01601f19169290920160200192915050565b805115158252600061028060208301516020850152604083015161375e60408601826136cf565b50606083015161377960608601826001600160a01b03169052565b506080830151608085015260a083015160a085015260c08301516137a860c08601826001600160a01b03169052565b5060e0838101519085015261010080840151908501526101208084015164ffffffffff908116918601919091526101408085015190911690850152610160808401516001600160801b031690850152610180808401516001600160a01b03908116918601919091526101a080850151908601526101c080850151908601526101e080850151909116908501526102008084015181860183905261384d8387018261370b565b92505050610220808401516138668287018260ff169052565b505061024083810151908501526102609283015192909301919091525090565b602081526000610e0b6020830184613737565b6000602082840312156138ab57600080fd5b5051919050565b8051825260208101516020830152604081015160018060a01b03808216604085015280606084015116606085015250506080810151608083015260a081015160a08301525050565b600061018089835288602084015287604084015286606084015280608084015261392681840187613737565b91505061393660a08301856138b2565b6001600160a01b039290921661016091909101529695505050505050565b8154815260018201546001600160a01b0390811660208301526002830154604083015260038301546060830152600483015481166080808401919091526005840154821660a0808501919091526006850154831660c0850152600785015460e085015260088501546001600160801b03811661010086015290911c610120840152600984015491821661014084015264ffffffffff9082901c811661016084015260c89190911c8116610180830152600a8301548082166101a0840152602881901c82166101c084015261022083019150613a3a6101e0840160ff8360501c1615159052565b613a4e610200840160ff8360581c166130e5565b5092915050565b86815285602082015284604082015283606082015260c060808201526000613a8060c0830185613737565b82810360a0840152835181526020840151602082015260408401516040820152606084015160018060a01b038082166060840152806080870151166080840152505060a084015160a082015260c084015160e060c0830152613ae560e083018261370b565b9a9950505050505050505050565b60208082526018908201527f424d5f434845434b5f4c4f414e5f4e4f545f4558495354530000000000000000604082015260600190565b60208082526022908201527f424d5f43414e43454c5f4e4f4e43455f4c4f5745525f5448414e5f4355525245604082015261139560f21b606082015260800190565b81835260006001600160fb1b03831115613b8557600080fd5b8260051b8083602087013760009401602001938452509192915050565b602081526000611fc3602083018486613b6c565b60208082526024908201527f424d5f41434c5f4f4e4c595f454d455247454e43595f41444d494e5f43414e5f60408201526310d0531360e21b606082015260800190565b6000610160888352876020840152866040840152856060840152806080840152613c2681840186613737565b915050612a5b60a08301846138b2565b60208082526025908201527f424d5f41434c5f4f4e4c595f41495244524f505f4f50455241544f525f43414e60408201526417d0d0531360da1b606082015260800190565b805160048110612ae957600080fd5b600060208284031215613c9c57600080fd5b610e0b82613c7b565b8051612ae981612d00565b8051612ae981612ce2565b60006102208284031215613cce57600080fd5b613cd6612c67565b82518152613ce6602084016134f5565b60208201526040830151604082015260608301516060820152613d0b608084016134f5565b6080820152613d1c60a084016134f5565b60a0820152613d2d60c084016134f5565b60c082015260e083015160e0820152610100613d4a818501613ca5565b90820152610120613d5c848201613ca5565b90820152610140613d6e8482016134f5565b90820152610160613d80848201613cb0565b90820152610180613d92848201613cb0565b908201526101a0613da4848201613cb0565b908201526101c0613db6848201613cb0565b908201526101e0613dc8848201613646565b90820152610200613dda848201613c7b565b908201529392505050565b60008219821115613df857613df8613533565b500190565b6001600160a01b0389811682528816602082015260a060408201819052600090613e2a908301888a613b6c565b8281036060840152613e3d818789613b6c565b90508281036080840152613637818587613564565b606081526000613e6660608301888a613b6c565b8281036020840152613e79818789613b6c565b90508281036040840152613e8e818587613564565b9998505050505050505050565b600082613eb857634e487b7160e01b600052601260045260246000fd5b500490565b600082821015613ecf57613ecf613533565b500390565b602081526000610e0b602083018461370b565b6000816000190483118215151615613f0157613f01613533565b500290565b60008251613f188184602087016136df565b919091019291505056fea264697066735822122094556157614b20d5bc32285c8b74450407314db1cc79dae02ece3f8747053f6864736f6c634300080a0033",
  "deployedBytecode": "0x6080604052600436106102085760003560e01c8063622fe39f11610118578063aa99fa98116100a0578063bc6bc0cd1161006f578063bc6bc0cd146106e8578063cae5955314610703578063e3185e1214610723578063f23a6e6114610743578063f2fde38b1461076f57610253565b8063aa99fa9814610627578063ad5c464814610654578063ade97ab514610688578063bc197c81146106bc57610253565b806384e5cec5116100e757806384e5cec5146105895780638bf1badd146105a95780638da5cb5b146105c957806396e59682146105e7578063a3d5b2551461060757610253565b8063622fe39f146105125780636b52b3651461053f578063715018a61461055f5780638456cb591461057457610253565b806329c55f061161019b5780633f4ba83a1161016a5780633f4ba83a146104715780634d5d2eff146104865780634f070916146104a65780635c622a0e146104c65780635c975abb146104f357610253565b806329c55f06146103ca5780632f844ea81461041657806333bf615614610436578063371fd8e61461045157610253565b8063150b7a02116101d7578063150b7a02146103335780631c187495146103775780631cfb41b8146103975780632247463e146103b757610253565b806301ffc9a71461029b57806303282d6e146102d05780630647ee20146102f25780630d540f0d1461031257610253565b366102535760405162461bcd60e51b8152602060048201526016602482015275109357d49150d152559157d393d517d0531313d5d15160521b60448201526064015b60405180910390fd5b60405162461bcd60e51b815260206004820152601760248201527f424d5f46414c4c4241434b5f4e4f545f414c4c4f574544000000000000000000604482015260640161024a565b3480156102a757600080fd5b506102bb6102b6366004612a9f565b61078f565b60405190151581526020015b60405180910390f35b3480156102dc57600080fd5b506102f06102eb366004612b7a565b6107c6565b005b3480156102fe57600080fd5b506102bb61030d366004612bfc565b610dbf565b610325610320366004612efc565b610e12565b6040519081526020016102c7565b34801561033f57600080fd5b5061035e61034e366004612f49565b630a85bd0160e11b949350505050565b6040516001600160e01b031990911681526020016102c7565b34801561038357600080fd5b50610325610392366004612fb4565b611018565b3480156103a357600080fd5b506103256103b2366004612fcd565b61109d565b6102f06103c5366004612fb4565b611212565b3480156103d657600080fd5b506103fe7f000000000000000000000000000000000000000000000000000000000000000081565b6040516001600160a01b0390911681526020016102c7565b34801561042257600080fd5b506102f061043136600461304d565b611358565b34801561044257600080fd5b5061035e636cdb3d1360e11b81565b34801561045d57600080fd5b506102f061046c366004612fb4565b6114a2565b34801561047d57600080fd5b506102f061158d565b34801561049257600080fd5b506103256104a1366004612efc565b6116b2565b3480156104b257600080fd5b506102f06104c136600461308e565b611849565b3480156104d257600080fd5b506104e66104e1366004612fb4565b6119ca565b6040516102c791906130f9565b3480156104ff57600080fd5b50600054600160a01b900460ff166102bb565b34801561051e57600080fd5b5061053261052d366004612fb4565b611a4f565b6040516102c79190613107565b34801561054b57600080fd5b5061032561055a366004612fb4565b611b63565b34801561056b57600080fd5b506102f0611ba7565b34801561058057600080fd5b506102f0611c0d565b34801561059557600080fd5b506102f06105a4366004612fb4565b611d2f565b3480156105b557600080fd5b506102f06105c4366004612fb4565b611e17565b3480156105d557600080fd5b506000546001600160a01b03166103fe565b3480156105f357600080fd5b50610325610602366004612fb4565b611f04565b34801561061357600080fd5b506102f061062236600461308e565b611fcb565b34801561063357600080fd5b50610325610642366004613247565b60026020526000908152604090205481565b34801561066057600080fd5b506103fe7f000000000000000000000000000000000000000000000000000000000000000081565b34801561069457600080fd5b506103fe7f000000000000000000000000000000000000000000000000000000000000000081565b3480156106c857600080fd5b5061035e6106d73660046132d8565b63bc197c8160e01b95945050505050565b3480156106f457600080fd5b5061035e6380ac58cd60e01b81565b34801561070f57600080fd5b506102f061071e36600461336b565b6120ff565b34801561072f57600080fd5b506102f061073e3660046133cf565b61231e565b34801561074f57600080fd5b5061035e61075e36600461348d565b63f23a6e6160e01b95945050505050565b34801561077b57600080fd5b506102f061078a366004613247565b612504565b60006001600160e01b03198216630271189760e51b14806107c057506301ffc9a760e01b6001600160e01b03198316145b92915050565b60008581856001600160401b038111156107e2576107e2612c28565b60405190808252806020026020018201604052801561080b578160200160208202803683370190505b5090506000866001600160401b0381111561082857610828612c28565b604051908082528060200260200182016040528015610851578160200160208202803683370190505b509050600093505b86841015610acb57336001600160a01b03167f00000000000000000000000000000000000000000000000000000000000000006001600160a01b031663bb322a836040518163ffffffff1660e01b8152600401602060405180830381865afa1580156108c9573d6000803e3d6000fd5b505050506040513d601f19601f820116820180604052508101906108ed9190613500565b6001600160a01b0316636352211e8a8a8881811061090d5761090d61351d565b905060200201356040518263ffffffff1660e01b815260040161093291815260200190565b602060405180830381865afa15801561094f573d6000803e3d6000fd5b505050506040513d601f19601f820116820180604052508101906109739190613500565b6001600160a01b0316146109d35760405162461bcd60e51b815260206004820152602160248201527f424d5f464c415348434c41494d5f43414c4c45525f49535f4e4f545f4f574e456044820152602960f91b606482015260840161024a565b60006109f68989878181106109ea576109ea61351d565b90506020020135611a4f565b905060038161020001516003811115610a1157610a116130cf565b1415610a5f5760405162461bcd60e51b815260206004820152601a60248201527f424d5f464c415348434c41494d5f5354415455535f4552524f52000000000000604482015260640161024a565b8060200151838681518110610a7657610a7661351d565b60200260200101906001600160a01b031690816001600160a01b0316815250508060400151828681518110610aad57610aad61351d565b60209081029190910101525083610ac381613549565b945050610859565b600093505b86841015610b9957818481518110610aea57610aea61351d565b60200260200101516001600160a01b03166342842e0e308b848881518110610b1457610b1461351d565b60209081029190910101516040516001600160e01b031960e086901b1681526001600160a01b0393841660048201529290911660248301526044820152606401600060405180830381600087803b158015610b6e57600080fd5b505af1158015610b82573d6000803e3d6000fd5b505050508380610b9190613549565b945050610ad0565b604051628e896f60e41b81526001600160a01b038416906308e896f090610bce9085908590339030908d908d9060040161358d565b6020604051808303816000875af1158015610bed573d6000803e3d6000fd5b505050506040513d601f19601f82011682018060405250810190610c119190613651565b610c5d5760405162461bcd60e51b815260206004820152601c60248201527f424d5f464c415348434c41494d5f4558454355544f525f4552524f5200000000604482015260640161024a565b600093505b86841015610db457818481518110610c7c57610c7c61351d565b60200260200101516001600160a01b03166342842e0e8a30848881518110610ca657610ca661351d565b60209081029190910101516040516001600160e01b031960e086901b1681526001600160a01b0393841660048201529290911660248301526044820152606401600060405180830381600087803b158015610d0057600080fd5b505af1158015610d14573d6000803e3d6000fd5b50505050808481518110610d2a57610d2a61351d565b6020026020010151828581518110610d4457610d4461351d565b60200260200101516001600160a01b03168a6001600160a01b03167f6bac1c66016500cd7b62d69e86268760baac6cd34a70003af66ffa8a97983216610d873390565b6040516001600160a01b03909116815260200160405180910390a483610dac81613549565b945050610c62565b505050505050505050565b6001600160a01b038216600090815260036020908152604080832084845290915281205460ff16158015610e0b57506001600160a01b0383166000908152600260205260409020548210155b9392505050565b60008054600160a01b900460ff1615610e3d5760405162461bcd60e51b815260040161024a9061366e565b60026001541415610e605760405162461bcd60e51b815260040161024a90613698565b600260018190555073__$d034307112fbb42c17024cd888eeadb556$__63d90ab2606003600260056004896040518060c001604052808b81526020018a81526020017f00000000000000000000000000000000000000000000000000000000000000006001600160a01b031681526020017f00000000000000000000000000000000000000000000000000000000000000006001600160a01b03168152602001610f086125cc565b815260200173__$99340bd5a7874738aefb18e7cdd0ba78ce$__6304432eed8e6040518263ffffffff1660e01b8152600401610f449190613886565b602060405180830381865af4158015610f61573d6000803e3d6000fd5b505050506040513d601f19601f82011682018060405250810190610f859190613899565b8152507f00000000000000000000000000000000000000000000000000000000000000006040518863ffffffff1660e01b8152600401610fcb97969594939291906138fa565b602060405180830381865af4158015610fe8573d6000803e3d6000fd5b505050506040513d601f19601f8201168201806040525081019061100c9190613899565b60018055949350505050565b600081815260056020526040808220905163b504989b60e01b815273__$99340bd5a7874738aefb18e7cdd0ba78ce$__9163b504989b9161105c9190600401613954565b602060405180830381865af4158015611079573d6000803e3d6000fd5b505050506040513d601f19601f820116820180604052508101906107c09190613899565b60008054600160a01b900460ff16156110c85760405162461bcd60e51b815260040161024a9061366e565b600260015414156110eb5760405162461bcd60e51b815260040161024a90613698565b600260018190555073__$f2bbf53d856d978c1f5e4330933069481a$__63ff2300f460036002600560048b6040518060e001604052808d81526020018c81526020018b81526020017f00000000000000000000000000000000000000000000000000000000000000006001600160a01b031681526020017f00000000000000000000000000000000000000000000000000000000000000006001600160a01b031681526020016111996125cc565b81526020018a8152506040518763ffffffff1660e01b81526004016111c396959493929190613a55565b602060405180830381865af41580156111e0573d6000803e3d6000fd5b505050506040513d601f19601f820116820180604052508101906112049190613899565b600180559695505050505050565b600260015414156112355760405162461bcd60e51b815260040161024a90613698565b600260015560008181526005602052604090205481906112675760405162461bcd60e51b815260040161024a90613af3565b60405162c1340760e51b815260056004820152602481018390526001600160a01b037f0000000000000000000000000000000000000000000000000000000000000000811660448301527f0000000000000000000000000000000000000000000000000000000000000000811660648301527f000000000000000000000000000000000000000000000000000000000000000016608482015273__$cb2d98c3e8fdb912f01fe366012ef33d45$__9063182680e09060a4015b60006040518083038186803b15801561133857600080fd5b505af415801561134c573d6000803e3d6000fd5b50506001805550505050565b806113a55760405162461bcd60e51b815260206004820152601960248201527f424d5f43414e43454c5f43414e4e4f545f42455f454d50545900000000000000604482015260640161024a565b60005b8181101561145a57336000908152600260205260409020548383838181106113d2576113d261351d565b9050602002013510156113f75760405162461bcd60e51b815260040161024a90613b2a565b33600090815260036020526040812060019185858581811061141b5761141b61351d565b90506020020135815260200190815260200160002060006101000a81548160ff021916908315150217905550808061145290613549565b9150506113a8565b50336001600160a01b03167fac0004ba1a2ea62c1d6de00ade33246fa25432a7148f9e20cce8d9fea7493aa18383604051611496929190613ba2565b60405180910390a25050565b600260015414156114c55760405162461bcd60e51b815260040161024a90613698565b600260015560008181526005602052604090205481906114f75760405162461bcd60e51b815260040161024a90613af3565b6040516306d8c6df60e01b815260056004820152602481018390526001600160a01b037f0000000000000000000000000000000000000000000000000000000000000000811660448301527f000000000000000000000000000000000000000000000000000000000000000016606482015273__$cb2d98c3e8fdb912f01fe366012ef33d45$__906306d8c6df90608401611320565b60007f00000000000000000000000000000000000000000000000000000000000000006001600160a01b0316639a9dbb996040518163ffffffff1660e01b8152600401602060405180830381865afa1580156115ed573d6000803e3d6000fd5b505050506040513d601f19601f820116820180604052508101906116119190613500565b90506001600160a01b038116632500f2b6336040516001600160e01b031960e084901b1681526001600160a01b039091166004820152602401602060405180830381865afa158015611667573d6000803e3d6000fd5b505050506040513d601f19601f8201168201806040525081019061168b9190613651565b6116a75760405162461bcd60e51b815260040161024a90613bb6565b6116af612671565b50565b60008054600160a01b900460ff16156116dd5760405162461bcd60e51b815260040161024a9061366e565b600260015414156117005760405162461bcd60e51b815260040161024a90613698565b600260018190555073__$d034307112fbb42c17024cd888eeadb556$__63c5cbf0dc6003600260056004896040518060c001604052808b81526020018a81526020017f00000000000000000000000000000000000000000000000000000000000000006001600160a01b031681526020017f00000000000000000000000000000000000000000000000000000000000000006001600160a01b031681526020016117a86125cc565b815260200173__$99340bd5a7874738aefb18e7cdd0ba78ce$__6304432eed8e6040518263ffffffff1660e01b81526004016117e49190613886565b602060405180830381865af4158015611801573d6000803e3d6000fd5b505050506040513d601f19601f820116820180604052508101906118259190613899565b8152506040518763ffffffff1660e01b8152600401610fcb96959493929190613bfa565b60007f00000000000000000000000000000000000000000000000000000000000000006001600160a01b0316639a9dbb996040518163ffffffff1660e01b8152600401602060405180830381865afa1580156118a9573d6000803e3d6000fd5b505050506040513d601f19601f820116820180604052508101906118cd9190613500565b90506001600160a01b038116639078c85a336040516001600160e01b031960e084901b1681526001600160a01b039091166004820152602401602060405180830381865afa158015611923573d6000803e3d6000fd5b505050506040513d601f19601f820116820180604052508101906119479190613651565b6119635760405162461bcd60e51b815260040161024a90613c36565b6119776001600160a01b038516848461270e565b826001600160a01b0316846001600160a01b03167f81275949a17d84915b61eeb24587a501cc8863011afba1ed12f3f6c5bdfd6a21846040516119bc91815260200190565b60405180910390a350505050565b6000818152600560205260408082209051631057df9160e21b815273__$99340bd5a7874738aefb18e7cdd0ba78ce$__9163415f7e4491611a0e9190600401613954565b602060405180830381865af4158015611a2b573d6000803e3d6000fd5b505050506040513d601f19601f820116820180604052508101906107c09190613c8a565b611adc6040805161022081018252600080825260208201819052918101829052606081018290526080810182905260a0810182905260c0810182905260e08101829052610100810182905261012081018290526101408101829052610160810182905261018081018290526101a081018290526101c081018290526101e081018290529061020082015290565b6000828152600560205260409081902090516319e28c3360e21b815273__$99340bd5a7874738aefb18e7cdd0ba78ce$__9163678a30cc91611b219190600401613954565b61022060405180830381865af4158015611b3f573d6000803e3d6000fd5b505050506040513d601f19601f820116820180604052508101906107c09190613cbb565b600081815260056020526040808220905163ab51865d60e01b815273__$99340bd5a7874738aefb18e7cdd0ba78ce$__9163ab51865d9161105c9190600401613954565b6000546001600160a01b03163314611c015760405162461bcd60e51b815260206004820181905260248201527f4f776e61626c653a2063616c6c6572206973206e6f7420746865206f776e6572604482015260640161024a565b611c0b6000612765565b565b60007f00000000000000000000000000000000000000000000000000000000000000006001600160a01b0316639a9dbb996040518163ffffffff1660e01b8152600401602060405180830381865afa158015611c6d573d6000803e3d6000fd5b505050506040513d601f19601f82011682018060405250810190611c919190613500565b90506001600160a01b038116632500f2b6336040516001600160e01b031960e084901b1681526001600160a01b039091166004820152602401602060405180830381865afa158015611ce7573d6000803e3d6000fd5b505050506040513d601f19601f82011682018060405250810190611d0b9190613651565b611d275760405162461bcd60e51b815260040161024a90613bb6565b6116af6127b5565b336000908152600260205260409020548111611d5d5760405162461bcd60e51b815260040161024a90613b2a565b33600090815260026020526040902054611d7a906207a120613de5565b8110611dc85760405162461bcd60e51b815260206004820152601c60248201527f424d5f43414e43454c5f43414e4e4f545f43414e43454c5f4d4f524500000000604482015260640161024a565b3360008181526002602052604090819020839055517f3472ca53ce86826d0cf2457fc20b0aadb9ff559e29da4c38e37e98fb8edd966d90611e0c9084815260200190565b60405180910390a250565b600054600160a01b900460ff1615611e415760405162461bcd60e51b815260040161024a9061366e565b60026001541415611e645760405162461bcd60e51b815260040161024a90613698565b60026001556000818152600560205260409020548190611e965760405162461bcd60e51b815260040161024a90613af3565b604051635430170f60e11b815260056004820152602481018390526001600160a01b037f000000000000000000000000000000000000000000000000000000000000000016604482015273__$6adc9fc567591ef512536f539e32424d55$__9063a8602e1e90606401611320565b600080611f1083611a4f565b9050600060028261020001516003811115611f2d57611f2d6130cf565b1415610e0b57611fc37f00000000000000000000000000000000000000000000000000000000000000006001600160a01b031663d7a5a9d36040518163ffffffff1660e01b8152600401602060405180830381865afa158015611f94573d6000803e3d6000fd5b505050506040513d601f19601f82011682018060405250810190611fb89190613899565b60e08401519061281a565b949350505050565b60007f00000000000000000000000000000000000000000000000000000000000000006001600160a01b0316639a9dbb996040518163ffffffff1660e01b8152600401602060405180830381865afa15801561202b573d6000803e3d6000fd5b505050506040513d601f19601f8201168201806040525081019061204f9190613500565b90506001600160a01b038116632500f2b6336040516001600160e01b031960e084901b1681526001600160a01b039091166004820152602401602060405180830381865afa1580156120a5573d6000803e3d6000fd5b505050506040513d601f19601f820116820180604052508101906120c99190613651565b6120e55760405162461bcd60e51b815260040161024a90613bb6565b6120f96001600160a01b038516848461270e565b50505050565b60007f00000000000000000000000000000000000000000000000000000000000000006001600160a01b0316639a9dbb996040518163ffffffff1660e01b8152600401602060405180830381865afa15801561215f573d6000803e3d6000fd5b505050506040513d601f19601f820116820180604052508101906121839190613500565b90506001600160a01b038116639078c85a336040516001600160e01b031960e084901b1681526001600160a01b039091166004820152602401602060405180830381865afa1580156121d9573d6000803e3d6000fd5b505050506040513d601f19601f820116820180604052508101906121fd9190613651565b6122195760405162461bcd60e51b815260040161024a90613c36565b60005b828110156122c957856001600160a01b03166342842e0e30878787868181106122475761224761351d565b6040516001600160e01b031960e088901b1681526001600160a01b03958616600482015294909316602485015250602090910201356044820152606401600060405180830381600087803b15801561229e57600080fd5b505af11580156122b2573d6000803e3d6000fd5b5050505080806122c190613549565b91505061221c565b50836001600160a01b0316856001600160a01b03167f6c6b18e67b757c02ba92ef0f54038fc2135767acf9bef174b8780835ff455822858560405161230f929190613ba2565b60405180910390a35050505050565b60007f00000000000000000000000000000000000000000000000000000000000000006001600160a01b0316639a9dbb996040518163ffffffff1660e01b8152600401602060405180830381865afa15801561237e573d6000803e3d6000fd5b505050506040513d601f19601f820116820180604052508101906123a29190613500565b90506001600160a01b038116639078c85a336040516001600160e01b031960e084901b1681526001600160a01b039091166004820152602401602060405180830381865afa1580156123f8573d6000803e3d6000fd5b505050506040513d601f19601f8201168201806040525081019061241c9190613651565b6124385760405162461bcd60e51b815260040161024a90613c36565b604051631759616b60e11b81526001600160a01b038a1690632eb2c2d6906124729030908c908c908c908c908c908c908c90600401613dfd565b600060405180830381600087803b15801561248c57600080fd5b505af11580156124a0573d6000803e3d6000fd5b50505050876001600160a01b0316896001600160a01b03167fc8144f7a11a69e58de79275b3e7420b4942b4e8318a0e0aa9ccb457c60387b028989898989896040516124f196959493929190613e52565b60405180910390a3505050505050505050565b6000546001600160a01b0316331461255e5760405162461bcd60e51b815260206004820181905260248201527f4f776e61626c653a2063616c6c6572206973206e6f7420746865206f776e6572604482015260640161024a565b6001600160a01b0381166125c35760405162461bcd60e51b815260206004820152602660248201527f4f776e61626c653a206e6577206f776e657220697320746865207a65726f206160448201526564647265737360d01b606482015260840161024a565b6116af81612765565b604080517f8b73c3c69bb8fe3d512ecc4cf759cc79239f7b179b0ffacaa9a75d522b39400f60208201527ff0cf7ce475272740cae17eb3cadd6d254800be81c53f84a2f273b99036471c62918101919091527fc89efdaa54c0f20c7adf612882df0950f5a951637e0307cdcb4c672f298b8bc660608201524660808201523060a082015260009060c00160405160208183030381529060405280519060200120905090565b600054600160a01b900460ff166126c15760405162461bcd60e51b815260206004820152601460248201527314185d5cd8589b194e881b9bdd081c185d5cd95960621b604482015260640161024a565b6000805460ff60a01b191690557f5db9ee0a495bf2e6ff9c91a7834c1ba4fdd244a5e8aa4e537bd38aeae4b073aa335b6040516001600160a01b03909116815260200160405180910390a1565b604080516001600160a01b038416602482015260448082018490528251808303909101815260649091019091526020810180516001600160e01b031663a9059cbb60e01b1790526127609084906128c2565b505050565b600080546001600160a01b038381166001600160a01b0319831681178455604051919092169283917f8be0079c531659141344cd1fd0a4f28419497f9722a3daafe3b4186f6b6457e09190a35050565b600054600160a01b900460ff16156127df5760405162461bcd60e51b815260040161024a9061366e565b6000805460ff60a01b1916600160a01b1790557f62e78cea01bee320cd4e420270b5ea74000d11b0c9f74754ebdbfc544b05a2586126f13390565b6000821580612827575081155b15612834575060006107c0565b816128426002612710613e9b565b61284e90600019613ebd565b6128589190613e9b565b8311156040518060400160405280600381526020016203130360ec1b815250906128955760405162461bcd60e51b815260040161024a9190613ed4565b506127106128a4600282613e9b565b6128ae8486613ee7565b6128b89190613de5565b610e0b9190613e9b565b6000612917826040518060400160405280602081526020017f5361666545524332303a206c6f772d6c6576656c2063616c6c206661696c6564815250856001600160a01b03166129949092919063ffffffff16565b80519091501561276057808060200190518101906129359190613651565b6127605760405162461bcd60e51b815260206004820152602a60248201527f5361666545524332303a204552433230206f7065726174696f6e20646964206e6044820152691bdd081cdd58d8d9595960b21b606482015260840161024a565b6060611fc3848460008585843b6129ed5760405162461bcd60e51b815260206004820152601d60248201527f416464726573733a2063616c6c20746f206e6f6e2d636f6e7472616374000000604482015260640161024a565b600080866001600160a01b03168587604051612a099190613f06565b60006040518083038185875af1925050503d8060008114612a46576040519150601f19603f3d011682016040523d82523d6000602084013e612a4b565b606091505b5091509150612a5b828286612a66565b979650505050505050565b60608315612a75575081610e0b565b825115612a855782518084602001fd5b8160405162461bcd60e51b815260040161024a9190613ed4565b600060208284031215612ab157600080fd5b81356001600160e01b031981168114610e0b57600080fd5b6001600160a01b03811681146116af57600080fd5b8035612ae981612ac9565b919050565b60008083601f840112612b0057600080fd5b5081356001600160401b03811115612b1757600080fd5b6020830191508360208260051b8501011115612b3257600080fd5b9250929050565b60008083601f840112612b4b57600080fd5b5081356001600160401b03811115612b6257600080fd5b602083019150836020828501011115612b3257600080fd5b600080600080600060608688031215612b9257600080fd5b8535612b9d81612ac9565b945060208601356001600160401b0380821115612bb957600080fd5b612bc589838a01612aee565b90965094506040880135915080821115612bde57600080fd5b50612beb88828901612b39565b969995985093965092949392505050565b60008060408385031215612c0f57600080fd5b8235612c1a81612ac9565b946020939093013593505050565b634e487b7160e01b600052604160045260246000fd5b60405161028081016001600160401b0381118282101715612c6157612c61612c28565b60405290565b60405161022081016001600160401b0381118282101715612c6157612c61612c28565b604051601f8201601f191681016001600160401b0381118282101715612cb257612cb2612c28565b604052919050565b80151581146116af57600080fd5b8035612ae981612cba565b803560068110612ae957600080fd5b64ffffffffff811681146116af57600080fd5b8035612ae981612ce2565b6001600160801b03811681146116af57600080fd5b8035612ae981612d00565b600082601f830112612d3157600080fd5b81356001600160401b03811115612d4a57612d4a612c28565b612d5d601f8201601f1916602001612c8a565b818152846020838601011115612d7257600080fd5b816020850160208301376000918101602001919091529392505050565b803560ff81168114612ae957600080fd5b60006102808284031215612db357600080fd5b612dbb612c3e565b9050612dc682612cc8565b815260208201356020820152612dde60408301612cd3565b6040820152612def60608301612ade565b60608201526080820135608082015260a082013560a0820152612e1460c08301612ade565b60c082015260e082013560e0820152610100808301358183015250610120612e3d818401612cf5565b90820152610140612e4f838201612cf5565b90820152610160612e61838201612d15565b90820152610180612e73838201612ade565b908201526101a082810135908201526101c080830135908201526101e0612e9b818401612ade565b90820152610200828101356001600160401b03811115612eba57600080fd5b612ec685828601612d20565b828401525050610220612eda818401612d8f565b9082015261024082810135908201526102609182013591810191909152919050565b600080600060608486031215612f1157600080fd5b83356001600160401b03811115612f2757600080fd5b612f3386828701612da0565b9660208601359650604090950135949350505050565b60008060008060808587031215612f5f57600080fd5b8435612f6a81612ac9565b93506020850135612f7a81612ac9565b92506040850135915060608501356001600160401b03811115612f9c57600080fd5b612fa887828801612d20565b91505092959194509250565b600060208284031215612fc657600080fd5b5035919050565b600080600080600060a08688031215612fe557600080fd5b85356001600160401b0380821115612ffc57600080fd5b61300889838a01612da0565b9650602088013595506040880135945060608801359350608088013591508082111561303357600080fd5b5061304088828901612d20565b9150509295509295909350565b6000806020838503121561306057600080fd5b82356001600160401b0381111561307657600080fd5b61308285828601612aee565b90969095509350505050565b6000806000606084860312156130a357600080fd5b83356130ae81612ac9565b925060208401356130be81612ac9565b929592945050506040919091013590565b634e487b7160e01b600052602160045260246000fd5b600481106130f5576130f56130cf565b9052565b602081016107c082846130e5565b8151815260208083015161022083019161312b908401826001600160a01b03169052565b506040830151604083015260608301516060830152608083015161315a60808401826001600160a01b03169052565b5060a083015161317560a08401826001600160a01b03169052565b5060c083015161319060c08401826001600160a01b03169052565b5060e083015160e0830152610100808401516131b6828501826001600160801b03169052565b5050610120838101516001600160801b031690830152610140808401516001600160a01b0316908301526101608084015164ffffffffff90811691840191909152610180808501518216908401526101a0808501518216908401526101c080850151909116908301526101e0808401511515908301526102008084015161323f828501826130e5565b505092915050565b60006020828403121561325957600080fd5b8135610e0b81612ac9565b600082601f83011261327557600080fd5b813560206001600160401b0382111561329057613290612c28565b8160051b61329f828201612c8a565b92835284810182019282810190878511156132b957600080fd5b83870192505b84831015612a5b578235825291830191908301906132bf565b600080600080600060a086880312156132f057600080fd5b85356132fb81612ac9565b9450602086013561330b81612ac9565b935060408601356001600160401b038082111561332757600080fd5b61333389838a01613264565b9450606088013591508082111561334957600080fd5b61335589838a01613264565b9350608088013591508082111561303357600080fd5b6000806000806060858703121561338157600080fd5b843561338c81612ac9565b9350602085013561339c81612ac9565b925060408501356001600160401b038111156133b757600080fd5b6133c387828801612aee565b95989497509550505050565b60008060008060008060008060a0898b0312156133eb57600080fd5b88356133f681612ac9565b9750602089013561340681612ac9565b965060408901356001600160401b038082111561342257600080fd5b61342e8c838d01612aee565b909850965060608b013591508082111561344757600080fd5b6134538c838d01612aee565b909650945060808b013591508082111561346c57600080fd5b506134798b828c01612b39565b999c989b5096995094979396929594505050565b600080600080600060a086880312156134a557600080fd5b85356134b081612ac9565b945060208601356134c081612ac9565b9350604086013592506060860135915060808601356001600160401b038111156134e957600080fd5b61304088828901612d20565b8051612ae981612ac9565b60006020828403121561351257600080fd5b8151610e0b81612ac9565b634e487b7160e01b600052603260045260246000fd5b634e487b7160e01b600052601160045260246000fd5b600060001982141561355d5761355d613533565b5060010190565b81835281816020850137506000828201602090810191909152601f909101601f19169091010190565b60a0808252875190820181905260009060209060c0840190828b01845b828110156135cf5781516001600160a01b0316845292840192908401906001016135aa565b5050508381038285015288518082528983019183019060005b81811015613604578351835292840192918401916001016135e8565b50506001600160a01b03891660408601526001600160a01b03881660608601528481036080860152613637818789613564565b9b9a5050505050505050505050565b8051612ae981612cba565b60006020828403121561366357600080fd5b8151610e0b81612cba565b60208082526010908201526f14185d5cd8589b194e881c185d5cd95960821b604082015260600190565b6020808252601f908201527f5265656e7472616e637947756172643a207265656e7472616e742063616c6c00604082015260600190565b600681106130f5576130f56130cf565b60005b838110156136fa5781810151838201526020016136e2565b838111156120f95750506000910152565b600081518084526137238160208601602086016136df565b601f01601f19169290920160200192915050565b805115158252600061028060208301516020850152604083015161375e60408601826136cf565b50606083015161377960608601826001600160a01b03169052565b506080830151608085015260a083015160a085015260c08301516137a860c08601826001600160a01b03169052565b5060e0838101519085015261010080840151908501526101208084015164ffffffffff908116918601919091526101408085015190911690850152610160808401516001600160801b031690850152610180808401516001600160a01b03908116918601919091526101a080850151908601526101c080850151908601526101e080850151909116908501526102008084015181860183905261384d8387018261370b565b92505050610220808401516138668287018260ff169052565b505061024083810151908501526102609283015192909301919091525090565b602081526000610e0b6020830184613737565b6000602082840312156138ab57600080fd5b5051919050565b8051825260208101516020830152604081015160018060a01b03808216604085015280606084015116606085015250506080810151608083015260a081015160a08301525050565b600061018089835288602084015287604084015286606084015280608084015261392681840187613737565b91505061393660a08301856138b2565b6001600160a01b039290921661016091909101529695505050505050565b8154815260018201546001600160a01b0390811660208301526002830154604083015260038301546060830152600483015481166080808401919091526005840154821660a0808501919091526006850154831660c0850152600785015460e085015260088501546001600160801b03811661010086015290911c610120840152600984015491821661014084015264ffffffffff9082901c811661016084015260c89190911c8116610180830152600a8301548082166101a0840152602881901c82166101c084015261022083019150613a3a6101e0840160ff8360501c1615159052565b613a4e610200840160ff8360581c166130e5565b5092915050565b86815285602082015284604082015283606082015260c060808201526000613a8060c0830185613737565b82810360a0840152835181526020840151602082015260408401516040820152606084015160018060a01b038082166060840152806080870151166080840152505060a084015160a082015260c084015160e060c0830152613ae560e083018261370b565b9a9950505050505050505050565b60208082526018908201527f424d5f434845434b5f4c4f414e5f4e4f545f4558495354530000000000000000604082015260600190565b60208082526022908201527f424d5f43414e43454c5f4e4f4e43455f4c4f5745525f5448414e5f4355525245604082015261139560f21b606082015260800190565b81835260006001600160fb1b03831115613b8557600080fd5b8260051b8083602087013760009401602001938452509192915050565b602081526000611fc3602083018486613b6c565b60208082526024908201527f424d5f41434c5f4f4e4c595f454d455247454e43595f41444d494e5f43414e5f60408201526310d0531360e21b606082015260800190565b6000610160888352876020840152866040840152856060840152806080840152613c2681840186613737565b915050612a5b60a08301846138b2565b60208082526025908201527f424d5f41434c5f4f4e4c595f41495244524f505f4f50455241544f525f43414e60408201526417d0d0531360da1b606082015260800190565b805160048110612ae957600080fd5b600060208284031215613c9c57600080fd5b610e0b82613c7b565b8051612ae981612d00565b8051612ae981612ce2565b60006102208284031215613cce57600080fd5b613cd6612c67565b82518152613ce6602084016134f5565b60208201526040830151604082015260608301516060820152613d0b608084016134f5565b6080820152613d1c60a084016134f5565b60a0820152613d2d60c084016134f5565b60c082015260e083015160e0820152610100613d4a818501613ca5565b90820152610120613d5c848201613ca5565b90820152610140613d6e8482016134f5565b90820152610160613d80848201613cb0565b90820152610180613d92848201613cb0565b908201526101a0613da4848201613cb0565b908201526101c0613db6848201613cb0565b908201526101e0613dc8848201613646565b90820152610200613dda848201613c7b565b908201529392505050565b60008219821115613df857613df8613533565b500190565b6001600160a01b0389811682528816602082015260a060408201819052600090613e2a908301888a613b6c565b8281036060840152613e3d818789613b6c565b90508281036080840152613637818587613564565b606081526000613e6660608301888a613b6c565b8281036020840152613e79818789613b6c565b90508281036040840152613e8e818587613564565b9998505050505050505050565b600082613eb857634e487b7160e01b600052601260045260246000fd5b500490565b600082821015613ecf57613ecf613533565b500390565b602081526000610e0b602083018461370b565b6000816000190483118215151615613f0157613f01613533565b500290565b60008251613f188184602087016136df565b919091019291505056fea264697066735822122094556157614b20d5bc32285c8b74450407314db1cc79dae02ece3f8747053f6864736f6c634300080a0033",
  "libraries": {
    "BespokeTypes": "0xA3f72EFE184A58706Ef2DeC6C6fbd6c58e8FDA20",
    "SignatureChecker": "0x36A273dc8d65393FCC5B392Ca437D19d05aC4724",
    "BespokeLogic": "0x51DccDE44cb066CC7c7B223baBaf43fF4bD97D32",
    "TakeLendOfferLogic": "0x5B6638BD72DDACE3904589f7c9730e59eA064722",
    "TakeBorrowOfferLogic": "0xf7724E2C72693CbAf374fDcDAE7f902DB387C8E7",
    "ForecloseLogic": "0x59AeafBcFF6c2D6917dab249152D89C0dd97b0Fd",
    "RepayLogic": "0x1877346C665CcF423253F87f0d7587ae13D90291",
    "MathUtils": "0x6E79f2994Ad1a8eF022da72Cf9E2ae9D29710830",
    "PercentageMath": "0x76e304782A1773E8d693c8d36484CAc602C489E1",
    "WadRayMath": "0x8D04A88F02e5b79F1105297297B12661AD3CEF70"
  },
  "devdoc": {
    "kind": "dev",
    "methods": {
      "cancelAllBorrowOffersForSender(uint256)": {
        "params": {
          "minNonce_": "minimum user nonce"
        }
      },
      "cancelMultipleBorrowOffers(uint256[])": {
        "params": {
          "offerNonces": "array of borrowOffer nonces"
        }
      },
      "claimERC1155Airdrop(address,address,uint256[],uint256[],bytes)": {
        "params": {
          "amounts": "The amount of the ERC1155 tokens",
          "data": "packed params to pass to the receiver as extra information*",
          "ids": "The ID of the ERC1155 token",
          "to": "The address which will receive the ERC1155 tokens",
          "token": "The address of the airdropped token"
        }
      },
      "claimERC20Airdrop(address,address,uint256)": {
        "params": {
          "amount": "The amount of the ERC20 token*",
          "to": "The address which will receive ERC20 token",
          "token": "The address of the airdropped token"
        }
      },
      "claimERC721Airdrop(address,address,uint256[])": {
        "params": {
          "ids": "The ID of the ERC721 token*",
          "to": "The address which will receive the ERC721 token",
          "token": "The address of the airdropped token"
        }
      },
      "emergencyTokenTransfer(address,address,uint256)": {
        "details": "transfer ERC20 from the utility contract, for ERC20 recovery in case of stuck tokens due direct transfers to the contract address.",
        "params": {
          "amount": "amount to send",
          "to": "recipient of the transfer",
          "token": "token to transfer"
        }
      },
      "flashClaim(address,uint256[],bytes)": {
        "details": "IMPORTANT There are security concerns for developers of flash loan receiver contracts that must be carefully considered",
        "params": {
          "loanIds": "The ID of loan being flash-borrowed",
          "params": "packed params to pass to the receiver as extra information*",
          "receiverAddress": "The address of the contract receiving the funds, implementing IFlashClaimReceiver interface"
        }
      },
      "onERC721Received(address,address,uint256,bytes)": {
        "details": "See {IERC721Receiver-onERC721Received}. Always returns `IERC721Receiver.onERC721Received.selector`."
      },
      "owner()": {
        "details": "Returns the address of the current owner."
      },
      "pause()": {
        "details": "Pause pool for emergency case, can only be called by emergency admin."
      },
      "paused()": {
        "details": "Returns true if the contract is paused, and false otherwise."
      },
      "renounceOwnership()": {
        "details": "Leaves the contract without owner. It will not be possible to call `onlyOwner` functions anymore. Can only be called by the current owner. NOTE: Renouncing ownership will leave the contract without an owner, thereby removing any functionality that is only available to the owner."
      },
      "supportsInterface(bytes4)": {
        "details": "See {IERC165-supportsInterface}."
      },
      "transferOwnership(address)": {
        "details": "Transfers ownership of the contract to a new account (`newOwner`). Can only be called by the current owner."
      },
      "unpause()": {
        "details": "Unpause pool for emergency case, can only be called by emergency admin."
      }
    },
    "version": 1
  },
  "userdoc": {
    "kind": "user",
    "methods": {
      "cancelAllBorrowOffersForSender(uint256)": {
        "notice": "Cancel all pending offers for a sender"
      },
      "claimERC1155Airdrop(address,address,uint256[],uint256[],bytes)": {
        "notice": "Claim the ERC1155 token which has been airdropped to the loan contract"
      },
      "claimERC20Airdrop(address,address,uint256)": {
        "notice": "Claim the ERC20 token which has been airdropped to the loan contract"
      },
      "claimERC721Airdrop(address,address,uint256[])": {
        "notice": "Claim the ERC721 token which has been airdropped to the loan contract"
      },
      "flashClaim(address,uint256[],bytes)": {
        "notice": "Allows smart contracts to access the collateralized NFT within one transaction, as long as the amount taken plus a fee is returned"
      },
      "foreclose(uint256)": {
        "notice": "anyone can trigger but only OpenSkyLendNFT owner can receive collateral"
      },
      "repay(uint256)": {
        "notice": "Only OpenSkyBorrowNFT owner can repayOnly OpenSkyLendNFT owner can recieve the paymentThis function is not pausable for safety"
      },
      "repayETH(uint256)": {
        "notice": "Only OpenSkyBorrowNFT owner can repayOnly OpenSkyLendNFT owner can recieve the paymentThis function is not pausable for safety"
      },
      "takeBorrowOffer((bool,uint256,uint8,address,uint256,uint256,address,uint256,uint256,uint40,uint40,uint128,address,uint256,uint256,address,bytes,uint8,bytes32,bytes32),uint256,uint256)": {
        "notice": "take an borrowing offer using ERC20 include WETH"
      },
      "takeBorrowOfferETH((bool,uint256,uint8,address,uint256,uint256,address,uint256,uint256,uint40,uint40,uint128,address,uint256,uint256,address,bytes,uint8,bytes32,bytes32),uint256,uint256)": {
        "notice": "Take a borrow offer. Only for WETH reserve.Consider using taker's oWETH balance first, then ETH if oWETH is not enoughBorrower will receive WETH"
      }
    },
    "version": 1
  },
  "storageLayout": {
    "storage": [
      {
        "astId": 387,
        "contract": "contracts/bespokemarket/OpenSkyBespokeMarket.sol:OpenSkyBespokeMarket",
        "label": "_owner",
        "offset": 0,
        "slot": "0",
        "type": "t_address"
      },
      {
        "astId": 1294,
        "contract": "contracts/bespokemarket/OpenSkyBespokeMarket.sol:OpenSkyBespokeMarket",
        "label": "_paused",
        "offset": 20,
        "slot": "0",
        "type": "t_bool"
      },
      {
        "astId": 1379,
        "contract": "contracts/bespokemarket/OpenSkyBespokeMarket.sol:OpenSkyBespokeMarket",
        "label": "_status",
        "offset": 0,
        "slot": "1",
        "type": "t_uint256"
      },
      {
        "astId": 13267,
        "contract": "contracts/bespokemarket/OpenSkyBespokeMarket.sol:OpenSkyBespokeMarket",
        "label": "minNonce",
        "offset": 0,
        "slot": "2",
        "type": "t_mapping(t_address,t_uint256)"
      },
      {
        "astId": 13273,
        "contract": "contracts/bespokemarket/OpenSkyBespokeMarket.sol:OpenSkyBespokeMarket",
        "label": "_nonce",
        "offset": 0,
        "slot": "3",
        "type": "t_mapping(t_address,t_mapping(t_uint256,t_bool))"
      },
      {
        "astId": 13276,
        "contract": "contracts/bespokemarket/OpenSkyBespokeMarket.sol:OpenSkyBespokeMarket",
        "label": "_loanIdTracker",
        "offset": 0,
        "slot": "4",
        "type": "t_struct(Counter)17024_storage"
      },
      {
        "astId": 13281,
        "contract": "contracts/bespokemarket/OpenSkyBespokeMarket.sol:OpenSkyBespokeMarket",
        "label": "_loans",
        "offset": 0,
        "slot": "5",
        "type": "t_mapping(t_uint256,t_struct(LoanData)16992_storage)"
      }
    ],
    "types": {
      "t_address": {
        "encoding": "inplace",
        "label": "address",
        "numberOfBytes": "20"
      },
      "t_bool": {
        "encoding": "inplace",
        "label": "bool",
        "numberOfBytes": "1"
      },
      "t_enum(LoanStatus)16997": {
        "encoding": "inplace",
        "label": "enum BespokeTypes.LoanStatus",
        "numberOfBytes": "1"
      },
      "t_mapping(t_address,t_mapping(t_uint256,t_bool))": {
        "encoding": "mapping",
        "key": "t_address",
        "label": "mapping(address => mapping(uint256 => bool))",
        "numberOfBytes": "32",
        "value": "t_mapping(t_uint256,t_bool)"
      },
      "t_mapping(t_address,t_uint256)": {
        "encoding": "mapping",
        "key": "t_address",
        "label": "mapping(address => uint256)",
        "numberOfBytes": "32",
        "value": "t_uint256"
      },
      "t_mapping(t_uint256,t_bool)": {
        "encoding": "mapping",
        "key": "t_uint256",
        "label": "mapping(uint256 => bool)",
        "numberOfBytes": "32",
        "value": "t_bool"
      },
      "t_mapping(t_uint256,t_struct(LoanData)16992_storage)": {
        "encoding": "mapping",
        "key": "t_uint256",
        "label": "mapping(uint256 => struct BespokeTypes.LoanData)",
        "numberOfBytes": "32",
        "value": "t_struct(LoanData)16992_storage"
      },
      "t_struct(Counter)17024_storage": {
        "encoding": "inplace",
        "label": "struct BespokeTypes.Counter",
        "members": [
          {
            "astId": 17023,
            "contract": "contracts/bespokemarket/OpenSkyBespokeMarket.sol:OpenSkyBespokeMarket",
            "label": "_value",
            "offset": 0,
            "slot": "0",
            "type": "t_uint256"
          }
        ],
        "numberOfBytes": "32"
      },
      "t_struct(LoanData)16992_storage": {
        "encoding": "inplace",
        "label": "struct BespokeTypes.LoanData",
        "members": [
          {
            "astId": 16958,
            "contract": "contracts/bespokemarket/OpenSkyBespokeMarket.sol:OpenSkyBespokeMarket",
            "label": "reserveId",
            "offset": 0,
            "slot": "0",
            "type": "t_uint256"
          },
          {
            "astId": 16960,
            "contract": "contracts/bespokemarket/OpenSkyBespokeMarket.sol:OpenSkyBespokeMarket",
            "label": "nftAddress",
            "offset": 0,
            "slot": "1",
            "type": "t_address"
          },
          {
            "astId": 16962,
            "contract": "contracts/bespokemarket/OpenSkyBespokeMarket.sol:OpenSkyBespokeMarket",
            "label": "tokenId",
            "offset": 0,
            "slot": "2",
            "type": "t_uint256"
          },
          {
            "astId": 16964,
            "contract": "contracts/bespokemarket/OpenSkyBespokeMarket.sol:OpenSkyBespokeMarket",
            "label": "tokenAmount",
            "offset": 0,
            "slot": "3",
            "type": "t_uint256"
          },
          {
            "astId": 16966,
            "contract": "contracts/bespokemarket/OpenSkyBespokeMarket.sol:OpenSkyBespokeMarket",
            "label": "nftManager",
            "offset": 0,
            "slot": "4",
            "type": "t_address"
          },
          {
            "astId": 16968,
            "contract": "contracts/bespokemarket/OpenSkyBespokeMarket.sol:OpenSkyBespokeMarket",
            "label": "borrower",
            "offset": 0,
            "slot": "5",
            "type": "t_address"
          },
          {
            "astId": 16970,
            "contract": "contracts/bespokemarket/OpenSkyBespokeMarket.sol:OpenSkyBespokeMarket",
            "label": "lender",
            "offset": 0,
            "slot": "6",
            "type": "t_address"
          },
          {
            "astId": 16972,
            "contract": "contracts/bespokemarket/OpenSkyBespokeMarket.sol:OpenSkyBespokeMarket",
            "label": "amount",
            "offset": 0,
            "slot": "7",
            "type": "t_uint256"
          },
          {
            "astId": 16974,
            "contract": "contracts/bespokemarket/OpenSkyBespokeMarket.sol:OpenSkyBespokeMarket",
            "label": "borrowRate",
            "offset": 0,
            "slot": "8",
            "type": "t_uint128"
          },
          {
            "astId": 16976,
            "contract": "contracts/bespokemarket/OpenSkyBespokeMarket.sol:OpenSkyBespokeMarket",
            "label": "interestPerSecond",
            "offset": 16,
            "slot": "8",
            "type": "t_uint128"
          },
          {
            "astId": 16978,
            "contract": "contracts/bespokemarket/OpenSkyBespokeMarket.sol:OpenSkyBespokeMarket",
            "label": "currency",
            "offset": 0,
            "slot": "9",
            "type": "t_address"
          },
          {
            "astId": 16980,
            "contract": "contracts/bespokemarket/OpenSkyBespokeMarket.sol:OpenSkyBespokeMarket",
            "label": "borrowDuration",
            "offset": 20,
            "slot": "9",
            "type": "t_uint40"
          },
          {
            "astId": 16982,
            "contract": "contracts/bespokemarket/OpenSkyBespokeMarket.sol:OpenSkyBespokeMarket",
            "label": "borrowBegin",
            "offset": 25,
            "slot": "9",
            "type": "t_uint40"
          },
          {
            "astId": 16984,
            "contract": "contracts/bespokemarket/OpenSkyBespokeMarket.sol:OpenSkyBespokeMarket",
            "label": "borrowOverdueTime",
            "offset": 0,
            "slot": "10",
            "type": "t_uint40"
          },
          {
            "astId": 16986,
            "contract": "contracts/bespokemarket/OpenSkyBespokeMarket.sol:OpenSkyBespokeMarket",
            "label": "liquidatableTime",
            "offset": 5,
            "slot": "10",
            "type": "t_uint40"
          },
          {
            "astId": 16988,
            "contract": "contracts/bespokemarket/OpenSkyBespokeMarket.sol:OpenSkyBespokeMarket",
            "label": "isProrated",
            "offset": 10,
            "slot": "10",
            "type": "t_bool"
          },
          {
            "astId": 16991,
            "contract": "contracts/bespokemarket/OpenSkyBespokeMarket.sol:OpenSkyBespokeMarket",
            "label": "status",
            "offset": 11,
            "slot": "10",
            "type": "t_enum(LoanStatus)16997"
          }
        ],
        "numberOfBytes": "352"
      },
      "t_uint128": {
        "encoding": "inplace",
        "label": "uint128",
        "numberOfBytes": "16"
      },
      "t_uint256": {
        "encoding": "inplace",
        "label": "uint256",
        "numberOfBytes": "32"
      },
      "t_uint40": {
        "encoding": "inplace",
        "label": "uint40",
        "numberOfBytes": "5"
      }
    }
  }
}