{
  "address": "0x4B85B27f3C0A6D4672d509e3618F3a7B21742eB0",
  "abi": [
    {
      "inputs": [
        {
          "internalType": "address",
          "name": "_apeCoinStakingContractAddress",
          "type": "address"
        },
        {
          "internalType": "address",
          "name": "_apeCoinContractAddress",
          "type": "address"
        },
        {
          "internalType": "address",
          "name": "_bakcContractAddress",
          "type": "address"
        }
      ],
      "stateMutability": "nonpayable",
      "type": "constructor"
    },
    {
      "inputs": [],
      "name": "apeCoin",
      "outputs": [
        {
          "internalType": "contract IERC20",
          "name": "",
          "type": "address"
        }
      ],
      "stateMutability": "view",
      "type": "function"
    },
    {
      "inputs": [],
      "name": "apeCoinStaking",
      "outputs": [
        {
          "internalType": "contract IApeCoinStaking",
          "name": "",
          "type": "address"
        }
      ],
      "stateMutability": "view",
      "type": "function"
    },
    {
      "inputs": [],
      "name": "bakc",
      "outputs": [
        {
          "internalType": "contract IERC721",
          "name": "",
          "type": "address"
        }
      ],
      "stateMutability": "view",
      "type": "function"
    },
    {
      "inputs": [
        {
          "components": [
            {
              "internalType": "uint256",
              "name": "mainTokenId",
              "type": "uint256"
            },
            {
              "internalType": "uint256",
              "name": "bakcTokenId",
              "type": "uint256"
            }
          ],
          "internalType": "struct IApeCoinStaking.PairNft[]",
          "name": "_baycPairs",
          "type": "tuple[]"
        },
        {
          "components": [
            {
              "internalType": "uint256",
              "name": "mainTokenId",
              "type": "uint256"
            },
            {
              "internalType": "uint256",
              "name": "bakcTokenId",
              "type": "uint256"
            }
          ],
          "internalType": "struct IApeCoinStaking.PairNft[]",
          "name": "_maycPairs",
          "type": "tuple[]"
        },
        {
          "internalType": "address",
          "name": "_recipient",
          "type": "address"
        }
      ],
      "name": "claimBAKC",
      "outputs": [],
      "stateMutability": "nonpayable",
      "type": "function"
    },
    {
      "inputs": [
        {
          "internalType": "uint256[]",
          "name": "_nfts",
          "type": "uint256[]"
        },
        {
          "internalType": "address",
          "name": "_recipient",
          "type": "address"
        }
      ],
      "name": "claimBAYC",
      "outputs": [],
      "stateMutability": "nonpayable",
      "type": "function"
    },
    {
      "inputs": [
        {
          "internalType": "uint256[]",
          "name": "_nfts",
          "type": "uint256[]"
        },
        {
          "internalType": "address",
          "name": "_recipient",
          "type": "address"
        }
      ],
      "name": "claimMAYC",
      "outputs": [],
      "stateMutability": "nonpayable",
      "type": "function"
    },
    {
      "inputs": [
        {
          "components": [
            {
              "internalType": "uint256",
              "name": "mainTokenId",
              "type": "uint256"
            },
            {
              "internalType": "uint256",
              "name": "bakcTokenId",
              "type": "uint256"
            },
            {
              "internalType": "uint256",
              "name": "amount",
              "type": "uint256"
            }
          ],
          "internalType": "struct IApeCoinStaking.PairNftWithAmount[]",
          "name": "_baycPairs",
          "type": "tuple[]"
        },
        {
          "components": [
            {
              "internalType": "uint256",
              "name": "mainTokenId",
              "type": "uint256"
            },
            {
              "internalType": "uint256",
              "name": "bakcTokenId",
              "type": "uint256"
            },
            {
              "internalType": "uint256",
              "name": "amount",
              "type": "uint256"
            }
          ],
          "internalType": "struct IApeCoinStaking.PairNftWithAmount[]",
          "name": "_maycPairs",
          "type": "tuple[]"
        },
        {
          "internalType": "address",
          "name": "_recipient",
          "type": "address"
        }
      ],
      "name": "depositBAKC",
      "outputs": [],
      "stateMutability": "nonpayable",
      "type": "function"
    },
    {
      "inputs": [
        {
          "components": [
            {
              "internalType": "uint256",
              "name": "tokenId",
              "type": "uint256"
            },
            {
              "internalType": "uint256",
              "name": "amount",
              "type": "uint256"
            }
          ],
          "internalType": "struct IApeCoinStaking.SingleNft[]",
          "name": "_nfts",
          "type": "tuple[]"
        },
        {
          "internalType": "address",
          "name": "_recipient",
          "type": "address"
        }
      ],
      "name": "depositBAYC",
      "outputs": [],
      "stateMutability": "nonpayable",
      "type": "function"
    },
    {
      "inputs": [
        {
          "components": [
            {
              "internalType": "uint256",
              "name": "tokenId",
              "type": "uint256"
            },
            {
              "internalType": "uint256",
              "name": "amount",
              "type": "uint256"
            }
          ],
          "internalType": "struct IApeCoinStaking.SingleNft[]",
          "name": "_nfts",
          "type": "tuple[]"
        },
        {
          "internalType": "address",
          "name": "_recipient",
          "type": "address"
        }
      ],
      "name": "depositMAYC",
      "outputs": [],
      "stateMutability": "nonpayable",
      "type": "function"
    },
    {
      "inputs": [
        {
          "internalType": "address[]",
          "name": "nftAddresses",
          "type": "address[]"
        },
        {
          "internalType": "uint256[]",
          "name": "tokenIds",
          "type": "uint256[]"
        },
        {
          "internalType": "address",
          "name": "initiator",
          "type": "address"
        },
        {
          "internalType": "address",
          "name": "operator",
          "type": "address"
        },
        {
          "internalType": "bytes",
          "name": "params",
          "type": "bytes"
        }
      ],
      "name": "executeOperation",
      "outputs": [
        {
          "internalType": "bool",
          "name": "",
          "type": "bool"
        }
      ],
      "stateMutability": "nonpayable",
      "type": "function"
    },
    {
      "inputs": [
        {
          "internalType": "address",
          "name": "",
          "type": "address"
        },
        {
          "internalType": "address",
          "name": "",
          "type": "address"
        },
        {
          "internalType": "uint256",
          "name": "",
          "type": "uint256"
        },
        {
          "internalType": "bytes",
          "name": "",
          "type": "bytes"
        }
      ],
      "name": "onERC721Received",
      "outputs": [
        {
          "internalType": "bytes4",
          "name": "",
          "type": "bytes4"
        }
      ],
      "stateMutability": "nonpayable",
      "type": "function"
    },
    {
      "inputs": [
        {
          "components": [
            {
              "internalType": "uint256",
              "name": "mainTokenId",
              "type": "uint256"
            },
            {
              "internalType": "uint256",
              "name": "bakcTokenId",
              "type": "uint256"
            },
            {
              "internalType": "uint256",
              "name": "amount",
              "type": "uint256"
            }
          ],
          "internalType": "struct IApeCoinStaking.PairNftWithAmount[]",
          "name": "_baycPairs",
          "type": "tuple[]"
        },
        {
          "components": [
            {
              "internalType": "uint256",
              "name": "mainTokenId",
              "type": "uint256"
            },
            {
              "internalType": "uint256",
              "name": "bakcTokenId",
              "type": "uint256"
            },
            {
              "internalType": "uint256",
              "name": "amount",
              "type": "uint256"
            }
          ],
          "internalType": "struct IApeCoinStaking.PairNftWithAmount[]",
          "name": "_maycPairs",
          "type": "tuple[]"
        },
        {
          "internalType": "address",
          "name": "_recipient",
          "type": "address"
        }
      ],
      "name": "withdrawBAKC",
      "outputs": [],
      "stateMutability": "nonpayable",
      "type": "function"
    },
    {
      "inputs": [
        {
          "components": [
            {
              "internalType": "uint256",
              "name": "tokenId",
              "type": "uint256"
            },
            {
              "internalType": "uint256",
              "name": "amount",
              "type": "uint256"
            }
          ],
          "internalType": "struct IApeCoinStaking.SingleNft[]",
          "name": "_nfts",
          "type": "tuple[]"
        },
        {
          "internalType": "address",
          "name": "_recipient",
          "type": "address"
        }
      ],
      "name": "withdrawBAYC",
      "outputs": [],
      "stateMutability": "nonpayable",
      "type": "function"
    },
    {
      "inputs": [
        {
          "components": [
            {
              "internalType": "uint256",
              "name": "tokenId",
              "type": "uint256"
            },
            {
              "internalType": "uint256",
              "name": "amount",
              "type": "uint256"
            }
          ],
          "internalType": "struct IApeCoinStaking.SingleNft[]",
          "name": "_nfts",
          "type": "tuple[]"
        },
        {
          "internalType": "address",
          "name": "_recipient",
          "type": "address"
        }
      ],
      "name": "withdrawMAYC",
      "outputs": [],
      "stateMutability": "nonpayable",
      "type": "function"
    }
  ],
  "transactionHash": "0x45322afb1932a2c4b033d1034dbb3594415b7591c901d1cf9e84fb09d062c61a",
  "args": [
    "0x831e0c7A89Dbc52a1911b78ebf4ab905354C96Ce",
    "0x328507DC29C95c170B56a1b3A758eB7a9E73455c",
    "0xd60d682764Ee04e54707Bee7B564DC65b31884D0"
  ],
  "solcInputHash": "54efafcd73e83d58f0e092c335972367",
  "bytecode": "0x60e06040523480156200001157600080fd5b506040516200232b3803806200232b83398101604081905262000034916200006f565b6001600160a01b0392831660805290821660a0521660c052620000b9565b80516001600160a01b03811681146200006a57600080fd5b919050565b6000806000606084860312156200008557600080fd5b620000908462000052565b9250620000a06020850162000052565b9150620000b06040850162000052565b90509250925092565b60805160a05160c051612162620001c960003960008181610168015281816104c9015281816105ac015281816107730152818161082d0152818161090e015281816109c801528181610bc501528181610c7f015281816111f8015281816112b2015281816113f201526114ac015260008181610206015281816106660152818161069b01528181610b1c01528181610b9101528181610da501528181610dda015281816111020152611137015260008181610253015281816106bd015281816106f901528181610a8c01528181610dfc01528181610e3801528181610edc01528181610f7901528181610fe8015281816110570152818161115901528181611195015261137601526121626000f3fe608060405234801561001057600080fd5b50600436106100ea5760003560e01c806381dd4e571161008c578063b682e85911610066578063b682e85914610228578063c066e7561461023b578063c9112a771461024e578063e2ad6abe1461027557600080fd5b806381dd4e57146101db578063ab73e9bd146101ee578063ac7ad9ba1461020157600080fd5b80631ab95b9d116100c85780631ab95b9d146101635780631b416df1146101a257806348ba4721146101b557806357a26300146101c857600080fd5b806308e896f0146100ef578063101a2e9714610117578063150b7a021461012c575b600080fd5b6101026100fd3660046119b4565b610288565b60405190151581526020015b60405180910390f35b61012a610125366004611ae4565b610473565b005b61014a61013a366004611bd4565b630a85bd0160e11b949350505050565b6040516001600160e01b0319909116815260200161010e565b61018a7f000000000000000000000000000000000000000000000000000000000000000081565b6040516001600160a01b03909116815260200161010e565b61012a6101b0366004611ae4565b6108e2565b61012a6101c3366004611cc4565b610d33565b61012a6101d6366004611d18565b610ea7565b61012a6101e9366004611cc4565b610f43565b61012a6101fc366004611cc4565b610fb2565b61018a7f000000000000000000000000000000000000000000000000000000000000000081565b61012a610236366004611d18565b611021565b61012a610249366004611cc4565b611090565b61018a7f000000000000000000000000000000000000000000000000000000000000000081565b61012a610283366004611d50565b6111cc565b6000871580159061029857508786145b6102d85760405162461bcd60e51b815260206004820152600c60248201526b2820a920a6a9afa2a92927a960a11b60448201526064015b60405180910390fd5b6001600160a01b0385166102eb57600080fd5b6001600160a01b0384166102fe57600080fd5b60005b8881101561046357600080306001600160a01b03168686604051610326929190611db2565b6000604051808303816000865af19150503d8060008114610363576040519150601f19603f3d011682016040523d82523d6000602084013e610368565b606091505b50915091508161039f57808060200190518101906103869190611dee565b60405162461bcd60e51b81526004016102cf9190611e65565b8b8b848181106103b1576103b1611e98565b90506020020160208101906103c69190611eae565b6001600160a01b031663095ea7b3888c8c878181106103e7576103e7611e98565b6040516001600160e01b031960e087901b1681526001600160a01b0390941660048501526020029190910135602483015250604401600060405180830381600087803b15801561043657600080fd5b505af115801561044a573d6000803e3d6000fd5b505050505050808061045b90611edf565b915050610301565b5060019998505050505050505050565b3330146104925760405162461bcd60e51b81526004016102cf90611efa565b6000805b85811015610575578686828181106104b0576104b0611e98565b90506060020160400135826104c59190611f1d565b91507f00000000000000000000000000000000000000000000000000000000000000006001600160a01b03166342842e0e84308a8a8681811061050a5761050a611e98565b905060600201602001356040518463ffffffff1660e01b815260040161053293929190611f35565b600060405180830381600087803b15801561054c57600080fd5b505af1158015610560573d6000803e3d6000fd5b505050508061056e90611edf565b9050610496565b5060005b838110156106585784848281811061059357610593611e98565b90506060020160400135826105a89190611f1d565b91507f00000000000000000000000000000000000000000000000000000000000000006001600160a01b03166342842e0e84308888868181106105ed576105ed611e98565b905060600201602001356040518463ffffffff1660e01b815260040161061593929190611f35565b600060405180830381600087803b15801561062f57600080fd5b505af1158015610643573d6000803e3d6000fd5b505050508061065190611edf565b9050610579565b5061068e6001600160a01b037f000000000000000000000000000000000000000000000000000000000000000016833084611558565b6106e26001600160a01b037f0000000000000000000000000000000000000000000000000000000000000000167f0000000000000000000000000000000000000000000000000000000000000000836115b6565b60405163417a32f960e01b81526001600160a01b037f0000000000000000000000000000000000000000000000000000000000000000169063417a32f990610734908990899089908990600401611fa4565b600060405180830381600087803b15801561074e57600080fd5b505af1158015610762573d6000803e3d6000fd5b5050505060005b8581101561081f577f00000000000000000000000000000000000000000000000000000000000000006001600160a01b03166342842e0e30858a8a868181106107b4576107b4611e98565b905060600201602001356040518463ffffffff1660e01b81526004016107dc93929190611f35565b600060405180830381600087803b1580156107f657600080fd5b505af115801561080a573d6000803e3d6000fd5b505050508061081890611edf565b9050610769565b5060005b838110156108d9577f00000000000000000000000000000000000000000000000000000000000000006001600160a01b03166342842e0e308588888681811061086e5761086e611e98565b905060600201602001356040518463ffffffff1660e01b815260040161089693929190611f35565b600060405180830381600087803b1580156108b057600080fd5b505af11580156108c4573d6000803e3d6000fd5b50505050806108d290611edf565b9050610823565b50505050505050565b3330146109015760405162461bcd60e51b81526004016102cf90611efa565b60005b848110156109ba577f00000000000000000000000000000000000000000000000000000000000000006001600160a01b03166342842e0e833089898681811061094f5761094f611e98565b905060600201602001356040518463ffffffff1660e01b815260040161097793929190611f35565b600060405180830381600087803b15801561099157600080fd5b505af11580156109a5573d6000803e3d6000fd5b50505050806109b390611edf565b9050610904565b5060005b82811015610a74577f00000000000000000000000000000000000000000000000000000000000000006001600160a01b03166342842e0e8330878786818110610a0957610a09611e98565b905060600201602001356040518463ffffffff1660e01b8152600401610a3193929190611f35565b600060405180830381600087803b158015610a4b57600080fd5b505af1158015610a5f573d6000803e3d6000fd5b5050505080610a6d90611edf565b90506109be565b5060405163429b632960e11b81526001600160a01b037f00000000000000000000000000000000000000000000000000000000000000001690638536c65290610ac7908890889088908890600401611fa4565b600060405180830381600087803b158015610ae157600080fd5b505af1158015610af5573d6000803e3d6000fd5b50506040516370a0823160e01b8152306004820152610bb892508391506001600160a01b037f000000000000000000000000000000000000000000000000000000000000000016906370a0823190602401602060405180830381865afa158015610b63573d6000803e3d6000fd5b505050506040513d601f19601f82011682018060405250810190610b879190611fcb565b6001600160a01b037f00000000000000000000000000000000000000000000000000000000000000001691906116d0565b60005b84811015610c71577f00000000000000000000000000000000000000000000000000000000000000006001600160a01b03166342842e0e3084898986818110610c0657610c06611e98565b905060600201602001356040518463ffffffff1660e01b8152600401610c2e93929190611f35565b600060405180830381600087803b158015610c4857600080fd5b505af1158015610c5c573d6000803e3d6000fd5b5050505080610c6a90611edf565b9050610bbb565b5060005b82811015610d2b577f00000000000000000000000000000000000000000000000000000000000000006001600160a01b03166342842e0e3084878786818110610cc057610cc0611e98565b905060600201602001356040518463ffffffff1660e01b8152600401610ce893929190611f35565b600060405180830381600087803b158015610d0257600080fd5b505af1158015610d16573d6000803e3d6000fd5b5050505080610d2490611edf565b9050610c75565b505050505050565b333014610d525760405162461bcd60e51b81526004016102cf90611efa565b6000805b83811015610d9757848482818110610d7057610d70611e98565b9050604002016020013582610d859190611f1d565b9150610d9081611edf565b9050610d56565b50610dcd6001600160a01b037f000000000000000000000000000000000000000000000000000000000000000016833084611558565b610e216001600160a01b037f0000000000000000000000000000000000000000000000000000000000000000167f0000000000000000000000000000000000000000000000000000000000000000836115b6565b604051638f4972a960e01b81526001600160a01b037f00000000000000000000000000000000000000000000000000000000000000001690638f4972a990610e6f908790879060040161201a565b600060405180830381600087803b158015610e8957600080fd5b505af1158015610e9d573d6000803e3d6000fd5b5050505050505050565b333014610ec65760405162461bcd60e51b81526004016102cf90611efa565b6040516257a26360e81b81526001600160a01b037f000000000000000000000000000000000000000000000000000000000000000016906357a2630090610f159086908690869060040161202e565b600060405180830381600087803b158015610f2f57600080fd5b505af11580156108d9573d6000803e3d6000fd5b333014610f625760405162461bcd60e51b81526004016102cf90611efa565b6040516381dd4e5760e01b81526001600160a01b037f000000000000000000000000000000000000000000000000000000000000000016906381dd4e5790610f1590869086908690600401612080565b333014610fd15760405162461bcd60e51b81526004016102cf90611efa565b60405163ab73e9bd60e01b81526001600160a01b037f0000000000000000000000000000000000000000000000000000000000000000169063ab73e9bd90610f1590869086908690600401612080565b3330146110405760405162461bcd60e51b81526004016102cf90611efa565b60405163b682e85960e01b81526001600160a01b037f0000000000000000000000000000000000000000000000000000000000000000169063b682e85990610f159086908690869060040161202e565b3330146110af5760405162461bcd60e51b81526004016102cf90611efa565b6000805b838110156110f4578484828181106110cd576110cd611e98565b90506040020160200135826110e29190611f1d565b91506110ed81611edf565b90506110b3565b5061112a6001600160a01b037f000000000000000000000000000000000000000000000000000000000000000016833084611558565b61117e6001600160a01b037f0000000000000000000000000000000000000000000000000000000000000000167f0000000000000000000000000000000000000000000000000000000000000000836115b6565b604051634bd1e8f760e01b81526001600160a01b037f00000000000000000000000000000000000000000000000000000000000000001690634bd1e8f790610e6f908790879060040161201a565b3330146111eb5760405162461bcd60e51b81526004016102cf90611efa565b60005b848110156112a4577f00000000000000000000000000000000000000000000000000000000000000006001600160a01b03166342842e0e833089898681811061123957611239611e98565b905060400201602001356040518463ffffffff1660e01b815260040161126193929190611f35565b600060405180830381600087803b15801561127b57600080fd5b505af115801561128f573d6000803e3d6000fd5b505050508061129d90611edf565b90506111ee565b5060005b8281101561135e577f00000000000000000000000000000000000000000000000000000000000000006001600160a01b03166342842e0e83308787868181106112f3576112f3611e98565b905060400201602001356040518463ffffffff1660e01b815260040161131b93929190611f35565b600060405180830381600087803b15801561133557600080fd5b505af1158015611349573d6000803e3d6000fd5b505050508061135790611edf565b90506112a8565b50604051637156b55f60e11b81526001600160a01b037f0000000000000000000000000000000000000000000000000000000000000000169063e2ad6abe906113b390889088908890889088906004016120ac565b600060405180830381600087803b1580156113cd57600080fd5b505af11580156113e1573d6000803e3d6000fd5b5050505060005b8481101561149e577f00000000000000000000000000000000000000000000000000000000000000006001600160a01b03166342842e0e308489898681811061143357611433611e98565b905060400201602001356040518463ffffffff1660e01b815260040161145b93929190611f35565b600060405180830381600087803b15801561147557600080fd5b505af1158015611489573d6000803e3d6000fd5b505050508061149790611edf565b90506113e8565b5060005b82811015610d2b577f00000000000000000000000000000000000000000000000000000000000000006001600160a01b03166342842e0e30848787868181106114ed576114ed611e98565b905060400201602001356040518463ffffffff1660e01b815260040161151593929190611f35565b600060405180830381600087803b15801561152f57600080fd5b505af1158015611543573d6000803e3d6000fd5b505050508061155190611edf565b90506114a2565b6115b0846323b872dd60e01b85858560405160240161157993929190611f35565b60408051601f198184030181529190526020810180516001600160e01b03166001600160e01b031990931692909217909152611700565b50505050565b8015806116305750604051636eb1769f60e11b81523060048201526001600160a01b03838116602483015284169063dd62ed3e90604401602060405180830381865afa15801561160a573d6000803e3d6000fd5b505050506040513d601f19601f8201168201806040525081019061162e9190611fcb565b155b61169b5760405162461bcd60e51b815260206004820152603660248201527f5361666545524332303a20617070726f76652066726f6d206e6f6e2d7a65726f60448201527520746f206e6f6e2d7a65726f20616c6c6f77616e636560501b60648201526084016102cf565b6040516001600160a01b0383166024820152604481018290526116cb90849063095ea7b360e01b90606401611579565b505050565b6040516001600160a01b0383166024820152604481018290526116cb90849063a9059cbb60e01b90606401611579565b6000611755826040518060400160405280602081526020017f5361666545524332303a206c6f772d6c6576656c2063616c6c206661696c6564815250856001600160a01b03166117d29092919063ffffffff16565b8051909150156116cb578080602001905181019061177391906120ee565b6116cb5760405162461bcd60e51b815260206004820152602a60248201527f5361666545524332303a204552433230206f7065726174696f6e20646964206e6044820152691bdd081cdd58d8d9595960b21b60648201526084016102cf565b60606117e184846000856117eb565b90505b9392505050565b60608247101561184c5760405162461bcd60e51b815260206004820152602660248201527f416464726573733a20696e73756666696369656e742062616c616e636520666f6044820152651c8818d85b1b60d21b60648201526084016102cf565b843b61189a5760405162461bcd60e51b815260206004820152601d60248201527f416464726573733a2063616c6c20746f206e6f6e2d636f6e747261637400000060448201526064016102cf565b600080866001600160a01b031685876040516118b69190612110565b60006040518083038185875af1925050503d80600081146118f3576040519150601f19603f3d011682016040523d82523d6000602084013e6118f8565b606091505b5091509150611908828286611913565b979650505050505050565b606083156119225750816117e4565b8251156119325782518084602001fd5b8160405162461bcd60e51b81526004016102cf9190611e65565b60008083601f84011261195e57600080fd5b50813567ffffffffffffffff81111561197657600080fd5b6020830191508360208260051b850101111561199157600080fd5b9250929050565b80356001600160a01b03811681146119af57600080fd5b919050565b60008060008060008060008060a0898b0312156119d057600080fd5b883567ffffffffffffffff808211156119e857600080fd5b6119f48c838d0161194c565b909a50985060208b0135915080821115611a0d57600080fd5b611a198c838d0161194c565b9098509650869150611a2d60408c01611998565b9550611a3b60608c01611998565b945060808b0135915080821115611a5157600080fd5b818b0191508b601f830112611a6557600080fd5b813581811115611a7457600080fd5b8c6020828501011115611a8657600080fd5b6020830194508093505050509295985092959890939650565b60008083601f840112611ab157600080fd5b50813567ffffffffffffffff811115611ac957600080fd5b60208301915083602060608302850101111561199157600080fd5b600080600080600060608688031215611afc57600080fd5b853567ffffffffffffffff80821115611b1457600080fd5b611b2089838a01611a9f565b90975095506020880135915080821115611b3957600080fd5b50611b4688828901611a9f565b9094509250611b59905060408701611998565b90509295509295909350565b634e487b7160e01b600052604160045260246000fd5b604051601f8201601f1916810167ffffffffffffffff81118282101715611ba457611ba4611b65565b604052919050565b600067ffffffffffffffff821115611bc657611bc6611b65565b50601f01601f191660200190565b60008060008060808587031215611bea57600080fd5b611bf385611998565b9350611c0160208601611998565b925060408501359150606085013567ffffffffffffffff811115611c2457600080fd5b8501601f81018713611c3557600080fd5b8035611c48611c4382611bac565b611b7b565b818152886020838501011115611c5d57600080fd5b8160208401602083013760006020838301015280935050505092959194509250565b60008083601f840112611c9157600080fd5b50813567ffffffffffffffff811115611ca957600080fd5b6020830191508360208260061b850101111561199157600080fd5b600080600060408486031215611cd957600080fd5b833567ffffffffffffffff811115611cf057600080fd5b611cfc86828701611c7f565b9094509250611d0f905060208501611998565b90509250925092565b600080600060408486031215611d2d57600080fd5b833567ffffffffffffffff811115611d4457600080fd5b611cfc8682870161194c565b600080600080600060608688031215611d6857600080fd5b853567ffffffffffffffff80821115611d8057600080fd5b611d8c89838a01611c7f565b90975095506020880135915080821115611da557600080fd5b50611b4688828901611c7f565b8183823760009101908152919050565b60005b83811015611ddd578181015183820152602001611dc5565b838111156115b05750506000910152565b600060208284031215611e0057600080fd5b815167ffffffffffffffff811115611e1757600080fd5b8201601f81018413611e2857600080fd5b8051611e36611c4382611bac565b818152856020838501011115611e4b57600080fd5b611e5c826020830160208601611dc2565b95945050505050565b6020815260008251806020840152611e84816040850160208701611dc2565b601f01601f19169190910160400192915050565b634e487b7160e01b600052603260045260246000fd5b600060208284031215611ec057600080fd5b6117e482611998565b634e487b7160e01b600052601160045260246000fd5b6000600019821415611ef357611ef3611ec9565b5060010190565b60208082526009908201526827a7262cafa9a2a62360b91b604082015260600190565b60008219821115611f3057611f30611ec9565b500190565b6001600160a01b039384168152919092166020820152604081019190915260600190565b8183526000602080850194508260005b85811015611f99578135875282820135838801526040808301359088015260609687019690910190600101611f69565b509495945050505050565b604081526000611fb8604083018688611f59565b8281036020840152611908818587611f59565b600060208284031215611fdd57600080fd5b5051919050565b8183526000602080850194508260005b85811015611f995781358752828201358388015260409687019690910190600101611ff4565b6020815260006117e1602083018486611fe4565b6040808252810183905260006001600160fb1b0384111561204e57600080fd5b8360051b8086606085013760009083016060019081526001600160a01b03939093166020909201919091525092915050565b604081526000612094604083018587611fe4565b905060018060a01b0383166020830152949350505050565b6060815260006120c0606083018789611fe4565b82810360208401526120d3818688611fe4565b91505060018060a01b03831660408301529695505050505050565b60006020828403121561210057600080fd5b815180151581146117e457600080fd5b60008251612122818460208701611dc2565b919091019291505056fea2646970667358221220224e8f0fb1c6a6b9e74680fecb7640064a5f0e01091bdffdbc9fa4393b3a74f864736f6c634300080a0033",
  "devdoc": {
    "kind": "dev",
    "methods": {
      "onERC721Received(address,address,uint256,bytes)": {
        "details": "See {IERC721Receiver-onERC721Received}. Always returns `IERC721Receiver.onERC721Received.selector`."
      }
    },
    "version": 1
  },
  "userdoc": {
    "kind": "user",
    "methods": {},
    "version": 1
  },
  "storageLayout": {
    "storage": [],
    "types": null
  }
}