{
  "address": "0xE92913E8D7c72501255ADCcFc6F6885b79144733",
  "abi": [
    {
      "inputs": [
        {
          "internalType": "address",
          "name": "SETTINGS_",
          "type": "address"
        },
        {
          "internalType": "address",
          "name": "BESPOKE_SETTINGS_",
          "type": "address"
        }
      ],
      "stateMutability": "nonpayable",
      "type": "constructor"
    },
    {
      "anonymous": false,
      "inputs": [
        {
          "indexed": true,
          "internalType": "address",
          "name": "sender",
          "type": "address"
        },
        {
          "indexed": false,
          "internalType": "uint256",
          "name": "nonce",
          "type": "uint256"
        }
      ],
      "name": "CancelAllOffers",
      "type": "event"
    },
    {
      "anonymous": false,
      "inputs": [
        {
          "indexed": true,
          "internalType": "address",
          "name": "sender",
          "type": "address"
        },
        {
          "indexed": false,
          "internalType": "uint256[]",
          "name": "nonces",
          "type": "uint256[]"
        }
      ],
      "name": "CancelMultipleOffers",
      "type": "event"
    },
    {
      "anonymous": false,
      "inputs": [
        {
          "indexed": true,
          "internalType": "uint256",
          "name": "loanId",
          "type": "uint256"
        },
        {
          "indexed": true,
          "internalType": "address",
          "name": "operator",
          "type": "address"
        },
        {
          "indexed": true,
          "internalType": "address",
          "name": "receiver",
          "type": "address"
        }
      ],
      "name": "Foreclose",
      "type": "event"
    },
    {
      "anonymous": false,
      "inputs": [
        {
          "indexed": false,
          "internalType": "address",
          "name": "account",
          "type": "address"
        }
      ],
      "name": "Paused",
      "type": "event"
    },
    {
      "anonymous": false,
      "inputs": [
        {
          "indexed": true,
          "internalType": "uint256",
          "name": "loanId",
          "type": "uint256"
        },
        {
          "indexed": true,
          "internalType": "address",
          "name": "operator",
          "type": "address"
        },
        {
          "indexed": true,
          "internalType": "address",
          "name": "receiver",
          "type": "address"
        }
      ],
      "name": "Repay",
      "type": "event"
    },
    {
      "anonymous": false,
      "inputs": [
        {
          "indexed": false,
          "internalType": "bytes32",
          "name": "offerHash",
          "type": "bytes32"
        },
        {
          "indexed": true,
          "internalType": "uint256",
          "name": "loanId",
          "type": "uint256"
        },
        {
          "indexed": true,
          "internalType": "address",
          "name": "lender",
          "type": "address"
        },
        {
          "indexed": true,
          "internalType": "address",
          "name": "borrower",
          "type": "address"
        },
        {
          "indexed": false,
          "internalType": "uint256",
          "name": "nonce",
          "type": "uint256"
        }
      ],
      "name": "TakeBorrowOffer",
      "type": "event"
    },
    {
      "anonymous": false,
      "inputs": [
        {
          "indexed": false,
          "internalType": "bytes32",
          "name": "offerHash",
          "type": "bytes32"
        },
        {
          "indexed": true,
          "internalType": "uint256",
          "name": "loanId",
          "type": "uint256"
        },
        {
          "indexed": true,
          "internalType": "address",
          "name": "lender",
          "type": "address"
        },
        {
          "indexed": true,
          "internalType": "address",
          "name": "borrower",
          "type": "address"
        },
        {
          "indexed": false,
          "internalType": "address",
          "name": "onBehalfOf",
          "type": "address"
        },
        {
          "indexed": false,
          "internalType": "uint256",
          "name": "nonce",
          "type": "uint256"
        },
        {
          "indexed": false,
          "internalType": "uint256",
          "name": "nonceOrder",
          "type": "uint256"
        }
      ],
      "name": "TakeLendOffer",
      "type": "event"
    },
    {
      "anonymous": false,
      "inputs": [
        {
          "indexed": false,
          "internalType": "address",
          "name": "account",
          "type": "address"
        }
      ],
      "name": "Unpaused",
      "type": "event"
    },
    {
      "stateMutability": "payable",
      "type": "fallback"
    },
    {
      "inputs": [],
      "name": "BESPOKE_SETTINGS",
      "outputs": [
        {
          "internalType": "contract IOpenSkyBespokeSettings",
          "name": "",
          "type": "address"
        }
      ],
      "stateMutability": "view",
      "type": "function"
    },
    {
      "inputs": [],
      "name": "SETTINGS",
      "outputs": [
        {
          "internalType": "contract IOpenSkySettings",
          "name": "",
          "type": "address"
        }
      ],
      "stateMutability": "view",
      "type": "function"
    },
    {
      "inputs": [
        {
          "internalType": "address",
          "name": "",
          "type": "address"
        },
        {
          "internalType": "uint256",
          "name": "",
          "type": "uint256"
        }
      ],
      "name": "_nonce",
      "outputs": [
        {
          "internalType": "bool",
          "name": "invalid",
          "type": "bool"
        },
        {
          "internalType": "uint256",
          "name": "usedTimes",
          "type": "uint256"
        },
        {
          "internalType": "bytes32",
          "name": "offerHash",
          "type": "bytes32"
        }
      ],
      "stateMutability": "view",
      "type": "function"
    },
    {
      "inputs": [
        {
          "internalType": "uint256",
          "name": "minNonce_",
          "type": "uint256"
        }
      ],
      "name": "cancelAllBorrowOffersForSender",
      "outputs": [],
      "stateMutability": "nonpayable",
      "type": "function"
    },
    {
      "inputs": [
        {
          "internalType": "uint256[]",
          "name": "offerNonces",
          "type": "uint256[]"
        }
      ],
      "name": "cancelMultipleBorrowOffers",
      "outputs": [],
      "stateMutability": "nonpayable",
      "type": "function"
    },
    {
      "inputs": [
        {
          "internalType": "address",
          "name": "token",
          "type": "address"
        },
        {
          "internalType": "address",
          "name": "to",
          "type": "address"
        },
        {
          "internalType": "uint256",
          "name": "amount",
          "type": "uint256"
        }
      ],
      "name": "emergencyTokenTransfer",
      "outputs": [],
      "stateMutability": "nonpayable",
      "type": "function"
    },
    {
      "inputs": [
        {
          "internalType": "uint256",
          "name": "loanId",
          "type": "uint256"
        }
      ],
      "name": "foreclose",
      "outputs": [],
      "stateMutability": "nonpayable",
      "type": "function"
    },
    {
      "inputs": [
        {
          "internalType": "uint256",
          "name": "loanId",
          "type": "uint256"
        }
      ],
      "name": "getBorrowBalance",
      "outputs": [
        {
          "internalType": "uint256",
          "name": "",
          "type": "uint256"
        }
      ],
      "stateMutability": "view",
      "type": "function"
    },
    {
      "inputs": [
        {
          "internalType": "uint256",
          "name": "loanId",
          "type": "uint256"
        }
      ],
      "name": "getBorrowInterest",
      "outputs": [
        {
          "internalType": "uint256",
          "name": "",
          "type": "uint256"
        }
      ],
      "stateMutability": "view",
      "type": "function"
    },
    {
      "inputs": [
        {
          "internalType": "uint256",
          "name": "loanId",
          "type": "uint256"
        }
      ],
      "name": "getLoanData",
      "outputs": [
        {
          "components": [
            {
              "internalType": "address",
              "name": "tokenAddress",
              "type": "address"
            },
            {
              "internalType": "uint256",
              "name": "tokenId",
              "type": "uint256"
            },
            {
              "internalType": "uint256",
              "name": "tokenAmount",
              "type": "uint256"
            },
            {
              "internalType": "address",
              "name": "nftManager",
              "type": "address"
            },
            {
              "internalType": "address",
              "name": "borrower",
              "type": "address"
            },
            {
              "internalType": "address",
              "name": "lender",
              "type": "address"
            },
            {
              "internalType": "uint256",
              "name": "amount",
              "type": "uint256"
            },
            {
              "internalType": "uint128",
              "name": "borrowRate",
              "type": "uint128"
            },
            {
              "internalType": "uint128",
              "name": "interestPerSecond",
              "type": "uint128"
            },
            {
              "internalType": "address",
              "name": "currency",
              "type": "address"
            },
            {
              "internalType": "address",
              "name": "lendAsset",
              "type": "address"
            },
            {
              "internalType": "uint256",
              "name": "reserveFactor",
              "type": "uint256"
            },
            {
              "internalType": "uint256",
              "name": "overdueLoanFeeFactor",
              "type": "uint256"
            },
            {
              "internalType": "uint40",
              "name": "borrowDuration",
              "type": "uint40"
            },
            {
              "internalType": "uint40",
              "name": "borrowBegin",
              "type": "uint40"
            },
            {
              "internalType": "uint40",
              "name": "borrowOverdueTime",
              "type": "uint40"
            },
            {
              "internalType": "uint40",
              "name": "liquidatableTime",
              "type": "uint40"
            },
            {
              "internalType": "bool",
              "name": "isProrated",
              "type": "bool"
            },
            {
              "internalType": "bool",
              "name": "autoConvertWhenRepay",
              "type": "bool"
            },
            {
              "internalType": "enum BespokeTypes.LoanStatus",
              "name": "status",
              "type": "uint8"
            }
          ],
          "internalType": "struct BespokeTypes.LoanData",
          "name": "",
          "type": "tuple"
        }
      ],
      "stateMutability": "view",
      "type": "function"
    },
    {
      "inputs": [
        {
          "internalType": "uint256",
          "name": "loanId",
          "type": "uint256"
        }
      ],
      "name": "getPenalty",
      "outputs": [
        {
          "internalType": "uint256",
          "name": "",
          "type": "uint256"
        }
      ],
      "stateMutability": "view",
      "type": "function"
    },
    {
      "inputs": [
        {
          "internalType": "uint256",
          "name": "loanId",
          "type": "uint256"
        }
      ],
      "name": "getStatus",
      "outputs": [
        {
          "internalType": "enum BespokeTypes.LoanStatus",
          "name": "",
          "type": "uint8"
        }
      ],
      "stateMutability": "view",
      "type": "function"
    },
    {
      "inputs": [
        {
          "internalType": "address",
          "name": "account",
          "type": "address"
        },
        {
          "internalType": "uint256",
          "name": "nonce",
          "type": "uint256"
        }
      ],
      "name": "isValidNonce",
      "outputs": [
        {
          "internalType": "bool",
          "name": "",
          "type": "bool"
        }
      ],
      "stateMutability": "view",
      "type": "function"
    },
    {
      "inputs": [
        {
          "internalType": "address",
          "name": "",
          "type": "address"
        }
      ],
      "name": "minNonce",
      "outputs": [
        {
          "internalType": "uint256",
          "name": "",
          "type": "uint256"
        }
      ],
      "stateMutability": "view",
      "type": "function"
    },
    {
      "inputs": [],
      "name": "pause",
      "outputs": [],
      "stateMutability": "nonpayable",
      "type": "function"
    },
    {
      "inputs": [],
      "name": "paused",
      "outputs": [
        {
          "internalType": "bool",
          "name": "",
          "type": "bool"
        }
      ],
      "stateMutability": "view",
      "type": "function"
    },
    {
      "inputs": [
        {
          "internalType": "uint256",
          "name": "loanId",
          "type": "uint256"
        }
      ],
      "name": "repay",
      "outputs": [],
      "stateMutability": "nonpayable",
      "type": "function"
    },
    {
      "inputs": [
        {
          "components": [
            {
              "internalType": "bool",
              "name": "isProrated",
              "type": "bool"
            },
            {
              "internalType": "bool",
              "name": "autoConvertWhenRepay",
              "type": "bool"
            },
            {
              "internalType": "enum BespokeTypes.OfferType",
              "name": "offerType",
              "type": "uint8"
            },
            {
              "internalType": "address",
              "name": "tokenAddress",
              "type": "address"
            },
            {
              "internalType": "uint256",
              "name": "tokenId",
              "type": "uint256"
            },
            {
              "internalType": "uint256",
              "name": "tokenAmount",
              "type": "uint256"
            },
            {
              "internalType": "address",
              "name": "signer",
              "type": "address"
            },
            {
              "internalType": "uint256",
              "name": "borrowAmountMin",
              "type": "uint256"
            },
            {
              "internalType": "uint256",
              "name": "borrowAmountMax",
              "type": "uint256"
            },
            {
              "internalType": "uint40",
              "name": "borrowDurationMin",
              "type": "uint40"
            },
            {
              "internalType": "uint40",
              "name": "borrowDurationMax",
              "type": "uint40"
            },
            {
              "internalType": "uint128",
              "name": "borrowRate",
              "type": "uint128"
            },
            {
              "internalType": "address",
              "name": "currency",
              "type": "address"
            },
            {
              "internalType": "address",
              "name": "lendAsset",
              "type": "address"
            },
            {
              "internalType": "uint256",
              "name": "nonce",
              "type": "uint256"
            },
            {
              "internalType": "uint256",
              "name": "nonceMaxTimes",
              "type": "uint256"
            },
            {
              "internalType": "uint256",
              "name": "deadline",
              "type": "uint256"
            },
            {
              "internalType": "address",
              "name": "strategy",
              "type": "address"
            },
            {
              "internalType": "bytes",
              "name": "params",
              "type": "bytes"
            },
            {
              "internalType": "uint8",
              "name": "v",
              "type": "uint8"
            },
            {
              "internalType": "bytes32",
              "name": "r",
              "type": "bytes32"
            },
            {
              "internalType": "bytes32",
              "name": "s",
              "type": "bytes32"
            }
          ],
          "internalType": "struct BespokeTypes.Offer",
          "name": "offerData",
          "type": "tuple"
        },
        {
          "internalType": "uint256",
          "name": "supplyAmount",
          "type": "uint256"
        },
        {
          "internalType": "uint256",
          "name": "supplyDuration",
          "type": "uint256"
        },
        {
          "internalType": "address",
          "name": "lendAsset",
          "type": "address"
        },
        {
          "internalType": "bool",
          "name": "autoConvertWhenRepay",
          "type": "bool"
        }
      ],
      "name": "takeBorrowOffer",
      "outputs": [
        {
          "internalType": "uint256",
          "name": "",
          "type": "uint256"
        }
      ],
      "stateMutability": "nonpayable",
      "type": "function"
    },
    {
      "inputs": [
        {
          "components": [
            {
              "internalType": "bool",
              "name": "isProrated",
              "type": "bool"
            },
            {
              "internalType": "bool",
              "name": "autoConvertWhenRepay",
              "type": "bool"
            },
            {
              "internalType": "enum BespokeTypes.OfferType",
              "name": "offerType",
              "type": "uint8"
            },
            {
              "internalType": "address",
              "name": "tokenAddress",
              "type": "address"
            },
            {
              "internalType": "uint256",
              "name": "tokenId",
              "type": "uint256"
            },
            {
              "internalType": "uint256",
              "name": "tokenAmount",
              "type": "uint256"
            },
            {
              "internalType": "address",
              "name": "signer",
              "type": "address"
            },
            {
              "internalType": "uint256",
              "name": "borrowAmountMin",
              "type": "uint256"
            },
            {
              "internalType": "uint256",
              "name": "borrowAmountMax",
              "type": "uint256"
            },
            {
              "internalType": "uint40",
              "name": "borrowDurationMin",
              "type": "uint40"
            },
            {
              "internalType": "uint40",
              "name": "borrowDurationMax",
              "type": "uint40"
            },
            {
              "internalType": "uint128",
              "name": "borrowRate",
              "type": "uint128"
            },
            {
              "internalType": "address",
              "name": "currency",
              "type": "address"
            },
            {
              "internalType": "address",
              "name": "lendAsset",
              "type": "address"
            },
            {
              "internalType": "uint256",
              "name": "nonce",
              "type": "uint256"
            },
            {
              "internalType": "uint256",
              "name": "nonceMaxTimes",
              "type": "uint256"
            },
            {
              "internalType": "uint256",
              "name": "deadline",
              "type": "uint256"
            },
            {
              "internalType": "address",
              "name": "strategy",
              "type": "address"
            },
            {
              "internalType": "bytes",
              "name": "params",
              "type": "bytes"
            },
            {
              "internalType": "uint8",
              "name": "v",
              "type": "uint8"
            },
            {
              "internalType": "bytes32",
              "name": "r",
              "type": "bytes32"
            },
            {
              "internalType": "bytes32",
              "name": "s",
              "type": "bytes32"
            }
          ],
          "internalType": "struct BespokeTypes.Offer",
          "name": "offerData",
          "type": "tuple"
        },
        {
          "internalType": "uint256",
          "name": "tokenId",
          "type": "uint256"
        },
        {
          "internalType": "uint256",
          "name": "borrowAmount",
          "type": "uint256"
        },
        {
          "internalType": "uint256",
          "name": "borrowDuration",
          "type": "uint256"
        },
        {
          "internalType": "address",
          "name": "onBehalfOf",
          "type": "address"
        },
        {
          "internalType": "bytes",
          "name": "params",
          "type": "bytes"
        }
      ],
      "name": "takeLendOffer",
      "outputs": [
        {
          "internalType": "uint256",
          "name": "",
          "type": "uint256"
        }
      ],
      "stateMutability": "nonpayable",
      "type": "function"
    },
    {
      "inputs": [],
      "name": "unpause",
      "outputs": [],
      "stateMutability": "nonpayable",
      "type": "function"
    },
    {
      "stateMutability": "payable",
      "type": "receive"
    }
  ],
  "transactionHash": "0xd15ab255ee26655532f9b73c7fda9ef695585580ca216e9d7aa9a53e4d729a56",
  "args": [
    "0x90499A6848275e03E8De6608980F4e7d32fbaF6F",
    "0xf7fB2278991a44b1a3E9fC8D448ec5b9C3449D84"
  ],
  "solcInputHash": "9ceeba06c5b20032f6d2b2465cc709fe",
  "bytecode": "0x60c06040523480156200001157600080fd5b506040516200262038038062002620833981016040819052620000349162000077565b6000805460ff19169055600180556001600160a01b039182166080521660a052620000af565b80516001600160a01b03811681146200007257600080fd5b919050565b600080604083850312156200008b57600080fd5b62000096836200005a565b9150620000a6602084016200005a565b90509250929050565b60805160a0516125136200010d6000396000818161024b015281816105f3015281816108ff01528181610fb701526110fc01526000818161046201528181610927015281816109a801528181610cc2015261117701526125136000f3fe6080604052600436106101235760003560e01c80636b52b365116100a0578063a2b8fe8711610064578063a2b8fe87146103e3578063a3d5b25514610403578063aa99fa9814610423578063ade97ab514610450578063febcc680146104845761016e565b80636b52b3651461034e5780638456cb591461036e57806384e5cec5146103835780638bf1badd146103a357806396e59682146103c35761016e565b8063371fd8e6116100e7578063371fd8e6146102a75780633f4ba83a146102c75780635c622a0e146102dc5780635c975abb14610309578063622fe39f146103215761016e565b80630647ee20146101b657806319ef8c33146101eb5780631c1874951461021957806329c55f06146102395780632f844ea8146102855761016e565b3661016e5760405162461bcd60e51b8152602060048201526016602482015275109357d49150d152559157d393d517d0531313d5d15160521b60448201526064015b60405180910390fd5b60405162461bcd60e51b815260206004820152601760248201527f424d5f46414c4c4241434b5f4e4f545f414c4c4f5745440000000000000000006044820152606401610165565b3480156101c257600080fd5b506101d66101d136600461165a565b6104ec565b60405190151581526020015b60405180910390f35b3480156101f757600080fd5b5061020b61020636600461196f565b610541565b6040519081526020016101e2565b34801561022557600080fd5b5061020b6102343660046119e7565b610669565b34801561024557600080fd5b5061026d7f000000000000000000000000000000000000000000000000000000000000000081565b6040516001600160a01b0390911681526020016101e2565b34801561029157600080fd5b506102a56102a0366004611a00565b6106ee565b005b3480156102b357600080fd5b506102a56102c23660046119e7565b610833565b3480156102d357600080fd5b506102a56109a4565b3480156102e857600080fd5b506102fc6102f73660046119e7565b610ac9565b6040516101e29190611a9f565b34801561031557600080fd5b5060005460ff166101d6565b34801561032d57600080fd5b5061034161033c3660046119e7565b610b4e565b6040516101e29190611aad565b34801561035a57600080fd5b5061020b6103693660046119e7565b610c7a565b34801561037a57600080fd5b506102a5610cbe565b34801561038f57600080fd5b506102a561039e3660046119e7565b610de0565b3480156103af57600080fd5b506102a56103be3660046119e7565b610ec8565b3480156103cf57600080fd5b5061020b6103de3660046119e7565b611000565b3480156103ef57600080fd5b5061020b6103fe366004611c0e565b611044565b34801561040f57600080fd5b506102a561041e366004611ca2565b611173565b34801561042f57600080fd5b5061020b61043e366004611ce3565b60026020526000908152604090205481565b34801561045c57600080fd5b5061026d7f000000000000000000000000000000000000000000000000000000000000000081565b34801561049057600080fd5b506104cf61049f36600461165a565b600360209081526000928352604080842090915290825290208054600182015460029092015460ff909116919083565b6040805193151584526020840192909252908201526060016101e2565b6001600160a01b038216600090815260036020908152604080832084845290915281205460ff1615801561053857506001600160a01b0383166000908152600260205260409020548210155b90505b92915050565b6000805460ff16156105655760405162461bcd60e51b815260040161016590611d00565b600260015414156105885760405162461bcd60e51b815260040161016590611d2a565b6002600181905560408051608081018252878152602081018790526001600160a01b038616818301528415156060820152905163ef52b43b60e01b8152733B94569fb4042630E348798A634dcbaC36Fb96649263ef52b43b9261061a92600392916005916004918e917f0000000000000000000000000000000000000000000000000000000000000000908401611f3a565b602060405180830381865af4158015610637573d6000803e3d6000fd5b505050506040513d601f19601f8201168201806040525081019061065b9190611fb3565b600180559695505050505050565b600081815260056020526040808220905163b504989b60e01b815273fd3F33792675F4fa69e9B8beC41053D64eFe627a9163b504989b916106ad9190600401611fcc565b602060405180830381865af41580156106ca573d6000803e3d6000fd5b505050506040513d601f19601f8201168201806040525081019061053b9190611fb3565b8061073b5760405162461bcd60e51b815260206004820152601960248201527f424d5f43414e43454c5f43414e4e4f545f42455f454d505459000000000000006044820152606401610165565b60005b818110156107eb573360009081526002602052604090205483838381811061076857610768612111565b90506020020135101561078d5760405162461bcd60e51b815260040161016590612127565b3360009081526003602052604081206001918585858181106107b1576107b1612111565b60209081029290920135835250810191909152604001600020805460ff1916911515919091179055806107e38161217f565b91505061073e565b50336001600160a01b03167fac0004ba1a2ea62c1d6de00ade33246fa25432a7148f9e20cce8d9fea7493aa1838360405161082792919061219a565b60405180910390a25050565b600260015414156108565760405162461bcd60e51b815260040161016590611d2a565b600260015560008181526005602052604090206006015481901580159061089357506000818152600560205260409020546001600160a01b031615155b6108da5760405162461bcd60e51b8152602060048201526018602482015277424d5f434845434b5f4c4f414e5f4e4f545f45584953545360401b6044820152606401610165565b6040516306d8c6df60e01b815260056004820152602481018390526001600160a01b037f0000000000000000000000000000000000000000000000000000000000000000811660448301527f000000000000000000000000000000000000000000000000000000000000000016606482015273F39B07757A03D84C26c8FE1A3a1cD8F1e3DBe8E6906306d8c6df906084015b60006040518083038186803b15801561098457600080fd5b505af4158015610998573d6000803e3d6000fd5b50506001805550505050565b60007f00000000000000000000000000000000000000000000000000000000000000006001600160a01b0316639a9dbb996040518163ffffffff1660e01b8152600401602060405180830381865afa158015610a04573d6000803e3d6000fd5b505050506040513d601f19601f82011682018060405250810190610a2891906121e1565b90506001600160a01b038116632500f2b6336040516001600160e01b031960e084901b1681526001600160a01b039091166004820152602401602060405180830381865afa158015610a7e573d6000803e3d6000fd5b505050506040513d601f19601f82011682018060405250810190610aa29190612209565b610abe5760405162461bcd60e51b815260040161016590612226565b610ac66112a7565b50565b6000818152600560205260408082209051631057df9160e21b815273fd3F33792675F4fa69e9B8beC41053D64eFe627a9163415f7e4491610b0d9190600401611fcc565b602060405180830381865af4158015610b2a573d6000803e3d6000fd5b505050506040513d601f19601f8201168201806040525081019061053b9190612279565b610bf36040805161028081018252600080825260208201819052918101829052606081018290526080810182905260a0810182905260c0810182905260e08101829052610100810182905261012081018290526101408101829052610160810182905261018081018290526101a081018290526101c081018290526101e081018290526102008101829052610220810182905261024081018290529061026082015290565b6000828152600560205260409081902090516319e28c3360e21b815273fd3F33792675F4fa69e9B8beC41053D64eFe627a9163678a30cc91610c389190600401611fcc565b61028060405180830381865af4158015610c56573d6000803e3d6000fd5b505050506040513d601f19601f8201168201806040525081019061053b91906122aa565b600081815260056020526040808220905163ab51865d60e01b815273fd3F33792675F4fa69e9B8beC41053D64eFe627a9163ab51865d916106ad9190600401611fcc565b60007f00000000000000000000000000000000000000000000000000000000000000006001600160a01b0316639a9dbb996040518163ffffffff1660e01b8152600401602060405180830381865afa158015610d1e573d6000803e3d6000fd5b505050506040513d601f19601f82011682018060405250810190610d4291906121e1565b90506001600160a01b038116632500f2b6336040516001600160e01b031960e084901b1681526001600160a01b039091166004820152602401602060405180830381865afa158015610d98573d6000803e3d6000fd5b505050506040513d601f19601f82011682018060405250810190610dbc9190612209565b610dd85760405162461bcd60e51b815260040161016590612226565b610ac661133a565b336000908152600260205260409020548111610e0e5760405162461bcd60e51b815260040161016590612127565b33600090815260026020526040902054610e2b906207a120612403565b8110610e795760405162461bcd60e51b815260206004820152601c60248201527f424d5f43414e43454c5f43414e4e4f545f43414e43454c5f4d4f5245000000006044820152606401610165565b3360008181526002602052604090819020839055517f3472ca53ce86826d0cf2457fc20b0aadb9ff559e29da4c38e37e98fb8edd966d90610ebd9084815260200190565b60405180910390a250565b60005460ff1615610eeb5760405162461bcd60e51b815260040161016590611d00565b60026001541415610f0e5760405162461bcd60e51b815260040161016590611d2a565b6002600155600081815260056020526040902060060154819015801590610f4b57506000818152600560205260409020546001600160a01b031615155b610f925760405162461bcd60e51b8152602060048201526018602482015277424d5f434845434b5f4c4f414e5f4e4f545f45584953545360401b6044820152606401610165565b604051635430170f60e11b815260056004820152602481018390526001600160a01b037f0000000000000000000000000000000000000000000000000000000000000000166044820152733f2548568e2052B255187A3bD957a15d34d78B8c9063a8602e1e9060640161096c565b6000818152600560205260408082209051634560096360e11b815273fd3F33792675F4fa69e9B8beC41053D64eFe627a91638ac012c6916106ad9190600401611fcc565b6000805460ff16156110685760405162461bcd60e51b815260040161016590611d00565b6002600154141561108b5760405162461bcd60e51b815260040161016590611d2a565b600260018190556040805160a081018252878152602081018790528082018990526001600160a01b038616606082015260808101859052905163d28ce47360e01b815273b70FFde68d6D6779BC34D7429Dcc6F73d137fF899263d28ce4739261112392600392916005916004918f917f000000000000000000000000000000000000000000000000000000000000000090840161241b565b602060405180830381865af4158015611140573d6000803e3d6000fd5b505050506040513d601f19601f820116820180604052508101906111649190611fb3565b60018055979650505050505050565b60007f00000000000000000000000000000000000000000000000000000000000000006001600160a01b0316639a9dbb996040518163ffffffff1660e01b8152600401602060405180830381865afa1580156111d3573d6000803e3d6000fd5b505050506040513d601f19601f820116820180604052508101906111f791906121e1565b90506001600160a01b038116632500f2b6336040516001600160e01b031960e084901b1681526001600160a01b039091166004820152602401602060405180830381865afa15801561124d573d6000803e3d6000fd5b505050506040513d601f19601f820116820180604052508101906112719190612209565b61128d5760405162461bcd60e51b815260040161016590612226565b6112a16001600160a01b0385168484611392565b50505050565b60005460ff166112f05760405162461bcd60e51b815260206004820152601460248201527314185d5cd8589b194e881b9bdd081c185d5cd95960621b6044820152606401610165565b6000805460ff191690557f5db9ee0a495bf2e6ff9c91a7834c1ba4fdd244a5e8aa4e537bd38aeae4b073aa335b6040516001600160a01b03909116815260200160405180910390a1565b60005460ff161561135d5760405162461bcd60e51b815260040161016590611d00565b6000805460ff191660011790557f62e78cea01bee320cd4e420270b5ea74000d11b0c9f74754ebdbfc544b05a25861131d3390565b604080516001600160a01b038416602482015260448082018490528251808303909101815260649091019091526020810180516001600160e01b031663a9059cbb60e01b1790526113e49084906113e9565b505050565b600061143e826040518060400160405280602081526020017f5361666545524332303a206c6f772d6c6576656c2063616c6c206661696c6564815250856001600160a01b03166114bb9092919063ffffffff16565b8051909150156113e4578080602001905181019061145c9190612209565b6113e45760405162461bcd60e51b815260206004820152602a60248201527f5361666545524332303a204552433230206f7065726174696f6e20646964206e6044820152691bdd081cdd58d8d9595960b21b6064820152608401610165565b60606114ca84846000856114d4565b90505b9392505050565b6060824710156115355760405162461bcd60e51b815260206004820152602660248201527f416464726573733a20696e73756666696369656e742062616c616e636520666f6044820152651c8818d85b1b60d21b6064820152608401610165565b843b6115835760405162461bcd60e51b815260206004820152601d60248201527f416464726573733a2063616c6c20746f206e6f6e2d636f6e74726163740000006044820152606401610165565b600080866001600160a01b0316858760405161159f91906124ae565b60006040518083038185875af1925050503d80600081146115dc576040519150601f19603f3d011682016040523d82523d6000602084013e6115e1565b606091505b50915091506115f18282866115fc565b979650505050505050565b6060831561160b5750816114cd565b82511561161b5782518084602001fd5b8160405162461bcd60e51b815260040161016591906124ca565b6001600160a01b0381168114610ac657600080fd5b803561165581611635565b919050565b6000806040838503121561166d57600080fd5b823561167881611635565b946020939093013593505050565b634e487b7160e01b600052604160045260246000fd5b6040516102c0810167ffffffffffffffff811182821017156116c0576116c0611686565b60405290565b604051610280810167ffffffffffffffff811182821017156116c0576116c0611686565b8015158114610ac657600080fd5b8035611655816116ea565b80356002811061165557600080fd5b64ffffffffff81168114610ac657600080fd5b803561165581611712565b6001600160801b0381168114610ac657600080fd5b803561165581611730565b600082601f83011261176157600080fd5b813567ffffffffffffffff8082111561177c5761177c611686565b604051601f8301601f19908116603f011681019082821181831017156117a4576117a4611686565b816040528381528660208588010111156117bd57600080fd5b836020870160208301376000602085830101528094505050505092915050565b803560ff8116811461165557600080fd5b60006102c0828403121561180157600080fd5b61180961169c565b9050611814826116f8565b8152611822602083016116f8565b602082015261183360408301611703565b60408201526118446060830161164a565b60608201526080820135608082015260a082013560a082015261186960c0830161164a565b60c082015260e082013560e0820152610100808301358183015250610120611892818401611725565b908201526101406118a4838201611725565b908201526101606118b6838201611745565b908201526101806118c883820161164a565b908201526101a06118da83820161164a565b908201526101c082810135908201526101e08083013590820152610200808301359082015261022061190d81840161164a565b908201526102408281013567ffffffffffffffff81111561192d57600080fd5b61193985828601611750565b82840152505061026061194d8184016117dd565b9082015261028082810135908201526102a09182013591810191909152919050565b600080600080600060a0868803121561198757600080fd5b853567ffffffffffffffff81111561199e57600080fd5b6119aa888289016117ee565b955050602086013593506040860135925060608601356119c981611635565b915060808601356119d9816116ea565b809150509295509295909350565b6000602082840312156119f957600080fd5b5035919050565b60008060208385031215611a1357600080fd5b823567ffffffffffffffff80821115611a2b57600080fd5b818501915085601f830112611a3f57600080fd5b813581811115611a4e57600080fd5b8660208260051b8501011115611a6357600080fd5b60209290920196919550909350505050565b634e487b7160e01b600052602160045260246000fd5b60048110611a9b57611a9b611a75565b9052565b6020810161053b8284611a8b565b81516001600160a01b03168152610280810160208301516020830152604083015160408301526060830151611aed60608401826001600160a01b03169052565b506080830151611b0860808401826001600160a01b03169052565b5060a0830151611b2360a08401826001600160a01b03169052565b5060c083015160c083015260e0830151611b4860e08401826001600160801b03169052565b50610100838101516001600160801b031690830152610120808401516001600160a01b03908116918401919091526101408085015190911690830152610160808401519083015261018080840151908301526101a08084015164ffffffffff908116918401919091526101c0808501518216908401526101e0808501518216908401526102008085015190911690830152610220808401511515908301526102408084015115159083015261026080840151611c0682850182611a8b565b505092915050565b60008060008060008060c08789031215611c2757600080fd5b863567ffffffffffffffff80821115611c3f57600080fd5b611c4b8a838b016117ee565b975060208901359650604089013595506060890135945060808901359150611c7282611635565b90925060a08801359080821115611c8857600080fd5b50611c9589828a01611750565b9150509295509295509295565b600080600060608486031215611cb757600080fd5b8335611cc281611635565b92506020840135611cd281611635565b929592945050506040919091013590565b600060208284031215611cf557600080fd5b81356114cd81611635565b60208082526010908201526f14185d5cd8589b194e881c185d5cd95960821b604082015260600190565b6020808252601f908201527f5265656e7472616e637947756172643a207265656e7472616e742063616c6c00604082015260600190565b60028110611a9b57611a9b611a75565b60005b83811015611d8c578181015183820152602001611d74565b838111156112a15750506000910152565b60008151808452611db5816020860160208601611d71565b601f01601f19169290920160200192915050565b80511515825260006102c06020830151611de7602086018215159052565b506040830151611dfa6040860182611d61565b506060830151611e1560608601826001600160a01b03169052565b506080830151608085015260a083015160a085015260c0830151611e4460c08601826001600160a01b03169052565b5060e0838101519085015261010080840151908501526101208084015164ffffffffff908116918601919091526101408085015190911690850152610160808401516001600160801b031690850152610180808401516001600160a01b03908116918601919091526101a0808501518216908601526101c080850151908601526101e080850151908601526102008085015190860152610220808501519091169085015261024080840151818601839052611f0183870182611d9d565b9250505061026080840151611f1a8287018260ff169052565b505061028083810151908501526102a09283015192909301919091525090565b6000610140898352886020840152876040840152866060840152806080840152611f6681840187611dc9565b855160a0850152602086015160c085015260408601516001600160a01b0390811660e086015260609096015115156101008501529390941661012090920191909152509695505050505050565b600060208284031215611fc557600080fd5b5051919050565b81546001600160a01b031681526102808101600183015460208301526002830154604083015260038301546001600160a01b039081166060840152600484015481166080808501919091526005850154821660a0850152600685015460c085015260078501546001600160801b03811660e0860152901c61010084015260088401548116610120840152600984015416610140830152600a830154610160830152600b830154610180830152600c83015464ffffffffff8082166101a0850152602882901c81166101c08501526120b26101e08501828460501c1664ffffffffff169052565b6120cb6102008501828460781c1664ffffffffff169052565b506120e1610220840160ff8360a01c1615159052565b6120f6610240840160ff8360a81c1615159052565b61210a610260840160ff8360b01c16611a8b565b5092915050565b634e487b7160e01b600052603260045260246000fd5b60208082526022908201527f424d5f43414e43454c5f4e4f4e43455f4c4f5745525f5448414e5f4355525245604082015261139560f21b606082015260800190565b634e487b7160e01b600052601160045260246000fd5b600060001982141561219357612193612169565b5060010190565b6020808252810182905260006001600160fb1b038311156121ba57600080fd5b8260051b80856040850137600092016040019182525092915050565b805161165581611635565b6000602082840312156121f357600080fd5b81516114cd81611635565b8051611655816116ea565b60006020828403121561221b57600080fd5b81516114cd816116ea565b60208082526024908201527f424d5f41434c5f4f4e4c595f454d455247454e43595f41444d494e5f43414e5f60408201526310d0531360e21b606082015260800190565b80516004811061165557600080fd5b60006020828403121561228b57600080fd5b6105388261226a565b805161165581611730565b805161165581611712565b600061028082840312156122bd57600080fd5b6122c56116c6565b6122ce836121d6565b815260208301516020820152604083015160408201526122f0606084016121d6565b6060820152612301608084016121d6565b608082015261231260a084016121d6565b60a082015260c083015160c082015261232d60e08401612294565b60e0820152610100612340818501612294565b908201526101206123528482016121d6565b908201526101406123648482016121d6565b90820152610160838101519082015261018080840151908201526101a061238c81850161229f565b908201526101c061239e84820161229f565b908201526101e06123b084820161229f565b908201526102006123c284820161229f565b908201526102206123d48482016121fe565b908201526102406123e68482016121fe565b908201526102606123f884820161226a565b908201529392505050565b6000821982111561241657612416612169565b500190565b87815286602082015285604082015284606082015260e06080820152600061244660e0830186611dc9565b82810360a0840152845181526020850151602082015260408501516040820152606085015160018060a01b0380821660608401526080870151915060a0608084015261249560a0840183611d9d565b935080861660c086015250505098975050505050505050565b600082516124c0818460208701611d71565b9190910192915050565b6020815260006105386020830184611d9d56fea264697066735822122082dafafadd924e87fd3f7a80b3d0f2d8b0105792d26a4a5b642ccad6ff6285f364736f6c634300080a0033",
  "deployedBytecode": "0x6080604052600436106101235760003560e01c80636b52b365116100a0578063a2b8fe8711610064578063a2b8fe87146103e3578063a3d5b25514610403578063aa99fa9814610423578063ade97ab514610450578063febcc680146104845761016e565b80636b52b3651461034e5780638456cb591461036e57806384e5cec5146103835780638bf1badd146103a357806396e59682146103c35761016e565b8063371fd8e6116100e7578063371fd8e6146102a75780633f4ba83a146102c75780635c622a0e146102dc5780635c975abb14610309578063622fe39f146103215761016e565b80630647ee20146101b657806319ef8c33146101eb5780631c1874951461021957806329c55f06146102395780632f844ea8146102855761016e565b3661016e5760405162461bcd60e51b8152602060048201526016602482015275109357d49150d152559157d393d517d0531313d5d15160521b60448201526064015b60405180910390fd5b60405162461bcd60e51b815260206004820152601760248201527f424d5f46414c4c4241434b5f4e4f545f414c4c4f5745440000000000000000006044820152606401610165565b3480156101c257600080fd5b506101d66101d136600461165a565b6104ec565b60405190151581526020015b60405180910390f35b3480156101f757600080fd5b5061020b61020636600461196f565b610541565b6040519081526020016101e2565b34801561022557600080fd5b5061020b6102343660046119e7565b610669565b34801561024557600080fd5b5061026d7f000000000000000000000000000000000000000000000000000000000000000081565b6040516001600160a01b0390911681526020016101e2565b34801561029157600080fd5b506102a56102a0366004611a00565b6106ee565b005b3480156102b357600080fd5b506102a56102c23660046119e7565b610833565b3480156102d357600080fd5b506102a56109a4565b3480156102e857600080fd5b506102fc6102f73660046119e7565b610ac9565b6040516101e29190611a9f565b34801561031557600080fd5b5060005460ff166101d6565b34801561032d57600080fd5b5061034161033c3660046119e7565b610b4e565b6040516101e29190611aad565b34801561035a57600080fd5b5061020b6103693660046119e7565b610c7a565b34801561037a57600080fd5b506102a5610cbe565b34801561038f57600080fd5b506102a561039e3660046119e7565b610de0565b3480156103af57600080fd5b506102a56103be3660046119e7565b610ec8565b3480156103cf57600080fd5b5061020b6103de3660046119e7565b611000565b3480156103ef57600080fd5b5061020b6103fe366004611c0e565b611044565b34801561040f57600080fd5b506102a561041e366004611ca2565b611173565b34801561042f57600080fd5b5061020b61043e366004611ce3565b60026020526000908152604090205481565b34801561045c57600080fd5b5061026d7f000000000000000000000000000000000000000000000000000000000000000081565b34801561049057600080fd5b506104cf61049f36600461165a565b600360209081526000928352604080842090915290825290208054600182015460029092015460ff909116919083565b6040805193151584526020840192909252908201526060016101e2565b6001600160a01b038216600090815260036020908152604080832084845290915281205460ff1615801561053857506001600160a01b0383166000908152600260205260409020548210155b90505b92915050565b6000805460ff16156105655760405162461bcd60e51b815260040161016590611d00565b600260015414156105885760405162461bcd60e51b815260040161016590611d2a565b6002600181905560408051608081018252878152602081018790526001600160a01b038616818301528415156060820152905163ef52b43b60e01b815273__$d034307112fbb42c17024cd888eeadb556$__9263ef52b43b9261061a92600392916005916004918e917f0000000000000000000000000000000000000000000000000000000000000000908401611f3a565b602060405180830381865af4158015610637573d6000803e3d6000fd5b505050506040513d601f19601f8201168201806040525081019061065b9190611fb3565b600180559695505050505050565b600081815260056020526040808220905163b504989b60e01b815273__$99340bd5a7874738aefb18e7cdd0ba78ce$__9163b504989b916106ad9190600401611fcc565b602060405180830381865af41580156106ca573d6000803e3d6000fd5b505050506040513d601f19601f8201168201806040525081019061053b9190611fb3565b8061073b5760405162461bcd60e51b815260206004820152601960248201527f424d5f43414e43454c5f43414e4e4f545f42455f454d505459000000000000006044820152606401610165565b60005b818110156107eb573360009081526002602052604090205483838381811061076857610768612111565b90506020020135101561078d5760405162461bcd60e51b815260040161016590612127565b3360009081526003602052604081206001918585858181106107b1576107b1612111565b60209081029290920135835250810191909152604001600020805460ff1916911515919091179055806107e38161217f565b91505061073e565b50336001600160a01b03167fac0004ba1a2ea62c1d6de00ade33246fa25432a7148f9e20cce8d9fea7493aa1838360405161082792919061219a565b60405180910390a25050565b600260015414156108565760405162461bcd60e51b815260040161016590611d2a565b600260015560008181526005602052604090206006015481901580159061089357506000818152600560205260409020546001600160a01b031615155b6108da5760405162461bcd60e51b8152602060048201526018602482015277424d5f434845434b5f4c4f414e5f4e4f545f45584953545360401b6044820152606401610165565b6040516306d8c6df60e01b815260056004820152602481018390526001600160a01b037f0000000000000000000000000000000000000000000000000000000000000000811660448301527f000000000000000000000000000000000000000000000000000000000000000016606482015273__$cb2d98c3e8fdb912f01fe366012ef33d45$__906306d8c6df906084015b60006040518083038186803b15801561098457600080fd5b505af4158015610998573d6000803e3d6000fd5b50506001805550505050565b60007f00000000000000000000000000000000000000000000000000000000000000006001600160a01b0316639a9dbb996040518163ffffffff1660e01b8152600401602060405180830381865afa158015610a04573d6000803e3d6000fd5b505050506040513d601f19601f82011682018060405250810190610a2891906121e1565b90506001600160a01b038116632500f2b6336040516001600160e01b031960e084901b1681526001600160a01b039091166004820152602401602060405180830381865afa158015610a7e573d6000803e3d6000fd5b505050506040513d601f19601f82011682018060405250810190610aa29190612209565b610abe5760405162461bcd60e51b815260040161016590612226565b610ac66112a7565b50565b6000818152600560205260408082209051631057df9160e21b815273__$99340bd5a7874738aefb18e7cdd0ba78ce$__9163415f7e4491610b0d9190600401611fcc565b602060405180830381865af4158015610b2a573d6000803e3d6000fd5b505050506040513d601f19601f8201168201806040525081019061053b9190612279565b610bf36040805161028081018252600080825260208201819052918101829052606081018290526080810182905260a0810182905260c0810182905260e08101829052610100810182905261012081018290526101408101829052610160810182905261018081018290526101a081018290526101c081018290526101e081018290526102008101829052610220810182905261024081018290529061026082015290565b6000828152600560205260409081902090516319e28c3360e21b815273__$99340bd5a7874738aefb18e7cdd0ba78ce$__9163678a30cc91610c389190600401611fcc565b61028060405180830381865af4158015610c56573d6000803e3d6000fd5b505050506040513d601f19601f8201168201806040525081019061053b91906122aa565b600081815260056020526040808220905163ab51865d60e01b815273__$99340bd5a7874738aefb18e7cdd0ba78ce$__9163ab51865d916106ad9190600401611fcc565b60007f00000000000000000000000000000000000000000000000000000000000000006001600160a01b0316639a9dbb996040518163ffffffff1660e01b8152600401602060405180830381865afa158015610d1e573d6000803e3d6000fd5b505050506040513d601f19601f82011682018060405250810190610d4291906121e1565b90506001600160a01b038116632500f2b6336040516001600160e01b031960e084901b1681526001600160a01b039091166004820152602401602060405180830381865afa158015610d98573d6000803e3d6000fd5b505050506040513d601f19601f82011682018060405250810190610dbc9190612209565b610dd85760405162461bcd60e51b815260040161016590612226565b610ac661133a565b336000908152600260205260409020548111610e0e5760405162461bcd60e51b815260040161016590612127565b33600090815260026020526040902054610e2b906207a120612403565b8110610e795760405162461bcd60e51b815260206004820152601c60248201527f424d5f43414e43454c5f43414e4e4f545f43414e43454c5f4d4f5245000000006044820152606401610165565b3360008181526002602052604090819020839055517f3472ca53ce86826d0cf2457fc20b0aadb9ff559e29da4c38e37e98fb8edd966d90610ebd9084815260200190565b60405180910390a250565b60005460ff1615610eeb5760405162461bcd60e51b815260040161016590611d00565b60026001541415610f0e5760405162461bcd60e51b815260040161016590611d2a565b6002600155600081815260056020526040902060060154819015801590610f4b57506000818152600560205260409020546001600160a01b031615155b610f925760405162461bcd60e51b8152602060048201526018602482015277424d5f434845434b5f4c4f414e5f4e4f545f45584953545360401b6044820152606401610165565b604051635430170f60e11b815260056004820152602481018390526001600160a01b037f000000000000000000000000000000000000000000000000000000000000000016604482015273__$6adc9fc567591ef512536f539e32424d55$__9063a8602e1e9060640161096c565b6000818152600560205260408082209051634560096360e11b815273__$99340bd5a7874738aefb18e7cdd0ba78ce$__91638ac012c6916106ad9190600401611fcc565b6000805460ff16156110685760405162461bcd60e51b815260040161016590611d00565b6002600154141561108b5760405162461bcd60e51b815260040161016590611d2a565b600260018190556040805160a081018252878152602081018790528082018990526001600160a01b038616606082015260808101859052905163d28ce47360e01b815273__$f2bbf53d856d978c1f5e4330933069481a$__9263d28ce4739261112392600392916005916004918f917f000000000000000000000000000000000000000000000000000000000000000090840161241b565b602060405180830381865af4158015611140573d6000803e3d6000fd5b505050506040513d601f19601f820116820180604052508101906111649190611fb3565b60018055979650505050505050565b60007f00000000000000000000000000000000000000000000000000000000000000006001600160a01b0316639a9dbb996040518163ffffffff1660e01b8152600401602060405180830381865afa1580156111d3573d6000803e3d6000fd5b505050506040513d601f19601f820116820180604052508101906111f791906121e1565b90506001600160a01b038116632500f2b6336040516001600160e01b031960e084901b1681526001600160a01b039091166004820152602401602060405180830381865afa15801561124d573d6000803e3d6000fd5b505050506040513d601f19601f820116820180604052508101906112719190612209565b61128d5760405162461bcd60e51b815260040161016590612226565b6112a16001600160a01b0385168484611392565b50505050565b60005460ff166112f05760405162461bcd60e51b815260206004820152601460248201527314185d5cd8589b194e881b9bdd081c185d5cd95960621b6044820152606401610165565b6000805460ff191690557f5db9ee0a495bf2e6ff9c91a7834c1ba4fdd244a5e8aa4e537bd38aeae4b073aa335b6040516001600160a01b03909116815260200160405180910390a1565b60005460ff161561135d5760405162461bcd60e51b815260040161016590611d00565b6000805460ff191660011790557f62e78cea01bee320cd4e420270b5ea74000d11b0c9f74754ebdbfc544b05a25861131d3390565b604080516001600160a01b038416602482015260448082018490528251808303909101815260649091019091526020810180516001600160e01b031663a9059cbb60e01b1790526113e49084906113e9565b505050565b600061143e826040518060400160405280602081526020017f5361666545524332303a206c6f772d6c6576656c2063616c6c206661696c6564815250856001600160a01b03166114bb9092919063ffffffff16565b8051909150156113e4578080602001905181019061145c9190612209565b6113e45760405162461bcd60e51b815260206004820152602a60248201527f5361666545524332303a204552433230206f7065726174696f6e20646964206e6044820152691bdd081cdd58d8d9595960b21b6064820152608401610165565b60606114ca84846000856114d4565b90505b9392505050565b6060824710156115355760405162461bcd60e51b815260206004820152602660248201527f416464726573733a20696e73756666696369656e742062616c616e636520666f6044820152651c8818d85b1b60d21b6064820152608401610165565b843b6115835760405162461bcd60e51b815260206004820152601d60248201527f416464726573733a2063616c6c20746f206e6f6e2d636f6e74726163740000006044820152606401610165565b600080866001600160a01b0316858760405161159f91906124ae565b60006040518083038185875af1925050503d80600081146115dc576040519150601f19603f3d011682016040523d82523d6000602084013e6115e1565b606091505b50915091506115f18282866115fc565b979650505050505050565b6060831561160b5750816114cd565b82511561161b5782518084602001fd5b8160405162461bcd60e51b815260040161016591906124ca565b6001600160a01b0381168114610ac657600080fd5b803561165581611635565b919050565b6000806040838503121561166d57600080fd5b823561167881611635565b946020939093013593505050565b634e487b7160e01b600052604160045260246000fd5b6040516102c0810167ffffffffffffffff811182821017156116c0576116c0611686565b60405290565b604051610280810167ffffffffffffffff811182821017156116c0576116c0611686565b8015158114610ac657600080fd5b8035611655816116ea565b80356002811061165557600080fd5b64ffffffffff81168114610ac657600080fd5b803561165581611712565b6001600160801b0381168114610ac657600080fd5b803561165581611730565b600082601f83011261176157600080fd5b813567ffffffffffffffff8082111561177c5761177c611686565b604051601f8301601f19908116603f011681019082821181831017156117a4576117a4611686565b816040528381528660208588010111156117bd57600080fd5b836020870160208301376000602085830101528094505050505092915050565b803560ff8116811461165557600080fd5b60006102c0828403121561180157600080fd5b61180961169c565b9050611814826116f8565b8152611822602083016116f8565b602082015261183360408301611703565b60408201526118446060830161164a565b60608201526080820135608082015260a082013560a082015261186960c0830161164a565b60c082015260e082013560e0820152610100808301358183015250610120611892818401611725565b908201526101406118a4838201611725565b908201526101606118b6838201611745565b908201526101806118c883820161164a565b908201526101a06118da83820161164a565b908201526101c082810135908201526101e08083013590820152610200808301359082015261022061190d81840161164a565b908201526102408281013567ffffffffffffffff81111561192d57600080fd5b61193985828601611750565b82840152505061026061194d8184016117dd565b9082015261028082810135908201526102a09182013591810191909152919050565b600080600080600060a0868803121561198757600080fd5b853567ffffffffffffffff81111561199e57600080fd5b6119aa888289016117ee565b955050602086013593506040860135925060608601356119c981611635565b915060808601356119d9816116ea565b809150509295509295909350565b6000602082840312156119f957600080fd5b5035919050565b60008060208385031215611a1357600080fd5b823567ffffffffffffffff80821115611a2b57600080fd5b818501915085601f830112611a3f57600080fd5b813581811115611a4e57600080fd5b8660208260051b8501011115611a6357600080fd5b60209290920196919550909350505050565b634e487b7160e01b600052602160045260246000fd5b60048110611a9b57611a9b611a75565b9052565b6020810161053b8284611a8b565b81516001600160a01b03168152610280810160208301516020830152604083015160408301526060830151611aed60608401826001600160a01b03169052565b506080830151611b0860808401826001600160a01b03169052565b5060a0830151611b2360a08401826001600160a01b03169052565b5060c083015160c083015260e0830151611b4860e08401826001600160801b03169052565b50610100838101516001600160801b031690830152610120808401516001600160a01b03908116918401919091526101408085015190911690830152610160808401519083015261018080840151908301526101a08084015164ffffffffff908116918401919091526101c0808501518216908401526101e0808501518216908401526102008085015190911690830152610220808401511515908301526102408084015115159083015261026080840151611c0682850182611a8b565b505092915050565b60008060008060008060c08789031215611c2757600080fd5b863567ffffffffffffffff80821115611c3f57600080fd5b611c4b8a838b016117ee565b975060208901359650604089013595506060890135945060808901359150611c7282611635565b90925060a08801359080821115611c8857600080fd5b50611c9589828a01611750565b9150509295509295509295565b600080600060608486031215611cb757600080fd5b8335611cc281611635565b92506020840135611cd281611635565b929592945050506040919091013590565b600060208284031215611cf557600080fd5b81356114cd81611635565b60208082526010908201526f14185d5cd8589b194e881c185d5cd95960821b604082015260600190565b6020808252601f908201527f5265656e7472616e637947756172643a207265656e7472616e742063616c6c00604082015260600190565b60028110611a9b57611a9b611a75565b60005b83811015611d8c578181015183820152602001611d74565b838111156112a15750506000910152565b60008151808452611db5816020860160208601611d71565b601f01601f19169290920160200192915050565b80511515825260006102c06020830151611de7602086018215159052565b506040830151611dfa6040860182611d61565b506060830151611e1560608601826001600160a01b03169052565b506080830151608085015260a083015160a085015260c0830151611e4460c08601826001600160a01b03169052565b5060e0838101519085015261010080840151908501526101208084015164ffffffffff908116918601919091526101408085015190911690850152610160808401516001600160801b031690850152610180808401516001600160a01b03908116918601919091526101a0808501518216908601526101c080850151908601526101e080850151908601526102008085015190860152610220808501519091169085015261024080840151818601839052611f0183870182611d9d565b9250505061026080840151611f1a8287018260ff169052565b505061028083810151908501526102a09283015192909301919091525090565b6000610140898352886020840152876040840152866060840152806080840152611f6681840187611dc9565b855160a0850152602086015160c085015260408601516001600160a01b0390811660e086015260609096015115156101008501529390941661012090920191909152509695505050505050565b600060208284031215611fc557600080fd5b5051919050565b81546001600160a01b031681526102808101600183015460208301526002830154604083015260038301546001600160a01b039081166060840152600484015481166080808501919091526005850154821660a0850152600685015460c085015260078501546001600160801b03811660e0860152901c61010084015260088401548116610120840152600984015416610140830152600a830154610160830152600b830154610180830152600c83015464ffffffffff8082166101a0850152602882901c81166101c08501526120b26101e08501828460501c1664ffffffffff169052565b6120cb6102008501828460781c1664ffffffffff169052565b506120e1610220840160ff8360a01c1615159052565b6120f6610240840160ff8360a81c1615159052565b61210a610260840160ff8360b01c16611a8b565b5092915050565b634e487b7160e01b600052603260045260246000fd5b60208082526022908201527f424d5f43414e43454c5f4e4f4e43455f4c4f5745525f5448414e5f4355525245604082015261139560f21b606082015260800190565b634e487b7160e01b600052601160045260246000fd5b600060001982141561219357612193612169565b5060010190565b6020808252810182905260006001600160fb1b038311156121ba57600080fd5b8260051b80856040850137600092016040019182525092915050565b805161165581611635565b6000602082840312156121f357600080fd5b81516114cd81611635565b8051611655816116ea565b60006020828403121561221b57600080fd5b81516114cd816116ea565b60208082526024908201527f424d5f41434c5f4f4e4c595f454d455247454e43595f41444d494e5f43414e5f60408201526310d0531360e21b606082015260800190565b80516004811061165557600080fd5b60006020828403121561228b57600080fd5b6105388261226a565b805161165581611730565b805161165581611712565b600061028082840312156122bd57600080fd5b6122c56116c6565b6122ce836121d6565b815260208301516020820152604083015160408201526122f0606084016121d6565b6060820152612301608084016121d6565b608082015261231260a084016121d6565b60a082015260c083015160c082015261232d60e08401612294565b60e0820152610100612340818501612294565b908201526101206123528482016121d6565b908201526101406123648482016121d6565b90820152610160838101519082015261018080840151908201526101a061238c81850161229f565b908201526101c061239e84820161229f565b908201526101e06123b084820161229f565b908201526102006123c284820161229f565b908201526102206123d48482016121fe565b908201526102406123e68482016121fe565b908201526102606123f884820161226a565b908201529392505050565b6000821982111561241657612416612169565b500190565b87815286602082015285604082015284606082015260e06080820152600061244660e0830186611dc9565b82810360a0840152845181526020850151602082015260408501516040820152606085015160018060a01b0380821660608401526080870151915060a0608084015261249560a0840183611d9d565b935080861660c086015250505098975050505050505050565b600082516124c0818460208701611d71565b9190910192915050565b6020815260006105386020830184611d9d56fea264697066735822122082dafafadd924e87fd3f7a80b3d0f2d8b0105792d26a4a5b642ccad6ff6285f364736f6c634300080a0033",
  "libraries": {
    "BespokeTypes": "0x057AEc26BA4EdD466A8A61A08804eA931BBD8C58",
    "BespokeLogic": "0xfd3F33792675F4fa69e9B8beC41053D64eFe627a",
    "TakeLendOfferLogic": "0xb70FFde68d6D6779BC34D7429Dcc6F73d137fF89",
    "TakeBorrowOfferLogic": "0x3B94569fb4042630E348798A634dcbaC36Fb9664",
    "ForecloseLogic": "0x3f2548568e2052B255187A3bD957a15d34d78B8c",
    "RepayLogic": "0xF39B07757A03D84C26c8FE1A3a1cD8F1e3DBe8E6"
  },
  "devdoc": {
    "author": "OpenSky Labs",
    "kind": "dev",
    "methods": {
      "cancelAllBorrowOffersForSender(uint256)": {
        "params": {
          "minNonce_": "minimum user nonce"
        }
      },
      "cancelMultipleBorrowOffers(uint256[])": {
        "params": {
          "offerNonces": "array of borrowOffer nonces"
        }
      },
      "emergencyTokenTransfer(address,address,uint256)": {
        "details": "transfer ERC20 from the utility contract, for ERC20 recovery in case of stuck tokens due direct transfers to the contract address.",
        "params": {
          "amount": "amount to send",
          "to": "recipient of the transfer",
          "token": "token to transfer"
        }
      },
      "pause()": {
        "details": "Pause pool for emergency case, can only be called by emergency admin."
      },
      "paused()": {
        "details": "Returns true if the contract is paused, and false otherwise."
      },
      "unpause()": {
        "details": "Unpause pool for emergency case, can only be called by emergency admin."
      }
    },
    "title": "OpenSkyBespokeMarket contract",
    "version": 1
  },
  "userdoc": {
    "kind": "user",
    "methods": {
      "cancelAllBorrowOffersForSender(uint256)": {
        "notice": "Cancel all pending offers for a sender"
      },
      "foreclose(uint256)": {
        "notice": "anyone can trigger but only OpenSkyLendNFT owner can receive collaterial"
      },
      "repay(uint256)": {
        "notice": "Anyone can repay but only OpenSkyBorrowNFT owner receive collaterialOnly OpenSkyLendNFT owner can recieve the paymentThis function is not pausable for safety"
      },
      "takeBorrowOffer((bool,bool,uint8,address,uint256,uint256,address,uint256,uint256,uint40,uint40,uint128,address,address,uint256,uint256,uint256,address,bytes,uint8,bytes32,bytes32),uint256,uint256,address,bool)": {
        "notice": "take an borrowing offer using ERC20 include ERC20"
      }
    },
    "notice": "Main point of interaction with OpenSky protocol's bespoke market - Users can:   # takeBorrowOffer   # takeLendOffer   # repay   # foreclose*",
    "version": 1
  },
  "storageLayout": {
    "storage": [
      {
        "astId": 1294,
        "contract": "contracts/bespokemarket/OpenSkyBespokeMarket.sol:OpenSkyBespokeMarket",
        "label": "_paused",
        "offset": 0,
        "slot": "0",
        "type": "t_bool"
      },
      {
        "astId": 1379,
        "contract": "contracts/bespokemarket/OpenSkyBespokeMarket.sol:OpenSkyBespokeMarket",
        "label": "_status",
        "offset": 0,
        "slot": "1",
        "type": "t_uint256"
      },
      {
        "astId": 12761,
        "contract": "contracts/bespokemarket/OpenSkyBespokeMarket.sol:OpenSkyBespokeMarket",
        "label": "minNonce",
        "offset": 0,
        "slot": "2",
        "type": "t_mapping(t_address,t_uint256)"
      },
      {
        "astId": 12768,
        "contract": "contracts/bespokemarket/OpenSkyBespokeMarket.sol:OpenSkyBespokeMarket",
        "label": "_nonce",
        "offset": 0,
        "slot": "3",
        "type": "t_mapping(t_address,t_mapping(t_uint256,t_struct(NonceInfo)15761_storage))"
      },
      {
        "astId": 12771,
        "contract": "contracts/bespokemarket/OpenSkyBespokeMarket.sol:OpenSkyBespokeMarket",
        "label": "_loanIdTracker",
        "offset": 0,
        "slot": "4",
        "type": "t_struct(Counter)15754_storage"
      },
      {
        "astId": 12776,
        "contract": "contracts/bespokemarket/OpenSkyBespokeMarket.sol:OpenSkyBespokeMarket",
        "label": "_loans",
        "offset": 0,
        "slot": "5",
        "type": "t_mapping(t_uint256,t_struct(LoanData)15707_storage)"
      }
    ],
    "types": {
      "t_address": {
        "encoding": "inplace",
        "label": "address",
        "numberOfBytes": "20"
      },
      "t_bool": {
        "encoding": "inplace",
        "label": "bool",
        "numberOfBytes": "1"
      },
      "t_bytes32": {
        "encoding": "inplace",
        "label": "bytes32",
        "numberOfBytes": "32"
      },
      "t_enum(LoanStatus)15742": {
        "encoding": "inplace",
        "label": "enum BespokeTypes.LoanStatus",
        "numberOfBytes": "1"
      },
      "t_mapping(t_address,t_mapping(t_uint256,t_struct(NonceInfo)15761_storage))": {
        "encoding": "mapping",
        "key": "t_address",
        "label": "mapping(address => mapping(uint256 => struct BespokeTypes.NonceInfo))",
        "numberOfBytes": "32",
        "value": "t_mapping(t_uint256,t_struct(NonceInfo)15761_storage)"
      },
      "t_mapping(t_address,t_uint256)": {
        "encoding": "mapping",
        "key": "t_address",
        "label": "mapping(address => uint256)",
        "numberOfBytes": "32",
        "value": "t_uint256"
      },
      "t_mapping(t_uint256,t_struct(LoanData)15707_storage)": {
        "encoding": "mapping",
        "key": "t_uint256",
        "label": "mapping(uint256 => struct BespokeTypes.LoanData)",
        "numberOfBytes": "32",
        "value": "t_struct(LoanData)15707_storage"
      },
      "t_mapping(t_uint256,t_struct(NonceInfo)15761_storage)": {
        "encoding": "mapping",
        "key": "t_uint256",
        "label": "mapping(uint256 => struct BespokeTypes.NonceInfo)",
        "numberOfBytes": "32",
        "value": "t_struct(NonceInfo)15761_storage"
      },
      "t_struct(Counter)15754_storage": {
        "encoding": "inplace",
        "label": "struct BespokeTypes.Counter",
        "members": [
          {
            "astId": 15753,
            "contract": "contracts/bespokemarket/OpenSkyBespokeMarket.sol:OpenSkyBespokeMarket",
            "label": "_value",
            "offset": 0,
            "slot": "0",
            "type": "t_uint256"
          }
        ],
        "numberOfBytes": "32"
      },
      "t_struct(LoanData)15707_storage": {
        "encoding": "inplace",
        "label": "struct BespokeTypes.LoanData",
        "members": [
          {
            "astId": 15667,
            "contract": "contracts/bespokemarket/OpenSkyBespokeMarket.sol:OpenSkyBespokeMarket",
            "label": "tokenAddress",
            "offset": 0,
            "slot": "0",
            "type": "t_address"
          },
          {
            "astId": 15669,
            "contract": "contracts/bespokemarket/OpenSkyBespokeMarket.sol:OpenSkyBespokeMarket",
            "label": "tokenId",
            "offset": 0,
            "slot": "1",
            "type": "t_uint256"
          },
          {
            "astId": 15671,
            "contract": "contracts/bespokemarket/OpenSkyBespokeMarket.sol:OpenSkyBespokeMarket",
            "label": "tokenAmount",
            "offset": 0,
            "slot": "2",
            "type": "t_uint256"
          },
          {
            "astId": 15673,
            "contract": "contracts/bespokemarket/OpenSkyBespokeMarket.sol:OpenSkyBespokeMarket",
            "label": "nftManager",
            "offset": 0,
            "slot": "3",
            "type": "t_address"
          },
          {
            "astId": 15675,
            "contract": "contracts/bespokemarket/OpenSkyBespokeMarket.sol:OpenSkyBespokeMarket",
            "label": "borrower",
            "offset": 0,
            "slot": "4",
            "type": "t_address"
          },
          {
            "astId": 15677,
            "contract": "contracts/bespokemarket/OpenSkyBespokeMarket.sol:OpenSkyBespokeMarket",
            "label": "lender",
            "offset": 0,
            "slot": "5",
            "type": "t_address"
          },
          {
            "astId": 15679,
            "contract": "contracts/bespokemarket/OpenSkyBespokeMarket.sol:OpenSkyBespokeMarket",
            "label": "amount",
            "offset": 0,
            "slot": "6",
            "type": "t_uint256"
          },
          {
            "astId": 15681,
            "contract": "contracts/bespokemarket/OpenSkyBespokeMarket.sol:OpenSkyBespokeMarket",
            "label": "borrowRate",
            "offset": 0,
            "slot": "7",
            "type": "t_uint128"
          },
          {
            "astId": 15683,
            "contract": "contracts/bespokemarket/OpenSkyBespokeMarket.sol:OpenSkyBespokeMarket",
            "label": "interestPerSecond",
            "offset": 16,
            "slot": "7",
            "type": "t_uint128"
          },
          {
            "astId": 15685,
            "contract": "contracts/bespokemarket/OpenSkyBespokeMarket.sol:OpenSkyBespokeMarket",
            "label": "currency",
            "offset": 0,
            "slot": "8",
            "type": "t_address"
          },
          {
            "astId": 15687,
            "contract": "contracts/bespokemarket/OpenSkyBespokeMarket.sol:OpenSkyBespokeMarket",
            "label": "lendAsset",
            "offset": 0,
            "slot": "9",
            "type": "t_address"
          },
          {
            "astId": 15689,
            "contract": "contracts/bespokemarket/OpenSkyBespokeMarket.sol:OpenSkyBespokeMarket",
            "label": "reserveFactor",
            "offset": 0,
            "slot": "10",
            "type": "t_uint256"
          },
          {
            "astId": 15691,
            "contract": "contracts/bespokemarket/OpenSkyBespokeMarket.sol:OpenSkyBespokeMarket",
            "label": "overdueLoanFeeFactor",
            "offset": 0,
            "slot": "11",
            "type": "t_uint256"
          },
          {
            "astId": 15693,
            "contract": "contracts/bespokemarket/OpenSkyBespokeMarket.sol:OpenSkyBespokeMarket",
            "label": "borrowDuration",
            "offset": 0,
            "slot": "12",
            "type": "t_uint40"
          },
          {
            "astId": 15695,
            "contract": "contracts/bespokemarket/OpenSkyBespokeMarket.sol:OpenSkyBespokeMarket",
            "label": "borrowBegin",
            "offset": 5,
            "slot": "12",
            "type": "t_uint40"
          },
          {
            "astId": 15697,
            "contract": "contracts/bespokemarket/OpenSkyBespokeMarket.sol:OpenSkyBespokeMarket",
            "label": "borrowOverdueTime",
            "offset": 10,
            "slot": "12",
            "type": "t_uint40"
          },
          {
            "astId": 15699,
            "contract": "contracts/bespokemarket/OpenSkyBespokeMarket.sol:OpenSkyBespokeMarket",
            "label": "liquidatableTime",
            "offset": 15,
            "slot": "12",
            "type": "t_uint40"
          },
          {
            "astId": 15701,
            "contract": "contracts/bespokemarket/OpenSkyBespokeMarket.sol:OpenSkyBespokeMarket",
            "label": "isProrated",
            "offset": 20,
            "slot": "12",
            "type": "t_bool"
          },
          {
            "astId": 15703,
            "contract": "contracts/bespokemarket/OpenSkyBespokeMarket.sol:OpenSkyBespokeMarket",
            "label": "autoConvertWhenRepay",
            "offset": 21,
            "slot": "12",
            "type": "t_bool"
          },
          {
            "astId": 15706,
            "contract": "contracts/bespokemarket/OpenSkyBespokeMarket.sol:OpenSkyBespokeMarket",
            "label": "status",
            "offset": 22,
            "slot": "12",
            "type": "t_enum(LoanStatus)15742"
          }
        ],
        "numberOfBytes": "416"
      },
      "t_struct(NonceInfo)15761_storage": {
        "encoding": "inplace",
        "label": "struct BespokeTypes.NonceInfo",
        "members": [
          {
            "astId": 15756,
            "contract": "contracts/bespokemarket/OpenSkyBespokeMarket.sol:OpenSkyBespokeMarket",
            "label": "invalid",
            "offset": 0,
            "slot": "0",
            "type": "t_bool"
          },
          {
            "astId": 15758,
            "contract": "contracts/bespokemarket/OpenSkyBespokeMarket.sol:OpenSkyBespokeMarket",
            "label": "usedTimes",
            "offset": 0,
            "slot": "1",
            "type": "t_uint256"
          },
          {
            "astId": 15760,
            "contract": "contracts/bespokemarket/OpenSkyBespokeMarket.sol:OpenSkyBespokeMarket",
            "label": "offerHash",
            "offset": 0,
            "slot": "2",
            "type": "t_bytes32"
          }
        ],
        "numberOfBytes": "96"
      },
      "t_uint128": {
        "encoding": "inplace",
        "label": "uint128",
        "numberOfBytes": "16"
      },
      "t_uint256": {
        "encoding": "inplace",
        "label": "uint256",
        "numberOfBytes": "32"
      },
      "t_uint40": {
        "encoding": "inplace",
        "label": "uint40",
        "numberOfBytes": "5"
      }
    }
  }
}