{
  "address": "0xf7fB2278991a44b1a3E9fC8D448ec5b9C3449D84",
  "abi": [
    {
      "inputs": [
        {
          "internalType": "address",
          "name": "_ACLManagerAddress",
          "type": "address"
        }
      ],
      "stateMutability": "nonpayable",
      "type": "constructor"
    },
    {
      "anonymous": false,
      "inputs": [
        {
          "indexed": false,
          "internalType": "address",
          "name": "operator",
          "type": "address"
        },
        {
          "indexed": false,
          "internalType": "address",
          "name": "currency",
          "type": "address"
        }
      ],
      "name": "AddCurrency",
      "type": "event"
    },
    {
      "anonymous": false,
      "inputs": [
        {
          "indexed": false,
          "internalType": "address",
          "name": "operator",
          "type": "address"
        },
        {
          "indexed": false,
          "internalType": "address",
          "name": "currencyAddress",
          "type": "address"
        },
        {
          "indexed": false,
          "internalType": "address",
          "name": "adapterAddress",
          "type": "address"
        }
      ],
      "name": "AddCurrencyTransferAdapter",
      "type": "event"
    },
    {
      "anonymous": false,
      "inputs": [
        {
          "indexed": false,
          "internalType": "address",
          "name": "operator",
          "type": "address"
        },
        {
          "indexed": false,
          "internalType": "address",
          "name": "nftAddress",
          "type": "address"
        },
        {
          "indexed": false,
          "internalType": "address",
          "name": "adapterAddress",
          "type": "address"
        }
      ],
      "name": "AddNftTransferAdapter",
      "type": "event"
    },
    {
      "anonymous": false,
      "inputs": [
        {
          "indexed": false,
          "internalType": "address",
          "name": "operator",
          "type": "address"
        },
        {
          "indexed": false,
          "internalType": "address",
          "name": "address_",
          "type": "address"
        }
      ],
      "name": "AddStrategy",
      "type": "event"
    },
    {
      "anonymous": false,
      "inputs": [
        {
          "indexed": false,
          "internalType": "address",
          "name": "operator",
          "type": "address"
        },
        {
          "indexed": false,
          "internalType": "address",
          "name": "nft",
          "type": "address"
        }
      ],
      "name": "AddToWhitelist",
      "type": "event"
    },
    {
      "anonymous": false,
      "inputs": [
        {
          "indexed": false,
          "internalType": "address",
          "name": "operator",
          "type": "address"
        }
      ],
      "name": "CloseWhitelist",
      "type": "event"
    },
    {
      "anonymous": false,
      "inputs": [
        {
          "indexed": false,
          "internalType": "address",
          "name": "currencyDefaultTransferAdapter",
          "type": "address"
        }
      ],
      "name": "InitDefaultCurrencyTransferAdapter",
      "type": "event"
    },
    {
      "anonymous": false,
      "inputs": [
        {
          "indexed": false,
          "internalType": "address",
          "name": "ERC721DefaultTransferAdapter",
          "type": "address"
        },
        {
          "indexed": false,
          "internalType": "address",
          "name": "ERC1155DefaultTransferAdapter",
          "type": "address"
        }
      ],
      "name": "InitDefaultNftTransferAdapter",
      "type": "event"
    },
    {
      "anonymous": false,
      "inputs": [
        {
          "indexed": false,
          "internalType": "address",
          "name": "operator",
          "type": "address"
        },
        {
          "indexed": false,
          "internalType": "address",
          "name": "borrowLoanAddress",
          "type": "address"
        },
        {
          "indexed": false,
          "internalType": "address",
          "name": "lendLoanAddress",
          "type": "address"
        }
      ],
      "name": "InitLoanAddress",
      "type": "event"
    },
    {
      "anonymous": false,
      "inputs": [
        {
          "indexed": false,
          "internalType": "address",
          "name": "operator",
          "type": "address"
        },
        {
          "indexed": false,
          "internalType": "address",
          "name": "address_",
          "type": "address"
        }
      ],
      "name": "InitMarketAddress",
      "type": "event"
    },
    {
      "anonymous": false,
      "inputs": [
        {
          "indexed": false,
          "internalType": "address",
          "name": "operator",
          "type": "address"
        }
      ],
      "name": "OpenWhitelist",
      "type": "event"
    },
    {
      "anonymous": false,
      "inputs": [
        {
          "indexed": true,
          "internalType": "address",
          "name": "previousOwner",
          "type": "address"
        },
        {
          "indexed": true,
          "internalType": "address",
          "name": "newOwner",
          "type": "address"
        }
      ],
      "name": "OwnershipTransferred",
      "type": "event"
    },
    {
      "anonymous": false,
      "inputs": [
        {
          "indexed": false,
          "internalType": "address",
          "name": "operator",
          "type": "address"
        },
        {
          "indexed": false,
          "internalType": "address",
          "name": "currency",
          "type": "address"
        }
      ],
      "name": "RemoveCurrency",
      "type": "event"
    },
    {
      "anonymous": false,
      "inputs": [
        {
          "indexed": false,
          "internalType": "address",
          "name": "operator",
          "type": "address"
        },
        {
          "indexed": false,
          "internalType": "address",
          "name": "currencyAddress",
          "type": "address"
        }
      ],
      "name": "RemoveCurrencyTransferAdapter",
      "type": "event"
    },
    {
      "anonymous": false,
      "inputs": [
        {
          "indexed": false,
          "internalType": "address",
          "name": "operator",
          "type": "address"
        },
        {
          "indexed": false,
          "internalType": "address",
          "name": "nft",
          "type": "address"
        }
      ],
      "name": "RemoveFromWhitelist",
      "type": "event"
    },
    {
      "anonymous": false,
      "inputs": [
        {
          "indexed": false,
          "internalType": "address",
          "name": "operator",
          "type": "address"
        },
        {
          "indexed": false,
          "internalType": "address",
          "name": "nftAddress",
          "type": "address"
        }
      ],
      "name": "RemoveNftTransferAdapter",
      "type": "event"
    },
    {
      "anonymous": false,
      "inputs": [
        {
          "indexed": false,
          "internalType": "address",
          "name": "operator",
          "type": "address"
        },
        {
          "indexed": false,
          "internalType": "address",
          "name": "address_",
          "type": "address"
        }
      ],
      "name": "RemoveStrategy",
      "type": "event"
    },
    {
      "anonymous": false,
      "inputs": [
        {
          "indexed": false,
          "internalType": "address",
          "name": "operator",
          "type": "address"
        },
        {
          "indexed": false,
          "internalType": "uint256",
          "name": "factor",
          "type": "uint256"
        }
      ],
      "name": "SetMaxBorrowDuration",
      "type": "event"
    },
    {
      "anonymous": false,
      "inputs": [
        {
          "indexed": false,
          "internalType": "address",
          "name": "operator",
          "type": "address"
        },
        {
          "indexed": false,
          "internalType": "uint256",
          "name": "factor",
          "type": "uint256"
        }
      ],
      "name": "SetMinBorrowDuration",
      "type": "event"
    },
    {
      "anonymous": false,
      "inputs": [
        {
          "indexed": false,
          "internalType": "address",
          "name": "operator",
          "type": "address"
        },
        {
          "indexed": false,
          "internalType": "uint256",
          "name": "factor",
          "type": "uint256"
        }
      ],
      "name": "SetOverdueDuration",
      "type": "event"
    },
    {
      "anonymous": false,
      "inputs": [
        {
          "indexed": false,
          "internalType": "address",
          "name": "operator",
          "type": "address"
        },
        {
          "indexed": false,
          "internalType": "uint256",
          "name": "factor",
          "type": "uint256"
        }
      ],
      "name": "SetOverdueLoanFeeFactor",
      "type": "event"
    },
    {
      "anonymous": false,
      "inputs": [
        {
          "indexed": false,
          "internalType": "address",
          "name": "operator",
          "type": "address"
        },
        {
          "indexed": false,
          "internalType": "uint256",
          "name": "factor",
          "type": "uint256"
        }
      ],
      "name": "SetReserveFactor",
      "type": "event"
    },
    {
      "inputs": [],
      "name": "ACLManagerAddress",
      "outputs": [
        {
          "internalType": "address",
          "name": "",
          "type": "address"
        }
      ],
      "stateMutability": "view",
      "type": "function"
    },
    {
      "inputs": [],
      "name": "INTERFACE_ID_ERC1155",
      "outputs": [
        {
          "internalType": "bytes4",
          "name": "",
          "type": "bytes4"
        }
      ],
      "stateMutability": "view",
      "type": "function"
    },
    {
      "inputs": [],
      "name": "INTERFACE_ID_ERC721",
      "outputs": [
        {
          "internalType": "bytes4",
          "name": "",
          "type": "bytes4"
        }
      ],
      "stateMutability": "view",
      "type": "function"
    },
    {
      "inputs": [],
      "name": "MAX_RESERVE_FACTOR",
      "outputs": [
        {
          "internalType": "uint256",
          "name": "",
          "type": "uint256"
        }
      ],
      "stateMutability": "view",
      "type": "function"
    },
    {
      "inputs": [],
      "name": "TRANSFER_CURRENCY",
      "outputs": [
        {
          "internalType": "address",
          "name": "",
          "type": "address"
        }
      ],
      "stateMutability": "view",
      "type": "function"
    },
    {
      "inputs": [],
      "name": "TRANSFER_ERC1155",
      "outputs": [
        {
          "internalType": "address",
          "name": "",
          "type": "address"
        }
      ],
      "stateMutability": "view",
      "type": "function"
    },
    {
      "inputs": [],
      "name": "TRANSFER_ERC721",
      "outputs": [
        {
          "internalType": "address",
          "name": "",
          "type": "address"
        }
      ],
      "stateMutability": "view",
      "type": "function"
    },
    {
      "inputs": [
        {
          "internalType": "address",
          "name": "",
          "type": "address"
        }
      ],
      "name": "_currencyTransferAdapters",
      "outputs": [
        {
          "internalType": "address",
          "name": "",
          "type": "address"
        }
      ],
      "stateMutability": "view",
      "type": "function"
    },
    {
      "inputs": [
        {
          "internalType": "address",
          "name": "",
          "type": "address"
        }
      ],
      "name": "_currencyWhitelist",
      "outputs": [
        {
          "internalType": "bool",
          "name": "",
          "type": "bool"
        }
      ],
      "stateMutability": "view",
      "type": "function"
    },
    {
      "inputs": [
        {
          "internalType": "address",
          "name": "",
          "type": "address"
        }
      ],
      "name": "_strategyWhitelist",
      "outputs": [
        {
          "internalType": "bool",
          "name": "",
          "type": "bool"
        }
      ],
      "stateMutability": "view",
      "type": "function"
    },
    {
      "inputs": [
        {
          "internalType": "address",
          "name": "",
          "type": "address"
        }
      ],
      "name": "_transferAdapters",
      "outputs": [
        {
          "internalType": "address",
          "name": "",
          "type": "address"
        }
      ],
      "stateMutability": "view",
      "type": "function"
    },
    {
      "inputs": [
        {
          "internalType": "address",
          "name": "currency",
          "type": "address"
        }
      ],
      "name": "addCurrency",
      "outputs": [],
      "stateMutability": "nonpayable",
      "type": "function"
    },
    {
      "inputs": [
        {
          "internalType": "address",
          "name": "currency",
          "type": "address"
        },
        {
          "internalType": "address",
          "name": "adapterAddress",
          "type": "address"
        }
      ],
      "name": "addCurrencyTransferAdapter",
      "outputs": [],
      "stateMutability": "nonpayable",
      "type": "function"
    },
    {
      "inputs": [
        {
          "internalType": "address",
          "name": "nftAddress",
          "type": "address"
        },
        {
          "internalType": "address",
          "name": "adapterAddress",
          "type": "address"
        }
      ],
      "name": "addNftTransferAdapter",
      "outputs": [],
      "stateMutability": "nonpayable",
      "type": "function"
    },
    {
      "inputs": [
        {
          "internalType": "address",
          "name": "address_",
          "type": "address"
        }
      ],
      "name": "addStrategy",
      "outputs": [],
      "stateMutability": "nonpayable",
      "type": "function"
    },
    {
      "inputs": [
        {
          "internalType": "address",
          "name": "nft",
          "type": "address"
        },
        {
          "internalType": "uint256",
          "name": "minBorrowDuration",
          "type": "uint256"
        },
        {
          "internalType": "uint256",
          "name": "maxBorrowDuration",
          "type": "uint256"
        },
        {
          "internalType": "uint256",
          "name": "overdueDuration",
          "type": "uint256"
        }
      ],
      "name": "addToWhitelist",
      "outputs": [],
      "stateMutability": "nonpayable",
      "type": "function"
    },
    {
      "inputs": [],
      "name": "borrowLoanAddress",
      "outputs": [
        {
          "internalType": "address",
          "name": "",
          "type": "address"
        }
      ],
      "stateMutability": "view",
      "type": "function"
    },
    {
      "inputs": [],
      "name": "closeWhitelist",
      "outputs": [],
      "stateMutability": "nonpayable",
      "type": "function"
    },
    {
      "inputs": [
        {
          "internalType": "address",
          "name": "nftAddress",
          "type": "address"
        }
      ],
      "name": "getBorrowDurationConfig",
      "outputs": [
        {
          "internalType": "uint256",
          "name": "minBorrowDuration_",
          "type": "uint256"
        },
        {
          "internalType": "uint256",
          "name": "maxBorrowDuration_",
          "type": "uint256"
        },
        {
          "internalType": "uint256",
          "name": "overdueDuration_",
          "type": "uint256"
        }
      ],
      "stateMutability": "view",
      "type": "function"
    },
    {
      "inputs": [
        {
          "internalType": "address",
          "name": "currency",
          "type": "address"
        }
      ],
      "name": "getCurrencyTransferAdapter",
      "outputs": [
        {
          "internalType": "address",
          "name": "adapter",
          "type": "address"
        }
      ],
      "stateMutability": "view",
      "type": "function"
    },
    {
      "inputs": [
        {
          "internalType": "address",
          "name": "nftAddress",
          "type": "address"
        }
      ],
      "name": "getNftTransferAdapter",
      "outputs": [
        {
          "internalType": "address",
          "name": "adapter",
          "type": "address"
        }
      ],
      "stateMutability": "view",
      "type": "function"
    },
    {
      "inputs": [
        {
          "internalType": "address",
          "name": "nft",
          "type": "address"
        }
      ],
      "name": "getWhitelistDetail",
      "outputs": [
        {
          "components": [
            {
              "internalType": "bool",
              "name": "enabled",
              "type": "bool"
            },
            {
              "internalType": "uint256",
              "name": "minBorrowDuration",
              "type": "uint256"
            },
            {
              "internalType": "uint256",
              "name": "maxBorrowDuration",
              "type": "uint256"
            },
            {
              "internalType": "uint256",
              "name": "overdueDuration",
              "type": "uint256"
            }
          ],
          "internalType": "struct BespokeTypes.WhitelistInfo",
          "name": "",
          "type": "tuple"
        }
      ],
      "stateMutability": "view",
      "type": "function"
    },
    {
      "inputs": [
        {
          "internalType": "address",
          "name": "nft",
          "type": "address"
        }
      ],
      "name": "inWhitelist",
      "outputs": [
        {
          "internalType": "bool",
          "name": "",
          "type": "bool"
        }
      ],
      "stateMutability": "view",
      "type": "function"
    },
    {
      "inputs": [
        {
          "internalType": "address",
          "name": "currencyDefaultAdapter",
          "type": "address"
        }
      ],
      "name": "initDefaultCurrencyTransferAdapter",
      "outputs": [],
      "stateMutability": "nonpayable",
      "type": "function"
    },
    {
      "inputs": [
        {
          "internalType": "address",
          "name": "ERC721Default",
          "type": "address"
        },
        {
          "internalType": "address",
          "name": "ERC1155Default",
          "type": "address"
        }
      ],
      "name": "initDefaultNftTransferAdapters",
      "outputs": [],
      "stateMutability": "nonpayable",
      "type": "function"
    },
    {
      "inputs": [
        {
          "internalType": "address",
          "name": "borrowLoanAddress_",
          "type": "address"
        },
        {
          "internalType": "address",
          "name": "lendLoanAddress_",
          "type": "address"
        }
      ],
      "name": "initLoanAddress",
      "outputs": [],
      "stateMutability": "nonpayable",
      "type": "function"
    },
    {
      "inputs": [
        {
          "internalType": "address",
          "name": "address_",
          "type": "address"
        }
      ],
      "name": "initMarketAddress",
      "outputs": [],
      "stateMutability": "nonpayable",
      "type": "function"
    },
    {
      "inputs": [
        {
          "internalType": "address",
          "name": "currency",
          "type": "address"
        }
      ],
      "name": "isCurrencyWhitelisted",
      "outputs": [
        {
          "internalType": "bool",
          "name": "",
          "type": "bool"
        }
      ],
      "stateMutability": "view",
      "type": "function"
    },
    {
      "inputs": [
        {
          "internalType": "address",
          "name": "address_",
          "type": "address"
        }
      ],
      "name": "isStrategyWhitelisted",
      "outputs": [
        {
          "internalType": "bool",
          "name": "",
          "type": "bool"
        }
      ],
      "stateMutability": "view",
      "type": "function"
    },
    {
      "inputs": [],
      "name": "isWhitelistOn",
      "outputs": [
        {
          "internalType": "bool",
          "name": "",
          "type": "bool"
        }
      ],
      "stateMutability": "view",
      "type": "function"
    },
    {
      "inputs": [],
      "name": "lendLoanAddress",
      "outputs": [
        {
          "internalType": "address",
          "name": "",
          "type": "address"
        }
      ],
      "stateMutability": "view",
      "type": "function"
    },
    {
      "inputs": [],
      "name": "marketAddress",
      "outputs": [
        {
          "internalType": "address",
          "name": "",
          "type": "address"
        }
      ],
      "stateMutability": "view",
      "type": "function"
    },
    {
      "inputs": [],
      "name": "maxBorrowDuration",
      "outputs": [
        {
          "internalType": "uint256",
          "name": "",
          "type": "uint256"
        }
      ],
      "stateMutability": "view",
      "type": "function"
    },
    {
      "inputs": [],
      "name": "minBorrowDuration",
      "outputs": [
        {
          "internalType": "uint256",
          "name": "",
          "type": "uint256"
        }
      ],
      "stateMutability": "view",
      "type": "function"
    },
    {
      "inputs": [],
      "name": "openWhitelist",
      "outputs": [],
      "stateMutability": "nonpayable",
      "type": "function"
    },
    {
      "inputs": [],
      "name": "overdueDuration",
      "outputs": [
        {
          "internalType": "uint256",
          "name": "",
          "type": "uint256"
        }
      ],
      "stateMutability": "view",
      "type": "function"
    },
    {
      "inputs": [],
      "name": "overdueLoanFeeFactor",
      "outputs": [
        {
          "internalType": "uint256",
          "name": "",
          "type": "uint256"
        }
      ],
      "stateMutability": "view",
      "type": "function"
    },
    {
      "inputs": [],
      "name": "owner",
      "outputs": [
        {
          "internalType": "address",
          "name": "",
          "type": "address"
        }
      ],
      "stateMutability": "view",
      "type": "function"
    },
    {
      "inputs": [
        {
          "internalType": "address",
          "name": "currency",
          "type": "address"
        }
      ],
      "name": "removeCurrency",
      "outputs": [],
      "stateMutability": "nonpayable",
      "type": "function"
    },
    {
      "inputs": [
        {
          "internalType": "address",
          "name": "currency",
          "type": "address"
        }
      ],
      "name": "removeCurrencyTransferAdapter",
      "outputs": [],
      "stateMutability": "nonpayable",
      "type": "function"
    },
    {
      "inputs": [
        {
          "internalType": "address",
          "name": "nft",
          "type": "address"
        }
      ],
      "name": "removeFromWhitelist",
      "outputs": [],
      "stateMutability": "nonpayable",
      "type": "function"
    },
    {
      "inputs": [
        {
          "internalType": "address",
          "name": "nftAddress",
          "type": "address"
        }
      ],
      "name": "removeNftTransferAdapter",
      "outputs": [],
      "stateMutability": "nonpayable",
      "type": "function"
    },
    {
      "inputs": [
        {
          "internalType": "address",
          "name": "address_",
          "type": "address"
        }
      ],
      "name": "removeStrategy",
      "outputs": [],
      "stateMutability": "nonpayable",
      "type": "function"
    },
    {
      "inputs": [],
      "name": "renounceOwnership",
      "outputs": [],
      "stateMutability": "nonpayable",
      "type": "function"
    },
    {
      "inputs": [],
      "name": "reserveFactor",
      "outputs": [
        {
          "internalType": "uint256",
          "name": "",
          "type": "uint256"
        }
      ],
      "stateMutability": "view",
      "type": "function"
    },
    {
      "inputs": [
        {
          "internalType": "uint256",
          "name": "factor",
          "type": "uint256"
        }
      ],
      "name": "setMaxBorrowDuration",
      "outputs": [],
      "stateMutability": "nonpayable",
      "type": "function"
    },
    {
      "inputs": [
        {
          "internalType": "uint256",
          "name": "factor",
          "type": "uint256"
        }
      ],
      "name": "setMinBorrowDuration",
      "outputs": [],
      "stateMutability": "nonpayable",
      "type": "function"
    },
    {
      "inputs": [
        {
          "internalType": "uint256",
          "name": "factor",
          "type": "uint256"
        }
      ],
      "name": "setOverdueDuration",
      "outputs": [],
      "stateMutability": "nonpayable",
      "type": "function"
    },
    {
      "inputs": [
        {
          "internalType": "uint256",
          "name": "factor",
          "type": "uint256"
        }
      ],
      "name": "setOverdueLoanFeeFactor",
      "outputs": [],
      "stateMutability": "nonpayable",
      "type": "function"
    },
    {
      "inputs": [
        {
          "internalType": "uint256",
          "name": "factor",
          "type": "uint256"
        }
      ],
      "name": "setReserveFactor",
      "outputs": [],
      "stateMutability": "nonpayable",
      "type": "function"
    },
    {
      "inputs": [
        {
          "internalType": "address",
          "name": "newOwner",
          "type": "address"
        }
      ],
      "name": "transferOwnership",
      "outputs": [],
      "stateMutability": "nonpayable",
      "type": "function"
    }
  ],
  "transactionHash": "0xc573712ecee775cb1530180ffb32a0700855f4b3c3b4e6e00646ae55419bba2f",
  "args": [
    "0x9F0c2a07AF6Fb2dD9f84695d495A276f99730574"
  ],
  "solcInputHash": "9ceeba06c5b20032f6d2b2465cc709fe",
  "bytecode": "0x60a06040526000805460ff60a01b191690556101f46007556064600855610708600955624f1a00600a556202a300600b553480156200003d57600080fd5b506040516200247d3803806200247d8339810160408190526200006091620000cd565b6200006b336200007d565b6001600160a01b0316608052620000ff565b600080546001600160a01b038381166001600160a01b0319831681178455604051919092169283917f8be0079c531659141344cd1fd0a4f28419497f9722a3daafe3b4186f6b6457e09190a35050565b600060208284031215620000e057600080fd5b81516001600160a01b0381168114620000f857600080fd5b9392505050565b6080516122eb62000192600039600081816105c70152818161079101528181610899015281816109bf01528181610abe01528181610bbd01528181610f1701528181611122015281816112120152818161133e015281816115ac015281816117000152818161184b01528181611a9001528181611c0401528181611d1e01528181611e770152611f7601526122eb6000f3fe608060405234801561001057600080fd5b50600436106102f15760003560e01c8063956236411161019d578063bc6bc0cd116100e9578063d7a5a9d3116100a2578063ee08fed61161007c578063ee08fed614610737578063efc62f7a14610740578063f2fde38b14610753578063fea68eed1461076657600080fd5b8063d7a5a9d314610708578063e2aafa2114610711578063e9772cd31461072457600080fd5b8063bc6bc0cd146106a5578063bc98c247146106b3578063bd33deb3146106c6578063c5d3a107146106d9578063d065ea99146106ec578063d23a65cf146106ff57600080fd5b8063a45a7dd611610156578063ab5407f911610130578063ab5407f914610659578063b39348381461066c578063b585945f1461067f578063bb322a831461069257600080fd5b8063a45a7dd614610605578063a4b9672a14610618578063ab0868bc1461062b57600080fd5b8063956236411461057057806398460c5f14610583578063999ba27c146105965780639a9dbb99146105c25780639ab3d121146105e95780639ecdda21146105fc57600080fd5b806343b938c51161025c578063777ee2e0116102155780638ab1d681116101ef5780638ab1d681146105305780638ab234b6146105435780638da5cb5b1461055657806393aa28451461056757600080fd5b8063777ee2e0146104f7578063853201bd1461050a57806389cdd47d1461051d57600080fd5b806343b938c51461045b578063586b9a7c14610487578063659d4ba21461048f578063715018a6146104b2578063716f10bf146104ba578063740247be146104ce57600080fd5b8063223e5479116102ae578063223e54791461039c57806330aec127146103af57806333bf6156146103c25780633bdd1235146103e957806340cb4b4d146104315780634322b7141461044457600080fd5b8063030efd5d146102f6578063083bbe7f14610326578063165f735e14610330578063175188e8146103635780631b52ba71146103765780631c44698314610389575b600080fd5b600c54610309906001600160a01b031681565b6040516001600160a01b0390911681526020015b60405180910390f35b61032e61078f565b005b61035361033e366004612166565b60106020526000908152604090205460ff1681565b604051901515815260200161031d565b61032e610371366004612166565b610897565b61032e610384366004612188565b6109bd565b61032e610397366004612188565b610abc565b61032e6103aa366004612166565b610bbb565b61032e6103bd3660046121a1565b610cfd565b6103d0636cdb3d1360e11b81565b6040516001600160e01b0319909116815260200161031d565b6103fc6103f7366004612166565b610df4565b60405161031d919081511515815260208083015190820152604080830151908201526060918201519181019190915260800190565b61032e61043f366004612166565b610e73565b61044d60075481565b60405190815260200161031d565b610353610469366004612166565b6001600160a01b031660009081526002602052604090205460ff1690565b61032e610f15565b61035361049d366004612166565b60026020526000908152604090205460ff1681565b61032e611007565b60005461035390600160a01b900460ff1681565b6103096104dc366004612166565b600f602052600090815260409020546001600160a01b031681565b600d54610309906001600160a01b031681565b61032e6105183660046121a1565b61103d565b61032e61052b366004612188565b611120565b61032e61053e366004612166565b611210565b61032e610551366004612166565b61133c565b6000546001600160a01b0316610309565b61044d600a5481565b600454610309906001600160a01b031681565b610309610591366004612166565b61147e565b6103536105a4366004612166565b6001600160a01b031660009081526010602052604090205460ff1690565b6103097f000000000000000000000000000000000000000000000000000000000000000081565b61032e6105f73660046121a1565b6115aa565b61044d60095481565b61032e6106133660046121a1565b6116fe565b61032e610626366004612166565b611849565b61063e610639366004612166565b611956565b6040805193845260208401929092529082015260600161031d565b600e54610309906001600160a01b031681565b600654610309906001600160a01b031681565b61032e61068d366004612166565b6119bc565b600554610309906001600160a01b031681565b6103d06380ac58cd60e01b81565b6103096106c1366004612166565b611a5d565b61032e6106d43660046121d4565b611a8e565b61032e6106e7366004612166565b611c02565b61032e6106fa366004612166565b611d1c565b61044d610bb881565b61044d60085481565b61035361071f366004612166565b611e29565b61032e610732366004612188565b611e75565b61044d600b5481565b61032e61074e366004612188565b611f74565b61032e610761366004612166565b612064565b610309610774366004612166565b6003602052600090815260409020546001600160a01b031681565b7f00000000000000000000000000000000000000000000000000000000000000006001600160a01b03811663dee1f0e4336040516001600160e01b031960e084901b1681526001600160a01b039091166004820152602401602060405180830381865afa158015610804573d6000803e3d6000fd5b505050506040513d601f19601f82011682018060405250810190610828919061220d565b61084d5760405162461bcd60e51b81526004016108449061222f565b60405180910390fd5b6000805460ff60a01b1916600160a01b1790556040513381527f89d8e5084cb20a926de5df07f7b8263f1228ed46d85d84afa6773e5d7ce813db906020015b60405180910390a150565b7f00000000000000000000000000000000000000000000000000000000000000006001600160a01b03811663dee1f0e4336040516001600160e01b031960e084901b1681526001600160a01b039091166004820152602401602060405180830381865afa15801561090c573d6000803e3d6000fd5b505050506040513d601f19601f82011682018060405250810190610930919061220d565b61094c5760405162461bcd60e51b81526004016108449061222f565b6001600160a01b03821661095f57600080fd5b6001600160a01b03821660009081526010602052604090819020805460ff19169055517f51c7271314d1bc03a7cc10464206ac84412719838a3ca814570f7445f0457c4f906109b19033908590612266565b60405180910390a15050565b7f00000000000000000000000000000000000000000000000000000000000000006001600160a01b03811663dee1f0e4336040516001600160e01b031960e084901b1681526001600160a01b039091166004820152602401602060405180830381865afa158015610a32573d6000803e3d6000fd5b505050506040513d601f19601f82011682018060405250810190610a56919061220d565b610a725760405162461bcd60e51b81526004016108449061222f565b6000600a5411610a8157600080fd5b600a82905560408051338152602081018490527fcccf2b6d79b744c1a827f0ad86745f230e1ef5e3aa0891d0a1a6b2e6e447b07491016109b1565b7f00000000000000000000000000000000000000000000000000000000000000006001600160a01b03811663dee1f0e4336040516001600160e01b031960e084901b1681526001600160a01b039091166004820152602401602060405180830381865afa158015610b31573d6000803e3d6000fd5b505050506040513d601f19601f82011682018060405250810190610b55919061220d565b610b715760405162461bcd60e51b81526004016108449061222f565b610bb8821115610b8057600080fd5b600782905560408051338152602081018490527faec3b0dfb932ebcf519716c413557fafef520bf9d7a371d8ef50799927c70ff391016109b1565b7f00000000000000000000000000000000000000000000000000000000000000006001600160a01b03811663dee1f0e4336040516001600160e01b031960e084901b1681526001600160a01b039091166004820152602401602060405180830381865afa158015610c30573d6000803e3d6000fd5b505050506040513d601f19601f82011682018060405250810190610c54919061220d565b610c705760405162461bcd60e51b81526004016108449061222f565b6001600160a01b038216610c8357600080fd5b6001600160a01b03821660009081526010602052604090205460ff161515600114610ccc576001600160a01b0382166000908152601060205260409020805460ff191660011790555b7ff5356ea32b86d53c1386eda4d869e6027a0a1d4edebb9c2f778d9f8559d236aa33836040516109b1929190612266565b6000546001600160a01b03163314610d275760405162461bcd60e51b815260040161084490612280565b6005546001600160a01b03168015610d3e57600080fd5b6006546001600160a01b03168015610d5557600080fd5b6001600160a01b03841615801590610d7557506001600160a01b03831615155b610d7e57600080fd5b600580546001600160a01b038681166001600160a01b03199283168117909355600680549187169190921681179091556040805133815260208101939093528201527fb7ca9e57486893e0e5ce606ca83c7476f96585ff72732ee6e632c0695b72fbeb906060015b60405180910390a150505050565b610e2160405180608001604052806000151581526020016000815260200160008152602001600081525090565b506001600160a01b03166000908152600160208181526040928390208351608081018552815460ff16151581529281015491830191909152600281015492820192909252600390910154606082015290565b600e546001600160a01b03168015610e8a57600080fd5b6000546001600160a01b03163314610eb45760405162461bcd60e51b815260040161084490612280565b6001600160a01b038216610ec757600080fd5b600e80546001600160a01b0319166001600160a01b0384169081179091556040519081527fe66ca1f6b1971dd7b60d9e6fb5d07be2716baf32d50c4f0f01bf1b5cddfd1ae4906020016109b1565b7f00000000000000000000000000000000000000000000000000000000000000006001600160a01b03811663dee1f0e4336040516001600160e01b031960e084901b1681526001600160a01b039091166004820152602401602060405180830381865afa158015610f8a573d6000803e3d6000fd5b505050506040513d601f19601f82011682018060405250810190610fae919061220d565b610fca5760405162461bcd60e51b81526004016108449061222f565b6000805460ff60a01b191690556040513381527f15d2336aba2921f545ef5492de5c469a1aa3b00e0816b075e36897bcd10bfe4a9060200161088c565b6000546001600160a01b031633146110315760405162461bcd60e51b815260040161084490612280565b61103b60006120ff565b565b600c546001600160a01b0316801561105457600080fd5b600d546001600160a01b0316801561106b57600080fd5b6000546001600160a01b031633146110955760405162461bcd60e51b815260040161084490612280565b6001600160a01b038416158015906110b557506001600160a01b03831615155b6110be57600080fd5b600c80546001600160a01b038087166001600160a01b031992831617909255600d8054928616929091169190911790556040517f3b231f7f1d3750272d9d4e4d7677990f114575b1e9334d0088dbb9e74483e16390610de69086908690612266565b7f00000000000000000000000000000000000000000000000000000000000000006001600160a01b03811663dee1f0e4336040516001600160e01b031960e084901b1681526001600160a01b039091166004820152602401602060405180830381865afa158015611195573d6000803e3d6000fd5b505050506040513d601f19601f820116820180604052508101906111b9919061220d565b6111d55760405162461bcd60e51b81526004016108449061222f565b600882905560408051338152602081018490527f7c711ee19f0c912a57665c93f4d4e5c0eadfe3547c2a7674d27e359ddcc0126e91016109b1565b7f00000000000000000000000000000000000000000000000000000000000000006001600160a01b03811663dee1f0e4336040516001600160e01b031960e084901b1681526001600160a01b039091166004820152602401602060405180830381865afa158015611285573d6000803e3d6000fd5b505050506040513d601f19601f820116820180604052508101906112a9919061220d565b6112c55760405162461bcd60e51b81526004016108449061222f565b6001600160a01b03821660009081526001602052604090205460ff1615611338576001600160a01b03821660009081526001602052604090819020805460ff19169055517fd69d323ec27eb997f9c9466b0c1f1f37d65382a7caeee9c9cacaf093d6d0bb57906109b19033908590612266565b5050565b7f00000000000000000000000000000000000000000000000000000000000000006001600160a01b03811663dee1f0e4336040516001600160e01b031960e084901b1681526001600160a01b039091166004820152602401602060405180830381865afa1580156113b1573d6000803e3d6000fd5b505050506040513d601f19601f820116820180604052508101906113d5919061220d565b6113f15760405162461bcd60e51b81526004016108449061222f565b6001600160a01b03821661140457600080fd5b6001600160a01b03821660009081526002602052604090205460ff16151560011461144d576001600160a01b0382166000908152600260205260409020805460ff191660011790555b7fbfa39708e75c2b57953423380dc6d5f9416972bae39f35b1eff332f8cc0d841933836040516109b1929190612266565b6001600160a01b038082166000908152600f602052604090205416806115a5576040516301ffc9a760e01b81526380ac58cd60e01b60048201526001600160a01b038316906301ffc9a790602401602060405180830381865afa1580156114e9573d6000803e3d6000fd5b505050506040513d601f19601f8201168201806040525081019061150d919061220d565b15611523575050600c546001600160a01b031690565b6040516301ffc9a760e01b8152636cdb3d1360e11b60048201526001600160a01b038316906301ffc9a790602401602060405180830381865afa15801561156e573d6000803e3d6000fd5b505050506040513d601f19601f82011682018060405250810190611592919061220d565b156115a55750600d546001600160a01b03165b919050565b7f00000000000000000000000000000000000000000000000000000000000000006001600160a01b03811663dee1f0e4336040516001600160e01b031960e084901b1681526001600160a01b039091166004820152602401602060405180830381865afa15801561161f573d6000803e3d6000fd5b505050506040513d601f19601f82011682018060405250810190611643919061220d565b61165f5760405162461bcd60e51b81526004016108449061222f565b6001600160a01b0383161580159061167f57506001600160a01b03821615155b61168857600080fd5b6001600160a01b0383811660008181526003602090815260409182902080546001600160a01b03191694871694851790558151338152908101929092528101919091527fa73114b4976a26b294c6ac38aa4eac20323ac7834b8710d69a08d6f13a262d61906060015b60405180910390a1505050565b7f00000000000000000000000000000000000000000000000000000000000000006001600160a01b03811663dee1f0e4336040516001600160e01b031960e084901b1681526001600160a01b039091166004820152602401602060405180830381865afa158015611773573d6000803e3d6000fd5b505050506040513d601f19601f82011682018060405250810190611797919061220d565b6117b35760405162461bcd60e51b81526004016108449061222f565b6001600160a01b038316158015906117d357506001600160a01b03821615155b6117dc57600080fd5b6001600160a01b038381166000818152600f602090815260409182902080546001600160a01b03191694871694851790558151338152908101929092528101919091527f972fb0b53009a70e5374ad2e85aabd349201193cc5d85715a5b7b63137cb8ad7906060016116f1565b7f00000000000000000000000000000000000000000000000000000000000000006001600160a01b03811663dee1f0e4336040516001600160e01b031960e084901b1681526001600160a01b039091166004820152602401602060405180830381865afa1580156118be573d6000803e3d6000fd5b505050506040513d601f19601f820116820180604052508101906118e2919061220d565b6118fe5760405162461bcd60e51b81526004016108449061222f565b6001600160a01b0382166000908152600360205260409081902080546001600160a01b0319169055517f9d2c7870afed34a7d2926e519db06ac74b5a3a35e678aec10954d74ecfc67c81906109b19033908590612266565b6000805481908190600160a01b900460ff168015611978575061197884611e29565b156119a557600061198885610df4565b9050806020015193508060400151925080606001519150506119b5565b6009549250600a549150600b5490505b9193909250565b6000546001600160a01b031633146119e65760405162461bcd60e51b815260040161084490612280565b6004546001600160a01b031680156119fd57600080fd5b6001600160a01b038216611a1057600080fd5b600480546001600160a01b0319166001600160a01b0384161790556040517fa7ebd3b8f60f1612c46fda3d490cf7627bf136da9c5d474a5bd1d1bcaa3c898d906109b19033908590612266565b6001600160a01b0380821660009081526003602052604090205416806115a5575050600e546001600160a01b031690565b7f00000000000000000000000000000000000000000000000000000000000000006001600160a01b03811663dee1f0e4336040516001600160e01b031960e084901b1681526001600160a01b039091166004820152602401602060405180830381865afa158015611b03573d6000803e3d6000fd5b505050506040513d601f19601f82011682018060405250810190611b27919061220d565b611b435760405162461bcd60e51b81526004016108449061222f565b6001600160a01b038516611b5657600080fd5b82841115611b6357600080fd5b6040805160808101825260018082526020808301888152838501888152606085018881526001600160a01b038c16600090815293859052928690209451855460ff19169015151785559051928401929092559051600283015551600390910155517f1d579ce37763c9894e144fe60df6d85b0eaa341ed20bcb7045de4a9327eb511590611bf39033908890612266565b60405180910390a15050505050565b7f00000000000000000000000000000000000000000000000000000000000000006001600160a01b03811663dee1f0e4336040516001600160e01b031960e084901b1681526001600160a01b039091166004820152602401602060405180830381865afa158015611c77573d6000803e3d6000fd5b505050506040513d601f19601f82011682018060405250810190611c9b919061220d565b611cb75760405162461bcd60e51b81526004016108449061222f565b6001600160a01b038216611cca57600080fd5b6001600160a01b03821660009081526002602052604090819020805460ff19169055517f16142d8f56d140e51ef5a88861836c9a65b9af1bab0bbb809efa6b7a9055d9c6906109b19033908590612266565b7f00000000000000000000000000000000000000000000000000000000000000006001600160a01b03811663dee1f0e4336040516001600160e01b031960e084901b1681526001600160a01b039091166004820152602401602060405180830381865afa158015611d91573d6000803e3d6000fd5b505050506040513d601f19601f82011682018060405250810190611db5919061220d565b611dd15760405162461bcd60e51b81526004016108449061222f565b6001600160a01b0382166000908152600f60205260409081902080546001600160a01b0319169055517f1616722fe9e1734b9f32ae9302fb74330136cecdc962e25fabc98185c5c92eb0906109b19033908590612266565b60006001600160a01b038216611e3e57600080fd5b600054600160a01b900460ff161580611e6f57506001600160a01b03821660009081526001602052604090205460ff165b92915050565b7f00000000000000000000000000000000000000000000000000000000000000006001600160a01b03811663dee1f0e4336040516001600160e01b031960e084901b1681526001600160a01b039091166004820152602401602060405180830381865afa158015611eea573d6000803e3d6000fd5b505050506040513d601f19601f82011682018060405250810190611f0e919061220d565b611f2a5760405162461bcd60e51b81526004016108449061222f565b600060095411611f3957600080fd5b600982905560408051338152602081018490527fdb02dc087b6dff9517046962b8bebc2baf0dc57c322d08fd72d6ed4197f497cc91016109b1565b7f00000000000000000000000000000000000000000000000000000000000000006001600160a01b03811663dee1f0e4336040516001600160e01b031960e084901b1681526001600160a01b039091166004820152602401602060405180830381865afa158015611fe9573d6000803e3d6000fd5b505050506040513d601f19601f8201168201806040525081019061200d919061220d565b6120295760405162461bcd60e51b81526004016108449061222f565b600b82905560408051338152602081018490527f84bb6fd7054b5db22ce3c0418c9d65f63ce3ba62f757223bde70dcfb7354dd1891016109b1565b6000546001600160a01b0316331461208e5760405162461bcd60e51b815260040161084490612280565b6001600160a01b0381166120f35760405162461bcd60e51b815260206004820152602660248201527f4f776e61626c653a206e6577206f776e657220697320746865207a65726f206160448201526564647265737360d01b6064820152608401610844565b6120fc816120ff565b50565b600080546001600160a01b038381166001600160a01b0319831681178455604051919092169283917f8be0079c531659141344cd1fd0a4f28419497f9722a3daafe3b4186f6b6457e09190a35050565b80356001600160a01b03811681146115a557600080fd5b60006020828403121561217857600080fd5b6121818261214f565b9392505050565b60006020828403121561219a57600080fd5b5035919050565b600080604083850312156121b457600080fd5b6121bd8361214f565b91506121cb6020840161214f565b90509250929050565b600080600080608085870312156121ea57600080fd5b6121f38561214f565b966020860135965060408601359560600135945092505050565b60006020828403121561221f57600080fd5b8151801515811461218157600080fd5b6020808252601f908201527f424d5f41434c5f4f4e4c595f474f5645524e414e43455f43414e5f43414c4c00604082015260600190565b6001600160a01b0392831681529116602082015260400190565b6020808252818101527f4f776e61626c653a2063616c6c6572206973206e6f7420746865206f776e657260408201526060019056fea26469706673582212202e76669d983fd193c4b0e7eb951f68eea8c7e03ccff3d0f1a5e2dd62ae97a3a064736f6c634300080a0033",
  "libraries": {
    "BespokeTypes": "0x057AEc26BA4EdD466A8A61A08804eA931BBD8C58"
  },
  "devdoc": {
    "kind": "dev",
    "methods": {
      "owner()": {
        "details": "Returns the address of the current owner."
      },
      "renounceOwnership()": {
        "details": "Leaves the contract without owner. It will not be possible to call `onlyOwner` functions anymore. Can only be called by the current owner. NOTE: Renouncing ownership will leave the contract without an owner, thereby removing any functionality that is only available to the owner."
      },
      "transferOwnership(address)": {
        "details": "Transfers ownership of the contract to a new account (`newOwner`). Can only be called by the current owner."
      }
    },
    "version": 1
  },
  "userdoc": {
    "kind": "user",
    "methods": {},
    "version": 1
  },
  "storageLayout": {
    "storage": [
      {
        "astId": 387,
        "contract": "contracts/bespokemarket/OpenSkyBespokeSettings.sol:OpenSkyBespokeSettings",
        "label": "_owner",
        "offset": 0,
        "slot": "0",
        "type": "t_address"
      },
      {
        "astId": 13283,
        "contract": "contracts/bespokemarket/OpenSkyBespokeSettings.sol:OpenSkyBespokeSettings",
        "label": "isWhitelistOn",
        "offset": 20,
        "slot": "0",
        "type": "t_bool"
      },
      {
        "astId": 13288,
        "contract": "contracts/bespokemarket/OpenSkyBespokeSettings.sol:OpenSkyBespokeSettings",
        "label": "_whitelist",
        "offset": 0,
        "slot": "1",
        "type": "t_mapping(t_address,t_struct(WhitelistInfo)15751_storage)"
      },
      {
        "astId": 13292,
        "contract": "contracts/bespokemarket/OpenSkyBespokeSettings.sol:OpenSkyBespokeSettings",
        "label": "_currencyWhitelist",
        "offset": 0,
        "slot": "2",
        "type": "t_mapping(t_address,t_bool)"
      },
      {
        "astId": 13296,
        "contract": "contracts/bespokemarket/OpenSkyBespokeSettings.sol:OpenSkyBespokeSettings",
        "label": "_currencyTransferAdapters",
        "offset": 0,
        "slot": "3",
        "type": "t_mapping(t_address,t_address)"
      },
      {
        "astId": 13299,
        "contract": "contracts/bespokemarket/OpenSkyBespokeSettings.sol:OpenSkyBespokeSettings",
        "label": "marketAddress",
        "offset": 0,
        "slot": "4",
        "type": "t_address"
      },
      {
        "astId": 13302,
        "contract": "contracts/bespokemarket/OpenSkyBespokeSettings.sol:OpenSkyBespokeSettings",
        "label": "borrowLoanAddress",
        "offset": 0,
        "slot": "5",
        "type": "t_address"
      },
      {
        "astId": 13305,
        "contract": "contracts/bespokemarket/OpenSkyBespokeSettings.sol:OpenSkyBespokeSettings",
        "label": "lendLoanAddress",
        "offset": 0,
        "slot": "6",
        "type": "t_address"
      },
      {
        "astId": 13309,
        "contract": "contracts/bespokemarket/OpenSkyBespokeSettings.sol:OpenSkyBespokeSettings",
        "label": "reserveFactor",
        "offset": 0,
        "slot": "7",
        "type": "t_uint256"
      },
      {
        "astId": 13313,
        "contract": "contracts/bespokemarket/OpenSkyBespokeSettings.sol:OpenSkyBespokeSettings",
        "label": "overdueLoanFeeFactor",
        "offset": 0,
        "slot": "8",
        "type": "t_uint256"
      },
      {
        "astId": 13317,
        "contract": "contracts/bespokemarket/OpenSkyBespokeSettings.sol:OpenSkyBespokeSettings",
        "label": "minBorrowDuration",
        "offset": 0,
        "slot": "9",
        "type": "t_uint256"
      },
      {
        "astId": 13321,
        "contract": "contracts/bespokemarket/OpenSkyBespokeSettings.sol:OpenSkyBespokeSettings",
        "label": "maxBorrowDuration",
        "offset": 0,
        "slot": "10",
        "type": "t_uint256"
      },
      {
        "astId": 13325,
        "contract": "contracts/bespokemarket/OpenSkyBespokeSettings.sol:OpenSkyBespokeSettings",
        "label": "overdueDuration",
        "offset": 0,
        "slot": "11",
        "type": "t_uint256"
      },
      {
        "astId": 13333,
        "contract": "contracts/bespokemarket/OpenSkyBespokeSettings.sol:OpenSkyBespokeSettings",
        "label": "TRANSFER_ERC721",
        "offset": 0,
        "slot": "12",
        "type": "t_address"
      },
      {
        "astId": 13335,
        "contract": "contracts/bespokemarket/OpenSkyBespokeSettings.sol:OpenSkyBespokeSettings",
        "label": "TRANSFER_ERC1155",
        "offset": 0,
        "slot": "13",
        "type": "t_address"
      },
      {
        "astId": 13337,
        "contract": "contracts/bespokemarket/OpenSkyBespokeSettings.sol:OpenSkyBespokeSettings",
        "label": "TRANSFER_CURRENCY",
        "offset": 0,
        "slot": "14",
        "type": "t_address"
      },
      {
        "astId": 13341,
        "contract": "contracts/bespokemarket/OpenSkyBespokeSettings.sol:OpenSkyBespokeSettings",
        "label": "_transferAdapters",
        "offset": 0,
        "slot": "15",
        "type": "t_mapping(t_address,t_address)"
      },
      {
        "astId": 13345,
        "contract": "contracts/bespokemarket/OpenSkyBespokeSettings.sol:OpenSkyBespokeSettings",
        "label": "_strategyWhitelist",
        "offset": 0,
        "slot": "16",
        "type": "t_mapping(t_address,t_bool)"
      }
    ],
    "types": {
      "t_address": {
        "encoding": "inplace",
        "label": "address",
        "numberOfBytes": "20"
      },
      "t_bool": {
        "encoding": "inplace",
        "label": "bool",
        "numberOfBytes": "1"
      },
      "t_mapping(t_address,t_address)": {
        "encoding": "mapping",
        "key": "t_address",
        "label": "mapping(address => address)",
        "numberOfBytes": "32",
        "value": "t_address"
      },
      "t_mapping(t_address,t_bool)": {
        "encoding": "mapping",
        "key": "t_address",
        "label": "mapping(address => bool)",
        "numberOfBytes": "32",
        "value": "t_bool"
      },
      "t_mapping(t_address,t_struct(WhitelistInfo)15751_storage)": {
        "encoding": "mapping",
        "key": "t_address",
        "label": "mapping(address => struct BespokeTypes.WhitelistInfo)",
        "numberOfBytes": "32",
        "value": "t_struct(WhitelistInfo)15751_storage"
      },
      "t_struct(WhitelistInfo)15751_storage": {
        "encoding": "inplace",
        "label": "struct BespokeTypes.WhitelistInfo",
        "members": [
          {
            "astId": 15744,
            "contract": "contracts/bespokemarket/OpenSkyBespokeSettings.sol:OpenSkyBespokeSettings",
            "label": "enabled",
            "offset": 0,
            "slot": "0",
            "type": "t_bool"
          },
          {
            "astId": 15746,
            "contract": "contracts/bespokemarket/OpenSkyBespokeSettings.sol:OpenSkyBespokeSettings",
            "label": "minBorrowDuration",
            "offset": 0,
            "slot": "1",
            "type": "t_uint256"
          },
          {
            "astId": 15748,
            "contract": "contracts/bespokemarket/OpenSkyBespokeSettings.sol:OpenSkyBespokeSettings",
            "label": "maxBorrowDuration",
            "offset": 0,
            "slot": "2",
            "type": "t_uint256"
          },
          {
            "astId": 15750,
            "contract": "contracts/bespokemarket/OpenSkyBespokeSettings.sol:OpenSkyBespokeSettings",
            "label": "overdueDuration",
            "offset": 0,
            "slot": "3",
            "type": "t_uint256"
          }
        ],
        "numberOfBytes": "128"
      },
      "t_uint256": {
        "encoding": "inplace",
        "label": "uint256",
        "numberOfBytes": "32"
      }
    }
  }
}