{
  "address": "0x85bC0df970D85D002bD958e73F0302cC02159074",
  "abi": [
    {
      "inputs": [
        {
          "internalType": "address",
          "name": "_apeCoinStakingContractAddress",
          "type": "address"
        },
        {
          "internalType": "address",
          "name": "_apeCoinContractAddress",
          "type": "address"
        },
        {
          "internalType": "address",
          "name": "_bakcContractAddress",
          "type": "address"
        },
        {
          "internalType": "address",
          "name": "_instantLoanCollateralHolder",
          "type": "address"
        },
        {
          "internalType": "address",
          "name": "_bespokeLoanCollateralHolder",
          "type": "address"
        }
      ],
      "stateMutability": "nonpayable",
      "type": "constructor"
    },
    {
      "inputs": [],
      "name": "apeCoin",
      "outputs": [
        {
          "internalType": "contract IERC20",
          "name": "",
          "type": "address"
        }
      ],
      "stateMutability": "view",
      "type": "function"
    },
    {
      "inputs": [],
      "name": "apeCoinStaking",
      "outputs": [
        {
          "internalType": "contract IApeCoinStaking",
          "name": "",
          "type": "address"
        }
      ],
      "stateMutability": "view",
      "type": "function"
    },
    {
      "inputs": [],
      "name": "bakc",
      "outputs": [
        {
          "internalType": "contract IERC721",
          "name": "",
          "type": "address"
        }
      ],
      "stateMutability": "view",
      "type": "function"
    },
    {
      "inputs": [],
      "name": "bespokeLoanCollateralHolder",
      "outputs": [
        {
          "internalType": "address",
          "name": "",
          "type": "address"
        }
      ],
      "stateMutability": "view",
      "type": "function"
    },
    {
      "inputs": [
        {
          "internalType": "address[]",
          "name": "nftAddresses",
          "type": "address[]"
        },
        {
          "internalType": "uint256[]",
          "name": "tokenIds",
          "type": "uint256[]"
        },
        {
          "internalType": "address",
          "name": "initiator",
          "type": "address"
        },
        {
          "internalType": "address",
          "name": "operator",
          "type": "address"
        },
        {
          "internalType": "bytes",
          "name": "params",
          "type": "bytes"
        }
      ],
      "name": "executeOperation",
      "outputs": [
        {
          "internalType": "bool",
          "name": "",
          "type": "bool"
        }
      ],
      "stateMutability": "nonpayable",
      "type": "function"
    },
    {
      "inputs": [],
      "name": "instantLoanCollateralHolder",
      "outputs": [
        {
          "internalType": "address",
          "name": "",
          "type": "address"
        }
      ],
      "stateMutability": "view",
      "type": "function"
    },
    {
      "inputs": [
        {
          "internalType": "address",
          "name": "",
          "type": "address"
        },
        {
          "internalType": "address",
          "name": "",
          "type": "address"
        },
        {
          "internalType": "uint256",
          "name": "",
          "type": "uint256"
        },
        {
          "internalType": "bytes",
          "name": "",
          "type": "bytes"
        }
      ],
      "name": "onERC721Received",
      "outputs": [
        {
          "internalType": "bytes4",
          "name": "",
          "type": "bytes4"
        }
      ],
      "stateMutability": "nonpayable",
      "type": "function"
    }
  ],
  "transactionHash": "0x1495d44dc4ec529600b29f585cd4091b2efc054a93d8ff5e8c88430bcb505ca4",
  "args": [
    "0x831e0c7A89Dbc52a1911b78ebf4ab905354C96Ce",
    "0x328507DC29C95c170B56a1b3A758eB7a9E73455c",
    "0xd60d682764Ee04e54707Bee7B564DC65b31884D0",
    "0xE033690a465122C0b17d4ea0D6B3588e6F041655",
    "0x5eBB5d0723EcD6c4740b8832f0bE316AA543960A"
  ],
  "solcInputHash": "320d587b79b26d1ac7bb4083e2a54418",
  "bytecode": "0x61012060405234801561001157600080fd5b50604051610d5c380380610d5c83398101604081905261003091610075565b6001600160a01b03918216608052811660a05292831660c05290821660e05216610100526100da565b80516001600160a01b038116811461007057600080fd5b919050565b600080600080600060a0868803121561008d57600080fd5b61009686610059565b94506100a460208701610059565b93506100b260408701610059565b92506100c060608701610059565b91506100ce60808701610059565b90509295509295909350565b60805160a05160c05160e05161010051610c0e61014e6000396000818160e6015281816102d901528181610398015281816104d901526105980152600061014c01526000818161019a015261046001526000818161012501526101fb01526000818161017301526101c90152610c0e6000f3fe608060405234801561001057600080fd5b506004361061007d5760003560e01c8063595d69761161005b578063595d697614610120578063ac7ad9ba14610147578063c28f87831461016e578063c9112a771461019557600080fd5b806308e896f014610082578063150b7a02146100aa5780631ab95b9d146100e1575b600080fd5b61009561009036600461078d565b6101bc565b60405190151581526020015b60405180910390f35b6100c86100b83660046108ed565b630a85bd0160e11b949350505050565b6040516001600160e01b031990911681526020016100a1565b6101087f000000000000000000000000000000000000000000000000000000000000000081565b6040516001600160a01b0390911681526020016100a1565b6101087f000000000000000000000000000000000000000000000000000000000000000081565b6101087f000000000000000000000000000000000000000000000000000000000000000081565b6101087f000000000000000000000000000000000000000000000000000000000000000081565b6101087f000000000000000000000000000000000000000000000000000000000000000081565b6000336001600160a01b037f000000000000000000000000000000000000000000000000000000000000000016148061021d5750336001600160a01b037f000000000000000000000000000000000000000000000000000000000000000016145b61026e5760405162461bcd60e51b815260206004820152601e60248201527f4f4e4c595f4f50454e534b595f434f4c4c41544552414c5f484f4c444552000060448201526064015b60405180910390fd5b336001600160a01b038516146102b55760405162461bcd60e51b815260206004820152600c60248201526b2820a920a6a9afa2a92927a960a11b6044820152606401610265565b600080806102c585870187610a55565b92509250925060005b8351811015610389577f00000000000000000000000000000000000000000000000000000000000000006001600160a01b03166342842e0e8a3087858151811061031a5761031a610acd565b6020026020010151602001516040518463ffffffff1660e01b815260040161034493929190610ae3565b600060405180830381600087803b15801561035e57600080fd5b505af1158015610372573d6000803e3d6000fd5b50505050808061038190610b07565b9150506102ce565b5060005b8251811015610448577f00000000000000000000000000000000000000000000000000000000000000006001600160a01b03166342842e0e8a308685815181106103d9576103d9610acd565b6020026020010151602001516040518463ffffffff1660e01b815260040161040393929190610ae3565b600060405180830381600087803b15801561041d57600080fd5b505af1158015610431573d6000803e3d6000fd5b50505050808061044090610b07565b91505061038d565b50604051637156b55f60e11b81526001600160a01b037f0000000000000000000000000000000000000000000000000000000000000000169063e2ad6abe9061049990869086908690600401610b76565b600060405180830381600087803b1580156104b357600080fd5b505af11580156104c7573d6000803e3d6000fd5b5050505060005b8351811015610589577f00000000000000000000000000000000000000000000000000000000000000006001600160a01b03166342842e0e308b87858151811061051a5761051a610acd565b6020026020010151602001516040518463ffffffff1660e01b815260040161054493929190610ae3565b600060405180830381600087803b15801561055e57600080fd5b505af1158015610572573d6000803e3d6000fd5b50505050808061058190610b07565b9150506104ce565b5060005b8251811015610648577f00000000000000000000000000000000000000000000000000000000000000006001600160a01b03166342842e0e308b8685815181106105d9576105d9610acd565b6020026020010151602001516040518463ffffffff1660e01b815260040161060393929190610ae3565b600060405180830381600087803b15801561061d57600080fd5b505af1158015610631573d6000803e3d6000fd5b50505050808061064090610b07565b91505061058d565b5060005b8b811015610716578c8c8281811061066657610666610acd565b905060200201602081019061067b9190610bb4565b6001600160a01b031663095ea7b3898d8d8581811061069c5761069c610acd565b6040516001600160e01b031960e087901b1681526001600160a01b0390941660048501526020029190910135602483015250604401600060405180830381600087803b1580156106eb57600080fd5b505af11580156106ff573d6000803e3d6000fd5b50505050808061070e90610b07565b91505061064c565b5060019c9b505050505050505050505050565b60008083601f84011261073b57600080fd5b50813567ffffffffffffffff81111561075357600080fd5b6020830191508360208260051b850101111561076e57600080fd5b9250929050565b6001600160a01b038116811461078a57600080fd5b50565b60008060008060008060008060a0898b0312156107a957600080fd5b883567ffffffffffffffff808211156107c157600080fd5b6107cd8c838d01610729565b909a50985060208b01359150808211156107e657600080fd5b6107f28c838d01610729565b909850965060408b0135915061080782610775565b90945060608a01359061081982610775565b90935060808a0135908082111561082f57600080fd5b818b0191508b601f83011261084357600080fd5b81358181111561085257600080fd5b8c602082850101111561086457600080fd5b6020830194508093505050509295985092959890939650565b634e487b7160e01b600052604160045260246000fd5b6040805190810167ffffffffffffffff811182821017156108b6576108b661087d565b60405290565b604051601f8201601f1916810167ffffffffffffffff811182821017156108e5576108e561087d565b604052919050565b6000806000806080858703121561090357600080fd5b843561090e81610775565b935060208581013561091f81610775565b935060408601359250606086013567ffffffffffffffff8082111561094357600080fd5b818801915088601f83011261095757600080fd5b8135818111156109695761096961087d565b61097b601f8201601f191685016108bc565b9150808252898482850101111561099157600080fd5b808484018584013760008482840101525080935050505092959194509250565b600082601f8301126109c257600080fd5b8135602067ffffffffffffffff8211156109de576109de61087d565b6109ec818360051b016108bc565b82815260069290921b84018101918181019086841115610a0b57600080fd5b8286015b84811015610a4a5760408189031215610a285760008081fd5b610a30610893565b813581528482013585820152835291830191604001610a0f565b509695505050505050565b600080600060608486031215610a6a57600080fd5b833567ffffffffffffffff80821115610a8257600080fd5b610a8e878388016109b1565b94506020860135915080821115610aa457600080fd5b50610ab1868287016109b1565b9250506040840135610ac281610775565b809150509250925092565b634e487b7160e01b600052603260045260246000fd5b6001600160a01b039384168152919092166020820152604081019190915260600190565b6000600019821415610b2957634e487b7160e01b600052601160045260246000fd5b5060010190565b600081518084526020808501945080840160005b83811015610b6b578151805188528301518388015260409096019590820190600101610b44565b509495945050505050565b606081526000610b896060830186610b30565b8281036020840152610b9b8186610b30565b91505060018060a01b0383166040830152949350505050565b600060208284031215610bc657600080fd5b8135610bd181610775565b939250505056fea2646970667358221220cb3f15549c436170e15c9d6de5ca5ed09f8afbbcee6493dccd5d4d7e556825ee64736f6c634300080a0033",
  "devdoc": {
    "kind": "dev",
    "methods": {
      "onERC721Received(address,address,uint256,bytes)": {
        "details": "See {IERC721Receiver-onERC721Received}. Always returns `IERC721Receiver.onERC721Received.selector`."
      }
    },
    "version": 1
  },
  "userdoc": {
    "kind": "user",
    "methods": {},
    "version": 1
  },
  "storageLayout": {
    "storage": [],
    "types": null
  }
}