{
  "address": "0x342B949A3C7F98400d7B58e3cBEc2fEed597D2eC",
  "abi": [
    {
      "inputs": [
        {
          "internalType": "contract IWETH",
          "name": "weth",
          "type": "address"
        },
        {
          "internalType": "contract IOpenSkySettings",
          "name": "settings",
          "type": "address"
        }
      ],
      "stateMutability": "nonpayable",
      "type": "constructor"
    },
    {
      "anonymous": false,
      "inputs": [
        {
          "indexed": true,
          "internalType": "address",
          "name": "sender",
          "type": "address"
        },
        {
          "indexed": true,
          "internalType": "address",
          "name": "nftAddress",
          "type": "address"
        },
        {
          "indexed": true,
          "internalType": "uint256",
          "name": "tokenId",
          "type": "uint256"
        }
      ],
      "name": "ClaimNFT",
      "type": "event"
    },
    {
      "anonymous": false,
      "inputs": [
        {
          "indexed": true,
          "internalType": "address",
          "name": "sender",
          "type": "address"
        },
        {
          "indexed": true,
          "internalType": "address",
          "name": "delegator",
          "type": "address"
        },
        {
          "indexed": true,
          "internalType": "uint256",
          "name": "loanId",
          "type": "uint256"
        }
      ],
      "name": "Delegate",
      "type": "event"
    },
    {
      "anonymous": false,
      "inputs": [
        {
          "indexed": true,
          "internalType": "address",
          "name": "sender",
          "type": "address"
        },
        {
          "indexed": true,
          "internalType": "uint256",
          "name": "loanId",
          "type": "uint256"
        },
        {
          "indexed": true,
          "internalType": "address",
          "name": "underlyingAsset",
          "type": "address"
        },
        {
          "indexed": false,
          "internalType": "uint256",
          "name": "amount",
          "type": "uint256"
        },
        {
          "indexed": false,
          "internalType": "uint256",
          "name": "duration",
          "type": "uint256"
        }
      ],
      "name": "Extend",
      "type": "event"
    },
    {
      "anonymous": false,
      "inputs": [
        {
          "indexed": true,
          "internalType": "address",
          "name": "sender",
          "type": "address"
        },
        {
          "indexed": true,
          "internalType": "uint256",
          "name": "loanId",
          "type": "uint256"
        },
        {
          "indexed": false,
          "internalType": "uint256",
          "name": "amount",
          "type": "uint256"
        },
        {
          "indexed": false,
          "internalType": "uint256",
          "name": "duration",
          "type": "uint256"
        }
      ],
      "name": "ExtendETH",
      "type": "event"
    },
    {
      "anonymous": false,
      "inputs": [
        {
          "indexed": true,
          "internalType": "address",
          "name": "sender",
          "type": "address"
        },
        {
          "indexed": false,
          "internalType": "uint256",
          "name": "amount",
          "type": "uint256"
        }
      ],
      "name": "Received",
      "type": "event"
    },
    {
      "anonymous": false,
      "inputs": [
        {
          "indexed": true,
          "internalType": "address",
          "name": "sender",
          "type": "address"
        },
        {
          "indexed": true,
          "internalType": "uint256",
          "name": "loanId",
          "type": "uint256"
        },
        {
          "indexed": true,
          "internalType": "address",
          "name": "underlyingAsset",
          "type": "address"
        },
        {
          "indexed": false,
          "internalType": "uint256",
          "name": "amount",
          "type": "uint256"
        }
      ],
      "name": "Repay",
      "type": "event"
    },
    {
      "anonymous": false,
      "inputs": [
        {
          "indexed": true,
          "internalType": "address",
          "name": "sender",
          "type": "address"
        },
        {
          "indexed": true,
          "internalType": "uint256",
          "name": "loanId",
          "type": "uint256"
        },
        {
          "indexed": false,
          "internalType": "uint256",
          "name": "amount",
          "type": "uint256"
        }
      ],
      "name": "RepayETH",
      "type": "event"
    },
    {
      "inputs": [],
      "name": "SETTINGS",
      "outputs": [
        {
          "internalType": "contract IOpenSkySettings",
          "name": "",
          "type": "address"
        }
      ],
      "stateMutability": "view",
      "type": "function"
    },
    {
      "inputs": [],
      "name": "WETH",
      "outputs": [
        {
          "internalType": "contract IWETH",
          "name": "",
          "type": "address"
        }
      ],
      "stateMutability": "view",
      "type": "function"
    },
    {
      "inputs": [
        {
          "internalType": "address",
          "name": "nftAddress",
          "type": "address"
        },
        {
          "internalType": "uint256",
          "name": "tokenId",
          "type": "uint256"
        }
      ],
      "name": "claimNFT",
      "outputs": [],
      "stateMutability": "nonpayable",
      "type": "function"
    },
    {
      "inputs": [
        {
          "internalType": "address",
          "name": "delegator",
          "type": "address"
        },
        {
          "internalType": "uint256",
          "name": "loanId",
          "type": "uint256"
        }
      ],
      "name": "delegate",
      "outputs": [],
      "stateMutability": "nonpayable",
      "type": "function"
    },
    {
      "inputs": [
        {
          "internalType": "address",
          "name": "",
          "type": "address"
        },
        {
          "internalType": "address",
          "name": "",
          "type": "address"
        },
        {
          "internalType": "uint256",
          "name": "",
          "type": "uint256"
        }
      ],
      "name": "delegators",
      "outputs": [
        {
          "internalType": "address",
          "name": "",
          "type": "address"
        }
      ],
      "stateMutability": "view",
      "type": "function"
    },
    {
      "inputs": [
        {
          "internalType": "uint256",
          "name": "loanId",
          "type": "uint256"
        },
        {
          "internalType": "uint256",
          "name": "extendAmount",
          "type": "uint256"
        },
        {
          "internalType": "uint256",
          "name": "duration",
          "type": "uint256"
        },
        {
          "internalType": "uint256",
          "name": "amount",
          "type": "uint256"
        }
      ],
      "name": "extend",
      "outputs": [],
      "stateMutability": "nonpayable",
      "type": "function"
    },
    {
      "inputs": [
        {
          "internalType": "uint256",
          "name": "loanId",
          "type": "uint256"
        },
        {
          "internalType": "uint256",
          "name": "amount",
          "type": "uint256"
        },
        {
          "internalType": "uint256",
          "name": "duration",
          "type": "uint256"
        }
      ],
      "name": "extendETH",
      "outputs": [],
      "stateMutability": "payable",
      "type": "function"
    },
    {
      "inputs": [
        {
          "internalType": "address",
          "name": "owner",
          "type": "address"
        },
        {
          "internalType": "address",
          "name": "nftAddress",
          "type": "address"
        },
        {
          "internalType": "uint256",
          "name": "tokenId",
          "type": "uint256"
        }
      ],
      "name": "getDelegator",
      "outputs": [
        {
          "internalType": "address",
          "name": "",
          "type": "address"
        }
      ],
      "stateMutability": "view",
      "type": "function"
    },
    {
      "inputs": [
        {
          "internalType": "address",
          "name": "nftAddress",
          "type": "address"
        },
        {
          "internalType": "uint256",
          "name": "tokenId",
          "type": "uint256"
        }
      ],
      "name": "getLoanOwner",
      "outputs": [
        {
          "internalType": "address",
          "name": "",
          "type": "address"
        }
      ],
      "stateMutability": "view",
      "type": "function"
    },
    {
      "inputs": [
        {
          "internalType": "address",
          "name": "",
          "type": "address"
        },
        {
          "internalType": "uint256",
          "name": "",
          "type": "uint256"
        }
      ],
      "name": "loanOwners",
      "outputs": [
        {
          "internalType": "address",
          "name": "",
          "type": "address"
        }
      ],
      "stateMutability": "view",
      "type": "function"
    },
    {
      "inputs": [
        {
          "internalType": "address",
          "name": "",
          "type": "address"
        },
        {
          "internalType": "address",
          "name": "",
          "type": "address"
        },
        {
          "internalType": "uint256",
          "name": "",
          "type": "uint256"
        },
        {
          "internalType": "bytes",
          "name": "",
          "type": "bytes"
        }
      ],
      "name": "onERC721Received",
      "outputs": [
        {
          "internalType": "bytes4",
          "name": "",
          "type": "bytes4"
        }
      ],
      "stateMutability": "nonpayable",
      "type": "function"
    },
    {
      "inputs": [
        {
          "internalType": "uint256",
          "name": "loanId",
          "type": "uint256"
        },
        {
          "internalType": "uint256",
          "name": "amount",
          "type": "uint256"
        }
      ],
      "name": "repay",
      "outputs": [],
      "stateMutability": "nonpayable",
      "type": "function"
    },
    {
      "inputs": [
        {
          "internalType": "uint256",
          "name": "loanId",
          "type": "uint256"
        }
      ],
      "name": "repayETH",
      "outputs": [],
      "stateMutability": "payable",
      "type": "function"
    },
    {
      "stateMutability": "payable",
      "type": "receive"
    }
  ],
  "transactionHash": "0xadf6171ba4a55afaabf839b7419bd31b0d44307c842157606c05370016eae5fd",
  "args": [
    "0x2b4393A035BC4144bE02953d6C8bcF010aBe1cA0",
    "0x90499A6848275e03E8De6608980F4e7d32fbaF6F"
  ],
  "solcInputHash": "1adce8eb00e8fa6c1093f903640415a9",
  "bytecode": "0x60806040523480156200001157600080fd5b50604051620029b1380380620029b183398101604081905262000034916200007f565b600080546001600160a01b039384166001600160a01b03199182161790915560018054929093169116179055620000be565b6001600160a01b03811681146200007c57600080fd5b50565b600080604083850312156200009357600080fd5b8251620000a08162000066565b6020840151909250620000b38162000066565b809150509250929050565b6128e380620000ce6000396000f3fe6080604052600436106100c65760003560e01c806374c289d61161007f578063bfe6fe6911610059578063bfe6fe69146102a5578063d88b2f49146102ec578063d8aed1451461032d578063dc0b560e1461034d57600080fd5b806374c289d61461022d578063ad5c464814610265578063ade97ab51461028557600080fd5b8063026e402b1461015c5780630801ad261461017e578063150b7a021461019e5780632247463e146101e757806333a10cc1146101fa57806371b5458f1461021a57600080fd5b36610157576000546001600160a01b031633146101205760405162461bcd60e51b8152602060048201526013602482015272149150d152559157d393d517d0531313d5d151606a1b60448201526064015b60405180910390fd5b60405134815233907f88a5966d370b9919b20f3e2c13ff65706f196a4e32cc2c12bf57088f885258749060200160405180910390a2005b600080fd5b34801561016857600080fd5b5061017c6101773660046122c1565b61036d565b005b34801561018a57600080fd5b5061017c6101993660046122ed565b6103d0565b3480156101aa57600080fd5b506101c96101b93660046123b4565b630a85bd0160e11b949350505050565b6040516001600160e01b031990911681526020015b60405180910390f35b61017c6101f5366004612478565b61082f565b34801561020657600080fd5b5061017c6102153660046122c1565b610d73565b61017c610228366004612491565b610e98565b34801561023957600080fd5b5061024d6102483660046124bd565b61138b565b6040516001600160a01b0390911681526020016101de565b34801561027157600080fd5b5060005461024d906001600160a01b031681565b34801561029157600080fd5b5060015461024d906001600160a01b031681565b3480156102b157600080fd5b5061024d6102c03660046124bd565b60026020908152600093845260408085208252928452828420905282529020546001600160a01b031681565b3480156102f857600080fd5b5061024d6103073660046122c1565b60036020908152600092835260408084209091529082529020546001600160a01b031681565b34801561033957600080fd5b5061017c6103483660046124fe565b6113c3565b34801561035957600080fd5b5061024d6103683660046122c1565b61190b565b6001600160a01b0382161561038b576103868282611933565b610394565b61039481611c7c565b60405181906001600160a01b0384169033907f510b11bb3f3c799b11307c01ab7db0d335683ef5b2da98f7697de744f465eacc90600090a45050565b60015460408051631ade434560e11b815290516000926001600160a01b0316916335bc868a9160048083019260209291908290030181865afa15801561041a573d6000803e3d6000fd5b505050506040513d601f19601f8201168201806040525081019061043e9190612530565b60405163622fe39f60e01b8152600481018790529091506000906001600160a01b0383169063622fe39f906024016101c060405180830381865afa15801561048a573d6000803e3d6000fd5b505050506040513d601f19601f820116820180604052508101906104ae9190612591565b90506104c33382602001518360400151611e7e565b6104df5760405162461bcd60e51b81526004016101179061268c565b60015460408051631755ff2160e01b815290516000926001600160a01b031691631755ff219160048083019260209291908290030181865afa158015610529573d6000803e3d6000fd5b505050506040513d601f19601f8201168201806040525081019061054d9190612530565b82516040516391541e0560e01b815260048101919091529091506000906001600160a01b038316906391541e059060240161018060405180830381865afa15801561059c573d6000803e3d6000fd5b505050506040513d601f19601f820116820180604052508101906105c091906126d3565b905084156106df5760208101516105e2906001600160a01b0316333088611ed1565b80602001516001600160a01b031663095ea7b3600160009054906101000a90046001600160a01b03166001600160a01b0316631755ff216040518163ffffffff1660e01b8152600401602060405180830381865afa158015610648573d6000803e3d6000fd5b505050506040513d601f19601f8201168201806040525081019061066c9190612530565b6040516001600160e01b031960e084901b1681526001600160a01b039091166004820152602481018890526044016020604051808303816000875af11580156106b9573d6000803e3d6000fd5b505050506040513d601f19601f820116820180604052508101906106dd9190612791565b505b6040516333889f7b60e11b815260048101899052602481018890526044810187905230606482015260009081906001600160a01b038516906367113ef69060840160408051808303816000875af115801561073e573d6000803e3d6000fd5b505050506040513d601f19601f8201168201806040525081019061076291906127ac565b915091508187111561079857600061077a83896127d0565b6020850151909150610796906001600160a01b03163383611f2f565b505b80156107c8576107c86107b38660200151876040015161190b565b60208501516001600160a01b03169083611f2f565b82602001516001600160a01b03168a336001600160a01b03167f37124af7165421ab05693953cb6648e87ed0941a9f90f1e4c6df248e57ea605d8a8c60405161081b929190918252602082015260400190565b60405180910390a450505050505050505050565b60015460408051631ade434560e11b815290516000926001600160a01b0316916335bc868a9160048083019260209291908290030181865afa158015610879573d6000803e3d6000fd5b505050506040513d601f19601f8201168201806040525081019061089d9190612530565b6001600160a01b031663622fe39f836040518263ffffffff1660e01b81526004016108ca91815260200190565b6101c060405180830381865afa1580156108e8573d6000803e3d6000fd5b505050506040513d601f19601f8201168201806040525081019061090c9190612591565b905061092081602001518260400151611f64565b61095b5760405162461bcd60e51b815260206004820152600c60248201526b2727afa222a622a3a0aa27a960a11b6044820152606401610117565b600061096f8260200151836040015161190b565b6001600160a01b0380821660009081526002602090815260408083208783018051861685529083528184208883018051865290845282852080546001600160a01b03199081169091559151861685526003845282852090518552909252808320805490921690915581548151630d0e30db60e41b815291519495509092169263d0e30db0923492600480830193919282900301818588803b158015610a1357600080fd5b505af1158015610a27573d6000803e3d6000fd5b50505050506000600160009054906101000a90046001600160a01b03166001600160a01b0316631755ff216040518163ffffffff1660e01b8152600401602060405180830381865afa158015610a81573d6000803e3d6000fd5b505050506040513d601f19601f82011682018060405250810190610aa59190612530565b60005460015460408051631755ff2160e01b815290519394506001600160a01b039283169363095ea7b39390921691631755ff21916004808201926020929091908290030181865afa158015610aff573d6000803e3d6000fd5b505050506040513d601f19601f82011682018060405250810190610b239190612530565b6040516001600160e01b031960e084901b1681526001600160a01b0390911660048201523460248201526044016020604051808303816000875af1158015610b6f573d6000803e3d6000fd5b505050506040513d601f19601f82011682018060405250810190610b939190612791565b50604051631b8fec7360e11b8152600481018590526000906001600160a01b0383169063371fd8e6906024016020604051808303816000875af1158015610bde573d6000803e3d6000fd5b505050506040513d601f19601f82011682018060405250810190610c0291906127f5565b905080341015610c4c5760405162461bcd60e51b81526020600482015260156024820152742922a820acafa6a9a3afab20a62aa2afa2a92927a960591b6044820152606401610117565b83602001516001600160a01b03166342842e0e308587604001516040518463ffffffff1660e01b8152600401610c849392919061280e565b600060405180830381600087803b158015610c9e57600080fd5b505af1158015610cb2573d6000803e3d6000fd5b5050505080341115610d35576000610cca82346127d0565b600054604051632e1a7d4d60e01b8152600481018390529192506001600160a01b031690632e1a7d4d90602401600060405180830381600087803b158015610d1157600080fd5b505af1158015610d25573d6000803e3d6000fd5b50505050610d333382611fac565b505b604051818152859033907f8a3b4b3512c2c0435b92830e2568c046bdea43bc1a41308cf9728fac0e1bcd549060200160405180910390a35050505050565b610d7e338383611e7e565b610d9a5760405162461bcd60e51b81526004016101179061268c565b6000610da6838361190b565b6001600160a01b038082166000908152600260209081526040808320938816808452938252808320878452825280832080546001600160a01b031990811690915584845260038352818420888552909252918290208054909116905551632142170760e11b8152919250906342842e0e90610e299030908590879060040161280e565b600060405180830381600087803b158015610e4357600080fd5b505af1158015610e57573d6000803e3d6000fd5b50506040518492506001600160a01b038616915033907f040389a73767c5f67f650d528d0035127f2e7464d82519881f3af541d2f5ce5c90600090a4505050565b60015460408051631ade434560e11b815290516000926001600160a01b0316916335bc868a9160048083019260209291908290030181865afa158015610ee2573d6000803e3d6000fd5b505050506040513d601f19601f82011682018060405250810190610f069190612530565b60405163622fe39f60e01b8152600481018690529091506000906001600160a01b0383169063622fe39f906024016101c060405180830381865afa158015610f52573d6000803e3d6000fd5b505050506040513d601f19601f82011682018060405250810190610f769190612591565b9050610f8b3382602001518360400151611e7e565b610fa75760405162461bcd60e51b81526004016101179061268c565b60008054906101000a90046001600160a01b03166001600160a01b031663d0e30db0346040518263ffffffff1660e01b81526004016000604051808303818588803b158015610ff557600080fd5b505af1158015611009573d6000803e3d6000fd5b50505050506000600160009054906101000a90046001600160a01b03166001600160a01b0316631755ff216040518163ffffffff1660e01b8152600401602060405180830381865afa158015611063573d6000803e3d6000fd5b505050506040513d601f19601f820116820180604052508101906110879190612530565b60005460015460408051631755ff2160e01b815290519394506001600160a01b039283169363095ea7b39390921691631755ff21916004808201926020929091908290030181865afa1580156110e1573d6000803e3d6000fd5b505050506040513d601f19601f820116820180604052508101906111059190612530565b6040516001600160e01b031960e084901b1681526001600160a01b0390911660048201523460248201526044016020604051808303816000875af1158015611151573d6000803e3d6000fd5b505050506040513d601f19601f820116820180604052508101906111759190612791565b506040516333889f7b60e11b815260048101879052602481018690526044810185905230606482015260009081906001600160a01b038416906367113ef69060840160408051808303816000875af11580156111d5573d6000803e3d6000fd5b505050506040513d601f19601f820116820180604052508101906111f991906127ac565b91509150813410156112465760405162461bcd60e51b815260206004820152601660248201527522ac2a22a7222fa6a9a3afab20a62aa2afa2a92927a960511b6044820152606401610117565b813411156112c557600061125a83346127d0565b600054604051632e1a7d4d60e01b8152600481018390529192506001600160a01b031690632e1a7d4d90602401600060405180830381600087803b1580156112a157600080fd5b505af11580156112b5573d6000803e3d6000fd5b505050506112c33382611fac565b505b801561134457600054604051632e1a7d4d60e01b8152600481018390526001600160a01b0390911690632e1a7d4d90602401600060405180830381600087803b15801561131157600080fd5b505af1158015611325573d6000803e3d6000fd5b5050505061134461133e8560200151866040015161190b565b82611fac565b6040805188815260208101889052899133917f1f3058b483041d4b752f855afd407c12c68dc9b910fbd9937836e3e3791204ea910160405180910390a35050505050505050565b6001600160a01b03808416600090815260026020908152604080832086851684528252808320858452909152902054165b9392505050565b60015460408051631ade434560e11b815290516000926001600160a01b0316916335bc868a9160048083019260209291908290030181865afa15801561140d573d6000803e3d6000fd5b505050506040513d601f19601f820116820180604052508101906114319190612530565b60405163622fe39f60e01b8152600481018590529091506000906001600160a01b0383169063622fe39f906024016101c060405180830381865afa15801561147d573d6000803e3d6000fd5b505050506040513d601f19601f820116820180604052508101906114a19190612591565b90506114b581602001518260400151611f64565b6114f05760405162461bcd60e51b815260206004820152600c60248201526b2727afa222a622a3a0aa27a960a11b6044820152606401610117565b60006115048260200151836040015161190b565b6001600160a01b0380821660009081526002602090815260408083208783018051861685529083528184208883018051865290845282852080546001600160a01b031990811690915591518616855260038452828520905185528352818420805490911690556001548151631755ff2160e01b8152915195965092949290931692631755ff2192600480830193928290030181865afa1580156115ab573d6000803e3d6000fd5b505050506040513d601f19601f820116820180604052508101906115cf9190612530565b83516040516391541e0560e01b815260048101919091529091506000906001600160a01b038316906391541e059060240161018060405180830381865afa15801561161e573d6000803e3d6000fd5b505050506040513d601f19601f8201168201806040525081019061164291906126d3565b602081015190915061165f906001600160a01b0316333089611ed1565b80602001516001600160a01b031663095ea7b3600160009054906101000a90046001600160a01b03166001600160a01b0316631755ff216040518163ffffffff1660e01b8152600401602060405180830381865afa1580156116c5573d6000803e3d6000fd5b505050506040513d601f19601f820116820180604052508101906116e99190612530565b6040516001600160e01b031960e084901b1681526001600160a01b039091166004820152602481018990526044016020604051808303816000875af1158015611736573d6000803e3d6000fd5b505050506040513d601f19601f8201168201806040525081019061175a9190612791565b50604051631b8fec7360e11b8152600481018890526000906001600160a01b0384169063371fd8e6906024016020604051808303816000875af11580156117a5573d6000803e3d6000fd5b505050506040513d601f19601f820116820180604052508101906117c991906127f5565b9050808710156118135760405162461bcd60e51b81526020600482015260156024820152742922a820acafa6a9a3afab20a62aa2afa2a92927a960591b6044820152606401610117565b84602001516001600160a01b03166342842e0e308688604001516040518463ffffffff1660e01b815260040161184b9392919061280e565b600060405180830381600087803b15801561186557600080fd5b505af1158015611879573d6000803e3d6000fd5b50505050808711156118af57600061189182896127d0565b60208401519091506118ad906001600160a01b03163383611f2f565b505b81602001516001600160a01b031688336001600160a01b03167fd7aefa450d0471f7802f5602587523a1c9eb42f752cf525eab3ace085597e475846040516118f991815260200190565b60405180910390a45050505050505050565b6001600160a01b03918216600090815260036020908152604080832093835292905220541690565b60015460408051631ade434560e11b815290516000926001600160a01b0316916335bc868a9160048083019260209291908290030181865afa15801561197d573d6000803e3d6000fd5b505050506040513d601f19601f820116820180604052508101906119a19190612530565b60405163622fe39f60e01b8152600481018490529091506000906001600160a01b0383169063622fe39f906024016101c060405180830381865afa1580156119ed573d6000803e3d6000fd5b505050506040513d601f19601f82011682018060405250810190611a119190612591565b6040516331a9108f60e11b81526004810185905290915033906001600160a01b03841690636352211e90602401602060405180830381865afa158015611a5b573d6000803e3d6000fd5b505050506040513d601f19601f82011682018060405250810190611a7f9190612530565b6001600160a01b03161480611ab65750336001600160a01b0316611aab8260200151836040015161190b565b6001600160a01b0316145b611aef5760405162461bcd60e51b815260206004820152600a60248201526927a7262cafa7aba722a960b11b6044820152606401610117565b33600081815260026020908152604080832085830180516001600160a01b0390811686529184528285208784018051875290855283862080546001600160a01b0319168c8516179055905182168552600384528285209051855290925290912054168114611b99576020828101516001600160a01b0390811660009081526003835260408082208187015183529093529190912080546001600160a01b0319169183169190911790555b6040516331a9108f60e11b81526004810185905230906001600160a01b03851690636352211e90602401602060405180830381865afa158015611be0573d6000803e3d6000fd5b505050506040513d601f19601f82011682018060405250810190611c049190612530565b6001600160a01b031614611c7557604051632142170760e11b81526001600160a01b038416906342842e0e90611c429084903090899060040161280e565b600060405180830381600087803b158015611c5c57600080fd5b505af1158015611c70573d6000803e3d6000fd5b505050505b5050505050565b60015460408051631ade434560e11b815290516000926001600160a01b0316916335bc868a9160048083019260209291908290030181865afa158015611cc6573d6000803e3d6000fd5b505050506040513d601f19601f82011682018060405250810190611cea9190612530565b60405163622fe39f60e01b8152600481018490529091506000906001600160a01b0383169063622fe39f906024016101c060405180830381865afa158015611d36573d6000803e3d6000fd5b505050506040513d601f19601f82011682018060405250810190611d5a9190612591565b90506000611d708260200151836040015161190b565b90506001600160a01b0381163314611db75760405162461bcd60e51b815260206004820152600a60248201526927a7262cafa7aba722a960b11b6044820152606401610117565b6001600160a01b0380821660009081526002602090815260408083208683018051861685529083528184208783018051865290845282852080546001600160a01b03199081169091559151861685526003845282852090518552909252918290208054909116905551632142170760e11b8152908416906342842e0e90611e469030908590899060040161280e565b600060405180830381600087803b158015611e6057600080fd5b505af1158015611e74573d6000803e3d6000fd5b5050505050505050565b600080611e8b848461190b565b9050846001600160a01b0316816001600160a01b03161480611ec85750846001600160a01b0316611ebd82868661138b565b6001600160a01b0316145b95945050505050565b611f29846323b872dd60e01b858585604051602401611ef29392919061280e565b60408051601f198184030181529190526020810180516001600160e01b03166001600160e01b03199093169290921790915261205f565b50505050565b6040516001600160a01b038316602482015260448101829052611f5f90849063a9059cbb60e01b90606401611ef2565b505050565b600080611f71848461190b565b6001600160a01b0390811660009081526002602090815260408083208885168452825280832087845290915290205416151591505092915050565b604080516000808252602082019092526001600160a01b038416908390604051611fd6919061285e565b60006040518083038185875af1925050503d8060008114612013576040519150601f19603f3d011682016040523d82523d6000602084013e612018565b606091505b5050905080611f5f5760405162461bcd60e51b815260206004820152601360248201527211551217d514905394d1915497d19052531151606a1b6044820152606401610117565b60006120b4826040518060400160405280602081526020017f5361666545524332303a206c6f772d6c6576656c2063616c6c206661696c6564815250856001600160a01b03166121319092919063ffffffff16565b805190915015611f5f57808060200190518101906120d29190612791565b611f5f5760405162461bcd60e51b815260206004820152602a60248201527f5361666545524332303a204552433230206f7065726174696f6e20646964206e6044820152691bdd081cdd58d8d9595960b21b6064820152608401610117565b60606121408484600085612148565b949350505050565b6060824710156121a95760405162461bcd60e51b815260206004820152602660248201527f416464726573733a20696e73756666696369656e742062616c616e636520666f6044820152651c8818d85b1b60d21b6064820152608401610117565b843b6121f75760405162461bcd60e51b815260206004820152601d60248201527f416464726573733a2063616c6c20746f206e6f6e2d636f6e74726163740000006044820152606401610117565b600080866001600160a01b03168587604051612213919061285e565b60006040518083038185875af1925050503d8060008114612250576040519150601f19603f3d011682016040523d82523d6000602084013e612255565b606091505b5091509150612265828286612270565b979650505050505050565b6060831561227f5750816113bc565b82511561228f5782518084602001fd5b8160405162461bcd60e51b8152600401610117919061287a565b6001600160a01b03811681146122be57600080fd5b50565b600080604083850312156122d457600080fd5b82356122df816122a9565b946020939093013593505050565b6000806000806080858703121561230357600080fd5b5050823594602084013594506040840135936060013592509050565b634e487b7160e01b600052604160045260246000fd5b6040516101c0810167ffffffffffffffff811182821017156123595761235961231f565b60405290565b604051610180810167ffffffffffffffff811182821017156123595761235961231f565b604051601f8201601f1916810167ffffffffffffffff811182821017156123ac576123ac61231f565b604052919050565b600080600080608085870312156123ca57600080fd5b84356123d5816122a9565b93506020858101356123e6816122a9565b935060408601359250606086013567ffffffffffffffff8082111561240a57600080fd5b818801915088601f83011261241e57600080fd5b8135818111156124305761243061231f565b612442601f8201601f19168501612383565b9150808252898482850101111561245857600080fd5b808484018584013760008482840101525080935050505092959194509250565b60006020828403121561248a57600080fd5b5035919050565b6000806000606084860312156124a657600080fd5b505081359360208301359350604090920135919050565b6000806000606084860312156124d257600080fd5b83356124dd816122a9565b925060208401356124ed816122a9565b929592945050506040919091013590565b6000806040838503121561251157600080fd5b50508035926020909101359150565b805161252b816122a9565b919050565b60006020828403121561254257600080fd5b81516113bc816122a9565b80516fffffffffffffffffffffffffffffffff8116811461252b57600080fd5b805164ffffffffff8116811461252b57600080fd5b80516006811061252b57600080fd5b60006101c082840312156125a457600080fd5b6125ac612335565b825181526125bc60208401612520565b6020820152604083015160408201526125d760608401612520565b6060820152608083015160808201526125f260a0840161254d565b60a082015261260360c0840161254d565b60c082015261261460e0840161256d565b60e082015261010061262781850161256d565b9082015261012061263984820161256d565b9082015261014061264b84820161256d565b9082015261016061265d84820161256d565b9082015261018061266f84820161256d565b908201526101a0612681848201612582565b908201529392505050565b60208082526017908201527f4f4e4c595f4f574e45525f4f525f44454c454741544f52000000000000000000604082015260600190565b8051801515811461252b57600080fd5b600061018082840312156126e657600080fd5b6126ee61235f565b825181526126fe60208401612520565b602082015261270f60408401612520565b604082015261272060608401612520565b60608201526127316080840161254d565b608082015260a083015160a082015260c083015160c082015261275660e0840161256d565b60e08201526101008381015190820152610120612774818501612520565b9082015261014083810151908201526101606126818185016126c3565b6000602082840312156127a357600080fd5b6113bc826126c3565b600080604083850312156127bf57600080fd5b505080516020909101519092909150565b6000828210156127f057634e487b7160e01b600052601160045260246000fd5b500390565b60006020828403121561280757600080fd5b5051919050565b6001600160a01b039384168152919092166020820152604081019190915260600190565b60005b8381101561284d578181015183820152602001612835565b83811115611f295750506000910152565b60008251612870818460208701612832565b9190910192915050565b6020815260008251806020840152612899816040850160208701612832565b601f01601f1916919091016040019291505056fea2646970667358221220fdd548ec0159791df7fe80505f4b847cf95e66e2a71387bd09ff7fa064e56e1c64736f6c634300080a0033",
  "devdoc": {
    "kind": "dev",
    "methods": {
      "onERC721Received(address,address,uint256,bytes)": {
        "details": "See {IERC721Receiver-onERC721Received}. Always returns `IERC721Receiver.onERC721Received.selector`."
      }
    },
    "version": 1
  },
  "userdoc": {
    "kind": "user",
    "methods": {},
    "version": 1
  },
  "storageLayout": {
    "storage": [
      {
        "astId": 24229,
        "contract": "contracts/misc/OpenSkyLoanDelegator.sol:OpenSkyLoanDelegator",
        "label": "WETH",
        "offset": 0,
        "slot": "0",
        "type": "t_contract(IWETH)18328"
      },
      {
        "astId": 24232,
        "contract": "contracts/misc/OpenSkyLoanDelegator.sol:OpenSkyLoanDelegator",
        "label": "SETTINGS",
        "offset": 0,
        "slot": "1",
        "type": "t_contract(IOpenSkySettings)20058"
      },
      {
        "astId": 24240,
        "contract": "contracts/misc/OpenSkyLoanDelegator.sol:OpenSkyLoanDelegator",
        "label": "delegators",
        "offset": 0,
        "slot": "2",
        "type": "t_mapping(t_address,t_mapping(t_address,t_mapping(t_uint256,t_address)))"
      },
      {
        "astId": 24246,
        "contract": "contracts/misc/OpenSkyLoanDelegator.sol:OpenSkyLoanDelegator",
        "label": "loanOwners",
        "offset": 0,
        "slot": "3",
        "type": "t_mapping(t_address,t_mapping(t_uint256,t_address))"
      }
    ],
    "types": {
      "t_address": {
        "encoding": "inplace",
        "label": "address",
        "numberOfBytes": "20"
      },
      "t_contract(IOpenSkySettings)20058": {
        "encoding": "inplace",
        "label": "contract IOpenSkySettings",
        "numberOfBytes": "20"
      },
      "t_contract(IWETH)18328": {
        "encoding": "inplace",
        "label": "contract IWETH",
        "numberOfBytes": "20"
      },
      "t_mapping(t_address,t_mapping(t_address,t_mapping(t_uint256,t_address)))": {
        "encoding": "mapping",
        "key": "t_address",
        "label": "mapping(address => mapping(address => mapping(uint256 => address)))",
        "numberOfBytes": "32",
        "value": "t_mapping(t_address,t_mapping(t_uint256,t_address))"
      },
      "t_mapping(t_address,t_mapping(t_uint256,t_address))": {
        "encoding": "mapping",
        "key": "t_address",
        "label": "mapping(address => mapping(uint256 => address))",
        "numberOfBytes": "32",
        "value": "t_mapping(t_uint256,t_address)"
      },
      "t_mapping(t_uint256,t_address)": {
        "encoding": "mapping",
        "key": "t_uint256",
        "label": "mapping(uint256 => address)",
        "numberOfBytes": "32",
        "value": "t_address"
      },
      "t_uint256": {
        "encoding": "inplace",
        "label": "uint256",
        "numberOfBytes": "32"
      }
    }
  }
}