{
  "address": "0x51f58C8b55844Ba08e066c12B1aacf5b57bdA426",
  "abi": [
    {
      "inputs": [
        {
          "internalType": "contract IOpenSkyBespokeMarket",
          "name": "MARKET_",
          "type": "address"
        }
      ],
      "stateMutability": "nonpayable",
      "type": "constructor"
    },
    {
      "inputs": [],
      "name": "MARKET",
      "outputs": [
        {
          "internalType": "contract IOpenSkyBespokeMarket",
          "name": "",
          "type": "address"
        }
      ],
      "stateMutability": "view",
      "type": "function"
    },
    {
      "inputs": [
        {
          "internalType": "uint256",
          "name": "loanId",
          "type": "uint256"
        }
      ],
      "name": "getLoanData",
      "outputs": [
        {
          "components": [
            {
              "internalType": "uint256",
              "name": "reserveId",
              "type": "uint256"
            },
            {
              "internalType": "address",
              "name": "nftAddress",
              "type": "address"
            },
            {
              "internalType": "uint256",
              "name": "tokenId",
              "type": "uint256"
            },
            {
              "internalType": "uint256",
              "name": "tokenAmount",
              "type": "uint256"
            },
            {
              "internalType": "address",
              "name": "borrower",
              "type": "address"
            },
            {
              "internalType": "uint256",
              "name": "amount",
              "type": "uint256"
            },
            {
              "internalType": "uint128",
              "name": "borrowRate",
              "type": "uint128"
            },
            {
              "internalType": "uint128",
              "name": "interestPerSecond",
              "type": "uint128"
            },
            {
              "internalType": "address",
              "name": "currency",
              "type": "address"
            },
            {
              "internalType": "uint40",
              "name": "borrowDuration",
              "type": "uint40"
            },
            {
              "internalType": "uint40",
              "name": "borrowBegin",
              "type": "uint40"
            },
            {
              "internalType": "uint40",
              "name": "borrowOverdueTime",
              "type": "uint40"
            },
            {
              "internalType": "uint40",
              "name": "liquidatableTime",
              "type": "uint40"
            },
            {
              "internalType": "address",
              "name": "lender",
              "type": "address"
            },
            {
              "internalType": "enum BespokeTypes.LoanStatus",
              "name": "status",
              "type": "uint8"
            },
            {
              "internalType": "uint256",
              "name": "loanId",
              "type": "uint256"
            },
            {
              "internalType": "uint256",
              "name": "borrowBalance",
              "type": "uint256"
            },
            {
              "internalType": "uint256",
              "name": "penalty",
              "type": "uint256"
            },
            {
              "internalType": "uint256",
              "name": "borrowInterest",
              "type": "uint256"
            }
          ],
          "internalType": "struct IOpenSkyBespokeDataProvider.LoanDataUI",
          "name": "",
          "type": "tuple"
        }
      ],
      "stateMutability": "view",
      "type": "function"
    }
  ],
  "transactionHash": "0xcd0c1d6a6c105aef39b9b55b433d35f327abd173e19aa0e0ea694544ba92651e",
  "args": [
    "0xa4de8a83Ed79754B96b13233A220E337C86160d3"
  ],
  "solcInputHash": "52db335744ccba4923b671cf9bf608b9",
  "bytecode": "0x60a060405234801561001057600080fd5b506040516108f23803806108f283398101604081905261002f91610040565b6001600160a01b0316608052610070565b60006020828403121561005257600080fd5b81516001600160a01b038116811461006957600080fd5b9392505050565b60805161084c6100a660003960008181606901528181610158015281816102e301528181610377015261040b015261084c6000f3fe608060405234801561001057600080fd5b50600436106100365760003560e01c8063622fe39f1461003b578063f46f16c214610064575b600080fd5b61004e6100493660046104a1565b6100a3565b60405161005b91906104f2565b60405180910390f35b61008b7f000000000000000000000000000000000000000000000000000000000000000081565b6040516001600160a01b03909116815260200161005b565b61013f6040805161026081018252600080825260208201819052918101829052606081018290526080810182905260a0810182905260c0810182905260e08101829052610100810182905261012081018290526101408101829052610160810182905261018081018290526101a08101829052906101c08201908152602001600081526020016000815260200160008152602001600081525090565b60405163622fe39f60e01b8152600481018390526000907f00000000000000000000000000000000000000000000000000000000000000006001600160a01b03169063622fe39f9060240161022060405180830381865afa1580156101a8573d6000803e3d6000fd5b505050506040513d601f19601f820116820180604052508101906101cc91906106d3565b90506040518061026001604052808260000151815260200182602001516001600160a01b0316815260200182604001518152602001826060015181526020018260a001516001600160a01b031681526020018260e0015181526020018261010001516001600160801b031681526020018261012001516001600160801b031681526020018261014001516001600160a01b0316815260200182610160015164ffffffffff16815260200182610180015164ffffffffff168152602001826101a0015164ffffffffff168152602001826101c0015164ffffffffff1681526020018260c001516001600160a01b0316815260200182610200015160038111156102d6576102d66104ba565b81526020018481526020017f00000000000000000000000000000000000000000000000000000000000000006001600160a01b0316636b52b365866040518263ffffffff1660e01b815260040161032f91815260200190565b602060405180830381865afa15801561034c573d6000803e3d6000fd5b505050506040513d601f19601f8201168201806040525081019061037091906107fd565b81526020017f00000000000000000000000000000000000000000000000000000000000000006001600160a01b03166396e59682866040518263ffffffff1660e01b81526004016103c391815260200190565b602060405180830381865afa1580156103e0573d6000803e3d6000fd5b505050506040513d601f19601f8201168201806040525081019061040491906107fd565b81526020017f00000000000000000000000000000000000000000000000000000000000000006001600160a01b0316631c187495866040518263ffffffff1660e01b815260040161045791815260200190565b602060405180830381865afa158015610474573d6000803e3d6000fd5b505050506040513d601f19601f8201168201806040525081019061049891906107fd565b90529392505050565b6000602082840312156104b357600080fd5b5035919050565b634e487b7160e01b600052602160045260246000fd5b600481106104ee57634e487b7160e01b600052602160045260246000fd5b9052565b81518152602080830151610260830191610516908401826001600160a01b03169052565b506040830151604083015260608301516060830152608083015161054560808401826001600160a01b03169052565b5060a083015160a083015260c083015161056a60c08401826001600160801b03169052565b5060e083015161058560e08401826001600160801b03169052565b50610100838101516001600160a01b03908116918401919091526101208085015164ffffffffff90811691850191909152610140808601518216908501526101608086015182169085015261018080860151909116908401526101a080850151909116908301526101c0808401516105ff828501826104d0565b50506101e083810151908301526102008084015190830152610220808401519083015261024092830151929091019190915290565b604051610220810167ffffffffffffffff8111828210171561066657634e487b7160e01b600052604160045260246000fd5b60405290565b80516001600160a01b038116811461068357600080fd5b919050565b80516001600160801b038116811461068357600080fd5b805164ffffffffff8116811461068357600080fd5b8051801515811461068357600080fd5b80516004811061068357600080fd5b600061022082840312156106e657600080fd5b6106ee610634565b825181526106fe6020840161066c565b602082015260408301516040820152606083015160608201526107236080840161066c565b608082015261073460a0840161066c565b60a082015261074560c0840161066c565b60c082015260e083015160e0820152610100610762818501610688565b90820152610120610774848201610688565b9082015261014061078684820161066c565b9082015261016061079884820161069f565b908201526101806107aa84820161069f565b908201526101a06107bc84820161069f565b908201526101c06107ce84820161069f565b908201526101e06107e08482016106b4565b908201526102006107f28482016106c4565b908201529392505050565b60006020828403121561080f57600080fd5b505191905056fea2646970667358221220b1070d18c99f0045a0e52f2d23ae4125a1454d4e933ab4efdf312c678475543664736f6c634300080a0033",
  "libraries": {
    "BespokeTypes": "0xA3f72EFE184A58706Ef2DeC6C6fbd6c58e8FDA20"
  },
  "devdoc": {
    "kind": "dev",
    "methods": {},
    "version": 1
  },
  "userdoc": {
    "kind": "user",
    "methods": {},
    "version": 1
  },
  "storageLayout": {
    "storage": [],
    "types": null
  }
}