{
  "address": "0xAc9B7D4A9656b3b50896775C8FDB252b50608531",
  "abi": [
    {
      "inputs": [
        {
          "internalType": "contract IOpenSkySettings",
          "name": "settings",
          "type": "address"
        }
      ],
      "stateMutability": "nonpayable",
      "type": "constructor"
    },
    {
      "inputs": [],
      "name": "SETTINGS",
      "outputs": [
        {
          "internalType": "contract IOpenSkySettings",
          "name": "",
          "type": "address"
        }
      ],
      "stateMutability": "view",
      "type": "function"
    },
    {
      "inputs": [
        {
          "internalType": "uint256",
          "name": "reserveId",
          "type": "uint256"
        }
      ],
      "name": "getAvailableLiquidity",
      "outputs": [
        {
          "internalType": "uint256",
          "name": "",
          "type": "uint256"
        }
      ],
      "stateMutability": "view",
      "type": "function"
    },
    {
      "inputs": [
        {
          "internalType": "uint256",
          "name": "reserveId",
          "type": "uint256"
        },
        {
          "internalType": "uint256",
          "name": "liquidityAmountToAdd",
          "type": "uint256"
        },
        {
          "internalType": "uint256",
          "name": "liquidityAmountToRemove",
          "type": "uint256"
        },
        {
          "internalType": "uint256",
          "name": "borrowAmountToAdd",
          "type": "uint256"
        },
        {
          "internalType": "uint256",
          "name": "borrowAmountToRemove",
          "type": "uint256"
        }
      ],
      "name": "getBorrowRate",
      "outputs": [
        {
          "internalType": "uint256",
          "name": "",
          "type": "uint256"
        }
      ],
      "stateMutability": "view",
      "type": "function"
    },
    {
      "inputs": [
        {
          "internalType": "uint256",
          "name": "loanId",
          "type": "uint256"
        }
      ],
      "name": "getLoanData",
      "outputs": [
        {
          "components": [
            {
              "internalType": "uint256",
              "name": "loanId",
              "type": "uint256"
            },
            {
              "internalType": "uint256",
              "name": "totalBorrows",
              "type": "uint256"
            },
            {
              "internalType": "uint256",
              "name": "borrowBalance",
              "type": "uint256"
            },
            {
              "internalType": "uint40",
              "name": "borrowBegin",
              "type": "uint40"
            },
            {
              "internalType": "uint40",
              "name": "borrowDuration",
              "type": "uint40"
            },
            {
              "internalType": "uint40",
              "name": "borrowOverdueTime",
              "type": "uint40"
            },
            {
              "internalType": "uint40",
              "name": "liquidatableTime",
              "type": "uint40"
            },
            {
              "internalType": "uint40",
              "name": "extendableTime",
              "type": "uint40"
            },
            {
              "internalType": "uint128",
              "name": "borrowRate",
              "type": "uint128"
            },
            {
              "internalType": "uint128",
              "name": "interestPerSecond",
              "type": "uint128"
            },
            {
              "internalType": "uint256",
              "name": "penalty",
              "type": "uint256"
            },
            {
              "internalType": "enum DataTypes.LoanStatus",
              "name": "status",
              "type": "uint8"
            }
          ],
          "internalType": "struct IOpenSkyDataProvider.LoanData",
          "name": "",
          "type": "tuple"
        }
      ],
      "stateMutability": "view",
      "type": "function"
    },
    {
      "inputs": [
        {
          "internalType": "uint256",
          "name": "reserveId",
          "type": "uint256"
        }
      ],
      "name": "getLoanSupplyRate",
      "outputs": [
        {
          "internalType": "uint256",
          "name": "",
          "type": "uint256"
        }
      ],
      "stateMutability": "view",
      "type": "function"
    },
    {
      "inputs": [
        {
          "internalType": "address",
          "name": "account",
          "type": "address"
        }
      ],
      "name": "getLoansByUser",
      "outputs": [
        {
          "internalType": "uint256[]",
          "name": "",
          "type": "uint256[]"
        }
      ],
      "stateMutability": "view",
      "type": "function"
    },
    {
      "inputs": [
        {
          "internalType": "uint256",
          "name": "reserveId",
          "type": "uint256"
        }
      ],
      "name": "getMoneyMarketSupplyRateInstant",
      "outputs": [
        {
          "internalType": "uint256",
          "name": "",
          "type": "uint256"
        }
      ],
      "stateMutability": "view",
      "type": "function"
    },
    {
      "inputs": [
        {
          "internalType": "uint256",
          "name": "reserveId",
          "type": "uint256"
        }
      ],
      "name": "getReserveData",
      "outputs": [
        {
          "components": [
            {
              "internalType": "uint256",
              "name": "reserveId",
              "type": "uint256"
            },
            {
              "internalType": "address",
              "name": "underlyingAsset",
              "type": "address"
            },
            {
              "internalType": "address",
              "name": "oTokenAddress",
              "type": "address"
            },
            {
              "internalType": "uint256",
              "name": "TVL",
              "type": "uint256"
            },
            {
              "internalType": "uint256",
              "name": "totalDeposits",
              "type": "uint256"
            },
            {
              "internalType": "uint256",
              "name": "totalBorrowsBalance",
              "type": "uint256"
            },
            {
              "internalType": "uint256",
              "name": "supplyRate",
              "type": "uint256"
            },
            {
              "internalType": "uint256",
              "name": "borrowRate",
              "type": "uint256"
            },
            {
              "internalType": "uint256",
              "name": "availableLiquidity",
              "type": "uint256"
            }
          ],
          "internalType": "struct IOpenSkyDataProvider.ReserveData",
          "name": "",
          "type": "tuple"
        }
      ],
      "stateMutability": "view",
      "type": "function"
    },
    {
      "inputs": [
        {
          "internalType": "uint256",
          "name": "reserveId",
          "type": "uint256"
        },
        {
          "internalType": "address",
          "name": "account",
          "type": "address"
        }
      ],
      "name": "getSupplyBalance",
      "outputs": [
        {
          "internalType": "uint256",
          "name": "",
          "type": "uint256"
        }
      ],
      "stateMutability": "view",
      "type": "function"
    },
    {
      "inputs": [
        {
          "internalType": "uint256",
          "name": "reserveId",
          "type": "uint256"
        }
      ],
      "name": "getSupplyRate",
      "outputs": [
        {
          "internalType": "uint256",
          "name": "",
          "type": "uint256"
        }
      ],
      "stateMutability": "view",
      "type": "function"
    },
    {
      "inputs": [
        {
          "internalType": "uint256",
          "name": "reserveId",
          "type": "uint256"
        }
      ],
      "name": "getTVL",
      "outputs": [
        {
          "internalType": "uint256",
          "name": "",
          "type": "uint256"
        }
      ],
      "stateMutability": "view",
      "type": "function"
    },
    {
      "inputs": [
        {
          "internalType": "uint256",
          "name": "reserveId",
          "type": "uint256"
        }
      ],
      "name": "getTotalBorrowBalance",
      "outputs": [
        {
          "internalType": "uint256",
          "name": "",
          "type": "uint256"
        }
      ],
      "stateMutability": "view",
      "type": "function"
    }
  ],
  "transactionHash": "0xcf09925cf53d725a20d8ea3a1cc956311a6e183a2a0134d4d8ad523acde9d564",
  "args": [
    "0x632dF1254955449dAf2D1c1554D4A064929d3AD0"
  ],
  "solcInputHash": "905a7e4bfca685ef9237fca5da489fd1",
  "bytecode": "0x60a060405234801561001057600080fd5b50604051611e96380380611e9683398101604081905261002f91610040565b6001600160a01b0316608052610070565b60006020828403121561005257600080fd5b81516001600160a01b038116811461006957600080fd5b9392505050565b608051611dbe6100d86000396000818161020b0152818161026f015281816103670152818161041a015281816106190152818161083401528181610a1d01528181610d180152818161103b015281816111a9015281816113b101526115f50152611dbe6000f3fe608060405234801561001057600080fd5b50600436106100b45760003560e01c806391541e051161007157806391541e051461015857806395f76652146101e0578063a08a09d3146101f3578063ade97ab514610206578063d955759d14610245578063ee4cc84c1461025857600080fd5b80630aad628b146100b95780632235ae0f146100df5780633e842090146100f2578063423989e4146101125780635bdf347714610125578063622fe39f14610138575b600080fd5b6100cc6100c7366004611767565b61026b565b6040519081526020015b60405180910390f35b6100cc6100ed366004611767565b610363565b610105610100366004611798565b610414565b6040516100d691906117b5565b6100cc6101203660046117f9565b610614565b6100cc610133366004611767565b61082f565b61014b610146366004611767565b6109b4565b6040516100d6919061186c565b61016b610166366004611767565b610cb3565b60408051825181526020808401516001600160a01b0390811691830191909152838301511691810191909152606080830151908201526080808301519082015260a0808301519082015260c0808301519082015260e080830151908201526101009182015191810191909152610120016100d6565b6100cc6101ee36600461195e565b611036565b6100cc610201366004611767565b6111a4565b61022d7f000000000000000000000000000000000000000000000000000000000000000081565b6040516001600160a01b0390911681526020016100d6565b6100cc610253366004611767565b6113ac565b6100cc610266366004611767565b6115f1565b60007f00000000000000000000000000000000000000000000000000000000000000006001600160a01b0316631755ff216040518163ffffffff1660e01b8152600401602060405180830381865afa1580156102cb573d6000803e3d6000fd5b505050506040513d601f19601f820116820180604052508101906102ef919061199e565b6001600160a01b0316630aad628b836040518263ffffffff1660e01b815260040161031c91815260200190565b602060405180830381865afa158015610339573d6000803e3d6000fd5b505050506040513d601f19601f8201168201806040525081019061035d91906119bb565b92915050565b60007f00000000000000000000000000000000000000000000000000000000000000006001600160a01b0316631755ff216040518163ffffffff1660e01b8152600401602060405180830381865afa1580156103c3573d6000803e3d6000fd5b505050506040513d601f19601f820116820180604052508101906103e7919061199e565b6001600160a01b0316632235ae0f836040518263ffffffff1660e01b815260040161031c91815260200190565b606060007f00000000000000000000000000000000000000000000000000000000000000006001600160a01b03166335bc868a6040518163ffffffff1660e01b8152600401602060405180830381865afa158015610476573d6000803e3d6000fd5b505050506040513d601f19601f8201168201806040525081019061049a919061199e565b6040516370a0823160e01b81526001600160a01b0385811660048301529192506000918316906370a0823190602401602060405180830381865afa1580156104e6573d6000803e3d6000fd5b505050506040513d601f19601f8201168201806040525081019061050a91906119bb565b9050600080821161051c57600061051e565b815b67ffffffffffffffff811115610536576105366119d4565b60405190808252806020026020018201604052801561055f578160200160208202803683370190505b50905060005b8281101561060b57604051632f745c5960e01b81526001600160a01b03878116600483015260248201839052851690632f745c5990604401602060405180830381865afa1580156105ba573d6000803e3d6000fd5b505050506040513d601f19601f820116820180604052508101906105de91906119bb565b8282815181106105f0576105f06119ea565b602090810291909101015261060481611a16565b9050610565565b50949350505050565b6000807f00000000000000000000000000000000000000000000000000000000000000006001600160a01b0316631755ff216040518163ffffffff1660e01b8152600401602060405180830381865afa158015610675573d6000803e3d6000fd5b505050506040513d601f19601f82011682018060405250810190610699919061199e565b6001600160a01b03166391541e05886040518263ffffffff1660e01b81526004016106c691815260200190565b61018060405180830381865afa1580156106e4573d6000803e3d6000fd5b505050506040513d601f19601f820116820180604052508101906107089190611ad7565b90508061012001516001600160a01b03166315f2405388878985604001516001600160a01b03166318160ddd6040518163ffffffff1660e01b8152600401602060405180830381865afa158015610763573d6000803e3d6000fd5b505050506040513d601f19601f8201168201806040525081019061078791906119bb565b6107919190611ba0565b61079b9190611bb8565b86888661010001516107ad9190611ba0565b6107b79190611bb8565b6040516001600160e01b031960e086901b168152600481019390935260248301919091526044820152606401602060405180830381865afa158015610800573d6000803e3d6000fd5b505050506040513d601f19601f8201168201806040525081019061082491906119bb565b979650505050505050565b6000807f00000000000000000000000000000000000000000000000000000000000000006001600160a01b0316631755ff216040518163ffffffff1660e01b8152600401602060405180830381865afa158015610890573d6000803e3d6000fd5b505050506040513d601f19601f820116820180604052508101906108b4919061199e565b6001600160a01b03166391541e05846040518263ffffffff1660e01b81526004016108e191815260200190565b61018060405180830381865afa1580156108ff573d6000803e3d6000fd5b505050506040513d601f19601f820116820180604052508101906109239190611ad7565b9050806101600151156109ab5760608101516020820151604051636b5441a960e01b81526001600160a01b039182166004820152911690636b5441a990602401602060405180830381865afa158015610980573d6000803e3d6000fd5b505050506040513d601f19601f820116820180604052508101906109a491906119bb565b9392505050565b50600092915050565b610a196040805161018081018252600080825260208201819052918101829052606081018290526080810182905260a0810182905260c0810182905260e081018290526101008101829052610120810182905261014081018290529061016082015290565b60007f00000000000000000000000000000000000000000000000000000000000000006001600160a01b03166335bc868a6040518163ffffffff1660e01b8152600401602060405180830381865afa158015610a79573d6000803e3d6000fd5b505050506040513d601f19601f82011682018060405250810190610a9d919061199e565b60405163622fe39f60e01b8152600481018590529091506000906001600160a01b0383169063622fe39f906024016101c060405180830381865afa158015610ae9573d6000803e3d6000fd5b505050506040513d601f19601f82011682018060405250810190610b0d9190611bde565b905060405180610180016040528085815260200182608001518152602001836001600160a01b0316636b52b365876040518263ffffffff1660e01b8152600401610b5991815260200190565b602060405180830381865afa158015610b76573d6000803e3d6000fd5b505050506040513d601f19601f82011682018060405250810190610b9a91906119bb565b81526020018260e0015164ffffffffff16815260200182610100015164ffffffffff16815260200182610120015164ffffffffff16815260200182610140015164ffffffffff16815260200182610160015164ffffffffff1681526020018260a001516001600160801b031681526020018260c001516001600160801b03168152602001836001600160a01b03166396e59682876040518263ffffffff1660e01b8152600401610c4c91815260200190565b602060405180830381865afa158015610c69573d6000803e3d6000fd5b505050506040513d601f19601f82011682018060405250810190610c8d91906119bb565b8152602001826101a001516005811115610ca957610ca9611834565b9052949350505050565b610d146040518061012001604052806000815260200160006001600160a01b0316815260200160006001600160a01b031681526020016000815260200160008152602001600081526020016000815260200160008152602001600081525090565b60007f00000000000000000000000000000000000000000000000000000000000000006001600160a01b0316631755ff216040518163ffffffff1660e01b8152600401602060405180830381865afa158015610d74573d6000803e3d6000fd5b505050506040513d601f19601f82011682018060405250810190610d98919061199e565b6040516391541e0560e01b8152600481018590529091506000906001600160a01b038316906391541e059060240161018060405180830381865afa158015610de4573d6000803e3d6000fd5b505050506040513d601f19601f82011682018060405250810190610e089190611ad7565b905060008160400151905060405180610120016040528086815260200183602001516001600160a01b0316815260200183604001516001600160a01b03168152602001846001600160a01b031663ee4cc84c886040518263ffffffff1660e01b8152600401610e7991815260200190565b602060405180830381865afa158015610e96573d6000803e3d6000fd5b505050506040513d601f19601f82011682018060405250810190610eba91906119bb565b8152602001826001600160a01b03166318160ddd6040518163ffffffff1660e01b8152600401602060405180830381865afa158015610efd573d6000803e3d6000fd5b505050506040513d601f19601f82011682018060405250810190610f2191906119bb565b8152602001846001600160a01b0316632235ae0f886040518263ffffffff1660e01b8152600401610f5491815260200190565b602060405180830381865afa158015610f71573d6000803e3d6000fd5b505050506040513d601f19601f82011682018060405250810190610f9591906119bb565b8152602001610fa3876113ac565b8152602001610fb787600080600080610614565b8152602001846001600160a01b0316630aad628b886040518263ffffffff1660e01b8152600401610fea91815260200190565b602060405180830381865afa158015611007573d6000803e3d6000fd5b505050506040513d601f19601f8201168201806040525081019061102b91906119bb565b905295945050505050565b6000807f00000000000000000000000000000000000000000000000000000000000000006001600160a01b0316631755ff216040518163ffffffff1660e01b8152600401602060405180830381865afa158015611097573d6000803e3d6000fd5b505050506040513d601f19601f820116820180604052508101906110bb919061199e565b6001600160a01b03166391541e05856040518263ffffffff1660e01b81526004016110e891815260200190565b61018060405180830381865afa158015611106573d6000803e3d6000fd5b505050506040513d601f19601f8201168201806040525081019061112a9190611ad7565b60408082015190516370a0823160e01b81526001600160a01b0386811660048301529293509116906370a0823190602401602060405180830381865afa158015611178573d6000803e3d6000fd5b505050506040513d601f19601f8201168201806040525081019061119c91906119bb565b949350505050565b6000807f00000000000000000000000000000000000000000000000000000000000000006001600160a01b0316631755ff216040518163ffffffff1660e01b8152600401602060405180830381865afa158015611205573d6000803e3d6000fd5b505050506040513d601f19601f82011682018060405250810190611229919061199e565b6001600160a01b03166391541e05846040518263ffffffff1660e01b815260040161125691815260200190565b61018060405180830381865afa158015611274573d6000803e3d6000fd5b505050506040513d601f19601f820116820180604052508101906112989190611ad7565b9050600081604001516001600160a01b0316631f07e4df6040518163ffffffff1660e01b8152600401602060405180830381865afa1580156112de573d6000803e3d6000fd5b505050506040513d601f19601f8201168201806040525081019061130291906119bb565b90506000734751eD03f5214C62630A26239E5E3933c5d0b6F463db53f3888385610100015161133689600080600080610614565b6040516001600160e01b031960e086901b1681526004810193909352602483019190915260448201526064016040805180830381865af415801561137e573d6000803e3d6000fd5b505050506040513d601f19601f820116820180604052508101906113a29190611cce565b5095945050505050565b6000807f00000000000000000000000000000000000000000000000000000000000000006001600160a01b0316631755ff216040518163ffffffff1660e01b8152600401602060405180830381865afa15801561140d573d6000803e3d6000fd5b505050506040513d601f19601f82011682018060405250810190611431919061199e565b6001600160a01b03166391541e05846040518263ffffffff1660e01b815260040161145e91815260200190565b61018060405180830381865afa15801561147c573d6000803e3d6000fd5b505050506040513d601f19601f820116820180604052508101906114a09190611ad7565b9050600081604001516001600160a01b0316631f07e4df6040518163ffffffff1660e01b8152600401602060405180830381865afa1580156114e6573d6000803e3d6000fd5b505050506040513d601f19601f8201168201806040525081019061150a91906119bb565b90506000734751eD03f5214C62630A26239E5E3933c5d0b6F463db53f3888385610100015161153e89600080600080610614565b6040516001600160e01b031960e086901b1681526004810193909352602483019190915260448201526064016040805180830381865af4158015611586573d6000803e3d6000fd5b505050506040513d601f19601f820116820180604052508101906115aa9190611cce565b9150506115d56115b98661082f565b6115cf836b033b2e3c9fd0803ce8000000611bb8565b906116a2565b6115de866111a4565b6115e89190611ba0565b95945050505050565b60007f00000000000000000000000000000000000000000000000000000000000000006001600160a01b0316631755ff216040518163ffffffff1660e01b8152600401602060405180830381865afa158015611651573d6000803e3d6000fd5b505050506040513d601f19601f82011682018060405250810190611675919061199e565b6001600160a01b031663ee4cc84c836040518263ffffffff1660e01b815260040161031c91815260200190565b60008215806116af575081155b156116bc5750600061035d565b816116d460026b033b2e3c9fd0803ce8000000611cf2565b6116e090600019611bb8565b6116ea9190611cf2565b8311156040518060400160405280600381526020016203130360ec1b815250906117305760405162461bcd60e51b81526004016117279190611d14565b60405180910390fd5b506b033b2e3c9fd0803ce8000000611749600282611cf2565b6117538486611d69565b61175d9190611ba0565b6109a49190611cf2565b60006020828403121561177957600080fd5b5035919050565b6001600160a01b038116811461179557600080fd5b50565b6000602082840312156117aa57600080fd5b81356109a481611780565b6020808252825182820181905260009190848201906040850190845b818110156117ed578351835292840192918401916001016117d1565b50909695505050505050565b600080600080600060a0868803121561181157600080fd5b505083359560208501359550604085013594606081013594506080013592509050565b634e487b7160e01b600052602160045260246000fd5b6006811061186857634e487b7160e01b600052602160045260246000fd5b9052565b60006101808201905082518252602083015160208301526040830151604083015260608301516118a5606084018264ffffffffff169052565b5060808301516118be608084018264ffffffffff169052565b5060a08301516118d760a084018264ffffffffff169052565b5060c08301516118f060c084018264ffffffffff169052565b5060e083015161190960e084018264ffffffffff169052565b50610100838101516001600160801b038116848301525050610120838101516001600160801b0381168483015250506101408381015190830152610160808401516119568285018261184a565b505092915050565b6000806040838503121561197157600080fd5b82359150602083013561198381611780565b809150509250929050565b805161199981611780565b919050565b6000602082840312156119b057600080fd5b81516109a481611780565b6000602082840312156119cd57600080fd5b5051919050565b634e487b7160e01b600052604160045260246000fd5b634e487b7160e01b600052603260045260246000fd5b634e487b7160e01b600052601160045260246000fd5b6000600019821415611a2a57611a2a611a00565b5060010190565b604051610180810167ffffffffffffffff81118282101715611a6357634e487b7160e01b600052604160045260246000fd5b60405290565b6040516101c0810167ffffffffffffffff81118282101715611a6357634e487b7160e01b600052604160045260246000fd5b80516001600160801b038116811461199957600080fd5b805164ffffffffff8116811461199957600080fd5b8051801515811461199957600080fd5b60006101808284031215611aea57600080fd5b611af2611a31565b82518152611b026020840161198e565b6020820152611b136040840161198e565b6040820152611b246060840161198e565b6060820152611b3560808401611a9b565b608082015260a083015160a082015260c083015160c0820152611b5a60e08401611ab2565b60e08201526101008381015190820152610120611b7881850161198e565b908201526101408381015190820152610160611b95818501611ac7565b908201529392505050565b60008219821115611bb357611bb3611a00565b500190565b600082821015611bca57611bca611a00565b500390565b80516006811061199957600080fd5b60006101c08284031215611bf157600080fd5b611bf9611a69565b82518152611c096020840161198e565b602082015260408301516040820152611c246060840161198e565b606082015260808301516080820152611c3f60a08401611a9b565b60a0820152611c5060c08401611a9b565b60c0820152611c6160e08401611ab2565b60e0820152610100611c74818501611ab2565b90820152610120611c86848201611ab2565b90820152610140611c98848201611ab2565b90820152610160611caa848201611ab2565b90820152610180611cbc848201611ab2565b908201526101a0611b95848201611bcf565b60008060408385031215611ce157600080fd5b505080516020909101519092909150565b600082611d0f57634e487b7160e01b600052601260045260246000fd5b500490565b600060208083528351808285015260005b81811015611d4157858101830151858201604001528201611d25565b81811115611d53576000604083870101525b50601f01601f1916929092016040019392505050565b6000816000190483118215151615611d8357611d83611a00565b50029056fea2646970667358221220c3b21fc2802f80dd54c9ee0e7aac987a4f9c9207b53bc7f686ce0eda8fce552164736f6c634300080a0033",
  "deployedBytecode": "0x608060405234801561001057600080fd5b50600436106100b45760003560e01c806391541e051161007157806391541e051461015857806395f76652146101e0578063a08a09d3146101f3578063ade97ab514610206578063d955759d14610245578063ee4cc84c1461025857600080fd5b80630aad628b146100b95780632235ae0f146100df5780633e842090146100f2578063423989e4146101125780635bdf347714610125578063622fe39f14610138575b600080fd5b6100cc6100c7366004611767565b61026b565b6040519081526020015b60405180910390f35b6100cc6100ed366004611767565b610363565b610105610100366004611798565b610414565b6040516100d691906117b5565b6100cc6101203660046117f9565b610614565b6100cc610133366004611767565b61082f565b61014b610146366004611767565b6109b4565b6040516100d6919061186c565b61016b610166366004611767565b610cb3565b60408051825181526020808401516001600160a01b0390811691830191909152838301511691810191909152606080830151908201526080808301519082015260a0808301519082015260c0808301519082015260e080830151908201526101009182015191810191909152610120016100d6565b6100cc6101ee36600461195e565b611036565b6100cc610201366004611767565b6111a4565b61022d7f000000000000000000000000000000000000000000000000000000000000000081565b6040516001600160a01b0390911681526020016100d6565b6100cc610253366004611767565b6113ac565b6100cc610266366004611767565b6115f1565b60007f00000000000000000000000000000000000000000000000000000000000000006001600160a01b0316631755ff216040518163ffffffff1660e01b8152600401602060405180830381865afa1580156102cb573d6000803e3d6000fd5b505050506040513d601f19601f820116820180604052508101906102ef919061199e565b6001600160a01b0316630aad628b836040518263ffffffff1660e01b815260040161031c91815260200190565b602060405180830381865afa158015610339573d6000803e3d6000fd5b505050506040513d601f19601f8201168201806040525081019061035d91906119bb565b92915050565b60007f00000000000000000000000000000000000000000000000000000000000000006001600160a01b0316631755ff216040518163ffffffff1660e01b8152600401602060405180830381865afa1580156103c3573d6000803e3d6000fd5b505050506040513d601f19601f820116820180604052508101906103e7919061199e565b6001600160a01b0316632235ae0f836040518263ffffffff1660e01b815260040161031c91815260200190565b606060007f00000000000000000000000000000000000000000000000000000000000000006001600160a01b03166335bc868a6040518163ffffffff1660e01b8152600401602060405180830381865afa158015610476573d6000803e3d6000fd5b505050506040513d601f19601f8201168201806040525081019061049a919061199e565b6040516370a0823160e01b81526001600160a01b0385811660048301529192506000918316906370a0823190602401602060405180830381865afa1580156104e6573d6000803e3d6000fd5b505050506040513d601f19601f8201168201806040525081019061050a91906119bb565b9050600080821161051c57600061051e565b815b67ffffffffffffffff811115610536576105366119d4565b60405190808252806020026020018201604052801561055f578160200160208202803683370190505b50905060005b8281101561060b57604051632f745c5960e01b81526001600160a01b03878116600483015260248201839052851690632f745c5990604401602060405180830381865afa1580156105ba573d6000803e3d6000fd5b505050506040513d601f19601f820116820180604052508101906105de91906119bb565b8282815181106105f0576105f06119ea565b602090810291909101015261060481611a16565b9050610565565b50949350505050565b6000807f00000000000000000000000000000000000000000000000000000000000000006001600160a01b0316631755ff216040518163ffffffff1660e01b8152600401602060405180830381865afa158015610675573d6000803e3d6000fd5b505050506040513d601f19601f82011682018060405250810190610699919061199e565b6001600160a01b03166391541e05886040518263ffffffff1660e01b81526004016106c691815260200190565b61018060405180830381865afa1580156106e4573d6000803e3d6000fd5b505050506040513d601f19601f820116820180604052508101906107089190611ad7565b90508061012001516001600160a01b03166315f2405388878985604001516001600160a01b03166318160ddd6040518163ffffffff1660e01b8152600401602060405180830381865afa158015610763573d6000803e3d6000fd5b505050506040513d601f19601f8201168201806040525081019061078791906119bb565b6107919190611ba0565b61079b9190611bb8565b86888661010001516107ad9190611ba0565b6107b79190611bb8565b6040516001600160e01b031960e086901b168152600481019390935260248301919091526044820152606401602060405180830381865afa158015610800573d6000803e3d6000fd5b505050506040513d601f19601f8201168201806040525081019061082491906119bb565b979650505050505050565b6000807f00000000000000000000000000000000000000000000000000000000000000006001600160a01b0316631755ff216040518163ffffffff1660e01b8152600401602060405180830381865afa158015610890573d6000803e3d6000fd5b505050506040513d601f19601f820116820180604052508101906108b4919061199e565b6001600160a01b03166391541e05846040518263ffffffff1660e01b81526004016108e191815260200190565b61018060405180830381865afa1580156108ff573d6000803e3d6000fd5b505050506040513d601f19601f820116820180604052508101906109239190611ad7565b9050806101600151156109ab5760608101516020820151604051636b5441a960e01b81526001600160a01b039182166004820152911690636b5441a990602401602060405180830381865afa158015610980573d6000803e3d6000fd5b505050506040513d601f19601f820116820180604052508101906109a491906119bb565b9392505050565b50600092915050565b610a196040805161018081018252600080825260208201819052918101829052606081018290526080810182905260a0810182905260c0810182905260e081018290526101008101829052610120810182905261014081018290529061016082015290565b60007f00000000000000000000000000000000000000000000000000000000000000006001600160a01b03166335bc868a6040518163ffffffff1660e01b8152600401602060405180830381865afa158015610a79573d6000803e3d6000fd5b505050506040513d601f19601f82011682018060405250810190610a9d919061199e565b60405163622fe39f60e01b8152600481018590529091506000906001600160a01b0383169063622fe39f906024016101c060405180830381865afa158015610ae9573d6000803e3d6000fd5b505050506040513d601f19601f82011682018060405250810190610b0d9190611bde565b905060405180610180016040528085815260200182608001518152602001836001600160a01b0316636b52b365876040518263ffffffff1660e01b8152600401610b5991815260200190565b602060405180830381865afa158015610b76573d6000803e3d6000fd5b505050506040513d601f19601f82011682018060405250810190610b9a91906119bb565b81526020018260e0015164ffffffffff16815260200182610100015164ffffffffff16815260200182610120015164ffffffffff16815260200182610140015164ffffffffff16815260200182610160015164ffffffffff1681526020018260a001516001600160801b031681526020018260c001516001600160801b03168152602001836001600160a01b03166396e59682876040518263ffffffff1660e01b8152600401610c4c91815260200190565b602060405180830381865afa158015610c69573d6000803e3d6000fd5b505050506040513d601f19601f82011682018060405250810190610c8d91906119bb565b8152602001826101a001516005811115610ca957610ca9611834565b9052949350505050565b610d146040518061012001604052806000815260200160006001600160a01b0316815260200160006001600160a01b031681526020016000815260200160008152602001600081526020016000815260200160008152602001600081525090565b60007f00000000000000000000000000000000000000000000000000000000000000006001600160a01b0316631755ff216040518163ffffffff1660e01b8152600401602060405180830381865afa158015610d74573d6000803e3d6000fd5b505050506040513d601f19601f82011682018060405250810190610d98919061199e565b6040516391541e0560e01b8152600481018590529091506000906001600160a01b038316906391541e059060240161018060405180830381865afa158015610de4573d6000803e3d6000fd5b505050506040513d601f19601f82011682018060405250810190610e089190611ad7565b905060008160400151905060405180610120016040528086815260200183602001516001600160a01b0316815260200183604001516001600160a01b03168152602001846001600160a01b031663ee4cc84c886040518263ffffffff1660e01b8152600401610e7991815260200190565b602060405180830381865afa158015610e96573d6000803e3d6000fd5b505050506040513d601f19601f82011682018060405250810190610eba91906119bb565b8152602001826001600160a01b03166318160ddd6040518163ffffffff1660e01b8152600401602060405180830381865afa158015610efd573d6000803e3d6000fd5b505050506040513d601f19601f82011682018060405250810190610f2191906119bb565b8152602001846001600160a01b0316632235ae0f886040518263ffffffff1660e01b8152600401610f5491815260200190565b602060405180830381865afa158015610f71573d6000803e3d6000fd5b505050506040513d601f19601f82011682018060405250810190610f9591906119bb565b8152602001610fa3876113ac565b8152602001610fb787600080600080610614565b8152602001846001600160a01b0316630aad628b886040518263ffffffff1660e01b8152600401610fea91815260200190565b602060405180830381865afa158015611007573d6000803e3d6000fd5b505050506040513d601f19601f8201168201806040525081019061102b91906119bb565b905295945050505050565b6000807f00000000000000000000000000000000000000000000000000000000000000006001600160a01b0316631755ff216040518163ffffffff1660e01b8152600401602060405180830381865afa158015611097573d6000803e3d6000fd5b505050506040513d601f19601f820116820180604052508101906110bb919061199e565b6001600160a01b03166391541e05856040518263ffffffff1660e01b81526004016110e891815260200190565b61018060405180830381865afa158015611106573d6000803e3d6000fd5b505050506040513d601f19601f8201168201806040525081019061112a9190611ad7565b60408082015190516370a0823160e01b81526001600160a01b0386811660048301529293509116906370a0823190602401602060405180830381865afa158015611178573d6000803e3d6000fd5b505050506040513d601f19601f8201168201806040525081019061119c91906119bb565b949350505050565b6000807f00000000000000000000000000000000000000000000000000000000000000006001600160a01b0316631755ff216040518163ffffffff1660e01b8152600401602060405180830381865afa158015611205573d6000803e3d6000fd5b505050506040513d601f19601f82011682018060405250810190611229919061199e565b6001600160a01b03166391541e05846040518263ffffffff1660e01b815260040161125691815260200190565b61018060405180830381865afa158015611274573d6000803e3d6000fd5b505050506040513d601f19601f820116820180604052508101906112989190611ad7565b9050600081604001516001600160a01b0316631f07e4df6040518163ffffffff1660e01b8152600401602060405180830381865afa1580156112de573d6000803e3d6000fd5b505050506040513d601f19601f8201168201806040525081019061130291906119bb565b9050600073__$f742c272e27921345744ab659e4a493fb5$__63db53f3888385610100015161133689600080600080610614565b6040516001600160e01b031960e086901b1681526004810193909352602483019190915260448201526064016040805180830381865af415801561137e573d6000803e3d6000fd5b505050506040513d601f19601f820116820180604052508101906113a29190611cce565b5095945050505050565b6000807f00000000000000000000000000000000000000000000000000000000000000006001600160a01b0316631755ff216040518163ffffffff1660e01b8152600401602060405180830381865afa15801561140d573d6000803e3d6000fd5b505050506040513d601f19601f82011682018060405250810190611431919061199e565b6001600160a01b03166391541e05846040518263ffffffff1660e01b815260040161145e91815260200190565b61018060405180830381865afa15801561147c573d6000803e3d6000fd5b505050506040513d601f19601f820116820180604052508101906114a09190611ad7565b9050600081604001516001600160a01b0316631f07e4df6040518163ffffffff1660e01b8152600401602060405180830381865afa1580156114e6573d6000803e3d6000fd5b505050506040513d601f19601f8201168201806040525081019061150a91906119bb565b9050600073__$f742c272e27921345744ab659e4a493fb5$__63db53f3888385610100015161153e89600080600080610614565b6040516001600160e01b031960e086901b1681526004810193909352602483019190915260448201526064016040805180830381865af4158015611586573d6000803e3d6000fd5b505050506040513d601f19601f820116820180604052508101906115aa9190611cce565b9150506115d56115b98661082f565b6115cf836b033b2e3c9fd0803ce8000000611bb8565b906116a2565b6115de866111a4565b6115e89190611ba0565b95945050505050565b60007f00000000000000000000000000000000000000000000000000000000000000006001600160a01b0316631755ff216040518163ffffffff1660e01b8152600401602060405180830381865afa158015611651573d6000803e3d6000fd5b505050506040513d601f19601f82011682018060405250810190611675919061199e565b6001600160a01b031663ee4cc84c836040518263ffffffff1660e01b815260040161031c91815260200190565b60008215806116af575081155b156116bc5750600061035d565b816116d460026b033b2e3c9fd0803ce8000000611cf2565b6116e090600019611bb8565b6116ea9190611cf2565b8311156040518060400160405280600381526020016203130360ec1b815250906117305760405162461bcd60e51b81526004016117279190611d14565b60405180910390fd5b506b033b2e3c9fd0803ce8000000611749600282611cf2565b6117538486611d69565b61175d9190611ba0565b6109a49190611cf2565b60006020828403121561177957600080fd5b5035919050565b6001600160a01b038116811461179557600080fd5b50565b6000602082840312156117aa57600080fd5b81356109a481611780565b6020808252825182820181905260009190848201906040850190845b818110156117ed578351835292840192918401916001016117d1565b50909695505050505050565b600080600080600060a0868803121561181157600080fd5b505083359560208501359550604085013594606081013594506080013592509050565b634e487b7160e01b600052602160045260246000fd5b6006811061186857634e487b7160e01b600052602160045260246000fd5b9052565b60006101808201905082518252602083015160208301526040830151604083015260608301516118a5606084018264ffffffffff169052565b5060808301516118be608084018264ffffffffff169052565b5060a08301516118d760a084018264ffffffffff169052565b5060c08301516118f060c084018264ffffffffff169052565b5060e083015161190960e084018264ffffffffff169052565b50610100838101516001600160801b038116848301525050610120838101516001600160801b0381168483015250506101408381015190830152610160808401516119568285018261184a565b505092915050565b6000806040838503121561197157600080fd5b82359150602083013561198381611780565b809150509250929050565b805161199981611780565b919050565b6000602082840312156119b057600080fd5b81516109a481611780565b6000602082840312156119cd57600080fd5b5051919050565b634e487b7160e01b600052604160045260246000fd5b634e487b7160e01b600052603260045260246000fd5b634e487b7160e01b600052601160045260246000fd5b6000600019821415611a2a57611a2a611a00565b5060010190565b604051610180810167ffffffffffffffff81118282101715611a6357634e487b7160e01b600052604160045260246000fd5b60405290565b6040516101c0810167ffffffffffffffff81118282101715611a6357634e487b7160e01b600052604160045260246000fd5b80516001600160801b038116811461199957600080fd5b805164ffffffffff8116811461199957600080fd5b8051801515811461199957600080fd5b60006101808284031215611aea57600080fd5b611af2611a31565b82518152611b026020840161198e565b6020820152611b136040840161198e565b6040820152611b246060840161198e565b6060820152611b3560808401611a9b565b608082015260a083015160a082015260c083015160c0820152611b5a60e08401611ab2565b60e08201526101008381015190820152610120611b7881850161198e565b908201526101408381015190820152610160611b95818501611ac7565b908201529392505050565b60008219821115611bb357611bb3611a00565b500190565b600082821015611bca57611bca611a00565b500390565b80516006811061199957600080fd5b60006101c08284031215611bf157600080fd5b611bf9611a69565b82518152611c096020840161198e565b602082015260408301516040820152611c246060840161198e565b606082015260808301516080820152611c3f60a08401611a9b565b60a0820152611c5060c08401611a9b565b60c0820152611c6160e08401611ab2565b60e0820152610100611c74818501611ab2565b90820152610120611c86848201611ab2565b90820152610140611c98848201611ab2565b90820152610160611caa848201611ab2565b90820152610180611cbc848201611ab2565b908201526101a0611b95848201611bcf565b60008060408385031215611ce157600080fd5b505080516020909101519092909150565b600082611d0f57634e487b7160e01b600052601260045260246000fd5b500490565b600060208083528351808285015260005b81811015611d4157858101830151858201604001528201611d25565b81811115611d53576000604083870101525b50601f01601f1916929092016040019392505050565b6000816000190483118215151615611d8357611d83611a00565b50029056fea2646970667358221220c3b21fc2802f80dd54c9ee0e7aac987a4f9c9207b53bc7f686ce0eda8fce552164736f6c634300080a0033",
  "libraries": {
    "DataTypes": "0xb207482883464624e487eCDB50906d8dbdA5Cdb2",
    "MathUtils": "0x4751eD03f5214C62630A26239E5E3933c5d0b6F4"
  },
  "devdoc": {
    "kind": "dev",
    "methods": {},
    "version": 1
  },
  "userdoc": {
    "kind": "user",
    "methods": {},
    "version": 1
  },
  "storageLayout": {
    "storage": [],
    "types": null
  }
}