{
  "address": "0xeD818249009506B5a822F20943b4398A5ff2C028",
  "abi": [
    {
      "inputs": [
        {
          "internalType": "address",
          "name": "_apeCoinStakingContractAddress",
          "type": "address"
        },
        {
          "internalType": "address",
          "name": "_apeCoinContractAddress",
          "type": "address"
        },
        {
          "internalType": "address",
          "name": "_instantLoanCollateralHolder",
          "type": "address"
        },
        {
          "internalType": "address",
          "name": "_bespokeLoanCollateralHolder",
          "type": "address"
        }
      ],
      "stateMutability": "nonpayable",
      "type": "constructor"
    },
    {
      "inputs": [],
      "name": "apeCoin",
      "outputs": [
        {
          "internalType": "contract IERC20",
          "name": "",
          "type": "address"
        }
      ],
      "stateMutability": "view",
      "type": "function"
    },
    {
      "inputs": [],
      "name": "apeCoinStaking",
      "outputs": [
        {
          "internalType": "contract IApeCoinStaking",
          "name": "",
          "type": "address"
        }
      ],
      "stateMutability": "view",
      "type": "function"
    },
    {
      "inputs": [],
      "name": "bespokeLoanCollateralHolder",
      "outputs": [
        {
          "internalType": "address",
          "name": "",
          "type": "address"
        }
      ],
      "stateMutability": "view",
      "type": "function"
    },
    {
      "inputs": [
        {
          "internalType": "address[]",
          "name": "nftAddresses",
          "type": "address[]"
        },
        {
          "internalType": "uint256[]",
          "name": "tokenIds",
          "type": "uint256[]"
        },
        {
          "internalType": "address",
          "name": "initiator",
          "type": "address"
        },
        {
          "internalType": "address",
          "name": "operator",
          "type": "address"
        },
        {
          "internalType": "bytes",
          "name": "params",
          "type": "bytes"
        }
      ],
      "name": "executeOperation",
      "outputs": [
        {
          "internalType": "bool",
          "name": "",
          "type": "bool"
        }
      ],
      "stateMutability": "nonpayable",
      "type": "function"
    },
    {
      "inputs": [],
      "name": "instantLoanCollateralHolder",
      "outputs": [
        {
          "internalType": "address",
          "name": "",
          "type": "address"
        }
      ],
      "stateMutability": "view",
      "type": "function"
    },
    {
      "inputs": [
        {
          "internalType": "address",
          "name": "",
          "type": "address"
        },
        {
          "internalType": "address",
          "name": "",
          "type": "address"
        },
        {
          "internalType": "uint256",
          "name": "",
          "type": "uint256"
        },
        {
          "internalType": "bytes",
          "name": "",
          "type": "bytes"
        }
      ],
      "name": "onERC721Received",
      "outputs": [
        {
          "internalType": "bytes4",
          "name": "",
          "type": "bytes4"
        }
      ],
      "stateMutability": "nonpayable",
      "type": "function"
    }
  ],
  "transactionHash": "0xe99ce26e7ac03e26adbcba1bd43087d1abad99032a6f53227df8d6382da1241e",
  "args": [
    "0x831e0c7A89Dbc52a1911b78ebf4ab905354C96Ce",
    "0x328507DC29C95c170B56a1b3A758eB7a9E73455c",
    "0xE033690a465122C0b17d4ea0D6B3588e6F041655",
    "0x5eBB5d0723EcD6c4740b8832f0bE316AA543960A"
  ],
  "solcInputHash": "320d587b79b26d1ac7bb4083e2a54418",
  "bytecode": "0x61010060405234801561001157600080fd5b506040516109633803806109638339810160408190526100309161006e565b6001600160a01b03918216608052811660a05291821660c0521660e0526100c2565b80516001600160a01b038116811461006957600080fd5b919050565b6000806000806080858703121561008457600080fd5b61008d85610052565b935061009b60208601610052565b92506100a960408601610052565b91506100b760608601610052565b905092959194509250565b60805160a05160c05160e05161085461010f600039600061010a015260008181610158015261029e01526000818160cb01526101b9015260008181610131015261018701526108546000f3fe608060405234801561001057600080fd5b50600436106100625760003560e01c806308e896f014610067578063150b7a021461008f578063595d6976146100c6578063ac7ad9ba14610105578063c28f87831461012c578063c9112a7714610153575b600080fd5b61007a61007536600461044a565b61017a565b60405190151581526020015b60405180910390f35b6100ad61009d3660046105aa565b630a85bd0160e11b949350505050565b6040516001600160e01b03199091168152602001610086565b6100ed7f000000000000000000000000000000000000000000000000000000000000000081565b6040516001600160a01b039091168152602001610086565b6100ed7f000000000000000000000000000000000000000000000000000000000000000081565b6100ed7f000000000000000000000000000000000000000000000000000000000000000081565b6100ed7f000000000000000000000000000000000000000000000000000000000000000081565b6000336001600160a01b037f00000000000000000000000000000000000000000000000000000000000000001614806101db5750336001600160a01b037f000000000000000000000000000000000000000000000000000000000000000016145b61022c5760405162461bcd60e51b815260206004820152601e60248201527f4f4e4c595f4f50454e534b595f434f4c4c41544552414c5f484f4c444552000060448201526064015b60405180910390fd5b336001600160a01b038516146102735760405162461bcd60e51b815260206004820152600c60248201526b2820a920a6a9afa2a92927a960a11b6044820152606401610223565b6000806102828486018661067e565b6040516381dd4e5760e01b815291935091506001600160a01b037f000000000000000000000000000000000000000000000000000000000000000016906381dd4e57906102d5908590859060040161075b565b600060405180830381600087803b1580156102ef57600080fd5b505af1158015610303573d6000803e3d6000fd5b5050505060005b8a8110156103d4578b8b82818110610324576103246107bb565b905060200201602081019061033991906107d1565b6001600160a01b031663095ea7b3888c8c8581811061035a5761035a6107bb565b6040516001600160e01b031960e087901b1681526001600160a01b0390941660048501526020029190910135602483015250604401600060405180830381600087803b1580156103a957600080fd5b505af11580156103bd573d6000803e3d6000fd5b5050505080806103cc906107f5565b91505061030a565b5060019b9a5050505050505050505050565b60008083601f8401126103f857600080fd5b50813567ffffffffffffffff81111561041057600080fd5b6020830191508360208260051b850101111561042b57600080fd5b9250929050565b6001600160a01b038116811461044757600080fd5b50565b60008060008060008060008060a0898b03121561046657600080fd5b883567ffffffffffffffff8082111561047e57600080fd5b61048a8c838d016103e6565b909a50985060208b01359150808211156104a357600080fd5b6104af8c838d016103e6565b909850965060408b013591506104c482610432565b90945060608a0135906104d682610432565b90935060808a013590808211156104ec57600080fd5b818b0191508b601f83011261050057600080fd5b81358181111561050f57600080fd5b8c602082850101111561052157600080fd5b6020830194508093505050509295985092959890939650565b634e487b7160e01b600052604160045260246000fd5b6040805190810167ffffffffffffffff811182821017156105735761057361053a565b60405290565b604051601f8201601f1916810167ffffffffffffffff811182821017156105a2576105a261053a565b604052919050565b600080600080608085870312156105c057600080fd5b84356105cb81610432565b93506020858101356105dc81610432565b935060408601359250606086013567ffffffffffffffff8082111561060057600080fd5b818801915088601f83011261061457600080fd5b8135818111156106265761062661053a565b610638601f8201601f19168501610579565b9150808252898482850101111561064e57600080fd5b808484018584013760008482840101525080935050505092959194509250565b803561067981610432565b919050565b600080604080848603121561069257600080fd5b833567ffffffffffffffff808211156106aa57600080fd5b818601915086601f8301126106be57600080fd5b81356020828211156106d2576106d261053a565b6106e0818360051b01610579565b828152818101935060069290921b84018101918983111561070057600080fd5b938101935b828510156107405785858b03121561071d5760008081fd5b610725610550565b85358152828601358382015284529385019392810192610705565b965061074d88820161066e565b955050505050509250929050565b60408082528351828201819052600091906020906060850190828801855b8281101561079e57815180518552850151858501529285019290840190600101610779565b5050506001600160a01b0395909516930192909252509092915050565b634e487b7160e01b600052603260045260246000fd5b6000602082840312156107e357600080fd5b81356107ee81610432565b9392505050565b600060001982141561081757634e487b7160e01b600052601160045260246000fd5b506001019056fea26469706673582212206fd3298fc83e35b9e362a72d3dbac80dc2d153e49d5920909a97fd79f926e78564736f6c634300080a0033",
  "devdoc": {
    "kind": "dev",
    "methods": {
      "onERC721Received(address,address,uint256,bytes)": {
        "details": "See {IERC721Receiver-onERC721Received}. Always returns `IERC721Receiver.onERC721Received.selector`."
      }
    },
    "version": 1
  },
  "userdoc": {
    "kind": "user",
    "methods": {},
    "version": 1
  },
  "storageLayout": {
    "storage": [],
    "types": null
  }
}