{
  "address": "0xB25eaf1292f6a78f0c26679371Af570b8e097510",
  "abi": [
    {
      "inputs": [
        {
          "internalType": "address",
          "name": "settings",
          "type": "address"
        },
        {
          "internalType": "address",
          "name": "weth",
          "type": "address"
        },
        {
          "internalType": "address",
          "name": "_priceOracle",
          "type": "address"
        }
      ],
      "stateMutability": "nonpayable",
      "type": "constructor"
    },
    {
      "anonymous": false,
      "inputs": [
        {
          "indexed": true,
          "internalType": "address",
          "name": "sender",
          "type": "address"
        },
        {
          "indexed": true,
          "internalType": "uint256",
          "name": "loanId",
          "type": "uint256"
        },
        {
          "indexed": false,
          "internalType": "uint256",
          "name": "price",
          "type": "uint256"
        },
        {
          "indexed": false,
          "internalType": "address",
          "name": "nftAddress",
          "type": "address"
        },
        {
          "indexed": false,
          "internalType": "uint256",
          "name": "tokenId",
          "type": "uint256"
        }
      ],
      "name": "Liquidate",
      "type": "event"
    },
    {
      "inputs": [],
      "name": "SETTINGS",
      "outputs": [
        {
          "internalType": "contract IOpenSkySettings",
          "name": "",
          "type": "address"
        }
      ],
      "stateMutability": "view",
      "type": "function"
    },
    {
      "inputs": [],
      "name": "WETH",
      "outputs": [
        {
          "internalType": "contract IWETH",
          "name": "",
          "type": "address"
        }
      ],
      "stateMutability": "view",
      "type": "function"
    },
    {
      "inputs": [
        {
          "internalType": "uint256",
          "name": "loanId",
          "type": "uint256"
        }
      ],
      "name": "getPrice",
      "outputs": [
        {
          "internalType": "uint256",
          "name": "",
          "type": "uint256"
        }
      ],
      "stateMutability": "view",
      "type": "function"
    },
    {
      "inputs": [
        {
          "internalType": "uint256",
          "name": "loanId",
          "type": "uint256"
        }
      ],
      "name": "liquidate",
      "outputs": [],
      "stateMutability": "nonpayable",
      "type": "function"
    },
    {
      "inputs": [
        {
          "internalType": "uint256",
          "name": "loanId",
          "type": "uint256"
        }
      ],
      "name": "liquidateETH",
      "outputs": [],
      "stateMutability": "payable",
      "type": "function"
    },
    {
      "inputs": [
        {
          "internalType": "address",
          "name": "",
          "type": "address"
        },
        {
          "internalType": "address",
          "name": "",
          "type": "address"
        },
        {
          "internalType": "uint256",
          "name": "",
          "type": "uint256"
        },
        {
          "internalType": "bytes",
          "name": "",
          "type": "bytes"
        }
      ],
      "name": "onERC721Received",
      "outputs": [
        {
          "internalType": "bytes4",
          "name": "",
          "type": "bytes4"
        }
      ],
      "stateMutability": "nonpayable",
      "type": "function"
    },
    {
      "inputs": [],
      "name": "priceOracle",
      "outputs": [
        {
          "internalType": "contract IOpenSkyDutchAuctionPriceOracle",
          "name": "",
          "type": "address"
        }
      ],
      "stateMutability": "view",
      "type": "function"
    },
    {
      "inputs": [
        {
          "internalType": "address",
          "name": "_priceOracle",
          "type": "address"
        }
      ],
      "name": "setPriceOracle",
      "outputs": [],
      "stateMutability": "nonpayable",
      "type": "function"
    }
  ],
  "transactionHash": "0x241859999166d215f65022c09b5903bff5c3c84aa127cc73023311452c51de92",
  "args": [
    "0x632dF1254955449dAf2D1c1554D4A064929d3AD0",
    "0x2e3a2fb8473316a02b8a297b982498e661e1f6f5",
    "0x7c313cEB13Ddc50761293fC06204D8f9096FD37e"
  ],
  "solcInputHash": "491d2b09376f339a9069a5af4744c75c",
  "bytecode": "0x60c06040523480156200001157600080fd5b5060405162001e2738038062001e27833981016040819052620000349162000080565b6001600160a01b0392831660805290821660a052600080546001600160a01b03191691909216179055620000ca565b80516001600160a01b03811681146200007b57600080fd5b919050565b6000806000606084860312156200009657600080fd5b620000a18462000063565b9250620000b16020850162000063565b9150620000c16040850162000063565b90509250925092565b60805160a051611cce620001596000396000818161016801528181610cc20152610d3601526000818161019c015281816101f001528181610332015281816104840152818161059a01528181610631015281816107190152818161089e015281816109ee01528181610be101528181610d6501528181610e5901528181610fbb015261106c0152611cce6000f3fe60806040526004361061007b5760003560e01c806393c880e51161004e57806393c880e514610143578063ad5c464814610156578063ade97ab51461018a578063e7572230146101be57600080fd5b8063150b7a02146100805780632630c12f146100c9578063415f124014610101578063530e784f14610123575b600080fd5b34801561008c57600080fd5b506100ab61009b36600461185f565b630a85bd0160e11b949350505050565b6040516001600160e01b031990911681526020015b60405180910390f35b3480156100d557600080fd5b506000546100e9906001600160a01b031681565b6040516001600160a01b0390911681526020016100c0565b34801561010d57600080fd5b5061012161011c366004611923565b6101ec565b005b34801561012f57600080fd5b5061012161013e36600461193c565b61089a565b610121610151366004611923565b6109ea565b34801561016257600080fd5b506100e97f000000000000000000000000000000000000000000000000000000000000000081565b34801561019657600080fd5b506100e97f000000000000000000000000000000000000000000000000000000000000000081565b3480156101ca57600080fd5b506101de6101d9366004611923565b611067565b6040519081526020016100c0565b60007f00000000000000000000000000000000000000000000000000000000000000006001600160a01b03166335bc868a6040518163ffffffff1660e01b8152600401602060405180830381865afa15801561024c573d6000803e3d6000fd5b505050506040513d601f19601f820116820180604052508101906102709190611969565b9050600061027d83611067565b604051636b52b36560e01b8152600481018590529091506000906001600160a01b03841690636b52b36590602401602060405180830381865afa1580156102c8573d6000803e3d6000fd5b505050506040513d601f19601f820116820180604052508101906102ec9190611986565b90508082116103305760405162461bcd60e51b815260206004820152600b60248201526a282924a1a2afa2a92927a960a91b60448201526064015b60405180910390fd5b7f00000000000000000000000000000000000000000000000000000000000000006001600160a01b0316631755ff216040518163ffffffff1660e01b8152600401602060405180830381865afa15801561038e573d6000803e3d6000fd5b505050506040513d601f19601f820116820180604052508101906103b29190611969565b6001600160a01b031663980a8bd9856040518263ffffffff1660e01b81526004016103df91815260200190565b600060405180830381600087803b1580156103f957600080fd5b505af115801561040d573d6000803e3d6000fd5b505060405163622fe39f60e01b815260048101879052600092506001600160a01b038616915063622fe39f906024016101c060405180830381865afa15801561045a573d6000803e3d6000fd5b505050506040513d601f19601f8201168201806040525081019061047e91906119e3565b905060007f00000000000000000000000000000000000000000000000000000000000000006001600160a01b0316631755ff216040518163ffffffff1660e01b8152600401602060405180830381865afa1580156104e0573d6000803e3d6000fd5b505050506040513d601f19601f820116820180604052508101906105049190611969565b82516040516391541e0560e01b81526001600160a01b0392909216916391541e05916105369160040190815260200190565b61018060405180830381865afa158015610554573d6000803e3d6000fd5b505050506040513d601f19601f820116820180604052508101906105789190611aee565b6020810151909150610595906001600160a01b0316333087611312565b61062f7f00000000000000000000000000000000000000000000000000000000000000006001600160a01b0316631755ff216040518163ffffffff1660e01b8152600401602060405180830381865afa1580156105f6573d6000803e3d6000fd5b505050506040513d601f19601f8201168201806040525081019061061a9190611969565b60208301516001600160a01b03169085611383565b7f00000000000000000000000000000000000000000000000000000000000000006001600160a01b0316631755ff216040518163ffffffff1660e01b8152600401602060405180830381865afa15801561068d573d6000803e3d6000fd5b505050506040513d601f19601f820116820180604052508101906106b19190611969565b6040516376999aeb60e01b815260048101889052602481018590526001600160a01b0391909116906376999aeb90604401600060405180830381600087803b1580156106fc57600080fd5b505af1158015610710573d6000803e3d6000fd5b505050506107b87f00000000000000000000000000000000000000000000000000000000000000006001600160a01b031663c5f956af6040518163ffffffff1660e01b8152600401602060405180830381865afa158015610775573d6000803e3d6000fd5b505050506040513d601f19601f820116820180604052508101906107999190611969565b6107a38587611bac565b60208401516001600160a01b0316919061149d565b60208201516040808401519051632142170760e11b815230600482015233602482015260448101919091526001600160a01b03909116906342842e0e90606401600060405180830381600087803b15801561081257600080fd5b505af1158015610826573d6000803e3d6000fd5b5050505085336001600160a01b03167f4b8d7131b208cfad1c8c5b871ed62010c2cba71708706f2d663b0d2d63f6e163868560200151866040015160405161088a939291909283526001600160a01b03919091166020830152604082015260600190565b60405180910390a3505050505050565b60007f00000000000000000000000000000000000000000000000000000000000000006001600160a01b0316639a9dbb996040518163ffffffff1660e01b8152600401602060405180830381865afa1580156108fa573d6000803e3d6000fd5b505050506040513d601f19601f8201168201806040525081019061091e9190611969565b6040516337b87c3960e21b81523360048201529091506001600160a01b0382169063dee1f0e490602401602060405180830381865afa158015610965573d6000803e3d6000fd5b505050506040513d601f19601f820116820180604052508101906109899190611bd1565b6109c75760405162461bcd60e51b815260206004820152600f60248201526e4f4e4c595f474f5645524e414e434560881b6044820152606401610327565b50600080546001600160a01b0319166001600160a01b0392909216919091179055565b60007f00000000000000000000000000000000000000000000000000000000000000006001600160a01b03166335bc868a6040518163ffffffff1660e01b8152600401602060405180830381865afa158015610a4a573d6000803e3d6000fd5b505050506040513d601f19601f82011682018060405250810190610a6e9190611969565b90506000610a7b83611067565b604051636b52b36560e01b8152600481018590529091506000906001600160a01b03841690636b52b36590602401602060405180830381865afa158015610ac6573d6000803e3d6000fd5b505050506040513d601f19601f82011682018060405250810190610aea9190611986565b905081341015610b325760405162461bcd60e51b8152602060048201526013602482015272125394d551919250d251539517d05353d55395606a1b6044820152606401610327565b80821015610b705760405162461bcd60e51b815260206004820152600b60248201526a282924a1a2afa2a92927a960a91b6044820152606401610327565b60405163622fe39f60e01b8152600481018590526000906001600160a01b0385169063622fe39f906024016101c060405180830381865afa158015610bb9573d6000803e3d6000fd5b505050506040513d601f19601f82011682018060405250810190610bdd91906119e3565b90507f00000000000000000000000000000000000000000000000000000000000000006001600160a01b0316631755ff216040518163ffffffff1660e01b8152600401602060405180830381865afa158015610c3d573d6000803e3d6000fd5b505050506040513d601f19601f82011682018060405250810190610c619190611969565b6001600160a01b031663980a8bd9866040518263ffffffff1660e01b8152600401610c8e91815260200190565b600060405180830381600087803b158015610ca857600080fd5b505af1158015610cbc573d6000803e3d6000fd5b505050507f00000000000000000000000000000000000000000000000000000000000000006001600160a01b031663d0e30db0836040518263ffffffff1660e01b81526004016000604051808303818588803b158015610d1b57600080fd5b505af1158015610d2f573d6000803e3d6000fd5b50505050507f00000000000000000000000000000000000000000000000000000000000000006001600160a01b031663095ea7b37f00000000000000000000000000000000000000000000000000000000000000006001600160a01b0316631755ff216040518163ffffffff1660e01b8152600401602060405180830381865afa158015610dc1573d6000803e3d6000fd5b505050506040513d601f19601f82011682018060405250810190610de59190611969565b6040516001600160e01b031960e084901b1681526001600160a01b039091166004820152602481018590526044016020604051808303816000875af1158015610e32573d6000803e3d6000fd5b505050506040513d601f19601f82011682018060405250810190610e569190611bd1565b507f00000000000000000000000000000000000000000000000000000000000000006001600160a01b0316631755ff216040518163ffffffff1660e01b8152600401602060405180830381865afa158015610eb5573d6000803e3d6000fd5b505050506040513d601f19601f82011682018060405250810190610ed99190611969565b6040516376999aeb60e01b815260048101879052602481018490526001600160a01b0391909116906376999aeb90604401600060405180830381600087803b158015610f2457600080fd5b505af1158015610f38573d6000803e3d6000fd5b50505060208201516040808401519051632142170760e11b815230600482015233602482015260448101919091526001600160a01b0390911691506342842e0e90606401600060405180830381600087803b158015610f9657600080fd5b505af1158015610faa573d6000803e3d6000fd5b505050508183111561104a5761104a7f00000000000000000000000000000000000000000000000000000000000000006001600160a01b0316633d6a38446040518163ffffffff1660e01b8152600401602060405180830381865afa158015611017573d6000803e3d6000fd5b505050506040513d601f19601f8201168201806040525081019061103b9190611969565b6110458486611bac565b6114cd565b8234111561106057611060336110458534611bac565b5050505050565b6000807f00000000000000000000000000000000000000000000000000000000000000006001600160a01b03166335bc868a6040518163ffffffff1660e01b8152600401602060405180830381865afa1580156110c8573d6000803e3d6000fd5b505050506040513d601f19601f820116820180604052508101906110ec9190611969565b90506004604051632e31150760e11b8152600481018590526001600160a01b03831690635c622a0e90602401602060405180830381865afa158015611135573d6000803e3d6000fd5b505050506040513d601f19601f820116820180604052508101906111599190611c02565b600581111561116a5761116a611bec565b146111ab5760405162461bcd60e51b81526020600482015260116024820152702627a0a72fa9aa20aa2aa9afa2a92927a960791b6044820152606401610327565b60405163622fe39f60e01b8152600481018490526000906001600160a01b0383169063622fe39f906024016101c060405180830381865afa1580156111f4573d6000803e3d6000fd5b505050506040513d601f19601f8201168201806040525081019061121891906119e3565b604051636b52b36560e01b8152600481018690529091506000906001600160a01b03841690636b52b36590602401602060405180830381865afa158015611263573d6000803e3d6000fd5b505050506040513d601f19601f820116820180604052508101906112879190611986565b600054610140840151604051635cf4ee9160e01b81526004810184905264ffffffffff90911660248201529192506001600160a01b031690635cf4ee9190604401602060405180830381865afa1580156112e5573d6000803e3d6000fd5b505050506040513d601f19601f820116820180604052508101906113099190611986565b95945050505050565b6040516001600160a01b038085166024830152831660448201526064810182905261137d9085906323b872dd60e01b906084015b60408051601f198184030181529190526020810180516001600160e01b03166001600160e01b031990931692909217909152611566565b50505050565b8015806113fd5750604051636eb1769f60e11b81523060048201526001600160a01b03838116602483015284169063dd62ed3e90604401602060405180830381865afa1580156113d7573d6000803e3d6000fd5b505050506040513d601f19601f820116820180604052508101906113fb9190611986565b155b6114685760405162461bcd60e51b815260206004820152603660248201527f5361666545524332303a20617070726f76652066726f6d206e6f6e2d7a65726f60448201527520746f206e6f6e2d7a65726f20616c6c6f77616e636560501b6064820152608401610327565b6040516001600160a01b03831660248201526044810182905261149890849063095ea7b360e01b90606401611346565b505050565b6040516001600160a01b03831660248201526044810182905261149890849063a9059cbb60e01b90606401611346565b6000826001600160a01b03168260405160006040518083038185875af1925050503d806000811461151a576040519150601f19603f3d011682016040523d82523d6000602084013e61151f565b606091505b50509050806114985760405162461bcd60e51b815260206004820152601360248201527211551217d514905394d1915497d19052531151606a1b6044820152606401610327565b60006115bb826040518060400160405280602081526020017f5361666545524332303a206c6f772d6c6576656c2063616c6c206661696c6564815250856001600160a01b03166116389092919063ffffffff16565b80519091501561149857808060200190518101906115d99190611bd1565b6114985760405162461bcd60e51b815260206004820152602a60248201527f5361666545524332303a204552433230206f7065726174696f6e20646964206e6044820152691bdd081cdd58d8d9595960b21b6064820152608401610327565b60606116478484600085611651565b90505b9392505050565b6060824710156116b25760405162461bcd60e51b815260206004820152602660248201527f416464726573733a20696e73756666696369656e742062616c616e636520666f6044820152651c8818d85b1b60d21b6064820152608401610327565b843b6117005760405162461bcd60e51b815260206004820152601d60248201527f416464726573733a2063616c6c20746f206e6f6e2d636f6e74726163740000006044820152606401610327565b600080866001600160a01b0316858760405161171c9190611c49565b60006040518083038185875af1925050503d8060008114611759576040519150601f19603f3d011682016040523d82523d6000602084013e61175e565b606091505b509150915061176e828286611779565b979650505050505050565b6060831561178857508161164a565b8251156117985782518084602001fd5b8160405162461bcd60e51b81526004016103279190611c65565b6001600160a01b03811681146117c757600080fd5b50565b634e487b7160e01b600052604160045260246000fd5b6040516101c0810167ffffffffffffffff81118282101715611804576118046117ca565b60405290565b604051610180810167ffffffffffffffff81118282101715611804576118046117ca565b604051601f8201601f1916810167ffffffffffffffff81118282101715611857576118576117ca565b604052919050565b6000806000806080858703121561187557600080fd5b8435611880816117b2565b9350602085810135611891816117b2565b935060408601359250606086013567ffffffffffffffff808211156118b557600080fd5b818801915088601f8301126118c957600080fd5b8135818111156118db576118db6117ca565b6118ed601f8201601f1916850161182e565b9150808252898482850101111561190357600080fd5b808484018584013760008482840101525080935050505092959194509250565b60006020828403121561193557600080fd5b5035919050565b60006020828403121561194e57600080fd5b813561164a816117b2565b8051611964816117b2565b919050565b60006020828403121561197b57600080fd5b815161164a816117b2565b60006020828403121561199857600080fd5b5051919050565b80516fffffffffffffffffffffffffffffffff8116811461196457600080fd5b805164ffffffffff8116811461196457600080fd5b80516006811061196457600080fd5b60006101c082840312156119f657600080fd5b6119fe6117e0565b82518152611a0e60208401611959565b602082015260408301516040820152611a2960608401611959565b606082015260808301516080820152611a4460a0840161199f565b60a0820152611a5560c0840161199f565b60c0820152611a6660e084016119bf565b60e0820152610100611a798185016119bf565b90820152610120611a8b8482016119bf565b90820152610140611a9d8482016119bf565b90820152610160611aaf8482016119bf565b90820152610180611ac18482016119bf565b908201526101a0611ad38482016119d4565b908201529392505050565b8051801515811461196457600080fd5b60006101808284031215611b0157600080fd5b611b0961180a565b82518152611b1960208401611959565b6020820152611b2a60408401611959565b6040820152611b3b60608401611959565b6060820152611b4c6080840161199f565b608082015260a083015160a082015260c083015160c0820152611b7160e084016119bf565b60e08201526101008381015190820152610120611b8f818501611959565b908201526101408381015190820152610160611ad3818501611ade565b600082821015611bcc57634e487b7160e01b600052601160045260246000fd5b500390565b600060208284031215611be357600080fd5b61164a82611ade565b634e487b7160e01b600052602160045260246000fd5b600060208284031215611c1457600080fd5b61164a826119d4565b60005b83811015611c38578181015183820152602001611c20565b8381111561137d5750506000910152565b60008251611c5b818460208701611c1d565b9190910192915050565b6020815260008251806020840152611c84816040850160208701611c1d565b601f01601f1916919091016040019291505056fea2646970667358221220dbfae93eb9011239199ea414d1f067d84a1fcd765024c7f2aa777a177991405a64736f6c634300080a0033",
  "devdoc": {
    "kind": "dev",
    "methods": {
      "onERC721Received(address,address,uint256,bytes)": {
        "details": "See {IERC721Receiver-onERC721Received}. Always returns `IERC721Receiver.onERC721Received.selector`."
      }
    },
    "version": 1
  },
  "userdoc": {
    "kind": "user",
    "methods": {},
    "version": 1
  },
  "storageLayout": {
    "storage": [
      {
        "astId": 22295,
        "contract": "contracts/liquidation/OpenSkyDutchAuctionLiquidator.sol:OpenSkyDutchAuctionLiquidator",
        "label": "priceOracle",
        "offset": 0,
        "slot": "0",
        "type": "t_contract(IOpenSkyDutchAuctionPriceOracle)18869"
      }
    ],
    "types": {
      "t_contract(IOpenSkyDutchAuctionPriceOracle)18869": {
        "encoding": "inplace",
        "label": "contract IOpenSkyDutchAuctionPriceOracle",
        "numberOfBytes": "20"
      }
    }
  }
}