{
  "address": "0x504B3C7a113094b89Be07650Ead745DdadF7daFA",
  "abi": [
    {
      "inputs": [
        {
          "internalType": "string",
          "name": "name",
          "type": "string"
        },
        {
          "internalType": "string",
          "name": "symbol",
          "type": "string"
        },
        {
          "internalType": "address",
          "name": "bespokeSettings_",
          "type": "address"
        }
      ],
      "stateMutability": "nonpayable",
      "type": "constructor"
    },
    {
      "anonymous": false,
      "inputs": [
        {
          "indexed": true,
          "internalType": "address",
          "name": "owner",
          "type": "address"
        },
        {
          "indexed": true,
          "internalType": "address",
          "name": "approved",
          "type": "address"
        },
        {
          "indexed": true,
          "internalType": "uint256",
          "name": "tokenId",
          "type": "uint256"
        }
      ],
      "name": "Approval",
      "type": "event"
    },
    {
      "anonymous": false,
      "inputs": [
        {
          "indexed": true,
          "internalType": "address",
          "name": "owner",
          "type": "address"
        },
        {
          "indexed": true,
          "internalType": "address",
          "name": "operator",
          "type": "address"
        },
        {
          "indexed": false,
          "internalType": "bool",
          "name": "approved",
          "type": "bool"
        }
      ],
      "name": "ApprovalForAll",
      "type": "event"
    },
    {
      "anonymous": false,
      "inputs": [
        {
          "indexed": false,
          "internalType": "uint256",
          "name": "tokenId",
          "type": "uint256"
        }
      ],
      "name": "Burn",
      "type": "event"
    },
    {
      "anonymous": false,
      "inputs": [
        {
          "indexed": true,
          "internalType": "uint256",
          "name": "tokenId",
          "type": "uint256"
        },
        {
          "indexed": true,
          "internalType": "address",
          "name": "recipient",
          "type": "address"
        }
      ],
      "name": "Mint",
      "type": "event"
    },
    {
      "anonymous": false,
      "inputs": [
        {
          "indexed": true,
          "internalType": "address",
          "name": "previousOwner",
          "type": "address"
        },
        {
          "indexed": true,
          "internalType": "address",
          "name": "newOwner",
          "type": "address"
        }
      ],
      "name": "OwnershipTransferred",
      "type": "event"
    },
    {
      "anonymous": false,
      "inputs": [
        {
          "indexed": false,
          "internalType": "address",
          "name": "operator",
          "type": "address"
        },
        {
          "indexed": false,
          "internalType": "address",
          "name": "descriptorAddress",
          "type": "address"
        }
      ],
      "name": "SetLoanDescriptorAddress",
      "type": "event"
    },
    {
      "anonymous": false,
      "inputs": [
        {
          "indexed": true,
          "internalType": "address",
          "name": "from",
          "type": "address"
        },
        {
          "indexed": true,
          "internalType": "address",
          "name": "to",
          "type": "address"
        },
        {
          "indexed": true,
          "internalType": "uint256",
          "name": "tokenId",
          "type": "uint256"
        }
      ],
      "name": "Transfer",
      "type": "event"
    },
    {
      "inputs": [],
      "name": "BESPOKE_SETTINGS",
      "outputs": [
        {
          "internalType": "contract IOpenSkyBespokeSettings",
          "name": "",
          "type": "address"
        }
      ],
      "stateMutability": "view",
      "type": "function"
    },
    {
      "inputs": [
        {
          "internalType": "address",
          "name": "to",
          "type": "address"
        },
        {
          "internalType": "uint256",
          "name": "tokenId",
          "type": "uint256"
        }
      ],
      "name": "approve",
      "outputs": [],
      "stateMutability": "nonpayable",
      "type": "function"
    },
    {
      "inputs": [
        {
          "internalType": "address",
          "name": "owner",
          "type": "address"
        }
      ],
      "name": "balanceOf",
      "outputs": [
        {
          "internalType": "uint256",
          "name": "",
          "type": "uint256"
        }
      ],
      "stateMutability": "view",
      "type": "function"
    },
    {
      "inputs": [
        {
          "internalType": "uint256",
          "name": "tokenId",
          "type": "uint256"
        }
      ],
      "name": "burn",
      "outputs": [],
      "stateMutability": "nonpayable",
      "type": "function"
    },
    {
      "inputs": [
        {
          "internalType": "uint256",
          "name": "tokenId",
          "type": "uint256"
        }
      ],
      "name": "getApproved",
      "outputs": [
        {
          "internalType": "address",
          "name": "",
          "type": "address"
        }
      ],
      "stateMutability": "view",
      "type": "function"
    },
    {
      "inputs": [
        {
          "internalType": "uint256",
          "name": "tokenId",
          "type": "uint256"
        }
      ],
      "name": "getLoanData",
      "outputs": [
        {
          "components": [
            {
              "internalType": "uint256",
              "name": "reserveId",
              "type": "uint256"
            },
            {
              "internalType": "address",
              "name": "nftAddress",
              "type": "address"
            },
            {
              "internalType": "uint256",
              "name": "tokenId",
              "type": "uint256"
            },
            {
              "internalType": "uint256",
              "name": "tokenAmount",
              "type": "uint256"
            },
            {
              "internalType": "address",
              "name": "nftManager",
              "type": "address"
            },
            {
              "internalType": "address",
              "name": "borrower",
              "type": "address"
            },
            {
              "internalType": "address",
              "name": "lender",
              "type": "address"
            },
            {
              "internalType": "uint256",
              "name": "amount",
              "type": "uint256"
            },
            {
              "internalType": "uint128",
              "name": "borrowRate",
              "type": "uint128"
            },
            {
              "internalType": "uint128",
              "name": "interestPerSecond",
              "type": "uint128"
            },
            {
              "internalType": "address",
              "name": "currency",
              "type": "address"
            },
            {
              "internalType": "uint40",
              "name": "borrowDuration",
              "type": "uint40"
            },
            {
              "internalType": "uint40",
              "name": "borrowBegin",
              "type": "uint40"
            },
            {
              "internalType": "uint40",
              "name": "borrowOverdueTime",
              "type": "uint40"
            },
            {
              "internalType": "uint40",
              "name": "liquidatableTime",
              "type": "uint40"
            },
            {
              "internalType": "bool",
              "name": "isProrated",
              "type": "bool"
            },
            {
              "internalType": "enum BespokeTypes.LoanStatus",
              "name": "status",
              "type": "uint8"
            }
          ],
          "internalType": "struct BespokeTypes.LoanData",
          "name": "",
          "type": "tuple"
        }
      ],
      "stateMutability": "nonpayable",
      "type": "function"
    },
    {
      "inputs": [
        {
          "internalType": "address",
          "name": "owner",
          "type": "address"
        },
        {
          "internalType": "address",
          "name": "operator",
          "type": "address"
        }
      ],
      "name": "isApprovedForAll",
      "outputs": [
        {
          "internalType": "bool",
          "name": "",
          "type": "bool"
        }
      ],
      "stateMutability": "view",
      "type": "function"
    },
    {
      "inputs": [],
      "name": "loanDescriptorAddress",
      "outputs": [
        {
          "internalType": "address",
          "name": "",
          "type": "address"
        }
      ],
      "stateMutability": "view",
      "type": "function"
    },
    {
      "inputs": [
        {
          "internalType": "uint256",
          "name": "tokenId",
          "type": "uint256"
        },
        {
          "internalType": "address",
          "name": "account",
          "type": "address"
        }
      ],
      "name": "mint",
      "outputs": [],
      "stateMutability": "nonpayable",
      "type": "function"
    },
    {
      "inputs": [],
      "name": "name",
      "outputs": [
        {
          "internalType": "string",
          "name": "",
          "type": "string"
        }
      ],
      "stateMutability": "view",
      "type": "function"
    },
    {
      "inputs": [],
      "name": "owner",
      "outputs": [
        {
          "internalType": "address",
          "name": "",
          "type": "address"
        }
      ],
      "stateMutability": "view",
      "type": "function"
    },
    {
      "inputs": [
        {
          "internalType": "uint256",
          "name": "tokenId",
          "type": "uint256"
        }
      ],
      "name": "ownerOf",
      "outputs": [
        {
          "internalType": "address",
          "name": "",
          "type": "address"
        }
      ],
      "stateMutability": "view",
      "type": "function"
    },
    {
      "inputs": [],
      "name": "renounceOwnership",
      "outputs": [],
      "stateMutability": "nonpayable",
      "type": "function"
    },
    {
      "inputs": [
        {
          "internalType": "address",
          "name": "from",
          "type": "address"
        },
        {
          "internalType": "address",
          "name": "to",
          "type": "address"
        },
        {
          "internalType": "uint256",
          "name": "tokenId",
          "type": "uint256"
        }
      ],
      "name": "safeTransferFrom",
      "outputs": [],
      "stateMutability": "nonpayable",
      "type": "function"
    },
    {
      "inputs": [
        {
          "internalType": "address",
          "name": "from",
          "type": "address"
        },
        {
          "internalType": "address",
          "name": "to",
          "type": "address"
        },
        {
          "internalType": "uint256",
          "name": "tokenId",
          "type": "uint256"
        },
        {
          "internalType": "bytes",
          "name": "_data",
          "type": "bytes"
        }
      ],
      "name": "safeTransferFrom",
      "outputs": [],
      "stateMutability": "nonpayable",
      "type": "function"
    },
    {
      "inputs": [
        {
          "internalType": "address",
          "name": "operator",
          "type": "address"
        },
        {
          "internalType": "bool",
          "name": "approved",
          "type": "bool"
        }
      ],
      "name": "setApprovalForAll",
      "outputs": [],
      "stateMutability": "nonpayable",
      "type": "function"
    },
    {
      "inputs": [
        {
          "internalType": "address",
          "name": "address_",
          "type": "address"
        }
      ],
      "name": "setLoanDescriptorAddress",
      "outputs": [],
      "stateMutability": "nonpayable",
      "type": "function"
    },
    {
      "inputs": [
        {
          "internalType": "bytes4",
          "name": "interfaceId",
          "type": "bytes4"
        }
      ],
      "name": "supportsInterface",
      "outputs": [
        {
          "internalType": "bool",
          "name": "",
          "type": "bool"
        }
      ],
      "stateMutability": "view",
      "type": "function"
    },
    {
      "inputs": [],
      "name": "symbol",
      "outputs": [
        {
          "internalType": "string",
          "name": "",
          "type": "string"
        }
      ],
      "stateMutability": "view",
      "type": "function"
    },
    {
      "inputs": [
        {
          "internalType": "uint256",
          "name": "tokenId",
          "type": "uint256"
        }
      ],
      "name": "tokenURI",
      "outputs": [
        {
          "internalType": "string",
          "name": "",
          "type": "string"
        }
      ],
      "stateMutability": "view",
      "type": "function"
    },
    {
      "inputs": [
        {
          "internalType": "address",
          "name": "from",
          "type": "address"
        },
        {
          "internalType": "address",
          "name": "to",
          "type": "address"
        },
        {
          "internalType": "uint256",
          "name": "tokenId",
          "type": "uint256"
        }
      ],
      "name": "transferFrom",
      "outputs": [],
      "stateMutability": "nonpayable",
      "type": "function"
    },
    {
      "inputs": [
        {
          "internalType": "address",
          "name": "newOwner",
          "type": "address"
        }
      ],
      "name": "transferOwnership",
      "outputs": [],
      "stateMutability": "nonpayable",
      "type": "function"
    }
  ],
  "transactionHash": "0xa9b26a6761ebf47a46413821737ef32efad0912a8280045ca605ba30409618cb",
  "args": [
    "OpenSky Bespoke Borrow Receipt",
    "OBBR",
    "0x0e5bb2cAF121BE3e92429ACf12Dd6B0266C0D5EA"
  ],
  "solcInputHash": "52db335744ccba4923b671cf9bf608b9",
  "bytecode": "0x60a06040523480156200001157600080fd5b506040516200208338038062002083833981016040819052620000349162000247565b8282620000413362000084565b815162000056906001906020850190620000d4565b5080516200006c906002906020840190620000d4565b5050506001600160a01b031660805250620003119050565b600080546001600160a01b038381166001600160a01b0319831681178455604051919092169283917f8be0079c531659141344cd1fd0a4f28419497f9722a3daafe3b4186f6b6457e09190a35050565b828054620000e290620002d4565b90600052602060002090601f01602090048101928262000106576000855562000151565b82601f106200012157805160ff191683800117855562000151565b8280016001018555821562000151579182015b828111156200015157825182559160200191906001019062000134565b506200015f92915062000163565b5090565b5b808211156200015f576000815560010162000164565b634e487b7160e01b600052604160045260246000fd5b600082601f830112620001a257600080fd5b81516001600160401b0380821115620001bf57620001bf6200017a565b604051601f8301601f19908116603f01168101908282118183101715620001ea57620001ea6200017a565b816040528381526020925086838588010111156200020757600080fd5b600091505b838210156200022b57858201830151818301840152908201906200020c565b838211156200023d5760008385830101525b9695505050505050565b6000806000606084860312156200025d57600080fd5b83516001600160401b03808211156200027557600080fd5b620002838783880162000190565b945060208601519150808211156200029a57600080fd5b50620002a98682870162000190565b604086015190935090506001600160a01b0381168114620002c957600080fd5b809150509250925092565b600181811c90821680620002e957607f821691505b602082108114156200030b57634e487b7160e01b600052602260045260246000fd5b50919050565b608051611d4162000342600039600081816101dc0152818161063c015281816107bb0152610a790152611d416000f3fe608060405234801561001057600080fd5b50600436106101425760003560e01c8063715018a6116100b857806397dfa0d11161007c57806397dfa0d1146102bf578063a22cb465146102d2578063b88d4fde146102e5578063c87b56dd146102f8578063e985e9c51461030b578063f2fde38b1461034757600080fd5b8063715018a61461027857806379380038146102805780638da5cb5b1461029357806394bf804d146102a457806395d89b41146102b757600080fd5b806329c55f061161010a57806329c55f06146101d757806342842e0e146101fe57806342966c6814610211578063622fe39f146102245780636352211e1461024457806370a082311461025757600080fd5b806301ffc9a71461014757806306fdde031461016f578063081812fc14610184578063095ea7b3146101af57806323b872dd146101c4575b600080fd5b61015a61015536600461147c565b61035a565b60405190151581526020015b60405180910390f35b6101776103ac565b60405161016691906114f8565b61019761019236600461150b565b61043e565b6040516001600160a01b039091168152602001610166565b6101c26101bd366004611539565b6104d8565b005b6101c26101d2366004611565565b6105ee565b6101977f000000000000000000000000000000000000000000000000000000000000000081565b6101c261020c366004611565565b61061f565b6101c261021f36600461150b565b61063a565b61023761023236600461150b565b61072c565b60405161016691906115c8565b61019761025236600461150b565b6108aa565b61026a610265366004611708565b610921565b604051908152602001610166565b6101c26109a8565b6101c261028e366004611708565b6109de565b6000546001600160a01b0316610197565b6101c26102b2366004611725565b610a77565b610177610b6d565b600754610197906001600160a01b031681565b6101c26102e0366004611763565b610b7c565b6101c26102f336600461182a565b610c41565b61017761030636600461150b565b610c79565b61015a6103193660046118d9565b6001600160a01b03918216600090815260066020908152604080832093909416825291909152205460ff1690565b6101c2610355366004611708565b610d17565b60006001600160e01b031982166380ac58cd60e01b148061038b57506001600160e01b03198216635b5e139f60e01b145b806103a657506301ffc9a760e01b6001600160e01b03198316145b92915050565b6060600180546103bb90611907565b80601f01602080910402602001604051908101604052809291908181526020018280546103e790611907565b80156104345780601f1061040957610100808354040283529160200191610434565b820191906000526020600020905b81548152906001019060200180831161041757829003601f168201915b5050505050905090565b6000818152600360205260408120546001600160a01b03166104bc5760405162461bcd60e51b815260206004820152602c60248201527f4552433732313a20617070726f76656420717565727920666f72206e6f6e657860448201526b34b9ba32b73a103a37b5b2b760a11b60648201526084015b60405180910390fd5b506000908152600560205260409020546001600160a01b031690565b60006104e3826108aa565b9050806001600160a01b0316836001600160a01b031614156105515760405162461bcd60e51b815260206004820152602160248201527f4552433732313a20617070726f76616c20746f2063757272656e74206f776e656044820152603960f91b60648201526084016104b3565b336001600160a01b038216148061056d575061056d8133610319565b6105df5760405162461bcd60e51b815260206004820152603860248201527f4552433732313a20617070726f76652063616c6c6572206973206e6f74206f7760448201527f6e6572206e6f7220617070726f76656420666f7220616c6c000000000000000060648201526084016104b3565b6105e98383610db2565b505050565b6105f83382610e20565b6106145760405162461bcd60e51b81526004016104b390611942565b6105e9838383610f17565b6105e983838360405180602001604052806000815250610c41565b7f00000000000000000000000000000000000000000000000000000000000000006001600160a01b031663956236416040518163ffffffff1660e01b8152600401602060405180830381865afa158015610698573d6000803e3d6000fd5b505050506040513d601f19601f820116820180604052508101906106bc919061199e565b6001600160a01b0316336001600160a01b0316146106ec5760405162461bcd60e51b81526004016104b3906119bb565b6106f5816110b7565b6040518181527fb90306ad06b2a6ff86ddc9327db583062895ef6540e62dc50add009db5b356eb906020015b60405180910390a150565b6107b96040805161022081018252600080825260208201819052918101829052606081018290526080810182905260a0810182905260c0810182905260e08101829052610100810182905261012081018290526101408101829052610160810182905261018081018290526101a081018290526101c081018290526101e081018290529061020082015290565b7f00000000000000000000000000000000000000000000000000000000000000006001600160a01b031663956236416040518163ffffffff1660e01b8152600401602060405180830381865afa158015610817573d6000803e3d6000fd5b505050506040513d601f19601f8201168201806040525081019061083b919061199e565b6001600160a01b031663622fe39f836040518263ffffffff1660e01b815260040161086891815260200190565b61022060405180830381865afa158015610886573d6000803e3d6000fd5b505050506040513d601f19601f820116820180604052508101906103a69190611a44565b6000818152600360205260408120546001600160a01b0316806103a65760405162461bcd60e51b815260206004820152602960248201527f4552433732313a206f776e657220717565727920666f72206e6f6e657869737460448201526832b73a103a37b5b2b760b91b60648201526084016104b3565b60006001600160a01b03821661098c5760405162461bcd60e51b815260206004820152602a60248201527f4552433732313a2062616c616e636520717565727920666f7220746865207a65604482015269726f206164647265737360b01b60648201526084016104b3565b506001600160a01b031660009081526004602052604090205490565b6000546001600160a01b031633146109d25760405162461bcd60e51b81526004016104b390611b6e565b6109dc6000611152565b565b6000546001600160a01b03163314610a085760405162461bcd60e51b81526004016104b390611b6e565b6001600160a01b038116610a1b57600080fd5b600780546001600160a01b0319166001600160a01b0383161790557fc5c2d52985d8e0e38d9eb84f6886aca79638c04d053ff66a35cbcedc58dfa55d33604080516001600160a01b039283168152918416602083015201610721565b7f00000000000000000000000000000000000000000000000000000000000000006001600160a01b031663956236416040518163ffffffff1660e01b8152600401602060405180830381865afa158015610ad5573d6000803e3d6000fd5b505050506040513d601f19601f82011682018060405250810190610af9919061199e565b6001600160a01b0316336001600160a01b031614610b295760405162461bcd60e51b81526004016104b3906119bb565b610b3381836111a2565b6040516001600160a01b0382169083907ff3cea5493d790af0133817606f7350a91d7f154ea52eaa79d179d4d231e5010290600090a35050565b6060600280546103bb90611907565b6001600160a01b038216331415610bd55760405162461bcd60e51b815260206004820152601960248201527f4552433732313a20617070726f766520746f2063616c6c65720000000000000060448201526064016104b3565b3360008181526006602090815260408083206001600160a01b03871680855290835292819020805460ff191686151590811790915590519081529192917f17307eab39ab6107e8899845ad3d59bd9653f200f220920489ca2b5937696c31910160405180910390a35050565b610c4b3383610e20565b610c675760405162461bcd60e51b81526004016104b390611942565b610c73848484846111c0565b50505050565b6007546060906001600160a01b031615610cfe5760075460405163c87b56dd60e01b8152600481018490526001600160a01b039091169063c87b56dd90602401600060405180830381865afa158015610cd6573d6000803e3d6000fd5b505050506040513d6000823e601f3d908101601f191682016040526103a69190810190611ba3565b505060408051602081019091526000815290565b919050565b6000546001600160a01b03163314610d415760405162461bcd60e51b81526004016104b390611b6e565b6001600160a01b038116610da65760405162461bcd60e51b815260206004820152602660248201527f4f776e61626c653a206e6577206f776e657220697320746865207a65726f206160448201526564647265737360d01b60648201526084016104b3565b610daf81611152565b50565b600081815260056020526040902080546001600160a01b0319166001600160a01b0384169081179091558190610de7826108aa565b6001600160a01b03167f8c5be1e5ebec7d5bd14f71427d1e84f3dd0314c0f7b2291e5b200ac8c7c3b92560405160405180910390a45050565b6000818152600360205260408120546001600160a01b0316610e995760405162461bcd60e51b815260206004820152602c60248201527f4552433732313a206f70657261746f7220717565727920666f72206e6f6e657860448201526b34b9ba32b73a103a37b5b2b760a11b60648201526084016104b3565b6000610ea4836108aa565b9050806001600160a01b0316846001600160a01b03161480610edf5750836001600160a01b0316610ed48461043e565b6001600160a01b0316145b80610f0f57506001600160a01b0380821660009081526006602090815260408083209388168352929052205460ff165b949350505050565b826001600160a01b0316610f2a826108aa565b6001600160a01b031614610f925760405162461bcd60e51b815260206004820152602960248201527f4552433732313a207472616e73666572206f6620746f6b656e2074686174206960448201526839903737ba1037bbb760b91b60648201526084016104b3565b6001600160a01b038216610ff45760405162461bcd60e51b8152602060048201526024808201527f4552433732313a207472616e7366657220746f20746865207a65726f206164646044820152637265737360e01b60648201526084016104b3565b610fff600082610db2565b6001600160a01b0383166000908152600460205260408120805460019290611028908490611c30565b90915550506001600160a01b0382166000908152600460205260408120805460019290611056908490611c47565b909155505060008181526003602052604080822080546001600160a01b0319166001600160a01b0386811691821790925591518493918716917fddf252ad1be2c89b69c2b068fc378daa952ba7f163c4a11628f55a4df523b3ef91a4505050565b60006110c2826108aa565b90506110cf600083610db2565b6001600160a01b03811660009081526004602052604081208054600192906110f8908490611c30565b909155505060008281526003602052604080822080546001600160a01b0319169055518391906001600160a01b038416907fddf252ad1be2c89b69c2b068fc378daa952ba7f163c4a11628f55a4df523b3ef908390a45050565b600080546001600160a01b038381166001600160a01b0319831681178455604051919092169283917f8be0079c531659141344cd1fd0a4f28419497f9722a3daafe3b4186f6b6457e09190a35050565b6111bc8282604051806020016040528060008152506111f3565b5050565b6111cb848484610f17565b6111d784848484611226565b610c735760405162461bcd60e51b81526004016104b390611c5f565b6111fd8383611324565b61120a6000848484611226565b6105e95760405162461bcd60e51b81526004016104b390611c5f565b60006001600160a01b0384163b1561131957604051630a85bd0160e11b81526001600160a01b0385169063150b7a029061126a903390899088908890600401611cb1565b6020604051808303816000875af19250505080156112a5575060408051601f3d908101601f191682019092526112a291810190611cee565b60015b6112ff573d8080156112d3576040519150601f19603f3d011682016040523d82523d6000602084013e6112d8565b606091505b5080516112f75760405162461bcd60e51b81526004016104b390611c5f565b805181602001fd5b6001600160e01b031916630a85bd0160e11b149050610f0f565b506001949350505050565b6001600160a01b03821661137a5760405162461bcd60e51b815260206004820181905260248201527f4552433732313a206d696e7420746f20746865207a65726f206164647265737360448201526064016104b3565b6000818152600360205260409020546001600160a01b0316156113df5760405162461bcd60e51b815260206004820152601c60248201527f4552433732313a20746f6b656e20616c7265616479206d696e7465640000000060448201526064016104b3565b6001600160a01b0382166000908152600460205260408120805460019290611408908490611c47565b909155505060008181526003602052604080822080546001600160a01b0319166001600160a01b03861690811790915590518392907fddf252ad1be2c89b69c2b068fc378daa952ba7f163c4a11628f55a4df523b3ef908290a45050565b6001600160e01b031981168114610daf57600080fd5b60006020828403121561148e57600080fd5b813561149981611466565b9392505050565b60005b838110156114bb5781810151838201526020016114a3565b83811115610c735750506000910152565b600081518084526114e48160208601602086016114a0565b601f01601f19169290920160200192915050565b60208152600061149960208301846114cc565b60006020828403121561151d57600080fd5b5035919050565b6001600160a01b0381168114610daf57600080fd5b6000806040838503121561154c57600080fd5b823561155781611524565b946020939093013593505050565b60008060006060848603121561157a57600080fd5b833561158581611524565b9250602084013561159581611524565b929592945050506040919091013590565b600481106115c457634e487b7160e01b600052602160045260246000fd5b9052565b815181526020808301516102208301916115ec908401826001600160a01b03169052565b506040830151604083015260608301516060830152608083015161161b60808401826001600160a01b03169052565b5060a083015161163660a08401826001600160a01b03169052565b5060c083015161165160c08401826001600160a01b03169052565b5060e083015160e083015261010080840151611677828501826001600160801b03169052565b5050610120838101516001600160801b031690830152610140808401516001600160a01b0316908301526101608084015164ffffffffff90811691840191909152610180808501518216908401526101a0808501518216908401526101c080850151909116908301526101e08084015115159083015261020080840151611700828501826115a6565b505092915050565b60006020828403121561171a57600080fd5b813561149981611524565b6000806040838503121561173857600080fd5b82359150602083013561174a81611524565b809150509250929050565b8015158114610daf57600080fd5b6000806040838503121561177657600080fd5b823561178181611524565b9150602083013561174a81611755565b634e487b7160e01b600052604160045260246000fd5b604051610220810167ffffffffffffffff811182821017156117cb576117cb611791565b60405290565b604051601f8201601f1916810167ffffffffffffffff811182821017156117fa576117fa611791565b604052919050565b600067ffffffffffffffff82111561181c5761181c611791565b50601f01601f191660200190565b6000806000806080858703121561184057600080fd5b843561184b81611524565b9350602085013561185b81611524565b925060408501359150606085013567ffffffffffffffff81111561187e57600080fd5b8501601f8101871361188f57600080fd5b80356118a261189d82611802565b6117d1565b8181528860208385010111156118b757600080fd5b8160208401602083013760006020838301015280935050505092959194509250565b600080604083850312156118ec57600080fd5b82356118f781611524565b9150602083013561174a81611524565b600181811c9082168061191b57607f821691505b6020821081141561193c57634e487b7160e01b600052602260045260246000fd5b50919050565b60208082526031908201527f4552433732313a207472616e736665722063616c6c6572206973206e6f74206f6040820152701ddb995c881b9bdc88185c1c1c9bdd9959607a1b606082015260800190565b8051610d1281611524565b6000602082840312156119b057600080fd5b815161149981611524565b60208082526023908201527f424d5f41434c5f4f4e4c595f424553504f4b525f4d41524b45545f43414e5f4360408201526210531360ea1b606082015260800190565b80516001600160801b0381168114610d1257600080fd5b805164ffffffffff81168114610d1257600080fd5b8051610d1281611755565b805160048110610d1257600080fd5b60006102208284031215611a5757600080fd5b611a5f6117a7565b82518152611a6f60208401611993565b60208201526040830151604082015260608301516060820152611a9460808401611993565b6080820152611aa560a08401611993565b60a0820152611ab660c08401611993565b60c082015260e083015160e0820152610100611ad38185016119fe565b90820152610120611ae58482016119fe565b90820152610140611af7848201611993565b90820152610160611b09848201611a15565b90820152610180611b1b848201611a15565b908201526101a0611b2d848201611a15565b908201526101c0611b3f848201611a15565b908201526101e0611b51848201611a2a565b90820152610200611b63848201611a35565b908201529392505050565b6020808252818101527f4f776e61626c653a2063616c6c6572206973206e6f7420746865206f776e6572604082015260600190565b600060208284031215611bb557600080fd5b815167ffffffffffffffff811115611bcc57600080fd5b8201601f81018413611bdd57600080fd5b8051611beb61189d82611802565b818152856020838501011115611c0057600080fd5b611c118260208301602086016114a0565b95945050505050565b634e487b7160e01b600052601160045260246000fd5b600082821015611c4257611c42611c1a565b500390565b60008219821115611c5a57611c5a611c1a565b500190565b60208082526032908201527f4552433732313a207472616e7366657220746f206e6f6e20455243373231526560408201527131b2b4bb32b91034b6b83632b6b2b73a32b960711b606082015260800190565b6001600160a01b0385811682528416602082015260408101839052608060608201819052600090611ce4908301846114cc565b9695505050505050565b600060208284031215611d0057600080fd5b81516114998161146656fea2646970667358221220f902c29fd314825488b992bf3ccce212b356d628082bcafb08a030549d1512a864736f6c634300080a0033",
  "libraries": {},
  "devdoc": {
    "kind": "dev",
    "methods": {
      "approve(address,uint256)": {
        "details": "See {IERC721-approve}."
      },
      "balanceOf(address)": {
        "details": "See {IERC721-balanceOf}."
      },
      "getApproved(uint256)": {
        "details": "See {IERC721-getApproved}."
      },
      "isApprovedForAll(address,address)": {
        "details": "See {IERC721-isApprovedForAll}."
      },
      "name()": {
        "details": "See {IERC721Metadata-name}."
      },
      "owner()": {
        "details": "Returns the address of the current owner."
      },
      "ownerOf(uint256)": {
        "details": "See {IERC721-ownerOf}."
      },
      "renounceOwnership()": {
        "details": "Leaves the contract without owner. It will not be possible to call `onlyOwner` functions anymore. Can only be called by the current owner. NOTE: Renouncing ownership will leave the contract without an owner, thereby removing any functionality that is only available to the owner."
      },
      "safeTransferFrom(address,address,uint256)": {
        "details": "See {IERC721-safeTransferFrom}."
      },
      "safeTransferFrom(address,address,uint256,bytes)": {
        "details": "See {IERC721-safeTransferFrom}."
      },
      "setApprovalForAll(address,bool)": {
        "details": "See {IERC721-setApprovalForAll}."
      },
      "supportsInterface(bytes4)": {
        "details": "See {IERC165-supportsInterface}."
      },
      "symbol()": {
        "details": "See {IERC721Metadata-symbol}."
      },
      "tokenURI(uint256)": {
        "details": "See {IERC721Metadata-tokenURI}."
      },
      "transferFrom(address,address,uint256)": {
        "details": "See {IERC721-transferFrom}."
      },
      "transferOwnership(address)": {
        "details": "Transfers ownership of the contract to a new account (`newOwner`). Can only be called by the current owner."
      }
    },
    "version": 1
  },
  "userdoc": {
    "kind": "user",
    "methods": {},
    "version": 1
  },
  "storageLayout": {
    "storage": [
      {
        "astId": 387,
        "contract": "contracts/bespokemarket/OpenSkyBespokeLoanNFT.sol:OpenSkyBespokeLoanNFT",
        "label": "_owner",
        "offset": 0,
        "slot": "0",
        "type": "t_address"
      },
      {
        "astId": 4564,
        "contract": "contracts/bespokemarket/OpenSkyBespokeLoanNFT.sol:OpenSkyBespokeLoanNFT",
        "label": "_name",
        "offset": 0,
        "slot": "1",
        "type": "t_string_storage"
      },
      {
        "astId": 4566,
        "contract": "contracts/bespokemarket/OpenSkyBespokeLoanNFT.sol:OpenSkyBespokeLoanNFT",
        "label": "_symbol",
        "offset": 0,
        "slot": "2",
        "type": "t_string_storage"
      },
      {
        "astId": 4570,
        "contract": "contracts/bespokemarket/OpenSkyBespokeLoanNFT.sol:OpenSkyBespokeLoanNFT",
        "label": "_owners",
        "offset": 0,
        "slot": "3",
        "type": "t_mapping(t_uint256,t_address)"
      },
      {
        "astId": 4574,
        "contract": "contracts/bespokemarket/OpenSkyBespokeLoanNFT.sol:OpenSkyBespokeLoanNFT",
        "label": "_balances",
        "offset": 0,
        "slot": "4",
        "type": "t_mapping(t_address,t_uint256)"
      },
      {
        "astId": 4578,
        "contract": "contracts/bespokemarket/OpenSkyBespokeLoanNFT.sol:OpenSkyBespokeLoanNFT",
        "label": "_tokenApprovals",
        "offset": 0,
        "slot": "5",
        "type": "t_mapping(t_uint256,t_address)"
      },
      {
        "astId": 4584,
        "contract": "contracts/bespokemarket/OpenSkyBespokeLoanNFT.sol:OpenSkyBespokeLoanNFT",
        "label": "_operatorApprovals",
        "offset": 0,
        "slot": "6",
        "type": "t_mapping(t_address,t_mapping(t_address,t_bool))"
      },
      {
        "astId": 13043,
        "contract": "contracts/bespokemarket/OpenSkyBespokeLoanNFT.sol:OpenSkyBespokeLoanNFT",
        "label": "loanDescriptorAddress",
        "offset": 0,
        "slot": "7",
        "type": "t_address"
      }
    ],
    "types": {
      "t_address": {
        "encoding": "inplace",
        "label": "address",
        "numberOfBytes": "20"
      },
      "t_bool": {
        "encoding": "inplace",
        "label": "bool",
        "numberOfBytes": "1"
      },
      "t_mapping(t_address,t_bool)": {
        "encoding": "mapping",
        "key": "t_address",
        "label": "mapping(address => bool)",
        "numberOfBytes": "32",
        "value": "t_bool"
      },
      "t_mapping(t_address,t_mapping(t_address,t_bool))": {
        "encoding": "mapping",
        "key": "t_address",
        "label": "mapping(address => mapping(address => bool))",
        "numberOfBytes": "32",
        "value": "t_mapping(t_address,t_bool)"
      },
      "t_mapping(t_address,t_uint256)": {
        "encoding": "mapping",
        "key": "t_address",
        "label": "mapping(address => uint256)",
        "numberOfBytes": "32",
        "value": "t_uint256"
      },
      "t_mapping(t_uint256,t_address)": {
        "encoding": "mapping",
        "key": "t_uint256",
        "label": "mapping(uint256 => address)",
        "numberOfBytes": "32",
        "value": "t_address"
      },
      "t_string_storage": {
        "encoding": "bytes",
        "label": "string",
        "numberOfBytes": "32"
      },
      "t_uint256": {
        "encoding": "inplace",
        "label": "uint256",
        "numberOfBytes": "32"
      }
    }
  }
}