{
  "address": "0x63ae1fd1AB44e42Fb8D659EB7459E44bDe0973aD",
  "abi": [
    {
      "inputs": [
        {
          "internalType": "contract IOpenSkySettings",
          "name": "settingsContract_",
          "type": "address"
        },
        {
          "internalType": "contract ILendingPool",
          "name": "aaveContract_",
          "type": "address"
        },
        {
          "internalType": "contract IERC20",
          "name": "underlyingAssetContract_",
          "type": "address"
        }
      ],
      "stateMutability": "nonpayable",
      "type": "constructor"
    },
    {
      "anonymous": false,
      "inputs": [
        {
          "indexed": true,
          "internalType": "address",
          "name": "owner",
          "type": "address"
        },
        {
          "indexed": true,
          "internalType": "address",
          "name": "approved",
          "type": "address"
        },
        {
          "indexed": true,
          "internalType": "uint256",
          "name": "tokenId",
          "type": "uint256"
        }
      ],
      "name": "Approval",
      "type": "event"
    },
    {
      "anonymous": false,
      "inputs": [
        {
          "indexed": true,
          "internalType": "address",
          "name": "owner",
          "type": "address"
        },
        {
          "indexed": true,
          "internalType": "address",
          "name": "operator",
          "type": "address"
        },
        {
          "indexed": false,
          "internalType": "bool",
          "name": "approved",
          "type": "bool"
        }
      ],
      "name": "ApprovalForAll",
      "type": "event"
    },
    {
      "anonymous": false,
      "inputs": [
        {
          "indexed": true,
          "internalType": "address",
          "name": "sender",
          "type": "address"
        },
        {
          "indexed": true,
          "internalType": "uint256",
          "name": "loanId",
          "type": "uint256"
        },
        {
          "indexed": false,
          "internalType": "uint256",
          "name": "amount",
          "type": "uint256"
        },
        {
          "indexed": false,
          "internalType": "address",
          "name": "nftAddress",
          "type": "address"
        },
        {
          "indexed": false,
          "internalType": "uint256",
          "name": "tokenId",
          "type": "uint256"
        }
      ],
      "name": "ClaimNFT",
      "type": "event"
    },
    {
      "anonymous": false,
      "inputs": [
        {
          "indexed": true,
          "internalType": "address",
          "name": "sender",
          "type": "address"
        },
        {
          "indexed": true,
          "internalType": "uint256",
          "name": "loanId",
          "type": "uint256"
        },
        {
          "indexed": false,
          "internalType": "uint256",
          "name": "amount",
          "type": "uint256"
        }
      ],
      "name": "ClaimUnderlyingAsset",
      "type": "event"
    },
    {
      "anonymous": false,
      "inputs": [
        {
          "indexed": true,
          "internalType": "address",
          "name": "sender",
          "type": "address"
        },
        {
          "indexed": true,
          "internalType": "uint256",
          "name": "loanId",
          "type": "uint256"
        },
        {
          "indexed": false,
          "internalType": "uint256",
          "name": "amount",
          "type": "uint256"
        }
      ],
      "name": "Guarantee",
      "type": "event"
    },
    {
      "anonymous": false,
      "inputs": [
        {
          "indexed": true,
          "internalType": "address",
          "name": "from",
          "type": "address"
        },
        {
          "indexed": true,
          "internalType": "address",
          "name": "to",
          "type": "address"
        },
        {
          "indexed": true,
          "internalType": "uint256",
          "name": "tokenId",
          "type": "uint256"
        }
      ],
      "name": "Transfer",
      "type": "event"
    },
    {
      "inputs": [],
      "name": "aaveContract",
      "outputs": [
        {
          "internalType": "contract ILendingPool",
          "name": "",
          "type": "address"
        }
      ],
      "stateMutability": "view",
      "type": "function"
    },
    {
      "inputs": [
        {
          "internalType": "address",
          "name": "to",
          "type": "address"
        },
        {
          "internalType": "uint256",
          "name": "tokenId",
          "type": "uint256"
        }
      ],
      "name": "approve",
      "outputs": [],
      "stateMutability": "nonpayable",
      "type": "function"
    },
    {
      "inputs": [
        {
          "internalType": "address",
          "name": "owner",
          "type": "address"
        }
      ],
      "name": "balanceOf",
      "outputs": [
        {
          "internalType": "uint256",
          "name": "",
          "type": "uint256"
        }
      ],
      "stateMutability": "view",
      "type": "function"
    },
    {
      "inputs": [
        {
          "internalType": "uint256",
          "name": "loanId",
          "type": "uint256"
        }
      ],
      "name": "claimNFT",
      "outputs": [],
      "stateMutability": "nonpayable",
      "type": "function"
    },
    {
      "inputs": [
        {
          "internalType": "uint256",
          "name": "loanId",
          "type": "uint256"
        }
      ],
      "name": "claimUnderlyingAsset",
      "outputs": [],
      "stateMutability": "nonpayable",
      "type": "function"
    },
    {
      "inputs": [
        {
          "internalType": "address[]",
          "name": "assets",
          "type": "address[]"
        },
        {
          "internalType": "uint256[]",
          "name": "amounts",
          "type": "uint256[]"
        },
        {
          "internalType": "uint256[]",
          "name": "premiums",
          "type": "uint256[]"
        },
        {
          "internalType": "address",
          "name": "initiator",
          "type": "address"
        },
        {
          "internalType": "bytes",
          "name": "params",
          "type": "bytes"
        }
      ],
      "name": "executeOperation",
      "outputs": [
        {
          "internalType": "bool",
          "name": "",
          "type": "bool"
        }
      ],
      "stateMutability": "nonpayable",
      "type": "function"
    },
    {
      "inputs": [
        {
          "internalType": "uint256",
          "name": "tokenId",
          "type": "uint256"
        }
      ],
      "name": "getApproved",
      "outputs": [
        {
          "internalType": "address",
          "name": "",
          "type": "address"
        }
      ],
      "stateMutability": "view",
      "type": "function"
    },
    {
      "inputs": [
        {
          "internalType": "uint256",
          "name": "loanId",
          "type": "uint256"
        }
      ],
      "name": "getGuaranteeAmount",
      "outputs": [
        {
          "internalType": "uint256",
          "name": "",
          "type": "uint256"
        }
      ],
      "stateMutability": "view",
      "type": "function"
    },
    {
      "inputs": [
        {
          "internalType": "uint256",
          "name": "loanId",
          "type": "uint256"
        }
      ],
      "name": "getGuarantyAmount",
      "outputs": [
        {
          "internalType": "uint256",
          "name": "",
          "type": "uint256"
        }
      ],
      "stateMutability": "view",
      "type": "function"
    },
    {
      "inputs": [
        {
          "internalType": "uint256",
          "name": "loanId",
          "type": "uint256"
        }
      ],
      "name": "guarantee",
      "outputs": [],
      "stateMutability": "nonpayable",
      "type": "function"
    },
    {
      "inputs": [
        {
          "internalType": "uint256",
          "name": "",
          "type": "uint256"
        }
      ],
      "name": "guarantyAmounts",
      "outputs": [
        {
          "internalType": "uint256",
          "name": "",
          "type": "uint256"
        }
      ],
      "stateMutability": "view",
      "type": "function"
    },
    {
      "inputs": [
        {
          "internalType": "address",
          "name": "owner",
          "type": "address"
        },
        {
          "internalType": "address",
          "name": "operator",
          "type": "address"
        }
      ],
      "name": "isApprovedForAll",
      "outputs": [
        {
          "internalType": "bool",
          "name": "",
          "type": "bool"
        }
      ],
      "stateMutability": "view",
      "type": "function"
    },
    {
      "inputs": [],
      "name": "loanContract",
      "outputs": [
        {
          "internalType": "contract IOpenSkyLoan",
          "name": "",
          "type": "address"
        }
      ],
      "stateMutability": "view",
      "type": "function"
    },
    {
      "inputs": [],
      "name": "name",
      "outputs": [
        {
          "internalType": "string",
          "name": "",
          "type": "string"
        }
      ],
      "stateMutability": "view",
      "type": "function"
    },
    {
      "inputs": [
        {
          "internalType": "address",
          "name": "",
          "type": "address"
        },
        {
          "internalType": "address",
          "name": "",
          "type": "address"
        },
        {
          "internalType": "uint256",
          "name": "",
          "type": "uint256"
        },
        {
          "internalType": "bytes",
          "name": "",
          "type": "bytes"
        }
      ],
      "name": "onERC721Received",
      "outputs": [
        {
          "internalType": "bytes4",
          "name": "",
          "type": "bytes4"
        }
      ],
      "stateMutability": "nonpayable",
      "type": "function"
    },
    {
      "inputs": [
        {
          "internalType": "uint256",
          "name": "tokenId",
          "type": "uint256"
        }
      ],
      "name": "ownerOf",
      "outputs": [
        {
          "internalType": "address",
          "name": "",
          "type": "address"
        }
      ],
      "stateMutability": "view",
      "type": "function"
    },
    {
      "inputs": [],
      "name": "poolContract",
      "outputs": [
        {
          "internalType": "contract IOpenSkyPool",
          "name": "",
          "type": "address"
        }
      ],
      "stateMutability": "view",
      "type": "function"
    },
    {
      "inputs": [
        {
          "internalType": "address",
          "name": "from",
          "type": "address"
        },
        {
          "internalType": "address",
          "name": "to",
          "type": "address"
        },
        {
          "internalType": "uint256",
          "name": "tokenId",
          "type": "uint256"
        }
      ],
      "name": "safeTransferFrom",
      "outputs": [],
      "stateMutability": "nonpayable",
      "type": "function"
    },
    {
      "inputs": [
        {
          "internalType": "address",
          "name": "from",
          "type": "address"
        },
        {
          "internalType": "address",
          "name": "to",
          "type": "address"
        },
        {
          "internalType": "uint256",
          "name": "tokenId",
          "type": "uint256"
        },
        {
          "internalType": "bytes",
          "name": "_data",
          "type": "bytes"
        }
      ],
      "name": "safeTransferFrom",
      "outputs": [],
      "stateMutability": "nonpayable",
      "type": "function"
    },
    {
      "inputs": [
        {
          "internalType": "address",
          "name": "operator",
          "type": "address"
        },
        {
          "internalType": "bool",
          "name": "approved",
          "type": "bool"
        }
      ],
      "name": "setApprovalForAll",
      "outputs": [],
      "stateMutability": "nonpayable",
      "type": "function"
    },
    {
      "inputs": [],
      "name": "settingsContract",
      "outputs": [
        {
          "internalType": "contract IOpenSkySettings",
          "name": "",
          "type": "address"
        }
      ],
      "stateMutability": "view",
      "type": "function"
    },
    {
      "inputs": [
        {
          "internalType": "bytes4",
          "name": "interfaceId",
          "type": "bytes4"
        }
      ],
      "name": "supportsInterface",
      "outputs": [
        {
          "internalType": "bool",
          "name": "",
          "type": "bool"
        }
      ],
      "stateMutability": "view",
      "type": "function"
    },
    {
      "inputs": [],
      "name": "symbol",
      "outputs": [
        {
          "internalType": "string",
          "name": "",
          "type": "string"
        }
      ],
      "stateMutability": "view",
      "type": "function"
    },
    {
      "inputs": [
        {
          "internalType": "uint256",
          "name": "tokenId",
          "type": "uint256"
        }
      ],
      "name": "tokenURI",
      "outputs": [
        {
          "internalType": "string",
          "name": "",
          "type": "string"
        }
      ],
      "stateMutability": "view",
      "type": "function"
    },
    {
      "inputs": [
        {
          "internalType": "address",
          "name": "from",
          "type": "address"
        },
        {
          "internalType": "address",
          "name": "to",
          "type": "address"
        },
        {
          "internalType": "uint256",
          "name": "tokenId",
          "type": "uint256"
        }
      ],
      "name": "transferFrom",
      "outputs": [],
      "stateMutability": "nonpayable",
      "type": "function"
    },
    {
      "inputs": [],
      "name": "underlyingAssetContract",
      "outputs": [
        {
          "internalType": "contract IERC20",
          "name": "",
          "type": "address"
        }
      ],
      "stateMutability": "view",
      "type": "function"
    }
  ],
  "transactionHash": "0x78b94a4bbc85bd282953f0e87be7d964693d9ccbd74d0090cd311c0bdcf8f3c6",
  "args": [
    "0x90499A6848275e03E8De6608980F4e7d32fbaF6F",
    "0x368EedF3f56ad10b9bC57eed4Dac65B26Bb667f6",
    "0xC53675Ae357Ce1709edB25f09c7b5Ac1E4e9F29e"
  ],
  "solcInputHash": "1adce8eb00e8fa6c1093f903640415a9",
  "bytecode": "0x6101206040523480156200001257600080fd5b506040516200353b3803806200353b833981016040819052620000359162000277565b60408051808201825260128152714f70656e536b792047756172616e7469657360701b6020808301918252835180850190945260098452684755524154414e545960b81b9084015281519192916200009091600091620001b8565b508051620000a6906001906020840190620001b8565b5050506001600160a01b038316608081905260408051631ade434560e11b815290516335bc868a916004808201926020929091908290030181865afa158015620000f4573d6000803e3d6000fd5b505050506040513d601f19601f820116820180604052508101906200011a9190620002cb565b6001600160a01b031660c0816001600160a01b031681525050826001600160a01b0316631755ff216040518163ffffffff1660e01b8152600401602060405180830381865afa15801562000172573d6000803e3d6000fd5b505050506040513d601f19601f82011682018060405250810190620001989190620002cb565b6001600160a01b0390811660a05291821660e0521661010052506200032f565b828054620001c690620002f2565b90600052602060002090601f016020900481019282620001ea576000855562000235565b82601f106200020557805160ff191683800117855562000235565b8280016001018555821562000235579182015b828111156200023557825182559160200191906001019062000218565b506200024392915062000247565b5090565b5b8082111562000243576000815560010162000248565b6001600160a01b03811681146200027457600080fd5b50565b6000806000606084860312156200028d57600080fd5b83516200029a816200025e565b6020850151909350620002ad816200025e565b6040850151909250620002c0816200025e565b809150509250925092565b600060208284031215620002de57600080fd5b8151620002eb816200025e565b9392505050565b600181811c908216806200030757607f821691505b602082108114156200032957634e487b7160e01b600052602260045260246000fd5b50919050565b60805160a05160c05160e0516101005161313462000407600039600081816104040152818161081a015261093601526000818161038901528181610bfa01528181610d110152818161146501526124150152600081816102bc01528181610754015281816109d8015281816110380152818161138d01528181611c400152611cd8015260008181610362015281816110c501528181611153015281816111ff015281816112ae01528181611d6201528181611deb01528181611e2d0152611ecb01526000818161026f0152611f6601526131346000f3fe608060405234801561001057600080fd5b506004361061018e5760003560e01c80636352211e116100de57806395d89b4111610097578063c87b56dd11610071578063c87b56dd146103ec578063e498f1ea146103ff578063e985e9c514610426578063fe5c873a1461043957600080fd5b806395d89b41146103be578063a22cb465146103c6578063b88d4fde146103d957600080fd5b80636352211e1461031757806370a082311461032a5780637d3066801461033d57806388d52ef71461035d5780638e33f77614610384578063920f5c84146103ab57600080fd5b80631a05edb91161014b578063253f284b11610125578063253f284b146102b75780632b56d95c146102de57806342842e0e146102f15780634a4fc3e81461030457600080fd5b80631a05edb91461026a5780631ee031711461029157806323b872dd146102a457600080fd5b806301ffc9a714610193578063046d8422146101bb57806306fdde03146101e9578063081812fc146101fe578063095ea7b314610229578063150b7a021461023e575b600080fd5b6101a66101a13660046126cf565b61044c565b60405190151581526020015b60405180910390f35b6101db6101c93660046126ec565b60009081526006602052604090205490565b6040519081526020016101b2565b6101f161049e565b6040516101b2919061275d565b61021161020c3660046126ec565b610530565b6040516001600160a01b0390911681526020016101b2565b61023c610237366004612785565b6105ca565b005b61025161024c366004612846565b6106e0565b6040516001600160e01b031990911681526020016101b2565b6102117f000000000000000000000000000000000000000000000000000000000000000081565b61023c61029f3660046126ec565b6106f1565b61023c6102b236600461290a565b6108d8565b6102117f000000000000000000000000000000000000000000000000000000000000000081565b61023c6102ec3660046126ec565b610909565b61023c6102ff36600461290a565b61099a565b6101db6103123660046126ec565b6109b5565b6102116103253660046126ec565b610af8565b6101db61033836600461294b565b610b6f565b6101db61034b3660046126ec565b60066020526000908152604090205481565b6102117f000000000000000000000000000000000000000000000000000000000000000081565b6102117f000000000000000000000000000000000000000000000000000000000000000081565b6101a66103b93660046129b4565b610bf6565b6101f1610db7565b61023c6103d4366004612ac7565b610dc6565b61023c6103e7366004612846565b610e84565b6101f16103fa3660046126ec565b610ebc565b6102117f000000000000000000000000000000000000000000000000000000000000000081565b6101a6610434366004612b00565b610fa4565b61023c6104473660046126ec565b610fd2565b60006001600160e01b031982166380ac58cd60e01b148061047d57506001600160e01b03198216635b5e139f60e01b145b8061049857506301ffc9a760e01b6001600160e01b03198316145b92915050565b6060600080546104ad90612b2e565b80601f01602080910402602001604051908101604052809291908181526020018280546104d990612b2e565b80156105265780601f106104fb57610100808354040283529160200191610526565b820191906000526020600020905b81548152906001019060200180831161050957829003601f168201915b5050505050905090565b6000818152600260205260408120546001600160a01b03166105ae5760405162461bcd60e51b815260206004820152602c60248201527f4552433732313a20617070726f76656420717565727920666f72206e6f6e657860448201526b34b9ba32b73a103a37b5b2b760a11b60648201526084015b60405180910390fd5b506000908152600460205260409020546001600160a01b031690565b60006105d582610af8565b9050806001600160a01b0316836001600160a01b031614156106435760405162461bcd60e51b815260206004820152602160248201527f4552433732313a20617070726f76616c20746f2063757272656e74206f776e656044820152603960f91b60648201526084016105a5565b336001600160a01b038216148061065f575061065f8133610fa4565b6106d15760405162461bcd60e51b815260206004820152603860248201527f4552433732313a20617070726f76652063616c6c6572206973206e6f74206f7760448201527f6e6572206e6f7220617070726f76656420666f7220616c6c000000000000000060648201526084016105a5565b6106db8383611567565b505050565b630a85bd0160e11b5b949350505050565b336106fb82610af8565b6001600160a01b03161461073e5760405162461bcd60e51b815260206004820152600a60248201526927a7262cafa7aba722a960b11b60448201526064016105a5565b60405163622fe39f60e01b8152600481018290527f00000000000000000000000000000000000000000000000000000000000000006001600160a01b03169063622fe39f906024016101c060405180830381865afa9250505080156107c0575060408051601f3d908101601f191682019092526107bd91810190612baf565b60015b61088d573d8080156107ee576040519150601f19603f3d011682016040523d82523d6000602084013e6107f3565b606091505b506107fd826115d5565b610841336000848152600660205260409020546001600160a01b037f0000000000000000000000000000000000000000000000000000000000000000169190611670565b600082815260066020908152604091829020549151918252839133917f7c5becb68b5b8574de4090875e9ccf22c97beeda6e109aa46cb1ec50dfd4fc2891015b60405180910390a35050565b60405162461bcd60e51b815260206004820152601860248201527f4c4f414e5f4841535f4e4f545f4245454e5f524550414944000000000000000060448201526064016105a5565b50565b6108e233826116d3565b6108fe5760405162461bcd60e51b81526004016105a590612caa565b6106db8383836117a2565b6109133382611942565b600061091e826109b5565b600083815260066020526040902081905590506109667f00000000000000000000000000000000000000000000000000000000000000006001600160a01b0316333084611a84565b604051818152829033907f21567a41aded0880aec937ae6cdfd472a3366090b1f3b3fdb386457693d236eb90602001610881565b6106db83838360405180602001604052806000815250610e84565b60405163622fe39f60e01b81526004810182905260009081906001600160a01b037f0000000000000000000000000000000000000000000000000000000000000000169063622fe39f906024016101c060405180830381865afa158015610a20573d6000803e3d6000fd5b505050506040513d601f19601f82011682018060405250810190610a449190612baf565b90504281610140015164ffffffffff1611610a905760405162461bcd60e51b815260206004820152600c60248201526b1313d05397d111519055531560a21b60448201526064016105a5565b6000610ac58260e00151836101400151610aaa9190612d11565b60c08401516001600160801b03169064ffffffffff16611abc565b8260800151610ad49190612d37565b9050612710610ae4826064612d4f565b610aee9190612d84565b6106e99082612d37565b6000818152600260205260408120546001600160a01b0316806104985760405162461bcd60e51b815260206004820152602960248201527f4552433732313a206f776e657220717565727920666f72206e6f6e657869737460448201526832b73a103a37b5b2b760b91b60648201526084016105a5565b60006001600160a01b038216610bda5760405162461bcd60e51b815260206004820152602a60248201527f4552433732313a2062616c616e636520717565727920666f7220746865207a65604482015269726f206164647265737360b01b60648201526084016105a5565b506001600160a01b031660009081526003602052604090205490565b60007f00000000000000000000000000000000000000000000000000000000000000006001600160a01b03163314610c665760405162461bcd60e51b815260206004820152601360248201527243414c4c45525f4d5553545f42455f4141564560681b60448201526064016105a5565b306001600160a01b03851614610cbe5760405162461bcd60e51b815260206004820152601b60248201527f494e49544941544f525f4d5553545f42455f47554152414e544f52000000000060448201526064016105a5565b6000610cff84848080601f016020809104026020016040519081016040528093929190818152602001838380828437600092019190915250611b7892505050565b9050610d0c816001611c27565b610da67f000000000000000000000000000000000000000000000000000000000000000088886000818110610d4357610d43612d98565b905060200201358b8b6000818110610d5d57610d5d612d98565b90506020020135610d6e9190612d37565b8d8d6000818110610d8157610d81612d98565b9050602002016020810190610d96919061294b565b6001600160a01b03169190612088565b5060019a9950505050505050505050565b6060600180546104ad90612b2e565b6001600160a01b038216331415610e1f5760405162461bcd60e51b815260206004820152601960248201527f4552433732313a20617070726f766520746f2063616c6c65720000000000000060448201526064016105a5565b3360008181526005602090815260408083206001600160a01b03871680855290835292819020805460ff191686151590811790915590519081529192917f17307eab39ab6107e8899845ad3d59bd9653f200f220920489ca2b5937696c319101610881565b610e8e33836116d3565b610eaa5760405162461bcd60e51b81526004016105a590612caa565b610eb68484848461219d565b50505050565b6000818152600260205260409020546060906001600160a01b0316610f3b5760405162461bcd60e51b815260206004820152602f60248201527f4552433732314d657461646174613a2055524920717565727920666f72206e6f60448201526e3732bc34b9ba32b73a103a37b5b2b760891b60648201526084016105a5565b6000610f5260408051602081019091526000815290565b90506000815111610f725760405180602001604052806000815250610f9d565b80610f7c846121d0565b604051602001610f8d929190612dae565b6040516020818303038152906040525b9392505050565b6001600160a01b03918216600090815260056020908152604080832093909416825291909152205460ff1690565b33610fdc82610af8565b6001600160a01b03161461101f5760405162461bcd60e51b815260206004820152600a60248201526927a7262cafa7aba722a960b11b60448201526064016105a5565b60405163622fe39f60e01b8152600481018290526000907f00000000000000000000000000000000000000000000000000000000000000006001600160a01b03169063622fe39f906024016101c060405180830381865afa158015611088573d6000803e3d6000fd5b505050506040513d601f19601f820116820180604052508101906110ac9190612baf565b60405163980a8bd960e01b8152600481018490529091507f00000000000000000000000000000000000000000000000000000000000000006001600160a01b03169063980a8bd990602401600060405180830381600087803b15801561111157600080fd5b505af1158015611125573d6000803e3d6000fd5b505050600083815260066020526040908190205483519151630aad628b60e01b8152600481019290925291507f00000000000000000000000000000000000000000000000000000000000000006001600160a01b031690630aad628b90602401602060405180830381865afa1580156111a2573d6000803e3d6000fd5b505050506040513d601f19601f820116820180604052508101906111c69190612ddd565b1061127357805160008381526006602052604090819020549051630ad58d2f60e01b8152600481019290925260248201523060448201527f00000000000000000000000000000000000000000000000000000000000000006001600160a01b031690630ad58d2f90606401600060405180830381600087803b15801561124b57600080fd5b505af115801561125f573d6000803e3d6000fd5b5050505061126e826000611c27565b6114fa565b60408051600180825281830190925260009160208083019080368337505083516040516391541e0560e01b81526004810191909152919250507f00000000000000000000000000000000000000000000000000000000000000006001600160a01b0316906391541e059060240161018060405180830381865afa1580156112fe573d6000803e3d6000fd5b505050506040513d601f19601f820116820180604052508101906113229190612e01565b602001518160008151811061133957611339612d98565b6001600160a01b03929092166020928302919091019091015260408051600180825281830190925260009181602001602082028036833701905050604051636b52b36560e01b8152600481018690529091507f00000000000000000000000000000000000000000000000000000000000000006001600160a01b031690636b52b36590602401602060405180830381865afa1580156113dc573d6000803e3d6000fd5b505050506040513d601f19601f820116820180604052508101906114009190612ddd565b8160008151811061141357611413612d98565b602090810291909101015260408051600180825281830190925260009181602001602082028036833701905050905060008160008151811061145757611457612d98565b6020026020010181815250507f00000000000000000000000000000000000000000000000000000000000000006001600160a01b031663ab9c4b5d30858585306114a08c6122ce565b60006040518863ffffffff1660e01b81526004016114c49796959493929190612efa565b600060405180830381600087803b1580156114de57600080fd5b505af11580156114f2573d6000803e3d6000fd5b505050505050505b611503826115d5565b60008281526006602090815260409182902054838201518484015184519283526001600160a01b039091169282019290925291820152829033907fb9da4e89ca44f7f94b3b5bc0a5d08dc16bb0f1d0357ca87e221ba39eaffa82fa90606001610881565b600081815260046020526040902080546001600160a01b0319166001600160a01b038416908117909155819061159c82610af8565b6001600160a01b03167f8c5be1e5ebec7d5bd14f71427d1e84f3dd0314c0f7b2291e5b200ac8c7c3b92560405160405180910390a45050565b60006115e082610af8565b90506115ed600083611567565b6001600160a01b0381166000908152600360205260408120805460019290611616908490612fb6565b909155505060008281526002602052604080822080546001600160a01b0319169055518391906001600160a01b038416907fddf252ad1be2c89b69c2b068fc378daa952ba7f163c4a11628f55a4df523b3ef908390a45050565b6040516001600160a01b0383166024820152604481018290526106db90849063a9059cbb60e01b906064015b60408051601f198184030181529190526020810180516001600160e01b03166001600160e01b03199093169290921790915261233c565b6000818152600260205260408120546001600160a01b031661174c5760405162461bcd60e51b815260206004820152602c60248201527f4552433732313a206f70657261746f7220717565727920666f72206e6f6e657860448201526b34b9ba32b73a103a37b5b2b760a11b60648201526084016105a5565b600061175783610af8565b9050806001600160a01b0316846001600160a01b031614806117925750836001600160a01b031661178784610530565b6001600160a01b0316145b806106e957506106e98185610fa4565b826001600160a01b03166117b582610af8565b6001600160a01b03161461181d5760405162461bcd60e51b815260206004820152602960248201527f4552433732313a207472616e73666572206f6620746f6b656e2074686174206960448201526839903737ba1037bbb760b91b60648201526084016105a5565b6001600160a01b03821661187f5760405162461bcd60e51b8152602060048201526024808201527f4552433732313a207472616e7366657220746f20746865207a65726f206164646044820152637265737360e01b60648201526084016105a5565b61188a600082611567565b6001600160a01b03831660009081526003602052604081208054600192906118b3908490612fb6565b90915550506001600160a01b03821660009081526003602052604081208054600192906118e1908490612d37565b909155505060008181526002602052604080822080546001600160a01b0319166001600160a01b0386811691821790925591518493918716917fddf252ad1be2c89b69c2b068fc378daa952ba7f163c4a11628f55a4df523b3ef91a4505050565b6001600160a01b0382166119985760405162461bcd60e51b815260206004820181905260248201527f4552433732313a206d696e7420746f20746865207a65726f206164647265737360448201526064016105a5565b6000818152600260205260409020546001600160a01b0316156119fd5760405162461bcd60e51b815260206004820152601c60248201527f4552433732313a20746f6b656e20616c7265616479206d696e7465640000000060448201526064016105a5565b6001600160a01b0382166000908152600360205260408120805460019290611a26908490612d37565b909155505060008181526002602052604080822080546001600160a01b0319166001600160a01b03861690811790915590518392907fddf252ad1be2c89b69c2b068fc378daa952ba7f163c4a11628f55a4df523b3ef908290a45050565b6040516001600160a01b0380851660248301528316604482015260648101829052610eb69085906323b872dd60e01b9060840161169c565b6000821580611ac9575081155b15611ad657506000610498565b81611aee60026b033b2e3c9fd0803ce8000000612d84565b611afa90600019612fb6565b611b049190612d84565b8311156040518060400160405280600381526020016203130360ec1b81525090611b415760405162461bcd60e51b81526004016105a5919061275d565b506b033b2e3c9fd0803ce8000000611b5a600282612d84565b611b648486612d4f565b611b6e9190612d37565b610f9d9190612d84565b60008151602014611bcb5760405162461bcd60e51b815260206004820152601760248201527f6279746573206c656e677468206973206e6f742033322e00000000000000000060448201526064016105a5565b5060208101516001600160ff1b03811115611c225760405162461bcd60e51b815260206004820152601760248201527656616c75652065786365656473207468652072616e676560481b60448201526064016105a5565b919050565b60405163622fe39f60e01b8152600481018390526000907f00000000000000000000000000000000000000000000000000000000000000006001600160a01b03169063622fe39f906024016101c060405180830381865afa158015611c90573d6000803e3d6000fd5b505050506040513d601f19601f82011682018060405250810190611cb49190612baf565b604051636b52b36560e01b8152600481018590529091506000906001600160a01b037f00000000000000000000000000000000000000000000000000000000000000001690636b52b36590602401602060405180830381865afa158015611d1f573d6000803e3d6000fd5b505050506040513d601f19601f82011682018060405250810190611d439190612ddd565b82516040516391541e0560e01b815260048101919091529091506000907f00000000000000000000000000000000000000000000000000000000000000006001600160a01b0316906391541e059060240161018060405180830381865afa158015611db2573d6000803e3d6000fd5b505050506040513d601f19601f82011682018060405250810190611dd69190612e01565b602001519050611e106001600160a01b0382167f000000000000000000000000000000000000000000000000000000000000000084612088565b6040516376999aeb60e01b815260048101869052602481018390527f00000000000000000000000000000000000000000000000000000000000000006001600160a01b0316906376999aeb90604401600060405180830381600087803b158015611e7957600080fd5b505af1158015611e8d573d6000803e3d6000fd5b505050508315611f3057825160008681526006602052604090819020549051630ad58d2f60e01b8152600481019290925260248201523060448201527f00000000000000000000000000000000000000000000000000000000000000006001600160a01b031690630ad58d2f90606401600060405180830381600087803b158015611f1757600080fd5b505af1158015611f2b573d6000803e3d6000fd5b505050505b600084611f3d5782611f46565b611f468361240e565b600087815260066020526040902054611f5f9190612fb6565b9050611ff77f00000000000000000000000000000000000000000000000000000000000000006001600160a01b031663c5f956af6040518163ffffffff1660e01b8152600401602060405180830381865afa158015611fc2573d6000803e3d6000fd5b505050506040513d601f19601f82011682018060405250810190611fe69190612fcd565b6001600160a01b0384169083611670565b83602001516001600160a01b03166342842e0e3061201489610af8565b60408089015190516001600160e01b031960e086901b1681526001600160a01b0393841660048201529290911660248301526044820152606401600060405180830381600087803b15801561206857600080fd5b505af115801561207c573d6000803e3d6000fd5b50505050505050505050565b8015806121025750604051636eb1769f60e11b81523060048201526001600160a01b03838116602483015284169063dd62ed3e90604401602060405180830381865afa1580156120dc573d6000803e3d6000fd5b505050506040513d601f19601f820116820180604052508101906121009190612ddd565b155b61216d5760405162461bcd60e51b815260206004820152603660248201527f5361666545524332303a20617070726f76652066726f6d206e6f6e2d7a65726f60448201527520746f206e6f6e2d7a65726f20616c6c6f77616e636560501b60648201526084016105a5565b6040516001600160a01b0383166024820152604481018290526106db90849063095ea7b360e01b9060640161169c565b6121a88484846117a2565b6121b4848484846124b3565b610eb65760405162461bcd60e51b81526004016105a590612fea565b6060816121f45750506040805180820190915260018152600360fc1b602082015290565b8160005b811561221e57806122088161303c565b91506122179050600a83612d84565b91506121f8565b60008167ffffffffffffffff811115612239576122396127b1565b6040519080825280601f01601f191660200182016040528015612263576020820181803683370190505b5090505b84156106e957612278600183612fb6565b9150612285600a86613057565b612290906030612d37565b60f81b8183815181106122a5576122a5612d98565b60200101906001600160f81b031916908160001a9053506122c7600a86612d84565b9450612267565b60606001600160ff1b038211156123215760405162461bcd60e51b815260206004820152601760248201527656616c75652065786365656473207468652072616e676560481b60448201526064016105a5565b60405190506020815281602082015260408101604052919050565b6000612391826040518060400160405280602081526020017f5361666545524332303a206c6f772d6c6576656c2063616c6c206661696c6564815250856001600160a01b03166125ae9092919063ffffffff16565b8051909150156106db57808060200190518101906123af919061306b565b6106db5760405162461bcd60e51b815260206004820152602a60248201527f5361666545524332303a204552433230206f7065726174696f6e20646964206e6044820152691bdd081cdd58d8d9595960b21b60648201526084016105a5565b60006127107f00000000000000000000000000000000000000000000000000000000000000006001600160a01b031663074b2e436040518163ffffffff1660e01b8152600401602060405180830381865afa158015612471573d6000803e3d6000fd5b505050506040513d601f19601f820116820180604052508101906124959190612ddd565b61249f9084612d4f565b6124a99190612d84565b6104989083612d37565b60006001600160a01b0384163b156125a657604051630a85bd0160e11b81526001600160a01b0385169063150b7a02906124f7903390899088908890600401613088565b6020604051808303816000875af1925050508015612532575060408051601f3d908101601f1916820190925261252f918101906130c5565b60015b61258c573d808015612560576040519150601f19603f3d011682016040523d82523d6000602084013e612565565b606091505b5080516125845760405162461bcd60e51b81526004016105a590612fea565b805181602001fd5b6001600160e01b031916630a85bd0160e11b1490506106e9565b5060016106e9565b60606106e9848460008585843b6126075760405162461bcd60e51b815260206004820152601d60248201527f416464726573733a2063616c6c20746f206e6f6e2d636f6e747261637400000060448201526064016105a5565b600080866001600160a01b0316858760405161262391906130e2565b60006040518083038185875af1925050503d8060008114612660576040519150601f19603f3d011682016040523d82523d6000602084013e612665565b606091505b5091509150612675828286612680565b979650505050505050565b6060831561268f575081610f9d565b82511561269f5782518084602001fd5b8160405162461bcd60e51b81526004016105a5919061275d565b6001600160e01b0319811681146108d557600080fd5b6000602082840312156126e157600080fd5b8135610f9d816126b9565b6000602082840312156126fe57600080fd5b5035919050565b60005b83811015612720578181015183820152602001612708565b83811115610eb65750506000910152565b60008151808452612749816020860160208601612705565b601f01601f19169290920160200192915050565b602081526000610f9d6020830184612731565b6001600160a01b03811681146108d557600080fd5b6000806040838503121561279857600080fd5b82356127a381612770565b946020939093013593505050565b634e487b7160e01b600052604160045260246000fd5b6040516101c0810167ffffffffffffffff811182821017156127eb576127eb6127b1565b60405290565b604051610180810167ffffffffffffffff811182821017156127eb576127eb6127b1565b604051601f8201601f1916810167ffffffffffffffff8111828210171561283e5761283e6127b1565b604052919050565b6000806000806080858703121561285c57600080fd5b843561286781612770565b935060208581013561287881612770565b935060408601359250606086013567ffffffffffffffff8082111561289c57600080fd5b818801915088601f8301126128b057600080fd5b8135818111156128c2576128c26127b1565b6128d4601f8201601f19168501612815565b915080825289848285010111156128ea57600080fd5b808484018584013760008482840101525080935050505092959194509250565b60008060006060848603121561291f57600080fd5b833561292a81612770565b9250602084013561293a81612770565b929592945050506040919091013590565b60006020828403121561295d57600080fd5b8135610f9d81612770565b60008083601f84011261297a57600080fd5b50813567ffffffffffffffff81111561299257600080fd5b6020830191508360208260051b85010111156129ad57600080fd5b9250929050565b600080600080600080600080600060a08a8c0312156129d257600080fd5b893567ffffffffffffffff808211156129ea57600080fd5b6129f68d838e01612968565b909b50995060208c0135915080821115612a0f57600080fd5b612a1b8d838e01612968565b909950975060408c0135915080821115612a3457600080fd5b612a408d838e01612968565b909750955060608c01359150612a5582612770565b90935060808b01359080821115612a6b57600080fd5b818c0191508c601f830112612a7f57600080fd5b813581811115612a8e57600080fd5b8d6020828501011115612aa057600080fd5b6020830194508093505050509295985092959850929598565b80151581146108d557600080fd5b60008060408385031215612ada57600080fd5b8235612ae581612770565b91506020830135612af581612ab9565b809150509250929050565b60008060408385031215612b1357600080fd5b8235612b1e81612770565b91506020830135612af581612770565b600181811c90821680612b4257607f821691505b60208210811415612b6357634e487b7160e01b600052602260045260246000fd5b50919050565b8051611c2281612770565b80516001600160801b0381168114611c2257600080fd5b805164ffffffffff81168114611c2257600080fd5b805160068110611c2257600080fd5b60006101c08284031215612bc257600080fd5b612bca6127c7565b82518152612bda60208401612b69565b602082015260408301516040820152612bf560608401612b69565b606082015260808301516080820152612c1060a08401612b74565b60a0820152612c2160c08401612b74565b60c0820152612c3260e08401612b8b565b60e0820152610100612c45818501612b8b565b90820152610120612c57848201612b8b565b90820152610140612c69848201612b8b565b90820152610160612c7b848201612b8b565b90820152610180612c8d848201612b8b565b908201526101a0612c9f848201612ba0565b908201529392505050565b60208082526031908201527f4552433732313a207472616e736665722063616c6c6572206973206e6f74206f6040820152701ddb995c881b9bdc88185c1c1c9bdd9959607a1b606082015260800190565b634e487b7160e01b600052601160045260246000fd5b600064ffffffffff83811690831681811015612d2f57612d2f612cfb565b039392505050565b60008219821115612d4a57612d4a612cfb565b500190565b6000816000190483118215151615612d6957612d69612cfb565b500290565b634e487b7160e01b600052601260045260246000fd5b600082612d9357612d93612d6e565b500490565b634e487b7160e01b600052603260045260246000fd5b60008351612dc0818460208801612705565b835190830190612dd4818360208801612705565b01949350505050565b600060208284031215612def57600080fd5b5051919050565b8051611c2281612ab9565b60006101808284031215612e1457600080fd5b612e1c6127f1565b82518152612e2c60208401612b69565b6020820152612e3d60408401612b69565b6040820152612e4e60608401612b69565b6060820152612e5f60808401612b74565b608082015260a083015160a082015260c083015160c0820152612e8460e08401612b8b565b60e08201526101008381015190820152610120612ea2818501612b69565b908201526101408381015190820152610160612c9f818501612df6565b600081518084526020808501945080840160005b83811015612eef57815187529582019590820190600101612ed3565b509495945050505050565b6001600160a01b03888116825260e0602080840182905289519184018290526000928a820192909190610100860190855b81811015612f49578551851683529483019491830191600101612f2b565b50508581036040870152612f5d818c612ebf565b93505050508281036060840152612f748188612ebf565b6001600160a01b0387166080850152905082810360a0840152612f978186612731565b915050612faa60c083018461ffff169052565b98975050505050505050565b600082821015612fc857612fc8612cfb565b500390565b600060208284031215612fdf57600080fd5b8151610f9d81612770565b60208082526032908201527f4552433732313a207472616e7366657220746f206e6f6e20455243373231526560408201527131b2b4bb32b91034b6b83632b6b2b73a32b960711b606082015260800190565b600060001982141561305057613050612cfb565b5060010190565b60008261306657613066612d6e565b500690565b60006020828403121561307d57600080fd5b8151610f9d81612ab9565b6001600160a01b03858116825284166020820152604081018390526080606082018190526000906130bb90830184612731565b9695505050505050565b6000602082840312156130d757600080fd5b8151610f9d816126b9565b600082516130f4818460208701612705565b919091019291505056fea2646970667358221220d5babf350df3bc0b9e92bc1d4e43a9bec5d4da94ec840a8ee3b80a1a4e34cb2a64736f6c634300080a0033",
  "libraries": {
    "DataTypes": "0xaF81f17aCE5B5434Ad4332697FbD794c9F4E2ed8",
    "MathUtils": "0x6E79f2994Ad1a8eF022da72Cf9E2ae9D29710830"
  },
  "devdoc": {
    "kind": "dev",
    "methods": {
      "approve(address,uint256)": {
        "details": "See {IERC721-approve}."
      },
      "balanceOf(address)": {
        "details": "See {IERC721-balanceOf}."
      },
      "getApproved(uint256)": {
        "details": "See {IERC721-getApproved}."
      },
      "isApprovedForAll(address,address)": {
        "details": "See {IERC721-isApprovedForAll}."
      },
      "name()": {
        "details": "See {IERC721Metadata-name}."
      },
      "onERC721Received(address,address,uint256,bytes)": {
        "details": "See {IERC721Receiver-onERC721Received}. Always returns `IERC721Receiver.onERC721Received.selector`."
      },
      "ownerOf(uint256)": {
        "details": "See {IERC721-ownerOf}."
      },
      "safeTransferFrom(address,address,uint256)": {
        "details": "See {IERC721-safeTransferFrom}."
      },
      "safeTransferFrom(address,address,uint256,bytes)": {
        "details": "See {IERC721-safeTransferFrom}."
      },
      "setApprovalForAll(address,bool)": {
        "details": "See {IERC721-setApprovalForAll}."
      },
      "supportsInterface(bytes4)": {
        "details": "See {IERC165-supportsInterface}."
      },
      "symbol()": {
        "details": "See {IERC721Metadata-symbol}."
      },
      "tokenURI(uint256)": {
        "details": "See {IERC721Metadata-tokenURI}."
      },
      "transferFrom(address,address,uint256)": {
        "details": "See {IERC721-transferFrom}."
      }
    },
    "version": 1
  },
  "userdoc": {
    "kind": "user",
    "methods": {},
    "version": 1
  },
  "storageLayout": {
    "storage": [
      {
        "astId": 4564,
        "contract": "contracts/liquidation/OpenSkyGuarantor.sol:OpenSkyGuarantor",
        "label": "_name",
        "offset": 0,
        "slot": "0",
        "type": "t_string_storage"
      },
      {
        "astId": 4566,
        "contract": "contracts/liquidation/OpenSkyGuarantor.sol:OpenSkyGuarantor",
        "label": "_symbol",
        "offset": 0,
        "slot": "1",
        "type": "t_string_storage"
      },
      {
        "astId": 4570,
        "contract": "contracts/liquidation/OpenSkyGuarantor.sol:OpenSkyGuarantor",
        "label": "_owners",
        "offset": 0,
        "slot": "2",
        "type": "t_mapping(t_uint256,t_address)"
      },
      {
        "astId": 4574,
        "contract": "contracts/liquidation/OpenSkyGuarantor.sol:OpenSkyGuarantor",
        "label": "_balances",
        "offset": 0,
        "slot": "3",
        "type": "t_mapping(t_address,t_uint256)"
      },
      {
        "astId": 4578,
        "contract": "contracts/liquidation/OpenSkyGuarantor.sol:OpenSkyGuarantor",
        "label": "_tokenApprovals",
        "offset": 0,
        "slot": "4",
        "type": "t_mapping(t_uint256,t_address)"
      },
      {
        "astId": 4584,
        "contract": "contracts/liquidation/OpenSkyGuarantor.sol:OpenSkyGuarantor",
        "label": "_operatorApprovals",
        "offset": 0,
        "slot": "5",
        "type": "t_mapping(t_address,t_mapping(t_address,t_bool))"
      },
      {
        "astId": 22968,
        "contract": "contracts/liquidation/OpenSkyGuarantor.sol:OpenSkyGuarantor",
        "label": "guarantyAmounts",
        "offset": 0,
        "slot": "6",
        "type": "t_mapping(t_uint256,t_uint256)"
      }
    ],
    "types": {
      "t_address": {
        "encoding": "inplace",
        "label": "address",
        "numberOfBytes": "20"
      },
      "t_bool": {
        "encoding": "inplace",
        "label": "bool",
        "numberOfBytes": "1"
      },
      "t_mapping(t_address,t_bool)": {
        "encoding": "mapping",
        "key": "t_address",
        "label": "mapping(address => bool)",
        "numberOfBytes": "32",
        "value": "t_bool"
      },
      "t_mapping(t_address,t_mapping(t_address,t_bool))": {
        "encoding": "mapping",
        "key": "t_address",
        "label": "mapping(address => mapping(address => bool))",
        "numberOfBytes": "32",
        "value": "t_mapping(t_address,t_bool)"
      },
      "t_mapping(t_address,t_uint256)": {
        "encoding": "mapping",
        "key": "t_address",
        "label": "mapping(address => uint256)",
        "numberOfBytes": "32",
        "value": "t_uint256"
      },
      "t_mapping(t_uint256,t_address)": {
        "encoding": "mapping",
        "key": "t_uint256",
        "label": "mapping(uint256 => address)",
        "numberOfBytes": "32",
        "value": "t_address"
      },
      "t_mapping(t_uint256,t_uint256)": {
        "encoding": "mapping",
        "key": "t_uint256",
        "label": "mapping(uint256 => uint256)",
        "numberOfBytes": "32",
        "value": "t_uint256"
      },
      "t_string_storage": {
        "encoding": "bytes",
        "label": "string",
        "numberOfBytes": "32"
      },
      "t_uint256": {
        "encoding": "inplace",
        "label": "uint256",
        "numberOfBytes": "32"
      }
    }
  }
}