{
  "address": "0x941d1C8fc08b49fedFCD2eC219c0ca547fEcF01A",
  "abi": [
    {
      "inputs": [
        {
          "internalType": "contract IWETH",
          "name": "weth",
          "type": "address"
        },
        {
          "internalType": "contract IOpenSkySettings",
          "name": "settings",
          "type": "address"
        }
      ],
      "stateMutability": "nonpayable",
      "type": "constructor"
    },
    {
      "anonymous": false,
      "inputs": [
        {
          "indexed": true,
          "internalType": "address",
          "name": "sender",
          "type": "address"
        },
        {
          "indexed": true,
          "internalType": "address",
          "name": "nftAddress",
          "type": "address"
        },
        {
          "indexed": true,
          "internalType": "uint256",
          "name": "tokenId",
          "type": "uint256"
        }
      ],
      "name": "ClaimNFT",
      "type": "event"
    },
    {
      "anonymous": false,
      "inputs": [
        {
          "indexed": true,
          "internalType": "address",
          "name": "sender",
          "type": "address"
        },
        {
          "indexed": true,
          "internalType": "address",
          "name": "delegator",
          "type": "address"
        },
        {
          "indexed": true,
          "internalType": "uint256",
          "name": "loanId",
          "type": "uint256"
        }
      ],
      "name": "Delegate",
      "type": "event"
    },
    {
      "anonymous": false,
      "inputs": [
        {
          "indexed": true,
          "internalType": "address",
          "name": "sender",
          "type": "address"
        },
        {
          "indexed": true,
          "internalType": "uint256",
          "name": "loanId",
          "type": "uint256"
        },
        {
          "indexed": true,
          "internalType": "address",
          "name": "underlyingAsset",
          "type": "address"
        },
        {
          "indexed": false,
          "internalType": "uint256",
          "name": "amount",
          "type": "uint256"
        },
        {
          "indexed": false,
          "internalType": "uint256",
          "name": "duration",
          "type": "uint256"
        }
      ],
      "name": "Extend",
      "type": "event"
    },
    {
      "anonymous": false,
      "inputs": [
        {
          "indexed": true,
          "internalType": "address",
          "name": "sender",
          "type": "address"
        },
        {
          "indexed": true,
          "internalType": "uint256",
          "name": "loanId",
          "type": "uint256"
        },
        {
          "indexed": false,
          "internalType": "uint256",
          "name": "amount",
          "type": "uint256"
        },
        {
          "indexed": false,
          "internalType": "uint256",
          "name": "duration",
          "type": "uint256"
        }
      ],
      "name": "ExtendETH",
      "type": "event"
    },
    {
      "anonymous": false,
      "inputs": [
        {
          "indexed": true,
          "internalType": "address",
          "name": "sender",
          "type": "address"
        },
        {
          "indexed": false,
          "internalType": "uint256",
          "name": "amount",
          "type": "uint256"
        }
      ],
      "name": "Received",
      "type": "event"
    },
    {
      "anonymous": false,
      "inputs": [
        {
          "indexed": true,
          "internalType": "address",
          "name": "sender",
          "type": "address"
        },
        {
          "indexed": true,
          "internalType": "uint256",
          "name": "loanId",
          "type": "uint256"
        },
        {
          "indexed": true,
          "internalType": "address",
          "name": "underlyingAsset",
          "type": "address"
        },
        {
          "indexed": false,
          "internalType": "uint256",
          "name": "amount",
          "type": "uint256"
        }
      ],
      "name": "Repay",
      "type": "event"
    },
    {
      "anonymous": false,
      "inputs": [
        {
          "indexed": true,
          "internalType": "address",
          "name": "sender",
          "type": "address"
        },
        {
          "indexed": true,
          "internalType": "uint256",
          "name": "loanId",
          "type": "uint256"
        },
        {
          "indexed": false,
          "internalType": "uint256",
          "name": "amount",
          "type": "uint256"
        }
      ],
      "name": "RepayETH",
      "type": "event"
    },
    {
      "inputs": [],
      "name": "SETTINGS",
      "outputs": [
        {
          "internalType": "contract IOpenSkySettings",
          "name": "",
          "type": "address"
        }
      ],
      "stateMutability": "view",
      "type": "function"
    },
    {
      "inputs": [],
      "name": "WETH",
      "outputs": [
        {
          "internalType": "contract IWETH",
          "name": "",
          "type": "address"
        }
      ],
      "stateMutability": "view",
      "type": "function"
    },
    {
      "inputs": [
        {
          "internalType": "address",
          "name": "nftAddress",
          "type": "address"
        },
        {
          "internalType": "uint256",
          "name": "tokenId",
          "type": "uint256"
        }
      ],
      "name": "claimNFT",
      "outputs": [],
      "stateMutability": "nonpayable",
      "type": "function"
    },
    {
      "inputs": [
        {
          "internalType": "address",
          "name": "delegator",
          "type": "address"
        },
        {
          "internalType": "uint256",
          "name": "loanId",
          "type": "uint256"
        }
      ],
      "name": "delegate",
      "outputs": [],
      "stateMutability": "nonpayable",
      "type": "function"
    },
    {
      "inputs": [
        {
          "internalType": "address",
          "name": "",
          "type": "address"
        },
        {
          "internalType": "address",
          "name": "",
          "type": "address"
        },
        {
          "internalType": "uint256",
          "name": "",
          "type": "uint256"
        }
      ],
      "name": "delegators",
      "outputs": [
        {
          "internalType": "address",
          "name": "",
          "type": "address"
        }
      ],
      "stateMutability": "view",
      "type": "function"
    },
    {
      "inputs": [
        {
          "internalType": "uint256",
          "name": "loanId",
          "type": "uint256"
        },
        {
          "internalType": "uint256",
          "name": "extendAmount",
          "type": "uint256"
        },
        {
          "internalType": "uint256",
          "name": "duration",
          "type": "uint256"
        },
        {
          "internalType": "uint256",
          "name": "amount",
          "type": "uint256"
        }
      ],
      "name": "extend",
      "outputs": [],
      "stateMutability": "nonpayable",
      "type": "function"
    },
    {
      "inputs": [
        {
          "internalType": "uint256",
          "name": "loanId",
          "type": "uint256"
        },
        {
          "internalType": "uint256",
          "name": "amount",
          "type": "uint256"
        },
        {
          "internalType": "uint256",
          "name": "duration",
          "type": "uint256"
        }
      ],
      "name": "extendETH",
      "outputs": [],
      "stateMutability": "payable",
      "type": "function"
    },
    {
      "inputs": [
        {
          "internalType": "address",
          "name": "owner",
          "type": "address"
        },
        {
          "internalType": "address",
          "name": "nftAddress",
          "type": "address"
        },
        {
          "internalType": "uint256",
          "name": "tokenId",
          "type": "uint256"
        }
      ],
      "name": "getDelegator",
      "outputs": [
        {
          "internalType": "address",
          "name": "",
          "type": "address"
        }
      ],
      "stateMutability": "view",
      "type": "function"
    },
    {
      "inputs": [
        {
          "internalType": "address",
          "name": "nftAddress",
          "type": "address"
        },
        {
          "internalType": "uint256",
          "name": "tokenId",
          "type": "uint256"
        }
      ],
      "name": "getLoanOwner",
      "outputs": [
        {
          "internalType": "address",
          "name": "",
          "type": "address"
        }
      ],
      "stateMutability": "view",
      "type": "function"
    },
    {
      "inputs": [
        {
          "internalType": "address",
          "name": "",
          "type": "address"
        },
        {
          "internalType": "uint256",
          "name": "",
          "type": "uint256"
        }
      ],
      "name": "loanOwners",
      "outputs": [
        {
          "internalType": "address",
          "name": "",
          "type": "address"
        }
      ],
      "stateMutability": "view",
      "type": "function"
    },
    {
      "inputs": [
        {
          "internalType": "address",
          "name": "",
          "type": "address"
        },
        {
          "internalType": "address",
          "name": "",
          "type": "address"
        },
        {
          "internalType": "uint256",
          "name": "",
          "type": "uint256"
        },
        {
          "internalType": "bytes",
          "name": "",
          "type": "bytes"
        }
      ],
      "name": "onERC721Received",
      "outputs": [
        {
          "internalType": "bytes4",
          "name": "",
          "type": "bytes4"
        }
      ],
      "stateMutability": "nonpayable",
      "type": "function"
    },
    {
      "inputs": [
        {
          "internalType": "uint256",
          "name": "loanId",
          "type": "uint256"
        },
        {
          "internalType": "uint256",
          "name": "amount",
          "type": "uint256"
        }
      ],
      "name": "repay",
      "outputs": [],
      "stateMutability": "nonpayable",
      "type": "function"
    },
    {
      "inputs": [
        {
          "internalType": "uint256",
          "name": "loanId",
          "type": "uint256"
        }
      ],
      "name": "repayETH",
      "outputs": [],
      "stateMutability": "payable",
      "type": "function"
    },
    {
      "stateMutability": "payable",
      "type": "receive"
    }
  ],
  "transactionHash": "0x938a29ecd0d12c3c7d28453c2f5f7eee867689ff3b4e1f2c8da5b2bca179506f",
  "args": [
    "0x2e3a2fb8473316a02b8a297b982498e661e1f6f5",
    "0x632dF1254955449dAf2D1c1554D4A064929d3AD0"
  ],
  "solcInputHash": "5cd2f93d32687628fe2ee849fdf1411a",
  "bytecode": "0x60806040523480156200001157600080fd5b50604051620029dc380380620029dc83398101604081905262000034916200007f565b600080546001600160a01b039384166001600160a01b03199182161790915560018054929093169116179055620000be565b6001600160a01b03811681146200007c57600080fd5b50565b600080604083850312156200009357600080fd5b8251620000a08162000066565b6020840151909250620000b38162000066565b809150509250929050565b61290e80620000ce6000396000f3fe6080604052600436106100c65760003560e01c806374c289d61161007f578063bfe6fe6911610059578063bfe6fe69146102a5578063d88b2f49146102ec578063d8aed1451461032d578063dc0b560e1461034d57600080fd5b806374c289d61461022d578063ad5c464814610265578063ade97ab51461028557600080fd5b8063026e402b1461015c5780630801ad261461017e578063150b7a021461019e5780632247463e146101e757806333a10cc1146101fa57806371b5458f1461021a57600080fd5b36610157576000546001600160a01b031633146101205760405162461bcd60e51b8152602060048201526013602482015272149150d152559157d393d517d0531313d5d151606a1b60448201526064015b60405180910390fd5b60405134815233907f88a5966d370b9919b20f3e2c13ff65706f196a4e32cc2c12bf57088f885258749060200160405180910390a2005b600080fd5b34801561016857600080fd5b5061017c6101773660046122ec565b61036d565b005b34801561018a57600080fd5b5061017c610199366004612318565b6103d0565b3480156101aa57600080fd5b506101c96101b93660046123df565b630a85bd0160e11b949350505050565b6040516001600160e01b031990911681526020015b60405180910390f35b61017c6101f53660046124a3565b61082f565b34801561020657600080fd5b5061017c6102153660046122ec565b610d85565b61017c6102283660046124bc565b610ea6565b34801561023957600080fd5b5061024d6102483660046124e8565b611399565b6040516001600160a01b0390911681526020016101de565b34801561027157600080fd5b5060005461024d906001600160a01b031681565b34801561029157600080fd5b5060015461024d906001600160a01b031681565b3480156102b157600080fd5b5061024d6102c03660046124e8565b60026020908152600093845260408085208252928452828420905282529020546001600160a01b031681565b3480156102f857600080fd5b5061024d6103073660046122ec565b60036020908152600092835260408084209091529082529020546001600160a01b031681565b34801561033957600080fd5b5061017c610348366004612529565b6113d1565b34801561035957600080fd5b5061024d6103683660046122ec565b611917565b6001600160a01b0382161561038b57610386828261193f565b610394565b61039481611c9f565b60405181906001600160a01b0384169033907f510b11bb3f3c799b11307c01ab7db0d335683ef5b2da98f7697de744f465eacc90600090a45050565b60015460408051631ade434560e11b815290516000926001600160a01b0316916335bc868a9160048083019260209291908290030181865afa15801561041a573d6000803e3d6000fd5b505050506040513d601f19601f8201168201806040525081019061043e919061255b565b60405163622fe39f60e01b8152600481018790529091506000906001600160a01b0383169063622fe39f906024016101c060405180830381865afa15801561048a573d6000803e3d6000fd5b505050506040513d601f19601f820116820180604052508101906104ae91906125bc565b90506104c33382602001518360400151611ea9565b6104df5760405162461bcd60e51b8152600401610117906126b7565b60015460408051631755ff2160e01b815290516000926001600160a01b031691631755ff219160048083019260209291908290030181865afa158015610529573d6000803e3d6000fd5b505050506040513d601f19601f8201168201806040525081019061054d919061255b565b82516040516391541e0560e01b815260048101919091529091506000906001600160a01b038316906391541e059060240161018060405180830381865afa15801561059c573d6000803e3d6000fd5b505050506040513d601f19601f820116820180604052508101906105c091906126fe565b905084156106df5760208101516105e2906001600160a01b0316333088611efc565b80602001516001600160a01b031663095ea7b3600160009054906101000a90046001600160a01b03166001600160a01b0316631755ff216040518163ffffffff1660e01b8152600401602060405180830381865afa158015610648573d6000803e3d6000fd5b505050506040513d601f19601f8201168201806040525081019061066c919061255b565b6040516001600160e01b031960e084901b1681526001600160a01b039091166004820152602481018890526044016020604051808303816000875af11580156106b9573d6000803e3d6000fd5b505050506040513d601f19601f820116820180604052508101906106dd91906127bc565b505b6040516333889f7b60e11b815260048101899052602481018890526044810187905230606482015260009081906001600160a01b038516906367113ef69060840160408051808303816000875af115801561073e573d6000803e3d6000fd5b505050506040513d601f19601f8201168201806040525081019061076291906127d7565b915091508187111561079857600061077a83896127fb565b6020850151909150610796906001600160a01b03163383611f5a565b505b80156107c8576107c86107b386602001518760400151611917565b60208501516001600160a01b03169083611f5a565b82602001516001600160a01b03168a336001600160a01b03167f37124af7165421ab05693953cb6648e87ed0941a9f90f1e4c6df248e57ea605d8a8c60405161081b929190918252602082015260400190565b60405180910390a450505050505050505050565b60015460408051631ade434560e11b815290516000926001600160a01b0316916335bc868a9160048083019260209291908290030181865afa158015610879573d6000803e3d6000fd5b505050506040513d601f19601f8201168201806040525081019061089d919061255b565b6001600160a01b031663622fe39f836040518263ffffffff1660e01b81526004016108ca91815260200190565b6101c060405180830381865afa1580156108e8573d6000803e3d6000fd5b505050506040513d601f19601f8201168201806040525081019061090c91906125bc565b905061092081602001518260400151611f8f565b61095b5760405162461bcd60e51b815260206004820152600c60248201526b2727afa222a622a3a0aa27a960a11b6044820152606401610117565b60008054906101000a90046001600160a01b03166001600160a01b031663d0e30db0346040518263ffffffff1660e01b81526004016000604051808303818588803b1580156109a957600080fd5b505af11580156109bd573d6000803e3d6000fd5b50505050506000600160009054906101000a90046001600160a01b03166001600160a01b0316631755ff216040518163ffffffff1660e01b8152600401602060405180830381865afa158015610a17573d6000803e3d6000fd5b505050506040513d601f19601f82011682018060405250810190610a3b919061255b565b60005460015460408051631755ff2160e01b815290519394506001600160a01b039283169363095ea7b39390921691631755ff21916004808201926020929091908290030181865afa158015610a95573d6000803e3d6000fd5b505050506040513d601f19601f82011682018060405250810190610ab9919061255b565b6040516001600160e01b031960e084901b1681526001600160a01b0390911660048201523460248201526044016020604051808303816000875af1158015610b05573d6000803e3d6000fd5b505050506040513d601f19601f82011682018060405250810190610b2991906127bc565b50604051631b8fec7360e11b8152600481018490526000906001600160a01b0383169063371fd8e6906024016020604051808303816000875af1158015610b74573d6000803e3d6000fd5b505050506040513d601f19601f82011682018060405250810190610b989190612820565b905080341015610be25760405162461bcd60e51b81526020600482015260156024820152742922a820acafa6a9a3afab20a62aa2afa2a92927a960591b6044820152606401610117565b6000610bf684602001518560400151611917565b905083602001516001600160a01b03166342842e0e308387604001516040518463ffffffff1660e01b8152600401610c3093929190612839565b600060405180830381600087803b158015610c4a57600080fd5b505af1158015610c5e573d6000803e3d6000fd5b5050505081341115610ce1576000610c7683346127fb565b600054604051632e1a7d4d60e01b8152600481018390529192506001600160a01b031690632e1a7d4d90602401600060405180830381600087803b158015610cbd57600080fd5b505af1158015610cd1573d6000803e3d6000fd5b50505050610cdf3382611fd7565b505b6001600160a01b0381811660009081526002602090815260408083208883018051861685529083528184208983018051865290845282852080546001600160a01b031990811690915591519095168452600383528184209451845293825291829020805490931690925551838152869133917f8a3b4b3512c2c0435b92830e2568c046bdea43bc1a41308cf9728fac0e1bcd54910160405180910390a35050505050565b610d90338383611ea9565b610dac5760405162461bcd60e51b8152600401610117906126b7565b6000610db88383611917565b604051632142170760e11b81529091506001600160a01b038416906342842e0e90610deb90309085908790600401612839565b600060405180830381600087803b158015610e0557600080fd5b505af1158015610e19573d6000803e3d6000fd5b5050506001600160a01b038083166000908152600260209081526040808320938816808452938252808320878452825280832080546001600160a01b03199081169091558484526003835281842088855290925280832080549092169091555185935033917f040389a73767c5f67f650d528d0035127f2e7464d82519881f3af541d2f5ce5c91a4505050565b60015460408051631ade434560e11b815290516000926001600160a01b0316916335bc868a9160048083019260209291908290030181865afa158015610ef0573d6000803e3d6000fd5b505050506040513d601f19601f82011682018060405250810190610f14919061255b565b60405163622fe39f60e01b8152600481018690529091506000906001600160a01b0383169063622fe39f906024016101c060405180830381865afa158015610f60573d6000803e3d6000fd5b505050506040513d601f19601f82011682018060405250810190610f8491906125bc565b9050610f993382602001518360400151611ea9565b610fb55760405162461bcd60e51b8152600401610117906126b7565b60008054906101000a90046001600160a01b03166001600160a01b031663d0e30db0346040518263ffffffff1660e01b81526004016000604051808303818588803b15801561100357600080fd5b505af1158015611017573d6000803e3d6000fd5b50505050506000600160009054906101000a90046001600160a01b03166001600160a01b0316631755ff216040518163ffffffff1660e01b8152600401602060405180830381865afa158015611071573d6000803e3d6000fd5b505050506040513d601f19601f82011682018060405250810190611095919061255b565b60005460015460408051631755ff2160e01b815290519394506001600160a01b039283169363095ea7b39390921691631755ff21916004808201926020929091908290030181865afa1580156110ef573d6000803e3d6000fd5b505050506040513d601f19601f82011682018060405250810190611113919061255b565b6040516001600160e01b031960e084901b1681526001600160a01b0390911660048201523460248201526044016020604051808303816000875af115801561115f573d6000803e3d6000fd5b505050506040513d601f19601f8201168201806040525081019061118391906127bc565b506040516333889f7b60e11b815260048101879052602481018690526044810185905230606482015260009081906001600160a01b038416906367113ef69060840160408051808303816000875af11580156111e3573d6000803e3d6000fd5b505050506040513d601f19601f8201168201806040525081019061120791906127d7565b91509150813410156112545760405162461bcd60e51b815260206004820152601660248201527522ac2a22a7222fa6a9a3afab20a62aa2afa2a92927a960511b6044820152606401610117565b813411156112d357600061126883346127fb565b600054604051632e1a7d4d60e01b8152600481018390529192506001600160a01b031690632e1a7d4d90602401600060405180830381600087803b1580156112af57600080fd5b505af11580156112c3573d6000803e3d6000fd5b505050506112d13382611fd7565b505b801561135257600054604051632e1a7d4d60e01b8152600481018390526001600160a01b0390911690632e1a7d4d90602401600060405180830381600087803b15801561131f57600080fd5b505af1158015611333573d6000803e3d6000fd5b5050505061135261134c85602001518660400151611917565b82611fd7565b6040805188815260208101889052899133917f1f3058b483041d4b752f855afd407c12c68dc9b910fbd9937836e3e3791204ea910160405180910390a35050505050505050565b6001600160a01b03808416600090815260026020908152604080832086851684528252808320858452909152902054165b9392505050565b60015460408051631ade434560e11b815290516000926001600160a01b0316916335bc868a9160048083019260209291908290030181865afa15801561141b573d6000803e3d6000fd5b505050506040513d601f19601f8201168201806040525081019061143f919061255b565b60405163622fe39f60e01b8152600481018590529091506000906001600160a01b0383169063622fe39f906024016101c060405180830381865afa15801561148b573d6000803e3d6000fd5b505050506040513d601f19601f820116820180604052508101906114af91906125bc565b90506114c381602001518260400151611f8f565b6114fe5760405162461bcd60e51b815260206004820152600c60248201526b2727afa222a622a3a0aa27a960a11b6044820152606401610117565b60015460408051631755ff2160e01b815290516000926001600160a01b031691631755ff219160048083019260209291908290030181865afa158015611548573d6000803e3d6000fd5b505050506040513d601f19601f8201168201806040525081019061156c919061255b565b82516040516391541e0560e01b815260048101919091529091506000906001600160a01b038316906391541e059060240161018060405180830381865afa1580156115bb573d6000803e3d6000fd5b505050506040513d601f19601f820116820180604052508101906115df91906126fe565b60208101519091506115fc906001600160a01b0316333088611efc565b80602001516001600160a01b031663095ea7b3600160009054906101000a90046001600160a01b03166001600160a01b0316631755ff216040518163ffffffff1660e01b8152600401602060405180830381865afa158015611662573d6000803e3d6000fd5b505050506040513d601f19601f82011682018060405250810190611686919061255b565b6040516001600160e01b031960e084901b1681526001600160a01b039091166004820152602481018890526044016020604051808303816000875af11580156116d3573d6000803e3d6000fd5b505050506040513d601f19601f820116820180604052508101906116f791906127bc565b50604051631b8fec7360e11b8152600481018790526000906001600160a01b0384169063371fd8e6906024016020604051808303816000875af1158015611742573d6000803e3d6000fd5b505050506040513d601f19601f820116820180604052508101906117669190612820565b9050808610156117b05760405162461bcd60e51b81526020600482015260156024820152742922a820acafa6a9a3afab20a62aa2afa2a92927a960591b6044820152606401610117565b60006117c485602001518660400151611917565b905084602001516001600160a01b03166342842e0e308388604001516040518463ffffffff1660e01b81526004016117fe93929190612839565b600060405180830381600087803b15801561181857600080fd5b505af115801561182c573d6000803e3d6000fd5b505050508187111561186257600061184483896127fb565b6020850151909150611860906001600160a01b03163383611f5a565b505b6001600160a01b0380821660009081526002602090815260408083208983018051861685529083528184208a83018051865290845282852080546001600160a01b0319908116909155915186168552600384528285209051855283529281902080549093169092558501519051911690899033907fd7aefa450d0471f7802f5602587523a1c9eb42f752cf525eab3ace085597e475906119059087815260200190565b60405180910390a45050505050505050565b6001600160a01b03918216600090815260036020908152604080832093835292905220541690565b60015460408051631ade434560e11b815290516000926001600160a01b0316916335bc868a9160048083019260209291908290030181865afa158015611989573d6000803e3d6000fd5b505050506040513d601f19601f820116820180604052508101906119ad919061255b565b60405163622fe39f60e01b8152600481018490529091506000906001600160a01b0383169063622fe39f906024016101c060405180830381865afa1580156119f9573d6000803e3d6000fd5b505050506040513d601f19601f82011682018060405250810190611a1d91906125bc565b6040516331a9108f60e11b81526004810185905290915033906001600160a01b03841690636352211e90602401602060405180830381865afa158015611a67573d6000803e3d6000fd5b505050506040513d601f19601f82011682018060405250810190611a8b919061255b565b6001600160a01b03161480611ac25750336001600160a01b0316611ab782602001518360400151611917565b6001600160a01b0316145b611afb5760405162461bcd60e51b815260206004820152600a60248201526927a7262cafa7aba722a960b11b6044820152606401610117565b6020808201516001600160a01b03908116600090815260038352604080822081860151835290935291909120543391168114611b73576020828101516001600160a01b0390811660009081526003835260408082208187015183529093529190912080546001600160a01b0319169183169190911790555b6040516331a9108f60e11b81526004810185905230906001600160a01b03851690636352211e90602401602060405180830381865afa158015611bba573d6000803e3d6000fd5b505050506040513d601f19601f82011682018060405250810190611bde919061255b565b6001600160a01b031614611c4f57604051632142170760e11b81526001600160a01b038416906342842e0e90611c1c90849030908990600401612839565b600060405180830381600087803b158015611c3657600080fd5b505af1158015611c4a573d6000803e3d6000fd5b505050505b6001600160a01b03908116600090815260026020908152604080832085830151851684528252808320948101518352939052919091208054919094166001600160a01b0319909116179092555050565b60015460408051631ade434560e11b815290516000926001600160a01b0316916335bc868a9160048083019260209291908290030181865afa158015611ce9573d6000803e3d6000fd5b505050506040513d601f19601f82011682018060405250810190611d0d919061255b565b60405163622fe39f60e01b8152600481018490529091506000906001600160a01b0383169063622fe39f906024016101c060405180830381865afa158015611d59573d6000803e3d6000fd5b505050506040513d601f19601f82011682018060405250810190611d7d91906125bc565b90506000611d9382602001518360400151611917565b90506001600160a01b0381163314611dda5760405162461bcd60e51b815260206004820152600a60248201526927a7262cafa7aba722a960b11b6044820152606401610117565b604051632142170760e11b81526001600160a01b038416906342842e0e90611e0a90309085908990600401612839565b600060405180830381600087803b158015611e2457600080fd5b505af1158015611e38573d6000803e3d6000fd5b5050506001600160a01b0391821660009081526002602090815260408083208683018051871685529083528184209682018051855296835281842080546001600160a01b03199081169091559051909516835260038252808320955183529490529290922080549091169055505050565b600080611eb68484611917565b9050846001600160a01b0316816001600160a01b03161480611ef35750846001600160a01b0316611ee8828686611399565b6001600160a01b0316145b95945050505050565b611f54846323b872dd60e01b858585604051602401611f1d93929190612839565b60408051601f198184030181529190526020810180516001600160e01b03166001600160e01b03199093169290921790915261208a565b50505050565b6040516001600160a01b038316602482015260448101829052611f8a90849063a9059cbb60e01b90606401611f1d565b505050565b600080611f9c8484611917565b6001600160a01b0390811660009081526002602090815260408083208885168452825280832087845290915290205416151591505092915050565b604080516000808252602082019092526001600160a01b0384169083906040516120019190612889565b60006040518083038185875af1925050503d806000811461203e576040519150601f19603f3d011682016040523d82523d6000602084013e612043565b606091505b5050905080611f8a5760405162461bcd60e51b815260206004820152601360248201527211551217d514905394d1915497d19052531151606a1b6044820152606401610117565b60006120df826040518060400160405280602081526020017f5361666545524332303a206c6f772d6c6576656c2063616c6c206661696c6564815250856001600160a01b031661215c9092919063ffffffff16565b805190915015611f8a57808060200190518101906120fd91906127bc565b611f8a5760405162461bcd60e51b815260206004820152602a60248201527f5361666545524332303a204552433230206f7065726174696f6e20646964206e6044820152691bdd081cdd58d8d9595960b21b6064820152608401610117565b606061216b8484600085612173565b949350505050565b6060824710156121d45760405162461bcd60e51b815260206004820152602660248201527f416464726573733a20696e73756666696369656e742062616c616e636520666f6044820152651c8818d85b1b60d21b6064820152608401610117565b843b6122225760405162461bcd60e51b815260206004820152601d60248201527f416464726573733a2063616c6c20746f206e6f6e2d636f6e74726163740000006044820152606401610117565b600080866001600160a01b0316858760405161223e9190612889565b60006040518083038185875af1925050503d806000811461227b576040519150601f19603f3d011682016040523d82523d6000602084013e612280565b606091505b509150915061229082828661229b565b979650505050505050565b606083156122aa5750816113ca565b8251156122ba5782518084602001fd5b8160405162461bcd60e51b815260040161011791906128a5565b6001600160a01b03811681146122e957600080fd5b50565b600080604083850312156122ff57600080fd5b823561230a816122d4565b946020939093013593505050565b6000806000806080858703121561232e57600080fd5b5050823594602084013594506040840135936060013592509050565b634e487b7160e01b600052604160045260246000fd5b6040516101c0810167ffffffffffffffff811182821017156123845761238461234a565b60405290565b604051610180810167ffffffffffffffff811182821017156123845761238461234a565b604051601f8201601f1916810167ffffffffffffffff811182821017156123d7576123d761234a565b604052919050565b600080600080608085870312156123f557600080fd5b8435612400816122d4565b9350602085810135612411816122d4565b935060408601359250606086013567ffffffffffffffff8082111561243557600080fd5b818801915088601f83011261244957600080fd5b81358181111561245b5761245b61234a565b61246d601f8201601f191685016123ae565b9150808252898482850101111561248357600080fd5b808484018584013760008482840101525080935050505092959194509250565b6000602082840312156124b557600080fd5b5035919050565b6000806000606084860312156124d157600080fd5b505081359360208301359350604090920135919050565b6000806000606084860312156124fd57600080fd5b8335612508816122d4565b92506020840135612518816122d4565b929592945050506040919091013590565b6000806040838503121561253c57600080fd5b50508035926020909101359150565b8051612556816122d4565b919050565b60006020828403121561256d57600080fd5b81516113ca816122d4565b80516fffffffffffffffffffffffffffffffff8116811461255657600080fd5b805164ffffffffff8116811461255657600080fd5b80516006811061255657600080fd5b60006101c082840312156125cf57600080fd5b6125d7612360565b825181526125e76020840161254b565b6020820152604083015160408201526126026060840161254b565b60608201526080830151608082015261261d60a08401612578565b60a082015261262e60c08401612578565b60c082015261263f60e08401612598565b60e0820152610100612652818501612598565b90820152610120612664848201612598565b90820152610140612676848201612598565b90820152610160612688848201612598565b9082015261018061269a848201612598565b908201526101a06126ac8482016125ad565b908201529392505050565b60208082526017908201527f4f4e4c595f4f574e45525f4f525f44454c454741544f52000000000000000000604082015260600190565b8051801515811461255657600080fd5b6000610180828403121561271157600080fd5b61271961238a565b825181526127296020840161254b565b602082015261273a6040840161254b565b604082015261274b6060840161254b565b606082015261275c60808401612578565b608082015260a083015160a082015260c083015160c082015261278160e08401612598565b60e0820152610100838101519082015261012061279f81850161254b565b9082015261014083810151908201526101606126ac8185016126ee565b6000602082840312156127ce57600080fd5b6113ca826126ee565b600080604083850312156127ea57600080fd5b505080516020909101519092909150565b60008282101561281b57634e487b7160e01b600052601160045260246000fd5b500390565b60006020828403121561283257600080fd5b5051919050565b6001600160a01b039384168152919092166020820152604081019190915260600190565b60005b83811015612878578181015183820152602001612860565b83811115611f545750506000910152565b6000825161289b81846020870161285d565b9190910192915050565b60208152600082518060208401526128c481604085016020870161285d565b601f01601f1916919091016040019291505056fea2646970667358221220871e983efe16c36e28bcadc04550fb7d718494fcb8bcb883c5e0c3814d58c8cf64736f6c634300080a0033",
  "devdoc": {
    "kind": "dev",
    "methods": {
      "onERC721Received(address,address,uint256,bytes)": {
        "details": "See {IERC721Receiver-onERC721Received}. Always returns `IERC721Receiver.onERC721Received.selector`."
      }
    },
    "version": 1
  },
  "userdoc": {
    "kind": "user",
    "methods": {},
    "version": 1
  },
  "storageLayout": {
    "storage": [
      {
        "astId": 23415,
        "contract": "contracts/misc/OpenSkyLoanDelegator.sol:OpenSkyLoanDelegator",
        "label": "WETH",
        "offset": 0,
        "slot": "0",
        "type": "t_contract(IWETH)18277"
      },
      {
        "astId": 23418,
        "contract": "contracts/misc/OpenSkyLoanDelegator.sol:OpenSkyLoanDelegator",
        "label": "SETTINGS",
        "offset": 0,
        "slot": "1",
        "type": "t_contract(IOpenSkySettings)20007"
      },
      {
        "astId": 23426,
        "contract": "contracts/misc/OpenSkyLoanDelegator.sol:OpenSkyLoanDelegator",
        "label": "delegators",
        "offset": 0,
        "slot": "2",
        "type": "t_mapping(t_address,t_mapping(t_address,t_mapping(t_uint256,t_address)))"
      },
      {
        "astId": 23432,
        "contract": "contracts/misc/OpenSkyLoanDelegator.sol:OpenSkyLoanDelegator",
        "label": "loanOwners",
        "offset": 0,
        "slot": "3",
        "type": "t_mapping(t_address,t_mapping(t_uint256,t_address))"
      }
    ],
    "types": {
      "t_address": {
        "encoding": "inplace",
        "label": "address",
        "numberOfBytes": "20"
      },
      "t_contract(IOpenSkySettings)20007": {
        "encoding": "inplace",
        "label": "contract IOpenSkySettings",
        "numberOfBytes": "20"
      },
      "t_contract(IWETH)18277": {
        "encoding": "inplace",
        "label": "contract IWETH",
        "numberOfBytes": "20"
      },
      "t_mapping(t_address,t_mapping(t_address,t_mapping(t_uint256,t_address)))": {
        "encoding": "mapping",
        "key": "t_address",
        "label": "mapping(address => mapping(address => mapping(uint256 => address)))",
        "numberOfBytes": "32",
        "value": "t_mapping(t_address,t_mapping(t_uint256,t_address))"
      },
      "t_mapping(t_address,t_mapping(t_uint256,t_address))": {
        "encoding": "mapping",
        "key": "t_address",
        "label": "mapping(address => mapping(uint256 => address))",
        "numberOfBytes": "32",
        "value": "t_mapping(t_uint256,t_address)"
      },
      "t_mapping(t_uint256,t_address)": {
        "encoding": "mapping",
        "key": "t_uint256",
        "label": "mapping(uint256 => address)",
        "numberOfBytes": "32",
        "value": "t_address"
      },
      "t_uint256": {
        "encoding": "inplace",
        "label": "uint256",
        "numberOfBytes": "32"
      }
    }
  }
}