{
  "address": "0x6D3eA3C00dbDd5AaA87e44Ab964463Bf1A900354",
  "abi": [
    {
      "inputs": [
        {
          "internalType": "address",
          "name": "_apeCoinStakingContractAddress",
          "type": "address"
        },
        {
          "internalType": "address",
          "name": "_apeCoinContractAddress",
          "type": "address"
        },
        {
          "internalType": "address",
          "name": "_bakcContractAddress",
          "type": "address"
        },
        {
          "internalType": "address",
          "name": "_instantLoanCollateralHolder",
          "type": "address"
        },
        {
          "internalType": "address",
          "name": "_bespokeLoanCollateralHolder",
          "type": "address"
        }
      ],
      "stateMutability": "nonpayable",
      "type": "constructor"
    },
    {
      "inputs": [],
      "name": "apeCoin",
      "outputs": [
        {
          "internalType": "contract IERC20",
          "name": "",
          "type": "address"
        }
      ],
      "stateMutability": "view",
      "type": "function"
    },
    {
      "inputs": [],
      "name": "apeCoinStaking",
      "outputs": [
        {
          "internalType": "contract IApeCoinStaking",
          "name": "",
          "type": "address"
        }
      ],
      "stateMutability": "view",
      "type": "function"
    },
    {
      "inputs": [],
      "name": "bakc",
      "outputs": [
        {
          "internalType": "contract IERC721",
          "name": "",
          "type": "address"
        }
      ],
      "stateMutability": "view",
      "type": "function"
    },
    {
      "inputs": [],
      "name": "bespokeLoanCollateralHolder",
      "outputs": [
        {
          "internalType": "address",
          "name": "",
          "type": "address"
        }
      ],
      "stateMutability": "view",
      "type": "function"
    },
    {
      "inputs": [
        {
          "internalType": "address[]",
          "name": "nftAddresses",
          "type": "address[]"
        },
        {
          "internalType": "uint256[]",
          "name": "tokenIds",
          "type": "uint256[]"
        },
        {
          "internalType": "address",
          "name": "initiator",
          "type": "address"
        },
        {
          "internalType": "address",
          "name": "operator",
          "type": "address"
        },
        {
          "internalType": "bytes",
          "name": "params",
          "type": "bytes"
        }
      ],
      "name": "executeOperation",
      "outputs": [
        {
          "internalType": "bool",
          "name": "",
          "type": "bool"
        }
      ],
      "stateMutability": "nonpayable",
      "type": "function"
    },
    {
      "inputs": [],
      "name": "instantLoanCollateralHolder",
      "outputs": [
        {
          "internalType": "address",
          "name": "",
          "type": "address"
        }
      ],
      "stateMutability": "view",
      "type": "function"
    },
    {
      "inputs": [
        {
          "internalType": "address",
          "name": "",
          "type": "address"
        },
        {
          "internalType": "address",
          "name": "",
          "type": "address"
        },
        {
          "internalType": "uint256",
          "name": "",
          "type": "uint256"
        },
        {
          "internalType": "bytes",
          "name": "",
          "type": "bytes"
        }
      ],
      "name": "onERC721Received",
      "outputs": [
        {
          "internalType": "bytes4",
          "name": "",
          "type": "bytes4"
        }
      ],
      "stateMutability": "nonpayable",
      "type": "function"
    }
  ],
  "transactionHash": "0xdb7fd446e8e80354fe5224580b25f4f788672afbf8c9af88cf913a80b6da77ca",
  "args": [
    "0x831e0c7A89Dbc52a1911b78ebf4ab905354C96Ce",
    "0x328507DC29C95c170B56a1b3A758eB7a9E73455c",
    "0xd60d682764Ee04e54707Bee7B564DC65b31884D0",
    "0xE033690a465122C0b17d4ea0D6B3588e6F041655",
    "0x5eBB5d0723EcD6c4740b8832f0bE316AA543960A"
  ],
  "solcInputHash": "320d587b79b26d1ac7bb4083e2a54418",
  "bytecode": "0x6101206040523480156200001257600080fd5b50604051620012dc380380620012dc83398101604081905262000035916200007c565b6001600160a01b03918216608052811660a05292831660c05290821660e0521661010052620000ec565b80516001600160a01b03811681146200007757600080fd5b919050565b600080600080600060a086880312156200009557600080fd5b620000a0866200005f565b9450620000b0602087016200005f565b9350620000c0604087016200005f565b9250620000d0606087016200005f565b9150620000e0608087016200005f565b90509295509295909350565b60805160a05160c05160e05161010051611166620001766000396000818160e601528181610302015281816103ec015281816105b4015261067301526000818161014c015281816104aa01526104df01526000818161019a01528181610501015261053d01526000818161012501526101fb01526000818161017301526101c901526111666000f3fe608060405234801561001057600080fd5b506004361061007d5760003560e01c8063595d69761161005b578063595d697614610120578063ac7ad9ba14610147578063c28f87831461016e578063c9112a771461019557600080fd5b806308e896f014610082578063150b7a02146100aa5780631ab95b9d146100e1575b600080fd5b610095610090366004610c30565b6101bc565b60405190151581526020015b60405180910390f35b6100c86100b8366004610d8b565b630a85bd0160e11b949350505050565b6040516001600160e01b031990911681526020016100a1565b6101087f000000000000000000000000000000000000000000000000000000000000000081565b6040516001600160a01b0390911681526020016100a1565b6101087f000000000000000000000000000000000000000000000000000000000000000081565b6101087f000000000000000000000000000000000000000000000000000000000000000081565b6101087f000000000000000000000000000000000000000000000000000000000000000081565b6101087f000000000000000000000000000000000000000000000000000000000000000081565b6000336001600160a01b037f000000000000000000000000000000000000000000000000000000000000000016148061021d5750336001600160a01b037f000000000000000000000000000000000000000000000000000000000000000016145b61026e5760405162461bcd60e51b815260206004820152601e60248201527f4f4e4c595f4f50454e534b595f434f4c4c41544552414c5f484f4c444552000060448201526064015b60405180910390fd5b336001600160a01b038516146102b55760405162461bcd60e51b815260206004820152600c60248201526b2820a920a6a9afa2a92927a960a11b6044820152606401610265565b6000806102c484860186610ef9565b915091506000805b83518110156103b2578381815181106102e7576102e7610f5d565b602002602001015160400151826102fe9190610f89565b91507f00000000000000000000000000000000000000000000000000000000000000006001600160a01b03166342842e0e8a3087858151811061034357610343610f5d565b6020026020010151602001516040518463ffffffff1660e01b815260040161036d93929190610fa1565b600060405180830381600087803b15801561038757600080fd5b505af115801561039b573d6000803e3d6000fd5b5050505080806103aa90610fc5565b9150506102cc565b5060005b825181101561049c578281815181106103d1576103d1610f5d565b602002602001015160400151826103e89190610f89565b91507f00000000000000000000000000000000000000000000000000000000000000006001600160a01b03166342842e0e8a3086858151811061042d5761042d610f5d565b6020026020010151602001516040518463ffffffff1660e01b815260040161045793929190610fa1565b600060405180830381600087803b15801561047157600080fd5b505af1158015610485573d6000803e3d6000fd5b50505050808061049490610fc5565b9150506103b6565b506104d26001600160a01b037f000000000000000000000000000000000000000000000000000000000000000016893084610804565b6105266001600160a01b037f0000000000000000000000000000000000000000000000000000000000000000167f000000000000000000000000000000000000000000000000000000000000000083610862565b60405163417a32f960e01b81526001600160a01b037f0000000000000000000000000000000000000000000000000000000000000000169063417a32f9906105749086908690600401611031565b600060405180830381600087803b15801561058e57600080fd5b505af11580156105a2573d6000803e3d6000fd5b5050505060005b8351811015610664577f00000000000000000000000000000000000000000000000000000000000000006001600160a01b03166342842e0e308b8785815181106105f5576105f5610f5d565b6020026020010151602001516040518463ffffffff1660e01b815260040161061f93929190610fa1565b600060405180830381600087803b15801561063957600080fd5b505af115801561064d573d6000803e3d6000fd5b50505050808061065c90610fc5565b9150506105a9565b5060005b8251811015610723577f00000000000000000000000000000000000000000000000000000000000000006001600160a01b03166342842e0e308b8685815181106106b4576106b4610f5d565b6020026020010151602001516040518463ffffffff1660e01b81526004016106de93929190610fa1565b600060405180830381600087803b1580156106f857600080fd5b505af115801561070c573d6000803e3d6000fd5b50505050808061071b90610fc5565b915050610668565b5060005b8b8110156107f1578c8c8281811061074157610741610f5d565b9050602002016020810190610756919061105f565b6001600160a01b031663095ea7b3898d8d8581811061077757610777610f5d565b6040516001600160e01b031960e087901b1681526001600160a01b0390941660048501526020029190910135602483015250604401600060405180830381600087803b1580156107c657600080fd5b505af11580156107da573d6000803e3d6000fd5b5050505080806107e990610fc5565b915050610727565b5060019c9b505050505050505050505050565b61085c846323b872dd60e01b85858560405160240161082593929190610fa1565b60408051601f198184030181529190526020810180516001600160e01b03166001600160e01b03199093169290921790915261097c565b50505050565b8015806108dc5750604051636eb1769f60e11b81523060048201526001600160a01b03838116602483015284169063dd62ed3e90604401602060405180830381865afa1580156108b6573d6000803e3d6000fd5b505050506040513d601f19601f820116820180604052508101906108da919061107a565b155b6109475760405162461bcd60e51b815260206004820152603660248201527f5361666545524332303a20617070726f76652066726f6d206e6f6e2d7a65726f60448201527520746f206e6f6e2d7a65726f20616c6c6f77616e636560501b6064820152608401610265565b6040516001600160a01b03831660248201526044810182905261097790849063095ea7b360e01b90606401610825565b505050565b60006109d1826040518060400160405280602081526020017f5361666545524332303a206c6f772d6c6576656c2063616c6c206661696c6564815250856001600160a01b0316610a4e9092919063ffffffff16565b80519091501561097757808060200190518101906109ef9190611093565b6109775760405162461bcd60e51b815260206004820152602a60248201527f5361666545524332303a204552433230206f7065726174696f6e20646964206e6044820152691bdd081cdd58d8d9595960b21b6064820152608401610265565b6060610a5d8484600085610a67565b90505b9392505050565b606082471015610ac85760405162461bcd60e51b815260206004820152602660248201527f416464726573733a20696e73756666696369656e742062616c616e636520666f6044820152651c8818d85b1b60d21b6064820152608401610265565b843b610b165760405162461bcd60e51b815260206004820152601d60248201527f416464726573733a2063616c6c20746f206e6f6e2d636f6e74726163740000006044820152606401610265565b600080866001600160a01b03168587604051610b3291906110e1565b60006040518083038185875af1925050503d8060008114610b6f576040519150601f19603f3d011682016040523d82523d6000602084013e610b74565b606091505b5091509150610b84828286610b8f565b979650505050505050565b60608315610b9e575081610a60565b825115610bae5782518084602001fd5b8160405162461bcd60e51b815260040161026591906110fd565b60008083601f840112610bda57600080fd5b50813567ffffffffffffffff811115610bf257600080fd5b6020830191508360208260051b8501011115610c0d57600080fd5b9250929050565b80356001600160a01b0381168114610c2b57600080fd5b919050565b60008060008060008060008060a0898b031215610c4c57600080fd5b883567ffffffffffffffff80821115610c6457600080fd5b610c708c838d01610bc8565b909a50985060208b0135915080821115610c8957600080fd5b610c958c838d01610bc8565b9098509650869150610ca960408c01610c14565b9550610cb760608c01610c14565b945060808b0135915080821115610ccd57600080fd5b818b0191508b601f830112610ce157600080fd5b813581811115610cf057600080fd5b8c6020828501011115610d0257600080fd5b6020830194508093505050509295985092959890939650565b634e487b7160e01b600052604160045260246000fd5b6040516060810167ffffffffffffffff81118282101715610d5457610d54610d1b565b60405290565b604051601f8201601f1916810167ffffffffffffffff81118282101715610d8357610d83610d1b565b604052919050565b60008060008060808587031215610da157600080fd5b610daa85610c14565b93506020610db9818701610c14565b935060408601359250606086013567ffffffffffffffff80821115610ddd57600080fd5b818801915088601f830112610df157600080fd5b813581811115610e0357610e03610d1b565b610e15601f8201601f19168501610d5a565b91508082528984828501011115610e2b57600080fd5b808484018584013760008482840101525080935050505092959194509250565b600082601f830112610e5c57600080fd5b8135602067ffffffffffffffff821115610e7857610e78610d1b565b610e86818360051b01610d5a565b82815260609283028501820192828201919087851115610ea557600080fd5b8387015b85811015610eec5781818a031215610ec15760008081fd5b610ec9610d31565b813581528582013586820152604080830135908201528452928401928101610ea9565b5090979650505050505050565b60008060408385031215610f0c57600080fd5b823567ffffffffffffffff80821115610f2457600080fd5b610f3086838701610e4b565b93506020850135915080821115610f4657600080fd5b50610f5385828601610e4b565b9150509250929050565b634e487b7160e01b600052603260045260246000fd5b634e487b7160e01b600052601160045260246000fd5b60008219821115610f9c57610f9c610f73565b500190565b6001600160a01b039384168152919092166020820152604081019190915260600190565b6000600019821415610fd957610fd9610f73565b5060010190565b600081518084526020808501945080840160005b838110156110265781518051885283810151848901526040908101519088015260609096019590820190600101610ff4565b509495945050505050565b6040815260006110446040830185610fe0565b82810360208401526110568185610fe0565b95945050505050565b60006020828403121561107157600080fd5b610a6082610c14565b60006020828403121561108c57600080fd5b5051919050565b6000602082840312156110a557600080fd5b81518015158114610a6057600080fd5b60005b838110156110d05781810151838201526020016110b8565b8381111561085c5750506000910152565b600082516110f38184602087016110b5565b9190910192915050565b602081526000825180602084015261111c8160408501602087016110b5565b601f01601f1916919091016040019291505056fea264697066735822122002f2b505c09a71b053121cec424977e04a4dc588240b9e2346d8a079f6cf001264736f6c634300080a0033",
  "devdoc": {
    "kind": "dev",
    "methods": {
      "onERC721Received(address,address,uint256,bytes)": {
        "details": "See {IERC721Receiver-onERC721Received}. Always returns `IERC721Receiver.onERC721Received.selector`."
      }
    },
    "version": 1
  },
  "userdoc": {
    "kind": "user",
    "methods": {},
    "version": 1
  },
  "storageLayout": {
    "storage": [],
    "types": null
  }
}