{
  "address": "0x0e5bb2cAF121BE3e92429ACf12Dd6B0266C0D5EA",
  "abi": [
    {
      "inputs": [
        {
          "internalType": "address",
          "name": "_ACLManagerAddress",
          "type": "address"
        }
      ],
      "stateMutability": "nonpayable",
      "type": "constructor"
    },
    {
      "anonymous": false,
      "inputs": [
        {
          "indexed": false,
          "internalType": "address",
          "name": "operator",
          "type": "address"
        },
        {
          "indexed": false,
          "internalType": "address",
          "name": "currency",
          "type": "address"
        }
      ],
      "name": "AddCurrency",
      "type": "event"
    },
    {
      "anonymous": false,
      "inputs": [
        {
          "indexed": false,
          "internalType": "address",
          "name": "operator",
          "type": "address"
        },
        {
          "indexed": false,
          "internalType": "address",
          "name": "nftAddress",
          "type": "address"
        },
        {
          "indexed": false,
          "internalType": "address",
          "name": "adapterAddress",
          "type": "address"
        }
      ],
      "name": "AddNftTransferAdapter",
      "type": "event"
    },
    {
      "anonymous": false,
      "inputs": [
        {
          "indexed": false,
          "internalType": "address",
          "name": "operator",
          "type": "address"
        },
        {
          "indexed": false,
          "internalType": "address",
          "name": "address_",
          "type": "address"
        }
      ],
      "name": "AddStrategy",
      "type": "event"
    },
    {
      "anonymous": false,
      "inputs": [
        {
          "indexed": false,
          "internalType": "address",
          "name": "operator",
          "type": "address"
        },
        {
          "indexed": false,
          "internalType": "address",
          "name": "nft",
          "type": "address"
        }
      ],
      "name": "AddToWhitelist",
      "type": "event"
    },
    {
      "anonymous": false,
      "inputs": [
        {
          "indexed": false,
          "internalType": "address",
          "name": "operator",
          "type": "address"
        }
      ],
      "name": "CloseWhitelist",
      "type": "event"
    },
    {
      "anonymous": false,
      "inputs": [
        {
          "indexed": false,
          "internalType": "address",
          "name": "ERC721DefaultTransferAdapter",
          "type": "address"
        },
        {
          "indexed": false,
          "internalType": "address",
          "name": "ERC1155DefaultTransferAdapter",
          "type": "address"
        }
      ],
      "name": "InitDefaultNftTransferAdapter",
      "type": "event"
    },
    {
      "anonymous": false,
      "inputs": [
        {
          "indexed": false,
          "internalType": "address",
          "name": "operator",
          "type": "address"
        },
        {
          "indexed": false,
          "internalType": "address",
          "name": "borrowLoanAddress",
          "type": "address"
        },
        {
          "indexed": false,
          "internalType": "address",
          "name": "lendLoanAddress",
          "type": "address"
        }
      ],
      "name": "InitLoanAddress",
      "type": "event"
    },
    {
      "anonymous": false,
      "inputs": [
        {
          "indexed": false,
          "internalType": "address",
          "name": "operator",
          "type": "address"
        },
        {
          "indexed": false,
          "internalType": "address",
          "name": "address_",
          "type": "address"
        }
      ],
      "name": "InitMarketAddress",
      "type": "event"
    },
    {
      "anonymous": false,
      "inputs": [
        {
          "indexed": false,
          "internalType": "address",
          "name": "operator",
          "type": "address"
        }
      ],
      "name": "OpenWhitelist",
      "type": "event"
    },
    {
      "anonymous": false,
      "inputs": [
        {
          "indexed": true,
          "internalType": "address",
          "name": "previousOwner",
          "type": "address"
        },
        {
          "indexed": true,
          "internalType": "address",
          "name": "newOwner",
          "type": "address"
        }
      ],
      "name": "OwnershipTransferred",
      "type": "event"
    },
    {
      "anonymous": false,
      "inputs": [
        {
          "indexed": false,
          "internalType": "address",
          "name": "operator",
          "type": "address"
        },
        {
          "indexed": false,
          "internalType": "address",
          "name": "currency",
          "type": "address"
        }
      ],
      "name": "RemoveCurrency",
      "type": "event"
    },
    {
      "anonymous": false,
      "inputs": [
        {
          "indexed": false,
          "internalType": "address",
          "name": "operator",
          "type": "address"
        },
        {
          "indexed": false,
          "internalType": "address",
          "name": "nft",
          "type": "address"
        }
      ],
      "name": "RemoveFromWhitelist",
      "type": "event"
    },
    {
      "anonymous": false,
      "inputs": [
        {
          "indexed": false,
          "internalType": "address",
          "name": "operator",
          "type": "address"
        },
        {
          "indexed": false,
          "internalType": "address",
          "name": "nftAddress",
          "type": "address"
        }
      ],
      "name": "RemoveNftTransferAdapter",
      "type": "event"
    },
    {
      "anonymous": false,
      "inputs": [
        {
          "indexed": false,
          "internalType": "address",
          "name": "operator",
          "type": "address"
        },
        {
          "indexed": false,
          "internalType": "address",
          "name": "address_",
          "type": "address"
        }
      ],
      "name": "RemoveStrategy",
      "type": "event"
    },
    {
      "anonymous": false,
      "inputs": [
        {
          "indexed": false,
          "internalType": "address",
          "name": "operator",
          "type": "address"
        },
        {
          "indexed": false,
          "internalType": "uint256",
          "name": "factor",
          "type": "uint256"
        }
      ],
      "name": "SetMaxBorrowDuration",
      "type": "event"
    },
    {
      "anonymous": false,
      "inputs": [
        {
          "indexed": false,
          "internalType": "address",
          "name": "operator",
          "type": "address"
        },
        {
          "indexed": false,
          "internalType": "uint256",
          "name": "factor",
          "type": "uint256"
        }
      ],
      "name": "SetMinBorrowDuration",
      "type": "event"
    },
    {
      "anonymous": false,
      "inputs": [
        {
          "indexed": false,
          "internalType": "address",
          "name": "operator",
          "type": "address"
        },
        {
          "indexed": false,
          "internalType": "uint256",
          "name": "factor",
          "type": "uint256"
        }
      ],
      "name": "SetOverdueDuration",
      "type": "event"
    },
    {
      "anonymous": false,
      "inputs": [
        {
          "indexed": false,
          "internalType": "address",
          "name": "operator",
          "type": "address"
        },
        {
          "indexed": false,
          "internalType": "uint256",
          "name": "factor",
          "type": "uint256"
        }
      ],
      "name": "SetOverdueLoanFeeFactor",
      "type": "event"
    },
    {
      "anonymous": false,
      "inputs": [
        {
          "indexed": false,
          "internalType": "address",
          "name": "operator",
          "type": "address"
        },
        {
          "indexed": false,
          "internalType": "uint256",
          "name": "factor",
          "type": "uint256"
        }
      ],
      "name": "SetReserveFactor",
      "type": "event"
    },
    {
      "inputs": [],
      "name": "ACLManagerAddress",
      "outputs": [
        {
          "internalType": "address",
          "name": "",
          "type": "address"
        }
      ],
      "stateMutability": "view",
      "type": "function"
    },
    {
      "inputs": [],
      "name": "INTERFACE_ID_ERC1155",
      "outputs": [
        {
          "internalType": "bytes4",
          "name": "",
          "type": "bytes4"
        }
      ],
      "stateMutability": "view",
      "type": "function"
    },
    {
      "inputs": [],
      "name": "INTERFACE_ID_ERC721",
      "outputs": [
        {
          "internalType": "bytes4",
          "name": "",
          "type": "bytes4"
        }
      ],
      "stateMutability": "view",
      "type": "function"
    },
    {
      "inputs": [],
      "name": "MAX_RESERVE_FACTOR",
      "outputs": [
        {
          "internalType": "uint256",
          "name": "",
          "type": "uint256"
        }
      ],
      "stateMutability": "view",
      "type": "function"
    },
    {
      "inputs": [],
      "name": "TRANSFER_ERC1155",
      "outputs": [
        {
          "internalType": "address",
          "name": "",
          "type": "address"
        }
      ],
      "stateMutability": "view",
      "type": "function"
    },
    {
      "inputs": [],
      "name": "TRANSFER_ERC721",
      "outputs": [
        {
          "internalType": "address",
          "name": "",
          "type": "address"
        }
      ],
      "stateMutability": "view",
      "type": "function"
    },
    {
      "inputs": [
        {
          "internalType": "address",
          "name": "",
          "type": "address"
        }
      ],
      "name": "_currencyWhitelist",
      "outputs": [
        {
          "internalType": "bool",
          "name": "",
          "type": "bool"
        }
      ],
      "stateMutability": "view",
      "type": "function"
    },
    {
      "inputs": [
        {
          "internalType": "address",
          "name": "",
          "type": "address"
        }
      ],
      "name": "_strategyWhitelist",
      "outputs": [
        {
          "internalType": "bool",
          "name": "",
          "type": "bool"
        }
      ],
      "stateMutability": "view",
      "type": "function"
    },
    {
      "inputs": [
        {
          "internalType": "address",
          "name": "",
          "type": "address"
        }
      ],
      "name": "_transferAdapters",
      "outputs": [
        {
          "internalType": "address",
          "name": "",
          "type": "address"
        }
      ],
      "stateMutability": "view",
      "type": "function"
    },
    {
      "inputs": [
        {
          "internalType": "address",
          "name": "currency",
          "type": "address"
        }
      ],
      "name": "addCurrency",
      "outputs": [],
      "stateMutability": "nonpayable",
      "type": "function"
    },
    {
      "inputs": [
        {
          "internalType": "address",
          "name": "nftAddress",
          "type": "address"
        },
        {
          "internalType": "address",
          "name": "adapterAddress",
          "type": "address"
        }
      ],
      "name": "addNftTransferAdapter",
      "outputs": [],
      "stateMutability": "nonpayable",
      "type": "function"
    },
    {
      "inputs": [
        {
          "internalType": "address",
          "name": "address_",
          "type": "address"
        }
      ],
      "name": "addStrategy",
      "outputs": [],
      "stateMutability": "nonpayable",
      "type": "function"
    },
    {
      "inputs": [
        {
          "internalType": "address",
          "name": "nft",
          "type": "address"
        },
        {
          "internalType": "uint256",
          "name": "minBorrowDuration",
          "type": "uint256"
        },
        {
          "internalType": "uint256",
          "name": "maxBorrowDuration",
          "type": "uint256"
        },
        {
          "internalType": "uint256",
          "name": "overdueDuration",
          "type": "uint256"
        }
      ],
      "name": "addToWhitelist",
      "outputs": [],
      "stateMutability": "nonpayable",
      "type": "function"
    },
    {
      "inputs": [],
      "name": "borrowLoanAddress",
      "outputs": [
        {
          "internalType": "address",
          "name": "",
          "type": "address"
        }
      ],
      "stateMutability": "view",
      "type": "function"
    },
    {
      "inputs": [],
      "name": "closeWhitelist",
      "outputs": [],
      "stateMutability": "nonpayable",
      "type": "function"
    },
    {
      "inputs": [
        {
          "internalType": "address",
          "name": "nftAddress",
          "type": "address"
        }
      ],
      "name": "getBorrowDurationConfig",
      "outputs": [
        {
          "internalType": "uint256",
          "name": "minBorrowDuration_",
          "type": "uint256"
        },
        {
          "internalType": "uint256",
          "name": "maxBorrowDuration_",
          "type": "uint256"
        },
        {
          "internalType": "uint256",
          "name": "overdueDuration_",
          "type": "uint256"
        }
      ],
      "stateMutability": "view",
      "type": "function"
    },
    {
      "inputs": [
        {
          "internalType": "address",
          "name": "nftAddress",
          "type": "address"
        }
      ],
      "name": "getNftTransferAdapter",
      "outputs": [
        {
          "internalType": "address",
          "name": "adapter",
          "type": "address"
        }
      ],
      "stateMutability": "view",
      "type": "function"
    },
    {
      "inputs": [
        {
          "internalType": "address",
          "name": "nft",
          "type": "address"
        }
      ],
      "name": "getWhitelistDetail",
      "outputs": [
        {
          "components": [
            {
              "internalType": "bool",
              "name": "enabled",
              "type": "bool"
            },
            {
              "internalType": "uint256",
              "name": "minBorrowDuration",
              "type": "uint256"
            },
            {
              "internalType": "uint256",
              "name": "maxBorrowDuration",
              "type": "uint256"
            },
            {
              "internalType": "uint256",
              "name": "overdueDuration",
              "type": "uint256"
            }
          ],
          "internalType": "struct BespokeTypes.WhitelistInfo",
          "name": "",
          "type": "tuple"
        }
      ],
      "stateMutability": "view",
      "type": "function"
    },
    {
      "inputs": [
        {
          "internalType": "address",
          "name": "nft",
          "type": "address"
        }
      ],
      "name": "inWhitelist",
      "outputs": [
        {
          "internalType": "bool",
          "name": "",
          "type": "bool"
        }
      ],
      "stateMutability": "view",
      "type": "function"
    },
    {
      "inputs": [
        {
          "internalType": "address",
          "name": "ERC721Default",
          "type": "address"
        },
        {
          "internalType": "address",
          "name": "ERC1155Default",
          "type": "address"
        }
      ],
      "name": "initDefaultNftTransferAdapters",
      "outputs": [],
      "stateMutability": "nonpayable",
      "type": "function"
    },
    {
      "inputs": [
        {
          "internalType": "address",
          "name": "borrowLoanAddress_",
          "type": "address"
        },
        {
          "internalType": "address",
          "name": "lendLoanAddress_",
          "type": "address"
        }
      ],
      "name": "initLoanAddress",
      "outputs": [],
      "stateMutability": "nonpayable",
      "type": "function"
    },
    {
      "inputs": [
        {
          "internalType": "address",
          "name": "address_",
          "type": "address"
        }
      ],
      "name": "initMarketAddress",
      "outputs": [],
      "stateMutability": "nonpayable",
      "type": "function"
    },
    {
      "inputs": [
        {
          "internalType": "address",
          "name": "currency",
          "type": "address"
        }
      ],
      "name": "isCurrencyWhitelisted",
      "outputs": [
        {
          "internalType": "bool",
          "name": "",
          "type": "bool"
        }
      ],
      "stateMutability": "view",
      "type": "function"
    },
    {
      "inputs": [
        {
          "internalType": "address",
          "name": "address_",
          "type": "address"
        }
      ],
      "name": "isStrategyWhitelisted",
      "outputs": [
        {
          "internalType": "bool",
          "name": "",
          "type": "bool"
        }
      ],
      "stateMutability": "view",
      "type": "function"
    },
    {
      "inputs": [],
      "name": "isWhitelistOn",
      "outputs": [
        {
          "internalType": "bool",
          "name": "",
          "type": "bool"
        }
      ],
      "stateMutability": "view",
      "type": "function"
    },
    {
      "inputs": [],
      "name": "lendLoanAddress",
      "outputs": [
        {
          "internalType": "address",
          "name": "",
          "type": "address"
        }
      ],
      "stateMutability": "view",
      "type": "function"
    },
    {
      "inputs": [],
      "name": "marketAddress",
      "outputs": [
        {
          "internalType": "address",
          "name": "",
          "type": "address"
        }
      ],
      "stateMutability": "view",
      "type": "function"
    },
    {
      "inputs": [],
      "name": "maxBorrowDuration",
      "outputs": [
        {
          "internalType": "uint256",
          "name": "",
          "type": "uint256"
        }
      ],
      "stateMutability": "view",
      "type": "function"
    },
    {
      "inputs": [],
      "name": "minBorrowDuration",
      "outputs": [
        {
          "internalType": "uint256",
          "name": "",
          "type": "uint256"
        }
      ],
      "stateMutability": "view",
      "type": "function"
    },
    {
      "inputs": [],
      "name": "openWhitelist",
      "outputs": [],
      "stateMutability": "nonpayable",
      "type": "function"
    },
    {
      "inputs": [],
      "name": "overdueDuration",
      "outputs": [
        {
          "internalType": "uint256",
          "name": "",
          "type": "uint256"
        }
      ],
      "stateMutability": "view",
      "type": "function"
    },
    {
      "inputs": [],
      "name": "overdueLoanFeeFactor",
      "outputs": [
        {
          "internalType": "uint256",
          "name": "",
          "type": "uint256"
        }
      ],
      "stateMutability": "view",
      "type": "function"
    },
    {
      "inputs": [],
      "name": "owner",
      "outputs": [
        {
          "internalType": "address",
          "name": "",
          "type": "address"
        }
      ],
      "stateMutability": "view",
      "type": "function"
    },
    {
      "inputs": [
        {
          "internalType": "address",
          "name": "currency",
          "type": "address"
        }
      ],
      "name": "removeCurrency",
      "outputs": [],
      "stateMutability": "nonpayable",
      "type": "function"
    },
    {
      "inputs": [
        {
          "internalType": "address",
          "name": "nft",
          "type": "address"
        }
      ],
      "name": "removeFromWhitelist",
      "outputs": [],
      "stateMutability": "nonpayable",
      "type": "function"
    },
    {
      "inputs": [
        {
          "internalType": "address",
          "name": "nftAddress",
          "type": "address"
        }
      ],
      "name": "removeNftTransferAdapter",
      "outputs": [],
      "stateMutability": "nonpayable",
      "type": "function"
    },
    {
      "inputs": [
        {
          "internalType": "address",
          "name": "address_",
          "type": "address"
        }
      ],
      "name": "removeStrategy",
      "outputs": [],
      "stateMutability": "nonpayable",
      "type": "function"
    },
    {
      "inputs": [],
      "name": "renounceOwnership",
      "outputs": [],
      "stateMutability": "nonpayable",
      "type": "function"
    },
    {
      "inputs": [],
      "name": "reserveFactor",
      "outputs": [
        {
          "internalType": "uint256",
          "name": "",
          "type": "uint256"
        }
      ],
      "stateMutability": "view",
      "type": "function"
    },
    {
      "inputs": [
        {
          "internalType": "uint256",
          "name": "factor",
          "type": "uint256"
        }
      ],
      "name": "setMaxBorrowDuration",
      "outputs": [],
      "stateMutability": "nonpayable",
      "type": "function"
    },
    {
      "inputs": [
        {
          "internalType": "uint256",
          "name": "factor",
          "type": "uint256"
        }
      ],
      "name": "setMinBorrowDuration",
      "outputs": [],
      "stateMutability": "nonpayable",
      "type": "function"
    },
    {
      "inputs": [
        {
          "internalType": "uint256",
          "name": "factor",
          "type": "uint256"
        }
      ],
      "name": "setOverdueDuration",
      "outputs": [],
      "stateMutability": "nonpayable",
      "type": "function"
    },
    {
      "inputs": [
        {
          "internalType": "uint256",
          "name": "factor",
          "type": "uint256"
        }
      ],
      "name": "setOverdueLoanFeeFactor",
      "outputs": [],
      "stateMutability": "nonpayable",
      "type": "function"
    },
    {
      "inputs": [
        {
          "internalType": "uint256",
          "name": "factor",
          "type": "uint256"
        }
      ],
      "name": "setReserveFactor",
      "outputs": [],
      "stateMutability": "nonpayable",
      "type": "function"
    },
    {
      "inputs": [
        {
          "internalType": "address",
          "name": "newOwner",
          "type": "address"
        }
      ],
      "name": "transferOwnership",
      "outputs": [],
      "stateMutability": "nonpayable",
      "type": "function"
    }
  ],
  "transactionHash": "0x39393a45354ef19d1b0df9e83dc8f371d6b0316dd0b4c495a8315356b1b1cd70",
  "args": [
    "0x9F0c2a07AF6Fb2dD9f84695d495A276f99730574"
  ],
  "solcInputHash": "52db335744ccba4923b671cf9bf608b9",
  "bytecode": "0x60a06040526000805460ff60a01b191690556107d06006556064600755610708600855624f1a006009556202a300600a553480156200003d57600080fd5b5060405162001e9f38038062001e9f8339810160408190526200006091620000cd565b6200006b336200007d565b6001600160a01b0316608052620000ff565b600080546001600160a01b038381166001600160a01b0319831681178455604051919092169283917f8be0079c531659141344cd1fd0a4f28419497f9722a3daafe3b4186f6b6457e09190a35050565b600060208284031215620000e057600080fd5b81516001600160a01b0381168114620000f857600080fd5b9392505050565b608051611d296200017660003960008181610542015281816106970152818161079f015281816108c5015281816109c401528181610ac301528181610d7b01528181610f5c0152818161104c0152818161117801528181611583015281816116f7015281816118b501526119b40152611d296000f3fe608060405234801561001057600080fd5b506004361061027f5760003560e01c80638da5cb5b1161015c578063bb322a83116100ce578063d7a5a9d311610087578063d7a5a9d314610637578063e2aafa2114610640578063e9772cd314610653578063ee08fed614610666578063efc62f7a1461066f578063f2fde38b1461068257600080fd5b8063bb322a83146105d4578063bc6bc0cd146105e7578063bd33deb3146105f5578063c5d3a10714610608578063d065ea991461061b578063d23a65cf1461062e57600080fd5b80639a9dbb99116101205780639a9dbb991461053d5780639ecdda2114610564578063a45a7dd61461056d578063ab0868bc14610580578063b3934838146105ae578063b585945f146105c157600080fd5b80638da5cb5b146104d157806393aa2845146104e257806395623641146104eb57806398460c5f146104fe578063999ba27c1461051157600080fd5b806343b938c5116101f5578063740247be116101b9578063740247be14610449578063777ee2e014610472578063853201bd1461048557806389cdd47d146104985780638ab1d681146104ab5780638ab234b6146104be57600080fd5b806343b938c5146103d6578063586b9a7c14610402578063659d4ba21461040a578063715018a61461042d578063716f10bf1461043557600080fd5b80631c446983116102475780631c44698314610317578063223e54791461032a57806330aec1271461033d57806333bf6156146103505780633bdd1235146103775780634322b714146103bf57600080fd5b8063030efd5d14610284578063083bbe7f146102b4578063165f735e146102be578063175188e8146102f15780631b52ba7114610304575b600080fd5b600b54610297906001600160a01b031681565b6040516001600160a01b0390911681526020015b60405180910390f35b6102bc610695565b005b6102e16102cc366004611ba4565b600e6020526000908152604090205460ff1681565b60405190151581526020016102ab565b6102bc6102ff366004611ba4565b61079d565b6102bc610312366004611bc6565b6108c3565b6102bc610325366004611bc6565b6109c2565b6102bc610338366004611ba4565b610ac1565b6102bc61034b366004611bdf565b610c03565b61035e636cdb3d1360e11b81565b6040516001600160e01b031990911681526020016102ab565b61038a610385366004611ba4565b610cfa565b6040516102ab919081511515815260208083015190820152604080830151908201526060918201519181019190915260800190565b6103c860065481565b6040519081526020016102ab565b6102e16103e4366004611ba4565b6001600160a01b031660009081526002602052604090205460ff1690565b6102bc610d79565b6102e1610418366004611ba4565b60026020526000908152604090205460ff1681565b6102bc610e6b565b6000546102e190600160a01b900460ff1681565b610297610457366004611ba4565b600d602052600090815260409020546001600160a01b031681565b600c54610297906001600160a01b031681565b6102bc610493366004611bdf565b610ea1565b6102bc6104a6366004611bc6565b610f5a565b6102bc6104b9366004611ba4565b61104a565b6102bc6104cc366004611ba4565b611176565b6000546001600160a01b0316610297565b6103c860095481565b600354610297906001600160a01b031681565b61029761050c366004611ba4565b6112b8565b6102e161051f366004611ba4565b6001600160a01b03166000908152600e602052604090205460ff1690565b6102977f000000000000000000000000000000000000000000000000000000000000000081565b6103c860085481565b6102bc61057b366004611bdf565b6113e4565b61059361058e366004611ba4565b61147a565b604080519384526020840192909252908201526060016102ab565b600554610297906001600160a01b031681565b6102bc6105cf366004611ba4565b6114e0565b600454610297906001600160a01b031681565b61035e6380ac58cd60e01b81565b6102bc610603366004611c12565b611581565b6102bc610616366004611ba4565b6116f5565b6102bc610629366004611ba4565b61180f565b6103c8610bb881565b6103c860075481565b6102e161064e366004611ba4565b611867565b6102bc610661366004611bc6565b6118b3565b6103c8600a5481565b6102bc61067d366004611bc6565b6119b2565b6102bc610690366004611ba4565b611aa2565b7f00000000000000000000000000000000000000000000000000000000000000006001600160a01b03811663dee1f0e4336040516001600160e01b031960e084901b1681526001600160a01b039091166004820152602401602060405180830381865afa15801561070a573d6000803e3d6000fd5b505050506040513d601f19601f8201168201806040525081019061072e9190611c4b565b6107535760405162461bcd60e51b815260040161074a90611c6d565b60405180910390fd5b6000805460ff60a01b1916600160a01b1790556040513381527f89d8e5084cb20a926de5df07f7b8263f1228ed46d85d84afa6773e5d7ce813db906020015b60405180910390a150565b7f00000000000000000000000000000000000000000000000000000000000000006001600160a01b03811663dee1f0e4336040516001600160e01b031960e084901b1681526001600160a01b039091166004820152602401602060405180830381865afa158015610812573d6000803e3d6000fd5b505050506040513d601f19601f820116820180604052508101906108369190611c4b565b6108525760405162461bcd60e51b815260040161074a90611c6d565b6001600160a01b03821661086557600080fd5b6001600160a01b0382166000908152600e602052604090819020805460ff19169055517f51c7271314d1bc03a7cc10464206ac84412719838a3ca814570f7445f0457c4f906108b79033908590611ca4565b60405180910390a15050565b7f00000000000000000000000000000000000000000000000000000000000000006001600160a01b03811663dee1f0e4336040516001600160e01b031960e084901b1681526001600160a01b039091166004820152602401602060405180830381865afa158015610938573d6000803e3d6000fd5b505050506040513d601f19601f8201168201806040525081019061095c9190611c4b565b6109785760405162461bcd60e51b815260040161074a90611c6d565b60006009541161098757600080fd5b600982905560408051338152602081018490527fcccf2b6d79b744c1a827f0ad86745f230e1ef5e3aa0891d0a1a6b2e6e447b07491016108b7565b7f00000000000000000000000000000000000000000000000000000000000000006001600160a01b03811663dee1f0e4336040516001600160e01b031960e084901b1681526001600160a01b039091166004820152602401602060405180830381865afa158015610a37573d6000803e3d6000fd5b505050506040513d601f19601f82011682018060405250810190610a5b9190611c4b565b610a775760405162461bcd60e51b815260040161074a90611c6d565b610bb8821115610a8657600080fd5b600682905560408051338152602081018490527faec3b0dfb932ebcf519716c413557fafef520bf9d7a371d8ef50799927c70ff391016108b7565b7f00000000000000000000000000000000000000000000000000000000000000006001600160a01b03811663dee1f0e4336040516001600160e01b031960e084901b1681526001600160a01b039091166004820152602401602060405180830381865afa158015610b36573d6000803e3d6000fd5b505050506040513d601f19601f82011682018060405250810190610b5a9190611c4b565b610b765760405162461bcd60e51b815260040161074a90611c6d565b6001600160a01b038216610b8957600080fd5b6001600160a01b0382166000908152600e602052604090205460ff161515600114610bd2576001600160a01b0382166000908152600e60205260409020805460ff191660011790555b7ff5356ea32b86d53c1386eda4d869e6027a0a1d4edebb9c2f778d9f8559d236aa33836040516108b7929190611ca4565b6000546001600160a01b03163314610c2d5760405162461bcd60e51b815260040161074a90611cbe565b6004546001600160a01b03168015610c4457600080fd5b6005546001600160a01b03168015610c5b57600080fd5b6001600160a01b03841615801590610c7b57506001600160a01b03831615155b610c8457600080fd5b600480546001600160a01b038681166001600160a01b03199283168117909355600580549187169190921681179091556040805133815260208101939093528201527fb7ca9e57486893e0e5ce606ca83c7476f96585ff72732ee6e632c0695b72fbeb906060015b60405180910390a150505050565b610d2760405180608001604052806000151581526020016000815260200160008152602001600081525090565b506001600160a01b03166000908152600160208181526040928390208351608081018552815460ff16151581529281015491830191909152600281015492820192909252600390910154606082015290565b7f00000000000000000000000000000000000000000000000000000000000000006001600160a01b03811663dee1f0e4336040516001600160e01b031960e084901b1681526001600160a01b039091166004820152602401602060405180830381865afa158015610dee573d6000803e3d6000fd5b505050506040513d601f19601f82011682018060405250810190610e129190611c4b565b610e2e5760405162461bcd60e51b815260040161074a90611c6d565b6000805460ff60a01b191690556040513381527f15d2336aba2921f545ef5492de5c469a1aa3b00e0816b075e36897bcd10bfe4a90602001610792565b6000546001600160a01b03163314610e955760405162461bcd60e51b815260040161074a90611cbe565b610e9f6000611b3d565b565b600b546001600160a01b03168015610eb857600080fd5b600c546001600160a01b03168015610ecf57600080fd5b6001600160a01b03841615801590610eef57506001600160a01b03831615155b610ef857600080fd5b600b80546001600160a01b038087166001600160a01b031992831617909255600c8054928616929091169190911790556040517f3b231f7f1d3750272d9d4e4d7677990f114575b1e9334d0088dbb9e74483e16390610cec9086908690611ca4565b7f00000000000000000000000000000000000000000000000000000000000000006001600160a01b03811663dee1f0e4336040516001600160e01b031960e084901b1681526001600160a01b039091166004820152602401602060405180830381865afa158015610fcf573d6000803e3d6000fd5b505050506040513d601f19601f82011682018060405250810190610ff39190611c4b565b61100f5760405162461bcd60e51b815260040161074a90611c6d565b600782905560408051338152602081018490527f7c711ee19f0c912a57665c93f4d4e5c0eadfe3547c2a7674d27e359ddcc0126e91016108b7565b7f00000000000000000000000000000000000000000000000000000000000000006001600160a01b03811663dee1f0e4336040516001600160e01b031960e084901b1681526001600160a01b039091166004820152602401602060405180830381865afa1580156110bf573d6000803e3d6000fd5b505050506040513d601f19601f820116820180604052508101906110e39190611c4b565b6110ff5760405162461bcd60e51b815260040161074a90611c6d565b6001600160a01b03821660009081526001602052604090205460ff1615611172576001600160a01b03821660009081526001602052604090819020805460ff19169055517fd69d323ec27eb997f9c9466b0c1f1f37d65382a7caeee9c9cacaf093d6d0bb57906108b79033908590611ca4565b5050565b7f00000000000000000000000000000000000000000000000000000000000000006001600160a01b03811663dee1f0e4336040516001600160e01b031960e084901b1681526001600160a01b039091166004820152602401602060405180830381865afa1580156111eb573d6000803e3d6000fd5b505050506040513d601f19601f8201168201806040525081019061120f9190611c4b565b61122b5760405162461bcd60e51b815260040161074a90611c6d565b6001600160a01b03821661123e57600080fd5b6001600160a01b03821660009081526002602052604090205460ff161515600114611287576001600160a01b0382166000908152600260205260409020805460ff191660011790555b7fbfa39708e75c2b57953423380dc6d5f9416972bae39f35b1eff332f8cc0d841933836040516108b7929190611ca4565b6001600160a01b038082166000908152600d602052604090205416806113df576040516301ffc9a760e01b81526380ac58cd60e01b60048201526001600160a01b038316906301ffc9a790602401602060405180830381865afa158015611323573d6000803e3d6000fd5b505050506040513d601f19601f820116820180604052508101906113479190611c4b565b1561135d575050600b546001600160a01b031690565b6040516301ffc9a760e01b8152636cdb3d1360e11b60048201526001600160a01b038316906301ffc9a790602401602060405180830381865afa1580156113a8573d6000803e3d6000fd5b505050506040513d601f19601f820116820180604052508101906113cc9190611c4b565b156113df5750600c546001600160a01b03165b919050565b6001600160a01b0382161580159061140457506001600160a01b03811615155b61140d57600080fd5b6001600160a01b038281166000818152600d602090815260409182902080546001600160a01b03191694861694851790558151338152908101929092528101919091527f972fb0b53009a70e5374ad2e85aabd349201193cc5d85715a5b7b63137cb8ad7906060016108b7565b6000805481908190600160a01b900460ff16801561149c575061149c84611867565b156114c95760006114ac85610cfa565b9050806020015193508060400151925080606001519150506114d9565b60085492506009549150600a5490505b9193909250565b6000546001600160a01b0316331461150a5760405162461bcd60e51b815260040161074a90611cbe565b6003546001600160a01b0316801561152157600080fd5b6001600160a01b03821661153457600080fd5b600380546001600160a01b0319166001600160a01b0384161790556040517fa7ebd3b8f60f1612c46fda3d490cf7627bf136da9c5d474a5bd1d1bcaa3c898d906108b79033908590611ca4565b7f00000000000000000000000000000000000000000000000000000000000000006001600160a01b03811663dee1f0e4336040516001600160e01b031960e084901b1681526001600160a01b039091166004820152602401602060405180830381865afa1580156115f6573d6000803e3d6000fd5b505050506040513d601f19601f8201168201806040525081019061161a9190611c4b565b6116365760405162461bcd60e51b815260040161074a90611c6d565b6001600160a01b03851661164957600080fd5b8284111561165657600080fd5b6040805160808101825260018082526020808301888152838501888152606085018881526001600160a01b038c16600090815293859052928690209451855460ff19169015151785559051928401929092559051600283015551600390910155517f1d579ce37763c9894e144fe60df6d85b0eaa341ed20bcb7045de4a9327eb5115906116e69033908890611ca4565b60405180910390a15050505050565b7f00000000000000000000000000000000000000000000000000000000000000006001600160a01b03811663dee1f0e4336040516001600160e01b031960e084901b1681526001600160a01b039091166004820152602401602060405180830381865afa15801561176a573d6000803e3d6000fd5b505050506040513d601f19601f8201168201806040525081019061178e9190611c4b565b6117aa5760405162461bcd60e51b815260040161074a90611c6d565b6001600160a01b0382166117bd57600080fd5b6001600160a01b03821660009081526002602052604090819020805460ff19169055517f16142d8f56d140e51ef5a88861836c9a65b9af1bab0bbb809efa6b7a9055d9c6906108b79033908590611ca4565b6001600160a01b0381166000908152600d60205260409081902080546001600160a01b0319169055517f1616722fe9e1734b9f32ae9302fb74330136cecdc962e25fabc98185c5c92eb0906107929033908490611ca4565b60006001600160a01b03821661187c57600080fd5b600054600160a01b900460ff1615806118ad57506001600160a01b03821660009081526001602052604090205460ff165b92915050565b7f00000000000000000000000000000000000000000000000000000000000000006001600160a01b03811663dee1f0e4336040516001600160e01b031960e084901b1681526001600160a01b039091166004820152602401602060405180830381865afa158015611928573d6000803e3d6000fd5b505050506040513d601f19601f8201168201806040525081019061194c9190611c4b565b6119685760405162461bcd60e51b815260040161074a90611c6d565b60006008541161197757600080fd5b600882905560408051338152602081018490527fdb02dc087b6dff9517046962b8bebc2baf0dc57c322d08fd72d6ed4197f497cc91016108b7565b7f00000000000000000000000000000000000000000000000000000000000000006001600160a01b03811663dee1f0e4336040516001600160e01b031960e084901b1681526001600160a01b039091166004820152602401602060405180830381865afa158015611a27573d6000803e3d6000fd5b505050506040513d601f19601f82011682018060405250810190611a4b9190611c4b565b611a675760405162461bcd60e51b815260040161074a90611c6d565b600a82905560408051338152602081018490527f84bb6fd7054b5db22ce3c0418c9d65f63ce3ba62f757223bde70dcfb7354dd1891016108b7565b6000546001600160a01b03163314611acc5760405162461bcd60e51b815260040161074a90611cbe565b6001600160a01b038116611b315760405162461bcd60e51b815260206004820152602660248201527f4f776e61626c653a206e6577206f776e657220697320746865207a65726f206160448201526564647265737360d01b606482015260840161074a565b611b3a81611b3d565b50565b600080546001600160a01b038381166001600160a01b0319831681178455604051919092169283917f8be0079c531659141344cd1fd0a4f28419497f9722a3daafe3b4186f6b6457e09190a35050565b80356001600160a01b03811681146113df57600080fd5b600060208284031215611bb657600080fd5b611bbf82611b8d565b9392505050565b600060208284031215611bd857600080fd5b5035919050565b60008060408385031215611bf257600080fd5b611bfb83611b8d565b9150611c0960208401611b8d565b90509250929050565b60008060008060808587031215611c2857600080fd5b611c3185611b8d565b966020860135965060408601359560600135945092505050565b600060208284031215611c5d57600080fd5b81518015158114611bbf57600080fd5b6020808252601f908201527f424d5f41434c5f4f4e4c595f474f5645524e414e43455f43414e5f43414c4c00604082015260600190565b6001600160a01b0392831681529116602082015260400190565b6020808252818101527f4f776e61626c653a2063616c6c6572206973206e6f7420746865206f776e657260408201526060019056fea2646970667358221220cecf84466908e7775edf3ee80fd12e9709d38de7e01ade2d143e29f5f0d7ccfe64736f6c634300080a0033",
  "libraries": {
    "BespokeTypes": "0xA3f72EFE184A58706Ef2DeC6C6fbd6c58e8FDA20"
  },
  "devdoc": {
    "kind": "dev",
    "methods": {
      "owner()": {
        "details": "Returns the address of the current owner."
      },
      "renounceOwnership()": {
        "details": "Leaves the contract without owner. It will not be possible to call `onlyOwner` functions anymore. Can only be called by the current owner. NOTE: Renouncing ownership will leave the contract without an owner, thereby removing any functionality that is only available to the owner."
      },
      "transferOwnership(address)": {
        "details": "Transfers ownership of the contract to a new account (`newOwner`). Can only be called by the current owner."
      }
    },
    "version": 1
  },
  "userdoc": {
    "kind": "user",
    "methods": {},
    "version": 1
  },
  "storageLayout": {
    "storage": [
      {
        "astId": 387,
        "contract": "contracts/bespokemarket/OpenSkyBespokeSettings.sol:OpenSkyBespokeSettings",
        "label": "_owner",
        "offset": 0,
        "slot": "0",
        "type": "t_address"
      },
      {
        "astId": 14232,
        "contract": "contracts/bespokemarket/OpenSkyBespokeSettings.sol:OpenSkyBespokeSettings",
        "label": "isWhitelistOn",
        "offset": 20,
        "slot": "0",
        "type": "t_bool"
      },
      {
        "astId": 14237,
        "contract": "contracts/bespokemarket/OpenSkyBespokeSettings.sol:OpenSkyBespokeSettings",
        "label": "_whitelist",
        "offset": 0,
        "slot": "1",
        "type": "t_mapping(t_address,t_struct(WhitelistInfo)17006_storage)"
      },
      {
        "astId": 14241,
        "contract": "contracts/bespokemarket/OpenSkyBespokeSettings.sol:OpenSkyBespokeSettings",
        "label": "_currencyWhitelist",
        "offset": 0,
        "slot": "2",
        "type": "t_mapping(t_address,t_bool)"
      },
      {
        "astId": 14244,
        "contract": "contracts/bespokemarket/OpenSkyBespokeSettings.sol:OpenSkyBespokeSettings",
        "label": "marketAddress",
        "offset": 0,
        "slot": "3",
        "type": "t_address"
      },
      {
        "astId": 14247,
        "contract": "contracts/bespokemarket/OpenSkyBespokeSettings.sol:OpenSkyBespokeSettings",
        "label": "borrowLoanAddress",
        "offset": 0,
        "slot": "4",
        "type": "t_address"
      },
      {
        "astId": 14250,
        "contract": "contracts/bespokemarket/OpenSkyBespokeSettings.sol:OpenSkyBespokeSettings",
        "label": "lendLoanAddress",
        "offset": 0,
        "slot": "5",
        "type": "t_address"
      },
      {
        "astId": 14254,
        "contract": "contracts/bespokemarket/OpenSkyBespokeSettings.sol:OpenSkyBespokeSettings",
        "label": "reserveFactor",
        "offset": 0,
        "slot": "6",
        "type": "t_uint256"
      },
      {
        "astId": 14258,
        "contract": "contracts/bespokemarket/OpenSkyBespokeSettings.sol:OpenSkyBespokeSettings",
        "label": "overdueLoanFeeFactor",
        "offset": 0,
        "slot": "7",
        "type": "t_uint256"
      },
      {
        "astId": 14262,
        "contract": "contracts/bespokemarket/OpenSkyBespokeSettings.sol:OpenSkyBespokeSettings",
        "label": "minBorrowDuration",
        "offset": 0,
        "slot": "8",
        "type": "t_uint256"
      },
      {
        "astId": 14266,
        "contract": "contracts/bespokemarket/OpenSkyBespokeSettings.sol:OpenSkyBespokeSettings",
        "label": "maxBorrowDuration",
        "offset": 0,
        "slot": "9",
        "type": "t_uint256"
      },
      {
        "astId": 14270,
        "contract": "contracts/bespokemarket/OpenSkyBespokeSettings.sol:OpenSkyBespokeSettings",
        "label": "overdueDuration",
        "offset": 0,
        "slot": "10",
        "type": "t_uint256"
      },
      {
        "astId": 14278,
        "contract": "contracts/bespokemarket/OpenSkyBespokeSettings.sol:OpenSkyBespokeSettings",
        "label": "TRANSFER_ERC721",
        "offset": 0,
        "slot": "11",
        "type": "t_address"
      },
      {
        "astId": 14280,
        "contract": "contracts/bespokemarket/OpenSkyBespokeSettings.sol:OpenSkyBespokeSettings",
        "label": "TRANSFER_ERC1155",
        "offset": 0,
        "slot": "12",
        "type": "t_address"
      },
      {
        "astId": 14284,
        "contract": "contracts/bespokemarket/OpenSkyBespokeSettings.sol:OpenSkyBespokeSettings",
        "label": "_transferAdapters",
        "offset": 0,
        "slot": "13",
        "type": "t_mapping(t_address,t_address)"
      },
      {
        "astId": 14288,
        "contract": "contracts/bespokemarket/OpenSkyBespokeSettings.sol:OpenSkyBespokeSettings",
        "label": "_strategyWhitelist",
        "offset": 0,
        "slot": "14",
        "type": "t_mapping(t_address,t_bool)"
      }
    ],
    "types": {
      "t_address": {
        "encoding": "inplace",
        "label": "address",
        "numberOfBytes": "20"
      },
      "t_bool": {
        "encoding": "inplace",
        "label": "bool",
        "numberOfBytes": "1"
      },
      "t_mapping(t_address,t_address)": {
        "encoding": "mapping",
        "key": "t_address",
        "label": "mapping(address => address)",
        "numberOfBytes": "32",
        "value": "t_address"
      },
      "t_mapping(t_address,t_bool)": {
        "encoding": "mapping",
        "key": "t_address",
        "label": "mapping(address => bool)",
        "numberOfBytes": "32",
        "value": "t_bool"
      },
      "t_mapping(t_address,t_struct(WhitelistInfo)17006_storage)": {
        "encoding": "mapping",
        "key": "t_address",
        "label": "mapping(address => struct BespokeTypes.WhitelistInfo)",
        "numberOfBytes": "32",
        "value": "t_struct(WhitelistInfo)17006_storage"
      },
      "t_struct(WhitelistInfo)17006_storage": {
        "encoding": "inplace",
        "label": "struct BespokeTypes.WhitelistInfo",
        "members": [
          {
            "astId": 16999,
            "contract": "contracts/bespokemarket/OpenSkyBespokeSettings.sol:OpenSkyBespokeSettings",
            "label": "enabled",
            "offset": 0,
            "slot": "0",
            "type": "t_bool"
          },
          {
            "astId": 17001,
            "contract": "contracts/bespokemarket/OpenSkyBespokeSettings.sol:OpenSkyBespokeSettings",
            "label": "minBorrowDuration",
            "offset": 0,
            "slot": "1",
            "type": "t_uint256"
          },
          {
            "astId": 17003,
            "contract": "contracts/bespokemarket/OpenSkyBespokeSettings.sol:OpenSkyBespokeSettings",
            "label": "maxBorrowDuration",
            "offset": 0,
            "slot": "2",
            "type": "t_uint256"
          },
          {
            "astId": 17005,
            "contract": "contracts/bespokemarket/OpenSkyBespokeSettings.sol:OpenSkyBespokeSettings",
            "label": "overdueDuration",
            "offset": 0,
            "slot": "3",
            "type": "t_uint256"
          }
        ],
        "numberOfBytes": "128"
      },
      "t_uint256": {
        "encoding": "inplace",
        "label": "uint256",
        "numberOfBytes": "32"
      }
    }
  }
}