{
  "address": "0xF216321F8a9d8c02b965c4E9063e30649B1048c8",
  "abi": [
    {
      "inputs": [
        {
          "internalType": "contract IERC20",
          "name": "apeCoin",
          "type": "address"
        },
        {
          "internalType": "contract IApeCoinStaking",
          "name": "apeCoinStaking",
          "type": "address"
        },
        {
          "internalType": "contract IOpenSkySettings",
          "name": "settings",
          "type": "address"
        }
      ],
      "stateMutability": "nonpayable",
      "type": "constructor"
    },
    {
      "anonymous": false,
      "inputs": [
        {
          "indexed": true,
          "internalType": "address",
          "name": "owner",
          "type": "address"
        },
        {
          "indexed": true,
          "internalType": "address",
          "name": "spender",
          "type": "address"
        },
        {
          "indexed": false,
          "internalType": "uint256",
          "name": "value",
          "type": "uint256"
        }
      ],
      "name": "Approval",
      "type": "event"
    },
    {
      "anonymous": false,
      "inputs": [
        {
          "indexed": true,
          "internalType": "address",
          "name": "from",
          "type": "address"
        },
        {
          "indexed": true,
          "internalType": "address",
          "name": "to",
          "type": "address"
        },
        {
          "indexed": false,
          "internalType": "uint256",
          "name": "value",
          "type": "uint256"
        }
      ],
      "name": "Transfer",
      "type": "event"
    },
    {
      "inputs": [],
      "name": "APE_COIN",
      "outputs": [
        {
          "internalType": "contract IERC20",
          "name": "",
          "type": "address"
        }
      ],
      "stateMutability": "view",
      "type": "function"
    },
    {
      "inputs": [],
      "name": "APE_COIN_STAKING",
      "outputs": [
        {
          "internalType": "contract IApeCoinStaking",
          "name": "",
          "type": "address"
        }
      ],
      "stateMutability": "view",
      "type": "function"
    },
    {
      "inputs": [],
      "name": "SETTINGS",
      "outputs": [
        {
          "internalType": "contract IOpenSkySettings",
          "name": "",
          "type": "address"
        }
      ],
      "stateMutability": "view",
      "type": "function"
    },
    {
      "inputs": [
        {
          "internalType": "address",
          "name": "owner",
          "type": "address"
        },
        {
          "internalType": "address",
          "name": "spender",
          "type": "address"
        }
      ],
      "name": "allowance",
      "outputs": [
        {
          "internalType": "uint256",
          "name": "",
          "type": "uint256"
        }
      ],
      "stateMutability": "view",
      "type": "function"
    },
    {
      "inputs": [
        {
          "internalType": "address",
          "name": "spender",
          "type": "address"
        },
        {
          "internalType": "uint256",
          "name": "amount",
          "type": "uint256"
        }
      ],
      "name": "approve",
      "outputs": [
        {
          "internalType": "bool",
          "name": "",
          "type": "bool"
        }
      ],
      "stateMutability": "nonpayable",
      "type": "function"
    },
    {
      "inputs": [
        {
          "internalType": "address",
          "name": "account",
          "type": "address"
        }
      ],
      "name": "balanceOf",
      "outputs": [
        {
          "internalType": "uint256",
          "name": "",
          "type": "uint256"
        }
      ],
      "stateMutability": "view",
      "type": "function"
    },
    {
      "inputs": [],
      "name": "claim",
      "outputs": [],
      "stateMutability": "nonpayable",
      "type": "function"
    },
    {
      "inputs": [],
      "name": "decimals",
      "outputs": [
        {
          "internalType": "uint8",
          "name": "",
          "type": "uint8"
        }
      ],
      "stateMutability": "view",
      "type": "function"
    },
    {
      "inputs": [
        {
          "internalType": "address",
          "name": "spender",
          "type": "address"
        },
        {
          "internalType": "uint256",
          "name": "subtractedValue",
          "type": "uint256"
        }
      ],
      "name": "decreaseAllowance",
      "outputs": [
        {
          "internalType": "bool",
          "name": "",
          "type": "bool"
        }
      ],
      "stateMutability": "nonpayable",
      "type": "function"
    },
    {
      "inputs": [
        {
          "internalType": "uint256",
          "name": "_amount",
          "type": "uint256"
        }
      ],
      "name": "deposit",
      "outputs": [],
      "stateMutability": "nonpayable",
      "type": "function"
    },
    {
      "inputs": [
        {
          "internalType": "address",
          "name": "spender",
          "type": "address"
        },
        {
          "internalType": "uint256",
          "name": "addedValue",
          "type": "uint256"
        }
      ],
      "name": "increaseAllowance",
      "outputs": [
        {
          "internalType": "bool",
          "name": "",
          "type": "bool"
        }
      ],
      "stateMutability": "nonpayable",
      "type": "function"
    },
    {
      "inputs": [],
      "name": "name",
      "outputs": [
        {
          "internalType": "string",
          "name": "",
          "type": "string"
        }
      ],
      "stateMutability": "view",
      "type": "function"
    },
    {
      "inputs": [],
      "name": "symbol",
      "outputs": [
        {
          "internalType": "string",
          "name": "",
          "type": "string"
        }
      ],
      "stateMutability": "view",
      "type": "function"
    },
    {
      "inputs": [],
      "name": "totalSupply",
      "outputs": [
        {
          "internalType": "uint256",
          "name": "",
          "type": "uint256"
        }
      ],
      "stateMutability": "view",
      "type": "function"
    },
    {
      "inputs": [
        {
          "internalType": "address",
          "name": "recipient",
          "type": "address"
        },
        {
          "internalType": "uint256",
          "name": "amount",
          "type": "uint256"
        }
      ],
      "name": "transfer",
      "outputs": [
        {
          "internalType": "bool",
          "name": "",
          "type": "bool"
        }
      ],
      "stateMutability": "nonpayable",
      "type": "function"
    },
    {
      "inputs": [
        {
          "internalType": "address",
          "name": "sender",
          "type": "address"
        },
        {
          "internalType": "address",
          "name": "recipient",
          "type": "address"
        },
        {
          "internalType": "uint256",
          "name": "amount",
          "type": "uint256"
        }
      ],
      "name": "transferFrom",
      "outputs": [
        {
          "internalType": "bool",
          "name": "",
          "type": "bool"
        }
      ],
      "stateMutability": "nonpayable",
      "type": "function"
    },
    {
      "inputs": [
        {
          "internalType": "address",
          "name": "",
          "type": "address"
        }
      ],
      "name": "userProxies",
      "outputs": [
        {
          "internalType": "contract UserProxy",
          "name": "",
          "type": "address"
        }
      ],
      "stateMutability": "view",
      "type": "function"
    },
    {
      "inputs": [
        {
          "internalType": "uint256",
          "name": "_amount",
          "type": "uint256"
        }
      ],
      "name": "withdraw",
      "outputs": [],
      "stateMutability": "nonpayable",
      "type": "function"
    }
  ],
  "transactionHash": "0xc3c959e58db7c146dc8cb0b342f812c89d1e2283c1a38960d3cfde208a9e26a6",
  "args": [
    "0x328507DC29C95c170B56a1b3A758eB7a9E73455c",
    "0x831e0c7A89Dbc52a1911b78ebf4ab905354C96Ce",
    "0x90499A6848275e03E8De6608980F4e7d32fbaF6F"
  ],
  "solcInputHash": "c08a05136598e2539f04041466f19c06",
  "bytecode": "0x60e06040523480156200001157600080fd5b5060405162001d4d38038062001d4d833981016040819052620000349162000195565b6040518060400160405280601881526020017f4f70656e536b792041706520436f696e205374616b696e670000000000000000815250604051806040016040528060048152602001634f41504560e01b81525081600490805190602001906200009f929190620000d6565b508051620000b5906005906020840190620000d6565b5050506001600160a01b0392831660805290821660a0521660c05262000226565b828054620000e490620001e9565b90600052602060002090601f01602090048101928262000108576000855562000153565b82601f106200012357805160ff191683800117855562000153565b8280016001018555821562000153579182015b828111156200015357825182559160200191906001019062000136565b506200016192915062000165565b5090565b5b8082111562000161576000815560010162000166565b6001600160a01b03811681146200019257600080fd5b50565b600080600060608486031215620001ab57600080fd5b8351620001b8816200017c565b6020850151909350620001cb816200017c565b6040850151909250620001de816200017c565b809150509250925092565b600181811c90821680620001fe57607f821691505b602082108114156200022057634e487b7160e01b600052602260045260246000fd5b50919050565b60805160a05160c051611abf6200028e600039600081816102820152818161092c0152610aec01526000818161022d015281816104c40152818161056a0152818161069d015261073c0152600081816101c50152818161065e01526106cc0152611abf6000f3fe608060405234801561001057600080fd5b50600436106101165760003560e01c806370a08231116100a2578063a9059cbb11610071578063a9059cbb1461026a578063ade97ab51461027d578063b4e76d19146102a4578063b6b55f25146102cd578063dd62ed3e146102e057600080fd5b806370a08231146101ff578063884f13ae1461022857806395d89b411461024f578063a457c2d71461025757600080fd5b80632e1a7d4d116100e95780632e1a7d4d14610181578063313ce5671461019657806339509351146101a55780634e71d92d146101b857806369db6d1f146101c057600080fd5b806306fdde031461011b578063095ea7b31461013957806318160ddd1461015c57806323b872dd1461016e575b600080fd5b610123610319565b604051610130919061145e565b60405180910390f35b61014c610147366004611486565b6103ab565b6040519015158152602001610130565b6003545b604051908152602001610130565b61014c61017c3660046114b2565b6103c1565b61019461018f3660046114f3565b610472565b005b60405160128152602001610130565b61014c6101b3366004611486565b6104ed565b610194610529565b6101e77f000000000000000000000000000000000000000000000000000000000000000081565b6040516001600160a01b039091168152602001610130565b61016061020d36600461150c565b6001600160a01b031660009081526001602052604090205490565b6101e77f000000000000000000000000000000000000000000000000000000000000000081565b610123610592565b61014c610265366004611486565b6105a1565b61014c610278366004611486565b61063a565b6101e77f000000000000000000000000000000000000000000000000000000000000000081565b6101e76102b236600461150c565b6000602081905290815260409020546001600160a01b031681565b6101946102db3660046114f3565b610647565b6101606102ee366004611529565b6001600160a01b03918216600090815260026020908152604080832093909416825291909152205490565b60606004805461032890611562565b80601f016020809104026020016040519081016040528092919081815260200182805461035490611562565b80156103a15780601f10610376576101008083540402835291602001916103a1565b820191906000526020600020905b81548152906001019060200180831161038457829003601f168201915b5050505050905090565b60006103b83384846107d5565b50600192915050565b60006103ce8484846108fa565b6001600160a01b0384166000908152600260209081526040808320338452909152902054828110156104585760405162461bcd60e51b815260206004820152602860248201527f45524332303a207472616e7366657220616d6f756e74206578636565647320616044820152676c6c6f77616e636560c01b60648201526084015b60405180910390fd5b61046585338584036107d5565b60019150505b9392505050565b61047c3382610ac2565b6040516024810182905233604482015260009060640160408051601f198184030181529190526020810180516001600160e01b031663e4e8184760e01b17905290506104e9337f000000000000000000000000000000000000000000000000000000000000000083610bed565b5050565b3360008181526002602090815260408083206001600160a01b038716845290915281205490916103b89185906105249086906115b3565b6107d5565b60405133602482015260009060440160408051601f198184030181529190526020810180516001600160e01b03166317716f3360e11b179052905061058f337f000000000000000000000000000000000000000000000000000000000000000083610bed565b50565b60606005805461032890611562565b3360009081526002602090815260408083206001600160a01b0386168452909152812054828110156106235760405162461bcd60e51b815260206004820152602560248201527f45524332303a2064656372656173656420616c6c6f77616e63652062656c6f77604482015264207a65726f60d81b606482015260840161044f565b61063033858584036107d5565b5060019392505050565b60006103b83384846108fa565b6106513382610caf565b6106866001600160a01b037f000000000000000000000000000000000000000000000000000000000000000016333084610cd5565b60405163095ea7b360e01b81526001600160a01b037f000000000000000000000000000000000000000000000000000000000000000081166004830152602482018390527f0000000000000000000000000000000000000000000000000000000000000000169063095ea7b3906044016020604051808303816000875af1158015610715573d6000803e3d6000fd5b505050506040513d601f19601f8201168201806040525081019061073991906115cb565b507f00000000000000000000000000000000000000000000000000000000000000006001600160a01b031663bd5023a98261077333610d35565b6040516001600160e01b031960e085901b16815260048101929092526001600160a01b03166024820152604401600060405180830381600087803b1580156107ba57600080fd5b505af11580156107ce573d6000803e3d6000fd5b5050505050565b6001600160a01b0383166108375760405162461bcd60e51b8152602060048201526024808201527f45524332303a20617070726f76652066726f6d20746865207a65726f206164646044820152637265737360e01b606482015260840161044f565b6001600160a01b0382166108985760405162461bcd60e51b815260206004820152602260248201527f45524332303a20617070726f766520746f20746865207a65726f206164647265604482015261737360f01b606482015260840161044f565b6001600160a01b0383811660008181526002602090815260408083209487168084529482529182902085905590518481527f8c5be1e5ebec7d5bd14f71427d1e84f3dd0314c0f7b2291e5b200ac8c7c3b92591015b60405180910390a3505050565b6001600160a01b03838116600090815260016020526040808220549285168252902054610928858585610db7565b60007f00000000000000000000000000000000000000000000000000000000000000006001600160a01b0316636d6a723c6040518163ffffffff1660e01b8152600401602060405180830381865afa158015610988573d6000803e3d6000fd5b505050506040513d601f19601f820116820180604052508101906109ac91906115ed565b90506001600160a01b03811615610aba5760006109c860035490565b6040516318c39f1760e11b81526001600160a01b0389811660048301526024820187905260448201839052919250908316906331873e2e90606401600060405180830381600087803b158015610a1d57600080fd5b505af1158015610a31573d6000803e3d6000fd5b50505050856001600160a01b0316876001600160a01b031614610ab8576040516318c39f1760e11b81526001600160a01b03878116600483015260248201859052604482018390528316906331873e2e90606401600060405180830381600087803b158015610a9f57600080fd5b505af1158015610ab3573d6000803e3d6000fd5b505050505b505b505050505050565b6001600160a01b038216600090815260016020526040902054600354610ae88484610f85565b60007f00000000000000000000000000000000000000000000000000000000000000006001600160a01b0316636d6a723c6040518163ffffffff1660e01b8152600401602060405180830381865afa158015610b48573d6000803e3d6000fd5b505050506040513d601f19601f82011682018060405250810190610b6c91906115ed565b90506001600160a01b038116156107ce576040516318c39f1760e11b81526001600160a01b03868116600483015260248201859052604482018490528216906331873e2e90606401600060405180830381600087803b158015610bce57600080fd5b505af1158015610be2573d6000803e3d6000fd5b505050505050505050565b336000908152602081905260409020546001600160a01b0316610c415760405162461bcd60e51b815260206004820152600c60248201526b4841535f4e4f5f50524f585960a01b604482015260640161044f565b6001600160a01b03808416600090815260208190526040808220549051631409412160e31b815292169163a04a090891610c81918691869160040161160a565b600060405180830381600087803b158015610c9b57600080fd5b505af1158015610ab8573d6000803e3d6000fd5b6001600160a01b038216600090815260016020526040902054600354610ae884846110d0565b604080516001600160a01b0385811660248301528416604482015260648082018490528251808303909101815260849091019091526020810180516001600160e01b03166323b872dd60e01b179052610d2f9085906111af565b50505050565b6001600160a01b0380821660009081526020819052604081205490911680610db157604051610d63906113f9565b604051809103906000f080158015610d7f573d6000803e3d6000fd5b506001600160a01b03848116600090815260208190526040902080546001600160a01b03191691831691909117905590505b92915050565b6001600160a01b038316610e1b5760405162461bcd60e51b815260206004820152602560248201527f45524332303a207472616e736665722066726f6d20746865207a65726f206164604482015264647265737360d81b606482015260840161044f565b6001600160a01b038216610e7d5760405162461bcd60e51b815260206004820152602360248201527f45524332303a207472616e7366657220746f20746865207a65726f206164647260448201526265737360e81b606482015260840161044f565b6001600160a01b03831660009081526001602052604090205481811015610ef55760405162461bcd60e51b815260206004820152602660248201527f45524332303a207472616e7366657220616d6f756e7420657863656564732062604482015265616c616e636560d01b606482015260840161044f565b6001600160a01b03808516600090815260016020526040808220858503905591851681529081208054849290610f2c9084906115b3565b92505081905550826001600160a01b0316846001600160a01b03167fddf252ad1be2c89b69c2b068fc378daa952ba7f163c4a11628f55a4df523b3ef84604051610f7891815260200190565b60405180910390a3610d2f565b6001600160a01b038216610fe55760405162461bcd60e51b815260206004820152602160248201527f45524332303a206275726e2066726f6d20746865207a65726f206164647265736044820152607360f81b606482015260840161044f565b6001600160a01b038216600090815260016020526040902054818110156110595760405162461bcd60e51b815260206004820152602260248201527f45524332303a206275726e20616d6f756e7420657863656564732062616c616e604482015261636560f01b606482015260840161044f565b6001600160a01b038316600090815260016020526040812083830390556003805484929061108890849061163e565b90915550506040518281526000906001600160a01b038516907fddf252ad1be2c89b69c2b068fc378daa952ba7f163c4a11628f55a4df523b3ef906020016108ed565b505050565b6001600160a01b0382166111265760405162461bcd60e51b815260206004820152601f60248201527f45524332303a206d696e7420746f20746865207a65726f206164647265737300604482015260640161044f565b806003600082825461113891906115b3565b90915550506001600160a01b038216600090815260016020526040812080548392906111659084906115b3565b90915550506040518181526001600160a01b038316906000907fddf252ad1be2c89b69c2b068fc378daa952ba7f163c4a11628f55a4df523b3ef9060200160405180910390a35050565b6000611204826040518060400160405280602081526020017f5361666545524332303a206c6f772d6c6576656c2063616c6c206661696c6564815250856001600160a01b03166112819092919063ffffffff16565b8051909150156110cb578080602001905181019061122291906115cb565b6110cb5760405162461bcd60e51b815260206004820152602a60248201527f5361666545524332303a204552433230206f7065726174696f6e20646964206e6044820152691bdd081cdd58d8d9595960b21b606482015260840161044f565b60606112908484600085611298565b949350505050565b6060824710156112f95760405162461bcd60e51b815260206004820152602660248201527f416464726573733a20696e73756666696369656e742062616c616e636520666f6044820152651c8818d85b1b60d21b606482015260840161044f565b843b6113475760405162461bcd60e51b815260206004820152601d60248201527f416464726573733a2063616c6c20746f206e6f6e2d636f6e7472616374000000604482015260640161044f565b600080866001600160a01b031685876040516113639190611655565b60006040518083038185875af1925050503d80600081146113a0576040519150601f19603f3d011682016040523d82523d6000602084013e6113a5565b606091505b50915091506113b58282866113c0565b979650505050505050565b606083156113cf57508161046b565b8251156113df5782518084602001fd5b8160405162461bcd60e51b815260040161044f919061145e565b6104188061167283390190565b60005b83811015611421578181015183820152602001611409565b83811115610d2f5750506000910152565b6000815180845261144a816020860160208601611406565b601f01601f19169290920160200192915050565b60208152600061046b6020830184611432565b6001600160a01b038116811461058f57600080fd5b6000806040838503121561149957600080fd5b82356114a481611471565b946020939093013593505050565b6000806000606084860312156114c757600080fd5b83356114d281611471565b925060208401356114e281611471565b929592945050506040919091013590565b60006020828403121561150557600080fd5b5035919050565b60006020828403121561151e57600080fd5b813561046b81611471565b6000806040838503121561153c57600080fd5b823561154781611471565b9150602083013561155781611471565b809150509250929050565b600181811c9082168061157657607f821691505b6020821081141561159757634e487b7160e01b600052602260045260246000fd5b50919050565b634e487b7160e01b600052601160045260246000fd5b600082198211156115c6576115c661159d565b500190565b6000602082840312156115dd57600080fd5b8151801515811461046b57600080fd5b6000602082840312156115ff57600080fd5b815161046b81611471565b6001600160a01b038416815260606020820181905260009061162e90830185611432565b9050826040830152949350505050565b6000828210156116505761165061159d565b500390565b60008251611667818460208701611406565b919091019291505056fe60a060405234801561001057600080fd5b50336080526080516103e3610035600039600081816087015260e101526103e36000f3fe608060405234801561001057600080fd5b50600436106100415760003560e01c8063150b7a02146100465780638da5cb5b14610082578063a04a0908146100c1575b600080fd5b6100646100543660046102b3565b630a85bd0160e11b949350505050565b6040516001600160e01b031990911681526020015b60405180910390f35b6100a97f000000000000000000000000000000000000000000000000000000000000000081565b6040516001600160a01b039091168152602001610079565b6100d46100cf36600461031b565b6100d6565b005b336001600160a01b037f000000000000000000000000000000000000000000000000000000000000000016146101405760405162461bcd60e51b815260206004820152600a60248201526927a7262cafa7aba722a960b11b60448201526064015b60405180910390fd5b6000836001600160a01b0316828460405161015b9190610372565b60006040518083038185875af1925050503d8060008114610198576040519150601f19603f3d011682016040523d82523d6000602084013e61019d565b606091505b50509050806101ee5760405162461bcd60e51b815260206004820152601760248201527f4c4f575f4c4556454c5f43414c4c5f52455645525445440000000000000000006044820152606401610137565b50505050565b80356001600160a01b038116811461020b57600080fd5b919050565b634e487b7160e01b600052604160045260246000fd5b600082601f83011261023757600080fd5b813567ffffffffffffffff8082111561025257610252610210565b604051601f8301601f19908116603f0116810190828211818310171561027a5761027a610210565b8160405283815286602085880101111561029357600080fd5b836020870160208301376000602085830101528094505050505092915050565b600080600080608085870312156102c957600080fd5b6102d2856101f4565b93506102e0602086016101f4565b925060408501359150606085013567ffffffffffffffff81111561030357600080fd5b61030f87828801610226565b91505092959194509250565b60008060006060848603121561033057600080fd5b610339846101f4565b9250602084013567ffffffffffffffff81111561035557600080fd5b61036186828701610226565b925050604084013590509250925092565b6000825160005b818110156103935760208186018101518583015201610379565b818111156103a2576000828501525b50919091019291505056fea2646970667358221220d17253e5a11c66bc856d64965e99321ab66fa1ee8d48b52052ffaf60e5570ef564736f6c634300080a0033a26469706673582212209092927507c1c665c9ef3fbb057fe8ea7729933eb154d442e4de9a8d19e601cc64736f6c634300080a0033",
  "devdoc": {
    "kind": "dev",
    "methods": {
      "allowance(address,address)": {
        "details": "See {IERC20-allowance}."
      },
      "approve(address,uint256)": {
        "details": "See {IERC20-approve}. Requirements: - `spender` cannot be the zero address."
      },
      "balanceOf(address)": {
        "details": "See {IERC20-balanceOf}."
      },
      "decimals()": {
        "details": "Returns the number of decimals used to get its user representation. For example, if `decimals` equals `2`, a balance of `505` tokens should be displayed to a user as `5.05` (`505 / 10 ** 2`). Tokens usually opt for a value of 18, imitating the relationship between Ether and Wei. This is the value {ERC20} uses, unless this function is overridden; NOTE: This information is only used for _display_ purposes: it in no way affects any of the arithmetic of the contract, including {IERC20-balanceOf} and {IERC20-transfer}."
      },
      "decreaseAllowance(address,uint256)": {
        "details": "Atomically decreases the allowance granted to `spender` by the caller. This is an alternative to {approve} that can be used as a mitigation for problems described in {IERC20-approve}. Emits an {Approval} event indicating the updated allowance. Requirements: - `spender` cannot be the zero address. - `spender` must have allowance for the caller of at least `subtractedValue`."
      },
      "increaseAllowance(address,uint256)": {
        "details": "Atomically increases the allowance granted to `spender` by the caller. This is an alternative to {approve} that can be used as a mitigation for problems described in {IERC20-approve}. Emits an {Approval} event indicating the updated allowance. Requirements: - `spender` cannot be the zero address."
      },
      "name()": {
        "details": "Returns the name of the token."
      },
      "symbol()": {
        "details": "Returns the symbol of the token, usually a shorter version of the name."
      },
      "totalSupply()": {
        "details": "See {IERC20-totalSupply}."
      },
      "transfer(address,uint256)": {
        "details": "See {IERC20-transfer}. Requirements: - `recipient` cannot be the zero address. - the caller must have a balance of at least `amount`."
      },
      "transferFrom(address,address,uint256)": {
        "details": "See {IERC20-transferFrom}. Emits an {Approval} event indicating the updated allowance. This is not required by the EIP. See the note at the beginning of {ERC20}. Requirements: - `sender` and `recipient` cannot be the zero address. - `sender` must have a balance of at least `amount`. - the caller must have allowance for ``sender``'s tokens of at least `amount`."
      }
    },
    "version": 1
  },
  "userdoc": {
    "kind": "user",
    "methods": {},
    "version": 1
  },
  "storageLayout": {
    "storage": [
      {
        "astId": 26649,
        "contract": "contracts/misc/ape-staking/OpenSkyApeCoinStaking.sol:OpenSkyApeCoinStaking",
        "label": "userProxies",
        "offset": 0,
        "slot": "0",
        "type": "t_mapping(t_address,t_contract(UserProxy)26778)"
      },
      {
        "astId": 2768,
        "contract": "contracts/misc/ape-staking/OpenSkyApeCoinStaking.sol:OpenSkyApeCoinStaking",
        "label": "_balances",
        "offset": 0,
        "slot": "1",
        "type": "t_mapping(t_address,t_uint256)"
      },
      {
        "astId": 2774,
        "contract": "contracts/misc/ape-staking/OpenSkyApeCoinStaking.sol:OpenSkyApeCoinStaking",
        "label": "_allowances",
        "offset": 0,
        "slot": "2",
        "type": "t_mapping(t_address,t_mapping(t_address,t_uint256))"
      },
      {
        "astId": 2776,
        "contract": "contracts/misc/ape-staking/OpenSkyApeCoinStaking.sol:OpenSkyApeCoinStaking",
        "label": "_totalSupply",
        "offset": 0,
        "slot": "3",
        "type": "t_uint256"
      },
      {
        "astId": 2778,
        "contract": "contracts/misc/ape-staking/OpenSkyApeCoinStaking.sol:OpenSkyApeCoinStaking",
        "label": "_name",
        "offset": 0,
        "slot": "4",
        "type": "t_string_storage"
      },
      {
        "astId": 2780,
        "contract": "contracts/misc/ape-staking/OpenSkyApeCoinStaking.sol:OpenSkyApeCoinStaking",
        "label": "_symbol",
        "offset": 0,
        "slot": "5",
        "type": "t_string_storage"
      }
    ],
    "types": {
      "t_address": {
        "encoding": "inplace",
        "label": "address",
        "numberOfBytes": "20"
      },
      "t_contract(UserProxy)26778": {
        "encoding": "inplace",
        "label": "contract UserProxy",
        "numberOfBytes": "20"
      },
      "t_mapping(t_address,t_contract(UserProxy)26778)": {
        "encoding": "mapping",
        "key": "t_address",
        "label": "mapping(address => contract UserProxy)",
        "numberOfBytes": "32",
        "value": "t_contract(UserProxy)26778"
      },
      "t_mapping(t_address,t_mapping(t_address,t_uint256))": {
        "encoding": "mapping",
        "key": "t_address",
        "label": "mapping(address => mapping(address => uint256))",
        "numberOfBytes": "32",
        "value": "t_mapping(t_address,t_uint256)"
      },
      "t_mapping(t_address,t_uint256)": {
        "encoding": "mapping",
        "key": "t_address",
        "label": "mapping(address => uint256)",
        "numberOfBytes": "32",
        "value": "t_uint256"
      },
      "t_string_storage": {
        "encoding": "bytes",
        "label": "string",
        "numberOfBytes": "32"
      },
      "t_uint256": {
        "encoding": "inplace",
        "label": "uint256",
        "numberOfBytes": "32"
      }
    }
  }
}