{
  "address": "0xe0ea3A8D949B886A85F05836873c0c2bcBd81878",
  "abi": [
    {
      "inputs": [
        {
          "internalType": "contract IOpenSkySettings",
          "name": "settings",
          "type": "address"
        },
        {
          "internalType": "contract IOpenSkyPriceAggregator",
          "name": "priceAggregator",
          "type": "address"
        }
      ],
      "stateMutability": "nonpayable",
      "type": "constructor"
    },
    {
      "anonymous": false,
      "inputs": [
        {
          "indexed": true,
          "internalType": "address",
          "name": "previousOwner",
          "type": "address"
        },
        {
          "indexed": true,
          "internalType": "address",
          "name": "newOwner",
          "type": "address"
        }
      ],
      "name": "OwnershipTransferred",
      "type": "event"
    },
    {
      "anonymous": false,
      "inputs": [
        {
          "indexed": true,
          "internalType": "address",
          "name": "operator",
          "type": "address"
        },
        {
          "indexed": false,
          "internalType": "address",
          "name": "priceAggregator",
          "type": "address"
        }
      ],
      "name": "SetPriceAggregator",
      "type": "event"
    },
    {
      "anonymous": false,
      "inputs": [
        {
          "indexed": true,
          "internalType": "address",
          "name": "operator",
          "type": "address"
        },
        {
          "indexed": false,
          "internalType": "uint256",
          "name": "roundInterval",
          "type": "uint256"
        }
      ],
      "name": "SetRoundInterval",
      "type": "event"
    },
    {
      "anonymous": false,
      "inputs": [
        {
          "indexed": true,
          "internalType": "address",
          "name": "operator",
          "type": "address"
        },
        {
          "indexed": false,
          "internalType": "uint256",
          "name": "timeInterval",
          "type": "uint256"
        }
      ],
      "name": "SetTimeInterval",
      "type": "event"
    },
    {
      "anonymous": false,
      "inputs": [
        {
          "indexed": true,
          "internalType": "address",
          "name": "nftAddress",
          "type": "address"
        },
        {
          "indexed": false,
          "internalType": "uint256",
          "name": "price",
          "type": "uint256"
        },
        {
          "indexed": false,
          "internalType": "uint256",
          "name": "timestamp",
          "type": "uint256"
        },
        {
          "indexed": false,
          "internalType": "uint256",
          "name": "roundId",
          "type": "uint256"
        }
      ],
      "name": "UpdatePrice",
      "type": "event"
    },
    {
      "inputs": [],
      "name": "SETTINGS",
      "outputs": [
        {
          "internalType": "contract IOpenSkySettings",
          "name": "",
          "type": "address"
        }
      ],
      "stateMutability": "view",
      "type": "function"
    },
    {
      "inputs": [
        {
          "internalType": "address",
          "name": "nftAddress",
          "type": "address"
        }
      ],
      "name": "getLatestRoundId",
      "outputs": [
        {
          "internalType": "uint256",
          "name": "",
          "type": "uint256"
        }
      ],
      "stateMutability": "view",
      "type": "function"
    },
    {
      "inputs": [
        {
          "internalType": "uint256",
          "name": "reserveId",
          "type": "uint256"
        },
        {
          "internalType": "address",
          "name": "nftAddress",
          "type": "address"
        },
        {
          "internalType": "uint256",
          "name": "tokenId",
          "type": "uint256"
        }
      ],
      "name": "getPrice",
      "outputs": [
        {
          "internalType": "uint256",
          "name": "",
          "type": "uint256"
        }
      ],
      "stateMutability": "view",
      "type": "function"
    },
    {
      "inputs": [
        {
          "internalType": "address",
          "name": "nftAddress",
          "type": "address"
        },
        {
          "internalType": "uint256",
          "name": "index",
          "type": "uint256"
        }
      ],
      "name": "getPriceData",
      "outputs": [
        {
          "components": [
            {
              "internalType": "uint256",
              "name": "roundId",
              "type": "uint256"
            },
            {
              "internalType": "uint256",
              "name": "price",
              "type": "uint256"
            },
            {
              "internalType": "uint256",
              "name": "timestamp",
              "type": "uint256"
            },
            {
              "internalType": "uint256",
              "name": "cumulativePrice",
              "type": "uint256"
            }
          ],
          "internalType": "struct OpenSkyCollateralPriceOracle.NFTPriceData",
          "name": "",
          "type": "tuple"
        }
      ],
      "stateMutability": "view",
      "type": "function"
    },
    {
      "inputs": [
        {
          "internalType": "address",
          "name": "nftAddress",
          "type": "address"
        }
      ],
      "name": "getPriceFeedLength",
      "outputs": [
        {
          "internalType": "uint256",
          "name": "length",
          "type": "uint256"
        }
      ],
      "stateMutability": "view",
      "type": "function"
    },
    {
      "inputs": [
        {
          "internalType": "address",
          "name": "nftAddress",
          "type": "address"
        },
        {
          "internalType": "uint256",
          "name": "roundInterval",
          "type": "uint256"
        }
      ],
      "name": "getTwapPriceByRoundInterval",
      "outputs": [
        {
          "internalType": "uint256",
          "name": "",
          "type": "uint256"
        }
      ],
      "stateMutability": "view",
      "type": "function"
    },
    {
      "inputs": [
        {
          "internalType": "address",
          "name": "nftAddress",
          "type": "address"
        },
        {
          "internalType": "uint256",
          "name": "timeInterval",
          "type": "uint256"
        }
      ],
      "name": "getTwapPriceByTimeInterval",
      "outputs": [
        {
          "internalType": "uint256",
          "name": "",
          "type": "uint256"
        }
      ],
      "stateMutability": "view",
      "type": "function"
    },
    {
      "inputs": [
        {
          "internalType": "address",
          "name": "",
          "type": "address"
        },
        {
          "internalType": "uint256",
          "name": "",
          "type": "uint256"
        }
      ],
      "name": "nftPriceFeedMap",
      "outputs": [
        {
          "internalType": "uint256",
          "name": "roundId",
          "type": "uint256"
        },
        {
          "internalType": "uint256",
          "name": "price",
          "type": "uint256"
        },
        {
          "internalType": "uint256",
          "name": "timestamp",
          "type": "uint256"
        },
        {
          "internalType": "uint256",
          "name": "cumulativePrice",
          "type": "uint256"
        }
      ],
      "stateMutability": "view",
      "type": "function"
    },
    {
      "inputs": [],
      "name": "owner",
      "outputs": [
        {
          "internalType": "address",
          "name": "",
          "type": "address"
        }
      ],
      "stateMutability": "view",
      "type": "function"
    },
    {
      "inputs": [],
      "name": "renounceOwnership",
      "outputs": [],
      "stateMutability": "nonpayable",
      "type": "function"
    },
    {
      "inputs": [
        {
          "internalType": "address",
          "name": "priceAggregator",
          "type": "address"
        }
      ],
      "name": "setPriceAggregator",
      "outputs": [],
      "stateMutability": "nonpayable",
      "type": "function"
    },
    {
      "inputs": [
        {
          "internalType": "uint256",
          "name": "roundInterval",
          "type": "uint256"
        }
      ],
      "name": "setRoundInterval",
      "outputs": [],
      "stateMutability": "nonpayable",
      "type": "function"
    },
    {
      "inputs": [
        {
          "internalType": "uint256",
          "name": "timeInterval",
          "type": "uint256"
        }
      ],
      "name": "setTimeInterval",
      "outputs": [],
      "stateMutability": "nonpayable",
      "type": "function"
    },
    {
      "inputs": [
        {
          "internalType": "address",
          "name": "newOwner",
          "type": "address"
        }
      ],
      "name": "transferOwnership",
      "outputs": [],
      "stateMutability": "nonpayable",
      "type": "function"
    },
    {
      "inputs": [
        {
          "internalType": "address",
          "name": "nftAddress",
          "type": "address"
        },
        {
          "internalType": "uint256",
          "name": "price",
          "type": "uint256"
        },
        {
          "internalType": "uint256",
          "name": "timestamp",
          "type": "uint256"
        }
      ],
      "name": "updatePrice",
      "outputs": [],
      "stateMutability": "nonpayable",
      "type": "function"
    },
    {
      "inputs": [
        {
          "internalType": "address[]",
          "name": "nftAddresses",
          "type": "address[]"
        },
        {
          "internalType": "uint256[]",
          "name": "prices",
          "type": "uint256[]"
        },
        {
          "internalType": "uint256",
          "name": "timestamp",
          "type": "uint256"
        }
      ],
      "name": "updatePrices",
      "outputs": [],
      "stateMutability": "nonpayable",
      "type": "function"
    }
  ],
  "transactionHash": "0xa0cd5f68097a2ead9fc3e90479f3c7f7aa12e3f607ac277f8c293bc91c0b9203",
  "args": [
    "0x90499A6848275e03E8De6608980F4e7d32fbaF6F",
    "0x0000000000000000000000000000000000000000"
  ],
  "solcInputHash": "5939a0e20f2c0ab642d83f5f31a14362",
  "bytecode": "0x60a060405234801561001057600080fd5b50604051620014ec380380620014ec833981016040819052610031916100ca565b61003a33610062565b6001600160a01b03918216608052600280546001600160a01b03191691909216179055610104565b600080546001600160a01b038381166001600160a01b0319831681178455604051919092169283917f8be0079c531659141344cd1fd0a4f28419497f9722a3daafe3b4186f6b6457e09190a35050565b6001600160a01b03811681146100c757600080fd5b50565b600080604083850312156100dd57600080fd5b82516100e8816100b2565b60208401519092506100f9816100b2565b809150509250929050565b6080516113c56200012760003960008181610237015261059c01526113c56000f3fe608060405234801561001057600080fd5b50600436106101005760003560e01c806398f5ec8911610097578063c1c060eb11610066578063c1c060eb1461026c578063e57d6fb71461027f578063ef1d95b114610292578063f2fde38b146102bb57600080fd5b806398f5ec891461020c5780639f8d01cf1461021f578063ade97ab514610232578063be0aa10a1461025957600080fd5b8063715018a6116100d3578063715018a61461016657806371da42321461016e5780638da5cb5b146101b45780638e1db39d146101d957600080fd5b806325423a1b146101055780632ef9bb561461011a5780635070e8371461014057806350d16d9f14610153575b600080fd5b610118610113366004610f80565b6102ce565b005b61012d610128366004610fb0565b61033f565b6040519081526020015b60405180910390f35b61011861014e366004610fda565b6104f9565b61012d610161366004610ff5565b610573565b6101186106c9565b61018161017c366004610fb0565b6106ff565b60405161013791908151815260208083015190820152604080830151908201526060918201519181019190915260800190565b6000546001600160a01b03165b6040516001600160a01b039091168152602001610137565b6101ec6101e7366004610fb0565b61079d565b604080519485526020850193909352918301526060820152608001610137565b61012d61021a366004610fda565b6107e3565b61012d61022d366004610fb0565b61085a565b6101c17f000000000000000000000000000000000000000000000000000000000000000081565b610118610267366004610f80565b610b23565b61011861027a366004611100565b610b84565b61011861028d3660046111c9565b610c4f565b61012d6102a0366004610fda565b6001600160a01b031660009081526001602052604090205490565b6101186102c9366004610fda565b610e6d565b6000546001600160a01b031633146103015760405162461bcd60e51b81526004016102f8906111fc565b60405180910390fd5b600481905560405181815233907fabf6e8b581c7c5a11408b7883dda70fe166c01b7de024145c52b9ce65e65c297906020015b60405180910390a250565b6001600160a01b038216600090815260016020526040812054806103675760009150506104f3565b6000610374600183611247565b6001600160a01b038616600090815260016020526040812080549293509091839081106103a3576103a361125e565b9060005260206000209060040201604051806080016040529081600082015481526020016001820154815260200160028201548152602001600382015481525050905084600014806103f55750826001145b15610408576020015192506104f3915050565b6000858311610418576000610422565b6104228684611247565b6001600160a01b038816600090815260016020526040812080549293509091839081106104515761045161125e565b906000526020600020906004020160405180608001604052908160008201548152602001600182015481526020016002820154815260200160038201548152505090508060400151426104a49190611247565b816060015184606001518560400151426104be9190611247565b86602001516104cd9190611274565b6104d79190611293565b6104e19190611247565b6104eb91906112ab565b955050505050505b92915050565b6000546001600160a01b031633146105235760405162461bcd60e51b81526004016102f8906111fc565b600280546001600160a01b0319166001600160a01b03831690811790915560405190815233907f76508b552b036909d1ef6263ab9968fcd15a3946beaed8ab32d365eebda22cbf90602001610334565b6040516346296c6960e01b8152600481018490526001600160a01b0383811660248301526000917f0000000000000000000000000000000000000000000000000000000000000000909116906346296c6990604401602060405180830381865afa1580156105e5573d6000803e3d6000fd5b505050506040513d601f19601f8201168201806040525081019061060991906112cd565b610615575060006106c2565b6002546001600160a01b03166106355761062e83610f08565b90506106c2565b60025460405163b3596f0760e01b81526001600160a01b038581166004830152600092169063b3596f0790602401602060405180830381865afa158015610680573d6000803e3d6000fd5b505050506040513d601f19601f820116820180604052508101906106a491906112ef565b9050600081116106bc576106b784610f08565b6106be565b805b9150505b9392505050565b6000546001600160a01b031633146106f35760405162461bcd60e51b81526004016102f8906111fc565b6106fd6000610f30565b565b61072a6040518060800160405280600081526020016000815260200160008152602001600081525090565b6001600160a01b03831660009081526001602052604090208054839081106107545761075461125e565b9060005260206000209060040201604051806080016040529081600082015481526020016001820154815260200160028201548152602001600382015481525050905092915050565b600160205281600052604060002081815481106107b957600080fd5b60009182526020909120600490910201805460018201546002830154600390930154919450925084565b6001600160a01b0381166000908152600160205260408120548061080a5750600092915050565b6001600160a01b0383166000908152600160208190526040909120906108309083611247565b815481106108405761084061125e565b906000526020600020906004020160000154915050919050565b6001600160a01b038216600090815260016020526040812054806108825760009150506104f3565b6001600160a01b03841660009081526001602081905260408220906108a79084611247565b815481106108b7576108b761125e565b600091825260208083206040805160808101825260049094029091018054845260018101549284019290925260028201549083015260030154606082015291506109018542611247565b90508082604001511161091c57506020015191506104f39050565b6001600160a01b0386166000908152600160205260408120805482906109445761094461125e565b90600052602060002090600402016040518060800160405290816000820154815260200160018201548152602001600282015481526020016003820154815250509050818160400151106109f25760408101516109a19042611247565b816060015184606001516109b59190611247565b60408501516109c49042611247565b85602001516109d39190611274565b6109dd9190611293565b6109e791906112ab565b9450505050506104f3565b60006109ff600186611247565b6001600160a01b03891660009081526001602052604081208054929350909183908110610a2e57610a2e61125e565b906000526020600020906004020190505b600082118015610a525750838160020154115b15610aa0576001600160a01b0389166000908152600160205260409020610a7883611308565b92508281548110610a8b57610a8b61125e565b90600052602060002090600402019050610a3f565b600081600301548660600151610ab69190611247565b6040870151610ac59042611247565b8760200151610ad49190611274565b610ade9190611293565b9050816002015485610af09190611247565b8260010154610aff9190611274565b610b099082611247565b9050610b1589826112ab565b9a9950505050505050505050565b6000546001600160a01b03163314610b4d5760405162461bcd60e51b81526004016102f8906111fc565b600381905560405181815233907f42d5fb6bd1c891b48042adc0b0ccf42f2234cf96b305fc788634ab7e049a057390602001610334565b6000546001600160a01b03163314610bae5760405162461bcd60e51b81526004016102f8906111fc565b8151835114604051806040016040528060038152602001621b181960e91b81525090610bed5760405162461bcd60e51b81526004016102f8919061131f565b5060005b8351811015610c4957610c37848281518110610c0f57610c0f61125e565b6020026020010151848381518110610c2957610c2961125e565b602002602001015184610c4f565b80610c4181611374565b915050610bf1565b50505050565b6000546001600160a01b03163314610c795760405162461bcd60e51b81526004016102f8906111fc565b6001600160a01b03831660009081526001602052604081208054909190610cc45760405180608001604052806000815260200160008152602001600081526020016000815250610d26565b81548290610cd490600190611247565b81548110610ce457610ce461125e565b90600052602060002090600402016040518060800160405290816000820154815260200160018201548152602001600282015481526020016003820154815250505b9050806040015183116040518060400160405280600381526020016236303160e81b81525090610d695760405162461bcd60e51b81526004016102f8919061131f565b50600080826040015111610d7e576000610dab565b60208201516040830151610d929086611247565b610d9c9190611274565b8260600151610dab9190611293565b8251909150600090610dbe906001611293565b6040805160808101825282815260208082018a81528284018a815260608085018981528b5460018082018e5560008e8152879020885160049093020191825594519481019490945591516002840155905160039092019190915583518b81529182018a9052928101849052929350916001600160a01b038a16917f4d6cdc4bf30d671bff4fa58d357739401159d387074fda59c92b40a7872fd9ed910160405180910390a25050505050505050565b6000546001600160a01b03163314610e975760405162461bcd60e51b81526004016102f8906111fc565b6001600160a01b038116610efc5760405162461bcd60e51b815260206004820152602660248201527f4f776e61626c653a206e6577206f776e657220697320746865207a65726f206160448201526564647265737360d01b60648201526084016102f8565b610f0581610f30565b50565b60045460009015610f1f576104f38260045461085a565b6104f38260035461033f565b919050565b600080546001600160a01b038381166001600160a01b0319831681178455604051919092169283917f8be0079c531659141344cd1fd0a4f28419497f9722a3daafe3b4186f6b6457e09190a35050565b600060208284031215610f9257600080fd5b5035919050565b80356001600160a01b0381168114610f2b57600080fd5b60008060408385031215610fc357600080fd5b610fcc83610f99565b946020939093013593505050565b600060208284031215610fec57600080fd5b6106c282610f99565b60008060006060848603121561100a57600080fd5b8335925061101a60208501610f99565b9150604084013590509250925092565b634e487b7160e01b600052604160045260246000fd5b604051601f8201601f1916810167ffffffffffffffff811182821017156110695761106961102a565b604052919050565b600067ffffffffffffffff82111561108b5761108b61102a565b5060051b60200190565b600082601f8301126110a657600080fd5b813560206110bb6110b683611071565b611040565b82815260059290921b840181019181810190868411156110da57600080fd5b8286015b848110156110f557803583529183019183016110de565b509695505050505050565b60008060006060848603121561111557600080fd5b833567ffffffffffffffff8082111561112d57600080fd5b818601915086601f83011261114157600080fd5b813560206111516110b683611071565b82815260059290921b8401810191818101908a84111561117057600080fd5b948201945b838610156111955761118686610f99565b82529482019490820190611175565b975050870135925050808211156111ab57600080fd5b506111b886828701611095565b925050604084013590509250925092565b6000806000606084860312156111de57600080fd5b6111e784610f99565b95602085013595506040909401359392505050565b6020808252818101527f4f776e61626c653a2063616c6c6572206973206e6f7420746865206f776e6572604082015260600190565b634e487b7160e01b600052601160045260246000fd5b60008282101561125957611259611231565b500390565b634e487b7160e01b600052603260045260246000fd5b600081600019048311821515161561128e5761128e611231565b500290565b600082198211156112a6576112a6611231565b500190565b6000826112c857634e487b7160e01b600052601260045260246000fd5b500490565b6000602082840312156112df57600080fd5b815180151581146106c257600080fd5b60006020828403121561130157600080fd5b5051919050565b60008161131757611317611231565b506000190190565b600060208083528351808285015260005b8181101561134c57858101830151858201604001528201611330565b8181111561135e576000604083870101525b50601f01601f1916929092016040019392505050565b600060001982141561138857611388611231565b506001019056fea264697066735822122025253749fa1e55da783d4b883119849d56bdd03bb1077d2d6539da87e701411064736f6c634300080a0033",
  "devdoc": {
    "author": "OpenSky Labs",
    "details": "Implements logics of the collateral price oracle for the OpenSky protocol*",
    "kind": "dev",
    "methods": {
      "getLatestRoundId(address)": {
        "params": {
          "nftAddress": "The address of the NFT"
        },
        "returns": {
          "_0": "The latest round id*"
        }
      },
      "getPrice(uint256,address,uint256)": {
        "params": {
          "nftAddress": "The address of the NFT",
          "reserveId": "The id of the reserve",
          "tokenId": "The id of the NFT"
        },
        "returns": {
          "_0": "The price of the NFT*"
        }
      },
      "getPriceData(address,uint256)": {
        "params": {
          "index": "The index of the feed",
          "nftAddress": "The address of the NFT"
        },
        "returns": {
          "_0": "The data of the price feed*"
        }
      },
      "getPriceFeedLength(address)": {
        "params": {
          "nftAddress": "The address of the NFT"
        },
        "returns": {
          "length": "The count of price feeds*"
        }
      },
      "getTwapPriceByRoundInterval(address,uint256)": {
        "params": {
          "nftAddress": "The address of the NFT",
          "roundInterval": "The round interval"
        },
        "returns": {
          "_0": "The price of the NFT*"
        }
      },
      "getTwapPriceByTimeInterval(address,uint256)": {
        "params": {
          "nftAddress": "The address of the NFT",
          "timeInterval": "The time interval"
        },
        "returns": {
          "_0": "The price of the NFT*"
        }
      },
      "owner()": {
        "details": "Returns the address of the current owner."
      },
      "renounceOwnership()": {
        "details": "Leaves the contract without owner. It will not be possible to call `onlyOwner` functions anymore. Can only be called by the current owner. NOTE: Renouncing ownership will leave the contract without an owner, thereby removing any functionality that is only available to the owner."
      },
      "setRoundInterval(uint256)": {
        "params": {
          "roundInterval": "The round interval will be set*"
        }
      },
      "setTimeInterval(uint256)": {
        "params": {
          "timeInterval": "The time interval will be set*"
        }
      },
      "transferOwnership(address)": {
        "details": "Transfers ownership of the contract to a new account (`newOwner`). Can only be called by the current owner."
      },
      "updatePrice(address,uint256,uint256)": {
        "params": {
          "nftAddress": "The address of the NFT",
          "price": "The price of the NFT",
          "timestamp": "The timestamp when the price happened*"
        }
      },
      "updatePrices(address[],uint256[],uint256)": {
        "params": {
          "nftAddresses": "Addresses of NFT collections",
          "prices": "Floor prices of NFT collections",
          "timestamp": "The timestamp when prices happened*"
        }
      }
    },
    "title": "OpenSkyCollateralPriceOracle contract",
    "version": 1
  },
  "userdoc": {
    "kind": "user",
    "methods": {
      "getLatestRoundId(address)": {
        "notice": "Returns the latest round id of the particular NFT"
      },
      "getPrice(uint256,address,uint256)": {
        "notice": "Returns the NFT price in ETH"
      },
      "getPriceData(address,uint256)": {
        "notice": "Returns the data of the particular price feed"
      },
      "getPriceFeedLength(address)": {
        "notice": "Returns the count of price feeds about the particular NFT"
      },
      "getTwapPriceByRoundInterval(address,uint256)": {
        "notice": "Returns the TWAP price of NFT during the particular round interval"
      },
      "getTwapPriceByTimeInterval(address,uint256)": {
        "notice": "Returns the TWAP price of NFT during the particular time interval"
      },
      "setRoundInterval(uint256)": {
        "notice": "Sets round interval that is used for calculating TWAP price"
      },
      "setTimeInterval(uint256)": {
        "notice": "Sets time interval that is used for calculating TWAP price"
      },
      "updatePrice(address,uint256,uint256)": {
        "notice": "Updates the floor price of the NFT collection"
      },
      "updatePrices(address[],uint256[],uint256)": {
        "notice": "Updates floor prices of NFT collections"
      }
    },
    "version": 1
  },
  "storageLayout": {
    "storage": [
      {
        "astId": 387,
        "contract": "contracts/OpenSkyCollateralPriceOracle.sol:OpenSkyCollateralPriceOracle",
        "label": "_owner",
        "offset": 0,
        "slot": "0",
        "type": "t_address"
      },
      {
        "astId": 7862,
        "contract": "contracts/OpenSkyCollateralPriceOracle.sol:OpenSkyCollateralPriceOracle",
        "label": "nftPriceFeedMap",
        "offset": 0,
        "slot": "1",
        "type": "t_mapping(t_address,t_array(t_struct(NFTPriceData)7878_storage)dyn_storage)"
      },
      {
        "astId": 7865,
        "contract": "contracts/OpenSkyCollateralPriceOracle.sol:OpenSkyCollateralPriceOracle",
        "label": "_priceAggregator",
        "offset": 0,
        "slot": "2",
        "type": "t_contract(IOpenSkyPriceAggregator)19579"
      },
      {
        "astId": 7867,
        "contract": "contracts/OpenSkyCollateralPriceOracle.sol:OpenSkyCollateralPriceOracle",
        "label": "_roundInterval",
        "offset": 0,
        "slot": "3",
        "type": "t_uint256"
      },
      {
        "astId": 7869,
        "contract": "contracts/OpenSkyCollateralPriceOracle.sol:OpenSkyCollateralPriceOracle",
        "label": "_timeInterval",
        "offset": 0,
        "slot": "4",
        "type": "t_uint256"
      }
    ],
    "types": {
      "t_address": {
        "encoding": "inplace",
        "label": "address",
        "numberOfBytes": "20"
      },
      "t_array(t_struct(NFTPriceData)7878_storage)dyn_storage": {
        "base": "t_struct(NFTPriceData)7878_storage",
        "encoding": "dynamic_array",
        "label": "struct OpenSkyCollateralPriceOracle.NFTPriceData[]",
        "numberOfBytes": "32"
      },
      "t_contract(IOpenSkyPriceAggregator)19579": {
        "encoding": "inplace",
        "label": "contract IOpenSkyPriceAggregator",
        "numberOfBytes": "20"
      },
      "t_mapping(t_address,t_array(t_struct(NFTPriceData)7878_storage)dyn_storage)": {
        "encoding": "mapping",
        "key": "t_address",
        "label": "mapping(address => struct OpenSkyCollateralPriceOracle.NFTPriceData[])",
        "numberOfBytes": "32",
        "value": "t_array(t_struct(NFTPriceData)7878_storage)dyn_storage"
      },
      "t_struct(NFTPriceData)7878_storage": {
        "encoding": "inplace",
        "label": "struct OpenSkyCollateralPriceOracle.NFTPriceData",
        "members": [
          {
            "astId": 7871,
            "contract": "contracts/OpenSkyCollateralPriceOracle.sol:OpenSkyCollateralPriceOracle",
            "label": "roundId",
            "offset": 0,
            "slot": "0",
            "type": "t_uint256"
          },
          {
            "astId": 7873,
            "contract": "contracts/OpenSkyCollateralPriceOracle.sol:OpenSkyCollateralPriceOracle",
            "label": "price",
            "offset": 0,
            "slot": "1",
            "type": "t_uint256"
          },
          {
            "astId": 7875,
            "contract": "contracts/OpenSkyCollateralPriceOracle.sol:OpenSkyCollateralPriceOracle",
            "label": "timestamp",
            "offset": 0,
            "slot": "2",
            "type": "t_uint256"
          },
          {
            "astId": 7877,
            "contract": "contracts/OpenSkyCollateralPriceOracle.sol:OpenSkyCollateralPriceOracle",
            "label": "cumulativePrice",
            "offset": 0,
            "slot": "3",
            "type": "t_uint256"
          }
        ],
        "numberOfBytes": "128"
      },
      "t_uint256": {
        "encoding": "inplace",
        "label": "uint256",
        "numberOfBytes": "32"
      }
    }
  }
}