{
  "address": "0x3D6EAefC702520BE54B5CfcfA8eB50209AD995F0",
  "abi": [
    {
      "inputs": [
        {
          "internalType": "address",
          "name": "_apeCoinStakingContractAddress",
          "type": "address"
        },
        {
          "internalType": "address",
          "name": "_apeCoinContractAddress",
          "type": "address"
        },
        {
          "internalType": "address",
          "name": "_instantLoanCollateralHolder",
          "type": "address"
        },
        {
          "internalType": "address",
          "name": "_bespokeLoanCollateralHolder",
          "type": "address"
        }
      ],
      "stateMutability": "nonpayable",
      "type": "constructor"
    },
    {
      "inputs": [],
      "name": "apeCoin",
      "outputs": [
        {
          "internalType": "contract IERC20",
          "name": "",
          "type": "address"
        }
      ],
      "stateMutability": "view",
      "type": "function"
    },
    {
      "inputs": [],
      "name": "apeCoinStaking",
      "outputs": [
        {
          "internalType": "contract IApeCoinStaking",
          "name": "",
          "type": "address"
        }
      ],
      "stateMutability": "view",
      "type": "function"
    },
    {
      "inputs": [],
      "name": "bespokeLoanCollateralHolder",
      "outputs": [
        {
          "internalType": "address",
          "name": "",
          "type": "address"
        }
      ],
      "stateMutability": "view",
      "type": "function"
    },
    {
      "inputs": [
        {
          "internalType": "address[]",
          "name": "nftAddresses",
          "type": "address[]"
        },
        {
          "internalType": "uint256[]",
          "name": "tokenIds",
          "type": "uint256[]"
        },
        {
          "internalType": "address",
          "name": "initiator",
          "type": "address"
        },
        {
          "internalType": "address",
          "name": "operator",
          "type": "address"
        },
        {
          "internalType": "bytes",
          "name": "params",
          "type": "bytes"
        }
      ],
      "name": "executeOperation",
      "outputs": [
        {
          "internalType": "bool",
          "name": "",
          "type": "bool"
        }
      ],
      "stateMutability": "nonpayable",
      "type": "function"
    },
    {
      "inputs": [],
      "name": "instantLoanCollateralHolder",
      "outputs": [
        {
          "internalType": "address",
          "name": "",
          "type": "address"
        }
      ],
      "stateMutability": "view",
      "type": "function"
    },
    {
      "inputs": [
        {
          "internalType": "address",
          "name": "",
          "type": "address"
        },
        {
          "internalType": "address",
          "name": "",
          "type": "address"
        },
        {
          "internalType": "uint256",
          "name": "",
          "type": "uint256"
        },
        {
          "internalType": "bytes",
          "name": "",
          "type": "bytes"
        }
      ],
      "name": "onERC721Received",
      "outputs": [
        {
          "internalType": "bytes4",
          "name": "",
          "type": "bytes4"
        }
      ],
      "stateMutability": "nonpayable",
      "type": "function"
    }
  ],
  "transactionHash": "0x42075d14ea4f0e95355baf8220a6c1b21814da086843a178e23975792d5b4230",
  "args": [
    "0xa57B0DCAFAE3B6afe27785F1D7e38E8525D4b0ED",
    "0x328507DC29C95c170B56a1b3A758eB7a9E73455c",
    "0xE033690a465122C0b17d4ea0D6B3588e6F041655",
    "0x5eBB5d0723EcD6c4740b8832f0bE316AA543960A"
  ],
  "solcInputHash": "9e1e6dee5aeb57ae73c5c9721affdabd",
  "bytecode": "0x61010060405234801561001157600080fd5b50604051610eeb380380610eeb8339810160408190526100309161006e565b6001600160a01b03918216608052811660a05291821660c0521660e0526100c2565b80516001600160a01b038116811461006957600080fd5b919050565b6000806000806080858703121561008457600080fd5b61008d85610052565b935061009b60208601610052565b92506100a960408601610052565b91506100b760608601610052565b905092959194509250565b60805160a05160c05160e051610dc76101246000396000818161010a015281816102e401526103190152600081816101580152818161033b015261037701526000818160cb01526101b901526000818161013101526101870152610dc76000f3fe608060405234801561001057600080fd5b50600436106100625760003560e01c806308e896f014610067578063150b7a021461008f578063595d6976146100c6578063ac7ad9ba14610105578063c28f87831461012c578063c9112a7714610153575b600080fd5b61007a6100753660046108fc565b61017a565b60405190151581526020015b60405180910390f35b6100ad61009d366004610a57565b630a85bd0160e11b949350505050565b6040516001600160e01b03199091168152602001610086565b6100ed7f000000000000000000000000000000000000000000000000000000000000000081565b6040516001600160a01b039091168152602001610086565b6100ed7f000000000000000000000000000000000000000000000000000000000000000081565b6100ed7f000000000000000000000000000000000000000000000000000000000000000081565b6100ed7f000000000000000000000000000000000000000000000000000000000000000081565b6000336001600160a01b037f00000000000000000000000000000000000000000000000000000000000000001614806101db5750336001600160a01b037f000000000000000000000000000000000000000000000000000000000000000016145b61022c5760405162461bcd60e51b815260206004820152601e60248201527f4f4e4c595f4f50454e534b595f434f4c4c41544552414c5f484f4c444552000060448201526064015b60405180910390fd5b336001600160a01b038516146102735760405162461bcd60e51b815260206004820152600c60248201526b2820a920a6a9afa2a92927a960a11b6044820152606401610223565b600061028183850185610b17565b90506000805b82518110156102d6578281815181106102a2576102a2610c03565b6020026020010151602001516001600160e01b0316826102c29190610c2f565b9150806102ce81610c47565b915050610287565b5061030c6001600160a01b037f0000000000000000000000000000000000000000000000000000000000000000168830846104bd565b6103606001600160a01b037f0000000000000000000000000000000000000000000000000000000000000000167f00000000000000000000000000000000000000000000000000000000000000008361052e565b6040516346583a0560e01b81526001600160a01b037f000000000000000000000000000000000000000000000000000000000000000016906346583a05906103ac908590600401610c62565b600060405180830381600087803b1580156103c657600080fd5b505af11580156103da573d6000803e3d6000fd5b5050505060005b8a8110156104ab578b8b828181106103fb576103fb610c03565b90506020020160208101906104109190610cc0565b6001600160a01b031663095ea7b3888c8c8581811061043157610431610c03565b6040516001600160e01b031960e087901b1681526001600160a01b0390941660048501526020029190910135602483015250604401600060405180830381600087803b15801561048057600080fd5b505af1158015610494573d6000803e3d6000fd5b5050505080806104a390610c47565b9150506103e1565b5060019b9a5050505050505050505050565b6040516001600160a01b03808516602483015283166044820152606481018290526105289085906323b872dd60e01b906084015b60408051601f198184030181529190526020810180516001600160e01b03166001600160e01b031990931692909217909152610648565b50505050565b8015806105a85750604051636eb1769f60e11b81523060048201526001600160a01b03838116602483015284169063dd62ed3e90604401602060405180830381865afa158015610582573d6000803e3d6000fd5b505050506040513d601f19601f820116820180604052508101906105a69190610cdb565b155b6106135760405162461bcd60e51b815260206004820152603660248201527f5361666545524332303a20617070726f76652066726f6d206e6f6e2d7a65726f60448201527520746f206e6f6e2d7a65726f20616c6c6f77616e636560501b6064820152608401610223565b6040516001600160a01b03831660248201526044810182905261064390849063095ea7b360e01b906064016104f1565b505050565b600061069d826040518060400160405280602081526020017f5361666545524332303a206c6f772d6c6576656c2063616c6c206661696c6564815250856001600160a01b031661071a9092919063ffffffff16565b80519091501561064357808060200190518101906106bb9190610cf4565b6106435760405162461bcd60e51b815260206004820152602a60248201527f5361666545524332303a204552433230206f7065726174696f6e20646964206e6044820152691bdd081cdd58d8d9595960b21b6064820152608401610223565b60606107298484600085610733565b90505b9392505050565b6060824710156107945760405162461bcd60e51b815260206004820152602660248201527f416464726573733a20696e73756666696369656e742062616c616e636520666f6044820152651c8818d85b1b60d21b6064820152608401610223565b843b6107e25760405162461bcd60e51b815260206004820152601d60248201527f416464726573733a2063616c6c20746f206e6f6e2d636f6e74726163740000006044820152606401610223565b600080866001600160a01b031685876040516107fe9190610d42565b60006040518083038185875af1925050503d806000811461083b576040519150601f19603f3d011682016040523d82523d6000602084013e610840565b606091505b509150915061085082828661085b565b979650505050505050565b6060831561086a57508161072c565b82511561087a5782518084602001fd5b8160405162461bcd60e51b81526004016102239190610d5e565b60008083601f8401126108a657600080fd5b50813567ffffffffffffffff8111156108be57600080fd5b6020830191508360208260051b85010111156108d957600080fd5b9250929050565b80356001600160a01b03811681146108f757600080fd5b919050565b60008060008060008060008060a0898b03121561091857600080fd5b883567ffffffffffffffff8082111561093057600080fd5b61093c8c838d01610894565b909a50985060208b013591508082111561095557600080fd5b6109618c838d01610894565b909850965086915061097560408c016108e0565b955061098360608c016108e0565b945060808b013591508082111561099957600080fd5b818b0191508b601f8301126109ad57600080fd5b8135818111156109bc57600080fd5b8c60208285010111156109ce57600080fd5b6020830194508093505050509295985092959890939650565b634e487b7160e01b600052604160045260246000fd5b6040805190810167ffffffffffffffff81118282101715610a2057610a206109e7565b60405290565b604051601f8201601f1916810167ffffffffffffffff81118282101715610a4f57610a4f6109e7565b604052919050565b60008060008060808587031215610a6d57600080fd5b610a76856108e0565b93506020610a858187016108e0565b935060408601359250606086013567ffffffffffffffff80821115610aa957600080fd5b818801915088601f830112610abd57600080fd5b813581811115610acf57610acf6109e7565b610ae1601f8201601f19168501610a26565b91508082528984828501011115610af757600080fd5b808484018584013760008482840101525080935050505092959194509250565b60006020808385031215610b2a57600080fd5b823567ffffffffffffffff80821115610b4257600080fd5b818501915085601f830112610b5657600080fd5b813581811115610b6857610b686109e7565b610b76848260051b01610a26565b818152848101925060069190911b830184019087821115610b9657600080fd5b928401925b818410156108505760408489031215610bb45760008081fd5b610bbc6109fd565b843563ffffffff81168114610bd15760008081fd5b8152848601356001600160e01b0381168114610bed5760008081fd5b8187015283526040939093019291840191610b9b565b634e487b7160e01b600052603260045260246000fd5b634e487b7160e01b600052601160045260246000fd5b60008219821115610c4257610c42610c19565b500190565b6000600019821415610c5b57610c5b610c19565b5060010190565b602080825282518282018190526000919060409081850190868401855b82811015610cb3578151805163ffffffff1685528601516001600160e01b0316868501529284019290850190600101610c7f565b5091979650505050505050565b600060208284031215610cd257600080fd5b61072c826108e0565b600060208284031215610ced57600080fd5b5051919050565b600060208284031215610d0657600080fd5b8151801515811461072c57600080fd5b60005b83811015610d31578181015183820152602001610d19565b838111156105285750506000910152565b60008251610d54818460208701610d16565b9190910192915050565b6020815260008251806020840152610d7d816040850160208701610d16565b601f01601f1916919091016040019291505056fea26469706673582212206b3661d13907e42dad5d6cd55c027400cff808ace3b4f71c14240466bf27931164736f6c634300080a0033",
  "devdoc": {
    "kind": "dev",
    "methods": {
      "onERC721Received(address,address,uint256,bytes)": {
        "details": "See {IERC721Receiver-onERC721Received}. Always returns `IERC721Receiver.onERC721Received.selector`."
      }
    },
    "version": 1
  },
  "userdoc": {
    "kind": "user",
    "methods": {},
    "version": 1
  },
  "storageLayout": {
    "storage": [],
    "types": null
  }
}