{
  "address": "0x9F40b4b83A38B3Eb3Fdc8724823aC5f13b87F422",
  "abi": [
    {
      "inputs": [
        {
          "internalType": "contract IAaveLendPoolAddressesProvider",
          "name": "provider",
          "type": "address"
        },
        {
          "internalType": "contract IOpenSkyBespokeSettings",
          "name": "bespokeSettings",
          "type": "address"
        },
        {
          "internalType": "contract IOpenSkySettings",
          "name": "poolSettings",
          "type": "address"
        }
      ],
      "stateMutability": "nonpayable",
      "type": "constructor"
    },
    {
      "anonymous": false,
      "inputs": [
        {
          "indexed": true,
          "internalType": "address",
          "name": "asset",
          "type": "address"
        },
        {
          "indexed": true,
          "internalType": "address",
          "name": "borrower",
          "type": "address"
        },
        {
          "indexed": false,
          "internalType": "uint256",
          "name": "oldLoanId",
          "type": "uint256"
        },
        {
          "indexed": false,
          "internalType": "uint256",
          "name": "newLoanId",
          "type": "uint256"
        }
      ],
      "name": "RefinancePoolToBespoke",
      "type": "event"
    },
    {
      "inputs": [],
      "name": "AAVE2_ADDRESSES_PROVIDER",
      "outputs": [
        {
          "internalType": "contract IAaveLendPoolAddressesProvider",
          "name": "",
          "type": "address"
        }
      ],
      "stateMutability": "view",
      "type": "function"
    },
    {
      "inputs": [],
      "name": "BESPOKE_SETTINGS",
      "outputs": [
        {
          "internalType": "contract IOpenSkyBespokeSettings",
          "name": "",
          "type": "address"
        }
      ],
      "stateMutability": "view",
      "type": "function"
    },
    {
      "inputs": [],
      "name": "SETTINGS",
      "outputs": [
        {
          "internalType": "contract IOpenSkySettings",
          "name": "",
          "type": "address"
        }
      ],
      "stateMutability": "view",
      "type": "function"
    },
    {
      "inputs": [],
      "name": "aavePool",
      "outputs": [
        {
          "internalType": "contract IAaveLendPool",
          "name": "",
          "type": "address"
        }
      ],
      "stateMutability": "nonpayable",
      "type": "function"
    },
    {
      "inputs": [
        {
          "internalType": "address[]",
          "name": "assets",
          "type": "address[]"
        },
        {
          "internalType": "uint256[]",
          "name": "amounts",
          "type": "uint256[]"
        },
        {
          "internalType": "uint256[]",
          "name": "premiums",
          "type": "uint256[]"
        },
        {
          "internalType": "address",
          "name": "initiator",
          "type": "address"
        },
        {
          "internalType": "bytes",
          "name": "params",
          "type": "bytes"
        }
      ],
      "name": "executeOperation",
      "outputs": [
        {
          "internalType": "bool",
          "name": "",
          "type": "bool"
        }
      ],
      "stateMutability": "nonpayable",
      "type": "function"
    },
    {
      "inputs": [
        {
          "internalType": "address",
          "name": "",
          "type": "address"
        },
        {
          "internalType": "address",
          "name": "",
          "type": "address"
        },
        {
          "internalType": "uint256[]",
          "name": "",
          "type": "uint256[]"
        },
        {
          "internalType": "uint256[]",
          "name": "",
          "type": "uint256[]"
        },
        {
          "internalType": "bytes",
          "name": "",
          "type": "bytes"
        }
      ],
      "name": "onERC1155BatchReceived",
      "outputs": [
        {
          "internalType": "bytes4",
          "name": "",
          "type": "bytes4"
        }
      ],
      "stateMutability": "nonpayable",
      "type": "function"
    },
    {
      "inputs": [
        {
          "internalType": "address",
          "name": "",
          "type": "address"
        },
        {
          "internalType": "address",
          "name": "",
          "type": "address"
        },
        {
          "internalType": "uint256",
          "name": "",
          "type": "uint256"
        },
        {
          "internalType": "uint256",
          "name": "",
          "type": "uint256"
        },
        {
          "internalType": "bytes",
          "name": "",
          "type": "bytes"
        }
      ],
      "name": "onERC1155Received",
      "outputs": [
        {
          "internalType": "bytes4",
          "name": "",
          "type": "bytes4"
        }
      ],
      "stateMutability": "nonpayable",
      "type": "function"
    },
    {
      "inputs": [
        {
          "internalType": "address",
          "name": "",
          "type": "address"
        },
        {
          "internalType": "address",
          "name": "",
          "type": "address"
        },
        {
          "internalType": "uint256",
          "name": "",
          "type": "uint256"
        },
        {
          "internalType": "bytes",
          "name": "",
          "type": "bytes"
        }
      ],
      "name": "onERC721Received",
      "outputs": [
        {
          "internalType": "bytes4",
          "name": "",
          "type": "bytes4"
        }
      ],
      "stateMutability": "nonpayable",
      "type": "function"
    },
    {
      "inputs": [
        {
          "internalType": "bytes4",
          "name": "interfaceId",
          "type": "bytes4"
        }
      ],
      "name": "supportsInterface",
      "outputs": [
        {
          "internalType": "bool",
          "name": "",
          "type": "bool"
        }
      ],
      "stateMutability": "view",
      "type": "function"
    }
  ],
  "transactionHash": "0x00a8479ae9f25974381158b9c8ebae1e3f62f393eeaea7b4eb695a5d9398d4f9",
  "args": [
    "0x9C3106e111a3317d3662F4a3f9622B6d17EC79fE",
    "0xb349d9e0a18C00e7edC0Ef5ea4CcB297BB85B812",
    "0x90499A6848275e03E8De6608980F4e7d32fbaF6F"
  ],
  "solcInputHash": "10f59c690702e999a672788cf48201bb",
  "bytecode": "0x60e06040523480156200001157600080fd5b5060405162001f8438038062001f8483398101604081905262000034916200006b565b6001600160a01b0392831660805290821660c0521660a052620000bf565b6001600160a01b03811681146200006857600080fd5b50565b6000806000606084860312156200008157600080fd5b83516200008e8162000052565b6020850151909350620000a18162000052565b6040850151909250620000b48162000052565b809150509250925092565b60805160a05160c051611e50620001346000396000818161013b0152818161094201528181610a140152610c2e01526000818161017d0152818161030f01528181610403015281816104fb015281816105f001528181610728015261081f01526000818160c50152610deb0152611e506000f3fe608060405234801561001057600080fd5b50600436106100935760003560e01c8063920f5c8411610066578063920f5c841461015d578063a03e4bc314610170578063ade97ab514610178578063bc197c811461019f578063f23a6e61146101be57600080fd5b806301ffc9a71461009857806311ea536e146100c0578063150b7a02146100ff57806329c55f0614610136575b600080fd5b6100ab6100a6366004611271565b6101dd565b60405190151581526020015b60405180910390f35b6100e77f000000000000000000000000000000000000000000000000000000000000000081565b6040516001600160a01b0390911681526020016100b7565b61011d61010d3660046113c2565b630a85bd0160e11b949350505050565b6040516001600160e01b031990911681526020016100b7565b6100e77f000000000000000000000000000000000000000000000000000000000000000081565b6100ab61016b366004611478565b610214565b6100e7610de7565b6100e77f000000000000000000000000000000000000000000000000000000000000000081565b61011d6101ad3660046115f0565b63bc197c8160e01b95945050505050565b61011d6101cc36600461169d565b63f23a6e6160e01b95945050505050565b60006001600160e01b03198216630271189760e51b148061020e57506301ffc9a760e01b6001600160e01b03198316145b92915050565b60006001891480156102265750600187145b80156102325750600185145b6102975760405162461bcd60e51b815260206004820152602b60248201527f424d5f464c4153485f4c4f414e5f4d554c5449504c455f4153534554535f4e4f60448201526a1517d4d5541413d495115160aa1b60648201526084015b60405180910390fd5b61029f611162565b6102ab83850185611705565b6001600160a01b031660a083015260e0820181905280516102d4916020918101820191016117cf565b61010085018190526080850191909152606084019190915290825280516103049190810160209081019101611888565b8161012001819052507f00000000000000000000000000000000000000000000000000000000000000006001600160a01b03166335bc868a6040518163ffffffff1660e01b8152600401602060405180830381865afa15801561036b573d6000803e3d6000fd5b505050506040513d601f19601f8201168201806040525081019061038f9190611a0d565b60a08201518251604051632142170760e11b81526001600160a01b03928316600482015230602482015260448101919091529116906342842e0e90606401600060405180830381600087803b1580156103e757600080fd5b505af11580156103fb573d6000803e3d6000fd5b5050505060007f00000000000000000000000000000000000000000000000000000000000000006001600160a01b03166335bc868a6040518163ffffffff1660e01b8152600401602060405180830381865afa15801561045f573d6000803e3d6000fd5b505050506040513d601f19601f820116820180604052508101906104839190611a0d565b825160405163622fe39f60e01b81526001600160a01b03929092169163622fe39f916104b59160040190815260200190565b6101c060405180830381865afa1580156104d3573d6000803e3d6000fd5b505050506040513d601f19601f820116820180604052508101906104f79190611a2a565b90507f00000000000000000000000000000000000000000000000000000000000000006001600160a01b03166335bc868a6040518163ffffffff1660e01b8152600401602060405180830381865afa158015610557573d6000803e3d6000fd5b505050506040513d601f19601f8201168201806040525081019061057b9190611a0d565b8251604051636b52b36560e01b81526001600160a01b039290921691636b52b365916105ad9160040190815260200190565b602060405180830381865afa1580156105ca573d6000803e3d6000fd5b505050506040513d601f19601f820116820180604052508101906105ee9190611b25565b7f00000000000000000000000000000000000000000000000000000000000000006001600160a01b03166335bc868a6040518163ffffffff1660e01b8152600401602060405180830381865afa15801561064c573d6000803e3d6000fd5b505050506040513d601f19601f820116820180604052508101906106709190611a0d565b8351604051634b72cb4160e11b81526001600160a01b0392909216916396e59682916106a29160040190815260200190565b602060405180830381865afa1580156106bf573d6000803e3d6000fd5b505050506040513d601f19601f820116820180604052508101906106e39190611b25565b6106ed9190611b54565b60208301528b8b60008161070357610703611b6c565b90506020020160208101906107189190611b82565b6001600160a01b031663095ea7b37f00000000000000000000000000000000000000000000000000000000000000006001600160a01b0316631755ff216040518163ffffffff1660e01b8152600401602060405180830381865afa158015610784573d6000803e3d6000fd5b505050506040513d601f19601f820116820180604052508101906107a89190611a0d565b60208501516040516001600160e01b031960e085901b1681526001600160a01b03909216600483015260248201526044016020604051808303816000875af11580156107f8573d6000803e3d6000fd5b505050506040513d601f19601f8201168201806040525081019061081c9190611b9f565b507f00000000000000000000000000000000000000000000000000000000000000006001600160a01b0316631755ff216040518163ffffffff1660e01b8152600401602060405180830381865afa15801561087b573d6000803e3d6000fd5b505050506040513d601f19601f8201168201806040525081019061089f9190611a0d565b8251604051631b8fec7360e11b81526001600160a01b03929092169163371fd8e6916108d19160040190815260200190565b6020604051808303816000875af11580156108f0573d6000803e3d6000fd5b505050506040513d601f19601f820116820180604052508101906109149190611b25565b5060208101516040516398460c5f60e01b81526001600160a01b03918216600482018190529163095ea7b3917f0000000000000000000000000000000000000000000000000000000000000000909116906398460c5f90602401602060405180830381865afa15801561098b573d6000803e3d6000fd5b505050506040513d601f19601f820116820180604052508101906109af9190611a0d565b60408085015190516001600160e01b031960e085901b1681526001600160a01b0390921660048301526024820152604401600060405180830381600087803b1580156109fa57600080fd5b505af1158015610a0e573d6000803e3d6000fd5b505050507f00000000000000000000000000000000000000000000000000000000000000006001600160a01b031663956236416040518163ffffffff1660e01b8152600401602060405180830381865afa158015610a70573d6000803e3d6000fd5b505050506040513d601f19601f82011682018060405250810190610a949190611a0d565b6001600160a01b0316631cfb41b88361012001518360400151856060015186608001516040518563ffffffff1660e01b8152600401610ad69493929190611c08565b6020604051808303816000875af1158015610af5573d6000803e3d6000fd5b505050506040513d601f19601f82011682018060405250810190610b199190611b25565b6101408301528787600081610b3057610b30611b6c565b905060200201358a8a6000818110610b4a57610b4a611b6c565b90506020020135610b5b9190611b54565b60c0830181905260608301511115610bc657610bc18260a001518360c001518460600151610b899190611dd4565b8e8e6000818110610b9c57610b9c611b6c565b9050602002016020810190610bb19190611b82565b6001600160a01b03169190610e70565b610c2c565b8160c0015182606001511015610c2c57610c2c8260a001513084606001518560c00151610bf39190611dd4565b8f8f6000818110610c0657610c06611b6c565b9050602002016020810190610c1b9190611b82565b6001600160a01b0316929190610ed8565b7f00000000000000000000000000000000000000000000000000000000000000006001600160a01b031663bb322a836040518163ffffffff1660e01b8152600401602060405180830381865afa158015610c8a573d6000803e3d6000fd5b505050506040513d601f19601f82011682018060405250810190610cae9190611a0d565b60a0830151610140840151604051632142170760e11b81523060048201526001600160a01b03928316602482015260448101919091529116906342842e0e90606401600060405180830381600087803b158015610d0a57600080fd5b505af1158015610d1e573d6000803e3d6000fd5b505050508b8b6000818110610d3557610d35611b6c565b9050602002016020810190610d4a9190611b82565b6001600160a01b031663095ea7b3610d60610de7565b60c08501516040516001600160e01b031960e085901b1681526001600160a01b03909216600483015260248201526044016020604051808303816000875af1158015610db0573d6000803e3d6000fd5b505050506040513d601f19601f82011682018060405250810190610dd49190611b9f565b5060019c9b505050505050505050505050565b60007f00000000000000000000000000000000000000000000000000000000000000006001600160a01b0316630261bf8b6040518163ffffffff1660e01b8152600401602060405180830381865afa158015610e47573d6000803e3d6000fd5b505050506040513d601f19601f82011682018060405250810190610e6b9190611a0d565b905090565b6040516001600160a01b038316602482015260448101829052610ed390849063a9059cbb60e01b906064015b60408051601f198184030181529190526020810180516001600160e01b03166001600160e01b031990931692909217909152610f16565b505050565b6040516001600160a01b0380851660248301528316604482015260648101829052610f109085906323b872dd60e01b90608401610e9c565b50505050565b6000610f6b826040518060400160405280602081526020017f5361666545524332303a206c6f772d6c6576656c2063616c6c206661696c6564815250856001600160a01b0316610fe89092919063ffffffff16565b805190915015610ed35780806020019051810190610f899190611b9f565b610ed35760405162461bcd60e51b815260206004820152602a60248201527f5361666545524332303a204552433230206f7065726174696f6e20646964206e6044820152691bdd081cdd58d8d9595960b21b606482015260840161028e565b6060610ff78484600085611001565b90505b9392505050565b6060824710156110625760405162461bcd60e51b815260206004820152602660248201527f416464726573733a20696e73756666696369656e742062616c616e636520666f6044820152651c8818d85b1b60d21b606482015260840161028e565b843b6110b05760405162461bcd60e51b815260206004820152601d60248201527f416464726573733a2063616c6c20746f206e6f6e2d636f6e7472616374000000604482015260640161028e565b600080866001600160a01b031685876040516110cc9190611deb565b60006040518083038185875af1925050503d8060008114611109576040519150601f19603f3d011682016040523d82523d6000602084013e61110e565b606091505b509150915061111e828286611129565b979650505050505050565b60608315611138575081610ffa565b8251156111485782518084602001fd5b8160405162461bcd60e51b815260040161028e9190611e07565b604051806101600160405280600081526020016000815260200160006001600160a01b03168152602001600081526020016000815260200160006001600160a01b031681526020016000815260200160608152602001606081526020016112646040805161028081018252600080825260208201819052909182019081526000602082018190526040820181905260608083018290526080830182905260a0830182905260c0830182905260e08301829052610100830182905261012083018290526101408301829052610160830182905261018083018290526101a083018290526101c08301526101e0820181905261020082018190526102209091015290565b8152602001600081525090565b60006020828403121561128357600080fd5b81356001600160e01b031981168114610ffa57600080fd5b6001600160a01b03811681146112b057600080fd5b50565b634e487b7160e01b600052604160045260246000fd5b60405161028081016001600160401b03811182821017156112ec576112ec6112b3565b60405290565b6040516101c081016001600160401b03811182821017156112ec576112ec6112b3565b604051601f8201601f191681016001600160401b038111828210171561133d5761133d6112b3565b604052919050565b60006001600160401b0382111561135e5761135e6112b3565b50601f01601f191660200190565b600082601f83011261137d57600080fd5b813561139061138b82611345565b611315565b8181528460208386010111156113a557600080fd5b816020850160208301376000918101602001919091529392505050565b600080600080608085870312156113d857600080fd5b84356113e38161129b565b935060208501356113f38161129b565b92506040850135915060608501356001600160401b0381111561141557600080fd5b6114218782880161136c565b91505092959194509250565b60008083601f84011261143f57600080fd5b5081356001600160401b0381111561145657600080fd5b6020830191508360208260051b850101111561147157600080fd5b9250929050565b600080600080600080600080600060a08a8c03121561149657600080fd5b89356001600160401b03808211156114ad57600080fd5b6114b98d838e0161142d565b909b50995060208c01359150808211156114d257600080fd5b6114de8d838e0161142d565b909950975060408c01359150808211156114f757600080fd5b6115038d838e0161142d565b909750955060608c013591506115188261129b565b90935060808b0135908082111561152e57600080fd5b818c0191508c601f83011261154257600080fd5b81358181111561155157600080fd5b8d602082850101111561156357600080fd5b6020830194508093505050509295985092959850929598565b600082601f83011261158d57600080fd5b813560206001600160401b038211156115a8576115a86112b3565b8160051b6115b7828201611315565b92835284810182019282810190878511156115d157600080fd5b83870192505b8483101561111e578235825291830191908301906115d7565b600080600080600060a0868803121561160857600080fd5b85356116138161129b565b945060208601356116238161129b565b935060408601356001600160401b038082111561163f57600080fd5b61164b89838a0161157c565b9450606088013591508082111561166157600080fd5b61166d89838a0161157c565b9350608088013591508082111561168357600080fd5b506116908882890161136c565b9150509295509295909350565b600080600080600060a086880312156116b557600080fd5b85356116c08161129b565b945060208601356116d08161129b565b9350604086013592506060860135915060808601356001600160401b038111156116f957600080fd5b6116908882890161136c565b6000806040838503121561171857600080fd5b82356001600160401b0381111561172e57600080fd5b61173a8582860161136c565b925050602083013561174b8161129b565b809150509250929050565b60005b83811015611771578181015183820152602001611759565b83811115610f105750506000910152565b600082601f83011261179357600080fd5b81516117a161138b82611345565b8181528460208386010111156117b657600080fd5b6117c7826020830160208701611756565b949350505050565b600080600080608085870312156117e557600080fd5b84519350602085015192506040850151915060608501516001600160401b0381111561181057600080fd5b61142187828801611782565b8051801515811461182c57600080fd5b919050565b80516006811061182c57600080fd5b805161182c8161129b565b805164ffffffffff8116811461182c57600080fd5b80516001600160801b038116811461182c57600080fd5b805160ff8116811461182c57600080fd5b60006020828403121561189a57600080fd5b81516001600160401b03808211156118b157600080fd5b9083019061028082860312156118c657600080fd5b6118ce6112c9565b6118d78361181c565b8152602083015160208201526118ef60408401611831565b604082015261190060608401611840565b60608201526080830151608082015260a083015160a082015261192560c08401611840565b60c082015260e083015160e082015261010080840151818301525061012061194e81850161184b565b9082015261014061196084820161184b565b90820152610160611972848201611860565b90820152610180611984848201611840565b908201526101a083810151908201526101c080840151908201526101e06119ac818501611840565b9082015261020083810151838111156119c457600080fd5b6119d088828701611782565b82840152505061022091506119e6828401611877565b91810191909152610240828101519082015261026091820151918101919091529392505050565b600060208284031215611a1f57600080fd5b8151610ffa8161129b565b60006101c08284031215611a3d57600080fd5b611a456112f2565b82518152611a5560208401611840565b602082015260408301516040820152611a7060608401611840565b606082015260808301516080820152611a8b60a08401611860565b60a0820152611a9c60c08401611860565b60c0820152611aad60e0840161184b565b60e0820152610100611ac081850161184b565b90820152610120611ad284820161184b565b90820152610140611ae484820161184b565b90820152610160611af684820161184b565b90820152610180611b0884820161184b565b908201526101a0611b1a848201611831565b908201529392505050565b600060208284031215611b3757600080fd5b5051919050565b634e487b7160e01b600052601160045260246000fd5b60008219821115611b6757611b67611b3e565b500190565b634e487b7160e01b600052603260045260246000fd5b600060208284031215611b9457600080fd5b8135610ffa8161129b565b600060208284031215611bb157600080fd5b610ffa8261181c565b60068110611bd857634e487b7160e01b600052602160045260246000fd5b9052565b60008151808452611bf4816020860160208601611756565b601f01601f19169290920160200192915050565b60a08152611c1b60a08201865115159052565b602085015160c082015260006040860151611c3960e0840182611bba565b506060860151610100611c56818501836001600160a01b03169052565b60808801519150610120828186015260a08901519250610140838187015260c08a01519350610160611c92818801866001600160a01b03169052565b60e08b015194506101808581890152848c015195506101a094508585890152838c015195506101c09350611cce8489018764ffffffffff169052565b918b015194506101e091611cea8884018764ffffffffff169052565b908b0151945061020090611d08888301876001600160801b03169052565b8b01519450610220611d24888201876001600160a01b03169052565b938b015161024088810191909152928b015161026080890191909152918b015194509192909161028091611d62838901876001600160a01b03169052565b818c01519550826102a0890152611d7d610320890187611bdc565b9550808c015192505050611d976102c087018260ff169052565b50908801516102e085015287015161030084015260208084018790526040840186905260608401859052838203608085015260008252810161111e565b600082821015611de657611de6611b3e565b500390565b60008251611dfd818460208701611756565b9190910192915050565b602081526000610ffa6020830184611bdc56fea26469706673582212209f51a04a4ee2a2c558f7f7f96af5c568e876323df2f599938d790e8f27fd940664736f6c634300080a0033",
  "libraries": {
    "BespokeTypes": "0xA3f72EFE184A58706Ef2DeC6C6fbd6c58e8FDA20"
  },
  "devdoc": {
    "kind": "dev",
    "methods": {
      "onERC721Received(address,address,uint256,bytes)": {
        "details": "See {IERC721Receiver-onERC721Received}. Always returns `IERC721Receiver.onERC721Received.selector`."
      },
      "supportsInterface(bytes4)": {
        "details": "See {IERC165-supportsInterface}."
      }
    },
    "version": 1
  },
  "userdoc": {
    "kind": "user",
    "methods": {},
    "version": 1
  },
  "storageLayout": {
    "storage": [],
    "types": null
  }
}