{
  "address": "0x252D6B4EdF1Da2Cd487b8E92986717E83d23dc50",
  "abi": [
    {
      "inputs": [
        {
          "internalType": "contract IAaveLendPoolAddressesProvider",
          "name": "provider",
          "type": "address"
        },
        {
          "internalType": "contract IOpenSkyBespokeSettings",
          "name": "bespokeSettings",
          "type": "address"
        },
        {
          "internalType": "contract IOpenSkySettings",
          "name": "poolSettings",
          "type": "address"
        }
      ],
      "stateMutability": "nonpayable",
      "type": "constructor"
    },
    {
      "anonymous": false,
      "inputs": [
        {
          "indexed": true,
          "internalType": "address",
          "name": "asset",
          "type": "address"
        },
        {
          "indexed": true,
          "internalType": "address",
          "name": "borrower",
          "type": "address"
        },
        {
          "indexed": false,
          "internalType": "uint256",
          "name": "oldLoanId",
          "type": "uint256"
        },
        {
          "indexed": false,
          "internalType": "uint256",
          "name": "newLoanId",
          "type": "uint256"
        }
      ],
      "name": "RefinancePoolToBespoke",
      "type": "event"
    },
    {
      "inputs": [],
      "name": "AAVE2_ADDRESSES_PROVIDER",
      "outputs": [
        {
          "internalType": "contract IAaveLendPoolAddressesProvider",
          "name": "",
          "type": "address"
        }
      ],
      "stateMutability": "view",
      "type": "function"
    },
    {
      "inputs": [],
      "name": "BESPOKE_SETTINGS",
      "outputs": [
        {
          "internalType": "contract IOpenSkyBespokeSettings",
          "name": "",
          "type": "address"
        }
      ],
      "stateMutability": "view",
      "type": "function"
    },
    {
      "inputs": [],
      "name": "SETTINGS",
      "outputs": [
        {
          "internalType": "contract IOpenSkySettings",
          "name": "",
          "type": "address"
        }
      ],
      "stateMutability": "view",
      "type": "function"
    },
    {
      "inputs": [],
      "name": "aavePool",
      "outputs": [
        {
          "internalType": "contract IAaveLendPool",
          "name": "",
          "type": "address"
        }
      ],
      "stateMutability": "view",
      "type": "function"
    },
    {
      "inputs": [
        {
          "internalType": "address[]",
          "name": "assets",
          "type": "address[]"
        },
        {
          "internalType": "uint256[]",
          "name": "amounts",
          "type": "uint256[]"
        },
        {
          "internalType": "uint256[]",
          "name": "premiums",
          "type": "uint256[]"
        },
        {
          "internalType": "address",
          "name": "initiator",
          "type": "address"
        },
        {
          "internalType": "bytes",
          "name": "params",
          "type": "bytes"
        }
      ],
      "name": "executeOperation",
      "outputs": [
        {
          "internalType": "bool",
          "name": "",
          "type": "bool"
        }
      ],
      "stateMutability": "nonpayable",
      "type": "function"
    },
    {
      "inputs": [
        {
          "internalType": "address",
          "name": "",
          "type": "address"
        },
        {
          "internalType": "address",
          "name": "",
          "type": "address"
        },
        {
          "internalType": "uint256",
          "name": "",
          "type": "uint256"
        },
        {
          "internalType": "bytes",
          "name": "",
          "type": "bytes"
        }
      ],
      "name": "onERC721Received",
      "outputs": [
        {
          "internalType": "bytes4",
          "name": "",
          "type": "bytes4"
        }
      ],
      "stateMutability": "nonpayable",
      "type": "function"
    }
  ],
  "transactionHash": "0x95f6fa82171efee4deb17277e03c28c885e8274bbd6f85d0884208449d25a56d",
  "args": [
    "0x9C3106e111a3317d3662F4a3f9622B6d17EC79fE",
    "0xf7fB2278991a44b1a3E9fC8D448ec5b9C3449D84",
    "0x90499A6848275e03E8De6608980F4e7d32fbaF6F"
  ],
  "solcInputHash": "1e44bf564bba7dca907252aca202626c",
  "bytecode": "0x60e06040523480156200001157600080fd5b5060405162001f2438038062001f2483398101604081905262000034916200006b565b6001600160a01b0392831660805290821660c0521660a052620000bf565b6001600160a01b03811681146200006857600080fd5b50565b6000806000606084860312156200008157600080fd5b83516200008e8162000052565b6020850151909350620000a18162000052565b6040850151909250620000b48162000052565b809150509250925092565b60805160a05160c051611df1620001336000396000818160e70152818161095601528181610a280152610c2f015260008181610139015281816102b5015281816103a90152818161050f015281816106040152818161073c0152610833015260008181606c0152610eaf0152611df16000f3fe608060405234801561001057600080fd5b50600436106100625760003560e01c806311ea536e14610067578063150b7a02146100ab57806329c55f06146100e2578063920f5c8414610109578063a03e4bc31461012c578063ade97ab514610134575b600080fd5b61008e7f000000000000000000000000000000000000000000000000000000000000000081565b6040516001600160a01b0390911681526020015b60405180910390f35b6100c96100b9366004611470565b630a85bd0160e11b949350505050565b6040516001600160e01b031990911681526020016100a2565b61008e7f000000000000000000000000000000000000000000000000000000000000000081565b61011c610117366004611528565b61015b565b60405190151581526020016100a2565b61008e610eab565b61008e7f000000000000000000000000000000000000000000000000000000000000000081565b600060018914801561016d5750600187145b80156101795750600185145b6101de5760405162461bcd60e51b815260206004820152602b60248201527f424d5f464c4153485f4c4f414e5f4d554c5449504c455f4153534554535f4e4f60448201526a1517d4d5541413d495115160aa1b60648201526084015b60405180910390fd5b336101e7610eab565b6001600160a01b03161461023d5760405162461bcd60e51b815260206004820152601c60248201527f424d5f464c4153485f4c4f414e5f494e56414c49445f43414c4c45520000000060448201526064016101d5565b610245611226565b6102518385018561162d565b6001600160a01b031660a083015260e08201819052805161027a916020918101820191016116f8565b61010085018190526080850191909152606084019190915290825280516102aa91908101602090810191016117b2565b8161012001819052507f00000000000000000000000000000000000000000000000000000000000000006001600160a01b03166335bc868a6040518163ffffffff1660e01b8152600401602060405180830381865afa158015610311573d6000803e3d6000fd5b505050506040513d601f19601f82011682018060405250810190610335919061195c565b60a08201518251604051632142170760e11b81526001600160a01b03928316600482015230602482015260448101919091529116906342842e0e90606401600060405180830381600087803b15801561038d57600080fd5b505af11580156103a1573d6000803e3d6000fd5b5050505060007f00000000000000000000000000000000000000000000000000000000000000006001600160a01b03166335bc868a6040518163ffffffff1660e01b8152600401602060405180830381865afa158015610405573d6000803e3d6000fd5b505050506040513d601f19601f82011682018060405250810190610429919061195c565b825160405163622fe39f60e01b81526001600160a01b03929092169163622fe39f9161045b9160040190815260200190565b6101c060405180830381865afa158015610479573d6000803e3d6000fd5b505050506040513d601f19601f8201168201806040525081019061049d9190611988565b9050816101200151606001516001600160a01b031681602001516001600160a01b03161461050d5760405162461bcd60e51b815260206004820181905260248201527f424d5f464c4153485f4c4f414e5f43555252454e43595f4e4f545f4d4154434860448201526064016101d5565b7f00000000000000000000000000000000000000000000000000000000000000006001600160a01b03166335bc868a6040518163ffffffff1660e01b8152600401602060405180830381865afa15801561056b573d6000803e3d6000fd5b505050506040513d601f19601f8201168201806040525081019061058f919061195c565b8251604051636b52b36560e01b81526001600160a01b039290921691636b52b365916105c19160040190815260200190565b602060405180830381865afa1580156105de573d6000803e3d6000fd5b505050506040513d601f19601f820116820180604052508101906106029190611a83565b7f00000000000000000000000000000000000000000000000000000000000000006001600160a01b03166335bc868a6040518163ffffffff1660e01b8152600401602060405180830381865afa158015610660573d6000803e3d6000fd5b505050506040513d601f19601f82011682018060405250810190610684919061195c565b8351604051634b72cb4160e11b81526001600160a01b0392909216916396e59682916106b69160040190815260200190565b602060405180830381865afa1580156106d3573d6000803e3d6000fd5b505050506040513d601f19601f820116820180604052508101906106f79190611a83565b6107019190611ab2565b60208301528b8b60008161071757610717611aca565b905060200201602081019061072c9190611ae0565b6001600160a01b031663095ea7b37f00000000000000000000000000000000000000000000000000000000000000006001600160a01b0316631755ff216040518163ffffffff1660e01b8152600401602060405180830381865afa158015610798573d6000803e3d6000fd5b505050506040513d601f19601f820116820180604052508101906107bc919061195c565b60208501516040516001600160e01b031960e085901b1681526001600160a01b03909216600483015260248201526044016020604051808303816000875af115801561080c573d6000803e3d6000fd5b505050506040513d601f19601f820116820180604052508101906108309190611afd565b507f00000000000000000000000000000000000000000000000000000000000000006001600160a01b0316631755ff216040518163ffffffff1660e01b8152600401602060405180830381865afa15801561088f573d6000803e3d6000fd5b505050506040513d601f19601f820116820180604052508101906108b3919061195c565b8251604051631b8fec7360e11b81526001600160a01b03929092169163371fd8e6916108e59160040190815260200190565b6020604051808303816000875af1158015610904573d6000803e3d6000fd5b505050506040513d601f19601f820116820180604052508101906109289190611a83565b5060208101516040516398460c5f60e01b81526001600160a01b03918216600482018190529163095ea7b3917f0000000000000000000000000000000000000000000000000000000000000000909116906398460c5f90602401602060405180830381865afa15801561099f573d6000803e3d6000fd5b505050506040513d601f19601f820116820180604052508101906109c3919061195c565b60408085015190516001600160e01b031960e085901b1681526001600160a01b0390921660048301526024820152604401600060405180830381600087803b158015610a0e57600080fd5b505af1158015610a22573d6000803e3d6000fd5b505050507f00000000000000000000000000000000000000000000000000000000000000006001600160a01b031663956236416040518163ffffffff1660e01b8152600401602060405180830381865afa158015610a84573d6000803e3d6000fd5b505050506040513d601f19601f82011682018060405250810190610aa8919061195c565b6001600160a01b031663a2b8fe87836101200151836040015185606001518660800151306040518663ffffffff1660e01b8152600401610aec959493929190611b66565b6020604051808303816000875af1158015610b0b573d6000803e3d6000fd5b505050506040513d601f19601f82011682018060405250810190610b2f9190611a83565b6101408301528787600081610b4657610b46611aca565b905060200201358260200151610b5c9190611ab2565b60c0830181905260608301511115610bc757610bc28260a001518360c001518460600151610b8a9190611d75565b8e8e6000818110610b9d57610b9d611aca565b9050602002016020810190610bb29190611ae0565b6001600160a01b03169190610f34565b610c2d565b8160c0015182606001511015610c2d57610c2d8260a001513084606001518560c00151610bf49190611d75565b8f8f6000818110610c0757610c07611aca565b9050602002016020810190610c1c9190611ae0565b6001600160a01b0316929190610f9c565b7f00000000000000000000000000000000000000000000000000000000000000006001600160a01b031663bb322a836040518163ffffffff1660e01b8152600401602060405180830381865afa158015610c8b573d6000803e3d6000fd5b505050506040513d601f19601f82011682018060405250810190610caf919061195c565b60a0830151610140840151604051632142170760e11b81523060048201526001600160a01b03928316602482015260448101919091529116906342842e0e90606401600060405180830381600087803b158015610d0b57600080fd5b505af1158015610d1f573d6000803e3d6000fd5b505050508b8b6000818110610d3657610d36611aca565b9050602002016020810190610d4b9190611ae0565b6001600160a01b031663095ea7b3610d61610eab565b8a8a6000818110610d7457610d74611aca565b905060200201358d8d6000818110610d8e57610d8e611aca565b90506020020135610d9f9190611ab2565b6040516001600160e01b031960e085901b1681526001600160a01b03909216600483015260248201526044016020604051808303816000875af1158015610dea573d6000803e3d6000fd5b505050506040513d601f19601f82011682018060405250810190610e0e9190611afd565b508160a001516001600160a01b03168c8c6000818110610e3057610e30611aca565b9050602002016020810190610e459190611ae0565b6001600160a01b03167fc08bdfd2db9318050aeb2489356bedefbfa18d5566f0a8af91c58d272cccd21a8460000151856101400151604051610e91929190918252602082015260400190565b60405180910390a35060019b9a5050505050505050505050565b60007f00000000000000000000000000000000000000000000000000000000000000006001600160a01b0316630261bf8b6040518163ffffffff1660e01b8152600401602060405180830381865afa158015610f0b573d6000803e3d6000fd5b505050506040513d601f19601f82011682018060405250810190610f2f919061195c565b905090565b6040516001600160a01b038316602482015260448101829052610f9790849063a9059cbb60e01b906064015b60408051601f198184030181529190526020810180516001600160e01b03166001600160e01b031990931692909217909152610fda565b505050565b6040516001600160a01b0380851660248301528316604482015260648101829052610fd49085906323b872dd60e01b90608401610f60565b50505050565b600061102f826040518060400160405280602081526020017f5361666545524332303a206c6f772d6c6576656c2063616c6c206661696c6564815250856001600160a01b03166110ac9092919063ffffffff16565b805190915015610f97578080602001905181019061104d9190611afd565b610f975760405162461bcd60e51b815260206004820152602a60248201527f5361666545524332303a204552433230206f7065726174696f6e20646964206e6044820152691bdd081cdd58d8d9595960b21b60648201526084016101d5565b60606110bb84846000856110c5565b90505b9392505050565b6060824710156111265760405162461bcd60e51b815260206004820152602660248201527f416464726573733a20696e73756666696369656e742062616c616e636520666f6044820152651c8818d85b1b60d21b60648201526084016101d5565b843b6111745760405162461bcd60e51b815260206004820152601d60248201527f416464726573733a2063616c6c20746f206e6f6e2d636f6e747261637400000060448201526064016101d5565b600080866001600160a01b031685876040516111909190611d8c565b60006040518083038185875af1925050503d80600081146111cd576040519150601f19603f3d011682016040523d82523d6000602084013e6111d2565b606091505b50915091506111e28282866111ed565b979650505050505050565b606083156111fc5750816110be565b82511561120c5782518084602001fd5b8160405162461bcd60e51b81526004016101d59190611da8565b604051806101600160405280600081526020016000815260200160006001600160a01b03168152602001600081526020016000815260200160006001600160a01b03168152602001600081526020016060815260200160608152602001611338604080516102c081018252600080825260208201819052909182019081526000602082018190526040820181905260608083018290526080830182905260a0830182905260c0830182905260e08301829052610100830182905261012083018290526101408301829052610160830182905261018083018290526101a083018290526101c083018290526101e08301829052610200830152610220820181905261024082018190526102609091015290565b8152602001600081525090565b6001600160a01b038116811461135a57600080fd5b50565b634e487b7160e01b600052604160045260246000fd5b6040516102c0810167ffffffffffffffff811182821017156113975761139761135d565b60405290565b6040516101c0810167ffffffffffffffff811182821017156113975761139761135d565b604051601f8201601f1916810167ffffffffffffffff811182821017156113ea576113ea61135d565b604052919050565b600067ffffffffffffffff82111561140c5761140c61135d565b50601f01601f191660200190565b600082601f83011261142b57600080fd5b813561143e611439826113f2565b6113c1565b81815284602083860101111561145357600080fd5b816020850160208301376000918101602001919091529392505050565b6000806000806080858703121561148657600080fd5b843561149181611345565b935060208501356114a181611345565b925060408501359150606085013567ffffffffffffffff8111156114c457600080fd5b6114d08782880161141a565b91505092959194509250565b60008083601f8401126114ee57600080fd5b50813567ffffffffffffffff81111561150657600080fd5b6020830191508360208260051b850101111561152157600080fd5b9250929050565b600080600080600080600080600060a08a8c03121561154657600080fd5b893567ffffffffffffffff8082111561155e57600080fd5b61156a8d838e016114dc565b909b50995060208c013591508082111561158357600080fd5b61158f8d838e016114dc565b909950975060408c01359150808211156115a857600080fd5b6115b48d838e016114dc565b909750955060608c013591506115c982611345565b90935060808b013590808211156115df57600080fd5b818c0191508c601f8301126115f357600080fd5b81358181111561160257600080fd5b8d602082850101111561161457600080fd5b6020830194508093505050509295985092959850929598565b6000806040838503121561164057600080fd5b823567ffffffffffffffff81111561165757600080fd5b6116638582860161141a565b925050602083013561167481611345565b809150509250929050565b60005b8381101561169a578181015183820152602001611682565b83811115610fd45750506000910152565b600082601f8301126116bc57600080fd5b81516116ca611439826113f2565b8181528460208386010111156116df57600080fd5b6116f082602083016020870161167f565b949350505050565b6000806000806080858703121561170e57600080fd5b845193506020850151925060408501519150606085015167ffffffffffffffff81111561173a57600080fd5b6114d0878288016116ab565b8051801515811461175657600080fd5b919050565b80516002811061175657600080fd5b805161175681611345565b805164ffffffffff8116811461175657600080fd5b80516001600160801b038116811461175657600080fd5b805160ff8116811461175657600080fd5b6000602082840312156117c457600080fd5b815167ffffffffffffffff808211156117dc57600080fd5b908301906102c082860312156117f157600080fd5b6117f9611373565b61180283611746565b815261181060208401611746565b60208201526118216040840161175b565b60408201526118326060840161176a565b60608201526080830151608082015260a083015160a082015261185760c0840161176a565b60c082015260e083015160e0820152610100808401518183015250610120611880818501611775565b90820152610140611892848201611775565b908201526101606118a484820161178a565b908201526101806118b684820161176a565b908201526101a06118c884820161176a565b908201526101c083810151908201526101e0808401519082015261020080840151908201526102206118fb81850161176a565b90820152610240838101518381111561191357600080fd5b61191f888287016116ab565b82840152505061026091506119358284016117a1565b9181019190915261028082810151908201526102a091820151918101919091529392505050565b60006020828403121561196e57600080fd5b81516110be81611345565b80516006811061175657600080fd5b60006101c0828403121561199b57600080fd5b6119a361139d565b825181526119b36020840161176a565b6020820152604083015160408201526119ce6060840161176a565b6060820152608083015160808201526119e960a0840161178a565b60a08201526119fa60c0840161178a565b60c0820152611a0b60e08401611775565b60e0820152610100611a1e818501611775565b90820152610120611a30848201611775565b90820152610140611a42848201611775565b90820152610160611a54848201611775565b90820152610180611a66848201611775565b908201526101a0611a78848201611979565b908201529392505050565b600060208284031215611a9557600080fd5b5051919050565b634e487b7160e01b600052601160045260246000fd5b60008219821115611ac557611ac5611a9c565b500190565b634e487b7160e01b600052603260045260246000fd5b600060208284031215611af257600080fd5b81356110be81611345565b600060208284031215611b0f57600080fd5b6110be82611746565b60028110611b3657634e487b7160e01b600052602160045260246000fd5b9052565b60008151808452611b5281602086016020860161167f565b601f01601f19169290920160200192915050565b60c08152611b7960c08201875115159052565b60006020870151611b8e60e084018215159052565b506040870151610100611ba381850183611b18565b60608901519150610120611bc1818601846001600160a01b03169052565b60808a01519250610140838187015260a08b01519350610160848188015260c08c01519450610180611bfd818901876001600160a01b03169052565b60e08d015195506101a086818a0152858e015196506101c0955086868a0152848e015196506101e09450611c39858a018864ffffffffff169052565b928d0151955061020092611c558985018864ffffffffff169052565b918d0151955061022091611c73898401886001600160801b03169052565b908d0151955061024090611c91898301886001600160a01b03169052565b8d01519550610260611cad898201886001600160a01b03169052565b948d015161028089810191909152938d01516102a0808a0191909152928d01516102c0808a0191909152828e01516001600160a01b03166102e08a0152818e01516103008a0182905296509394929392611d0b6103808a0188611b3a565b9650808e01519350505050611d2661032087018260ff169052565b5090890151610340850152979097015161036083015250602080820195909552604081019390935260608301919091526001600160a01b0316608082015280830360a090910152600082520190565b600082821015611d8757611d87611a9c565b500390565b60008251611d9e81846020870161167f565b9190910192915050565b6020815260006110be6020830184611b3a56fea26469706673582212200ce51c63af007afe1885425850bec98b52601cebeaa347804de58bd2a2681de464736f6c634300080a0033",
  "libraries": {
    "BespokeTypes": "0x057AEc26BA4EdD466A8A61A08804eA931BBD8C58"
  },
  "devdoc": {
    "kind": "dev",
    "methods": {
      "onERC721Received(address,address,uint256,bytes)": {
        "details": "See {IERC721Receiver-onERC721Received}. Always returns `IERC721Receiver.onERC721Received.selector`."
      }
    },
    "version": 1
  },
  "userdoc": {
    "kind": "user",
    "methods": {},
    "version": 1
  },
  "storageLayout": {
    "storage": [],
    "types": null
  }
}