{
  "address": "0x595D7f00ddBacF6369f74B2fcc7F8320830A975d",
  "abi": [
    {
      "inputs": [
        {
          "components": [
            {
              "internalType": "enum BespokeTypes.OfferType",
              "name": "offerType",
              "type": "uint8"
            },
            {
              "internalType": "bool",
              "name": "isProrated",
              "type": "bool"
            },
            {
              "internalType": "uint256",
              "name": "reserveId",
              "type": "uint256"
            },
            {
              "internalType": "address",
              "name": "nftAddress",
              "type": "address"
            },
            {
              "internalType": "uint256",
              "name": "tokenId",
              "type": "uint256"
            },
            {
              "internalType": "uint256",
              "name": "tokenAmount",
              "type": "uint256"
            },
            {
              "internalType": "address",
              "name": "signer",
              "type": "address"
            },
            {
              "internalType": "uint256",
              "name": "borrowAmountMin",
              "type": "uint256"
            },
            {
              "internalType": "uint256",
              "name": "borrowAmountMax",
              "type": "uint256"
            },
            {
              "internalType": "uint40",
              "name": "borrowDurationMin",
              "type": "uint40"
            },
            {
              "internalType": "uint40",
              "name": "borrowDurationMax",
              "type": "uint40"
            },
            {
              "internalType": "uint128",
              "name": "borrowRate",
              "type": "uint128"
            },
            {
              "internalType": "address",
              "name": "currency",
              "type": "address"
            },
            {
              "internalType": "uint256",
              "name": "nonce",
              "type": "uint256"
            },
            {
              "internalType": "uint256",
              "name": "deadline",
              "type": "uint256"
            },
            {
              "internalType": "address",
              "name": "strategy",
              "type": "address"
            },
            {
              "internalType": "bytes",
              "name": "params",
              "type": "bytes"
            },
            {
              "internalType": "uint8",
              "name": "v",
              "type": "uint8"
            },
            {
              "internalType": "bytes32",
              "name": "r",
              "type": "bytes32"
            },
            {
              "internalType": "bytes32",
              "name": "s",
              "type": "bytes32"
            }
          ],
          "internalType": "struct BespokeTypes.Offer",
          "name": "offerData",
          "type": "tuple"
        },
        {
          "components": [
            {
              "internalType": "address",
              "name": "taker",
              "type": "address"
            },
            {
              "internalType": "uint256",
              "name": "tokenId",
              "type": "uint256"
            },
            {
              "internalType": "bytes",
              "name": "params",
              "type": "bytes"
            }
          ],
          "internalType": "struct BespokeTypes.LendOfferTakeParams",
          "name": "takeInfo",
          "type": "tuple"
        }
      ],
      "name": "tokenIdMatchOffer",
      "outputs": [
        {
          "internalType": "bool",
          "name": "",
          "type": "bool"
        }
      ],
      "stateMutability": "view",
      "type": "function"
    }
  ],
  "transactionHash": "0xe11cecc49b6e90cceae18c5ea817d20fc72e9d134d58ba72fb8ece40507f4249",
  "args": [],
  "solcInputHash": "5caf662bc955a4ee3750eea04101df77",
  "bytecode": "0x608060405234801561001057600080fd5b506104a7806100206000396000f3fe608060405234801561001057600080fd5b506004361061002b5760003560e01c80637c550d6014610030575b600080fd5b61004361003e36600461028f565b610057565b604051901515815260200160405180910390f35b600060058351600581111561006e5761006e610437565b1461007b575060006100aa565b6000836102000151806020019051810190610096919061044d565b83516001600160a01b039182169116149150505b92915050565b634e487b7160e01b600052604160045260246000fd5b604051610280810167ffffffffffffffff811182821017156100ea576100ea6100b0565b60405290565b8035600681106100ff57600080fd5b919050565b803580151581146100ff57600080fd5b6001600160a01b038116811461012957600080fd5b50565b80356100ff81610114565b803564ffffffffff811681146100ff57600080fd5b80356fffffffffffffffffffffffffffffffff811681146100ff57600080fd5b600082601f83011261017d57600080fd5b813567ffffffffffffffff80821115610198576101986100b0565b604051601f8301601f19908116603f011681019082821181831017156101c0576101c06100b0565b816040528381528660208588010111156101d957600080fd5b836020870160208301376000602085830101528094505050505092915050565b803560ff811681146100ff57600080fd5b60006060828403121561021c57600080fd5b6040516060810167ffffffffffffffff8282108183111715610240576102406100b0565b816040528293508435915061025482610114565b81835260208501356020840152604085013591508082111561027557600080fd5b506102828582860161016c565b6040830152505092915050565b600080604083850312156102a257600080fd5b823567ffffffffffffffff808211156102ba57600080fd5b9084019061028082870312156102cf57600080fd5b6102d76100c6565b6102e0836100f0565b81526102ee60208401610104565b6020820152604083013560408201526103096060840161012c565b60608201526080830135608082015260a083013560a082015261032e60c0840161012c565b60c082015260e083013560e0820152610100808401358183015250610120610357818501610137565b90820152610140610369848201610137565b9082015261016061037b84820161014c565b9082015261018061038d84820161012c565b908201526101a083810135908201526101c080840135908201526101e06103b581850161012c565b9082015261020083810135838111156103cd57600080fd5b6103d98982870161016c565b8284015250506102206103ed8185016101f9565b90820152610240838101359082015261026092830135928101929092529092506020840135908082111561042057600080fd5b5061042d8582860161020a565b9150509250929050565b634e487b7160e01b600052602160045260246000fd5b60006020828403121561045f57600080fd5b815161046a81610114565b939250505056fea2646970667358221220c666a07158e5327bdb96f84a65e279bcfa816af902fdd0fe5e48fbdcb3e5aae764736f6c634300080a0033",
  "libraries": {
    "BespokeTypes": "0x18DBb065e137198b4eE32F212d8442918143FaDF"
  },
  "devdoc": {
    "kind": "dev",
    "methods": {},
    "version": 1
  },
  "userdoc": {
    "kind": "user",
    "methods": {},
    "version": 1
  },
  "storageLayout": {
    "storage": [],
    "types": null
  }
}