{
  "address": "0xBD79Aa6f481483Bc0E7aBf2198Be59E8f48e702A",
  "abi": [
    {
      "inputs": [
        {
          "components": [
            {
              "internalType": "bool",
              "name": "isProrated",
              "type": "bool"
            },
            {
              "internalType": "bool",
              "name": "autoConvertWhenRepay",
              "type": "bool"
            },
            {
              "internalType": "enum BespokeTypes.OfferType",
              "name": "offerType",
              "type": "uint8"
            },
            {
              "internalType": "address",
              "name": "tokenAddress",
              "type": "address"
            },
            {
              "internalType": "uint256",
              "name": "tokenId",
              "type": "uint256"
            },
            {
              "internalType": "uint256",
              "name": "tokenAmount",
              "type": "uint256"
            },
            {
              "internalType": "address",
              "name": "signer",
              "type": "address"
            },
            {
              "internalType": "uint256",
              "name": "borrowAmountMin",
              "type": "uint256"
            },
            {
              "internalType": "uint256",
              "name": "borrowAmountMax",
              "type": "uint256"
            },
            {
              "internalType": "uint40",
              "name": "borrowDurationMin",
              "type": "uint40"
            },
            {
              "internalType": "uint40",
              "name": "borrowDurationMax",
              "type": "uint40"
            },
            {
              "internalType": "uint128",
              "name": "borrowRate",
              "type": "uint128"
            },
            {
              "internalType": "address",
              "name": "currency",
              "type": "address"
            },
            {
              "internalType": "address",
              "name": "lendAsset",
              "type": "address"
            },
            {
              "internalType": "uint256",
              "name": "nonce",
              "type": "uint256"
            },
            {
              "internalType": "uint256",
              "name": "nonceMaxTimes",
              "type": "uint256"
            },
            {
              "internalType": "uint256",
              "name": "deadline",
              "type": "uint256"
            },
            {
              "internalType": "address",
              "name": "strategy",
              "type": "address"
            },
            {
              "internalType": "bytes",
              "name": "params",
              "type": "bytes"
            },
            {
              "internalType": "uint8",
              "name": "v",
              "type": "uint8"
            },
            {
              "internalType": "bytes32",
              "name": "r",
              "type": "bytes32"
            },
            {
              "internalType": "bytes32",
              "name": "s",
              "type": "bytes32"
            }
          ],
          "internalType": "struct BespokeTypes.Offer",
          "name": "offerData",
          "type": "tuple"
        },
        {
          "components": [
            {
              "internalType": "address",
              "name": "taker",
              "type": "address"
            },
            {
              "internalType": "uint256",
              "name": "tokenId",
              "type": "uint256"
            },
            {
              "internalType": "bytes",
              "name": "params",
              "type": "bytes"
            }
          ],
          "internalType": "struct BespokeTypes.TakeLendInfoForStrategy",
          "name": "takeInfo",
          "type": "tuple"
        }
      ],
      "name": "validate",
      "outputs": [],
      "stateMutability": "view",
      "type": "function"
    }
  ],
  "transactionHash": "0x0709d898dbc7c94d6f56400bd2f3bee5102923bbaec973cbfa833c9412345e5f",
  "args": [],
  "solcInputHash": "d098b2fcaa0d3900bd9713b45ea5b08d",
  "bytecode": "0x608060405234801561001057600080fd5b506104de806100206000396000f3fe608060405234801561001057600080fd5b506004361061002b5760003560e01c8063169b8d6714610030575b600080fd5b61004361003e3660046102dc565b610045565b005b816101e001516001146100b35760405162461bcd60e51b815260206004820152602b60248201527f424d5f53545241544547595f544f4b454e5f49445f4e4f4e43455f4d4158544960448201526a135154d7d253959053125160aa1b60648201526084015b60405180910390fd5b806020015182608001511461010a5760405162461bcd60e51b815260206004820152601e60248201527f424d5f53545241544547595f544f4b454e5f49445f4e4f545f4d41544348000060448201526064016100aa565b5050565b634e487b7160e01b600052604160045260246000fd5b6040516102c0810167ffffffffffffffff811182821017156101485761014861010e565b60405290565b8035801515811461015e57600080fd5b919050565b80356002811061015e57600080fd5b80356001600160a01b038116811461015e57600080fd5b803564ffffffffff8116811461015e57600080fd5b80356fffffffffffffffffffffffffffffffff8116811461015e57600080fd5b600082601f8301126101cf57600080fd5b813567ffffffffffffffff808211156101ea576101ea61010e565b604051601f8301601f19908116603f011681019082821181831017156102125761021261010e565b8160405283815286602085880101111561022b57600080fd5b836020870160208301376000602085830101528094505050505092915050565b803560ff8116811461015e57600080fd5b60006060828403121561026e57600080fd5b6040516060810167ffffffffffffffff82821081831117156102925761029261010e565b816040528293506102a285610172565b83526020850135602084015260408501359150808211156102c257600080fd5b506102cf858286016101be565b6040830152505092915050565b600080604083850312156102ef57600080fd5b823567ffffffffffffffff8082111561030757600080fd5b908401906102c0828703121561031c57600080fd5b610324610124565b61032d8361014e565b815261033b6020840161014e565b602082015261034c60408401610163565b604082015261035d60608401610172565b60608201526080830135608082015260a083013560a082015261038260c08401610172565b60c082015260e083013560e08201526101008084013581830152506101206103ab818501610189565b908201526101406103bd848201610189565b908201526101606103cf84820161019e565b908201526101806103e1848201610172565b908201526101a06103f3848201610172565b908201526101c083810135908201526101e080840135908201526102008084013590820152610220610426818501610172565b90820152610240838101358381111561043e57600080fd5b61044a898287016101be565b82840152505061026061045e81850161024b565b9082015261028083810135908201526102a092830135928101929092529092506020840135908082111561049157600080fd5b5061049e8582860161025c565b915050925092905056fea2646970667358221220fdcc9fe5bf623a3f8570f4718bdff8c7265a9b6fe0ec059da407259c744ad97064736f6c634300080a0033",
  "libraries": {
    "BespokeTypes": "0x12A7b08B9a6e74f9D15dd38a1e5A74583B63c824"
  },
  "devdoc": {
    "kind": "dev",
    "methods": {},
    "version": 1
  },
  "userdoc": {
    "kind": "user",
    "methods": {},
    "version": 1
  },
  "storageLayout": {
    "storage": [],
    "types": null
  }
}