{
  "address": "0xe03467f01e280611857E2F6AA8799257fe74aA55",
  "abi": [
    {
      "inputs": [
        {
          "components": [
            {
              "internalType": "enum BespokeTypes.OfferType",
              "name": "offerType",
              "type": "uint8"
            },
            {
              "internalType": "bool",
              "name": "isProrated",
              "type": "bool"
            },
            {
              "internalType": "uint256",
              "name": "reserveId",
              "type": "uint256"
            },
            {
              "internalType": "address",
              "name": "nftAddress",
              "type": "address"
            },
            {
              "internalType": "uint256",
              "name": "tokenId",
              "type": "uint256"
            },
            {
              "internalType": "uint256",
              "name": "tokenAmount",
              "type": "uint256"
            },
            {
              "internalType": "address",
              "name": "signer",
              "type": "address"
            },
            {
              "internalType": "uint256",
              "name": "borrowAmountMin",
              "type": "uint256"
            },
            {
              "internalType": "uint256",
              "name": "borrowAmountMax",
              "type": "uint256"
            },
            {
              "internalType": "uint40",
              "name": "borrowDurationMin",
              "type": "uint40"
            },
            {
              "internalType": "uint40",
              "name": "borrowDurationMax",
              "type": "uint40"
            },
            {
              "internalType": "uint128",
              "name": "borrowRate",
              "type": "uint128"
            },
            {
              "internalType": "address",
              "name": "currency",
              "type": "address"
            },
            {
              "internalType": "uint256",
              "name": "nonce",
              "type": "uint256"
            },
            {
              "internalType": "uint256",
              "name": "deadline",
              "type": "uint256"
            },
            {
              "internalType": "address",
              "name": "strategy",
              "type": "address"
            },
            {
              "internalType": "bytes",
              "name": "params",
              "type": "bytes"
            },
            {
              "internalType": "uint8",
              "name": "v",
              "type": "uint8"
            },
            {
              "internalType": "bytes32",
              "name": "r",
              "type": "bytes32"
            },
            {
              "internalType": "bytes32",
              "name": "s",
              "type": "bytes32"
            }
          ],
          "internalType": "struct BespokeTypes.Offer",
          "name": "offerData",
          "type": "tuple"
        },
        {
          "components": [
            {
              "internalType": "address",
              "name": "taker",
              "type": "address"
            },
            {
              "internalType": "uint256",
              "name": "tokenId",
              "type": "uint256"
            },
            {
              "internalType": "bytes",
              "name": "params",
              "type": "bytes"
            }
          ],
          "internalType": "struct BespokeTypes.LendOfferTakeParams",
          "name": "takeInfo",
          "type": "tuple"
        }
      ],
      "name": "tokenIdMatchOffer",
      "outputs": [
        {
          "internalType": "bool",
          "name": "",
          "type": "bool"
        }
      ],
      "stateMutability": "view",
      "type": "function"
    }
  ],
  "transactionHash": "0x7f07e605a91598505bd54394ac9ffc778959aebb9afafd3f686cb7a42f62f4d3",
  "args": [],
  "solcInputHash": "5caf662bc955a4ee3750eea04101df77",
  "bytecode": "0x608060405234801561001057600080fd5b50610450806100206000396000f3fe608060405234801561001057600080fd5b506004361061002b5760003560e01c80637c550d6014610030575b600080fd5b61004361003e36600461025c565b610057565b604051901515815260200160405180910390f35b600060018351600581111561006e5761006e610404565b1461007b57506000610088565b5060208101516080830151145b92915050565b634e487b7160e01b600052604160045260246000fd5b604051610280810167ffffffffffffffff811182821017156100c8576100c861008e565b60405290565b8035600681106100dd57600080fd5b919050565b803580151581146100dd57600080fd5b80356001600160a01b03811681146100dd57600080fd5b803564ffffffffff811681146100dd57600080fd5b80356fffffffffffffffffffffffffffffffff811681146100dd57600080fd5b600082601f83011261014f57600080fd5b813567ffffffffffffffff8082111561016a5761016a61008e565b604051601f8301601f19908116603f011681019082821181831017156101925761019261008e565b816040528381528660208588010111156101ab57600080fd5b836020870160208301376000602085830101528094505050505092915050565b803560ff811681146100dd57600080fd5b6000606082840312156101ee57600080fd5b6040516060810167ffffffffffffffff82821081831117156102125761021261008e565b81604052829350610222856100f2565b835260208501356020840152604085013591508082111561024257600080fd5b5061024f8582860161013e565b6040830152505092915050565b6000806040838503121561026f57600080fd5b823567ffffffffffffffff8082111561028757600080fd5b90840190610280828703121561029c57600080fd5b6102a46100a4565b6102ad836100ce565b81526102bb602084016100e2565b6020820152604083013560408201526102d6606084016100f2565b60608201526080830135608082015260a083013560a08201526102fb60c084016100f2565b60c082015260e083013560e0820152610100808401358183015250610120610324818501610109565b90820152610140610336848201610109565b9082015261016061034884820161011e565b9082015261018061035a8482016100f2565b908201526101a083810135908201526101c080840135908201526101e06103828185016100f2565b90820152610200838101358381111561039a57600080fd5b6103a68982870161013e565b8284015250506102206103ba8185016101cb565b9082015261024083810135908201526102609283013592810192909252909250602084013590808211156103ed57600080fd5b506103fa858286016101dc565b9150509250929050565b634e487b7160e01b600052602160045260246000fdfea26469706673582212204539c6a758b4966389ae7a418a7c161f937f328cb8430cc6e741d3c02944171564736f6c634300080a0033",
  "libraries": {
    "BespokeTypes": "0x18DBb065e137198b4eE32F212d8442918143FaDF"
  },
  "devdoc": {
    "kind": "dev",
    "methods": {},
    "version": 1
  },
  "userdoc": {
    "kind": "user",
    "methods": {},
    "version": 1
  },
  "storageLayout": {
    "storage": [],
    "types": null
  }
}