{
  "address": "0x4AdA7CAFAE3866055069aCbf768710744C05980D",
  "abi": [
    {
      "inputs": [
        {
          "internalType": "address",
          "name": "settings_",
          "type": "address"
        },
        {
          "internalType": "address",
          "name": "bespoke_settings_",
          "type": "address"
        }
      ],
      "stateMutability": "nonpayable",
      "type": "constructor"
    },
    {
      "anonymous": false,
      "inputs": [
        {
          "indexed": true,
          "internalType": "address",
          "name": "token",
          "type": "address"
        },
        {
          "indexed": true,
          "internalType": "address",
          "name": "to",
          "type": "address"
        },
        {
          "indexed": false,
          "internalType": "uint256[]",
          "name": "ids",
          "type": "uint256[]"
        },
        {
          "indexed": false,
          "internalType": "uint256[]",
          "name": "amounts",
          "type": "uint256[]"
        },
        {
          "indexed": false,
          "internalType": "bytes",
          "name": "data",
          "type": "bytes"
        }
      ],
      "name": "ClaimERC1155Airdrop",
      "type": "event"
    },
    {
      "anonymous": false,
      "inputs": [
        {
          "indexed": true,
          "internalType": "address",
          "name": "token",
          "type": "address"
        },
        {
          "indexed": true,
          "internalType": "address",
          "name": "to",
          "type": "address"
        },
        {
          "indexed": false,
          "internalType": "uint256",
          "name": "amount",
          "type": "uint256"
        }
      ],
      "name": "ClaimERC20Airdrop",
      "type": "event"
    },
    {
      "anonymous": false,
      "inputs": [
        {
          "indexed": true,
          "internalType": "address",
          "name": "token",
          "type": "address"
        },
        {
          "indexed": true,
          "internalType": "address",
          "name": "to",
          "type": "address"
        },
        {
          "indexed": false,
          "internalType": "uint256[]",
          "name": "ids",
          "type": "uint256[]"
        }
      ],
      "name": "ClaimERC721Airdrop",
      "type": "event"
    },
    {
      "anonymous": false,
      "inputs": [
        {
          "indexed": true,
          "internalType": "address",
          "name": "receiver",
          "type": "address"
        },
        {
          "indexed": false,
          "internalType": "address",
          "name": "sender",
          "type": "address"
        },
        {
          "indexed": true,
          "internalType": "address",
          "name": "nftAddress",
          "type": "address"
        },
        {
          "indexed": true,
          "internalType": "uint256",
          "name": "tokenId",
          "type": "uint256"
        }
      ],
      "name": "FlashClaim",
      "type": "event"
    },
    {
      "inputs": [],
      "name": "BESPOKE_SETTINGS",
      "outputs": [
        {
          "internalType": "contract IOpenSkyBespokeSettings",
          "name": "",
          "type": "address"
        }
      ],
      "stateMutability": "view",
      "type": "function"
    },
    {
      "inputs": [],
      "name": "SETTINGS",
      "outputs": [
        {
          "internalType": "contract IOpenSkySettings",
          "name": "",
          "type": "address"
        }
      ],
      "stateMutability": "view",
      "type": "function"
    },
    {
      "inputs": [
        {
          "internalType": "address",
          "name": "token",
          "type": "address"
        },
        {
          "internalType": "address",
          "name": "to",
          "type": "address"
        },
        {
          "internalType": "uint256[]",
          "name": "ids",
          "type": "uint256[]"
        },
        {
          "internalType": "uint256[]",
          "name": "amounts",
          "type": "uint256[]"
        },
        {
          "internalType": "bytes",
          "name": "data",
          "type": "bytes"
        }
      ],
      "name": "claimERC1155Airdrop",
      "outputs": [],
      "stateMutability": "nonpayable",
      "type": "function"
    },
    {
      "inputs": [
        {
          "internalType": "address",
          "name": "token",
          "type": "address"
        },
        {
          "internalType": "address",
          "name": "to",
          "type": "address"
        },
        {
          "internalType": "uint256",
          "name": "amount",
          "type": "uint256"
        }
      ],
      "name": "claimERC20Airdrop",
      "outputs": [],
      "stateMutability": "nonpayable",
      "type": "function"
    },
    {
      "inputs": [
        {
          "internalType": "address",
          "name": "token",
          "type": "address"
        },
        {
          "internalType": "address",
          "name": "to",
          "type": "address"
        },
        {
          "internalType": "uint256[]",
          "name": "ids",
          "type": "uint256[]"
        }
      ],
      "name": "claimERC721Airdrop",
      "outputs": [],
      "stateMutability": "nonpayable",
      "type": "function"
    },
    {
      "inputs": [
        {
          "internalType": "address",
          "name": "token",
          "type": "address"
        },
        {
          "internalType": "address",
          "name": "to",
          "type": "address"
        },
        {
          "internalType": "uint256",
          "name": "amount",
          "type": "uint256"
        }
      ],
      "name": "emergencyTokenTransfer",
      "outputs": [],
      "stateMutability": "nonpayable",
      "type": "function"
    },
    {
      "inputs": [
        {
          "internalType": "address",
          "name": "receiverAddress",
          "type": "address"
        },
        {
          "internalType": "uint256[]",
          "name": "loanIds",
          "type": "uint256[]"
        },
        {
          "internalType": "bytes",
          "name": "params",
          "type": "bytes"
        }
      ],
      "name": "flashClaim",
      "outputs": [],
      "stateMutability": "nonpayable",
      "type": "function"
    },
    {
      "inputs": [
        {
          "internalType": "address",
          "name": "",
          "type": "address"
        }
      ],
      "name": "nftBorrowStat",
      "outputs": [
        {
          "internalType": "uint256",
          "name": "",
          "type": "uint256"
        }
      ],
      "stateMutability": "view",
      "type": "function"
    },
    {
      "inputs": [
        {
          "internalType": "address",
          "name": "",
          "type": "address"
        },
        {
          "internalType": "address",
          "name": "",
          "type": "address"
        },
        {
          "internalType": "uint256[]",
          "name": "",
          "type": "uint256[]"
        },
        {
          "internalType": "uint256[]",
          "name": "",
          "type": "uint256[]"
        },
        {
          "internalType": "bytes",
          "name": "",
          "type": "bytes"
        }
      ],
      "name": "onERC1155BatchReceived",
      "outputs": [
        {
          "internalType": "bytes4",
          "name": "",
          "type": "bytes4"
        }
      ],
      "stateMutability": "nonpayable",
      "type": "function"
    },
    {
      "inputs": [
        {
          "internalType": "address",
          "name": "",
          "type": "address"
        },
        {
          "internalType": "address",
          "name": "",
          "type": "address"
        },
        {
          "internalType": "uint256",
          "name": "",
          "type": "uint256"
        },
        {
          "internalType": "uint256",
          "name": "",
          "type": "uint256"
        },
        {
          "internalType": "bytes",
          "name": "",
          "type": "bytes"
        }
      ],
      "name": "onERC1155Received",
      "outputs": [
        {
          "internalType": "bytes4",
          "name": "",
          "type": "bytes4"
        }
      ],
      "stateMutability": "nonpayable",
      "type": "function"
    },
    {
      "inputs": [
        {
          "internalType": "address",
          "name": "",
          "type": "address"
        },
        {
          "internalType": "address",
          "name": "",
          "type": "address"
        },
        {
          "internalType": "uint256",
          "name": "",
          "type": "uint256"
        },
        {
          "internalType": "bytes",
          "name": "",
          "type": "bytes"
        }
      ],
      "name": "onERC721Received",
      "outputs": [
        {
          "internalType": "bytes4",
          "name": "",
          "type": "bytes4"
        }
      ],
      "stateMutability": "nonpayable",
      "type": "function"
    },
    {
      "inputs": [
        {
          "internalType": "bytes4",
          "name": "interfaceId",
          "type": "bytes4"
        }
      ],
      "name": "supportsInterface",
      "outputs": [
        {
          "internalType": "bool",
          "name": "",
          "type": "bool"
        }
      ],
      "stateMutability": "view",
      "type": "function"
    },
    {
      "inputs": [
        {
          "internalType": "address",
          "name": "collection",
          "type": "address"
        },
        {
          "internalType": "address",
          "name": "from",
          "type": "address"
        },
        {
          "internalType": "uint256",
          "name": "tokenId",
          "type": "uint256"
        },
        {
          "internalType": "uint256",
          "name": "amount",
          "type": "uint256"
        }
      ],
      "name": "transferCollateralIn",
      "outputs": [],
      "stateMutability": "nonpayable",
      "type": "function"
    },
    {
      "inputs": [
        {
          "internalType": "address",
          "name": "collection",
          "type": "address"
        },
        {
          "internalType": "address",
          "name": "to",
          "type": "address"
        },
        {
          "internalType": "uint256",
          "name": "tokenId",
          "type": "uint256"
        },
        {
          "internalType": "uint256",
          "name": "amount",
          "type": "uint256"
        }
      ],
      "name": "transferCollateralOut",
      "outputs": [],
      "stateMutability": "nonpayable",
      "type": "function"
    },
    {
      "inputs": [
        {
          "internalType": "address",
          "name": "collection",
          "type": "address"
        },
        {
          "internalType": "address",
          "name": "to",
          "type": "address"
        },
        {
          "internalType": "uint256",
          "name": "tokenId",
          "type": "uint256"
        },
        {
          "internalType": "uint256",
          "name": "amount",
          "type": "uint256"
        }
      ],
      "name": "transferCollateralOutOnForeclose",
      "outputs": [],
      "stateMutability": "nonpayable",
      "type": "function"
    }
  ],
  "transactionHash": "0x3667ca9ffdbeb706a5017c97c0f0058f50bd9d114168e4dfd579bb626c3e8193",
  "args": [
    "0x90499A6848275e03E8De6608980F4e7d32fbaF6F",
    "0x28f2900675D3b53c4F830f3A31B72b3B2509d0c9"
  ],
  "solcInputHash": "d098b2fcaa0d3900bd9713b45ea5b08d",
  "bytecode": "0x60c06040523480156200001157600080fd5b50604051620024373803806200243783398101604081905262000034916200006e565b60016000556001600160a01b039182166080521660a052620000a6565b80516001600160a01b03811681146200006957600080fd5b919050565b600080604083850312156200008257600080fd5b6200008d8362000051565b91506200009d6020840162000051565b90509250929050565b60805160a051612333620001046000396000818161017301528181610390015281816104ff015281816109c8015261134401526000818161021901528181610aef01528181610c7501528181610e1001526110bb01526123336000f3fe608060405234801561001057600080fd5b50600436106100f55760003560e01c8063a3d5b25511610097578063cbed33fb11610066578063cbed33fb146101ad578063e3185e121461026d578063e7674ece14610280578063f23a6e611461029357600080fd5b8063a3d5b25514610201578063ade97ab514610214578063bc197c811461023b578063cae595531461025a57600080fd5b806329c55f06116100d357806329c55f061461016e578063355b3862146101ad5780634f070916146101c05780638a181833146101d357600080fd5b806301ffc9a7146100fa57806303282d6e14610122578063150b7a0214610137575b600080fd5b61010d61010836600461176c565b6102b2565b60405190151581526020015b60405180910390f35b61013561013036600461183a565b6102e9565b005b61015561014536600461199a565b630a85bd0160e11b949350505050565b6040516001600160e01b03199091168152602001610119565b6101957f000000000000000000000000000000000000000000000000000000000000000081565b6040516001600160a01b039091168152602001610119565b6101356101bb366004611a05565b61099b565b6101356101ce366004611a4b565b610ac0565b6101f36101e1366004611a8c565b60016020526000908152604090205481565b604051908152602001610119565b61013561020f366004611a4b565b610c71565b6101957f000000000000000000000000000000000000000000000000000000000000000081565b610155610249366004611b1d565b63bc197c8160e01b95945050505050565b610135610268366004611bca565b610de1565b61013561027b366004611c2e565b61108c565b61013561028e366004611a05565b611317565b6101556102a1366004611cec565b63f23a6e6160e01b95945050505050565b60006001600160e01b03198216630271189760e51b14806102e357506301ffc9a760e01b6001600160e01b03198316145b92915050565b60008581856001600160401b03811115610305576103056118bc565b60405190808252806020026020018201604052801561032e578160200160208202803683370190505b5090506000866001600160401b0381111561034b5761034b6118bc565b604051908082528060200260200182016040528015610374578160200160208202803683370190505b509050600093505b868410156106db57336001600160a01b03167f00000000000000000000000000000000000000000000000000000000000000006001600160a01b031663bb322a836040518163ffffffff1660e01b8152600401602060405180830381865afa1580156103ec573d6000803e3d6000fd5b505050506040513d601f19601f820116820180604052508101906104109190611d64565b6001600160a01b0316636352211e8a8a8881811061043057610430611d81565b905060200201356040518263ffffffff1660e01b815260040161045591815260200190565b602060405180830381865afa158015610472573d6000803e3d6000fd5b505050506040513d601f19601f820116820180604052508101906104969190611d64565b6001600160a01b0316146104fb5760405162461bcd60e51b815260206004820152602160248201527f424d5f464c415348434c41494d5f43414c4c45525f49535f4e4f545f4f574e456044820152602960f91b60648201526084015b60405180910390fd5b60007f00000000000000000000000000000000000000000000000000000000000000006001600160a01b031663956236416040518163ffffffff1660e01b8152600401602060405180830381865afa15801561055b573d6000803e3d6000fd5b505050506040513d601f19601f8201168201806040525081019061057f9190611d64565b6001600160a01b031663622fe39f8a8a8881811061059f5761059f611d81565b905060200201356040518263ffffffff1660e01b81526004016105c491815260200190565b61028060405180830381865afa1580156105e2573d6000803e3d6000fd5b505050506040513d601f19601f820116820180604052508101906106069190611deb565b90506003816102600151600381111561062157610621611f44565b141561066f5760405162461bcd60e51b815260206004820152601a60248201527f424d5f464c415348434c41494d5f5354415455535f4552524f5200000000000060448201526064016104f2565b806000015183868151811061068657610686611d81565b60200260200101906001600160a01b031690816001600160a01b03168152505080602001518286815181106106bd576106bd611d81565b602090810291909101015250836106d381611f70565b94505061037c565b600093505b8684101561078f578184815181106106fa576106fa611d81565b60200260200101516001600160a01b03166342842e0e308b84888151811061072457610724611d81565b60200260200101516040518463ffffffff1660e01b815260040161074a93929190611f8b565b600060405180830381600087803b15801561076457600080fd5b505af1158015610778573d6000803e3d6000fd5b50505050838061078790611f70565b9450506106e0565b604051628e896f60e41b81526001600160a01b038416906308e896f0906107c49085908590339030908d908d90600401611fd8565b6020604051808303816000875af11580156107e3573d6000803e3d6000fd5b505050506040513d601f19601f820116820180604052508101906108079190612091565b6108535760405162461bcd60e51b815260206004820152601c60248201527f424d5f464c415348434c41494d5f4558454355544f525f4552524f520000000060448201526064016104f2565b600093505b868410156109905781848151811061087257610872611d81565b60200260200101516001600160a01b03166342842e0e8a3084888151811061089c5761089c611d81565b60200260200101516040518463ffffffff1660e01b81526004016108c293929190611f8b565b600060405180830381600087803b1580156108dc57600080fd5b505af11580156108f0573d6000803e3d6000fd5b5050505080848151811061090657610906611d81565b602002602001015182858151811061092057610920611d81565b60200260200101516001600160a01b03168a6001600160a01b03167f6bac1c66016500cd7b62d69e86268760baac6cd34a70003af66ffa8a979832166109633390565b6040516001600160a01b03909116815260200160405180910390a48361098881611f70565b945050610858565b505050505050505050565b600260005414156109be5760405162461bcd60e51b81526004016104f2906120ac565b60026000819055507f00000000000000000000000000000000000000000000000000000000000000006001600160a01b031663956236416040518163ffffffff1660e01b8152600401602060405180830381865afa158015610a24573d6000803e3d6000fd5b505050506040513d601f19601f82011682018060405250810190610a489190611d64565b6001600160a01b0316336001600160a01b031614610a785760405162461bcd60e51b81526004016104f2906120e3565b6001600160a01b03841660009081526001602081905260408220805491929091610aa3908490612126565b90915550610ab5905084848484611431565b505060016000555050565b60026000541415610ae35760405162461bcd60e51b81526004016104f2906120ac565b600260008190555060007f00000000000000000000000000000000000000000000000000000000000000006001600160a01b0316639a9dbb996040518163ffffffff1660e01b8152600401602060405180830381865afa158015610b4b573d6000803e3d6000fd5b505050506040513d601f19601f82011682018060405250810190610b6f9190611d64565b90506001600160a01b038116639078c85a336040516001600160e01b031960e084901b1681526001600160a01b039091166004820152602401602060405180830381865afa158015610bc5573d6000803e3d6000fd5b505050506040513d601f19601f82011682018060405250810190610be99190612091565b610c055760405162461bcd60e51b81526004016104f29061213d565b610c196001600160a01b0385168484611499565b826001600160a01b0316846001600160a01b03167f81275949a17d84915b61eeb24587a501cc8863011afba1ed12f3f6c5bdfd6a2184604051610c5e91815260200190565b60405180910390a3505060016000555050565b60007f00000000000000000000000000000000000000000000000000000000000000006001600160a01b0316639a9dbb996040518163ffffffff1660e01b8152600401602060405180830381865afa158015610cd1573d6000803e3d6000fd5b505050506040513d601f19601f82011682018060405250810190610cf59190611d64565b90506001600160a01b038116632500f2b6336040516001600160e01b031960e084901b1681526001600160a01b039091166004820152602401602060405180830381865afa158015610d4b573d6000803e3d6000fd5b505050506040513d601f19601f82011682018060405250810190610d6f9190612091565b610dc75760405162461bcd60e51b8152602060048201526024808201527f424d5f41434c5f4f4e4c595f454d455247454e43595f41444d494e5f43414e5f60448201526310d0531360e21b60648201526084016104f2565b610ddb6001600160a01b0385168484611499565b50505050565b60026000541415610e045760405162461bcd60e51b81526004016104f2906120ac565b600260008190555060007f00000000000000000000000000000000000000000000000000000000000000006001600160a01b0316639a9dbb996040518163ffffffff1660e01b8152600401602060405180830381865afa158015610e6c573d6000803e3d6000fd5b505050506040513d601f19601f82011682018060405250810190610e909190611d64565b90506001600160a01b038116639078c85a336040516001600160e01b031960e084901b1681526001600160a01b039091166004820152602401602060405180830381865afa158015610ee6573d6000803e3d6000fd5b505050506040513d601f19601f82011682018060405250810190610f0a9190612091565b610f265760405162461bcd60e51b81526004016104f29061213d565b6001600160a01b03851660009081526001602052604090205415610f9a5760405162461bcd60e51b815260206004820152602560248201527f424d5f434c41494d5f4552433732315f41495244524f505f4e4f545f5355505060448201526413d495115160da1b60648201526084016104f2565b60005b8281101561103257856001600160a01b03166342842e0e3087878786818110610fc857610fc8611d81565b905060200201356040518463ffffffff1660e01b8152600401610fed93929190611f8b565b600060405180830381600087803b15801561100757600080fd5b505af115801561101b573d6000803e3d6000fd5b50505050808061102a90611f70565b915050610f9d565b50836001600160a01b0316856001600160a01b03167f6c6b18e67b757c02ba92ef0f54038fc2135767acf9bef174b8780835ff45582285856040516110789291906121b8565b60405180910390a350506001600055505050565b600260005414156110af5760405162461bcd60e51b81526004016104f2906120ac565b600260008190555060007f00000000000000000000000000000000000000000000000000000000000000006001600160a01b0316639a9dbb996040518163ffffffff1660e01b8152600401602060405180830381865afa158015611117573d6000803e3d6000fd5b505050506040513d601f19601f8201168201806040525081019061113b9190611d64565b90506001600160a01b038116639078c85a336040516001600160e01b031960e084901b1681526001600160a01b039091166004820152602401602060405180830381865afa158015611191573d6000803e3d6000fd5b505050506040513d601f19601f820116820180604052508101906111b59190612091565b6111d15760405162461bcd60e51b81526004016104f29061213d565b6001600160a01b038916600090815260016020526040902054156112465760405162461bcd60e51b815260206004820152602660248201527f424d5f434c41494d5f455243313135355f41495244524f505f4e4f545f5355506044820152651413d495115160d21b60648201526084016104f2565b604051631759616b60e11b81526001600160a01b038a1690632eb2c2d6906112809030908c908c908c908c908c908c908c906004016121cc565b600060405180830381600087803b15801561129a57600080fd5b505af11580156112ae573d6000803e3d6000fd5b50505050876001600160a01b0316896001600160a01b03167fc8144f7a11a69e58de79275b3e7420b4942b4e8318a0e0aa9ccb457c60387b028989898989896040516112ff96959493929190612221565b60405180910390a35050600160005550505050505050565b6002600054141561133a5760405162461bcd60e51b81526004016104f2906120ac565b60026000819055507f00000000000000000000000000000000000000000000000000000000000000006001600160a01b031663956236416040518163ffffffff1660e01b8152600401602060405180830381865afa1580156113a0573d6000803e3d6000fd5b505050506040513d601f19601f820116820180604052508101906113c49190611d64565b6001600160a01b0316336001600160a01b0316146113f45760405162461bcd60e51b81526004016104f2906120e3565b6001600160a01b0384166000908152600160208190526040822080549192909161141f90849061226a565b90915550610ab59050848484846114f0565b604051632142170760e11b81526001600160a01b038516906342842e0e9061146190309087908790600401611f8b565b600060405180830381600087803b15801561147b57600080fd5b505af115801561148f573d6000803e3d6000fd5b5050505050505050565b604080516001600160a01b038416602482015260448082018490528251808303909101815260649091019091526020810180516001600160e01b031663a9059cbb60e01b1790526114eb908490611520565b505050565b604051632142170760e11b81526001600160a01b038516906342842e0e9061146190869030908790600401611f8b565b6000611575826040518060400160405280602081526020017f5361666545524332303a206c6f772d6c6576656c2063616c6c206661696c6564815250856001600160a01b03166115f29092919063ffffffff16565b8051909150156114eb57808060200190518101906115939190612091565b6114eb5760405162461bcd60e51b815260206004820152602a60248201527f5361666545524332303a204552433230206f7065726174696f6e20646964206e6044820152691bdd081cdd58d8d9595960b21b60648201526084016104f2565b6060611601848460008561160b565b90505b9392505050565b60608247101561166c5760405162461bcd60e51b815260206004820152602660248201527f416464726573733a20696e73756666696369656e742062616c616e636520666f6044820152651c8818d85b1b60d21b60648201526084016104f2565b843b6116ba5760405162461bcd60e51b815260206004820152601d60248201527f416464726573733a2063616c6c20746f206e6f6e2d636f6e747261637400000060448201526064016104f2565b600080866001600160a01b031685876040516116d691906122ae565b60006040518083038185875af1925050503d8060008114611713576040519150601f19603f3d011682016040523d82523d6000602084013e611718565b606091505b5091509150611728828286611733565b979650505050505050565b60608315611742575081611604565b8251156117525782518084602001fd5b8160405162461bcd60e51b81526004016104f291906122ca565b60006020828403121561177e57600080fd5b81356001600160e01b03198116811461160457600080fd5b6001600160a01b03811681146117ab57600080fd5b50565b60008083601f8401126117c057600080fd5b5081356001600160401b038111156117d757600080fd5b6020830191508360208260051b85010111156117f257600080fd5b9250929050565b60008083601f84011261180b57600080fd5b5081356001600160401b0381111561182257600080fd5b6020830191508360208285010111156117f257600080fd5b60008060008060006060868803121561185257600080fd5b853561185d81611796565b945060208601356001600160401b038082111561187957600080fd5b61188589838a016117ae565b9096509450604088013591508082111561189e57600080fd5b506118ab888289016117f9565b969995985093965092949392505050565b634e487b7160e01b600052604160045260246000fd5b60405161028081016001600160401b03811182821017156118f5576118f56118bc565b60405290565b604051601f8201601f191681016001600160401b0381118282101715611923576119236118bc565b604052919050565b600082601f83011261193c57600080fd5b81356001600160401b03811115611955576119556118bc565b611968601f8201601f19166020016118fb565b81815284602083860101111561197d57600080fd5b816020850160208301376000918101602001919091529392505050565b600080600080608085870312156119b057600080fd5b84356119bb81611796565b935060208501356119cb81611796565b92506040850135915060608501356001600160401b038111156119ed57600080fd5b6119f98782880161192b565b91505092959194509250565b60008060008060808587031215611a1b57600080fd5b8435611a2681611796565b93506020850135611a3681611796565b93969395505050506040820135916060013590565b600080600060608486031215611a6057600080fd5b8335611a6b81611796565b92506020840135611a7b81611796565b929592945050506040919091013590565b600060208284031215611a9e57600080fd5b813561160481611796565b600082601f830112611aba57600080fd5b813560206001600160401b03821115611ad557611ad56118bc565b8160051b611ae48282016118fb565b9283528481018201928281019087851115611afe57600080fd5b83870192505b8483101561172857823582529183019190830190611b04565b600080600080600060a08688031215611b3557600080fd5b8535611b4081611796565b94506020860135611b5081611796565b935060408601356001600160401b0380821115611b6c57600080fd5b611b7889838a01611aa9565b94506060880135915080821115611b8e57600080fd5b611b9a89838a01611aa9565b93506080880135915080821115611bb057600080fd5b50611bbd8882890161192b565b9150509295509295909350565b60008060008060608587031215611be057600080fd5b8435611beb81611796565b93506020850135611bfb81611796565b925060408501356001600160401b03811115611c1657600080fd5b611c22878288016117ae565b95989497509550505050565b60008060008060008060008060a0898b031215611c4a57600080fd5b8835611c5581611796565b97506020890135611c6581611796565b965060408901356001600160401b0380821115611c8157600080fd5b611c8d8c838d016117ae565b909850965060608b0135915080821115611ca657600080fd5b611cb28c838d016117ae565b909650945060808b0135915080821115611ccb57600080fd5b50611cd88b828c016117f9565b999c989b5096995094979396929594505050565b600080600080600060a08688031215611d0457600080fd5b8535611d0f81611796565b94506020860135611d1f81611796565b9350604086013592506060860135915060808601356001600160401b03811115611d4857600080fd5b611bbd8882890161192b565b8051611d5f81611796565b919050565b600060208284031215611d7657600080fd5b815161160481611796565b634e487b7160e01b600052603260045260246000fd5b80516fffffffffffffffffffffffffffffffff81168114611d5f57600080fd5b805164ffffffffff81168114611d5f57600080fd5b80518015158114611d5f57600080fd5b805160048110611d5f57600080fd5b60006102808284031215611dfe57600080fd5b611e066118d2565b611e0f83611d54565b81526020830151602082015260408301516040820152611e3160608401611d54565b6060820152611e4260808401611d54565b6080820152611e5360a08401611d54565b60a082015260c083015160c0820152611e6e60e08401611d97565b60e0820152610100611e81818501611d97565b90820152610120611e93848201611d54565b90820152610140611ea5848201611d54565b90820152610160838101519082015261018080840151908201526101a0611ecd818501611db7565b908201526101c0611edf848201611db7565b908201526101e0611ef1848201611db7565b90820152610200611f03848201611db7565b90820152610220611f15848201611dcc565b90820152610240611f27848201611dcc565b90820152610260611f39848201611ddc565b908201529392505050565b634e487b7160e01b600052602160045260246000fd5b634e487b7160e01b600052601160045260246000fd5b6000600019821415611f8457611f84611f5a565b5060010190565b6001600160a01b039384168152919092166020820152604081019190915260600190565b81835281816020850137506000828201602090810191909152601f909101601f19169091010190565b60a0808252875190820181905260009060209060c0840190828b01845b8281101561201a5781516001600160a01b031684529284019290840190600101611ff5565b5050508381038285015288518082528983019183019060005b8181101561204f57835183529284019291840191600101612033565b50506001600160a01b03891660408601526001600160a01b03881660608601528481036080860152612082818789611faf565b9b9a5050505050505050505050565b6000602082840312156120a357600080fd5b61160482611dcc565b6020808252601f908201527f5265656e7472616e637947756172643a207265656e7472616e742063616c6c00604082015260600190565b60208082526023908201527f424d5f41434c5f4f4e4c595f424553504f4b525f4d41524b45545f43414e5f4360408201526210531360ea1b606082015260800190565b60008282101561213857612138611f5a565b500390565b60208082526025908201527f424d5f41434c5f4f4e4c595f41495244524f505f4f50455241544f525f43414e60408201526417d0d0531360da1b606082015260800190565b81835260006001600160fb1b0383111561219b57600080fd5b8260051b8083602087013760009401602001938452509192915050565b602081526000611601602083018486612182565b6001600160a01b0389811682528816602082015260a0604082018190526000906121f9908301888a612182565b828103606084015261220c818789612182565b90508281036080840152612082818587611faf565b60608152600061223560608301888a612182565b8281036020840152612248818789612182565b9050828103604084015261225d818587611faf565b9998505050505050505050565b6000821982111561227d5761227d611f5a565b500190565b60005b8381101561229d578181015183820152602001612285565b83811115610ddb5750506000910152565b600082516122c0818460208701612282565b9190910192915050565b60208152600082518060208401526122e9816040850160208701612282565b601f01601f1916919091016040019291505056fea2646970667358221220896bb151cdb81e58acf5ad59ded0108146038aeda8a9a495e8fa7b12edb0017e64736f6c634300080a0033",
  "libraries": {
    "BespokeTypes": "0x12A7b08B9a6e74f9D15dd38a1e5A74583B63c824"
  },
  "devdoc": {
    "kind": "dev",
    "methods": {
      "claimERC1155Airdrop(address,address,uint256[],uint256[],bytes)": {
        "params": {
          "amounts": "The amount of the ERC1155 tokens",
          "data": "packed params to pass to the receiver as extra information*",
          "ids": "The ID of the ERC1155 token",
          "to": "The address which will receive the ERC1155 tokens",
          "token": "The address of the airdropped token"
        }
      },
      "claimERC20Airdrop(address,address,uint256)": {
        "params": {
          "amount": "The amount of the ERC20 token*",
          "to": "The address which will receive ERC20 token",
          "token": "The address of the airdropped token"
        }
      },
      "claimERC721Airdrop(address,address,uint256[])": {
        "params": {
          "ids": "The ID of the ERC721 token*",
          "to": "The address which will receive the ERC721 token",
          "token": "The address of the airdropped token"
        }
      },
      "emergencyTokenTransfer(address,address,uint256)": {
        "details": "transfer ERC20 from the utility contract, for ERC20 recovery in case of stuck tokens due direct transfers to the contract address.",
        "params": {
          "amount": "amount to send",
          "to": "recipient of the transfer",
          "token": "token to transfer"
        }
      },
      "flashClaim(address,uint256[],bytes)": {
        "details": "IMPORTANT There are security concerns for developers of flash loan receiver contracts that must be carefully considered",
        "params": {
          "loanIds": "The ID of loan being flash-borrowed",
          "params": "packed params to pass to the receiver as extra information*",
          "receiverAddress": "The address of the contract receiving the funds, implementing IFlashClaimReceiver interface"
        }
      },
      "onERC721Received(address,address,uint256,bytes)": {
        "details": "See {IERC721Receiver-onERC721Received}. Always returns `IERC721Receiver.onERC721Received.selector`."
      },
      "supportsInterface(bytes4)": {
        "details": "See {IERC165-supportsInterface}."
      }
    },
    "version": 1
  },
  "userdoc": {
    "kind": "user",
    "methods": {
      "claimERC1155Airdrop(address,address,uint256[],uint256[],bytes)": {
        "notice": "Claim the ERC1155 token which has been airdropped to the loan contract"
      },
      "claimERC20Airdrop(address,address,uint256)": {
        "notice": "Claim the ERC20 token which has been airdropped to the loan contract"
      },
      "claimERC721Airdrop(address,address,uint256[])": {
        "notice": "Claim the ERC721 token which has been airdropped to the loan contract"
      },
      "flashClaim(address,uint256[],bytes)": {
        "notice": "Allows smart contracts to access the collateralized NFT within one transaction, as long as the amount taken plus a fee is returned"
      }
    },
    "version": 1
  },
  "storageLayout": {
    "storage": [
      {
        "astId": 1379,
        "contract": "contracts/bespokemarket/transferAdaptersCollateral/TransferAdapterERC721Default.sol:TransferAdapterERC721Default",
        "label": "_status",
        "offset": 0,
        "slot": "0",
        "type": "t_uint256"
      },
      {
        "astId": 17257,
        "contract": "contracts/bespokemarket/transferAdaptersCollateral/TransferAdapterERC721Default.sol:TransferAdapterERC721Default",
        "label": "nftBorrowStat",
        "offset": 0,
        "slot": "1",
        "type": "t_mapping(t_address,t_uint256)"
      }
    ],
    "types": {
      "t_address": {
        "encoding": "inplace",
        "label": "address",
        "numberOfBytes": "20"
      },
      "t_mapping(t_address,t_uint256)": {
        "encoding": "mapping",
        "key": "t_address",
        "label": "mapping(address => uint256)",
        "numberOfBytes": "32",
        "value": "t_uint256"
      },
      "t_uint256": {
        "encoding": "inplace",
        "label": "uint256",
        "numberOfBytes": "32"
      }
    }
  }
}