{
  "address": "0xb64c4d2fD7A4e4083abFb997462B73Ceff5eAE47",
  "abi": [
    {
      "inputs": [
        {
          "internalType": "address",
          "name": "address_",
          "type": "address"
        }
      ],
      "stateMutability": "nonpayable",
      "type": "constructor"
    },
    {
      "inputs": [],
      "name": "OpenSkyBespokeMarket",
      "outputs": [
        {
          "internalType": "address",
          "name": "",
          "type": "address"
        }
      ],
      "stateMutability": "view",
      "type": "function"
    },
    {
      "inputs": [
        {
          "internalType": "address",
          "name": "",
          "type": "address"
        },
        {
          "internalType": "address",
          "name": "",
          "type": "address"
        },
        {
          "internalType": "uint256[]",
          "name": "",
          "type": "uint256[]"
        },
        {
          "internalType": "uint256[]",
          "name": "",
          "type": "uint256[]"
        },
        {
          "internalType": "bytes",
          "name": "",
          "type": "bytes"
        }
      ],
      "name": "onERC1155BatchReceived",
      "outputs": [
        {
          "internalType": "bytes4",
          "name": "",
          "type": "bytes4"
        }
      ],
      "stateMutability": "nonpayable",
      "type": "function"
    },
    {
      "inputs": [
        {
          "internalType": "address",
          "name": "",
          "type": "address"
        },
        {
          "internalType": "address",
          "name": "",
          "type": "address"
        },
        {
          "internalType": "uint256",
          "name": "",
          "type": "uint256"
        },
        {
          "internalType": "uint256",
          "name": "",
          "type": "uint256"
        },
        {
          "internalType": "bytes",
          "name": "",
          "type": "bytes"
        }
      ],
      "name": "onERC1155Received",
      "outputs": [
        {
          "internalType": "bytes4",
          "name": "",
          "type": "bytes4"
        }
      ],
      "stateMutability": "nonpayable",
      "type": "function"
    },
    {
      "inputs": [
        {
          "internalType": "address",
          "name": "",
          "type": "address"
        },
        {
          "internalType": "address",
          "name": "",
          "type": "address"
        },
        {
          "internalType": "uint256",
          "name": "",
          "type": "uint256"
        },
        {
          "internalType": "bytes",
          "name": "",
          "type": "bytes"
        }
      ],
      "name": "onERC721Received",
      "outputs": [
        {
          "internalType": "bytes4",
          "name": "",
          "type": "bytes4"
        }
      ],
      "stateMutability": "nonpayable",
      "type": "function"
    },
    {
      "inputs": [
        {
          "internalType": "bytes4",
          "name": "interfaceId",
          "type": "bytes4"
        }
      ],
      "name": "supportsInterface",
      "outputs": [
        {
          "internalType": "bool",
          "name": "",
          "type": "bool"
        }
      ],
      "stateMutability": "view",
      "type": "function"
    },
    {
      "inputs": [
        {
          "internalType": "address",
          "name": "collection",
          "type": "address"
        },
        {
          "internalType": "address",
          "name": "from",
          "type": "address"
        },
        {
          "internalType": "uint256",
          "name": "tokenId",
          "type": "uint256"
        },
        {
          "internalType": "uint256",
          "name": "amount",
          "type": "uint256"
        }
      ],
      "name": "transferNFTIn",
      "outputs": [],
      "stateMutability": "nonpayable",
      "type": "function"
    },
    {
      "inputs": [
        {
          "internalType": "address",
          "name": "collection",
          "type": "address"
        },
        {
          "internalType": "address",
          "name": "to",
          "type": "address"
        },
        {
          "internalType": "uint256",
          "name": "tokenId",
          "type": "uint256"
        },
        {
          "internalType": "uint256",
          "name": "amount",
          "type": "uint256"
        }
      ],
      "name": "transferNFTOut",
      "outputs": [],
      "stateMutability": "nonpayable",
      "type": "function"
    }
  ],
  "transactionHash": "0x65311d1a456ed326153dd80f0cd7bb066e827fc816c58c7f5b206b586ff98ab0",
  "args": [
    "0x6722AD2dcb411bC122C320368232A474E95a6501"
  ],
  "solcInputHash": "5caf662bc955a4ee3750eea04101df77",
  "bytecode": "0x60a060405234801561001057600080fd5b5060405161075438038061075483398101604081905261002f91610040565b6001600160a01b0316608052610070565b60006020828403121561005257600080fd5b81516001600160a01b038116811461006957600080fd5b9392505050565b6080516106bb6100996000396000818161011a015281816101c8015261028801526106bb6000f3fe608060405234801561001057600080fd5b506004361061007d5760003560e01c8063bc197c811161005b578063bc197c81146100f6578063c5d33c9d14610115578063f002f29b14610154578063f23a6e611461016757600080fd5b806301ffc9a714610082578063150b7a02146100aa57806367c9122f146100e1575b600080fd5b610095610090366004610300565b610186565b60405190151581526020015b60405180910390f35b6100c86100b8366004610404565b630a85bd0160e11b949350505050565b6040516001600160e01b031990911681526020016100a1565b6100f46100ef36600461046c565b6101bd565b005b6100c861010436600461052e565b63bc197c8160e01b95945050505050565b61013c7f000000000000000000000000000000000000000000000000000000000000000081565b6040516001600160a01b0390911681526020016100a1565b6100f461016236600461046c565b61027d565b6100c86101753660046105d8565b63f23a6e6160e01b95945050505050565b60006001600160e01b03198216630271189760e51b14806101b757506301ffc9a760e01b6001600160e01b03198316145b92915050565b336001600160a01b037f0000000000000000000000000000000000000000000000000000000000000000161461020e5760405162461bcd60e51b81526004016102059061063d565b60405180910390fd5b604051632142170760e11b81526001600160a01b038481166004830152306024830152604482018490528516906342842e0e906064015b600060405180830381600087803b15801561025f57600080fd5b505af1158015610273573d6000803e3d6000fd5b5050505050505050565b336001600160a01b037f000000000000000000000000000000000000000000000000000000000000000016146102c55760405162461bcd60e51b81526004016102059061063d565b604051632142170760e11b81523060048201526001600160a01b038481166024830152604482018490528516906342842e0e90606401610245565b60006020828403121561031257600080fd5b81356001600160e01b03198116811461032a57600080fd5b9392505050565b80356001600160a01b038116811461034857600080fd5b919050565b634e487b7160e01b600052604160045260246000fd5b604051601f8201601f1916810167ffffffffffffffff8111828210171561038c5761038c61034d565b604052919050565b600082601f8301126103a557600080fd5b813567ffffffffffffffff8111156103bf576103bf61034d565b6103d2601f8201601f1916602001610363565b8181528460208386010111156103e757600080fd5b816020850160208301376000918101602001919091529392505050565b6000806000806080858703121561041a57600080fd5b61042385610331565b935061043160208601610331565b925060408501359150606085013567ffffffffffffffff81111561045457600080fd5b61046087828801610394565b91505092959194509250565b6000806000806080858703121561048257600080fd5b61048b85610331565b935061049960208601610331565b93969395505050506040820135916060013590565b600082601f8301126104bf57600080fd5b8135602067ffffffffffffffff8211156104db576104db61034d565b8160051b6104ea828201610363565b928352848101820192828101908785111561050457600080fd5b83870192505b848310156105235782358252918301919083019061050a565b979650505050505050565b600080600080600060a0868803121561054657600080fd5b61054f86610331565b945061055d60208701610331565b9350604086013567ffffffffffffffff8082111561057a57600080fd5b61058689838a016104ae565b9450606088013591508082111561059c57600080fd5b6105a889838a016104ae565b935060808801359150808211156105be57600080fd5b506105cb88828901610394565b9150509295509295909350565b600080600080600060a086880312156105f057600080fd5b6105f986610331565b945061060760208701610331565b93506040860135925060608601359150608086013567ffffffffffffffff81111561063157600080fd5b6105cb88828901610394565b60208082526028908201527f42505f41434c5f4f4e4c595f4f50454e534b59424553504f4b454d41524b455460408201526717d0d05397d0531360c21b60608201526080019056fea26469706673582212209b4b6ddeef8665cc60a17b998a29dc14d8636c5a2deb12097cb91b5669592f4364736f6c634300080a0033",
  "libraries": {
    "BespokeTypes": "0x18DBb065e137198b4eE32F212d8442918143FaDF"
  },
  "devdoc": {
    "kind": "dev",
    "methods": {
      "onERC721Received(address,address,uint256,bytes)": {
        "details": "See {IERC721Receiver-onERC721Received}. Always returns `IERC721Receiver.onERC721Received.selector`."
      },
      "supportsInterface(bytes4)": {
        "details": "See {IERC165-supportsInterface}."
      }
    },
    "version": 1
  },
  "userdoc": {
    "kind": "user",
    "methods": {},
    "version": 1
  },
  "storageLayout": {
    "storage": [],
    "types": null
  }
}