{
  "address": "0xd7F2660bE2E3F15e937C65b4b7f4C582f6dDaAEA",
  "abi": [
    {
      "inputs": [
        {
          "internalType": "address",
          "name": "address_",
          "type": "address"
        }
      ],
      "stateMutability": "nonpayable",
      "type": "constructor"
    },
    {
      "inputs": [],
      "name": "OpenSkyBespokeMarket",
      "outputs": [
        {
          "internalType": "address",
          "name": "",
          "type": "address"
        }
      ],
      "stateMutability": "view",
      "type": "function"
    },
    {
      "inputs": [
        {
          "internalType": "address",
          "name": "",
          "type": "address"
        },
        {
          "internalType": "address",
          "name": "",
          "type": "address"
        },
        {
          "internalType": "uint256[]",
          "name": "",
          "type": "uint256[]"
        },
        {
          "internalType": "uint256[]",
          "name": "",
          "type": "uint256[]"
        },
        {
          "internalType": "bytes",
          "name": "",
          "type": "bytes"
        }
      ],
      "name": "onERC1155BatchReceived",
      "outputs": [
        {
          "internalType": "bytes4",
          "name": "",
          "type": "bytes4"
        }
      ],
      "stateMutability": "nonpayable",
      "type": "function"
    },
    {
      "inputs": [
        {
          "internalType": "address",
          "name": "",
          "type": "address"
        },
        {
          "internalType": "address",
          "name": "",
          "type": "address"
        },
        {
          "internalType": "uint256",
          "name": "",
          "type": "uint256"
        },
        {
          "internalType": "uint256",
          "name": "",
          "type": "uint256"
        },
        {
          "internalType": "bytes",
          "name": "",
          "type": "bytes"
        }
      ],
      "name": "onERC1155Received",
      "outputs": [
        {
          "internalType": "bytes4",
          "name": "",
          "type": "bytes4"
        }
      ],
      "stateMutability": "nonpayable",
      "type": "function"
    },
    {
      "inputs": [
        {
          "internalType": "address",
          "name": "",
          "type": "address"
        },
        {
          "internalType": "address",
          "name": "",
          "type": "address"
        },
        {
          "internalType": "uint256",
          "name": "",
          "type": "uint256"
        },
        {
          "internalType": "bytes",
          "name": "",
          "type": "bytes"
        }
      ],
      "name": "onERC721Received",
      "outputs": [
        {
          "internalType": "bytes4",
          "name": "",
          "type": "bytes4"
        }
      ],
      "stateMutability": "nonpayable",
      "type": "function"
    },
    {
      "inputs": [
        {
          "internalType": "bytes4",
          "name": "interfaceId",
          "type": "bytes4"
        }
      ],
      "name": "supportsInterface",
      "outputs": [
        {
          "internalType": "bool",
          "name": "",
          "type": "bool"
        }
      ],
      "stateMutability": "view",
      "type": "function"
    },
    {
      "inputs": [
        {
          "internalType": "address",
          "name": "collection",
          "type": "address"
        },
        {
          "internalType": "address",
          "name": "from",
          "type": "address"
        },
        {
          "internalType": "uint256",
          "name": "tokenId",
          "type": "uint256"
        },
        {
          "internalType": "uint256",
          "name": "amount",
          "type": "uint256"
        }
      ],
      "name": "transferNFTIn",
      "outputs": [],
      "stateMutability": "nonpayable",
      "type": "function"
    },
    {
      "inputs": [
        {
          "internalType": "address",
          "name": "collection",
          "type": "address"
        },
        {
          "internalType": "address",
          "name": "to",
          "type": "address"
        },
        {
          "internalType": "uint256",
          "name": "tokenId",
          "type": "uint256"
        },
        {
          "internalType": "uint256",
          "name": "amount",
          "type": "uint256"
        }
      ],
      "name": "transferNFTOut",
      "outputs": [],
      "stateMutability": "nonpayable",
      "type": "function"
    }
  ],
  "transactionHash": "0x0ad0bec54561a2e01b0106a7796e7ee1df3f5129c4ad911e06c9817cf6ffe30f",
  "args": [
    "0x6722AD2dcb411bC122C320368232A474E95a6501"
  ],
  "solcInputHash": "5caf662bc955a4ee3750eea04101df77",
  "bytecode": "0x60a060405234801561001057600080fd5b5060405161077e38038061077e83398101604081905261002f91610040565b6001600160a01b0316608052610070565b60006020828403121561005257600080fd5b81516001600160a01b038116811461006957600080fd5b9392505050565b6080516106e56100996000396000818161011a015281816101c8015261028301526106e56000f3fe608060405234801561001057600080fd5b506004361061007d5760003560e01c8063bc197c811161005b578063bc197c81146100f6578063c5d33c9d14610115578063f002f29b14610154578063f23a6e611461016757600080fd5b806301ffc9a714610082578063150b7a02146100aa57806367c9122f146100e1575b600080fd5b6100956100903660046102f2565b610186565b60405190151581526020015b60405180910390f35b6100c86100b83660046103f6565b630a85bd0160e11b949350505050565b6040516001600160e01b031990911681526020016100a1565b6100f46100ef36600461045e565b6101bd565b005b6100c8610104366004610520565b63bc197c8160e01b95945050505050565b61013c7f000000000000000000000000000000000000000000000000000000000000000081565b6040516001600160a01b0390911681526020016100a1565b6100f461016236600461045e565b610278565b6100c86101753660046105ca565b63f23a6e6160e01b95945050505050565b60006001600160e01b03198216630271189760e51b14806101b757506301ffc9a760e01b6001600160e01b03198316145b92915050565b336001600160a01b037f0000000000000000000000000000000000000000000000000000000000000000161461020e5760405162461bcd60e51b81526004016102059061062f565b60405180910390fd5b604051637921219560e11b81526001600160a01b0385169063f242432a90610240908690309087908790600401610677565b600060405180830381600087803b15801561025a57600080fd5b505af115801561026e573d6000803e3d6000fd5b5050505050505050565b336001600160a01b037f000000000000000000000000000000000000000000000000000000000000000016146102c05760405162461bcd60e51b81526004016102059061062f565b604051637921219560e11b81526001600160a01b0385169063f242432a90610240903090879087908790600401610677565b60006020828403121561030457600080fd5b81356001600160e01b03198116811461031c57600080fd5b9392505050565b80356001600160a01b038116811461033a57600080fd5b919050565b634e487b7160e01b600052604160045260246000fd5b604051601f8201601f1916810167ffffffffffffffff8111828210171561037e5761037e61033f565b604052919050565b600082601f83011261039757600080fd5b813567ffffffffffffffff8111156103b1576103b161033f565b6103c4601f8201601f1916602001610355565b8181528460208386010111156103d957600080fd5b816020850160208301376000918101602001919091529392505050565b6000806000806080858703121561040c57600080fd5b61041585610323565b935061042360208601610323565b925060408501359150606085013567ffffffffffffffff81111561044657600080fd5b61045287828801610386565b91505092959194509250565b6000806000806080858703121561047457600080fd5b61047d85610323565b935061048b60208601610323565b93969395505050506040820135916060013590565b600082601f8301126104b157600080fd5b8135602067ffffffffffffffff8211156104cd576104cd61033f565b8160051b6104dc828201610355565b92835284810182019282810190878511156104f657600080fd5b83870192505b84831015610515578235825291830191908301906104fc565b979650505050505050565b600080600080600060a0868803121561053857600080fd5b61054186610323565b945061054f60208701610323565b9350604086013567ffffffffffffffff8082111561056c57600080fd5b61057889838a016104a0565b9450606088013591508082111561058e57600080fd5b61059a89838a016104a0565b935060808801359150808211156105b057600080fd5b506105bd88828901610386565b9150509295509295909350565b600080600080600060a086880312156105e257600080fd5b6105eb86610323565b94506105f960208701610323565b93506040860135925060608601359150608086013567ffffffffffffffff81111561062357600080fd5b6105bd88828901610386565b60208082526028908201527f42505f41434c5f4f4e4c595f4f50454e534b59424553504f4b454d41524b455460408201526717d0d05397d0531360c21b606082015260800190565b6001600160a01b0394851681529290931660208301526040820152606081019190915260a06080820181905260009082015260c0019056fea2646970667358221220a582e066628713e6177b667c0dbcb31be34e4d6a2ca2a2397e3bc38b8f95895264736f6c634300080a0033",
  "libraries": {
    "BespokeTypes": "0x18DBb065e137198b4eE32F212d8442918143FaDF"
  },
  "devdoc": {
    "kind": "dev",
    "methods": {
      "onERC721Received(address,address,uint256,bytes)": {
        "details": "See {IERC721Receiver-onERC721Received}. Always returns `IERC721Receiver.onERC721Received.selector`."
      },
      "supportsInterface(bytes4)": {
        "details": "See {IERC165-supportsInterface}."
      }
    },
    "version": 1
  },
  "userdoc": {
    "kind": "user",
    "methods": {},
    "version": 1
  },
  "storageLayout": {
    "storage": [],
    "types": null
  }
}