{
  "address": "0x3Ae2EA905B4aE9e7613C849C94111868be855e4F",
  "abi": [
    {
      "inputs": [
        {
          "internalType": "address",
          "name": "punkContract",
          "type": "address"
        }
      ],
      "stateMutability": "nonpayable",
      "type": "constructor"
    },
    {
      "anonymous": false,
      "inputs": [
        {
          "indexed": true,
          "internalType": "address",
          "name": "owner",
          "type": "address"
        },
        {
          "indexed": true,
          "internalType": "address",
          "name": "approved",
          "type": "address"
        },
        {
          "indexed": true,
          "internalType": "uint256",
          "name": "tokenId",
          "type": "uint256"
        }
      ],
      "name": "Approval",
      "type": "event"
    },
    {
      "anonymous": false,
      "inputs": [
        {
          "indexed": true,
          "internalType": "address",
          "name": "owner",
          "type": "address"
        },
        {
          "indexed": true,
          "internalType": "address",
          "name": "operator",
          "type": "address"
        },
        {
          "indexed": false,
          "internalType": "bool",
          "name": "approved",
          "type": "bool"
        }
      ],
      "name": "ApprovalForAll",
      "type": "event"
    },
    {
      "anonymous": false,
      "inputs": [
        {
          "indexed": true,
          "internalType": "address",
          "name": "previousOwner",
          "type": "address"
        },
        {
          "indexed": true,
          "internalType": "address",
          "name": "newOwner",
          "type": "address"
        }
      ],
      "name": "OwnershipTransferred",
      "type": "event"
    },
    {
      "anonymous": false,
      "inputs": [
        {
          "indexed": false,
          "internalType": "address",
          "name": "account",
          "type": "address"
        }
      ],
      "name": "Paused",
      "type": "event"
    },
    {
      "anonymous": false,
      "inputs": [
        {
          "indexed": false,
          "internalType": "address",
          "name": "user",
          "type": "address"
        },
        {
          "indexed": false,
          "internalType": "address",
          "name": "proxy",
          "type": "address"
        }
      ],
      "name": "ProxyRegistered",
      "type": "event"
    },
    {
      "anonymous": false,
      "inputs": [
        {
          "indexed": true,
          "internalType": "address",
          "name": "from",
          "type": "address"
        },
        {
          "indexed": true,
          "internalType": "address",
          "name": "to",
          "type": "address"
        },
        {
          "indexed": true,
          "internalType": "uint256",
          "name": "tokenId",
          "type": "uint256"
        }
      ],
      "name": "Transfer",
      "type": "event"
    },
    {
      "anonymous": false,
      "inputs": [
        {
          "indexed": false,
          "internalType": "address",
          "name": "account",
          "type": "address"
        }
      ],
      "name": "Unpaused",
      "type": "event"
    },
    {
      "inputs": [
        {
          "internalType": "address",
          "name": "to",
          "type": "address"
        },
        {
          "internalType": "uint256",
          "name": "tokenId",
          "type": "uint256"
        }
      ],
      "name": "approve",
      "outputs": [],
      "stateMutability": "nonpayable",
      "type": "function"
    },
    {
      "inputs": [
        {
          "internalType": "address",
          "name": "owner",
          "type": "address"
        }
      ],
      "name": "balanceOf",
      "outputs": [
        {
          "internalType": "uint256",
          "name": "",
          "type": "uint256"
        }
      ],
      "stateMutability": "view",
      "type": "function"
    },
    {
      "inputs": [
        {
          "internalType": "uint256",
          "name": "punkIndex",
          "type": "uint256"
        }
      ],
      "name": "burn",
      "outputs": [],
      "stateMutability": "nonpayable",
      "type": "function"
    },
    {
      "inputs": [
        {
          "internalType": "uint256",
          "name": "tokenId",
          "type": "uint256"
        }
      ],
      "name": "getApproved",
      "outputs": [
        {
          "internalType": "address",
          "name": "",
          "type": "address"
        }
      ],
      "stateMutability": "view",
      "type": "function"
    },
    {
      "inputs": [
        {
          "internalType": "address",
          "name": "owner",
          "type": "address"
        },
        {
          "internalType": "address",
          "name": "operator",
          "type": "address"
        }
      ],
      "name": "isApprovedForAll",
      "outputs": [
        {
          "internalType": "bool",
          "name": "",
          "type": "bool"
        }
      ],
      "stateMutability": "view",
      "type": "function"
    },
    {
      "inputs": [
        {
          "internalType": "uint256",
          "name": "punkIndex",
          "type": "uint256"
        }
      ],
      "name": "mint",
      "outputs": [],
      "stateMutability": "nonpayable",
      "type": "function"
    },
    {
      "inputs": [],
      "name": "name",
      "outputs": [
        {
          "internalType": "string",
          "name": "",
          "type": "string"
        }
      ],
      "stateMutability": "view",
      "type": "function"
    },
    {
      "inputs": [],
      "name": "owner",
      "outputs": [
        {
          "internalType": "address",
          "name": "",
          "type": "address"
        }
      ],
      "stateMutability": "view",
      "type": "function"
    },
    {
      "inputs": [
        {
          "internalType": "uint256",
          "name": "tokenId",
          "type": "uint256"
        }
      ],
      "name": "ownerOf",
      "outputs": [
        {
          "internalType": "address",
          "name": "",
          "type": "address"
        }
      ],
      "stateMutability": "view",
      "type": "function"
    },
    {
      "inputs": [],
      "name": "pause",
      "outputs": [],
      "stateMutability": "nonpayable",
      "type": "function"
    },
    {
      "inputs": [],
      "name": "paused",
      "outputs": [
        {
          "internalType": "bool",
          "name": "",
          "type": "bool"
        }
      ],
      "stateMutability": "view",
      "type": "function"
    },
    {
      "inputs": [
        {
          "internalType": "address",
          "name": "user",
          "type": "address"
        }
      ],
      "name": "proxyInfo",
      "outputs": [
        {
          "internalType": "address",
          "name": "",
          "type": "address"
        }
      ],
      "stateMutability": "view",
      "type": "function"
    },
    {
      "inputs": [],
      "name": "punkContract",
      "outputs": [
        {
          "internalType": "address",
          "name": "",
          "type": "address"
        }
      ],
      "stateMutability": "view",
      "type": "function"
    },
    {
      "inputs": [],
      "name": "registerProxy",
      "outputs": [],
      "stateMutability": "nonpayable",
      "type": "function"
    },
    {
      "inputs": [],
      "name": "renounceOwnership",
      "outputs": [],
      "stateMutability": "nonpayable",
      "type": "function"
    },
    {
      "inputs": [
        {
          "internalType": "address",
          "name": "from",
          "type": "address"
        },
        {
          "internalType": "address",
          "name": "to",
          "type": "address"
        },
        {
          "internalType": "uint256",
          "name": "tokenId",
          "type": "uint256"
        }
      ],
      "name": "safeTransferFrom",
      "outputs": [],
      "stateMutability": "nonpayable",
      "type": "function"
    },
    {
      "inputs": [
        {
          "internalType": "address",
          "name": "from",
          "type": "address"
        },
        {
          "internalType": "address",
          "name": "to",
          "type": "address"
        },
        {
          "internalType": "uint256",
          "name": "tokenId",
          "type": "uint256"
        },
        {
          "internalType": "bytes",
          "name": "_data",
          "type": "bytes"
        }
      ],
      "name": "safeTransferFrom",
      "outputs": [],
      "stateMutability": "nonpayable",
      "type": "function"
    },
    {
      "inputs": [
        {
          "internalType": "address",
          "name": "operator",
          "type": "address"
        },
        {
          "internalType": "bool",
          "name": "approved",
          "type": "bool"
        }
      ],
      "name": "setApprovalForAll",
      "outputs": [],
      "stateMutability": "nonpayable",
      "type": "function"
    },
    {
      "inputs": [
        {
          "internalType": "bytes4",
          "name": "interfaceId",
          "type": "bytes4"
        }
      ],
      "name": "supportsInterface",
      "outputs": [
        {
          "internalType": "bool",
          "name": "",
          "type": "bool"
        }
      ],
      "stateMutability": "view",
      "type": "function"
    },
    {
      "inputs": [],
      "name": "symbol",
      "outputs": [
        {
          "internalType": "string",
          "name": "",
          "type": "string"
        }
      ],
      "stateMutability": "view",
      "type": "function"
    },
    {
      "inputs": [
        {
          "internalType": "uint256",
          "name": "tokenId",
          "type": "uint256"
        }
      ],
      "name": "tokenURI",
      "outputs": [
        {
          "internalType": "string",
          "name": "",
          "type": "string"
        }
      ],
      "stateMutability": "view",
      "type": "function"
    },
    {
      "inputs": [
        {
          "internalType": "address",
          "name": "from",
          "type": "address"
        },
        {
          "internalType": "address",
          "name": "to",
          "type": "address"
        },
        {
          "internalType": "uint256",
          "name": "tokenId",
          "type": "uint256"
        }
      ],
      "name": "transferFrom",
      "outputs": [],
      "stateMutability": "nonpayable",
      "type": "function"
    },
    {
      "inputs": [
        {
          "internalType": "address",
          "name": "newOwner",
          "type": "address"
        }
      ],
      "name": "transferOwnership",
      "outputs": [],
      "stateMutability": "nonpayable",
      "type": "function"
    },
    {
      "inputs": [],
      "name": "unpause",
      "outputs": [],
      "stateMutability": "nonpayable",
      "type": "function"
    }
  ],
  "transactionHash": "0x2c0916775698b3d6d85f25acb293bf62361b3f92cafb23f8af4de6843437f160",
  "args": [
    "0xb47c287eB1d8D9675eB456934FC0A1F557A1f657"
  ],
  "solcInputHash": "0ca3f66e9bd5de21ebb7765f6cea382a",
  "bytecode": "0x60806040523480156200001157600080fd5b5060405162001feb38038062001feb8339810160408190526200003491620001f7565b6040518060400160405280601381526020017f577261707065642043727970746f70756e6b7300000000000000000000000000815250604051806040016040528060068152602001655750554e4b5360d01b815250620000a36200009d620000fd60201b60201c565b62000101565b8151620000b890600190602085019062000151565b508051620000ce90600290602084019062000151565b5050600780546001600160a01b03909316610100026001600160a81b0319909316929092179091555062000266565b3390565b600080546001600160a01b038381166001600160a01b0319831681178455604051919092169283917f8be0079c531659141344cd1fd0a4f28419497f9722a3daafe3b4186f6b6457e09190a35050565b8280546200015f9062000229565b90600052602060002090601f016020900481019282620001835760008555620001ce565b82601f106200019e57805160ff1916838001178555620001ce565b82800160010185558215620001ce579182015b82811115620001ce578251825591602001919060010190620001b1565b50620001dc929150620001e0565b5090565b5b80821115620001dc5760008155600101620001e1565b6000602082840312156200020a57600080fd5b81516001600160a01b03811681146200022257600080fd5b9392505050565b600181811c908216806200023e57607f821691505b602082108114156200026057634e487b7160e01b600052602260045260246000fd5b50919050565b611d7580620002766000396000f3fe608060405234801561001057600080fd5b50600436106101585760003560e01c80638456cb59116100c3578063b88d4fde1161007c578063b88d4fde146102d5578063c87b56dd146102e8578063ddd81f82146102fb578063e985e9c514610303578063f2fde38b1461033f578063f97e48ee1461035257600080fd5b80638456cb59146102625780638da5cb5b1461026a57806395d89b411461027b578063a0712d6814610283578063a22cb46514610296578063a9c7b2c8146102a957600080fd5b806342842e0e1161011557806342842e0e146101f557806342966c68146102085780635c975abb1461021b5780636352211e1461022657806370a0823114610239578063715018a61461025a57600080fd5b806301ffc9a71461015d57806306fdde0314610185578063081812fc1461019a578063095ea7b3146101c557806323b872dd146101da5780633f4ba83a146101ed575b600080fd5b61017061016b36600461160a565b610368565b60405190151581526020015b60405180910390f35b61018d6103ba565b60405161017c919061167f565b6101ad6101a8366004611692565b61044c565b6040516001600160a01b03909116815260200161017c565b6101d86101d33660046116c7565b6104e6565b005b6101d86101e83660046116f1565b6105fc565b6101d861062d565b6101d86102033660046116f1565b610661565b6101d8610216366004611692565b61067c565b60075460ff16610170565b6101ad610234366004611692565b610785565b61024c61024736600461172d565b6107fc565b60405190815260200161017c565b6101d8610883565b6101d86108b7565b6000546001600160a01b03166101ad565b61018d6108e9565b6101d8610291366004611692565b6108f8565b6101d86102a4366004611756565b610a07565b6101ad6102b736600461172d565b6001600160a01b039081166000908152600860205260409020541690565b6101d86102e33660046117a3565b610acc565b61018d6102f6366004611692565b610b04565b6101d8610bec565b61017061031136600461187f565b6001600160a01b03918216600090815260066020908152604080832093909416825291909152205460ff1690565b6101d861034d36600461172d565b610d00565b60075461010090046001600160a01b03166101ad565b60006001600160e01b031982166380ac58cd60e01b148061039957506001600160e01b03198216635b5e139f60e01b145b806103b457506301ffc9a760e01b6001600160e01b03198316145b92915050565b6060600180546103c9906118b2565b80601f01602080910402602001604051908101604052809291908181526020018280546103f5906118b2565b80156104425780601f1061041757610100808354040283529160200191610442565b820191906000526020600020905b81548152906001019060200180831161042557829003601f168201915b5050505050905090565b6000818152600360205260408120546001600160a01b03166104ca5760405162461bcd60e51b815260206004820152602c60248201527f4552433732313a20617070726f76656420717565727920666f72206e6f6e657860448201526b34b9ba32b73a103a37b5b2b760a11b60648201526084015b60405180910390fd5b506000908152600560205260409020546001600160a01b031690565b60006104f182610785565b9050806001600160a01b0316836001600160a01b0316141561055f5760405162461bcd60e51b815260206004820152602160248201527f4552433732313a20617070726f76616c20746f2063757272656e74206f776e656044820152603960f91b60648201526084016104c1565b336001600160a01b038216148061057b575061057b8133610311565b6105ed5760405162461bcd60e51b815260206004820152603860248201527f4552433732313a20617070726f76652063616c6c6572206973206e6f74206f7760448201527f6e6572206e6f7220617070726f76656420666f7220616c6c000000000000000060648201526084016104c1565b6105f78383610d9b565b505050565b6106063382610e09565b6106225760405162461bcd60e51b81526004016104c1906118ed565b6105f7838383610f00565b6000546001600160a01b031633146106575760405162461bcd60e51b81526004016104c19061193e565b61065f6110a0565b565b6105f783838360405180602001604052806000815250610acc565b60075460ff161561069f5760405162461bcd60e51b81526004016104c190611973565b336106aa8183610e09565b61070c5760405162461bcd60e51b815260206004820152602d60248201527f50756e6b577261707065723a2063616c6c6572206973206e6f74206f776e657260448201526c081b9bdc88185c1c1c9bdd9959609a1b60648201526084016104c1565b61071582611133565b6007546040516322dca8bb60e21b81526001600160a01b0383811660048301526024820185905261010090920490911690638b72a2ec90604401600060405180830381600087803b15801561076957600080fd5b505af115801561077d573d6000803e3d6000fd5b505050505050565b6000818152600360205260408120546001600160a01b0316806103b45760405162461bcd60e51b815260206004820152602960248201527f4552433732313a206f776e657220717565727920666f72206e6f6e657869737460448201526832b73a103a37b5b2b760b91b60648201526084016104c1565b60006001600160a01b0382166108675760405162461bcd60e51b815260206004820152602a60248201527f4552433732313a2062616c616e636520717565727920666f7220746865207a65604482015269726f206164647265737360b01b60648201526084016104c1565b506001600160a01b031660009081526004602052604090205490565b6000546001600160a01b031633146108ad5760405162461bcd60e51b81526004016104c19061193e565b61065f60006111ce565b6000546001600160a01b031633146108e15760405162461bcd60e51b81526004016104c19061193e565b61065f61121e565b6060600280546103c9906118b2565b60075460ff161561091b5760405162461bcd60e51b81526004016104c190611973565b6000336001600160a01b038181166000908152600860205260409081902054600754915163a9059cbb60e01b81526101009092048316600483015260248201869052929350911690819063a9059cbb906044016020604051808303816000875af115801561098d573d6000803e3d6000fd5b505050506040513d601f19601f820116820180604052508101906109b1919061199d565b6109fd5760405162461bcd60e51b815260206004820152601a60248201527f50756e6b577261707065723a207472616e73666572206661696c00000000000060448201526064016104c1565b6105f78284611276565b6001600160a01b038216331415610a605760405162461bcd60e51b815260206004820152601960248201527f4552433732313a20617070726f766520746f2063616c6c65720000000000000060448201526064016104c1565b3360008181526006602090815260408083206001600160a01b03871680855290835292819020805460ff191686151590811790915590519081529192917f17307eab39ab6107e8899845ad3d59bd9653f200f220920489ca2b5937696c31910160405180910390a35050565b610ad63383610e09565b610af25760405162461bcd60e51b81526004016104c1906118ed565b610afe848484846113b8565b50505050565b6000818152600360205260409020546060906001600160a01b0316610b835760405162461bcd60e51b815260206004820152602f60248201527f4552433732314d657461646174613a2055524920717565727920666f72206e6f60448201526e3732bc34b9ba32b73a103a37b5b2b760891b60648201526084016104c1565b6000610b9a60408051602081019091526000815290565b90506000815111610bba5760405180602001604052806000815250610be5565b80610bc4846113eb565b604051602001610bd59291906119ba565b6040516020818303038152906040525b9392505050565b336000818152600860205260409020546001600160a01b031615610c675760405162461bcd60e51b815260206004820152602c60248201527f50756e6b577261707065723a2063616c6c65722068617320726567697374657260448201526b6564207468652070726f787960a01b60648201526084016104c1565b6000604051610c75906115e7565b604051809103906000f080158015610c91573d6000803e3d6000fd5b506001600160a01b0383811660008181526008602090815260409182902080546001600160a01b031916948616948517905581519283528201929092529192507f3623f8bd4da9524cfaa08c81b8194f759ca625e8d761f4cc2cea23e63d3f4b12910160405180910390a15050565b6000546001600160a01b03163314610d2a5760405162461bcd60e51b81526004016104c19061193e565b6001600160a01b038116610d8f5760405162461bcd60e51b815260206004820152602660248201527f4f776e61626c653a206e6577206f776e657220697320746865207a65726f206160448201526564647265737360d01b60648201526084016104c1565b610d98816111ce565b50565b600081815260056020526040902080546001600160a01b0319166001600160a01b0384169081179091558190610dd082610785565b6001600160a01b03167f8c5be1e5ebec7d5bd14f71427d1e84f3dd0314c0f7b2291e5b200ac8c7c3b92560405160405180910390a45050565b6000818152600360205260408120546001600160a01b0316610e825760405162461bcd60e51b815260206004820152602c60248201527f4552433732313a206f70657261746f7220717565727920666f72206e6f6e657860448201526b34b9ba32b73a103a37b5b2b760a11b60648201526084016104c1565b6000610e8d83610785565b9050806001600160a01b0316846001600160a01b03161480610ec85750836001600160a01b0316610ebd8461044c565b6001600160a01b0316145b80610ef857506001600160a01b0380821660009081526006602090815260408083209388168352929052205460ff165b949350505050565b826001600160a01b0316610f1382610785565b6001600160a01b031614610f7b5760405162461bcd60e51b815260206004820152602960248201527f4552433732313a207472616e73666572206f6620746f6b656e2074686174206960448201526839903737ba1037bbb760b91b60648201526084016104c1565b6001600160a01b038216610fdd5760405162461bcd60e51b8152602060048201526024808201527f4552433732313a207472616e7366657220746f20746865207a65726f206164646044820152637265737360e01b60648201526084016104c1565b610fe8600082610d9b565b6001600160a01b03831660009081526004602052604081208054600192906110119084906119ff565b90915550506001600160a01b038216600090815260046020526040812080546001929061103f908490611a16565b909155505060008181526003602052604080822080546001600160a01b0319166001600160a01b0386811691821790925591518493918716917fddf252ad1be2c89b69c2b068fc378daa952ba7f163c4a11628f55a4df523b3ef91a4505050565b60075460ff166110e95760405162461bcd60e51b815260206004820152601460248201527314185d5cd8589b194e881b9bdd081c185d5cd95960621b60448201526064016104c1565b6007805460ff191690557f5db9ee0a495bf2e6ff9c91a7834c1ba4fdd244a5e8aa4e537bd38aeae4b073aa335b6040516001600160a01b03909116815260200160405180910390a1565b600061113e82610785565b905061114b600083610d9b565b6001600160a01b03811660009081526004602052604081208054600192906111749084906119ff565b909155505060008281526003602052604080822080546001600160a01b0319169055518391906001600160a01b038416907fddf252ad1be2c89b69c2b068fc378daa952ba7f163c4a11628f55a4df523b3ef908390a45050565b600080546001600160a01b038381166001600160a01b0319831681178455604051919092169283917f8be0079c531659141344cd1fd0a4f28419497f9722a3daafe3b4186f6b6457e09190a35050565b60075460ff16156112415760405162461bcd60e51b81526004016104c190611973565b6007805460ff191660011790557f62e78cea01bee320cd4e420270b5ea74000d11b0c9f74754ebdbfc544b05a2586111163390565b6001600160a01b0382166112cc5760405162461bcd60e51b815260206004820181905260248201527f4552433732313a206d696e7420746f20746865207a65726f206164647265737360448201526064016104c1565b6000818152600360205260409020546001600160a01b0316156113315760405162461bcd60e51b815260206004820152601c60248201527f4552433732313a20746f6b656e20616c7265616479206d696e7465640000000060448201526064016104c1565b6001600160a01b038216600090815260046020526040812080546001929061135a908490611a16565b909155505060008181526003602052604080822080546001600160a01b0319166001600160a01b03861690811790915590518392907fddf252ad1be2c89b69c2b068fc378daa952ba7f163c4a11628f55a4df523b3ef908290a45050565b6113c3848484610f00565b6113cf848484846114e9565b610afe5760405162461bcd60e51b81526004016104c190611a2e565b60608161140f5750506040805180820190915260018152600360fc1b602082015290565b8160005b8115611439578061142381611a80565b91506114329050600a83611ab1565b9150611413565b60008167ffffffffffffffff8111156114545761145461178d565b6040519080825280601f01601f19166020018201604052801561147e576020820181803683370190505b5090505b8415610ef8576114936001836119ff565b91506114a0600a86611ac5565b6114ab906030611a16565b60f81b8183815181106114c0576114c0611ad9565b60200101906001600160f81b031916908160001a9053506114e2600a86611ab1565b9450611482565b60006001600160a01b0384163b156115dc57604051630a85bd0160e11b81526001600160a01b0385169063150b7a029061152d903390899088908890600401611aef565b6020604051808303816000875af1925050508015611568575060408051601f3d908101601f1916820190925261156591810190611b2c565b60015b6115c2573d808015611596576040519150601f19603f3d011682016040523d82523d6000602084013e61159b565b606091505b5080516115ba5760405162461bcd60e51b81526004016104c190611a2e565b805181602001fd5b6001600160e01b031916630a85bd0160e11b149050610ef8565b506001949350505050565b6101f680611b4a83390190565b6001600160e01b031981168114610d9857600080fd5b60006020828403121561161c57600080fd5b8135610be5816115f4565b60005b8381101561164257818101518382015260200161162a565b83811115610afe5750506000910152565b6000815180845261166b816020860160208601611627565b601f01601f19169290920160200192915050565b602081526000610be56020830184611653565b6000602082840312156116a457600080fd5b5035919050565b80356001600160a01b03811681146116c257600080fd5b919050565b600080604083850312156116da57600080fd5b6116e3836116ab565b946020939093013593505050565b60008060006060848603121561170657600080fd5b61170f846116ab565b925061171d602085016116ab565b9150604084013590509250925092565b60006020828403121561173f57600080fd5b610be5826116ab565b8015158114610d9857600080fd5b6000806040838503121561176957600080fd5b611772836116ab565b9150602083013561178281611748565b809150509250929050565b634e487b7160e01b600052604160045260246000fd5b600080600080608085870312156117b957600080fd5b6117c2856116ab565b93506117d0602086016116ab565b925060408501359150606085013567ffffffffffffffff808211156117f457600080fd5b818701915087601f83011261180857600080fd5b81358181111561181a5761181a61178d565b604051601f8201601f19908116603f011681019083821181831017156118425761184261178d565b816040528281528a602084870101111561185b57600080fd5b82602086016020830137600060208483010152809550505050505092959194509250565b6000806040838503121561189257600080fd5b61189b836116ab565b91506118a9602084016116ab565b90509250929050565b600181811c908216806118c657607f821691505b602082108114156118e757634e487b7160e01b600052602260045260246000fd5b50919050565b60208082526031908201527f4552433732313a207472616e736665722063616c6c6572206973206e6f74206f6040820152701ddb995c881b9bdc88185c1c1c9bdd9959607a1b606082015260800190565b6020808252818101527f4f776e61626c653a2063616c6c6572206973206e6f7420746865206f776e6572604082015260600190565b60208082526010908201526f14185d5cd8589b194e881c185d5cd95960821b604082015260600190565b6000602082840312156119af57600080fd5b8151610be581611748565b600083516119cc818460208801611627565b8351908301906119e0818360208801611627565b01949350505050565b634e487b7160e01b600052601160045260246000fd5b600082821015611a1157611a116119e9565b500390565b60008219821115611a2957611a296119e9565b500190565b60208082526032908201527f4552433732313a207472616e7366657220746f206e6f6e20455243373231526560408201527131b2b4bb32b91034b6b83632b6b2b73a32b960711b606082015260800190565b6000600019821415611a9457611a946119e9565b5060010190565b634e487b7160e01b600052601260045260246000fd5b600082611ac057611ac0611a9b565b500490565b600082611ad457611ad4611a9b565b500690565b634e487b7160e01b600052603260045260246000fd5b6001600160a01b0385811682528416602082015260408101839052608060608201819052600090611b2290830184611653565b9695505050505050565b600060208284031215611b3e57600080fd5b8151610be5816115f456fe608060405234801561001057600080fd5b50600080546001600160a01b031916331790556101c4806100326000396000f3fe608060405234801561001057600080fd5b506004361061002b5760003560e01c8063a9059cbb14610030575b600080fd5b61004361003e36600461011b565b610057565b604051901515815260200160405180910390f35b600080546001600160a01b0316331461007257506000610115565b600080546040516001600160a01b039182166024820152604481018590529085169060640160408051601f198184030181529181526020820180516001600160e01b03166322dca8bb60e21b179052516100cc9190610153565b6000604051808303816000865af19150503d8060008114610109576040519150601f19603f3d011682016040523d82523d6000602084013e61010e565b606091505b5090925050505b92915050565b6000806040838503121561012e57600080fd5b82356001600160a01b038116811461014557600080fd5b946020939093013593505050565b6000825160005b81811015610174576020818601810151858301520161015a565b81811115610183576000828501525b50919091019291505056fea2646970667358221220c2f79caa2677c049ed936acc47f913d9b93799c2f5001c1707bd11944c0b886a64736f6c634300080a0033a2646970667358221220a2bac4515d6ad83a423920bef012001d782072035ccf25de7f23971c88d3583264736f6c634300080a0033",
  "devdoc": {
    "kind": "dev",
    "methods": {
      "approve(address,uint256)": {
        "details": "See {IERC721-approve}."
      },
      "balanceOf(address)": {
        "details": "See {IERC721-balanceOf}."
      },
      "burn(uint256)": {
        "details": "Burns a specific wrapped punk"
      },
      "constructor": {
        "details": "Initializes the contract settings"
      },
      "getApproved(uint256)": {
        "details": "See {IERC721-getApproved}."
      },
      "isApprovedForAll(address,address)": {
        "details": "See {IERC721-isApprovedForAll}."
      },
      "mint(uint256)": {
        "details": "Mints a wrapped punk"
      },
      "name()": {
        "details": "See {IERC721Metadata-name}."
      },
      "owner()": {
        "details": "Returns the address of the current owner."
      },
      "ownerOf(uint256)": {
        "details": "See {IERC721-ownerOf}."
      },
      "pause()": {
        "details": "Triggers smart contract to stopped state"
      },
      "paused()": {
        "details": "Returns true if the contract is paused, and false otherwise."
      },
      "proxyInfo(address)": {
        "details": "Gets proxy address"
      },
      "punkContract()": {
        "details": "Gets address of cryptopunk smart contract"
      },
      "registerProxy()": {
        "details": "Registers proxy"
      },
      "renounceOwnership()": {
        "details": "Leaves the contract without owner. It will not be possible to call `onlyOwner` functions anymore. Can only be called by the current owner. NOTE: Renouncing ownership will leave the contract without an owner, thereby removing any functionality that is only available to the owner."
      },
      "safeTransferFrom(address,address,uint256)": {
        "details": "See {IERC721-safeTransferFrom}."
      },
      "safeTransferFrom(address,address,uint256,bytes)": {
        "details": "See {IERC721-safeTransferFrom}."
      },
      "setApprovalForAll(address,bool)": {
        "details": "See {IERC721-setApprovalForAll}."
      },
      "supportsInterface(bytes4)": {
        "details": "See {IERC165-supportsInterface}."
      },
      "symbol()": {
        "details": "See {IERC721Metadata-symbol}."
      },
      "tokenURI(uint256)": {
        "details": "See {IERC721Metadata-tokenURI}."
      },
      "transferFrom(address,address,uint256)": {
        "details": "See {IERC721-transferFrom}."
      },
      "transferOwnership(address)": {
        "details": "Transfers ownership of the contract to a new account (`newOwner`). Can only be called by the current owner."
      },
      "unpause()": {
        "details": "Returns smart contract to normal state"
      }
    },
    "version": 1
  },
  "userdoc": {
    "kind": "user",
    "methods": {},
    "version": 1
  },
  "storageLayout": {
    "storage": [
      {
        "astId": 387,
        "contract": "contracts/mocks/cryptopunk/WrappedPunkMock.sol:WrappedPunk",
        "label": "_owner",
        "offset": 0,
        "slot": "0",
        "type": "t_address"
      },
      {
        "astId": 4564,
        "contract": "contracts/mocks/cryptopunk/WrappedPunkMock.sol:WrappedPunk",
        "label": "_name",
        "offset": 0,
        "slot": "1",
        "type": "t_string_storage"
      },
      {
        "astId": 4566,
        "contract": "contracts/mocks/cryptopunk/WrappedPunkMock.sol:WrappedPunk",
        "label": "_symbol",
        "offset": 0,
        "slot": "2",
        "type": "t_string_storage"
      },
      {
        "astId": 4570,
        "contract": "contracts/mocks/cryptopunk/WrappedPunkMock.sol:WrappedPunk",
        "label": "_owners",
        "offset": 0,
        "slot": "3",
        "type": "t_mapping(t_uint256,t_address)"
      },
      {
        "astId": 4574,
        "contract": "contracts/mocks/cryptopunk/WrappedPunkMock.sol:WrappedPunk",
        "label": "_balances",
        "offset": 0,
        "slot": "4",
        "type": "t_mapping(t_address,t_uint256)"
      },
      {
        "astId": 4578,
        "contract": "contracts/mocks/cryptopunk/WrappedPunkMock.sol:WrappedPunk",
        "label": "_tokenApprovals",
        "offset": 0,
        "slot": "5",
        "type": "t_mapping(t_uint256,t_address)"
      },
      {
        "astId": 4584,
        "contract": "contracts/mocks/cryptopunk/WrappedPunkMock.sol:WrappedPunk",
        "label": "_operatorApprovals",
        "offset": 0,
        "slot": "6",
        "type": "t_mapping(t_address,t_mapping(t_address,t_bool))"
      },
      {
        "astId": 1294,
        "contract": "contracts/mocks/cryptopunk/WrappedPunkMock.sol:WrappedPunk",
        "label": "_paused",
        "offset": 0,
        "slot": "7",
        "type": "t_bool"
      },
      {
        "astId": 24319,
        "contract": "contracts/mocks/cryptopunk/WrappedPunkMock.sol:WrappedPunk",
        "label": "_punkContract",
        "offset": 1,
        "slot": "7",
        "type": "t_contract(ICryptoPunk)17998"
      },
      {
        "astId": 24323,
        "contract": "contracts/mocks/cryptopunk/WrappedPunkMock.sol:WrappedPunk",
        "label": "_proxies",
        "offset": 0,
        "slot": "8",
        "type": "t_mapping(t_address,t_address)"
      }
    ],
    "types": {
      "t_address": {
        "encoding": "inplace",
        "label": "address",
        "numberOfBytes": "20"
      },
      "t_bool": {
        "encoding": "inplace",
        "label": "bool",
        "numberOfBytes": "1"
      },
      "t_contract(ICryptoPunk)17998": {
        "encoding": "inplace",
        "label": "contract ICryptoPunk",
        "numberOfBytes": "20"
      },
      "t_mapping(t_address,t_address)": {
        "encoding": "mapping",
        "key": "t_address",
        "label": "mapping(address => address)",
        "numberOfBytes": "32",
        "value": "t_address"
      },
      "t_mapping(t_address,t_bool)": {
        "encoding": "mapping",
        "key": "t_address",
        "label": "mapping(address => bool)",
        "numberOfBytes": "32",
        "value": "t_bool"
      },
      "t_mapping(t_address,t_mapping(t_address,t_bool))": {
        "encoding": "mapping",
        "key": "t_address",
        "label": "mapping(address => mapping(address => bool))",
        "numberOfBytes": "32",
        "value": "t_mapping(t_address,t_bool)"
      },
      "t_mapping(t_address,t_uint256)": {
        "encoding": "mapping",
        "key": "t_address",
        "label": "mapping(address => uint256)",
        "numberOfBytes": "32",
        "value": "t_uint256"
      },
      "t_mapping(t_uint256,t_address)": {
        "encoding": "mapping",
        "key": "t_uint256",
        "label": "mapping(uint256 => address)",
        "numberOfBytes": "32",
        "value": "t_address"
      },
      "t_string_storage": {
        "encoding": "bytes",
        "label": "string",
        "numberOfBytes": "32"
      },
      "t_uint256": {
        "encoding": "inplace",
        "label": "uint256",
        "numberOfBytes": "32"
      }
    }
  }
}